{
	"lastweek.sol": {
		"SnipeFinanceMultisenders": {
			"abi": [
				{
					"inputs": [],
					"stateMutability": "nonpayable",
					"type": "constructor"
				},
				{
					"anonymous": false,
					"inputs": [
						{
							"indexed": true,
							"internalType": "address",
							"name": "previousOwner",
							"type": "address"
						},
						{
							"indexed": true,
							"internalType": "address",
							"name": "newOwner",
							"type": "address"
						}
					],
					"name": "OwnershipTransferred",
					"type": "event"
				},
				{
					"inputs": [
						{
							"internalType": "address[]",
							"name": "recipients",
							"type": "address[]"
						},
						{
							"internalType": "uint256[]",
							"name": "values",
							"type": "uint256[]"
						}
					],
					"name": "BNBmultisender",
					"outputs": [],
					"stateMutability": "payable",
					"type": "function"
				},
				{
					"inputs": [
						{
							"internalType": "contract IERC20",
							"name": "token",
							"type": "address"
						},
						{
							"internalType": "uint256",
							"name": "_amount",
							"type": "uint256"
						}
					],
					"name": "SetTokenToholdAndQuantity",
					"outputs": [],
					"stateMutability": "nonpayable",
					"type": "function"
				},
				{
					"inputs": [
						{
							"internalType": "contract IERC20",
							"name": "token",
							"type": "address"
						},
						{
							"internalType": "address[]",
							"name": "recipients",
							"type": "address[]"
						},
						{
							"internalType": "uint256[]",
							"name": "values",
							"type": "uint256[]"
						}
					],
					"name": "TOKENmultisender",
					"outputs": [],
					"stateMutability": "payable",
					"type": "function"
				},
				{
					"inputs": [
						{
							"internalType": "address",
							"name": "_addr",
							"type": "address"
						}
					],
					"name": "authorizeToUse",
					"outputs": [],
					"stateMutability": "nonpayable",
					"type": "function"
				},
				{
					"inputs": [
						{
							"internalType": "address",
							"name": "",
							"type": "address"
						}
					],
					"name": "authorizedusers",
					"outputs": [
						{
							"internalType": "bool",
							"name": "",
							"type": "bool"
						}
					],
					"stateMutability": "view",
					"type": "function"
				},
				{
					"inputs": [],
					"name": "fee",
					"outputs": [
						{
							"internalType": "uint256",
							"name": "",
							"type": "uint256"
						}
					],
					"stateMutability": "view",
					"type": "function"
				},
				{
					"inputs": [],
					"name": "feeamounts",
					"outputs": [
						{
							"internalType": "uint256",
							"name": "",
							"type": "uint256"
						}
					],
					"stateMutability": "view",
					"type": "function"
				},
				{
					"inputs": [],
					"name": "owner",
					"outputs": [
						{
							"internalType": "address",
							"name": "",
							"type": "address"
						}
					],
					"stateMutability": "view",
					"type": "function"
				},
				{
					"inputs": [],
					"name": "quantity",
					"outputs": [
						{
							"internalType": "uint256",
							"name": "",
							"type": "uint256"
						}
					],
					"stateMutability": "view",
					"type": "function"
				},
				{
					"inputs": [
						{
							"internalType": "address",
							"name": "user",
							"type": "address"
						}
					],
					"name": "readAuthorizedUsers",
					"outputs": [
						{
							"internalType": "bool",
							"name": "",
							"type": "bool"
						}
					],
					"stateMutability": "view",
					"type": "function"
				},
				{
					"inputs": [],
					"name": "receiver",
					"outputs": [
						{
							"internalType": "address payable",
							"name": "",
							"type": "address"
						}
					],
					"stateMutability": "view",
					"type": "function"
				},
				{
					"inputs": [],
					"name": "renounceOwnership",
					"outputs": [],
					"stateMutability": "nonpayable",
					"type": "function"
				},
				{
					"inputs": [
						{
							"internalType": "address",
							"name": "_addr",
							"type": "address"
						},
						{
							"internalType": "bool",
							"name": "_bool",
							"type": "bool"
						}
					],
					"name": "setauthor",
					"outputs": [],
					"stateMutability": "nonpayable",
					"type": "function"
				},
				{
					"inputs": [
						{
							"internalType": "uint256",
							"name": "newfee",
							"type": "uint256"
						},
						{
							"internalType": "address",
							"name": "_receiver",
							"type": "address"
						}
					],
					"name": "setfeeToUse",
					"outputs": [],
					"stateMutability": "nonpayable",
					"type": "function"
				},
				{
					"inputs": [],
					"name": "tokenaddress",
					"outputs": [
						{
							"internalType": "contract IERC20",
							"name": "",
							"type": "address"
						}
					],
					"stateMutability": "view",
					"type": "function"
				},
				{
					"inputs": [
						{
							"internalType": "address",
							"name": "newOwner",
							"type": "address"
						}
					],
					"name": "transferOwnership",
					"outputs": [],
					"stateMutability": "nonpayable",
					"type": "function"
				},
				{
					"inputs": [],
					"name": "withdraw",
					"outputs": [],
					"stateMutability": "nonpayable",
					"type": "function"
				}
			],
			"devdoc": {
				"kind": "dev",
				"methods": {
					"owner()": {
						"details": "Returns the address of the current owner."
					},
					"renounceOwnership()": {
						"details": "Leaves the contract without owner. It will not be possible to call `onlyOwner` functions. Can only be called by the current owner. NOTE: Renouncing ownership will leave the contract without an owner, thereby disabling any functionality that is only available to the owner."
					},
					"transferOwnership(address)": {
						"details": "Transfers ownership of the contract to a new account (`newOwner`). Can only be called by the current owner."
					}
				},
				"version": 1
			},
			"evm": {
				"assembly": "    /* \"lastweek.sol\":167:3016  contract SnipeFinanceMultisenders is Ownable{... */\n  mstore(0x40, 0x80)\n    /* \"lastweek.sol\":505:591  constructor() {... */\n  callvalue\n  dup1\n  iszero\n  tag_1\n  jumpi\n  0x00\n  dup1\n  revert\ntag_1:\n  pop\n    /* \"@openzeppelin/contracts/access/Ownable.sol\":936:968  _transferOwnership(_msgSender()) */\n  tag_5\n    /* \"@openzeppelin/contracts/access/Ownable.sol\":955:967  _msgSender() */\n  tag_6\n    /* \"@openzeppelin/contracts/access/Ownable.sol\":955:965  _msgSender */\n  shl(0x20, tag_7)\n    /* \"@openzeppelin/contracts/access/Ownable.sol\":955:967  _msgSender() */\n  0x20\n  shr\n  jump\t// in\ntag_6:\n    /* \"@openzeppelin/contracts/access/Ownable.sol\":936:954  _transferOwnership */\n  shl(0x20, tag_8)\n    /* \"@openzeppelin/contracts/access/Ownable.sol\":936:968  _transferOwnership(_msgSender()) */\n  0x20\n  shr\n  jump\t// in\ntag_5:\n    /* \"lastweek.sol\":548:555  owner() */\n  tag_10\n    /* \"lastweek.sol\":548:553  owner */\n  shl(0x20, tag_11)\n    /* \"lastweek.sol\":548:555  owner() */\n  0x20\n  shr\n  jump\t// in\ntag_10:\n    /* \"lastweek.sol\":529:537  receiver */\n  0x02\n  0x00\n    /* \"lastweek.sol\":529:556  receiver = payable(owner()) */\n  0x0100\n  exp\n  dup2\n  sload\n  dup2\n  0xffffffffffffffffffffffffffffffffffffffff\n  mul\n  not\n  and\n  swap1\n  dup4\n  0xffffffffffffffffffffffffffffffffffffffff\n  and\n  mul\n  or\n  swap1\n  sstore\n  pop\n    /* \"lastweek.sol\":572:584  1 * 10 ** 14 */\n  0x5af3107a4000\n    /* \"lastweek.sol\":566:569  fee */\n  0x01\n    /* \"lastweek.sol\":566:584  fee = 1 * 10 ** 14 */\n  dup2\n  swap1\n  sstore\n  pop\n    /* \"lastweek.sol\":167:3016  contract SnipeFinanceMultisenders is Ownable{... */\n  jump(tag_12)\n    /* \"@openzeppelin/contracts/utils/Context.sol\":640:736  function _msgSender() internal view virtual returns (address) {... */\ntag_7:\n    /* \"@openzeppelin/contracts/utils/Context.sol\":693:700  address */\n  0x00\n    /* \"@openzeppelin/contracts/utils/Context.sol\":719:729  msg.sender */\n  caller\n    /* \"@openzeppelin/contracts/utils/Context.sol\":712:729  return msg.sender */\n  swap1\n  pop\n    /* \"@openzeppelin/contracts/utils/Context.sol\":640:736  function _msgSender() internal view virtual returns (address) {... */\n  swap1\n  jump\t// out\n    /* \"@openzeppelin/contracts/access/Ownable.sol\":2426:2613  function _transferOwnership(address newOwner) internal virtual {... */\ntag_8:\n    /* \"@openzeppelin/contracts/access/Ownable.sol\":2499:2515  address oldOwner */\n  0x00\n    /* \"@openzeppelin/contracts/access/Ownable.sol\":2518:2524  _owner */\n  dup1\n  0x00\n  swap1\n  sload\n  swap1\n  0x0100\n  exp\n  swap1\n  div\n  0xffffffffffffffffffffffffffffffffffffffff\n  and\n    /* \"@openzeppelin/contracts/access/Ownable.sol\":2499:2524  address oldOwner = _owner */\n  swap1\n  pop\n    /* \"@openzeppelin/contracts/access/Ownable.sol\":2543:2551  newOwner */\n  dup2\n    /* \"@openzeppelin/contracts/access/Ownable.sol\":2534:2540  _owner */\n  0x00\n  dup1\n    /* \"@openzeppelin/contracts/access/Ownable.sol\":2534:2551  _owner = newOwner */\n  0x0100\n  exp\n  dup2\n  sload\n  dup2\n  0xffffffffffffffffffffffffffffffffffffffff\n  mul\n  not\n  and\n  swap1\n  dup4\n  0xffffffffffffffffffffffffffffffffffffffff\n  and\n  mul\n  or\n  swap1\n  sstore\n  pop\n    /* \"@openzeppelin/contracts/access/Ownable.sol\":2597:2605  newOwner */\n  dup2\n    /* \"@openzeppelin/contracts/access/Ownable.sol\":2566:2606  OwnershipTransferred(oldOwner, newOwner) */\n  0xffffffffffffffffffffffffffffffffffffffff\n  and\n    /* \"@openzeppelin/contracts/access/Ownable.sol\":2587:2595  oldOwner */\n  dup2\n    /* \"@openzeppelin/contracts/access/Ownable.sol\":2566:2606  OwnershipTransferred(oldOwner, newOwner) */\n  0xffffffffffffffffffffffffffffffffffffffff\n  and\n  0x8be0079c531659141344cd1fd0a4f28419497f9722a3daafe3b4186f6b6457e0\n  mload(0x40)\n  mload(0x40)\n  dup1\n  swap2\n  sub\n  swap1\n  log3\n    /* \"@openzeppelin/contracts/access/Ownable.sol\":2489:2613  {... */\n  pop\n    /* \"@openzeppelin/contracts/access/Ownable.sol\":2426:2613  function _transferOwnership(address newOwner) internal virtual {... */\n  pop\n  jump\t// out\n    /* \"@openzeppelin/contracts/access/Ownable.sol\":1201:1286  function owner() public view virtual returns (address) {... */\ntag_11:\n    /* \"@openzeppelin/contracts/access/Ownable.sol\":1247:1254  address */\n  0x00\n    /* \"@openzeppelin/contracts/access/Ownable.sol\":1273:1279  _owner */\n  dup1\n  0x00\n  swap1\n  sload\n  swap1\n  0x0100\n  exp\n  swap1\n  div\n  0xffffffffffffffffffffffffffffffffffffffff\n  and\n    /* \"@openzeppelin/contracts/access/Ownable.sol\":1266:1279  return _owner */\n  swap1\n  pop\n    /* \"@openzeppelin/contracts/access/Ownable.sol\":1201:1286  function owner() public view virtual returns (address) {... */\n  swap1\n  jump\t// out\n    /* \"lastweek.sol\":167:3016  contract SnipeFinanceMultisenders is Ownable{... */\ntag_12:\n  dataSize(sub_0)\n  dup1\n  dataOffset(sub_0)\n  0x00\n  codecopy\n  0x00\n  return\nstop\n\nsub_0: assembly {\n        /* \"lastweek.sol\":167:3016  contract SnipeFinanceMultisenders is Ownable{... */\n      mstore(0x40, 0x80)\n      jumpi(tag_1, lt(calldatasize, 0x04))\n      shr(0xe0, calldataload(0x00))\n      dup1\n      0x8da5cb5b\n      gt\n      tag_19\n      jumpi\n      dup1\n      0xddca3f43\n      gt\n      tag_20\n      jumpi\n      dup1\n      0xddca3f43\n      eq\n      tag_14\n      jumpi\n      dup1\n      0xe3cec849\n      eq\n      tag_15\n      jumpi\n      dup1\n      0xf2fde38b\n      eq\n      tag_16\n      jumpi\n      dup1\n      0xf7260d3e\n      eq\n      tag_17\n      jumpi\n      dup1\n      0xfb520af2\n      eq\n      tag_18\n      jumpi\n      jump(tag_1)\n    tag_20:\n      dup1\n      0x8da5cb5b\n      eq\n      tag_10\n      jumpi\n      dup1\n      0x9c8b9e7b\n      eq\n      tag_11\n      jumpi\n      dup1\n      0x9cbd3433\n      eq\n      tag_12\n      jumpi\n      dup1\n      0xa4df0256\n      eq\n      tag_13\n      jumpi\n      jump(tag_1)\n    tag_19:\n      dup1\n      0x3feff76d\n      gt\n      tag_21\n      jumpi\n      dup1\n      0x3feff76d\n      eq\n      tag_6\n      jumpi\n      dup1\n      0x44b6209d\n      eq\n      tag_7\n      jumpi\n      dup1\n      0x4b4fb1b0\n      eq\n      tag_8\n      jumpi\n      dup1\n      0x715018a6\n      eq\n      tag_9\n      jumpi\n      jump(tag_1)\n    tag_21:\n      dup1\n      0x126ccd94\n      eq\n      tag_2\n      jumpi\n      dup1\n      0x17fc45e2\n      eq\n      tag_3\n      jumpi\n      dup1\n      0x2fc75eb0\n      eq\n      tag_4\n      jumpi\n      dup1\n      0x3ccfd60b\n      eq\n      tag_5\n      jumpi\n    tag_1:\n      0x00\n      dup1\n      revert\n        /* \"lastweek.sol\":1984:2128  function setfeeToUse (uint256 newfee, address _receiver) onlyOwner external {... */\n    tag_2:\n      callvalue\n      dup1\n      iszero\n      tag_22\n      jumpi\n      0x00\n      dup1\n      revert\n    tag_22:\n      pop\n      tag_23\n      0x04\n      dup1\n      calldatasize\n      sub\n      dup2\n      add\n      swap1\n      tag_24\n      swap2\n      swap1\n      tag_25\n      jump\t// in\n    tag_24:\n      tag_26\n      jump\t// in\n    tag_23:\n      stop\n        /* \"lastweek.sol\":439:462  uint256 public quantity */\n    tag_3:\n      callvalue\n      dup1\n      iszero\n      tag_27\n      jumpi\n      0x00\n      dup1\n      revert\n    tag_27:\n      pop\n      tag_28\n      tag_29\n      jump\t// in\n    tag_28:\n      mload(0x40)\n      tag_30\n      swap2\n      swap1\n      tag_31\n      jump\t// in\n    tag_30:\n      mload(0x40)\n      dup1\n      swap2\n      sub\n      swap1\n      return\n        /* \"lastweek.sol\":2744:2895  function SetTokenToholdAndQuantity (IERC20 token, uint256 _amount) onlyOwner external {... */\n    tag_4:\n      callvalue\n      dup1\n      iszero\n      tag_32\n      jumpi\n      0x00\n      dup1\n      revert\n    tag_32:\n      pop\n      tag_33\n      0x04\n      dup1\n      calldatasize\n      sub\n      dup2\n      add\n      swap1\n      tag_34\n      swap2\n      swap1\n      tag_35\n      jump\t// in\n    tag_34:\n      tag_36\n      jump\t// in\n    tag_33:\n      stop\n        /* \"lastweek.sol\":2185:2311  function withdraw() onlyOwner external {... */\n    tag_5:\n      callvalue\n      dup1\n      iszero\n      tag_37\n      jumpi\n      0x00\n      dup1\n      revert\n    tag_37:\n      pop\n      tag_38\n      tag_39\n      jump\t// in\n    tag_38:\n      stop\n        /* \"lastweek.sol\":362:388  IERC20 public tokenaddress */\n    tag_6:\n      callvalue\n      dup1\n      iszero\n      tag_40\n      jumpi\n      0x00\n      dup1\n      revert\n    tag_40:\n      pop\n      tag_41\n      tag_42\n      jump\t// in\n    tag_41:\n      mload(0x40)\n      tag_43\n      swap2\n      swap1\n      tag_44\n      jump\t// in\n    tag_43:\n      mload(0x40)\n      dup1\n      swap2\n      sub\n      swap1\n      return\n        /* \"lastweek.sol\":309:356  mapping(address => bool) public authorizedusers */\n    tag_7:\n      callvalue\n      dup1\n      iszero\n      tag_45\n      jumpi\n      0x00\n      dup1\n      revert\n    tag_45:\n      pop\n      tag_46\n      0x04\n      dup1\n      calldatasize\n      sub\n      dup2\n      add\n      swap1\n      tag_47\n      swap2\n      swap1\n      tag_48\n      jump\t// in\n    tag_47:\n      tag_49\n      jump\t// in\n    tag_46:\n      mload(0x40)\n      tag_50\n      swap2\n      swap1\n      tag_51\n      jump\t// in\n    tag_50:\n      mload(0x40)\n      dup1\n      swap2\n      sub\n      swap1\n      return\n        /* \"lastweek.sol\":2354:2458  function authorizeToUse(address _addr) onlyOwner external {... */\n    tag_8:\n      callvalue\n      dup1\n      iszero\n      tag_52\n      jumpi\n      0x00\n      dup1\n      revert\n    tag_52:\n      pop\n      tag_53\n      0x04\n      dup1\n      calldatasize\n      sub\n      dup2\n      add\n      swap1\n      tag_54\n      swap2\n      swap1\n      tag_48\n      jump\t// in\n    tag_54:\n      tag_55\n      jump\t// in\n    tag_53:\n      stop\n        /* \"@openzeppelin/contracts/access/Ownable.sol\":1824:1925  function renounceOwnership() public virtual onlyOwner {... */\n    tag_9:\n      callvalue\n      dup1\n      iszero\n      tag_56\n      jumpi\n      0x00\n      dup1\n      revert\n    tag_56:\n      pop\n      tag_57\n      tag_58\n      jump\t// in\n    tag_57:\n      stop\n        /* \"@openzeppelin/contracts/access/Ownable.sol\":1201:1286  function owner() public view virtual returns (address) {... */\n    tag_10:\n      callvalue\n      dup1\n      iszero\n      tag_59\n      jumpi\n      0x00\n      dup1\n      revert\n    tag_59:\n      pop\n      tag_60\n      tag_61\n      jump\t// in\n    tag_60:\n      mload(0x40)\n      tag_62\n      swap2\n      swap1\n      tag_63\n      jump\t// in\n    tag_62:\n      mload(0x40)\n      dup1\n      swap2\n      sub\n      swap1\n      return\n        /* \"lastweek.sol\":278:303  uint256 public feeamounts */\n    tag_11:\n      callvalue\n      dup1\n      iszero\n      tag_64\n      jumpi\n      0x00\n      dup1\n      revert\n    tag_64:\n      pop\n      tag_65\n      tag_66\n      jump\t// in\n    tag_65:\n      mload(0x40)\n      tag_67\n      swap2\n      swap1\n      tag_31\n      jump\t// in\n    tag_67:\n      mload(0x40)\n      dup1\n      swap2\n      sub\n      swap1\n      return\n        /* \"lastweek.sol\":1229:1939  function TOKENmultisender(IERC20 token, address[] memory recipients, uint256[] memory values) external payable {... */\n    tag_12:\n      tag_68\n      0x04\n      dup1\n      calldatasize\n      sub\n      dup2\n      add\n      swap1\n      tag_69\n      swap2\n      swap1\n      tag_70\n      jump\t// in\n    tag_69:\n      tag_71\n      jump\t// in\n    tag_68:\n      stop\n        /* \"lastweek.sol\":2901:3014  function readAuthorizedUsers(address user) public view returns(bool){... */\n    tag_13:\n      callvalue\n      dup1\n      iszero\n      tag_72\n      jumpi\n      0x00\n      dup1\n      revert\n    tag_72:\n      pop\n      tag_73\n      0x04\n      dup1\n      calldatasize\n      sub\n      dup2\n      add\n      swap1\n      tag_74\n      swap2\n      swap1\n      tag_48\n      jump\t// in\n    tag_74:\n      tag_75\n      jump\t// in\n    tag_73:\n      mload(0x40)\n      tag_76\n      swap2\n      swap1\n      tag_51\n      jump\t// in\n    tag_76:\n      mload(0x40)\n      dup1\n      swap2\n      sub\n      swap1\n      return\n        /* \"lastweek.sol\":217:235  uint256 public fee */\n    tag_14:\n      callvalue\n      dup1\n      iszero\n      tag_77\n      jumpi\n      0x00\n      dup1\n      revert\n    tag_77:\n      pop\n      tag_78\n      tag_79\n      jump\t// in\n    tag_78:\n      mload(0x40)\n      tag_80\n      swap2\n      swap1\n      tag_31\n      jump\t// in\n    tag_80:\n      mload(0x40)\n      dup1\n      swap2\n      sub\n      swap1\n      return\n        /* \"lastweek.sol\":597:1219  function BNBmultisender(address[] memory recipients, uint256[] memory values) external payable {... */\n    tag_15:\n      tag_81\n      0x04\n      dup1\n      calldatasize\n      sub\n      dup2\n      add\n      swap1\n      tag_82\n      swap2\n      swap1\n      tag_83\n      jump\t// in\n    tag_82:\n      tag_84\n      jump\t// in\n    tag_81:\n      stop\n        /* \"@openzeppelin/contracts/access/Ownable.sol\":2074:2272  function transferOwnership(address newOwner) public virtual onlyOwner {... */\n    tag_16:\n      callvalue\n      dup1\n      iszero\n      tag_85\n      jumpi\n      0x00\n      dup1\n      revert\n    tag_85:\n      pop\n      tag_86\n      0x04\n      dup1\n      calldatasize\n      sub\n      dup2\n      add\n      swap1\n      tag_87\n      swap2\n      swap1\n      tag_48\n      jump\t// in\n    tag_87:\n      tag_88\n      jump\t// in\n    tag_86:\n      stop\n        /* \"lastweek.sol\":241:272  address payable public receiver */\n    tag_17:\n      callvalue\n      dup1\n      iszero\n      tag_89\n      jumpi\n      0x00\n      dup1\n      revert\n    tag_89:\n      pop\n      tag_90\n      tag_91\n      jump\t// in\n    tag_90:\n      mload(0x40)\n      tag_92\n      swap2\n      swap1\n      tag_93\n      jump\t// in\n    tag_92:\n      mload(0x40)\n      dup1\n      swap2\n      sub\n      swap1\n      return\n        /* \"lastweek.sol\":2537:2700  function setauthor(address _addr, bool _bool) onlyOwner external {... */\n    tag_18:\n      callvalue\n      dup1\n      iszero\n      tag_94\n      jumpi\n      0x00\n      dup1\n      revert\n    tag_94:\n      pop\n      tag_95\n      0x04\n      dup1\n      calldatasize\n      sub\n      dup2\n      add\n      swap1\n      tag_96\n      swap2\n      swap1\n      tag_97\n      jump\t// in\n    tag_96:\n      tag_98\n      jump\t// in\n    tag_95:\n      stop\n        /* \"lastweek.sol\":1984:2128  function setfeeToUse (uint256 newfee, address _receiver) onlyOwner external {... */\n    tag_26:\n        /* \"@openzeppelin/contracts/access/Ownable.sol\":1094:1107  _checkOwner() */\n      tag_100\n        /* \"@openzeppelin/contracts/access/Ownable.sol\":1094:1105  _checkOwner */\n      tag_101\n        /* \"@openzeppelin/contracts/access/Ownable.sol\":1094:1107  _checkOwner() */\n      jump\t// in\n    tag_100:\n        /* \"lastweek.sol\":2076:2082  newfee */\n      dup2\n        /* \"lastweek.sol\":2070:2073  fee */\n      0x01\n        /* \"lastweek.sol\":2070:2082  fee = newfee */\n      dup2\n      swap1\n      sstore\n      pop\n        /* \"lastweek.sol\":2111:2120  _receiver */\n      dup1\n        /* \"lastweek.sol\":2092:2100  receiver */\n      0x02\n      0x00\n        /* \"lastweek.sol\":2092:2121  receiver = payable(_receiver) */\n      0x0100\n      exp\n      dup2\n      sload\n      dup2\n      0xffffffffffffffffffffffffffffffffffffffff\n      mul\n      not\n      and\n      swap1\n      dup4\n      0xffffffffffffffffffffffffffffffffffffffff\n      and\n      mul\n      or\n      swap1\n      sstore\n      pop\n        /* \"lastweek.sol\":1984:2128  function setfeeToUse (uint256 newfee, address _receiver) onlyOwner external {... */\n      pop\n      pop\n      jump\t// out\n        /* \"lastweek.sol\":439:462  uint256 public quantity */\n    tag_29:\n      sload(0x06)\n      dup2\n      jump\t// out\n        /* \"lastweek.sol\":2744:2895  function SetTokenToholdAndQuantity (IERC20 token, uint256 _amount) onlyOwner external {... */\n    tag_36:\n        /* \"@openzeppelin/contracts/access/Ownable.sol\":1094:1107  _checkOwner() */\n      tag_104\n        /* \"@openzeppelin/contracts/access/Ownable.sol\":1094:1105  _checkOwner */\n      tag_101\n        /* \"@openzeppelin/contracts/access/Ownable.sol\":1094:1107  _checkOwner() */\n      jump\t// in\n    tag_104:\n        /* \"lastweek.sol\":2855:2860  token */\n      dup2\n        /* \"lastweek.sol\":2840:2852  tokenaddress */\n      0x05\n      0x00\n        /* \"lastweek.sol\":2840:2860  tokenaddress = token */\n      0x0100\n      exp\n      dup2\n      sload\n      dup2\n      0xffffffffffffffffffffffffffffffffffffffff\n      mul\n      not\n      and\n      swap1\n      dup4\n      0xffffffffffffffffffffffffffffffffffffffff\n      and\n      mul\n      or\n      swap1\n      sstore\n      pop\n        /* \"lastweek.sol\":2881:2888  _amount */\n      dup1\n        /* \"lastweek.sol\":2870:2878  quantity */\n      0x06\n        /* \"lastweek.sol\":2870:2888  quantity = _amount */\n      dup2\n      swap1\n      sstore\n      pop\n        /* \"lastweek.sol\":2744:2895  function SetTokenToholdAndQuantity (IERC20 token, uint256 _amount) onlyOwner external {... */\n      pop\n      pop\n      jump\t// out\n        /* \"lastweek.sol\":2185:2311  function withdraw() onlyOwner external {... */\n    tag_39:\n        /* \"@openzeppelin/contracts/access/Ownable.sol\":1094:1107  _checkOwner() */\n      tag_107\n        /* \"@openzeppelin/contracts/access/Ownable.sol\":1094:1105  _checkOwner */\n      tag_101\n        /* \"@openzeppelin/contracts/access/Ownable.sol\":1094:1107  _checkOwner() */\n      jump\t// in\n    tag_107:\n        /* \"lastweek.sol\":2250:2251  0 */\n      0x00\n        /* \"lastweek.sol\":2237:2247  feeamounts */\n      sload(0x03)\n        /* \"lastweek.sol\":2237:2251  feeamounts > 0 */\n      gt\n        /* \"lastweek.sol\":2234:2304  if(feeamounts > 0)... */\n      iszero\n      tag_109\n      jumpi\n        /* \"lastweek.sol\":2272:2282  msg.sender */\n      caller\n        /* \"lastweek.sol\":2264:2292  payable(msg.sender).transfer */\n      0xffffffffffffffffffffffffffffffffffffffff\n      and\n        /* \"lastweek.sol\":2264:2304  payable(msg.sender).transfer(feeamounts) */\n      0x08fc\n        /* \"lastweek.sol\":2293:2303  feeamounts */\n      sload(0x03)\n        /* \"lastweek.sol\":2264:2304  payable(msg.sender).transfer(feeamounts) */\n      swap1\n      dup2\n      iszero\n      mul\n      swap1\n      mload(0x40)\n      0x00\n      mload(0x40)\n      dup1\n      dup4\n      sub\n      dup2\n      dup6\n      dup9\n      dup9\n      call\n      swap4\n      pop\n      pop\n      pop\n      pop\n      iszero\n      dup1\n      iszero\n      tag_111\n      jumpi\n      returndatasize\n      0x00\n      dup1\n      returndatacopy\n      revert(0x00, returndatasize)\n    tag_111:\n      pop\n        /* \"lastweek.sol\":2234:2304  if(feeamounts > 0)... */\n    tag_109:\n        /* \"lastweek.sol\":2185:2311  function withdraw() onlyOwner external {... */\n      jump\t// out\n        /* \"lastweek.sol\":362:388  IERC20 public tokenaddress */\n    tag_42:\n      0x05\n      0x00\n      swap1\n      sload\n      swap1\n      0x0100\n      exp\n      swap1\n      div\n      0xffffffffffffffffffffffffffffffffffffffff\n      and\n      dup2\n      jump\t// out\n        /* \"lastweek.sol\":309:356  mapping(address => bool) public authorizedusers */\n    tag_49:\n      mstore(0x20, 0x04)\n      dup1\n      0x00\n      mstore\n      keccak256(0x00, 0x40)\n      0x00\n      swap2\n      pop\n      sload\n      swap1\n      0x0100\n      exp\n      swap1\n      div\n      0xff\n      and\n      dup2\n      jump\t// out\n        /* \"lastweek.sol\":2354:2458  function authorizeToUse(address _addr) onlyOwner external {... */\n    tag_55:\n        /* \"@openzeppelin/contracts/access/Ownable.sol\":1094:1107  _checkOwner() */\n      tag_113\n        /* \"@openzeppelin/contracts/access/Ownable.sol\":1094:1105  _checkOwner */\n      tag_101\n        /* \"@openzeppelin/contracts/access/Ownable.sol\":1094:1107  _checkOwner() */\n      jump\t// in\n    tag_113:\n        /* \"lastweek.sol\":2447:2451  true */\n      0x01\n        /* \"lastweek.sol\":2422:2437  authorizedusers */\n      0x04\n        /* \"lastweek.sol\":2422:2444  authorizedusers[_addr] */\n      0x00\n        /* \"lastweek.sol\":2438:2443  _addr */\n      dup4\n        /* \"lastweek.sol\":2422:2444  authorizedusers[_addr] */\n      0xffffffffffffffffffffffffffffffffffffffff\n      and\n      0xffffffffffffffffffffffffffffffffffffffff\n      and\n      dup2\n      mstore\n      0x20\n      add\n      swap1\n      dup2\n      mstore\n      0x20\n      add\n      0x00\n      keccak256\n      0x00\n        /* \"lastweek.sol\":2422:2451  authorizedusers[_addr] = true */\n      0x0100\n      exp\n      dup2\n      sload\n      dup2\n      0xff\n      mul\n      not\n      and\n      swap1\n      dup4\n      iszero\n      iszero\n      mul\n      or\n      swap1\n      sstore\n      pop\n        /* \"lastweek.sol\":2354:2458  function authorizeToUse(address _addr) onlyOwner external {... */\n      pop\n      jump\t// out\n        /* \"@openzeppelin/contracts/access/Ownable.sol\":1824:1925  function renounceOwnership() public virtual onlyOwner {... */\n    tag_58:\n        /* \"@openzeppelin/contracts/access/Ownable.sol\":1094:1107  _checkOwner() */\n      tag_116\n        /* \"@openzeppelin/contracts/access/Ownable.sol\":1094:1105  _checkOwner */\n      tag_101\n        /* \"@openzeppelin/contracts/access/Ownable.sol\":1094:1107  _checkOwner() */\n      jump\t// in\n    tag_116:\n        /* \"@openzeppelin/contracts/access/Ownable.sol\":1888:1918  _transferOwnership(address(0)) */\n      tag_118\n        /* \"@openzeppelin/contracts/access/Ownable.sol\":1915:1916  0 */\n      0x00\n        /* \"@openzeppelin/contracts/access/Ownable.sol\":1888:1906  _transferOwnership */\n      tag_119\n        /* \"@openzeppelin/contracts/access/Ownable.sol\":1888:1918  _transferOwnership(address(0)) */\n      jump\t// in\n    tag_118:\n        /* \"@openzeppelin/contracts/access/Ownable.sol\":1824:1925  function renounceOwnership() public virtual onlyOwner {... */\n      jump\t// out\n        /* \"@openzeppelin/contracts/access/Ownable.sol\":1201:1286  function owner() public view virtual returns (address) {... */\n    tag_61:\n        /* \"@openzeppelin/contracts/access/Ownable.sol\":1247:1254  address */\n      0x00\n        /* \"@openzeppelin/contracts/access/Ownable.sol\":1273:1279  _owner */\n      dup1\n      0x00\n      swap1\n      sload\n      swap1\n      0x0100\n      exp\n      swap1\n      div\n      0xffffffffffffffffffffffffffffffffffffffff\n      and\n        /* \"@openzeppelin/contracts/access/Ownable.sol\":1266:1279  return _owner */\n      swap1\n      pop\n        /* \"@openzeppelin/contracts/access/Ownable.sol\":1201:1286  function owner() public view virtual returns (address) {... */\n      swap1\n      jump\t// out\n        /* \"lastweek.sol\":278:303  uint256 public feeamounts */\n    tag_66:\n      sload(0x03)\n      dup2\n      jump\t// out\n        /* \"lastweek.sol\":1229:1939  function TOKENmultisender(IERC20 token, address[] memory recipients, uint256[] memory values) external payable {... */\n    tag_71:\n        /* \"lastweek.sol\":1354:1369  authorizedusers */\n      0x04\n        /* \"lastweek.sol\":1354:1381  authorizedusers[msg.sender] */\n      0x00\n        /* \"lastweek.sol\":1370:1380  msg.sender */\n      caller\n        /* \"lastweek.sol\":1354:1381  authorizedusers[msg.sender] */\n      0xffffffffffffffffffffffffffffffffffffffff\n      and\n      0xffffffffffffffffffffffffffffffffffffffff\n      and\n      dup2\n      mstore\n      0x20\n      add\n      swap1\n      dup2\n      mstore\n      0x20\n      add\n      0x00\n      keccak256\n      0x00\n      swap1\n      sload\n      swap1\n      0x0100\n      exp\n      swap1\n      div\n      0xff\n      and\n        /* \"lastweek.sol\":1353:1381  !authorizedusers[msg.sender] */\n      iszero\n        /* \"lastweek.sol\":1353:1430  !authorizedusers[msg.sender] || tokenaddress.balanceOf(msg.sender) < quantity */\n      dup1\n      tag_122\n      jumpi\n      pop\n        /* \"lastweek.sol\":1422:1430  quantity */\n      sload(0x06)\n        /* \"lastweek.sol\":1385:1397  tokenaddress */\n      0x05\n      0x00\n      swap1\n      sload\n      swap1\n      0x0100\n      exp\n      swap1\n      div\n      0xffffffffffffffffffffffffffffffffffffffff\n      and\n        /* \"lastweek.sol\":1385:1407  tokenaddress.balanceOf */\n      0xffffffffffffffffffffffffffffffffffffffff\n      and\n      0x70a08231\n        /* \"lastweek.sol\":1408:1418  msg.sender */\n      caller\n        /* \"lastweek.sol\":1385:1419  tokenaddress.balanceOf(msg.sender) */\n      mload(0x40)\n      dup3\n      0xffffffff\n      and\n      0xe0\n      shl\n      dup2\n      mstore\n      0x04\n      add\n      tag_123\n      swap2\n      swap1\n      tag_63\n      jump\t// in\n    tag_123:\n      0x20\n      mload(0x40)\n      dup1\n      dup4\n      sub\n      dup2\n      dup7\n      gas\n      staticcall\n      iszero\n      dup1\n      iszero\n      tag_125\n      jumpi\n      returndatasize\n      0x00\n      dup1\n      returndatacopy\n      revert(0x00, returndatasize)\n    tag_125:\n      pop\n      pop\n      pop\n      pop\n      mload(0x40)\n      returndatasize\n      not(0x1f)\n      0x1f\n      dup3\n      add\n      and\n      dup3\n      add\n      dup1\n      0x40\n      mstore\n      pop\n      dup2\n      add\n      swap1\n      tag_126\n      swap2\n      swap1\n      tag_127\n      jump\t// in\n    tag_126:\n        /* \"lastweek.sol\":1385:1430  tokenaddress.balanceOf(msg.sender) < quantity */\n      lt\n        /* \"lastweek.sol\":1353:1430  !authorizedusers[msg.sender] || tokenaddress.balanceOf(msg.sender) < quantity */\n    tag_122:\n        /* \"lastweek.sol\":1350:1628  if(!authorizedusers[msg.sender] || tokenaddress.balanceOf(msg.sender) < quantity) {... */\n      iszero\n      tag_128\n      jumpi\n        /* \"lastweek.sol\":1468:1471  fee */\n      sload(0x01)\n        /* \"lastweek.sol\":1455:1464  msg.value */\n      callvalue\n        /* \"lastweek.sol\":1455:1471  msg.value >= fee */\n      lt\n      iszero\n        /* \"lastweek.sol\":1446:1541  require (msg.value >= fee, \"You have to pay fee to use SnipeFinance Token Multi bulk function\") */\n      tag_129\n      jumpi\n      mload(0x40)\n      0x08c379a000000000000000000000000000000000000000000000000000000000\n      dup2\n      mstore\n      0x04\n      add\n      tag_130\n      swap1\n      tag_131\n      jump\t// in\n    tag_130:\n      mload(0x40)\n      dup1\n      swap2\n      sub\n      swap1\n      revert\n    tag_129:\n        /* \"lastweek.sol\":1569:1572  fee */\n      sload(0x01)\n        /* \"lastweek.sol\":1555:1565  feeamounts */\n      0x03\n      0x00\n        /* \"lastweek.sol\":1555:1572  feeamounts += fee */\n      dup3\n      dup3\n      sload\n      tag_132\n      swap2\n      swap1\n      tag_133\n      jump\t// in\n    tag_132:\n      swap3\n      pop\n      pop\n      dup2\n      swap1\n      sstore\n      pop\n        /* \"lastweek.sol\":1594:1602  receiver */\n      0x02\n      0x00\n      swap1\n      sload\n      swap1\n      0x0100\n      exp\n      swap1\n      div\n      0xffffffffffffffffffffffffffffffffffffffff\n      and\n        /* \"lastweek.sol\":1586:1612  payable(receiver).transfer */\n      0xffffffffffffffffffffffffffffffffffffffff\n      and\n        /* \"lastweek.sol\":1586:1617  payable(receiver).transfer(fee) */\n      0x08fc\n        /* \"lastweek.sol\":1613:1616  fee */\n      sload(0x01)\n        /* \"lastweek.sol\":1586:1617  payable(receiver).transfer(fee) */\n      swap1\n      dup2\n      iszero\n      mul\n      swap1\n      mload(0x40)\n      0x00\n      mload(0x40)\n      dup1\n      dup4\n      sub\n      dup2\n      dup6\n      dup9\n      dup9\n      call\n      swap4\n      pop\n      pop\n      pop\n      pop\n      iszero\n      dup1\n      iszero\n      tag_135\n      jumpi\n      returndatasize\n      0x00\n      dup1\n      returndatacopy\n      revert(0x00, returndatasize)\n    tag_135:\n      pop\n        /* \"lastweek.sol\":1350:1628  if(!authorizedusers[msg.sender] || tokenaddress.balanceOf(msg.sender) < quantity) {... */\n    tag_128:\n        /* \"lastweek.sol\":1637:1650  uint256 total */\n      0x00\n        /* \"lastweek.sol\":1669:1678  uint256 i */\n      dup1\n        /* \"lastweek.sol\":1664:1742  for (uint256 i = 0; i < recipients.length; i++)... */\n    tag_136:\n        /* \"lastweek.sol\":1688:1698  recipients */\n      dup4\n        /* \"lastweek.sol\":1688:1705  recipients.length */\n      mload\n        /* \"lastweek.sol\":1684:1685  i */\n      dup2\n        /* \"lastweek.sol\":1684:1705  i < recipients.length */\n      lt\n        /* \"lastweek.sol\":1664:1742  for (uint256 i = 0; i < recipients.length; i++)... */\n      iszero\n      tag_137\n      jumpi\n        /* \"lastweek.sol\":1733:1739  values */\n      dup3\n        /* \"lastweek.sol\":1740:1741  i */\n      dup2\n        /* \"lastweek.sol\":1733:1742  values[i] */\n      dup2\n      mload\n      dup2\n      lt\n      tag_139\n      jumpi\n      tag_140\n      tag_141\n      jump\t// in\n    tag_140:\n    tag_139:\n      0x20\n      mul\n      0x20\n      add\n      add\n      mload\n        /* \"lastweek.sol\":1724:1742  total += values[i] */\n      dup3\n      tag_142\n      swap2\n      swap1\n      tag_133\n      jump\t// in\n    tag_142:\n      swap2\n      pop\n        /* \"lastweek.sol\":1707:1710  i++ */\n      dup1\n      dup1\n      tag_143\n      swap1\n      tag_144\n      jump\t// in\n    tag_143:\n      swap2\n      pop\n      pop\n        /* \"lastweek.sol\":1664:1742  for (uint256 i = 0; i < recipients.length; i++)... */\n      jump(tag_136)\n    tag_137:\n      pop\n        /* \"lastweek.sol\":1760:1765  token */\n      dup4\n        /* \"lastweek.sol\":1760:1778  token.transferFrom */\n      0xffffffffffffffffffffffffffffffffffffffff\n      and\n      0x23b872dd\n        /* \"lastweek.sol\":1779:1789  msg.sender */\n      caller\n        /* \"lastweek.sol\":1799:1803  this */\n      address\n        /* \"lastweek.sol\":1806:1811  total */\n      dup5\n        /* \"lastweek.sol\":1760:1812  token.transferFrom(msg.sender, address(this), total) */\n      mload(0x40)\n      dup5\n      0xffffffff\n      and\n      0xe0\n      shl\n      dup2\n      mstore\n      0x04\n      add\n      tag_145\n      swap4\n      swap3\n      swap2\n      swap1\n      tag_146\n      jump\t// in\n    tag_145:\n      0x20\n      mload(0x40)\n      dup1\n      dup4\n      sub\n      dup2\n      0x00\n      dup8\n      gas\n      call\n      iszero\n      dup1\n      iszero\n      tag_148\n      jumpi\n      returndatasize\n      0x00\n      dup1\n      returndatacopy\n      revert(0x00, returndatasize)\n    tag_148:\n      pop\n      pop\n      pop\n      pop\n      mload(0x40)\n      returndatasize\n      not(0x1f)\n      0x1f\n      dup3\n      add\n      and\n      dup3\n      add\n      dup1\n      0x40\n      mstore\n      pop\n      dup2\n      add\n      swap1\n      tag_149\n      swap2\n      swap1\n      tag_150\n      jump\t// in\n    tag_149:\n        /* \"lastweek.sol\":1752:1813  require(token.transferFrom(msg.sender, address(this), total)) */\n      tag_151\n      jumpi\n      0x00\n      dup1\n      revert\n    tag_151:\n        /* \"lastweek.sol\":1828:1837  uint256 i */\n      0x00\n        /* \"lastweek.sol\":1823:1932  for (uint256 i = 0; i < recipients.length; i++)... */\n    tag_152:\n        /* \"lastweek.sol\":1847:1857  recipients */\n      dup4\n        /* \"lastweek.sol\":1847:1864  recipients.length */\n      mload\n        /* \"lastweek.sol\":1843:1844  i */\n      dup2\n        /* \"lastweek.sol\":1843:1864  i < recipients.length */\n      lt\n        /* \"lastweek.sol\":1823:1932  for (uint256 i = 0; i < recipients.length; i++)... */\n      iszero\n      tag_153\n      jumpi\n        /* \"lastweek.sol\":1891:1896  token */\n      dup5\n        /* \"lastweek.sol\":1891:1905  token.transfer */\n      0xffffffffffffffffffffffffffffffffffffffff\n      and\n      0xa9059cbb\n        /* \"lastweek.sol\":1906:1916  recipients */\n      dup6\n        /* \"lastweek.sol\":1917:1918  i */\n      dup4\n        /* \"lastweek.sol\":1906:1919  recipients[i] */\n      dup2\n      mload\n      dup2\n      lt\n      tag_155\n      jumpi\n      tag_156\n      tag_141\n      jump\t// in\n    tag_156:\n    tag_155:\n      0x20\n      mul\n      0x20\n      add\n      add\n      mload\n        /* \"lastweek.sol\":1921:1927  values */\n      dup6\n        /* \"lastweek.sol\":1928:1929  i */\n      dup5\n        /* \"lastweek.sol\":1921:1930  values[i] */\n      dup2\n      mload\n      dup2\n      lt\n      tag_157\n      jumpi\n      tag_158\n      tag_141\n      jump\t// in\n    tag_158:\n    tag_157:\n      0x20\n      mul\n      0x20\n      add\n      add\n      mload\n        /* \"lastweek.sol\":1891:1931  token.transfer(recipients[i], values[i]) */\n      mload(0x40)\n      dup4\n      0xffffffff\n      and\n      0xe0\n      shl\n      dup2\n      mstore\n      0x04\n      add\n      tag_159\n      swap3\n      swap2\n      swap1\n      tag_160\n      jump\t// in\n    tag_159:\n      0x20\n      mload(0x40)\n      dup1\n      dup4\n      sub\n      dup2\n      0x00\n      dup8\n      gas\n      call\n      iszero\n      dup1\n      iszero\n      tag_162\n      jumpi\n      returndatasize\n      0x00\n      dup1\n      returndatacopy\n      revert(0x00, returndatasize)\n    tag_162:\n      pop\n      pop\n      pop\n      pop\n      mload(0x40)\n      returndatasize\n      not(0x1f)\n      0x1f\n      dup3\n      add\n      and\n      dup3\n      add\n      dup1\n      0x40\n      mstore\n      pop\n      dup2\n      add\n      swap1\n      tag_163\n      swap2\n      swap1\n      tag_150\n      jump\t// in\n    tag_163:\n        /* \"lastweek.sol\":1883:1932  require(token.transfer(recipients[i], values[i])) */\n      tag_164\n      jumpi\n      0x00\n      dup1\n      revert\n    tag_164:\n        /* \"lastweek.sol\":1866:1869  i++ */\n      dup1\n      dup1\n      tag_165\n      swap1\n      tag_144\n      jump\t// in\n    tag_165:\n      swap2\n      pop\n      pop\n        /* \"lastweek.sol\":1823:1932  for (uint256 i = 0; i < recipients.length; i++)... */\n      jump(tag_152)\n    tag_153:\n      pop\n        /* \"lastweek.sol\":1340:1939  {... */\n      pop\n        /* \"lastweek.sol\":1229:1939  function TOKENmultisender(IERC20 token, address[] memory recipients, uint256[] memory values) external payable {... */\n      pop\n      pop\n      pop\n      jump\t// out\n        /* \"lastweek.sol\":2901:3014  function readAuthorizedUsers(address user) public view returns(bool){... */\n    tag_75:\n        /* \"lastweek.sol\":2964:2968  bool */\n      0x00\n        /* \"lastweek.sol\":2986:3001  authorizedusers */\n      0x04\n        /* \"lastweek.sol\":2986:3007  authorizedusers[user] */\n      0x00\n        /* \"lastweek.sol\":3002:3006  user */\n      dup4\n        /* \"lastweek.sol\":2986:3007  authorizedusers[user] */\n      0xffffffffffffffffffffffffffffffffffffffff\n      and\n      0xffffffffffffffffffffffffffffffffffffffff\n      and\n      dup2\n      mstore\n      0x20\n      add\n      swap1\n      dup2\n      mstore\n      0x20\n      add\n      0x00\n      keccak256\n      0x00\n      swap1\n      sload\n      swap1\n      0x0100\n      exp\n      swap1\n      div\n      0xff\n      and\n        /* \"lastweek.sol\":2979:3007  return authorizedusers[user] */\n      swap1\n      pop\n        /* \"lastweek.sol\":2901:3014  function readAuthorizedUsers(address user) public view returns(bool){... */\n      swap2\n      swap1\n      pop\n      jump\t// out\n        /* \"lastweek.sol\":217:235  uint256 public fee */\n    tag_79:\n      sload(0x01)\n      dup2\n      jump\t// out\n        /* \"lastweek.sol\":597:1219  function BNBmultisender(address[] memory recipients, uint256[] memory values) external payable {... */\n    tag_84:\n        /* \"lastweek.sol\":706:721  authorizedusers */\n      0x04\n        /* \"lastweek.sol\":706:733  authorizedusers[msg.sender] */\n      0x00\n        /* \"lastweek.sol\":722:732  msg.sender */\n      caller\n        /* \"lastweek.sol\":706:733  authorizedusers[msg.sender] */\n      0xffffffffffffffffffffffffffffffffffffffff\n      and\n      0xffffffffffffffffffffffffffffffffffffffff\n      and\n      dup2\n      mstore\n      0x20\n      add\n      swap1\n      dup2\n      mstore\n      0x20\n      add\n      0x00\n      keccak256\n      0x00\n      swap1\n      sload\n      swap1\n      0x0100\n      exp\n      swap1\n      div\n      0xff\n      and\n        /* \"lastweek.sol\":705:733  !authorizedusers[msg.sender] */\n      iszero\n        /* \"lastweek.sol\":705:782  !authorizedusers[msg.sender] || tokenaddress.balanceOf(msg.sender) < quantity */\n      dup1\n      tag_168\n      jumpi\n      pop\n        /* \"lastweek.sol\":774:782  quantity */\n      sload(0x06)\n        /* \"lastweek.sol\":737:749  tokenaddress */\n      0x05\n      0x00\n      swap1\n      sload\n      swap1\n      0x0100\n      exp\n      swap1\n      div\n      0xffffffffffffffffffffffffffffffffffffffff\n      and\n        /* \"lastweek.sol\":737:759  tokenaddress.balanceOf */\n      0xffffffffffffffffffffffffffffffffffffffff\n      and\n      0x70a08231\n        /* \"lastweek.sol\":760:770  msg.sender */\n      caller\n        /* \"lastweek.sol\":737:771  tokenaddress.balanceOf(msg.sender) */\n      mload(0x40)\n      dup3\n      0xffffffff\n      and\n      0xe0\n      shl\n      dup2\n      mstore\n      0x04\n      add\n      tag_169\n      swap2\n      swap1\n      tag_63\n      jump\t// in\n    tag_169:\n      0x20\n      mload(0x40)\n      dup1\n      dup4\n      sub\n      dup2\n      dup7\n      gas\n      staticcall\n      iszero\n      dup1\n      iszero\n      tag_171\n      jumpi\n      returndatasize\n      0x00\n      dup1\n      returndatacopy\n      revert(0x00, returndatasize)\n    tag_171:\n      pop\n      pop\n      pop\n      pop\n      mload(0x40)\n      returndatasize\n      not(0x1f)\n      0x1f\n      dup3\n      add\n      and\n      dup3\n      add\n      dup1\n      0x40\n      mstore\n      pop\n      dup2\n      add\n      swap1\n      tag_172\n      swap2\n      swap1\n      tag_127\n      jump\t// in\n    tag_172:\n        /* \"lastweek.sol\":737:782  tokenaddress.balanceOf(msg.sender) < quantity */\n      lt\n        /* \"lastweek.sol\":705:782  !authorizedusers[msg.sender] || tokenaddress.balanceOf(msg.sender) < quantity */\n    tag_168:\n        /* \"lastweek.sol\":702:966  if(!authorizedusers[msg.sender] || tokenaddress.balanceOf(msg.sender) < quantity ) {... */\n      iszero\n      tag_173\n      jumpi\n        /* \"lastweek.sol\":821:824  fee */\n      sload(0x01)\n        /* \"lastweek.sol\":808:817  msg.value */\n      callvalue\n        /* \"lastweek.sol\":808:824  msg.value >= fee */\n      lt\n      iszero\n        /* \"lastweek.sol\":799:888  require (msg.value >= fee, \"You have to pay fee to use SnipeFinance Multi bulk function\") */\n      tag_174\n      jumpi\n      mload(0x40)\n      0x08c379a000000000000000000000000000000000000000000000000000000000\n      dup2\n      mstore\n      0x04\n      add\n      tag_175\n      swap1\n      tag_176\n      jump\t// in\n    tag_175:\n      mload(0x40)\n      dup1\n      swap2\n      sub\n      swap1\n      revert\n    tag_174:\n        /* \"lastweek.sol\":916:919  fee */\n      sload(0x01)\n        /* \"lastweek.sol\":902:912  feeamounts */\n      0x03\n      0x00\n        /* \"lastweek.sol\":902:919  feeamounts += fee */\n      dup3\n      dup3\n      sload\n      tag_177\n      swap2\n      swap1\n      tag_133\n      jump\t// in\n    tag_177:\n      swap3\n      pop\n      pop\n      dup2\n      swap1\n      sstore\n      pop\n        /* \"lastweek.sol\":933:941  receiver */\n      0x02\n      0x00\n      swap1\n      sload\n      swap1\n      0x0100\n      exp\n      swap1\n      div\n      0xffffffffffffffffffffffffffffffffffffffff\n      and\n        /* \"lastweek.sol\":933:950  receiver.transfer */\n      0xffffffffffffffffffffffffffffffffffffffff\n      and\n        /* \"lastweek.sol\":933:955  receiver.transfer(fee) */\n      0x08fc\n        /* \"lastweek.sol\":951:954  fee */\n      sload(0x01)\n        /* \"lastweek.sol\":933:955  receiver.transfer(fee) */\n      swap1\n      dup2\n      iszero\n      mul\n      swap1\n      mload(0x40)\n      0x00\n      mload(0x40)\n      dup1\n      dup4\n      sub\n      dup2\n      dup6\n      dup9\n      dup9\n      call\n      swap4\n      pop\n      pop\n      pop\n      pop\n      iszero\n      dup1\n      iszero\n      tag_179\n      jumpi\n      returndatasize\n      0x00\n      dup1\n      returndatacopy\n      revert(0x00, returndatasize)\n    tag_179:\n      pop\n        /* \"lastweek.sol\":702:966  if(!authorizedusers[msg.sender] || tokenaddress.balanceOf(msg.sender) < quantity ) {... */\n    tag_173:\n        /* \"lastweek.sol\":980:989  uint256 i */\n      0x00\n        /* \"lastweek.sol\":975:1077  for (uint256 i = 0; i < recipients.length; i++)... */\n    tag_180:\n        /* \"lastweek.sol\":999:1009  recipients */\n      dup3\n        /* \"lastweek.sol\":999:1016  recipients.length */\n      mload\n        /* \"lastweek.sol\":995:996  i */\n      dup2\n        /* \"lastweek.sol\":995:1016  i < recipients.length */\n      lt\n        /* \"lastweek.sol\":975:1077  for (uint256 i = 0; i < recipients.length; i++)... */\n      iszero\n      tag_181\n      jumpi\n        /* \"lastweek.sol\":1043:1053  recipients */\n      dup3\n        /* \"lastweek.sol\":1054:1055  i */\n      dup2\n        /* \"lastweek.sol\":1043:1056  recipients[i] */\n      dup2\n      mload\n      dup2\n      lt\n      tag_183\n      jumpi\n      tag_184\n      tag_141\n      jump\t// in\n    tag_184:\n    tag_183:\n      0x20\n      mul\n      0x20\n      add\n      add\n      mload\n        /* \"lastweek.sol\":1035:1066  payable(recipients[i]).transfer */\n      0xffffffffffffffffffffffffffffffffffffffff\n      and\n        /* \"lastweek.sol\":1035:1077  payable(recipients[i]).transfer(values[i]) */\n      0x08fc\n        /* \"lastweek.sol\":1067:1073  values */\n      dup4\n        /* \"lastweek.sol\":1074:1075  i */\n      dup4\n        /* \"lastweek.sol\":1067:1076  values[i] */\n      dup2\n      mload\n      dup2\n      lt\n      tag_185\n      jumpi\n      tag_186\n      tag_141\n      jump\t// in\n    tag_186:\n    tag_185:\n      0x20\n      mul\n      0x20\n      add\n      add\n      mload\n        /* \"lastweek.sol\":1035:1077  payable(recipients[i]).transfer(values[i]) */\n      swap1\n      dup2\n      iszero\n      mul\n      swap1\n      mload(0x40)\n      0x00\n      mload(0x40)\n      dup1\n      dup4\n      sub\n      dup2\n      dup6\n      dup9\n      dup9\n      call\n      swap4\n      pop\n      pop\n      pop\n      pop\n      iszero\n      dup1\n      iszero\n      tag_188\n      jumpi\n      returndatasize\n      0x00\n      dup1\n      returndatacopy\n      revert(0x00, returndatasize)\n    tag_188:\n      pop\n        /* \"lastweek.sol\":1018:1021  i++ */\n      dup1\n      dup1\n      tag_189\n      swap1\n      tag_144\n      jump\t// in\n    tag_189:\n      swap2\n      pop\n      pop\n        /* \"lastweek.sol\":975:1077  for (uint256 i = 0; i < recipients.length; i++)... */\n      jump(tag_180)\n    tag_181:\n      pop\n        /* \"lastweek.sol\":1092:1107  uint256 balance */\n      0x00\n        /* \"lastweek.sol\":1110:1131  address(this).balance */\n      selfbalance\n        /* \"lastweek.sol\":1092:1131  uint256 balance = address(this).balance */\n      swap1\n      pop\n        /* \"lastweek.sol\":1160:1161  0 */\n      0x00\n        /* \"lastweek.sol\":1150:1157  balance */\n      dup2\n        /* \"lastweek.sol\":1150:1161  balance > 0 */\n      gt\n        /* \"lastweek.sol\":1146:1212  if (balance > 0)... */\n      iszero\n      tag_190\n      jumpi\n        /* \"lastweek.sol\":1183:1193  msg.sender */\n      caller\n        /* \"lastweek.sol\":1175:1203  payable(msg.sender).transfer */\n      0xffffffffffffffffffffffffffffffffffffffff\n      and\n        /* \"lastweek.sol\":1175:1212  payable(msg.sender).transfer(balance) */\n      0x08fc\n        /* \"lastweek.sol\":1204:1211  balance */\n      dup3\n        /* \"lastweek.sol\":1175:1212  payable(msg.sender).transfer(balance) */\n      swap1\n      dup2\n      iszero\n      mul\n      swap1\n      mload(0x40)\n      0x00\n      mload(0x40)\n      dup1\n      dup4\n      sub\n      dup2\n      dup6\n      dup9\n      dup9\n      call\n      swap4\n      pop\n      pop\n      pop\n      pop\n      iszero\n      dup1\n      iszero\n      tag_192\n      jumpi\n      returndatasize\n      0x00\n      dup1\n      returndatacopy\n      revert(0x00, returndatasize)\n    tag_192:\n      pop\n        /* \"lastweek.sol\":1146:1212  if (balance > 0)... */\n    tag_190:\n        /* \"lastweek.sol\":692:1219  {... */\n      pop\n        /* \"lastweek.sol\":597:1219  function BNBmultisender(address[] memory recipients, uint256[] memory values) external payable {... */\n      pop\n      pop\n      jump\t// out\n        /* \"@openzeppelin/contracts/access/Ownable.sol\":2074:2272  function transferOwnership(address newOwner) public virtual onlyOwner {... */\n    tag_88:\n        /* \"@openzeppelin/contracts/access/Ownable.sol\":1094:1107  _checkOwner() */\n      tag_194\n        /* \"@openzeppelin/contracts/access/Ownable.sol\":1094:1105  _checkOwner */\n      tag_101\n        /* \"@openzeppelin/contracts/access/Ownable.sol\":1094:1107  _checkOwner() */\n      jump\t// in\n    tag_194:\n        /* \"@openzeppelin/contracts/access/Ownable.sol\":2182:2183  0 */\n      0x00\n        /* \"@openzeppelin/contracts/access/Ownable.sol\":2162:2184  newOwner != address(0) */\n      0xffffffffffffffffffffffffffffffffffffffff\n      and\n        /* \"@openzeppelin/contracts/access/Ownable.sol\":2162:2170  newOwner */\n      dup2\n        /* \"@openzeppelin/contracts/access/Ownable.sol\":2162:2184  newOwner != address(0) */\n      0xffffffffffffffffffffffffffffffffffffffff\n      and\n      sub\n        /* \"@openzeppelin/contracts/access/Ownable.sol\":2154:2227  require(newOwner != address(0), \"Ownable: new owner is the zero address\") */\n      tag_196\n      jumpi\n      mload(0x40)\n      0x08c379a000000000000000000000000000000000000000000000000000000000\n      dup2\n      mstore\n      0x04\n      add\n      tag_197\n      swap1\n      tag_198\n      jump\t// in\n    tag_197:\n      mload(0x40)\n      dup1\n      swap2\n      sub\n      swap1\n      revert\n    tag_196:\n        /* \"@openzeppelin/contracts/access/Ownable.sol\":2237:2265  _transferOwnership(newOwner) */\n      tag_199\n        /* \"@openzeppelin/contracts/access/Ownable.sol\":2256:2264  newOwner */\n      dup2\n        /* \"@openzeppelin/contracts/access/Ownable.sol\":2237:2255  _transferOwnership */\n      tag_119\n        /* \"@openzeppelin/contracts/access/Ownable.sol\":2237:2265  _transferOwnership(newOwner) */\n      jump\t// in\n    tag_199:\n        /* \"@openzeppelin/contracts/access/Ownable.sol\":2074:2272  function transferOwnership(address newOwner) public virtual onlyOwner {... */\n      pop\n      jump\t// out\n        /* \"lastweek.sol\":241:272  address payable public receiver */\n    tag_91:\n      0x02\n      0x00\n      swap1\n      sload\n      swap1\n      0x0100\n      exp\n      swap1\n      div\n      0xffffffffffffffffffffffffffffffffffffffff\n      and\n      dup2\n      jump\t// out\n        /* \"lastweek.sol\":2537:2700  function setauthor(address _addr, bool _bool) onlyOwner external {... */\n    tag_98:\n        /* \"@openzeppelin/contracts/access/Ownable.sol\":1094:1107  _checkOwner() */\n      tag_201\n        /* \"@openzeppelin/contracts/access/Ownable.sol\":1094:1105  _checkOwner */\n      tag_101\n        /* \"@openzeppelin/contracts/access/Ownable.sol\":1094:1107  _checkOwner() */\n      jump\t// in\n    tag_201:\n        /* \"lastweek.sol\":2615:2630  authorizedusers */\n      0x04\n        /* \"lastweek.sol\":2615:2637  authorizedusers[_addr] */\n      0x00\n        /* \"lastweek.sol\":2631:2636  _addr */\n      dup4\n        /* \"lastweek.sol\":2615:2637  authorizedusers[_addr] */\n      0xffffffffffffffffffffffffffffffffffffffff\n      and\n      0xffffffffffffffffffffffffffffffffffffffff\n      and\n      dup2\n      mstore\n      0x20\n      add\n      swap1\n      dup2\n      mstore\n      0x20\n      add\n      0x00\n      keccak256\n      0x00\n      swap1\n      sload\n      swap1\n      0x0100\n      exp\n      swap1\n      div\n      0xff\n      and\n        /* \"lastweek.sol\":2612:2694  if(authorizedusers[_addr]) {... */\n      iszero\n      tag_203\n      jumpi\n        /* \"lastweek.sol\":2678:2683  _bool */\n      dup1\n        /* \"lastweek.sol\":2653:2668  authorizedusers */\n      0x04\n        /* \"lastweek.sol\":2653:2675  authorizedusers[_addr] */\n      0x00\n        /* \"lastweek.sol\":2669:2674  _addr */\n      dup5\n        /* \"lastweek.sol\":2653:2675  authorizedusers[_addr] */\n      0xffffffffffffffffffffffffffffffffffffffff\n      and\n      0xffffffffffffffffffffffffffffffffffffffff\n      and\n      dup2\n      mstore\n      0x20\n      add\n      swap1\n      dup2\n      mstore\n      0x20\n      add\n      0x00\n      keccak256\n      0x00\n        /* \"lastweek.sol\":2653:2683  authorizedusers[_addr] = _bool */\n      0x0100\n      exp\n      dup2\n      sload\n      dup2\n      0xff\n      mul\n      not\n      and\n      swap1\n      dup4\n      iszero\n      iszero\n      mul\n      or\n      swap1\n      sstore\n      pop\n        /* \"lastweek.sol\":2612:2694  if(authorizedusers[_addr]) {... */\n    tag_203:\n        /* \"lastweek.sol\":2537:2700  function setauthor(address _addr, bool _bool) onlyOwner external {... */\n      pop\n      pop\n      jump\t// out\n        /* \"@openzeppelin/contracts/access/Ownable.sol\":1359:1489  function _checkOwner() internal view virtual {... */\n    tag_101:\n        /* \"@openzeppelin/contracts/access/Ownable.sol\":1433:1445  _msgSender() */\n      tag_205\n        /* \"@openzeppelin/contracts/access/Ownable.sol\":1433:1443  _msgSender */\n      tag_206\n        /* \"@openzeppelin/contracts/access/Ownable.sol\":1433:1445  _msgSender() */\n      jump\t// in\n    tag_205:\n        /* \"@openzeppelin/contracts/access/Ownable.sol\":1422:1445  owner() == _msgSender() */\n      0xffffffffffffffffffffffffffffffffffffffff\n      and\n        /* \"@openzeppelin/contracts/access/Ownable.sol\":1422:1429  owner() */\n      tag_207\n        /* \"@openzeppelin/contracts/access/Ownable.sol\":1422:1427  owner */\n      tag_61\n        /* \"@openzeppelin/contracts/access/Ownable.sol\":1422:1429  owner() */\n      jump\t// in\n    tag_207:\n        /* \"@openzeppelin/contracts/access/Ownable.sol\":1422:1445  owner() == _msgSender() */\n      0xffffffffffffffffffffffffffffffffffffffff\n      and\n      eq\n        /* \"@openzeppelin/contracts/access/Ownable.sol\":1414:1482  require(owner() == _msgSender(), \"Ownable: caller is not the owner\") */\n      tag_208\n      jumpi\n      mload(0x40)\n      0x08c379a000000000000000000000000000000000000000000000000000000000\n      dup2\n      mstore\n      0x04\n      add\n      tag_209\n      swap1\n      tag_210\n      jump\t// in\n    tag_209:\n      mload(0x40)\n      dup1\n      swap2\n      sub\n      swap1\n      revert\n    tag_208:\n        /* \"@openzeppelin/contracts/access/Ownable.sol\":1359:1489  function _checkOwner() internal view virtual {... */\n      jump\t// out\n        /* \"@openzeppelin/contracts/access/Ownable.sol\":2426:2613  function _transferOwnership(address newOwner) internal virtual {... */\n    tag_119:\n        /* \"@openzeppelin/contracts/access/Ownable.sol\":2499:2515  address oldOwner */\n      0x00\n        /* \"@openzeppelin/contracts/access/Ownable.sol\":2518:2524  _owner */\n      dup1\n      0x00\n      swap1\n      sload\n      swap1\n      0x0100\n      exp\n      swap1\n      div\n      0xffffffffffffffffffffffffffffffffffffffff\n      and\n        /* \"@openzeppelin/contracts/access/Ownable.sol\":2499:2524  address oldOwner = _owner */\n      swap1\n      pop\n        /* \"@openzeppelin/contracts/access/Ownable.sol\":2543:2551  newOwner */\n      dup2\n        /* \"@openzeppelin/contracts/access/Ownable.sol\":2534:2540  _owner */\n      0x00\n      dup1\n        /* \"@openzeppelin/contracts/access/Ownable.sol\":2534:2551  _owner = newOwner */\n      0x0100\n      exp\n      dup2\n      sload\n      dup2\n      0xffffffffffffffffffffffffffffffffffffffff\n      mul\n      not\n      and\n      swap1\n      dup4\n      0xffffffffffffffffffffffffffffffffffffffff\n      and\n      mul\n      or\n      swap1\n      sstore\n      pop\n        /* \"@openzeppelin/contracts/access/Ownable.sol\":2597:2605  newOwner */\n      dup2\n        /* \"@openzeppelin/contracts/access/Ownable.sol\":2566:2606  OwnershipTransferred(oldOwner, newOwner) */\n      0xffffffffffffffffffffffffffffffffffffffff\n      and\n        /* \"@openzeppelin/contracts/access/Ownable.sol\":2587:2595  oldOwner */\n      dup2\n        /* \"@openzeppelin/contracts/access/Ownable.sol\":2566:2606  OwnershipTransferred(oldOwner, newOwner) */\n      0xffffffffffffffffffffffffffffffffffffffff\n      and\n      0x8be0079c531659141344cd1fd0a4f28419497f9722a3daafe3b4186f6b6457e0\n      mload(0x40)\n      mload(0x40)\n      dup1\n      swap2\n      sub\n      swap1\n      log3\n        /* \"@openzeppelin/contracts/access/Ownable.sol\":2489:2613  {... */\n      pop\n        /* \"@openzeppelin/contracts/access/Ownable.sol\":2426:2613  function _transferOwnership(address newOwner) internal virtual {... */\n      pop\n      jump\t// out\n        /* \"@openzeppelin/contracts/utils/Context.sol\":640:736  function _msgSender() internal view virtual returns (address) {... */\n    tag_206:\n        /* \"@openzeppelin/contracts/utils/Context.sol\":693:700  address */\n      0x00\n        /* \"@openzeppelin/contracts/utils/Context.sol\":719:729  msg.sender */\n      caller\n        /* \"@openzeppelin/contracts/utils/Context.sol\":712:729  return msg.sender */\n      swap1\n      pop\n        /* \"@openzeppelin/contracts/utils/Context.sol\":640:736  function _msgSender() internal view virtual returns (address) {... */\n      swap1\n      jump\t// out\n        /* \"#utility.yul\":7:82   */\n    tag_213:\n        /* \"#utility.yul\":40:46   */\n      0x00\n        /* \"#utility.yul\":73:75   */\n      0x40\n        /* \"#utility.yul\":67:76   */\n      mload\n        /* \"#utility.yul\":57:76   */\n      swap1\n      pop\n        /* \"#utility.yul\":7:82   */\n      swap1\n      jump\t// out\n        /* \"#utility.yul\":88:205   */\n    tag_214:\n        /* \"#utility.yul\":197:198   */\n      0x00\n        /* \"#utility.yul\":194:195   */\n      dup1\n        /* \"#utility.yul\":187:199   */\n      revert\n        /* \"#utility.yul\":211:328   */\n    tag_215:\n        /* \"#utility.yul\":320:321   */\n      0x00\n        /* \"#utility.yul\":317:318   */\n      dup1\n        /* \"#utility.yul\":310:322   */\n      revert\n        /* \"#utility.yul\":334:411   */\n    tag_216:\n        /* \"#utility.yul\":371:378   */\n      0x00\n        /* \"#utility.yul\":400:405   */\n      dup2\n        /* \"#utility.yul\":389:405   */\n      swap1\n      pop\n        /* \"#utility.yul\":334:411   */\n      swap2\n      swap1\n      pop\n      jump\t// out\n        /* \"#utility.yul\":417:539   */\n    tag_217:\n        /* \"#utility.yul\":490:514   */\n      tag_269\n        /* \"#utility.yul\":508:513   */\n      dup2\n        /* \"#utility.yul\":490:514   */\n      tag_216\n      jump\t// in\n    tag_269:\n        /* \"#utility.yul\":483:488   */\n      dup2\n        /* \"#utility.yul\":480:515   */\n      eq\n        /* \"#utility.yul\":470:533   */\n      tag_270\n      jumpi\n        /* \"#utility.yul\":529:530   */\n      0x00\n        /* \"#utility.yul\":526:527   */\n      dup1\n        /* \"#utility.yul\":519:531   */\n      revert\n        /* \"#utility.yul\":470:533   */\n    tag_270:\n        /* \"#utility.yul\":417:539   */\n      pop\n      jump\t// out\n        /* \"#utility.yul\":545:684   */\n    tag_218:\n        /* \"#utility.yul\":591:596   */\n      0x00\n        /* \"#utility.yul\":629:635   */\n      dup2\n        /* \"#utility.yul\":616:636   */\n      calldataload\n        /* \"#utility.yul\":607:636   */\n      swap1\n      pop\n        /* \"#utility.yul\":645:678   */\n      tag_272\n        /* \"#utility.yul\":672:677   */\n      dup2\n        /* \"#utility.yul\":645:678   */\n      tag_217\n      jump\t// in\n    tag_272:\n        /* \"#utility.yul\":545:684   */\n      swap3\n      swap2\n      pop\n      pop\n      jump\t// out\n        /* \"#utility.yul\":690:816   */\n    tag_219:\n        /* \"#utility.yul\":727:734   */\n      0x00\n        /* \"#utility.yul\":767:809   */\n      0xffffffffffffffffffffffffffffffffffffffff\n        /* \"#utility.yul\":760:765   */\n      dup3\n        /* \"#utility.yul\":756:810   */\n      and\n        /* \"#utility.yul\":745:810   */\n      swap1\n      pop\n        /* \"#utility.yul\":690:816   */\n      swap2\n      swap1\n      pop\n      jump\t// out\n        /* \"#utility.yul\":822:918   */\n    tag_220:\n        /* \"#utility.yul\":859:866   */\n      0x00\n        /* \"#utility.yul\":888:912   */\n      tag_275\n        /* \"#utility.yul\":906:911   */\n      dup3\n        /* \"#utility.yul\":888:912   */\n      tag_219\n      jump\t// in\n    tag_275:\n        /* \"#utility.yul\":877:912   */\n      swap1\n      pop\n        /* \"#utility.yul\":822:918   */\n      swap2\n      swap1\n      pop\n      jump\t// out\n        /* \"#utility.yul\":924:1046   */\n    tag_221:\n        /* \"#utility.yul\":997:1021   */\n      tag_277\n        /* \"#utility.yul\":1015:1020   */\n      dup2\n        /* \"#utility.yul\":997:1021   */\n      tag_220\n      jump\t// in\n    tag_277:\n        /* \"#utility.yul\":990:995   */\n      dup2\n        /* \"#utility.yul\":987:1022   */\n      eq\n        /* \"#utility.yul\":977:1040   */\n      tag_278\n      jumpi\n        /* \"#utility.yul\":1036:1037   */\n      0x00\n        /* \"#utility.yul\":1033:1034   */\n      dup1\n        /* \"#utility.yul\":1026:1038   */\n      revert\n        /* \"#utility.yul\":977:1040   */\n    tag_278:\n        /* \"#utility.yul\":924:1046   */\n      pop\n      jump\t// out\n        /* \"#utility.yul\":1052:1191   */\n    tag_222:\n        /* \"#utility.yul\":1098:1103   */\n      0x00\n        /* \"#utility.yul\":1136:1142   */\n      dup2\n        /* \"#utility.yul\":1123:1143   */\n      calldataload\n        /* \"#utility.yul\":1114:1143   */\n      swap1\n      pop\n        /* \"#utility.yul\":1152:1185   */\n      tag_280\n        /* \"#utility.yul\":1179:1184   */\n      dup2\n        /* \"#utility.yul\":1152:1185   */\n      tag_221\n      jump\t// in\n    tag_280:\n        /* \"#utility.yul\":1052:1191   */\n      swap3\n      swap2\n      pop\n      pop\n      jump\t// out\n        /* \"#utility.yul\":1197:1671   */\n    tag_25:\n        /* \"#utility.yul\":1265:1271   */\n      0x00\n        /* \"#utility.yul\":1273:1279   */\n      dup1\n        /* \"#utility.yul\":1322:1324   */\n      0x40\n        /* \"#utility.yul\":1310:1319   */\n      dup4\n        /* \"#utility.yul\":1301:1308   */\n      dup6\n        /* \"#utility.yul\":1297:1320   */\n      sub\n        /* \"#utility.yul\":1293:1325   */\n      slt\n        /* \"#utility.yul\":1290:1409   */\n      iszero\n      tag_282\n      jumpi\n        /* \"#utility.yul\":1328:1407   */\n      tag_283\n      tag_214\n      jump\t// in\n    tag_283:\n        /* \"#utility.yul\":1290:1409   */\n    tag_282:\n        /* \"#utility.yul\":1448:1449   */\n      0x00\n        /* \"#utility.yul\":1473:1526   */\n      tag_284\n        /* \"#utility.yul\":1518:1525   */\n      dup6\n        /* \"#utility.yul\":1509:1515   */\n      dup3\n        /* \"#utility.yul\":1498:1507   */\n      dup7\n        /* \"#utility.yul\":1494:1516   */\n      add\n        /* \"#utility.yul\":1473:1526   */\n      tag_218\n      jump\t// in\n    tag_284:\n        /* \"#utility.yul\":1463:1526   */\n      swap3\n      pop\n        /* \"#utility.yul\":1419:1536   */\n      pop\n        /* \"#utility.yul\":1575:1577   */\n      0x20\n        /* \"#utility.yul\":1601:1654   */\n      tag_285\n        /* \"#utility.yul\":1646:1653   */\n      dup6\n        /* \"#utility.yul\":1637:1643   */\n      dup3\n        /* \"#utility.yul\":1626:1635   */\n      dup7\n        /* \"#utility.yul\":1622:1644   */\n      add\n        /* \"#utility.yul\":1601:1654   */\n      tag_222\n      jump\t// in\n    tag_285:\n        /* \"#utility.yul\":1591:1654   */\n      swap2\n      pop\n        /* \"#utility.yul\":1546:1664   */\n      pop\n        /* \"#utility.yul\":1197:1671   */\n      swap3\n      pop\n      swap3\n      swap1\n      pop\n      jump\t// out\n        /* \"#utility.yul\":1677:1795   */\n    tag_223:\n        /* \"#utility.yul\":1764:1788   */\n      tag_287\n        /* \"#utility.yul\":1782:1787   */\n      dup2\n        /* \"#utility.yul\":1764:1788   */\n      tag_216\n      jump\t// in\n    tag_287:\n        /* \"#utility.yul\":1759:1762   */\n      dup3\n        /* \"#utility.yul\":1752:1789   */\n      mstore\n        /* \"#utility.yul\":1677:1795   */\n      pop\n      pop\n      jump\t// out\n        /* \"#utility.yul\":1801:2023   */\n    tag_31:\n        /* \"#utility.yul\":1894:1898   */\n      0x00\n        /* \"#utility.yul\":1932:1934   */\n      0x20\n        /* \"#utility.yul\":1921:1930   */\n      dup3\n        /* \"#utility.yul\":1917:1935   */\n      add\n        /* \"#utility.yul\":1909:1935   */\n      swap1\n      pop\n        /* \"#utility.yul\":1945:2016   */\n      tag_289\n        /* \"#utility.yul\":2013:2014   */\n      0x00\n        /* \"#utility.yul\":2002:2011   */\n      dup4\n        /* \"#utility.yul\":1998:2015   */\n      add\n        /* \"#utility.yul\":1989:1995   */\n      dup5\n        /* \"#utility.yul\":1945:2016   */\n      tag_223\n      jump\t// in\n    tag_289:\n        /* \"#utility.yul\":1801:2023   */\n      swap3\n      swap2\n      pop\n      pop\n      jump\t// out\n        /* \"#utility.yul\":2029:2139   */\n    tag_224:\n        /* \"#utility.yul\":2080:2087   */\n      0x00\n        /* \"#utility.yul\":2109:2133   */\n      tag_291\n        /* \"#utility.yul\":2127:2132   */\n      dup3\n        /* \"#utility.yul\":2109:2133   */\n      tag_220\n      jump\t// in\n    tag_291:\n        /* \"#utility.yul\":2098:2133   */\n      swap1\n      pop\n        /* \"#utility.yul\":2029:2139   */\n      swap2\n      swap1\n      pop\n      jump\t// out\n        /* \"#utility.yul\":2145:2295   */\n    tag_225:\n        /* \"#utility.yul\":2232:2270   */\n      tag_293\n        /* \"#utility.yul\":2264:2269   */\n      dup2\n        /* \"#utility.yul\":2232:2270   */\n      tag_224\n      jump\t// in\n    tag_293:\n        /* \"#utility.yul\":2225:2230   */\n      dup2\n        /* \"#utility.yul\":2222:2271   */\n      eq\n        /* \"#utility.yul\":2212:2289   */\n      tag_294\n      jumpi\n        /* \"#utility.yul\":2285:2286   */\n      0x00\n        /* \"#utility.yul\":2282:2283   */\n      dup1\n        /* \"#utility.yul\":2275:2287   */\n      revert\n        /* \"#utility.yul\":2212:2289   */\n    tag_294:\n        /* \"#utility.yul\":2145:2295   */\n      pop\n      jump\t// out\n        /* \"#utility.yul\":2301:2468   */\n    tag_226:\n        /* \"#utility.yul\":2361:2366   */\n      0x00\n        /* \"#utility.yul\":2399:2405   */\n      dup2\n        /* \"#utility.yul\":2386:2406   */\n      calldataload\n        /* \"#utility.yul\":2377:2406   */\n      swap1\n      pop\n        /* \"#utility.yul\":2415:2462   */\n      tag_296\n        /* \"#utility.yul\":2456:2461   */\n      dup2\n        /* \"#utility.yul\":2415:2462   */\n      tag_225\n      jump\t// in\n    tag_296:\n        /* \"#utility.yul\":2301:2468   */\n      swap3\n      swap2\n      pop\n      pop\n      jump\t// out\n        /* \"#utility.yul\":2474:2976   */\n    tag_35:\n        /* \"#utility.yul\":2556:2562   */\n      0x00\n        /* \"#utility.yul\":2564:2570   */\n      dup1\n        /* \"#utility.yul\":2613:2615   */\n      0x40\n        /* \"#utility.yul\":2601:2610   */\n      dup4\n        /* \"#utility.yul\":2592:2599   */\n      dup6\n        /* \"#utility.yul\":2588:2611   */\n      sub\n        /* \"#utility.yul\":2584:2616   */\n      slt\n        /* \"#utility.yul\":2581:2700   */\n      iszero\n      tag_298\n      jumpi\n        /* \"#utility.yul\":2619:2698   */\n      tag_299\n      tag_214\n      jump\t// in\n    tag_299:\n        /* \"#utility.yul\":2581:2700   */\n    tag_298:\n        /* \"#utility.yul\":2739:2740   */\n      0x00\n        /* \"#utility.yul\":2764:2831   */\n      tag_300\n        /* \"#utility.yul\":2823:2830   */\n      dup6\n        /* \"#utility.yul\":2814:2820   */\n      dup3\n        /* \"#utility.yul\":2803:2812   */\n      dup7\n        /* \"#utility.yul\":2799:2821   */\n      add\n        /* \"#utility.yul\":2764:2831   */\n      tag_226\n      jump\t// in\n    tag_300:\n        /* \"#utility.yul\":2754:2831   */\n      swap3\n      pop\n        /* \"#utility.yul\":2710:2841   */\n      pop\n        /* \"#utility.yul\":2880:2882   */\n      0x20\n        /* \"#utility.yul\":2906:2959   */\n      tag_301\n        /* \"#utility.yul\":2951:2958   */\n      dup6\n        /* \"#utility.yul\":2942:2948   */\n      dup3\n        /* \"#utility.yul\":2931:2940   */\n      dup7\n        /* \"#utility.yul\":2927:2949   */\n      add\n        /* \"#utility.yul\":2906:2959   */\n      tag_218\n      jump\t// in\n    tag_301:\n        /* \"#utility.yul\":2896:2959   */\n      swap2\n      pop\n        /* \"#utility.yul\":2851:2969   */\n      pop\n        /* \"#utility.yul\":2474:2976   */\n      swap3\n      pop\n      swap3\n      swap1\n      pop\n      jump\t// out\n        /* \"#utility.yul\":2982:3042   */\n    tag_227:\n        /* \"#utility.yul\":3010:3013   */\n      0x00\n        /* \"#utility.yul\":3031:3036   */\n      dup2\n        /* \"#utility.yul\":3024:3036   */\n      swap1\n      pop\n        /* \"#utility.yul\":2982:3042   */\n      swap2\n      swap1\n      pop\n      jump\t// out\n        /* \"#utility.yul\":3048:3190   */\n    tag_228:\n        /* \"#utility.yul\":3098:3107   */\n      0x00\n        /* \"#utility.yul\":3131:3184   */\n      tag_304\n        /* \"#utility.yul\":3149:3183   */\n      tag_305\n        /* \"#utility.yul\":3158:3182   */\n      tag_306\n        /* \"#utility.yul\":3176:3181   */\n      dup5\n        /* \"#utility.yul\":3158:3182   */\n      tag_219\n      jump\t// in\n    tag_306:\n        /* \"#utility.yul\":3149:3183   */\n      tag_227\n      jump\t// in\n    tag_305:\n        /* \"#utility.yul\":3131:3184   */\n      tag_219\n      jump\t// in\n    tag_304:\n        /* \"#utility.yul\":3118:3184   */\n      swap1\n      pop\n        /* \"#utility.yul\":3048:3190   */\n      swap2\n      swap1\n      pop\n      jump\t// out\n        /* \"#utility.yul\":3196:3322   */\n    tag_229:\n        /* \"#utility.yul\":3246:3255   */\n      0x00\n        /* \"#utility.yul\":3279:3316   */\n      tag_308\n        /* \"#utility.yul\":3310:3315   */\n      dup3\n        /* \"#utility.yul\":3279:3316   */\n      tag_228\n      jump\t// in\n    tag_308:\n        /* \"#utility.yul\":3266:3316   */\n      swap1\n      pop\n        /* \"#utility.yul\":3196:3322   */\n      swap2\n      swap1\n      pop\n      jump\t// out\n        /* \"#utility.yul\":3328:3468   */\n    tag_230:\n        /* \"#utility.yul\":3392:3401   */\n      0x00\n        /* \"#utility.yul\":3425:3462   */\n      tag_310\n        /* \"#utility.yul\":3456:3461   */\n      dup3\n        /* \"#utility.yul\":3425:3462   */\n      tag_229\n      jump\t// in\n    tag_310:\n        /* \"#utility.yul\":3412:3462   */\n      swap1\n      pop\n        /* \"#utility.yul\":3328:3468   */\n      swap2\n      swap1\n      pop\n      jump\t// out\n        /* \"#utility.yul\":3474:3633   */\n    tag_231:\n        /* \"#utility.yul\":3575:3626   */\n      tag_312\n        /* \"#utility.yul\":3620:3625   */\n      dup2\n        /* \"#utility.yul\":3575:3626   */\n      tag_230\n      jump\t// in\n    tag_312:\n        /* \"#utility.yul\":3570:3573   */\n      dup3\n        /* \"#utility.yul\":3563:3627   */\n      mstore\n        /* \"#utility.yul\":3474:3633   */\n      pop\n      pop\n      jump\t// out\n        /* \"#utility.yul\":3639:3889   */\n    tag_44:\n        /* \"#utility.yul\":3746:3750   */\n      0x00\n        /* \"#utility.yul\":3784:3786   */\n      0x20\n        /* \"#utility.yul\":3773:3782   */\n      dup3\n        /* \"#utility.yul\":3769:3787   */\n      add\n        /* \"#utility.yul\":3761:3787   */\n      swap1\n      pop\n        /* \"#utility.yul\":3797:3882   */\n      tag_314\n        /* \"#utility.yul\":3879:3880   */\n      0x00\n        /* \"#utility.yul\":3868:3877   */\n      dup4\n        /* \"#utility.yul\":3864:3881   */\n      add\n        /* \"#utility.yul\":3855:3861   */\n      dup5\n        /* \"#utility.yul\":3797:3882   */\n      tag_231\n      jump\t// in\n    tag_314:\n        /* \"#utility.yul\":3639:3889   */\n      swap3\n      swap2\n      pop\n      pop\n      jump\t// out\n        /* \"#utility.yul\":3895:4224   */\n    tag_48:\n        /* \"#utility.yul\":3954:3960   */\n      0x00\n        /* \"#utility.yul\":4003:4005   */\n      0x20\n        /* \"#utility.yul\":3991:4000   */\n      dup3\n        /* \"#utility.yul\":3982:3989   */\n      dup5\n        /* \"#utility.yul\":3978:4001   */\n      sub\n        /* \"#utility.yul\":3974:4006   */\n      slt\n        /* \"#utility.yul\":3971:4090   */\n      iszero\n      tag_316\n      jumpi\n        /* \"#utility.yul\":4009:4088   */\n      tag_317\n      tag_214\n      jump\t// in\n    tag_317:\n        /* \"#utility.yul\":3971:4090   */\n    tag_316:\n        /* \"#utility.yul\":4129:4130   */\n      0x00\n        /* \"#utility.yul\":4154:4207   */\n      tag_318\n        /* \"#utility.yul\":4199:4206   */\n      dup5\n        /* \"#utility.yul\":4190:4196   */\n      dup3\n        /* \"#utility.yul\":4179:4188   */\n      dup6\n        /* \"#utility.yul\":4175:4197   */\n      add\n        /* \"#utility.yul\":4154:4207   */\n      tag_222\n      jump\t// in\n    tag_318:\n        /* \"#utility.yul\":4144:4207   */\n      swap2\n      pop\n        /* \"#utility.yul\":4100:4217   */\n      pop\n        /* \"#utility.yul\":3895:4224   */\n      swap3\n      swap2\n      pop\n      pop\n      jump\t// out\n        /* \"#utility.yul\":4230:4320   */\n    tag_232:\n        /* \"#utility.yul\":4264:4271   */\n      0x00\n        /* \"#utility.yul\":4307:4312   */\n      dup2\n        /* \"#utility.yul\":4300:4313   */\n      iszero\n        /* \"#utility.yul\":4293:4314   */\n      iszero\n        /* \"#utility.yul\":4282:4314   */\n      swap1\n      pop\n        /* \"#utility.yul\":4230:4320   */\n      swap2\n      swap1\n      pop\n      jump\t// out\n        /* \"#utility.yul\":4326:4435   */\n    tag_233:\n        /* \"#utility.yul\":4407:4428   */\n      tag_321\n        /* \"#utility.yul\":4422:4427   */\n      dup2\n        /* \"#utility.yul\":4407:4428   */\n      tag_232\n      jump\t// in\n    tag_321:\n        /* \"#utility.yul\":4402:4405   */\n      dup3\n        /* \"#utility.yul\":4395:4429   */\n      mstore\n        /* \"#utility.yul\":4326:4435   */\n      pop\n      pop\n      jump\t// out\n        /* \"#utility.yul\":4441:4651   */\n    tag_51:\n        /* \"#utility.yul\":4528:4532   */\n      0x00\n        /* \"#utility.yul\":4566:4568   */\n      0x20\n        /* \"#utility.yul\":4555:4564   */\n      dup3\n        /* \"#utility.yul\":4551:4569   */\n      add\n        /* \"#utility.yul\":4543:4569   */\n      swap1\n      pop\n        /* \"#utility.yul\":4579:4644   */\n      tag_323\n        /* \"#utility.yul\":4641:4642   */\n      0x00\n        /* \"#utility.yul\":4630:4639   */\n      dup4\n        /* \"#utility.yul\":4626:4643   */\n      add\n        /* \"#utility.yul\":4617:4623   */\n      dup5\n        /* \"#utility.yul\":4579:4644   */\n      tag_233\n      jump\t// in\n    tag_323:\n        /* \"#utility.yul\":4441:4651   */\n      swap3\n      swap2\n      pop\n      pop\n      jump\t// out\n        /* \"#utility.yul\":4657:4775   */\n    tag_234:\n        /* \"#utility.yul\":4744:4768   */\n      tag_325\n        /* \"#utility.yul\":4762:4767   */\n      dup2\n        /* \"#utility.yul\":4744:4768   */\n      tag_220\n      jump\t// in\n    tag_325:\n        /* \"#utility.yul\":4739:4742   */\n      dup3\n        /* \"#utility.yul\":4732:4769   */\n      mstore\n        /* \"#utility.yul\":4657:4775   */\n      pop\n      pop\n      jump\t// out\n        /* \"#utility.yul\":4781:5003   */\n    tag_63:\n        /* \"#utility.yul\":4874:4878   */\n      0x00\n        /* \"#utility.yul\":4912:4914   */\n      0x20\n        /* \"#utility.yul\":4901:4910   */\n      dup3\n        /* \"#utility.yul\":4897:4915   */\n      add\n        /* \"#utility.yul\":4889:4915   */\n      swap1\n      pop\n        /* \"#utility.yul\":4925:4996   */\n      tag_327\n        /* \"#utility.yul\":4993:4994   */\n      0x00\n        /* \"#utility.yul\":4982:4991   */\n      dup4\n        /* \"#utility.yul\":4978:4995   */\n      add\n        /* \"#utility.yul\":4969:4975   */\n      dup5\n        /* \"#utility.yul\":4925:4996   */\n      tag_234\n      jump\t// in\n    tag_327:\n        /* \"#utility.yul\":4781:5003   */\n      swap3\n      swap2\n      pop\n      pop\n      jump\t// out\n        /* \"#utility.yul\":5009:5126   */\n    tag_235:\n        /* \"#utility.yul\":5118:5119   */\n      0x00\n        /* \"#utility.yul\":5115:5116   */\n      dup1\n        /* \"#utility.yul\":5108:5120   */\n      revert\n        /* \"#utility.yul\":5132:5234   */\n    tag_236:\n        /* \"#utility.yul\":5173:5179   */\n      0x00\n        /* \"#utility.yul\":5224:5226   */\n      0x1f\n        /* \"#utility.yul\":5220:5227   */\n      not\n        /* \"#utility.yul\":5215:5217   */\n      0x1f\n        /* \"#utility.yul\":5208:5213   */\n      dup4\n        /* \"#utility.yul\":5204:5218   */\n      add\n        /* \"#utility.yul\":5200:5228   */\n      and\n        /* \"#utility.yul\":5190:5228   */\n      swap1\n      pop\n        /* \"#utility.yul\":5132:5234   */\n      swap2\n      swap1\n      pop\n      jump\t// out\n        /* \"#utility.yul\":5240:5420   */\n    tag_237:\n        /* \"#utility.yul\":5288:5365   */\n      0x4e487b7100000000000000000000000000000000000000000000000000000000\n        /* \"#utility.yul\":5285:5286   */\n      0x00\n        /* \"#utility.yul\":5278:5366   */\n      mstore\n        /* \"#utility.yul\":5385:5389   */\n      0x41\n        /* \"#utility.yul\":5382:5383   */\n      0x04\n        /* \"#utility.yul\":5375:5390   */\n      mstore\n        /* \"#utility.yul\":5409:5413   */\n      0x24\n        /* \"#utility.yul\":5406:5407   */\n      0x00\n        /* \"#utility.yul\":5399:5414   */\n      revert\n        /* \"#utility.yul\":5426:5707   */\n    tag_238:\n        /* \"#utility.yul\":5509:5536   */\n      tag_332\n        /* \"#utility.yul\":5531:5535   */\n      dup3\n        /* \"#utility.yul\":5509:5536   */\n      tag_236\n      jump\t// in\n    tag_332:\n        /* \"#utility.yul\":5501:5507   */\n      dup2\n        /* \"#utility.yul\":5497:5537   */\n      add\n        /* \"#utility.yul\":5639:5645   */\n      dup2\n        /* \"#utility.yul\":5627:5637   */\n      dup2\n        /* \"#utility.yul\":5624:5646   */\n      lt\n        /* \"#utility.yul\":5603:5621   */\n      0xffffffffffffffff\n        /* \"#utility.yul\":5591:5601   */\n      dup3\n        /* \"#utility.yul\":5588:5622   */\n      gt\n        /* \"#utility.yul\":5585:5647   */\n      or\n        /* \"#utility.yul\":5582:5670   */\n      iszero\n      tag_333\n      jumpi\n        /* \"#utility.yul\":5650:5668   */\n      tag_334\n      tag_237\n      jump\t// in\n    tag_334:\n        /* \"#utility.yul\":5582:5670   */\n    tag_333:\n        /* \"#utility.yul\":5690:5700   */\n      dup1\n        /* \"#utility.yul\":5686:5688   */\n      0x40\n        /* \"#utility.yul\":5679:5701   */\n      mstore\n        /* \"#utility.yul\":5469:5707   */\n      pop\n        /* \"#utility.yul\":5426:5707   */\n      pop\n      pop\n      jump\t// out\n        /* \"#utility.yul\":5713:5842   */\n    tag_239:\n        /* \"#utility.yul\":5747:5753   */\n      0x00\n        /* \"#utility.yul\":5774:5794   */\n      tag_336\n      tag_213\n      jump\t// in\n    tag_336:\n        /* \"#utility.yul\":5764:5794   */\n      swap1\n      pop\n        /* \"#utility.yul\":5803:5836   */\n      tag_337\n        /* \"#utility.yul\":5831:5835   */\n      dup3\n        /* \"#utility.yul\":5823:5829   */\n      dup3\n        /* \"#utility.yul\":5803:5836   */\n      tag_238\n      jump\t// in\n    tag_337:\n        /* \"#utility.yul\":5713:5842   */\n      swap2\n      swap1\n      pop\n      jump\t// out\n        /* \"#utility.yul\":5848:6159   */\n    tag_240:\n        /* \"#utility.yul\":5925:5929   */\n      0x00\n        /* \"#utility.yul\":6015:6033   */\n      0xffffffffffffffff\n        /* \"#utility.yul\":6007:6013   */\n      dup3\n        /* \"#utility.yul\":6004:6034   */\n      gt\n        /* \"#utility.yul\":6001:6057   */\n      iszero\n      tag_339\n      jumpi\n        /* \"#utility.yul\":6037:6055   */\n      tag_340\n      tag_237\n      jump\t// in\n    tag_340:\n        /* \"#utility.yul\":6001:6057   */\n    tag_339:\n        /* \"#utility.yul\":6087:6091   */\n      0x20\n        /* \"#utility.yul\":6079:6085   */\n      dup3\n        /* \"#utility.yul\":6075:6092   */\n      mul\n        /* \"#utility.yul\":6067:6092   */\n      swap1\n      pop\n        /* \"#utility.yul\":6147:6151   */\n      0x20\n        /* \"#utility.yul\":6141:6145   */\n      dup2\n        /* \"#utility.yul\":6137:6152   */\n      add\n        /* \"#utility.yul\":6129:6152   */\n      swap1\n      pop\n        /* \"#utility.yul\":5848:6159   */\n      swap2\n      swap1\n      pop\n      jump\t// out\n        /* \"#utility.yul\":6165:6282   */\n    tag_241:\n        /* \"#utility.yul\":6274:6275   */\n      0x00\n        /* \"#utility.yul\":6271:6272   */\n      dup1\n        /* \"#utility.yul\":6264:6276   */\n      revert\n        /* \"#utility.yul\":6305:7015   */\n    tag_242:\n        /* \"#utility.yul\":6401:6406   */\n      0x00\n        /* \"#utility.yul\":6426:6507   */\n      tag_343\n        /* \"#utility.yul\":6442:6506   */\n      tag_344\n        /* \"#utility.yul\":6499:6505   */\n      dup5\n        /* \"#utility.yul\":6442:6506   */\n      tag_240\n      jump\t// in\n    tag_344:\n        /* \"#utility.yul\":6426:6507   */\n      tag_239\n      jump\t// in\n    tag_343:\n        /* \"#utility.yul\":6417:6507   */\n      swap1\n      pop\n        /* \"#utility.yul\":6527:6532   */\n      dup1\n        /* \"#utility.yul\":6556:6562   */\n      dup4\n        /* \"#utility.yul\":6549:6554   */\n      dup3\n        /* \"#utility.yul\":6542:6563   */\n      mstore\n        /* \"#utility.yul\":6590:6594   */\n      0x20\n        /* \"#utility.yul\":6583:6588   */\n      dup3\n        /* \"#utility.yul\":6579:6595   */\n      add\n        /* \"#utility.yul\":6572:6595   */\n      swap1\n      pop\n        /* \"#utility.yul\":6643:6647   */\n      0x20\n        /* \"#utility.yul\":6635:6641   */\n      dup5\n        /* \"#utility.yul\":6631:6648   */\n      mul\n        /* \"#utility.yul\":6623:6629   */\n      dup4\n        /* \"#utility.yul\":6619:6649   */\n      add\n        /* \"#utility.yul\":6672:6675   */\n      dup6\n        /* \"#utility.yul\":6664:6670   */\n      dup2\n        /* \"#utility.yul\":6661:6676   */\n      gt\n        /* \"#utility.yul\":6658:6780   */\n      iszero\n      tag_345\n      jumpi\n        /* \"#utility.yul\":6691:6770   */\n      tag_346\n      tag_241\n      jump\t// in\n    tag_346:\n        /* \"#utility.yul\":6658:6780   */\n    tag_345:\n        /* \"#utility.yul\":6806:6812   */\n      dup4\n        /* \"#utility.yul\":6789:7009   */\n    tag_347:\n        /* \"#utility.yul\":6823:6829   */\n      dup2\n        /* \"#utility.yul\":6818:6821   */\n      dup2\n        /* \"#utility.yul\":6815:6830   */\n      lt\n        /* \"#utility.yul\":6789:7009   */\n      iszero\n      tag_349\n      jumpi\n        /* \"#utility.yul\":6898:6901   */\n      dup1\n        /* \"#utility.yul\":6927:6964   */\n      tag_350\n        /* \"#utility.yul\":6960:6963   */\n      dup9\n        /* \"#utility.yul\":6948:6958   */\n      dup3\n        /* \"#utility.yul\":6927:6964   */\n      tag_222\n      jump\t// in\n    tag_350:\n        /* \"#utility.yul\":6922:6925   */\n      dup5\n        /* \"#utility.yul\":6915:6965   */\n      mstore\n        /* \"#utility.yul\":6994:6998   */\n      0x20\n        /* \"#utility.yul\":6989:6992   */\n      dup5\n        /* \"#utility.yul\":6985:6999   */\n      add\n        /* \"#utility.yul\":6978:6999   */\n      swap4\n      pop\n        /* \"#utility.yul\":6865:7009   */\n      pop\n        /* \"#utility.yul\":6849:6853   */\n      0x20\n        /* \"#utility.yul\":6844:6847   */\n      dup2\n        /* \"#utility.yul\":6840:6854   */\n      add\n        /* \"#utility.yul\":6833:6854   */\n      swap1\n      pop\n        /* \"#utility.yul\":6789:7009   */\n      jump(tag_347)\n    tag_349:\n        /* \"#utility.yul\":6793:6814   */\n      pop\n        /* \"#utility.yul\":6407:7015   */\n      pop\n      pop\n        /* \"#utility.yul\":6305:7015   */\n      swap4\n      swap3\n      pop\n      pop\n      pop\n      jump\t// out\n        /* \"#utility.yul\":7038:7408   */\n    tag_243:\n        /* \"#utility.yul\":7109:7114   */\n      0x00\n        /* \"#utility.yul\":7158:7161   */\n      dup3\n        /* \"#utility.yul\":7151:7155   */\n      0x1f\n        /* \"#utility.yul\":7143:7149   */\n      dup4\n        /* \"#utility.yul\":7139:7156   */\n      add\n        /* \"#utility.yul\":7135:7162   */\n      slt\n        /* \"#utility.yul\":7125:7247   */\n      tag_352\n      jumpi\n        /* \"#utility.yul\":7166:7245   */\n      tag_353\n      tag_235\n      jump\t// in\n    tag_353:\n        /* \"#utility.yul\":7125:7247   */\n    tag_352:\n        /* \"#utility.yul\":7283:7289   */\n      dup2\n        /* \"#utility.yul\":7270:7290   */\n      calldataload\n        /* \"#utility.yul\":7308:7402   */\n      tag_354\n        /* \"#utility.yul\":7398:7401   */\n      dup5\n        /* \"#utility.yul\":7390:7396   */\n      dup3\n        /* \"#utility.yul\":7383:7387   */\n      0x20\n        /* \"#utility.yul\":7375:7381   */\n      dup7\n        /* \"#utility.yul\":7371:7388   */\n      add\n        /* \"#utility.yul\":7308:7402   */\n      tag_242\n      jump\t// in\n    tag_354:\n        /* \"#utility.yul\":7299:7402   */\n      swap2\n      pop\n        /* \"#utility.yul\":7115:7408   */\n      pop\n        /* \"#utility.yul\":7038:7408   */\n      swap3\n      swap2\n      pop\n      pop\n      jump\t// out\n        /* \"#utility.yul\":7414:7725   */\n    tag_244:\n        /* \"#utility.yul\":7491:7495   */\n      0x00\n        /* \"#utility.yul\":7581:7599   */\n      0xffffffffffffffff\n        /* \"#utility.yul\":7573:7579   */\n      dup3\n        /* \"#utility.yul\":7570:7600   */\n      gt\n        /* \"#utility.yul\":7567:7623   */\n      iszero\n      tag_356\n      jumpi\n        /* \"#utility.yul\":7603:7621   */\n      tag_357\n      tag_237\n      jump\t// in\n    tag_357:\n        /* \"#utility.yul\":7567:7623   */\n    tag_356:\n        /* \"#utility.yul\":7653:7657   */\n      0x20\n        /* \"#utility.yul\":7645:7651   */\n      dup3\n        /* \"#utility.yul\":7641:7658   */\n      mul\n        /* \"#utility.yul\":7633:7658   */\n      swap1\n      pop\n        /* \"#utility.yul\":7713:7717   */\n      0x20\n        /* \"#utility.yul\":7707:7711   */\n      dup2\n        /* \"#utility.yul\":7703:7718   */\n      add\n        /* \"#utility.yul\":7695:7718   */\n      swap1\n      pop\n        /* \"#utility.yul\":7414:7725   */\n      swap2\n      swap1\n      pop\n      jump\t// out\n        /* \"#utility.yul\":7748:8458   */\n    tag_245:\n        /* \"#utility.yul\":7844:7849   */\n      0x00\n        /* \"#utility.yul\":7869:7950   */\n      tag_359\n        /* \"#utility.yul\":7885:7949   */\n      tag_360\n        /* \"#utility.yul\":7942:7948   */\n      dup5\n        /* \"#utility.yul\":7885:7949   */\n      tag_244\n      jump\t// in\n    tag_360:\n        /* \"#utility.yul\":7869:7950   */\n      tag_239\n      jump\t// in\n    tag_359:\n        /* \"#utility.yul\":7860:7950   */\n      swap1\n      pop\n        /* \"#utility.yul\":7970:7975   */\n      dup1\n        /* \"#utility.yul\":7999:8005   */\n      dup4\n        /* \"#utility.yul\":7992:7997   */\n      dup3\n        /* \"#utility.yul\":7985:8006   */\n      mstore\n        /* \"#utility.yul\":8033:8037   */\n      0x20\n        /* \"#utility.yul\":8026:8031   */\n      dup3\n        /* \"#utility.yul\":8022:8038   */\n      add\n        /* \"#utility.yul\":8015:8038   */\n      swap1\n      pop\n        /* \"#utility.yul\":8086:8090   */\n      0x20\n        /* \"#utility.yul\":8078:8084   */\n      dup5\n        /* \"#utility.yul\":8074:8091   */\n      mul\n        /* \"#utility.yul\":8066:8072   */\n      dup4\n        /* \"#utility.yul\":8062:8092   */\n      add\n        /* \"#utility.yul\":8115:8118   */\n      dup6\n        /* \"#utility.yul\":8107:8113   */\n      dup2\n        /* \"#utility.yul\":8104:8119   */\n      gt\n        /* \"#utility.yul\":8101:8223   */\n      iszero\n      tag_361\n      jumpi\n        /* \"#utility.yul\":8134:8213   */\n      tag_362\n      tag_241\n      jump\t// in\n    tag_362:\n        /* \"#utility.yul\":8101:8223   */\n    tag_361:\n        /* \"#utility.yul\":8249:8255   */\n      dup4\n        /* \"#utility.yul\":8232:8452   */\n    tag_363:\n        /* \"#utility.yul\":8266:8272   */\n      dup2\n        /* \"#utility.yul\":8261:8264   */\n      dup2\n        /* \"#utility.yul\":8258:8273   */\n      lt\n        /* \"#utility.yul\":8232:8452   */\n      iszero\n      tag_365\n      jumpi\n        /* \"#utility.yul\":8341:8344   */\n      dup1\n        /* \"#utility.yul\":8370:8407   */\n      tag_366\n        /* \"#utility.yul\":8403:8406   */\n      dup9\n        /* \"#utility.yul\":8391:8401   */\n      dup3\n        /* \"#utility.yul\":8370:8407   */\n      tag_218\n      jump\t// in\n    tag_366:\n        /* \"#utility.yul\":8365:8368   */\n      dup5\n        /* \"#utility.yul\":8358:8408   */\n      mstore\n        /* \"#utility.yul\":8437:8441   */\n      0x20\n        /* \"#utility.yul\":8432:8435   */\n      dup5\n        /* \"#utility.yul\":8428:8442   */\n      add\n        /* \"#utility.yul\":8421:8442   */\n      swap4\n      pop\n        /* \"#utility.yul\":8308:8452   */\n      pop\n        /* \"#utility.yul\":8292:8296   */\n      0x20\n        /* \"#utility.yul\":8287:8290   */\n      dup2\n        /* \"#utility.yul\":8283:8297   */\n      add\n        /* \"#utility.yul\":8276:8297   */\n      swap1\n      pop\n        /* \"#utility.yul\":8232:8452   */\n      jump(tag_363)\n    tag_365:\n        /* \"#utility.yul\":8236:8257   */\n      pop\n        /* \"#utility.yul\":7850:8458   */\n      pop\n      pop\n        /* \"#utility.yul\":7748:8458   */\n      swap4\n      swap3\n      pop\n      pop\n      pop\n      jump\t// out\n        /* \"#utility.yul\":8481:8851   */\n    tag_246:\n        /* \"#utility.yul\":8552:8557   */\n      0x00\n        /* \"#utility.yul\":8601:8604   */\n      dup3\n        /* \"#utility.yul\":8594:8598   */\n      0x1f\n        /* \"#utility.yul\":8586:8592   */\n      dup4\n        /* \"#utility.yul\":8582:8599   */\n      add\n        /* \"#utility.yul\":8578:8605   */\n      slt\n        /* \"#utility.yul\":8568:8690   */\n      tag_368\n      jumpi\n        /* \"#utility.yul\":8609:8688   */\n      tag_369\n      tag_235\n      jump\t// in\n    tag_369:\n        /* \"#utility.yul\":8568:8690   */\n    tag_368:\n        /* \"#utility.yul\":8726:8732   */\n      dup2\n        /* \"#utility.yul\":8713:8733   */\n      calldataload\n        /* \"#utility.yul\":8751:8845   */\n      tag_370\n        /* \"#utility.yul\":8841:8844   */\n      dup5\n        /* \"#utility.yul\":8833:8839   */\n      dup3\n        /* \"#utility.yul\":8826:8830   */\n      0x20\n        /* \"#utility.yul\":8818:8824   */\n      dup7\n        /* \"#utility.yul\":8814:8831   */\n      add\n        /* \"#utility.yul\":8751:8845   */\n      tag_245\n      jump\t// in\n    tag_370:\n        /* \"#utility.yul\":8742:8845   */\n      swap2\n      pop\n        /* \"#utility.yul\":8558:8851   */\n      pop\n        /* \"#utility.yul\":8481:8851   */\n      swap3\n      swap2\n      pop\n      pop\n      jump\t// out\n        /* \"#utility.yul\":8857:9924   */\n    tag_70:\n        /* \"#utility.yul\":8998:9004   */\n      0x00\n        /* \"#utility.yul\":9006:9012   */\n      dup1\n        /* \"#utility.yul\":9014:9020   */\n      0x00\n        /* \"#utility.yul\":9063:9065   */\n      0x60\n        /* \"#utility.yul\":9051:9060   */\n      dup5\n        /* \"#utility.yul\":9042:9049   */\n      dup7\n        /* \"#utility.yul\":9038:9061   */\n      sub\n        /* \"#utility.yul\":9034:9066   */\n      slt\n        /* \"#utility.yul\":9031:9150   */\n      iszero\n      tag_372\n      jumpi\n        /* \"#utility.yul\":9069:9148   */\n      tag_373\n      tag_214\n      jump\t// in\n    tag_373:\n        /* \"#utility.yul\":9031:9150   */\n    tag_372:\n        /* \"#utility.yul\":9189:9190   */\n      0x00\n        /* \"#utility.yul\":9214:9281   */\n      tag_374\n        /* \"#utility.yul\":9273:9280   */\n      dup7\n        /* \"#utility.yul\":9264:9270   */\n      dup3\n        /* \"#utility.yul\":9253:9262   */\n      dup8\n        /* \"#utility.yul\":9249:9271   */\n      add\n        /* \"#utility.yul\":9214:9281   */\n      tag_226\n      jump\t// in\n    tag_374:\n        /* \"#utility.yul\":9204:9281   */\n      swap4\n      pop\n        /* \"#utility.yul\":9160:9291   */\n      pop\n        /* \"#utility.yul\":9358:9360   */\n      0x20\n        /* \"#utility.yul\":9347:9356   */\n      dup5\n        /* \"#utility.yul\":9343:9361   */\n      add\n        /* \"#utility.yul\":9330:9362   */\n      calldataload\n        /* \"#utility.yul\":9389:9407   */\n      0xffffffffffffffff\n        /* \"#utility.yul\":9381:9387   */\n      dup2\n        /* \"#utility.yul\":9378:9408   */\n      gt\n        /* \"#utility.yul\":9375:9492   */\n      iszero\n      tag_375\n      jumpi\n        /* \"#utility.yul\":9411:9490   */\n      tag_376\n      tag_215\n      jump\t// in\n    tag_376:\n        /* \"#utility.yul\":9375:9492   */\n    tag_375:\n        /* \"#utility.yul\":9516:9594   */\n      tag_377\n        /* \"#utility.yul\":9586:9593   */\n      dup7\n        /* \"#utility.yul\":9577:9583   */\n      dup3\n        /* \"#utility.yul\":9566:9575   */\n      dup8\n        /* \"#utility.yul\":9562:9584   */\n      add\n        /* \"#utility.yul\":9516:9594   */\n      tag_243\n      jump\t// in\n    tag_377:\n        /* \"#utility.yul\":9506:9594   */\n      swap3\n      pop\n        /* \"#utility.yul\":9301:9604   */\n      pop\n        /* \"#utility.yul\":9671:9673   */\n      0x40\n        /* \"#utility.yul\":9660:9669   */\n      dup5\n        /* \"#utility.yul\":9656:9674   */\n      add\n        /* \"#utility.yul\":9643:9675   */\n      calldataload\n        /* \"#utility.yul\":9702:9720   */\n      0xffffffffffffffff\n        /* \"#utility.yul\":9694:9700   */\n      dup2\n        /* \"#utility.yul\":9691:9721   */\n      gt\n        /* \"#utility.yul\":9688:9805   */\n      iszero\n      tag_378\n      jumpi\n        /* \"#utility.yul\":9724:9803   */\n      tag_379\n      tag_215\n      jump\t// in\n    tag_379:\n        /* \"#utility.yul\":9688:9805   */\n    tag_378:\n        /* \"#utility.yul\":9829:9907   */\n      tag_380\n        /* \"#utility.yul\":9899:9906   */\n      dup7\n        /* \"#utility.yul\":9890:9896   */\n      dup3\n        /* \"#utility.yul\":9879:9888   */\n      dup8\n        /* \"#utility.yul\":9875:9897   */\n      add\n        /* \"#utility.yul\":9829:9907   */\n      tag_246\n      jump\t// in\n    tag_380:\n        /* \"#utility.yul\":9819:9907   */\n      swap2\n      pop\n        /* \"#utility.yul\":9614:9917   */\n      pop\n        /* \"#utility.yul\":8857:9924   */\n      swap3\n      pop\n      swap3\n      pop\n      swap3\n      jump\t// out\n        /* \"#utility.yul\":9930:10824   */\n    tag_83:\n        /* \"#utility.yul\":10048:10054   */\n      0x00\n        /* \"#utility.yul\":10056:10062   */\n      dup1\n        /* \"#utility.yul\":10105:10107   */\n      0x40\n        /* \"#utility.yul\":10093:10102   */\n      dup4\n        /* \"#utility.yul\":10084:10091   */\n      dup6\n        /* \"#utility.yul\":10080:10103   */\n      sub\n        /* \"#utility.yul\":10076:10108   */\n      slt\n        /* \"#utility.yul\":10073:10192   */\n      iszero\n      tag_382\n      jumpi\n        /* \"#utility.yul\":10111:10190   */\n      tag_383\n      tag_214\n      jump\t// in\n    tag_383:\n        /* \"#utility.yul\":10073:10192   */\n    tag_382:\n        /* \"#utility.yul\":10259:10260   */\n      0x00\n        /* \"#utility.yul\":10248:10257   */\n      dup4\n        /* \"#utility.yul\":10244:10261   */\n      add\n        /* \"#utility.yul\":10231:10262   */\n      calldataload\n        /* \"#utility.yul\":10289:10307   */\n      0xffffffffffffffff\n        /* \"#utility.yul\":10281:10287   */\n      dup2\n        /* \"#utility.yul\":10278:10308   */\n      gt\n        /* \"#utility.yul\":10275:10392   */\n      iszero\n      tag_384\n      jumpi\n        /* \"#utility.yul\":10311:10390   */\n      tag_385\n      tag_215\n      jump\t// in\n    tag_385:\n        /* \"#utility.yul\":10275:10392   */\n    tag_384:\n        /* \"#utility.yul\":10416:10494   */\n      tag_386\n        /* \"#utility.yul\":10486:10493   */\n      dup6\n        /* \"#utility.yul\":10477:10483   */\n      dup3\n        /* \"#utility.yul\":10466:10475   */\n      dup7\n        /* \"#utility.yul\":10462:10484   */\n      add\n        /* \"#utility.yul\":10416:10494   */\n      tag_243\n      jump\t// in\n    tag_386:\n        /* \"#utility.yul\":10406:10494   */\n      swap3\n      pop\n        /* \"#utility.yul\":10202:10504   */\n      pop\n        /* \"#utility.yul\":10571:10573   */\n      0x20\n        /* \"#utility.yul\":10560:10569   */\n      dup4\n        /* \"#utility.yul\":10556:10574   */\n      add\n        /* \"#utility.yul\":10543:10575   */\n      calldataload\n        /* \"#utility.yul\":10602:10620   */\n      0xffffffffffffffff\n        /* \"#utility.yul\":10594:10600   */\n      dup2\n        /* \"#utility.yul\":10591:10621   */\n      gt\n        /* \"#utility.yul\":10588:10705   */\n      iszero\n      tag_387\n      jumpi\n        /* \"#utility.yul\":10624:10703   */\n      tag_388\n      tag_215\n      jump\t// in\n    tag_388:\n        /* \"#utility.yul\":10588:10705   */\n    tag_387:\n        /* \"#utility.yul\":10729:10807   */\n      tag_389\n        /* \"#utility.yul\":10799:10806   */\n      dup6\n        /* \"#utility.yul\":10790:10796   */\n      dup3\n        /* \"#utility.yul\":10779:10788   */\n      dup7\n        /* \"#utility.yul\":10775:10797   */\n      add\n        /* \"#utility.yul\":10729:10807   */\n      tag_246\n      jump\t// in\n    tag_389:\n        /* \"#utility.yul\":10719:10807   */\n      swap2\n      pop\n        /* \"#utility.yul\":10514:10817   */\n      pop\n        /* \"#utility.yul\":9930:10824   */\n      swap3\n      pop\n      swap3\n      swap1\n      pop\n      jump\t// out\n        /* \"#utility.yul\":10830:10934   */\n    tag_247:\n        /* \"#utility.yul\":10875:10882   */\n      0x00\n        /* \"#utility.yul\":10904:10928   */\n      tag_391\n        /* \"#utility.yul\":10922:10927   */\n      dup3\n        /* \"#utility.yul\":10904:10928   */\n      tag_219\n      jump\t// in\n    tag_391:\n        /* \"#utility.yul\":10893:10928   */\n      swap1\n      pop\n        /* \"#utility.yul\":10830:10934   */\n      swap2\n      swap1\n      pop\n      jump\t// out\n        /* \"#utility.yul\":10940:11082   */\n    tag_248:\n        /* \"#utility.yul\":11043:11075   */\n      tag_393\n        /* \"#utility.yul\":11069:11074   */\n      dup2\n        /* \"#utility.yul\":11043:11075   */\n      tag_247\n      jump\t// in\n    tag_393:\n        /* \"#utility.yul\":11038:11041   */\n      dup3\n        /* \"#utility.yul\":11031:11076   */\n      mstore\n        /* \"#utility.yul\":10940:11082   */\n      pop\n      pop\n      jump\t// out\n        /* \"#utility.yul\":11088:11342   */\n    tag_93:\n        /* \"#utility.yul\":11197:11201   */\n      0x00\n        /* \"#utility.yul\":11235:11237   */\n      0x20\n        /* \"#utility.yul\":11224:11233   */\n      dup3\n        /* \"#utility.yul\":11220:11238   */\n      add\n        /* \"#utility.yul\":11212:11238   */\n      swap1\n      pop\n        /* \"#utility.yul\":11248:11335   */\n      tag_395\n        /* \"#utility.yul\":11332:11333   */\n      0x00\n        /* \"#utility.yul\":11321:11330   */\n      dup4\n        /* \"#utility.yul\":11317:11334   */\n      add\n        /* \"#utility.yul\":11308:11314   */\n      dup5\n        /* \"#utility.yul\":11248:11335   */\n      tag_248\n      jump\t// in\n    tag_395:\n        /* \"#utility.yul\":11088:11342   */\n      swap3\n      swap2\n      pop\n      pop\n      jump\t// out\n        /* \"#utility.yul\":11348:11464   */\n    tag_249:\n        /* \"#utility.yul\":11418:11439   */\n      tag_397\n        /* \"#utility.yul\":11433:11438   */\n      dup2\n        /* \"#utility.yul\":11418:11439   */\n      tag_232\n      jump\t// in\n    tag_397:\n        /* \"#utility.yul\":11411:11416   */\n      dup2\n        /* \"#utility.yul\":11408:11440   */\n      eq\n        /* \"#utility.yul\":11398:11458   */\n      tag_398\n      jumpi\n        /* \"#utility.yul\":11454:11455   */\n      0x00\n        /* \"#utility.yul\":11451:11452   */\n      dup1\n        /* \"#utility.yul\":11444:11456   */\n      revert\n        /* \"#utility.yul\":11398:11458   */\n    tag_398:\n        /* \"#utility.yul\":11348:11464   */\n      pop\n      jump\t// out\n        /* \"#utility.yul\":11470:11603   */\n    tag_250:\n        /* \"#utility.yul\":11513:11518   */\n      0x00\n        /* \"#utility.yul\":11551:11557   */\n      dup2\n        /* \"#utility.yul\":11538:11558   */\n      calldataload\n        /* \"#utility.yul\":11529:11558   */\n      swap1\n      pop\n        /* \"#utility.yul\":11567:11597   */\n      tag_400\n        /* \"#utility.yul\":11591:11596   */\n      dup2\n        /* \"#utility.yul\":11567:11597   */\n      tag_249\n      jump\t// in\n    tag_400:\n        /* \"#utility.yul\":11470:11603   */\n      swap3\n      swap2\n      pop\n      pop\n      jump\t// out\n        /* \"#utility.yul\":11609:12077   */\n    tag_97:\n        /* \"#utility.yul\":11674:11680   */\n      0x00\n        /* \"#utility.yul\":11682:11688   */\n      dup1\n        /* \"#utility.yul\":11731:11733   */\n      0x40\n        /* \"#utility.yul\":11719:11728   */\n      dup4\n        /* \"#utility.yul\":11710:11717   */\n      dup6\n        /* \"#utility.yul\":11706:11729   */\n      sub\n        /* \"#utility.yul\":11702:11734   */\n      slt\n        /* \"#utility.yul\":11699:11818   */\n      iszero\n      tag_402\n      jumpi\n        /* \"#utility.yul\":11737:11816   */\n      tag_403\n      tag_214\n      jump\t// in\n    tag_403:\n        /* \"#utility.yul\":11699:11818   */\n    tag_402:\n        /* \"#utility.yul\":11857:11858   */\n      0x00\n        /* \"#utility.yul\":11882:11935   */\n      tag_404\n        /* \"#utility.yul\":11927:11934   */\n      dup6\n        /* \"#utility.yul\":11918:11924   */\n      dup3\n        /* \"#utility.yul\":11907:11916   */\n      dup7\n        /* \"#utility.yul\":11903:11925   */\n      add\n        /* \"#utility.yul\":11882:11935   */\n      tag_222\n      jump\t// in\n    tag_404:\n        /* \"#utility.yul\":11872:11935   */\n      swap3\n      pop\n        /* \"#utility.yul\":11828:11945   */\n      pop\n        /* \"#utility.yul\":11984:11986   */\n      0x20\n        /* \"#utility.yul\":12010:12060   */\n      tag_405\n        /* \"#utility.yul\":12052:12059   */\n      dup6\n        /* \"#utility.yul\":12043:12049   */\n      dup3\n        /* \"#utility.yul\":12032:12041   */\n      dup7\n        /* \"#utility.yul\":12028:12050   */\n      add\n        /* \"#utility.yul\":12010:12060   */\n      tag_250\n      jump\t// in\n    tag_405:\n        /* \"#utility.yul\":12000:12060   */\n      swap2\n      pop\n        /* \"#utility.yul\":11955:12070   */\n      pop\n        /* \"#utility.yul\":11609:12077   */\n      swap3\n      pop\n      swap3\n      swap1\n      pop\n      jump\t// out\n        /* \"#utility.yul\":12083:12226   */\n    tag_251:\n        /* \"#utility.yul\":12140:12145   */\n      0x00\n        /* \"#utility.yul\":12171:12177   */\n      dup2\n        /* \"#utility.yul\":12165:12178   */\n      mload\n        /* \"#utility.yul\":12156:12178   */\n      swap1\n      pop\n        /* \"#utility.yul\":12187:12220   */\n      tag_407\n        /* \"#utility.yul\":12214:12219   */\n      dup2\n        /* \"#utility.yul\":12187:12220   */\n      tag_217\n      jump\t// in\n    tag_407:\n        /* \"#utility.yul\":12083:12226   */\n      swap3\n      swap2\n      pop\n      pop\n      jump\t// out\n        /* \"#utility.yul\":12232:12583   */\n    tag_127:\n        /* \"#utility.yul\":12302:12308   */\n      0x00\n        /* \"#utility.yul\":12351:12353   */\n      0x20\n        /* \"#utility.yul\":12339:12348   */\n      dup3\n        /* \"#utility.yul\":12330:12337   */\n      dup5\n        /* \"#utility.yul\":12326:12349   */\n      sub\n        /* \"#utility.yul\":12322:12354   */\n      slt\n        /* \"#utility.yul\":12319:12438   */\n      iszero\n      tag_409\n      jumpi\n        /* \"#utility.yul\":12357:12436   */\n      tag_410\n      tag_214\n      jump\t// in\n    tag_410:\n        /* \"#utility.yul\":12319:12438   */\n    tag_409:\n        /* \"#utility.yul\":12477:12478   */\n      0x00\n        /* \"#utility.yul\":12502:12566   */\n      tag_411\n        /* \"#utility.yul\":12558:12565   */\n      dup5\n        /* \"#utility.yul\":12549:12555   */\n      dup3\n        /* \"#utility.yul\":12538:12547   */\n      dup6\n        /* \"#utility.yul\":12534:12556   */\n      add\n        /* \"#utility.yul\":12502:12566   */\n      tag_251\n      jump\t// in\n    tag_411:\n        /* \"#utility.yul\":12492:12566   */\n      swap2\n      pop\n        /* \"#utility.yul\":12448:12576   */\n      pop\n        /* \"#utility.yul\":12232:12583   */\n      swap3\n      swap2\n      pop\n      pop\n      jump\t// out\n        /* \"#utility.yul\":12589:12758   */\n    tag_252:\n        /* \"#utility.yul\":12673:12684   */\n      0x00\n        /* \"#utility.yul\":12707:12713   */\n      dup3\n        /* \"#utility.yul\":12702:12705   */\n      dup3\n        /* \"#utility.yul\":12695:12714   */\n      mstore\n        /* \"#utility.yul\":12747:12751   */\n      0x20\n        /* \"#utility.yul\":12742:12745   */\n      dup3\n        /* \"#utility.yul\":12738:12752   */\n      add\n        /* \"#utility.yul\":12723:12752   */\n      swap1\n      pop\n        /* \"#utility.yul\":12589:12758   */\n      swap3\n      swap2\n      pop\n      pop\n      jump\t// out\n        /* \"#utility.yul\":12764:13053   */\n    tag_253:\n        /* \"#utility.yul\":12904:12938   */\n      0x596f75206861766520746f207061792066656520746f2075736520536e697065\n        /* \"#utility.yul\":12900:12901   */\n      0x00\n        /* \"#utility.yul\":12892:12898   */\n      dup3\n        /* \"#utility.yul\":12888:12902   */\n      add\n        /* \"#utility.yul\":12881:12939   */\n      mstore\n        /* \"#utility.yul\":12973:13007   */\n      0x46696e616e636520546f6b656e204d756c74692062756c6b2066756e6374696f\n        /* \"#utility.yul\":12968:12970   */\n      0x20\n        /* \"#utility.yul\":12960:12966   */\n      dup3\n        /* \"#utility.yul\":12956:12971   */\n      add\n        /* \"#utility.yul\":12949:13008   */\n      mstore\n        /* \"#utility.yul\":13042:13045   */\n      0x6e00000000000000000000000000000000000000000000000000000000000000\n        /* \"#utility.yul\":13037:13039   */\n      0x40\n        /* \"#utility.yul\":13029:13035   */\n      dup3\n        /* \"#utility.yul\":13025:13040   */\n      add\n        /* \"#utility.yul\":13018:13046   */\n      mstore\n        /* \"#utility.yul\":12764:13053   */\n      pop\n      jump\t// out\n        /* \"#utility.yul\":13059:13425   */\n    tag_254:\n        /* \"#utility.yul\":13201:13204   */\n      0x00\n        /* \"#utility.yul\":13222:13289   */\n      tag_415\n        /* \"#utility.yul\":13286:13288   */\n      0x41\n        /* \"#utility.yul\":13281:13284   */\n      dup4\n        /* \"#utility.yul\":13222:13289   */\n      tag_252\n      jump\t// in\n    tag_415:\n        /* \"#utility.yul\":13215:13289   */\n      swap2\n      pop\n        /* \"#utility.yul\":13298:13391   */\n      tag_416\n        /* \"#utility.yul\":13387:13390   */\n      dup3\n        /* \"#utility.yul\":13298:13391   */\n      tag_253\n      jump\t// in\n    tag_416:\n        /* \"#utility.yul\":13416:13418   */\n      0x60\n        /* \"#utility.yul\":13411:13414   */\n      dup3\n        /* \"#utility.yul\":13407:13419   */\n      add\n        /* \"#utility.yul\":13400:13419   */\n      swap1\n      pop\n        /* \"#utility.yul\":13059:13425   */\n      swap2\n      swap1\n      pop\n      jump\t// out\n        /* \"#utility.yul\":13431:13850   */\n    tag_131:\n        /* \"#utility.yul\":13597:13601   */\n      0x00\n        /* \"#utility.yul\":13635:13637   */\n      0x20\n        /* \"#utility.yul\":13624:13633   */\n      dup3\n        /* \"#utility.yul\":13620:13638   */\n      add\n        /* \"#utility.yul\":13612:13638   */\n      swap1\n      pop\n        /* \"#utility.yul\":13684:13693   */\n      dup2\n        /* \"#utility.yul\":13678:13682   */\n      dup2\n        /* \"#utility.yul\":13674:13694   */\n      sub\n        /* \"#utility.yul\":13670:13671   */\n      0x00\n        /* \"#utility.yul\":13659:13668   */\n      dup4\n        /* \"#utility.yul\":13655:13672   */\n      add\n        /* \"#utility.yul\":13648:13695   */\n      mstore\n        /* \"#utility.yul\":13712:13843   */\n      tag_418\n        /* \"#utility.yul\":13838:13842   */\n      dup2\n        /* \"#utility.yul\":13712:13843   */\n      tag_254\n      jump\t// in\n    tag_418:\n        /* \"#utility.yul\":13704:13843   */\n      swap1\n      pop\n        /* \"#utility.yul\":13431:13850   */\n      swap2\n      swap1\n      pop\n      jump\t// out\n        /* \"#utility.yul\":13856:14036   */\n    tag_255:\n        /* \"#utility.yul\":13904:13981   */\n      0x4e487b7100000000000000000000000000000000000000000000000000000000\n        /* \"#utility.yul\":13901:13902   */\n      0x00\n        /* \"#utility.yul\":13894:13982   */\n      mstore\n        /* \"#utility.yul\":14001:14005   */\n      0x11\n        /* \"#utility.yul\":13998:13999   */\n      0x04\n        /* \"#utility.yul\":13991:14006   */\n      mstore\n        /* \"#utility.yul\":14025:14029   */\n      0x24\n        /* \"#utility.yul\":14022:14023   */\n      0x00\n        /* \"#utility.yul\":14015:14030   */\n      revert\n        /* \"#utility.yul\":14042:14233   */\n    tag_133:\n        /* \"#utility.yul\":14082:14085   */\n      0x00\n        /* \"#utility.yul\":14101:14121   */\n      tag_421\n        /* \"#utility.yul\":14119:14120   */\n      dup3\n        /* \"#utility.yul\":14101:14121   */\n      tag_216\n      jump\t// in\n    tag_421:\n        /* \"#utility.yul\":14096:14121   */\n      swap2\n      pop\n        /* \"#utility.yul\":14135:14155   */\n      tag_422\n        /* \"#utility.yul\":14153:14154   */\n      dup4\n        /* \"#utility.yul\":14135:14155   */\n      tag_216\n      jump\t// in\n    tag_422:\n        /* \"#utility.yul\":14130:14155   */\n      swap3\n      pop\n        /* \"#utility.yul\":14178:14179   */\n      dup3\n        /* \"#utility.yul\":14175:14176   */\n      dup3\n        /* \"#utility.yul\":14171:14180   */\n      add\n        /* \"#utility.yul\":14164:14180   */\n      swap1\n      pop\n        /* \"#utility.yul\":14199:14202   */\n      dup1\n        /* \"#utility.yul\":14196:14197   */\n      dup3\n        /* \"#utility.yul\":14193:14203   */\n      gt\n        /* \"#utility.yul\":14190:14226   */\n      iszero\n      tag_423\n      jumpi\n        /* \"#utility.yul\":14206:14224   */\n      tag_424\n      tag_255\n      jump\t// in\n    tag_424:\n        /* \"#utility.yul\":14190:14226   */\n    tag_423:\n        /* \"#utility.yul\":14042:14233   */\n      swap3\n      swap2\n      pop\n      pop\n      jump\t// out\n        /* \"#utility.yul\":14239:14419   */\n    tag_141:\n        /* \"#utility.yul\":14287:14364   */\n      0x4e487b7100000000000000000000000000000000000000000000000000000000\n        /* \"#utility.yul\":14284:14285   */\n      0x00\n        /* \"#utility.yul\":14277:14365   */\n      mstore\n        /* \"#utility.yul\":14384:14388   */\n      0x32\n        /* \"#utility.yul\":14381:14382   */\n      0x04\n        /* \"#utility.yul\":14374:14389   */\n      mstore\n        /* \"#utility.yul\":14408:14412   */\n      0x24\n        /* \"#utility.yul\":14405:14406   */\n      0x00\n        /* \"#utility.yul\":14398:14413   */\n      revert\n        /* \"#utility.yul\":14425:14658   */\n    tag_144:\n        /* \"#utility.yul\":14464:14467   */\n      0x00\n        /* \"#utility.yul\":14487:14511   */\n      tag_427\n        /* \"#utility.yul\":14505:14510   */\n      dup3\n        /* \"#utility.yul\":14487:14511   */\n      tag_216\n      jump\t// in\n    tag_427:\n        /* \"#utility.yul\":14478:14511   */\n      swap2\n      pop\n        /* \"#utility.yul\":14533:14599   */\n      0xffffffffffffffffffffffffffffffffffffffffffffffffffffffffffffffff\n        /* \"#utility.yul\":14526:14531   */\n      dup3\n        /* \"#utility.yul\":14523:14600   */\n      sub\n        /* \"#utility.yul\":14520:14623   */\n      tag_428\n      jumpi\n        /* \"#utility.yul\":14603:14621   */\n      tag_429\n      tag_255\n      jump\t// in\n    tag_429:\n        /* \"#utility.yul\":14520:14623   */\n    tag_428:\n        /* \"#utility.yul\":14650:14651   */\n      0x01\n        /* \"#utility.yul\":14643:14648   */\n      dup3\n        /* \"#utility.yul\":14639:14652   */\n      add\n        /* \"#utility.yul\":14632:14652   */\n      swap1\n      pop\n        /* \"#utility.yul\":14425:14658   */\n      swap2\n      swap1\n      pop\n      jump\t// out\n        /* \"#utility.yul\":14664:15106   */\n    tag_146:\n        /* \"#utility.yul\":14813:14817   */\n      0x00\n        /* \"#utility.yul\":14851:14853   */\n      0x60\n        /* \"#utility.yul\":14840:14849   */\n      dup3\n        /* \"#utility.yul\":14836:14854   */\n      add\n        /* \"#utility.yul\":14828:14854   */\n      swap1\n      pop\n        /* \"#utility.yul\":14864:14935   */\n      tag_431\n        /* \"#utility.yul\":14932:14933   */\n      0x00\n        /* \"#utility.yul\":14921:14930   */\n      dup4\n        /* \"#utility.yul\":14917:14934   */\n      add\n        /* \"#utility.yul\":14908:14914   */\n      dup7\n        /* \"#utility.yul\":14864:14935   */\n      tag_234\n      jump\t// in\n    tag_431:\n        /* \"#utility.yul\":14945:15017   */\n      tag_432\n        /* \"#utility.yul\":15013:15015   */\n      0x20\n        /* \"#utility.yul\":15002:15011   */\n      dup4\n        /* \"#utility.yul\":14998:15016   */\n      add\n        /* \"#utility.yul\":14989:14995   */\n      dup6\n        /* \"#utility.yul\":14945:15017   */\n      tag_234\n      jump\t// in\n    tag_432:\n        /* \"#utility.yul\":15027:15099   */\n      tag_433\n        /* \"#utility.yul\":15095:15097   */\n      0x40\n        /* \"#utility.yul\":15084:15093   */\n      dup4\n        /* \"#utility.yul\":15080:15098   */\n      add\n        /* \"#utility.yul\":15071:15077   */\n      dup5\n        /* \"#utility.yul\":15027:15099   */\n      tag_223\n      jump\t// in\n    tag_433:\n        /* \"#utility.yul\":14664:15106   */\n      swap5\n      swap4\n      pop\n      pop\n      pop\n      pop\n      jump\t// out\n        /* \"#utility.yul\":15112:15249   */\n    tag_256:\n        /* \"#utility.yul\":15166:15171   */\n      0x00\n        /* \"#utility.yul\":15197:15203   */\n      dup2\n        /* \"#utility.yul\":15191:15204   */\n      mload\n        /* \"#utility.yul\":15182:15204   */\n      swap1\n      pop\n        /* \"#utility.yul\":15213:15243   */\n      tag_435\n        /* \"#utility.yul\":15237:15242   */\n      dup2\n        /* \"#utility.yul\":15213:15243   */\n      tag_249\n      jump\t// in\n    tag_435:\n        /* \"#utility.yul\":15112:15249   */\n      swap3\n      swap2\n      pop\n      pop\n      jump\t// out\n        /* \"#utility.yul\":15255:15600   */\n    tag_150:\n        /* \"#utility.yul\":15322:15328   */\n      0x00\n        /* \"#utility.yul\":15371:15373   */\n      0x20\n        /* \"#utility.yul\":15359:15368   */\n      dup3\n        /* \"#utility.yul\":15350:15357   */\n      dup5\n        /* \"#utility.yul\":15346:15369   */\n      sub\n        /* \"#utility.yul\":15342:15374   */\n      slt\n        /* \"#utility.yul\":15339:15458   */\n      iszero\n      tag_437\n      jumpi\n        /* \"#utility.yul\":15377:15456   */\n      tag_438\n      tag_214\n      jump\t// in\n    tag_438:\n        /* \"#utility.yul\":15339:15458   */\n    tag_437:\n        /* \"#utility.yul\":15497:15498   */\n      0x00\n        /* \"#utility.yul\":15522:15583   */\n      tag_439\n        /* \"#utility.yul\":15575:15582   */\n      dup5\n        /* \"#utility.yul\":15566:15572   */\n      dup3\n        /* \"#utility.yul\":15555:15564   */\n      dup6\n        /* \"#utility.yul\":15551:15573   */\n      add\n        /* \"#utility.yul\":15522:15583   */\n      tag_256\n      jump\t// in\n    tag_439:\n        /* \"#utility.yul\":15512:15583   */\n      swap2\n      pop\n        /* \"#utility.yul\":15468:15593   */\n      pop\n        /* \"#utility.yul\":15255:15600   */\n      swap3\n      swap2\n      pop\n      pop\n      jump\t// out\n        /* \"#utility.yul\":15606:15938   */\n    tag_160:\n        /* \"#utility.yul\":15727:15731   */\n      0x00\n        /* \"#utility.yul\":15765:15767   */\n      0x40\n        /* \"#utility.yul\":15754:15763   */\n      dup3\n        /* \"#utility.yul\":15750:15768   */\n      add\n        /* \"#utility.yul\":15742:15768   */\n      swap1\n      pop\n        /* \"#utility.yul\":15778:15849   */\n      tag_441\n        /* \"#utility.yul\":15846:15847   */\n      0x00\n        /* \"#utility.yul\":15835:15844   */\n      dup4\n        /* \"#utility.yul\":15831:15848   */\n      add\n        /* \"#utility.yul\":15822:15828   */\n      dup6\n        /* \"#utility.yul\":15778:15849   */\n      tag_234\n      jump\t// in\n    tag_441:\n        /* \"#utility.yul\":15859:15931   */\n      tag_442\n        /* \"#utility.yul\":15927:15929   */\n      0x20\n        /* \"#utility.yul\":15916:15925   */\n      dup4\n        /* \"#utility.yul\":15912:15930   */\n      add\n        /* \"#utility.yul\":15903:15909   */\n      dup5\n        /* \"#utility.yul\":15859:15931   */\n      tag_223\n      jump\t// in\n    tag_442:\n        /* \"#utility.yul\":15606:15938   */\n      swap4\n      swap3\n      pop\n      pop\n      pop\n      jump\t// out\n        /* \"#utility.yul\":15944:16190   */\n    tag_257:\n        /* \"#utility.yul\":16084:16118   */\n      0x596f75206861766520746f207061792066656520746f2075736520536e697065\n        /* \"#utility.yul\":16080:16081   */\n      0x00\n        /* \"#utility.yul\":16072:16078   */\n      dup3\n        /* \"#utility.yul\":16068:16082   */\n      add\n        /* \"#utility.yul\":16061:16119   */\n      mstore\n        /* \"#utility.yul\":16153:16182   */\n      0x46696e616e6365204d756c74692062756c6b2066756e6374696f6e0000000000\n        /* \"#utility.yul\":16148:16150   */\n      0x20\n        /* \"#utility.yul\":16140:16146   */\n      dup3\n        /* \"#utility.yul\":16136:16151   */\n      add\n        /* \"#utility.yul\":16129:16183   */\n      mstore\n        /* \"#utility.yul\":15944:16190   */\n      pop\n      jump\t// out\n        /* \"#utility.yul\":16196:16562   */\n    tag_258:\n        /* \"#utility.yul\":16338:16341   */\n      0x00\n        /* \"#utility.yul\":16359:16426   */\n      tag_445\n        /* \"#utility.yul\":16423:16425   */\n      0x3b\n        /* \"#utility.yul\":16418:16421   */\n      dup4\n        /* \"#utility.yul\":16359:16426   */\n      tag_252\n      jump\t// in\n    tag_445:\n        /* \"#utility.yul\":16352:16426   */\n      swap2\n      pop\n        /* \"#utility.yul\":16435:16528   */\n      tag_446\n        /* \"#utility.yul\":16524:16527   */\n      dup3\n        /* \"#utility.yul\":16435:16528   */\n      tag_257\n      jump\t// in\n    tag_446:\n        /* \"#utility.yul\":16553:16555   */\n      0x40\n        /* \"#utility.yul\":16548:16551   */\n      dup3\n        /* \"#utility.yul\":16544:16556   */\n      add\n        /* \"#utility.yul\":16537:16556   */\n      swap1\n      pop\n        /* \"#utility.yul\":16196:16562   */\n      swap2\n      swap1\n      pop\n      jump\t// out\n        /* \"#utility.yul\":16568:16987   */\n    tag_176:\n        /* \"#utility.yul\":16734:16738   */\n      0x00\n        /* \"#utility.yul\":16772:16774   */\n      0x20\n        /* \"#utility.yul\":16761:16770   */\n      dup3\n        /* \"#utility.yul\":16757:16775   */\n      add\n        /* \"#utility.yul\":16749:16775   */\n      swap1\n      pop\n        /* \"#utility.yul\":16821:16830   */\n      dup2\n        /* \"#utility.yul\":16815:16819   */\n      dup2\n        /* \"#utility.yul\":16811:16831   */\n      sub\n        /* \"#utility.yul\":16807:16808   */\n      0x00\n        /* \"#utility.yul\":16796:16805   */\n      dup4\n        /* \"#utility.yul\":16792:16809   */\n      add\n        /* \"#utility.yul\":16785:16832   */\n      mstore\n        /* \"#utility.yul\":16849:16980   */\n      tag_448\n        /* \"#utility.yul\":16975:16979   */\n      dup2\n        /* \"#utility.yul\":16849:16980   */\n      tag_258\n      jump\t// in\n    tag_448:\n        /* \"#utility.yul\":16841:16980   */\n      swap1\n      pop\n        /* \"#utility.yul\":16568:16987   */\n      swap2\n      swap1\n      pop\n      jump\t// out\n        /* \"#utility.yul\":16993:17218   */\n    tag_259:\n        /* \"#utility.yul\":17133:17167   */\n      0x4f776e61626c653a206e6577206f776e657220697320746865207a65726f2061\n        /* \"#utility.yul\":17129:17130   */\n      0x00\n        /* \"#utility.yul\":17121:17127   */\n      dup3\n        /* \"#utility.yul\":17117:17131   */\n      add\n        /* \"#utility.yul\":17110:17168   */\n      mstore\n        /* \"#utility.yul\":17202:17210   */\n      0x6464726573730000000000000000000000000000000000000000000000000000\n        /* \"#utility.yul\":17197:17199   */\n      0x20\n        /* \"#utility.yul\":17189:17195   */\n      dup3\n        /* \"#utility.yul\":17185:17200   */\n      add\n        /* \"#utility.yul\":17178:17211   */\n      mstore\n        /* \"#utility.yul\":16993:17218   */\n      pop\n      jump\t// out\n        /* \"#utility.yul\":17224:17590   */\n    tag_260:\n        /* \"#utility.yul\":17366:17369   */\n      0x00\n        /* \"#utility.yul\":17387:17454   */\n      tag_451\n        /* \"#utility.yul\":17451:17453   */\n      0x26\n        /* \"#utility.yul\":17446:17449   */\n      dup4\n        /* \"#utility.yul\":17387:17454   */\n      tag_252\n      jump\t// in\n    tag_451:\n        /* \"#utility.yul\":17380:17454   */\n      swap2\n      pop\n        /* \"#utility.yul\":17463:17556   */\n      tag_452\n        /* \"#utility.yul\":17552:17555   */\n      dup3\n        /* \"#utility.yul\":17463:17556   */\n      tag_259\n      jump\t// in\n    tag_452:\n        /* \"#utility.yul\":17581:17583   */\n      0x40\n        /* \"#utility.yul\":17576:17579   */\n      dup3\n        /* \"#utility.yul\":17572:17584   */\n      add\n        /* \"#utility.yul\":17565:17584   */\n      swap1\n      pop\n        /* \"#utility.yul\":17224:17590   */\n      swap2\n      swap1\n      pop\n      jump\t// out\n        /* \"#utility.yul\":17596:18015   */\n    tag_198:\n        /* \"#utility.yul\":17762:17766   */\n      0x00\n        /* \"#utility.yul\":17800:17802   */\n      0x20\n        /* \"#utility.yul\":17789:17798   */\n      dup3\n        /* \"#utility.yul\":17785:17803   */\n      add\n        /* \"#utility.yul\":17777:17803   */\n      swap1\n      pop\n        /* \"#utility.yul\":17849:17858   */\n      dup2\n        /* \"#utility.yul\":17843:17847   */\n      dup2\n        /* \"#utility.yul\":17839:17859   */\n      sub\n        /* \"#utility.yul\":17835:17836   */\n      0x00\n        /* \"#utility.yul\":17824:17833   */\n      dup4\n        /* \"#utility.yul\":17820:17837   */\n      add\n        /* \"#utility.yul\":17813:17860   */\n      mstore\n        /* \"#utility.yul\":17877:18008   */\n      tag_454\n        /* \"#utility.yul\":18003:18007   */\n      dup2\n        /* \"#utility.yul\":17877:18008   */\n      tag_260\n      jump\t// in\n    tag_454:\n        /* \"#utility.yul\":17869:18008   */\n      swap1\n      pop\n        /* \"#utility.yul\":17596:18015   */\n      swap2\n      swap1\n      pop\n      jump\t// out\n        /* \"#utility.yul\":18021:18203   */\n    tag_261:\n        /* \"#utility.yul\":18161:18195   */\n      0x4f776e61626c653a2063616c6c6572206973206e6f7420746865206f776e6572\n        /* \"#utility.yul\":18157:18158   */\n      0x00\n        /* \"#utility.yul\":18149:18155   */\n      dup3\n        /* \"#utility.yul\":18145:18159   */\n      add\n        /* \"#utility.yul\":18138:18196   */\n      mstore\n        /* \"#utility.yul\":18021:18203   */\n      pop\n      jump\t// out\n        /* \"#utility.yul\":18209:18575   */\n    tag_262:\n        /* \"#utility.yul\":18351:18354   */\n      0x00\n        /* \"#utility.yul\":18372:18439   */\n      tag_457\n        /* \"#utility.yul\":18436:18438   */\n      0x20\n        /* \"#utility.yul\":18431:18434   */\n      dup4\n        /* \"#utility.yul\":18372:18439   */\n      tag_252\n      jump\t// in\n    tag_457:\n        /* \"#utility.yul\":18365:18439   */\n      swap2\n      pop\n        /* \"#utility.yul\":18448:18541   */\n      tag_458\n        /* \"#utility.yul\":18537:18540   */\n      dup3\n        /* \"#utility.yul\":18448:18541   */\n      tag_261\n      jump\t// in\n    tag_458:\n        /* \"#utility.yul\":18566:18568   */\n      0x20\n        /* \"#utility.yul\":18561:18564   */\n      dup3\n        /* \"#utility.yul\":18557:18569   */\n      add\n        /* \"#utility.yul\":18550:18569   */\n      swap1\n      pop\n        /* \"#utility.yul\":18209:18575   */\n      swap2\n      swap1\n      pop\n      jump\t// out\n        /* \"#utility.yul\":18581:19000   */\n    tag_210:\n        /* \"#utility.yul\":18747:18751   */\n      0x00\n        /* \"#utility.yul\":18785:18787   */\n      0x20\n        /* \"#utility.yul\":18774:18783   */\n      dup3\n        /* \"#utility.yul\":18770:18788   */\n      add\n        /* \"#utility.yul\":18762:18788   */\n      swap1\n      pop\n        /* \"#utility.yul\":18834:18843   */\n      dup2\n        /* \"#utility.yul\":18828:18832   */\n      dup2\n        /* \"#utility.yul\":18824:18844   */\n      sub\n        /* \"#utility.yul\":18820:18821   */\n      0x00\n        /* \"#utility.yul\":18809:18818   */\n      dup4\n        /* \"#utility.yul\":18805:18822   */\n      add\n        /* \"#utility.yul\":18798:18845   */\n      mstore\n        /* \"#utility.yul\":18862:18993   */\n      tag_460\n        /* \"#utility.yul\":18988:18992   */\n      dup2\n        /* \"#utility.yul\":18862:18993   */\n      tag_262\n      jump\t// in\n    tag_460:\n        /* \"#utility.yul\":18854:18993   */\n      swap1\n      pop\n        /* \"#utility.yul\":18581:19000   */\n      swap2\n      swap1\n      pop\n      jump\t// out\n\n    auxdata: 0xa2646970667358221220afe3e4ee6cd61a2467063738441ecf2f2ca1a7cb66c7a32005df9375b879279264736f6c63430008100033\n}\n",
				"bytecode": {
					"linkReferences": {},
					"object": "608060405234801561001057600080fd5b5061002d61002261008d60201b60201c565b61009560201b60201c565b61003b61015960201b60201c565b600260006101000a81548173ffffffffffffffffffffffffffffffffffffffff021916908373ffffffffffffffffffffffffffffffffffffffff160217905550655af3107a4000600181905550610182565b600033905090565b60008060009054906101000a900473ffffffffffffffffffffffffffffffffffffffff169050816000806101000a81548173ffffffffffffffffffffffffffffffffffffffff021916908373ffffffffffffffffffffffffffffffffffffffff1602179055508173ffffffffffffffffffffffffffffffffffffffff168173ffffffffffffffffffffffffffffffffffffffff167f8be0079c531659141344cd1fd0a4f28419497f9722a3daafe3b4186f6b6457e060405160405180910390a35050565b60008060009054906101000a900473ffffffffffffffffffffffffffffffffffffffff16905090565b611990806101916000396000f3fe6080604052600436106100fe5760003560e01c80638da5cb5b11610095578063ddca3f4311610064578063ddca3f43146102ee578063e3cec84914610319578063f2fde38b14610335578063f7260d3e1461035e578063fb520af214610389576100fe565b80638da5cb5b1461023f5780639c8b9e7b1461026a5780639cbd343314610295578063a4df0256146102b1576100fe565b80633feff76d116100d15780633feff76d1461019757806344b6209d146101c25780634b4fb1b0146101ff578063715018a614610228576100fe565b8063126ccd941461010357806317fc45e21461012c5780632fc75eb0146101575780633ccfd60b14610180575b600080fd5b34801561010f57600080fd5b5061012a60048036038101906101259190610f8d565b6103b2565b005b34801561013857600080fd5b50610141610406565b60405161014e9190610fdc565b60405180910390f35b34801561016357600080fd5b5061017e60048036038101906101799190611035565b61040c565b005b34801561018c57600080fd5b50610195610460565b005b3480156101a357600080fd5b506101ac6104bf565b6040516101b991906110d4565b60405180910390f35b3480156101ce57600080fd5b506101e960048036038101906101e491906110ef565b6104e5565b6040516101f69190611137565b60405180910390f35b34801561020b57600080fd5b50610226600480360381019061022191906110ef565b610505565b005b34801561023457600080fd5b5061023d610568565b005b34801561024b57600080fd5b5061025461057c565b6040516102619190611161565b60405180910390f35b34801561027657600080fd5b5061027f6105a5565b60405161028c9190610fdc565b60405180910390f35b6102af60048036038101906102aa9190611398565b6105ab565b005b3480156102bd57600080fd5b506102d860048036038101906102d391906110ef565b610924565b6040516102e59190611137565b60405180910390f35b3480156102fa57600080fd5b5061030361097a565b6040516103109190610fdc565b60405180910390f35b610333600480360381019061032e9190611423565b610980565b005b34801561034157600080fd5b5061035c600480360381019061035791906110ef565b610c3c565b005b34801561036a57600080fd5b50610373610cbf565b60405161038091906114bc565b60405180910390f35b34801561039557600080fd5b506103b060048036038101906103ab9190611503565b610ce5565b005b6103ba610d9b565b8160018190555080600260006101000a81548173ffffffffffffffffffffffffffffffffffffffff021916908373ffffffffffffffffffffffffffffffffffffffff1602179055505050565b60065481565b610414610d9b565b81600560006101000a81548173ffffffffffffffffffffffffffffffffffffffff021916908373ffffffffffffffffffffffffffffffffffffffff160217905550806006819055505050565b610468610d9b565b600060035411156104bd573373ffffffffffffffffffffffffffffffffffffffff166108fc6003549081150290604051600060405180830381858888f193505050501580156104bb573d6000803e3d6000fd5b505b565b600560009054906101000a900473ffffffffffffffffffffffffffffffffffffffff1681565b60046020528060005260406000206000915054906101000a900460ff1681565b61050d610d9b565b6001600460008373ffffffffffffffffffffffffffffffffffffffff1673ffffffffffffffffffffffffffffffffffffffff16815260200190815260200160002060006101000a81548160ff02191690831515021790555050565b610570610d9b565b61057a6000610e19565b565b60008060009054906101000a900473ffffffffffffffffffffffffffffffffffffffff16905090565b60035481565b600460003373ffffffffffffffffffffffffffffffffffffffff1673ffffffffffffffffffffffffffffffffffffffff16815260200190815260200160002060009054906101000a900460ff1615806106a05750600654600560009054906101000a900473ffffffffffffffffffffffffffffffffffffffff1673ffffffffffffffffffffffffffffffffffffffff166370a08231336040518263ffffffff1660e01b815260040161065d9190611161565b602060405180830381865afa15801561067a573d6000803e3d6000fd5b505050506040513d601f19601f8201168201806040525081019061069e9190611558565b105b15610771576001543410156106ea576040517f08c379a00000000000000000000000000000000000000000000000000000000081526004016106e19061162e565b60405180910390fd5b600154600360008282546106fe919061167d565b92505081905550600260009054906101000a900473ffffffffffffffffffffffffffffffffffffffff1673ffffffffffffffffffffffffffffffffffffffff166108fc6001549081150290604051600060405180830381858888f1935050505015801561076f573d6000803e3d6000fd5b505b6000805b83518110156107b957828181518110610791576107906116b1565b5b6020026020010151826107a4919061167d565b915080806107b1906116e0565b915050610775565b508373ffffffffffffffffffffffffffffffffffffffff166323b872dd3330846040518463ffffffff1660e01b81526004016107f793929190611728565b6020604051808303816000875af1158015610816573d6000803e3d6000fd5b505050506040513d601f19601f8201168201806040525081019061083a9190611774565b61084357600080fd5b60005b835181101561091d578473ffffffffffffffffffffffffffffffffffffffff1663a9059cbb85838151811061087e5761087d6116b1565b5b6020026020010151858481518110610899576108986116b1565b5b60200260200101516040518363ffffffff1660e01b81526004016108be9291906117a1565b6020604051808303816000875af11580156108dd573d6000803e3d6000fd5b505050506040513d601f19601f820116820180604052508101906109019190611774565b61090a57600080fd5b8080610915906116e0565b915050610846565b5050505050565b6000600460008373ffffffffffffffffffffffffffffffffffffffff1673ffffffffffffffffffffffffffffffffffffffff16815260200190815260200160002060009054906101000a900460ff169050919050565b60015481565b600460003373ffffffffffffffffffffffffffffffffffffffff1673ffffffffffffffffffffffffffffffffffffffff16815260200190815260200160002060009054906101000a900460ff161580610a755750600654600560009054906101000a900473ffffffffffffffffffffffffffffffffffffffff1673ffffffffffffffffffffffffffffffffffffffff166370a08231336040518263ffffffff1660e01b8152600401610a329190611161565b602060405180830381865afa158015610a4f573d6000803e3d6000fd5b505050506040513d601f19601f82011682018060405250810190610a739190611558565b105b15610b4657600154341015610abf576040517f08c379a0000000000000000000000000000000000000000000000000000000008152600401610ab69061183c565b60405180910390fd5b60015460036000828254610ad3919061167d565b92505081905550600260009054906101000a900473ffffffffffffffffffffffffffffffffffffffff1673ffffffffffffffffffffffffffffffffffffffff166108fc6001549081150290604051600060405180830381858888f19350505050158015610b44573d6000803e3d6000fd5b505b60005b8251811015610be057828181518110610b6557610b646116b1565b5b602002602001015173ffffffffffffffffffffffffffffffffffffffff166108fc838381518110610b9957610b986116b1565b5b60200260200101519081150290604051600060405180830381858888f19350505050158015610bcc573d6000803e3d6000fd5b508080610bd8906116e0565b915050610b49565b5060004790506000811115610c37573373ffffffffffffffffffffffffffffffffffffffff166108fc829081150290604051600060405180830381858888f19350505050158015610c35573d6000803e3d6000fd5b505b505050565b610c44610d9b565b600073ffffffffffffffffffffffffffffffffffffffff168173ffffffffffffffffffffffffffffffffffffffff1603610cb3576040517f08c379a0000000000000000000000000000000000000000000000000000000008152600401610caa906118ce565b60405180910390fd5b610cbc81610e19565b50565b600260009054906101000a900473ffffffffffffffffffffffffffffffffffffffff1681565b610ced610d9b565b600460008373ffffffffffffffffffffffffffffffffffffffff1673ffffffffffffffffffffffffffffffffffffffff16815260200190815260200160002060009054906101000a900460ff1615610d975780600460008473ffffffffffffffffffffffffffffffffffffffff1673ffffffffffffffffffffffffffffffffffffffff16815260200190815260200160002060006101000a81548160ff0219169083151502179055505b5050565b610da3610edd565b73ffffffffffffffffffffffffffffffffffffffff16610dc161057c565b73ffffffffffffffffffffffffffffffffffffffff1614610e17576040517f08c379a0000000000000000000000000000000000000000000000000000000008152600401610e0e9061193a565b60405180910390fd5b565b60008060009054906101000a900473ffffffffffffffffffffffffffffffffffffffff169050816000806101000a81548173ffffffffffffffffffffffffffffffffffffffff021916908373ffffffffffffffffffffffffffffffffffffffff1602179055508173ffffffffffffffffffffffffffffffffffffffff168173ffffffffffffffffffffffffffffffffffffffff167f8be0079c531659141344cd1fd0a4f28419497f9722a3daafe3b4186f6b6457e060405160405180910390a35050565b600033905090565b6000604051905090565b600080fd5b600080fd5b6000819050919050565b610f0c81610ef9565b8114610f1757600080fd5b50565b600081359050610f2981610f03565b92915050565b600073ffffffffffffffffffffffffffffffffffffffff82169050919050565b6000610f5a82610f2f565b9050919050565b610f6a81610f4f565b8114610f7557600080fd5b50565b600081359050610f8781610f61565b92915050565b60008060408385031215610fa457610fa3610eef565b5b6000610fb285828601610f1a565b9250506020610fc385828601610f78565b9150509250929050565b610fd681610ef9565b82525050565b6000602082019050610ff16000830184610fcd565b92915050565b600061100282610f4f565b9050919050565b61101281610ff7565b811461101d57600080fd5b50565b60008135905061102f81611009565b92915050565b6000806040838503121561104c5761104b610eef565b5b600061105a85828601611020565b925050602061106b85828601610f1a565b9150509250929050565b6000819050919050565b600061109a61109561109084610f2f565b611075565b610f2f565b9050919050565b60006110ac8261107f565b9050919050565b60006110be826110a1565b9050919050565b6110ce816110b3565b82525050565b60006020820190506110e960008301846110c5565b92915050565b60006020828403121561110557611104610eef565b5b600061111384828501610f78565b91505092915050565b60008115159050919050565b6111318161111c565b82525050565b600060208201905061114c6000830184611128565b92915050565b61115b81610f4f565b82525050565b60006020820190506111766000830184611152565b92915050565b600080fd5b6000601f19601f8301169050919050565b7f4e487b7100000000000000000000000000000000000000000000000000000000600052604160045260246000fd5b6111ca82611181565b810181811067ffffffffffffffff821117156111e9576111e8611192565b5b80604052505050565b60006111fc610ee5565b905061120882826111c1565b919050565b600067ffffffffffffffff82111561122857611227611192565b5b602082029050602081019050919050565b600080fd5b600061125161124c8461120d565b6111f2565b9050808382526020820190506020840283018581111561127457611273611239565b5b835b8181101561129d57806112898882610f78565b845260208401935050602081019050611276565b5050509392505050565b600082601f8301126112bc576112bb61117c565b5b81356112cc84826020860161123e565b91505092915050565b600067ffffffffffffffff8211156112f0576112ef611192565b5b602082029050602081019050919050565b600061131461130f846112d5565b6111f2565b9050808382526020820190506020840283018581111561133757611336611239565b5b835b81811015611360578061134c8882610f1a565b845260208401935050602081019050611339565b5050509392505050565b600082601f83011261137f5761137e61117c565b5b813561138f848260208601611301565b91505092915050565b6000806000606084860312156113b1576113b0610eef565b5b60006113bf86828701611020565b935050602084013567ffffffffffffffff8111156113e0576113df610ef4565b5b6113ec868287016112a7565b925050604084013567ffffffffffffffff81111561140d5761140c610ef4565b5b6114198682870161136a565b9150509250925092565b6000806040838503121561143a57611439610eef565b5b600083013567ffffffffffffffff81111561145857611457610ef4565b5b611464858286016112a7565b925050602083013567ffffffffffffffff81111561148557611484610ef4565b5b6114918582860161136a565b9150509250929050565b60006114a682610f2f565b9050919050565b6114b68161149b565b82525050565b60006020820190506114d160008301846114ad565b92915050565b6114e08161111c565b81146114eb57600080fd5b50565b6000813590506114fd816114d7565b92915050565b6000806040838503121561151a57611519610eef565b5b600061152885828601610f78565b9250506020611539858286016114ee565b9150509250929050565b60008151905061155281610f03565b92915050565b60006020828403121561156e5761156d610eef565b5b600061157c84828501611543565b91505092915050565b600082825260208201905092915050565b7f596f75206861766520746f207061792066656520746f2075736520536e69706560008201527f46696e616e636520546f6b656e204d756c74692062756c6b2066756e6374696f60208201527f6e00000000000000000000000000000000000000000000000000000000000000604082015250565b6000611618604183611585565b915061162382611596565b606082019050919050565b600060208201905081810360008301526116478161160b565b9050919050565b7f4e487b7100000000000000000000000000000000000000000000000000000000600052601160045260246000fd5b600061168882610ef9565b915061169383610ef9565b92508282019050808211156116ab576116aa61164e565b5b92915050565b7f4e487b7100000000000000000000000000000000000000000000000000000000600052603260045260246000fd5b60006116eb82610ef9565b91507fffffffffffffffffffffffffffffffffffffffffffffffffffffffffffffffff820361171d5761171c61164e565b5b600182019050919050565b600060608201905061173d6000830186611152565b61174a6020830185611152565b6117576040830184610fcd565b949350505050565b60008151905061176e816114d7565b92915050565b60006020828403121561178a57611789610eef565b5b60006117988482850161175f565b91505092915050565b60006040820190506117b66000830185611152565b6117c36020830184610fcd565b9392505050565b7f596f75206861766520746f207061792066656520746f2075736520536e69706560008201527f46696e616e6365204d756c74692062756c6b2066756e6374696f6e0000000000602082015250565b6000611826603b83611585565b9150611831826117ca565b604082019050919050565b6000602082019050818103600083015261185581611819565b9050919050565b7f4f776e61626c653a206e6577206f776e657220697320746865207a65726f206160008201527f6464726573730000000000000000000000000000000000000000000000000000602082015250565b60006118b8602683611585565b91506118c38261185c565b604082019050919050565b600060208201905081810360008301526118e7816118ab565b9050919050565b7f4f776e61626c653a2063616c6c6572206973206e6f7420746865206f776e6572600082015250565b6000611924602083611585565b915061192f826118ee565b602082019050919050565b6000602082019050818103600083015261195381611917565b905091905056fea2646970667358221220afe3e4ee6cd61a2467063738441ecf2f2ca1a7cb66c7a32005df9375b879279264736f6c63430008100033",
					"opcodes": "PUSH1 0x80 PUSH1 0x40 MSTORE CALLVALUE DUP1 ISZERO PUSH2 0x10 JUMPI PUSH1 0x0 DUP1 REVERT JUMPDEST POP PUSH2 0x2D PUSH2 0x22 PUSH2 0x8D PUSH1 0x20 SHL PUSH1 0x20 SHR JUMP JUMPDEST PUSH2 0x95 PUSH1 0x20 SHL PUSH1 0x20 SHR JUMP JUMPDEST PUSH2 0x3B PUSH2 0x159 PUSH1 0x20 SHL PUSH1 0x20 SHR JUMP JUMPDEST PUSH1 0x2 PUSH1 0x0 PUSH2 0x100 EXP DUP2 SLOAD DUP2 PUSH20 0xFFFFFFFFFFFFFFFFFFFFFFFFFFFFFFFFFFFFFFFF MUL NOT AND SWAP1 DUP4 PUSH20 0xFFFFFFFFFFFFFFFFFFFFFFFFFFFFFFFFFFFFFFFF AND MUL OR SWAP1 SSTORE POP PUSH6 0x5AF3107A4000 PUSH1 0x1 DUP2 SWAP1 SSTORE POP PUSH2 0x182 JUMP JUMPDEST PUSH1 0x0 CALLER SWAP1 POP SWAP1 JUMP JUMPDEST PUSH1 0x0 DUP1 PUSH1 0x0 SWAP1 SLOAD SWAP1 PUSH2 0x100 EXP SWAP1 DIV PUSH20 0xFFFFFFFFFFFFFFFFFFFFFFFFFFFFFFFFFFFFFFFF AND SWAP1 POP DUP2 PUSH1 0x0 DUP1 PUSH2 0x100 EXP DUP2 SLOAD DUP2 PUSH20 0xFFFFFFFFFFFFFFFFFFFFFFFFFFFFFFFFFFFFFFFF MUL NOT AND SWAP1 DUP4 PUSH20 0xFFFFFFFFFFFFFFFFFFFFFFFFFFFFFFFFFFFFFFFF AND MUL OR SWAP1 SSTORE POP DUP2 PUSH20 0xFFFFFFFFFFFFFFFFFFFFFFFFFFFFFFFFFFFFFFFF AND DUP2 PUSH20 0xFFFFFFFFFFFFFFFFFFFFFFFFFFFFFFFFFFFFFFFF AND PUSH32 0x8BE0079C531659141344CD1FD0A4F28419497F9722A3DAAFE3B4186F6B6457E0 PUSH1 0x40 MLOAD PUSH1 0x40 MLOAD DUP1 SWAP2 SUB SWAP1 LOG3 POP POP JUMP JUMPDEST PUSH1 0x0 DUP1 PUSH1 0x0 SWAP1 SLOAD SWAP1 PUSH2 0x100 EXP SWAP1 DIV PUSH20 0xFFFFFFFFFFFFFFFFFFFFFFFFFFFFFFFFFFFFFFFF AND SWAP1 POP SWAP1 JUMP JUMPDEST PUSH2 0x1990 DUP1 PUSH2 0x191 PUSH1 0x0 CODECOPY PUSH1 0x0 RETURN INVALID PUSH1 0x80 PUSH1 0x40 MSTORE PUSH1 0x4 CALLDATASIZE LT PUSH2 0xFE JUMPI PUSH1 0x0 CALLDATALOAD PUSH1 0xE0 SHR DUP1 PUSH4 0x8DA5CB5B GT PUSH2 0x95 JUMPI DUP1 PUSH4 0xDDCA3F43 GT PUSH2 0x64 JUMPI DUP1 PUSH4 0xDDCA3F43 EQ PUSH2 0x2EE JUMPI DUP1 PUSH4 0xE3CEC849 EQ PUSH2 0x319 JUMPI DUP1 PUSH4 0xF2FDE38B EQ PUSH2 0x335 JUMPI DUP1 PUSH4 0xF7260D3E EQ PUSH2 0x35E JUMPI DUP1 PUSH4 0xFB520AF2 EQ PUSH2 0x389 JUMPI PUSH2 0xFE JUMP JUMPDEST DUP1 PUSH4 0x8DA5CB5B EQ PUSH2 0x23F JUMPI DUP1 PUSH4 0x9C8B9E7B EQ PUSH2 0x26A JUMPI DUP1 PUSH4 0x9CBD3433 EQ PUSH2 0x295 JUMPI DUP1 PUSH4 0xA4DF0256 EQ PUSH2 0x2B1 JUMPI PUSH2 0xFE JUMP JUMPDEST DUP1 PUSH4 0x3FEFF76D GT PUSH2 0xD1 JUMPI DUP1 PUSH4 0x3FEFF76D EQ PUSH2 0x197 JUMPI DUP1 PUSH4 0x44B6209D EQ PUSH2 0x1C2 JUMPI DUP1 PUSH4 0x4B4FB1B0 EQ PUSH2 0x1FF JUMPI DUP1 PUSH4 0x715018A6 EQ PUSH2 0x228 JUMPI PUSH2 0xFE JUMP JUMPDEST DUP1 PUSH4 0x126CCD94 EQ PUSH2 0x103 JUMPI DUP1 PUSH4 0x17FC45E2 EQ PUSH2 0x12C JUMPI DUP1 PUSH4 0x2FC75EB0 EQ PUSH2 0x157 JUMPI DUP1 PUSH4 0x3CCFD60B EQ PUSH2 0x180 JUMPI JUMPDEST PUSH1 0x0 DUP1 REVERT JUMPDEST CALLVALUE DUP1 ISZERO PUSH2 0x10F JUMPI PUSH1 0x0 DUP1 REVERT JUMPDEST POP PUSH2 0x12A PUSH1 0x4 DUP1 CALLDATASIZE SUB DUP2 ADD SWAP1 PUSH2 0x125 SWAP2 SWAP1 PUSH2 0xF8D JUMP JUMPDEST PUSH2 0x3B2 JUMP JUMPDEST STOP JUMPDEST CALLVALUE DUP1 ISZERO PUSH2 0x138 JUMPI PUSH1 0x0 DUP1 REVERT JUMPDEST POP PUSH2 0x141 PUSH2 0x406 JUMP JUMPDEST PUSH1 0x40 MLOAD PUSH2 0x14E SWAP2 SWAP1 PUSH2 0xFDC JUMP JUMPDEST PUSH1 0x40 MLOAD DUP1 SWAP2 SUB SWAP1 RETURN JUMPDEST CALLVALUE DUP1 ISZERO PUSH2 0x163 JUMPI PUSH1 0x0 DUP1 REVERT JUMPDEST POP PUSH2 0x17E PUSH1 0x4 DUP1 CALLDATASIZE SUB DUP2 ADD SWAP1 PUSH2 0x179 SWAP2 SWAP1 PUSH2 0x1035 JUMP JUMPDEST PUSH2 0x40C JUMP JUMPDEST STOP JUMPDEST CALLVALUE DUP1 ISZERO PUSH2 0x18C JUMPI PUSH1 0x0 DUP1 REVERT JUMPDEST POP PUSH2 0x195 PUSH2 0x460 JUMP JUMPDEST STOP JUMPDEST CALLVALUE DUP1 ISZERO PUSH2 0x1A3 JUMPI PUSH1 0x0 DUP1 REVERT JUMPDEST POP PUSH2 0x1AC PUSH2 0x4BF JUMP JUMPDEST PUSH1 0x40 MLOAD PUSH2 0x1B9 SWAP2 SWAP1 PUSH2 0x10D4 JUMP JUMPDEST PUSH1 0x40 MLOAD DUP1 SWAP2 SUB SWAP1 RETURN JUMPDEST CALLVALUE DUP1 ISZERO PUSH2 0x1CE JUMPI PUSH1 0x0 DUP1 REVERT JUMPDEST POP PUSH2 0x1E9 PUSH1 0x4 DUP1 CALLDATASIZE SUB DUP2 ADD SWAP1 PUSH2 0x1E4 SWAP2 SWAP1 PUSH2 0x10EF JUMP JUMPDEST PUSH2 0x4E5 JUMP JUMPDEST PUSH1 0x40 MLOAD PUSH2 0x1F6 SWAP2 SWAP1 PUSH2 0x1137 JUMP JUMPDEST PUSH1 0x40 MLOAD DUP1 SWAP2 SUB SWAP1 RETURN JUMPDEST CALLVALUE DUP1 ISZERO PUSH2 0x20B JUMPI PUSH1 0x0 DUP1 REVERT JUMPDEST POP PUSH2 0x226 PUSH1 0x4 DUP1 CALLDATASIZE SUB DUP2 ADD SWAP1 PUSH2 0x221 SWAP2 SWAP1 PUSH2 0x10EF JUMP JUMPDEST PUSH2 0x505 JUMP JUMPDEST STOP JUMPDEST CALLVALUE DUP1 ISZERO PUSH2 0x234 JUMPI PUSH1 0x0 DUP1 REVERT JUMPDEST POP PUSH2 0x23D PUSH2 0x568 JUMP JUMPDEST STOP JUMPDEST CALLVALUE DUP1 ISZERO PUSH2 0x24B JUMPI PUSH1 0x0 DUP1 REVERT JUMPDEST POP PUSH2 0x254 PUSH2 0x57C JUMP JUMPDEST PUSH1 0x40 MLOAD PUSH2 0x261 SWAP2 SWAP1 PUSH2 0x1161 JUMP JUMPDEST PUSH1 0x40 MLOAD DUP1 SWAP2 SUB SWAP1 RETURN JUMPDEST CALLVALUE DUP1 ISZERO PUSH2 0x276 JUMPI PUSH1 0x0 DUP1 REVERT JUMPDEST POP PUSH2 0x27F PUSH2 0x5A5 JUMP JUMPDEST PUSH1 0x40 MLOAD PUSH2 0x28C SWAP2 SWAP1 PUSH2 0xFDC JUMP JUMPDEST PUSH1 0x40 MLOAD DUP1 SWAP2 SUB SWAP1 RETURN JUMPDEST PUSH2 0x2AF PUSH1 0x4 DUP1 CALLDATASIZE SUB DUP2 ADD SWAP1 PUSH2 0x2AA SWAP2 SWAP1 PUSH2 0x1398 JUMP JUMPDEST PUSH2 0x5AB JUMP JUMPDEST STOP JUMPDEST CALLVALUE DUP1 ISZERO PUSH2 0x2BD JUMPI PUSH1 0x0 DUP1 REVERT JUMPDEST POP PUSH2 0x2D8 PUSH1 0x4 DUP1 CALLDATASIZE SUB DUP2 ADD SWAP1 PUSH2 0x2D3 SWAP2 SWAP1 PUSH2 0x10EF JUMP JUMPDEST PUSH2 0x924 JUMP JUMPDEST PUSH1 0x40 MLOAD PUSH2 0x2E5 SWAP2 SWAP1 PUSH2 0x1137 JUMP JUMPDEST PUSH1 0x40 MLOAD DUP1 SWAP2 SUB SWAP1 RETURN JUMPDEST CALLVALUE DUP1 ISZERO PUSH2 0x2FA JUMPI PUSH1 0x0 DUP1 REVERT JUMPDEST POP PUSH2 0x303 PUSH2 0x97A JUMP JUMPDEST PUSH1 0x40 MLOAD PUSH2 0x310 SWAP2 SWAP1 PUSH2 0xFDC JUMP JUMPDEST PUSH1 0x40 MLOAD DUP1 SWAP2 SUB SWAP1 RETURN JUMPDEST PUSH2 0x333 PUSH1 0x4 DUP1 CALLDATASIZE SUB DUP2 ADD SWAP1 PUSH2 0x32E SWAP2 SWAP1 PUSH2 0x1423 JUMP JUMPDEST PUSH2 0x980 JUMP JUMPDEST STOP JUMPDEST CALLVALUE DUP1 ISZERO PUSH2 0x341 JUMPI PUSH1 0x0 DUP1 REVERT JUMPDEST POP PUSH2 0x35C PUSH1 0x4 DUP1 CALLDATASIZE SUB DUP2 ADD SWAP1 PUSH2 0x357 SWAP2 SWAP1 PUSH2 0x10EF JUMP JUMPDEST PUSH2 0xC3C JUMP JUMPDEST STOP JUMPDEST CALLVALUE DUP1 ISZERO PUSH2 0x36A JUMPI PUSH1 0x0 DUP1 REVERT JUMPDEST POP PUSH2 0x373 PUSH2 0xCBF JUMP JUMPDEST PUSH1 0x40 MLOAD PUSH2 0x380 SWAP2 SWAP1 PUSH2 0x14BC JUMP JUMPDEST PUSH1 0x40 MLOAD DUP1 SWAP2 SUB SWAP1 RETURN JUMPDEST CALLVALUE DUP1 ISZERO PUSH2 0x395 JUMPI PUSH1 0x0 DUP1 REVERT JUMPDEST POP PUSH2 0x3B0 PUSH1 0x4 DUP1 CALLDATASIZE SUB DUP2 ADD SWAP1 PUSH2 0x3AB SWAP2 SWAP1 PUSH2 0x1503 JUMP JUMPDEST PUSH2 0xCE5 JUMP JUMPDEST STOP JUMPDEST PUSH2 0x3BA PUSH2 0xD9B JUMP JUMPDEST DUP2 PUSH1 0x1 DUP2 SWAP1 SSTORE POP DUP1 PUSH1 0x2 PUSH1 0x0 PUSH2 0x100 EXP DUP2 SLOAD DUP2 PUSH20 0xFFFFFFFFFFFFFFFFFFFFFFFFFFFFFFFFFFFFFFFF MUL NOT AND SWAP1 DUP4 PUSH20 0xFFFFFFFFFFFFFFFFFFFFFFFFFFFFFFFFFFFFFFFF AND MUL OR SWAP1 SSTORE POP POP POP JUMP JUMPDEST PUSH1 0x6 SLOAD DUP2 JUMP JUMPDEST PUSH2 0x414 PUSH2 0xD9B JUMP JUMPDEST DUP2 PUSH1 0x5 PUSH1 0x0 PUSH2 0x100 EXP DUP2 SLOAD DUP2 PUSH20 0xFFFFFFFFFFFFFFFFFFFFFFFFFFFFFFFFFFFFFFFF MUL NOT AND SWAP1 DUP4 PUSH20 0xFFFFFFFFFFFFFFFFFFFFFFFFFFFFFFFFFFFFFFFF AND MUL OR SWAP1 SSTORE POP DUP1 PUSH1 0x6 DUP2 SWAP1 SSTORE POP POP POP JUMP JUMPDEST PUSH2 0x468 PUSH2 0xD9B JUMP JUMPDEST PUSH1 0x0 PUSH1 0x3 SLOAD GT ISZERO PUSH2 0x4BD JUMPI CALLER PUSH20 0xFFFFFFFFFFFFFFFFFFFFFFFFFFFFFFFFFFFFFFFF AND PUSH2 0x8FC PUSH1 0x3 SLOAD SWAP1 DUP2 ISZERO MUL SWAP1 PUSH1 0x40 MLOAD PUSH1 0x0 PUSH1 0x40 MLOAD DUP1 DUP4 SUB DUP2 DUP6 DUP9 DUP9 CALL SWAP4 POP POP POP POP ISZERO DUP1 ISZERO PUSH2 0x4BB JUMPI RETURNDATASIZE PUSH1 0x0 DUP1 RETURNDATACOPY RETURNDATASIZE PUSH1 0x0 REVERT JUMPDEST POP JUMPDEST JUMP JUMPDEST PUSH1 0x5 PUSH1 0x0 SWAP1 SLOAD SWAP1 PUSH2 0x100 EXP SWAP1 DIV PUSH20 0xFFFFFFFFFFFFFFFFFFFFFFFFFFFFFFFFFFFFFFFF AND DUP2 JUMP JUMPDEST PUSH1 0x4 PUSH1 0x20 MSTORE DUP1 PUSH1 0x0 MSTORE PUSH1 0x40 PUSH1 0x0 KECCAK256 PUSH1 0x0 SWAP2 POP SLOAD SWAP1 PUSH2 0x100 EXP SWAP1 DIV PUSH1 0xFF AND DUP2 JUMP JUMPDEST PUSH2 0x50D PUSH2 0xD9B JUMP JUMPDEST PUSH1 0x1 PUSH1 0x4 PUSH1 0x0 DUP4 PUSH20 0xFFFFFFFFFFFFFFFFFFFFFFFFFFFFFFFFFFFFFFFF AND PUSH20 0xFFFFFFFFFFFFFFFFFFFFFFFFFFFFFFFFFFFFFFFF AND DUP2 MSTORE PUSH1 0x20 ADD SWAP1 DUP2 MSTORE PUSH1 0x20 ADD PUSH1 0x0 KECCAK256 PUSH1 0x0 PUSH2 0x100 EXP DUP2 SLOAD DUP2 PUSH1 0xFF MUL NOT AND SWAP1 DUP4 ISZERO ISZERO MUL OR SWAP1 SSTORE POP POP JUMP JUMPDEST PUSH2 0x570 PUSH2 0xD9B JUMP JUMPDEST PUSH2 0x57A PUSH1 0x0 PUSH2 0xE19 JUMP JUMPDEST JUMP JUMPDEST PUSH1 0x0 DUP1 PUSH1 0x0 SWAP1 SLOAD SWAP1 PUSH2 0x100 EXP SWAP1 DIV PUSH20 0xFFFFFFFFFFFFFFFFFFFFFFFFFFFFFFFFFFFFFFFF AND SWAP1 POP SWAP1 JUMP JUMPDEST PUSH1 0x3 SLOAD DUP2 JUMP JUMPDEST PUSH1 0x4 PUSH1 0x0 CALLER PUSH20 0xFFFFFFFFFFFFFFFFFFFFFFFFFFFFFFFFFFFFFFFF AND PUSH20 0xFFFFFFFFFFFFFFFFFFFFFFFFFFFFFFFFFFFFFFFF AND DUP2 MSTORE PUSH1 0x20 ADD SWAP1 DUP2 MSTORE PUSH1 0x20 ADD PUSH1 0x0 KECCAK256 PUSH1 0x0 SWAP1 SLOAD SWAP1 PUSH2 0x100 EXP SWAP1 DIV PUSH1 0xFF AND ISZERO DUP1 PUSH2 0x6A0 JUMPI POP PUSH1 0x6 SLOAD PUSH1 0x5 PUSH1 0x0 SWAP1 SLOAD SWAP1 PUSH2 0x100 EXP SWAP1 DIV PUSH20 0xFFFFFFFFFFFFFFFFFFFFFFFFFFFFFFFFFFFFFFFF AND PUSH20 0xFFFFFFFFFFFFFFFFFFFFFFFFFFFFFFFFFFFFFFFF AND PUSH4 0x70A08231 CALLER PUSH1 0x40 MLOAD DUP3 PUSH4 0xFFFFFFFF AND PUSH1 0xE0 SHL DUP2 MSTORE PUSH1 0x4 ADD PUSH2 0x65D SWAP2 SWAP1 PUSH2 0x1161 JUMP JUMPDEST PUSH1 0x20 PUSH1 0x40 MLOAD DUP1 DUP4 SUB DUP2 DUP7 GAS STATICCALL ISZERO DUP1 ISZERO PUSH2 0x67A JUMPI RETURNDATASIZE PUSH1 0x0 DUP1 RETURNDATACOPY RETURNDATASIZE PUSH1 0x0 REVERT JUMPDEST POP POP POP POP PUSH1 0x40 MLOAD RETURNDATASIZE PUSH1 0x1F NOT PUSH1 0x1F DUP3 ADD AND DUP3 ADD DUP1 PUSH1 0x40 MSTORE POP DUP2 ADD SWAP1 PUSH2 0x69E SWAP2 SWAP1 PUSH2 0x1558 JUMP JUMPDEST LT JUMPDEST ISZERO PUSH2 0x771 JUMPI PUSH1 0x1 SLOAD CALLVALUE LT ISZERO PUSH2 0x6EA JUMPI PUSH1 0x40 MLOAD PUSH32 0x8C379A000000000000000000000000000000000000000000000000000000000 DUP2 MSTORE PUSH1 0x4 ADD PUSH2 0x6E1 SWAP1 PUSH2 0x162E JUMP JUMPDEST PUSH1 0x40 MLOAD DUP1 SWAP2 SUB SWAP1 REVERT JUMPDEST PUSH1 0x1 SLOAD PUSH1 0x3 PUSH1 0x0 DUP3 DUP3 SLOAD PUSH2 0x6FE SWAP2 SWAP1 PUSH2 0x167D JUMP JUMPDEST SWAP3 POP POP DUP2 SWAP1 SSTORE POP PUSH1 0x2 PUSH1 0x0 SWAP1 SLOAD SWAP1 PUSH2 0x100 EXP SWAP1 DIV PUSH20 0xFFFFFFFFFFFFFFFFFFFFFFFFFFFFFFFFFFFFFFFF AND PUSH20 0xFFFFFFFFFFFFFFFFFFFFFFFFFFFFFFFFFFFFFFFF AND PUSH2 0x8FC PUSH1 0x1 SLOAD SWAP1 DUP2 ISZERO MUL SWAP1 PUSH1 0x40 MLOAD PUSH1 0x0 PUSH1 0x40 MLOAD DUP1 DUP4 SUB DUP2 DUP6 DUP9 DUP9 CALL SWAP4 POP POP POP POP ISZERO DUP1 ISZERO PUSH2 0x76F JUMPI RETURNDATASIZE PUSH1 0x0 DUP1 RETURNDATACOPY RETURNDATASIZE PUSH1 0x0 REVERT JUMPDEST POP JUMPDEST PUSH1 0x0 DUP1 JUMPDEST DUP4 MLOAD DUP2 LT ISZERO PUSH2 0x7B9 JUMPI DUP3 DUP2 DUP2 MLOAD DUP2 LT PUSH2 0x791 JUMPI PUSH2 0x790 PUSH2 0x16B1 JUMP JUMPDEST JUMPDEST PUSH1 0x20 MUL PUSH1 0x20 ADD ADD MLOAD DUP3 PUSH2 0x7A4 SWAP2 SWAP1 PUSH2 0x167D JUMP JUMPDEST SWAP2 POP DUP1 DUP1 PUSH2 0x7B1 SWAP1 PUSH2 0x16E0 JUMP JUMPDEST SWAP2 POP POP PUSH2 0x775 JUMP JUMPDEST POP DUP4 PUSH20 0xFFFFFFFFFFFFFFFFFFFFFFFFFFFFFFFFFFFFFFFF AND PUSH4 0x23B872DD CALLER ADDRESS DUP5 PUSH1 0x40 MLOAD DUP5 PUSH4 0xFFFFFFFF AND PUSH1 0xE0 SHL DUP2 MSTORE PUSH1 0x4 ADD PUSH2 0x7F7 SWAP4 SWAP3 SWAP2 SWAP1 PUSH2 0x1728 JUMP JUMPDEST PUSH1 0x20 PUSH1 0x40 MLOAD DUP1 DUP4 SUB DUP2 PUSH1 0x0 DUP8 GAS CALL ISZERO DUP1 ISZERO PUSH2 0x816 JUMPI RETURNDATASIZE PUSH1 0x0 DUP1 RETURNDATACOPY RETURNDATASIZE PUSH1 0x0 REVERT JUMPDEST POP POP POP POP PUSH1 0x40 MLOAD RETURNDATASIZE PUSH1 0x1F NOT PUSH1 0x1F DUP3 ADD AND DUP3 ADD DUP1 PUSH1 0x40 MSTORE POP DUP2 ADD SWAP1 PUSH2 0x83A SWAP2 SWAP1 PUSH2 0x1774 JUMP JUMPDEST PUSH2 0x843 JUMPI PUSH1 0x0 DUP1 REVERT JUMPDEST PUSH1 0x0 JUMPDEST DUP4 MLOAD DUP2 LT ISZERO PUSH2 0x91D JUMPI DUP5 PUSH20 0xFFFFFFFFFFFFFFFFFFFFFFFFFFFFFFFFFFFFFFFF AND PUSH4 0xA9059CBB DUP6 DUP4 DUP2 MLOAD DUP2 LT PUSH2 0x87E JUMPI PUSH2 0x87D PUSH2 0x16B1 JUMP JUMPDEST JUMPDEST PUSH1 0x20 MUL PUSH1 0x20 ADD ADD MLOAD DUP6 DUP5 DUP2 MLOAD DUP2 LT PUSH2 0x899 JUMPI PUSH2 0x898 PUSH2 0x16B1 JUMP JUMPDEST JUMPDEST PUSH1 0x20 MUL PUSH1 0x20 ADD ADD MLOAD PUSH1 0x40 MLOAD DUP4 PUSH4 0xFFFFFFFF AND PUSH1 0xE0 SHL DUP2 MSTORE PUSH1 0x4 ADD PUSH2 0x8BE SWAP3 SWAP2 SWAP1 PUSH2 0x17A1 JUMP JUMPDEST PUSH1 0x20 PUSH1 0x40 MLOAD DUP1 DUP4 SUB DUP2 PUSH1 0x0 DUP8 GAS CALL ISZERO DUP1 ISZERO PUSH2 0x8DD JUMPI RETURNDATASIZE PUSH1 0x0 DUP1 RETURNDATACOPY RETURNDATASIZE PUSH1 0x0 REVERT JUMPDEST POP POP POP POP PUSH1 0x40 MLOAD RETURNDATASIZE PUSH1 0x1F NOT PUSH1 0x1F DUP3 ADD AND DUP3 ADD DUP1 PUSH1 0x40 MSTORE POP DUP2 ADD SWAP1 PUSH2 0x901 SWAP2 SWAP1 PUSH2 0x1774 JUMP JUMPDEST PUSH2 0x90A JUMPI PUSH1 0x0 DUP1 REVERT JUMPDEST DUP1 DUP1 PUSH2 0x915 SWAP1 PUSH2 0x16E0 JUMP JUMPDEST SWAP2 POP POP PUSH2 0x846 JUMP JUMPDEST POP POP POP POP POP JUMP JUMPDEST PUSH1 0x0 PUSH1 0x4 PUSH1 0x0 DUP4 PUSH20 0xFFFFFFFFFFFFFFFFFFFFFFFFFFFFFFFFFFFFFFFF AND PUSH20 0xFFFFFFFFFFFFFFFFFFFFFFFFFFFFFFFFFFFFFFFF AND DUP2 MSTORE PUSH1 0x20 ADD SWAP1 DUP2 MSTORE PUSH1 0x20 ADD PUSH1 0x0 KECCAK256 PUSH1 0x0 SWAP1 SLOAD SWAP1 PUSH2 0x100 EXP SWAP1 DIV PUSH1 0xFF AND SWAP1 POP SWAP2 SWAP1 POP JUMP JUMPDEST PUSH1 0x1 SLOAD DUP2 JUMP JUMPDEST PUSH1 0x4 PUSH1 0x0 CALLER PUSH20 0xFFFFFFFFFFFFFFFFFFFFFFFFFFFFFFFFFFFFFFFF AND PUSH20 0xFFFFFFFFFFFFFFFFFFFFFFFFFFFFFFFFFFFFFFFF AND DUP2 MSTORE PUSH1 0x20 ADD SWAP1 DUP2 MSTORE PUSH1 0x20 ADD PUSH1 0x0 KECCAK256 PUSH1 0x0 SWAP1 SLOAD SWAP1 PUSH2 0x100 EXP SWAP1 DIV PUSH1 0xFF AND ISZERO DUP1 PUSH2 0xA75 JUMPI POP PUSH1 0x6 SLOAD PUSH1 0x5 PUSH1 0x0 SWAP1 SLOAD SWAP1 PUSH2 0x100 EXP SWAP1 DIV PUSH20 0xFFFFFFFFFFFFFFFFFFFFFFFFFFFFFFFFFFFFFFFF AND PUSH20 0xFFFFFFFFFFFFFFFFFFFFFFFFFFFFFFFFFFFFFFFF AND PUSH4 0x70A08231 CALLER PUSH1 0x40 MLOAD DUP3 PUSH4 0xFFFFFFFF AND PUSH1 0xE0 SHL DUP2 MSTORE PUSH1 0x4 ADD PUSH2 0xA32 SWAP2 SWAP1 PUSH2 0x1161 JUMP JUMPDEST PUSH1 0x20 PUSH1 0x40 MLOAD DUP1 DUP4 SUB DUP2 DUP7 GAS STATICCALL ISZERO DUP1 ISZERO PUSH2 0xA4F JUMPI RETURNDATASIZE PUSH1 0x0 DUP1 RETURNDATACOPY RETURNDATASIZE PUSH1 0x0 REVERT JUMPDEST POP POP POP POP PUSH1 0x40 MLOAD RETURNDATASIZE PUSH1 0x1F NOT PUSH1 0x1F DUP3 ADD AND DUP3 ADD DUP1 PUSH1 0x40 MSTORE POP DUP2 ADD SWAP1 PUSH2 0xA73 SWAP2 SWAP1 PUSH2 0x1558 JUMP JUMPDEST LT JUMPDEST ISZERO PUSH2 0xB46 JUMPI PUSH1 0x1 SLOAD CALLVALUE LT ISZERO PUSH2 0xABF JUMPI PUSH1 0x40 MLOAD PUSH32 0x8C379A000000000000000000000000000000000000000000000000000000000 DUP2 MSTORE PUSH1 0x4 ADD PUSH2 0xAB6 SWAP1 PUSH2 0x183C JUMP JUMPDEST PUSH1 0x40 MLOAD DUP1 SWAP2 SUB SWAP1 REVERT JUMPDEST PUSH1 0x1 SLOAD PUSH1 0x3 PUSH1 0x0 DUP3 DUP3 SLOAD PUSH2 0xAD3 SWAP2 SWAP1 PUSH2 0x167D JUMP JUMPDEST SWAP3 POP POP DUP2 SWAP1 SSTORE POP PUSH1 0x2 PUSH1 0x0 SWAP1 SLOAD SWAP1 PUSH2 0x100 EXP SWAP1 DIV PUSH20 0xFFFFFFFFFFFFFFFFFFFFFFFFFFFFFFFFFFFFFFFF AND PUSH20 0xFFFFFFFFFFFFFFFFFFFFFFFFFFFFFFFFFFFFFFFF AND PUSH2 0x8FC PUSH1 0x1 SLOAD SWAP1 DUP2 ISZERO MUL SWAP1 PUSH1 0x40 MLOAD PUSH1 0x0 PUSH1 0x40 MLOAD DUP1 DUP4 SUB DUP2 DUP6 DUP9 DUP9 CALL SWAP4 POP POP POP POP ISZERO DUP1 ISZERO PUSH2 0xB44 JUMPI RETURNDATASIZE PUSH1 0x0 DUP1 RETURNDATACOPY RETURNDATASIZE PUSH1 0x0 REVERT JUMPDEST POP JUMPDEST PUSH1 0x0 JUMPDEST DUP3 MLOAD DUP2 LT ISZERO PUSH2 0xBE0 JUMPI DUP3 DUP2 DUP2 MLOAD DUP2 LT PUSH2 0xB65 JUMPI PUSH2 0xB64 PUSH2 0x16B1 JUMP JUMPDEST JUMPDEST PUSH1 0x20 MUL PUSH1 0x20 ADD ADD MLOAD PUSH20 0xFFFFFFFFFFFFFFFFFFFFFFFFFFFFFFFFFFFFFFFF AND PUSH2 0x8FC DUP4 DUP4 DUP2 MLOAD DUP2 LT PUSH2 0xB99 JUMPI PUSH2 0xB98 PUSH2 0x16B1 JUMP JUMPDEST JUMPDEST PUSH1 0x20 MUL PUSH1 0x20 ADD ADD MLOAD SWAP1 DUP2 ISZERO MUL SWAP1 PUSH1 0x40 MLOAD PUSH1 0x0 PUSH1 0x40 MLOAD DUP1 DUP4 SUB DUP2 DUP6 DUP9 DUP9 CALL SWAP4 POP POP POP POP ISZERO DUP1 ISZERO PUSH2 0xBCC JUMPI RETURNDATASIZE PUSH1 0x0 DUP1 RETURNDATACOPY RETURNDATASIZE PUSH1 0x0 REVERT JUMPDEST POP DUP1 DUP1 PUSH2 0xBD8 SWAP1 PUSH2 0x16E0 JUMP JUMPDEST SWAP2 POP POP PUSH2 0xB49 JUMP JUMPDEST POP PUSH1 0x0 SELFBALANCE SWAP1 POP PUSH1 0x0 DUP2 GT ISZERO PUSH2 0xC37 JUMPI CALLER PUSH20 0xFFFFFFFFFFFFFFFFFFFFFFFFFFFFFFFFFFFFFFFF AND PUSH2 0x8FC DUP3 SWAP1 DUP2 ISZERO MUL SWAP1 PUSH1 0x40 MLOAD PUSH1 0x0 PUSH1 0x40 MLOAD DUP1 DUP4 SUB DUP2 DUP6 DUP9 DUP9 CALL SWAP4 POP POP POP POP ISZERO DUP1 ISZERO PUSH2 0xC35 JUMPI RETURNDATASIZE PUSH1 0x0 DUP1 RETURNDATACOPY RETURNDATASIZE PUSH1 0x0 REVERT JUMPDEST POP JUMPDEST POP POP POP JUMP JUMPDEST PUSH2 0xC44 PUSH2 0xD9B JUMP JUMPDEST PUSH1 0x0 PUSH20 0xFFFFFFFFFFFFFFFFFFFFFFFFFFFFFFFFFFFFFFFF AND DUP2 PUSH20 0xFFFFFFFFFFFFFFFFFFFFFFFFFFFFFFFFFFFFFFFF AND SUB PUSH2 0xCB3 JUMPI PUSH1 0x40 MLOAD PUSH32 0x8C379A000000000000000000000000000000000000000000000000000000000 DUP2 MSTORE PUSH1 0x4 ADD PUSH2 0xCAA SWAP1 PUSH2 0x18CE JUMP JUMPDEST PUSH1 0x40 MLOAD DUP1 SWAP2 SUB SWAP1 REVERT JUMPDEST PUSH2 0xCBC DUP2 PUSH2 0xE19 JUMP JUMPDEST POP JUMP JUMPDEST PUSH1 0x2 PUSH1 0x0 SWAP1 SLOAD SWAP1 PUSH2 0x100 EXP SWAP1 DIV PUSH20 0xFFFFFFFFFFFFFFFFFFFFFFFFFFFFFFFFFFFFFFFF AND DUP2 JUMP JUMPDEST PUSH2 0xCED PUSH2 0xD9B JUMP JUMPDEST PUSH1 0x4 PUSH1 0x0 DUP4 PUSH20 0xFFFFFFFFFFFFFFFFFFFFFFFFFFFFFFFFFFFFFFFF AND PUSH20 0xFFFFFFFFFFFFFFFFFFFFFFFFFFFFFFFFFFFFFFFF AND DUP2 MSTORE PUSH1 0x20 ADD SWAP1 DUP2 MSTORE PUSH1 0x20 ADD PUSH1 0x0 KECCAK256 PUSH1 0x0 SWAP1 SLOAD SWAP1 PUSH2 0x100 EXP SWAP1 DIV PUSH1 0xFF AND ISZERO PUSH2 0xD97 JUMPI DUP1 PUSH1 0x4 PUSH1 0x0 DUP5 PUSH20 0xFFFFFFFFFFFFFFFFFFFFFFFFFFFFFFFFFFFFFFFF AND PUSH20 0xFFFFFFFFFFFFFFFFFFFFFFFFFFFFFFFFFFFFFFFF AND DUP2 MSTORE PUSH1 0x20 ADD SWAP1 DUP2 MSTORE PUSH1 0x20 ADD PUSH1 0x0 KECCAK256 PUSH1 0x0 PUSH2 0x100 EXP DUP2 SLOAD DUP2 PUSH1 0xFF MUL NOT AND SWAP1 DUP4 ISZERO ISZERO MUL OR SWAP1 SSTORE POP JUMPDEST POP POP JUMP JUMPDEST PUSH2 0xDA3 PUSH2 0xEDD JUMP JUMPDEST PUSH20 0xFFFFFFFFFFFFFFFFFFFFFFFFFFFFFFFFFFFFFFFF AND PUSH2 0xDC1 PUSH2 0x57C JUMP JUMPDEST PUSH20 0xFFFFFFFFFFFFFFFFFFFFFFFFFFFFFFFFFFFFFFFF AND EQ PUSH2 0xE17 JUMPI PUSH1 0x40 MLOAD PUSH32 0x8C379A000000000000000000000000000000000000000000000000000000000 DUP2 MSTORE PUSH1 0x4 ADD PUSH2 0xE0E SWAP1 PUSH2 0x193A JUMP JUMPDEST PUSH1 0x40 MLOAD DUP1 SWAP2 SUB SWAP1 REVERT JUMPDEST JUMP JUMPDEST PUSH1 0x0 DUP1 PUSH1 0x0 SWAP1 SLOAD SWAP1 PUSH2 0x100 EXP SWAP1 DIV PUSH20 0xFFFFFFFFFFFFFFFFFFFFFFFFFFFFFFFFFFFFFFFF AND SWAP1 POP DUP2 PUSH1 0x0 DUP1 PUSH2 0x100 EXP DUP2 SLOAD DUP2 PUSH20 0xFFFFFFFFFFFFFFFFFFFFFFFFFFFFFFFFFFFFFFFF MUL NOT AND SWAP1 DUP4 PUSH20 0xFFFFFFFFFFFFFFFFFFFFFFFFFFFFFFFFFFFFFFFF AND MUL OR SWAP1 SSTORE POP DUP2 PUSH20 0xFFFFFFFFFFFFFFFFFFFFFFFFFFFFFFFFFFFFFFFF AND DUP2 PUSH20 0xFFFFFFFFFFFFFFFFFFFFFFFFFFFFFFFFFFFFFFFF AND PUSH32 0x8BE0079C531659141344CD1FD0A4F28419497F9722A3DAAFE3B4186F6B6457E0 PUSH1 0x40 MLOAD PUSH1 0x40 MLOAD DUP1 SWAP2 SUB SWAP1 LOG3 POP POP JUMP JUMPDEST PUSH1 0x0 CALLER SWAP1 POP SWAP1 JUMP JUMPDEST PUSH1 0x0 PUSH1 0x40 MLOAD SWAP1 POP SWAP1 JUMP JUMPDEST PUSH1 0x0 DUP1 REVERT JUMPDEST PUSH1 0x0 DUP1 REVERT JUMPDEST PUSH1 0x0 DUP2 SWAP1 POP SWAP2 SWAP1 POP JUMP JUMPDEST PUSH2 0xF0C DUP2 PUSH2 0xEF9 JUMP JUMPDEST DUP2 EQ PUSH2 0xF17 JUMPI PUSH1 0x0 DUP1 REVERT JUMPDEST POP JUMP JUMPDEST PUSH1 0x0 DUP2 CALLDATALOAD SWAP1 POP PUSH2 0xF29 DUP2 PUSH2 0xF03 JUMP JUMPDEST SWAP3 SWAP2 POP POP JUMP JUMPDEST PUSH1 0x0 PUSH20 0xFFFFFFFFFFFFFFFFFFFFFFFFFFFFFFFFFFFFFFFF DUP3 AND SWAP1 POP SWAP2 SWAP1 POP JUMP JUMPDEST PUSH1 0x0 PUSH2 0xF5A DUP3 PUSH2 0xF2F JUMP JUMPDEST SWAP1 POP SWAP2 SWAP1 POP JUMP JUMPDEST PUSH2 0xF6A DUP2 PUSH2 0xF4F JUMP JUMPDEST DUP2 EQ PUSH2 0xF75 JUMPI PUSH1 0x0 DUP1 REVERT JUMPDEST POP JUMP JUMPDEST PUSH1 0x0 DUP2 CALLDATALOAD SWAP1 POP PUSH2 0xF87 DUP2 PUSH2 0xF61 JUMP JUMPDEST SWAP3 SWAP2 POP POP JUMP JUMPDEST PUSH1 0x0 DUP1 PUSH1 0x40 DUP4 DUP6 SUB SLT ISZERO PUSH2 0xFA4 JUMPI PUSH2 0xFA3 PUSH2 0xEEF JUMP JUMPDEST JUMPDEST PUSH1 0x0 PUSH2 0xFB2 DUP6 DUP3 DUP7 ADD PUSH2 0xF1A JUMP JUMPDEST SWAP3 POP POP PUSH1 0x20 PUSH2 0xFC3 DUP6 DUP3 DUP7 ADD PUSH2 0xF78 JUMP JUMPDEST SWAP2 POP POP SWAP3 POP SWAP3 SWAP1 POP JUMP JUMPDEST PUSH2 0xFD6 DUP2 PUSH2 0xEF9 JUMP JUMPDEST DUP3 MSTORE POP POP JUMP JUMPDEST PUSH1 0x0 PUSH1 0x20 DUP3 ADD SWAP1 POP PUSH2 0xFF1 PUSH1 0x0 DUP4 ADD DUP5 PUSH2 0xFCD JUMP JUMPDEST SWAP3 SWAP2 POP POP JUMP JUMPDEST PUSH1 0x0 PUSH2 0x1002 DUP3 PUSH2 0xF4F JUMP JUMPDEST SWAP1 POP SWAP2 SWAP1 POP JUMP JUMPDEST PUSH2 0x1012 DUP2 PUSH2 0xFF7 JUMP JUMPDEST DUP2 EQ PUSH2 0x101D JUMPI PUSH1 0x0 DUP1 REVERT JUMPDEST POP JUMP JUMPDEST PUSH1 0x0 DUP2 CALLDATALOAD SWAP1 POP PUSH2 0x102F DUP2 PUSH2 0x1009 JUMP JUMPDEST SWAP3 SWAP2 POP POP JUMP JUMPDEST PUSH1 0x0 DUP1 PUSH1 0x40 DUP4 DUP6 SUB SLT ISZERO PUSH2 0x104C JUMPI PUSH2 0x104B PUSH2 0xEEF JUMP JUMPDEST JUMPDEST PUSH1 0x0 PUSH2 0x105A DUP6 DUP3 DUP7 ADD PUSH2 0x1020 JUMP JUMPDEST SWAP3 POP POP PUSH1 0x20 PUSH2 0x106B DUP6 DUP3 DUP7 ADD PUSH2 0xF1A JUMP JUMPDEST SWAP2 POP POP SWAP3 POP SWAP3 SWAP1 POP JUMP JUMPDEST PUSH1 0x0 DUP2 SWAP1 POP SWAP2 SWAP1 POP JUMP JUMPDEST PUSH1 0x0 PUSH2 0x109A PUSH2 0x1095 PUSH2 0x1090 DUP5 PUSH2 0xF2F JUMP JUMPDEST PUSH2 0x1075 JUMP JUMPDEST PUSH2 0xF2F JUMP JUMPDEST SWAP1 POP SWAP2 SWAP1 POP JUMP JUMPDEST PUSH1 0x0 PUSH2 0x10AC DUP3 PUSH2 0x107F JUMP JUMPDEST SWAP1 POP SWAP2 SWAP1 POP JUMP JUMPDEST PUSH1 0x0 PUSH2 0x10BE DUP3 PUSH2 0x10A1 JUMP JUMPDEST SWAP1 POP SWAP2 SWAP1 POP JUMP JUMPDEST PUSH2 0x10CE DUP2 PUSH2 0x10B3 JUMP JUMPDEST DUP3 MSTORE POP POP JUMP JUMPDEST PUSH1 0x0 PUSH1 0x20 DUP3 ADD SWAP1 POP PUSH2 0x10E9 PUSH1 0x0 DUP4 ADD DUP5 PUSH2 0x10C5 JUMP JUMPDEST SWAP3 SWAP2 POP POP JUMP JUMPDEST PUSH1 0x0 PUSH1 0x20 DUP3 DUP5 SUB SLT ISZERO PUSH2 0x1105 JUMPI PUSH2 0x1104 PUSH2 0xEEF JUMP JUMPDEST JUMPDEST PUSH1 0x0 PUSH2 0x1113 DUP5 DUP3 DUP6 ADD PUSH2 0xF78 JUMP JUMPDEST SWAP2 POP POP SWAP3 SWAP2 POP POP JUMP JUMPDEST PUSH1 0x0 DUP2 ISZERO ISZERO SWAP1 POP SWAP2 SWAP1 POP JUMP JUMPDEST PUSH2 0x1131 DUP2 PUSH2 0x111C JUMP JUMPDEST DUP3 MSTORE POP POP JUMP JUMPDEST PUSH1 0x0 PUSH1 0x20 DUP3 ADD SWAP1 POP PUSH2 0x114C PUSH1 0x0 DUP4 ADD DUP5 PUSH2 0x1128 JUMP JUMPDEST SWAP3 SWAP2 POP POP JUMP JUMPDEST PUSH2 0x115B DUP2 PUSH2 0xF4F JUMP JUMPDEST DUP3 MSTORE POP POP JUMP JUMPDEST PUSH1 0x0 PUSH1 0x20 DUP3 ADD SWAP1 POP PUSH2 0x1176 PUSH1 0x0 DUP4 ADD DUP5 PUSH2 0x1152 JUMP JUMPDEST SWAP3 SWAP2 POP POP JUMP JUMPDEST PUSH1 0x0 DUP1 REVERT JUMPDEST PUSH1 0x0 PUSH1 0x1F NOT PUSH1 0x1F DUP4 ADD AND SWAP1 POP SWAP2 SWAP1 POP JUMP JUMPDEST PUSH32 0x4E487B7100000000000000000000000000000000000000000000000000000000 PUSH1 0x0 MSTORE PUSH1 0x41 PUSH1 0x4 MSTORE PUSH1 0x24 PUSH1 0x0 REVERT JUMPDEST PUSH2 0x11CA DUP3 PUSH2 0x1181 JUMP JUMPDEST DUP2 ADD DUP2 DUP2 LT PUSH8 0xFFFFFFFFFFFFFFFF DUP3 GT OR ISZERO PUSH2 0x11E9 JUMPI PUSH2 0x11E8 PUSH2 0x1192 JUMP JUMPDEST JUMPDEST DUP1 PUSH1 0x40 MSTORE POP POP POP JUMP JUMPDEST PUSH1 0x0 PUSH2 0x11FC PUSH2 0xEE5 JUMP JUMPDEST SWAP1 POP PUSH2 0x1208 DUP3 DUP3 PUSH2 0x11C1 JUMP JUMPDEST SWAP2 SWAP1 POP JUMP JUMPDEST PUSH1 0x0 PUSH8 0xFFFFFFFFFFFFFFFF DUP3 GT ISZERO PUSH2 0x1228 JUMPI PUSH2 0x1227 PUSH2 0x1192 JUMP JUMPDEST JUMPDEST PUSH1 0x20 DUP3 MUL SWAP1 POP PUSH1 0x20 DUP2 ADD SWAP1 POP SWAP2 SWAP1 POP JUMP JUMPDEST PUSH1 0x0 DUP1 REVERT JUMPDEST PUSH1 0x0 PUSH2 0x1251 PUSH2 0x124C DUP5 PUSH2 0x120D JUMP JUMPDEST PUSH2 0x11F2 JUMP JUMPDEST SWAP1 POP DUP1 DUP4 DUP3 MSTORE PUSH1 0x20 DUP3 ADD SWAP1 POP PUSH1 0x20 DUP5 MUL DUP4 ADD DUP6 DUP2 GT ISZERO PUSH2 0x1274 JUMPI PUSH2 0x1273 PUSH2 0x1239 JUMP JUMPDEST JUMPDEST DUP4 JUMPDEST DUP2 DUP2 LT ISZERO PUSH2 0x129D JUMPI DUP1 PUSH2 0x1289 DUP9 DUP3 PUSH2 0xF78 JUMP JUMPDEST DUP5 MSTORE PUSH1 0x20 DUP5 ADD SWAP4 POP POP PUSH1 0x20 DUP2 ADD SWAP1 POP PUSH2 0x1276 JUMP JUMPDEST POP POP POP SWAP4 SWAP3 POP POP POP JUMP JUMPDEST PUSH1 0x0 DUP3 PUSH1 0x1F DUP4 ADD SLT PUSH2 0x12BC JUMPI PUSH2 0x12BB PUSH2 0x117C JUMP JUMPDEST JUMPDEST DUP2 CALLDATALOAD PUSH2 0x12CC DUP5 DUP3 PUSH1 0x20 DUP7 ADD PUSH2 0x123E JUMP JUMPDEST SWAP2 POP POP SWAP3 SWAP2 POP POP JUMP JUMPDEST PUSH1 0x0 PUSH8 0xFFFFFFFFFFFFFFFF DUP3 GT ISZERO PUSH2 0x12F0 JUMPI PUSH2 0x12EF PUSH2 0x1192 JUMP JUMPDEST JUMPDEST PUSH1 0x20 DUP3 MUL SWAP1 POP PUSH1 0x20 DUP2 ADD SWAP1 POP SWAP2 SWAP1 POP JUMP JUMPDEST PUSH1 0x0 PUSH2 0x1314 PUSH2 0x130F DUP5 PUSH2 0x12D5 JUMP JUMPDEST PUSH2 0x11F2 JUMP JUMPDEST SWAP1 POP DUP1 DUP4 DUP3 MSTORE PUSH1 0x20 DUP3 ADD SWAP1 POP PUSH1 0x20 DUP5 MUL DUP4 ADD DUP6 DUP2 GT ISZERO PUSH2 0x1337 JUMPI PUSH2 0x1336 PUSH2 0x1239 JUMP JUMPDEST JUMPDEST DUP4 JUMPDEST DUP2 DUP2 LT ISZERO PUSH2 0x1360 JUMPI DUP1 PUSH2 0x134C DUP9 DUP3 PUSH2 0xF1A JUMP JUMPDEST DUP5 MSTORE PUSH1 0x20 DUP5 ADD SWAP4 POP POP PUSH1 0x20 DUP2 ADD SWAP1 POP PUSH2 0x1339 JUMP JUMPDEST POP POP POP SWAP4 SWAP3 POP POP POP JUMP JUMPDEST PUSH1 0x0 DUP3 PUSH1 0x1F DUP4 ADD SLT PUSH2 0x137F JUMPI PUSH2 0x137E PUSH2 0x117C JUMP JUMPDEST JUMPDEST DUP2 CALLDATALOAD PUSH2 0x138F DUP5 DUP3 PUSH1 0x20 DUP7 ADD PUSH2 0x1301 JUMP JUMPDEST SWAP2 POP POP SWAP3 SWAP2 POP POP JUMP JUMPDEST PUSH1 0x0 DUP1 PUSH1 0x0 PUSH1 0x60 DUP5 DUP7 SUB SLT ISZERO PUSH2 0x13B1 JUMPI PUSH2 0x13B0 PUSH2 0xEEF JUMP JUMPDEST JUMPDEST PUSH1 0x0 PUSH2 0x13BF DUP7 DUP3 DUP8 ADD PUSH2 0x1020 JUMP JUMPDEST SWAP4 POP POP PUSH1 0x20 DUP5 ADD CALLDATALOAD PUSH8 0xFFFFFFFFFFFFFFFF DUP2 GT ISZERO PUSH2 0x13E0 JUMPI PUSH2 0x13DF PUSH2 0xEF4 JUMP JUMPDEST JUMPDEST PUSH2 0x13EC DUP7 DUP3 DUP8 ADD PUSH2 0x12A7 JUMP JUMPDEST SWAP3 POP POP PUSH1 0x40 DUP5 ADD CALLDATALOAD PUSH8 0xFFFFFFFFFFFFFFFF DUP2 GT ISZERO PUSH2 0x140D JUMPI PUSH2 0x140C PUSH2 0xEF4 JUMP JUMPDEST JUMPDEST PUSH2 0x1419 DUP7 DUP3 DUP8 ADD PUSH2 0x136A JUMP JUMPDEST SWAP2 POP POP SWAP3 POP SWAP3 POP SWAP3 JUMP JUMPDEST PUSH1 0x0 DUP1 PUSH1 0x40 DUP4 DUP6 SUB SLT ISZERO PUSH2 0x143A JUMPI PUSH2 0x1439 PUSH2 0xEEF JUMP JUMPDEST JUMPDEST PUSH1 0x0 DUP4 ADD CALLDATALOAD PUSH8 0xFFFFFFFFFFFFFFFF DUP2 GT ISZERO PUSH2 0x1458 JUMPI PUSH2 0x1457 PUSH2 0xEF4 JUMP JUMPDEST JUMPDEST PUSH2 0x1464 DUP6 DUP3 DUP7 ADD PUSH2 0x12A7 JUMP JUMPDEST SWAP3 POP POP PUSH1 0x20 DUP4 ADD CALLDATALOAD PUSH8 0xFFFFFFFFFFFFFFFF DUP2 GT ISZERO PUSH2 0x1485 JUMPI PUSH2 0x1484 PUSH2 0xEF4 JUMP JUMPDEST JUMPDEST PUSH2 0x1491 DUP6 DUP3 DUP7 ADD PUSH2 0x136A JUMP JUMPDEST SWAP2 POP POP SWAP3 POP SWAP3 SWAP1 POP JUMP JUMPDEST PUSH1 0x0 PUSH2 0x14A6 DUP3 PUSH2 0xF2F JUMP JUMPDEST SWAP1 POP SWAP2 SWAP1 POP JUMP JUMPDEST PUSH2 0x14B6 DUP2 PUSH2 0x149B JUMP JUMPDEST DUP3 MSTORE POP POP JUMP JUMPDEST PUSH1 0x0 PUSH1 0x20 DUP3 ADD SWAP1 POP PUSH2 0x14D1 PUSH1 0x0 DUP4 ADD DUP5 PUSH2 0x14AD JUMP JUMPDEST SWAP3 SWAP2 POP POP JUMP JUMPDEST PUSH2 0x14E0 DUP2 PUSH2 0x111C JUMP JUMPDEST DUP2 EQ PUSH2 0x14EB JUMPI PUSH1 0x0 DUP1 REVERT JUMPDEST POP JUMP JUMPDEST PUSH1 0x0 DUP2 CALLDATALOAD SWAP1 POP PUSH2 0x14FD DUP2 PUSH2 0x14D7 JUMP JUMPDEST SWAP3 SWAP2 POP POP JUMP JUMPDEST PUSH1 0x0 DUP1 PUSH1 0x40 DUP4 DUP6 SUB SLT ISZERO PUSH2 0x151A JUMPI PUSH2 0x1519 PUSH2 0xEEF JUMP JUMPDEST JUMPDEST PUSH1 0x0 PUSH2 0x1528 DUP6 DUP3 DUP7 ADD PUSH2 0xF78 JUMP JUMPDEST SWAP3 POP POP PUSH1 0x20 PUSH2 0x1539 DUP6 DUP3 DUP7 ADD PUSH2 0x14EE JUMP JUMPDEST SWAP2 POP POP SWAP3 POP SWAP3 SWAP1 POP JUMP JUMPDEST PUSH1 0x0 DUP2 MLOAD SWAP1 POP PUSH2 0x1552 DUP2 PUSH2 0xF03 JUMP JUMPDEST SWAP3 SWAP2 POP POP JUMP JUMPDEST PUSH1 0x0 PUSH1 0x20 DUP3 DUP5 SUB SLT ISZERO PUSH2 0x156E JUMPI PUSH2 0x156D PUSH2 0xEEF JUMP JUMPDEST JUMPDEST PUSH1 0x0 PUSH2 0x157C DUP5 DUP3 DUP6 ADD PUSH2 0x1543 JUMP JUMPDEST SWAP2 POP POP SWAP3 SWAP2 POP POP JUMP JUMPDEST PUSH1 0x0 DUP3 DUP3 MSTORE PUSH1 0x20 DUP3 ADD SWAP1 POP SWAP3 SWAP2 POP POP JUMP JUMPDEST PUSH32 0x596F75206861766520746F207061792066656520746F2075736520536E697065 PUSH1 0x0 DUP3 ADD MSTORE PUSH32 0x46696E616E636520546F6B656E204D756C74692062756C6B2066756E6374696F PUSH1 0x20 DUP3 ADD MSTORE PUSH32 0x6E00000000000000000000000000000000000000000000000000000000000000 PUSH1 0x40 DUP3 ADD MSTORE POP JUMP JUMPDEST PUSH1 0x0 PUSH2 0x1618 PUSH1 0x41 DUP4 PUSH2 0x1585 JUMP JUMPDEST SWAP2 POP PUSH2 0x1623 DUP3 PUSH2 0x1596 JUMP JUMPDEST PUSH1 0x60 DUP3 ADD SWAP1 POP SWAP2 SWAP1 POP JUMP JUMPDEST PUSH1 0x0 PUSH1 0x20 DUP3 ADD SWAP1 POP DUP2 DUP2 SUB PUSH1 0x0 DUP4 ADD MSTORE PUSH2 0x1647 DUP2 PUSH2 0x160B JUMP JUMPDEST SWAP1 POP SWAP2 SWAP1 POP JUMP JUMPDEST PUSH32 0x4E487B7100000000000000000000000000000000000000000000000000000000 PUSH1 0x0 MSTORE PUSH1 0x11 PUSH1 0x4 MSTORE PUSH1 0x24 PUSH1 0x0 REVERT JUMPDEST PUSH1 0x0 PUSH2 0x1688 DUP3 PUSH2 0xEF9 JUMP JUMPDEST SWAP2 POP PUSH2 0x1693 DUP4 PUSH2 0xEF9 JUMP JUMPDEST SWAP3 POP DUP3 DUP3 ADD SWAP1 POP DUP1 DUP3 GT ISZERO PUSH2 0x16AB JUMPI PUSH2 0x16AA PUSH2 0x164E JUMP JUMPDEST JUMPDEST SWAP3 SWAP2 POP POP JUMP JUMPDEST PUSH32 0x4E487B7100000000000000000000000000000000000000000000000000000000 PUSH1 0x0 MSTORE PUSH1 0x32 PUSH1 0x4 MSTORE PUSH1 0x24 PUSH1 0x0 REVERT JUMPDEST PUSH1 0x0 PUSH2 0x16EB DUP3 PUSH2 0xEF9 JUMP JUMPDEST SWAP2 POP PUSH32 0xFFFFFFFFFFFFFFFFFFFFFFFFFFFFFFFFFFFFFFFFFFFFFFFFFFFFFFFFFFFFFFFF DUP3 SUB PUSH2 0x171D JUMPI PUSH2 0x171C PUSH2 0x164E JUMP JUMPDEST JUMPDEST PUSH1 0x1 DUP3 ADD SWAP1 POP SWAP2 SWAP1 POP JUMP JUMPDEST PUSH1 0x0 PUSH1 0x60 DUP3 ADD SWAP1 POP PUSH2 0x173D PUSH1 0x0 DUP4 ADD DUP7 PUSH2 0x1152 JUMP JUMPDEST PUSH2 0x174A PUSH1 0x20 DUP4 ADD DUP6 PUSH2 0x1152 JUMP JUMPDEST PUSH2 0x1757 PUSH1 0x40 DUP4 ADD DUP5 PUSH2 0xFCD JUMP JUMPDEST SWAP5 SWAP4 POP POP POP POP JUMP JUMPDEST PUSH1 0x0 DUP2 MLOAD SWAP1 POP PUSH2 0x176E DUP2 PUSH2 0x14D7 JUMP JUMPDEST SWAP3 SWAP2 POP POP JUMP JUMPDEST PUSH1 0x0 PUSH1 0x20 DUP3 DUP5 SUB SLT ISZERO PUSH2 0x178A JUMPI PUSH2 0x1789 PUSH2 0xEEF JUMP JUMPDEST JUMPDEST PUSH1 0x0 PUSH2 0x1798 DUP5 DUP3 DUP6 ADD PUSH2 0x175F JUMP JUMPDEST SWAP2 POP POP SWAP3 SWAP2 POP POP JUMP JUMPDEST PUSH1 0x0 PUSH1 0x40 DUP3 ADD SWAP1 POP PUSH2 0x17B6 PUSH1 0x0 DUP4 ADD DUP6 PUSH2 0x1152 JUMP JUMPDEST PUSH2 0x17C3 PUSH1 0x20 DUP4 ADD DUP5 PUSH2 0xFCD JUMP JUMPDEST SWAP4 SWAP3 POP POP POP JUMP JUMPDEST PUSH32 0x596F75206861766520746F207061792066656520746F2075736520536E697065 PUSH1 0x0 DUP3 ADD MSTORE PUSH32 0x46696E616E6365204D756C74692062756C6B2066756E6374696F6E0000000000 PUSH1 0x20 DUP3 ADD MSTORE POP JUMP JUMPDEST PUSH1 0x0 PUSH2 0x1826 PUSH1 0x3B DUP4 PUSH2 0x1585 JUMP JUMPDEST SWAP2 POP PUSH2 0x1831 DUP3 PUSH2 0x17CA JUMP JUMPDEST PUSH1 0x40 DUP3 ADD SWAP1 POP SWAP2 SWAP1 POP JUMP JUMPDEST PUSH1 0x0 PUSH1 0x20 DUP3 ADD SWAP1 POP DUP2 DUP2 SUB PUSH1 0x0 DUP4 ADD MSTORE PUSH2 0x1855 DUP2 PUSH2 0x1819 JUMP JUMPDEST SWAP1 POP SWAP2 SWAP1 POP JUMP JUMPDEST PUSH32 0x4F776E61626C653A206E6577206F776E657220697320746865207A65726F2061 PUSH1 0x0 DUP3 ADD MSTORE PUSH32 0x6464726573730000000000000000000000000000000000000000000000000000 PUSH1 0x20 DUP3 ADD MSTORE POP JUMP JUMPDEST PUSH1 0x0 PUSH2 0x18B8 PUSH1 0x26 DUP4 PUSH2 0x1585 JUMP JUMPDEST SWAP2 POP PUSH2 0x18C3 DUP3 PUSH2 0x185C JUMP JUMPDEST PUSH1 0x40 DUP3 ADD SWAP1 POP SWAP2 SWAP1 POP JUMP JUMPDEST PUSH1 0x0 PUSH1 0x20 DUP3 ADD SWAP1 POP DUP2 DUP2 SUB PUSH1 0x0 DUP4 ADD MSTORE PUSH2 0x18E7 DUP2 PUSH2 0x18AB JUMP JUMPDEST SWAP1 POP SWAP2 SWAP1 POP JUMP JUMPDEST PUSH32 0x4F776E61626C653A2063616C6C6572206973206E6F7420746865206F776E6572 PUSH1 0x0 DUP3 ADD MSTORE POP JUMP JUMPDEST PUSH1 0x0 PUSH2 0x1924 PUSH1 0x20 DUP4 PUSH2 0x1585 JUMP JUMPDEST SWAP2 POP PUSH2 0x192F DUP3 PUSH2 0x18EE JUMP JUMPDEST PUSH1 0x20 DUP3 ADD SWAP1 POP SWAP2 SWAP1 POP JUMP JUMPDEST PUSH1 0x0 PUSH1 0x20 DUP3 ADD SWAP1 POP DUP2 DUP2 SUB PUSH1 0x0 DUP4 ADD MSTORE PUSH2 0x1953 DUP2 PUSH2 0x1917 JUMP JUMPDEST SWAP1 POP SWAP2 SWAP1 POP JUMP INVALID LOG2 PUSH5 0x6970667358 0x22 SLT KECCAK256 0xAF 0xE3 0xE4 0xEE PUSH13 0xD61A2467063738441ECF2F2CA1 0xA7 0xCB PUSH7 0xC7A32005DF9375 0xB8 PUSH26 0x279264736F6C6343000810003300000000000000000000000000 "
				},
				"gasEstimates": {
					"creation": {
						"codeDepositCost": "1308800",
						"executionCost": "infinite",
						"totalCost": "infinite"
					},
					"external": {
						"BNBmultisender(address[],uint256[])": "infinite",
						"SetTokenToholdAndQuantity(address,uint256)": "49384",
						"TOKENmultisender(address,address[],uint256[])": "infinite",
						"authorizeToUse(address)": "27143",
						"authorizedusers(address)": "2890",
						"fee()": "2451",
						"feeamounts()": "2474",
						"owner()": "2545",
						"quantity()": "2475",
						"readAuthorizedUsers(address)": "2972",
						"receiver()": "2602",
						"renounceOwnership()": "30487",
						"setauthor(address,bool)": "29611",
						"setfeeToUse(uint256,address)": "49297",
						"tokenaddress()": "infinite",
						"transferOwnership(address)": "30810",
						"withdraw()": "infinite"
					}
				},
				"methodIdentifiers": {
					"BNBmultisender(address[],uint256[])": "e3cec849",
					"SetTokenToholdAndQuantity(address,uint256)": "2fc75eb0",
					"TOKENmultisender(address,address[],uint256[])": "9cbd3433",
					"authorizeToUse(address)": "4b4fb1b0",
					"authorizedusers(address)": "44b6209d",
					"fee()": "ddca3f43",
					"feeamounts()": "9c8b9e7b",
					"owner()": "8da5cb5b",
					"quantity()": "17fc45e2",
					"readAuthorizedUsers(address)": "a4df0256",
					"receiver()": "f7260d3e",
					"renounceOwnership()": "715018a6",
					"setauthor(address,bool)": "fb520af2",
					"setfeeToUse(uint256,address)": "126ccd94",
					"tokenaddress()": "3feff76d",
					"transferOwnership(address)": "f2fde38b",
					"withdraw()": "3ccfd60b"
				}
			},
			"storageLayout": {
				"storage": [
					{
						"astId": 7,
						"contract": "lastweek.sol:SnipeFinanceMultisenders",
						"label": "_owner",
						"offset": 0,
						"slot": "0",
						"type": "t_address"
					},
					{
						"astId": 220,
						"contract": "lastweek.sol:SnipeFinanceMultisenders",
						"label": "fee",
						"offset": 0,
						"slot": "1",
						"type": "t_uint256"
					},
					{
						"astId": 222,
						"contract": "lastweek.sol:SnipeFinanceMultisenders",
						"label": "receiver",
						"offset": 0,
						"slot": "2",
						"type": "t_address_payable"
					},
					{
						"astId": 224,
						"contract": "lastweek.sol:SnipeFinanceMultisenders",
						"label": "feeamounts",
						"offset": 0,
						"slot": "3",
						"type": "t_uint256"
					},
					{
						"astId": 228,
						"contract": "lastweek.sol:SnipeFinanceMultisenders",
						"label": "authorizedusers",
						"offset": 0,
						"slot": "4",
						"type": "t_mapping(t_address,t_bool)"
					},
					{
						"astId": 231,
						"contract": "lastweek.sol:SnipeFinanceMultisenders",
						"label": "tokenaddress",
						"offset": 0,
						"slot": "5",
						"type": "t_contract(IERC20)190"
					},
					{
						"astId": 233,
						"contract": "lastweek.sol:SnipeFinanceMultisenders",
						"label": "quantity",
						"offset": 0,
						"slot": "6",
						"type": "t_uint256"
					}
				],
				"types": {
					"t_address": {
						"encoding": "inplace",
						"label": "address",
						"numberOfBytes": "20"
					},
					"t_address_payable": {
						"encoding": "inplace",
						"label": "address payable",
						"numberOfBytes": "20"
					},
					"t_bool": {
						"encoding": "inplace",
						"label": "bool",
						"numberOfBytes": "1"
					},
					"t_contract(IERC20)190": {
						"encoding": "inplace",
						"label": "contract IERC20",
						"numberOfBytes": "20"
					},
					"t_mapping(t_address,t_bool)": {
						"encoding": "mapping",
						"key": "t_address",
						"label": "mapping(address => bool)",
						"numberOfBytes": "32",
						"value": "t_bool"
					},
					"t_uint256": {
						"encoding": "inplace",
						"label": "uint256",
						"numberOfBytes": "32"
					}
				}
			},
			"userdoc": {
				"kind": "user",
				"methods": {},
				"version": 1
			}
		}
	}
}