{
	"changes.sol": {
		"SnipeFinanceMultisenders": {
			"abi": [
				{
					"inputs": [],
					"stateMutability": "nonpayable",
					"type": "constructor"
				},
				{
					"anonymous": false,
					"inputs": [
						{
							"indexed": true,
							"internalType": "address",
							"name": "previousOwner",
							"type": "address"
						},
						{
							"indexed": true,
							"internalType": "address",
							"name": "newOwner",
							"type": "address"
						}
					],
					"name": "OwnershipTransferred",
					"type": "event"
				},
				{
					"inputs": [
						{
							"internalType": "address[]",
							"name": "recipients",
							"type": "address[]"
						},
						{
							"internalType": "uint256[]",
							"name": "values",
							"type": "uint256[]"
						}
					],
					"name": "BNBmultisender",
					"outputs": [],
					"stateMutability": "payable",
					"type": "function"
				},
				{
					"inputs": [
						{
							"internalType": "contract IERC20",
							"name": "token",
							"type": "address"
						},
						{
							"internalType": "uint256",
							"name": "_amount",
							"type": "uint256"
						}
					],
					"name": "SetTokenToholdAndQuantity",
					"outputs": [],
					"stateMutability": "nonpayable",
					"type": "function"
				},
				{
					"inputs": [
						{
							"internalType": "contract IERC20",
							"name": "token",
							"type": "address"
						},
						{
							"internalType": "address[]",
							"name": "recipients",
							"type": "address[]"
						},
						{
							"internalType": "uint256[]",
							"name": "values",
							"type": "uint256[]"
						}
					],
					"name": "TOKENmultisender",
					"outputs": [],
					"stateMutability": "payable",
					"type": "function"
				},
				{
					"inputs": [
						{
							"internalType": "address",
							"name": "_addr",
							"type": "address"
						}
					],
					"name": "authorizeToUse",
					"outputs": [],
					"stateMutability": "nonpayable",
					"type": "function"
				},
				{
					"inputs": [
						{
							"internalType": "address",
							"name": "",
							"type": "address"
						}
					],
					"name": "authorizedusers",
					"outputs": [
						{
							"internalType": "bool",
							"name": "",
							"type": "bool"
						}
					],
					"stateMutability": "view",
					"type": "function"
				},
				{
					"inputs": [],
					"name": "fee",
					"outputs": [
						{
							"internalType": "uint256",
							"name": "",
							"type": "uint256"
						}
					],
					"stateMutability": "view",
					"type": "function"
				},
				{
					"inputs": [],
					"name": "feeamounts",
					"outputs": [
						{
							"internalType": "uint256",
							"name": "",
							"type": "uint256"
						}
					],
					"stateMutability": "view",
					"type": "function"
				},
				{
					"inputs": [],
					"name": "getFeeDetails",
					"outputs": [
						{
							"internalType": "uint256",
							"name": "",
							"type": "uint256"
						}
					],
					"stateMutability": "view",
					"type": "function"
				},
				{
					"inputs": [],
					"name": "owner",
					"outputs": [
						{
							"internalType": "address",
							"name": "",
							"type": "address"
						}
					],
					"stateMutability": "view",
					"type": "function"
				},
				{
					"inputs": [],
					"name": "quantity",
					"outputs": [
						{
							"internalType": "uint256",
							"name": "",
							"type": "uint256"
						}
					],
					"stateMutability": "view",
					"type": "function"
				},
				{
					"inputs": [
						{
							"internalType": "address",
							"name": "user",
							"type": "address"
						}
					],
					"name": "readAuthorizedUsers",
					"outputs": [
						{
							"internalType": "bool",
							"name": "",
							"type": "bool"
						}
					],
					"stateMutability": "view",
					"type": "function"
				},
				{
					"inputs": [],
					"name": "receiver",
					"outputs": [
						{
							"internalType": "address payable",
							"name": "",
							"type": "address"
						}
					],
					"stateMutability": "view",
					"type": "function"
				},
				{
					"inputs": [],
					"name": "renounceOwnership",
					"outputs": [],
					"stateMutability": "nonpayable",
					"type": "function"
				},
				{
					"inputs": [
						{
							"internalType": "address",
							"name": "_addr",
							"type": "address"
						},
						{
							"internalType": "bool",
							"name": "_bool",
							"type": "bool"
						}
					],
					"name": "setauthor",
					"outputs": [],
					"stateMutability": "nonpayable",
					"type": "function"
				},
				{
					"inputs": [
						{
							"internalType": "uint256",
							"name": "newfee",
							"type": "uint256"
						},
						{
							"internalType": "address",
							"name": "_receiver",
							"type": "address"
						}
					],
					"name": "setfeeToUse",
					"outputs": [],
					"stateMutability": "nonpayable",
					"type": "function"
				},
				{
					"inputs": [],
					"name": "tokenaddress",
					"outputs": [
						{
							"internalType": "contract IERC20",
							"name": "",
							"type": "address"
						}
					],
					"stateMutability": "view",
					"type": "function"
				},
				{
					"inputs": [
						{
							"internalType": "address",
							"name": "newOwner",
							"type": "address"
						}
					],
					"name": "transferOwnership",
					"outputs": [],
					"stateMutability": "nonpayable",
					"type": "function"
				},
				{
					"inputs": [],
					"name": "withdraw",
					"outputs": [],
					"stateMutability": "nonpayable",
					"type": "function"
				}
			],
			"devdoc": {
				"kind": "dev",
				"methods": {
					"owner()": {
						"details": "Returns the address of the current owner."
					},
					"renounceOwnership()": {
						"details": "Leaves the contract without owner. It will not be possible to call `onlyOwner` functions. Can only be called by the current owner. NOTE: Renouncing ownership will leave the contract without an owner, thereby disabling any functionality that is only available to the owner."
					},
					"transferOwnership(address)": {
						"details": "Transfers ownership of the contract to a new account (`newOwner`). Can only be called by the current owner."
					}
				},
				"version": 1
			},
			"evm": {
				"assembly": "    /* \"changes.sol\":219:3887  contract SnipeFinanceMultisenders is Ownable {... */\n  mstore(0x40, 0x80)\n    /* \"changes.sol\":554:638  constructor() {... */\n  callvalue\n  dup1\n  iszero\n  tag_1\n  jumpi\n  0x00\n  dup1\n  revert\ntag_1:\n  pop\n    /* \"@openzeppelin/contracts/access/Ownable.sol\":936:968  _transferOwnership(_msgSender()) */\n  tag_5\n    /* \"@openzeppelin/contracts/access/Ownable.sol\":955:967  _msgSender() */\n  tag_6\n    /* \"@openzeppelin/contracts/access/Ownable.sol\":955:965  _msgSender */\n  shl(0x20, tag_7)\n    /* \"@openzeppelin/contracts/access/Ownable.sol\":955:967  _msgSender() */\n  0x20\n  shr\n  jump\t// in\ntag_6:\n    /* \"@openzeppelin/contracts/access/Ownable.sol\":936:954  _transferOwnership */\n  shl(0x20, tag_8)\n    /* \"@openzeppelin/contracts/access/Ownable.sol\":936:968  _transferOwnership(_msgSender()) */\n  0x20\n  shr\n  jump\t// in\ntag_5:\n    /* \"changes.sol\":597:604  owner() */\n  tag_10\n    /* \"changes.sol\":597:602  owner */\n  shl(0x20, tag_11)\n    /* \"changes.sol\":597:604  owner() */\n  0x20\n  shr\n  jump\t// in\ntag_10:\n    /* \"changes.sol\":578:586  receiver */\n  0x02\n  0x00\n    /* \"changes.sol\":578:605  receiver = payable(owner()) */\n  0x0100\n  exp\n  dup2\n  sload\n  dup2\n  0xffffffffffffffffffffffffffffffffffffffff\n  mul\n  not\n  and\n  swap1\n  dup4\n  0xffffffffffffffffffffffffffffffffffffffff\n  and\n  mul\n  or\n  swap1\n  sstore\n  pop\n    /* \"changes.sol\":621:631  1 * 10**14 */\n  0x5af3107a4000\n    /* \"changes.sol\":615:618  fee */\n  0x01\n    /* \"changes.sol\":615:631  fee = 1 * 10**14 */\n  dup2\n  swap1\n  sstore\n  pop\n    /* \"changes.sol\":219:3887  contract SnipeFinanceMultisenders is Ownable {... */\n  jump(tag_12)\n    /* \"@openzeppelin/contracts/utils/Context.sol\":640:736  function _msgSender() internal view virtual returns (address) {... */\ntag_7:\n    /* \"@openzeppelin/contracts/utils/Context.sol\":693:700  address */\n  0x00\n    /* \"@openzeppelin/contracts/utils/Context.sol\":719:729  msg.sender */\n  caller\n    /* \"@openzeppelin/contracts/utils/Context.sol\":712:729  return msg.sender */\n  swap1\n  pop\n    /* \"@openzeppelin/contracts/utils/Context.sol\":640:736  function _msgSender() internal view virtual returns (address) {... */\n  swap1\n  jump\t// out\n    /* \"@openzeppelin/contracts/access/Ownable.sol\":2426:2613  function _transferOwnership(address newOwner) internal virtual {... */\ntag_8:\n    /* \"@openzeppelin/contracts/access/Ownable.sol\":2499:2515  address oldOwner */\n  0x00\n    /* \"@openzeppelin/contracts/access/Ownable.sol\":2518:2524  _owner */\n  dup1\n  0x00\n  swap1\n  sload\n  swap1\n  0x0100\n  exp\n  swap1\n  div\n  0xffffffffffffffffffffffffffffffffffffffff\n  and\n    /* \"@openzeppelin/contracts/access/Ownable.sol\":2499:2524  address oldOwner = _owner */\n  swap1\n  pop\n    /* \"@openzeppelin/contracts/access/Ownable.sol\":2543:2551  newOwner */\n  dup2\n    /* \"@openzeppelin/contracts/access/Ownable.sol\":2534:2540  _owner */\n  0x00\n  dup1\n    /* \"@openzeppelin/contracts/access/Ownable.sol\":2534:2551  _owner = newOwner */\n  0x0100\n  exp\n  dup2\n  sload\n  dup2\n  0xffffffffffffffffffffffffffffffffffffffff\n  mul\n  not\n  and\n  swap1\n  dup4\n  0xffffffffffffffffffffffffffffffffffffffff\n  and\n  mul\n  or\n  swap1\n  sstore\n  pop\n    /* \"@openzeppelin/contracts/access/Ownable.sol\":2597:2605  newOwner */\n  dup2\n    /* \"@openzeppelin/contracts/access/Ownable.sol\":2566:2606  OwnershipTransferred(oldOwner, newOwner) */\n  0xffffffffffffffffffffffffffffffffffffffff\n  and\n    /* \"@openzeppelin/contracts/access/Ownable.sol\":2587:2595  oldOwner */\n  dup2\n    /* \"@openzeppelin/contracts/access/Ownable.sol\":2566:2606  OwnershipTransferred(oldOwner, newOwner) */\n  0xffffffffffffffffffffffffffffffffffffffff\n  and\n  0x8be0079c531659141344cd1fd0a4f28419497f9722a3daafe3b4186f6b6457e0\n  mload(0x40)\n  mload(0x40)\n  dup1\n  swap2\n  sub\n  swap1\n  log3\n    /* \"@openzeppelin/contracts/access/Ownable.sol\":2489:2613  {... */\n  pop\n    /* \"@openzeppelin/contracts/access/Ownable.sol\":2426:2613  function _transferOwnership(address newOwner) internal virtual {... */\n  pop\n  jump\t// out\n    /* \"@openzeppelin/contracts/access/Ownable.sol\":1201:1286  function owner() public view virtual returns (address) {... */\ntag_11:\n    /* \"@openzeppelin/contracts/access/Ownable.sol\":1247:1254  address */\n  0x00\n    /* \"@openzeppelin/contracts/access/Ownable.sol\":1273:1279  _owner */\n  dup1\n  0x00\n  swap1\n  sload\n  swap1\n  0x0100\n  exp\n  swap1\n  div\n  0xffffffffffffffffffffffffffffffffffffffff\n  and\n    /* \"@openzeppelin/contracts/access/Ownable.sol\":1266:1279  return _owner */\n  swap1\n  pop\n    /* \"@openzeppelin/contracts/access/Ownable.sol\":1201:1286  function owner() public view virtual returns (address) {... */\n  swap1\n  jump\t// out\n    /* \"changes.sol\":219:3887  contract SnipeFinanceMultisenders is Ownable {... */\ntag_12:\n  dataSize(sub_0)\n  dup1\n  dataOffset(sub_0)\n  0x00\n  codecopy\n  0x00\n  return\nstop\n\nsub_0: assembly {\n        /* \"changes.sol\":219:3887  contract SnipeFinanceMultisenders is Ownable {... */\n      mstore(0x40, 0x80)\n      jumpi(tag_1, lt(calldatasize, 0x04))\n      shr(0xe0, calldataload(0x00))\n      dup1\n      0x9c8b9e7b\n      gt\n      tag_20\n      jumpi\n      dup1\n      0xddca3f43\n      gt\n      tag_21\n      jumpi\n      dup1\n      0xddca3f43\n      eq\n      tag_15\n      jumpi\n      dup1\n      0xe3cec849\n      eq\n      tag_16\n      jumpi\n      dup1\n      0xf2fde38b\n      eq\n      tag_17\n      jumpi\n      dup1\n      0xf7260d3e\n      eq\n      tag_18\n      jumpi\n      dup1\n      0xfb520af2\n      eq\n      tag_19\n      jumpi\n      jump(tag_1)\n    tag_21:\n      dup1\n      0x9c8b9e7b\n      eq\n      tag_11\n      jumpi\n      dup1\n      0x9cbd3433\n      eq\n      tag_12\n      jumpi\n      dup1\n      0xa4df0256\n      eq\n      tag_13\n      jumpi\n      dup1\n      0xb810c636\n      eq\n      tag_14\n      jumpi\n      jump(tag_1)\n    tag_20:\n      dup1\n      0x3feff76d\n      gt\n      tag_22\n      jumpi\n      dup1\n      0x3feff76d\n      eq\n      tag_6\n      jumpi\n      dup1\n      0x44b6209d\n      eq\n      tag_7\n      jumpi\n      dup1\n      0x4b4fb1b0\n      eq\n      tag_8\n      jumpi\n      dup1\n      0x715018a6\n      eq\n      tag_9\n      jumpi\n      dup1\n      0x8da5cb5b\n      eq\n      tag_10\n      jumpi\n      jump(tag_1)\n    tag_22:\n      dup1\n      0x126ccd94\n      eq\n      tag_2\n      jumpi\n      dup1\n      0x17fc45e2\n      eq\n      tag_3\n      jumpi\n      dup1\n      0x2fc75eb0\n      eq\n      tag_4\n      jumpi\n      dup1\n      0x3ccfd60b\n      eq\n      tag_5\n      jumpi\n    tag_1:\n      0x00\n      dup1\n      revert\n        /* \"changes.sol\":2726:2869  function setfeeToUse(uint256 newfee, address _receiver) external onlyOwner {... */\n    tag_2:\n      callvalue\n      dup1\n      iszero\n      tag_23\n      jumpi\n      0x00\n      dup1\n      revert\n    tag_23:\n      pop\n      tag_24\n      0x04\n      dup1\n      calldatasize\n      sub\n      dup2\n      add\n      swap1\n      tag_25\n      swap2\n      swap1\n      tag_26\n      jump\t// in\n    tag_25:\n      tag_27\n      jump\t// in\n    tag_24:\n      stop\n        /* \"changes.sol\":492:515  uint256 public quantity */\n    tag_3:\n      callvalue\n      dup1\n      iszero\n      tag_28\n      jumpi\n      0x00\n      dup1\n      revert\n    tag_28:\n      pop\n      tag_29\n      tag_30\n      jump\t// in\n    tag_29:\n      mload(0x40)\n      tag_31\n      swap2\n      swap1\n      tag_32\n      jump\t// in\n    tag_31:\n      mload(0x40)\n      dup1\n      swap2\n      sub\n      swap1\n      return\n        /* \"changes.sol\":3477:3647  function SetTokenToholdAndQuantity(IERC20 token, uint256 _amount)... */\n    tag_4:\n      callvalue\n      dup1\n      iszero\n      tag_33\n      jumpi\n      0x00\n      dup1\n      revert\n    tag_33:\n      pop\n      tag_34\n      0x04\n      dup1\n      calldatasize\n      sub\n      dup2\n      add\n      swap1\n      tag_35\n      swap2\n      swap1\n      tag_36\n      jump\t// in\n    tag_35:\n      tag_37\n      jump\t// in\n    tag_34:\n      stop\n        /* \"changes.sol\":2927:3043  function withdraw() external onlyOwner {... */\n    tag_5:\n      callvalue\n      dup1\n      iszero\n      tag_38\n      jumpi\n      0x00\n      dup1\n      revert\n    tag_38:\n      pop\n      tag_39\n      tag_40\n      jump\t// in\n    tag_39:\n      stop\n        /* \"changes.sol\":415:441  IERC20 public tokenaddress */\n    tag_6:\n      callvalue\n      dup1\n      iszero\n      tag_41\n      jumpi\n      0x00\n      dup1\n      revert\n    tag_41:\n      pop\n      tag_42\n      tag_43\n      jump\t// in\n    tag_42:\n      mload(0x40)\n      tag_44\n      swap2\n      swap1\n      tag_45\n      jump\t// in\n    tag_44:\n      mload(0x40)\n      dup1\n      swap2\n      sub\n      swap1\n      return\n        /* \"changes.sol\":362:409  mapping(address => bool) public authorizedusers */\n    tag_7:\n      callvalue\n      dup1\n      iszero\n      tag_46\n      jumpi\n      0x00\n      dup1\n      revert\n    tag_46:\n      pop\n      tag_47\n      0x04\n      dup1\n      calldatasize\n      sub\n      dup2\n      add\n      swap1\n      tag_48\n      swap2\n      swap1\n      tag_49\n      jump\t// in\n    tag_48:\n      tag_50\n      jump\t// in\n    tag_47:\n      mload(0x40)\n      tag_51\n      swap2\n      swap1\n      tag_52\n      jump\t// in\n    tag_51:\n      mload(0x40)\n      dup1\n      swap2\n      sub\n      swap1\n      return\n        /* \"changes.sol\":3087:3191  function authorizeToUse(address _addr) external onlyOwner {... */\n    tag_8:\n      callvalue\n      dup1\n      iszero\n      tag_53\n      jumpi\n      0x00\n      dup1\n      revert\n    tag_53:\n      pop\n      tag_54\n      0x04\n      dup1\n      calldatasize\n      sub\n      dup2\n      add\n      swap1\n      tag_55\n      swap2\n      swap1\n      tag_49\n      jump\t// in\n    tag_55:\n      tag_56\n      jump\t// in\n    tag_54:\n      stop\n        /* \"@openzeppelin/contracts/access/Ownable.sol\":1824:1925  function renounceOwnership() public virtual onlyOwner {... */\n    tag_9:\n      callvalue\n      dup1\n      iszero\n      tag_57\n      jumpi\n      0x00\n      dup1\n      revert\n    tag_57:\n      pop\n      tag_58\n      tag_59\n      jump\t// in\n    tag_58:\n      stop\n        /* \"@openzeppelin/contracts/access/Ownable.sol\":1201:1286  function owner() public view virtual returns (address) {... */\n    tag_10:\n      callvalue\n      dup1\n      iszero\n      tag_60\n      jumpi\n      0x00\n      dup1\n      revert\n    tag_60:\n      pop\n      tag_61\n      tag_62\n      jump\t// in\n    tag_61:\n      mload(0x40)\n      tag_63\n      swap2\n      swap1\n      tag_64\n      jump\t// in\n    tag_63:\n      mload(0x40)\n      dup1\n      swap2\n      sub\n      swap1\n      return\n        /* \"changes.sol\":331:356  uint256 public feeamounts */\n    tag_11:\n      callvalue\n      dup1\n      iszero\n      tag_65\n      jumpi\n      0x00\n      dup1\n      revert\n    tag_65:\n      pop\n      tag_66\n      tag_67\n      jump\t// in\n    tag_66:\n      mload(0x40)\n      tag_68\n      swap2\n      swap1\n      tag_32\n      jump\t// in\n    tag_68:\n      mload(0x40)\n      dup1\n      swap2\n      sub\n      swap1\n      return\n        /* \"changes.sol\":1374:2685  function TOKENmultisender(... */\n    tag_12:\n      tag_69\n      0x04\n      dup1\n      calldatasize\n      sub\n      dup2\n      add\n      swap1\n      tag_70\n      swap2\n      swap1\n      tag_71\n      jump\t// in\n    tag_70:\n      tag_72\n      jump\t// in\n    tag_69:\n      stop\n        /* \"changes.sol\":3653:3768  function readAuthorizedUsers(address user) public view returns (bool) {... */\n    tag_13:\n      callvalue\n      dup1\n      iszero\n      tag_73\n      jumpi\n      0x00\n      dup1\n      revert\n    tag_73:\n      pop\n      tag_74\n      0x04\n      dup1\n      calldatasize\n      sub\n      dup2\n      add\n      swap1\n      tag_75\n      swap2\n      swap1\n      tag_49\n      jump\t// in\n    tag_75:\n      tag_76\n      jump\t// in\n    tag_74:\n      mload(0x40)\n      tag_77\n      swap2\n      swap1\n      tag_52\n      jump\t// in\n    tag_77:\n      mload(0x40)\n      dup1\n      swap2\n      sub\n      swap1\n      return\n        /* \"changes.sol\":3803:3885  function getFeeDetails() public view returns (uint256) {... */\n    tag_14:\n      callvalue\n      dup1\n      iszero\n      tag_78\n      jumpi\n      0x00\n      dup1\n      revert\n    tag_78:\n      pop\n      tag_79\n      tag_80\n      jump\t// in\n    tag_79:\n      mload(0x40)\n      tag_81\n      swap2\n      swap1\n      tag_32\n      jump\t// in\n    tag_81:\n      mload(0x40)\n      dup1\n      swap2\n      sub\n      swap1\n      return\n        /* \"changes.sol\":270:288  uint256 public fee */\n    tag_15:\n      callvalue\n      dup1\n      iszero\n      tag_82\n      jumpi\n      0x00\n      dup1\n      revert\n    tag_82:\n      pop\n      tag_83\n      tag_84\n      jump\t// in\n    tag_83:\n      mload(0x40)\n      tag_85\n      swap2\n      swap1\n      tag_32\n      jump\t// in\n    tag_85:\n      mload(0x40)\n      dup1\n      swap2\n      sub\n      swap1\n      return\n        /* \"changes.sol\":644:1368  function BNBmultisender(... */\n    tag_16:\n      tag_86\n      0x04\n      dup1\n      calldatasize\n      sub\n      dup2\n      add\n      swap1\n      tag_87\n      swap2\n      swap1\n      tag_88\n      jump\t// in\n    tag_87:\n      tag_89\n      jump\t// in\n    tag_86:\n      stop\n        /* \"@openzeppelin/contracts/access/Ownable.sol\":2074:2272  function transferOwnership(address newOwner) public virtual onlyOwner {... */\n    tag_17:\n      callvalue\n      dup1\n      iszero\n      tag_90\n      jumpi\n      0x00\n      dup1\n      revert\n    tag_90:\n      pop\n      tag_91\n      0x04\n      dup1\n      calldatasize\n      sub\n      dup2\n      add\n      swap1\n      tag_92\n      swap2\n      swap1\n      tag_49\n      jump\t// in\n    tag_92:\n      tag_93\n      jump\t// in\n    tag_91:\n      stop\n        /* \"changes.sol\":294:325  address payable public receiver */\n    tag_18:\n      callvalue\n      dup1\n      iszero\n      tag_94\n      jumpi\n      0x00\n      dup1\n      revert\n    tag_94:\n      pop\n      tag_95\n      tag_96\n      jump\t// in\n    tag_95:\n      mload(0x40)\n      tag_97\n      swap2\n      swap1\n      tag_98\n      jump\t// in\n    tag_97:\n      mload(0x40)\n      dup1\n      swap2\n      sub\n      swap1\n      return\n        /* \"changes.sol\":3269:3433  function setauthor(address _addr, bool _bool) external onlyOwner {... */\n    tag_19:\n      callvalue\n      dup1\n      iszero\n      tag_99\n      jumpi\n      0x00\n      dup1\n      revert\n    tag_99:\n      pop\n      tag_100\n      0x04\n      dup1\n      calldatasize\n      sub\n      dup2\n      add\n      swap1\n      tag_101\n      swap2\n      swap1\n      tag_102\n      jump\t// in\n    tag_101:\n      tag_103\n      jump\t// in\n    tag_100:\n      stop\n        /* \"changes.sol\":2726:2869  function setfeeToUse(uint256 newfee, address _receiver) external onlyOwner {... */\n    tag_27:\n        /* \"@openzeppelin/contracts/access/Ownable.sol\":1094:1107  _checkOwner() */\n      tag_105\n        /* \"@openzeppelin/contracts/access/Ownable.sol\":1094:1105  _checkOwner */\n      tag_106\n        /* \"@openzeppelin/contracts/access/Ownable.sol\":1094:1107  _checkOwner() */\n      jump\t// in\n    tag_105:\n        /* \"changes.sol\":2817:2823  newfee */\n      dup2\n        /* \"changes.sol\":2811:2814  fee */\n      0x01\n        /* \"changes.sol\":2811:2823  fee = newfee */\n      dup2\n      swap1\n      sstore\n      pop\n        /* \"changes.sol\":2852:2861  _receiver */\n      dup1\n        /* \"changes.sol\":2833:2841  receiver */\n      0x02\n      0x00\n        /* \"changes.sol\":2833:2862  receiver = payable(_receiver) */\n      0x0100\n      exp\n      dup2\n      sload\n      dup2\n      0xffffffffffffffffffffffffffffffffffffffff\n      mul\n      not\n      and\n      swap1\n      dup4\n      0xffffffffffffffffffffffffffffffffffffffff\n      and\n      mul\n      or\n      swap1\n      sstore\n      pop\n        /* \"changes.sol\":2726:2869  function setfeeToUse(uint256 newfee, address _receiver) external onlyOwner {... */\n      pop\n      pop\n      jump\t// out\n        /* \"changes.sol\":492:515  uint256 public quantity */\n    tag_30:\n      sload(0x06)\n      dup2\n      jump\t// out\n        /* \"changes.sol\":3477:3647  function SetTokenToholdAndQuantity(IERC20 token, uint256 _amount)... */\n    tag_37:\n        /* \"@openzeppelin/contracts/access/Ownable.sol\":1094:1107  _checkOwner() */\n      tag_109\n        /* \"@openzeppelin/contracts/access/Ownable.sol\":1094:1105  _checkOwner */\n      tag_106\n        /* \"@openzeppelin/contracts/access/Ownable.sol\":1094:1107  _checkOwner() */\n      jump\t// in\n    tag_109:\n        /* \"changes.sol\":3607:3612  token */\n      dup2\n        /* \"changes.sol\":3592:3604  tokenaddress */\n      0x05\n      0x00\n        /* \"changes.sol\":3592:3612  tokenaddress = token */\n      0x0100\n      exp\n      dup2\n      sload\n      dup2\n      0xffffffffffffffffffffffffffffffffffffffff\n      mul\n      not\n      and\n      swap1\n      dup4\n      0xffffffffffffffffffffffffffffffffffffffff\n      and\n      mul\n      or\n      swap1\n      sstore\n      pop\n        /* \"changes.sol\":3633:3640  _amount */\n      dup1\n        /* \"changes.sol\":3622:3630  quantity */\n      0x06\n        /* \"changes.sol\":3622:3640  quantity = _amount */\n      dup2\n      swap1\n      sstore\n      pop\n        /* \"changes.sol\":3477:3647  function SetTokenToholdAndQuantity(IERC20 token, uint256 _amount)... */\n      pop\n      pop\n      jump\t// out\n        /* \"changes.sol\":2927:3043  function withdraw() external onlyOwner {... */\n    tag_40:\n        /* \"@openzeppelin/contracts/access/Ownable.sol\":1094:1107  _checkOwner() */\n      tag_112\n        /* \"@openzeppelin/contracts/access/Ownable.sol\":1094:1105  _checkOwner */\n      tag_106\n        /* \"@openzeppelin/contracts/access/Ownable.sol\":1094:1107  _checkOwner() */\n      jump\t// in\n    tag_112:\n        /* \"changes.sol\":2993:2994  0 */\n      0x00\n        /* \"changes.sol\":2980:2990  feeamounts */\n      sload(0x03)\n        /* \"changes.sol\":2980:2994  feeamounts > 0 */\n      gt\n        /* \"changes.sol\":2976:3036  if (feeamounts > 0) payable(msg.sender).transfer(feeamounts) */\n      iszero\n      tag_114\n      jumpi\n        /* \"changes.sol\":3004:3014  msg.sender */\n      caller\n        /* \"changes.sol\":2996:3024  payable(msg.sender).transfer */\n      0xffffffffffffffffffffffffffffffffffffffff\n      and\n        /* \"changes.sol\":2996:3036  payable(msg.sender).transfer(feeamounts) */\n      0x08fc\n        /* \"changes.sol\":3025:3035  feeamounts */\n      sload(0x03)\n        /* \"changes.sol\":2996:3036  payable(msg.sender).transfer(feeamounts) */\n      swap1\n      dup2\n      iszero\n      mul\n      swap1\n      mload(0x40)\n      0x00\n      mload(0x40)\n      dup1\n      dup4\n      sub\n      dup2\n      dup6\n      dup9\n      dup9\n      call\n      swap4\n      pop\n      pop\n      pop\n      pop\n      iszero\n      dup1\n      iszero\n      tag_116\n      jumpi\n      returndatasize\n      0x00\n      dup1\n      returndatacopy\n      revert(0x00, returndatasize)\n    tag_116:\n      pop\n        /* \"changes.sol\":2976:3036  if (feeamounts > 0) payable(msg.sender).transfer(feeamounts) */\n    tag_114:\n        /* \"changes.sol\":2927:3043  function withdraw() external onlyOwner {... */\n      jump\t// out\n        /* \"changes.sol\":415:441  IERC20 public tokenaddress */\n    tag_43:\n      0x05\n      0x00\n      swap1\n      sload\n      swap1\n      0x0100\n      exp\n      swap1\n      div\n      0xffffffffffffffffffffffffffffffffffffffff\n      and\n      dup2\n      jump\t// out\n        /* \"changes.sol\":362:409  mapping(address => bool) public authorizedusers */\n    tag_50:\n      mstore(0x20, 0x04)\n      dup1\n      0x00\n      mstore\n      keccak256(0x00, 0x40)\n      0x00\n      swap2\n      pop\n      sload\n      swap1\n      0x0100\n      exp\n      swap1\n      div\n      0xff\n      and\n      dup2\n      jump\t// out\n        /* \"changes.sol\":3087:3191  function authorizeToUse(address _addr) external onlyOwner {... */\n    tag_56:\n        /* \"@openzeppelin/contracts/access/Ownable.sol\":1094:1107  _checkOwner() */\n      tag_118\n        /* \"@openzeppelin/contracts/access/Ownable.sol\":1094:1105  _checkOwner */\n      tag_106\n        /* \"@openzeppelin/contracts/access/Ownable.sol\":1094:1107  _checkOwner() */\n      jump\t// in\n    tag_118:\n        /* \"changes.sol\":3180:3184  true */\n      0x01\n        /* \"changes.sol\":3155:3170  authorizedusers */\n      0x04\n        /* \"changes.sol\":3155:3177  authorizedusers[_addr] */\n      0x00\n        /* \"changes.sol\":3171:3176  _addr */\n      dup4\n        /* \"changes.sol\":3155:3177  authorizedusers[_addr] */\n      0xffffffffffffffffffffffffffffffffffffffff\n      and\n      0xffffffffffffffffffffffffffffffffffffffff\n      and\n      dup2\n      mstore\n      0x20\n      add\n      swap1\n      dup2\n      mstore\n      0x20\n      add\n      0x00\n      keccak256\n      0x00\n        /* \"changes.sol\":3155:3184  authorizedusers[_addr] = true */\n      0x0100\n      exp\n      dup2\n      sload\n      dup2\n      0xff\n      mul\n      not\n      and\n      swap1\n      dup4\n      iszero\n      iszero\n      mul\n      or\n      swap1\n      sstore\n      pop\n        /* \"changes.sol\":3087:3191  function authorizeToUse(address _addr) external onlyOwner {... */\n      pop\n      jump\t// out\n        /* \"@openzeppelin/contracts/access/Ownable.sol\":1824:1925  function renounceOwnership() public virtual onlyOwner {... */\n    tag_59:\n        /* \"@openzeppelin/contracts/access/Ownable.sol\":1094:1107  _checkOwner() */\n      tag_121\n        /* \"@openzeppelin/contracts/access/Ownable.sol\":1094:1105  _checkOwner */\n      tag_106\n        /* \"@openzeppelin/contracts/access/Ownable.sol\":1094:1107  _checkOwner() */\n      jump\t// in\n    tag_121:\n        /* \"@openzeppelin/contracts/access/Ownable.sol\":1888:1918  _transferOwnership(address(0)) */\n      tag_123\n        /* \"@openzeppelin/contracts/access/Ownable.sol\":1915:1916  0 */\n      0x00\n        /* \"@openzeppelin/contracts/access/Ownable.sol\":1888:1906  _transferOwnership */\n      tag_124\n        /* \"@openzeppelin/contracts/access/Ownable.sol\":1888:1918  _transferOwnership(address(0)) */\n      jump\t// in\n    tag_123:\n        /* \"@openzeppelin/contracts/access/Ownable.sol\":1824:1925  function renounceOwnership() public virtual onlyOwner {... */\n      jump\t// out\n        /* \"@openzeppelin/contracts/access/Ownable.sol\":1201:1286  function owner() public view virtual returns (address) {... */\n    tag_62:\n        /* \"@openzeppelin/contracts/access/Ownable.sol\":1247:1254  address */\n      0x00\n        /* \"@openzeppelin/contracts/access/Ownable.sol\":1273:1279  _owner */\n      dup1\n      0x00\n      swap1\n      sload\n      swap1\n      0x0100\n      exp\n      swap1\n      div\n      0xffffffffffffffffffffffffffffffffffffffff\n      and\n        /* \"@openzeppelin/contracts/access/Ownable.sol\":1266:1279  return _owner */\n      swap1\n      pop\n        /* \"@openzeppelin/contracts/access/Ownable.sol\":1201:1286  function owner() public view virtual returns (address) {... */\n      swap1\n      jump\t// out\n        /* \"changes.sol\":331:356  uint256 public feeamounts */\n    tag_67:\n      sload(0x03)\n      dup2\n      jump\t// out\n        /* \"changes.sol\":1374:2685  function TOKENmultisender(... */\n    tag_72:\n        /* \"changes.sol\":1595:1604  uint256 i */\n      0x00\n        /* \"changes.sol\":1590:1689  for (uint256 i = 0; i < values.length; i++) {... */\n    tag_127:\n        /* \"changes.sol\":1614:1620  values */\n      dup2\n        /* \"changes.sol\":1614:1627  values.length */\n      mload\n        /* \"changes.sol\":1610:1611  i */\n      dup2\n        /* \"changes.sol\":1610:1627  i < values.length */\n      lt\n        /* \"changes.sol\":1590:1689  for (uint256 i = 0; i < values.length; i++) {... */\n      iszero\n      tag_128\n      jumpi\n        /* \"changes.sol\":1672:1678  10**18 */\n      0x0de0b6b3a7640000\n        /* \"changes.sol\":1660:1666  values */\n      dup3\n        /* \"changes.sol\":1667:1668  i */\n      dup3\n        /* \"changes.sol\":1660:1669  values[i] */\n      dup2\n      mload\n      dup2\n      lt\n      tag_130\n      jumpi\n      tag_131\n      tag_132\n      jump\t// in\n    tag_131:\n    tag_130:\n      0x20\n      mul\n      0x20\n      add\n      add\n      mload\n        /* \"changes.sol\":1660:1678  values[i] * 10**18 */\n      tag_133\n      swap2\n      swap1\n      tag_134\n      jump\t// in\n    tag_133:\n        /* \"changes.sol\":1648:1654  values */\n      dup3\n        /* \"changes.sol\":1655:1656  i */\n      dup3\n        /* \"changes.sol\":1648:1657  values[i] */\n      dup2\n      mload\n      dup2\n      lt\n      tag_135\n      jumpi\n      tag_136\n      tag_132\n      jump\t// in\n    tag_136:\n    tag_135:\n      0x20\n      mul\n      0x20\n      add\n      add\n        /* \"changes.sol\":1648:1678  values[i] = values[i] * 10**18 */\n      dup2\n      dup2\n      mstore\n      pop\n      pop\n        /* \"changes.sol\":1629:1632  i++ */\n      dup1\n      dup1\n      tag_137\n      swap1\n      tag_138\n      jump\t// in\n    tag_137:\n      swap2\n      pop\n      pop\n        /* \"changes.sol\":1590:1689  for (uint256 i = 0; i < values.length; i++) {... */\n      jump(tag_127)\n    tag_128:\n      pop\n        /* \"changes.sol\":1727:1733  values */\n      dup1\n        /* \"changes.sol\":1727:1740  values.length */\n      mload\n        /* \"changes.sol\":1706:1716  recipients */\n      dup3\n        /* \"changes.sol\":1706:1723  recipients.length */\n      mload\n        /* \"changes.sol\":1706:1740  recipients.length == values.length */\n      eq\n        /* \"changes.sol\":1698:1763  require(recipients.length == values.length, \"invalid input size\") */\n      tag_139\n      jumpi\n      mload(0x40)\n      0x08c379a000000000000000000000000000000000000000000000000000000000\n      dup2\n      mstore\n      0x04\n      add\n      tag_140\n      swap1\n      tag_141\n      jump\t// in\n    tag_140:\n      mload(0x40)\n      dup1\n      swap2\n      sub\n      swap1\n      revert\n    tag_139:\n        /* \"changes.sol\":1904:1919  authorizedusers */\n      0x04\n        /* \"changes.sol\":1904:1931  authorizedusers[msg.sender] */\n      0x00\n        /* \"changes.sol\":1920:1930  msg.sender */\n      caller\n        /* \"changes.sol\":1904:1931  authorizedusers[msg.sender] */\n      0xffffffffffffffffffffffffffffffffffffffff\n      and\n      0xffffffffffffffffffffffffffffffffffffffff\n      and\n      dup2\n      mstore\n      0x20\n      add\n      swap1\n      dup2\n      mstore\n      0x20\n      add\n      0x00\n      keccak256\n      0x00\n      swap1\n      sload\n      swap1\n      0x0100\n      exp\n      swap1\n      div\n      0xff\n      and\n        /* \"changes.sol\":1903:1931  !authorizedusers[msg.sender] */\n      iszero\n        /* \"changes.sol\":1903:1985  !authorizedusers[msg.sender] &&... */\n      dup1\n      iszero\n      tag_142\n      jumpi\n      pop\n        /* \"changes.sol\":1977:1985  quantity */\n      sload(0x06)\n        /* \"changes.sol\":1947:1952  token */\n      dup4\n        /* \"changes.sol\":1947:1962  token.balanceOf */\n      0xffffffffffffffffffffffffffffffffffffffff\n      and\n      0x70a08231\n        /* \"changes.sol\":1963:1973  msg.sender */\n      caller\n        /* \"changes.sol\":1947:1974  token.balanceOf(msg.sender) */\n      mload(0x40)\n      dup3\n      0xffffffff\n      and\n      0xe0\n      shl\n      dup2\n      mstore\n      0x04\n      add\n      tag_143\n      swap2\n      swap1\n      tag_64\n      jump\t// in\n    tag_143:\n      0x20\n      mload(0x40)\n      dup1\n      dup4\n      sub\n      dup2\n      dup7\n      gas\n      staticcall\n      iszero\n      dup1\n      iszero\n      tag_145\n      jumpi\n      returndatasize\n      0x00\n      dup1\n      returndatacopy\n      revert(0x00, returndatasize)\n    tag_145:\n      pop\n      pop\n      pop\n      pop\n      mload(0x40)\n      returndatasize\n      not(0x1f)\n      0x1f\n      dup3\n      add\n      and\n      dup3\n      add\n      dup1\n      0x40\n      mstore\n      pop\n      dup2\n      add\n      swap1\n      tag_146\n      swap2\n      swap1\n      tag_147\n      jump\t// in\n    tag_146:\n        /* \"changes.sol\":1947:1985  token.balanceOf(msg.sender) < quantity */\n      lt\n        /* \"changes.sol\":1903:1985  !authorizedusers[msg.sender] &&... */\n    tag_142:\n        /* \"changes.sol\":1886:2679  if (... */\n      iszero\n      tag_148\n      jumpi\n        /* \"changes.sol\":2024:2027  fee */\n      sload(0x01)\n        /* \"changes.sol\":2010:2020  feeamounts */\n      0x03\n      0x00\n        /* \"changes.sol\":2010:2027  feeamounts += fee */\n      dup3\n      dup3\n      sload\n      tag_149\n      swap2\n      swap1\n      tag_150\n      jump\t// in\n    tag_149:\n      swap3\n      pop\n      pop\n      dup2\n      swap1\n      sstore\n      pop\n        /* \"changes.sol\":2049:2057  receiver */\n      0x02\n      0x00\n      swap1\n      sload\n      swap1\n      0x0100\n      exp\n      swap1\n      div\n      0xffffffffffffffffffffffffffffffffffffffff\n      and\n        /* \"changes.sol\":2041:2067  payable(receiver).transfer */\n      0xffffffffffffffffffffffffffffffffffffffff\n      and\n        /* \"changes.sol\":2041:2072  payable(receiver).transfer(fee) */\n      0x08fc\n        /* \"changes.sol\":2068:2071  fee */\n      sload(0x01)\n        /* \"changes.sol\":2041:2072  payable(receiver).transfer(fee) */\n      swap1\n      dup2\n      iszero\n      mul\n      swap1\n      mload(0x40)\n      0x00\n      mload(0x40)\n      dup1\n      dup4\n      sub\n      dup2\n      dup6\n      dup9\n      dup9\n      call\n      swap4\n      pop\n      pop\n      pop\n      pop\n      iszero\n      dup1\n      iszero\n      tag_152\n      jumpi\n      returndatasize\n      0x00\n      dup1\n      returndatacopy\n      revert(0x00, returndatasize)\n    tag_152:\n      pop\n        /* \"changes.sol\":2091:2100  uint256 i */\n      0x00\n        /* \"changes.sol\":2086:2295  for (uint256 i = 0; i < values.length; i++) {... */\n    tag_153:\n        /* \"changes.sol\":2110:2116  values */\n      dup2\n        /* \"changes.sol\":2110:2123  values.length */\n      mload\n        /* \"changes.sol\":2106:2107  i */\n      dup2\n        /* \"changes.sol\":2106:2123  i < values.length */\n      lt\n        /* \"changes.sol\":2086:2295  for (uint256 i = 0; i < values.length; i++) {... */\n      iszero\n      tag_154\n      jumpi\n        /* \"changes.sol\":2177:2182  token */\n      dup4\n        /* \"changes.sol\":2177:2195  token.transferFrom */\n      0xffffffffffffffffffffffffffffffffffffffff\n      and\n      0x23b872dd\n        /* \"changes.sol\":2196:2206  msg.sender */\n      caller\n        /* \"changes.sol\":2208:2218  recipients */\n      dup6\n        /* \"changes.sol\":2219:2220  i */\n      dup5\n        /* \"changes.sol\":2208:2221  recipients[i] */\n      dup2\n      mload\n      dup2\n      lt\n      tag_156\n      jumpi\n      tag_157\n      tag_132\n      jump\t// in\n    tag_157:\n    tag_156:\n      0x20\n      mul\n      0x20\n      add\n      add\n      mload\n        /* \"changes.sol\":2223:2229  values */\n      dup6\n        /* \"changes.sol\":2230:2231  i */\n      dup6\n        /* \"changes.sol\":2223:2232  values[i] */\n      dup2\n      mload\n      dup2\n      lt\n      tag_158\n      jumpi\n      tag_159\n      tag_132\n      jump\t// in\n    tag_159:\n    tag_158:\n      0x20\n      mul\n      0x20\n      add\n      add\n      mload\n        /* \"changes.sol\":2177:2233  token.transferFrom(msg.sender, recipients[i], values[i]) */\n      mload(0x40)\n      dup5\n      0xffffffff\n      and\n      0xe0\n      shl\n      dup2\n      mstore\n      0x04\n      add\n      tag_160\n      swap4\n      swap3\n      swap2\n      swap1\n      tag_161\n      jump\t// in\n    tag_160:\n      0x20\n      mload(0x40)\n      dup1\n      dup4\n      sub\n      dup2\n      0x00\n      dup8\n      gas\n      call\n      iszero\n      dup1\n      iszero\n      tag_163\n      jumpi\n      returndatasize\n      0x00\n      dup1\n      returndatacopy\n      revert(0x00, returndatasize)\n    tag_163:\n      pop\n      pop\n      pop\n      pop\n      mload(0x40)\n      returndatasize\n      not(0x1f)\n      0x1f\n      dup3\n      add\n      and\n      dup3\n      add\n      dup1\n      0x40\n      mstore\n      pop\n      dup2\n      add\n      swap1\n      tag_164\n      swap2\n      swap1\n      tag_165\n      jump\t// in\n    tag_164:\n        /* \"changes.sol\":2148:2280  require(... */\n      tag_166\n      jumpi\n      mload(0x40)\n      0x08c379a000000000000000000000000000000000000000000000000000000000\n      dup2\n      mstore\n      0x04\n      add\n      tag_167\n      swap1\n      tag_168\n      jump\t// in\n    tag_167:\n      mload(0x40)\n      dup1\n      swap2\n      sub\n      swap1\n      revert\n    tag_166:\n        /* \"changes.sol\":2125:2128  i++ */\n      dup1\n      dup1\n      tag_169\n      swap1\n      tag_138\n      jump\t// in\n    tag_169:\n      swap2\n      pop\n      pop\n        /* \"changes.sol\":2086:2295  for (uint256 i = 0; i < values.length; i++) {... */\n      jump(tag_153)\n    tag_154:\n      pop\n        /* \"changes.sol\":1886:2679  if (... */\n      jump(tag_170)\n    tag_148:\n        /* \"changes.sol\":2374:2378  true */\n      0x01\n        /* \"changes.sol\":2374:2436  true ||... */\n      dup1\n      tag_171\n      jumpi\n      pop\n        /* \"changes.sol\":2428:2436  quantity */\n      sload(0x06)\n        /* \"changes.sol\":2398:2403  token */\n      dup4\n        /* \"changes.sol\":2398:2413  token.balanceOf */\n      0xffffffffffffffffffffffffffffffffffffffff\n      and\n      0x70a08231\n        /* \"changes.sol\":2414:2424  msg.sender */\n      caller\n        /* \"changes.sol\":2398:2425  token.balanceOf(msg.sender) */\n      mload(0x40)\n      dup3\n      0xffffffff\n      and\n      0xe0\n      shl\n      dup2\n      mstore\n      0x04\n      add\n      tag_172\n      swap2\n      swap1\n      tag_64\n      jump\t// in\n    tag_172:\n      0x20\n      mload(0x40)\n      dup1\n      dup4\n      sub\n      dup2\n      dup7\n      gas\n      staticcall\n      iszero\n      dup1\n      iszero\n      tag_174\n      jumpi\n      returndatasize\n      0x00\n      dup1\n      returndatacopy\n      revert(0x00, returndatasize)\n    tag_174:\n      pop\n      pop\n      pop\n      pop\n      mload(0x40)\n      returndatasize\n      not(0x1f)\n      0x1f\n      dup3\n      add\n      and\n      dup3\n      add\n      dup1\n      0x40\n      mstore\n      pop\n      dup2\n      add\n      swap1\n      tag_175\n      swap2\n      swap1\n      tag_147\n      jump\t// in\n    tag_175:\n        /* \"changes.sol\":2398:2436  token.balanceOf(msg.sender) > quantity */\n      gt\n        /* \"changes.sol\":2374:2436  true ||... */\n    tag_171:\n        /* \"changes.sol\":2328:2343  authorizedusers */\n      0x04\n        /* \"changes.sol\":2328:2355  authorizedusers[msg.sender] */\n      0x00\n        /* \"changes.sol\":2344:2354  msg.sender */\n      caller\n        /* \"changes.sol\":2328:2355  authorizedusers[msg.sender] */\n      0xffffffffffffffffffffffffffffffffffffffff\n      and\n      0xffffffffffffffffffffffffffffffffffffffff\n      and\n      dup2\n      mstore\n      0x20\n      add\n      swap1\n      dup2\n      mstore\n      0x20\n      add\n      0x00\n      keccak256\n      0x00\n        /* \"changes.sol\":2328:2436  authorizedusers[msg.sender] =... */\n      0x0100\n      exp\n      dup2\n      sload\n      dup2\n      0xff\n      mul\n      not\n      and\n      swap1\n      dup4\n      iszero\n      iszero\n      mul\n      or\n      swap1\n      sstore\n        /* \"changes.sol\":2311:2679  if (... */\n      iszero\n      tag_176\n      jumpi\n        /* \"changes.sol\":2466:2475  uint256 i */\n      0x00\n        /* \"changes.sol\":2461:2669  for (uint256 i = 0; i < values.length; i++) {... */\n    tag_177:\n        /* \"changes.sol\":2485:2491  values */\n      dup2\n        /* \"changes.sol\":2485:2498  values.length */\n      mload\n        /* \"changes.sol\":2481:2482  i */\n      dup2\n        /* \"changes.sol\":2481:2498  i < values.length */\n      lt\n        /* \"changes.sol\":2461:2669  for (uint256 i = 0; i < values.length; i++) {... */\n      iszero\n      tag_178\n      jumpi\n        /* \"changes.sol\":2552:2557  token */\n      dup4\n        /* \"changes.sol\":2552:2570  token.transferFrom */\n      0xffffffffffffffffffffffffffffffffffffffff\n      and\n      0x23b872dd\n        /* \"changes.sol\":2571:2581  msg.sender */\n      caller\n        /* \"changes.sol\":2583:2593  recipients */\n      dup6\n        /* \"changes.sol\":2594:2595  i */\n      dup5\n        /* \"changes.sol\":2583:2596  recipients[i] */\n      dup2\n      mload\n      dup2\n      lt\n      tag_180\n      jumpi\n      tag_181\n      tag_132\n      jump\t// in\n    tag_181:\n    tag_180:\n      0x20\n      mul\n      0x20\n      add\n      add\n      mload\n        /* \"changes.sol\":2598:2604  values */\n      dup6\n        /* \"changes.sol\":2605:2606  i */\n      dup6\n        /* \"changes.sol\":2598:2607  values[i] */\n      dup2\n      mload\n      dup2\n      lt\n      tag_182\n      jumpi\n      tag_183\n      tag_132\n      jump\t// in\n    tag_183:\n    tag_182:\n      0x20\n      mul\n      0x20\n      add\n      add\n      mload\n        /* \"changes.sol\":2552:2608  token.transferFrom(msg.sender, recipients[i], values[i]) */\n      mload(0x40)\n      dup5\n      0xffffffff\n      and\n      0xe0\n      shl\n      dup2\n      mstore\n      0x04\n      add\n      tag_184\n      swap4\n      swap3\n      swap2\n      swap1\n      tag_161\n      jump\t// in\n    tag_184:\n      0x20\n      mload(0x40)\n      dup1\n      dup4\n      sub\n      dup2\n      0x00\n      dup8\n      gas\n      call\n      iszero\n      dup1\n      iszero\n      tag_186\n      jumpi\n      returndatasize\n      0x00\n      dup1\n      returndatacopy\n      revert(0x00, returndatasize)\n    tag_186:\n      pop\n      pop\n      pop\n      pop\n      mload(0x40)\n      returndatasize\n      not(0x1f)\n      0x1f\n      dup3\n      add\n      and\n      dup3\n      add\n      dup1\n      0x40\n      mstore\n      pop\n      dup2\n      add\n      swap1\n      tag_187\n      swap2\n      swap1\n      tag_165\n      jump\t// in\n    tag_187:\n        /* \"changes.sol\":2523:2654  require(... */\n      tag_188\n      jumpi\n      mload(0x40)\n      0x08c379a000000000000000000000000000000000000000000000000000000000\n      dup2\n      mstore\n      0x04\n      add\n      tag_189\n      swap1\n      tag_190\n      jump\t// in\n    tag_189:\n      mload(0x40)\n      dup1\n      swap2\n      sub\n      swap1\n      revert\n    tag_188:\n        /* \"changes.sol\":2500:2503  i++ */\n      dup1\n      dup1\n      tag_191\n      swap1\n      tag_138\n      jump\t// in\n    tag_191:\n      swap2\n      pop\n      pop\n        /* \"changes.sol\":2461:2669  for (uint256 i = 0; i < values.length; i++) {... */\n      jump(tag_177)\n    tag_178:\n      pop\n        /* \"changes.sol\":2311:2679  if (... */\n    tag_176:\n        /* \"changes.sol\":1886:2679  if (... */\n    tag_170:\n        /* \"changes.sol\":1374:2685  function TOKENmultisender(... */\n      pop\n      pop\n      pop\n      jump\t// out\n        /* \"changes.sol\":3653:3768  function readAuthorizedUsers(address user) public view returns (bool) {... */\n    tag_76:\n        /* \"changes.sol\":3717:3721  bool */\n      0x00\n        /* \"changes.sol\":3740:3755  authorizedusers */\n      0x04\n        /* \"changes.sol\":3740:3761  authorizedusers[user] */\n      0x00\n        /* \"changes.sol\":3756:3760  user */\n      dup4\n        /* \"changes.sol\":3740:3761  authorizedusers[user] */\n      0xffffffffffffffffffffffffffffffffffffffff\n      and\n      0xffffffffffffffffffffffffffffffffffffffff\n      and\n      dup2\n      mstore\n      0x20\n      add\n      swap1\n      dup2\n      mstore\n      0x20\n      add\n      0x00\n      keccak256\n      0x00\n      swap1\n      sload\n      swap1\n      0x0100\n      exp\n      swap1\n      div\n      0xff\n      and\n        /* \"changes.sol\":3733:3761  return authorizedusers[user] */\n      swap1\n      pop\n        /* \"changes.sol\":3653:3768  function readAuthorizedUsers(address user) public view returns (bool) {... */\n      swap2\n      swap1\n      pop\n      jump\t// out\n        /* \"changes.sol\":3803:3885  function getFeeDetails() public view returns (uint256) {... */\n    tag_80:\n        /* \"changes.sol\":3849:3856  uint256 */\n      0x00\n        /* \"changes.sol\":3875:3878  fee */\n      sload(0x01)\n        /* \"changes.sol\":3868:3878  return fee */\n      swap1\n      pop\n        /* \"changes.sol\":3803:3885  function getFeeDetails() public view returns (uint256) {... */\n      swap1\n      jump\t// out\n        /* \"changes.sol\":270:288  uint256 public fee */\n    tag_84:\n      sload(0x01)\n      dup2\n      jump\t// out\n        /* \"changes.sol\":644:1368  function BNBmultisender(... */\n    tag_89:\n        /* \"changes.sol\":789:804  authorizedusers */\n      0x04\n        /* \"changes.sol\":789:816  authorizedusers[msg.sender] */\n      0x00\n        /* \"changes.sol\":805:815  msg.sender */\n      caller\n        /* \"changes.sol\":789:816  authorizedusers[msg.sender] */\n      0xffffffffffffffffffffffffffffffffffffffff\n      and\n      0xffffffffffffffffffffffffffffffffffffffff\n      and\n      dup2\n      mstore\n      0x20\n      add\n      swap1\n      dup2\n      mstore\n      0x20\n      add\n      0x00\n      keccak256\n      0x00\n      swap1\n      sload\n      swap1\n      0x0100\n      exp\n      swap1\n      div\n      0xff\n      and\n        /* \"changes.sol\":788:816  !authorizedusers[msg.sender] */\n      iszero\n        /* \"changes.sol\":788:877  !authorizedusers[msg.sender] &&... */\n      dup1\n      iszero\n      tag_195\n      jumpi\n      pop\n        /* \"changes.sol\":869:877  quantity */\n      sload(0x06)\n        /* \"changes.sol\":832:844  tokenaddress */\n      0x05\n      0x00\n      swap1\n      sload\n      swap1\n      0x0100\n      exp\n      swap1\n      div\n      0xffffffffffffffffffffffffffffffffffffffff\n      and\n        /* \"changes.sol\":832:854  tokenaddress.balanceOf */\n      0xffffffffffffffffffffffffffffffffffffffff\n      and\n      0x70a08231\n        /* \"changes.sol\":855:865  msg.sender */\n      caller\n        /* \"changes.sol\":832:866  tokenaddress.balanceOf(msg.sender) */\n      mload(0x40)\n      dup3\n      0xffffffff\n      and\n      0xe0\n      shl\n      dup2\n      mstore\n      0x04\n      add\n      tag_196\n      swap2\n      swap1\n      tag_64\n      jump\t// in\n    tag_196:\n      0x20\n      mload(0x40)\n      dup1\n      dup4\n      sub\n      dup2\n      dup7\n      gas\n      staticcall\n      iszero\n      dup1\n      iszero\n      tag_198\n      jumpi\n      returndatasize\n      0x00\n      dup1\n      returndatacopy\n      revert(0x00, returndatasize)\n    tag_198:\n      pop\n      pop\n      pop\n      pop\n      mload(0x40)\n      returndatasize\n      not(0x1f)\n      0x1f\n      dup3\n      add\n      and\n      dup3\n      add\n      dup1\n      0x40\n      mstore\n      pop\n      dup2\n      add\n      swap1\n      tag_199\n      swap2\n      swap1\n      tag_147\n      jump\t// in\n    tag_199:\n        /* \"changes.sol\":832:877  tokenaddress.balanceOf(msg.sender) < quantity */\n      lt\n        /* \"changes.sol\":788:877  !authorizedusers[msg.sender] &&... */\n    tag_195:\n        /* \"changes.sol\":771:1123  if (... */\n      iszero\n      tag_200\n      jumpi\n        /* \"changes.sol\":940:943  fee */\n      sload(0x01)\n        /* \"changes.sol\":927:936  msg.value */\n      callvalue\n        /* \"changes.sol\":927:943  msg.value >= fee */\n      lt\n      iszero\n        /* \"changes.sol\":902:1036  require(... */\n      tag_201\n      jumpi\n      mload(0x40)\n      0x08c379a000000000000000000000000000000000000000000000000000000000\n      dup2\n      mstore\n      0x04\n      add\n      tag_202\n      swap1\n      tag_203\n      jump\t// in\n    tag_202:\n      mload(0x40)\n      dup1\n      swap2\n      sub\n      swap1\n      revert\n    tag_201:\n        /* \"changes.sol\":1064:1067  fee */\n      sload(0x01)\n        /* \"changes.sol\":1050:1060  feeamounts */\n      0x03\n      0x00\n        /* \"changes.sol\":1050:1067  feeamounts += fee */\n      dup3\n      dup3\n      sload\n      tag_204\n      swap2\n      swap1\n      tag_150\n      jump\t// in\n    tag_204:\n      swap3\n      pop\n      pop\n      dup2\n      swap1\n      sstore\n      pop\n        /* \"changes.sol\":1089:1097  receiver */\n      0x02\n      0x00\n      swap1\n      sload\n      swap1\n      0x0100\n      exp\n      swap1\n      div\n      0xffffffffffffffffffffffffffffffffffffffff\n      and\n        /* \"changes.sol\":1081:1107  payable(receiver).transfer */\n      0xffffffffffffffffffffffffffffffffffffffff\n      and\n        /* \"changes.sol\":1081:1112  payable(receiver).transfer(fee) */\n      0x08fc\n        /* \"changes.sol\":1108:1111  fee */\n      sload(0x01)\n        /* \"changes.sol\":1081:1112  payable(receiver).transfer(fee) */\n      swap1\n      dup2\n      iszero\n      mul\n      swap1\n      mload(0x40)\n      0x00\n      mload(0x40)\n      dup1\n      dup4\n      sub\n      dup2\n      dup6\n      dup9\n      dup9\n      call\n      swap4\n      pop\n      pop\n      pop\n      pop\n      iszero\n      dup1\n      iszero\n      tag_206\n      jumpi\n      returndatasize\n      0x00\n      dup1\n      returndatacopy\n      revert(0x00, returndatasize)\n    tag_206:\n      pop\n        /* \"changes.sol\":771:1123  if (... */\n    tag_200:\n        /* \"changes.sol\":1137:1146  uint256 i */\n      0x00\n        /* \"changes.sol\":1132:1247  for (uint256 i = 0; i < recipients.length; i++) {... */\n    tag_207:\n        /* \"changes.sol\":1156:1166  recipients */\n      dup3\n        /* \"changes.sol\":1156:1173  recipients.length */\n      mload\n        /* \"changes.sol\":1152:1153  i */\n      dup2\n        /* \"changes.sol\":1152:1173  i < recipients.length */\n      lt\n        /* \"changes.sol\":1132:1247  for (uint256 i = 0; i < recipients.length; i++) {... */\n      iszero\n      tag_208\n      jumpi\n        /* \"changes.sol\":1202:1212  recipients */\n      dup3\n        /* \"changes.sol\":1213:1214  i */\n      dup2\n        /* \"changes.sol\":1202:1215  recipients[i] */\n      dup2\n      mload\n      dup2\n      lt\n      tag_210\n      jumpi\n      tag_211\n      tag_132\n      jump\t// in\n    tag_211:\n    tag_210:\n      0x20\n      mul\n      0x20\n      add\n      add\n      mload\n        /* \"changes.sol\":1194:1225  payable(recipients[i]).transfer */\n      0xffffffffffffffffffffffffffffffffffffffff\n      and\n        /* \"changes.sol\":1194:1236  payable(recipients[i]).transfer(values[i]) */\n      0x08fc\n        /* \"changes.sol\":1226:1232  values */\n      dup4\n        /* \"changes.sol\":1233:1234  i */\n      dup4\n        /* \"changes.sol\":1226:1235  values[i] */\n      dup2\n      mload\n      dup2\n      lt\n      tag_212\n      jumpi\n      tag_213\n      tag_132\n      jump\t// in\n    tag_213:\n    tag_212:\n      0x20\n      mul\n      0x20\n      add\n      add\n      mload\n        /* \"changes.sol\":1194:1236  payable(recipients[i]).transfer(values[i]) */\n      swap1\n      dup2\n      iszero\n      mul\n      swap1\n      mload(0x40)\n      0x00\n      mload(0x40)\n      dup1\n      dup4\n      sub\n      dup2\n      dup6\n      dup9\n      dup9\n      call\n      swap4\n      pop\n      pop\n      pop\n      pop\n      iszero\n      dup1\n      iszero\n      tag_215\n      jumpi\n      returndatasize\n      0x00\n      dup1\n      returndatacopy\n      revert(0x00, returndatasize)\n    tag_215:\n      pop\n        /* \"changes.sol\":1175:1178  i++ */\n      dup1\n      dup1\n      tag_216\n      swap1\n      tag_138\n      jump\t// in\n    tag_216:\n      swap2\n      pop\n      pop\n        /* \"changes.sol\":1132:1247  for (uint256 i = 0; i < recipients.length; i++) {... */\n      jump(tag_207)\n    tag_208:\n      pop\n        /* \"changes.sol\":1257:1272  uint256 balance */\n      0x00\n        /* \"changes.sol\":1275:1296  address(this).balance */\n      selfbalance\n        /* \"changes.sol\":1257:1296  uint256 balance = address(this).balance */\n      swap1\n      pop\n        /* \"changes.sol\":1321:1322  0 */\n      0x00\n        /* \"changes.sol\":1311:1318  balance */\n      dup2\n        /* \"changes.sol\":1311:1322  balance > 0 */\n      gt\n        /* \"changes.sol\":1307:1361  if (balance > 0) payable(msg.sender).transfer(balance) */\n      iszero\n      tag_217\n      jumpi\n        /* \"changes.sol\":1332:1342  msg.sender */\n      caller\n        /* \"changes.sol\":1324:1352  payable(msg.sender).transfer */\n      0xffffffffffffffffffffffffffffffffffffffff\n      and\n        /* \"changes.sol\":1324:1361  payable(msg.sender).transfer(balance) */\n      0x08fc\n        /* \"changes.sol\":1353:1360  balance */\n      dup3\n        /* \"changes.sol\":1324:1361  payable(msg.sender).transfer(balance) */\n      swap1\n      dup2\n      iszero\n      mul\n      swap1\n      mload(0x40)\n      0x00\n      mload(0x40)\n      dup1\n      dup4\n      sub\n      dup2\n      dup6\n      dup9\n      dup9\n      call\n      swap4\n      pop\n      pop\n      pop\n      pop\n      iszero\n      dup1\n      iszero\n      tag_219\n      jumpi\n      returndatasize\n      0x00\n      dup1\n      returndatacopy\n      revert(0x00, returndatasize)\n    tag_219:\n      pop\n        /* \"changes.sol\":1307:1361  if (balance > 0) payable(msg.sender).transfer(balance) */\n    tag_217:\n        /* \"changes.sol\":761:1368  {... */\n      pop\n        /* \"changes.sol\":644:1368  function BNBmultisender(... */\n      pop\n      pop\n      jump\t// out\n        /* \"@openzeppelin/contracts/access/Ownable.sol\":2074:2272  function transferOwnership(address newOwner) public virtual onlyOwner {... */\n    tag_93:\n        /* \"@openzeppelin/contracts/access/Ownable.sol\":1094:1107  _checkOwner() */\n      tag_221\n        /* \"@openzeppelin/contracts/access/Ownable.sol\":1094:1105  _checkOwner */\n      tag_106\n        /* \"@openzeppelin/contracts/access/Ownable.sol\":1094:1107  _checkOwner() */\n      jump\t// in\n    tag_221:\n        /* \"@openzeppelin/contracts/access/Ownable.sol\":2182:2183  0 */\n      0x00\n        /* \"@openzeppelin/contracts/access/Ownable.sol\":2162:2184  newOwner != address(0) */\n      0xffffffffffffffffffffffffffffffffffffffff\n      and\n        /* \"@openzeppelin/contracts/access/Ownable.sol\":2162:2170  newOwner */\n      dup2\n        /* \"@openzeppelin/contracts/access/Ownable.sol\":2162:2184  newOwner != address(0) */\n      0xffffffffffffffffffffffffffffffffffffffff\n      and\n      sub\n        /* \"@openzeppelin/contracts/access/Ownable.sol\":2154:2227  require(newOwner != address(0), \"Ownable: new owner is the zero address\") */\n      tag_223\n      jumpi\n      mload(0x40)\n      0x08c379a000000000000000000000000000000000000000000000000000000000\n      dup2\n      mstore\n      0x04\n      add\n      tag_224\n      swap1\n      tag_225\n      jump\t// in\n    tag_224:\n      mload(0x40)\n      dup1\n      swap2\n      sub\n      swap1\n      revert\n    tag_223:\n        /* \"@openzeppelin/contracts/access/Ownable.sol\":2237:2265  _transferOwnership(newOwner) */\n      tag_226\n        /* \"@openzeppelin/contracts/access/Ownable.sol\":2256:2264  newOwner */\n      dup2\n        /* \"@openzeppelin/contracts/access/Ownable.sol\":2237:2255  _transferOwnership */\n      tag_124\n        /* \"@openzeppelin/contracts/access/Ownable.sol\":2237:2265  _transferOwnership(newOwner) */\n      jump\t// in\n    tag_226:\n        /* \"@openzeppelin/contracts/access/Ownable.sol\":2074:2272  function transferOwnership(address newOwner) public virtual onlyOwner {... */\n      pop\n      jump\t// out\n        /* \"changes.sol\":294:325  address payable public receiver */\n    tag_96:\n      0x02\n      0x00\n      swap1\n      sload\n      swap1\n      0x0100\n      exp\n      swap1\n      div\n      0xffffffffffffffffffffffffffffffffffffffff\n      and\n      dup2\n      jump\t// out\n        /* \"changes.sol\":3269:3433  function setauthor(address _addr, bool _bool) external onlyOwner {... */\n    tag_103:\n        /* \"@openzeppelin/contracts/access/Ownable.sol\":1094:1107  _checkOwner() */\n      tag_228\n        /* \"@openzeppelin/contracts/access/Ownable.sol\":1094:1105  _checkOwner */\n      tag_106\n        /* \"@openzeppelin/contracts/access/Ownable.sol\":1094:1107  _checkOwner() */\n      jump\t// in\n    tag_228:\n        /* \"changes.sol\":3348:3363  authorizedusers */\n      0x04\n        /* \"changes.sol\":3348:3370  authorizedusers[_addr] */\n      0x00\n        /* \"changes.sol\":3364:3369  _addr */\n      dup4\n        /* \"changes.sol\":3348:3370  authorizedusers[_addr] */\n      0xffffffffffffffffffffffffffffffffffffffff\n      and\n      0xffffffffffffffffffffffffffffffffffffffff\n      and\n      dup2\n      mstore\n      0x20\n      add\n      swap1\n      dup2\n      mstore\n      0x20\n      add\n      0x00\n      keccak256\n      0x00\n      swap1\n      sload\n      swap1\n      0x0100\n      exp\n      swap1\n      div\n      0xff\n      and\n        /* \"changes.sol\":3344:3427  if (authorizedusers[_addr]) {... */\n      iszero\n      tag_230\n      jumpi\n        /* \"changes.sol\":3411:3416  _bool */\n      dup1\n        /* \"changes.sol\":3386:3401  authorizedusers */\n      0x04\n        /* \"changes.sol\":3386:3408  authorizedusers[_addr] */\n      0x00\n        /* \"changes.sol\":3402:3407  _addr */\n      dup5\n        /* \"changes.sol\":3386:3408  authorizedusers[_addr] */\n      0xffffffffffffffffffffffffffffffffffffffff\n      and\n      0xffffffffffffffffffffffffffffffffffffffff\n      and\n      dup2\n      mstore\n      0x20\n      add\n      swap1\n      dup2\n      mstore\n      0x20\n      add\n      0x00\n      keccak256\n      0x00\n        /* \"changes.sol\":3386:3416  authorizedusers[_addr] = _bool */\n      0x0100\n      exp\n      dup2\n      sload\n      dup2\n      0xff\n      mul\n      not\n      and\n      swap1\n      dup4\n      iszero\n      iszero\n      mul\n      or\n      swap1\n      sstore\n      pop\n        /* \"changes.sol\":3344:3427  if (authorizedusers[_addr]) {... */\n    tag_230:\n        /* \"changes.sol\":3269:3433  function setauthor(address _addr, bool _bool) external onlyOwner {... */\n      pop\n      pop\n      jump\t// out\n        /* \"@openzeppelin/contracts/access/Ownable.sol\":1359:1489  function _checkOwner() internal view virtual {... */\n    tag_106:\n        /* \"@openzeppelin/contracts/access/Ownable.sol\":1433:1445  _msgSender() */\n      tag_232\n        /* \"@openzeppelin/contracts/access/Ownable.sol\":1433:1443  _msgSender */\n      tag_233\n        /* \"@openzeppelin/contracts/access/Ownable.sol\":1433:1445  _msgSender() */\n      jump\t// in\n    tag_232:\n        /* \"@openzeppelin/contracts/access/Ownable.sol\":1422:1445  owner() == _msgSender() */\n      0xffffffffffffffffffffffffffffffffffffffff\n      and\n        /* \"@openzeppelin/contracts/access/Ownable.sol\":1422:1429  owner() */\n      tag_234\n        /* \"@openzeppelin/contracts/access/Ownable.sol\":1422:1427  owner */\n      tag_62\n        /* \"@openzeppelin/contracts/access/Ownable.sol\":1422:1429  owner() */\n      jump\t// in\n    tag_234:\n        /* \"@openzeppelin/contracts/access/Ownable.sol\":1422:1445  owner() == _msgSender() */\n      0xffffffffffffffffffffffffffffffffffffffff\n      and\n      eq\n        /* \"@openzeppelin/contracts/access/Ownable.sol\":1414:1482  require(owner() == _msgSender(), \"Ownable: caller is not the owner\") */\n      tag_235\n      jumpi\n      mload(0x40)\n      0x08c379a000000000000000000000000000000000000000000000000000000000\n      dup2\n      mstore\n      0x04\n      add\n      tag_236\n      swap1\n      tag_237\n      jump\t// in\n    tag_236:\n      mload(0x40)\n      dup1\n      swap2\n      sub\n      swap1\n      revert\n    tag_235:\n        /* \"@openzeppelin/contracts/access/Ownable.sol\":1359:1489  function _checkOwner() internal view virtual {... */\n      jump\t// out\n        /* \"@openzeppelin/contracts/access/Ownable.sol\":2426:2613  function _transferOwnership(address newOwner) internal virtual {... */\n    tag_124:\n        /* \"@openzeppelin/contracts/access/Ownable.sol\":2499:2515  address oldOwner */\n      0x00\n        /* \"@openzeppelin/contracts/access/Ownable.sol\":2518:2524  _owner */\n      dup1\n      0x00\n      swap1\n      sload\n      swap1\n      0x0100\n      exp\n      swap1\n      div\n      0xffffffffffffffffffffffffffffffffffffffff\n      and\n        /* \"@openzeppelin/contracts/access/Ownable.sol\":2499:2524  address oldOwner = _owner */\n      swap1\n      pop\n        /* \"@openzeppelin/contracts/access/Ownable.sol\":2543:2551  newOwner */\n      dup2\n        /* \"@openzeppelin/contracts/access/Ownable.sol\":2534:2540  _owner */\n      0x00\n      dup1\n        /* \"@openzeppelin/contracts/access/Ownable.sol\":2534:2551  _owner = newOwner */\n      0x0100\n      exp\n      dup2\n      sload\n      dup2\n      0xffffffffffffffffffffffffffffffffffffffff\n      mul\n      not\n      and\n      swap1\n      dup4\n      0xffffffffffffffffffffffffffffffffffffffff\n      and\n      mul\n      or\n      swap1\n      sstore\n      pop\n        /* \"@openzeppelin/contracts/access/Ownable.sol\":2597:2605  newOwner */\n      dup2\n        /* \"@openzeppelin/contracts/access/Ownable.sol\":2566:2606  OwnershipTransferred(oldOwner, newOwner) */\n      0xffffffffffffffffffffffffffffffffffffffff\n      and\n        /* \"@openzeppelin/contracts/access/Ownable.sol\":2587:2595  oldOwner */\n      dup2\n        /* \"@openzeppelin/contracts/access/Ownable.sol\":2566:2606  OwnershipTransferred(oldOwner, newOwner) */\n      0xffffffffffffffffffffffffffffffffffffffff\n      and\n      0x8be0079c531659141344cd1fd0a4f28419497f9722a3daafe3b4186f6b6457e0\n      mload(0x40)\n      mload(0x40)\n      dup1\n      swap2\n      sub\n      swap1\n      log3\n        /* \"@openzeppelin/contracts/access/Ownable.sol\":2489:2613  {... */\n      pop\n        /* \"@openzeppelin/contracts/access/Ownable.sol\":2426:2613  function _transferOwnership(address newOwner) internal virtual {... */\n      pop\n      jump\t// out\n        /* \"@openzeppelin/contracts/utils/Context.sol\":640:736  function _msgSender() internal view virtual returns (address) {... */\n    tag_233:\n        /* \"@openzeppelin/contracts/utils/Context.sol\":693:700  address */\n      0x00\n        /* \"@openzeppelin/contracts/utils/Context.sol\":719:729  msg.sender */\n      caller\n        /* \"@openzeppelin/contracts/utils/Context.sol\":712:729  return msg.sender */\n      swap1\n      pop\n        /* \"@openzeppelin/contracts/utils/Context.sol\":640:736  function _msgSender() internal view virtual returns (address) {... */\n      swap1\n      jump\t// out\n        /* \"#utility.yul\":7:82   */\n    tag_240:\n        /* \"#utility.yul\":40:46   */\n      0x00\n        /* \"#utility.yul\":73:75   */\n      0x40\n        /* \"#utility.yul\":67:76   */\n      mload\n        /* \"#utility.yul\":57:76   */\n      swap1\n      pop\n        /* \"#utility.yul\":7:82   */\n      swap1\n      jump\t// out\n        /* \"#utility.yul\":88:205   */\n    tag_241:\n        /* \"#utility.yul\":197:198   */\n      0x00\n        /* \"#utility.yul\":194:195   */\n      dup1\n        /* \"#utility.yul\":187:199   */\n      revert\n        /* \"#utility.yul\":211:328   */\n    tag_242:\n        /* \"#utility.yul\":320:321   */\n      0x00\n        /* \"#utility.yul\":317:318   */\n      dup1\n        /* \"#utility.yul\":310:322   */\n      revert\n        /* \"#utility.yul\":334:411   */\n    tag_243:\n        /* \"#utility.yul\":371:378   */\n      0x00\n        /* \"#utility.yul\":400:405   */\n      dup2\n        /* \"#utility.yul\":389:405   */\n      swap1\n      pop\n        /* \"#utility.yul\":334:411   */\n      swap2\n      swap1\n      pop\n      jump\t// out\n        /* \"#utility.yul\":417:539   */\n    tag_244:\n        /* \"#utility.yul\":490:514   */\n      tag_300\n        /* \"#utility.yul\":508:513   */\n      dup2\n        /* \"#utility.yul\":490:514   */\n      tag_243\n      jump\t// in\n    tag_300:\n        /* \"#utility.yul\":483:488   */\n      dup2\n        /* \"#utility.yul\":480:515   */\n      eq\n        /* \"#utility.yul\":470:533   */\n      tag_301\n      jumpi\n        /* \"#utility.yul\":529:530   */\n      0x00\n        /* \"#utility.yul\":526:527   */\n      dup1\n        /* \"#utility.yul\":519:531   */\n      revert\n        /* \"#utility.yul\":470:533   */\n    tag_301:\n        /* \"#utility.yul\":417:539   */\n      pop\n      jump\t// out\n        /* \"#utility.yul\":545:684   */\n    tag_245:\n        /* \"#utility.yul\":591:596   */\n      0x00\n        /* \"#utility.yul\":629:635   */\n      dup2\n        /* \"#utility.yul\":616:636   */\n      calldataload\n        /* \"#utility.yul\":607:636   */\n      swap1\n      pop\n        /* \"#utility.yul\":645:678   */\n      tag_303\n        /* \"#utility.yul\":672:677   */\n      dup2\n        /* \"#utility.yul\":645:678   */\n      tag_244\n      jump\t// in\n    tag_303:\n        /* \"#utility.yul\":545:684   */\n      swap3\n      swap2\n      pop\n      pop\n      jump\t// out\n        /* \"#utility.yul\":690:816   */\n    tag_246:\n        /* \"#utility.yul\":727:734   */\n      0x00\n        /* \"#utility.yul\":767:809   */\n      0xffffffffffffffffffffffffffffffffffffffff\n        /* \"#utility.yul\":760:765   */\n      dup3\n        /* \"#utility.yul\":756:810   */\n      and\n        /* \"#utility.yul\":745:810   */\n      swap1\n      pop\n        /* \"#utility.yul\":690:816   */\n      swap2\n      swap1\n      pop\n      jump\t// out\n        /* \"#utility.yul\":822:918   */\n    tag_247:\n        /* \"#utility.yul\":859:866   */\n      0x00\n        /* \"#utility.yul\":888:912   */\n      tag_306\n        /* \"#utility.yul\":906:911   */\n      dup3\n        /* \"#utility.yul\":888:912   */\n      tag_246\n      jump\t// in\n    tag_306:\n        /* \"#utility.yul\":877:912   */\n      swap1\n      pop\n        /* \"#utility.yul\":822:918   */\n      swap2\n      swap1\n      pop\n      jump\t// out\n        /* \"#utility.yul\":924:1046   */\n    tag_248:\n        /* \"#utility.yul\":997:1021   */\n      tag_308\n        /* \"#utility.yul\":1015:1020   */\n      dup2\n        /* \"#utility.yul\":997:1021   */\n      tag_247\n      jump\t// in\n    tag_308:\n        /* \"#utility.yul\":990:995   */\n      dup2\n        /* \"#utility.yul\":987:1022   */\n      eq\n        /* \"#utility.yul\":977:1040   */\n      tag_309\n      jumpi\n        /* \"#utility.yul\":1036:1037   */\n      0x00\n        /* \"#utility.yul\":1033:1034   */\n      dup1\n        /* \"#utility.yul\":1026:1038   */\n      revert\n        /* \"#utility.yul\":977:1040   */\n    tag_309:\n        /* \"#utility.yul\":924:1046   */\n      pop\n      jump\t// out\n        /* \"#utility.yul\":1052:1191   */\n    tag_249:\n        /* \"#utility.yul\":1098:1103   */\n      0x00\n        /* \"#utility.yul\":1136:1142   */\n      dup2\n        /* \"#utility.yul\":1123:1143   */\n      calldataload\n        /* \"#utility.yul\":1114:1143   */\n      swap1\n      pop\n        /* \"#utility.yul\":1152:1185   */\n      tag_311\n        /* \"#utility.yul\":1179:1184   */\n      dup2\n        /* \"#utility.yul\":1152:1185   */\n      tag_248\n      jump\t// in\n    tag_311:\n        /* \"#utility.yul\":1052:1191   */\n      swap3\n      swap2\n      pop\n      pop\n      jump\t// out\n        /* \"#utility.yul\":1197:1671   */\n    tag_26:\n        /* \"#utility.yul\":1265:1271   */\n      0x00\n        /* \"#utility.yul\":1273:1279   */\n      dup1\n        /* \"#utility.yul\":1322:1324   */\n      0x40\n        /* \"#utility.yul\":1310:1319   */\n      dup4\n        /* \"#utility.yul\":1301:1308   */\n      dup6\n        /* \"#utility.yul\":1297:1320   */\n      sub\n        /* \"#utility.yul\":1293:1325   */\n      slt\n        /* \"#utility.yul\":1290:1409   */\n      iszero\n      tag_313\n      jumpi\n        /* \"#utility.yul\":1328:1407   */\n      tag_314\n      tag_241\n      jump\t// in\n    tag_314:\n        /* \"#utility.yul\":1290:1409   */\n    tag_313:\n        /* \"#utility.yul\":1448:1449   */\n      0x00\n        /* \"#utility.yul\":1473:1526   */\n      tag_315\n        /* \"#utility.yul\":1518:1525   */\n      dup6\n        /* \"#utility.yul\":1509:1515   */\n      dup3\n        /* \"#utility.yul\":1498:1507   */\n      dup7\n        /* \"#utility.yul\":1494:1516   */\n      add\n        /* \"#utility.yul\":1473:1526   */\n      tag_245\n      jump\t// in\n    tag_315:\n        /* \"#utility.yul\":1463:1526   */\n      swap3\n      pop\n        /* \"#utility.yul\":1419:1536   */\n      pop\n        /* \"#utility.yul\":1575:1577   */\n      0x20\n        /* \"#utility.yul\":1601:1654   */\n      tag_316\n        /* \"#utility.yul\":1646:1653   */\n      dup6\n        /* \"#utility.yul\":1637:1643   */\n      dup3\n        /* \"#utility.yul\":1626:1635   */\n      dup7\n        /* \"#utility.yul\":1622:1644   */\n      add\n        /* \"#utility.yul\":1601:1654   */\n      tag_249\n      jump\t// in\n    tag_316:\n        /* \"#utility.yul\":1591:1654   */\n      swap2\n      pop\n        /* \"#utility.yul\":1546:1664   */\n      pop\n        /* \"#utility.yul\":1197:1671   */\n      swap3\n      pop\n      swap3\n      swap1\n      pop\n      jump\t// out\n        /* \"#utility.yul\":1677:1795   */\n    tag_250:\n        /* \"#utility.yul\":1764:1788   */\n      tag_318\n        /* \"#utility.yul\":1782:1787   */\n      dup2\n        /* \"#utility.yul\":1764:1788   */\n      tag_243\n      jump\t// in\n    tag_318:\n        /* \"#utility.yul\":1759:1762   */\n      dup3\n        /* \"#utility.yul\":1752:1789   */\n      mstore\n        /* \"#utility.yul\":1677:1795   */\n      pop\n      pop\n      jump\t// out\n        /* \"#utility.yul\":1801:2023   */\n    tag_32:\n        /* \"#utility.yul\":1894:1898   */\n      0x00\n        /* \"#utility.yul\":1932:1934   */\n      0x20\n        /* \"#utility.yul\":1921:1930   */\n      dup3\n        /* \"#utility.yul\":1917:1935   */\n      add\n        /* \"#utility.yul\":1909:1935   */\n      swap1\n      pop\n        /* \"#utility.yul\":1945:2016   */\n      tag_320\n        /* \"#utility.yul\":2013:2014   */\n      0x00\n        /* \"#utility.yul\":2002:2011   */\n      dup4\n        /* \"#utility.yul\":1998:2015   */\n      add\n        /* \"#utility.yul\":1989:1995   */\n      dup5\n        /* \"#utility.yul\":1945:2016   */\n      tag_250\n      jump\t// in\n    tag_320:\n        /* \"#utility.yul\":1801:2023   */\n      swap3\n      swap2\n      pop\n      pop\n      jump\t// out\n        /* \"#utility.yul\":2029:2139   */\n    tag_251:\n        /* \"#utility.yul\":2080:2087   */\n      0x00\n        /* \"#utility.yul\":2109:2133   */\n      tag_322\n        /* \"#utility.yul\":2127:2132   */\n      dup3\n        /* \"#utility.yul\":2109:2133   */\n      tag_247\n      jump\t// in\n    tag_322:\n        /* \"#utility.yul\":2098:2133   */\n      swap1\n      pop\n        /* \"#utility.yul\":2029:2139   */\n      swap2\n      swap1\n      pop\n      jump\t// out\n        /* \"#utility.yul\":2145:2295   */\n    tag_252:\n        /* \"#utility.yul\":2232:2270   */\n      tag_324\n        /* \"#utility.yul\":2264:2269   */\n      dup2\n        /* \"#utility.yul\":2232:2270   */\n      tag_251\n      jump\t// in\n    tag_324:\n        /* \"#utility.yul\":2225:2230   */\n      dup2\n        /* \"#utility.yul\":2222:2271   */\n      eq\n        /* \"#utility.yul\":2212:2289   */\n      tag_325\n      jumpi\n        /* \"#utility.yul\":2285:2286   */\n      0x00\n        /* \"#utility.yul\":2282:2283   */\n      dup1\n        /* \"#utility.yul\":2275:2287   */\n      revert\n        /* \"#utility.yul\":2212:2289   */\n    tag_325:\n        /* \"#utility.yul\":2145:2295   */\n      pop\n      jump\t// out\n        /* \"#utility.yul\":2301:2468   */\n    tag_253:\n        /* \"#utility.yul\":2361:2366   */\n      0x00\n        /* \"#utility.yul\":2399:2405   */\n      dup2\n        /* \"#utility.yul\":2386:2406   */\n      calldataload\n        /* \"#utility.yul\":2377:2406   */\n      swap1\n      pop\n        /* \"#utility.yul\":2415:2462   */\n      tag_327\n        /* \"#utility.yul\":2456:2461   */\n      dup2\n        /* \"#utility.yul\":2415:2462   */\n      tag_252\n      jump\t// in\n    tag_327:\n        /* \"#utility.yul\":2301:2468   */\n      swap3\n      swap2\n      pop\n      pop\n      jump\t// out\n        /* \"#utility.yul\":2474:2976   */\n    tag_36:\n        /* \"#utility.yul\":2556:2562   */\n      0x00\n        /* \"#utility.yul\":2564:2570   */\n      dup1\n        /* \"#utility.yul\":2613:2615   */\n      0x40\n        /* \"#utility.yul\":2601:2610   */\n      dup4\n        /* \"#utility.yul\":2592:2599   */\n      dup6\n        /* \"#utility.yul\":2588:2611   */\n      sub\n        /* \"#utility.yul\":2584:2616   */\n      slt\n        /* \"#utility.yul\":2581:2700   */\n      iszero\n      tag_329\n      jumpi\n        /* \"#utility.yul\":2619:2698   */\n      tag_330\n      tag_241\n      jump\t// in\n    tag_330:\n        /* \"#utility.yul\":2581:2700   */\n    tag_329:\n        /* \"#utility.yul\":2739:2740   */\n      0x00\n        /* \"#utility.yul\":2764:2831   */\n      tag_331\n        /* \"#utility.yul\":2823:2830   */\n      dup6\n        /* \"#utility.yul\":2814:2820   */\n      dup3\n        /* \"#utility.yul\":2803:2812   */\n      dup7\n        /* \"#utility.yul\":2799:2821   */\n      add\n        /* \"#utility.yul\":2764:2831   */\n      tag_253\n      jump\t// in\n    tag_331:\n        /* \"#utility.yul\":2754:2831   */\n      swap3\n      pop\n        /* \"#utility.yul\":2710:2841   */\n      pop\n        /* \"#utility.yul\":2880:2882   */\n      0x20\n        /* \"#utility.yul\":2906:2959   */\n      tag_332\n        /* \"#utility.yul\":2951:2958   */\n      dup6\n        /* \"#utility.yul\":2942:2948   */\n      dup3\n        /* \"#utility.yul\":2931:2940   */\n      dup7\n        /* \"#utility.yul\":2927:2949   */\n      add\n        /* \"#utility.yul\":2906:2959   */\n      tag_245\n      jump\t// in\n    tag_332:\n        /* \"#utility.yul\":2896:2959   */\n      swap2\n      pop\n        /* \"#utility.yul\":2851:2969   */\n      pop\n        /* \"#utility.yul\":2474:2976   */\n      swap3\n      pop\n      swap3\n      swap1\n      pop\n      jump\t// out\n        /* \"#utility.yul\":2982:3042   */\n    tag_254:\n        /* \"#utility.yul\":3010:3013   */\n      0x00\n        /* \"#utility.yul\":3031:3036   */\n      dup2\n        /* \"#utility.yul\":3024:3036   */\n      swap1\n      pop\n        /* \"#utility.yul\":2982:3042   */\n      swap2\n      swap1\n      pop\n      jump\t// out\n        /* \"#utility.yul\":3048:3190   */\n    tag_255:\n        /* \"#utility.yul\":3098:3107   */\n      0x00\n        /* \"#utility.yul\":3131:3184   */\n      tag_335\n        /* \"#utility.yul\":3149:3183   */\n      tag_336\n        /* \"#utility.yul\":3158:3182   */\n      tag_337\n        /* \"#utility.yul\":3176:3181   */\n      dup5\n        /* \"#utility.yul\":3158:3182   */\n      tag_246\n      jump\t// in\n    tag_337:\n        /* \"#utility.yul\":3149:3183   */\n      tag_254\n      jump\t// in\n    tag_336:\n        /* \"#utility.yul\":3131:3184   */\n      tag_246\n      jump\t// in\n    tag_335:\n        /* \"#utility.yul\":3118:3184   */\n      swap1\n      pop\n        /* \"#utility.yul\":3048:3190   */\n      swap2\n      swap1\n      pop\n      jump\t// out\n        /* \"#utility.yul\":3196:3322   */\n    tag_256:\n        /* \"#utility.yul\":3246:3255   */\n      0x00\n        /* \"#utility.yul\":3279:3316   */\n      tag_339\n        /* \"#utility.yul\":3310:3315   */\n      dup3\n        /* \"#utility.yul\":3279:3316   */\n      tag_255\n      jump\t// in\n    tag_339:\n        /* \"#utility.yul\":3266:3316   */\n      swap1\n      pop\n        /* \"#utility.yul\":3196:3322   */\n      swap2\n      swap1\n      pop\n      jump\t// out\n        /* \"#utility.yul\":3328:3468   */\n    tag_257:\n        /* \"#utility.yul\":3392:3401   */\n      0x00\n        /* \"#utility.yul\":3425:3462   */\n      tag_341\n        /* \"#utility.yul\":3456:3461   */\n      dup3\n        /* \"#utility.yul\":3425:3462   */\n      tag_256\n      jump\t// in\n    tag_341:\n        /* \"#utility.yul\":3412:3462   */\n      swap1\n      pop\n        /* \"#utility.yul\":3328:3468   */\n      swap2\n      swap1\n      pop\n      jump\t// out\n        /* \"#utility.yul\":3474:3633   */\n    tag_258:\n        /* \"#utility.yul\":3575:3626   */\n      tag_343\n        /* \"#utility.yul\":3620:3625   */\n      dup2\n        /* \"#utility.yul\":3575:3626   */\n      tag_257\n      jump\t// in\n    tag_343:\n        /* \"#utility.yul\":3570:3573   */\n      dup3\n        /* \"#utility.yul\":3563:3627   */\n      mstore\n        /* \"#utility.yul\":3474:3633   */\n      pop\n      pop\n      jump\t// out\n        /* \"#utility.yul\":3639:3889   */\n    tag_45:\n        /* \"#utility.yul\":3746:3750   */\n      0x00\n        /* \"#utility.yul\":3784:3786   */\n      0x20\n        /* \"#utility.yul\":3773:3782   */\n      dup3\n        /* \"#utility.yul\":3769:3787   */\n      add\n        /* \"#utility.yul\":3761:3787   */\n      swap1\n      pop\n        /* \"#utility.yul\":3797:3882   */\n      tag_345\n        /* \"#utility.yul\":3879:3880   */\n      0x00\n        /* \"#utility.yul\":3868:3877   */\n      dup4\n        /* \"#utility.yul\":3864:3881   */\n      add\n        /* \"#utility.yul\":3855:3861   */\n      dup5\n        /* \"#utility.yul\":3797:3882   */\n      tag_258\n      jump\t// in\n    tag_345:\n        /* \"#utility.yul\":3639:3889   */\n      swap3\n      swap2\n      pop\n      pop\n      jump\t// out\n        /* \"#utility.yul\":3895:4224   */\n    tag_49:\n        /* \"#utility.yul\":3954:3960   */\n      0x00\n        /* \"#utility.yul\":4003:4005   */\n      0x20\n        /* \"#utility.yul\":3991:4000   */\n      dup3\n        /* \"#utility.yul\":3982:3989   */\n      dup5\n        /* \"#utility.yul\":3978:4001   */\n      sub\n        /* \"#utility.yul\":3974:4006   */\n      slt\n        /* \"#utility.yul\":3971:4090   */\n      iszero\n      tag_347\n      jumpi\n        /* \"#utility.yul\":4009:4088   */\n      tag_348\n      tag_241\n      jump\t// in\n    tag_348:\n        /* \"#utility.yul\":3971:4090   */\n    tag_347:\n        /* \"#utility.yul\":4129:4130   */\n      0x00\n        /* \"#utility.yul\":4154:4207   */\n      tag_349\n        /* \"#utility.yul\":4199:4206   */\n      dup5\n        /* \"#utility.yul\":4190:4196   */\n      dup3\n        /* \"#utility.yul\":4179:4188   */\n      dup6\n        /* \"#utility.yul\":4175:4197   */\n      add\n        /* \"#utility.yul\":4154:4207   */\n      tag_249\n      jump\t// in\n    tag_349:\n        /* \"#utility.yul\":4144:4207   */\n      swap2\n      pop\n        /* \"#utility.yul\":4100:4217   */\n      pop\n        /* \"#utility.yul\":3895:4224   */\n      swap3\n      swap2\n      pop\n      pop\n      jump\t// out\n        /* \"#utility.yul\":4230:4320   */\n    tag_259:\n        /* \"#utility.yul\":4264:4271   */\n      0x00\n        /* \"#utility.yul\":4307:4312   */\n      dup2\n        /* \"#utility.yul\":4300:4313   */\n      iszero\n        /* \"#utility.yul\":4293:4314   */\n      iszero\n        /* \"#utility.yul\":4282:4314   */\n      swap1\n      pop\n        /* \"#utility.yul\":4230:4320   */\n      swap2\n      swap1\n      pop\n      jump\t// out\n        /* \"#utility.yul\":4326:4435   */\n    tag_260:\n        /* \"#utility.yul\":4407:4428   */\n      tag_352\n        /* \"#utility.yul\":4422:4427   */\n      dup2\n        /* \"#utility.yul\":4407:4428   */\n      tag_259\n      jump\t// in\n    tag_352:\n        /* \"#utility.yul\":4402:4405   */\n      dup3\n        /* \"#utility.yul\":4395:4429   */\n      mstore\n        /* \"#utility.yul\":4326:4435   */\n      pop\n      pop\n      jump\t// out\n        /* \"#utility.yul\":4441:4651   */\n    tag_52:\n        /* \"#utility.yul\":4528:4532   */\n      0x00\n        /* \"#utility.yul\":4566:4568   */\n      0x20\n        /* \"#utility.yul\":4555:4564   */\n      dup3\n        /* \"#utility.yul\":4551:4569   */\n      add\n        /* \"#utility.yul\":4543:4569   */\n      swap1\n      pop\n        /* \"#utility.yul\":4579:4644   */\n      tag_354\n        /* \"#utility.yul\":4641:4642   */\n      0x00\n        /* \"#utility.yul\":4630:4639   */\n      dup4\n        /* \"#utility.yul\":4626:4643   */\n      add\n        /* \"#utility.yul\":4617:4623   */\n      dup5\n        /* \"#utility.yul\":4579:4644   */\n      tag_260\n      jump\t// in\n    tag_354:\n        /* \"#utility.yul\":4441:4651   */\n      swap3\n      swap2\n      pop\n      pop\n      jump\t// out\n        /* \"#utility.yul\":4657:4775   */\n    tag_261:\n        /* \"#utility.yul\":4744:4768   */\n      tag_356\n        /* \"#utility.yul\":4762:4767   */\n      dup2\n        /* \"#utility.yul\":4744:4768   */\n      tag_247\n      jump\t// in\n    tag_356:\n        /* \"#utility.yul\":4739:4742   */\n      dup3\n        /* \"#utility.yul\":4732:4769   */\n      mstore\n        /* \"#utility.yul\":4657:4775   */\n      pop\n      pop\n      jump\t// out\n        /* \"#utility.yul\":4781:5003   */\n    tag_64:\n        /* \"#utility.yul\":4874:4878   */\n      0x00\n        /* \"#utility.yul\":4912:4914   */\n      0x20\n        /* \"#utility.yul\":4901:4910   */\n      dup3\n        /* \"#utility.yul\":4897:4915   */\n      add\n        /* \"#utility.yul\":4889:4915   */\n      swap1\n      pop\n        /* \"#utility.yul\":4925:4996   */\n      tag_358\n        /* \"#utility.yul\":4993:4994   */\n      0x00\n        /* \"#utility.yul\":4982:4991   */\n      dup4\n        /* \"#utility.yul\":4978:4995   */\n      add\n        /* \"#utility.yul\":4969:4975   */\n      dup5\n        /* \"#utility.yul\":4925:4996   */\n      tag_261\n      jump\t// in\n    tag_358:\n        /* \"#utility.yul\":4781:5003   */\n      swap3\n      swap2\n      pop\n      pop\n      jump\t// out\n        /* \"#utility.yul\":5009:5126   */\n    tag_262:\n        /* \"#utility.yul\":5118:5119   */\n      0x00\n        /* \"#utility.yul\":5115:5116   */\n      dup1\n        /* \"#utility.yul\":5108:5120   */\n      revert\n        /* \"#utility.yul\":5132:5234   */\n    tag_263:\n        /* \"#utility.yul\":5173:5179   */\n      0x00\n        /* \"#utility.yul\":5224:5226   */\n      0x1f\n        /* \"#utility.yul\":5220:5227   */\n      not\n        /* \"#utility.yul\":5215:5217   */\n      0x1f\n        /* \"#utility.yul\":5208:5213   */\n      dup4\n        /* \"#utility.yul\":5204:5218   */\n      add\n        /* \"#utility.yul\":5200:5228   */\n      and\n        /* \"#utility.yul\":5190:5228   */\n      swap1\n      pop\n        /* \"#utility.yul\":5132:5234   */\n      swap2\n      swap1\n      pop\n      jump\t// out\n        /* \"#utility.yul\":5240:5420   */\n    tag_264:\n        /* \"#utility.yul\":5288:5365   */\n      0x4e487b7100000000000000000000000000000000000000000000000000000000\n        /* \"#utility.yul\":5285:5286   */\n      0x00\n        /* \"#utility.yul\":5278:5366   */\n      mstore\n        /* \"#utility.yul\":5385:5389   */\n      0x41\n        /* \"#utility.yul\":5382:5383   */\n      0x04\n        /* \"#utility.yul\":5375:5390   */\n      mstore\n        /* \"#utility.yul\":5409:5413   */\n      0x24\n        /* \"#utility.yul\":5406:5407   */\n      0x00\n        /* \"#utility.yul\":5399:5414   */\n      revert\n        /* \"#utility.yul\":5426:5707   */\n    tag_265:\n        /* \"#utility.yul\":5509:5536   */\n      tag_363\n        /* \"#utility.yul\":5531:5535   */\n      dup3\n        /* \"#utility.yul\":5509:5536   */\n      tag_263\n      jump\t// in\n    tag_363:\n        /* \"#utility.yul\":5501:5507   */\n      dup2\n        /* \"#utility.yul\":5497:5537   */\n      add\n        /* \"#utility.yul\":5639:5645   */\n      dup2\n        /* \"#utility.yul\":5627:5637   */\n      dup2\n        /* \"#utility.yul\":5624:5646   */\n      lt\n        /* \"#utility.yul\":5603:5621   */\n      0xffffffffffffffff\n        /* \"#utility.yul\":5591:5601   */\n      dup3\n        /* \"#utility.yul\":5588:5622   */\n      gt\n        /* \"#utility.yul\":5585:5647   */\n      or\n        /* \"#utility.yul\":5582:5670   */\n      iszero\n      tag_364\n      jumpi\n        /* \"#utility.yul\":5650:5668   */\n      tag_365\n      tag_264\n      jump\t// in\n    tag_365:\n        /* \"#utility.yul\":5582:5670   */\n    tag_364:\n        /* \"#utility.yul\":5690:5700   */\n      dup1\n        /* \"#utility.yul\":5686:5688   */\n      0x40\n        /* \"#utility.yul\":5679:5701   */\n      mstore\n        /* \"#utility.yul\":5469:5707   */\n      pop\n        /* \"#utility.yul\":5426:5707   */\n      pop\n      pop\n      jump\t// out\n        /* \"#utility.yul\":5713:5842   */\n    tag_266:\n        /* \"#utility.yul\":5747:5753   */\n      0x00\n        /* \"#utility.yul\":5774:5794   */\n      tag_367\n      tag_240\n      jump\t// in\n    tag_367:\n        /* \"#utility.yul\":5764:5794   */\n      swap1\n      pop\n        /* \"#utility.yul\":5803:5836   */\n      tag_368\n        /* \"#utility.yul\":5831:5835   */\n      dup3\n        /* \"#utility.yul\":5823:5829   */\n      dup3\n        /* \"#utility.yul\":5803:5836   */\n      tag_265\n      jump\t// in\n    tag_368:\n        /* \"#utility.yul\":5713:5842   */\n      swap2\n      swap1\n      pop\n      jump\t// out\n        /* \"#utility.yul\":5848:6159   */\n    tag_267:\n        /* \"#utility.yul\":5925:5929   */\n      0x00\n        /* \"#utility.yul\":6015:6033   */\n      0xffffffffffffffff\n        /* \"#utility.yul\":6007:6013   */\n      dup3\n        /* \"#utility.yul\":6004:6034   */\n      gt\n        /* \"#utility.yul\":6001:6057   */\n      iszero\n      tag_370\n      jumpi\n        /* \"#utility.yul\":6037:6055   */\n      tag_371\n      tag_264\n      jump\t// in\n    tag_371:\n        /* \"#utility.yul\":6001:6057   */\n    tag_370:\n        /* \"#utility.yul\":6087:6091   */\n      0x20\n        /* \"#utility.yul\":6079:6085   */\n      dup3\n        /* \"#utility.yul\":6075:6092   */\n      mul\n        /* \"#utility.yul\":6067:6092   */\n      swap1\n      pop\n        /* \"#utility.yul\":6147:6151   */\n      0x20\n        /* \"#utility.yul\":6141:6145   */\n      dup2\n        /* \"#utility.yul\":6137:6152   */\n      add\n        /* \"#utility.yul\":6129:6152   */\n      swap1\n      pop\n        /* \"#utility.yul\":5848:6159   */\n      swap2\n      swap1\n      pop\n      jump\t// out\n        /* \"#utility.yul\":6165:6282   */\n    tag_268:\n        /* \"#utility.yul\":6274:6275   */\n      0x00\n        /* \"#utility.yul\":6271:6272   */\n      dup1\n        /* \"#utility.yul\":6264:6276   */\n      revert\n        /* \"#utility.yul\":6305:7015   */\n    tag_269:\n        /* \"#utility.yul\":6401:6406   */\n      0x00\n        /* \"#utility.yul\":6426:6507   */\n      tag_374\n        /* \"#utility.yul\":6442:6506   */\n      tag_375\n        /* \"#utility.yul\":6499:6505   */\n      dup5\n        /* \"#utility.yul\":6442:6506   */\n      tag_267\n      jump\t// in\n    tag_375:\n        /* \"#utility.yul\":6426:6507   */\n      tag_266\n      jump\t// in\n    tag_374:\n        /* \"#utility.yul\":6417:6507   */\n      swap1\n      pop\n        /* \"#utility.yul\":6527:6532   */\n      dup1\n        /* \"#utility.yul\":6556:6562   */\n      dup4\n        /* \"#utility.yul\":6549:6554   */\n      dup3\n        /* \"#utility.yul\":6542:6563   */\n      mstore\n        /* \"#utility.yul\":6590:6594   */\n      0x20\n        /* \"#utility.yul\":6583:6588   */\n      dup3\n        /* \"#utility.yul\":6579:6595   */\n      add\n        /* \"#utility.yul\":6572:6595   */\n      swap1\n      pop\n        /* \"#utility.yul\":6643:6647   */\n      0x20\n        /* \"#utility.yul\":6635:6641   */\n      dup5\n        /* \"#utility.yul\":6631:6648   */\n      mul\n        /* \"#utility.yul\":6623:6629   */\n      dup4\n        /* \"#utility.yul\":6619:6649   */\n      add\n        /* \"#utility.yul\":6672:6675   */\n      dup6\n        /* \"#utility.yul\":6664:6670   */\n      dup2\n        /* \"#utility.yul\":6661:6676   */\n      gt\n        /* \"#utility.yul\":6658:6780   */\n      iszero\n      tag_376\n      jumpi\n        /* \"#utility.yul\":6691:6770   */\n      tag_377\n      tag_268\n      jump\t// in\n    tag_377:\n        /* \"#utility.yul\":6658:6780   */\n    tag_376:\n        /* \"#utility.yul\":6806:6812   */\n      dup4\n        /* \"#utility.yul\":6789:7009   */\n    tag_378:\n        /* \"#utility.yul\":6823:6829   */\n      dup2\n        /* \"#utility.yul\":6818:6821   */\n      dup2\n        /* \"#utility.yul\":6815:6830   */\n      lt\n        /* \"#utility.yul\":6789:7009   */\n      iszero\n      tag_380\n      jumpi\n        /* \"#utility.yul\":6898:6901   */\n      dup1\n        /* \"#utility.yul\":6927:6964   */\n      tag_381\n        /* \"#utility.yul\":6960:6963   */\n      dup9\n        /* \"#utility.yul\":6948:6958   */\n      dup3\n        /* \"#utility.yul\":6927:6964   */\n      tag_249\n      jump\t// in\n    tag_381:\n        /* \"#utility.yul\":6922:6925   */\n      dup5\n        /* \"#utility.yul\":6915:6965   */\n      mstore\n        /* \"#utility.yul\":6994:6998   */\n      0x20\n        /* \"#utility.yul\":6989:6992   */\n      dup5\n        /* \"#utility.yul\":6985:6999   */\n      add\n        /* \"#utility.yul\":6978:6999   */\n      swap4\n      pop\n        /* \"#utility.yul\":6865:7009   */\n      pop\n        /* \"#utility.yul\":6849:6853   */\n      0x20\n        /* \"#utility.yul\":6844:6847   */\n      dup2\n        /* \"#utility.yul\":6840:6854   */\n      add\n        /* \"#utility.yul\":6833:6854   */\n      swap1\n      pop\n        /* \"#utility.yul\":6789:7009   */\n      jump(tag_378)\n    tag_380:\n        /* \"#utility.yul\":6793:6814   */\n      pop\n        /* \"#utility.yul\":6407:7015   */\n      pop\n      pop\n        /* \"#utility.yul\":6305:7015   */\n      swap4\n      swap3\n      pop\n      pop\n      pop\n      jump\t// out\n        /* \"#utility.yul\":7038:7408   */\n    tag_270:\n        /* \"#utility.yul\":7109:7114   */\n      0x00\n        /* \"#utility.yul\":7158:7161   */\n      dup3\n        /* \"#utility.yul\":7151:7155   */\n      0x1f\n        /* \"#utility.yul\":7143:7149   */\n      dup4\n        /* \"#utility.yul\":7139:7156   */\n      add\n        /* \"#utility.yul\":7135:7162   */\n      slt\n        /* \"#utility.yul\":7125:7247   */\n      tag_383\n      jumpi\n        /* \"#utility.yul\":7166:7245   */\n      tag_384\n      tag_262\n      jump\t// in\n    tag_384:\n        /* \"#utility.yul\":7125:7247   */\n    tag_383:\n        /* \"#utility.yul\":7283:7289   */\n      dup2\n        /* \"#utility.yul\":7270:7290   */\n      calldataload\n        /* \"#utility.yul\":7308:7402   */\n      tag_385\n        /* \"#utility.yul\":7398:7401   */\n      dup5\n        /* \"#utility.yul\":7390:7396   */\n      dup3\n        /* \"#utility.yul\":7383:7387   */\n      0x20\n        /* \"#utility.yul\":7375:7381   */\n      dup7\n        /* \"#utility.yul\":7371:7388   */\n      add\n        /* \"#utility.yul\":7308:7402   */\n      tag_269\n      jump\t// in\n    tag_385:\n        /* \"#utility.yul\":7299:7402   */\n      swap2\n      pop\n        /* \"#utility.yul\":7115:7408   */\n      pop\n        /* \"#utility.yul\":7038:7408   */\n      swap3\n      swap2\n      pop\n      pop\n      jump\t// out\n        /* \"#utility.yul\":7414:7725   */\n    tag_271:\n        /* \"#utility.yul\":7491:7495   */\n      0x00\n        /* \"#utility.yul\":7581:7599   */\n      0xffffffffffffffff\n        /* \"#utility.yul\":7573:7579   */\n      dup3\n        /* \"#utility.yul\":7570:7600   */\n      gt\n        /* \"#utility.yul\":7567:7623   */\n      iszero\n      tag_387\n      jumpi\n        /* \"#utility.yul\":7603:7621   */\n      tag_388\n      tag_264\n      jump\t// in\n    tag_388:\n        /* \"#utility.yul\":7567:7623   */\n    tag_387:\n        /* \"#utility.yul\":7653:7657   */\n      0x20\n        /* \"#utility.yul\":7645:7651   */\n      dup3\n        /* \"#utility.yul\":7641:7658   */\n      mul\n        /* \"#utility.yul\":7633:7658   */\n      swap1\n      pop\n        /* \"#utility.yul\":7713:7717   */\n      0x20\n        /* \"#utility.yul\":7707:7711   */\n      dup2\n        /* \"#utility.yul\":7703:7718   */\n      add\n        /* \"#utility.yul\":7695:7718   */\n      swap1\n      pop\n        /* \"#utility.yul\":7414:7725   */\n      swap2\n      swap1\n      pop\n      jump\t// out\n        /* \"#utility.yul\":7748:8458   */\n    tag_272:\n        /* \"#utility.yul\":7844:7849   */\n      0x00\n        /* \"#utility.yul\":7869:7950   */\n      tag_390\n        /* \"#utility.yul\":7885:7949   */\n      tag_391\n        /* \"#utility.yul\":7942:7948   */\n      dup5\n        /* \"#utility.yul\":7885:7949   */\n      tag_271\n      jump\t// in\n    tag_391:\n        /* \"#utility.yul\":7869:7950   */\n      tag_266\n      jump\t// in\n    tag_390:\n        /* \"#utility.yul\":7860:7950   */\n      swap1\n      pop\n        /* \"#utility.yul\":7970:7975   */\n      dup1\n        /* \"#utility.yul\":7999:8005   */\n      dup4\n        /* \"#utility.yul\":7992:7997   */\n      dup3\n        /* \"#utility.yul\":7985:8006   */\n      mstore\n        /* \"#utility.yul\":8033:8037   */\n      0x20\n        /* \"#utility.yul\":8026:8031   */\n      dup3\n        /* \"#utility.yul\":8022:8038   */\n      add\n        /* \"#utility.yul\":8015:8038   */\n      swap1\n      pop\n        /* \"#utility.yul\":8086:8090   */\n      0x20\n        /* \"#utility.yul\":8078:8084   */\n      dup5\n        /* \"#utility.yul\":8074:8091   */\n      mul\n        /* \"#utility.yul\":8066:8072   */\n      dup4\n        /* \"#utility.yul\":8062:8092   */\n      add\n        /* \"#utility.yul\":8115:8118   */\n      dup6\n        /* \"#utility.yul\":8107:8113   */\n      dup2\n        /* \"#utility.yul\":8104:8119   */\n      gt\n        /* \"#utility.yul\":8101:8223   */\n      iszero\n      tag_392\n      jumpi\n        /* \"#utility.yul\":8134:8213   */\n      tag_393\n      tag_268\n      jump\t// in\n    tag_393:\n        /* \"#utility.yul\":8101:8223   */\n    tag_392:\n        /* \"#utility.yul\":8249:8255   */\n      dup4\n        /* \"#utility.yul\":8232:8452   */\n    tag_394:\n        /* \"#utility.yul\":8266:8272   */\n      dup2\n        /* \"#utility.yul\":8261:8264   */\n      dup2\n        /* \"#utility.yul\":8258:8273   */\n      lt\n        /* \"#utility.yul\":8232:8452   */\n      iszero\n      tag_396\n      jumpi\n        /* \"#utility.yul\":8341:8344   */\n      dup1\n        /* \"#utility.yul\":8370:8407   */\n      tag_397\n        /* \"#utility.yul\":8403:8406   */\n      dup9\n        /* \"#utility.yul\":8391:8401   */\n      dup3\n        /* \"#utility.yul\":8370:8407   */\n      tag_245\n      jump\t// in\n    tag_397:\n        /* \"#utility.yul\":8365:8368   */\n      dup5\n        /* \"#utility.yul\":8358:8408   */\n      mstore\n        /* \"#utility.yul\":8437:8441   */\n      0x20\n        /* \"#utility.yul\":8432:8435   */\n      dup5\n        /* \"#utility.yul\":8428:8442   */\n      add\n        /* \"#utility.yul\":8421:8442   */\n      swap4\n      pop\n        /* \"#utility.yul\":8308:8452   */\n      pop\n        /* \"#utility.yul\":8292:8296   */\n      0x20\n        /* \"#utility.yul\":8287:8290   */\n      dup2\n        /* \"#utility.yul\":8283:8297   */\n      add\n        /* \"#utility.yul\":8276:8297   */\n      swap1\n      pop\n        /* \"#utility.yul\":8232:8452   */\n      jump(tag_394)\n    tag_396:\n        /* \"#utility.yul\":8236:8257   */\n      pop\n        /* \"#utility.yul\":7850:8458   */\n      pop\n      pop\n        /* \"#utility.yul\":7748:8458   */\n      swap4\n      swap3\n      pop\n      pop\n      pop\n      jump\t// out\n        /* \"#utility.yul\":8481:8851   */\n    tag_273:\n        /* \"#utility.yul\":8552:8557   */\n      0x00\n        /* \"#utility.yul\":8601:8604   */\n      dup3\n        /* \"#utility.yul\":8594:8598   */\n      0x1f\n        /* \"#utility.yul\":8586:8592   */\n      dup4\n        /* \"#utility.yul\":8582:8599   */\n      add\n        /* \"#utility.yul\":8578:8605   */\n      slt\n        /* \"#utility.yul\":8568:8690   */\n      tag_399\n      jumpi\n        /* \"#utility.yul\":8609:8688   */\n      tag_400\n      tag_262\n      jump\t// in\n    tag_400:\n        /* \"#utility.yul\":8568:8690   */\n    tag_399:\n        /* \"#utility.yul\":8726:8732   */\n      dup2\n        /* \"#utility.yul\":8713:8733   */\n      calldataload\n        /* \"#utility.yul\":8751:8845   */\n      tag_401\n        /* \"#utility.yul\":8841:8844   */\n      dup5\n        /* \"#utility.yul\":8833:8839   */\n      dup3\n        /* \"#utility.yul\":8826:8830   */\n      0x20\n        /* \"#utility.yul\":8818:8824   */\n      dup7\n        /* \"#utility.yul\":8814:8831   */\n      add\n        /* \"#utility.yul\":8751:8845   */\n      tag_272\n      jump\t// in\n    tag_401:\n        /* \"#utility.yul\":8742:8845   */\n      swap2\n      pop\n        /* \"#utility.yul\":8558:8851   */\n      pop\n        /* \"#utility.yul\":8481:8851   */\n      swap3\n      swap2\n      pop\n      pop\n      jump\t// out\n        /* \"#utility.yul\":8857:9924   */\n    tag_71:\n        /* \"#utility.yul\":8998:9004   */\n      0x00\n        /* \"#utility.yul\":9006:9012   */\n      dup1\n        /* \"#utility.yul\":9014:9020   */\n      0x00\n        /* \"#utility.yul\":9063:9065   */\n      0x60\n        /* \"#utility.yul\":9051:9060   */\n      dup5\n        /* \"#utility.yul\":9042:9049   */\n      dup7\n        /* \"#utility.yul\":9038:9061   */\n      sub\n        /* \"#utility.yul\":9034:9066   */\n      slt\n        /* \"#utility.yul\":9031:9150   */\n      iszero\n      tag_403\n      jumpi\n        /* \"#utility.yul\":9069:9148   */\n      tag_404\n      tag_241\n      jump\t// in\n    tag_404:\n        /* \"#utility.yul\":9031:9150   */\n    tag_403:\n        /* \"#utility.yul\":9189:9190   */\n      0x00\n        /* \"#utility.yul\":9214:9281   */\n      tag_405\n        /* \"#utility.yul\":9273:9280   */\n      dup7\n        /* \"#utility.yul\":9264:9270   */\n      dup3\n        /* \"#utility.yul\":9253:9262   */\n      dup8\n        /* \"#utility.yul\":9249:9271   */\n      add\n        /* \"#utility.yul\":9214:9281   */\n      tag_253\n      jump\t// in\n    tag_405:\n        /* \"#utility.yul\":9204:9281   */\n      swap4\n      pop\n        /* \"#utility.yul\":9160:9291   */\n      pop\n        /* \"#utility.yul\":9358:9360   */\n      0x20\n        /* \"#utility.yul\":9347:9356   */\n      dup5\n        /* \"#utility.yul\":9343:9361   */\n      add\n        /* \"#utility.yul\":9330:9362   */\n      calldataload\n        /* \"#utility.yul\":9389:9407   */\n      0xffffffffffffffff\n        /* \"#utility.yul\":9381:9387   */\n      dup2\n        /* \"#utility.yul\":9378:9408   */\n      gt\n        /* \"#utility.yul\":9375:9492   */\n      iszero\n      tag_406\n      jumpi\n        /* \"#utility.yul\":9411:9490   */\n      tag_407\n      tag_242\n      jump\t// in\n    tag_407:\n        /* \"#utility.yul\":9375:9492   */\n    tag_406:\n        /* \"#utility.yul\":9516:9594   */\n      tag_408\n        /* \"#utility.yul\":9586:9593   */\n      dup7\n        /* \"#utility.yul\":9577:9583   */\n      dup3\n        /* \"#utility.yul\":9566:9575   */\n      dup8\n        /* \"#utility.yul\":9562:9584   */\n      add\n        /* \"#utility.yul\":9516:9594   */\n      tag_270\n      jump\t// in\n    tag_408:\n        /* \"#utility.yul\":9506:9594   */\n      swap3\n      pop\n        /* \"#utility.yul\":9301:9604   */\n      pop\n        /* \"#utility.yul\":9671:9673   */\n      0x40\n        /* \"#utility.yul\":9660:9669   */\n      dup5\n        /* \"#utility.yul\":9656:9674   */\n      add\n        /* \"#utility.yul\":9643:9675   */\n      calldataload\n        /* \"#utility.yul\":9702:9720   */\n      0xffffffffffffffff\n        /* \"#utility.yul\":9694:9700   */\n      dup2\n        /* \"#utility.yul\":9691:9721   */\n      gt\n        /* \"#utility.yul\":9688:9805   */\n      iszero\n      tag_409\n      jumpi\n        /* \"#utility.yul\":9724:9803   */\n      tag_410\n      tag_242\n      jump\t// in\n    tag_410:\n        /* \"#utility.yul\":9688:9805   */\n    tag_409:\n        /* \"#utility.yul\":9829:9907   */\n      tag_411\n        /* \"#utility.yul\":9899:9906   */\n      dup7\n        /* \"#utility.yul\":9890:9896   */\n      dup3\n        /* \"#utility.yul\":9879:9888   */\n      dup8\n        /* \"#utility.yul\":9875:9897   */\n      add\n        /* \"#utility.yul\":9829:9907   */\n      tag_273\n      jump\t// in\n    tag_411:\n        /* \"#utility.yul\":9819:9907   */\n      swap2\n      pop\n        /* \"#utility.yul\":9614:9917   */\n      pop\n        /* \"#utility.yul\":8857:9924   */\n      swap3\n      pop\n      swap3\n      pop\n      swap3\n      jump\t// out\n        /* \"#utility.yul\":9930:10824   */\n    tag_88:\n        /* \"#utility.yul\":10048:10054   */\n      0x00\n        /* \"#utility.yul\":10056:10062   */\n      dup1\n        /* \"#utility.yul\":10105:10107   */\n      0x40\n        /* \"#utility.yul\":10093:10102   */\n      dup4\n        /* \"#utility.yul\":10084:10091   */\n      dup6\n        /* \"#utility.yul\":10080:10103   */\n      sub\n        /* \"#utility.yul\":10076:10108   */\n      slt\n        /* \"#utility.yul\":10073:10192   */\n      iszero\n      tag_413\n      jumpi\n        /* \"#utility.yul\":10111:10190   */\n      tag_414\n      tag_241\n      jump\t// in\n    tag_414:\n        /* \"#utility.yul\":10073:10192   */\n    tag_413:\n        /* \"#utility.yul\":10259:10260   */\n      0x00\n        /* \"#utility.yul\":10248:10257   */\n      dup4\n        /* \"#utility.yul\":10244:10261   */\n      add\n        /* \"#utility.yul\":10231:10262   */\n      calldataload\n        /* \"#utility.yul\":10289:10307   */\n      0xffffffffffffffff\n        /* \"#utility.yul\":10281:10287   */\n      dup2\n        /* \"#utility.yul\":10278:10308   */\n      gt\n        /* \"#utility.yul\":10275:10392   */\n      iszero\n      tag_415\n      jumpi\n        /* \"#utility.yul\":10311:10390   */\n      tag_416\n      tag_242\n      jump\t// in\n    tag_416:\n        /* \"#utility.yul\":10275:10392   */\n    tag_415:\n        /* \"#utility.yul\":10416:10494   */\n      tag_417\n        /* \"#utility.yul\":10486:10493   */\n      dup6\n        /* \"#utility.yul\":10477:10483   */\n      dup3\n        /* \"#utility.yul\":10466:10475   */\n      dup7\n        /* \"#utility.yul\":10462:10484   */\n      add\n        /* \"#utility.yul\":10416:10494   */\n      tag_270\n      jump\t// in\n    tag_417:\n        /* \"#utility.yul\":10406:10494   */\n      swap3\n      pop\n        /* \"#utility.yul\":10202:10504   */\n      pop\n        /* \"#utility.yul\":10571:10573   */\n      0x20\n        /* \"#utility.yul\":10560:10569   */\n      dup4\n        /* \"#utility.yul\":10556:10574   */\n      add\n        /* \"#utility.yul\":10543:10575   */\n      calldataload\n        /* \"#utility.yul\":10602:10620   */\n      0xffffffffffffffff\n        /* \"#utility.yul\":10594:10600   */\n      dup2\n        /* \"#utility.yul\":10591:10621   */\n      gt\n        /* \"#utility.yul\":10588:10705   */\n      iszero\n      tag_418\n      jumpi\n        /* \"#utility.yul\":10624:10703   */\n      tag_419\n      tag_242\n      jump\t// in\n    tag_419:\n        /* \"#utility.yul\":10588:10705   */\n    tag_418:\n        /* \"#utility.yul\":10729:10807   */\n      tag_420\n        /* \"#utility.yul\":10799:10806   */\n      dup6\n        /* \"#utility.yul\":10790:10796   */\n      dup3\n        /* \"#utility.yul\":10779:10788   */\n      dup7\n        /* \"#utility.yul\":10775:10797   */\n      add\n        /* \"#utility.yul\":10729:10807   */\n      tag_273\n      jump\t// in\n    tag_420:\n        /* \"#utility.yul\":10719:10807   */\n      swap2\n      pop\n        /* \"#utility.yul\":10514:10817   */\n      pop\n        /* \"#utility.yul\":9930:10824   */\n      swap3\n      pop\n      swap3\n      swap1\n      pop\n      jump\t// out\n        /* \"#utility.yul\":10830:10934   */\n    tag_274:\n        /* \"#utility.yul\":10875:10882   */\n      0x00\n        /* \"#utility.yul\":10904:10928   */\n      tag_422\n        /* \"#utility.yul\":10922:10927   */\n      dup3\n        /* \"#utility.yul\":10904:10928   */\n      tag_246\n      jump\t// in\n    tag_422:\n        /* \"#utility.yul\":10893:10928   */\n      swap1\n      pop\n        /* \"#utility.yul\":10830:10934   */\n      swap2\n      swap1\n      pop\n      jump\t// out\n        /* \"#utility.yul\":10940:11082   */\n    tag_275:\n        /* \"#utility.yul\":11043:11075   */\n      tag_424\n        /* \"#utility.yul\":11069:11074   */\n      dup2\n        /* \"#utility.yul\":11043:11075   */\n      tag_274\n      jump\t// in\n    tag_424:\n        /* \"#utility.yul\":11038:11041   */\n      dup3\n        /* \"#utility.yul\":11031:11076   */\n      mstore\n        /* \"#utility.yul\":10940:11082   */\n      pop\n      pop\n      jump\t// out\n        /* \"#utility.yul\":11088:11342   */\n    tag_98:\n        /* \"#utility.yul\":11197:11201   */\n      0x00\n        /* \"#utility.yul\":11235:11237   */\n      0x20\n        /* \"#utility.yul\":11224:11233   */\n      dup3\n        /* \"#utility.yul\":11220:11238   */\n      add\n        /* \"#utility.yul\":11212:11238   */\n      swap1\n      pop\n        /* \"#utility.yul\":11248:11335   */\n      tag_426\n        /* \"#utility.yul\":11332:11333   */\n      0x00\n        /* \"#utility.yul\":11321:11330   */\n      dup4\n        /* \"#utility.yul\":11317:11334   */\n      add\n        /* \"#utility.yul\":11308:11314   */\n      dup5\n        /* \"#utility.yul\":11248:11335   */\n      tag_275\n      jump\t// in\n    tag_426:\n        /* \"#utility.yul\":11088:11342   */\n      swap3\n      swap2\n      pop\n      pop\n      jump\t// out\n        /* \"#utility.yul\":11348:11464   */\n    tag_276:\n        /* \"#utility.yul\":11418:11439   */\n      tag_428\n        /* \"#utility.yul\":11433:11438   */\n      dup2\n        /* \"#utility.yul\":11418:11439   */\n      tag_259\n      jump\t// in\n    tag_428:\n        /* \"#utility.yul\":11411:11416   */\n      dup2\n        /* \"#utility.yul\":11408:11440   */\n      eq\n        /* \"#utility.yul\":11398:11458   */\n      tag_429\n      jumpi\n        /* \"#utility.yul\":11454:11455   */\n      0x00\n        /* \"#utility.yul\":11451:11452   */\n      dup1\n        /* \"#utility.yul\":11444:11456   */\n      revert\n        /* \"#utility.yul\":11398:11458   */\n    tag_429:\n        /* \"#utility.yul\":11348:11464   */\n      pop\n      jump\t// out\n        /* \"#utility.yul\":11470:11603   */\n    tag_277:\n        /* \"#utility.yul\":11513:11518   */\n      0x00\n        /* \"#utility.yul\":11551:11557   */\n      dup2\n        /* \"#utility.yul\":11538:11558   */\n      calldataload\n        /* \"#utility.yul\":11529:11558   */\n      swap1\n      pop\n        /* \"#utility.yul\":11567:11597   */\n      tag_431\n        /* \"#utility.yul\":11591:11596   */\n      dup2\n        /* \"#utility.yul\":11567:11597   */\n      tag_276\n      jump\t// in\n    tag_431:\n        /* \"#utility.yul\":11470:11603   */\n      swap3\n      swap2\n      pop\n      pop\n      jump\t// out\n        /* \"#utility.yul\":11609:12077   */\n    tag_102:\n        /* \"#utility.yul\":11674:11680   */\n      0x00\n        /* \"#utility.yul\":11682:11688   */\n      dup1\n        /* \"#utility.yul\":11731:11733   */\n      0x40\n        /* \"#utility.yul\":11719:11728   */\n      dup4\n        /* \"#utility.yul\":11710:11717   */\n      dup6\n        /* \"#utility.yul\":11706:11729   */\n      sub\n        /* \"#utility.yul\":11702:11734   */\n      slt\n        /* \"#utility.yul\":11699:11818   */\n      iszero\n      tag_433\n      jumpi\n        /* \"#utility.yul\":11737:11816   */\n      tag_434\n      tag_241\n      jump\t// in\n    tag_434:\n        /* \"#utility.yul\":11699:11818   */\n    tag_433:\n        /* \"#utility.yul\":11857:11858   */\n      0x00\n        /* \"#utility.yul\":11882:11935   */\n      tag_435\n        /* \"#utility.yul\":11927:11934   */\n      dup6\n        /* \"#utility.yul\":11918:11924   */\n      dup3\n        /* \"#utility.yul\":11907:11916   */\n      dup7\n        /* \"#utility.yul\":11903:11925   */\n      add\n        /* \"#utility.yul\":11882:11935   */\n      tag_249\n      jump\t// in\n    tag_435:\n        /* \"#utility.yul\":11872:11935   */\n      swap3\n      pop\n        /* \"#utility.yul\":11828:11945   */\n      pop\n        /* \"#utility.yul\":11984:11986   */\n      0x20\n        /* \"#utility.yul\":12010:12060   */\n      tag_436\n        /* \"#utility.yul\":12052:12059   */\n      dup6\n        /* \"#utility.yul\":12043:12049   */\n      dup3\n        /* \"#utility.yul\":12032:12041   */\n      dup7\n        /* \"#utility.yul\":12028:12050   */\n      add\n        /* \"#utility.yul\":12010:12060   */\n      tag_277\n      jump\t// in\n    tag_436:\n        /* \"#utility.yul\":12000:12060   */\n      swap2\n      pop\n        /* \"#utility.yul\":11955:12070   */\n      pop\n        /* \"#utility.yul\":11609:12077   */\n      swap3\n      pop\n      swap3\n      swap1\n      pop\n      jump\t// out\n        /* \"#utility.yul\":12083:12263   */\n    tag_132:\n        /* \"#utility.yul\":12131:12208   */\n      0x4e487b7100000000000000000000000000000000000000000000000000000000\n        /* \"#utility.yul\":12128:12129   */\n      0x00\n        /* \"#utility.yul\":12121:12209   */\n      mstore\n        /* \"#utility.yul\":12228:12232   */\n      0x32\n        /* \"#utility.yul\":12225:12226   */\n      0x04\n        /* \"#utility.yul\":12218:12233   */\n      mstore\n        /* \"#utility.yul\":12252:12256   */\n      0x24\n        /* \"#utility.yul\":12249:12250   */\n      0x00\n        /* \"#utility.yul\":12242:12257   */\n      revert\n        /* \"#utility.yul\":12269:12449   */\n    tag_278:\n        /* \"#utility.yul\":12317:12394   */\n      0x4e487b7100000000000000000000000000000000000000000000000000000000\n        /* \"#utility.yul\":12314:12315   */\n      0x00\n        /* \"#utility.yul\":12307:12395   */\n      mstore\n        /* \"#utility.yul\":12414:12418   */\n      0x11\n        /* \"#utility.yul\":12411:12412   */\n      0x04\n        /* \"#utility.yul\":12404:12419   */\n      mstore\n        /* \"#utility.yul\":12438:12442   */\n      0x24\n        /* \"#utility.yul\":12435:12436   */\n      0x00\n        /* \"#utility.yul\":12428:12443   */\n      revert\n        /* \"#utility.yul\":12455:12803   */\n    tag_134:\n        /* \"#utility.yul\":12495:12502   */\n      0x00\n        /* \"#utility.yul\":12518:12538   */\n      tag_440\n        /* \"#utility.yul\":12536:12537   */\n      dup3\n        /* \"#utility.yul\":12518:12538   */\n      tag_243\n      jump\t// in\n    tag_440:\n        /* \"#utility.yul\":12513:12538   */\n      swap2\n      pop\n        /* \"#utility.yul\":12552:12572   */\n      tag_441\n        /* \"#utility.yul\":12570:12571   */\n      dup4\n        /* \"#utility.yul\":12552:12572   */\n      tag_243\n      jump\t// in\n    tag_441:\n        /* \"#utility.yul\":12547:12572   */\n      swap3\n      pop\n        /* \"#utility.yul\":12740:12741   */\n      dup2\n        /* \"#utility.yul\":12672:12738   */\n      0xffffffffffffffffffffffffffffffffffffffffffffffffffffffffffffffff\n        /* \"#utility.yul\":12668:12742   */\n      div\n        /* \"#utility.yul\":12665:12666   */\n      dup4\n        /* \"#utility.yul\":12662:12743   */\n      gt\n        /* \"#utility.yul\":12657:12658   */\n      dup3\n        /* \"#utility.yul\":12650:12659   */\n      iszero\n        /* \"#utility.yul\":12643:12660   */\n      iszero\n        /* \"#utility.yul\":12639:12744   */\n      and\n        /* \"#utility.yul\":12636:12767   */\n      iszero\n      tag_442\n      jumpi\n        /* \"#utility.yul\":12747:12765   */\n      tag_443\n      tag_278\n      jump\t// in\n    tag_443:\n        /* \"#utility.yul\":12636:12767   */\n    tag_442:\n        /* \"#utility.yul\":12795:12796   */\n      dup3\n        /* \"#utility.yul\":12792:12793   */\n      dup3\n        /* \"#utility.yul\":12788:12797   */\n      mul\n        /* \"#utility.yul\":12777:12797   */\n      swap1\n      pop\n        /* \"#utility.yul\":12455:12803   */\n      swap3\n      swap2\n      pop\n      pop\n      jump\t// out\n        /* \"#utility.yul\":12809:13042   */\n    tag_138:\n        /* \"#utility.yul\":12848:12851   */\n      0x00\n        /* \"#utility.yul\":12871:12895   */\n      tag_445\n        /* \"#utility.yul\":12889:12894   */\n      dup3\n        /* \"#utility.yul\":12871:12895   */\n      tag_243\n      jump\t// in\n    tag_445:\n        /* \"#utility.yul\":12862:12895   */\n      swap2\n      pop\n        /* \"#utility.yul\":12917:12983   */\n      0xffffffffffffffffffffffffffffffffffffffffffffffffffffffffffffffff\n        /* \"#utility.yul\":12910:12915   */\n      dup3\n        /* \"#utility.yul\":12907:12984   */\n      sub\n        /* \"#utility.yul\":12904:13007   */\n      tag_446\n      jumpi\n        /* \"#utility.yul\":12987:13005   */\n      tag_447\n      tag_278\n      jump\t// in\n    tag_447:\n        /* \"#utility.yul\":12904:13007   */\n    tag_446:\n        /* \"#utility.yul\":13034:13035   */\n      0x01\n        /* \"#utility.yul\":13027:13032   */\n      dup3\n        /* \"#utility.yul\":13023:13036   */\n      add\n        /* \"#utility.yul\":13016:13036   */\n      swap1\n      pop\n        /* \"#utility.yul\":12809:13042   */\n      swap2\n      swap1\n      pop\n      jump\t// out\n        /* \"#utility.yul\":13048:13217   */\n    tag_279:\n        /* \"#utility.yul\":13132:13143   */\n      0x00\n        /* \"#utility.yul\":13166:13172   */\n      dup3\n        /* \"#utility.yul\":13161:13164   */\n      dup3\n        /* \"#utility.yul\":13154:13173   */\n      mstore\n        /* \"#utility.yul\":13206:13210   */\n      0x20\n        /* \"#utility.yul\":13201:13204   */\n      dup3\n        /* \"#utility.yul\":13197:13211   */\n      add\n        /* \"#utility.yul\":13182:13211   */\n      swap1\n      pop\n        /* \"#utility.yul\":13048:13217   */\n      swap3\n      swap2\n      pop\n      pop\n      jump\t// out\n        /* \"#utility.yul\":13223:13391   */\n    tag_280:\n        /* \"#utility.yul\":13363:13383   */\n      0x696e76616c696420696e7075742073697a650000000000000000000000000000\n        /* \"#utility.yul\":13359:13360   */\n      0x00\n        /* \"#utility.yul\":13351:13357   */\n      dup3\n        /* \"#utility.yul\":13347:13361   */\n      add\n        /* \"#utility.yul\":13340:13384   */\n      mstore\n        /* \"#utility.yul\":13223:13391   */\n      pop\n      jump\t// out\n        /* \"#utility.yul\":13397:13763   */\n    tag_281:\n        /* \"#utility.yul\":13539:13542   */\n      0x00\n        /* \"#utility.yul\":13560:13627   */\n      tag_451\n        /* \"#utility.yul\":13624:13626   */\n      0x12\n        /* \"#utility.yul\":13619:13622   */\n      dup4\n        /* \"#utility.yul\":13560:13627   */\n      tag_279\n      jump\t// in\n    tag_451:\n        /* \"#utility.yul\":13553:13627   */\n      swap2\n      pop\n        /* \"#utility.yul\":13636:13729   */\n      tag_452\n        /* \"#utility.yul\":13725:13728   */\n      dup3\n        /* \"#utility.yul\":13636:13729   */\n      tag_280\n      jump\t// in\n    tag_452:\n        /* \"#utility.yul\":13754:13756   */\n      0x20\n        /* \"#utility.yul\":13749:13752   */\n      dup3\n        /* \"#utility.yul\":13745:13757   */\n      add\n        /* \"#utility.yul\":13738:13757   */\n      swap1\n      pop\n        /* \"#utility.yul\":13397:13763   */\n      swap2\n      swap1\n      pop\n      jump\t// out\n        /* \"#utility.yul\":13769:14188   */\n    tag_141:\n        /* \"#utility.yul\":13935:13939   */\n      0x00\n        /* \"#utility.yul\":13973:13975   */\n      0x20\n        /* \"#utility.yul\":13962:13971   */\n      dup3\n        /* \"#utility.yul\":13958:13976   */\n      add\n        /* \"#utility.yul\":13950:13976   */\n      swap1\n      pop\n        /* \"#utility.yul\":14022:14031   */\n      dup2\n        /* \"#utility.yul\":14016:14020   */\n      dup2\n        /* \"#utility.yul\":14012:14032   */\n      sub\n        /* \"#utility.yul\":14008:14009   */\n      0x00\n        /* \"#utility.yul\":13997:14006   */\n      dup4\n        /* \"#utility.yul\":13993:14010   */\n      add\n        /* \"#utility.yul\":13986:14033   */\n      mstore\n        /* \"#utility.yul\":14050:14181   */\n      tag_454\n        /* \"#utility.yul\":14176:14180   */\n      dup2\n        /* \"#utility.yul\":14050:14181   */\n      tag_281\n      jump\t// in\n    tag_454:\n        /* \"#utility.yul\":14042:14181   */\n      swap1\n      pop\n        /* \"#utility.yul\":13769:14188   */\n      swap2\n      swap1\n      pop\n      jump\t// out\n        /* \"#utility.yul\":14194:14337   */\n    tag_282:\n        /* \"#utility.yul\":14251:14256   */\n      0x00\n        /* \"#utility.yul\":14282:14288   */\n      dup2\n        /* \"#utility.yul\":14276:14289   */\n      mload\n        /* \"#utility.yul\":14267:14289   */\n      swap1\n      pop\n        /* \"#utility.yul\":14298:14331   */\n      tag_456\n        /* \"#utility.yul\":14325:14330   */\n      dup2\n        /* \"#utility.yul\":14298:14331   */\n      tag_244\n      jump\t// in\n    tag_456:\n        /* \"#utility.yul\":14194:14337   */\n      swap3\n      swap2\n      pop\n      pop\n      jump\t// out\n        /* \"#utility.yul\":14343:14694   */\n    tag_147:\n        /* \"#utility.yul\":14413:14419   */\n      0x00\n        /* \"#utility.yul\":14462:14464   */\n      0x20\n        /* \"#utility.yul\":14450:14459   */\n      dup3\n        /* \"#utility.yul\":14441:14448   */\n      dup5\n        /* \"#utility.yul\":14437:14460   */\n      sub\n        /* \"#utility.yul\":14433:14465   */\n      slt\n        /* \"#utility.yul\":14430:14549   */\n      iszero\n      tag_458\n      jumpi\n        /* \"#utility.yul\":14468:14547   */\n      tag_459\n      tag_241\n      jump\t// in\n    tag_459:\n        /* \"#utility.yul\":14430:14549   */\n    tag_458:\n        /* \"#utility.yul\":14588:14589   */\n      0x00\n        /* \"#utility.yul\":14613:14677   */\n      tag_460\n        /* \"#utility.yul\":14669:14676   */\n      dup5\n        /* \"#utility.yul\":14660:14666   */\n      dup3\n        /* \"#utility.yul\":14649:14658   */\n      dup6\n        /* \"#utility.yul\":14645:14667   */\n      add\n        /* \"#utility.yul\":14613:14677   */\n      tag_282\n      jump\t// in\n    tag_460:\n        /* \"#utility.yul\":14603:14677   */\n      swap2\n      pop\n        /* \"#utility.yul\":14559:14687   */\n      pop\n        /* \"#utility.yul\":14343:14694   */\n      swap3\n      swap2\n      pop\n      pop\n      jump\t// out\n        /* \"#utility.yul\":14700:15005   */\n    tag_150:\n        /* \"#utility.yul\":14740:14743   */\n      0x00\n        /* \"#utility.yul\":14759:14779   */\n      tag_462\n        /* \"#utility.yul\":14777:14778   */\n      dup3\n        /* \"#utility.yul\":14759:14779   */\n      tag_243\n      jump\t// in\n    tag_462:\n        /* \"#utility.yul\":14754:14779   */\n      swap2\n      pop\n        /* \"#utility.yul\":14793:14813   */\n      tag_463\n        /* \"#utility.yul\":14811:14812   */\n      dup4\n        /* \"#utility.yul\":14793:14813   */\n      tag_243\n      jump\t// in\n    tag_463:\n        /* \"#utility.yul\":14788:14813   */\n      swap3\n      pop\n        /* \"#utility.yul\":14947:14948   */\n      dup3\n        /* \"#utility.yul\":14879:14945   */\n      0xffffffffffffffffffffffffffffffffffffffffffffffffffffffffffffffff\n        /* \"#utility.yul\":14875:14949   */\n      sub\n        /* \"#utility.yul\":14872:14873   */\n      dup3\n        /* \"#utility.yul\":14869:14950   */\n      gt\n        /* \"#utility.yul\":14866:14973   */\n      iszero\n      tag_464\n      jumpi\n        /* \"#utility.yul\":14953:14971   */\n      tag_465\n      tag_278\n      jump\t// in\n    tag_465:\n        /* \"#utility.yul\":14866:14973   */\n    tag_464:\n        /* \"#utility.yul\":14997:14998   */\n      dup3\n        /* \"#utility.yul\":14994:14995   */\n      dup3\n        /* \"#utility.yul\":14990:14999   */\n      add\n        /* \"#utility.yul\":14983:14999   */\n      swap1\n      pop\n        /* \"#utility.yul\":14700:15005   */\n      swap3\n      swap2\n      pop\n      pop\n      jump\t// out\n        /* \"#utility.yul\":15011:15453   */\n    tag_161:\n        /* \"#utility.yul\":15160:15164   */\n      0x00\n        /* \"#utility.yul\":15198:15200   */\n      0x60\n        /* \"#utility.yul\":15187:15196   */\n      dup3\n        /* \"#utility.yul\":15183:15201   */\n      add\n        /* \"#utility.yul\":15175:15201   */\n      swap1\n      pop\n        /* \"#utility.yul\":15211:15282   */\n      tag_467\n        /* \"#utility.yul\":15279:15280   */\n      0x00\n        /* \"#utility.yul\":15268:15277   */\n      dup4\n        /* \"#utility.yul\":15264:15281   */\n      add\n        /* \"#utility.yul\":15255:15261   */\n      dup7\n        /* \"#utility.yul\":15211:15282   */\n      tag_261\n      jump\t// in\n    tag_467:\n        /* \"#utility.yul\":15292:15364   */\n      tag_468\n        /* \"#utility.yul\":15360:15362   */\n      0x20\n        /* \"#utility.yul\":15349:15358   */\n      dup4\n        /* \"#utility.yul\":15345:15363   */\n      add\n        /* \"#utility.yul\":15336:15342   */\n      dup6\n        /* \"#utility.yul\":15292:15364   */\n      tag_261\n      jump\t// in\n    tag_468:\n        /* \"#utility.yul\":15374:15446   */\n      tag_469\n        /* \"#utility.yul\":15442:15444   */\n      0x40\n        /* \"#utility.yul\":15431:15440   */\n      dup4\n        /* \"#utility.yul\":15427:15445   */\n      add\n        /* \"#utility.yul\":15418:15424   */\n      dup5\n        /* \"#utility.yul\":15374:15446   */\n      tag_250\n      jump\t// in\n    tag_469:\n        /* \"#utility.yul\":15011:15453   */\n      swap5\n      swap4\n      pop\n      pop\n      pop\n      pop\n      jump\t// out\n        /* \"#utility.yul\":15459:15596   */\n    tag_283:\n        /* \"#utility.yul\":15513:15518   */\n      0x00\n        /* \"#utility.yul\":15544:15550   */\n      dup2\n        /* \"#utility.yul\":15538:15551   */\n      mload\n        /* \"#utility.yul\":15529:15551   */\n      swap1\n      pop\n        /* \"#utility.yul\":15560:15590   */\n      tag_471\n        /* \"#utility.yul\":15584:15589   */\n      dup2\n        /* \"#utility.yul\":15560:15590   */\n      tag_276\n      jump\t// in\n    tag_471:\n        /* \"#utility.yul\":15459:15596   */\n      swap3\n      swap2\n      pop\n      pop\n      jump\t// out\n        /* \"#utility.yul\":15602:15947   */\n    tag_165:\n        /* \"#utility.yul\":15669:15675   */\n      0x00\n        /* \"#utility.yul\":15718:15720   */\n      0x20\n        /* \"#utility.yul\":15706:15715   */\n      dup3\n        /* \"#utility.yul\":15697:15704   */\n      dup5\n        /* \"#utility.yul\":15693:15716   */\n      sub\n        /* \"#utility.yul\":15689:15721   */\n      slt\n        /* \"#utility.yul\":15686:15805   */\n      iszero\n      tag_473\n      jumpi\n        /* \"#utility.yul\":15724:15803   */\n      tag_474\n      tag_241\n      jump\t// in\n    tag_474:\n        /* \"#utility.yul\":15686:15805   */\n    tag_473:\n        /* \"#utility.yul\":15844:15845   */\n      0x00\n        /* \"#utility.yul\":15869:15930   */\n      tag_475\n        /* \"#utility.yul\":15922:15929   */\n      dup5\n        /* \"#utility.yul\":15913:15919   */\n      dup3\n        /* \"#utility.yul\":15902:15911   */\n      dup6\n        /* \"#utility.yul\":15898:15920   */\n      add\n        /* \"#utility.yul\":15869:15930   */\n      tag_283\n      jump\t// in\n    tag_475:\n        /* \"#utility.yul\":15859:15930   */\n      swap2\n      pop\n        /* \"#utility.yul\":15815:15940   */\n      pop\n        /* \"#utility.yul\":15602:15947   */\n      swap3\n      swap2\n      pop\n      pop\n      jump\t// out\n        /* \"#utility.yul\":15953:16108   */\n    tag_284:\n        /* \"#utility.yul\":16093:16100   */\n      0x6572726f72000000000000000000000000000000000000000000000000000000\n        /* \"#utility.yul\":16089:16090   */\n      0x00\n        /* \"#utility.yul\":16081:16087   */\n      dup3\n        /* \"#utility.yul\":16077:16091   */\n      add\n        /* \"#utility.yul\":16070:16101   */\n      mstore\n        /* \"#utility.yul\":15953:16108   */\n      pop\n      jump\t// out\n        /* \"#utility.yul\":16114:16479   */\n    tag_285:\n        /* \"#utility.yul\":16256:16259   */\n      0x00\n        /* \"#utility.yul\":16277:16343   */\n      tag_478\n        /* \"#utility.yul\":16341:16342   */\n      0x05\n        /* \"#utility.yul\":16336:16339   */\n      dup4\n        /* \"#utility.yul\":16277:16343   */\n      tag_279\n      jump\t// in\n    tag_478:\n        /* \"#utility.yul\":16270:16343   */\n      swap2\n      pop\n        /* \"#utility.yul\":16352:16445   */\n      tag_479\n        /* \"#utility.yul\":16441:16444   */\n      dup3\n        /* \"#utility.yul\":16352:16445   */\n      tag_284\n      jump\t// in\n    tag_479:\n        /* \"#utility.yul\":16470:16472   */\n      0x20\n        /* \"#utility.yul\":16465:16468   */\n      dup3\n        /* \"#utility.yul\":16461:16473   */\n      add\n        /* \"#utility.yul\":16454:16473   */\n      swap1\n      pop\n        /* \"#utility.yul\":16114:16479   */\n      swap2\n      swap1\n      pop\n      jump\t// out\n        /* \"#utility.yul\":16485:16904   */\n    tag_168:\n        /* \"#utility.yul\":16651:16655   */\n      0x00\n        /* \"#utility.yul\":16689:16691   */\n      0x20\n        /* \"#utility.yul\":16678:16687   */\n      dup3\n        /* \"#utility.yul\":16674:16692   */\n      add\n        /* \"#utility.yul\":16666:16692   */\n      swap1\n      pop\n        /* \"#utility.yul\":16738:16747   */\n      dup2\n        /* \"#utility.yul\":16732:16736   */\n      dup2\n        /* \"#utility.yul\":16728:16748   */\n      sub\n        /* \"#utility.yul\":16724:16725   */\n      0x00\n        /* \"#utility.yul\":16713:16722   */\n      dup4\n        /* \"#utility.yul\":16709:16726   */\n      add\n        /* \"#utility.yul\":16702:16749   */\n      mstore\n        /* \"#utility.yul\":16766:16897   */\n      tag_481\n        /* \"#utility.yul\":16892:16896   */\n      dup2\n        /* \"#utility.yul\":16766:16897   */\n      tag_285\n      jump\t// in\n    tag_481:\n        /* \"#utility.yul\":16758:16897   */\n      swap1\n      pop\n        /* \"#utility.yul\":16485:16904   */\n      swap2\n      swap1\n      pop\n      jump\t// out\n        /* \"#utility.yul\":16910:17064   */\n    tag_286:\n        /* \"#utility.yul\":17050:17056   */\n      0x6572726f00000000000000000000000000000000000000000000000000000000\n        /* \"#utility.yul\":17046:17047   */\n      0x00\n        /* \"#utility.yul\":17038:17044   */\n      dup3\n        /* \"#utility.yul\":17034:17048   */\n      add\n        /* \"#utility.yul\":17027:17057   */\n      mstore\n        /* \"#utility.yul\":16910:17064   */\n      pop\n      jump\t// out\n        /* \"#utility.yul\":17070:17435   */\n    tag_287:\n        /* \"#utility.yul\":17212:17215   */\n      0x00\n        /* \"#utility.yul\":17233:17299   */\n      tag_484\n        /* \"#utility.yul\":17297:17298   */\n      0x04\n        /* \"#utility.yul\":17292:17295   */\n      dup4\n        /* \"#utility.yul\":17233:17299   */\n      tag_279\n      jump\t// in\n    tag_484:\n        /* \"#utility.yul\":17226:17299   */\n      swap2\n      pop\n        /* \"#utility.yul\":17308:17401   */\n      tag_485\n        /* \"#utility.yul\":17397:17400   */\n      dup3\n        /* \"#utility.yul\":17308:17401   */\n      tag_286\n      jump\t// in\n    tag_485:\n        /* \"#utility.yul\":17426:17428   */\n      0x20\n        /* \"#utility.yul\":17421:17424   */\n      dup3\n        /* \"#utility.yul\":17417:17429   */\n      add\n        /* \"#utility.yul\":17410:17429   */\n      swap1\n      pop\n        /* \"#utility.yul\":17070:17435   */\n      swap2\n      swap1\n      pop\n      jump\t// out\n        /* \"#utility.yul\":17441:17860   */\n    tag_190:\n        /* \"#utility.yul\":17607:17611   */\n      0x00\n        /* \"#utility.yul\":17645:17647   */\n      0x20\n        /* \"#utility.yul\":17634:17643   */\n      dup3\n        /* \"#utility.yul\":17630:17648   */\n      add\n        /* \"#utility.yul\":17622:17648   */\n      swap1\n      pop\n        /* \"#utility.yul\":17694:17703   */\n      dup2\n        /* \"#utility.yul\":17688:17692   */\n      dup2\n        /* \"#utility.yul\":17684:17704   */\n      sub\n        /* \"#utility.yul\":17680:17681   */\n      0x00\n        /* \"#utility.yul\":17669:17678   */\n      dup4\n        /* \"#utility.yul\":17665:17682   */\n      add\n        /* \"#utility.yul\":17658:17705   */\n      mstore\n        /* \"#utility.yul\":17722:17853   */\n      tag_487\n        /* \"#utility.yul\":17848:17852   */\n      dup2\n        /* \"#utility.yul\":17722:17853   */\n      tag_287\n      jump\t// in\n    tag_487:\n        /* \"#utility.yul\":17714:17853   */\n      swap1\n      pop\n        /* \"#utility.yul\":17441:17860   */\n      swap2\n      swap1\n      pop\n      jump\t// out\n        /* \"#utility.yul\":17866:18112   */\n    tag_288:\n        /* \"#utility.yul\":18006:18040   */\n      0x596f75206861766520746f207061792066656520746f2075736520536e697065\n        /* \"#utility.yul\":18002:18003   */\n      0x00\n        /* \"#utility.yul\":17994:18000   */\n      dup3\n        /* \"#utility.yul\":17990:18004   */\n      add\n        /* \"#utility.yul\":17983:18041   */\n      mstore\n        /* \"#utility.yul\":18075:18104   */\n      0x46696e616e6365204d756c74692062756c6b2066756e6374696f6e0000000000\n        /* \"#utility.yul\":18070:18072   */\n      0x20\n        /* \"#utility.yul\":18062:18068   */\n      dup3\n        /* \"#utility.yul\":18058:18073   */\n      add\n        /* \"#utility.yul\":18051:18105   */\n      mstore\n        /* \"#utility.yul\":17866:18112   */\n      pop\n      jump\t// out\n        /* \"#utility.yul\":18118:18484   */\n    tag_289:\n        /* \"#utility.yul\":18260:18263   */\n      0x00\n        /* \"#utility.yul\":18281:18348   */\n      tag_490\n        /* \"#utility.yul\":18345:18347   */\n      0x3b\n        /* \"#utility.yul\":18340:18343   */\n      dup4\n        /* \"#utility.yul\":18281:18348   */\n      tag_279\n      jump\t// in\n    tag_490:\n        /* \"#utility.yul\":18274:18348   */\n      swap2\n      pop\n        /* \"#utility.yul\":18357:18450   */\n      tag_491\n        /* \"#utility.yul\":18446:18449   */\n      dup3\n        /* \"#utility.yul\":18357:18450   */\n      tag_288\n      jump\t// in\n    tag_491:\n        /* \"#utility.yul\":18475:18477   */\n      0x40\n        /* \"#utility.yul\":18470:18473   */\n      dup3\n        /* \"#utility.yul\":18466:18478   */\n      add\n        /* \"#utility.yul\":18459:18478   */\n      swap1\n      pop\n        /* \"#utility.yul\":18118:18484   */\n      swap2\n      swap1\n      pop\n      jump\t// out\n        /* \"#utility.yul\":18490:18909   */\n    tag_203:\n        /* \"#utility.yul\":18656:18660   */\n      0x00\n        /* \"#utility.yul\":18694:18696   */\n      0x20\n        /* \"#utility.yul\":18683:18692   */\n      dup3\n        /* \"#utility.yul\":18679:18697   */\n      add\n        /* \"#utility.yul\":18671:18697   */\n      swap1\n      pop\n        /* \"#utility.yul\":18743:18752   */\n      dup2\n        /* \"#utility.yul\":18737:18741   */\n      dup2\n        /* \"#utility.yul\":18733:18753   */\n      sub\n        /* \"#utility.yul\":18729:18730   */\n      0x00\n        /* \"#utility.yul\":18718:18727   */\n      dup4\n        /* \"#utility.yul\":18714:18731   */\n      add\n        /* \"#utility.yul\":18707:18754   */\n      mstore\n        /* \"#utility.yul\":18771:18902   */\n      tag_493\n        /* \"#utility.yul\":18897:18901   */\n      dup2\n        /* \"#utility.yul\":18771:18902   */\n      tag_289\n      jump\t// in\n    tag_493:\n        /* \"#utility.yul\":18763:18902   */\n      swap1\n      pop\n        /* \"#utility.yul\":18490:18909   */\n      swap2\n      swap1\n      pop\n      jump\t// out\n        /* \"#utility.yul\":18915:19140   */\n    tag_290:\n        /* \"#utility.yul\":19055:19089   */\n      0x4f776e61626c653a206e6577206f776e657220697320746865207a65726f2061\n        /* \"#utility.yul\":19051:19052   */\n      0x00\n        /* \"#utility.yul\":19043:19049   */\n      dup3\n        /* \"#utility.yul\":19039:19053   */\n      add\n        /* \"#utility.yul\":19032:19090   */\n      mstore\n        /* \"#utility.yul\":19124:19132   */\n      0x6464726573730000000000000000000000000000000000000000000000000000\n        /* \"#utility.yul\":19119:19121   */\n      0x20\n        /* \"#utility.yul\":19111:19117   */\n      dup3\n        /* \"#utility.yul\":19107:19122   */\n      add\n        /* \"#utility.yul\":19100:19133   */\n      mstore\n        /* \"#utility.yul\":18915:19140   */\n      pop\n      jump\t// out\n        /* \"#utility.yul\":19146:19512   */\n    tag_291:\n        /* \"#utility.yul\":19288:19291   */\n      0x00\n        /* \"#utility.yul\":19309:19376   */\n      tag_496\n        /* \"#utility.yul\":19373:19375   */\n      0x26\n        /* \"#utility.yul\":19368:19371   */\n      dup4\n        /* \"#utility.yul\":19309:19376   */\n      tag_279\n      jump\t// in\n    tag_496:\n        /* \"#utility.yul\":19302:19376   */\n      swap2\n      pop\n        /* \"#utility.yul\":19385:19478   */\n      tag_497\n        /* \"#utility.yul\":19474:19477   */\n      dup3\n        /* \"#utility.yul\":19385:19478   */\n      tag_290\n      jump\t// in\n    tag_497:\n        /* \"#utility.yul\":19503:19505   */\n      0x40\n        /* \"#utility.yul\":19498:19501   */\n      dup3\n        /* \"#utility.yul\":19494:19506   */\n      add\n        /* \"#utility.yul\":19487:19506   */\n      swap1\n      pop\n        /* \"#utility.yul\":19146:19512   */\n      swap2\n      swap1\n      pop\n      jump\t// out\n        /* \"#utility.yul\":19518:19937   */\n    tag_225:\n        /* \"#utility.yul\":19684:19688   */\n      0x00\n        /* \"#utility.yul\":19722:19724   */\n      0x20\n        /* \"#utility.yul\":19711:19720   */\n      dup3\n        /* \"#utility.yul\":19707:19725   */\n      add\n        /* \"#utility.yul\":19699:19725   */\n      swap1\n      pop\n        /* \"#utility.yul\":19771:19780   */\n      dup2\n        /* \"#utility.yul\":19765:19769   */\n      dup2\n        /* \"#utility.yul\":19761:19781   */\n      sub\n        /* \"#utility.yul\":19757:19758   */\n      0x00\n        /* \"#utility.yul\":19746:19755   */\n      dup4\n        /* \"#utility.yul\":19742:19759   */\n      add\n        /* \"#utility.yul\":19735:19782   */\n      mstore\n        /* \"#utility.yul\":19799:19930   */\n      tag_499\n        /* \"#utility.yul\":19925:19929   */\n      dup2\n        /* \"#utility.yul\":19799:19930   */\n      tag_291\n      jump\t// in\n    tag_499:\n        /* \"#utility.yul\":19791:19930   */\n      swap1\n      pop\n        /* \"#utility.yul\":19518:19937   */\n      swap2\n      swap1\n      pop\n      jump\t// out\n        /* \"#utility.yul\":19943:20125   */\n    tag_292:\n        /* \"#utility.yul\":20083:20117   */\n      0x4f776e61626c653a2063616c6c6572206973206e6f7420746865206f776e6572\n        /* \"#utility.yul\":20079:20080   */\n      0x00\n        /* \"#utility.yul\":20071:20077   */\n      dup3\n        /* \"#utility.yul\":20067:20081   */\n      add\n        /* \"#utility.yul\":20060:20118   */\n      mstore\n        /* \"#utility.yul\":19943:20125   */\n      pop\n      jump\t// out\n        /* \"#utility.yul\":20131:20497   */\n    tag_293:\n        /* \"#utility.yul\":20273:20276   */\n      0x00\n        /* \"#utility.yul\":20294:20361   */\n      tag_502\n        /* \"#utility.yul\":20358:20360   */\n      0x20\n        /* \"#utility.yul\":20353:20356   */\n      dup4\n        /* \"#utility.yul\":20294:20361   */\n      tag_279\n      jump\t// in\n    tag_502:\n        /* \"#utility.yul\":20287:20361   */\n      swap2\n      pop\n        /* \"#utility.yul\":20370:20463   */\n      tag_503\n        /* \"#utility.yul\":20459:20462   */\n      dup3\n        /* \"#utility.yul\":20370:20463   */\n      tag_292\n      jump\t// in\n    tag_503:\n        /* \"#utility.yul\":20488:20490   */\n      0x20\n        /* \"#utility.yul\":20483:20486   */\n      dup3\n        /* \"#utility.yul\":20479:20491   */\n      add\n        /* \"#utility.yul\":20472:20491   */\n      swap1\n      pop\n        /* \"#utility.yul\":20131:20497   */\n      swap2\n      swap1\n      pop\n      jump\t// out\n        /* \"#utility.yul\":20503:20922   */\n    tag_237:\n        /* \"#utility.yul\":20669:20673   */\n      0x00\n        /* \"#utility.yul\":20707:20709   */\n      0x20\n        /* \"#utility.yul\":20696:20705   */\n      dup3\n        /* \"#utility.yul\":20692:20710   */\n      add\n        /* \"#utility.yul\":20684:20710   */\n      swap1\n      pop\n        /* \"#utility.yul\":20756:20765   */\n      dup2\n        /* \"#utility.yul\":20750:20754   */\n      dup2\n        /* \"#utility.yul\":20746:20766   */\n      sub\n        /* \"#utility.yul\":20742:20743   */\n      0x00\n        /* \"#utility.yul\":20731:20740   */\n      dup4\n        /* \"#utility.yul\":20727:20744   */\n      add\n        /* \"#utility.yul\":20720:20767   */\n      mstore\n        /* \"#utility.yul\":20784:20915   */\n      tag_505\n        /* \"#utility.yul\":20910:20914   */\n      dup2\n        /* \"#utility.yul\":20784:20915   */\n      tag_293\n      jump\t// in\n    tag_505:\n        /* \"#utility.yul\":20776:20915   */\n      swap1\n      pop\n        /* \"#utility.yul\":20503:20922   */\n      swap2\n      swap1\n      pop\n      jump\t// out\n\n    auxdata: 0xa2646970667358221220801eb3be4d2e6f7171503e1bc58127bdf4664635fb13a40a70c920a19f99a29564736f6c634300080d0033\n}\n",
				"bytecode": {
					"linkReferences": {},
					"object": "608060405234801561001057600080fd5b5061002d61002261008d60201b60201c565b61009560201b60201c565b61003b61015960201b60201c565b600260006101000a81548173ffffffffffffffffffffffffffffffffffffffff021916908373ffffffffffffffffffffffffffffffffffffffff160217905550655af3107a4000600181905550610182565b600033905090565b60008060009054906101000a900473ffffffffffffffffffffffffffffffffffffffff169050816000806101000a81548173ffffffffffffffffffffffffffffffffffffffff021916908373ffffffffffffffffffffffffffffffffffffffff1602179055508173ffffffffffffffffffffffffffffffffffffffff168173ffffffffffffffffffffffffffffffffffffffff167f8be0079c531659141344cd1fd0a4f28419497f9722a3daafe3b4186f6b6457e060405160405180910390a35050565b60008060009054906101000a900473ffffffffffffffffffffffffffffffffffffffff16905090565b611c5a80620001926000396000f3fe6080604052600436106101095760003560e01c80639c8b9e7b11610095578063ddca3f4311610064578063ddca3f4314610324578063e3cec8491461034f578063f2fde38b1461036b578063f7260d3e14610394578063fb520af2146103bf57610109565b80639c8b9e7b146102755780639cbd3433146102a0578063a4df0256146102bc578063b810c636146102f957610109565b80633feff76d116100dc5780633feff76d146101a257806344b6209d146101cd5780634b4fb1b01461020a578063715018a6146102335780638da5cb5b1461024a57610109565b8063126ccd941461010e57806317fc45e2146101375780632fc75eb0146101625780633ccfd60b1461018b575b600080fd5b34801561011a57600080fd5b5061013560048036038101906101309190611178565b6103e8565b005b34801561014357600080fd5b5061014c61043c565b60405161015991906111c7565b60405180910390f35b34801561016e57600080fd5b5061018960048036038101906101849190611220565b610442565b005b34801561019757600080fd5b506101a0610496565b005b3480156101ae57600080fd5b506101b76104f5565b6040516101c491906112bf565b60405180910390f35b3480156101d957600080fd5b506101f460048036038101906101ef91906112da565b61051b565b6040516102019190611322565b60405180910390f35b34801561021657600080fd5b50610231600480360381019061022c91906112da565b61053b565b005b34801561023f57600080fd5b5061024861059e565b005b34801561025657600080fd5b5061025f6105b2565b60405161026c919061134c565b60405180910390f35b34801561028157600080fd5b5061028a6105db565b60405161029791906111c7565b60405180910390f35b6102ba60048036038101906102b59190611583565b6105e1565b005b3480156102c857600080fd5b506102e360048036038101906102de91906112da565b610b04565b6040516102f09190611322565b60405180910390f35b34801561030557600080fd5b5061030e610b5a565b60405161031b91906111c7565b60405180910390f35b34801561033057600080fd5b50610339610b64565b60405161034691906111c7565b60405180910390f35b6103696004803603810190610364919061160e565b610b6a565b005b34801561037757600080fd5b50610392600480360381019061038d91906112da565b610e27565b005b3480156103a057600080fd5b506103a9610eaa565b6040516103b691906116a7565b60405180910390f35b3480156103cb57600080fd5b506103e660048036038101906103e191906116ee565b610ed0565b005b6103f0610f86565b8160018190555080600260006101000a81548173ffffffffffffffffffffffffffffffffffffffff021916908373ffffffffffffffffffffffffffffffffffffffff1602179055505050565b60065481565b61044a610f86565b81600560006101000a81548173ffffffffffffffffffffffffffffffffffffffff021916908373ffffffffffffffffffffffffffffffffffffffff160217905550806006819055505050565b61049e610f86565b600060035411156104f3573373ffffffffffffffffffffffffffffffffffffffff166108fc6003549081150290604051600060405180830381858888f193505050501580156104f1573d6000803e3d6000fd5b505b565b600560009054906101000a900473ffffffffffffffffffffffffffffffffffffffff1681565b60046020528060005260406000206000915054906101000a900460ff1681565b610543610f86565b6001600460008373ffffffffffffffffffffffffffffffffffffffff1673ffffffffffffffffffffffffffffffffffffffff16815260200190815260200160002060006101000a81548160ff02191690831515021790555050565b6105a6610f86565b6105b06000611004565b565b60008060009054906101000a900473ffffffffffffffffffffffffffffffffffffffff16905090565b60035481565b60005b815181101561064d57670de0b6b3a76400008282815181106106095761060861172e565b5b602002602001015161061b919061178c565b82828151811061062e5761062d61172e565b5b6020026020010181815250508080610645906117e6565b9150506105e4565b508051825114610692576040517f08c379a00000000000000000000000000000000000000000000000000000000081526004016106899061188b565b60405180910390fd5b600460003373ffffffffffffffffffffffffffffffffffffffff1673ffffffffffffffffffffffffffffffffffffffff16815260200190815260200160002060009054906101000a900460ff1615801561076657506006548373ffffffffffffffffffffffffffffffffffffffff166370a08231336040518263ffffffff1660e01b8152600401610723919061134c565b602060405180830381865afa158015610740573d6000803e3d6000fd5b505050506040513d601f19601f8201168201806040525081019061076491906118c0565b105b15610909576001546003600082825461077f91906118ed565b92505081905550600260009054906101000a900473ffffffffffffffffffffffffffffffffffffffff1673ffffffffffffffffffffffffffffffffffffffff166108fc6001549081150290604051600060405180830381858888f193505050501580156107f0573d6000803e3d6000fd5b5060005b8151811015610903578373ffffffffffffffffffffffffffffffffffffffff166323b872dd3385848151811061082d5761082c61172e565b5b60200260200101518585815181106108485761084761172e565b5b60200260200101516040518463ffffffff1660e01b815260040161086e93929190611943565b6020604051808303816000875af115801561088d573d6000803e3d6000fd5b505050506040513d601f19601f820116820180604052508101906108b1919061198f565b6108f0576040517f08c379a00000000000000000000000000000000000000000000000000000000081526004016108e790611a08565b60405180910390fd5b80806108fb906117e6565b9150506107f4565b50610aff565b60018061099057506006548373ffffffffffffffffffffffffffffffffffffffff166370a08231336040518263ffffffff1660e01b815260040161094d919061134c565b602060405180830381865afa15801561096a573d6000803e3d6000fd5b505050506040513d601f19601f8201168201806040525081019061098e91906118c0565b115b600460003373ffffffffffffffffffffffffffffffffffffffff1673ffffffffffffffffffffffffffffffffffffffff16815260200190815260200160002060006101000a81548160ff021916908315150217905515610afe5760005b8151811015610afc578373ffffffffffffffffffffffffffffffffffffffff166323b872dd33858481518110610a2657610a2561172e565b5b6020026020010151858581518110610a4157610a4061172e565b5b60200260200101516040518463ffffffff1660e01b8152600401610a6793929190611943565b6020604051808303816000875af1158015610a86573d6000803e3d6000fd5b505050506040513d601f19601f82011682018060405250810190610aaa919061198f565b610ae9576040517f08c379a0000000000000000000000000000000000000000000000000000000008152600401610ae090611a74565b60405180910390fd5b8080610af4906117e6565b9150506109ed565b505b5b505050565b6000600460008373ffffffffffffffffffffffffffffffffffffffff1673ffffffffffffffffffffffffffffffffffffffff16815260200190815260200160002060009054906101000a900460ff169050919050565b6000600154905090565b60015481565b600460003373ffffffffffffffffffffffffffffffffffffffff1673ffffffffffffffffffffffffffffffffffffffff16815260200190815260200160002060009054906101000a900460ff16158015610c605750600654600560009054906101000a900473ffffffffffffffffffffffffffffffffffffffff1673ffffffffffffffffffffffffffffffffffffffff166370a08231336040518263ffffffff1660e01b8152600401610c1d919061134c565b602060405180830381865afa158015610c3a573d6000803e3d6000fd5b505050506040513d601f19601f82011682018060405250810190610c5e91906118c0565b105b15610d3157600154341015610caa576040517f08c379a0000000000000000000000000000000000000000000000000000000008152600401610ca190611b06565b60405180910390fd5b60015460036000828254610cbe91906118ed565b92505081905550600260009054906101000a900473ffffffffffffffffffffffffffffffffffffffff1673ffffffffffffffffffffffffffffffffffffffff166108fc6001549081150290604051600060405180830381858888f19350505050158015610d2f573d6000803e3d6000fd5b505b60005b8251811015610dcb57828181518110610d5057610d4f61172e565b5b602002602001015173ffffffffffffffffffffffffffffffffffffffff166108fc838381518110610d8457610d8361172e565b5b60200260200101519081150290604051600060405180830381858888f19350505050158015610db7573d6000803e3d6000fd5b508080610dc3906117e6565b915050610d34565b5060004790506000811115610e22573373ffffffffffffffffffffffffffffffffffffffff166108fc829081150290604051600060405180830381858888f19350505050158015610e20573d6000803e3d6000fd5b505b505050565b610e2f610f86565b600073ffffffffffffffffffffffffffffffffffffffff168173ffffffffffffffffffffffffffffffffffffffff1603610e9e576040517f08c379a0000000000000000000000000000000000000000000000000000000008152600401610e9590611b98565b60405180910390fd5b610ea781611004565b50565b600260009054906101000a900473ffffffffffffffffffffffffffffffffffffffff1681565b610ed8610f86565b600460008373ffffffffffffffffffffffffffffffffffffffff1673ffffffffffffffffffffffffffffffffffffffff16815260200190815260200160002060009054906101000a900460ff1615610f825780600460008473ffffffffffffffffffffffffffffffffffffffff1673ffffffffffffffffffffffffffffffffffffffff16815260200190815260200160002060006101000a81548160ff0219169083151502179055505b5050565b610f8e6110c8565b73ffffffffffffffffffffffffffffffffffffffff16610fac6105b2565b73ffffffffffffffffffffffffffffffffffffffff1614611002576040517f08c379a0000000000000000000000000000000000000000000000000000000008152600401610ff990611c04565b60405180910390fd5b565b60008060009054906101000a900473ffffffffffffffffffffffffffffffffffffffff169050816000806101000a81548173ffffffffffffffffffffffffffffffffffffffff021916908373ffffffffffffffffffffffffffffffffffffffff1602179055508173ffffffffffffffffffffffffffffffffffffffff168173ffffffffffffffffffffffffffffffffffffffff167f8be0079c531659141344cd1fd0a4f28419497f9722a3daafe3b4186f6b6457e060405160405180910390a35050565b600033905090565b6000604051905090565b600080fd5b600080fd5b6000819050919050565b6110f7816110e4565b811461110257600080fd5b50565b600081359050611114816110ee565b92915050565b600073ffffffffffffffffffffffffffffffffffffffff82169050919050565b60006111458261111a565b9050919050565b6111558161113a565b811461116057600080fd5b50565b6000813590506111728161114c565b92915050565b6000806040838503121561118f5761118e6110da565b5b600061119d85828601611105565b92505060206111ae85828601611163565b9150509250929050565b6111c1816110e4565b82525050565b60006020820190506111dc60008301846111b8565b92915050565b60006111ed8261113a565b9050919050565b6111fd816111e2565b811461120857600080fd5b50565b60008135905061121a816111f4565b92915050565b60008060408385031215611237576112366110da565b5b60006112458582860161120b565b925050602061125685828601611105565b9150509250929050565b6000819050919050565b600061128561128061127b8461111a565b611260565b61111a565b9050919050565b60006112978261126a565b9050919050565b60006112a98261128c565b9050919050565b6112b98161129e565b82525050565b60006020820190506112d460008301846112b0565b92915050565b6000602082840312156112f0576112ef6110da565b5b60006112fe84828501611163565b91505092915050565b60008115159050919050565b61131c81611307565b82525050565b60006020820190506113376000830184611313565b92915050565b6113468161113a565b82525050565b6000602082019050611361600083018461133d565b92915050565b600080fd5b6000601f19601f8301169050919050565b7f4e487b7100000000000000000000000000000000000000000000000000000000600052604160045260246000fd5b6113b58261136c565b810181811067ffffffffffffffff821117156113d4576113d361137d565b5b80604052505050565b60006113e76110d0565b90506113f382826113ac565b919050565b600067ffffffffffffffff8211156114135761141261137d565b5b602082029050602081019050919050565b600080fd5b600061143c611437846113f8565b6113dd565b9050808382526020820190506020840283018581111561145f5761145e611424565b5b835b8181101561148857806114748882611163565b845260208401935050602081019050611461565b5050509392505050565b600082601f8301126114a7576114a6611367565b5b81356114b7848260208601611429565b91505092915050565b600067ffffffffffffffff8211156114db576114da61137d565b5b602082029050602081019050919050565b60006114ff6114fa846114c0565b6113dd565b9050808382526020820190506020840283018581111561152257611521611424565b5b835b8181101561154b57806115378882611105565b845260208401935050602081019050611524565b5050509392505050565b600082601f83011261156a57611569611367565b5b813561157a8482602086016114ec565b91505092915050565b60008060006060848603121561159c5761159b6110da565b5b60006115aa8682870161120b565b935050602084013567ffffffffffffffff8111156115cb576115ca6110df565b5b6115d786828701611492565b925050604084013567ffffffffffffffff8111156115f8576115f76110df565b5b61160486828701611555565b9150509250925092565b60008060408385031215611625576116246110da565b5b600083013567ffffffffffffffff811115611643576116426110df565b5b61164f85828601611492565b925050602083013567ffffffffffffffff8111156116705761166f6110df565b5b61167c85828601611555565b9150509250929050565b60006116918261111a565b9050919050565b6116a181611686565b82525050565b60006020820190506116bc6000830184611698565b92915050565b6116cb81611307565b81146116d657600080fd5b50565b6000813590506116e8816116c2565b92915050565b60008060408385031215611705576117046110da565b5b600061171385828601611163565b9250506020611724858286016116d9565b9150509250929050565b7f4e487b7100000000000000000000000000000000000000000000000000000000600052603260045260246000fd5b7f4e487b7100000000000000000000000000000000000000000000000000000000600052601160045260246000fd5b6000611797826110e4565b91506117a2836110e4565b9250817fffffffffffffffffffffffffffffffffffffffffffffffffffffffffffffffff04831182151516156117db576117da61175d565b5b828202905092915050565b60006117f1826110e4565b91507fffffffffffffffffffffffffffffffffffffffffffffffffffffffffffffffff82036118235761182261175d565b5b600182019050919050565b600082825260208201905092915050565b7f696e76616c696420696e7075742073697a650000000000000000000000000000600082015250565b600061187560128361182e565b91506118808261183f565b602082019050919050565b600060208201905081810360008301526118a481611868565b9050919050565b6000815190506118ba816110ee565b92915050565b6000602082840312156118d6576118d56110da565b5b60006118e4848285016118ab565b91505092915050565b60006118f8826110e4565b9150611903836110e4565b9250827fffffffffffffffffffffffffffffffffffffffffffffffffffffffffffffffff038211156119385761193761175d565b5b828201905092915050565b6000606082019050611958600083018661133d565b611965602083018561133d565b61197260408301846111b8565b949350505050565b600081519050611989816116c2565b92915050565b6000602082840312156119a5576119a46110da565b5b60006119b38482850161197a565b91505092915050565b7f6572726f72000000000000000000000000000000000000000000000000000000600082015250565b60006119f260058361182e565b91506119fd826119bc565b602082019050919050565b60006020820190508181036000830152611a21816119e5565b9050919050565b7f6572726f00000000000000000000000000000000000000000000000000000000600082015250565b6000611a5e60048361182e565b9150611a6982611a28565b602082019050919050565b60006020820190508181036000830152611a8d81611a51565b9050919050565b7f596f75206861766520746f207061792066656520746f2075736520536e69706560008201527f46696e616e6365204d756c74692062756c6b2066756e6374696f6e0000000000602082015250565b6000611af0603b8361182e565b9150611afb82611a94565b604082019050919050565b60006020820190508181036000830152611b1f81611ae3565b9050919050565b7f4f776e61626c653a206e6577206f776e657220697320746865207a65726f206160008201527f6464726573730000000000000000000000000000000000000000000000000000602082015250565b6000611b8260268361182e565b9150611b8d82611b26565b604082019050919050565b60006020820190508181036000830152611bb181611b75565b9050919050565b7f4f776e61626c653a2063616c6c6572206973206e6f7420746865206f776e6572600082015250565b6000611bee60208361182e565b9150611bf982611bb8565b602082019050919050565b60006020820190508181036000830152611c1d81611be1565b905091905056fea2646970667358221220801eb3be4d2e6f7171503e1bc58127bdf4664635fb13a40a70c920a19f99a29564736f6c634300080d0033",
					"opcodes": "PUSH1 0x80 PUSH1 0x40 MSTORE CALLVALUE DUP1 ISZERO PUSH2 0x10 JUMPI PUSH1 0x0 DUP1 REVERT JUMPDEST POP PUSH2 0x2D PUSH2 0x22 PUSH2 0x8D PUSH1 0x20 SHL PUSH1 0x20 SHR JUMP JUMPDEST PUSH2 0x95 PUSH1 0x20 SHL PUSH1 0x20 SHR JUMP JUMPDEST PUSH2 0x3B PUSH2 0x159 PUSH1 0x20 SHL PUSH1 0x20 SHR JUMP JUMPDEST PUSH1 0x2 PUSH1 0x0 PUSH2 0x100 EXP DUP2 SLOAD DUP2 PUSH20 0xFFFFFFFFFFFFFFFFFFFFFFFFFFFFFFFFFFFFFFFF MUL NOT AND SWAP1 DUP4 PUSH20 0xFFFFFFFFFFFFFFFFFFFFFFFFFFFFFFFFFFFFFFFF AND MUL OR SWAP1 SSTORE POP PUSH6 0x5AF3107A4000 PUSH1 0x1 DUP2 SWAP1 SSTORE POP PUSH2 0x182 JUMP JUMPDEST PUSH1 0x0 CALLER SWAP1 POP SWAP1 JUMP JUMPDEST PUSH1 0x0 DUP1 PUSH1 0x0 SWAP1 SLOAD SWAP1 PUSH2 0x100 EXP SWAP1 DIV PUSH20 0xFFFFFFFFFFFFFFFFFFFFFFFFFFFFFFFFFFFFFFFF AND SWAP1 POP DUP2 PUSH1 0x0 DUP1 PUSH2 0x100 EXP DUP2 SLOAD DUP2 PUSH20 0xFFFFFFFFFFFFFFFFFFFFFFFFFFFFFFFFFFFFFFFF MUL NOT AND SWAP1 DUP4 PUSH20 0xFFFFFFFFFFFFFFFFFFFFFFFFFFFFFFFFFFFFFFFF AND MUL OR SWAP1 SSTORE POP DUP2 PUSH20 0xFFFFFFFFFFFFFFFFFFFFFFFFFFFFFFFFFFFFFFFF AND DUP2 PUSH20 0xFFFFFFFFFFFFFFFFFFFFFFFFFFFFFFFFFFFFFFFF AND PUSH32 0x8BE0079C531659141344CD1FD0A4F28419497F9722A3DAAFE3B4186F6B6457E0 PUSH1 0x40 MLOAD PUSH1 0x40 MLOAD DUP1 SWAP2 SUB SWAP1 LOG3 POP POP JUMP JUMPDEST PUSH1 0x0 DUP1 PUSH1 0x0 SWAP1 SLOAD SWAP1 PUSH2 0x100 EXP SWAP1 DIV PUSH20 0xFFFFFFFFFFFFFFFFFFFFFFFFFFFFFFFFFFFFFFFF AND SWAP1 POP SWAP1 JUMP JUMPDEST PUSH2 0x1C5A DUP1 PUSH3 0x192 PUSH1 0x0 CODECOPY PUSH1 0x0 RETURN INVALID PUSH1 0x80 PUSH1 0x40 MSTORE PUSH1 0x4 CALLDATASIZE LT PUSH2 0x109 JUMPI PUSH1 0x0 CALLDATALOAD PUSH1 0xE0 SHR DUP1 PUSH4 0x9C8B9E7B GT PUSH2 0x95 JUMPI DUP1 PUSH4 0xDDCA3F43 GT PUSH2 0x64 JUMPI DUP1 PUSH4 0xDDCA3F43 EQ PUSH2 0x324 JUMPI DUP1 PUSH4 0xE3CEC849 EQ PUSH2 0x34F JUMPI DUP1 PUSH4 0xF2FDE38B EQ PUSH2 0x36B JUMPI DUP1 PUSH4 0xF7260D3E EQ PUSH2 0x394 JUMPI DUP1 PUSH4 0xFB520AF2 EQ PUSH2 0x3BF JUMPI PUSH2 0x109 JUMP JUMPDEST DUP1 PUSH4 0x9C8B9E7B EQ PUSH2 0x275 JUMPI DUP1 PUSH4 0x9CBD3433 EQ PUSH2 0x2A0 JUMPI DUP1 PUSH4 0xA4DF0256 EQ PUSH2 0x2BC JUMPI DUP1 PUSH4 0xB810C636 EQ PUSH2 0x2F9 JUMPI PUSH2 0x109 JUMP JUMPDEST DUP1 PUSH4 0x3FEFF76D GT PUSH2 0xDC JUMPI DUP1 PUSH4 0x3FEFF76D EQ PUSH2 0x1A2 JUMPI DUP1 PUSH4 0x44B6209D EQ PUSH2 0x1CD JUMPI DUP1 PUSH4 0x4B4FB1B0 EQ PUSH2 0x20A JUMPI DUP1 PUSH4 0x715018A6 EQ PUSH2 0x233 JUMPI DUP1 PUSH4 0x8DA5CB5B EQ PUSH2 0x24A JUMPI PUSH2 0x109 JUMP JUMPDEST DUP1 PUSH4 0x126CCD94 EQ PUSH2 0x10E JUMPI DUP1 PUSH4 0x17FC45E2 EQ PUSH2 0x137 JUMPI DUP1 PUSH4 0x2FC75EB0 EQ PUSH2 0x162 JUMPI DUP1 PUSH4 0x3CCFD60B EQ PUSH2 0x18B JUMPI JUMPDEST PUSH1 0x0 DUP1 REVERT JUMPDEST CALLVALUE DUP1 ISZERO PUSH2 0x11A JUMPI PUSH1 0x0 DUP1 REVERT JUMPDEST POP PUSH2 0x135 PUSH1 0x4 DUP1 CALLDATASIZE SUB DUP2 ADD SWAP1 PUSH2 0x130 SWAP2 SWAP1 PUSH2 0x1178 JUMP JUMPDEST PUSH2 0x3E8 JUMP JUMPDEST STOP JUMPDEST CALLVALUE DUP1 ISZERO PUSH2 0x143 JUMPI PUSH1 0x0 DUP1 REVERT JUMPDEST POP PUSH2 0x14C PUSH2 0x43C JUMP JUMPDEST PUSH1 0x40 MLOAD PUSH2 0x159 SWAP2 SWAP1 PUSH2 0x11C7 JUMP JUMPDEST PUSH1 0x40 MLOAD DUP1 SWAP2 SUB SWAP1 RETURN JUMPDEST CALLVALUE DUP1 ISZERO PUSH2 0x16E JUMPI PUSH1 0x0 DUP1 REVERT JUMPDEST POP PUSH2 0x189 PUSH1 0x4 DUP1 CALLDATASIZE SUB DUP2 ADD SWAP1 PUSH2 0x184 SWAP2 SWAP1 PUSH2 0x1220 JUMP JUMPDEST PUSH2 0x442 JUMP JUMPDEST STOP JUMPDEST CALLVALUE DUP1 ISZERO PUSH2 0x197 JUMPI PUSH1 0x0 DUP1 REVERT JUMPDEST POP PUSH2 0x1A0 PUSH2 0x496 JUMP JUMPDEST STOP JUMPDEST CALLVALUE DUP1 ISZERO PUSH2 0x1AE JUMPI PUSH1 0x0 DUP1 REVERT JUMPDEST POP PUSH2 0x1B7 PUSH2 0x4F5 JUMP JUMPDEST PUSH1 0x40 MLOAD PUSH2 0x1C4 SWAP2 SWAP1 PUSH2 0x12BF JUMP JUMPDEST PUSH1 0x40 MLOAD DUP1 SWAP2 SUB SWAP1 RETURN JUMPDEST CALLVALUE DUP1 ISZERO PUSH2 0x1D9 JUMPI PUSH1 0x0 DUP1 REVERT JUMPDEST POP PUSH2 0x1F4 PUSH1 0x4 DUP1 CALLDATASIZE SUB DUP2 ADD SWAP1 PUSH2 0x1EF SWAP2 SWAP1 PUSH2 0x12DA JUMP JUMPDEST PUSH2 0x51B JUMP JUMPDEST PUSH1 0x40 MLOAD PUSH2 0x201 SWAP2 SWAP1 PUSH2 0x1322 JUMP JUMPDEST PUSH1 0x40 MLOAD DUP1 SWAP2 SUB SWAP1 RETURN JUMPDEST CALLVALUE DUP1 ISZERO PUSH2 0x216 JUMPI PUSH1 0x0 DUP1 REVERT JUMPDEST POP PUSH2 0x231 PUSH1 0x4 DUP1 CALLDATASIZE SUB DUP2 ADD SWAP1 PUSH2 0x22C SWAP2 SWAP1 PUSH2 0x12DA JUMP JUMPDEST PUSH2 0x53B JUMP JUMPDEST STOP JUMPDEST CALLVALUE DUP1 ISZERO PUSH2 0x23F JUMPI PUSH1 0x0 DUP1 REVERT JUMPDEST POP PUSH2 0x248 PUSH2 0x59E JUMP JUMPDEST STOP JUMPDEST CALLVALUE DUP1 ISZERO PUSH2 0x256 JUMPI PUSH1 0x0 DUP1 REVERT JUMPDEST POP PUSH2 0x25F PUSH2 0x5B2 JUMP JUMPDEST PUSH1 0x40 MLOAD PUSH2 0x26C SWAP2 SWAP1 PUSH2 0x134C JUMP JUMPDEST PUSH1 0x40 MLOAD DUP1 SWAP2 SUB SWAP1 RETURN JUMPDEST CALLVALUE DUP1 ISZERO PUSH2 0x281 JUMPI PUSH1 0x0 DUP1 REVERT JUMPDEST POP PUSH2 0x28A PUSH2 0x5DB JUMP JUMPDEST PUSH1 0x40 MLOAD PUSH2 0x297 SWAP2 SWAP1 PUSH2 0x11C7 JUMP JUMPDEST PUSH1 0x40 MLOAD DUP1 SWAP2 SUB SWAP1 RETURN JUMPDEST PUSH2 0x2BA PUSH1 0x4 DUP1 CALLDATASIZE SUB DUP2 ADD SWAP1 PUSH2 0x2B5 SWAP2 SWAP1 PUSH2 0x1583 JUMP JUMPDEST PUSH2 0x5E1 JUMP JUMPDEST STOP JUMPDEST CALLVALUE DUP1 ISZERO PUSH2 0x2C8 JUMPI PUSH1 0x0 DUP1 REVERT JUMPDEST POP PUSH2 0x2E3 PUSH1 0x4 DUP1 CALLDATASIZE SUB DUP2 ADD SWAP1 PUSH2 0x2DE SWAP2 SWAP1 PUSH2 0x12DA JUMP JUMPDEST PUSH2 0xB04 JUMP JUMPDEST PUSH1 0x40 MLOAD PUSH2 0x2F0 SWAP2 SWAP1 PUSH2 0x1322 JUMP JUMPDEST PUSH1 0x40 MLOAD DUP1 SWAP2 SUB SWAP1 RETURN JUMPDEST CALLVALUE DUP1 ISZERO PUSH2 0x305 JUMPI PUSH1 0x0 DUP1 REVERT JUMPDEST POP PUSH2 0x30E PUSH2 0xB5A JUMP JUMPDEST PUSH1 0x40 MLOAD PUSH2 0x31B SWAP2 SWAP1 PUSH2 0x11C7 JUMP JUMPDEST PUSH1 0x40 MLOAD DUP1 SWAP2 SUB SWAP1 RETURN JUMPDEST CALLVALUE DUP1 ISZERO PUSH2 0x330 JUMPI PUSH1 0x0 DUP1 REVERT JUMPDEST POP PUSH2 0x339 PUSH2 0xB64 JUMP JUMPDEST PUSH1 0x40 MLOAD PUSH2 0x346 SWAP2 SWAP1 PUSH2 0x11C7 JUMP JUMPDEST PUSH1 0x40 MLOAD DUP1 SWAP2 SUB SWAP1 RETURN JUMPDEST PUSH2 0x369 PUSH1 0x4 DUP1 CALLDATASIZE SUB DUP2 ADD SWAP1 PUSH2 0x364 SWAP2 SWAP1 PUSH2 0x160E JUMP JUMPDEST PUSH2 0xB6A JUMP JUMPDEST STOP JUMPDEST CALLVALUE DUP1 ISZERO PUSH2 0x377 JUMPI PUSH1 0x0 DUP1 REVERT JUMPDEST POP PUSH2 0x392 PUSH1 0x4 DUP1 CALLDATASIZE SUB DUP2 ADD SWAP1 PUSH2 0x38D SWAP2 SWAP1 PUSH2 0x12DA JUMP JUMPDEST PUSH2 0xE27 JUMP JUMPDEST STOP JUMPDEST CALLVALUE DUP1 ISZERO PUSH2 0x3A0 JUMPI PUSH1 0x0 DUP1 REVERT JUMPDEST POP PUSH2 0x3A9 PUSH2 0xEAA JUMP JUMPDEST PUSH1 0x40 MLOAD PUSH2 0x3B6 SWAP2 SWAP1 PUSH2 0x16A7 JUMP JUMPDEST PUSH1 0x40 MLOAD DUP1 SWAP2 SUB SWAP1 RETURN JUMPDEST CALLVALUE DUP1 ISZERO PUSH2 0x3CB JUMPI PUSH1 0x0 DUP1 REVERT JUMPDEST POP PUSH2 0x3E6 PUSH1 0x4 DUP1 CALLDATASIZE SUB DUP2 ADD SWAP1 PUSH2 0x3E1 SWAP2 SWAP1 PUSH2 0x16EE JUMP JUMPDEST PUSH2 0xED0 JUMP JUMPDEST STOP JUMPDEST PUSH2 0x3F0 PUSH2 0xF86 JUMP JUMPDEST DUP2 PUSH1 0x1 DUP2 SWAP1 SSTORE POP DUP1 PUSH1 0x2 PUSH1 0x0 PUSH2 0x100 EXP DUP2 SLOAD DUP2 PUSH20 0xFFFFFFFFFFFFFFFFFFFFFFFFFFFFFFFFFFFFFFFF MUL NOT AND SWAP1 DUP4 PUSH20 0xFFFFFFFFFFFFFFFFFFFFFFFFFFFFFFFFFFFFFFFF AND MUL OR SWAP1 SSTORE POP POP POP JUMP JUMPDEST PUSH1 0x6 SLOAD DUP2 JUMP JUMPDEST PUSH2 0x44A PUSH2 0xF86 JUMP JUMPDEST DUP2 PUSH1 0x5 PUSH1 0x0 PUSH2 0x100 EXP DUP2 SLOAD DUP2 PUSH20 0xFFFFFFFFFFFFFFFFFFFFFFFFFFFFFFFFFFFFFFFF MUL NOT AND SWAP1 DUP4 PUSH20 0xFFFFFFFFFFFFFFFFFFFFFFFFFFFFFFFFFFFFFFFF AND MUL OR SWAP1 SSTORE POP DUP1 PUSH1 0x6 DUP2 SWAP1 SSTORE POP POP POP JUMP JUMPDEST PUSH2 0x49E PUSH2 0xF86 JUMP JUMPDEST PUSH1 0x0 PUSH1 0x3 SLOAD GT ISZERO PUSH2 0x4F3 JUMPI CALLER PUSH20 0xFFFFFFFFFFFFFFFFFFFFFFFFFFFFFFFFFFFFFFFF AND PUSH2 0x8FC PUSH1 0x3 SLOAD SWAP1 DUP2 ISZERO MUL SWAP1 PUSH1 0x40 MLOAD PUSH1 0x0 PUSH1 0x40 MLOAD DUP1 DUP4 SUB DUP2 DUP6 DUP9 DUP9 CALL SWAP4 POP POP POP POP ISZERO DUP1 ISZERO PUSH2 0x4F1 JUMPI RETURNDATASIZE PUSH1 0x0 DUP1 RETURNDATACOPY RETURNDATASIZE PUSH1 0x0 REVERT JUMPDEST POP JUMPDEST JUMP JUMPDEST PUSH1 0x5 PUSH1 0x0 SWAP1 SLOAD SWAP1 PUSH2 0x100 EXP SWAP1 DIV PUSH20 0xFFFFFFFFFFFFFFFFFFFFFFFFFFFFFFFFFFFFFFFF AND DUP2 JUMP JUMPDEST PUSH1 0x4 PUSH1 0x20 MSTORE DUP1 PUSH1 0x0 MSTORE PUSH1 0x40 PUSH1 0x0 KECCAK256 PUSH1 0x0 SWAP2 POP SLOAD SWAP1 PUSH2 0x100 EXP SWAP1 DIV PUSH1 0xFF AND DUP2 JUMP JUMPDEST PUSH2 0x543 PUSH2 0xF86 JUMP JUMPDEST PUSH1 0x1 PUSH1 0x4 PUSH1 0x0 DUP4 PUSH20 0xFFFFFFFFFFFFFFFFFFFFFFFFFFFFFFFFFFFFFFFF AND PUSH20 0xFFFFFFFFFFFFFFFFFFFFFFFFFFFFFFFFFFFFFFFF AND DUP2 MSTORE PUSH1 0x20 ADD SWAP1 DUP2 MSTORE PUSH1 0x20 ADD PUSH1 0x0 KECCAK256 PUSH1 0x0 PUSH2 0x100 EXP DUP2 SLOAD DUP2 PUSH1 0xFF MUL NOT AND SWAP1 DUP4 ISZERO ISZERO MUL OR SWAP1 SSTORE POP POP JUMP JUMPDEST PUSH2 0x5A6 PUSH2 0xF86 JUMP JUMPDEST PUSH2 0x5B0 PUSH1 0x0 PUSH2 0x1004 JUMP JUMPDEST JUMP JUMPDEST PUSH1 0x0 DUP1 PUSH1 0x0 SWAP1 SLOAD SWAP1 PUSH2 0x100 EXP SWAP1 DIV PUSH20 0xFFFFFFFFFFFFFFFFFFFFFFFFFFFFFFFFFFFFFFFF AND SWAP1 POP SWAP1 JUMP JUMPDEST PUSH1 0x3 SLOAD DUP2 JUMP JUMPDEST PUSH1 0x0 JUMPDEST DUP2 MLOAD DUP2 LT ISZERO PUSH2 0x64D JUMPI PUSH8 0xDE0B6B3A7640000 DUP3 DUP3 DUP2 MLOAD DUP2 LT PUSH2 0x609 JUMPI PUSH2 0x608 PUSH2 0x172E JUMP JUMPDEST JUMPDEST PUSH1 0x20 MUL PUSH1 0x20 ADD ADD MLOAD PUSH2 0x61B SWAP2 SWAP1 PUSH2 0x178C JUMP JUMPDEST DUP3 DUP3 DUP2 MLOAD DUP2 LT PUSH2 0x62E JUMPI PUSH2 0x62D PUSH2 0x172E JUMP JUMPDEST JUMPDEST PUSH1 0x20 MUL PUSH1 0x20 ADD ADD DUP2 DUP2 MSTORE POP POP DUP1 DUP1 PUSH2 0x645 SWAP1 PUSH2 0x17E6 JUMP JUMPDEST SWAP2 POP POP PUSH2 0x5E4 JUMP JUMPDEST POP DUP1 MLOAD DUP3 MLOAD EQ PUSH2 0x692 JUMPI PUSH1 0x40 MLOAD PUSH32 0x8C379A000000000000000000000000000000000000000000000000000000000 DUP2 MSTORE PUSH1 0x4 ADD PUSH2 0x689 SWAP1 PUSH2 0x188B JUMP JUMPDEST PUSH1 0x40 MLOAD DUP1 SWAP2 SUB SWAP1 REVERT JUMPDEST PUSH1 0x4 PUSH1 0x0 CALLER PUSH20 0xFFFFFFFFFFFFFFFFFFFFFFFFFFFFFFFFFFFFFFFF AND PUSH20 0xFFFFFFFFFFFFFFFFFFFFFFFFFFFFFFFFFFFFFFFF AND DUP2 MSTORE PUSH1 0x20 ADD SWAP1 DUP2 MSTORE PUSH1 0x20 ADD PUSH1 0x0 KECCAK256 PUSH1 0x0 SWAP1 SLOAD SWAP1 PUSH2 0x100 EXP SWAP1 DIV PUSH1 0xFF AND ISZERO DUP1 ISZERO PUSH2 0x766 JUMPI POP PUSH1 0x6 SLOAD DUP4 PUSH20 0xFFFFFFFFFFFFFFFFFFFFFFFFFFFFFFFFFFFFFFFF AND PUSH4 0x70A08231 CALLER PUSH1 0x40 MLOAD DUP3 PUSH4 0xFFFFFFFF AND PUSH1 0xE0 SHL DUP2 MSTORE PUSH1 0x4 ADD PUSH2 0x723 SWAP2 SWAP1 PUSH2 0x134C JUMP JUMPDEST PUSH1 0x20 PUSH1 0x40 MLOAD DUP1 DUP4 SUB DUP2 DUP7 GAS STATICCALL ISZERO DUP1 ISZERO PUSH2 0x740 JUMPI RETURNDATASIZE PUSH1 0x0 DUP1 RETURNDATACOPY RETURNDATASIZE PUSH1 0x0 REVERT JUMPDEST POP POP POP POP PUSH1 0x40 MLOAD RETURNDATASIZE PUSH1 0x1F NOT PUSH1 0x1F DUP3 ADD AND DUP3 ADD DUP1 PUSH1 0x40 MSTORE POP DUP2 ADD SWAP1 PUSH2 0x764 SWAP2 SWAP1 PUSH2 0x18C0 JUMP JUMPDEST LT JUMPDEST ISZERO PUSH2 0x909 JUMPI PUSH1 0x1 SLOAD PUSH1 0x3 PUSH1 0x0 DUP3 DUP3 SLOAD PUSH2 0x77F SWAP2 SWAP1 PUSH2 0x18ED JUMP JUMPDEST SWAP3 POP POP DUP2 SWAP1 SSTORE POP PUSH1 0x2 PUSH1 0x0 SWAP1 SLOAD SWAP1 PUSH2 0x100 EXP SWAP1 DIV PUSH20 0xFFFFFFFFFFFFFFFFFFFFFFFFFFFFFFFFFFFFFFFF AND PUSH20 0xFFFFFFFFFFFFFFFFFFFFFFFFFFFFFFFFFFFFFFFF AND PUSH2 0x8FC PUSH1 0x1 SLOAD SWAP1 DUP2 ISZERO MUL SWAP1 PUSH1 0x40 MLOAD PUSH1 0x0 PUSH1 0x40 MLOAD DUP1 DUP4 SUB DUP2 DUP6 DUP9 DUP9 CALL SWAP4 POP POP POP POP ISZERO DUP1 ISZERO PUSH2 0x7F0 JUMPI RETURNDATASIZE PUSH1 0x0 DUP1 RETURNDATACOPY RETURNDATASIZE PUSH1 0x0 REVERT JUMPDEST POP PUSH1 0x0 JUMPDEST DUP2 MLOAD DUP2 LT ISZERO PUSH2 0x903 JUMPI DUP4 PUSH20 0xFFFFFFFFFFFFFFFFFFFFFFFFFFFFFFFFFFFFFFFF AND PUSH4 0x23B872DD CALLER DUP6 DUP5 DUP2 MLOAD DUP2 LT PUSH2 0x82D JUMPI PUSH2 0x82C PUSH2 0x172E JUMP JUMPDEST JUMPDEST PUSH1 0x20 MUL PUSH1 0x20 ADD ADD MLOAD DUP6 DUP6 DUP2 MLOAD DUP2 LT PUSH2 0x848 JUMPI PUSH2 0x847 PUSH2 0x172E JUMP JUMPDEST JUMPDEST PUSH1 0x20 MUL PUSH1 0x20 ADD ADD MLOAD PUSH1 0x40 MLOAD DUP5 PUSH4 0xFFFFFFFF AND PUSH1 0xE0 SHL DUP2 MSTORE PUSH1 0x4 ADD PUSH2 0x86E SWAP4 SWAP3 SWAP2 SWAP1 PUSH2 0x1943 JUMP JUMPDEST PUSH1 0x20 PUSH1 0x40 MLOAD DUP1 DUP4 SUB DUP2 PUSH1 0x0 DUP8 GAS CALL ISZERO DUP1 ISZERO PUSH2 0x88D JUMPI RETURNDATASIZE PUSH1 0x0 DUP1 RETURNDATACOPY RETURNDATASIZE PUSH1 0x0 REVERT JUMPDEST POP POP POP POP PUSH1 0x40 MLOAD RETURNDATASIZE PUSH1 0x1F NOT PUSH1 0x1F DUP3 ADD AND DUP3 ADD DUP1 PUSH1 0x40 MSTORE POP DUP2 ADD SWAP1 PUSH2 0x8B1 SWAP2 SWAP1 PUSH2 0x198F JUMP JUMPDEST PUSH2 0x8F0 JUMPI PUSH1 0x40 MLOAD PUSH32 0x8C379A000000000000000000000000000000000000000000000000000000000 DUP2 MSTORE PUSH1 0x4 ADD PUSH2 0x8E7 SWAP1 PUSH2 0x1A08 JUMP JUMPDEST PUSH1 0x40 MLOAD DUP1 SWAP2 SUB SWAP1 REVERT JUMPDEST DUP1 DUP1 PUSH2 0x8FB SWAP1 PUSH2 0x17E6 JUMP JUMPDEST SWAP2 POP POP PUSH2 0x7F4 JUMP JUMPDEST POP PUSH2 0xAFF JUMP JUMPDEST PUSH1 0x1 DUP1 PUSH2 0x990 JUMPI POP PUSH1 0x6 SLOAD DUP4 PUSH20 0xFFFFFFFFFFFFFFFFFFFFFFFFFFFFFFFFFFFFFFFF AND PUSH4 0x70A08231 CALLER PUSH1 0x40 MLOAD DUP3 PUSH4 0xFFFFFFFF AND PUSH1 0xE0 SHL DUP2 MSTORE PUSH1 0x4 ADD PUSH2 0x94D SWAP2 SWAP1 PUSH2 0x134C JUMP JUMPDEST PUSH1 0x20 PUSH1 0x40 MLOAD DUP1 DUP4 SUB DUP2 DUP7 GAS STATICCALL ISZERO DUP1 ISZERO PUSH2 0x96A JUMPI RETURNDATASIZE PUSH1 0x0 DUP1 RETURNDATACOPY RETURNDATASIZE PUSH1 0x0 REVERT JUMPDEST POP POP POP POP PUSH1 0x40 MLOAD RETURNDATASIZE PUSH1 0x1F NOT PUSH1 0x1F DUP3 ADD AND DUP3 ADD DUP1 PUSH1 0x40 MSTORE POP DUP2 ADD SWAP1 PUSH2 0x98E SWAP2 SWAP1 PUSH2 0x18C0 JUMP JUMPDEST GT JUMPDEST PUSH1 0x4 PUSH1 0x0 CALLER PUSH20 0xFFFFFFFFFFFFFFFFFFFFFFFFFFFFFFFFFFFFFFFF AND PUSH20 0xFFFFFFFFFFFFFFFFFFFFFFFFFFFFFFFFFFFFFFFF AND DUP2 MSTORE PUSH1 0x20 ADD SWAP1 DUP2 MSTORE PUSH1 0x20 ADD PUSH1 0x0 KECCAK256 PUSH1 0x0 PUSH2 0x100 EXP DUP2 SLOAD DUP2 PUSH1 0xFF MUL NOT AND SWAP1 DUP4 ISZERO ISZERO MUL OR SWAP1 SSTORE ISZERO PUSH2 0xAFE JUMPI PUSH1 0x0 JUMPDEST DUP2 MLOAD DUP2 LT ISZERO PUSH2 0xAFC JUMPI DUP4 PUSH20 0xFFFFFFFFFFFFFFFFFFFFFFFFFFFFFFFFFFFFFFFF AND PUSH4 0x23B872DD CALLER DUP6 DUP5 DUP2 MLOAD DUP2 LT PUSH2 0xA26 JUMPI PUSH2 0xA25 PUSH2 0x172E JUMP JUMPDEST JUMPDEST PUSH1 0x20 MUL PUSH1 0x20 ADD ADD MLOAD DUP6 DUP6 DUP2 MLOAD DUP2 LT PUSH2 0xA41 JUMPI PUSH2 0xA40 PUSH2 0x172E JUMP JUMPDEST JUMPDEST PUSH1 0x20 MUL PUSH1 0x20 ADD ADD MLOAD PUSH1 0x40 MLOAD DUP5 PUSH4 0xFFFFFFFF AND PUSH1 0xE0 SHL DUP2 MSTORE PUSH1 0x4 ADD PUSH2 0xA67 SWAP4 SWAP3 SWAP2 SWAP1 PUSH2 0x1943 JUMP JUMPDEST PUSH1 0x20 PUSH1 0x40 MLOAD DUP1 DUP4 SUB DUP2 PUSH1 0x0 DUP8 GAS CALL ISZERO DUP1 ISZERO PUSH2 0xA86 JUMPI RETURNDATASIZE PUSH1 0x0 DUP1 RETURNDATACOPY RETURNDATASIZE PUSH1 0x0 REVERT JUMPDEST POP POP POP POP PUSH1 0x40 MLOAD RETURNDATASIZE PUSH1 0x1F NOT PUSH1 0x1F DUP3 ADD AND DUP3 ADD DUP1 PUSH1 0x40 MSTORE POP DUP2 ADD SWAP1 PUSH2 0xAAA SWAP2 SWAP1 PUSH2 0x198F JUMP JUMPDEST PUSH2 0xAE9 JUMPI PUSH1 0x40 MLOAD PUSH32 0x8C379A000000000000000000000000000000000000000000000000000000000 DUP2 MSTORE PUSH1 0x4 ADD PUSH2 0xAE0 SWAP1 PUSH2 0x1A74 JUMP JUMPDEST PUSH1 0x40 MLOAD DUP1 SWAP2 SUB SWAP1 REVERT JUMPDEST DUP1 DUP1 PUSH2 0xAF4 SWAP1 PUSH2 0x17E6 JUMP JUMPDEST SWAP2 POP POP PUSH2 0x9ED JUMP JUMPDEST POP JUMPDEST JUMPDEST POP POP POP JUMP JUMPDEST PUSH1 0x0 PUSH1 0x4 PUSH1 0x0 DUP4 PUSH20 0xFFFFFFFFFFFFFFFFFFFFFFFFFFFFFFFFFFFFFFFF AND PUSH20 0xFFFFFFFFFFFFFFFFFFFFFFFFFFFFFFFFFFFFFFFF AND DUP2 MSTORE PUSH1 0x20 ADD SWAP1 DUP2 MSTORE PUSH1 0x20 ADD PUSH1 0x0 KECCAK256 PUSH1 0x0 SWAP1 SLOAD SWAP1 PUSH2 0x100 EXP SWAP1 DIV PUSH1 0xFF AND SWAP1 POP SWAP2 SWAP1 POP JUMP JUMPDEST PUSH1 0x0 PUSH1 0x1 SLOAD SWAP1 POP SWAP1 JUMP JUMPDEST PUSH1 0x1 SLOAD DUP2 JUMP JUMPDEST PUSH1 0x4 PUSH1 0x0 CALLER PUSH20 0xFFFFFFFFFFFFFFFFFFFFFFFFFFFFFFFFFFFFFFFF AND PUSH20 0xFFFFFFFFFFFFFFFFFFFFFFFFFFFFFFFFFFFFFFFF AND DUP2 MSTORE PUSH1 0x20 ADD SWAP1 DUP2 MSTORE PUSH1 0x20 ADD PUSH1 0x0 KECCAK256 PUSH1 0x0 SWAP1 SLOAD SWAP1 PUSH2 0x100 EXP SWAP1 DIV PUSH1 0xFF AND ISZERO DUP1 ISZERO PUSH2 0xC60 JUMPI POP PUSH1 0x6 SLOAD PUSH1 0x5 PUSH1 0x0 SWAP1 SLOAD SWAP1 PUSH2 0x100 EXP SWAP1 DIV PUSH20 0xFFFFFFFFFFFFFFFFFFFFFFFFFFFFFFFFFFFFFFFF AND PUSH20 0xFFFFFFFFFFFFFFFFFFFFFFFFFFFFFFFFFFFFFFFF AND PUSH4 0x70A08231 CALLER PUSH1 0x40 MLOAD DUP3 PUSH4 0xFFFFFFFF AND PUSH1 0xE0 SHL DUP2 MSTORE PUSH1 0x4 ADD PUSH2 0xC1D SWAP2 SWAP1 PUSH2 0x134C JUMP JUMPDEST PUSH1 0x20 PUSH1 0x40 MLOAD DUP1 DUP4 SUB DUP2 DUP7 GAS STATICCALL ISZERO DUP1 ISZERO PUSH2 0xC3A JUMPI RETURNDATASIZE PUSH1 0x0 DUP1 RETURNDATACOPY RETURNDATASIZE PUSH1 0x0 REVERT JUMPDEST POP POP POP POP PUSH1 0x40 MLOAD RETURNDATASIZE PUSH1 0x1F NOT PUSH1 0x1F DUP3 ADD AND DUP3 ADD DUP1 PUSH1 0x40 MSTORE POP DUP2 ADD SWAP1 PUSH2 0xC5E SWAP2 SWAP1 PUSH2 0x18C0 JUMP JUMPDEST LT JUMPDEST ISZERO PUSH2 0xD31 JUMPI PUSH1 0x1 SLOAD CALLVALUE LT ISZERO PUSH2 0xCAA JUMPI PUSH1 0x40 MLOAD PUSH32 0x8C379A000000000000000000000000000000000000000000000000000000000 DUP2 MSTORE PUSH1 0x4 ADD PUSH2 0xCA1 SWAP1 PUSH2 0x1B06 JUMP JUMPDEST PUSH1 0x40 MLOAD DUP1 SWAP2 SUB SWAP1 REVERT JUMPDEST PUSH1 0x1 SLOAD PUSH1 0x3 PUSH1 0x0 DUP3 DUP3 SLOAD PUSH2 0xCBE SWAP2 SWAP1 PUSH2 0x18ED JUMP JUMPDEST SWAP3 POP POP DUP2 SWAP1 SSTORE POP PUSH1 0x2 PUSH1 0x0 SWAP1 SLOAD SWAP1 PUSH2 0x100 EXP SWAP1 DIV PUSH20 0xFFFFFFFFFFFFFFFFFFFFFFFFFFFFFFFFFFFFFFFF AND PUSH20 0xFFFFFFFFFFFFFFFFFFFFFFFFFFFFFFFFFFFFFFFF AND PUSH2 0x8FC PUSH1 0x1 SLOAD SWAP1 DUP2 ISZERO MUL SWAP1 PUSH1 0x40 MLOAD PUSH1 0x0 PUSH1 0x40 MLOAD DUP1 DUP4 SUB DUP2 DUP6 DUP9 DUP9 CALL SWAP4 POP POP POP POP ISZERO DUP1 ISZERO PUSH2 0xD2F JUMPI RETURNDATASIZE PUSH1 0x0 DUP1 RETURNDATACOPY RETURNDATASIZE PUSH1 0x0 REVERT JUMPDEST POP JUMPDEST PUSH1 0x0 JUMPDEST DUP3 MLOAD DUP2 LT ISZERO PUSH2 0xDCB JUMPI DUP3 DUP2 DUP2 MLOAD DUP2 LT PUSH2 0xD50 JUMPI PUSH2 0xD4F PUSH2 0x172E JUMP JUMPDEST JUMPDEST PUSH1 0x20 MUL PUSH1 0x20 ADD ADD MLOAD PUSH20 0xFFFFFFFFFFFFFFFFFFFFFFFFFFFFFFFFFFFFFFFF AND PUSH2 0x8FC DUP4 DUP4 DUP2 MLOAD DUP2 LT PUSH2 0xD84 JUMPI PUSH2 0xD83 PUSH2 0x172E JUMP JUMPDEST JUMPDEST PUSH1 0x20 MUL PUSH1 0x20 ADD ADD MLOAD SWAP1 DUP2 ISZERO MUL SWAP1 PUSH1 0x40 MLOAD PUSH1 0x0 PUSH1 0x40 MLOAD DUP1 DUP4 SUB DUP2 DUP6 DUP9 DUP9 CALL SWAP4 POP POP POP POP ISZERO DUP1 ISZERO PUSH2 0xDB7 JUMPI RETURNDATASIZE PUSH1 0x0 DUP1 RETURNDATACOPY RETURNDATASIZE PUSH1 0x0 REVERT JUMPDEST POP DUP1 DUP1 PUSH2 0xDC3 SWAP1 PUSH2 0x17E6 JUMP JUMPDEST SWAP2 POP POP PUSH2 0xD34 JUMP JUMPDEST POP PUSH1 0x0 SELFBALANCE SWAP1 POP PUSH1 0x0 DUP2 GT ISZERO PUSH2 0xE22 JUMPI CALLER PUSH20 0xFFFFFFFFFFFFFFFFFFFFFFFFFFFFFFFFFFFFFFFF AND PUSH2 0x8FC DUP3 SWAP1 DUP2 ISZERO MUL SWAP1 PUSH1 0x40 MLOAD PUSH1 0x0 PUSH1 0x40 MLOAD DUP1 DUP4 SUB DUP2 DUP6 DUP9 DUP9 CALL SWAP4 POP POP POP POP ISZERO DUP1 ISZERO PUSH2 0xE20 JUMPI RETURNDATASIZE PUSH1 0x0 DUP1 RETURNDATACOPY RETURNDATASIZE PUSH1 0x0 REVERT JUMPDEST POP JUMPDEST POP POP POP JUMP JUMPDEST PUSH2 0xE2F PUSH2 0xF86 JUMP JUMPDEST PUSH1 0x0 PUSH20 0xFFFFFFFFFFFFFFFFFFFFFFFFFFFFFFFFFFFFFFFF AND DUP2 PUSH20 0xFFFFFFFFFFFFFFFFFFFFFFFFFFFFFFFFFFFFFFFF AND SUB PUSH2 0xE9E JUMPI PUSH1 0x40 MLOAD PUSH32 0x8C379A000000000000000000000000000000000000000000000000000000000 DUP2 MSTORE PUSH1 0x4 ADD PUSH2 0xE95 SWAP1 PUSH2 0x1B98 JUMP JUMPDEST PUSH1 0x40 MLOAD DUP1 SWAP2 SUB SWAP1 REVERT JUMPDEST PUSH2 0xEA7 DUP2 PUSH2 0x1004 JUMP JUMPDEST POP JUMP JUMPDEST PUSH1 0x2 PUSH1 0x0 SWAP1 SLOAD SWAP1 PUSH2 0x100 EXP SWAP1 DIV PUSH20 0xFFFFFFFFFFFFFFFFFFFFFFFFFFFFFFFFFFFFFFFF AND DUP2 JUMP JUMPDEST PUSH2 0xED8 PUSH2 0xF86 JUMP JUMPDEST PUSH1 0x4 PUSH1 0x0 DUP4 PUSH20 0xFFFFFFFFFFFFFFFFFFFFFFFFFFFFFFFFFFFFFFFF AND PUSH20 0xFFFFFFFFFFFFFFFFFFFFFFFFFFFFFFFFFFFFFFFF AND DUP2 MSTORE PUSH1 0x20 ADD SWAP1 DUP2 MSTORE PUSH1 0x20 ADD PUSH1 0x0 KECCAK256 PUSH1 0x0 SWAP1 SLOAD SWAP1 PUSH2 0x100 EXP SWAP1 DIV PUSH1 0xFF AND ISZERO PUSH2 0xF82 JUMPI DUP1 PUSH1 0x4 PUSH1 0x0 DUP5 PUSH20 0xFFFFFFFFFFFFFFFFFFFFFFFFFFFFFFFFFFFFFFFF AND PUSH20 0xFFFFFFFFFFFFFFFFFFFFFFFFFFFFFFFFFFFFFFFF AND DUP2 MSTORE PUSH1 0x20 ADD SWAP1 DUP2 MSTORE PUSH1 0x20 ADD PUSH1 0x0 KECCAK256 PUSH1 0x0 PUSH2 0x100 EXP DUP2 SLOAD DUP2 PUSH1 0xFF MUL NOT AND SWAP1 DUP4 ISZERO ISZERO MUL OR SWAP1 SSTORE POP JUMPDEST POP POP JUMP JUMPDEST PUSH2 0xF8E PUSH2 0x10C8 JUMP JUMPDEST PUSH20 0xFFFFFFFFFFFFFFFFFFFFFFFFFFFFFFFFFFFFFFFF AND PUSH2 0xFAC PUSH2 0x5B2 JUMP JUMPDEST PUSH20 0xFFFFFFFFFFFFFFFFFFFFFFFFFFFFFFFFFFFFFFFF AND EQ PUSH2 0x1002 JUMPI PUSH1 0x40 MLOAD PUSH32 0x8C379A000000000000000000000000000000000000000000000000000000000 DUP2 MSTORE PUSH1 0x4 ADD PUSH2 0xFF9 SWAP1 PUSH2 0x1C04 JUMP JUMPDEST PUSH1 0x40 MLOAD DUP1 SWAP2 SUB SWAP1 REVERT JUMPDEST JUMP JUMPDEST PUSH1 0x0 DUP1 PUSH1 0x0 SWAP1 SLOAD SWAP1 PUSH2 0x100 EXP SWAP1 DIV PUSH20 0xFFFFFFFFFFFFFFFFFFFFFFFFFFFFFFFFFFFFFFFF AND SWAP1 POP DUP2 PUSH1 0x0 DUP1 PUSH2 0x100 EXP DUP2 SLOAD DUP2 PUSH20 0xFFFFFFFFFFFFFFFFFFFFFFFFFFFFFFFFFFFFFFFF MUL NOT AND SWAP1 DUP4 PUSH20 0xFFFFFFFFFFFFFFFFFFFFFFFFFFFFFFFFFFFFFFFF AND MUL OR SWAP1 SSTORE POP DUP2 PUSH20 0xFFFFFFFFFFFFFFFFFFFFFFFFFFFFFFFFFFFFFFFF AND DUP2 PUSH20 0xFFFFFFFFFFFFFFFFFFFFFFFFFFFFFFFFFFFFFFFF AND PUSH32 0x8BE0079C531659141344CD1FD0A4F28419497F9722A3DAAFE3B4186F6B6457E0 PUSH1 0x40 MLOAD PUSH1 0x40 MLOAD DUP1 SWAP2 SUB SWAP1 LOG3 POP POP JUMP JUMPDEST PUSH1 0x0 CALLER SWAP1 POP SWAP1 JUMP JUMPDEST PUSH1 0x0 PUSH1 0x40 MLOAD SWAP1 POP SWAP1 JUMP JUMPDEST PUSH1 0x0 DUP1 REVERT JUMPDEST PUSH1 0x0 DUP1 REVERT JUMPDEST PUSH1 0x0 DUP2 SWAP1 POP SWAP2 SWAP1 POP JUMP JUMPDEST PUSH2 0x10F7 DUP2 PUSH2 0x10E4 JUMP JUMPDEST DUP2 EQ PUSH2 0x1102 JUMPI PUSH1 0x0 DUP1 REVERT JUMPDEST POP JUMP JUMPDEST PUSH1 0x0 DUP2 CALLDATALOAD SWAP1 POP PUSH2 0x1114 DUP2 PUSH2 0x10EE JUMP JUMPDEST SWAP3 SWAP2 POP POP JUMP JUMPDEST PUSH1 0x0 PUSH20 0xFFFFFFFFFFFFFFFFFFFFFFFFFFFFFFFFFFFFFFFF DUP3 AND SWAP1 POP SWAP2 SWAP1 POP JUMP JUMPDEST PUSH1 0x0 PUSH2 0x1145 DUP3 PUSH2 0x111A JUMP JUMPDEST SWAP1 POP SWAP2 SWAP1 POP JUMP JUMPDEST PUSH2 0x1155 DUP2 PUSH2 0x113A JUMP JUMPDEST DUP2 EQ PUSH2 0x1160 JUMPI PUSH1 0x0 DUP1 REVERT JUMPDEST POP JUMP JUMPDEST PUSH1 0x0 DUP2 CALLDATALOAD SWAP1 POP PUSH2 0x1172 DUP2 PUSH2 0x114C JUMP JUMPDEST SWAP3 SWAP2 POP POP JUMP JUMPDEST PUSH1 0x0 DUP1 PUSH1 0x40 DUP4 DUP6 SUB SLT ISZERO PUSH2 0x118F JUMPI PUSH2 0x118E PUSH2 0x10DA JUMP JUMPDEST JUMPDEST PUSH1 0x0 PUSH2 0x119D DUP6 DUP3 DUP7 ADD PUSH2 0x1105 JUMP JUMPDEST SWAP3 POP POP PUSH1 0x20 PUSH2 0x11AE DUP6 DUP3 DUP7 ADD PUSH2 0x1163 JUMP JUMPDEST SWAP2 POP POP SWAP3 POP SWAP3 SWAP1 POP JUMP JUMPDEST PUSH2 0x11C1 DUP2 PUSH2 0x10E4 JUMP JUMPDEST DUP3 MSTORE POP POP JUMP JUMPDEST PUSH1 0x0 PUSH1 0x20 DUP3 ADD SWAP1 POP PUSH2 0x11DC PUSH1 0x0 DUP4 ADD DUP5 PUSH2 0x11B8 JUMP JUMPDEST SWAP3 SWAP2 POP POP JUMP JUMPDEST PUSH1 0x0 PUSH2 0x11ED DUP3 PUSH2 0x113A JUMP JUMPDEST SWAP1 POP SWAP2 SWAP1 POP JUMP JUMPDEST PUSH2 0x11FD DUP2 PUSH2 0x11E2 JUMP JUMPDEST DUP2 EQ PUSH2 0x1208 JUMPI PUSH1 0x0 DUP1 REVERT JUMPDEST POP JUMP JUMPDEST PUSH1 0x0 DUP2 CALLDATALOAD SWAP1 POP PUSH2 0x121A DUP2 PUSH2 0x11F4 JUMP JUMPDEST SWAP3 SWAP2 POP POP JUMP JUMPDEST PUSH1 0x0 DUP1 PUSH1 0x40 DUP4 DUP6 SUB SLT ISZERO PUSH2 0x1237 JUMPI PUSH2 0x1236 PUSH2 0x10DA JUMP JUMPDEST JUMPDEST PUSH1 0x0 PUSH2 0x1245 DUP6 DUP3 DUP7 ADD PUSH2 0x120B JUMP JUMPDEST SWAP3 POP POP PUSH1 0x20 PUSH2 0x1256 DUP6 DUP3 DUP7 ADD PUSH2 0x1105 JUMP JUMPDEST SWAP2 POP POP SWAP3 POP SWAP3 SWAP1 POP JUMP JUMPDEST PUSH1 0x0 DUP2 SWAP1 POP SWAP2 SWAP1 POP JUMP JUMPDEST PUSH1 0x0 PUSH2 0x1285 PUSH2 0x1280 PUSH2 0x127B DUP5 PUSH2 0x111A JUMP JUMPDEST PUSH2 0x1260 JUMP JUMPDEST PUSH2 0x111A JUMP JUMPDEST SWAP1 POP SWAP2 SWAP1 POP JUMP JUMPDEST PUSH1 0x0 PUSH2 0x1297 DUP3 PUSH2 0x126A JUMP JUMPDEST SWAP1 POP SWAP2 SWAP1 POP JUMP JUMPDEST PUSH1 0x0 PUSH2 0x12A9 DUP3 PUSH2 0x128C JUMP JUMPDEST SWAP1 POP SWAP2 SWAP1 POP JUMP JUMPDEST PUSH2 0x12B9 DUP2 PUSH2 0x129E JUMP JUMPDEST DUP3 MSTORE POP POP JUMP JUMPDEST PUSH1 0x0 PUSH1 0x20 DUP3 ADD SWAP1 POP PUSH2 0x12D4 PUSH1 0x0 DUP4 ADD DUP5 PUSH2 0x12B0 JUMP JUMPDEST SWAP3 SWAP2 POP POP JUMP JUMPDEST PUSH1 0x0 PUSH1 0x20 DUP3 DUP5 SUB SLT ISZERO PUSH2 0x12F0 JUMPI PUSH2 0x12EF PUSH2 0x10DA JUMP JUMPDEST JUMPDEST PUSH1 0x0 PUSH2 0x12FE DUP5 DUP3 DUP6 ADD PUSH2 0x1163 JUMP JUMPDEST SWAP2 POP POP SWAP3 SWAP2 POP POP JUMP JUMPDEST PUSH1 0x0 DUP2 ISZERO ISZERO SWAP1 POP SWAP2 SWAP1 POP JUMP JUMPDEST PUSH2 0x131C DUP2 PUSH2 0x1307 JUMP JUMPDEST DUP3 MSTORE POP POP JUMP JUMPDEST PUSH1 0x0 PUSH1 0x20 DUP3 ADD SWAP1 POP PUSH2 0x1337 PUSH1 0x0 DUP4 ADD DUP5 PUSH2 0x1313 JUMP JUMPDEST SWAP3 SWAP2 POP POP JUMP JUMPDEST PUSH2 0x1346 DUP2 PUSH2 0x113A JUMP JUMPDEST DUP3 MSTORE POP POP JUMP JUMPDEST PUSH1 0x0 PUSH1 0x20 DUP3 ADD SWAP1 POP PUSH2 0x1361 PUSH1 0x0 DUP4 ADD DUP5 PUSH2 0x133D JUMP JUMPDEST SWAP3 SWAP2 POP POP JUMP JUMPDEST PUSH1 0x0 DUP1 REVERT JUMPDEST PUSH1 0x0 PUSH1 0x1F NOT PUSH1 0x1F DUP4 ADD AND SWAP1 POP SWAP2 SWAP1 POP JUMP JUMPDEST PUSH32 0x4E487B7100000000000000000000000000000000000000000000000000000000 PUSH1 0x0 MSTORE PUSH1 0x41 PUSH1 0x4 MSTORE PUSH1 0x24 PUSH1 0x0 REVERT JUMPDEST PUSH2 0x13B5 DUP3 PUSH2 0x136C JUMP JUMPDEST DUP2 ADD DUP2 DUP2 LT PUSH8 0xFFFFFFFFFFFFFFFF DUP3 GT OR ISZERO PUSH2 0x13D4 JUMPI PUSH2 0x13D3 PUSH2 0x137D JUMP JUMPDEST JUMPDEST DUP1 PUSH1 0x40 MSTORE POP POP POP JUMP JUMPDEST PUSH1 0x0 PUSH2 0x13E7 PUSH2 0x10D0 JUMP JUMPDEST SWAP1 POP PUSH2 0x13F3 DUP3 DUP3 PUSH2 0x13AC JUMP JUMPDEST SWAP2 SWAP1 POP JUMP JUMPDEST PUSH1 0x0 PUSH8 0xFFFFFFFFFFFFFFFF DUP3 GT ISZERO PUSH2 0x1413 JUMPI PUSH2 0x1412 PUSH2 0x137D JUMP JUMPDEST JUMPDEST PUSH1 0x20 DUP3 MUL SWAP1 POP PUSH1 0x20 DUP2 ADD SWAP1 POP SWAP2 SWAP1 POP JUMP JUMPDEST PUSH1 0x0 DUP1 REVERT JUMPDEST PUSH1 0x0 PUSH2 0x143C PUSH2 0x1437 DUP5 PUSH2 0x13F8 JUMP JUMPDEST PUSH2 0x13DD JUMP JUMPDEST SWAP1 POP DUP1 DUP4 DUP3 MSTORE PUSH1 0x20 DUP3 ADD SWAP1 POP PUSH1 0x20 DUP5 MUL DUP4 ADD DUP6 DUP2 GT ISZERO PUSH2 0x145F JUMPI PUSH2 0x145E PUSH2 0x1424 JUMP JUMPDEST JUMPDEST DUP4 JUMPDEST DUP2 DUP2 LT ISZERO PUSH2 0x1488 JUMPI DUP1 PUSH2 0x1474 DUP9 DUP3 PUSH2 0x1163 JUMP JUMPDEST DUP5 MSTORE PUSH1 0x20 DUP5 ADD SWAP4 POP POP PUSH1 0x20 DUP2 ADD SWAP1 POP PUSH2 0x1461 JUMP JUMPDEST POP POP POP SWAP4 SWAP3 POP POP POP JUMP JUMPDEST PUSH1 0x0 DUP3 PUSH1 0x1F DUP4 ADD SLT PUSH2 0x14A7 JUMPI PUSH2 0x14A6 PUSH2 0x1367 JUMP JUMPDEST JUMPDEST DUP2 CALLDATALOAD PUSH2 0x14B7 DUP5 DUP3 PUSH1 0x20 DUP7 ADD PUSH2 0x1429 JUMP JUMPDEST SWAP2 POP POP SWAP3 SWAP2 POP POP JUMP JUMPDEST PUSH1 0x0 PUSH8 0xFFFFFFFFFFFFFFFF DUP3 GT ISZERO PUSH2 0x14DB JUMPI PUSH2 0x14DA PUSH2 0x137D JUMP JUMPDEST JUMPDEST PUSH1 0x20 DUP3 MUL SWAP1 POP PUSH1 0x20 DUP2 ADD SWAP1 POP SWAP2 SWAP1 POP JUMP JUMPDEST PUSH1 0x0 PUSH2 0x14FF PUSH2 0x14FA DUP5 PUSH2 0x14C0 JUMP JUMPDEST PUSH2 0x13DD JUMP JUMPDEST SWAP1 POP DUP1 DUP4 DUP3 MSTORE PUSH1 0x20 DUP3 ADD SWAP1 POP PUSH1 0x20 DUP5 MUL DUP4 ADD DUP6 DUP2 GT ISZERO PUSH2 0x1522 JUMPI PUSH2 0x1521 PUSH2 0x1424 JUMP JUMPDEST JUMPDEST DUP4 JUMPDEST DUP2 DUP2 LT ISZERO PUSH2 0x154B JUMPI DUP1 PUSH2 0x1537 DUP9 DUP3 PUSH2 0x1105 JUMP JUMPDEST DUP5 MSTORE PUSH1 0x20 DUP5 ADD SWAP4 POP POP PUSH1 0x20 DUP2 ADD SWAP1 POP PUSH2 0x1524 JUMP JUMPDEST POP POP POP SWAP4 SWAP3 POP POP POP JUMP JUMPDEST PUSH1 0x0 DUP3 PUSH1 0x1F DUP4 ADD SLT PUSH2 0x156A JUMPI PUSH2 0x1569 PUSH2 0x1367 JUMP JUMPDEST JUMPDEST DUP2 CALLDATALOAD PUSH2 0x157A DUP5 DUP3 PUSH1 0x20 DUP7 ADD PUSH2 0x14EC JUMP JUMPDEST SWAP2 POP POP SWAP3 SWAP2 POP POP JUMP JUMPDEST PUSH1 0x0 DUP1 PUSH1 0x0 PUSH1 0x60 DUP5 DUP7 SUB SLT ISZERO PUSH2 0x159C JUMPI PUSH2 0x159B PUSH2 0x10DA JUMP JUMPDEST JUMPDEST PUSH1 0x0 PUSH2 0x15AA DUP7 DUP3 DUP8 ADD PUSH2 0x120B JUMP JUMPDEST SWAP4 POP POP PUSH1 0x20 DUP5 ADD CALLDATALOAD PUSH8 0xFFFFFFFFFFFFFFFF DUP2 GT ISZERO PUSH2 0x15CB JUMPI PUSH2 0x15CA PUSH2 0x10DF JUMP JUMPDEST JUMPDEST PUSH2 0x15D7 DUP7 DUP3 DUP8 ADD PUSH2 0x1492 JUMP JUMPDEST SWAP3 POP POP PUSH1 0x40 DUP5 ADD CALLDATALOAD PUSH8 0xFFFFFFFFFFFFFFFF DUP2 GT ISZERO PUSH2 0x15F8 JUMPI PUSH2 0x15F7 PUSH2 0x10DF JUMP JUMPDEST JUMPDEST PUSH2 0x1604 DUP7 DUP3 DUP8 ADD PUSH2 0x1555 JUMP JUMPDEST SWAP2 POP POP SWAP3 POP SWAP3 POP SWAP3 JUMP JUMPDEST PUSH1 0x0 DUP1 PUSH1 0x40 DUP4 DUP6 SUB SLT ISZERO PUSH2 0x1625 JUMPI PUSH2 0x1624 PUSH2 0x10DA JUMP JUMPDEST JUMPDEST PUSH1 0x0 DUP4 ADD CALLDATALOAD PUSH8 0xFFFFFFFFFFFFFFFF DUP2 GT ISZERO PUSH2 0x1643 JUMPI PUSH2 0x1642 PUSH2 0x10DF JUMP JUMPDEST JUMPDEST PUSH2 0x164F DUP6 DUP3 DUP7 ADD PUSH2 0x1492 JUMP JUMPDEST SWAP3 POP POP PUSH1 0x20 DUP4 ADD CALLDATALOAD PUSH8 0xFFFFFFFFFFFFFFFF DUP2 GT ISZERO PUSH2 0x1670 JUMPI PUSH2 0x166F PUSH2 0x10DF JUMP JUMPDEST JUMPDEST PUSH2 0x167C DUP6 DUP3 DUP7 ADD PUSH2 0x1555 JUMP JUMPDEST SWAP2 POP POP SWAP3 POP SWAP3 SWAP1 POP JUMP JUMPDEST PUSH1 0x0 PUSH2 0x1691 DUP3 PUSH2 0x111A JUMP JUMPDEST SWAP1 POP SWAP2 SWAP1 POP JUMP JUMPDEST PUSH2 0x16A1 DUP2 PUSH2 0x1686 JUMP JUMPDEST DUP3 MSTORE POP POP JUMP JUMPDEST PUSH1 0x0 PUSH1 0x20 DUP3 ADD SWAP1 POP PUSH2 0x16BC PUSH1 0x0 DUP4 ADD DUP5 PUSH2 0x1698 JUMP JUMPDEST SWAP3 SWAP2 POP POP JUMP JUMPDEST PUSH2 0x16CB DUP2 PUSH2 0x1307 JUMP JUMPDEST DUP2 EQ PUSH2 0x16D6 JUMPI PUSH1 0x0 DUP1 REVERT JUMPDEST POP JUMP JUMPDEST PUSH1 0x0 DUP2 CALLDATALOAD SWAP1 POP PUSH2 0x16E8 DUP2 PUSH2 0x16C2 JUMP JUMPDEST SWAP3 SWAP2 POP POP JUMP JUMPDEST PUSH1 0x0 DUP1 PUSH1 0x40 DUP4 DUP6 SUB SLT ISZERO PUSH2 0x1705 JUMPI PUSH2 0x1704 PUSH2 0x10DA JUMP JUMPDEST JUMPDEST PUSH1 0x0 PUSH2 0x1713 DUP6 DUP3 DUP7 ADD PUSH2 0x1163 JUMP JUMPDEST SWAP3 POP POP PUSH1 0x20 PUSH2 0x1724 DUP6 DUP3 DUP7 ADD PUSH2 0x16D9 JUMP JUMPDEST SWAP2 POP POP SWAP3 POP SWAP3 SWAP1 POP JUMP JUMPDEST PUSH32 0x4E487B7100000000000000000000000000000000000000000000000000000000 PUSH1 0x0 MSTORE PUSH1 0x32 PUSH1 0x4 MSTORE PUSH1 0x24 PUSH1 0x0 REVERT JUMPDEST PUSH32 0x4E487B7100000000000000000000000000000000000000000000000000000000 PUSH1 0x0 MSTORE PUSH1 0x11 PUSH1 0x4 MSTORE PUSH1 0x24 PUSH1 0x0 REVERT JUMPDEST PUSH1 0x0 PUSH2 0x1797 DUP3 PUSH2 0x10E4 JUMP JUMPDEST SWAP2 POP PUSH2 0x17A2 DUP4 PUSH2 0x10E4 JUMP JUMPDEST SWAP3 POP DUP2 PUSH32 0xFFFFFFFFFFFFFFFFFFFFFFFFFFFFFFFFFFFFFFFFFFFFFFFFFFFFFFFFFFFFFFFF DIV DUP4 GT DUP3 ISZERO ISZERO AND ISZERO PUSH2 0x17DB JUMPI PUSH2 0x17DA PUSH2 0x175D JUMP JUMPDEST JUMPDEST DUP3 DUP3 MUL SWAP1 POP SWAP3 SWAP2 POP POP JUMP JUMPDEST PUSH1 0x0 PUSH2 0x17F1 DUP3 PUSH2 0x10E4 JUMP JUMPDEST SWAP2 POP PUSH32 0xFFFFFFFFFFFFFFFFFFFFFFFFFFFFFFFFFFFFFFFFFFFFFFFFFFFFFFFFFFFFFFFF DUP3 SUB PUSH2 0x1823 JUMPI PUSH2 0x1822 PUSH2 0x175D JUMP JUMPDEST JUMPDEST PUSH1 0x1 DUP3 ADD SWAP1 POP SWAP2 SWAP1 POP JUMP JUMPDEST PUSH1 0x0 DUP3 DUP3 MSTORE PUSH1 0x20 DUP3 ADD SWAP1 POP SWAP3 SWAP2 POP POP JUMP JUMPDEST PUSH32 0x696E76616C696420696E7075742073697A650000000000000000000000000000 PUSH1 0x0 DUP3 ADD MSTORE POP JUMP JUMPDEST PUSH1 0x0 PUSH2 0x1875 PUSH1 0x12 DUP4 PUSH2 0x182E JUMP JUMPDEST SWAP2 POP PUSH2 0x1880 DUP3 PUSH2 0x183F JUMP JUMPDEST PUSH1 0x20 DUP3 ADD SWAP1 POP SWAP2 SWAP1 POP JUMP JUMPDEST PUSH1 0x0 PUSH1 0x20 DUP3 ADD SWAP1 POP DUP2 DUP2 SUB PUSH1 0x0 DUP4 ADD MSTORE PUSH2 0x18A4 DUP2 PUSH2 0x1868 JUMP JUMPDEST SWAP1 POP SWAP2 SWAP1 POP JUMP JUMPDEST PUSH1 0x0 DUP2 MLOAD SWAP1 POP PUSH2 0x18BA DUP2 PUSH2 0x10EE JUMP JUMPDEST SWAP3 SWAP2 POP POP JUMP JUMPDEST PUSH1 0x0 PUSH1 0x20 DUP3 DUP5 SUB SLT ISZERO PUSH2 0x18D6 JUMPI PUSH2 0x18D5 PUSH2 0x10DA JUMP JUMPDEST JUMPDEST PUSH1 0x0 PUSH2 0x18E4 DUP5 DUP3 DUP6 ADD PUSH2 0x18AB JUMP JUMPDEST SWAP2 POP POP SWAP3 SWAP2 POP POP JUMP JUMPDEST PUSH1 0x0 PUSH2 0x18F8 DUP3 PUSH2 0x10E4 JUMP JUMPDEST SWAP2 POP PUSH2 0x1903 DUP4 PUSH2 0x10E4 JUMP JUMPDEST SWAP3 POP DUP3 PUSH32 0xFFFFFFFFFFFFFFFFFFFFFFFFFFFFFFFFFFFFFFFFFFFFFFFFFFFFFFFFFFFFFFFF SUB DUP3 GT ISZERO PUSH2 0x1938 JUMPI PUSH2 0x1937 PUSH2 0x175D JUMP JUMPDEST JUMPDEST DUP3 DUP3 ADD SWAP1 POP SWAP3 SWAP2 POP POP JUMP JUMPDEST PUSH1 0x0 PUSH1 0x60 DUP3 ADD SWAP1 POP PUSH2 0x1958 PUSH1 0x0 DUP4 ADD DUP7 PUSH2 0x133D JUMP JUMPDEST PUSH2 0x1965 PUSH1 0x20 DUP4 ADD DUP6 PUSH2 0x133D JUMP JUMPDEST PUSH2 0x1972 PUSH1 0x40 DUP4 ADD DUP5 PUSH2 0x11B8 JUMP JUMPDEST SWAP5 SWAP4 POP POP POP POP JUMP JUMPDEST PUSH1 0x0 DUP2 MLOAD SWAP1 POP PUSH2 0x1989 DUP2 PUSH2 0x16C2 JUMP JUMPDEST SWAP3 SWAP2 POP POP JUMP JUMPDEST PUSH1 0x0 PUSH1 0x20 DUP3 DUP5 SUB SLT ISZERO PUSH2 0x19A5 JUMPI PUSH2 0x19A4 PUSH2 0x10DA JUMP JUMPDEST JUMPDEST PUSH1 0x0 PUSH2 0x19B3 DUP5 DUP3 DUP6 ADD PUSH2 0x197A JUMP JUMPDEST SWAP2 POP POP SWAP3 SWAP2 POP POP JUMP JUMPDEST PUSH32 0x6572726F72000000000000000000000000000000000000000000000000000000 PUSH1 0x0 DUP3 ADD MSTORE POP JUMP JUMPDEST PUSH1 0x0 PUSH2 0x19F2 PUSH1 0x5 DUP4 PUSH2 0x182E JUMP JUMPDEST SWAP2 POP PUSH2 0x19FD DUP3 PUSH2 0x19BC JUMP JUMPDEST PUSH1 0x20 DUP3 ADD SWAP1 POP SWAP2 SWAP1 POP JUMP JUMPDEST PUSH1 0x0 PUSH1 0x20 DUP3 ADD SWAP1 POP DUP2 DUP2 SUB PUSH1 0x0 DUP4 ADD MSTORE PUSH2 0x1A21 DUP2 PUSH2 0x19E5 JUMP JUMPDEST SWAP1 POP SWAP2 SWAP1 POP JUMP JUMPDEST PUSH32 0x6572726F00000000000000000000000000000000000000000000000000000000 PUSH1 0x0 DUP3 ADD MSTORE POP JUMP JUMPDEST PUSH1 0x0 PUSH2 0x1A5E PUSH1 0x4 DUP4 PUSH2 0x182E JUMP JUMPDEST SWAP2 POP PUSH2 0x1A69 DUP3 PUSH2 0x1A28 JUMP JUMPDEST PUSH1 0x20 DUP3 ADD SWAP1 POP SWAP2 SWAP1 POP JUMP JUMPDEST PUSH1 0x0 PUSH1 0x20 DUP3 ADD SWAP1 POP DUP2 DUP2 SUB PUSH1 0x0 DUP4 ADD MSTORE PUSH2 0x1A8D DUP2 PUSH2 0x1A51 JUMP JUMPDEST SWAP1 POP SWAP2 SWAP1 POP JUMP JUMPDEST PUSH32 0x596F75206861766520746F207061792066656520746F2075736520536E697065 PUSH1 0x0 DUP3 ADD MSTORE PUSH32 0x46696E616E6365204D756C74692062756C6B2066756E6374696F6E0000000000 PUSH1 0x20 DUP3 ADD MSTORE POP JUMP JUMPDEST PUSH1 0x0 PUSH2 0x1AF0 PUSH1 0x3B DUP4 PUSH2 0x182E JUMP JUMPDEST SWAP2 POP PUSH2 0x1AFB DUP3 PUSH2 0x1A94 JUMP JUMPDEST PUSH1 0x40 DUP3 ADD SWAP1 POP SWAP2 SWAP1 POP JUMP JUMPDEST PUSH1 0x0 PUSH1 0x20 DUP3 ADD SWAP1 POP DUP2 DUP2 SUB PUSH1 0x0 DUP4 ADD MSTORE PUSH2 0x1B1F DUP2 PUSH2 0x1AE3 JUMP JUMPDEST SWAP1 POP SWAP2 SWAP1 POP JUMP JUMPDEST PUSH32 0x4F776E61626C653A206E6577206F776E657220697320746865207A65726F2061 PUSH1 0x0 DUP3 ADD MSTORE PUSH32 0x6464726573730000000000000000000000000000000000000000000000000000 PUSH1 0x20 DUP3 ADD MSTORE POP JUMP JUMPDEST PUSH1 0x0 PUSH2 0x1B82 PUSH1 0x26 DUP4 PUSH2 0x182E JUMP JUMPDEST SWAP2 POP PUSH2 0x1B8D DUP3 PUSH2 0x1B26 JUMP JUMPDEST PUSH1 0x40 DUP3 ADD SWAP1 POP SWAP2 SWAP1 POP JUMP JUMPDEST PUSH1 0x0 PUSH1 0x20 DUP3 ADD SWAP1 POP DUP2 DUP2 SUB PUSH1 0x0 DUP4 ADD MSTORE PUSH2 0x1BB1 DUP2 PUSH2 0x1B75 JUMP JUMPDEST SWAP1 POP SWAP2 SWAP1 POP JUMP JUMPDEST PUSH32 0x4F776E61626C653A2063616C6C6572206973206E6F7420746865206F776E6572 PUSH1 0x0 DUP3 ADD MSTORE POP JUMP JUMPDEST PUSH1 0x0 PUSH2 0x1BEE PUSH1 0x20 DUP4 PUSH2 0x182E JUMP JUMPDEST SWAP2 POP PUSH2 0x1BF9 DUP3 PUSH2 0x1BB8 JUMP JUMPDEST PUSH1 0x20 DUP3 ADD SWAP1 POP SWAP2 SWAP1 POP JUMP JUMPDEST PUSH1 0x0 PUSH1 0x20 DUP3 ADD SWAP1 POP DUP2 DUP2 SUB PUSH1 0x0 DUP4 ADD MSTORE PUSH2 0x1C1D DUP2 PUSH2 0x1BE1 JUMP JUMPDEST SWAP1 POP SWAP2 SWAP1 POP JUMP INVALID LOG2 PUSH5 0x6970667358 0x22 SLT KECCAK256 DUP1 0x1E 0xB3 0xBE 0x4D 0x2E PUSH16 0x7171503E1BC58127BDF4664635FB13A4 EXP PUSH17 0xC920A19F99A29564736F6C634300080D00 CALLER "
				},
				"gasEstimates": {
					"creation": {
						"codeDepositCost": "1451600",
						"executionCost": "infinite",
						"totalCost": "infinite"
					},
					"external": {
						"BNBmultisender(address[],uint256[])": "infinite",
						"SetTokenToholdAndQuantity(address,uint256)": "49384",
						"TOKENmultisender(address,address[],uint256[])": "infinite",
						"authorizeToUse(address)": "27143",
						"authorizedusers(address)": "2890",
						"fee()": "2451",
						"feeamounts()": "2452",
						"getFeeDetails()": "2526",
						"owner()": "2633",
						"quantity()": "2475",
						"readAuthorizedUsers(address)": "2950",
						"receiver()": "2602",
						"renounceOwnership()": "30487",
						"setauthor(address,bool)": "29611",
						"setfeeToUse(uint256,address)": "49297",
						"tokenaddress()": "infinite",
						"transferOwnership(address)": "30810",
						"withdraw()": "infinite"
					}
				},
				"methodIdentifiers": {
					"BNBmultisender(address[],uint256[])": "e3cec849",
					"SetTokenToholdAndQuantity(address,uint256)": "2fc75eb0",
					"TOKENmultisender(address,address[],uint256[])": "9cbd3433",
					"authorizeToUse(address)": "4b4fb1b0",
					"authorizedusers(address)": "44b6209d",
					"fee()": "ddca3f43",
					"feeamounts()": "9c8b9e7b",
					"getFeeDetails()": "b810c636",
					"owner()": "8da5cb5b",
					"quantity()": "17fc45e2",
					"readAuthorizedUsers(address)": "a4df0256",
					"receiver()": "f7260d3e",
					"renounceOwnership()": "715018a6",
					"setauthor(address,bool)": "fb520af2",
					"setfeeToUse(uint256,address)": "126ccd94",
					"tokenaddress()": "3feff76d",
					"transferOwnership(address)": "f2fde38b",
					"withdraw()": "3ccfd60b"
				}
			},
			"storageLayout": {
				"storage": [
					{
						"astId": 7,
						"contract": "changes.sol:SnipeFinanceMultisenders",
						"label": "_owner",
						"offset": 0,
						"slot": "0",
						"type": "t_address"
					},
					{
						"astId": 551,
						"contract": "changes.sol:SnipeFinanceMultisenders",
						"label": "fee",
						"offset": 0,
						"slot": "1",
						"type": "t_uint256"
					},
					{
						"astId": 553,
						"contract": "changes.sol:SnipeFinanceMultisenders",
						"label": "receiver",
						"offset": 0,
						"slot": "2",
						"type": "t_address_payable"
					},
					{
						"astId": 555,
						"contract": "changes.sol:SnipeFinanceMultisenders",
						"label": "feeamounts",
						"offset": 0,
						"slot": "3",
						"type": "t_uint256"
					},
					{
						"astId": 559,
						"contract": "changes.sol:SnipeFinanceMultisenders",
						"label": "authorizedusers",
						"offset": 0,
						"slot": "4",
						"type": "t_mapping(t_address,t_bool)"
					},
					{
						"astId": 562,
						"contract": "changes.sol:SnipeFinanceMultisenders",
						"label": "tokenaddress",
						"offset": 0,
						"slot": "5",
						"type": "t_contract(IERC20)190"
					},
					{
						"astId": 564,
						"contract": "changes.sol:SnipeFinanceMultisenders",
						"label": "quantity",
						"offset": 0,
						"slot": "6",
						"type": "t_uint256"
					}
				],
				"types": {
					"t_address": {
						"encoding": "inplace",
						"label": "address",
						"numberOfBytes": "20"
					},
					"t_address_payable": {
						"encoding": "inplace",
						"label": "address payable",
						"numberOfBytes": "20"
					},
					"t_bool": {
						"encoding": "inplace",
						"label": "bool",
						"numberOfBytes": "1"
					},
					"t_contract(IERC20)190": {
						"encoding": "inplace",
						"label": "contract IERC20",
						"numberOfBytes": "20"
					},
					"t_mapping(t_address,t_bool)": {
						"encoding": "mapping",
						"key": "t_address",
						"label": "mapping(address => bool)",
						"numberOfBytes": "32",
						"value": "t_bool"
					},
					"t_uint256": {
						"encoding": "inplace",
						"label": "uint256",
						"numberOfBytes": "32"
					}
				}
			},
			"userdoc": {
				"kind": "user",
				"methods": {},
				"version": 1
			}
		}
	}
}