{
	"contracts/SnipeFinanceMultisenders.sol": {
		"SnipeFinanceMultisenders": {
			"abi": [
				{
					"inputs": [],
					"stateMutability": "nonpayable",
					"type": "constructor"
				},
				{
					"anonymous": false,
					"inputs": [
						{
							"indexed": true,
							"internalType": "address",
							"name": "previousOwner",
							"type": "address"
						},
						{
							"indexed": true,
							"internalType": "address",
							"name": "newOwner",
							"type": "address"
						}
					],
					"name": "OwnershipTransferred",
					"type": "event"
				},
				{
					"inputs": [
						{
							"internalType": "contract IERC20",
							"name": "token",
							"type": "address"
						},
						{
							"internalType": "uint256",
							"name": "_amount",
							"type": "uint256"
						}
					],
					"name": "SetTokenToholdAndQuantity",
					"outputs": [],
					"stateMutability": "nonpayable",
					"type": "function"
				},
				{
					"inputs": [
						{
							"internalType": "contract IERC20",
							"name": "token",
							"type": "address"
						},
						{
							"internalType": "address[]",
							"name": "recipients",
							"type": "address[]"
						},
						{
							"internalType": "uint256[]",
							"name": "values",
							"type": "uint256[]"
						}
					],
					"name": "TOKENmultisender",
					"outputs": [],
					"stateMutability": "payable",
					"type": "function"
				},
				{
					"inputs": [
						{
							"internalType": "address",
							"name": "user",
							"type": "address"
						}
					],
					"name": "authorizeUser",
					"outputs": [],
					"stateMutability": "nonpayable",
					"type": "function"
				},
				{
					"inputs": [
						{
							"internalType": "address",
							"name": "",
							"type": "address"
						}
					],
					"name": "authorizedusers",
					"outputs": [
						{
							"internalType": "bool",
							"name": "",
							"type": "bool"
						}
					],
					"stateMutability": "view",
					"type": "function"
				},
				{
					"inputs": [
						{
							"internalType": "address[]",
							"name": "recipients",
							"type": "address[]"
						},
						{
							"internalType": "uint256[]",
							"name": "values",
							"type": "uint256[]"
						}
					],
					"name": "coinMultisender",
					"outputs": [],
					"stateMutability": "payable",
					"type": "function"
				},
				{
					"inputs": [],
					"name": "contractBalance",
					"outputs": [
						{
							"internalType": "uint256",
							"name": "",
							"type": "uint256"
						}
					],
					"stateMutability": "view",
					"type": "function"
				},
				{
					"inputs": [],
					"name": "fee",
					"outputs": [
						{
							"internalType": "uint256",
							"name": "",
							"type": "uint256"
						}
					],
					"stateMutability": "view",
					"type": "function"
				},
				{
					"inputs": [
						{
							"internalType": "address",
							"name": "account",
							"type": "address"
						}
					],
					"name": "getTokenBalance",
					"outputs": [
						{
							"internalType": "uint256",
							"name": "",
							"type": "uint256"
						}
					],
					"stateMutability": "view",
					"type": "function"
				},
				{
					"inputs": [],
					"name": "owner",
					"outputs": [
						{
							"internalType": "address",
							"name": "",
							"type": "address"
						}
					],
					"stateMutability": "view",
					"type": "function"
				},
				{
					"inputs": [],
					"name": "quantity",
					"outputs": [
						{
							"internalType": "uint256",
							"name": "",
							"type": "uint256"
						}
					],
					"stateMutability": "view",
					"type": "function"
				},
				{
					"inputs": [
						{
							"internalType": "address",
							"name": "user",
							"type": "address"
						}
					],
					"name": "readAuthorizedUsers",
					"outputs": [
						{
							"internalType": "bool",
							"name": "",
							"type": "bool"
						}
					],
					"stateMutability": "view",
					"type": "function"
				},
				{
					"inputs": [],
					"name": "receiver",
					"outputs": [
						{
							"internalType": "address payable",
							"name": "",
							"type": "address"
						}
					],
					"stateMutability": "view",
					"type": "function"
				},
				{
					"inputs": [],
					"name": "renounceOwnership",
					"outputs": [],
					"stateMutability": "nonpayable",
					"type": "function"
				},
				{
					"inputs": [
						{
							"internalType": "uint256",
							"name": "newfee",
							"type": "uint256"
						},
						{
							"internalType": "address",
							"name": "_receiver",
							"type": "address"
						}
					],
					"name": "setfeeToUse",
					"outputs": [],
					"stateMutability": "nonpayable",
					"type": "function"
				},
				{
					"inputs": [],
					"name": "tokenAddress",
					"outputs": [
						{
							"internalType": "contract IERC20",
							"name": "",
							"type": "address"
						}
					],
					"stateMutability": "view",
					"type": "function"
				},
				{
					"inputs": [
						{
							"internalType": "address",
							"name": "newOwner",
							"type": "address"
						}
					],
					"name": "transferOwnership",
					"outputs": [],
					"stateMutability": "nonpayable",
					"type": "function"
				},
				{
					"inputs": [
						{
							"internalType": "address",
							"name": "user",
							"type": "address"
						}
					],
					"name": "unauthorizeUser",
					"outputs": [],
					"stateMutability": "nonpayable",
					"type": "function"
				},
				{
					"inputs": [
						{
							"internalType": "uint256",
							"name": "amount",
							"type": "uint256"
						}
					],
					"name": "withdrawCoins",
					"outputs": [],
					"stateMutability": "nonpayable",
					"type": "function"
				},
				{
					"inputs": [
						{
							"internalType": "contract IERC20",
							"name": "token",
							"type": "address"
						},
						{
							"internalType": "uint256",
							"name": "amount",
							"type": "uint256"
						}
					],
					"name": "withdrawToken",
					"outputs": [],
					"stateMutability": "nonpayable",
					"type": "function"
				},
				{
					"stateMutability": "payable",
					"type": "receive"
				}
			],
			"devdoc": {
				"kind": "dev",
				"methods": {
					"owner()": {
						"details": "Returns the address of the current owner."
					},
					"renounceOwnership()": {
						"details": "Leaves the contract without owner. It will not be possible to call `onlyOwner` functions. Can only be called by the current owner. NOTE: Renouncing ownership will leave the contract without an owner, thereby disabling any functionality that is only available to the owner."
					},
					"transferOwnership(address)": {
						"details": "Transfers ownership of the contract to a new account (`newOwner`). Can only be called by the current owner."
					}
				},
				"version": 1
			},
			"evm": {
				"assembly": "    /* \"contracts/SnipeFinanceMultisenders.sol\":489:7582  contract SnipeFinanceMultisenders is Ownable {... */\n  mstore(0x40, 0x80)\n    /* \"contracts/SnipeFinanceMultisenders.sol\":888:975  constructor() {... */\n  callvalue\n  dup1\n  iszero\n  tag_1\n  jumpi\n  0x00\n  dup1\n  revert\ntag_1:\n  pop\n    /* \"@openzeppelin/contracts/access/Ownable.sol\":936:968  _transferOwnership(_msgSender()) */\n  tag_5\n    /* \"@openzeppelin/contracts/access/Ownable.sol\":955:967  _msgSender() */\n  tag_6\n    /* \"@openzeppelin/contracts/access/Ownable.sol\":955:965  _msgSender */\n  shl(0x20, tag_7)\n    /* \"@openzeppelin/contracts/access/Ownable.sol\":955:967  _msgSender() */\n  0x20\n  shr\n  jump\t// in\ntag_6:\n    /* \"@openzeppelin/contracts/access/Ownable.sol\":936:954  _transferOwnership */\n  shl(0x20, tag_8)\n    /* \"@openzeppelin/contracts/access/Ownable.sol\":936:968  _transferOwnership(_msgSender()) */\n  0x20\n  shr\n  jump\t// in\ntag_5:\n    /* \"contracts/SnipeFinanceMultisenders.sol\":932:939  owner() */\n  tag_10\n    /* \"contracts/SnipeFinanceMultisenders.sol\":932:937  owner */\n  shl(0x20, tag_11)\n    /* \"contracts/SnipeFinanceMultisenders.sol\":932:939  owner() */\n  0x20\n  shr\n  jump\t// in\ntag_10:\n    /* \"contracts/SnipeFinanceMultisenders.sol\":913:921  receiver */\n  0x02\n  0x00\n    /* \"contracts/SnipeFinanceMultisenders.sol\":913:940  receiver = payable(owner()) */\n  0x0100\n  exp\n  dup2\n  sload\n  dup2\n  0xffffffffffffffffffffffffffffffffffffffff\n  mul\n  not\n  and\n  swap1\n  dup4\n  0xffffffffffffffffffffffffffffffffffffffff\n  and\n  mul\n  or\n  swap1\n  sstore\n  pop\n    /* \"contracts/SnipeFinanceMultisenders.sol\":957:967  1 * 10**14 */\n  0x5af3107a4000\n    /* \"contracts/SnipeFinanceMultisenders.sol\":951:954  fee */\n  0x01\n    /* \"contracts/SnipeFinanceMultisenders.sol\":951:967  fee = 1 * 10**14 */\n  dup2\n  swap1\n  sstore\n  pop\n    /* \"contracts/SnipeFinanceMultisenders.sol\":489:7582  contract SnipeFinanceMultisenders is Ownable {... */\n  jump(tag_12)\n    /* \"@openzeppelin/contracts/utils/Context.sol\":640:736  function _msgSender() internal view virtual returns (address) {... */\ntag_7:\n    /* \"@openzeppelin/contracts/utils/Context.sol\":693:700  address */\n  0x00\n    /* \"@openzeppelin/contracts/utils/Context.sol\":719:729  msg.sender */\n  caller\n    /* \"@openzeppelin/contracts/utils/Context.sol\":712:729  return msg.sender */\n  swap1\n  pop\n    /* \"@openzeppelin/contracts/utils/Context.sol\":640:736  function _msgSender() internal view virtual returns (address) {... */\n  swap1\n  jump\t// out\n    /* \"@openzeppelin/contracts/access/Ownable.sol\":2426:2613  function _transferOwnership(address newOwner) internal virtual {... */\ntag_8:\n    /* \"@openzeppelin/contracts/access/Ownable.sol\":2499:2515  address oldOwner */\n  0x00\n    /* \"@openzeppelin/contracts/access/Ownable.sol\":2518:2524  _owner */\n  dup1\n  0x00\n  swap1\n  sload\n  swap1\n  0x0100\n  exp\n  swap1\n  div\n  0xffffffffffffffffffffffffffffffffffffffff\n  and\n    /* \"@openzeppelin/contracts/access/Ownable.sol\":2499:2524  address oldOwner = _owner */\n  swap1\n  pop\n    /* \"@openzeppelin/contracts/access/Ownable.sol\":2543:2551  newOwner */\n  dup2\n    /* \"@openzeppelin/contracts/access/Ownable.sol\":2534:2540  _owner */\n  0x00\n  dup1\n    /* \"@openzeppelin/contracts/access/Ownable.sol\":2534:2551  _owner = newOwner */\n  0x0100\n  exp\n  dup2\n  sload\n  dup2\n  0xffffffffffffffffffffffffffffffffffffffff\n  mul\n  not\n  and\n  swap1\n  dup4\n  0xffffffffffffffffffffffffffffffffffffffff\n  and\n  mul\n  or\n  swap1\n  sstore\n  pop\n    /* \"@openzeppelin/contracts/access/Ownable.sol\":2597:2605  newOwner */\n  dup2\n    /* \"@openzeppelin/contracts/access/Ownable.sol\":2566:2606  OwnershipTransferred(oldOwner, newOwner) */\n  0xffffffffffffffffffffffffffffffffffffffff\n  and\n    /* \"@openzeppelin/contracts/access/Ownable.sol\":2587:2595  oldOwner */\n  dup2\n    /* \"@openzeppelin/contracts/access/Ownable.sol\":2566:2606  OwnershipTransferred(oldOwner, newOwner) */\n  0xffffffffffffffffffffffffffffffffffffffff\n  and\n  0x8be0079c531659141344cd1fd0a4f28419497f9722a3daafe3b4186f6b6457e0\n  mload(0x40)\n  mload(0x40)\n  dup1\n  swap2\n  sub\n  swap1\n  log3\n    /* \"@openzeppelin/contracts/access/Ownable.sol\":2489:2613  {... */\n  pop\n    /* \"@openzeppelin/contracts/access/Ownable.sol\":2426:2613  function _transferOwnership(address newOwner) internal virtual {... */\n  pop\n  jump\t// out\n    /* \"@openzeppelin/contracts/access/Ownable.sol\":1201:1286  function owner() public view virtual returns (address) {... */\ntag_11:\n    /* \"@openzeppelin/contracts/access/Ownable.sol\":1247:1254  address */\n  0x00\n    /* \"@openzeppelin/contracts/access/Ownable.sol\":1273:1279  _owner */\n  dup1\n  0x00\n  swap1\n  sload\n  swap1\n  0x0100\n  exp\n  swap1\n  div\n  0xffffffffffffffffffffffffffffffffffffffff\n  and\n    /* \"@openzeppelin/contracts/access/Ownable.sol\":1266:1279  return _owner */\n  swap1\n  pop\n    /* \"@openzeppelin/contracts/access/Ownable.sol\":1201:1286  function owner() public view virtual returns (address) {... */\n  swap1\n  jump\t// out\n    /* \"contracts/SnipeFinanceMultisenders.sol\":489:7582  contract SnipeFinanceMultisenders is Ownable {... */\ntag_12:\n  dataSize(sub_0)\n  dup1\n  dataOffset(sub_0)\n  0x00\n  codecopy\n  0x00\n  return\nstop\n\nsub_0: assembly {\n        /* \"contracts/SnipeFinanceMultisenders.sol\":489:7582  contract SnipeFinanceMultisenders is Ownable {... */\n      mstore(0x40, 0x80)\n      jumpi(tag_1, lt(calldatasize, 0x04))\n      shr(0xe0, calldataload(0x00))\n      dup1\n      0x8da5cb5b\n      gt\n      tag_22\n      jumpi\n      dup1\n      0xd908e6ce\n      gt\n      tag_23\n      jumpi\n      dup1\n      0xd908e6ce\n      eq\n      tag_17\n      jumpi\n      dup1\n      0xddca3f43\n      eq\n      tag_18\n      jumpi\n      dup1\n      0xf2fde38b\n      eq\n      tag_19\n      jumpi\n      dup1\n      0xf7260d3e\n      eq\n      tag_20\n      jumpi\n      dup1\n      0xf9f95a0f\n      eq\n      tag_21\n      jumpi\n      jump(tag_2)\n    tag_23:\n      dup1\n      0x8da5cb5b\n      eq\n      tag_12\n      jumpi\n      dup1\n      0x9cbd3433\n      eq\n      tag_13\n      jumpi\n      dup1\n      0x9d76ea58\n      eq\n      tag_14\n      jumpi\n      dup1\n      0x9e281a98\n      eq\n      tag_15\n      jumpi\n      dup1\n      0xa4df0256\n      eq\n      tag_16\n      jumpi\n      jump(tag_2)\n    tag_22:\n      dup1\n      0x44b6209d\n      gt\n      tag_24\n      jumpi\n      dup1\n      0x44b6209d\n      eq\n      tag_7\n      jumpi\n      dup1\n      0x478aa69e\n      eq\n      tag_8\n      jumpi\n      dup1\n      0x67c2a360\n      eq\n      tag_9\n      jumpi\n      dup1\n      0x715018a6\n      eq\n      tag_10\n      jumpi\n      dup1\n      0x8b7afe2e\n      eq\n      tag_11\n      jumpi\n      jump(tag_2)\n    tag_24:\n      dup1\n      0x126ccd94\n      eq\n      tag_3\n      jumpi\n      dup1\n      0x17fc45e2\n      eq\n      tag_4\n      jumpi\n      dup1\n      0x2fc75eb0\n      eq\n      tag_5\n      jumpi\n      dup1\n      0x3aecd0e3\n      eq\n      tag_6\n      jumpi\n      jump(tag_2)\n    tag_1:\n      jumpi(tag_2, calldatasize)\n      stop\n    tag_2:\n      0x00\n      dup1\n      revert\n        /* \"contracts/SnipeFinanceMultisenders.sol\":5158:5304  function setfeeToUse(uint256 newfee, address _receiver) external onlyOwner {... */\n    tag_3:\n      callvalue\n      dup1\n      iszero\n      tag_27\n      jumpi\n      0x00\n      dup1\n      revert\n    tag_27:\n      pop\n      tag_28\n      0x04\n      dup1\n      calldatasize\n      sub\n      dup2\n      add\n      swap1\n      tag_29\n      swap2\n      swap1\n      tag_30\n      jump\t// in\n    tag_29:\n      tag_31\n      jump\t// in\n    tag_28:\n      stop\n        /* \"contracts/SnipeFinanceMultisenders.sol\":796:819  uint256 public quantity */\n    tag_4:\n      callvalue\n      dup1\n      iszero\n      tag_32\n      jumpi\n      0x00\n      dup1\n      revert\n    tag_32:\n      pop\n      tag_33\n      tag_34\n      jump\t// in\n    tag_33:\n      mload(0x40)\n      tag_35\n      swap2\n      swap1\n      tag_36\n      jump\t// in\n    tag_35:\n      mload(0x40)\n      dup1\n      swap2\n      sub\n      swap1\n      return\n        /* \"contracts/SnipeFinanceMultisenders.sol\":6028:6204  function SetTokenToholdAndQuantity(IERC20 token, uint256 _amount)... */\n    tag_5:\n      callvalue\n      dup1\n      iszero\n      tag_37\n      jumpi\n      0x00\n      dup1\n      revert\n    tag_37:\n      pop\n      tag_38\n      0x04\n      dup1\n      calldatasize\n      sub\n      dup2\n      add\n      swap1\n      tag_39\n      swap2\n      swap1\n      tag_40\n      jump\t// in\n    tag_39:\n      tag_41\n      jump\t// in\n    tag_38:\n      stop\n        /* \"contracts/SnipeFinanceMultisenders.sol\":7448:7577  function getTokenBalance(address account) external view returns(uint256){... */\n    tag_6:\n      callvalue\n      dup1\n      iszero\n      tag_42\n      jumpi\n      0x00\n      dup1\n      revert\n    tag_42:\n      pop\n      tag_43\n      0x04\n      dup1\n      calldatasize\n      sub\n      dup2\n      add\n      swap1\n      tag_44\n      swap2\n      swap1\n      tag_45\n      jump\t// in\n    tag_44:\n      tag_46\n      jump\t// in\n    tag_43:\n      mload(0x40)\n      tag_47\n      swap2\n      swap1\n      tag_36\n      jump\t// in\n    tag_47:\n      mload(0x40)\n      dup1\n      swap2\n      sub\n      swap1\n      return\n        /* \"contracts/SnipeFinanceMultisenders.sol\":662:709  mapping(address => bool) public authorizedusers */\n    tag_7:\n      callvalue\n      dup1\n      iszero\n      tag_48\n      jumpi\n      0x00\n      dup1\n      revert\n    tag_48:\n      pop\n      tag_49\n      0x04\n      dup1\n      calldatasize\n      sub\n      dup2\n      add\n      swap1\n      tag_50\n      swap2\n      swap1\n      tag_45\n      jump\t// in\n    tag_50:\n      tag_51\n      jump\t// in\n    tag_49:\n      mload(0x40)\n      tag_52\n      swap2\n      swap1\n      tag_53\n      jump\t// in\n    tag_52:\n      mload(0x40)\n      dup1\n      swap2\n      sub\n      swap1\n      return\n        /* \"contracts/SnipeFinanceMultisenders.sol\":5671:5858  function unauthorizeUser(address user) external onlyOwner {... */\n    tag_8:\n      callvalue\n      dup1\n      iszero\n      tag_54\n      jumpi\n      0x00\n      dup1\n      revert\n    tag_54:\n      pop\n      tag_55\n      0x04\n      dup1\n      calldatasize\n      sub\n      dup2\n      add\n      swap1\n      tag_56\n      swap2\n      swap1\n      tag_45\n      jump\t// in\n    tag_56:\n      tag_57\n      jump\t// in\n    tag_55:\n      stop\n        /* \"contracts/SnipeFinanceMultisenders.sol\":5396:5579  function authorizeUser(address user) external onlyOwner {... */\n    tag_9:\n      callvalue\n      dup1\n      iszero\n      tag_58\n      jumpi\n      0x00\n      dup1\n      revert\n    tag_58:\n      pop\n      tag_59\n      0x04\n      dup1\n      calldatasize\n      sub\n      dup2\n      add\n      swap1\n      tag_60\n      swap2\n      swap1\n      tag_45\n      jump\t// in\n    tag_60:\n      tag_61\n      jump\t// in\n    tag_59:\n      stop\n        /* \"@openzeppelin/contracts/access/Ownable.sol\":1824:1925  function renounceOwnership() public virtual onlyOwner {... */\n    tag_10:\n      callvalue\n      dup1\n      iszero\n      tag_62\n      jumpi\n      0x00\n      dup1\n      revert\n    tag_62:\n      pop\n      tag_63\n      tag_64\n      jump\t// in\n    tag_63:\n      stop\n        /* \"contracts/SnipeFinanceMultisenders.sol\":6975:7087  function contractBalance() public view onlyOwner returns(uint256){... */\n    tag_11:\n      callvalue\n      dup1\n      iszero\n      tag_65\n      jumpi\n      0x00\n      dup1\n      revert\n    tag_65:\n      pop\n      tag_66\n      tag_67\n      jump\t// in\n    tag_66:\n      mload(0x40)\n      tag_68\n      swap2\n      swap1\n      tag_36\n      jump\t// in\n    tag_68:\n      mload(0x40)\n      dup1\n      swap2\n      sub\n      swap1\n      return\n        /* \"@openzeppelin/contracts/access/Ownable.sol\":1201:1286  function owner() public view virtual returns (address) {... */\n    tag_12:\n      callvalue\n      dup1\n      iszero\n      tag_69\n      jumpi\n      0x00\n      dup1\n      revert\n    tag_69:\n      pop\n      tag_70\n      tag_71\n      jump\t// in\n    tag_70:\n      mload(0x40)\n      tag_72\n      swap2\n      swap1\n      tag_73\n      jump\t// in\n    tag_72:\n      mload(0x40)\n      dup1\n      swap2\n      sub\n      swap1\n      return\n        /* \"contracts/SnipeFinanceMultisenders.sol\":2931:5096  function TOKENmultisender(//ICustomERC20 REPLACED WITH ERC20... */\n    tag_13:\n      tag_74\n      0x04\n      dup1\n      calldatasize\n      sub\n      dup2\n      add\n      swap1\n      tag_75\n      swap2\n      swap1\n      tag_76\n      jump\t// in\n    tag_75:\n      tag_77\n      jump\t// in\n    tag_74:\n      stop\n        /* \"contracts/SnipeFinanceMultisenders.sol\":716:742  IERC20 public tokenAddress */\n    tag_14:\n      callvalue\n      dup1\n      iszero\n      tag_78\n      jumpi\n      0x00\n      dup1\n      revert\n    tag_78:\n      pop\n      tag_79\n      tag_80\n      jump\t// in\n    tag_79:\n      mload(0x40)\n      tag_81\n      swap2\n      swap1\n      tag_82\n      jump\t// in\n    tag_81:\n      mload(0x40)\n      dup1\n      swap2\n      sub\n      swap1\n      return\n        /* \"contracts/SnipeFinanceMultisenders.sol\":6674:6934  function withdrawToken(IERC20 token, uint256 amount) public onlyOwner {... */\n    tag_15:\n      callvalue\n      dup1\n      iszero\n      tag_83\n      jumpi\n      0x00\n      dup1\n      revert\n    tag_83:\n      pop\n      tag_84\n      0x04\n      dup1\n      calldatasize\n      sub\n      dup2\n      add\n      swap1\n      tag_85\n      swap2\n      swap1\n      tag_40\n      jump\t// in\n    tag_85:\n      tag_86\n      jump\t// in\n    tag_84:\n      stop\n        /* \"contracts/SnipeFinanceMultisenders.sol\":5864:5981  function readAuthorizedUsers(address user) external view returns(bool){... */\n    tag_16:\n      callvalue\n      dup1\n      iszero\n      tag_87\n      jumpi\n      0x00\n      dup1\n      revert\n    tag_87:\n      pop\n      tag_88\n      0x04\n      dup1\n      calldatasize\n      sub\n      dup2\n      add\n      swap1\n      tag_89\n      swap2\n      swap1\n      tag_45\n      jump\t// in\n    tag_89:\n      tag_90\n      jump\t// in\n    tag_88:\n      mload(0x40)\n      tag_91\n      swap2\n      swap1\n      tag_53\n      jump\t// in\n    tag_91:\n      mload(0x40)\n      dup1\n      swap2\n      sub\n      swap1\n      return\n        /* \"contracts/SnipeFinanceMultisenders.sol\":1210:2923  function coinMultisender(... */\n    tag_17:\n      tag_92\n      0x04\n      dup1\n      calldatasize\n      sub\n      dup2\n      add\n      swap1\n      tag_93\n      swap2\n      swap1\n      tag_94\n      jump\t// in\n    tag_93:\n      tag_95\n      jump\t// in\n    tag_92:\n      stop\n        /* \"contracts/SnipeFinanceMultisenders.sol\":573:591  uint256 public fee */\n    tag_18:\n      callvalue\n      dup1\n      iszero\n      tag_96\n      jumpi\n      0x00\n      dup1\n      revert\n    tag_96:\n      pop\n      tag_97\n      tag_98\n      jump\t// in\n    tag_97:\n      mload(0x40)\n      tag_99\n      swap2\n      swap1\n      tag_36\n      jump\t// in\n    tag_99:\n      mload(0x40)\n      dup1\n      swap2\n      sub\n      swap1\n      return\n        /* \"@openzeppelin/contracts/access/Ownable.sol\":2074:2272  function transferOwnership(address newOwner) public virtual onlyOwner {... */\n    tag_19:\n      callvalue\n      dup1\n      iszero\n      tag_100\n      jumpi\n      0x00\n      dup1\n      revert\n    tag_100:\n      pop\n      tag_101\n      0x04\n      dup1\n      calldatasize\n      sub\n      dup2\n      add\n      swap1\n      tag_102\n      swap2\n      swap1\n      tag_45\n      jump\t// in\n    tag_102:\n      tag_103\n      jump\t// in\n    tag_101:\n      stop\n        /* \"contracts/SnipeFinanceMultisenders.sol\":598:629  address payable public receiver */\n    tag_20:\n      callvalue\n      dup1\n      iszero\n      tag_104\n      jumpi\n      0x00\n      dup1\n      revert\n    tag_104:\n      pop\n      tag_105\n      tag_106\n      jump\t// in\n    tag_105:\n      mload(0x40)\n      tag_107\n      swap2\n      swap1\n      tag_108\n      jump\t// in\n    tag_107:\n      mload(0x40)\n      dup1\n      swap2\n      sub\n      swap1\n      return\n        /* \"contracts/SnipeFinanceMultisenders.sol\":6388:6583  function withdrawCoins(uint256 amount) external onlyOwner {... */\n    tag_21:\n      callvalue\n      dup1\n      iszero\n      tag_109\n      jumpi\n      0x00\n      dup1\n      revert\n    tag_109:\n      pop\n      tag_110\n      0x04\n      dup1\n      calldatasize\n      sub\n      dup2\n      add\n      swap1\n      tag_111\n      swap2\n      swap1\n      tag_112\n      jump\t// in\n    tag_111:\n      tag_113\n      jump\t// in\n    tag_110:\n      stop\n        /* \"contracts/SnipeFinanceMultisenders.sol\":5158:5304  function setfeeToUse(uint256 newfee, address _receiver) external onlyOwner {... */\n    tag_31:\n        /* \"@openzeppelin/contracts/access/Ownable.sol\":1094:1107  _checkOwner() */\n      tag_115\n        /* \"@openzeppelin/contracts/access/Ownable.sol\":1094:1105  _checkOwner */\n      tag_116\n        /* \"@openzeppelin/contracts/access/Ownable.sol\":1094:1107  _checkOwner() */\n      jump\t// in\n    tag_115:\n        /* \"contracts/SnipeFinanceMultisenders.sol\":5250:5256  newfee */\n      dup2\n        /* \"contracts/SnipeFinanceMultisenders.sol\":5244:5247  fee */\n      0x01\n        /* \"contracts/SnipeFinanceMultisenders.sol\":5244:5256  fee = newfee */\n      dup2\n      swap1\n      sstore\n      pop\n        /* \"contracts/SnipeFinanceMultisenders.sol\":5286:5295  _receiver */\n      dup1\n        /* \"contracts/SnipeFinanceMultisenders.sol\":5267:5275  receiver */\n      0x02\n      0x00\n        /* \"contracts/SnipeFinanceMultisenders.sol\":5267:5296  receiver = payable(_receiver) */\n      0x0100\n      exp\n      dup2\n      sload\n      dup2\n      0xffffffffffffffffffffffffffffffffffffffff\n      mul\n      not\n      and\n      swap1\n      dup4\n      0xffffffffffffffffffffffffffffffffffffffff\n      and\n      mul\n      or\n      swap1\n      sstore\n      pop\n        /* \"contracts/SnipeFinanceMultisenders.sol\":5158:5304  function setfeeToUse(uint256 newfee, address _receiver) external onlyOwner {... */\n      pop\n      pop\n      jump\t// out\n        /* \"contracts/SnipeFinanceMultisenders.sol\":796:819  uint256 public quantity */\n    tag_34:\n      sload(0x05)\n      dup2\n      jump\t// out\n        /* \"contracts/SnipeFinanceMultisenders.sol\":6028:6204  function SetTokenToholdAndQuantity(IERC20 token, uint256 _amount)... */\n    tag_41:\n        /* \"@openzeppelin/contracts/access/Ownable.sol\":1094:1107  _checkOwner() */\n      tag_119\n        /* \"@openzeppelin/contracts/access/Ownable.sol\":1094:1105  _checkOwner */\n      tag_116\n        /* \"@openzeppelin/contracts/access/Ownable.sol\":1094:1107  _checkOwner() */\n      jump\t// in\n    tag_119:\n        /* \"contracts/SnipeFinanceMultisenders.sol\":6162:6167  token */\n      dup2\n        /* \"contracts/SnipeFinanceMultisenders.sol\":6147:6159  tokenAddress */\n      0x04\n      0x00\n        /* \"contracts/SnipeFinanceMultisenders.sol\":6147:6167  tokenAddress = token */\n      0x0100\n      exp\n      dup2\n      sload\n      dup2\n      0xffffffffffffffffffffffffffffffffffffffff\n      mul\n      not\n      and\n      swap1\n      dup4\n      0xffffffffffffffffffffffffffffffffffffffff\n      and\n      mul\n      or\n      swap1\n      sstore\n      pop\n        /* \"contracts/SnipeFinanceMultisenders.sol\":6189:6196  _amount */\n      dup1\n        /* \"contracts/SnipeFinanceMultisenders.sol\":6178:6186  quantity */\n      0x05\n        /* \"contracts/SnipeFinanceMultisenders.sol\":6178:6196  quantity = _amount */\n      dup2\n      swap1\n      sstore\n      pop\n        /* \"contracts/SnipeFinanceMultisenders.sol\":6028:6204  function SetTokenToholdAndQuantity(IERC20 token, uint256 _amount)... */\n      pop\n      pop\n      jump\t// out\n        /* \"contracts/SnipeFinanceMultisenders.sol\":7448:7577  function getTokenBalance(address account) external view returns(uint256){... */\n    tag_46:\n        /* \"contracts/SnipeFinanceMultisenders.sol\":7512:7519  uint256 */\n      0x00\n        /* \"contracts/SnipeFinanceMultisenders.sol\":7538:7550  tokenAddress */\n      0x04\n      0x00\n      swap1\n      sload\n      swap1\n      0x0100\n      exp\n      swap1\n      div\n      0xffffffffffffffffffffffffffffffffffffffff\n      and\n        /* \"contracts/SnipeFinanceMultisenders.sol\":7538:7560  tokenAddress.balanceOf */\n      0xffffffffffffffffffffffffffffffffffffffff\n      and\n      0x70a08231\n        /* \"contracts/SnipeFinanceMultisenders.sol\":7561:7568  account */\n      dup4\n        /* \"contracts/SnipeFinanceMultisenders.sol\":7538:7569  tokenAddress.balanceOf(account) */\n      mload(0x40)\n      dup3\n      0xffffffff\n      and\n      0xe0\n      shl\n      dup2\n      mstore\n      0x04\n      add\n      tag_122\n      swap2\n      swap1\n      tag_73\n      jump\t// in\n    tag_122:\n      0x20\n      mload(0x40)\n      dup1\n      dup4\n      sub\n      dup2\n      dup7\n      gas\n      staticcall\n      iszero\n      dup1\n      iszero\n      tag_124\n      jumpi\n      returndatasize\n      0x00\n      dup1\n      returndatacopy\n      revert(0x00, returndatasize)\n    tag_124:\n      pop\n      pop\n      pop\n      pop\n      mload(0x40)\n      returndatasize\n      not(0x1f)\n      0x1f\n      dup3\n      add\n      and\n      dup3\n      add\n      dup1\n      0x40\n      mstore\n      pop\n      dup2\n      add\n      swap1\n      tag_125\n      swap2\n      swap1\n      tag_126\n      jump\t// in\n    tag_125:\n        /* \"contracts/SnipeFinanceMultisenders.sol\":7531:7569  return tokenAddress.balanceOf(account) */\n      swap1\n      pop\n        /* \"contracts/SnipeFinanceMultisenders.sol\":7448:7577  function getTokenBalance(address account) external view returns(uint256){... */\n      swap2\n      swap1\n      pop\n      jump\t// out\n        /* \"contracts/SnipeFinanceMultisenders.sol\":662:709  mapping(address => bool) public authorizedusers */\n    tag_51:\n      mstore(0x20, 0x03)\n      dup1\n      0x00\n      mstore\n      keccak256(0x00, 0x40)\n      0x00\n      swap2\n      pop\n      sload\n      swap1\n      0x0100\n      exp\n      swap1\n      div\n      0xff\n      and\n      dup2\n      jump\t// out\n        /* \"contracts/SnipeFinanceMultisenders.sol\":5671:5858  function unauthorizeUser(address user) external onlyOwner {... */\n    tag_57:\n        /* \"@openzeppelin/contracts/access/Ownable.sol\":1094:1107  _checkOwner() */\n      tag_128\n        /* \"@openzeppelin/contracts/access/Ownable.sol\":1094:1105  _checkOwner */\n      tag_116\n        /* \"@openzeppelin/contracts/access/Ownable.sol\":1094:1107  _checkOwner() */\n      jump\t// in\n    tag_128:\n        /* \"contracts/SnipeFinanceMultisenders.sol\":5773:5777  true */\n      0x01\n        /* \"contracts/SnipeFinanceMultisenders.sol\":5748:5777  authorizedusers[user] == true */\n      iszero\n      iszero\n        /* \"contracts/SnipeFinanceMultisenders.sol\":5748:5763  authorizedusers */\n      0x03\n        /* \"contracts/SnipeFinanceMultisenders.sol\":5748:5769  authorizedusers[user] */\n      0x00\n        /* \"contracts/SnipeFinanceMultisenders.sol\":5764:5768  user */\n      dup4\n        /* \"contracts/SnipeFinanceMultisenders.sol\":5748:5769  authorizedusers[user] */\n      0xffffffffffffffffffffffffffffffffffffffff\n      and\n      0xffffffffffffffffffffffffffffffffffffffff\n      and\n      dup2\n      mstore\n      0x20\n      add\n      swap1\n      dup2\n      mstore\n      0x20\n      add\n      0x00\n      keccak256\n      0x00\n      swap1\n      sload\n      swap1\n      0x0100\n      exp\n      swap1\n      div\n      0xff\n      and\n        /* \"contracts/SnipeFinanceMultisenders.sol\":5748:5777  authorizedusers[user] == true */\n      iszero\n      iszero\n      eq\n        /* \"contracts/SnipeFinanceMultisenders.sol\":5740:5810  require(authorizedusers[user] == true, \"user is already unauthorized\") */\n      tag_130\n      jumpi\n      mload(0x40)\n      0x08c379a000000000000000000000000000000000000000000000000000000000\n      dup2\n      mstore\n      0x04\n      add\n      tag_131\n      swap1\n      tag_132\n      jump\t// in\n    tag_131:\n      mload(0x40)\n      dup1\n      swap2\n      sub\n      swap1\n      revert\n    tag_130:\n        /* \"contracts/SnipeFinanceMultisenders.sol\":5845:5850  false */\n      0x00\n        /* \"contracts/SnipeFinanceMultisenders.sol\":5821:5836  authorizedusers */\n      0x03\n        /* \"contracts/SnipeFinanceMultisenders.sol\":5821:5842  authorizedusers[user] */\n      0x00\n        /* \"contracts/SnipeFinanceMultisenders.sol\":5837:5841  user */\n      dup4\n        /* \"contracts/SnipeFinanceMultisenders.sol\":5821:5842  authorizedusers[user] */\n      0xffffffffffffffffffffffffffffffffffffffff\n      and\n      0xffffffffffffffffffffffffffffffffffffffff\n      and\n      dup2\n      mstore\n      0x20\n      add\n      swap1\n      dup2\n      mstore\n      0x20\n      add\n      0x00\n      keccak256\n      0x00\n        /* \"contracts/SnipeFinanceMultisenders.sol\":5821:5850  authorizedusers[user] = false */\n      0x0100\n      exp\n      dup2\n      sload\n      dup2\n      0xff\n      mul\n      not\n      and\n      swap1\n      dup4\n      iszero\n      iszero\n      mul\n      or\n      swap1\n      sstore\n      pop\n        /* \"contracts/SnipeFinanceMultisenders.sol\":5671:5858  function unauthorizeUser(address user) external onlyOwner {... */\n      pop\n      jump\t// out\n        /* \"contracts/SnipeFinanceMultisenders.sol\":5396:5579  function authorizeUser(address user) external onlyOwner {... */\n    tag_61:\n        /* \"@openzeppelin/contracts/access/Ownable.sol\":1094:1107  _checkOwner() */\n      tag_134\n        /* \"@openzeppelin/contracts/access/Ownable.sol\":1094:1105  _checkOwner */\n      tag_116\n        /* \"@openzeppelin/contracts/access/Ownable.sol\":1094:1107  _checkOwner() */\n      jump\t// in\n    tag_134:\n        /* \"contracts/SnipeFinanceMultisenders.sol\":5496:5501  false */\n      0x00\n        /* \"contracts/SnipeFinanceMultisenders.sol\":5471:5501  authorizedusers[user] == false */\n      iszero\n      iszero\n        /* \"contracts/SnipeFinanceMultisenders.sol\":5471:5486  authorizedusers */\n      0x03\n        /* \"contracts/SnipeFinanceMultisenders.sol\":5471:5492  authorizedusers[user] */\n      0x00\n        /* \"contracts/SnipeFinanceMultisenders.sol\":5487:5491  user */\n      dup4\n        /* \"contracts/SnipeFinanceMultisenders.sol\":5471:5492  authorizedusers[user] */\n      0xffffffffffffffffffffffffffffffffffffffff\n      and\n      0xffffffffffffffffffffffffffffffffffffffff\n      and\n      dup2\n      mstore\n      0x20\n      add\n      swap1\n      dup2\n      mstore\n      0x20\n      add\n      0x00\n      keccak256\n      0x00\n      swap1\n      sload\n      swap1\n      0x0100\n      exp\n      swap1\n      div\n      0xff\n      and\n        /* \"contracts/SnipeFinanceMultisenders.sol\":5471:5501  authorizedusers[user] == false */\n      iszero\n      iszero\n      eq\n        /* \"contracts/SnipeFinanceMultisenders.sol\":5463:5532  require(authorizedusers[user] == false, \"user is already authorized\") */\n      tag_136\n      jumpi\n      mload(0x40)\n      0x08c379a000000000000000000000000000000000000000000000000000000000\n      dup2\n      mstore\n      0x04\n      add\n      tag_137\n      swap1\n      tag_138\n      jump\t// in\n    tag_137:\n      mload(0x40)\n      dup1\n      swap2\n      sub\n      swap1\n      revert\n    tag_136:\n        /* \"contracts/SnipeFinanceMultisenders.sol\":5567:5571  true */\n      0x01\n        /* \"contracts/SnipeFinanceMultisenders.sol\":5543:5558  authorizedusers */\n      0x03\n        /* \"contracts/SnipeFinanceMultisenders.sol\":5543:5564  authorizedusers[user] */\n      0x00\n        /* \"contracts/SnipeFinanceMultisenders.sol\":5559:5563  user */\n      dup4\n        /* \"contracts/SnipeFinanceMultisenders.sol\":5543:5564  authorizedusers[user] */\n      0xffffffffffffffffffffffffffffffffffffffff\n      and\n      0xffffffffffffffffffffffffffffffffffffffff\n      and\n      dup2\n      mstore\n      0x20\n      add\n      swap1\n      dup2\n      mstore\n      0x20\n      add\n      0x00\n      keccak256\n      0x00\n        /* \"contracts/SnipeFinanceMultisenders.sol\":5543:5571  authorizedusers[user] = true */\n      0x0100\n      exp\n      dup2\n      sload\n      dup2\n      0xff\n      mul\n      not\n      and\n      swap1\n      dup4\n      iszero\n      iszero\n      mul\n      or\n      swap1\n      sstore\n      pop\n        /* \"contracts/SnipeFinanceMultisenders.sol\":5396:5579  function authorizeUser(address user) external onlyOwner {... */\n      pop\n      jump\t// out\n        /* \"@openzeppelin/contracts/access/Ownable.sol\":1824:1925  function renounceOwnership() public virtual onlyOwner {... */\n    tag_64:\n        /* \"@openzeppelin/contracts/access/Ownable.sol\":1094:1107  _checkOwner() */\n      tag_140\n        /* \"@openzeppelin/contracts/access/Ownable.sol\":1094:1105  _checkOwner */\n      tag_116\n        /* \"@openzeppelin/contracts/access/Ownable.sol\":1094:1107  _checkOwner() */\n      jump\t// in\n    tag_140:\n        /* \"@openzeppelin/contracts/access/Ownable.sol\":1888:1918  _transferOwnership(address(0)) */\n      tag_142\n        /* \"@openzeppelin/contracts/access/Ownable.sol\":1915:1916  0 */\n      0x00\n        /* \"@openzeppelin/contracts/access/Ownable.sol\":1888:1906  _transferOwnership */\n      tag_143\n        /* \"@openzeppelin/contracts/access/Ownable.sol\":1888:1918  _transferOwnership(address(0)) */\n      jump\t// in\n    tag_142:\n        /* \"@openzeppelin/contracts/access/Ownable.sol\":1824:1925  function renounceOwnership() public virtual onlyOwner {... */\n      jump\t// out\n        /* \"contracts/SnipeFinanceMultisenders.sol\":6975:7087  function contractBalance() public view onlyOwner returns(uint256){... */\n    tag_67:\n        /* \"contracts/SnipeFinanceMultisenders.sol\":7032:7039  uint256 */\n      0x00\n        /* \"@openzeppelin/contracts/access/Ownable.sol\":1094:1107  _checkOwner() */\n      tag_145\n        /* \"@openzeppelin/contracts/access/Ownable.sol\":1094:1105  _checkOwner */\n      tag_116\n        /* \"@openzeppelin/contracts/access/Ownable.sol\":1094:1107  _checkOwner() */\n      jump\t// in\n    tag_145:\n        /* \"contracts/SnipeFinanceMultisenders.sol\":7066:7070  this */\n      address\n        /* \"contracts/SnipeFinanceMultisenders.sol\":7058:7079  address(this).balance */\n      0xffffffffffffffffffffffffffffffffffffffff\n      and\n      balance\n        /* \"contracts/SnipeFinanceMultisenders.sol\":7051:7079  return address(this).balance */\n      swap1\n      pop\n        /* \"contracts/SnipeFinanceMultisenders.sol\":6975:7087  function contractBalance() public view onlyOwner returns(uint256){... */\n      swap1\n      jump\t// out\n        /* \"@openzeppelin/contracts/access/Ownable.sol\":1201:1286  function owner() public view virtual returns (address) {... */\n    tag_71:\n        /* \"@openzeppelin/contracts/access/Ownable.sol\":1247:1254  address */\n      0x00\n        /* \"@openzeppelin/contracts/access/Ownable.sol\":1273:1279  _owner */\n      dup1\n      0x00\n      swap1\n      sload\n      swap1\n      0x0100\n      exp\n      swap1\n      div\n      0xffffffffffffffffffffffffffffffffffffffff\n      and\n        /* \"@openzeppelin/contracts/access/Ownable.sol\":1266:1279  return _owner */\n      swap1\n      pop\n        /* \"@openzeppelin/contracts/access/Ownable.sol\":1201:1286  function owner() public view virtual returns (address) {... */\n      swap1\n      jump\t// out\n        /* \"contracts/SnipeFinanceMultisenders.sol\":2931:5096  function TOKENmultisender(//ICustomERC20 REPLACED WITH ERC20... */\n    tag_77:\n        /* \"contracts/SnipeFinanceMultisenders.sol\":1154:1155  0 */\n      0x00\n        /* \"contracts/SnipeFinanceMultisenders.sol\":1121:1156  address(tokenAddress) != address(0) */\n      0xffffffffffffffffffffffffffffffffffffffff\n      and\n        /* \"contracts/SnipeFinanceMultisenders.sol\":1129:1141  tokenAddress */\n      0x04\n      0x00\n      swap1\n      sload\n      swap1\n      0x0100\n      exp\n      swap1\n      div\n      0xffffffffffffffffffffffffffffffffffffffff\n      and\n        /* \"contracts/SnipeFinanceMultisenders.sol\":1121:1156  address(tokenAddress) != address(0) */\n      0xffffffffffffffffffffffffffffffffffffffff\n      and\n      sub\n        /* \"contracts/SnipeFinanceMultisenders.sol\":1113:1182  require(address(tokenAddress) != address(0), \"token holding invalid\") */\n      tag_149\n      jumpi\n      mload(0x40)\n      0x08c379a000000000000000000000000000000000000000000000000000000000\n      dup2\n      mstore\n      0x04\n      add\n      tag_150\n      swap1\n      tag_151\n      jump\t// in\n    tag_150:\n      mload(0x40)\n      dup1\n      swap2\n      sub\n      swap1\n      revert\n    tag_149:\n        /* \"contracts/SnipeFinanceMultisenders.sol\":3173:3177  true */\n      0x01\n        /* \"contracts/SnipeFinanceMultisenders.sol\":3142:3177  address(token).isContract() == true */\n      iszero\n      iszero\n        /* \"contracts/SnipeFinanceMultisenders.sol\":3142:3169  address(token).isContract() */\n      tag_153\n        /* \"contracts/SnipeFinanceMultisenders.sol\":3150:3155  token */\n      dup5\n        /* \"contracts/SnipeFinanceMultisenders.sol\":3142:3167  address(token).isContract */\n      0xffffffffffffffffffffffffffffffffffffffff\n      and\n      tag_154\n        /* \"contracts/SnipeFinanceMultisenders.sol\":3142:3169  address(token).isContract() */\n      jump\t// in\n    tag_153:\n        /* \"contracts/SnipeFinanceMultisenders.sol\":3142:3177  address(token).isContract() == true */\n      iszero\n      iszero\n      eq\n        /* \"contracts/SnipeFinanceMultisenders.sol\":3134:3196  require(address(token).isContract() == true, \"not a contract\") */\n      tag_155\n      jumpi\n      mload(0x40)\n      0x08c379a000000000000000000000000000000000000000000000000000000000\n      dup2\n      mstore\n      0x04\n      add\n      tag_156\n      swap1\n      tag_157\n      jump\t// in\n    tag_156:\n      mload(0x40)\n      dup1\n      swap2\n      sub\n      swap1\n      revert\n    tag_155:\n        /* \"contracts/SnipeFinanceMultisenders.sol\":3293:3299  values */\n      dup1\n        /* \"contracts/SnipeFinanceMultisenders.sol\":3293:3306  values.length */\n      mload\n        /* \"contracts/SnipeFinanceMultisenders.sol\":3272:3282  recipients */\n      dup3\n        /* \"contracts/SnipeFinanceMultisenders.sol\":3272:3289  recipients.length */\n      mload\n        /* \"contracts/SnipeFinanceMultisenders.sol\":3272:3306  recipients.length == values.length */\n      eq\n        /* \"contracts/SnipeFinanceMultisenders.sol\":3264:3324  require(recipients.length == values.length, \"invalid input\") */\n      tag_158\n      jumpi\n      mload(0x40)\n      0x08c379a000000000000000000000000000000000000000000000000000000000\n      dup2\n      mstore\n      0x04\n      add\n      tag_159\n      swap1\n      tag_160\n      jump\t// in\n    tag_159:\n      mload(0x40)\n      dup1\n      swap2\n      sub\n      swap1\n      revert\n    tag_158:\n        /* \"contracts/SnipeFinanceMultisenders.sol\":3578:3593  authorizedusers */\n      0x03\n        /* \"contracts/SnipeFinanceMultisenders.sol\":3578:3605  authorizedusers[msg.sender] */\n      0x00\n        /* \"contracts/SnipeFinanceMultisenders.sol\":3594:3604  msg.sender */\n      caller\n        /* \"contracts/SnipeFinanceMultisenders.sol\":3578:3605  authorizedusers[msg.sender] */\n      0xffffffffffffffffffffffffffffffffffffffff\n      and\n      0xffffffffffffffffffffffffffffffffffffffff\n      and\n      dup2\n      mstore\n      0x20\n      add\n      swap1\n      dup2\n      mstore\n      0x20\n      add\n      0x00\n      keccak256\n      0x00\n      swap1\n      sload\n      swap1\n      0x0100\n      exp\n      swap1\n      div\n      0xff\n      and\n        /* \"contracts/SnipeFinanceMultisenders.sol\":3574:5089  if (authorizedusers[msg.sender]) {... */\n      iszero\n      tag_161\n      jumpi\n        /* \"contracts/SnipeFinanceMultisenders.sol\":3627:3636  uint256 i */\n      0x00\n        /* \"contracts/SnipeFinanceMultisenders.sol\":3622:3852  for (uint256 i = 0; i < values.length; i++) {... */\n    tag_162:\n        /* \"contracts/SnipeFinanceMultisenders.sol\":3646:3652  values */\n      dup2\n        /* \"contracts/SnipeFinanceMultisenders.sol\":3646:3659  values.length */\n      mload\n        /* \"contracts/SnipeFinanceMultisenders.sol\":3642:3643  i */\n      dup2\n        /* \"contracts/SnipeFinanceMultisenders.sol\":3642:3659  i < values.length */\n      lt\n        /* \"contracts/SnipeFinanceMultisenders.sol\":3622:3852  for (uint256 i = 0; i < values.length; i++) {... */\n      iszero\n      tag_163\n      jumpi\n        /* \"contracts/SnipeFinanceMultisenders.sol\":3715:3720  token */\n      dup4\n        /* \"contracts/SnipeFinanceMultisenders.sol\":3715:3733  token.transferFrom */\n      0xffffffffffffffffffffffffffffffffffffffff\n      and\n      0x23b872dd\n        /* \"contracts/SnipeFinanceMultisenders.sol\":3734:3744  msg.sender */\n      caller\n        /* \"contracts/SnipeFinanceMultisenders.sol\":3746:3756  recipients */\n      dup6\n        /* \"contracts/SnipeFinanceMultisenders.sol\":3757:3758  i */\n      dup5\n        /* \"contracts/SnipeFinanceMultisenders.sol\":3746:3759  recipients[i] */\n      dup2\n      mload\n      dup2\n      lt\n      tag_165\n      jumpi\n      tag_166\n      tag_167\n      jump\t// in\n    tag_166:\n    tag_165:\n      0x20\n      mul\n      0x20\n      add\n      add\n      mload\n        /* \"contracts/SnipeFinanceMultisenders.sol\":3761:3767  values */\n      dup6\n        /* \"contracts/SnipeFinanceMultisenders.sol\":3768:3769  i */\n      dup6\n        /* \"contracts/SnipeFinanceMultisenders.sol\":3761:3770  values[i] */\n      dup2\n      mload\n      dup2\n      lt\n      tag_168\n      jumpi\n      tag_169\n      tag_167\n      jump\t// in\n    tag_169:\n    tag_168:\n      0x20\n      mul\n      0x20\n      add\n      add\n      mload\n        /* \"contracts/SnipeFinanceMultisenders.sol\":3715:3771  token.transferFrom(msg.sender, recipients[i], values[i]) */\n      mload(0x40)\n      dup5\n      0xffffffff\n      and\n      0xe0\n      shl\n      dup2\n      mstore\n      0x04\n      add\n      tag_170\n      swap4\n      swap3\n      swap2\n      swap1\n      tag_171\n      jump\t// in\n    tag_170:\n      0x20\n      mload(0x40)\n      dup1\n      dup4\n      sub\n      dup2\n      0x00\n      dup8\n      gas\n      call\n      iszero\n      dup1\n      iszero\n      tag_173\n      jumpi\n      returndatasize\n      0x00\n      dup1\n      returndatacopy\n      revert(0x00, returndatasize)\n    tag_173:\n      pop\n      pop\n      pop\n      pop\n      mload(0x40)\n      returndatasize\n      not(0x1f)\n      0x1f\n      dup3\n      add\n      and\n      dup3\n      add\n      dup1\n      0x40\n      mstore\n      pop\n      dup2\n      add\n      swap1\n      tag_174\n      swap2\n      swap1\n      tag_175\n      jump\t// in\n    tag_174:\n        /* \"contracts/SnipeFinanceMultisenders.sol\":3685:3836  require(... */\n      tag_176\n      jumpi\n      mload(0x40)\n      0x08c379a000000000000000000000000000000000000000000000000000000000\n      dup2\n      mstore\n      0x04\n      add\n      tag_177\n      swap1\n      tag_178\n      jump\t// in\n    tag_177:\n      mload(0x40)\n      dup1\n      swap2\n      sub\n      swap1\n      revert\n    tag_176:\n        /* \"contracts/SnipeFinanceMultisenders.sol\":3661:3664  i++ */\n      dup1\n      dup1\n      tag_179\n      swap1\n      tag_180\n      jump\t// in\n    tag_179:\n      swap2\n      pop\n      pop\n        /* \"contracts/SnipeFinanceMultisenders.sol\":3622:3852  for (uint256 i = 0; i < values.length; i++) {... */\n      jump(tag_162)\n    tag_163:\n      pop\n        /* \"contracts/SnipeFinanceMultisenders.sol\":3574:5089  if (authorizedusers[msg.sender]) {... */\n      jump(tag_181)\n    tag_161:\n        /* \"contracts/SnipeFinanceMultisenders.sol\":3874:3889  authorizedusers */\n      0x03\n        /* \"contracts/SnipeFinanceMultisenders.sol\":3874:3901  authorizedusers[msg.sender] */\n      0x00\n        /* \"contracts/SnipeFinanceMultisenders.sol\":3890:3900  msg.sender */\n      caller\n        /* \"contracts/SnipeFinanceMultisenders.sol\":3874:3901  authorizedusers[msg.sender] */\n      0xffffffffffffffffffffffffffffffffffffffff\n      and\n      0xffffffffffffffffffffffffffffffffffffffff\n      and\n      dup2\n      mstore\n      0x20\n      add\n      swap1\n      dup2\n      mstore\n      0x20\n      add\n      0x00\n      keccak256\n      0x00\n      swap1\n      sload\n      swap1\n      0x0100\n      exp\n      swap1\n      div\n      0xff\n      and\n        /* \"contracts/SnipeFinanceMultisenders.sol\":3869:5089  if (!authorizedusers[msg.sender]) {... */\n      tag_182\n      jumpi\n        /* \"contracts/SnipeFinanceMultisenders.sol\":3960:3968  quantity */\n      sload(0x05)\n        /* \"contracts/SnipeFinanceMultisenders.sol\":3922:3934  tokenAddress */\n      0x04\n      0x00\n      swap1\n      sload\n      swap1\n      0x0100\n      exp\n      swap1\n      div\n      0xffffffffffffffffffffffffffffffffffffffff\n      and\n        /* \"contracts/SnipeFinanceMultisenders.sol\":3922:3944  tokenAddress.balanceOf */\n      0xffffffffffffffffffffffffffffffffffffffff\n      and\n      0x70a08231\n        /* \"contracts/SnipeFinanceMultisenders.sol\":3945:3955  msg.sender */\n      caller\n        /* \"contracts/SnipeFinanceMultisenders.sol\":3922:3956  tokenAddress.balanceOf(msg.sender) */\n      mload(0x40)\n      dup3\n      0xffffffff\n      and\n      0xe0\n      shl\n      dup2\n      mstore\n      0x04\n      add\n      tag_183\n      swap2\n      swap1\n      tag_73\n      jump\t// in\n    tag_183:\n      0x20\n      mload(0x40)\n      dup1\n      dup4\n      sub\n      dup2\n      dup7\n      gas\n      staticcall\n      iszero\n      dup1\n      iszero\n      tag_185\n      jumpi\n      returndatasize\n      0x00\n      dup1\n      returndatacopy\n      revert(0x00, returndatasize)\n    tag_185:\n      pop\n      pop\n      pop\n      pop\n      mload(0x40)\n      returndatasize\n      not(0x1f)\n      0x1f\n      dup3\n      add\n      and\n      dup3\n      add\n      dup1\n      0x40\n      mstore\n      pop\n      dup2\n      add\n      swap1\n      tag_186\n      swap2\n      swap1\n      tag_126\n      jump\t// in\n    tag_186:\n        /* \"contracts/SnipeFinanceMultisenders.sol\":3922:3968  tokenAddress.balanceOf(msg.sender) >= quantity */\n      lt\n        /* \"contracts/SnipeFinanceMultisenders.sol\":3918:5078  if (tokenAddress.balanceOf(msg.sender) >= quantity) {... */\n      tag_187\n      jumpi\n        /* \"contracts/SnipeFinanceMultisenders.sol\":4019:4023  true */\n      0x01\n        /* \"contracts/SnipeFinanceMultisenders.sol\":3989:4004  authorizedusers */\n      0x03\n        /* \"contracts/SnipeFinanceMultisenders.sol\":3989:4016  authorizedusers[msg.sender] */\n      0x00\n        /* \"contracts/SnipeFinanceMultisenders.sol\":4005:4015  msg.sender */\n      caller\n        /* \"contracts/SnipeFinanceMultisenders.sol\":3989:4016  authorizedusers[msg.sender] */\n      0xffffffffffffffffffffffffffffffffffffffff\n      and\n      0xffffffffffffffffffffffffffffffffffffffff\n      and\n      dup2\n      mstore\n      0x20\n      add\n      swap1\n      dup2\n      mstore\n      0x20\n      add\n      0x00\n      keccak256\n      0x00\n        /* \"contracts/SnipeFinanceMultisenders.sol\":3989:4023  authorizedusers[msg.sender] = true */\n      0x0100\n      exp\n      dup2\n      sload\n      dup2\n      0xff\n      mul\n      not\n      and\n      swap1\n      dup4\n      iszero\n      iszero\n      mul\n      or\n      swap1\n      sstore\n      pop\n        /* \"contracts/SnipeFinanceMultisenders.sol\":4047:4056  uint256 i */\n      0x00\n        /* \"contracts/SnipeFinanceMultisenders.sol\":4042:4406  for (uint256 i = 0; i < values.length; i++) {... */\n    tag_188:\n        /* \"contracts/SnipeFinanceMultisenders.sol\":4066:4072  values */\n      dup2\n        /* \"contracts/SnipeFinanceMultisenders.sol\":4066:4079  values.length */\n      mload\n        /* \"contracts/SnipeFinanceMultisenders.sol\":4062:4063  i */\n      dup2\n        /* \"contracts/SnipeFinanceMultisenders.sol\":4062:4079  i < values.length */\n      lt\n        /* \"contracts/SnipeFinanceMultisenders.sol\":4042:4406  for (uint256 i = 0; i < values.length; i++) {... */\n      iszero\n      tag_189\n      jumpi\n        /* \"contracts/SnipeFinanceMultisenders.sol\":4143:4148  token */\n      dup4\n        /* \"contracts/SnipeFinanceMultisenders.sol\":4143:4161  token.transferFrom */\n      0xffffffffffffffffffffffffffffffffffffffff\n      and\n      0x23b872dd\n        /* \"contracts/SnipeFinanceMultisenders.sol\":4192:4202  msg.sender */\n      caller\n        /* \"contracts/SnipeFinanceMultisenders.sol\":4233:4243  recipients */\n      dup6\n        /* \"contracts/SnipeFinanceMultisenders.sol\":4244:4245  i */\n      dup5\n        /* \"contracts/SnipeFinanceMultisenders.sol\":4233:4246  recipients[i] */\n      dup2\n      mload\n      dup2\n      lt\n      tag_191\n      jumpi\n      tag_192\n      tag_167\n      jump\t// in\n    tag_192:\n    tag_191:\n      0x20\n      mul\n      0x20\n      add\n      add\n      mload\n        /* \"contracts/SnipeFinanceMultisenders.sol\":4277:4283  values */\n      dup6\n        /* \"contracts/SnipeFinanceMultisenders.sol\":4284:4285  i */\n      dup6\n        /* \"contracts/SnipeFinanceMultisenders.sol\":4277:4286  values[i] */\n      dup2\n      mload\n      dup2\n      lt\n      tag_193\n      jumpi\n      tag_194\n      tag_167\n      jump\t// in\n    tag_194:\n    tag_193:\n      0x20\n      mul\n      0x20\n      add\n      add\n      mload\n        /* \"contracts/SnipeFinanceMultisenders.sol\":4143:4313  token.transferFrom(... */\n      mload(0x40)\n      dup5\n      0xffffffff\n      and\n      0xe0\n      shl\n      dup2\n      mstore\n      0x04\n      add\n      tag_195\n      swap4\n      swap3\n      swap2\n      swap1\n      tag_171\n      jump\t// in\n    tag_195:\n      0x20\n      mload(0x40)\n      dup1\n      dup4\n      sub\n      dup2\n      0x00\n      dup8\n      gas\n      call\n      iszero\n      dup1\n      iszero\n      tag_197\n      jumpi\n      returndatasize\n      0x00\n      dup1\n      returndatacopy\n      revert(0x00, returndatasize)\n    tag_197:\n      pop\n      pop\n      pop\n      pop\n      mload(0x40)\n      returndatasize\n      not(0x1f)\n      0x1f\n      dup3\n      add\n      and\n      dup3\n      add\n      dup1\n      0x40\n      mstore\n      pop\n      dup2\n      add\n      swap1\n      tag_198\n      swap2\n      swap1\n      tag_175\n      jump\t// in\n    tag_198:\n        /* \"contracts/SnipeFinanceMultisenders.sol\":4109:4386  require(... */\n      tag_199\n      jumpi\n      mload(0x40)\n      0x08c379a000000000000000000000000000000000000000000000000000000000\n      dup2\n      mstore\n      0x04\n      add\n      tag_200\n      swap1\n      tag_178\n      jump\t// in\n    tag_200:\n      mload(0x40)\n      dup1\n      swap2\n      sub\n      swap1\n      revert\n    tag_199:\n        /* \"contracts/SnipeFinanceMultisenders.sol\":4081:4084  i++ */\n      dup1\n      dup1\n      tag_201\n      swap1\n      tag_180\n      jump\t// in\n    tag_201:\n      swap2\n      pop\n      pop\n        /* \"contracts/SnipeFinanceMultisenders.sol\":4042:4406  for (uint256 i = 0; i < values.length; i++) {... */\n      jump(tag_188)\n    tag_189:\n      pop\n        /* \"contracts/SnipeFinanceMultisenders.sol\":3918:5078  if (tokenAddress.balanceOf(msg.sender) >= quantity) {... */\n      jump(tag_202)\n    tag_187:\n        /* \"contracts/SnipeFinanceMultisenders.sol\":4468:4476  quantity */\n      sload(0x05)\n        /* \"contracts/SnipeFinanceMultisenders.sol\":4431:4443  tokenAddress */\n      0x04\n      0x00\n      swap1\n      sload\n      swap1\n      0x0100\n      exp\n      swap1\n      div\n      0xffffffffffffffffffffffffffffffffffffffff\n      and\n        /* \"contracts/SnipeFinanceMultisenders.sol\":4431:4453  tokenAddress.balanceOf */\n      0xffffffffffffffffffffffffffffffffffffffff\n      and\n      0x70a08231\n        /* \"contracts/SnipeFinanceMultisenders.sol\":4454:4464  msg.sender */\n      caller\n        /* \"contracts/SnipeFinanceMultisenders.sol\":4431:4465  tokenAddress.balanceOf(msg.sender) */\n      mload(0x40)\n      dup3\n      0xffffffff\n      and\n      0xe0\n      shl\n      dup2\n      mstore\n      0x04\n      add\n      tag_203\n      swap2\n      swap1\n      tag_73\n      jump\t// in\n    tag_203:\n      0x20\n      mload(0x40)\n      dup1\n      dup4\n      sub\n      dup2\n      dup7\n      gas\n      staticcall\n      iszero\n      dup1\n      iszero\n      tag_205\n      jumpi\n      returndatasize\n      0x00\n      dup1\n      returndatacopy\n      revert(0x00, returndatasize)\n    tag_205:\n      pop\n      pop\n      pop\n      pop\n      mload(0x40)\n      returndatasize\n      not(0x1f)\n      0x1f\n      dup3\n      add\n      and\n      dup3\n      add\n      dup1\n      0x40\n      mstore\n      pop\n      dup2\n      add\n      swap1\n      tag_206\n      swap2\n      swap1\n      tag_126\n      jump\t// in\n    tag_206:\n        /* \"contracts/SnipeFinanceMultisenders.sol\":4431:4476  tokenAddress.balanceOf(msg.sender) < quantity */\n      lt\n        /* \"contracts/SnipeFinanceMultisenders.sol\":4427:5078  if (tokenAddress.balanceOf(msg.sender) < quantity) {... */\n      iszero\n      tag_207\n      jumpi\n        /* \"contracts/SnipeFinanceMultisenders.sol\":4540:4543  fee */\n      sload(0x01)\n        /* \"contracts/SnipeFinanceMultisenders.sol\":4527:4536  msg.value */\n      callvalue\n        /* \"contracts/SnipeFinanceMultisenders.sol\":4527:4543  msg.value == fee */\n      eq\n        /* \"contracts/SnipeFinanceMultisenders.sol\":4497:4630  require(... */\n      tag_208\n      jumpi\n      mload(0x40)\n      0x08c379a000000000000000000000000000000000000000000000000000000000\n      dup2\n      mstore\n      0x04\n      add\n      tag_209\n      swap1\n      tag_210\n      jump\t// in\n    tag_209:\n      mload(0x40)\n      dup1\n      swap2\n      sub\n      swap1\n      revert\n    tag_208:\n        /* \"contracts/SnipeFinanceMultisenders.sol\":4657:4665  receiver */\n      0x02\n      0x00\n      swap1\n      sload\n      swap1\n      0x0100\n      exp\n      swap1\n      div\n      0xffffffffffffffffffffffffffffffffffffffff\n      and\n        /* \"contracts/SnipeFinanceMultisenders.sol\":4649:4675  payable(receiver).transfer */\n      0xffffffffffffffffffffffffffffffffffffffff\n      and\n        /* \"contracts/SnipeFinanceMultisenders.sol\":4649:4680  payable(receiver).transfer(fee) */\n      0x08fc\n        /* \"contracts/SnipeFinanceMultisenders.sol\":4676:4679  fee */\n      sload(0x01)\n        /* \"contracts/SnipeFinanceMultisenders.sol\":4649:4680  payable(receiver).transfer(fee) */\n      swap1\n      dup2\n      iszero\n      mul\n      swap1\n      mload(0x40)\n      0x00\n      mload(0x40)\n      dup1\n      dup4\n      sub\n      dup2\n      dup6\n      dup9\n      dup9\n      call\n      swap4\n      pop\n      pop\n      pop\n      pop\n      iszero\n      dup1\n      iszero\n      tag_212\n      jumpi\n      returndatasize\n      0x00\n      dup1\n      returndatacopy\n      revert(0x00, returndatasize)\n    tag_212:\n      pop\n        /* \"contracts/SnipeFinanceMultisenders.sol\":4704:4713  uint256 i */\n      0x00\n        /* \"contracts/SnipeFinanceMultisenders.sol\":4699:5063  for (uint256 i = 0; i < values.length; i++) {... */\n    tag_213:\n        /* \"contracts/SnipeFinanceMultisenders.sol\":4723:4729  values */\n      dup2\n        /* \"contracts/SnipeFinanceMultisenders.sol\":4723:4736  values.length */\n      mload\n        /* \"contracts/SnipeFinanceMultisenders.sol\":4719:4720  i */\n      dup2\n        /* \"contracts/SnipeFinanceMultisenders.sol\":4719:4736  i < values.length */\n      lt\n        /* \"contracts/SnipeFinanceMultisenders.sol\":4699:5063  for (uint256 i = 0; i < values.length; i++) {... */\n      iszero\n      tag_214\n      jumpi\n        /* \"contracts/SnipeFinanceMultisenders.sol\":4800:4805  token */\n      dup4\n        /* \"contracts/SnipeFinanceMultisenders.sol\":4800:4818  token.transferFrom */\n      0xffffffffffffffffffffffffffffffffffffffff\n      and\n      0x23b872dd\n        /* \"contracts/SnipeFinanceMultisenders.sol\":4849:4859  msg.sender */\n      caller\n        /* \"contracts/SnipeFinanceMultisenders.sol\":4890:4900  recipients */\n      dup6\n        /* \"contracts/SnipeFinanceMultisenders.sol\":4901:4902  i */\n      dup5\n        /* \"contracts/SnipeFinanceMultisenders.sol\":4890:4903  recipients[i] */\n      dup2\n      mload\n      dup2\n      lt\n      tag_216\n      jumpi\n      tag_217\n      tag_167\n      jump\t// in\n    tag_217:\n    tag_216:\n      0x20\n      mul\n      0x20\n      add\n      add\n      mload\n        /* \"contracts/SnipeFinanceMultisenders.sol\":4934:4940  values */\n      dup6\n        /* \"contracts/SnipeFinanceMultisenders.sol\":4941:4942  i */\n      dup6\n        /* \"contracts/SnipeFinanceMultisenders.sol\":4934:4943  values[i] */\n      dup2\n      mload\n      dup2\n      lt\n      tag_218\n      jumpi\n      tag_219\n      tag_167\n      jump\t// in\n    tag_219:\n    tag_218:\n      0x20\n      mul\n      0x20\n      add\n      add\n      mload\n        /* \"contracts/SnipeFinanceMultisenders.sol\":4800:4970  token.transferFrom(... */\n      mload(0x40)\n      dup5\n      0xffffffff\n      and\n      0xe0\n      shl\n      dup2\n      mstore\n      0x04\n      add\n      tag_220\n      swap4\n      swap3\n      swap2\n      swap1\n      tag_171\n      jump\t// in\n    tag_220:\n      0x20\n      mload(0x40)\n      dup1\n      dup4\n      sub\n      dup2\n      0x00\n      dup8\n      gas\n      call\n      iszero\n      dup1\n      iszero\n      tag_222\n      jumpi\n      returndatasize\n      0x00\n      dup1\n      returndatacopy\n      revert(0x00, returndatasize)\n    tag_222:\n      pop\n      pop\n      pop\n      pop\n      mload(0x40)\n      returndatasize\n      not(0x1f)\n      0x1f\n      dup3\n      add\n      and\n      dup3\n      add\n      dup1\n      0x40\n      mstore\n      pop\n      dup2\n      add\n      swap1\n      tag_223\n      swap2\n      swap1\n      tag_175\n      jump\t// in\n    tag_223:\n        /* \"contracts/SnipeFinanceMultisenders.sol\":4766:5043  require(... */\n      tag_224\n      jumpi\n      mload(0x40)\n      0x08c379a000000000000000000000000000000000000000000000000000000000\n      dup2\n      mstore\n      0x04\n      add\n      tag_225\n      swap1\n      tag_178\n      jump\t// in\n    tag_225:\n      mload(0x40)\n      dup1\n      swap2\n      sub\n      swap1\n      revert\n    tag_224:\n        /* \"contracts/SnipeFinanceMultisenders.sol\":4738:4741  i++ */\n      dup1\n      dup1\n      tag_226\n      swap1\n      tag_180\n      jump\t// in\n    tag_226:\n      swap2\n      pop\n      pop\n        /* \"contracts/SnipeFinanceMultisenders.sol\":4699:5063  for (uint256 i = 0; i < values.length; i++) {... */\n      jump(tag_213)\n    tag_214:\n      pop\n        /* \"contracts/SnipeFinanceMultisenders.sol\":4427:5078  if (tokenAddress.balanceOf(msg.sender) < quantity) {... */\n    tag_207:\n        /* \"contracts/SnipeFinanceMultisenders.sol\":3918:5078  if (tokenAddress.balanceOf(msg.sender) >= quantity) {... */\n    tag_202:\n        /* \"contracts/SnipeFinanceMultisenders.sol\":3869:5089  if (!authorizedusers[msg.sender]) {... */\n    tag_182:\n        /* \"contracts/SnipeFinanceMultisenders.sol\":3574:5089  if (authorizedusers[msg.sender]) {... */\n    tag_181:\n        /* \"contracts/SnipeFinanceMultisenders.sol\":2931:5096  function TOKENmultisender(//ICustomERC20 REPLACED WITH ERC20... */\n      pop\n      pop\n      pop\n      jump\t// out\n        /* \"contracts/SnipeFinanceMultisenders.sol\":716:742  IERC20 public tokenAddress */\n    tag_80:\n      0x04\n      0x00\n      swap1\n      sload\n      swap1\n      0x0100\n      exp\n      swap1\n      div\n      0xffffffffffffffffffffffffffffffffffffffff\n      and\n      dup2\n      jump\t// out\n        /* \"contracts/SnipeFinanceMultisenders.sol\":6674:6934  function withdrawToken(IERC20 token, uint256 amount) public onlyOwner {... */\n    tag_86:\n        /* \"@openzeppelin/contracts/access/Ownable.sol\":1094:1107  _checkOwner() */\n      tag_228\n        /* \"@openzeppelin/contracts/access/Ownable.sol\":1094:1105  _checkOwner */\n      tag_116\n        /* \"@openzeppelin/contracts/access/Ownable.sol\":1094:1107  _checkOwner() */\n      jump\t// in\n    tag_228:\n        /* \"contracts/SnipeFinanceMultisenders.sol\":6811:6817  amount */\n      dup1\n        /* \"contracts/SnipeFinanceMultisenders.sol\":6777:6782  token */\n      dup3\n        /* \"contracts/SnipeFinanceMultisenders.sol\":6777:6792  token.balanceOf */\n      0xffffffffffffffffffffffffffffffffffffffff\n      and\n      0x70a08231\n        /* \"contracts/SnipeFinanceMultisenders.sol\":6801:6805  this */\n      address\n        /* \"contracts/SnipeFinanceMultisenders.sol\":6777:6807  token.balanceOf(address(this)) */\n      mload(0x40)\n      dup3\n      0xffffffff\n      and\n      0xe0\n      shl\n      dup2\n      mstore\n      0x04\n      add\n      tag_230\n      swap2\n      swap1\n      tag_73\n      jump\t// in\n    tag_230:\n      0x20\n      mload(0x40)\n      dup1\n      dup4\n      sub\n      dup2\n      dup7\n      gas\n      staticcall\n      iszero\n      dup1\n      iszero\n      tag_232\n      jumpi\n      returndatasize\n      0x00\n      dup1\n      returndatacopy\n      revert(0x00, returndatasize)\n    tag_232:\n      pop\n      pop\n      pop\n      pop\n      mload(0x40)\n      returndatasize\n      not(0x1f)\n      0x1f\n      dup3\n      add\n      and\n      dup3\n      add\n      dup1\n      0x40\n      mstore\n      pop\n      dup2\n      add\n      swap1\n      tag_233\n      swap2\n      swap1\n      tag_126\n      jump\t// in\n    tag_233:\n        /* \"contracts/SnipeFinanceMultisenders.sol\":6777:6817  token.balanceOf(address(this)) >= amount */\n      lt\n      iszero\n        /* \"contracts/SnipeFinanceMultisenders.sol\":6755:6881  require(... */\n      tag_234\n      jumpi\n      mload(0x40)\n      0x08c379a000000000000000000000000000000000000000000000000000000000\n      dup2\n      mstore\n      0x04\n      add\n      tag_235\n      swap1\n      tag_236\n      jump\t// in\n    tag_235:\n      mload(0x40)\n      dup1\n      swap2\n      sub\n      swap1\n      revert\n    tag_234:\n        /* \"contracts/SnipeFinanceMultisenders.sol\":6892:6897  token */\n      dup2\n        /* \"contracts/SnipeFinanceMultisenders.sol\":6892:6906  token.transfer */\n      0xffffffffffffffffffffffffffffffffffffffff\n      and\n      0xa9059cbb\n        /* \"contracts/SnipeFinanceMultisenders.sol\":6907:6917  msg.sender */\n      caller\n        /* \"contracts/SnipeFinanceMultisenders.sol\":6919:6925  amount */\n      dup4\n        /* \"contracts/SnipeFinanceMultisenders.sol\":6892:6926  token.transfer(msg.sender, amount) */\n      mload(0x40)\n      dup4\n      0xffffffff\n      and\n      0xe0\n      shl\n      dup2\n      mstore\n      0x04\n      add\n      tag_237\n      swap3\n      swap2\n      swap1\n      tag_238\n      jump\t// in\n    tag_237:\n      0x20\n      mload(0x40)\n      dup1\n      dup4\n      sub\n      dup2\n      0x00\n      dup8\n      gas\n      call\n      iszero\n      dup1\n      iszero\n      tag_240\n      jumpi\n      returndatasize\n      0x00\n      dup1\n      returndatacopy\n      revert(0x00, returndatasize)\n    tag_240:\n      pop\n      pop\n      pop\n      pop\n      mload(0x40)\n      returndatasize\n      not(0x1f)\n      0x1f\n      dup3\n      add\n      and\n      dup3\n      add\n      dup1\n      0x40\n      mstore\n      pop\n      dup2\n      add\n      swap1\n      tag_241\n      swap2\n      swap1\n      tag_175\n      jump\t// in\n    tag_241:\n      pop\n        /* \"contracts/SnipeFinanceMultisenders.sol\":6674:6934  function withdrawToken(IERC20 token, uint256 amount) public onlyOwner {... */\n      pop\n      pop\n      jump\t// out\n        /* \"contracts/SnipeFinanceMultisenders.sol\":5864:5981  function readAuthorizedUsers(address user) external view returns(bool){... */\n    tag_90:\n        /* \"contracts/SnipeFinanceMultisenders.sol\":5929:5933  bool */\n      0x00\n        /* \"contracts/SnipeFinanceMultisenders.sol\":5952:5967  authorizedusers */\n      0x03\n        /* \"contracts/SnipeFinanceMultisenders.sol\":5952:5973  authorizedusers[user] */\n      0x00\n        /* \"contracts/SnipeFinanceMultisenders.sol\":5968:5972  user */\n      dup4\n        /* \"contracts/SnipeFinanceMultisenders.sol\":5952:5973  authorizedusers[user] */\n      0xffffffffffffffffffffffffffffffffffffffff\n      and\n      0xffffffffffffffffffffffffffffffffffffffff\n      and\n      dup2\n      mstore\n      0x20\n      add\n      swap1\n      dup2\n      mstore\n      0x20\n      add\n      0x00\n      keccak256\n      0x00\n      swap1\n      sload\n      swap1\n      0x0100\n      exp\n      swap1\n      div\n      0xff\n      and\n        /* \"contracts/SnipeFinanceMultisenders.sol\":5945:5973  return authorizedusers[user] */\n      swap1\n      pop\n        /* \"contracts/SnipeFinanceMultisenders.sol\":5864:5981  function readAuthorizedUsers(address user) external view returns(bool){... */\n      swap2\n      swap1\n      pop\n      jump\t// out\n        /* \"contracts/SnipeFinanceMultisenders.sol\":1210:2923  function coinMultisender(... */\n    tag_95:\n        /* \"contracts/SnipeFinanceMultisenders.sol\":1154:1155  0 */\n      0x00\n        /* \"contracts/SnipeFinanceMultisenders.sol\":1121:1156  address(tokenAddress) != address(0) */\n      0xffffffffffffffffffffffffffffffffffffffff\n      and\n        /* \"contracts/SnipeFinanceMultisenders.sol\":1129:1141  tokenAddress */\n      0x04\n      0x00\n      swap1\n      sload\n      swap1\n      0x0100\n      exp\n      swap1\n      div\n      0xffffffffffffffffffffffffffffffffffffffff\n      and\n        /* \"contracts/SnipeFinanceMultisenders.sol\":1121:1156  address(tokenAddress) != address(0) */\n      0xffffffffffffffffffffffffffffffffffffffff\n      and\n      sub\n        /* \"contracts/SnipeFinanceMultisenders.sol\":1113:1182  require(address(tokenAddress) != address(0), \"token holding invalid\") */\n      tag_244\n      jumpi\n      mload(0x40)\n      0x08c379a000000000000000000000000000000000000000000000000000000000\n      dup2\n      mstore\n      0x04\n      add\n      tag_245\n      swap1\n      tag_151\n      jump\t// in\n    tag_245:\n      mload(0x40)\n      dup1\n      swap2\n      sub\n      swap1\n      revert\n    tag_244:\n        /* \"contracts/SnipeFinanceMultisenders.sol\":1410:1416  values */\n      dup1\n        /* \"contracts/SnipeFinanceMultisenders.sol\":1410:1423  values.length */\n      mload\n        /* \"contracts/SnipeFinanceMultisenders.sol\":1389:1399  recipients */\n      dup3\n        /* \"contracts/SnipeFinanceMultisenders.sol\":1389:1406  recipients.length */\n      mload\n        /* \"contracts/SnipeFinanceMultisenders.sol\":1389:1423  recipients.length == values.length */\n      eq\n        /* \"contracts/SnipeFinanceMultisenders.sol\":1381:1441  require(recipients.length == values.length, \"invalid input\") */\n      tag_247\n      jumpi\n      mload(0x40)\n      0x08c379a000000000000000000000000000000000000000000000000000000000\n      dup2\n      mstore\n      0x04\n      add\n      tag_248\n      swap1\n      tag_160\n      jump\t// in\n    tag_248:\n      mload(0x40)\n      dup1\n      swap2\n      sub\n      swap1\n      revert\n    tag_247:\n        /* \"contracts/SnipeFinanceMultisenders.sol\":1452:1471  uint256 totalValues */\n      0x00\n        /* \"contracts/SnipeFinanceMultisenders.sol\":1487:1496  uint256 i */\n      dup1\n        /* \"contracts/SnipeFinanceMultisenders.sol\":1482:1573  for (uint256 i; i < values.length; i++) {... */\n    tag_249:\n        /* \"contracts/SnipeFinanceMultisenders.sol\":1502:1508  values */\n      dup3\n        /* \"contracts/SnipeFinanceMultisenders.sol\":1502:1515  values.length */\n      mload\n        /* \"contracts/SnipeFinanceMultisenders.sol\":1498:1499  i */\n      dup2\n        /* \"contracts/SnipeFinanceMultisenders.sol\":1498:1515  i < values.length */\n      lt\n        /* \"contracts/SnipeFinanceMultisenders.sol\":1482:1573  for (uint256 i; i < values.length; i++) {... */\n      iszero\n      tag_250\n      jumpi\n        /* \"contracts/SnipeFinanceMultisenders.sol\":1552:1558  values */\n      dup3\n        /* \"contracts/SnipeFinanceMultisenders.sol\":1559:1560  i */\n      dup2\n        /* \"contracts/SnipeFinanceMultisenders.sol\":1552:1561  values[i] */\n      dup2\n      mload\n      dup2\n      lt\n      tag_252\n      jumpi\n      tag_253\n      tag_167\n      jump\t// in\n    tag_253:\n    tag_252:\n      0x20\n      mul\n      0x20\n      add\n      add\n      mload\n        /* \"contracts/SnipeFinanceMultisenders.sol\":1537:1561  totalValues += values[i] */\n      dup3\n      tag_254\n      swap2\n      swap1\n      tag_255\n      jump\t// in\n    tag_254:\n      swap2\n      pop\n        /* \"contracts/SnipeFinanceMultisenders.sol\":1517:1520  i++ */\n      dup1\n      dup1\n      tag_256\n      swap1\n      tag_180\n      jump\t// in\n    tag_256:\n      swap2\n      pop\n      pop\n        /* \"contracts/SnipeFinanceMultisenders.sol\":1482:1573  for (uint256 i; i < values.length; i++) {... */\n      jump(tag_249)\n    tag_250:\n      pop\n        /* \"contracts/SnipeFinanceMultisenders.sol\":1589:1604  authorizedusers */\n      0x03\n        /* \"contracts/SnipeFinanceMultisenders.sol\":1589:1616  authorizedusers[msg.sender] */\n      0x00\n        /* \"contracts/SnipeFinanceMultisenders.sol\":1605:1615  msg.sender */\n      caller\n        /* \"contracts/SnipeFinanceMultisenders.sol\":1589:1616  authorizedusers[msg.sender] */\n      0xffffffffffffffffffffffffffffffffffffffff\n      and\n      0xffffffffffffffffffffffffffffffffffffffff\n      and\n      dup2\n      mstore\n      0x20\n      add\n      swap1\n      dup2\n      mstore\n      0x20\n      add\n      0x00\n      keccak256\n      0x00\n      swap1\n      sload\n      swap1\n      0x0100\n      exp\n      swap1\n      div\n      0xff\n      and\n        /* \"contracts/SnipeFinanceMultisenders.sol\":1585:2916  if (authorizedusers[msg.sender]) {... */\n      iszero\n      tag_257\n      jumpi\n        /* \"contracts/SnipeFinanceMultisenders.sol\":1672:1683  totalValues */\n      dup1\n        /* \"contracts/SnipeFinanceMultisenders.sol\":1659:1668  msg.value */\n      callvalue\n        /* \"contracts/SnipeFinanceMultisenders.sol\":1659:1683  msg.value == totalValues */\n      eq\n        /* \"contracts/SnipeFinanceMultisenders.sol\":1633:1761  require(... */\n      tag_258\n      jumpi\n      mload(0x40)\n      0x08c379a000000000000000000000000000000000000000000000000000000000\n      dup2\n      mstore\n      0x04\n      add\n      tag_259\n      swap1\n      tag_260\n      jump\t// in\n    tag_259:\n      mload(0x40)\n      dup1\n      swap2\n      sub\n      swap1\n      revert\n    tag_258:\n        /* \"contracts/SnipeFinanceMultisenders.sol\":1781:1790  uint256 i */\n      0x00\n        /* \"contracts/SnipeFinanceMultisenders.sol\":1776:1901  for (uint256 i = 0; i < recipients.length; i++) {... */\n    tag_261:\n        /* \"contracts/SnipeFinanceMultisenders.sol\":1800:1810  recipients */\n      dup4\n        /* \"contracts/SnipeFinanceMultisenders.sol\":1800:1817  recipients.length */\n      mload\n        /* \"contracts/SnipeFinanceMultisenders.sol\":1796:1797  i */\n      dup2\n        /* \"contracts/SnipeFinanceMultisenders.sol\":1796:1817  i < recipients.length */\n      lt\n        /* \"contracts/SnipeFinanceMultisenders.sol\":1776:1901  for (uint256 i = 0; i < recipients.length; i++) {... */\n      iszero\n      tag_262\n      jumpi\n        /* \"contracts/SnipeFinanceMultisenders.sol\":1851:1861  recipients */\n      dup4\n        /* \"contracts/SnipeFinanceMultisenders.sol\":1862:1863  i */\n      dup2\n        /* \"contracts/SnipeFinanceMultisenders.sol\":1851:1864  recipients[i] */\n      dup2\n      mload\n      dup2\n      lt\n      tag_264\n      jumpi\n      tag_265\n      tag_167\n      jump\t// in\n    tag_265:\n    tag_264:\n      0x20\n      mul\n      0x20\n      add\n      add\n      mload\n        /* \"contracts/SnipeFinanceMultisenders.sol\":1843:1874  payable(recipients[i]).transfer */\n      0xffffffffffffffffffffffffffffffffffffffff\n      and\n        /* \"contracts/SnipeFinanceMultisenders.sol\":1843:1885  payable(recipients[i]).transfer(values[i]) */\n      0x08fc\n        /* \"contracts/SnipeFinanceMultisenders.sol\":1875:1881  values */\n      dup5\n        /* \"contracts/SnipeFinanceMultisenders.sol\":1882:1883  i */\n      dup4\n        /* \"contracts/SnipeFinanceMultisenders.sol\":1875:1884  values[i] */\n      dup2\n      mload\n      dup2\n      lt\n      tag_266\n      jumpi\n      tag_267\n      tag_167\n      jump\t// in\n    tag_267:\n    tag_266:\n      0x20\n      mul\n      0x20\n      add\n      add\n      mload\n        /* \"contracts/SnipeFinanceMultisenders.sol\":1843:1885  payable(recipients[i]).transfer(values[i]) */\n      swap1\n      dup2\n      iszero\n      mul\n      swap1\n      mload(0x40)\n      0x00\n      mload(0x40)\n      dup1\n      dup4\n      sub\n      dup2\n      dup6\n      dup9\n      dup9\n      call\n      swap4\n      pop\n      pop\n      pop\n      pop\n      iszero\n      dup1\n      iszero\n      tag_269\n      jumpi\n      returndatasize\n      0x00\n      dup1\n      returndatacopy\n      revert(0x00, returndatasize)\n    tag_269:\n      pop\n        /* \"contracts/SnipeFinanceMultisenders.sol\":1819:1822  i++ */\n      dup1\n      dup1\n      tag_270\n      swap1\n      tag_180\n      jump\t// in\n    tag_270:\n      swap2\n      pop\n      pop\n        /* \"contracts/SnipeFinanceMultisenders.sol\":1776:1901  for (uint256 i = 0; i < recipients.length; i++) {... */\n      jump(tag_261)\n    tag_262:\n      pop\n        /* \"contracts/SnipeFinanceMultisenders.sol\":1585:2916  if (authorizedusers[msg.sender]) {... */\n      jump(tag_271)\n    tag_257:\n        /* \"contracts/SnipeFinanceMultisenders.sol\":1923:1938  authorizedusers */\n      0x03\n        /* \"contracts/SnipeFinanceMultisenders.sol\":1923:1950  authorizedusers[msg.sender] */\n      0x00\n        /* \"contracts/SnipeFinanceMultisenders.sol\":1939:1949  msg.sender */\n      caller\n        /* \"contracts/SnipeFinanceMultisenders.sol\":1923:1950  authorizedusers[msg.sender] */\n      0xffffffffffffffffffffffffffffffffffffffff\n      and\n      0xffffffffffffffffffffffffffffffffffffffff\n      and\n      dup2\n      mstore\n      0x20\n      add\n      swap1\n      dup2\n      mstore\n      0x20\n      add\n      0x00\n      keccak256\n      0x00\n      swap1\n      sload\n      swap1\n      0x0100\n      exp\n      swap1\n      div\n      0xff\n      and\n        /* \"contracts/SnipeFinanceMultisenders.sol\":1918:2916  if (!authorizedusers[msg.sender]) {... */\n      tag_272\n      jumpi\n        /* \"contracts/SnipeFinanceMultisenders.sol\":2009:2017  quantity */\n      sload(0x05)\n        /* \"contracts/SnipeFinanceMultisenders.sol\":1971:1983  tokenAddress */\n      0x04\n      0x00\n      swap1\n      sload\n      swap1\n      0x0100\n      exp\n      swap1\n      div\n      0xffffffffffffffffffffffffffffffffffffffff\n      and\n        /* \"contracts/SnipeFinanceMultisenders.sol\":1971:1993  tokenAddress.balanceOf */\n      0xffffffffffffffffffffffffffffffffffffffff\n      and\n      0x70a08231\n        /* \"contracts/SnipeFinanceMultisenders.sol\":1994:2004  msg.sender */\n      caller\n        /* \"contracts/SnipeFinanceMultisenders.sol\":1971:2005  tokenAddress.balanceOf(msg.sender) */\n      mload(0x40)\n      dup3\n      0xffffffff\n      and\n      0xe0\n      shl\n      dup2\n      mstore\n      0x04\n      add\n      tag_273\n      swap2\n      swap1\n      tag_73\n      jump\t// in\n    tag_273:\n      0x20\n      mload(0x40)\n      dup1\n      dup4\n      sub\n      dup2\n      dup7\n      gas\n      staticcall\n      iszero\n      dup1\n      iszero\n      tag_275\n      jumpi\n      returndatasize\n      0x00\n      dup1\n      returndatacopy\n      revert(0x00, returndatasize)\n    tag_275:\n      pop\n      pop\n      pop\n      pop\n      mload(0x40)\n      returndatasize\n      not(0x1f)\n      0x1f\n      dup3\n      add\n      and\n      dup3\n      add\n      dup1\n      0x40\n      mstore\n      pop\n      dup2\n      add\n      swap1\n      tag_276\n      swap2\n      swap1\n      tag_126\n      jump\t// in\n    tag_276:\n        /* \"contracts/SnipeFinanceMultisenders.sol\":1971:2017  tokenAddress.balanceOf(msg.sender) >= quantity */\n      lt\n        /* \"contracts/SnipeFinanceMultisenders.sol\":1967:2905  if (tokenAddress.balanceOf(msg.sender) >= quantity) {... */\n      tag_277\n      jumpi\n        /* \"contracts/SnipeFinanceMultisenders.sol\":2068:2072  true */\n      0x01\n        /* \"contracts/SnipeFinanceMultisenders.sol\":2038:2053  authorizedusers */\n      0x03\n        /* \"contracts/SnipeFinanceMultisenders.sol\":2038:2065  authorizedusers[msg.sender] */\n      0x00\n        /* \"contracts/SnipeFinanceMultisenders.sol\":2054:2064  msg.sender */\n      caller\n        /* \"contracts/SnipeFinanceMultisenders.sol\":2038:2065  authorizedusers[msg.sender] */\n      0xffffffffffffffffffffffffffffffffffffffff\n      and\n      0xffffffffffffffffffffffffffffffffffffffff\n      and\n      dup2\n      mstore\n      0x20\n      add\n      swap1\n      dup2\n      mstore\n      0x20\n      add\n      0x00\n      keccak256\n      0x00\n        /* \"contracts/SnipeFinanceMultisenders.sol\":2038:2072  authorizedusers[msg.sender] = true */\n      0x0100\n      exp\n      dup2\n      sload\n      dup2\n      0xff\n      mul\n      not\n      and\n      swap1\n      dup4\n      iszero\n      iszero\n      mul\n      or\n      swap1\n      sstore\n      pop\n        /* \"contracts/SnipeFinanceMultisenders.sol\":2134:2145  totalValues */\n      dup1\n        /* \"contracts/SnipeFinanceMultisenders.sol\":2121:2130  msg.value */\n      callvalue\n        /* \"contracts/SnipeFinanceMultisenders.sol\":2121:2145  msg.value == totalValues */\n      eq\n        /* \"contracts/SnipeFinanceMultisenders.sol\":2091:2244  require(... */\n      tag_278\n      jumpi\n      mload(0x40)\n      0x08c379a000000000000000000000000000000000000000000000000000000000\n      dup2\n      mstore\n      0x04\n      add\n      tag_279\n      swap1\n      tag_280\n      jump\t// in\n    tag_279:\n      mload(0x40)\n      dup1\n      swap2\n      sub\n      swap1\n      revert\n    tag_278:\n        /* \"contracts/SnipeFinanceMultisenders.sol\":2268:2277  uint256 i */\n      0x00\n        /* \"contracts/SnipeFinanceMultisenders.sol\":2263:2396  for (uint256 i = 0; i < recipients.length; i++) {... */\n    tag_281:\n        /* \"contracts/SnipeFinanceMultisenders.sol\":2287:2297  recipients */\n      dup4\n        /* \"contracts/SnipeFinanceMultisenders.sol\":2287:2304  recipients.length */\n      mload\n        /* \"contracts/SnipeFinanceMultisenders.sol\":2283:2284  i */\n      dup2\n        /* \"contracts/SnipeFinanceMultisenders.sol\":2283:2304  i < recipients.length */\n      lt\n        /* \"contracts/SnipeFinanceMultisenders.sol\":2263:2396  for (uint256 i = 0; i < recipients.length; i++) {... */\n      iszero\n      tag_282\n      jumpi\n        /* \"contracts/SnipeFinanceMultisenders.sol\":2342:2352  recipients */\n      dup4\n        /* \"contracts/SnipeFinanceMultisenders.sol\":2353:2354  i */\n      dup2\n        /* \"contracts/SnipeFinanceMultisenders.sol\":2342:2355  recipients[i] */\n      dup2\n      mload\n      dup2\n      lt\n      tag_284\n      jumpi\n      tag_285\n      tag_167\n      jump\t// in\n    tag_285:\n    tag_284:\n      0x20\n      mul\n      0x20\n      add\n      add\n      mload\n        /* \"contracts/SnipeFinanceMultisenders.sol\":2334:2365  payable(recipients[i]).transfer */\n      0xffffffffffffffffffffffffffffffffffffffff\n      and\n        /* \"contracts/SnipeFinanceMultisenders.sol\":2334:2376  payable(recipients[i]).transfer(values[i]) */\n      0x08fc\n        /* \"contracts/SnipeFinanceMultisenders.sol\":2366:2372  values */\n      dup5\n        /* \"contracts/SnipeFinanceMultisenders.sol\":2373:2374  i */\n      dup4\n        /* \"contracts/SnipeFinanceMultisenders.sol\":2366:2375  values[i] */\n      dup2\n      mload\n      dup2\n      lt\n      tag_286\n      jumpi\n      tag_287\n      tag_167\n      jump\t// in\n    tag_287:\n    tag_286:\n      0x20\n      mul\n      0x20\n      add\n      add\n      mload\n        /* \"contracts/SnipeFinanceMultisenders.sol\":2334:2376  payable(recipients[i]).transfer(values[i]) */\n      swap1\n      dup2\n      iszero\n      mul\n      swap1\n      mload(0x40)\n      0x00\n      mload(0x40)\n      dup1\n      dup4\n      sub\n      dup2\n      dup6\n      dup9\n      dup9\n      call\n      swap4\n      pop\n      pop\n      pop\n      pop\n      iszero\n      dup1\n      iszero\n      tag_289\n      jumpi\n      returndatasize\n      0x00\n      dup1\n      returndatacopy\n      revert(0x00, returndatasize)\n    tag_289:\n      pop\n        /* \"contracts/SnipeFinanceMultisenders.sol\":2306:2309  i++ */\n      dup1\n      dup1\n      tag_290\n      swap1\n      tag_180\n      jump\t// in\n    tag_290:\n      swap2\n      pop\n      pop\n        /* \"contracts/SnipeFinanceMultisenders.sol\":2263:2396  for (uint256 i = 0; i < recipients.length; i++) {... */\n      jump(tag_281)\n    tag_282:\n      pop\n        /* \"contracts/SnipeFinanceMultisenders.sol\":1967:2905  if (tokenAddress.balanceOf(msg.sender) >= quantity) {... */\n      jump(tag_291)\n    tag_277:\n        /* \"contracts/SnipeFinanceMultisenders.sol\":2458:2466  quantity */\n      sload(0x05)\n        /* \"contracts/SnipeFinanceMultisenders.sol\":2421:2433  tokenAddress */\n      0x04\n      0x00\n      swap1\n      sload\n      swap1\n      0x0100\n      exp\n      swap1\n      div\n      0xffffffffffffffffffffffffffffffffffffffff\n      and\n        /* \"contracts/SnipeFinanceMultisenders.sol\":2421:2443  tokenAddress.balanceOf */\n      0xffffffffffffffffffffffffffffffffffffffff\n      and\n      0x70a08231\n        /* \"contracts/SnipeFinanceMultisenders.sol\":2444:2454  msg.sender */\n      caller\n        /* \"contracts/SnipeFinanceMultisenders.sol\":2421:2455  tokenAddress.balanceOf(msg.sender) */\n      mload(0x40)\n      dup3\n      0xffffffff\n      and\n      0xe0\n      shl\n      dup2\n      mstore\n      0x04\n      add\n      tag_292\n      swap2\n      swap1\n      tag_73\n      jump\t// in\n    tag_292:\n      0x20\n      mload(0x40)\n      dup1\n      dup4\n      sub\n      dup2\n      dup7\n      gas\n      staticcall\n      iszero\n      dup1\n      iszero\n      tag_294\n      jumpi\n      returndatasize\n      0x00\n      dup1\n      returndatacopy\n      revert(0x00, returndatasize)\n    tag_294:\n      pop\n      pop\n      pop\n      pop\n      mload(0x40)\n      returndatasize\n      not(0x1f)\n      0x1f\n      dup3\n      add\n      and\n      dup3\n      add\n      dup1\n      0x40\n      mstore\n      pop\n      dup2\n      add\n      swap1\n      tag_295\n      swap2\n      swap1\n      tag_126\n      jump\t// in\n    tag_295:\n        /* \"contracts/SnipeFinanceMultisenders.sol\":2421:2466  tokenAddress.balanceOf(msg.sender) < quantity */\n      lt\n        /* \"contracts/SnipeFinanceMultisenders.sol\":2417:2905  if (tokenAddress.balanceOf(msg.sender) < quantity) {... */\n      iszero\n      tag_296\n      jumpi\n        /* \"contracts/SnipeFinanceMultisenders.sol\":2487:2507  uint256 toBeIncluded */\n      0x00\n        /* \"contracts/SnipeFinanceMultisenders.sol\":2516:2527  totalValues */\n      dup2\n        /* \"contracts/SnipeFinanceMultisenders.sol\":2510:2513  fee */\n      sload(0x01)\n        /* \"contracts/SnipeFinanceMultisenders.sol\":2510:2527  fee + totalValues */\n      tag_297\n      swap2\n      swap1\n      tag_255\n      jump\t// in\n    tag_297:\n        /* \"contracts/SnipeFinanceMultisenders.sol\":2487:2527  uint256 toBeIncluded = fee + totalValues */\n      swap1\n      pop\n        /* \"contracts/SnipeFinanceMultisenders.sol\":2589:2601  toBeIncluded */\n      dup1\n        /* \"contracts/SnipeFinanceMultisenders.sol\":2576:2585  msg.value */\n      callvalue\n        /* \"contracts/SnipeFinanceMultisenders.sol\":2576:2601  msg.value == toBeIncluded */\n      eq\n        /* \"contracts/SnipeFinanceMultisenders.sol\":2546:2688  require(... */\n      tag_298\n      jumpi\n      mload(0x40)\n      0x08c379a000000000000000000000000000000000000000000000000000000000\n      dup2\n      mstore\n      0x04\n      add\n      tag_299\n      swap1\n      tag_210\n      jump\t// in\n    tag_299:\n      mload(0x40)\n      dup1\n      swap2\n      sub\n      swap1\n      revert\n    tag_298:\n        /* \"contracts/SnipeFinanceMultisenders.sol\":2715:2723  receiver */\n      0x02\n      0x00\n      swap1\n      sload\n      swap1\n      0x0100\n      exp\n      swap1\n      div\n      0xffffffffffffffffffffffffffffffffffffffff\n      and\n        /* \"contracts/SnipeFinanceMultisenders.sol\":2707:2733  payable(receiver).transfer */\n      0xffffffffffffffffffffffffffffffffffffffff\n      and\n        /* \"contracts/SnipeFinanceMultisenders.sol\":2707:2738  payable(receiver).transfer(fee) */\n      0x08fc\n        /* \"contracts/SnipeFinanceMultisenders.sol\":2734:2737  fee */\n      sload(0x01)\n        /* \"contracts/SnipeFinanceMultisenders.sol\":2707:2738  payable(receiver).transfer(fee) */\n      swap1\n      dup2\n      iszero\n      mul\n      swap1\n      mload(0x40)\n      0x00\n      mload(0x40)\n      dup1\n      dup4\n      sub\n      dup2\n      dup6\n      dup9\n      dup9\n      call\n      swap4\n      pop\n      pop\n      pop\n      pop\n      iszero\n      dup1\n      iszero\n      tag_301\n      jumpi\n      returndatasize\n      0x00\n      dup1\n      returndatacopy\n      revert(0x00, returndatasize)\n    tag_301:\n      pop\n        /* \"contracts/SnipeFinanceMultisenders.sol\":2762:2771  uint256 i */\n      0x00\n        /* \"contracts/SnipeFinanceMultisenders.sol\":2757:2890  for (uint256 i = 0; i < recipients.length; i++) {... */\n    tag_302:\n        /* \"contracts/SnipeFinanceMultisenders.sol\":2781:2791  recipients */\n      dup5\n        /* \"contracts/SnipeFinanceMultisenders.sol\":2781:2798  recipients.length */\n      mload\n        /* \"contracts/SnipeFinanceMultisenders.sol\":2777:2778  i */\n      dup2\n        /* \"contracts/SnipeFinanceMultisenders.sol\":2777:2798  i < recipients.length */\n      lt\n        /* \"contracts/SnipeFinanceMultisenders.sol\":2757:2890  for (uint256 i = 0; i < recipients.length; i++) {... */\n      iszero\n      tag_303\n      jumpi\n        /* \"contracts/SnipeFinanceMultisenders.sol\":2836:2846  recipients */\n      dup5\n        /* \"contracts/SnipeFinanceMultisenders.sol\":2847:2848  i */\n      dup2\n        /* \"contracts/SnipeFinanceMultisenders.sol\":2836:2849  recipients[i] */\n      dup2\n      mload\n      dup2\n      lt\n      tag_305\n      jumpi\n      tag_306\n      tag_167\n      jump\t// in\n    tag_306:\n    tag_305:\n      0x20\n      mul\n      0x20\n      add\n      add\n      mload\n        /* \"contracts/SnipeFinanceMultisenders.sol\":2828:2859  payable(recipients[i]).transfer */\n      0xffffffffffffffffffffffffffffffffffffffff\n      and\n        /* \"contracts/SnipeFinanceMultisenders.sol\":2828:2870  payable(recipients[i]).transfer(values[i]) */\n      0x08fc\n        /* \"contracts/SnipeFinanceMultisenders.sol\":2860:2866  values */\n      dup6\n        /* \"contracts/SnipeFinanceMultisenders.sol\":2867:2868  i */\n      dup4\n        /* \"contracts/SnipeFinanceMultisenders.sol\":2860:2869  values[i] */\n      dup2\n      mload\n      dup2\n      lt\n      tag_307\n      jumpi\n      tag_308\n      tag_167\n      jump\t// in\n    tag_308:\n    tag_307:\n      0x20\n      mul\n      0x20\n      add\n      add\n      mload\n        /* \"contracts/SnipeFinanceMultisenders.sol\":2828:2870  payable(recipients[i]).transfer(values[i]) */\n      swap1\n      dup2\n      iszero\n      mul\n      swap1\n      mload(0x40)\n      0x00\n      mload(0x40)\n      dup1\n      dup4\n      sub\n      dup2\n      dup6\n      dup9\n      dup9\n      call\n      swap4\n      pop\n      pop\n      pop\n      pop\n      iszero\n      dup1\n      iszero\n      tag_310\n      jumpi\n      returndatasize\n      0x00\n      dup1\n      returndatacopy\n      revert(0x00, returndatasize)\n    tag_310:\n      pop\n        /* \"contracts/SnipeFinanceMultisenders.sol\":2800:2803  i++ */\n      dup1\n      dup1\n      tag_311\n      swap1\n      tag_180\n      jump\t// in\n    tag_311:\n      swap2\n      pop\n      pop\n        /* \"contracts/SnipeFinanceMultisenders.sol\":2757:2890  for (uint256 i = 0; i < recipients.length; i++) {... */\n      jump(tag_302)\n    tag_303:\n      pop\n        /* \"contracts/SnipeFinanceMultisenders.sol\":2468:2905  {... */\n      pop\n        /* \"contracts/SnipeFinanceMultisenders.sol\":2417:2905  if (tokenAddress.balanceOf(msg.sender) < quantity) {... */\n    tag_296:\n        /* \"contracts/SnipeFinanceMultisenders.sol\":1967:2905  if (tokenAddress.balanceOf(msg.sender) >= quantity) {... */\n    tag_291:\n        /* \"contracts/SnipeFinanceMultisenders.sol\":1918:2916  if (!authorizedusers[msg.sender]) {... */\n    tag_272:\n        /* \"contracts/SnipeFinanceMultisenders.sol\":1585:2916  if (authorizedusers[msg.sender]) {... */\n    tag_271:\n        /* \"contracts/SnipeFinanceMultisenders.sol\":1344:2923  {... */\n      pop\n        /* \"contracts/SnipeFinanceMultisenders.sol\":1210:2923  function coinMultisender(... */\n      pop\n      pop\n      jump\t// out\n        /* \"contracts/SnipeFinanceMultisenders.sol\":573:591  uint256 public fee */\n    tag_98:\n      sload(0x01)\n      dup2\n      jump\t// out\n        /* \"@openzeppelin/contracts/access/Ownable.sol\":2074:2272  function transferOwnership(address newOwner) public virtual onlyOwner {... */\n    tag_103:\n        /* \"@openzeppelin/contracts/access/Ownable.sol\":1094:1107  _checkOwner() */\n      tag_313\n        /* \"@openzeppelin/contracts/access/Ownable.sol\":1094:1105  _checkOwner */\n      tag_116\n        /* \"@openzeppelin/contracts/access/Ownable.sol\":1094:1107  _checkOwner() */\n      jump\t// in\n    tag_313:\n        /* \"@openzeppelin/contracts/access/Ownable.sol\":2182:2183  0 */\n      0x00\n        /* \"@openzeppelin/contracts/access/Ownable.sol\":2162:2184  newOwner != address(0) */\n      0xffffffffffffffffffffffffffffffffffffffff\n      and\n        /* \"@openzeppelin/contracts/access/Ownable.sol\":2162:2170  newOwner */\n      dup2\n        /* \"@openzeppelin/contracts/access/Ownable.sol\":2162:2184  newOwner != address(0) */\n      0xffffffffffffffffffffffffffffffffffffffff\n      and\n      sub\n        /* \"@openzeppelin/contracts/access/Ownable.sol\":2154:2227  require(newOwner != address(0), \"Ownable: new owner is the zero address\") */\n      tag_315\n      jumpi\n      mload(0x40)\n      0x08c379a000000000000000000000000000000000000000000000000000000000\n      dup2\n      mstore\n      0x04\n      add\n      tag_316\n      swap1\n      tag_317\n      jump\t// in\n    tag_316:\n      mload(0x40)\n      dup1\n      swap2\n      sub\n      swap1\n      revert\n    tag_315:\n        /* \"@openzeppelin/contracts/access/Ownable.sol\":2237:2265  _transferOwnership(newOwner) */\n      tag_318\n        /* \"@openzeppelin/contracts/access/Ownable.sol\":2256:2264  newOwner */\n      dup2\n        /* \"@openzeppelin/contracts/access/Ownable.sol\":2237:2255  _transferOwnership */\n      tag_143\n        /* \"@openzeppelin/contracts/access/Ownable.sol\":2237:2265  _transferOwnership(newOwner) */\n      jump\t// in\n    tag_318:\n        /* \"@openzeppelin/contracts/access/Ownable.sol\":2074:2272  function transferOwnership(address newOwner) public virtual onlyOwner {... */\n      pop\n      jump\t// out\n        /* \"contracts/SnipeFinanceMultisenders.sol\":598:629  address payable public receiver */\n    tag_106:\n      0x02\n      0x00\n      swap1\n      sload\n      swap1\n      0x0100\n      exp\n      swap1\n      div\n      0xffffffffffffffffffffffffffffffffffffffff\n      and\n      dup2\n      jump\t// out\n        /* \"contracts/SnipeFinanceMultisenders.sol\":6388:6583  function withdrawCoins(uint256 amount) external onlyOwner {... */\n    tag_113:\n        /* \"@openzeppelin/contracts/access/Ownable.sol\":1094:1107  _checkOwner() */\n      tag_320\n        /* \"@openzeppelin/contracts/access/Ownable.sol\":1094:1105  _checkOwner */\n      tag_116\n        /* \"@openzeppelin/contracts/access/Ownable.sol\":1094:1107  _checkOwner() */\n      jump\t// in\n    tag_320:\n        /* \"contracts/SnipeFinanceMultisenders.sol\":6490:6496  amount */\n      dup1\n        /* \"contracts/SnipeFinanceMultisenders.sol\":6473:6477  this */\n      address\n        /* \"contracts/SnipeFinanceMultisenders.sol\":6465:6486  address(this).balance */\n      0xffffffffffffffffffffffffffffffffffffffff\n      and\n      balance\n        /* \"contracts/SnipeFinanceMultisenders.sol\":6465:6496  address(this).balance >= amount */\n      lt\n      iszero\n        /* \"contracts/SnipeFinanceMultisenders.sol\":6457:6528  require(address(this).balance >= amount, \"invalid balance to withdraw\") */\n      tag_322\n      jumpi\n      mload(0x40)\n      0x08c379a000000000000000000000000000000000000000000000000000000000\n      dup2\n      mstore\n      0x04\n      add\n      tag_323\n      swap1\n      tag_324\n      jump\t// in\n    tag_323:\n      mload(0x40)\n      dup1\n      swap2\n      sub\n      swap1\n      revert\n    tag_322:\n        /* \"contracts/SnipeFinanceMultisenders.sol\":6547:6557  msg.sender */\n      caller\n        /* \"contracts/SnipeFinanceMultisenders.sol\":6539:6567  payable(msg.sender).transfer */\n      0xffffffffffffffffffffffffffffffffffffffff\n      and\n        /* \"contracts/SnipeFinanceMultisenders.sol\":6539:6575  payable(msg.sender).transfer(amount) */\n      0x08fc\n        /* \"contracts/SnipeFinanceMultisenders.sol\":6568:6574  amount */\n      dup3\n        /* \"contracts/SnipeFinanceMultisenders.sol\":6539:6575  payable(msg.sender).transfer(amount) */\n      swap1\n      dup2\n      iszero\n      mul\n      swap1\n      mload(0x40)\n      0x00\n      mload(0x40)\n      dup1\n      dup4\n      sub\n      dup2\n      dup6\n      dup9\n      dup9\n      call\n      swap4\n      pop\n      pop\n      pop\n      pop\n      iszero\n      dup1\n      iszero\n      tag_326\n      jumpi\n      returndatasize\n      0x00\n      dup1\n      returndatacopy\n      revert(0x00, returndatasize)\n    tag_326:\n      pop\n        /* \"contracts/SnipeFinanceMultisenders.sol\":6388:6583  function withdrawCoins(uint256 amount) external onlyOwner {... */\n      pop\n      jump\t// out\n        /* \"@openzeppelin/contracts/access/Ownable.sol\":1359:1489  function _checkOwner() internal view virtual {... */\n    tag_116:\n        /* \"@openzeppelin/contracts/access/Ownable.sol\":1433:1445  _msgSender() */\n      tag_328\n        /* \"@openzeppelin/contracts/access/Ownable.sol\":1433:1443  _msgSender */\n      tag_329\n        /* \"@openzeppelin/contracts/access/Ownable.sol\":1433:1445  _msgSender() */\n      jump\t// in\n    tag_328:\n        /* \"@openzeppelin/contracts/access/Ownable.sol\":1422:1445  owner() == _msgSender() */\n      0xffffffffffffffffffffffffffffffffffffffff\n      and\n        /* \"@openzeppelin/contracts/access/Ownable.sol\":1422:1429  owner() */\n      tag_330\n        /* \"@openzeppelin/contracts/access/Ownable.sol\":1422:1427  owner */\n      tag_71\n        /* \"@openzeppelin/contracts/access/Ownable.sol\":1422:1429  owner() */\n      jump\t// in\n    tag_330:\n        /* \"@openzeppelin/contracts/access/Ownable.sol\":1422:1445  owner() == _msgSender() */\n      0xffffffffffffffffffffffffffffffffffffffff\n      and\n      eq\n        /* \"@openzeppelin/contracts/access/Ownable.sol\":1414:1482  require(owner() == _msgSender(), \"Ownable: caller is not the owner\") */\n      tag_331\n      jumpi\n      mload(0x40)\n      0x08c379a000000000000000000000000000000000000000000000000000000000\n      dup2\n      mstore\n      0x04\n      add\n      tag_332\n      swap1\n      tag_333\n      jump\t// in\n    tag_332:\n      mload(0x40)\n      dup1\n      swap2\n      sub\n      swap1\n      revert\n    tag_331:\n        /* \"@openzeppelin/contracts/access/Ownable.sol\":1359:1489  function _checkOwner() internal view virtual {... */\n      jump\t// out\n        /* \"@openzeppelin/contracts/access/Ownable.sol\":2426:2613  function _transferOwnership(address newOwner) internal virtual {... */\n    tag_143:\n        /* \"@openzeppelin/contracts/access/Ownable.sol\":2499:2515  address oldOwner */\n      0x00\n        /* \"@openzeppelin/contracts/access/Ownable.sol\":2518:2524  _owner */\n      dup1\n      0x00\n      swap1\n      sload\n      swap1\n      0x0100\n      exp\n      swap1\n      div\n      0xffffffffffffffffffffffffffffffffffffffff\n      and\n        /* \"@openzeppelin/contracts/access/Ownable.sol\":2499:2524  address oldOwner = _owner */\n      swap1\n      pop\n        /* \"@openzeppelin/contracts/access/Ownable.sol\":2543:2551  newOwner */\n      dup2\n        /* \"@openzeppelin/contracts/access/Ownable.sol\":2534:2540  _owner */\n      0x00\n      dup1\n        /* \"@openzeppelin/contracts/access/Ownable.sol\":2534:2551  _owner = newOwner */\n      0x0100\n      exp\n      dup2\n      sload\n      dup2\n      0xffffffffffffffffffffffffffffffffffffffff\n      mul\n      not\n      and\n      swap1\n      dup4\n      0xffffffffffffffffffffffffffffffffffffffff\n      and\n      mul\n      or\n      swap1\n      sstore\n      pop\n        /* \"@openzeppelin/contracts/access/Ownable.sol\":2597:2605  newOwner */\n      dup2\n        /* \"@openzeppelin/contracts/access/Ownable.sol\":2566:2606  OwnershipTransferred(oldOwner, newOwner) */\n      0xffffffffffffffffffffffffffffffffffffffff\n      and\n        /* \"@openzeppelin/contracts/access/Ownable.sol\":2587:2595  oldOwner */\n      dup2\n        /* \"@openzeppelin/contracts/access/Ownable.sol\":2566:2606  OwnershipTransferred(oldOwner, newOwner) */\n      0xffffffffffffffffffffffffffffffffffffffff\n      and\n      0x8be0079c531659141344cd1fd0a4f28419497f9722a3daafe3b4186f6b6457e0\n      mload(0x40)\n      mload(0x40)\n      dup1\n      swap2\n      sub\n      swap1\n      log3\n        /* \"@openzeppelin/contracts/access/Ownable.sol\":2489:2613  {... */\n      pop\n        /* \"@openzeppelin/contracts/access/Ownable.sol\":2426:2613  function _transferOwnership(address newOwner) internal virtual {... */\n      pop\n      jump\t// out\n        /* \"@openzeppelin/contracts/utils/Address.sol\":1412:1732  function isContract(address account) internal view returns (bool) {... */\n    tag_154:\n        /* \"@openzeppelin/contracts/utils/Address.sol\":1472:1476  bool */\n      0x00\n        /* \"@openzeppelin/contracts/utils/Address.sol\":1724:1725  0 */\n      dup1\n        /* \"@openzeppelin/contracts/utils/Address.sol\":1702:1709  account */\n      dup3\n        /* \"@openzeppelin/contracts/utils/Address.sol\":1702:1721  account.code.length */\n      0xffffffffffffffffffffffffffffffffffffffff\n      and\n      extcodesize\n        /* \"@openzeppelin/contracts/utils/Address.sol\":1702:1725  account.code.length > 0 */\n      gt\n        /* \"@openzeppelin/contracts/utils/Address.sol\":1695:1725  return account.code.length > 0 */\n      swap1\n      pop\n        /* \"@openzeppelin/contracts/utils/Address.sol\":1412:1732  function isContract(address account) internal view returns (bool) {... */\n      swap2\n      swap1\n      pop\n      jump\t// out\n        /* \"@openzeppelin/contracts/utils/Context.sol\":640:736  function _msgSender() internal view virtual returns (address) {... */\n    tag_329:\n        /* \"@openzeppelin/contracts/utils/Context.sol\":693:700  address */\n      0x00\n        /* \"@openzeppelin/contracts/utils/Context.sol\":719:729  msg.sender */\n      caller\n        /* \"@openzeppelin/contracts/utils/Context.sol\":712:729  return msg.sender */\n      swap1\n      pop\n        /* \"@openzeppelin/contracts/utils/Context.sol\":640:736  function _msgSender() internal view virtual returns (address) {... */\n      swap1\n      jump\t// out\n        /* \"#utility.yul\":7:82   */\n    tag_337:\n        /* \"#utility.yul\":40:46   */\n      0x00\n        /* \"#utility.yul\":73:75   */\n      0x40\n        /* \"#utility.yul\":67:76   */\n      mload\n        /* \"#utility.yul\":57:76   */\n      swap1\n      pop\n        /* \"#utility.yul\":7:82   */\n      swap1\n      jump\t// out\n        /* \"#utility.yul\":88:205   */\n    tag_338:\n        /* \"#utility.yul\":197:198   */\n      0x00\n        /* \"#utility.yul\":194:195   */\n      dup1\n        /* \"#utility.yul\":187:199   */\n      revert\n        /* \"#utility.yul\":211:328   */\n    tag_339:\n        /* \"#utility.yul\":320:321   */\n      0x00\n        /* \"#utility.yul\":317:318   */\n      dup1\n        /* \"#utility.yul\":310:322   */\n      revert\n        /* \"#utility.yul\":334:411   */\n    tag_340:\n        /* \"#utility.yul\":371:378   */\n      0x00\n        /* \"#utility.yul\":400:405   */\n      dup2\n        /* \"#utility.yul\":389:405   */\n      swap1\n      pop\n        /* \"#utility.yul\":334:411   */\n      swap2\n      swap1\n      pop\n      jump\t// out\n        /* \"#utility.yul\":417:539   */\n    tag_341:\n        /* \"#utility.yul\":490:514   */\n      tag_410\n        /* \"#utility.yul\":508:513   */\n      dup2\n        /* \"#utility.yul\":490:514   */\n      tag_340\n      jump\t// in\n    tag_410:\n        /* \"#utility.yul\":483:488   */\n      dup2\n        /* \"#utility.yul\":480:515   */\n      eq\n        /* \"#utility.yul\":470:533   */\n      tag_411\n      jumpi\n        /* \"#utility.yul\":529:530   */\n      0x00\n        /* \"#utility.yul\":526:527   */\n      dup1\n        /* \"#utility.yul\":519:531   */\n      revert\n        /* \"#utility.yul\":470:533   */\n    tag_411:\n        /* \"#utility.yul\":417:539   */\n      pop\n      jump\t// out\n        /* \"#utility.yul\":545:684   */\n    tag_342:\n        /* \"#utility.yul\":591:596   */\n      0x00\n        /* \"#utility.yul\":629:635   */\n      dup2\n        /* \"#utility.yul\":616:636   */\n      calldataload\n        /* \"#utility.yul\":607:636   */\n      swap1\n      pop\n        /* \"#utility.yul\":645:678   */\n      tag_413\n        /* \"#utility.yul\":672:677   */\n      dup2\n        /* \"#utility.yul\":645:678   */\n      tag_341\n      jump\t// in\n    tag_413:\n        /* \"#utility.yul\":545:684   */\n      swap3\n      swap2\n      pop\n      pop\n      jump\t// out\n        /* \"#utility.yul\":690:816   */\n    tag_343:\n        /* \"#utility.yul\":727:734   */\n      0x00\n        /* \"#utility.yul\":767:809   */\n      0xffffffffffffffffffffffffffffffffffffffff\n        /* \"#utility.yul\":760:765   */\n      dup3\n        /* \"#utility.yul\":756:810   */\n      and\n        /* \"#utility.yul\":745:810   */\n      swap1\n      pop\n        /* \"#utility.yul\":690:816   */\n      swap2\n      swap1\n      pop\n      jump\t// out\n        /* \"#utility.yul\":822:918   */\n    tag_344:\n        /* \"#utility.yul\":859:866   */\n      0x00\n        /* \"#utility.yul\":888:912   */\n      tag_416\n        /* \"#utility.yul\":906:911   */\n      dup3\n        /* \"#utility.yul\":888:912   */\n      tag_343\n      jump\t// in\n    tag_416:\n        /* \"#utility.yul\":877:912   */\n      swap1\n      pop\n        /* \"#utility.yul\":822:918   */\n      swap2\n      swap1\n      pop\n      jump\t// out\n        /* \"#utility.yul\":924:1046   */\n    tag_345:\n        /* \"#utility.yul\":997:1021   */\n      tag_418\n        /* \"#utility.yul\":1015:1020   */\n      dup2\n        /* \"#utility.yul\":997:1021   */\n      tag_344\n      jump\t// in\n    tag_418:\n        /* \"#utility.yul\":990:995   */\n      dup2\n        /* \"#utility.yul\":987:1022   */\n      eq\n        /* \"#utility.yul\":977:1040   */\n      tag_419\n      jumpi\n        /* \"#utility.yul\":1036:1037   */\n      0x00\n        /* \"#utility.yul\":1033:1034   */\n      dup1\n        /* \"#utility.yul\":1026:1038   */\n      revert\n        /* \"#utility.yul\":977:1040   */\n    tag_419:\n        /* \"#utility.yul\":924:1046   */\n      pop\n      jump\t// out\n        /* \"#utility.yul\":1052:1191   */\n    tag_346:\n        /* \"#utility.yul\":1098:1103   */\n      0x00\n        /* \"#utility.yul\":1136:1142   */\n      dup2\n        /* \"#utility.yul\":1123:1143   */\n      calldataload\n        /* \"#utility.yul\":1114:1143   */\n      swap1\n      pop\n        /* \"#utility.yul\":1152:1185   */\n      tag_421\n        /* \"#utility.yul\":1179:1184   */\n      dup2\n        /* \"#utility.yul\":1152:1185   */\n      tag_345\n      jump\t// in\n    tag_421:\n        /* \"#utility.yul\":1052:1191   */\n      swap3\n      swap2\n      pop\n      pop\n      jump\t// out\n        /* \"#utility.yul\":1197:1671   */\n    tag_30:\n        /* \"#utility.yul\":1265:1271   */\n      0x00\n        /* \"#utility.yul\":1273:1279   */\n      dup1\n        /* \"#utility.yul\":1322:1324   */\n      0x40\n        /* \"#utility.yul\":1310:1319   */\n      dup4\n        /* \"#utility.yul\":1301:1308   */\n      dup6\n        /* \"#utility.yul\":1297:1320   */\n      sub\n        /* \"#utility.yul\":1293:1325   */\n      slt\n        /* \"#utility.yul\":1290:1409   */\n      iszero\n      tag_423\n      jumpi\n        /* \"#utility.yul\":1328:1407   */\n      tag_424\n      tag_338\n      jump\t// in\n    tag_424:\n        /* \"#utility.yul\":1290:1409   */\n    tag_423:\n        /* \"#utility.yul\":1448:1449   */\n      0x00\n        /* \"#utility.yul\":1473:1526   */\n      tag_425\n        /* \"#utility.yul\":1518:1525   */\n      dup6\n        /* \"#utility.yul\":1509:1515   */\n      dup3\n        /* \"#utility.yul\":1498:1507   */\n      dup7\n        /* \"#utility.yul\":1494:1516   */\n      add\n        /* \"#utility.yul\":1473:1526   */\n      tag_342\n      jump\t// in\n    tag_425:\n        /* \"#utility.yul\":1463:1526   */\n      swap3\n      pop\n        /* \"#utility.yul\":1419:1536   */\n      pop\n        /* \"#utility.yul\":1575:1577   */\n      0x20\n        /* \"#utility.yul\":1601:1654   */\n      tag_426\n        /* \"#utility.yul\":1646:1653   */\n      dup6\n        /* \"#utility.yul\":1637:1643   */\n      dup3\n        /* \"#utility.yul\":1626:1635   */\n      dup7\n        /* \"#utility.yul\":1622:1644   */\n      add\n        /* \"#utility.yul\":1601:1654   */\n      tag_346\n      jump\t// in\n    tag_426:\n        /* \"#utility.yul\":1591:1654   */\n      swap2\n      pop\n        /* \"#utility.yul\":1546:1664   */\n      pop\n        /* \"#utility.yul\":1197:1671   */\n      swap3\n      pop\n      swap3\n      swap1\n      pop\n      jump\t// out\n        /* \"#utility.yul\":1677:1795   */\n    tag_347:\n        /* \"#utility.yul\":1764:1788   */\n      tag_428\n        /* \"#utility.yul\":1782:1787   */\n      dup2\n        /* \"#utility.yul\":1764:1788   */\n      tag_340\n      jump\t// in\n    tag_428:\n        /* \"#utility.yul\":1759:1762   */\n      dup3\n        /* \"#utility.yul\":1752:1789   */\n      mstore\n        /* \"#utility.yul\":1677:1795   */\n      pop\n      pop\n      jump\t// out\n        /* \"#utility.yul\":1801:2023   */\n    tag_36:\n        /* \"#utility.yul\":1894:1898   */\n      0x00\n        /* \"#utility.yul\":1932:1934   */\n      0x20\n        /* \"#utility.yul\":1921:1930   */\n      dup3\n        /* \"#utility.yul\":1917:1935   */\n      add\n        /* \"#utility.yul\":1909:1935   */\n      swap1\n      pop\n        /* \"#utility.yul\":1945:2016   */\n      tag_430\n        /* \"#utility.yul\":2013:2014   */\n      0x00\n        /* \"#utility.yul\":2002:2011   */\n      dup4\n        /* \"#utility.yul\":1998:2015   */\n      add\n        /* \"#utility.yul\":1989:1995   */\n      dup5\n        /* \"#utility.yul\":1945:2016   */\n      tag_347\n      jump\t// in\n    tag_430:\n        /* \"#utility.yul\":1801:2023   */\n      swap3\n      swap2\n      pop\n      pop\n      jump\t// out\n        /* \"#utility.yul\":2029:2139   */\n    tag_348:\n        /* \"#utility.yul\":2080:2087   */\n      0x00\n        /* \"#utility.yul\":2109:2133   */\n      tag_432\n        /* \"#utility.yul\":2127:2132   */\n      dup3\n        /* \"#utility.yul\":2109:2133   */\n      tag_344\n      jump\t// in\n    tag_432:\n        /* \"#utility.yul\":2098:2133   */\n      swap1\n      pop\n        /* \"#utility.yul\":2029:2139   */\n      swap2\n      swap1\n      pop\n      jump\t// out\n        /* \"#utility.yul\":2145:2295   */\n    tag_349:\n        /* \"#utility.yul\":2232:2270   */\n      tag_434\n        /* \"#utility.yul\":2264:2269   */\n      dup2\n        /* \"#utility.yul\":2232:2270   */\n      tag_348\n      jump\t// in\n    tag_434:\n        /* \"#utility.yul\":2225:2230   */\n      dup2\n        /* \"#utility.yul\":2222:2271   */\n      eq\n        /* \"#utility.yul\":2212:2289   */\n      tag_435\n      jumpi\n        /* \"#utility.yul\":2285:2286   */\n      0x00\n        /* \"#utility.yul\":2282:2283   */\n      dup1\n        /* \"#utility.yul\":2275:2287   */\n      revert\n        /* \"#utility.yul\":2212:2289   */\n    tag_435:\n        /* \"#utility.yul\":2145:2295   */\n      pop\n      jump\t// out\n        /* \"#utility.yul\":2301:2468   */\n    tag_350:\n        /* \"#utility.yul\":2361:2366   */\n      0x00\n        /* \"#utility.yul\":2399:2405   */\n      dup2\n        /* \"#utility.yul\":2386:2406   */\n      calldataload\n        /* \"#utility.yul\":2377:2406   */\n      swap1\n      pop\n        /* \"#utility.yul\":2415:2462   */\n      tag_437\n        /* \"#utility.yul\":2456:2461   */\n      dup2\n        /* \"#utility.yul\":2415:2462   */\n      tag_349\n      jump\t// in\n    tag_437:\n        /* \"#utility.yul\":2301:2468   */\n      swap3\n      swap2\n      pop\n      pop\n      jump\t// out\n        /* \"#utility.yul\":2474:2976   */\n    tag_40:\n        /* \"#utility.yul\":2556:2562   */\n      0x00\n        /* \"#utility.yul\":2564:2570   */\n      dup1\n        /* \"#utility.yul\":2613:2615   */\n      0x40\n        /* \"#utility.yul\":2601:2610   */\n      dup4\n        /* \"#utility.yul\":2592:2599   */\n      dup6\n        /* \"#utility.yul\":2588:2611   */\n      sub\n        /* \"#utility.yul\":2584:2616   */\n      slt\n        /* \"#utility.yul\":2581:2700   */\n      iszero\n      tag_439\n      jumpi\n        /* \"#utility.yul\":2619:2698   */\n      tag_440\n      tag_338\n      jump\t// in\n    tag_440:\n        /* \"#utility.yul\":2581:2700   */\n    tag_439:\n        /* \"#utility.yul\":2739:2740   */\n      0x00\n        /* \"#utility.yul\":2764:2831   */\n      tag_441\n        /* \"#utility.yul\":2823:2830   */\n      dup6\n        /* \"#utility.yul\":2814:2820   */\n      dup3\n        /* \"#utility.yul\":2803:2812   */\n      dup7\n        /* \"#utility.yul\":2799:2821   */\n      add\n        /* \"#utility.yul\":2764:2831   */\n      tag_350\n      jump\t// in\n    tag_441:\n        /* \"#utility.yul\":2754:2831   */\n      swap3\n      pop\n        /* \"#utility.yul\":2710:2841   */\n      pop\n        /* \"#utility.yul\":2880:2882   */\n      0x20\n        /* \"#utility.yul\":2906:2959   */\n      tag_442\n        /* \"#utility.yul\":2951:2958   */\n      dup6\n        /* \"#utility.yul\":2942:2948   */\n      dup3\n        /* \"#utility.yul\":2931:2940   */\n      dup7\n        /* \"#utility.yul\":2927:2949   */\n      add\n        /* \"#utility.yul\":2906:2959   */\n      tag_342\n      jump\t// in\n    tag_442:\n        /* \"#utility.yul\":2896:2959   */\n      swap2\n      pop\n        /* \"#utility.yul\":2851:2969   */\n      pop\n        /* \"#utility.yul\":2474:2976   */\n      swap3\n      pop\n      swap3\n      swap1\n      pop\n      jump\t// out\n        /* \"#utility.yul\":2982:3311   */\n    tag_45:\n        /* \"#utility.yul\":3041:3047   */\n      0x00\n        /* \"#utility.yul\":3090:3092   */\n      0x20\n        /* \"#utility.yul\":3078:3087   */\n      dup3\n        /* \"#utility.yul\":3069:3076   */\n      dup5\n        /* \"#utility.yul\":3065:3088   */\n      sub\n        /* \"#utility.yul\":3061:3093   */\n      slt\n        /* \"#utility.yul\":3058:3177   */\n      iszero\n      tag_444\n      jumpi\n        /* \"#utility.yul\":3096:3175   */\n      tag_445\n      tag_338\n      jump\t// in\n    tag_445:\n        /* \"#utility.yul\":3058:3177   */\n    tag_444:\n        /* \"#utility.yul\":3216:3217   */\n      0x00\n        /* \"#utility.yul\":3241:3294   */\n      tag_446\n        /* \"#utility.yul\":3286:3293   */\n      dup5\n        /* \"#utility.yul\":3277:3283   */\n      dup3\n        /* \"#utility.yul\":3266:3275   */\n      dup6\n        /* \"#utility.yul\":3262:3284   */\n      add\n        /* \"#utility.yul\":3241:3294   */\n      tag_346\n      jump\t// in\n    tag_446:\n        /* \"#utility.yul\":3231:3294   */\n      swap2\n      pop\n        /* \"#utility.yul\":3187:3304   */\n      pop\n        /* \"#utility.yul\":2982:3311   */\n      swap3\n      swap2\n      pop\n      pop\n      jump\t// out\n        /* \"#utility.yul\":3317:3407   */\n    tag_351:\n        /* \"#utility.yul\":3351:3358   */\n      0x00\n        /* \"#utility.yul\":3394:3399   */\n      dup2\n        /* \"#utility.yul\":3387:3400   */\n      iszero\n        /* \"#utility.yul\":3380:3401   */\n      iszero\n        /* \"#utility.yul\":3369:3401   */\n      swap1\n      pop\n        /* \"#utility.yul\":3317:3407   */\n      swap2\n      swap1\n      pop\n      jump\t// out\n        /* \"#utility.yul\":3413:3522   */\n    tag_352:\n        /* \"#utility.yul\":3494:3515   */\n      tag_449\n        /* \"#utility.yul\":3509:3514   */\n      dup2\n        /* \"#utility.yul\":3494:3515   */\n      tag_351\n      jump\t// in\n    tag_449:\n        /* \"#utility.yul\":3489:3492   */\n      dup3\n        /* \"#utility.yul\":3482:3516   */\n      mstore\n        /* \"#utility.yul\":3413:3522   */\n      pop\n      pop\n      jump\t// out\n        /* \"#utility.yul\":3528:3738   */\n    tag_53:\n        /* \"#utility.yul\":3615:3619   */\n      0x00\n        /* \"#utility.yul\":3653:3655   */\n      0x20\n        /* \"#utility.yul\":3642:3651   */\n      dup3\n        /* \"#utility.yul\":3638:3656   */\n      add\n        /* \"#utility.yul\":3630:3656   */\n      swap1\n      pop\n        /* \"#utility.yul\":3666:3731   */\n      tag_451\n        /* \"#utility.yul\":3728:3729   */\n      0x00\n        /* \"#utility.yul\":3717:3726   */\n      dup4\n        /* \"#utility.yul\":3713:3730   */\n      add\n        /* \"#utility.yul\":3704:3710   */\n      dup5\n        /* \"#utility.yul\":3666:3731   */\n      tag_352\n      jump\t// in\n    tag_451:\n        /* \"#utility.yul\":3528:3738   */\n      swap3\n      swap2\n      pop\n      pop\n      jump\t// out\n        /* \"#utility.yul\":3744:3862   */\n    tag_353:\n        /* \"#utility.yul\":3831:3855   */\n      tag_453\n        /* \"#utility.yul\":3849:3854   */\n      dup2\n        /* \"#utility.yul\":3831:3855   */\n      tag_344\n      jump\t// in\n    tag_453:\n        /* \"#utility.yul\":3826:3829   */\n      dup3\n        /* \"#utility.yul\":3819:3856   */\n      mstore\n        /* \"#utility.yul\":3744:3862   */\n      pop\n      pop\n      jump\t// out\n        /* \"#utility.yul\":3868:4090   */\n    tag_73:\n        /* \"#utility.yul\":3961:3965   */\n      0x00\n        /* \"#utility.yul\":3999:4001   */\n      0x20\n        /* \"#utility.yul\":3988:3997   */\n      dup3\n        /* \"#utility.yul\":3984:4002   */\n      add\n        /* \"#utility.yul\":3976:4002   */\n      swap1\n      pop\n        /* \"#utility.yul\":4012:4083   */\n      tag_455\n        /* \"#utility.yul\":4080:4081   */\n      0x00\n        /* \"#utility.yul\":4069:4078   */\n      dup4\n        /* \"#utility.yul\":4065:4082   */\n      add\n        /* \"#utility.yul\":4056:4062   */\n      dup5\n        /* \"#utility.yul\":4012:4083   */\n      tag_353\n      jump\t// in\n    tag_455:\n        /* \"#utility.yul\":3868:4090   */\n      swap3\n      swap2\n      pop\n      pop\n      jump\t// out\n        /* \"#utility.yul\":4096:4213   */\n    tag_354:\n        /* \"#utility.yul\":4205:4206   */\n      0x00\n        /* \"#utility.yul\":4202:4203   */\n      dup1\n        /* \"#utility.yul\":4195:4207   */\n      revert\n        /* \"#utility.yul\":4219:4321   */\n    tag_355:\n        /* \"#utility.yul\":4260:4266   */\n      0x00\n        /* \"#utility.yul\":4311:4313   */\n      0x1f\n        /* \"#utility.yul\":4307:4314   */\n      not\n        /* \"#utility.yul\":4302:4304   */\n      0x1f\n        /* \"#utility.yul\":4295:4300   */\n      dup4\n        /* \"#utility.yul\":4291:4305   */\n      add\n        /* \"#utility.yul\":4287:4315   */\n      and\n        /* \"#utility.yul\":4277:4315   */\n      swap1\n      pop\n        /* \"#utility.yul\":4219:4321   */\n      swap2\n      swap1\n      pop\n      jump\t// out\n        /* \"#utility.yul\":4327:4507   */\n    tag_356:\n        /* \"#utility.yul\":4375:4452   */\n      0x4e487b7100000000000000000000000000000000000000000000000000000000\n        /* \"#utility.yul\":4372:4373   */\n      0x00\n        /* \"#utility.yul\":4365:4453   */\n      mstore\n        /* \"#utility.yul\":4472:4476   */\n      0x41\n        /* \"#utility.yul\":4469:4470   */\n      0x04\n        /* \"#utility.yul\":4462:4477   */\n      mstore\n        /* \"#utility.yul\":4496:4500   */\n      0x24\n        /* \"#utility.yul\":4493:4494   */\n      0x00\n        /* \"#utility.yul\":4486:4501   */\n      revert\n        /* \"#utility.yul\":4513:4794   */\n    tag_357:\n        /* \"#utility.yul\":4596:4623   */\n      tag_460\n        /* \"#utility.yul\":4618:4622   */\n      dup3\n        /* \"#utility.yul\":4596:4623   */\n      tag_355\n      jump\t// in\n    tag_460:\n        /* \"#utility.yul\":4588:4594   */\n      dup2\n        /* \"#utility.yul\":4584:4624   */\n      add\n        /* \"#utility.yul\":4726:4732   */\n      dup2\n        /* \"#utility.yul\":4714:4724   */\n      dup2\n        /* \"#utility.yul\":4711:4733   */\n      lt\n        /* \"#utility.yul\":4690:4708   */\n      0xffffffffffffffff\n        /* \"#utility.yul\":4678:4688   */\n      dup3\n        /* \"#utility.yul\":4675:4709   */\n      gt\n        /* \"#utility.yul\":4672:4734   */\n      or\n        /* \"#utility.yul\":4669:4757   */\n      iszero\n      tag_461\n      jumpi\n        /* \"#utility.yul\":4737:4755   */\n      tag_462\n      tag_356\n      jump\t// in\n    tag_462:\n        /* \"#utility.yul\":4669:4757   */\n    tag_461:\n        /* \"#utility.yul\":4777:4787   */\n      dup1\n        /* \"#utility.yul\":4773:4775   */\n      0x40\n        /* \"#utility.yul\":4766:4788   */\n      mstore\n        /* \"#utility.yul\":4556:4794   */\n      pop\n        /* \"#utility.yul\":4513:4794   */\n      pop\n      pop\n      jump\t// out\n        /* \"#utility.yul\":4800:4929   */\n    tag_358:\n        /* \"#utility.yul\":4834:4840   */\n      0x00\n        /* \"#utility.yul\":4861:4881   */\n      tag_464\n      tag_337\n      jump\t// in\n    tag_464:\n        /* \"#utility.yul\":4851:4881   */\n      swap1\n      pop\n        /* \"#utility.yul\":4890:4923   */\n      tag_465\n        /* \"#utility.yul\":4918:4922   */\n      dup3\n        /* \"#utility.yul\":4910:4916   */\n      dup3\n        /* \"#utility.yul\":4890:4923   */\n      tag_357\n      jump\t// in\n    tag_465:\n        /* \"#utility.yul\":4800:4929   */\n      swap2\n      swap1\n      pop\n      jump\t// out\n        /* \"#utility.yul\":4935:5246   */\n    tag_359:\n        /* \"#utility.yul\":5012:5016   */\n      0x00\n        /* \"#utility.yul\":5102:5120   */\n      0xffffffffffffffff\n        /* \"#utility.yul\":5094:5100   */\n      dup3\n        /* \"#utility.yul\":5091:5121   */\n      gt\n        /* \"#utility.yul\":5088:5144   */\n      iszero\n      tag_467\n      jumpi\n        /* \"#utility.yul\":5124:5142   */\n      tag_468\n      tag_356\n      jump\t// in\n    tag_468:\n        /* \"#utility.yul\":5088:5144   */\n    tag_467:\n        /* \"#utility.yul\":5174:5178   */\n      0x20\n        /* \"#utility.yul\":5166:5172   */\n      dup3\n        /* \"#utility.yul\":5162:5179   */\n      mul\n        /* \"#utility.yul\":5154:5179   */\n      swap1\n      pop\n        /* \"#utility.yul\":5234:5238   */\n      0x20\n        /* \"#utility.yul\":5228:5232   */\n      dup2\n        /* \"#utility.yul\":5224:5239   */\n      add\n        /* \"#utility.yul\":5216:5239   */\n      swap1\n      pop\n        /* \"#utility.yul\":4935:5246   */\n      swap2\n      swap1\n      pop\n      jump\t// out\n        /* \"#utility.yul\":5252:5369   */\n    tag_360:\n        /* \"#utility.yul\":5361:5362   */\n      0x00\n        /* \"#utility.yul\":5358:5359   */\n      dup1\n        /* \"#utility.yul\":5351:5363   */\n      revert\n        /* \"#utility.yul\":5392:6102   */\n    tag_361:\n        /* \"#utility.yul\":5488:5493   */\n      0x00\n        /* \"#utility.yul\":5513:5594   */\n      tag_471\n        /* \"#utility.yul\":5529:5593   */\n      tag_472\n        /* \"#utility.yul\":5586:5592   */\n      dup5\n        /* \"#utility.yul\":5529:5593   */\n      tag_359\n      jump\t// in\n    tag_472:\n        /* \"#utility.yul\":5513:5594   */\n      tag_358\n      jump\t// in\n    tag_471:\n        /* \"#utility.yul\":5504:5594   */\n      swap1\n      pop\n        /* \"#utility.yul\":5614:5619   */\n      dup1\n        /* \"#utility.yul\":5643:5649   */\n      dup4\n        /* \"#utility.yul\":5636:5641   */\n      dup3\n        /* \"#utility.yul\":5629:5650   */\n      mstore\n        /* \"#utility.yul\":5677:5681   */\n      0x20\n        /* \"#utility.yul\":5670:5675   */\n      dup3\n        /* \"#utility.yul\":5666:5682   */\n      add\n        /* \"#utility.yul\":5659:5682   */\n      swap1\n      pop\n        /* \"#utility.yul\":5730:5734   */\n      0x20\n        /* \"#utility.yul\":5722:5728   */\n      dup5\n        /* \"#utility.yul\":5718:5735   */\n      mul\n        /* \"#utility.yul\":5710:5716   */\n      dup4\n        /* \"#utility.yul\":5706:5736   */\n      add\n        /* \"#utility.yul\":5759:5762   */\n      dup6\n        /* \"#utility.yul\":5751:5757   */\n      dup2\n        /* \"#utility.yul\":5748:5763   */\n      gt\n        /* \"#utility.yul\":5745:5867   */\n      iszero\n      tag_473\n      jumpi\n        /* \"#utility.yul\":5778:5857   */\n      tag_474\n      tag_360\n      jump\t// in\n    tag_474:\n        /* \"#utility.yul\":5745:5867   */\n    tag_473:\n        /* \"#utility.yul\":5893:5899   */\n      dup4\n        /* \"#utility.yul\":5876:6096   */\n    tag_475:\n        /* \"#utility.yul\":5910:5916   */\n      dup2\n        /* \"#utility.yul\":5905:5908   */\n      dup2\n        /* \"#utility.yul\":5902:5917   */\n      lt\n        /* \"#utility.yul\":5876:6096   */\n      iszero\n      tag_477\n      jumpi\n        /* \"#utility.yul\":5985:5988   */\n      dup1\n        /* \"#utility.yul\":6014:6051   */\n      tag_478\n        /* \"#utility.yul\":6047:6050   */\n      dup9\n        /* \"#utility.yul\":6035:6045   */\n      dup3\n        /* \"#utility.yul\":6014:6051   */\n      tag_346\n      jump\t// in\n    tag_478:\n        /* \"#utility.yul\":6009:6012   */\n      dup5\n        /* \"#utility.yul\":6002:6052   */\n      mstore\n        /* \"#utility.yul\":6081:6085   */\n      0x20\n        /* \"#utility.yul\":6076:6079   */\n      dup5\n        /* \"#utility.yul\":6072:6086   */\n      add\n        /* \"#utility.yul\":6065:6086   */\n      swap4\n      pop\n        /* \"#utility.yul\":5952:6096   */\n      pop\n        /* \"#utility.yul\":5936:5940   */\n      0x20\n        /* \"#utility.yul\":5931:5934   */\n      dup2\n        /* \"#utility.yul\":5927:5941   */\n      add\n        /* \"#utility.yul\":5920:5941   */\n      swap1\n      pop\n        /* \"#utility.yul\":5876:6096   */\n      jump(tag_475)\n    tag_477:\n        /* \"#utility.yul\":5880:5901   */\n      pop\n        /* \"#utility.yul\":5494:6102   */\n      pop\n      pop\n        /* \"#utility.yul\":5392:6102   */\n      swap4\n      swap3\n      pop\n      pop\n      pop\n      jump\t// out\n        /* \"#utility.yul\":6125:6495   */\n    tag_362:\n        /* \"#utility.yul\":6196:6201   */\n      0x00\n        /* \"#utility.yul\":6245:6248   */\n      dup3\n        /* \"#utility.yul\":6238:6242   */\n      0x1f\n        /* \"#utility.yul\":6230:6236   */\n      dup4\n        /* \"#utility.yul\":6226:6243   */\n      add\n        /* \"#utility.yul\":6222:6249   */\n      slt\n        /* \"#utility.yul\":6212:6334   */\n      tag_480\n      jumpi\n        /* \"#utility.yul\":6253:6332   */\n      tag_481\n      tag_354\n      jump\t// in\n    tag_481:\n        /* \"#utility.yul\":6212:6334   */\n    tag_480:\n        /* \"#utility.yul\":6370:6376   */\n      dup2\n        /* \"#utility.yul\":6357:6377   */\n      calldataload\n        /* \"#utility.yul\":6395:6489   */\n      tag_482\n        /* \"#utility.yul\":6485:6488   */\n      dup5\n        /* \"#utility.yul\":6477:6483   */\n      dup3\n        /* \"#utility.yul\":6470:6474   */\n      0x20\n        /* \"#utility.yul\":6462:6468   */\n      dup7\n        /* \"#utility.yul\":6458:6475   */\n      add\n        /* \"#utility.yul\":6395:6489   */\n      tag_361\n      jump\t// in\n    tag_482:\n        /* \"#utility.yul\":6386:6489   */\n      swap2\n      pop\n        /* \"#utility.yul\":6202:6495   */\n      pop\n        /* \"#utility.yul\":6125:6495   */\n      swap3\n      swap2\n      pop\n      pop\n      jump\t// out\n        /* \"#utility.yul\":6501:6812   */\n    tag_363:\n        /* \"#utility.yul\":6578:6582   */\n      0x00\n        /* \"#utility.yul\":6668:6686   */\n      0xffffffffffffffff\n        /* \"#utility.yul\":6660:6666   */\n      dup3\n        /* \"#utility.yul\":6657:6687   */\n      gt\n        /* \"#utility.yul\":6654:6710   */\n      iszero\n      tag_484\n      jumpi\n        /* \"#utility.yul\":6690:6708   */\n      tag_485\n      tag_356\n      jump\t// in\n    tag_485:\n        /* \"#utility.yul\":6654:6710   */\n    tag_484:\n        /* \"#utility.yul\":6740:6744   */\n      0x20\n        /* \"#utility.yul\":6732:6738   */\n      dup3\n        /* \"#utility.yul\":6728:6745   */\n      mul\n        /* \"#utility.yul\":6720:6745   */\n      swap1\n      pop\n        /* \"#utility.yul\":6800:6804   */\n      0x20\n        /* \"#utility.yul\":6794:6798   */\n      dup2\n        /* \"#utility.yul\":6790:6805   */\n      add\n        /* \"#utility.yul\":6782:6805   */\n      swap1\n      pop\n        /* \"#utility.yul\":6501:6812   */\n      swap2\n      swap1\n      pop\n      jump\t// out\n        /* \"#utility.yul\":6835:7545   */\n    tag_364:\n        /* \"#utility.yul\":6931:6936   */\n      0x00\n        /* \"#utility.yul\":6956:7037   */\n      tag_487\n        /* \"#utility.yul\":6972:7036   */\n      tag_488\n        /* \"#utility.yul\":7029:7035   */\n      dup5\n        /* \"#utility.yul\":6972:7036   */\n      tag_363\n      jump\t// in\n    tag_488:\n        /* \"#utility.yul\":6956:7037   */\n      tag_358\n      jump\t// in\n    tag_487:\n        /* \"#utility.yul\":6947:7037   */\n      swap1\n      pop\n        /* \"#utility.yul\":7057:7062   */\n      dup1\n        /* \"#utility.yul\":7086:7092   */\n      dup4\n        /* \"#utility.yul\":7079:7084   */\n      dup3\n        /* \"#utility.yul\":7072:7093   */\n      mstore\n        /* \"#utility.yul\":7120:7124   */\n      0x20\n        /* \"#utility.yul\":7113:7118   */\n      dup3\n        /* \"#utility.yul\":7109:7125   */\n      add\n        /* \"#utility.yul\":7102:7125   */\n      swap1\n      pop\n        /* \"#utility.yul\":7173:7177   */\n      0x20\n        /* \"#utility.yul\":7165:7171   */\n      dup5\n        /* \"#utility.yul\":7161:7178   */\n      mul\n        /* \"#utility.yul\":7153:7159   */\n      dup4\n        /* \"#utility.yul\":7149:7179   */\n      add\n        /* \"#utility.yul\":7202:7205   */\n      dup6\n        /* \"#utility.yul\":7194:7200   */\n      dup2\n        /* \"#utility.yul\":7191:7206   */\n      gt\n        /* \"#utility.yul\":7188:7310   */\n      iszero\n      tag_489\n      jumpi\n        /* \"#utility.yul\":7221:7300   */\n      tag_490\n      tag_360\n      jump\t// in\n    tag_490:\n        /* \"#utility.yul\":7188:7310   */\n    tag_489:\n        /* \"#utility.yul\":7336:7342   */\n      dup4\n        /* \"#utility.yul\":7319:7539   */\n    tag_491:\n        /* \"#utility.yul\":7353:7359   */\n      dup2\n        /* \"#utility.yul\":7348:7351   */\n      dup2\n        /* \"#utility.yul\":7345:7360   */\n      lt\n        /* \"#utility.yul\":7319:7539   */\n      iszero\n      tag_493\n      jumpi\n        /* \"#utility.yul\":7428:7431   */\n      dup1\n        /* \"#utility.yul\":7457:7494   */\n      tag_494\n        /* \"#utility.yul\":7490:7493   */\n      dup9\n        /* \"#utility.yul\":7478:7488   */\n      dup3\n        /* \"#utility.yul\":7457:7494   */\n      tag_342\n      jump\t// in\n    tag_494:\n        /* \"#utility.yul\":7452:7455   */\n      dup5\n        /* \"#utility.yul\":7445:7495   */\n      mstore\n        /* \"#utility.yul\":7524:7528   */\n      0x20\n        /* \"#utility.yul\":7519:7522   */\n      dup5\n        /* \"#utility.yul\":7515:7529   */\n      add\n        /* \"#utility.yul\":7508:7529   */\n      swap4\n      pop\n        /* \"#utility.yul\":7395:7539   */\n      pop\n        /* \"#utility.yul\":7379:7383   */\n      0x20\n        /* \"#utility.yul\":7374:7377   */\n      dup2\n        /* \"#utility.yul\":7370:7384   */\n      add\n        /* \"#utility.yul\":7363:7384   */\n      swap1\n      pop\n        /* \"#utility.yul\":7319:7539   */\n      jump(tag_491)\n    tag_493:\n        /* \"#utility.yul\":7323:7344   */\n      pop\n        /* \"#utility.yul\":6937:7545   */\n      pop\n      pop\n        /* \"#utility.yul\":6835:7545   */\n      swap4\n      swap3\n      pop\n      pop\n      pop\n      jump\t// out\n        /* \"#utility.yul\":7568:7938   */\n    tag_365:\n        /* \"#utility.yul\":7639:7644   */\n      0x00\n        /* \"#utility.yul\":7688:7691   */\n      dup3\n        /* \"#utility.yul\":7681:7685   */\n      0x1f\n        /* \"#utility.yul\":7673:7679   */\n      dup4\n        /* \"#utility.yul\":7669:7686   */\n      add\n        /* \"#utility.yul\":7665:7692   */\n      slt\n        /* \"#utility.yul\":7655:7777   */\n      tag_496\n      jumpi\n        /* \"#utility.yul\":7696:7775   */\n      tag_497\n      tag_354\n      jump\t// in\n    tag_497:\n        /* \"#utility.yul\":7655:7777   */\n    tag_496:\n        /* \"#utility.yul\":7813:7819   */\n      dup2\n        /* \"#utility.yul\":7800:7820   */\n      calldataload\n        /* \"#utility.yul\":7838:7932   */\n      tag_498\n        /* \"#utility.yul\":7928:7931   */\n      dup5\n        /* \"#utility.yul\":7920:7926   */\n      dup3\n        /* \"#utility.yul\":7913:7917   */\n      0x20\n        /* \"#utility.yul\":7905:7911   */\n      dup7\n        /* \"#utility.yul\":7901:7918   */\n      add\n        /* \"#utility.yul\":7838:7932   */\n      tag_364\n      jump\t// in\n    tag_498:\n        /* \"#utility.yul\":7829:7932   */\n      swap2\n      pop\n        /* \"#utility.yul\":7645:7938   */\n      pop\n        /* \"#utility.yul\":7568:7938   */\n      swap3\n      swap2\n      pop\n      pop\n      jump\t// out\n        /* \"#utility.yul\":7944:9011   */\n    tag_76:\n        /* \"#utility.yul\":8085:8091   */\n      0x00\n        /* \"#utility.yul\":8093:8099   */\n      dup1\n        /* \"#utility.yul\":8101:8107   */\n      0x00\n        /* \"#utility.yul\":8150:8152   */\n      0x60\n        /* \"#utility.yul\":8138:8147   */\n      dup5\n        /* \"#utility.yul\":8129:8136   */\n      dup7\n        /* \"#utility.yul\":8125:8148   */\n      sub\n        /* \"#utility.yul\":8121:8153   */\n      slt\n        /* \"#utility.yul\":8118:8237   */\n      iszero\n      tag_500\n      jumpi\n        /* \"#utility.yul\":8156:8235   */\n      tag_501\n      tag_338\n      jump\t// in\n    tag_501:\n        /* \"#utility.yul\":8118:8237   */\n    tag_500:\n        /* \"#utility.yul\":8276:8277   */\n      0x00\n        /* \"#utility.yul\":8301:8368   */\n      tag_502\n        /* \"#utility.yul\":8360:8367   */\n      dup7\n        /* \"#utility.yul\":8351:8357   */\n      dup3\n        /* \"#utility.yul\":8340:8349   */\n      dup8\n        /* \"#utility.yul\":8336:8358   */\n      add\n        /* \"#utility.yul\":8301:8368   */\n      tag_350\n      jump\t// in\n    tag_502:\n        /* \"#utility.yul\":8291:8368   */\n      swap4\n      pop\n        /* \"#utility.yul\":8247:8378   */\n      pop\n        /* \"#utility.yul\":8445:8447   */\n      0x20\n        /* \"#utility.yul\":8434:8443   */\n      dup5\n        /* \"#utility.yul\":8430:8448   */\n      add\n        /* \"#utility.yul\":8417:8449   */\n      calldataload\n        /* \"#utility.yul\":8476:8494   */\n      0xffffffffffffffff\n        /* \"#utility.yul\":8468:8474   */\n      dup2\n        /* \"#utility.yul\":8465:8495   */\n      gt\n        /* \"#utility.yul\":8462:8579   */\n      iszero\n      tag_503\n      jumpi\n        /* \"#utility.yul\":8498:8577   */\n      tag_504\n      tag_339\n      jump\t// in\n    tag_504:\n        /* \"#utility.yul\":8462:8579   */\n    tag_503:\n        /* \"#utility.yul\":8603:8681   */\n      tag_505\n        /* \"#utility.yul\":8673:8680   */\n      dup7\n        /* \"#utility.yul\":8664:8670   */\n      dup3\n        /* \"#utility.yul\":8653:8662   */\n      dup8\n        /* \"#utility.yul\":8649:8671   */\n      add\n        /* \"#utility.yul\":8603:8681   */\n      tag_362\n      jump\t// in\n    tag_505:\n        /* \"#utility.yul\":8593:8681   */\n      swap3\n      pop\n        /* \"#utility.yul\":8388:8691   */\n      pop\n        /* \"#utility.yul\":8758:8760   */\n      0x40\n        /* \"#utility.yul\":8747:8756   */\n      dup5\n        /* \"#utility.yul\":8743:8761   */\n      add\n        /* \"#utility.yul\":8730:8762   */\n      calldataload\n        /* \"#utility.yul\":8789:8807   */\n      0xffffffffffffffff\n        /* \"#utility.yul\":8781:8787   */\n      dup2\n        /* \"#utility.yul\":8778:8808   */\n      gt\n        /* \"#utility.yul\":8775:8892   */\n      iszero\n      tag_506\n      jumpi\n        /* \"#utility.yul\":8811:8890   */\n      tag_507\n      tag_339\n      jump\t// in\n    tag_507:\n        /* \"#utility.yul\":8775:8892   */\n    tag_506:\n        /* \"#utility.yul\":8916:8994   */\n      tag_508\n        /* \"#utility.yul\":8986:8993   */\n      dup7\n        /* \"#utility.yul\":8977:8983   */\n      dup3\n        /* \"#utility.yul\":8966:8975   */\n      dup8\n        /* \"#utility.yul\":8962:8984   */\n      add\n        /* \"#utility.yul\":8916:8994   */\n      tag_365\n      jump\t// in\n    tag_508:\n        /* \"#utility.yul\":8906:8994   */\n      swap2\n      pop\n        /* \"#utility.yul\":8701:9004   */\n      pop\n        /* \"#utility.yul\":7944:9011   */\n      swap3\n      pop\n      swap3\n      pop\n      swap3\n      jump\t// out\n        /* \"#utility.yul\":9017:9077   */\n    tag_366:\n        /* \"#utility.yul\":9045:9048   */\n      0x00\n        /* \"#utility.yul\":9066:9071   */\n      dup2\n        /* \"#utility.yul\":9059:9071   */\n      swap1\n      pop\n        /* \"#utility.yul\":9017:9077   */\n      swap2\n      swap1\n      pop\n      jump\t// out\n        /* \"#utility.yul\":9083:9225   */\n    tag_367:\n        /* \"#utility.yul\":9133:9142   */\n      0x00\n        /* \"#utility.yul\":9166:9219   */\n      tag_511\n        /* \"#utility.yul\":9184:9218   */\n      tag_512\n        /* \"#utility.yul\":9193:9217   */\n      tag_513\n        /* \"#utility.yul\":9211:9216   */\n      dup5\n        /* \"#utility.yul\":9193:9217   */\n      tag_343\n      jump\t// in\n    tag_513:\n        /* \"#utility.yul\":9184:9218   */\n      tag_366\n      jump\t// in\n    tag_512:\n        /* \"#utility.yul\":9166:9219   */\n      tag_343\n      jump\t// in\n    tag_511:\n        /* \"#utility.yul\":9153:9219   */\n      swap1\n      pop\n        /* \"#utility.yul\":9083:9225   */\n      swap2\n      swap1\n      pop\n      jump\t// out\n        /* \"#utility.yul\":9231:9357   */\n    tag_368:\n        /* \"#utility.yul\":9281:9290   */\n      0x00\n        /* \"#utility.yul\":9314:9351   */\n      tag_515\n        /* \"#utility.yul\":9345:9350   */\n      dup3\n        /* \"#utility.yul\":9314:9351   */\n      tag_367\n      jump\t// in\n    tag_515:\n        /* \"#utility.yul\":9301:9351   */\n      swap1\n      pop\n        /* \"#utility.yul\":9231:9357   */\n      swap2\n      swap1\n      pop\n      jump\t// out\n        /* \"#utility.yul\":9363:9503   */\n    tag_369:\n        /* \"#utility.yul\":9427:9436   */\n      0x00\n        /* \"#utility.yul\":9460:9497   */\n      tag_517\n        /* \"#utility.yul\":9491:9496   */\n      dup3\n        /* \"#utility.yul\":9460:9497   */\n      tag_368\n      jump\t// in\n    tag_517:\n        /* \"#utility.yul\":9447:9497   */\n      swap1\n      pop\n        /* \"#utility.yul\":9363:9503   */\n      swap2\n      swap1\n      pop\n      jump\t// out\n        /* \"#utility.yul\":9509:9668   */\n    tag_370:\n        /* \"#utility.yul\":9610:9661   */\n      tag_519\n        /* \"#utility.yul\":9655:9660   */\n      dup2\n        /* \"#utility.yul\":9610:9661   */\n      tag_369\n      jump\t// in\n    tag_519:\n        /* \"#utility.yul\":9605:9608   */\n      dup3\n        /* \"#utility.yul\":9598:9662   */\n      mstore\n        /* \"#utility.yul\":9509:9668   */\n      pop\n      pop\n      jump\t// out\n        /* \"#utility.yul\":9674:9924   */\n    tag_82:\n        /* \"#utility.yul\":9781:9785   */\n      0x00\n        /* \"#utility.yul\":9819:9821   */\n      0x20\n        /* \"#utility.yul\":9808:9817   */\n      dup3\n        /* \"#utility.yul\":9804:9822   */\n      add\n        /* \"#utility.yul\":9796:9822   */\n      swap1\n      pop\n        /* \"#utility.yul\":9832:9917   */\n      tag_521\n        /* \"#utility.yul\":9914:9915   */\n      0x00\n        /* \"#utility.yul\":9903:9912   */\n      dup4\n        /* \"#utility.yul\":9899:9916   */\n      add\n        /* \"#utility.yul\":9890:9896   */\n      dup5\n        /* \"#utility.yul\":9832:9917   */\n      tag_370\n      jump\t// in\n    tag_521:\n        /* \"#utility.yul\":9674:9924   */\n      swap3\n      swap2\n      pop\n      pop\n      jump\t// out\n        /* \"#utility.yul\":9930:10824   */\n    tag_94:\n        /* \"#utility.yul\":10048:10054   */\n      0x00\n        /* \"#utility.yul\":10056:10062   */\n      dup1\n        /* \"#utility.yul\":10105:10107   */\n      0x40\n        /* \"#utility.yul\":10093:10102   */\n      dup4\n        /* \"#utility.yul\":10084:10091   */\n      dup6\n        /* \"#utility.yul\":10080:10103   */\n      sub\n        /* \"#utility.yul\":10076:10108   */\n      slt\n        /* \"#utility.yul\":10073:10192   */\n      iszero\n      tag_523\n      jumpi\n        /* \"#utility.yul\":10111:10190   */\n      tag_524\n      tag_338\n      jump\t// in\n    tag_524:\n        /* \"#utility.yul\":10073:10192   */\n    tag_523:\n        /* \"#utility.yul\":10259:10260   */\n      0x00\n        /* \"#utility.yul\":10248:10257   */\n      dup4\n        /* \"#utility.yul\":10244:10261   */\n      add\n        /* \"#utility.yul\":10231:10262   */\n      calldataload\n        /* \"#utility.yul\":10289:10307   */\n      0xffffffffffffffff\n        /* \"#utility.yul\":10281:10287   */\n      dup2\n        /* \"#utility.yul\":10278:10308   */\n      gt\n        /* \"#utility.yul\":10275:10392   */\n      iszero\n      tag_525\n      jumpi\n        /* \"#utility.yul\":10311:10390   */\n      tag_526\n      tag_339\n      jump\t// in\n    tag_526:\n        /* \"#utility.yul\":10275:10392   */\n    tag_525:\n        /* \"#utility.yul\":10416:10494   */\n      tag_527\n        /* \"#utility.yul\":10486:10493   */\n      dup6\n        /* \"#utility.yul\":10477:10483   */\n      dup3\n        /* \"#utility.yul\":10466:10475   */\n      dup7\n        /* \"#utility.yul\":10462:10484   */\n      add\n        /* \"#utility.yul\":10416:10494   */\n      tag_362\n      jump\t// in\n    tag_527:\n        /* \"#utility.yul\":10406:10494   */\n      swap3\n      pop\n        /* \"#utility.yul\":10202:10504   */\n      pop\n        /* \"#utility.yul\":10571:10573   */\n      0x20\n        /* \"#utility.yul\":10560:10569   */\n      dup4\n        /* \"#utility.yul\":10556:10574   */\n      add\n        /* \"#utility.yul\":10543:10575   */\n      calldataload\n        /* \"#utility.yul\":10602:10620   */\n      0xffffffffffffffff\n        /* \"#utility.yul\":10594:10600   */\n      dup2\n        /* \"#utility.yul\":10591:10621   */\n      gt\n        /* \"#utility.yul\":10588:10705   */\n      iszero\n      tag_528\n      jumpi\n        /* \"#utility.yul\":10624:10703   */\n      tag_529\n      tag_339\n      jump\t// in\n    tag_529:\n        /* \"#utility.yul\":10588:10705   */\n    tag_528:\n        /* \"#utility.yul\":10729:10807   */\n      tag_530\n        /* \"#utility.yul\":10799:10806   */\n      dup6\n        /* \"#utility.yul\":10790:10796   */\n      dup3\n        /* \"#utility.yul\":10779:10788   */\n      dup7\n        /* \"#utility.yul\":10775:10797   */\n      add\n        /* \"#utility.yul\":10729:10807   */\n      tag_365\n      jump\t// in\n    tag_530:\n        /* \"#utility.yul\":10719:10807   */\n      swap2\n      pop\n        /* \"#utility.yul\":10514:10817   */\n      pop\n        /* \"#utility.yul\":9930:10824   */\n      swap3\n      pop\n      swap3\n      swap1\n      pop\n      jump\t// out\n        /* \"#utility.yul\":10830:10934   */\n    tag_371:\n        /* \"#utility.yul\":10875:10882   */\n      0x00\n        /* \"#utility.yul\":10904:10928   */\n      tag_532\n        /* \"#utility.yul\":10922:10927   */\n      dup3\n        /* \"#utility.yul\":10904:10928   */\n      tag_343\n      jump\t// in\n    tag_532:\n        /* \"#utility.yul\":10893:10928   */\n      swap1\n      pop\n        /* \"#utility.yul\":10830:10934   */\n      swap2\n      swap1\n      pop\n      jump\t// out\n        /* \"#utility.yul\":10940:11082   */\n    tag_372:\n        /* \"#utility.yul\":11043:11075   */\n      tag_534\n        /* \"#utility.yul\":11069:11074   */\n      dup2\n        /* \"#utility.yul\":11043:11075   */\n      tag_371\n      jump\t// in\n    tag_534:\n        /* \"#utility.yul\":11038:11041   */\n      dup3\n        /* \"#utility.yul\":11031:11076   */\n      mstore\n        /* \"#utility.yul\":10940:11082   */\n      pop\n      pop\n      jump\t// out\n        /* \"#utility.yul\":11088:11342   */\n    tag_108:\n        /* \"#utility.yul\":11197:11201   */\n      0x00\n        /* \"#utility.yul\":11235:11237   */\n      0x20\n        /* \"#utility.yul\":11224:11233   */\n      dup3\n        /* \"#utility.yul\":11220:11238   */\n      add\n        /* \"#utility.yul\":11212:11238   */\n      swap1\n      pop\n        /* \"#utility.yul\":11248:11335   */\n      tag_536\n        /* \"#utility.yul\":11332:11333   */\n      0x00\n        /* \"#utility.yul\":11321:11330   */\n      dup4\n        /* \"#utility.yul\":11317:11334   */\n      add\n        /* \"#utility.yul\":11308:11314   */\n      dup5\n        /* \"#utility.yul\":11248:11335   */\n      tag_372\n      jump\t// in\n    tag_536:\n        /* \"#utility.yul\":11088:11342   */\n      swap3\n      swap2\n      pop\n      pop\n      jump\t// out\n        /* \"#utility.yul\":11348:11677   */\n    tag_112:\n        /* \"#utility.yul\":11407:11413   */\n      0x00\n        /* \"#utility.yul\":11456:11458   */\n      0x20\n        /* \"#utility.yul\":11444:11453   */\n      dup3\n        /* \"#utility.yul\":11435:11442   */\n      dup5\n        /* \"#utility.yul\":11431:11454   */\n      sub\n        /* \"#utility.yul\":11427:11459   */\n      slt\n        /* \"#utility.yul\":11424:11543   */\n      iszero\n      tag_538\n      jumpi\n        /* \"#utility.yul\":11462:11541   */\n      tag_539\n      tag_338\n      jump\t// in\n    tag_539:\n        /* \"#utility.yul\":11424:11543   */\n    tag_538:\n        /* \"#utility.yul\":11582:11583   */\n      0x00\n        /* \"#utility.yul\":11607:11660   */\n      tag_540\n        /* \"#utility.yul\":11652:11659   */\n      dup5\n        /* \"#utility.yul\":11643:11649   */\n      dup3\n        /* \"#utility.yul\":11632:11641   */\n      dup6\n        /* \"#utility.yul\":11628:11650   */\n      add\n        /* \"#utility.yul\":11607:11660   */\n      tag_342\n      jump\t// in\n    tag_540:\n        /* \"#utility.yul\":11597:11660   */\n      swap2\n      pop\n        /* \"#utility.yul\":11553:11670   */\n      pop\n        /* \"#utility.yul\":11348:11677   */\n      swap3\n      swap2\n      pop\n      pop\n      jump\t// out\n        /* \"#utility.yul\":11683:11826   */\n    tag_373:\n        /* \"#utility.yul\":11740:11745   */\n      0x00\n        /* \"#utility.yul\":11771:11777   */\n      dup2\n        /* \"#utility.yul\":11765:11778   */\n      mload\n        /* \"#utility.yul\":11756:11778   */\n      swap1\n      pop\n        /* \"#utility.yul\":11787:11820   */\n      tag_542\n        /* \"#utility.yul\":11814:11819   */\n      dup2\n        /* \"#utility.yul\":11787:11820   */\n      tag_341\n      jump\t// in\n    tag_542:\n        /* \"#utility.yul\":11683:11826   */\n      swap3\n      swap2\n      pop\n      pop\n      jump\t// out\n        /* \"#utility.yul\":11832:12183   */\n    tag_126:\n        /* \"#utility.yul\":11902:11908   */\n      0x00\n        /* \"#utility.yul\":11951:11953   */\n      0x20\n        /* \"#utility.yul\":11939:11948   */\n      dup3\n        /* \"#utility.yul\":11930:11937   */\n      dup5\n        /* \"#utility.yul\":11926:11949   */\n      sub\n        /* \"#utility.yul\":11922:11954   */\n      slt\n        /* \"#utility.yul\":11919:12038   */\n      iszero\n      tag_544\n      jumpi\n        /* \"#utility.yul\":11957:12036   */\n      tag_545\n      tag_338\n      jump\t// in\n    tag_545:\n        /* \"#utility.yul\":11919:12038   */\n    tag_544:\n        /* \"#utility.yul\":12077:12078   */\n      0x00\n        /* \"#utility.yul\":12102:12166   */\n      tag_546\n        /* \"#utility.yul\":12158:12165   */\n      dup5\n        /* \"#utility.yul\":12149:12155   */\n      dup3\n        /* \"#utility.yul\":12138:12147   */\n      dup6\n        /* \"#utility.yul\":12134:12156   */\n      add\n        /* \"#utility.yul\":12102:12166   */\n      tag_373\n      jump\t// in\n    tag_546:\n        /* \"#utility.yul\":12092:12166   */\n      swap2\n      pop\n        /* \"#utility.yul\":12048:12176   */\n      pop\n        /* \"#utility.yul\":11832:12183   */\n      swap3\n      swap2\n      pop\n      pop\n      jump\t// out\n        /* \"#utility.yul\":12189:12358   */\n    tag_374:\n        /* \"#utility.yul\":12273:12284   */\n      0x00\n        /* \"#utility.yul\":12307:12313   */\n      dup3\n        /* \"#utility.yul\":12302:12305   */\n      dup3\n        /* \"#utility.yul\":12295:12314   */\n      mstore\n        /* \"#utility.yul\":12347:12351   */\n      0x20\n        /* \"#utility.yul\":12342:12345   */\n      dup3\n        /* \"#utility.yul\":12338:12352   */\n      add\n        /* \"#utility.yul\":12323:12352   */\n      swap1\n      pop\n        /* \"#utility.yul\":12189:12358   */\n      swap3\n      swap2\n      pop\n      pop\n      jump\t// out\n        /* \"#utility.yul\":12364:12542   */\n    tag_375:\n        /* \"#utility.yul\":12504:12534   */\n      0x7573657220697320616c726561647920756e617574686f72697a656400000000\n        /* \"#utility.yul\":12500:12501   */\n      0x00\n        /* \"#utility.yul\":12492:12498   */\n      dup3\n        /* \"#utility.yul\":12488:12502   */\n      add\n        /* \"#utility.yul\":12481:12535   */\n      mstore\n        /* \"#utility.yul\":12364:12542   */\n      pop\n      jump\t// out\n        /* \"#utility.yul\":12548:12914   */\n    tag_376:\n        /* \"#utility.yul\":12690:12693   */\n      0x00\n        /* \"#utility.yul\":12711:12778   */\n      tag_550\n        /* \"#utility.yul\":12775:12777   */\n      0x1c\n        /* \"#utility.yul\":12770:12773   */\n      dup4\n        /* \"#utility.yul\":12711:12778   */\n      tag_374\n      jump\t// in\n    tag_550:\n        /* \"#utility.yul\":12704:12778   */\n      swap2\n      pop\n        /* \"#utility.yul\":12787:12880   */\n      tag_551\n        /* \"#utility.yul\":12876:12879   */\n      dup3\n        /* \"#utility.yul\":12787:12880   */\n      tag_375\n      jump\t// in\n    tag_551:\n        /* \"#utility.yul\":12905:12907   */\n      0x20\n        /* \"#utility.yul\":12900:12903   */\n      dup3\n        /* \"#utility.yul\":12896:12908   */\n      add\n        /* \"#utility.yul\":12889:12908   */\n      swap1\n      pop\n        /* \"#utility.yul\":12548:12914   */\n      swap2\n      swap1\n      pop\n      jump\t// out\n        /* \"#utility.yul\":12920:13339   */\n    tag_132:\n        /* \"#utility.yul\":13086:13090   */\n      0x00\n        /* \"#utility.yul\":13124:13126   */\n      0x20\n        /* \"#utility.yul\":13113:13122   */\n      dup3\n        /* \"#utility.yul\":13109:13127   */\n      add\n        /* \"#utility.yul\":13101:13127   */\n      swap1\n      pop\n        /* \"#utility.yul\":13173:13182   */\n      dup2\n        /* \"#utility.yul\":13167:13171   */\n      dup2\n        /* \"#utility.yul\":13163:13183   */\n      sub\n        /* \"#utility.yul\":13159:13160   */\n      0x00\n        /* \"#utility.yul\":13148:13157   */\n      dup4\n        /* \"#utility.yul\":13144:13161   */\n      add\n        /* \"#utility.yul\":13137:13184   */\n      mstore\n        /* \"#utility.yul\":13201:13332   */\n      tag_553\n        /* \"#utility.yul\":13327:13331   */\n      dup2\n        /* \"#utility.yul\":13201:13332   */\n      tag_376\n      jump\t// in\n    tag_553:\n        /* \"#utility.yul\":13193:13332   */\n      swap1\n      pop\n        /* \"#utility.yul\":12920:13339   */\n      swap2\n      swap1\n      pop\n      jump\t// out\n        /* \"#utility.yul\":13345:13521   */\n    tag_377:\n        /* \"#utility.yul\":13485:13513   */\n      0x7573657220697320616c726561647920617574686f72697a6564000000000000\n        /* \"#utility.yul\":13481:13482   */\n      0x00\n        /* \"#utility.yul\":13473:13479   */\n      dup3\n        /* \"#utility.yul\":13469:13483   */\n      add\n        /* \"#utility.yul\":13462:13514   */\n      mstore\n        /* \"#utility.yul\":13345:13521   */\n      pop\n      jump\t// out\n        /* \"#utility.yul\":13527:13893   */\n    tag_378:\n        /* \"#utility.yul\":13669:13672   */\n      0x00\n        /* \"#utility.yul\":13690:13757   */\n      tag_556\n        /* \"#utility.yul\":13754:13756   */\n      0x1a\n        /* \"#utility.yul\":13749:13752   */\n      dup4\n        /* \"#utility.yul\":13690:13757   */\n      tag_374\n      jump\t// in\n    tag_556:\n        /* \"#utility.yul\":13683:13757   */\n      swap2\n      pop\n        /* \"#utility.yul\":13766:13859   */\n      tag_557\n        /* \"#utility.yul\":13855:13858   */\n      dup3\n        /* \"#utility.yul\":13766:13859   */\n      tag_377\n      jump\t// in\n    tag_557:\n        /* \"#utility.yul\":13884:13886   */\n      0x20\n        /* \"#utility.yul\":13879:13882   */\n      dup3\n        /* \"#utility.yul\":13875:13887   */\n      add\n        /* \"#utility.yul\":13868:13887   */\n      swap1\n      pop\n        /* \"#utility.yul\":13527:13893   */\n      swap2\n      swap1\n      pop\n      jump\t// out\n        /* \"#utility.yul\":13899:14318   */\n    tag_138:\n        /* \"#utility.yul\":14065:14069   */\n      0x00\n        /* \"#utility.yul\":14103:14105   */\n      0x20\n        /* \"#utility.yul\":14092:14101   */\n      dup3\n        /* \"#utility.yul\":14088:14106   */\n      add\n        /* \"#utility.yul\":14080:14106   */\n      swap1\n      pop\n        /* \"#utility.yul\":14152:14161   */\n      dup2\n        /* \"#utility.yul\":14146:14150   */\n      dup2\n        /* \"#utility.yul\":14142:14162   */\n      sub\n        /* \"#utility.yul\":14138:14139   */\n      0x00\n        /* \"#utility.yul\":14127:14136   */\n      dup4\n        /* \"#utility.yul\":14123:14140   */\n      add\n        /* \"#utility.yul\":14116:14163   */\n      mstore\n        /* \"#utility.yul\":14180:14311   */\n      tag_559\n        /* \"#utility.yul\":14306:14310   */\n      dup2\n        /* \"#utility.yul\":14180:14311   */\n      tag_378\n      jump\t// in\n    tag_559:\n        /* \"#utility.yul\":14172:14311   */\n      swap1\n      pop\n        /* \"#utility.yul\":13899:14318   */\n      swap2\n      swap1\n      pop\n      jump\t// out\n        /* \"#utility.yul\":14324:14495   */\n    tag_379:\n        /* \"#utility.yul\":14464:14487   */\n      0x746f6b656e20686f6c64696e6720696e76616c69640000000000000000000000\n        /* \"#utility.yul\":14460:14461   */\n      0x00\n        /* \"#utility.yul\":14452:14458   */\n      dup3\n        /* \"#utility.yul\":14448:14462   */\n      add\n        /* \"#utility.yul\":14441:14488   */\n      mstore\n        /* \"#utility.yul\":14324:14495   */\n      pop\n      jump\t// out\n        /* \"#utility.yul\":14501:14867   */\n    tag_380:\n        /* \"#utility.yul\":14643:14646   */\n      0x00\n        /* \"#utility.yul\":14664:14731   */\n      tag_562\n        /* \"#utility.yul\":14728:14730   */\n      0x15\n        /* \"#utility.yul\":14723:14726   */\n      dup4\n        /* \"#utility.yul\":14664:14731   */\n      tag_374\n      jump\t// in\n    tag_562:\n        /* \"#utility.yul\":14657:14731   */\n      swap2\n      pop\n        /* \"#utility.yul\":14740:14833   */\n      tag_563\n        /* \"#utility.yul\":14829:14832   */\n      dup3\n        /* \"#utility.yul\":14740:14833   */\n      tag_379\n      jump\t// in\n    tag_563:\n        /* \"#utility.yul\":14858:14860   */\n      0x20\n        /* \"#utility.yul\":14853:14856   */\n      dup3\n        /* \"#utility.yul\":14849:14861   */\n      add\n        /* \"#utility.yul\":14842:14861   */\n      swap1\n      pop\n        /* \"#utility.yul\":14501:14867   */\n      swap2\n      swap1\n      pop\n      jump\t// out\n        /* \"#utility.yul\":14873:15292   */\n    tag_151:\n        /* \"#utility.yul\":15039:15043   */\n      0x00\n        /* \"#utility.yul\":15077:15079   */\n      0x20\n        /* \"#utility.yul\":15066:15075   */\n      dup3\n        /* \"#utility.yul\":15062:15080   */\n      add\n        /* \"#utility.yul\":15054:15080   */\n      swap1\n      pop\n        /* \"#utility.yul\":15126:15135   */\n      dup2\n        /* \"#utility.yul\":15120:15124   */\n      dup2\n        /* \"#utility.yul\":15116:15136   */\n      sub\n        /* \"#utility.yul\":15112:15113   */\n      0x00\n        /* \"#utility.yul\":15101:15110   */\n      dup4\n        /* \"#utility.yul\":15097:15114   */\n      add\n        /* \"#utility.yul\":15090:15137   */\n      mstore\n        /* \"#utility.yul\":15154:15285   */\n      tag_565\n        /* \"#utility.yul\":15280:15284   */\n      dup2\n        /* \"#utility.yul\":15154:15285   */\n      tag_380\n      jump\t// in\n    tag_565:\n        /* \"#utility.yul\":15146:15285   */\n      swap1\n      pop\n        /* \"#utility.yul\":14873:15292   */\n      swap2\n      swap1\n      pop\n      jump\t// out\n        /* \"#utility.yul\":15298:15462   */\n    tag_381:\n        /* \"#utility.yul\":15438:15454   */\n      0x6e6f74206120636f6e7472616374000000000000000000000000000000000000\n        /* \"#utility.yul\":15434:15435   */\n      0x00\n        /* \"#utility.yul\":15426:15432   */\n      dup3\n        /* \"#utility.yul\":15422:15436   */\n      add\n        /* \"#utility.yul\":15415:15455   */\n      mstore\n        /* \"#utility.yul\":15298:15462   */\n      pop\n      jump\t// out\n        /* \"#utility.yul\":15468:15834   */\n    tag_382:\n        /* \"#utility.yul\":15610:15613   */\n      0x00\n        /* \"#utility.yul\":15631:15698   */\n      tag_568\n        /* \"#utility.yul\":15695:15697   */\n      0x0e\n        /* \"#utility.yul\":15690:15693   */\n      dup4\n        /* \"#utility.yul\":15631:15698   */\n      tag_374\n      jump\t// in\n    tag_568:\n        /* \"#utility.yul\":15624:15698   */\n      swap2\n      pop\n        /* \"#utility.yul\":15707:15800   */\n      tag_569\n        /* \"#utility.yul\":15796:15799   */\n      dup3\n        /* \"#utility.yul\":15707:15800   */\n      tag_381\n      jump\t// in\n    tag_569:\n        /* \"#utility.yul\":15825:15827   */\n      0x20\n        /* \"#utility.yul\":15820:15823   */\n      dup3\n        /* \"#utility.yul\":15816:15828   */\n      add\n        /* \"#utility.yul\":15809:15828   */\n      swap1\n      pop\n        /* \"#utility.yul\":15468:15834   */\n      swap2\n      swap1\n      pop\n      jump\t// out\n        /* \"#utility.yul\":15840:16259   */\n    tag_157:\n        /* \"#utility.yul\":16006:16010   */\n      0x00\n        /* \"#utility.yul\":16044:16046   */\n      0x20\n        /* \"#utility.yul\":16033:16042   */\n      dup3\n        /* \"#utility.yul\":16029:16047   */\n      add\n        /* \"#utility.yul\":16021:16047   */\n      swap1\n      pop\n        /* \"#utility.yul\":16093:16102   */\n      dup2\n        /* \"#utility.yul\":16087:16091   */\n      dup2\n        /* \"#utility.yul\":16083:16103   */\n      sub\n        /* \"#utility.yul\":16079:16080   */\n      0x00\n        /* \"#utility.yul\":16068:16077   */\n      dup4\n        /* \"#utility.yul\":16064:16081   */\n      add\n        /* \"#utility.yul\":16057:16104   */\n      mstore\n        /* \"#utility.yul\":16121:16252   */\n      tag_571\n        /* \"#utility.yul\":16247:16251   */\n      dup2\n        /* \"#utility.yul\":16121:16252   */\n      tag_382\n      jump\t// in\n    tag_571:\n        /* \"#utility.yul\":16113:16252   */\n      swap1\n      pop\n        /* \"#utility.yul\":15840:16259   */\n      swap2\n      swap1\n      pop\n      jump\t// out\n        /* \"#utility.yul\":16265:16428   */\n    tag_383:\n        /* \"#utility.yul\":16405:16420   */\n      0x696e76616c696420696e70757400000000000000000000000000000000000000\n        /* \"#utility.yul\":16401:16402   */\n      0x00\n        /* \"#utility.yul\":16393:16399   */\n      dup3\n        /* \"#utility.yul\":16389:16403   */\n      add\n        /* \"#utility.yul\":16382:16421   */\n      mstore\n        /* \"#utility.yul\":16265:16428   */\n      pop\n      jump\t// out\n        /* \"#utility.yul\":16434:16800   */\n    tag_384:\n        /* \"#utility.yul\":16576:16579   */\n      0x00\n        /* \"#utility.yul\":16597:16664   */\n      tag_574\n        /* \"#utility.yul\":16661:16663   */\n      0x0d\n        /* \"#utility.yul\":16656:16659   */\n      dup4\n        /* \"#utility.yul\":16597:16664   */\n      tag_374\n      jump\t// in\n    tag_574:\n        /* \"#utility.yul\":16590:16664   */\n      swap2\n      pop\n        /* \"#utility.yul\":16673:16766   */\n      tag_575\n        /* \"#utility.yul\":16762:16765   */\n      dup3\n        /* \"#utility.yul\":16673:16766   */\n      tag_383\n      jump\t// in\n    tag_575:\n        /* \"#utility.yul\":16791:16793   */\n      0x20\n        /* \"#utility.yul\":16786:16789   */\n      dup3\n        /* \"#utility.yul\":16782:16794   */\n      add\n        /* \"#utility.yul\":16775:16794   */\n      swap1\n      pop\n        /* \"#utility.yul\":16434:16800   */\n      swap2\n      swap1\n      pop\n      jump\t// out\n        /* \"#utility.yul\":16806:17225   */\n    tag_160:\n        /* \"#utility.yul\":16972:16976   */\n      0x00\n        /* \"#utility.yul\":17010:17012   */\n      0x20\n        /* \"#utility.yul\":16999:17008   */\n      dup3\n        /* \"#utility.yul\":16995:17013   */\n      add\n        /* \"#utility.yul\":16987:17013   */\n      swap1\n      pop\n        /* \"#utility.yul\":17059:17068   */\n      dup2\n        /* \"#utility.yul\":17053:17057   */\n      dup2\n        /* \"#utility.yul\":17049:17069   */\n      sub\n        /* \"#utility.yul\":17045:17046   */\n      0x00\n        /* \"#utility.yul\":17034:17043   */\n      dup4\n        /* \"#utility.yul\":17030:17047   */\n      add\n        /* \"#utility.yul\":17023:17070   */\n      mstore\n        /* \"#utility.yul\":17087:17218   */\n      tag_577\n        /* \"#utility.yul\":17213:17217   */\n      dup2\n        /* \"#utility.yul\":17087:17218   */\n      tag_384\n      jump\t// in\n    tag_577:\n        /* \"#utility.yul\":17079:17218   */\n      swap1\n      pop\n        /* \"#utility.yul\":16806:17225   */\n      swap2\n      swap1\n      pop\n      jump\t// out\n        /* \"#utility.yul\":17231:17411   */\n    tag_167:\n        /* \"#utility.yul\":17279:17356   */\n      0x4e487b7100000000000000000000000000000000000000000000000000000000\n        /* \"#utility.yul\":17276:17277   */\n      0x00\n        /* \"#utility.yul\":17269:17357   */\n      mstore\n        /* \"#utility.yul\":17376:17380   */\n      0x32\n        /* \"#utility.yul\":17373:17374   */\n      0x04\n        /* \"#utility.yul\":17366:17381   */\n      mstore\n        /* \"#utility.yul\":17400:17404   */\n      0x24\n        /* \"#utility.yul\":17397:17398   */\n      0x00\n        /* \"#utility.yul\":17390:17405   */\n      revert\n        /* \"#utility.yul\":17417:17859   */\n    tag_171:\n        /* \"#utility.yul\":17566:17570   */\n      0x00\n        /* \"#utility.yul\":17604:17606   */\n      0x60\n        /* \"#utility.yul\":17593:17602   */\n      dup3\n        /* \"#utility.yul\":17589:17607   */\n      add\n        /* \"#utility.yul\":17581:17607   */\n      swap1\n      pop\n        /* \"#utility.yul\":17617:17688   */\n      tag_580\n        /* \"#utility.yul\":17685:17686   */\n      0x00\n        /* \"#utility.yul\":17674:17683   */\n      dup4\n        /* \"#utility.yul\":17670:17687   */\n      add\n        /* \"#utility.yul\":17661:17667   */\n      dup7\n        /* \"#utility.yul\":17617:17688   */\n      tag_353\n      jump\t// in\n    tag_580:\n        /* \"#utility.yul\":17698:17770   */\n      tag_581\n        /* \"#utility.yul\":17766:17768   */\n      0x20\n        /* \"#utility.yul\":17755:17764   */\n      dup4\n        /* \"#utility.yul\":17751:17769   */\n      add\n        /* \"#utility.yul\":17742:17748   */\n      dup6\n        /* \"#utility.yul\":17698:17770   */\n      tag_353\n      jump\t// in\n    tag_581:\n        /* \"#utility.yul\":17780:17852   */\n      tag_582\n        /* \"#utility.yul\":17848:17850   */\n      0x40\n        /* \"#utility.yul\":17837:17846   */\n      dup4\n        /* \"#utility.yul\":17833:17851   */\n      add\n        /* \"#utility.yul\":17824:17830   */\n      dup5\n        /* \"#utility.yul\":17780:17852   */\n      tag_347\n      jump\t// in\n    tag_582:\n        /* \"#utility.yul\":17417:17859   */\n      swap5\n      swap4\n      pop\n      pop\n      pop\n      pop\n      jump\t// out\n        /* \"#utility.yul\":17865:17981   */\n    tag_385:\n        /* \"#utility.yul\":17935:17956   */\n      tag_584\n        /* \"#utility.yul\":17950:17955   */\n      dup2\n        /* \"#utility.yul\":17935:17956   */\n      tag_351\n      jump\t// in\n    tag_584:\n        /* \"#utility.yul\":17928:17933   */\n      dup2\n        /* \"#utility.yul\":17925:17957   */\n      eq\n        /* \"#utility.yul\":17915:17975   */\n      tag_585\n      jumpi\n        /* \"#utility.yul\":17971:17972   */\n      0x00\n        /* \"#utility.yul\":17968:17969   */\n      dup1\n        /* \"#utility.yul\":17961:17973   */\n      revert\n        /* \"#utility.yul\":17915:17975   */\n    tag_585:\n        /* \"#utility.yul\":17865:17981   */\n      pop\n      jump\t// out\n        /* \"#utility.yul\":17987:18124   */\n    tag_386:\n        /* \"#utility.yul\":18041:18046   */\n      0x00\n        /* \"#utility.yul\":18072:18078   */\n      dup2\n        /* \"#utility.yul\":18066:18079   */\n      mload\n        /* \"#utility.yul\":18057:18079   */\n      swap1\n      pop\n        /* \"#utility.yul\":18088:18118   */\n      tag_587\n        /* \"#utility.yul\":18112:18117   */\n      dup2\n        /* \"#utility.yul\":18088:18118   */\n      tag_385\n      jump\t// in\n    tag_587:\n        /* \"#utility.yul\":17987:18124   */\n      swap3\n      swap2\n      pop\n      pop\n      jump\t// out\n        /* \"#utility.yul\":18130:18475   */\n    tag_175:\n        /* \"#utility.yul\":18197:18203   */\n      0x00\n        /* \"#utility.yul\":18246:18248   */\n      0x20\n        /* \"#utility.yul\":18234:18243   */\n      dup3\n        /* \"#utility.yul\":18225:18232   */\n      dup5\n        /* \"#utility.yul\":18221:18244   */\n      sub\n        /* \"#utility.yul\":18217:18249   */\n      slt\n        /* \"#utility.yul\":18214:18333   */\n      iszero\n      tag_589\n      jumpi\n        /* \"#utility.yul\":18252:18331   */\n      tag_590\n      tag_338\n      jump\t// in\n    tag_590:\n        /* \"#utility.yul\":18214:18333   */\n    tag_589:\n        /* \"#utility.yul\":18372:18373   */\n      0x00\n        /* \"#utility.yul\":18397:18458   */\n      tag_591\n        /* \"#utility.yul\":18450:18457   */\n      dup5\n        /* \"#utility.yul\":18441:18447   */\n      dup3\n        /* \"#utility.yul\":18430:18439   */\n      dup6\n        /* \"#utility.yul\":18426:18448   */\n      add\n        /* \"#utility.yul\":18397:18458   */\n      tag_386\n      jump\t// in\n    tag_591:\n        /* \"#utility.yul\":18387:18458   */\n      swap2\n      pop\n        /* \"#utility.yul\":18343:18468   */\n      pop\n        /* \"#utility.yul\":18130:18475   */\n      swap3\n      swap2\n      pop\n      pop\n      jump\t// out\n        /* \"#utility.yul\":18481:18652   */\n    tag_387:\n        /* \"#utility.yul\":18621:18644   */\n      0x6572726f7220696e20646973747269627574696f6e0000000000000000000000\n        /* \"#utility.yul\":18617:18618   */\n      0x00\n        /* \"#utility.yul\":18609:18615   */\n      dup3\n        /* \"#utility.yul\":18605:18619   */\n      add\n        /* \"#utility.yul\":18598:18645   */\n      mstore\n        /* \"#utility.yul\":18481:18652   */\n      pop\n      jump\t// out\n        /* \"#utility.yul\":18658:19024   */\n    tag_388:\n        /* \"#utility.yul\":18800:18803   */\n      0x00\n        /* \"#utility.yul\":18821:18888   */\n      tag_594\n        /* \"#utility.yul\":18885:18887   */\n      0x15\n        /* \"#utility.yul\":18880:18883   */\n      dup4\n        /* \"#utility.yul\":18821:18888   */\n      tag_374\n      jump\t// in\n    tag_594:\n        /* \"#utility.yul\":18814:18888   */\n      swap2\n      pop\n        /* \"#utility.yul\":18897:18990   */\n      tag_595\n        /* \"#utility.yul\":18986:18989   */\n      dup3\n        /* \"#utility.yul\":18897:18990   */\n      tag_387\n      jump\t// in\n    tag_595:\n        /* \"#utility.yul\":19015:19017   */\n      0x20\n        /* \"#utility.yul\":19010:19013   */\n      dup3\n        /* \"#utility.yul\":19006:19018   */\n      add\n        /* \"#utility.yul\":18999:19018   */\n      swap1\n      pop\n        /* \"#utility.yul\":18658:19024   */\n      swap2\n      swap1\n      pop\n      jump\t// out\n        /* \"#utility.yul\":19030:19449   */\n    tag_178:\n        /* \"#utility.yul\":19196:19200   */\n      0x00\n        /* \"#utility.yul\":19234:19236   */\n      0x20\n        /* \"#utility.yul\":19223:19232   */\n      dup3\n        /* \"#utility.yul\":19219:19237   */\n      add\n        /* \"#utility.yul\":19211:19237   */\n      swap1\n      pop\n        /* \"#utility.yul\":19283:19292   */\n      dup2\n        /* \"#utility.yul\":19277:19281   */\n      dup2\n        /* \"#utility.yul\":19273:19293   */\n      sub\n        /* \"#utility.yul\":19269:19270   */\n      0x00\n        /* \"#utility.yul\":19258:19267   */\n      dup4\n        /* \"#utility.yul\":19254:19271   */\n      add\n        /* \"#utility.yul\":19247:19294   */\n      mstore\n        /* \"#utility.yul\":19311:19442   */\n      tag_597\n        /* \"#utility.yul\":19437:19441   */\n      dup2\n        /* \"#utility.yul\":19311:19442   */\n      tag_388\n      jump\t// in\n    tag_597:\n        /* \"#utility.yul\":19303:19442   */\n      swap1\n      pop\n        /* \"#utility.yul\":19030:19449   */\n      swap2\n      swap1\n      pop\n      jump\t// out\n        /* \"#utility.yul\":19455:19635   */\n    tag_389:\n        /* \"#utility.yul\":19503:19580   */\n      0x4e487b7100000000000000000000000000000000000000000000000000000000\n        /* \"#utility.yul\":19500:19501   */\n      0x00\n        /* \"#utility.yul\":19493:19581   */\n      mstore\n        /* \"#utility.yul\":19600:19604   */\n      0x11\n        /* \"#utility.yul\":19597:19598   */\n      0x04\n        /* \"#utility.yul\":19590:19605   */\n      mstore\n        /* \"#utility.yul\":19624:19628   */\n      0x24\n        /* \"#utility.yul\":19621:19622   */\n      0x00\n        /* \"#utility.yul\":19614:19629   */\n      revert\n        /* \"#utility.yul\":19641:19874   */\n    tag_180:\n        /* \"#utility.yul\":19680:19683   */\n      0x00\n        /* \"#utility.yul\":19703:19727   */\n      tag_600\n        /* \"#utility.yul\":19721:19726   */\n      dup3\n        /* \"#utility.yul\":19703:19727   */\n      tag_340\n      jump\t// in\n    tag_600:\n        /* \"#utility.yul\":19694:19727   */\n      swap2\n      pop\n        /* \"#utility.yul\":19749:19815   */\n      0xffffffffffffffffffffffffffffffffffffffffffffffffffffffffffffffff\n        /* \"#utility.yul\":19742:19747   */\n      dup3\n        /* \"#utility.yul\":19739:19816   */\n      sub\n        /* \"#utility.yul\":19736:19839   */\n      tag_601\n      jumpi\n        /* \"#utility.yul\":19819:19837   */\n      tag_602\n      tag_389\n      jump\t// in\n    tag_602:\n        /* \"#utility.yul\":19736:19839   */\n    tag_601:\n        /* \"#utility.yul\":19866:19867   */\n      0x01\n        /* \"#utility.yul\":19859:19864   */\n      dup3\n        /* \"#utility.yul\":19855:19868   */\n      add\n        /* \"#utility.yul\":19848:19868   */\n      swap1\n      pop\n        /* \"#utility.yul\":19641:19874   */\n      swap2\n      swap1\n      pop\n      jump\t// out\n        /* \"#utility.yul\":19880:20110   */\n    tag_390:\n        /* \"#utility.yul\":20020:20054   */\n      0x686f6c64696e67202620617574686f72697a6174696f6e2066616c7365207061\n        /* \"#utility.yul\":20016:20017   */\n      0x00\n        /* \"#utility.yul\":20008:20014   */\n      dup3\n        /* \"#utility.yul\":20004:20018   */\n      add\n        /* \"#utility.yul\":19997:20055   */\n      mstore\n        /* \"#utility.yul\":20089:20102   */\n      0x7920657861637420666565000000000000000000000000000000000000000000\n        /* \"#utility.yul\":20084:20086   */\n      0x20\n        /* \"#utility.yul\":20076:20082   */\n      dup3\n        /* \"#utility.yul\":20072:20087   */\n      add\n        /* \"#utility.yul\":20065:20103   */\n      mstore\n        /* \"#utility.yul\":19880:20110   */\n      pop\n      jump\t// out\n        /* \"#utility.yul\":20116:20482   */\n    tag_391:\n        /* \"#utility.yul\":20258:20261   */\n      0x00\n        /* \"#utility.yul\":20279:20346   */\n      tag_605\n        /* \"#utility.yul\":20343:20345   */\n      0x2b\n        /* \"#utility.yul\":20338:20341   */\n      dup4\n        /* \"#utility.yul\":20279:20346   */\n      tag_374\n      jump\t// in\n    tag_605:\n        /* \"#utility.yul\":20272:20346   */\n      swap2\n      pop\n        /* \"#utility.yul\":20355:20448   */\n      tag_606\n        /* \"#utility.yul\":20444:20447   */\n      dup3\n        /* \"#utility.yul\":20355:20448   */\n      tag_390\n      jump\t// in\n    tag_606:\n        /* \"#utility.yul\":20473:20475   */\n      0x40\n        /* \"#utility.yul\":20468:20471   */\n      dup3\n        /* \"#utility.yul\":20464:20476   */\n      add\n        /* \"#utility.yul\":20457:20476   */\n      swap1\n      pop\n        /* \"#utility.yul\":20116:20482   */\n      swap2\n      swap1\n      pop\n      jump\t// out\n        /* \"#utility.yul\":20488:20907   */\n    tag_210:\n        /* \"#utility.yul\":20654:20658   */\n      0x00\n        /* \"#utility.yul\":20692:20694   */\n      0x20\n        /* \"#utility.yul\":20681:20690   */\n      dup3\n        /* \"#utility.yul\":20677:20695   */\n      add\n        /* \"#utility.yul\":20669:20695   */\n      swap1\n      pop\n        /* \"#utility.yul\":20741:20750   */\n      dup2\n        /* \"#utility.yul\":20735:20739   */\n      dup2\n        /* \"#utility.yul\":20731:20751   */\n      sub\n        /* \"#utility.yul\":20727:20728   */\n      0x00\n        /* \"#utility.yul\":20716:20725   */\n      dup4\n        /* \"#utility.yul\":20712:20729   */\n      add\n        /* \"#utility.yul\":20705:20752   */\n      mstore\n        /* \"#utility.yul\":20769:20900   */\n      tag_608\n        /* \"#utility.yul\":20895:20899   */\n      dup2\n        /* \"#utility.yul\":20769:20900   */\n      tag_391\n      jump\t// in\n    tag_608:\n        /* \"#utility.yul\":20761:20900   */\n      swap1\n      pop\n        /* \"#utility.yul\":20488:20907   */\n      swap2\n      swap1\n      pop\n      jump\t// out\n        /* \"#utility.yul\":20913:21136   */\n    tag_392:\n        /* \"#utility.yul\":21053:21087   */\n      0x636f6e747261637420646f65736e2774206861766520656e6f75676820746f6b\n        /* \"#utility.yul\":21049:21050   */\n      0x00\n        /* \"#utility.yul\":21041:21047   */\n      dup3\n        /* \"#utility.yul\":21037:21051   */\n      add\n        /* \"#utility.yul\":21030:21088   */\n      mstore\n        /* \"#utility.yul\":21122:21128   */\n      0x656e277300000000000000000000000000000000000000000000000000000000\n        /* \"#utility.yul\":21117:21119   */\n      0x20\n        /* \"#utility.yul\":21109:21115   */\n      dup3\n        /* \"#utility.yul\":21105:21120   */\n      add\n        /* \"#utility.yul\":21098:21129   */\n      mstore\n        /* \"#utility.yul\":20913:21136   */\n      pop\n      jump\t// out\n        /* \"#utility.yul\":21142:21508   */\n    tag_393:\n        /* \"#utility.yul\":21284:21287   */\n      0x00\n        /* \"#utility.yul\":21305:21372   */\n      tag_611\n        /* \"#utility.yul\":21369:21371   */\n      0x24\n        /* \"#utility.yul\":21364:21367   */\n      dup4\n        /* \"#utility.yul\":21305:21372   */\n      tag_374\n      jump\t// in\n    tag_611:\n        /* \"#utility.yul\":21298:21372   */\n      swap2\n      pop\n        /* \"#utility.yul\":21381:21474   */\n      tag_612\n        /* \"#utility.yul\":21470:21473   */\n      dup3\n        /* \"#utility.yul\":21381:21474   */\n      tag_392\n      jump\t// in\n    tag_612:\n        /* \"#utility.yul\":21499:21501   */\n      0x40\n        /* \"#utility.yul\":21494:21497   */\n      dup3\n        /* \"#utility.yul\":21490:21502   */\n      add\n        /* \"#utility.yul\":21483:21502   */\n      swap1\n      pop\n        /* \"#utility.yul\":21142:21508   */\n      swap2\n      swap1\n      pop\n      jump\t// out\n        /* \"#utility.yul\":21514:21933   */\n    tag_236:\n        /* \"#utility.yul\":21680:21684   */\n      0x00\n        /* \"#utility.yul\":21718:21720   */\n      0x20\n        /* \"#utility.yul\":21707:21716   */\n      dup3\n        /* \"#utility.yul\":21703:21721   */\n      add\n        /* \"#utility.yul\":21695:21721   */\n      swap1\n      pop\n        /* \"#utility.yul\":21767:21776   */\n      dup2\n        /* \"#utility.yul\":21761:21765   */\n      dup2\n        /* \"#utility.yul\":21757:21777   */\n      sub\n        /* \"#utility.yul\":21753:21754   */\n      0x00\n        /* \"#utility.yul\":21742:21751   */\n      dup4\n        /* \"#utility.yul\":21738:21755   */\n      add\n        /* \"#utility.yul\":21731:21778   */\n      mstore\n        /* \"#utility.yul\":21795:21926   */\n      tag_614\n        /* \"#utility.yul\":21921:21925   */\n      dup2\n        /* \"#utility.yul\":21795:21926   */\n      tag_393\n      jump\t// in\n    tag_614:\n        /* \"#utility.yul\":21787:21926   */\n      swap1\n      pop\n        /* \"#utility.yul\":21514:21933   */\n      swap2\n      swap1\n      pop\n      jump\t// out\n        /* \"#utility.yul\":21939:22271   */\n    tag_238:\n        /* \"#utility.yul\":22060:22064   */\n      0x00\n        /* \"#utility.yul\":22098:22100   */\n      0x40\n        /* \"#utility.yul\":22087:22096   */\n      dup3\n        /* \"#utility.yul\":22083:22101   */\n      add\n        /* \"#utility.yul\":22075:22101   */\n      swap1\n      pop\n        /* \"#utility.yul\":22111:22182   */\n      tag_616\n        /* \"#utility.yul\":22179:22180   */\n      0x00\n        /* \"#utility.yul\":22168:22177   */\n      dup4\n        /* \"#utility.yul\":22164:22181   */\n      add\n        /* \"#utility.yul\":22155:22161   */\n      dup6\n        /* \"#utility.yul\":22111:22182   */\n      tag_353\n      jump\t// in\n    tag_616:\n        /* \"#utility.yul\":22192:22264   */\n      tag_617\n        /* \"#utility.yul\":22260:22262   */\n      0x20\n        /* \"#utility.yul\":22249:22258   */\n      dup4\n        /* \"#utility.yul\":22245:22263   */\n      add\n        /* \"#utility.yul\":22236:22242   */\n      dup5\n        /* \"#utility.yul\":22192:22264   */\n      tag_347\n      jump\t// in\n    tag_617:\n        /* \"#utility.yul\":21939:22271   */\n      swap4\n      swap3\n      pop\n      pop\n      pop\n      jump\t// out\n        /* \"#utility.yul\":22277:22582   */\n    tag_255:\n        /* \"#utility.yul\":22317:22320   */\n      0x00\n        /* \"#utility.yul\":22336:22356   */\n      tag_619\n        /* \"#utility.yul\":22354:22355   */\n      dup3\n        /* \"#utility.yul\":22336:22356   */\n      tag_340\n      jump\t// in\n    tag_619:\n        /* \"#utility.yul\":22331:22356   */\n      swap2\n      pop\n        /* \"#utility.yul\":22370:22390   */\n      tag_620\n        /* \"#utility.yul\":22388:22389   */\n      dup4\n        /* \"#utility.yul\":22370:22390   */\n      tag_340\n      jump\t// in\n    tag_620:\n        /* \"#utility.yul\":22365:22390   */\n      swap3\n      pop\n        /* \"#utility.yul\":22524:22525   */\n      dup3\n        /* \"#utility.yul\":22456:22522   */\n      0xffffffffffffffffffffffffffffffffffffffffffffffffffffffffffffffff\n        /* \"#utility.yul\":22452:22526   */\n      sub\n        /* \"#utility.yul\":22449:22450   */\n      dup3\n        /* \"#utility.yul\":22446:22527   */\n      gt\n        /* \"#utility.yul\":22443:22550   */\n      iszero\n      tag_621\n      jumpi\n        /* \"#utility.yul\":22530:22548   */\n      tag_622\n      tag_389\n      jump\t// in\n    tag_622:\n        /* \"#utility.yul\":22443:22550   */\n    tag_621:\n        /* \"#utility.yul\":22574:22575   */\n      dup3\n        /* \"#utility.yul\":22571:22572   */\n      dup3\n        /* \"#utility.yul\":22567:22576   */\n      add\n        /* \"#utility.yul\":22560:22576   */\n      swap1\n      pop\n        /* \"#utility.yul\":22277:22582   */\n      swap3\n      swap2\n      pop\n      pop\n      jump\t// out\n        /* \"#utility.yul\":22588:22817   */\n    tag_394:\n        /* \"#utility.yul\":22728:22762   */\n      0x7061792074686520657861637420616d6f756e7420746f20636f766572206469\n        /* \"#utility.yul\":22724:22725   */\n      0x00\n        /* \"#utility.yul\":22716:22722   */\n      dup3\n        /* \"#utility.yul\":22712:22726   */\n      add\n        /* \"#utility.yul\":22705:22763   */\n      mstore\n        /* \"#utility.yul\":22797:22809   */\n      0x73747269627574696f6e00000000000000000000000000000000000000000000\n        /* \"#utility.yul\":22792:22794   */\n      0x20\n        /* \"#utility.yul\":22784:22790   */\n      dup3\n        /* \"#utility.yul\":22780:22795   */\n      add\n        /* \"#utility.yul\":22773:22810   */\n      mstore\n        /* \"#utility.yul\":22588:22817   */\n      pop\n      jump\t// out\n        /* \"#utility.yul\":22823:23189   */\n    tag_395:\n        /* \"#utility.yul\":22965:22968   */\n      0x00\n        /* \"#utility.yul\":22986:23053   */\n      tag_625\n        /* \"#utility.yul\":23050:23052   */\n      0x2a\n        /* \"#utility.yul\":23045:23048   */\n      dup4\n        /* \"#utility.yul\":22986:23053   */\n      tag_374\n      jump\t// in\n    tag_625:\n        /* \"#utility.yul\":22979:23053   */\n      swap2\n      pop\n        /* \"#utility.yul\":23062:23155   */\n      tag_626\n        /* \"#utility.yul\":23151:23154   */\n      dup3\n        /* \"#utility.yul\":23062:23155   */\n      tag_394\n      jump\t// in\n    tag_626:\n        /* \"#utility.yul\":23180:23182   */\n      0x40\n        /* \"#utility.yul\":23175:23178   */\n      dup3\n        /* \"#utility.yul\":23171:23183   */\n      add\n        /* \"#utility.yul\":23164:23183   */\n      swap1\n      pop\n        /* \"#utility.yul\":22823:23189   */\n      swap2\n      swap1\n      pop\n      jump\t// out\n        /* \"#utility.yul\":23195:23614   */\n    tag_260:\n        /* \"#utility.yul\":23361:23365   */\n      0x00\n        /* \"#utility.yul\":23399:23401   */\n      0x20\n        /* \"#utility.yul\":23388:23397   */\n      dup3\n        /* \"#utility.yul\":23384:23402   */\n      add\n        /* \"#utility.yul\":23376:23402   */\n      swap1\n      pop\n        /* \"#utility.yul\":23448:23457   */\n      dup2\n        /* \"#utility.yul\":23442:23446   */\n      dup2\n        /* \"#utility.yul\":23438:23458   */\n      sub\n        /* \"#utility.yul\":23434:23435   */\n      0x00\n        /* \"#utility.yul\":23423:23432   */\n      dup4\n        /* \"#utility.yul\":23419:23436   */\n      add\n        /* \"#utility.yul\":23412:23459   */\n      mstore\n        /* \"#utility.yul\":23476:23607   */\n      tag_628\n        /* \"#utility.yul\":23602:23606   */\n      dup2\n        /* \"#utility.yul\":23476:23607   */\n      tag_395\n      jump\t// in\n    tag_628:\n        /* \"#utility.yul\":23468:23607   */\n      swap1\n      pop\n        /* \"#utility.yul\":23195:23614   */\n      swap2\n      swap1\n      pop\n      jump\t// out\n        /* \"#utility.yul\":23620:23862   */\n    tag_396:\n        /* \"#utility.yul\":23760:23794   */\n      0x686f6c64696e67207175616e74697479207472756520627574206d73672e7661\n        /* \"#utility.yul\":23756:23757   */\n      0x00\n        /* \"#utility.yul\":23748:23754   */\n      dup3\n        /* \"#utility.yul\":23744:23758   */\n      add\n        /* \"#utility.yul\":23737:23795   */\n      mstore\n        /* \"#utility.yul\":23829:23854   */\n      0x6c756520756e6365727461696e20706179206578616374000000000000000000\n        /* \"#utility.yul\":23824:23826   */\n      0x20\n        /* \"#utility.yul\":23816:23822   */\n      dup3\n        /* \"#utility.yul\":23812:23827   */\n      add\n        /* \"#utility.yul\":23805:23855   */\n      mstore\n        /* \"#utility.yul\":23620:23862   */\n      pop\n      jump\t// out\n        /* \"#utility.yul\":23868:24234   */\n    tag_397:\n        /* \"#utility.yul\":24010:24013   */\n      0x00\n        /* \"#utility.yul\":24031:24098   */\n      tag_631\n        /* \"#utility.yul\":24095:24097   */\n      0x37\n        /* \"#utility.yul\":24090:24093   */\n      dup4\n        /* \"#utility.yul\":24031:24098   */\n      tag_374\n      jump\t// in\n    tag_631:\n        /* \"#utility.yul\":24024:24098   */\n      swap2\n      pop\n        /* \"#utility.yul\":24107:24200   */\n      tag_632\n        /* \"#utility.yul\":24196:24199   */\n      dup3\n        /* \"#utility.yul\":24107:24200   */\n      tag_396\n      jump\t// in\n    tag_632:\n        /* \"#utility.yul\":24225:24227   */\n      0x40\n        /* \"#utility.yul\":24220:24223   */\n      dup3\n        /* \"#utility.yul\":24216:24228   */\n      add\n        /* \"#utility.yul\":24209:24228   */\n      swap1\n      pop\n        /* \"#utility.yul\":23868:24234   */\n      swap2\n      swap1\n      pop\n      jump\t// out\n        /* \"#utility.yul\":24240:24659   */\n    tag_280:\n        /* \"#utility.yul\":24406:24410   */\n      0x00\n        /* \"#utility.yul\":24444:24446   */\n      0x20\n        /* \"#utility.yul\":24433:24442   */\n      dup3\n        /* \"#utility.yul\":24429:24447   */\n      add\n        /* \"#utility.yul\":24421:24447   */\n      swap1\n      pop\n        /* \"#utility.yul\":24493:24502   */\n      dup2\n        /* \"#utility.yul\":24487:24491   */\n      dup2\n        /* \"#utility.yul\":24483:24503   */\n      sub\n        /* \"#utility.yul\":24479:24480   */\n      0x00\n        /* \"#utility.yul\":24468:24477   */\n      dup4\n        /* \"#utility.yul\":24464:24481   */\n      add\n        /* \"#utility.yul\":24457:24504   */\n      mstore\n        /* \"#utility.yul\":24521:24652   */\n      tag_634\n        /* \"#utility.yul\":24647:24651   */\n      dup2\n        /* \"#utility.yul\":24521:24652   */\n      tag_397\n      jump\t// in\n    tag_634:\n        /* \"#utility.yul\":24513:24652   */\n      swap1\n      pop\n        /* \"#utility.yul\":24240:24659   */\n      swap2\n      swap1\n      pop\n      jump\t// out\n        /* \"#utility.yul\":24665:24890   */\n    tag_398:\n        /* \"#utility.yul\":24805:24839   */\n      0x4f776e61626c653a206e6577206f776e657220697320746865207a65726f2061\n        /* \"#utility.yul\":24801:24802   */\n      0x00\n        /* \"#utility.yul\":24793:24799   */\n      dup3\n        /* \"#utility.yul\":24789:24803   */\n      add\n        /* \"#utility.yul\":24782:24840   */\n      mstore\n        /* \"#utility.yul\":24874:24882   */\n      0x6464726573730000000000000000000000000000000000000000000000000000\n        /* \"#utility.yul\":24869:24871   */\n      0x20\n        /* \"#utility.yul\":24861:24867   */\n      dup3\n        /* \"#utility.yul\":24857:24872   */\n      add\n        /* \"#utility.yul\":24850:24883   */\n      mstore\n        /* \"#utility.yul\":24665:24890   */\n      pop\n      jump\t// out\n        /* \"#utility.yul\":24896:25262   */\n    tag_399:\n        /* \"#utility.yul\":25038:25041   */\n      0x00\n        /* \"#utility.yul\":25059:25126   */\n      tag_637\n        /* \"#utility.yul\":25123:25125   */\n      0x26\n        /* \"#utility.yul\":25118:25121   */\n      dup4\n        /* \"#utility.yul\":25059:25126   */\n      tag_374\n      jump\t// in\n    tag_637:\n        /* \"#utility.yul\":25052:25126   */\n      swap2\n      pop\n        /* \"#utility.yul\":25135:25228   */\n      tag_638\n        /* \"#utility.yul\":25224:25227   */\n      dup3\n        /* \"#utility.yul\":25135:25228   */\n      tag_398\n      jump\t// in\n    tag_638:\n        /* \"#utility.yul\":25253:25255   */\n      0x40\n        /* \"#utility.yul\":25248:25251   */\n      dup3\n        /* \"#utility.yul\":25244:25256   */\n      add\n        /* \"#utility.yul\":25237:25256   */\n      swap1\n      pop\n        /* \"#utility.yul\":24896:25262   */\n      swap2\n      swap1\n      pop\n      jump\t// out\n        /* \"#utility.yul\":25268:25687   */\n    tag_317:\n        /* \"#utility.yul\":25434:25438   */\n      0x00\n        /* \"#utility.yul\":25472:25474   */\n      0x20\n        /* \"#utility.yul\":25461:25470   */\n      dup3\n        /* \"#utility.yul\":25457:25475   */\n      add\n        /* \"#utility.yul\":25449:25475   */\n      swap1\n      pop\n        /* \"#utility.yul\":25521:25530   */\n      dup2\n        /* \"#utility.yul\":25515:25519   */\n      dup2\n        /* \"#utility.yul\":25511:25531   */\n      sub\n        /* \"#utility.yul\":25507:25508   */\n      0x00\n        /* \"#utility.yul\":25496:25505   */\n      dup4\n        /* \"#utility.yul\":25492:25509   */\n      add\n        /* \"#utility.yul\":25485:25532   */\n      mstore\n        /* \"#utility.yul\":25549:25680   */\n      tag_640\n        /* \"#utility.yul\":25675:25679   */\n      dup2\n        /* \"#utility.yul\":25549:25680   */\n      tag_399\n      jump\t// in\n    tag_640:\n        /* \"#utility.yul\":25541:25680   */\n      swap1\n      pop\n        /* \"#utility.yul\":25268:25687   */\n      swap2\n      swap1\n      pop\n      jump\t// out\n        /* \"#utility.yul\":25693:25870   */\n    tag_400:\n        /* \"#utility.yul\":25833:25862   */\n      0x696e76616c69642062616c616e636520746f2077697468647261770000000000\n        /* \"#utility.yul\":25829:25830   */\n      0x00\n        /* \"#utility.yul\":25821:25827   */\n      dup3\n        /* \"#utility.yul\":25817:25831   */\n      add\n        /* \"#utility.yul\":25810:25863   */\n      mstore\n        /* \"#utility.yul\":25693:25870   */\n      pop\n      jump\t// out\n        /* \"#utility.yul\":25876:26242   */\n    tag_401:\n        /* \"#utility.yul\":26018:26021   */\n      0x00\n        /* \"#utility.yul\":26039:26106   */\n      tag_643\n        /* \"#utility.yul\":26103:26105   */\n      0x1b\n        /* \"#utility.yul\":26098:26101   */\n      dup4\n        /* \"#utility.yul\":26039:26106   */\n      tag_374\n      jump\t// in\n    tag_643:\n        /* \"#utility.yul\":26032:26106   */\n      swap2\n      pop\n        /* \"#utility.yul\":26115:26208   */\n      tag_644\n        /* \"#utility.yul\":26204:26207   */\n      dup3\n        /* \"#utility.yul\":26115:26208   */\n      tag_400\n      jump\t// in\n    tag_644:\n        /* \"#utility.yul\":26233:26235   */\n      0x20\n        /* \"#utility.yul\":26228:26231   */\n      dup3\n        /* \"#utility.yul\":26224:26236   */\n      add\n        /* \"#utility.yul\":26217:26236   */\n      swap1\n      pop\n        /* \"#utility.yul\":25876:26242   */\n      swap2\n      swap1\n      pop\n      jump\t// out\n        /* \"#utility.yul\":26248:26667   */\n    tag_324:\n        /* \"#utility.yul\":26414:26418   */\n      0x00\n        /* \"#utility.yul\":26452:26454   */\n      0x20\n        /* \"#utility.yul\":26441:26450   */\n      dup3\n        /* \"#utility.yul\":26437:26455   */\n      add\n        /* \"#utility.yul\":26429:26455   */\n      swap1\n      pop\n        /* \"#utility.yul\":26501:26510   */\n      dup2\n        /* \"#utility.yul\":26495:26499   */\n      dup2\n        /* \"#utility.yul\":26491:26511   */\n      sub\n        /* \"#utility.yul\":26487:26488   */\n      0x00\n        /* \"#utility.yul\":26476:26485   */\n      dup4\n        /* \"#utility.yul\":26472:26489   */\n      add\n        /* \"#utility.yul\":26465:26512   */\n      mstore\n        /* \"#utility.yul\":26529:26660   */\n      tag_646\n        /* \"#utility.yul\":26655:26659   */\n      dup2\n        /* \"#utility.yul\":26529:26660   */\n      tag_401\n      jump\t// in\n    tag_646:\n        /* \"#utility.yul\":26521:26660   */\n      swap1\n      pop\n        /* \"#utility.yul\":26248:26667   */\n      swap2\n      swap1\n      pop\n      jump\t// out\n        /* \"#utility.yul\":26673:26855   */\n    tag_402:\n        /* \"#utility.yul\":26813:26847   */\n      0x4f776e61626c653a2063616c6c6572206973206e6f7420746865206f776e6572\n        /* \"#utility.yul\":26809:26810   */\n      0x00\n        /* \"#utility.yul\":26801:26807   */\n      dup3\n        /* \"#utility.yul\":26797:26811   */\n      add\n        /* \"#utility.yul\":26790:26848   */\n      mstore\n        /* \"#utility.yul\":26673:26855   */\n      pop\n      jump\t// out\n        /* \"#utility.yul\":26861:27227   */\n    tag_403:\n        /* \"#utility.yul\":27003:27006   */\n      0x00\n        /* \"#utility.yul\":27024:27091   */\n      tag_649\n        /* \"#utility.yul\":27088:27090   */\n      0x20\n        /* \"#utility.yul\":27083:27086   */\n      dup4\n        /* \"#utility.yul\":27024:27091   */\n      tag_374\n      jump\t// in\n    tag_649:\n        /* \"#utility.yul\":27017:27091   */\n      swap2\n      pop\n        /* \"#utility.yul\":27100:27193   */\n      tag_650\n        /* \"#utility.yul\":27189:27192   */\n      dup3\n        /* \"#utility.yul\":27100:27193   */\n      tag_402\n      jump\t// in\n    tag_650:\n        /* \"#utility.yul\":27218:27220   */\n      0x20\n        /* \"#utility.yul\":27213:27216   */\n      dup3\n        /* \"#utility.yul\":27209:27221   */\n      add\n        /* \"#utility.yul\":27202:27221   */\n      swap1\n      pop\n        /* \"#utility.yul\":26861:27227   */\n      swap2\n      swap1\n      pop\n      jump\t// out\n        /* \"#utility.yul\":27233:27652   */\n    tag_333:\n        /* \"#utility.yul\":27399:27403   */\n      0x00\n        /* \"#utility.yul\":27437:27439   */\n      0x20\n        /* \"#utility.yul\":27426:27435   */\n      dup3\n        /* \"#utility.yul\":27422:27440   */\n      add\n        /* \"#utility.yul\":27414:27440   */\n      swap1\n      pop\n        /* \"#utility.yul\":27486:27495   */\n      dup2\n        /* \"#utility.yul\":27480:27484   */\n      dup2\n        /* \"#utility.yul\":27476:27496   */\n      sub\n        /* \"#utility.yul\":27472:27473   */\n      0x00\n        /* \"#utility.yul\":27461:27470   */\n      dup4\n        /* \"#utility.yul\":27457:27474   */\n      add\n        /* \"#utility.yul\":27450:27497   */\n      mstore\n        /* \"#utility.yul\":27514:27645   */\n      tag_652\n        /* \"#utility.yul\":27640:27644   */\n      dup2\n        /* \"#utility.yul\":27514:27645   */\n      tag_403\n      jump\t// in\n    tag_652:\n        /* \"#utility.yul\":27506:27645   */\n      swap1\n      pop\n        /* \"#utility.yul\":27233:27652   */\n      swap2\n      swap1\n      pop\n      jump\t// out\n\n    auxdata: 0xa264697066735822122031f12b2d613a0c2086d998f6c32c4e8a0b474425e24d22bb74b8911d63d8c1a964736f6c634300080d0033\n}\n",
				"bytecode": {
					"linkReferences": {},
					"object": "60806040523480156200001157600080fd5b5062000032620000266200009560201b60201c565b6200009d60201b60201c565b620000426200016160201b60201c565b600260006101000a81548173ffffffffffffffffffffffffffffffffffffffff021916908373ffffffffffffffffffffffffffffffffffffffff160217905550655af3107a40006001819055506200018a565b600033905090565b60008060009054906101000a900473ffffffffffffffffffffffffffffffffffffffff169050816000806101000a81548173ffffffffffffffffffffffffffffffffffffffff021916908373ffffffffffffffffffffffffffffffffffffffff1602179055508173ffffffffffffffffffffffffffffffffffffffff168173ffffffffffffffffffffffffffffffffffffffff167f8be0079c531659141344cd1fd0a4f28419497f9722a3daafe3b4186f6b6457e060405160405180910390a35050565b60008060009054906101000a900473ffffffffffffffffffffffffffffffffffffffff16905090565b612933806200019a6000396000f3fe6080604052600436106101185760003560e01c80638da5cb5b116100a0578063d908e6ce11610064578063d908e6ce14610387578063ddca3f43146103a3578063f2fde38b146103ce578063f7260d3e146103f7578063f9f95a0f146104225761011f565b80638da5cb5b146102af5780639cbd3433146102da5780639d76ea58146102f65780639e281a9814610321578063a4df02561461034a5761011f565b806344b6209d116100e757806344b6209d146101de578063478aa69e1461021b57806367c2a36014610244578063715018a61461026d5780638b7afe2e146102845761011f565b8063126ccd941461012457806317fc45e21461014d5780632fc75eb0146101785780633aecd0e3146101a15761011f565b3661011f57005b600080fd5b34801561013057600080fd5b5061014b60048036038101906101469190611b44565b61044b565b005b34801561015957600080fd5b5061016261049f565b60405161016f9190611b93565b60405180910390f35b34801561018457600080fd5b5061019f600480360381019061019a9190611bec565b6104a5565b005b3480156101ad57600080fd5b506101c860048036038101906101c39190611c2c565b6104f9565b6040516101d59190611b93565b60405180910390f35b3480156101ea57600080fd5b5061020560048036038101906102009190611c2c565b61059e565b6040516102129190611c74565b60405180910390f35b34801561022757600080fd5b50610242600480360381019061023d9190611c2c565b6105be565b005b34801561025057600080fd5b5061026b60048036038101906102669190611c2c565b6106b4565b005b34801561027957600080fd5b506102826107aa565b005b34801561029057600080fd5b506102996107be565b6040516102a69190611b93565b60405180910390f35b3480156102bb57600080fd5b506102c46107e5565b6040516102d19190611c9e565b60405180910390f35b6102f460048036038101906102ef9190611ed5565b61080e565b005b34801561030257600080fd5b5061030b610f87565b6040516103189190611fbf565b60405180910390f35b34801561032d57600080fd5b5061034860048036038101906103439190611bec565b610fad565b005b34801561035657600080fd5b50610371600480360381019061036c9190611c2c565b6110f4565b60405161037e9190611c74565b60405180910390f35b6103a1600480360381019061039c9190611fda565b61114a565b005b3480156103af57600080fd5b506103b86117d4565b6040516103c59190611b93565b60405180910390f35b3480156103da57600080fd5b506103f560048036038101906103f09190611c2c565b6117da565b005b34801561040357600080fd5b5061040c61185d565b6040516104199190612073565b60405180910390f35b34801561042e57600080fd5b506104496004803603810190610444919061208e565b611883565b005b61045361192f565b8160018190555080600260006101000a81548173ffffffffffffffffffffffffffffffffffffffff021916908373ffffffffffffffffffffffffffffffffffffffff1602179055505050565b60055481565b6104ad61192f565b81600460006101000a81548173ffffffffffffffffffffffffffffffffffffffff021916908373ffffffffffffffffffffffffffffffffffffffff160217905550806005819055505050565b6000600460009054906101000a900473ffffffffffffffffffffffffffffffffffffffff1673ffffffffffffffffffffffffffffffffffffffff166370a08231836040518263ffffffff1660e01b81526004016105569190611c9e565b602060405180830381865afa158015610573573d6000803e3d6000fd5b505050506040513d601f19601f8201168201806040525081019061059791906120d0565b9050919050565b60036020528060005260406000206000915054906101000a900460ff1681565b6105c661192f565b60011515600360008373ffffffffffffffffffffffffffffffffffffffff1673ffffffffffffffffffffffffffffffffffffffff16815260200190815260200160002060009054906101000a900460ff16151514610659576040517f08c379a00000000000000000000000000000000000000000000000000000000081526004016106509061215a565b60405180910390fd5b6000600360008373ffffffffffffffffffffffffffffffffffffffff1673ffffffffffffffffffffffffffffffffffffffff16815260200190815260200160002060006101000a81548160ff02191690831515021790555050565b6106bc61192f565b60001515600360008373ffffffffffffffffffffffffffffffffffffffff1673ffffffffffffffffffffffffffffffffffffffff16815260200190815260200160002060009054906101000a900460ff1615151461074f576040517f08c379a0000000000000000000000000000000000000000000000000000000008152600401610746906121c6565b60405180910390fd5b6001600360008373ffffffffffffffffffffffffffffffffffffffff1673ffffffffffffffffffffffffffffffffffffffff16815260200190815260200160002060006101000a81548160ff02191690831515021790555050565b6107b261192f565b6107bc60006119ad565b565b60006107c861192f565b3073ffffffffffffffffffffffffffffffffffffffff1631905090565b60008060009054906101000a900473ffffffffffffffffffffffffffffffffffffffff16905090565b600073ffffffffffffffffffffffffffffffffffffffff16600460009054906101000a900473ffffffffffffffffffffffffffffffffffffffff1673ffffffffffffffffffffffffffffffffffffffff160361089f576040517f08c379a000000000000000000000000000000000000000000000000000000000815260040161089690612232565b60405180910390fd5b600115156108c28473ffffffffffffffffffffffffffffffffffffffff16611a71565b151514610904576040517f08c379a00000000000000000000000000000000000000000000000000000000081526004016108fb9061229e565b60405180910390fd5b8051825114610948576040517f08c379a000000000000000000000000000000000000000000000000000000000815260040161093f9061230a565b60405180910390fd5b600360003373ffffffffffffffffffffffffffffffffffffffff1673ffffffffffffffffffffffffffffffffffffffff16815260200190815260200160002060009054906101000a900460ff1615610ab25760005b8151811015610aac578373ffffffffffffffffffffffffffffffffffffffff166323b872dd338584815181106109d6576109d561232a565b5b60200260200101518585815181106109f1576109f061232a565b5b60200260200101516040518463ffffffff1660e01b8152600401610a1793929190612359565b6020604051808303816000875af1158015610a36573d6000803e3d6000fd5b505050506040513d601f19601f82011682018060405250810190610a5a91906123bc565b610a99576040517f08c379a0000000000000000000000000000000000000000000000000000000008152600401610a9090612435565b60405180910390fd5b8080610aa490612484565b91505061099d565b50610f82565b600360003373ffffffffffffffffffffffffffffffffffffffff1673ffffffffffffffffffffffffffffffffffffffff16815260200190815260200160002060009054906101000a900460ff16610f8157600554600460009054906101000a900473ffffffffffffffffffffffffffffffffffffffff1673ffffffffffffffffffffffffffffffffffffffff166370a08231336040518263ffffffff1660e01b8152600401610b619190611c9e565b602060405180830381865afa158015610b7e573d6000803e3d6000fd5b505050506040513d601f19601f82011682018060405250810190610ba291906120d0565b10610d17576001600360003373ffffffffffffffffffffffffffffffffffffffff1673ffffffffffffffffffffffffffffffffffffffff16815260200190815260200160002060006101000a81548160ff02191690831515021790555060005b8151811015610d11578373ffffffffffffffffffffffffffffffffffffffff166323b872dd33858481518110610c3b57610c3a61232a565b5b6020026020010151858581518110610c5657610c5561232a565b5b60200260200101516040518463ffffffff1660e01b8152600401610c7c93929190612359565b6020604051808303816000875af1158015610c9b573d6000803e3d6000fd5b505050506040513d601f19601f82011682018060405250810190610cbf91906123bc565b610cfe576040517f08c379a0000000000000000000000000000000000000000000000000000000008152600401610cf590612435565b60405180910390fd5b8080610d0990612484565b915050610c02565b50610f80565b600554600460009054906101000a900473ffffffffffffffffffffffffffffffffffffffff1673ffffffffffffffffffffffffffffffffffffffff166370a08231336040518263ffffffff1660e01b8152600401610d759190611c9e565b602060405180830381865afa158015610d92573d6000803e3d6000fd5b505050506040513d601f19601f82011682018060405250810190610db691906120d0565b1015610f7f576001543414610e00576040517f08c379a0000000000000000000000000000000000000000000000000000000008152600401610df79061253e565b60405180910390fd5b600260009054906101000a900473ffffffffffffffffffffffffffffffffffffffff1673ffffffffffffffffffffffffffffffffffffffff166108fc6001549081150290604051600060405180830381858888f19350505050158015610e6a573d6000803e3d6000fd5b5060005b8151811015610f7d578373ffffffffffffffffffffffffffffffffffffffff166323b872dd33858481518110610ea757610ea661232a565b5b6020026020010151858581518110610ec257610ec161232a565b5b60200260200101516040518463ffffffff1660e01b8152600401610ee893929190612359565b6020604051808303816000875af1158015610f07573d6000803e3d6000fd5b505050506040513d601f19601f82011682018060405250810190610f2b91906123bc565b610f6a576040517f08c379a0000000000000000000000000000000000000000000000000000000008152600401610f6190612435565b60405180910390fd5b8080610f7590612484565b915050610e6e565b505b5b5b5b505050565b600460009054906101000a900473ffffffffffffffffffffffffffffffffffffffff1681565b610fb561192f565b808273ffffffffffffffffffffffffffffffffffffffff166370a08231306040518263ffffffff1660e01b8152600401610fef9190611c9e565b602060405180830381865afa15801561100c573d6000803e3d6000fd5b505050506040513d601f19601f8201168201806040525081019061103091906120d0565b1015611071576040517f08c379a0000000000000000000000000000000000000000000000000000000008152600401611068906125d0565b60405180910390fd5b8173ffffffffffffffffffffffffffffffffffffffff1663a9059cbb33836040518363ffffffff1660e01b81526004016110ac9291906125f0565b6020604051808303816000875af11580156110cb573d6000803e3d6000fd5b505050506040513d601f19601f820116820180604052508101906110ef91906123bc565b505050565b6000600360008373ffffffffffffffffffffffffffffffffffffffff1673ffffffffffffffffffffffffffffffffffffffff16815260200190815260200160002060009054906101000a900460ff169050919050565b600073ffffffffffffffffffffffffffffffffffffffff16600460009054906101000a900473ffffffffffffffffffffffffffffffffffffffff1673ffffffffffffffffffffffffffffffffffffffff16036111db576040517f08c379a00000000000000000000000000000000000000000000000000000000081526004016111d290612232565b60405180910390fd5b805182511461121f576040517f08c379a00000000000000000000000000000000000000000000000000000000081526004016112169061230a565b60405180910390fd5b6000805b82518110156112675782818151811061123f5761123e61232a565b5b6020026020010151826112529190612619565b9150808061125f90612484565b915050611223565b50600360003373ffffffffffffffffffffffffffffffffffffffff1673ffffffffffffffffffffffffffffffffffffffff16815260200190815260200160002060009054906101000a900460ff161561139c578034146112fc576040517f08c379a00000000000000000000000000000000000000000000000000000000081526004016112f3906126e1565b60405180910390fd5b60005b83518110156113965783818151811061131b5761131a61232a565b5b602002602001015173ffffffffffffffffffffffffffffffffffffffff166108fc84838151811061134f5761134e61232a565b5b60200260200101519081150290604051600060405180830381858888f19350505050158015611382573d6000803e3d6000fd5b50808061138e90612484565b9150506112ff565b506117cf565b600360003373ffffffffffffffffffffffffffffffffffffffff1673ffffffffffffffffffffffffffffffffffffffff16815260200190815260200160002060009054906101000a900460ff166117ce57600554600460009054906101000a900473ffffffffffffffffffffffffffffffffffffffff1673ffffffffffffffffffffffffffffffffffffffff166370a08231336040518263ffffffff1660e01b815260040161144b9190611c9e565b602060405180830381865afa158015611468573d6000803e3d6000fd5b505050506040513d601f19601f8201168201806040525081019061148c91906120d0565b106115cb576001600360003373ffffffffffffffffffffffffffffffffffffffff1673ffffffffffffffffffffffffffffffffffffffff16815260200190815260200160002060006101000a81548160ff02191690831515021790555080341461152b576040517f08c379a000000000000000000000000000000000000000000000000000000000815260040161152290612773565b60405180910390fd5b60005b83518110156115c55783818151811061154a5761154961232a565b5b602002602001015173ffffffffffffffffffffffffffffffffffffffff166108fc84838151811061157e5761157d61232a565b5b60200260200101519081150290604051600060405180830381858888f193505050501580156115b1573d6000803e3d6000fd5b5080806115bd90612484565b91505061152e565b506117cd565b600554600460009054906101000a900473ffffffffffffffffffffffffffffffffffffffff1673ffffffffffffffffffffffffffffffffffffffff166370a08231336040518263ffffffff1660e01b81526004016116299190611c9e565b602060405180830381865afa158015611646573d6000803e3d6000fd5b505050506040513d601f19601f8201168201806040525081019061166a91906120d0565b10156117cc576000816001546116809190612619565b90508034146116c4576040517f08c379a00000000000000000000000000000000000000000000000000000000081526004016116bb9061253e565b60405180910390fd5b600260009054906101000a900473ffffffffffffffffffffffffffffffffffffffff1673ffffffffffffffffffffffffffffffffffffffff166108fc6001549081150290604051600060405180830381858888f1935050505015801561172e573d6000803e3d6000fd5b5060005b84518110156117c95784818151811061174e5761174d61232a565b5b602002602001015173ffffffffffffffffffffffffffffffffffffffff166108fc8583815181106117825761178161232a565b5b60200260200101519081150290604051600060405180830381858888f193505050501580156117b5573d6000803e3d6000fd5b5080806117c190612484565b915050611732565b50505b5b5b5b505050565b60015481565b6117e261192f565b600073ffffffffffffffffffffffffffffffffffffffff168173ffffffffffffffffffffffffffffffffffffffff1603611851576040517f08c379a000000000000000000000000000000000000000000000000000000000815260040161184890612805565b60405180910390fd5b61185a816119ad565b50565b600260009054906101000a900473ffffffffffffffffffffffffffffffffffffffff1681565b61188b61192f565b803073ffffffffffffffffffffffffffffffffffffffff163110156118e5576040517f08c379a00000000000000000000000000000000000000000000000000000000081526004016118dc90612871565b60405180910390fd5b3373ffffffffffffffffffffffffffffffffffffffff166108fc829081150290604051600060405180830381858888f1935050505015801561192b573d6000803e3d6000fd5b5050565b611937611a94565b73ffffffffffffffffffffffffffffffffffffffff166119556107e5565b73ffffffffffffffffffffffffffffffffffffffff16146119ab576040517f08c379a00000000000000000000000000000000000000000000000000000000081526004016119a2906128dd565b60405180910390fd5b565b60008060009054906101000a900473ffffffffffffffffffffffffffffffffffffffff169050816000806101000a81548173ffffffffffffffffffffffffffffffffffffffff021916908373ffffffffffffffffffffffffffffffffffffffff1602179055508173ffffffffffffffffffffffffffffffffffffffff168173ffffffffffffffffffffffffffffffffffffffff167f8be0079c531659141344cd1fd0a4f28419497f9722a3daafe3b4186f6b6457e060405160405180910390a35050565b6000808273ffffffffffffffffffffffffffffffffffffffff163b119050919050565b600033905090565b6000604051905090565b600080fd5b600080fd5b6000819050919050565b611ac381611ab0565b8114611ace57600080fd5b50565b600081359050611ae081611aba565b92915050565b600073ffffffffffffffffffffffffffffffffffffffff82169050919050565b6000611b1182611ae6565b9050919050565b611b2181611b06565b8114611b2c57600080fd5b50565b600081359050611b3e81611b18565b92915050565b60008060408385031215611b5b57611b5a611aa6565b5b6000611b6985828601611ad1565b9250506020611b7a85828601611b2f565b9150509250929050565b611b8d81611ab0565b82525050565b6000602082019050611ba86000830184611b84565b92915050565b6000611bb982611b06565b9050919050565b611bc981611bae565b8114611bd457600080fd5b50565b600081359050611be681611bc0565b92915050565b60008060408385031215611c0357611c02611aa6565b5b6000611c1185828601611bd7565b9250506020611c2285828601611ad1565b9150509250929050565b600060208284031215611c4257611c41611aa6565b5b6000611c5084828501611b2f565b91505092915050565b60008115159050919050565b611c6e81611c59565b82525050565b6000602082019050611c896000830184611c65565b92915050565b611c9881611b06565b82525050565b6000602082019050611cb36000830184611c8f565b92915050565b600080fd5b6000601f19601f8301169050919050565b7f4e487b7100000000000000000000000000000000000000000000000000000000600052604160045260246000fd5b611d0782611cbe565b810181811067ffffffffffffffff82111715611d2657611d25611ccf565b5b80604052505050565b6000611d39611a9c565b9050611d458282611cfe565b919050565b600067ffffffffffffffff821115611d6557611d64611ccf565b5b602082029050602081019050919050565b600080fd5b6000611d8e611d8984611d4a565b611d2f565b90508083825260208201905060208402830185811115611db157611db0611d76565b5b835b81811015611dda5780611dc68882611b2f565b845260208401935050602081019050611db3565b5050509392505050565b600082601f830112611df957611df8611cb9565b5b8135611e09848260208601611d7b565b91505092915050565b600067ffffffffffffffff821115611e2d57611e2c611ccf565b5b602082029050602081019050919050565b6000611e51611e4c84611e12565b611d2f565b90508083825260208201905060208402830185811115611e7457611e73611d76565b5b835b81811015611e9d5780611e898882611ad1565b845260208401935050602081019050611e76565b5050509392505050565b600082601f830112611ebc57611ebb611cb9565b5b8135611ecc848260208601611e3e565b91505092915050565b600080600060608486031215611eee57611eed611aa6565b5b6000611efc86828701611bd7565b935050602084013567ffffffffffffffff811115611f1d57611f1c611aab565b5b611f2986828701611de4565b925050604084013567ffffffffffffffff811115611f4a57611f49611aab565b5b611f5686828701611ea7565b9150509250925092565b6000819050919050565b6000611f85611f80611f7b84611ae6565b611f60565b611ae6565b9050919050565b6000611f9782611f6a565b9050919050565b6000611fa982611f8c565b9050919050565b611fb981611f9e565b82525050565b6000602082019050611fd46000830184611fb0565b92915050565b60008060408385031215611ff157611ff0611aa6565b5b600083013567ffffffffffffffff81111561200f5761200e611aab565b5b61201b85828601611de4565b925050602083013567ffffffffffffffff81111561203c5761203b611aab565b5b61204885828601611ea7565b9150509250929050565b600061205d82611ae6565b9050919050565b61206d81612052565b82525050565b60006020820190506120886000830184612064565b92915050565b6000602082840312156120a4576120a3611aa6565b5b60006120b284828501611ad1565b91505092915050565b6000815190506120ca81611aba565b92915050565b6000602082840312156120e6576120e5611aa6565b5b60006120f4848285016120bb565b91505092915050565b600082825260208201905092915050565b7f7573657220697320616c726561647920756e617574686f72697a656400000000600082015250565b6000612144601c836120fd565b915061214f8261210e565b602082019050919050565b6000602082019050818103600083015261217381612137565b9050919050565b7f7573657220697320616c726561647920617574686f72697a6564000000000000600082015250565b60006121b0601a836120fd565b91506121bb8261217a565b602082019050919050565b600060208201905081810360008301526121df816121a3565b9050919050565b7f746f6b656e20686f6c64696e6720696e76616c69640000000000000000000000600082015250565b600061221c6015836120fd565b9150612227826121e6565b602082019050919050565b6000602082019050818103600083015261224b8161220f565b9050919050565b7f6e6f74206120636f6e7472616374000000000000000000000000000000000000600082015250565b6000612288600e836120fd565b915061229382612252565b602082019050919050565b600060208201905081810360008301526122b78161227b565b9050919050565b7f696e76616c696420696e70757400000000000000000000000000000000000000600082015250565b60006122f4600d836120fd565b91506122ff826122be565b602082019050919050565b60006020820190508181036000830152612323816122e7565b9050919050565b7f4e487b7100000000000000000000000000000000000000000000000000000000600052603260045260246000fd5b600060608201905061236e6000830186611c8f565b61237b6020830185611c8f565b6123886040830184611b84565b949350505050565b61239981611c59565b81146123a457600080fd5b50565b6000815190506123b681612390565b92915050565b6000602082840312156123d2576123d1611aa6565b5b60006123e0848285016123a7565b91505092915050565b7f6572726f7220696e20646973747269627574696f6e0000000000000000000000600082015250565b600061241f6015836120fd565b915061242a826123e9565b602082019050919050565b6000602082019050818103600083015261244e81612412565b9050919050565b7f4e487b7100000000000000000000000000000000000000000000000000000000600052601160045260246000fd5b600061248f82611ab0565b91507fffffffffffffffffffffffffffffffffffffffffffffffffffffffffffffffff82036124c1576124c0612455565b5b600182019050919050565b7f686f6c64696e67202620617574686f72697a6174696f6e2066616c736520706160008201527f7920657861637420666565000000000000000000000000000000000000000000602082015250565b6000612528602b836120fd565b9150612533826124cc565b604082019050919050565b600060208201905081810360008301526125578161251b565b9050919050565b7f636f6e747261637420646f65736e2774206861766520656e6f75676820746f6b60008201527f656e277300000000000000000000000000000000000000000000000000000000602082015250565b60006125ba6024836120fd565b91506125c58261255e565b604082019050919050565b600060208201905081810360008301526125e9816125ad565b9050919050565b60006040820190506126056000830185611c8f565b6126126020830184611b84565b9392505050565b600061262482611ab0565b915061262f83611ab0565b9250827fffffffffffffffffffffffffffffffffffffffffffffffffffffffffffffffff0382111561266457612663612455565b5b828201905092915050565b7f7061792074686520657861637420616d6f756e7420746f20636f76657220646960008201527f73747269627574696f6e00000000000000000000000000000000000000000000602082015250565b60006126cb602a836120fd565b91506126d68261266f565b604082019050919050565b600060208201905081810360008301526126fa816126be565b9050919050565b7f686f6c64696e67207175616e74697479207472756520627574206d73672e766160008201527f6c756520756e6365727461696e20706179206578616374000000000000000000602082015250565b600061275d6037836120fd565b915061276882612701565b604082019050919050565b6000602082019050818103600083015261278c81612750565b9050919050565b7f4f776e61626c653a206e6577206f776e657220697320746865207a65726f206160008201527f6464726573730000000000000000000000000000000000000000000000000000602082015250565b60006127ef6026836120fd565b91506127fa82612793565b604082019050919050565b6000602082019050818103600083015261281e816127e2565b9050919050565b7f696e76616c69642062616c616e636520746f2077697468647261770000000000600082015250565b600061285b601b836120fd565b915061286682612825565b602082019050919050565b6000602082019050818103600083015261288a8161284e565b9050919050565b7f4f776e61626c653a2063616c6c6572206973206e6f7420746865206f776e6572600082015250565b60006128c76020836120fd565b91506128d282612891565b602082019050919050565b600060208201905081810360008301526128f6816128ba565b905091905056fea264697066735822122031f12b2d613a0c2086d998f6c32c4e8a0b474425e24d22bb74b8911d63d8c1a964736f6c634300080d0033",
					"opcodes": "PUSH1 0x80 PUSH1 0x40 MSTORE CALLVALUE DUP1 ISZERO PUSH3 0x11 JUMPI PUSH1 0x0 DUP1 REVERT JUMPDEST POP PUSH3 0x32 PUSH3 0x26 PUSH3 0x95 PUSH1 0x20 SHL PUSH1 0x20 SHR JUMP JUMPDEST PUSH3 0x9D PUSH1 0x20 SHL PUSH1 0x20 SHR JUMP JUMPDEST PUSH3 0x42 PUSH3 0x161 PUSH1 0x20 SHL PUSH1 0x20 SHR JUMP JUMPDEST PUSH1 0x2 PUSH1 0x0 PUSH2 0x100 EXP DUP2 SLOAD DUP2 PUSH20 0xFFFFFFFFFFFFFFFFFFFFFFFFFFFFFFFFFFFFFFFF MUL NOT AND SWAP1 DUP4 PUSH20 0xFFFFFFFFFFFFFFFFFFFFFFFFFFFFFFFFFFFFFFFF AND MUL OR SWAP1 SSTORE POP PUSH6 0x5AF3107A4000 PUSH1 0x1 DUP2 SWAP1 SSTORE POP PUSH3 0x18A JUMP JUMPDEST PUSH1 0x0 CALLER SWAP1 POP SWAP1 JUMP JUMPDEST PUSH1 0x0 DUP1 PUSH1 0x0 SWAP1 SLOAD SWAP1 PUSH2 0x100 EXP SWAP1 DIV PUSH20 0xFFFFFFFFFFFFFFFFFFFFFFFFFFFFFFFFFFFFFFFF AND SWAP1 POP DUP2 PUSH1 0x0 DUP1 PUSH2 0x100 EXP DUP2 SLOAD DUP2 PUSH20 0xFFFFFFFFFFFFFFFFFFFFFFFFFFFFFFFFFFFFFFFF MUL NOT AND SWAP1 DUP4 PUSH20 0xFFFFFFFFFFFFFFFFFFFFFFFFFFFFFFFFFFFFFFFF AND MUL OR SWAP1 SSTORE POP DUP2 PUSH20 0xFFFFFFFFFFFFFFFFFFFFFFFFFFFFFFFFFFFFFFFF AND DUP2 PUSH20 0xFFFFFFFFFFFFFFFFFFFFFFFFFFFFFFFFFFFFFFFF AND PUSH32 0x8BE0079C531659141344CD1FD0A4F28419497F9722A3DAAFE3B4186F6B6457E0 PUSH1 0x40 MLOAD PUSH1 0x40 MLOAD DUP1 SWAP2 SUB SWAP1 LOG3 POP POP JUMP JUMPDEST PUSH1 0x0 DUP1 PUSH1 0x0 SWAP1 SLOAD SWAP1 PUSH2 0x100 EXP SWAP1 DIV PUSH20 0xFFFFFFFFFFFFFFFFFFFFFFFFFFFFFFFFFFFFFFFF AND SWAP1 POP SWAP1 JUMP JUMPDEST PUSH2 0x2933 DUP1 PUSH3 0x19A PUSH1 0x0 CODECOPY PUSH1 0x0 RETURN INVALID PUSH1 0x80 PUSH1 0x40 MSTORE PUSH1 0x4 CALLDATASIZE LT PUSH2 0x118 JUMPI PUSH1 0x0 CALLDATALOAD PUSH1 0xE0 SHR DUP1 PUSH4 0x8DA5CB5B GT PUSH2 0xA0 JUMPI DUP1 PUSH4 0xD908E6CE GT PUSH2 0x64 JUMPI DUP1 PUSH4 0xD908E6CE EQ PUSH2 0x387 JUMPI DUP1 PUSH4 0xDDCA3F43 EQ PUSH2 0x3A3 JUMPI DUP1 PUSH4 0xF2FDE38B EQ PUSH2 0x3CE JUMPI DUP1 PUSH4 0xF7260D3E EQ PUSH2 0x3F7 JUMPI DUP1 PUSH4 0xF9F95A0F EQ PUSH2 0x422 JUMPI PUSH2 0x11F JUMP JUMPDEST DUP1 PUSH4 0x8DA5CB5B EQ PUSH2 0x2AF JUMPI DUP1 PUSH4 0x9CBD3433 EQ PUSH2 0x2DA JUMPI DUP1 PUSH4 0x9D76EA58 EQ PUSH2 0x2F6 JUMPI DUP1 PUSH4 0x9E281A98 EQ PUSH2 0x321 JUMPI DUP1 PUSH4 0xA4DF0256 EQ PUSH2 0x34A JUMPI PUSH2 0x11F JUMP JUMPDEST DUP1 PUSH4 0x44B6209D GT PUSH2 0xE7 JUMPI DUP1 PUSH4 0x44B6209D EQ PUSH2 0x1DE JUMPI DUP1 PUSH4 0x478AA69E EQ PUSH2 0x21B JUMPI DUP1 PUSH4 0x67C2A360 EQ PUSH2 0x244 JUMPI DUP1 PUSH4 0x715018A6 EQ PUSH2 0x26D JUMPI DUP1 PUSH4 0x8B7AFE2E EQ PUSH2 0x284 JUMPI PUSH2 0x11F JUMP JUMPDEST DUP1 PUSH4 0x126CCD94 EQ PUSH2 0x124 JUMPI DUP1 PUSH4 0x17FC45E2 EQ PUSH2 0x14D JUMPI DUP1 PUSH4 0x2FC75EB0 EQ PUSH2 0x178 JUMPI DUP1 PUSH4 0x3AECD0E3 EQ PUSH2 0x1A1 JUMPI PUSH2 0x11F JUMP JUMPDEST CALLDATASIZE PUSH2 0x11F JUMPI STOP JUMPDEST PUSH1 0x0 DUP1 REVERT JUMPDEST CALLVALUE DUP1 ISZERO PUSH2 0x130 JUMPI PUSH1 0x0 DUP1 REVERT JUMPDEST POP PUSH2 0x14B PUSH1 0x4 DUP1 CALLDATASIZE SUB DUP2 ADD SWAP1 PUSH2 0x146 SWAP2 SWAP1 PUSH2 0x1B44 JUMP JUMPDEST PUSH2 0x44B JUMP JUMPDEST STOP JUMPDEST CALLVALUE DUP1 ISZERO PUSH2 0x159 JUMPI PUSH1 0x0 DUP1 REVERT JUMPDEST POP PUSH2 0x162 PUSH2 0x49F JUMP JUMPDEST PUSH1 0x40 MLOAD PUSH2 0x16F SWAP2 SWAP1 PUSH2 0x1B93 JUMP JUMPDEST PUSH1 0x40 MLOAD DUP1 SWAP2 SUB SWAP1 RETURN JUMPDEST CALLVALUE DUP1 ISZERO PUSH2 0x184 JUMPI PUSH1 0x0 DUP1 REVERT JUMPDEST POP PUSH2 0x19F PUSH1 0x4 DUP1 CALLDATASIZE SUB DUP2 ADD SWAP1 PUSH2 0x19A SWAP2 SWAP1 PUSH2 0x1BEC JUMP JUMPDEST PUSH2 0x4A5 JUMP JUMPDEST STOP JUMPDEST CALLVALUE DUP1 ISZERO PUSH2 0x1AD JUMPI PUSH1 0x0 DUP1 REVERT JUMPDEST POP PUSH2 0x1C8 PUSH1 0x4 DUP1 CALLDATASIZE SUB DUP2 ADD SWAP1 PUSH2 0x1C3 SWAP2 SWAP1 PUSH2 0x1C2C JUMP JUMPDEST PUSH2 0x4F9 JUMP JUMPDEST PUSH1 0x40 MLOAD PUSH2 0x1D5 SWAP2 SWAP1 PUSH2 0x1B93 JUMP JUMPDEST PUSH1 0x40 MLOAD DUP1 SWAP2 SUB SWAP1 RETURN JUMPDEST CALLVALUE DUP1 ISZERO PUSH2 0x1EA JUMPI PUSH1 0x0 DUP1 REVERT JUMPDEST POP PUSH2 0x205 PUSH1 0x4 DUP1 CALLDATASIZE SUB DUP2 ADD SWAP1 PUSH2 0x200 SWAP2 SWAP1 PUSH2 0x1C2C JUMP JUMPDEST PUSH2 0x59E JUMP JUMPDEST PUSH1 0x40 MLOAD PUSH2 0x212 SWAP2 SWAP1 PUSH2 0x1C74 JUMP JUMPDEST PUSH1 0x40 MLOAD DUP1 SWAP2 SUB SWAP1 RETURN JUMPDEST CALLVALUE DUP1 ISZERO PUSH2 0x227 JUMPI PUSH1 0x0 DUP1 REVERT JUMPDEST POP PUSH2 0x242 PUSH1 0x4 DUP1 CALLDATASIZE SUB DUP2 ADD SWAP1 PUSH2 0x23D SWAP2 SWAP1 PUSH2 0x1C2C JUMP JUMPDEST PUSH2 0x5BE JUMP JUMPDEST STOP JUMPDEST CALLVALUE DUP1 ISZERO PUSH2 0x250 JUMPI PUSH1 0x0 DUP1 REVERT JUMPDEST POP PUSH2 0x26B PUSH1 0x4 DUP1 CALLDATASIZE SUB DUP2 ADD SWAP1 PUSH2 0x266 SWAP2 SWAP1 PUSH2 0x1C2C JUMP JUMPDEST PUSH2 0x6B4 JUMP JUMPDEST STOP JUMPDEST CALLVALUE DUP1 ISZERO PUSH2 0x279 JUMPI PUSH1 0x0 DUP1 REVERT JUMPDEST POP PUSH2 0x282 PUSH2 0x7AA JUMP JUMPDEST STOP JUMPDEST CALLVALUE DUP1 ISZERO PUSH2 0x290 JUMPI PUSH1 0x0 DUP1 REVERT JUMPDEST POP PUSH2 0x299 PUSH2 0x7BE JUMP JUMPDEST PUSH1 0x40 MLOAD PUSH2 0x2A6 SWAP2 SWAP1 PUSH2 0x1B93 JUMP JUMPDEST PUSH1 0x40 MLOAD DUP1 SWAP2 SUB SWAP1 RETURN JUMPDEST CALLVALUE DUP1 ISZERO PUSH2 0x2BB JUMPI PUSH1 0x0 DUP1 REVERT JUMPDEST POP PUSH2 0x2C4 PUSH2 0x7E5 JUMP JUMPDEST PUSH1 0x40 MLOAD PUSH2 0x2D1 SWAP2 SWAP1 PUSH2 0x1C9E JUMP JUMPDEST PUSH1 0x40 MLOAD DUP1 SWAP2 SUB SWAP1 RETURN JUMPDEST PUSH2 0x2F4 PUSH1 0x4 DUP1 CALLDATASIZE SUB DUP2 ADD SWAP1 PUSH2 0x2EF SWAP2 SWAP1 PUSH2 0x1ED5 JUMP JUMPDEST PUSH2 0x80E JUMP JUMPDEST STOP JUMPDEST CALLVALUE DUP1 ISZERO PUSH2 0x302 JUMPI PUSH1 0x0 DUP1 REVERT JUMPDEST POP PUSH2 0x30B PUSH2 0xF87 JUMP JUMPDEST PUSH1 0x40 MLOAD PUSH2 0x318 SWAP2 SWAP1 PUSH2 0x1FBF JUMP JUMPDEST PUSH1 0x40 MLOAD DUP1 SWAP2 SUB SWAP1 RETURN JUMPDEST CALLVALUE DUP1 ISZERO PUSH2 0x32D JUMPI PUSH1 0x0 DUP1 REVERT JUMPDEST POP PUSH2 0x348 PUSH1 0x4 DUP1 CALLDATASIZE SUB DUP2 ADD SWAP1 PUSH2 0x343 SWAP2 SWAP1 PUSH2 0x1BEC JUMP JUMPDEST PUSH2 0xFAD JUMP JUMPDEST STOP JUMPDEST CALLVALUE DUP1 ISZERO PUSH2 0x356 JUMPI PUSH1 0x0 DUP1 REVERT JUMPDEST POP PUSH2 0x371 PUSH1 0x4 DUP1 CALLDATASIZE SUB DUP2 ADD SWAP1 PUSH2 0x36C SWAP2 SWAP1 PUSH2 0x1C2C JUMP JUMPDEST PUSH2 0x10F4 JUMP JUMPDEST PUSH1 0x40 MLOAD PUSH2 0x37E SWAP2 SWAP1 PUSH2 0x1C74 JUMP JUMPDEST PUSH1 0x40 MLOAD DUP1 SWAP2 SUB SWAP1 RETURN JUMPDEST PUSH2 0x3A1 PUSH1 0x4 DUP1 CALLDATASIZE SUB DUP2 ADD SWAP1 PUSH2 0x39C SWAP2 SWAP1 PUSH2 0x1FDA JUMP JUMPDEST PUSH2 0x114A JUMP JUMPDEST STOP JUMPDEST CALLVALUE DUP1 ISZERO PUSH2 0x3AF JUMPI PUSH1 0x0 DUP1 REVERT JUMPDEST POP PUSH2 0x3B8 PUSH2 0x17D4 JUMP JUMPDEST PUSH1 0x40 MLOAD PUSH2 0x3C5 SWAP2 SWAP1 PUSH2 0x1B93 JUMP JUMPDEST PUSH1 0x40 MLOAD DUP1 SWAP2 SUB SWAP1 RETURN JUMPDEST CALLVALUE DUP1 ISZERO PUSH2 0x3DA JUMPI PUSH1 0x0 DUP1 REVERT JUMPDEST POP PUSH2 0x3F5 PUSH1 0x4 DUP1 CALLDATASIZE SUB DUP2 ADD SWAP1 PUSH2 0x3F0 SWAP2 SWAP1 PUSH2 0x1C2C JUMP JUMPDEST PUSH2 0x17DA JUMP JUMPDEST STOP JUMPDEST CALLVALUE DUP1 ISZERO PUSH2 0x403 JUMPI PUSH1 0x0 DUP1 REVERT JUMPDEST POP PUSH2 0x40C PUSH2 0x185D JUMP JUMPDEST PUSH1 0x40 MLOAD PUSH2 0x419 SWAP2 SWAP1 PUSH2 0x2073 JUMP JUMPDEST PUSH1 0x40 MLOAD DUP1 SWAP2 SUB SWAP1 RETURN JUMPDEST CALLVALUE DUP1 ISZERO PUSH2 0x42E JUMPI PUSH1 0x0 DUP1 REVERT JUMPDEST POP PUSH2 0x449 PUSH1 0x4 DUP1 CALLDATASIZE SUB DUP2 ADD SWAP1 PUSH2 0x444 SWAP2 SWAP1 PUSH2 0x208E JUMP JUMPDEST PUSH2 0x1883 JUMP JUMPDEST STOP JUMPDEST PUSH2 0x453 PUSH2 0x192F JUMP JUMPDEST DUP2 PUSH1 0x1 DUP2 SWAP1 SSTORE POP DUP1 PUSH1 0x2 PUSH1 0x0 PUSH2 0x100 EXP DUP2 SLOAD DUP2 PUSH20 0xFFFFFFFFFFFFFFFFFFFFFFFFFFFFFFFFFFFFFFFF MUL NOT AND SWAP1 DUP4 PUSH20 0xFFFFFFFFFFFFFFFFFFFFFFFFFFFFFFFFFFFFFFFF AND MUL OR SWAP1 SSTORE POP POP POP JUMP JUMPDEST PUSH1 0x5 SLOAD DUP2 JUMP JUMPDEST PUSH2 0x4AD PUSH2 0x192F JUMP JUMPDEST DUP2 PUSH1 0x4 PUSH1 0x0 PUSH2 0x100 EXP DUP2 SLOAD DUP2 PUSH20 0xFFFFFFFFFFFFFFFFFFFFFFFFFFFFFFFFFFFFFFFF MUL NOT AND SWAP1 DUP4 PUSH20 0xFFFFFFFFFFFFFFFFFFFFFFFFFFFFFFFFFFFFFFFF AND MUL OR SWAP1 SSTORE POP DUP1 PUSH1 0x5 DUP2 SWAP1 SSTORE POP POP POP JUMP JUMPDEST PUSH1 0x0 PUSH1 0x4 PUSH1 0x0 SWAP1 SLOAD SWAP1 PUSH2 0x100 EXP SWAP1 DIV PUSH20 0xFFFFFFFFFFFFFFFFFFFFFFFFFFFFFFFFFFFFFFFF AND PUSH20 0xFFFFFFFFFFFFFFFFFFFFFFFFFFFFFFFFFFFFFFFF AND PUSH4 0x70A08231 DUP4 PUSH1 0x40 MLOAD DUP3 PUSH4 0xFFFFFFFF AND PUSH1 0xE0 SHL DUP2 MSTORE PUSH1 0x4 ADD PUSH2 0x556 SWAP2 SWAP1 PUSH2 0x1C9E JUMP JUMPDEST PUSH1 0x20 PUSH1 0x40 MLOAD DUP1 DUP4 SUB DUP2 DUP7 GAS STATICCALL ISZERO DUP1 ISZERO PUSH2 0x573 JUMPI RETURNDATASIZE PUSH1 0x0 DUP1 RETURNDATACOPY RETURNDATASIZE PUSH1 0x0 REVERT JUMPDEST POP POP POP POP PUSH1 0x40 MLOAD RETURNDATASIZE PUSH1 0x1F NOT PUSH1 0x1F DUP3 ADD AND DUP3 ADD DUP1 PUSH1 0x40 MSTORE POP DUP2 ADD SWAP1 PUSH2 0x597 SWAP2 SWAP1 PUSH2 0x20D0 JUMP JUMPDEST SWAP1 POP SWAP2 SWAP1 POP JUMP JUMPDEST PUSH1 0x3 PUSH1 0x20 MSTORE DUP1 PUSH1 0x0 MSTORE PUSH1 0x40 PUSH1 0x0 KECCAK256 PUSH1 0x0 SWAP2 POP SLOAD SWAP1 PUSH2 0x100 EXP SWAP1 DIV PUSH1 0xFF AND DUP2 JUMP JUMPDEST PUSH2 0x5C6 PUSH2 0x192F JUMP JUMPDEST PUSH1 0x1 ISZERO ISZERO PUSH1 0x3 PUSH1 0x0 DUP4 PUSH20 0xFFFFFFFFFFFFFFFFFFFFFFFFFFFFFFFFFFFFFFFF AND PUSH20 0xFFFFFFFFFFFFFFFFFFFFFFFFFFFFFFFFFFFFFFFF AND DUP2 MSTORE PUSH1 0x20 ADD SWAP1 DUP2 MSTORE PUSH1 0x20 ADD PUSH1 0x0 KECCAK256 PUSH1 0x0 SWAP1 SLOAD SWAP1 PUSH2 0x100 EXP SWAP1 DIV PUSH1 0xFF AND ISZERO ISZERO EQ PUSH2 0x659 JUMPI PUSH1 0x40 MLOAD PUSH32 0x8C379A000000000000000000000000000000000000000000000000000000000 DUP2 MSTORE PUSH1 0x4 ADD PUSH2 0x650 SWAP1 PUSH2 0x215A JUMP JUMPDEST PUSH1 0x40 MLOAD DUP1 SWAP2 SUB SWAP1 REVERT JUMPDEST PUSH1 0x0 PUSH1 0x3 PUSH1 0x0 DUP4 PUSH20 0xFFFFFFFFFFFFFFFFFFFFFFFFFFFFFFFFFFFFFFFF AND PUSH20 0xFFFFFFFFFFFFFFFFFFFFFFFFFFFFFFFFFFFFFFFF AND DUP2 MSTORE PUSH1 0x20 ADD SWAP1 DUP2 MSTORE PUSH1 0x20 ADD PUSH1 0x0 KECCAK256 PUSH1 0x0 PUSH2 0x100 EXP DUP2 SLOAD DUP2 PUSH1 0xFF MUL NOT AND SWAP1 DUP4 ISZERO ISZERO MUL OR SWAP1 SSTORE POP POP JUMP JUMPDEST PUSH2 0x6BC PUSH2 0x192F JUMP JUMPDEST PUSH1 0x0 ISZERO ISZERO PUSH1 0x3 PUSH1 0x0 DUP4 PUSH20 0xFFFFFFFFFFFFFFFFFFFFFFFFFFFFFFFFFFFFFFFF AND PUSH20 0xFFFFFFFFFFFFFFFFFFFFFFFFFFFFFFFFFFFFFFFF AND DUP2 MSTORE PUSH1 0x20 ADD SWAP1 DUP2 MSTORE PUSH1 0x20 ADD PUSH1 0x0 KECCAK256 PUSH1 0x0 SWAP1 SLOAD SWAP1 PUSH2 0x100 EXP SWAP1 DIV PUSH1 0xFF AND ISZERO ISZERO EQ PUSH2 0x74F JUMPI PUSH1 0x40 MLOAD PUSH32 0x8C379A000000000000000000000000000000000000000000000000000000000 DUP2 MSTORE PUSH1 0x4 ADD PUSH2 0x746 SWAP1 PUSH2 0x21C6 JUMP JUMPDEST PUSH1 0x40 MLOAD DUP1 SWAP2 SUB SWAP1 REVERT JUMPDEST PUSH1 0x1 PUSH1 0x3 PUSH1 0x0 DUP4 PUSH20 0xFFFFFFFFFFFFFFFFFFFFFFFFFFFFFFFFFFFFFFFF AND PUSH20 0xFFFFFFFFFFFFFFFFFFFFFFFFFFFFFFFFFFFFFFFF AND DUP2 MSTORE PUSH1 0x20 ADD SWAP1 DUP2 MSTORE PUSH1 0x20 ADD PUSH1 0x0 KECCAK256 PUSH1 0x0 PUSH2 0x100 EXP DUP2 SLOAD DUP2 PUSH1 0xFF MUL NOT AND SWAP1 DUP4 ISZERO ISZERO MUL OR SWAP1 SSTORE POP POP JUMP JUMPDEST PUSH2 0x7B2 PUSH2 0x192F JUMP JUMPDEST PUSH2 0x7BC PUSH1 0x0 PUSH2 0x19AD JUMP JUMPDEST JUMP JUMPDEST PUSH1 0x0 PUSH2 0x7C8 PUSH2 0x192F JUMP JUMPDEST ADDRESS PUSH20 0xFFFFFFFFFFFFFFFFFFFFFFFFFFFFFFFFFFFFFFFF AND BALANCE SWAP1 POP SWAP1 JUMP JUMPDEST PUSH1 0x0 DUP1 PUSH1 0x0 SWAP1 SLOAD SWAP1 PUSH2 0x100 EXP SWAP1 DIV PUSH20 0xFFFFFFFFFFFFFFFFFFFFFFFFFFFFFFFFFFFFFFFF AND SWAP1 POP SWAP1 JUMP JUMPDEST PUSH1 0x0 PUSH20 0xFFFFFFFFFFFFFFFFFFFFFFFFFFFFFFFFFFFFFFFF AND PUSH1 0x4 PUSH1 0x0 SWAP1 SLOAD SWAP1 PUSH2 0x100 EXP SWAP1 DIV PUSH20 0xFFFFFFFFFFFFFFFFFFFFFFFFFFFFFFFFFFFFFFFF AND PUSH20 0xFFFFFFFFFFFFFFFFFFFFFFFFFFFFFFFFFFFFFFFF AND SUB PUSH2 0x89F JUMPI PUSH1 0x40 MLOAD PUSH32 0x8C379A000000000000000000000000000000000000000000000000000000000 DUP2 MSTORE PUSH1 0x4 ADD PUSH2 0x896 SWAP1 PUSH2 0x2232 JUMP JUMPDEST PUSH1 0x40 MLOAD DUP1 SWAP2 SUB SWAP1 REVERT JUMPDEST PUSH1 0x1 ISZERO ISZERO PUSH2 0x8C2 DUP5 PUSH20 0xFFFFFFFFFFFFFFFFFFFFFFFFFFFFFFFFFFFFFFFF AND PUSH2 0x1A71 JUMP JUMPDEST ISZERO ISZERO EQ PUSH2 0x904 JUMPI PUSH1 0x40 MLOAD PUSH32 0x8C379A000000000000000000000000000000000000000000000000000000000 DUP2 MSTORE PUSH1 0x4 ADD PUSH2 0x8FB SWAP1 PUSH2 0x229E JUMP JUMPDEST PUSH1 0x40 MLOAD DUP1 SWAP2 SUB SWAP1 REVERT JUMPDEST DUP1 MLOAD DUP3 MLOAD EQ PUSH2 0x948 JUMPI PUSH1 0x40 MLOAD PUSH32 0x8C379A000000000000000000000000000000000000000000000000000000000 DUP2 MSTORE PUSH1 0x4 ADD PUSH2 0x93F SWAP1 PUSH2 0x230A JUMP JUMPDEST PUSH1 0x40 MLOAD DUP1 SWAP2 SUB SWAP1 REVERT JUMPDEST PUSH1 0x3 PUSH1 0x0 CALLER PUSH20 0xFFFFFFFFFFFFFFFFFFFFFFFFFFFFFFFFFFFFFFFF AND PUSH20 0xFFFFFFFFFFFFFFFFFFFFFFFFFFFFFFFFFFFFFFFF AND DUP2 MSTORE PUSH1 0x20 ADD SWAP1 DUP2 MSTORE PUSH1 0x20 ADD PUSH1 0x0 KECCAK256 PUSH1 0x0 SWAP1 SLOAD SWAP1 PUSH2 0x100 EXP SWAP1 DIV PUSH1 0xFF AND ISZERO PUSH2 0xAB2 JUMPI PUSH1 0x0 JUMPDEST DUP2 MLOAD DUP2 LT ISZERO PUSH2 0xAAC JUMPI DUP4 PUSH20 0xFFFFFFFFFFFFFFFFFFFFFFFFFFFFFFFFFFFFFFFF AND PUSH4 0x23B872DD CALLER DUP6 DUP5 DUP2 MLOAD DUP2 LT PUSH2 0x9D6 JUMPI PUSH2 0x9D5 PUSH2 0x232A JUMP JUMPDEST JUMPDEST PUSH1 0x20 MUL PUSH1 0x20 ADD ADD MLOAD DUP6 DUP6 DUP2 MLOAD DUP2 LT PUSH2 0x9F1 JUMPI PUSH2 0x9F0 PUSH2 0x232A JUMP JUMPDEST JUMPDEST PUSH1 0x20 MUL PUSH1 0x20 ADD ADD MLOAD PUSH1 0x40 MLOAD DUP5 PUSH4 0xFFFFFFFF AND PUSH1 0xE0 SHL DUP2 MSTORE PUSH1 0x4 ADD PUSH2 0xA17 SWAP4 SWAP3 SWAP2 SWAP1 PUSH2 0x2359 JUMP JUMPDEST PUSH1 0x20 PUSH1 0x40 MLOAD DUP1 DUP4 SUB DUP2 PUSH1 0x0 DUP8 GAS CALL ISZERO DUP1 ISZERO PUSH2 0xA36 JUMPI RETURNDATASIZE PUSH1 0x0 DUP1 RETURNDATACOPY RETURNDATASIZE PUSH1 0x0 REVERT JUMPDEST POP POP POP POP PUSH1 0x40 MLOAD RETURNDATASIZE PUSH1 0x1F NOT PUSH1 0x1F DUP3 ADD AND DUP3 ADD DUP1 PUSH1 0x40 MSTORE POP DUP2 ADD SWAP1 PUSH2 0xA5A SWAP2 SWAP1 PUSH2 0x23BC JUMP JUMPDEST PUSH2 0xA99 JUMPI PUSH1 0x40 MLOAD PUSH32 0x8C379A000000000000000000000000000000000000000000000000000000000 DUP2 MSTORE PUSH1 0x4 ADD PUSH2 0xA90 SWAP1 PUSH2 0x2435 JUMP JUMPDEST PUSH1 0x40 MLOAD DUP1 SWAP2 SUB SWAP1 REVERT JUMPDEST DUP1 DUP1 PUSH2 0xAA4 SWAP1 PUSH2 0x2484 JUMP JUMPDEST SWAP2 POP POP PUSH2 0x99D JUMP JUMPDEST POP PUSH2 0xF82 JUMP JUMPDEST PUSH1 0x3 PUSH1 0x0 CALLER PUSH20 0xFFFFFFFFFFFFFFFFFFFFFFFFFFFFFFFFFFFFFFFF AND PUSH20 0xFFFFFFFFFFFFFFFFFFFFFFFFFFFFFFFFFFFFFFFF AND DUP2 MSTORE PUSH1 0x20 ADD SWAP1 DUP2 MSTORE PUSH1 0x20 ADD PUSH1 0x0 KECCAK256 PUSH1 0x0 SWAP1 SLOAD SWAP1 PUSH2 0x100 EXP SWAP1 DIV PUSH1 0xFF AND PUSH2 0xF81 JUMPI PUSH1 0x5 SLOAD PUSH1 0x4 PUSH1 0x0 SWAP1 SLOAD SWAP1 PUSH2 0x100 EXP SWAP1 DIV PUSH20 0xFFFFFFFFFFFFFFFFFFFFFFFFFFFFFFFFFFFFFFFF AND PUSH20 0xFFFFFFFFFFFFFFFFFFFFFFFFFFFFFFFFFFFFFFFF AND PUSH4 0x70A08231 CALLER PUSH1 0x40 MLOAD DUP3 PUSH4 0xFFFFFFFF AND PUSH1 0xE0 SHL DUP2 MSTORE PUSH1 0x4 ADD PUSH2 0xB61 SWAP2 SWAP1 PUSH2 0x1C9E JUMP JUMPDEST PUSH1 0x20 PUSH1 0x40 MLOAD DUP1 DUP4 SUB DUP2 DUP7 GAS STATICCALL ISZERO DUP1 ISZERO PUSH2 0xB7E JUMPI RETURNDATASIZE PUSH1 0x0 DUP1 RETURNDATACOPY RETURNDATASIZE PUSH1 0x0 REVERT JUMPDEST POP POP POP POP PUSH1 0x40 MLOAD RETURNDATASIZE PUSH1 0x1F NOT PUSH1 0x1F DUP3 ADD AND DUP3 ADD DUP1 PUSH1 0x40 MSTORE POP DUP2 ADD SWAP1 PUSH2 0xBA2 SWAP2 SWAP1 PUSH2 0x20D0 JUMP JUMPDEST LT PUSH2 0xD17 JUMPI PUSH1 0x1 PUSH1 0x3 PUSH1 0x0 CALLER PUSH20 0xFFFFFFFFFFFFFFFFFFFFFFFFFFFFFFFFFFFFFFFF AND PUSH20 0xFFFFFFFFFFFFFFFFFFFFFFFFFFFFFFFFFFFFFFFF AND DUP2 MSTORE PUSH1 0x20 ADD SWAP1 DUP2 MSTORE PUSH1 0x20 ADD PUSH1 0x0 KECCAK256 PUSH1 0x0 PUSH2 0x100 EXP DUP2 SLOAD DUP2 PUSH1 0xFF MUL NOT AND SWAP1 DUP4 ISZERO ISZERO MUL OR SWAP1 SSTORE POP PUSH1 0x0 JUMPDEST DUP2 MLOAD DUP2 LT ISZERO PUSH2 0xD11 JUMPI DUP4 PUSH20 0xFFFFFFFFFFFFFFFFFFFFFFFFFFFFFFFFFFFFFFFF AND PUSH4 0x23B872DD CALLER DUP6 DUP5 DUP2 MLOAD DUP2 LT PUSH2 0xC3B JUMPI PUSH2 0xC3A PUSH2 0x232A JUMP JUMPDEST JUMPDEST PUSH1 0x20 MUL PUSH1 0x20 ADD ADD MLOAD DUP6 DUP6 DUP2 MLOAD DUP2 LT PUSH2 0xC56 JUMPI PUSH2 0xC55 PUSH2 0x232A JUMP JUMPDEST JUMPDEST PUSH1 0x20 MUL PUSH1 0x20 ADD ADD MLOAD PUSH1 0x40 MLOAD DUP5 PUSH4 0xFFFFFFFF AND PUSH1 0xE0 SHL DUP2 MSTORE PUSH1 0x4 ADD PUSH2 0xC7C SWAP4 SWAP3 SWAP2 SWAP1 PUSH2 0x2359 JUMP JUMPDEST PUSH1 0x20 PUSH1 0x40 MLOAD DUP1 DUP4 SUB DUP2 PUSH1 0x0 DUP8 GAS CALL ISZERO DUP1 ISZERO PUSH2 0xC9B JUMPI RETURNDATASIZE PUSH1 0x0 DUP1 RETURNDATACOPY RETURNDATASIZE PUSH1 0x0 REVERT JUMPDEST POP POP POP POP PUSH1 0x40 MLOAD RETURNDATASIZE PUSH1 0x1F NOT PUSH1 0x1F DUP3 ADD AND DUP3 ADD DUP1 PUSH1 0x40 MSTORE POP DUP2 ADD SWAP1 PUSH2 0xCBF SWAP2 SWAP1 PUSH2 0x23BC JUMP JUMPDEST PUSH2 0xCFE JUMPI PUSH1 0x40 MLOAD PUSH32 0x8C379A000000000000000000000000000000000000000000000000000000000 DUP2 MSTORE PUSH1 0x4 ADD PUSH2 0xCF5 SWAP1 PUSH2 0x2435 JUMP JUMPDEST PUSH1 0x40 MLOAD DUP1 SWAP2 SUB SWAP1 REVERT JUMPDEST DUP1 DUP1 PUSH2 0xD09 SWAP1 PUSH2 0x2484 JUMP JUMPDEST SWAP2 POP POP PUSH2 0xC02 JUMP JUMPDEST POP PUSH2 0xF80 JUMP JUMPDEST PUSH1 0x5 SLOAD PUSH1 0x4 PUSH1 0x0 SWAP1 SLOAD SWAP1 PUSH2 0x100 EXP SWAP1 DIV PUSH20 0xFFFFFFFFFFFFFFFFFFFFFFFFFFFFFFFFFFFFFFFF AND PUSH20 0xFFFFFFFFFFFFFFFFFFFFFFFFFFFFFFFFFFFFFFFF AND PUSH4 0x70A08231 CALLER PUSH1 0x40 MLOAD DUP3 PUSH4 0xFFFFFFFF AND PUSH1 0xE0 SHL DUP2 MSTORE PUSH1 0x4 ADD PUSH2 0xD75 SWAP2 SWAP1 PUSH2 0x1C9E JUMP JUMPDEST PUSH1 0x20 PUSH1 0x40 MLOAD DUP1 DUP4 SUB DUP2 DUP7 GAS STATICCALL ISZERO DUP1 ISZERO PUSH2 0xD92 JUMPI RETURNDATASIZE PUSH1 0x0 DUP1 RETURNDATACOPY RETURNDATASIZE PUSH1 0x0 REVERT JUMPDEST POP POP POP POP PUSH1 0x40 MLOAD RETURNDATASIZE PUSH1 0x1F NOT PUSH1 0x1F DUP3 ADD AND DUP3 ADD DUP1 PUSH1 0x40 MSTORE POP DUP2 ADD SWAP1 PUSH2 0xDB6 SWAP2 SWAP1 PUSH2 0x20D0 JUMP JUMPDEST LT ISZERO PUSH2 0xF7F JUMPI PUSH1 0x1 SLOAD CALLVALUE EQ PUSH2 0xE00 JUMPI PUSH1 0x40 MLOAD PUSH32 0x8C379A000000000000000000000000000000000000000000000000000000000 DUP2 MSTORE PUSH1 0x4 ADD PUSH2 0xDF7 SWAP1 PUSH2 0x253E JUMP JUMPDEST PUSH1 0x40 MLOAD DUP1 SWAP2 SUB SWAP1 REVERT JUMPDEST PUSH1 0x2 PUSH1 0x0 SWAP1 SLOAD SWAP1 PUSH2 0x100 EXP SWAP1 DIV PUSH20 0xFFFFFFFFFFFFFFFFFFFFFFFFFFFFFFFFFFFFFFFF AND PUSH20 0xFFFFFFFFFFFFFFFFFFFFFFFFFFFFFFFFFFFFFFFF AND PUSH2 0x8FC PUSH1 0x1 SLOAD SWAP1 DUP2 ISZERO MUL SWAP1 PUSH1 0x40 MLOAD PUSH1 0x0 PUSH1 0x40 MLOAD DUP1 DUP4 SUB DUP2 DUP6 DUP9 DUP9 CALL SWAP4 POP POP POP POP ISZERO DUP1 ISZERO PUSH2 0xE6A JUMPI RETURNDATASIZE PUSH1 0x0 DUP1 RETURNDATACOPY RETURNDATASIZE PUSH1 0x0 REVERT JUMPDEST POP PUSH1 0x0 JUMPDEST DUP2 MLOAD DUP2 LT ISZERO PUSH2 0xF7D JUMPI DUP4 PUSH20 0xFFFFFFFFFFFFFFFFFFFFFFFFFFFFFFFFFFFFFFFF AND PUSH4 0x23B872DD CALLER DUP6 DUP5 DUP2 MLOAD DUP2 LT PUSH2 0xEA7 JUMPI PUSH2 0xEA6 PUSH2 0x232A JUMP JUMPDEST JUMPDEST PUSH1 0x20 MUL PUSH1 0x20 ADD ADD MLOAD DUP6 DUP6 DUP2 MLOAD DUP2 LT PUSH2 0xEC2 JUMPI PUSH2 0xEC1 PUSH2 0x232A JUMP JUMPDEST JUMPDEST PUSH1 0x20 MUL PUSH1 0x20 ADD ADD MLOAD PUSH1 0x40 MLOAD DUP5 PUSH4 0xFFFFFFFF AND PUSH1 0xE0 SHL DUP2 MSTORE PUSH1 0x4 ADD PUSH2 0xEE8 SWAP4 SWAP3 SWAP2 SWAP1 PUSH2 0x2359 JUMP JUMPDEST PUSH1 0x20 PUSH1 0x40 MLOAD DUP1 DUP4 SUB DUP2 PUSH1 0x0 DUP8 GAS CALL ISZERO DUP1 ISZERO PUSH2 0xF07 JUMPI RETURNDATASIZE PUSH1 0x0 DUP1 RETURNDATACOPY RETURNDATASIZE PUSH1 0x0 REVERT JUMPDEST POP POP POP POP PUSH1 0x40 MLOAD RETURNDATASIZE PUSH1 0x1F NOT PUSH1 0x1F DUP3 ADD AND DUP3 ADD DUP1 PUSH1 0x40 MSTORE POP DUP2 ADD SWAP1 PUSH2 0xF2B SWAP2 SWAP1 PUSH2 0x23BC JUMP JUMPDEST PUSH2 0xF6A JUMPI PUSH1 0x40 MLOAD PUSH32 0x8C379A000000000000000000000000000000000000000000000000000000000 DUP2 MSTORE PUSH1 0x4 ADD PUSH2 0xF61 SWAP1 PUSH2 0x2435 JUMP JUMPDEST PUSH1 0x40 MLOAD DUP1 SWAP2 SUB SWAP1 REVERT JUMPDEST DUP1 DUP1 PUSH2 0xF75 SWAP1 PUSH2 0x2484 JUMP JUMPDEST SWAP2 POP POP PUSH2 0xE6E JUMP JUMPDEST POP JUMPDEST JUMPDEST JUMPDEST JUMPDEST POP POP POP JUMP JUMPDEST PUSH1 0x4 PUSH1 0x0 SWAP1 SLOAD SWAP1 PUSH2 0x100 EXP SWAP1 DIV PUSH20 0xFFFFFFFFFFFFFFFFFFFFFFFFFFFFFFFFFFFFFFFF AND DUP2 JUMP JUMPDEST PUSH2 0xFB5 PUSH2 0x192F JUMP JUMPDEST DUP1 DUP3 PUSH20 0xFFFFFFFFFFFFFFFFFFFFFFFFFFFFFFFFFFFFFFFF AND PUSH4 0x70A08231 ADDRESS PUSH1 0x40 MLOAD DUP3 PUSH4 0xFFFFFFFF AND PUSH1 0xE0 SHL DUP2 MSTORE PUSH1 0x4 ADD PUSH2 0xFEF SWAP2 SWAP1 PUSH2 0x1C9E JUMP JUMPDEST PUSH1 0x20 PUSH1 0x40 MLOAD DUP1 DUP4 SUB DUP2 DUP7 GAS STATICCALL ISZERO DUP1 ISZERO PUSH2 0x100C JUMPI RETURNDATASIZE PUSH1 0x0 DUP1 RETURNDATACOPY RETURNDATASIZE PUSH1 0x0 REVERT JUMPDEST POP POP POP POP PUSH1 0x40 MLOAD RETURNDATASIZE PUSH1 0x1F NOT PUSH1 0x1F DUP3 ADD AND DUP3 ADD DUP1 PUSH1 0x40 MSTORE POP DUP2 ADD SWAP1 PUSH2 0x1030 SWAP2 SWAP1 PUSH2 0x20D0 JUMP JUMPDEST LT ISZERO PUSH2 0x1071 JUMPI PUSH1 0x40 MLOAD PUSH32 0x8C379A000000000000000000000000000000000000000000000000000000000 DUP2 MSTORE PUSH1 0x4 ADD PUSH2 0x1068 SWAP1 PUSH2 0x25D0 JUMP JUMPDEST PUSH1 0x40 MLOAD DUP1 SWAP2 SUB SWAP1 REVERT JUMPDEST DUP2 PUSH20 0xFFFFFFFFFFFFFFFFFFFFFFFFFFFFFFFFFFFFFFFF AND PUSH4 0xA9059CBB CALLER DUP4 PUSH1 0x40 MLOAD DUP4 PUSH4 0xFFFFFFFF AND PUSH1 0xE0 SHL DUP2 MSTORE PUSH1 0x4 ADD PUSH2 0x10AC SWAP3 SWAP2 SWAP1 PUSH2 0x25F0 JUMP JUMPDEST PUSH1 0x20 PUSH1 0x40 MLOAD DUP1 DUP4 SUB DUP2 PUSH1 0x0 DUP8 GAS CALL ISZERO DUP1 ISZERO PUSH2 0x10CB JUMPI RETURNDATASIZE PUSH1 0x0 DUP1 RETURNDATACOPY RETURNDATASIZE PUSH1 0x0 REVERT JUMPDEST POP POP POP POP PUSH1 0x40 MLOAD RETURNDATASIZE PUSH1 0x1F NOT PUSH1 0x1F DUP3 ADD AND DUP3 ADD DUP1 PUSH1 0x40 MSTORE POP DUP2 ADD SWAP1 PUSH2 0x10EF SWAP2 SWAP1 PUSH2 0x23BC JUMP JUMPDEST POP POP POP JUMP JUMPDEST PUSH1 0x0 PUSH1 0x3 PUSH1 0x0 DUP4 PUSH20 0xFFFFFFFFFFFFFFFFFFFFFFFFFFFFFFFFFFFFFFFF AND PUSH20 0xFFFFFFFFFFFFFFFFFFFFFFFFFFFFFFFFFFFFFFFF AND DUP2 MSTORE PUSH1 0x20 ADD SWAP1 DUP2 MSTORE PUSH1 0x20 ADD PUSH1 0x0 KECCAK256 PUSH1 0x0 SWAP1 SLOAD SWAP1 PUSH2 0x100 EXP SWAP1 DIV PUSH1 0xFF AND SWAP1 POP SWAP2 SWAP1 POP JUMP JUMPDEST PUSH1 0x0 PUSH20 0xFFFFFFFFFFFFFFFFFFFFFFFFFFFFFFFFFFFFFFFF AND PUSH1 0x4 PUSH1 0x0 SWAP1 SLOAD SWAP1 PUSH2 0x100 EXP SWAP1 DIV PUSH20 0xFFFFFFFFFFFFFFFFFFFFFFFFFFFFFFFFFFFFFFFF AND PUSH20 0xFFFFFFFFFFFFFFFFFFFFFFFFFFFFFFFFFFFFFFFF AND SUB PUSH2 0x11DB JUMPI PUSH1 0x40 MLOAD PUSH32 0x8C379A000000000000000000000000000000000000000000000000000000000 DUP2 MSTORE PUSH1 0x4 ADD PUSH2 0x11D2 SWAP1 PUSH2 0x2232 JUMP JUMPDEST PUSH1 0x40 MLOAD DUP1 SWAP2 SUB SWAP1 REVERT JUMPDEST DUP1 MLOAD DUP3 MLOAD EQ PUSH2 0x121F JUMPI PUSH1 0x40 MLOAD PUSH32 0x8C379A000000000000000000000000000000000000000000000000000000000 DUP2 MSTORE PUSH1 0x4 ADD PUSH2 0x1216 SWAP1 PUSH2 0x230A JUMP JUMPDEST PUSH1 0x40 MLOAD DUP1 SWAP2 SUB SWAP1 REVERT JUMPDEST PUSH1 0x0 DUP1 JUMPDEST DUP3 MLOAD DUP2 LT ISZERO PUSH2 0x1267 JUMPI DUP3 DUP2 DUP2 MLOAD DUP2 LT PUSH2 0x123F JUMPI PUSH2 0x123E PUSH2 0x232A JUMP JUMPDEST JUMPDEST PUSH1 0x20 MUL PUSH1 0x20 ADD ADD MLOAD DUP3 PUSH2 0x1252 SWAP2 SWAP1 PUSH2 0x2619 JUMP JUMPDEST SWAP2 POP DUP1 DUP1 PUSH2 0x125F SWAP1 PUSH2 0x2484 JUMP JUMPDEST SWAP2 POP POP PUSH2 0x1223 JUMP JUMPDEST POP PUSH1 0x3 PUSH1 0x0 CALLER PUSH20 0xFFFFFFFFFFFFFFFFFFFFFFFFFFFFFFFFFFFFFFFF AND PUSH20 0xFFFFFFFFFFFFFFFFFFFFFFFFFFFFFFFFFFFFFFFF AND DUP2 MSTORE PUSH1 0x20 ADD SWAP1 DUP2 MSTORE PUSH1 0x20 ADD PUSH1 0x0 KECCAK256 PUSH1 0x0 SWAP1 SLOAD SWAP1 PUSH2 0x100 EXP SWAP1 DIV PUSH1 0xFF AND ISZERO PUSH2 0x139C JUMPI DUP1 CALLVALUE EQ PUSH2 0x12FC JUMPI PUSH1 0x40 MLOAD PUSH32 0x8C379A000000000000000000000000000000000000000000000000000000000 DUP2 MSTORE PUSH1 0x4 ADD PUSH2 0x12F3 SWAP1 PUSH2 0x26E1 JUMP JUMPDEST PUSH1 0x40 MLOAD DUP1 SWAP2 SUB SWAP1 REVERT JUMPDEST PUSH1 0x0 JUMPDEST DUP4 MLOAD DUP2 LT ISZERO PUSH2 0x1396 JUMPI DUP4 DUP2 DUP2 MLOAD DUP2 LT PUSH2 0x131B JUMPI PUSH2 0x131A PUSH2 0x232A JUMP JUMPDEST JUMPDEST PUSH1 0x20 MUL PUSH1 0x20 ADD ADD MLOAD PUSH20 0xFFFFFFFFFFFFFFFFFFFFFFFFFFFFFFFFFFFFFFFF AND PUSH2 0x8FC DUP5 DUP4 DUP2 MLOAD DUP2 LT PUSH2 0x134F JUMPI PUSH2 0x134E PUSH2 0x232A JUMP JUMPDEST JUMPDEST PUSH1 0x20 MUL PUSH1 0x20 ADD ADD MLOAD SWAP1 DUP2 ISZERO MUL SWAP1 PUSH1 0x40 MLOAD PUSH1 0x0 PUSH1 0x40 MLOAD DUP1 DUP4 SUB DUP2 DUP6 DUP9 DUP9 CALL SWAP4 POP POP POP POP ISZERO DUP1 ISZERO PUSH2 0x1382 JUMPI RETURNDATASIZE PUSH1 0x0 DUP1 RETURNDATACOPY RETURNDATASIZE PUSH1 0x0 REVERT JUMPDEST POP DUP1 DUP1 PUSH2 0x138E SWAP1 PUSH2 0x2484 JUMP JUMPDEST SWAP2 POP POP PUSH2 0x12FF JUMP JUMPDEST POP PUSH2 0x17CF JUMP JUMPDEST PUSH1 0x3 PUSH1 0x0 CALLER PUSH20 0xFFFFFFFFFFFFFFFFFFFFFFFFFFFFFFFFFFFFFFFF AND PUSH20 0xFFFFFFFFFFFFFFFFFFFFFFFFFFFFFFFFFFFFFFFF AND DUP2 MSTORE PUSH1 0x20 ADD SWAP1 DUP2 MSTORE PUSH1 0x20 ADD PUSH1 0x0 KECCAK256 PUSH1 0x0 SWAP1 SLOAD SWAP1 PUSH2 0x100 EXP SWAP1 DIV PUSH1 0xFF AND PUSH2 0x17CE JUMPI PUSH1 0x5 SLOAD PUSH1 0x4 PUSH1 0x0 SWAP1 SLOAD SWAP1 PUSH2 0x100 EXP SWAP1 DIV PUSH20 0xFFFFFFFFFFFFFFFFFFFFFFFFFFFFFFFFFFFFFFFF AND PUSH20 0xFFFFFFFFFFFFFFFFFFFFFFFFFFFFFFFFFFFFFFFF AND PUSH4 0x70A08231 CALLER PUSH1 0x40 MLOAD DUP3 PUSH4 0xFFFFFFFF AND PUSH1 0xE0 SHL DUP2 MSTORE PUSH1 0x4 ADD PUSH2 0x144B SWAP2 SWAP1 PUSH2 0x1C9E JUMP JUMPDEST PUSH1 0x20 PUSH1 0x40 MLOAD DUP1 DUP4 SUB DUP2 DUP7 GAS STATICCALL ISZERO DUP1 ISZERO PUSH2 0x1468 JUMPI RETURNDATASIZE PUSH1 0x0 DUP1 RETURNDATACOPY RETURNDATASIZE PUSH1 0x0 REVERT JUMPDEST POP POP POP POP PUSH1 0x40 MLOAD RETURNDATASIZE PUSH1 0x1F NOT PUSH1 0x1F DUP3 ADD AND DUP3 ADD DUP1 PUSH1 0x40 MSTORE POP DUP2 ADD SWAP1 PUSH2 0x148C SWAP2 SWAP1 PUSH2 0x20D0 JUMP JUMPDEST LT PUSH2 0x15CB JUMPI PUSH1 0x1 PUSH1 0x3 PUSH1 0x0 CALLER PUSH20 0xFFFFFFFFFFFFFFFFFFFFFFFFFFFFFFFFFFFFFFFF AND PUSH20 0xFFFFFFFFFFFFFFFFFFFFFFFFFFFFFFFFFFFFFFFF AND DUP2 MSTORE PUSH1 0x20 ADD SWAP1 DUP2 MSTORE PUSH1 0x20 ADD PUSH1 0x0 KECCAK256 PUSH1 0x0 PUSH2 0x100 EXP DUP2 SLOAD DUP2 PUSH1 0xFF MUL NOT AND SWAP1 DUP4 ISZERO ISZERO MUL OR SWAP1 SSTORE POP DUP1 CALLVALUE EQ PUSH2 0x152B JUMPI PUSH1 0x40 MLOAD PUSH32 0x8C379A000000000000000000000000000000000000000000000000000000000 DUP2 MSTORE PUSH1 0x4 ADD PUSH2 0x1522 SWAP1 PUSH2 0x2773 JUMP JUMPDEST PUSH1 0x40 MLOAD DUP1 SWAP2 SUB SWAP1 REVERT JUMPDEST PUSH1 0x0 JUMPDEST DUP4 MLOAD DUP2 LT ISZERO PUSH2 0x15C5 JUMPI DUP4 DUP2 DUP2 MLOAD DUP2 LT PUSH2 0x154A JUMPI PUSH2 0x1549 PUSH2 0x232A JUMP JUMPDEST JUMPDEST PUSH1 0x20 MUL PUSH1 0x20 ADD ADD MLOAD PUSH20 0xFFFFFFFFFFFFFFFFFFFFFFFFFFFFFFFFFFFFFFFF AND PUSH2 0x8FC DUP5 DUP4 DUP2 MLOAD DUP2 LT PUSH2 0x157E JUMPI PUSH2 0x157D PUSH2 0x232A JUMP JUMPDEST JUMPDEST PUSH1 0x20 MUL PUSH1 0x20 ADD ADD MLOAD SWAP1 DUP2 ISZERO MUL SWAP1 PUSH1 0x40 MLOAD PUSH1 0x0 PUSH1 0x40 MLOAD DUP1 DUP4 SUB DUP2 DUP6 DUP9 DUP9 CALL SWAP4 POP POP POP POP ISZERO DUP1 ISZERO PUSH2 0x15B1 JUMPI RETURNDATASIZE PUSH1 0x0 DUP1 RETURNDATACOPY RETURNDATASIZE PUSH1 0x0 REVERT JUMPDEST POP DUP1 DUP1 PUSH2 0x15BD SWAP1 PUSH2 0x2484 JUMP JUMPDEST SWAP2 POP POP PUSH2 0x152E JUMP JUMPDEST POP PUSH2 0x17CD JUMP JUMPDEST PUSH1 0x5 SLOAD PUSH1 0x4 PUSH1 0x0 SWAP1 SLOAD SWAP1 PUSH2 0x100 EXP SWAP1 DIV PUSH20 0xFFFFFFFFFFFFFFFFFFFFFFFFFFFFFFFFFFFFFFFF AND PUSH20 0xFFFFFFFFFFFFFFFFFFFFFFFFFFFFFFFFFFFFFFFF AND PUSH4 0x70A08231 CALLER PUSH1 0x40 MLOAD DUP3 PUSH4 0xFFFFFFFF AND PUSH1 0xE0 SHL DUP2 MSTORE PUSH1 0x4 ADD PUSH2 0x1629 SWAP2 SWAP1 PUSH2 0x1C9E JUMP JUMPDEST PUSH1 0x20 PUSH1 0x40 MLOAD DUP1 DUP4 SUB DUP2 DUP7 GAS STATICCALL ISZERO DUP1 ISZERO PUSH2 0x1646 JUMPI RETURNDATASIZE PUSH1 0x0 DUP1 RETURNDATACOPY RETURNDATASIZE PUSH1 0x0 REVERT JUMPDEST POP POP POP POP PUSH1 0x40 MLOAD RETURNDATASIZE PUSH1 0x1F NOT PUSH1 0x1F DUP3 ADD AND DUP3 ADD DUP1 PUSH1 0x40 MSTORE POP DUP2 ADD SWAP1 PUSH2 0x166A SWAP2 SWAP1 PUSH2 0x20D0 JUMP JUMPDEST LT ISZERO PUSH2 0x17CC JUMPI PUSH1 0x0 DUP2 PUSH1 0x1 SLOAD PUSH2 0x1680 SWAP2 SWAP1 PUSH2 0x2619 JUMP JUMPDEST SWAP1 POP DUP1 CALLVALUE EQ PUSH2 0x16C4 JUMPI PUSH1 0x40 MLOAD PUSH32 0x8C379A000000000000000000000000000000000000000000000000000000000 DUP2 MSTORE PUSH1 0x4 ADD PUSH2 0x16BB SWAP1 PUSH2 0x253E JUMP JUMPDEST PUSH1 0x40 MLOAD DUP1 SWAP2 SUB SWAP1 REVERT JUMPDEST PUSH1 0x2 PUSH1 0x0 SWAP1 SLOAD SWAP1 PUSH2 0x100 EXP SWAP1 DIV PUSH20 0xFFFFFFFFFFFFFFFFFFFFFFFFFFFFFFFFFFFFFFFF AND PUSH20 0xFFFFFFFFFFFFFFFFFFFFFFFFFFFFFFFFFFFFFFFF AND PUSH2 0x8FC PUSH1 0x1 SLOAD SWAP1 DUP2 ISZERO MUL SWAP1 PUSH1 0x40 MLOAD PUSH1 0x0 PUSH1 0x40 MLOAD DUP1 DUP4 SUB DUP2 DUP6 DUP9 DUP9 CALL SWAP4 POP POP POP POP ISZERO DUP1 ISZERO PUSH2 0x172E JUMPI RETURNDATASIZE PUSH1 0x0 DUP1 RETURNDATACOPY RETURNDATASIZE PUSH1 0x0 REVERT JUMPDEST POP PUSH1 0x0 JUMPDEST DUP5 MLOAD DUP2 LT ISZERO PUSH2 0x17C9 JUMPI DUP5 DUP2 DUP2 MLOAD DUP2 LT PUSH2 0x174E JUMPI PUSH2 0x174D PUSH2 0x232A JUMP JUMPDEST JUMPDEST PUSH1 0x20 MUL PUSH1 0x20 ADD ADD MLOAD PUSH20 0xFFFFFFFFFFFFFFFFFFFFFFFFFFFFFFFFFFFFFFFF AND PUSH2 0x8FC DUP6 DUP4 DUP2 MLOAD DUP2 LT PUSH2 0x1782 JUMPI PUSH2 0x1781 PUSH2 0x232A JUMP JUMPDEST JUMPDEST PUSH1 0x20 MUL PUSH1 0x20 ADD ADD MLOAD SWAP1 DUP2 ISZERO MUL SWAP1 PUSH1 0x40 MLOAD PUSH1 0x0 PUSH1 0x40 MLOAD DUP1 DUP4 SUB DUP2 DUP6 DUP9 DUP9 CALL SWAP4 POP POP POP POP ISZERO DUP1 ISZERO PUSH2 0x17B5 JUMPI RETURNDATASIZE PUSH1 0x0 DUP1 RETURNDATACOPY RETURNDATASIZE PUSH1 0x0 REVERT JUMPDEST POP DUP1 DUP1 PUSH2 0x17C1 SWAP1 PUSH2 0x2484 JUMP JUMPDEST SWAP2 POP POP PUSH2 0x1732 JUMP JUMPDEST POP POP JUMPDEST JUMPDEST JUMPDEST JUMPDEST POP POP POP JUMP JUMPDEST PUSH1 0x1 SLOAD DUP2 JUMP JUMPDEST PUSH2 0x17E2 PUSH2 0x192F JUMP JUMPDEST PUSH1 0x0 PUSH20 0xFFFFFFFFFFFFFFFFFFFFFFFFFFFFFFFFFFFFFFFF AND DUP2 PUSH20 0xFFFFFFFFFFFFFFFFFFFFFFFFFFFFFFFFFFFFFFFF AND SUB PUSH2 0x1851 JUMPI PUSH1 0x40 MLOAD PUSH32 0x8C379A000000000000000000000000000000000000000000000000000000000 DUP2 MSTORE PUSH1 0x4 ADD PUSH2 0x1848 SWAP1 PUSH2 0x2805 JUMP JUMPDEST PUSH1 0x40 MLOAD DUP1 SWAP2 SUB SWAP1 REVERT JUMPDEST PUSH2 0x185A DUP2 PUSH2 0x19AD JUMP JUMPDEST POP JUMP JUMPDEST PUSH1 0x2 PUSH1 0x0 SWAP1 SLOAD SWAP1 PUSH2 0x100 EXP SWAP1 DIV PUSH20 0xFFFFFFFFFFFFFFFFFFFFFFFFFFFFFFFFFFFFFFFF AND DUP2 JUMP JUMPDEST PUSH2 0x188B PUSH2 0x192F JUMP JUMPDEST DUP1 ADDRESS PUSH20 0xFFFFFFFFFFFFFFFFFFFFFFFFFFFFFFFFFFFFFFFF AND BALANCE LT ISZERO PUSH2 0x18E5 JUMPI PUSH1 0x40 MLOAD PUSH32 0x8C379A000000000000000000000000000000000000000000000000000000000 DUP2 MSTORE PUSH1 0x4 ADD PUSH2 0x18DC SWAP1 PUSH2 0x2871 JUMP JUMPDEST PUSH1 0x40 MLOAD DUP1 SWAP2 SUB SWAP1 REVERT JUMPDEST CALLER PUSH20 0xFFFFFFFFFFFFFFFFFFFFFFFFFFFFFFFFFFFFFFFF AND PUSH2 0x8FC DUP3 SWAP1 DUP2 ISZERO MUL SWAP1 PUSH1 0x40 MLOAD PUSH1 0x0 PUSH1 0x40 MLOAD DUP1 DUP4 SUB DUP2 DUP6 DUP9 DUP9 CALL SWAP4 POP POP POP POP ISZERO DUP1 ISZERO PUSH2 0x192B JUMPI RETURNDATASIZE PUSH1 0x0 DUP1 RETURNDATACOPY RETURNDATASIZE PUSH1 0x0 REVERT JUMPDEST POP POP JUMP JUMPDEST PUSH2 0x1937 PUSH2 0x1A94 JUMP JUMPDEST PUSH20 0xFFFFFFFFFFFFFFFFFFFFFFFFFFFFFFFFFFFFFFFF AND PUSH2 0x1955 PUSH2 0x7E5 JUMP JUMPDEST PUSH20 0xFFFFFFFFFFFFFFFFFFFFFFFFFFFFFFFFFFFFFFFF AND EQ PUSH2 0x19AB JUMPI PUSH1 0x40 MLOAD PUSH32 0x8C379A000000000000000000000000000000000000000000000000000000000 DUP2 MSTORE PUSH1 0x4 ADD PUSH2 0x19A2 SWAP1 PUSH2 0x28DD JUMP JUMPDEST PUSH1 0x40 MLOAD DUP1 SWAP2 SUB SWAP1 REVERT JUMPDEST JUMP JUMPDEST PUSH1 0x0 DUP1 PUSH1 0x0 SWAP1 SLOAD SWAP1 PUSH2 0x100 EXP SWAP1 DIV PUSH20 0xFFFFFFFFFFFFFFFFFFFFFFFFFFFFFFFFFFFFFFFF AND SWAP1 POP DUP2 PUSH1 0x0 DUP1 PUSH2 0x100 EXP DUP2 SLOAD DUP2 PUSH20 0xFFFFFFFFFFFFFFFFFFFFFFFFFFFFFFFFFFFFFFFF MUL NOT AND SWAP1 DUP4 PUSH20 0xFFFFFFFFFFFFFFFFFFFFFFFFFFFFFFFFFFFFFFFF AND MUL OR SWAP1 SSTORE POP DUP2 PUSH20 0xFFFFFFFFFFFFFFFFFFFFFFFFFFFFFFFFFFFFFFFF AND DUP2 PUSH20 0xFFFFFFFFFFFFFFFFFFFFFFFFFFFFFFFFFFFFFFFF AND PUSH32 0x8BE0079C531659141344CD1FD0A4F28419497F9722A3DAAFE3B4186F6B6457E0 PUSH1 0x40 MLOAD PUSH1 0x40 MLOAD DUP1 SWAP2 SUB SWAP1 LOG3 POP POP JUMP JUMPDEST PUSH1 0x0 DUP1 DUP3 PUSH20 0xFFFFFFFFFFFFFFFFFFFFFFFFFFFFFFFFFFFFFFFF AND EXTCODESIZE GT SWAP1 POP SWAP2 SWAP1 POP JUMP JUMPDEST PUSH1 0x0 CALLER SWAP1 POP SWAP1 JUMP JUMPDEST PUSH1 0x0 PUSH1 0x40 MLOAD SWAP1 POP SWAP1 JUMP JUMPDEST PUSH1 0x0 DUP1 REVERT JUMPDEST PUSH1 0x0 DUP1 REVERT JUMPDEST PUSH1 0x0 DUP2 SWAP1 POP SWAP2 SWAP1 POP JUMP JUMPDEST PUSH2 0x1AC3 DUP2 PUSH2 0x1AB0 JUMP JUMPDEST DUP2 EQ PUSH2 0x1ACE JUMPI PUSH1 0x0 DUP1 REVERT JUMPDEST POP JUMP JUMPDEST PUSH1 0x0 DUP2 CALLDATALOAD SWAP1 POP PUSH2 0x1AE0 DUP2 PUSH2 0x1ABA JUMP JUMPDEST SWAP3 SWAP2 POP POP JUMP JUMPDEST PUSH1 0x0 PUSH20 0xFFFFFFFFFFFFFFFFFFFFFFFFFFFFFFFFFFFFFFFF DUP3 AND SWAP1 POP SWAP2 SWAP1 POP JUMP JUMPDEST PUSH1 0x0 PUSH2 0x1B11 DUP3 PUSH2 0x1AE6 JUMP JUMPDEST SWAP1 POP SWAP2 SWAP1 POP JUMP JUMPDEST PUSH2 0x1B21 DUP2 PUSH2 0x1B06 JUMP JUMPDEST DUP2 EQ PUSH2 0x1B2C JUMPI PUSH1 0x0 DUP1 REVERT JUMPDEST POP JUMP JUMPDEST PUSH1 0x0 DUP2 CALLDATALOAD SWAP1 POP PUSH2 0x1B3E DUP2 PUSH2 0x1B18 JUMP JUMPDEST SWAP3 SWAP2 POP POP JUMP JUMPDEST PUSH1 0x0 DUP1 PUSH1 0x40 DUP4 DUP6 SUB SLT ISZERO PUSH2 0x1B5B JUMPI PUSH2 0x1B5A PUSH2 0x1AA6 JUMP JUMPDEST JUMPDEST PUSH1 0x0 PUSH2 0x1B69 DUP6 DUP3 DUP7 ADD PUSH2 0x1AD1 JUMP JUMPDEST SWAP3 POP POP PUSH1 0x20 PUSH2 0x1B7A DUP6 DUP3 DUP7 ADD PUSH2 0x1B2F JUMP JUMPDEST SWAP2 POP POP SWAP3 POP SWAP3 SWAP1 POP JUMP JUMPDEST PUSH2 0x1B8D DUP2 PUSH2 0x1AB0 JUMP JUMPDEST DUP3 MSTORE POP POP JUMP JUMPDEST PUSH1 0x0 PUSH1 0x20 DUP3 ADD SWAP1 POP PUSH2 0x1BA8 PUSH1 0x0 DUP4 ADD DUP5 PUSH2 0x1B84 JUMP JUMPDEST SWAP3 SWAP2 POP POP JUMP JUMPDEST PUSH1 0x0 PUSH2 0x1BB9 DUP3 PUSH2 0x1B06 JUMP JUMPDEST SWAP1 POP SWAP2 SWAP1 POP JUMP JUMPDEST PUSH2 0x1BC9 DUP2 PUSH2 0x1BAE JUMP JUMPDEST DUP2 EQ PUSH2 0x1BD4 JUMPI PUSH1 0x0 DUP1 REVERT JUMPDEST POP JUMP JUMPDEST PUSH1 0x0 DUP2 CALLDATALOAD SWAP1 POP PUSH2 0x1BE6 DUP2 PUSH2 0x1BC0 JUMP JUMPDEST SWAP3 SWAP2 POP POP JUMP JUMPDEST PUSH1 0x0 DUP1 PUSH1 0x40 DUP4 DUP6 SUB SLT ISZERO PUSH2 0x1C03 JUMPI PUSH2 0x1C02 PUSH2 0x1AA6 JUMP JUMPDEST JUMPDEST PUSH1 0x0 PUSH2 0x1C11 DUP6 DUP3 DUP7 ADD PUSH2 0x1BD7 JUMP JUMPDEST SWAP3 POP POP PUSH1 0x20 PUSH2 0x1C22 DUP6 DUP3 DUP7 ADD PUSH2 0x1AD1 JUMP JUMPDEST SWAP2 POP POP SWAP3 POP SWAP3 SWAP1 POP JUMP JUMPDEST PUSH1 0x0 PUSH1 0x20 DUP3 DUP5 SUB SLT ISZERO PUSH2 0x1C42 JUMPI PUSH2 0x1C41 PUSH2 0x1AA6 JUMP JUMPDEST JUMPDEST PUSH1 0x0 PUSH2 0x1C50 DUP5 DUP3 DUP6 ADD PUSH2 0x1B2F JUMP JUMPDEST SWAP2 POP POP SWAP3 SWAP2 POP POP JUMP JUMPDEST PUSH1 0x0 DUP2 ISZERO ISZERO SWAP1 POP SWAP2 SWAP1 POP JUMP JUMPDEST PUSH2 0x1C6E DUP2 PUSH2 0x1C59 JUMP JUMPDEST DUP3 MSTORE POP POP JUMP JUMPDEST PUSH1 0x0 PUSH1 0x20 DUP3 ADD SWAP1 POP PUSH2 0x1C89 PUSH1 0x0 DUP4 ADD DUP5 PUSH2 0x1C65 JUMP JUMPDEST SWAP3 SWAP2 POP POP JUMP JUMPDEST PUSH2 0x1C98 DUP2 PUSH2 0x1B06 JUMP JUMPDEST DUP3 MSTORE POP POP JUMP JUMPDEST PUSH1 0x0 PUSH1 0x20 DUP3 ADD SWAP1 POP PUSH2 0x1CB3 PUSH1 0x0 DUP4 ADD DUP5 PUSH2 0x1C8F JUMP JUMPDEST SWAP3 SWAP2 POP POP JUMP JUMPDEST PUSH1 0x0 DUP1 REVERT JUMPDEST PUSH1 0x0 PUSH1 0x1F NOT PUSH1 0x1F DUP4 ADD AND SWAP1 POP SWAP2 SWAP1 POP JUMP JUMPDEST PUSH32 0x4E487B7100000000000000000000000000000000000000000000000000000000 PUSH1 0x0 MSTORE PUSH1 0x41 PUSH1 0x4 MSTORE PUSH1 0x24 PUSH1 0x0 REVERT JUMPDEST PUSH2 0x1D07 DUP3 PUSH2 0x1CBE JUMP JUMPDEST DUP2 ADD DUP2 DUP2 LT PUSH8 0xFFFFFFFFFFFFFFFF DUP3 GT OR ISZERO PUSH2 0x1D26 JUMPI PUSH2 0x1D25 PUSH2 0x1CCF JUMP JUMPDEST JUMPDEST DUP1 PUSH1 0x40 MSTORE POP POP POP JUMP JUMPDEST PUSH1 0x0 PUSH2 0x1D39 PUSH2 0x1A9C JUMP JUMPDEST SWAP1 POP PUSH2 0x1D45 DUP3 DUP3 PUSH2 0x1CFE JUMP JUMPDEST SWAP2 SWAP1 POP JUMP JUMPDEST PUSH1 0x0 PUSH8 0xFFFFFFFFFFFFFFFF DUP3 GT ISZERO PUSH2 0x1D65 JUMPI PUSH2 0x1D64 PUSH2 0x1CCF JUMP JUMPDEST JUMPDEST PUSH1 0x20 DUP3 MUL SWAP1 POP PUSH1 0x20 DUP2 ADD SWAP1 POP SWAP2 SWAP1 POP JUMP JUMPDEST PUSH1 0x0 DUP1 REVERT JUMPDEST PUSH1 0x0 PUSH2 0x1D8E PUSH2 0x1D89 DUP5 PUSH2 0x1D4A JUMP JUMPDEST PUSH2 0x1D2F JUMP JUMPDEST SWAP1 POP DUP1 DUP4 DUP3 MSTORE PUSH1 0x20 DUP3 ADD SWAP1 POP PUSH1 0x20 DUP5 MUL DUP4 ADD DUP6 DUP2 GT ISZERO PUSH2 0x1DB1 JUMPI PUSH2 0x1DB0 PUSH2 0x1D76 JUMP JUMPDEST JUMPDEST DUP4 JUMPDEST DUP2 DUP2 LT ISZERO PUSH2 0x1DDA JUMPI DUP1 PUSH2 0x1DC6 DUP9 DUP3 PUSH2 0x1B2F JUMP JUMPDEST DUP5 MSTORE PUSH1 0x20 DUP5 ADD SWAP4 POP POP PUSH1 0x20 DUP2 ADD SWAP1 POP PUSH2 0x1DB3 JUMP JUMPDEST POP POP POP SWAP4 SWAP3 POP POP POP JUMP JUMPDEST PUSH1 0x0 DUP3 PUSH1 0x1F DUP4 ADD SLT PUSH2 0x1DF9 JUMPI PUSH2 0x1DF8 PUSH2 0x1CB9 JUMP JUMPDEST JUMPDEST DUP2 CALLDATALOAD PUSH2 0x1E09 DUP5 DUP3 PUSH1 0x20 DUP7 ADD PUSH2 0x1D7B JUMP JUMPDEST SWAP2 POP POP SWAP3 SWAP2 POP POP JUMP JUMPDEST PUSH1 0x0 PUSH8 0xFFFFFFFFFFFFFFFF DUP3 GT ISZERO PUSH2 0x1E2D JUMPI PUSH2 0x1E2C PUSH2 0x1CCF JUMP JUMPDEST JUMPDEST PUSH1 0x20 DUP3 MUL SWAP1 POP PUSH1 0x20 DUP2 ADD SWAP1 POP SWAP2 SWAP1 POP JUMP JUMPDEST PUSH1 0x0 PUSH2 0x1E51 PUSH2 0x1E4C DUP5 PUSH2 0x1E12 JUMP JUMPDEST PUSH2 0x1D2F JUMP JUMPDEST SWAP1 POP DUP1 DUP4 DUP3 MSTORE PUSH1 0x20 DUP3 ADD SWAP1 POP PUSH1 0x20 DUP5 MUL DUP4 ADD DUP6 DUP2 GT ISZERO PUSH2 0x1E74 JUMPI PUSH2 0x1E73 PUSH2 0x1D76 JUMP JUMPDEST JUMPDEST DUP4 JUMPDEST DUP2 DUP2 LT ISZERO PUSH2 0x1E9D JUMPI DUP1 PUSH2 0x1E89 DUP9 DUP3 PUSH2 0x1AD1 JUMP JUMPDEST DUP5 MSTORE PUSH1 0x20 DUP5 ADD SWAP4 POP POP PUSH1 0x20 DUP2 ADD SWAP1 POP PUSH2 0x1E76 JUMP JUMPDEST POP POP POP SWAP4 SWAP3 POP POP POP JUMP JUMPDEST PUSH1 0x0 DUP3 PUSH1 0x1F DUP4 ADD SLT PUSH2 0x1EBC JUMPI PUSH2 0x1EBB PUSH2 0x1CB9 JUMP JUMPDEST JUMPDEST DUP2 CALLDATALOAD PUSH2 0x1ECC DUP5 DUP3 PUSH1 0x20 DUP7 ADD PUSH2 0x1E3E JUMP JUMPDEST SWAP2 POP POP SWAP3 SWAP2 POP POP JUMP JUMPDEST PUSH1 0x0 DUP1 PUSH1 0x0 PUSH1 0x60 DUP5 DUP7 SUB SLT ISZERO PUSH2 0x1EEE JUMPI PUSH2 0x1EED PUSH2 0x1AA6 JUMP JUMPDEST JUMPDEST PUSH1 0x0 PUSH2 0x1EFC DUP7 DUP3 DUP8 ADD PUSH2 0x1BD7 JUMP JUMPDEST SWAP4 POP POP PUSH1 0x20 DUP5 ADD CALLDATALOAD PUSH8 0xFFFFFFFFFFFFFFFF DUP2 GT ISZERO PUSH2 0x1F1D JUMPI PUSH2 0x1F1C PUSH2 0x1AAB JUMP JUMPDEST JUMPDEST PUSH2 0x1F29 DUP7 DUP3 DUP8 ADD PUSH2 0x1DE4 JUMP JUMPDEST SWAP3 POP POP PUSH1 0x40 DUP5 ADD CALLDATALOAD PUSH8 0xFFFFFFFFFFFFFFFF DUP2 GT ISZERO PUSH2 0x1F4A JUMPI PUSH2 0x1F49 PUSH2 0x1AAB JUMP JUMPDEST JUMPDEST PUSH2 0x1F56 DUP7 DUP3 DUP8 ADD PUSH2 0x1EA7 JUMP JUMPDEST SWAP2 POP POP SWAP3 POP SWAP3 POP SWAP3 JUMP JUMPDEST PUSH1 0x0 DUP2 SWAP1 POP SWAP2 SWAP1 POP JUMP JUMPDEST PUSH1 0x0 PUSH2 0x1F85 PUSH2 0x1F80 PUSH2 0x1F7B DUP5 PUSH2 0x1AE6 JUMP JUMPDEST PUSH2 0x1F60 JUMP JUMPDEST PUSH2 0x1AE6 JUMP JUMPDEST SWAP1 POP SWAP2 SWAP1 POP JUMP JUMPDEST PUSH1 0x0 PUSH2 0x1F97 DUP3 PUSH2 0x1F6A JUMP JUMPDEST SWAP1 POP SWAP2 SWAP1 POP JUMP JUMPDEST PUSH1 0x0 PUSH2 0x1FA9 DUP3 PUSH2 0x1F8C JUMP JUMPDEST SWAP1 POP SWAP2 SWAP1 POP JUMP JUMPDEST PUSH2 0x1FB9 DUP2 PUSH2 0x1F9E JUMP JUMPDEST DUP3 MSTORE POP POP JUMP JUMPDEST PUSH1 0x0 PUSH1 0x20 DUP3 ADD SWAP1 POP PUSH2 0x1FD4 PUSH1 0x0 DUP4 ADD DUP5 PUSH2 0x1FB0 JUMP JUMPDEST SWAP3 SWAP2 POP POP JUMP JUMPDEST PUSH1 0x0 DUP1 PUSH1 0x40 DUP4 DUP6 SUB SLT ISZERO PUSH2 0x1FF1 JUMPI PUSH2 0x1FF0 PUSH2 0x1AA6 JUMP JUMPDEST JUMPDEST PUSH1 0x0 DUP4 ADD CALLDATALOAD PUSH8 0xFFFFFFFFFFFFFFFF DUP2 GT ISZERO PUSH2 0x200F JUMPI PUSH2 0x200E PUSH2 0x1AAB JUMP JUMPDEST JUMPDEST PUSH2 0x201B DUP6 DUP3 DUP7 ADD PUSH2 0x1DE4 JUMP JUMPDEST SWAP3 POP POP PUSH1 0x20 DUP4 ADD CALLDATALOAD PUSH8 0xFFFFFFFFFFFFFFFF DUP2 GT ISZERO PUSH2 0x203C JUMPI PUSH2 0x203B PUSH2 0x1AAB JUMP JUMPDEST JUMPDEST PUSH2 0x2048 DUP6 DUP3 DUP7 ADD PUSH2 0x1EA7 JUMP JUMPDEST SWAP2 POP POP SWAP3 POP SWAP3 SWAP1 POP JUMP JUMPDEST PUSH1 0x0 PUSH2 0x205D DUP3 PUSH2 0x1AE6 JUMP JUMPDEST SWAP1 POP SWAP2 SWAP1 POP JUMP JUMPDEST PUSH2 0x206D DUP2 PUSH2 0x2052 JUMP JUMPDEST DUP3 MSTORE POP POP JUMP JUMPDEST PUSH1 0x0 PUSH1 0x20 DUP3 ADD SWAP1 POP PUSH2 0x2088 PUSH1 0x0 DUP4 ADD DUP5 PUSH2 0x2064 JUMP JUMPDEST SWAP3 SWAP2 POP POP JUMP JUMPDEST PUSH1 0x0 PUSH1 0x20 DUP3 DUP5 SUB SLT ISZERO PUSH2 0x20A4 JUMPI PUSH2 0x20A3 PUSH2 0x1AA6 JUMP JUMPDEST JUMPDEST PUSH1 0x0 PUSH2 0x20B2 DUP5 DUP3 DUP6 ADD PUSH2 0x1AD1 JUMP JUMPDEST SWAP2 POP POP SWAP3 SWAP2 POP POP JUMP JUMPDEST PUSH1 0x0 DUP2 MLOAD SWAP1 POP PUSH2 0x20CA DUP2 PUSH2 0x1ABA JUMP JUMPDEST SWAP3 SWAP2 POP POP JUMP JUMPDEST PUSH1 0x0 PUSH1 0x20 DUP3 DUP5 SUB SLT ISZERO PUSH2 0x20E6 JUMPI PUSH2 0x20E5 PUSH2 0x1AA6 JUMP JUMPDEST JUMPDEST PUSH1 0x0 PUSH2 0x20F4 DUP5 DUP3 DUP6 ADD PUSH2 0x20BB JUMP JUMPDEST SWAP2 POP POP SWAP3 SWAP2 POP POP JUMP JUMPDEST PUSH1 0x0 DUP3 DUP3 MSTORE PUSH1 0x20 DUP3 ADD SWAP1 POP SWAP3 SWAP2 POP POP JUMP JUMPDEST PUSH32 0x7573657220697320616C726561647920756E617574686F72697A656400000000 PUSH1 0x0 DUP3 ADD MSTORE POP JUMP JUMPDEST PUSH1 0x0 PUSH2 0x2144 PUSH1 0x1C DUP4 PUSH2 0x20FD JUMP JUMPDEST SWAP2 POP PUSH2 0x214F DUP3 PUSH2 0x210E JUMP JUMPDEST PUSH1 0x20 DUP3 ADD SWAP1 POP SWAP2 SWAP1 POP JUMP JUMPDEST PUSH1 0x0 PUSH1 0x20 DUP3 ADD SWAP1 POP DUP2 DUP2 SUB PUSH1 0x0 DUP4 ADD MSTORE PUSH2 0x2173 DUP2 PUSH2 0x2137 JUMP JUMPDEST SWAP1 POP SWAP2 SWAP1 POP JUMP JUMPDEST PUSH32 0x7573657220697320616C726561647920617574686F72697A6564000000000000 PUSH1 0x0 DUP3 ADD MSTORE POP JUMP JUMPDEST PUSH1 0x0 PUSH2 0x21B0 PUSH1 0x1A DUP4 PUSH2 0x20FD JUMP JUMPDEST SWAP2 POP PUSH2 0x21BB DUP3 PUSH2 0x217A JUMP JUMPDEST PUSH1 0x20 DUP3 ADD SWAP1 POP SWAP2 SWAP1 POP JUMP JUMPDEST PUSH1 0x0 PUSH1 0x20 DUP3 ADD SWAP1 POP DUP2 DUP2 SUB PUSH1 0x0 DUP4 ADD MSTORE PUSH2 0x21DF DUP2 PUSH2 0x21A3 JUMP JUMPDEST SWAP1 POP SWAP2 SWAP1 POP JUMP JUMPDEST PUSH32 0x746F6B656E20686F6C64696E6720696E76616C69640000000000000000000000 PUSH1 0x0 DUP3 ADD MSTORE POP JUMP JUMPDEST PUSH1 0x0 PUSH2 0x221C PUSH1 0x15 DUP4 PUSH2 0x20FD JUMP JUMPDEST SWAP2 POP PUSH2 0x2227 DUP3 PUSH2 0x21E6 JUMP JUMPDEST PUSH1 0x20 DUP3 ADD SWAP1 POP SWAP2 SWAP1 POP JUMP JUMPDEST PUSH1 0x0 PUSH1 0x20 DUP3 ADD SWAP1 POP DUP2 DUP2 SUB PUSH1 0x0 DUP4 ADD MSTORE PUSH2 0x224B DUP2 PUSH2 0x220F JUMP JUMPDEST SWAP1 POP SWAP2 SWAP1 POP JUMP JUMPDEST PUSH32 0x6E6F74206120636F6E7472616374000000000000000000000000000000000000 PUSH1 0x0 DUP3 ADD MSTORE POP JUMP JUMPDEST PUSH1 0x0 PUSH2 0x2288 PUSH1 0xE DUP4 PUSH2 0x20FD JUMP JUMPDEST SWAP2 POP PUSH2 0x2293 DUP3 PUSH2 0x2252 JUMP JUMPDEST PUSH1 0x20 DUP3 ADD SWAP1 POP SWAP2 SWAP1 POP JUMP JUMPDEST PUSH1 0x0 PUSH1 0x20 DUP3 ADD SWAP1 POP DUP2 DUP2 SUB PUSH1 0x0 DUP4 ADD MSTORE PUSH2 0x22B7 DUP2 PUSH2 0x227B JUMP JUMPDEST SWAP1 POP SWAP2 SWAP1 POP JUMP JUMPDEST PUSH32 0x696E76616C696420696E70757400000000000000000000000000000000000000 PUSH1 0x0 DUP3 ADD MSTORE POP JUMP JUMPDEST PUSH1 0x0 PUSH2 0x22F4 PUSH1 0xD DUP4 PUSH2 0x20FD JUMP JUMPDEST SWAP2 POP PUSH2 0x22FF DUP3 PUSH2 0x22BE JUMP JUMPDEST PUSH1 0x20 DUP3 ADD SWAP1 POP SWAP2 SWAP1 POP JUMP JUMPDEST PUSH1 0x0 PUSH1 0x20 DUP3 ADD SWAP1 POP DUP2 DUP2 SUB PUSH1 0x0 DUP4 ADD MSTORE PUSH2 0x2323 DUP2 PUSH2 0x22E7 JUMP JUMPDEST SWAP1 POP SWAP2 SWAP1 POP JUMP JUMPDEST PUSH32 0x4E487B7100000000000000000000000000000000000000000000000000000000 PUSH1 0x0 MSTORE PUSH1 0x32 PUSH1 0x4 MSTORE PUSH1 0x24 PUSH1 0x0 REVERT JUMPDEST PUSH1 0x0 PUSH1 0x60 DUP3 ADD SWAP1 POP PUSH2 0x236E PUSH1 0x0 DUP4 ADD DUP7 PUSH2 0x1C8F JUMP JUMPDEST PUSH2 0x237B PUSH1 0x20 DUP4 ADD DUP6 PUSH2 0x1C8F JUMP JUMPDEST PUSH2 0x2388 PUSH1 0x40 DUP4 ADD DUP5 PUSH2 0x1B84 JUMP JUMPDEST SWAP5 SWAP4 POP POP POP POP JUMP JUMPDEST PUSH2 0x2399 DUP2 PUSH2 0x1C59 JUMP JUMPDEST DUP2 EQ PUSH2 0x23A4 JUMPI PUSH1 0x0 DUP1 REVERT JUMPDEST POP JUMP JUMPDEST PUSH1 0x0 DUP2 MLOAD SWAP1 POP PUSH2 0x23B6 DUP2 PUSH2 0x2390 JUMP JUMPDEST SWAP3 SWAP2 POP POP JUMP JUMPDEST PUSH1 0x0 PUSH1 0x20 DUP3 DUP5 SUB SLT ISZERO PUSH2 0x23D2 JUMPI PUSH2 0x23D1 PUSH2 0x1AA6 JUMP JUMPDEST JUMPDEST PUSH1 0x0 PUSH2 0x23E0 DUP5 DUP3 DUP6 ADD PUSH2 0x23A7 JUMP JUMPDEST SWAP2 POP POP SWAP3 SWAP2 POP POP JUMP JUMPDEST PUSH32 0x6572726F7220696E20646973747269627574696F6E0000000000000000000000 PUSH1 0x0 DUP3 ADD MSTORE POP JUMP JUMPDEST PUSH1 0x0 PUSH2 0x241F PUSH1 0x15 DUP4 PUSH2 0x20FD JUMP JUMPDEST SWAP2 POP PUSH2 0x242A DUP3 PUSH2 0x23E9 JUMP JUMPDEST PUSH1 0x20 DUP3 ADD SWAP1 POP SWAP2 SWAP1 POP JUMP JUMPDEST PUSH1 0x0 PUSH1 0x20 DUP3 ADD SWAP1 POP DUP2 DUP2 SUB PUSH1 0x0 DUP4 ADD MSTORE PUSH2 0x244E DUP2 PUSH2 0x2412 JUMP JUMPDEST SWAP1 POP SWAP2 SWAP1 POP JUMP JUMPDEST PUSH32 0x4E487B7100000000000000000000000000000000000000000000000000000000 PUSH1 0x0 MSTORE PUSH1 0x11 PUSH1 0x4 MSTORE PUSH1 0x24 PUSH1 0x0 REVERT JUMPDEST PUSH1 0x0 PUSH2 0x248F DUP3 PUSH2 0x1AB0 JUMP JUMPDEST SWAP2 POP PUSH32 0xFFFFFFFFFFFFFFFFFFFFFFFFFFFFFFFFFFFFFFFFFFFFFFFFFFFFFFFFFFFFFFFF DUP3 SUB PUSH2 0x24C1 JUMPI PUSH2 0x24C0 PUSH2 0x2455 JUMP JUMPDEST JUMPDEST PUSH1 0x1 DUP3 ADD SWAP1 POP SWAP2 SWAP1 POP JUMP JUMPDEST PUSH32 0x686F6C64696E67202620617574686F72697A6174696F6E2066616C7365207061 PUSH1 0x0 DUP3 ADD MSTORE PUSH32 0x7920657861637420666565000000000000000000000000000000000000000000 PUSH1 0x20 DUP3 ADD MSTORE POP JUMP JUMPDEST PUSH1 0x0 PUSH2 0x2528 PUSH1 0x2B DUP4 PUSH2 0x20FD JUMP JUMPDEST SWAP2 POP PUSH2 0x2533 DUP3 PUSH2 0x24CC JUMP JUMPDEST PUSH1 0x40 DUP3 ADD SWAP1 POP SWAP2 SWAP1 POP JUMP JUMPDEST PUSH1 0x0 PUSH1 0x20 DUP3 ADD SWAP1 POP DUP2 DUP2 SUB PUSH1 0x0 DUP4 ADD MSTORE PUSH2 0x2557 DUP2 PUSH2 0x251B JUMP JUMPDEST SWAP1 POP SWAP2 SWAP1 POP JUMP JUMPDEST PUSH32 0x636F6E747261637420646F65736E2774206861766520656E6F75676820746F6B PUSH1 0x0 DUP3 ADD MSTORE PUSH32 0x656E277300000000000000000000000000000000000000000000000000000000 PUSH1 0x20 DUP3 ADD MSTORE POP JUMP JUMPDEST PUSH1 0x0 PUSH2 0x25BA PUSH1 0x24 DUP4 PUSH2 0x20FD JUMP JUMPDEST SWAP2 POP PUSH2 0x25C5 DUP3 PUSH2 0x255E JUMP JUMPDEST PUSH1 0x40 DUP3 ADD SWAP1 POP SWAP2 SWAP1 POP JUMP JUMPDEST PUSH1 0x0 PUSH1 0x20 DUP3 ADD SWAP1 POP DUP2 DUP2 SUB PUSH1 0x0 DUP4 ADD MSTORE PUSH2 0x25E9 DUP2 PUSH2 0x25AD JUMP JUMPDEST SWAP1 POP SWAP2 SWAP1 POP JUMP JUMPDEST PUSH1 0x0 PUSH1 0x40 DUP3 ADD SWAP1 POP PUSH2 0x2605 PUSH1 0x0 DUP4 ADD DUP6 PUSH2 0x1C8F JUMP JUMPDEST PUSH2 0x2612 PUSH1 0x20 DUP4 ADD DUP5 PUSH2 0x1B84 JUMP JUMPDEST SWAP4 SWAP3 POP POP POP JUMP JUMPDEST PUSH1 0x0 PUSH2 0x2624 DUP3 PUSH2 0x1AB0 JUMP JUMPDEST SWAP2 POP PUSH2 0x262F DUP4 PUSH2 0x1AB0 JUMP JUMPDEST SWAP3 POP DUP3 PUSH32 0xFFFFFFFFFFFFFFFFFFFFFFFFFFFFFFFFFFFFFFFFFFFFFFFFFFFFFFFFFFFFFFFF SUB DUP3 GT ISZERO PUSH2 0x2664 JUMPI PUSH2 0x2663 PUSH2 0x2455 JUMP JUMPDEST JUMPDEST DUP3 DUP3 ADD SWAP1 POP SWAP3 SWAP2 POP POP JUMP JUMPDEST PUSH32 0x7061792074686520657861637420616D6F756E7420746F20636F766572206469 PUSH1 0x0 DUP3 ADD MSTORE PUSH32 0x73747269627574696F6E00000000000000000000000000000000000000000000 PUSH1 0x20 DUP3 ADD MSTORE POP JUMP JUMPDEST PUSH1 0x0 PUSH2 0x26CB PUSH1 0x2A DUP4 PUSH2 0x20FD JUMP JUMPDEST SWAP2 POP PUSH2 0x26D6 DUP3 PUSH2 0x266F JUMP JUMPDEST PUSH1 0x40 DUP3 ADD SWAP1 POP SWAP2 SWAP1 POP JUMP JUMPDEST PUSH1 0x0 PUSH1 0x20 DUP3 ADD SWAP1 POP DUP2 DUP2 SUB PUSH1 0x0 DUP4 ADD MSTORE PUSH2 0x26FA DUP2 PUSH2 0x26BE JUMP JUMPDEST SWAP1 POP SWAP2 SWAP1 POP JUMP JUMPDEST PUSH32 0x686F6C64696E67207175616E74697479207472756520627574206D73672E7661 PUSH1 0x0 DUP3 ADD MSTORE PUSH32 0x6C756520756E6365727461696E20706179206578616374000000000000000000 PUSH1 0x20 DUP3 ADD MSTORE POP JUMP JUMPDEST PUSH1 0x0 PUSH2 0x275D PUSH1 0x37 DUP4 PUSH2 0x20FD JUMP JUMPDEST SWAP2 POP PUSH2 0x2768 DUP3 PUSH2 0x2701 JUMP JUMPDEST PUSH1 0x40 DUP3 ADD SWAP1 POP SWAP2 SWAP1 POP JUMP JUMPDEST PUSH1 0x0 PUSH1 0x20 DUP3 ADD SWAP1 POP DUP2 DUP2 SUB PUSH1 0x0 DUP4 ADD MSTORE PUSH2 0x278C DUP2 PUSH2 0x2750 JUMP JUMPDEST SWAP1 POP SWAP2 SWAP1 POP JUMP JUMPDEST PUSH32 0x4F776E61626C653A206E6577206F776E657220697320746865207A65726F2061 PUSH1 0x0 DUP3 ADD MSTORE PUSH32 0x6464726573730000000000000000000000000000000000000000000000000000 PUSH1 0x20 DUP3 ADD MSTORE POP JUMP JUMPDEST PUSH1 0x0 PUSH2 0x27EF PUSH1 0x26 DUP4 PUSH2 0x20FD JUMP JUMPDEST SWAP2 POP PUSH2 0x27FA DUP3 PUSH2 0x2793 JUMP JUMPDEST PUSH1 0x40 DUP3 ADD SWAP1 POP SWAP2 SWAP1 POP JUMP JUMPDEST PUSH1 0x0 PUSH1 0x20 DUP3 ADD SWAP1 POP DUP2 DUP2 SUB PUSH1 0x0 DUP4 ADD MSTORE PUSH2 0x281E DUP2 PUSH2 0x27E2 JUMP JUMPDEST SWAP1 POP SWAP2 SWAP1 POP JUMP JUMPDEST PUSH32 0x696E76616C69642062616C616E636520746F2077697468647261770000000000 PUSH1 0x0 DUP3 ADD MSTORE POP JUMP JUMPDEST PUSH1 0x0 PUSH2 0x285B PUSH1 0x1B DUP4 PUSH2 0x20FD JUMP JUMPDEST SWAP2 POP PUSH2 0x2866 DUP3 PUSH2 0x2825 JUMP JUMPDEST PUSH1 0x20 DUP3 ADD SWAP1 POP SWAP2 SWAP1 POP JUMP JUMPDEST PUSH1 0x0 PUSH1 0x20 DUP3 ADD SWAP1 POP DUP2 DUP2 SUB PUSH1 0x0 DUP4 ADD MSTORE PUSH2 0x288A DUP2 PUSH2 0x284E JUMP JUMPDEST SWAP1 POP SWAP2 SWAP1 POP JUMP JUMPDEST PUSH32 0x4F776E61626C653A2063616C6C6572206973206E6F7420746865206F776E6572 PUSH1 0x0 DUP3 ADD MSTORE POP JUMP JUMPDEST PUSH1 0x0 PUSH2 0x28C7 PUSH1 0x20 DUP4 PUSH2 0x20FD JUMP JUMPDEST SWAP2 POP PUSH2 0x28D2 DUP3 PUSH2 0x2891 JUMP JUMPDEST PUSH1 0x20 DUP3 ADD SWAP1 POP SWAP2 SWAP1 POP JUMP JUMPDEST PUSH1 0x0 PUSH1 0x20 DUP3 ADD SWAP1 POP DUP2 DUP2 SUB PUSH1 0x0 DUP4 ADD MSTORE PUSH2 0x28F6 DUP2 PUSH2 0x28BA JUMP JUMPDEST SWAP1 POP SWAP2 SWAP1 POP JUMP INVALID LOG2 PUSH5 0x6970667358 0x22 SLT KECCAK256 BALANCE CALL 0x2B 0x2D PUSH2 0x3A0C KECCAK256 DUP7 0xD9 SWAP9 0xF6 0xC3 0x2C 0x4E DUP11 SIGNEXTEND SELFBALANCE DIFFICULTY 0x25 0xE2 0x4D 0x22 0xBB PUSH21 0xB8911D63D8C1A964736F6C634300080D0033000000 "
				},
				"gasEstimates": {
					"creation": {
						"codeDepositCost": "2109400",
						"executionCost": "infinite",
						"totalCost": "infinite"
					},
					"external": {
						"SetTokenToholdAndQuantity(address,uint256)": "41384",
						"TOKENmultisender(address,address[],uint256[])": "infinite",
						"authorizeUser(address)": "21604",
						"authorizedusers(address)": "968",
						"coinMultisender(address[],uint256[])": "infinite",
						"contractBalance()": "1217",
						"fee()": "573",
						"getTokenBalance(address)": "infinite",
						"owner()": "645",
						"quantity()": "575",
						"readAuthorizedUsers(address)": "1094",
						"receiver()": "702",
						"renounceOwnership()": "22687",
						"setfeeToUse(uint256,address)": "41297",
						"tokenAddress()": "infinite",
						"transferOwnership(address)": "23010",
						"unauthorizeUser(address)": "21582",
						"withdrawCoins(uint256)": "infinite",
						"withdrawToken(address,uint256)": "infinite"
					}
				},
				"methodIdentifiers": {
					"SetTokenToholdAndQuantity(address,uint256)": "2fc75eb0",
					"TOKENmultisender(address,address[],uint256[])": "9cbd3433",
					"authorizeUser(address)": "67c2a360",
					"authorizedusers(address)": "44b6209d",
					"coinMultisender(address[],uint256[])": "d908e6ce",
					"contractBalance()": "8b7afe2e",
					"fee()": "ddca3f43",
					"getTokenBalance(address)": "3aecd0e3",
					"owner()": "8da5cb5b",
					"quantity()": "17fc45e2",
					"readAuthorizedUsers(address)": "a4df0256",
					"receiver()": "f7260d3e",
					"renounceOwnership()": "715018a6",
					"setfeeToUse(uint256,address)": "126ccd94",
					"tokenAddress()": "9d76ea58",
					"transferOwnership(address)": "f2fde38b",
					"unauthorizeUser(address)": "478aa69e",
					"withdrawCoins(uint256)": "f9f95a0f",
					"withdrawToken(address,uint256)": "9e281a98"
				}
			},
			"storageLayout": {
				"storage": [
					{
						"astId": 7,
						"contract": "contracts/SnipeFinanceMultisenders.sol:SnipeFinanceMultisenders",
						"label": "_owner",
						"offset": 0,
						"slot": "0",
						"type": "t_address"
					},
					{
						"astId": 554,
						"contract": "contracts/SnipeFinanceMultisenders.sol:SnipeFinanceMultisenders",
						"label": "fee",
						"offset": 0,
						"slot": "1",
						"type": "t_uint256"
					},
					{
						"astId": 556,
						"contract": "contracts/SnipeFinanceMultisenders.sol:SnipeFinanceMultisenders",
						"label": "receiver",
						"offset": 0,
						"slot": "2",
						"type": "t_address_payable"
					},
					{
						"astId": 560,
						"contract": "contracts/SnipeFinanceMultisenders.sol:SnipeFinanceMultisenders",
						"label": "authorizedusers",
						"offset": 0,
						"slot": "3",
						"type": "t_mapping(t_address,t_bool)"
					},
					{
						"astId": 563,
						"contract": "contracts/SnipeFinanceMultisenders.sol:SnipeFinanceMultisenders",
						"label": "tokenAddress",
						"offset": 0,
						"slot": "4",
						"type": "t_contract(IERC20)190"
					},
					{
						"astId": 565,
						"contract": "contracts/SnipeFinanceMultisenders.sol:SnipeFinanceMultisenders",
						"label": "quantity",
						"offset": 0,
						"slot": "5",
						"type": "t_uint256"
					}
				],
				"types": {
					"t_address": {
						"encoding": "inplace",
						"label": "address",
						"numberOfBytes": "20"
					},
					"t_address_payable": {
						"encoding": "inplace",
						"label": "address payable",
						"numberOfBytes": "20"
					},
					"t_bool": {
						"encoding": "inplace",
						"label": "bool",
						"numberOfBytes": "1"
					},
					"t_contract(IERC20)190": {
						"encoding": "inplace",
						"label": "contract IERC20",
						"numberOfBytes": "20"
					},
					"t_mapping(t_address,t_bool)": {
						"encoding": "mapping",
						"key": "t_address",
						"label": "mapping(address => bool)",
						"numberOfBytes": "32",
						"value": "t_bool"
					},
					"t_uint256": {
						"encoding": "inplace",
						"label": "uint256",
						"numberOfBytes": "32"
					}
				}
			},
			"userdoc": {
				"kind": "user",
				"methods": {},
				"version": 1
			}
		}
	}
}