{
	"contracts/SnipeFinanceMultisenders_flattened.sol": {
		"SnipeFinanceMultisenders": {
			"abi": [
				{
					"inputs": [],
					"stateMutability": "nonpayable",
					"type": "constructor"
				},
				{
					"anonymous": false,
					"inputs": [
						{
							"indexed": true,
							"internalType": "address",
							"name": "previousOwner",
							"type": "address"
						},
						{
							"indexed": true,
							"internalType": "address",
							"name": "newOwner",
							"type": "address"
						}
					],
					"name": "OwnershipTransferred",
					"type": "event"
				},
				{
					"inputs": [
						{
							"internalType": "contract IERC20",
							"name": "token",
							"type": "address"
						},
						{
							"internalType": "uint256",
							"name": "_amount",
							"type": "uint256"
						}
					],
					"name": "SetTokenToholdAndQuantity",
					"outputs": [],
					"stateMutability": "nonpayable",
					"type": "function"
				},
				{
					"inputs": [
						{
							"internalType": "contract IERC20",
							"name": "token",
							"type": "address"
						},
						{
							"internalType": "address[]",
							"name": "recipients",
							"type": "address[]"
						},
						{
							"internalType": "uint256[]",
							"name": "values",
							"type": "uint256[]"
						}
					],
					"name": "TOKENmultisender",
					"outputs": [],
					"stateMutability": "payable",
					"type": "function"
				},
				{
					"inputs": [
						{
							"internalType": "address",
							"name": "user",
							"type": "address"
						}
					],
					"name": "authorizeUser",
					"outputs": [],
					"stateMutability": "nonpayable",
					"type": "function"
				},
				{
					"inputs": [
						{
							"internalType": "address",
							"name": "",
							"type": "address"
						}
					],
					"name": "authorizedusers",
					"outputs": [
						{
							"internalType": "bool",
							"name": "",
							"type": "bool"
						}
					],
					"stateMutability": "view",
					"type": "function"
				},
				{
					"inputs": [
						{
							"internalType": "address[]",
							"name": "recipients",
							"type": "address[]"
						},
						{
							"internalType": "uint256[]",
							"name": "values",
							"type": "uint256[]"
						}
					],
					"name": "coinMultisender",
					"outputs": [],
					"stateMutability": "payable",
					"type": "function"
				},
				{
					"inputs": [],
					"name": "contractBalance",
					"outputs": [
						{
							"internalType": "uint256",
							"name": "",
							"type": "uint256"
						}
					],
					"stateMutability": "view",
					"type": "function"
				},
				{
					"inputs": [],
					"name": "fee",
					"outputs": [
						{
							"internalType": "uint256",
							"name": "",
							"type": "uint256"
						}
					],
					"stateMutability": "view",
					"type": "function"
				},
				{
					"inputs": [
						{
							"internalType": "address",
							"name": "account",
							"type": "address"
						}
					],
					"name": "getTokenBalance",
					"outputs": [
						{
							"internalType": "uint256",
							"name": "",
							"type": "uint256"
						}
					],
					"stateMutability": "view",
					"type": "function"
				},
				{
					"inputs": [],
					"name": "owner",
					"outputs": [
						{
							"internalType": "address",
							"name": "",
							"type": "address"
						}
					],
					"stateMutability": "view",
					"type": "function"
				},
				{
					"inputs": [],
					"name": "quantity",
					"outputs": [
						{
							"internalType": "uint256",
							"name": "",
							"type": "uint256"
						}
					],
					"stateMutability": "view",
					"type": "function"
				},
				{
					"inputs": [
						{
							"internalType": "address",
							"name": "user",
							"type": "address"
						}
					],
					"name": "readAuthorizedUsers",
					"outputs": [
						{
							"internalType": "bool",
							"name": "",
							"type": "bool"
						}
					],
					"stateMutability": "view",
					"type": "function"
				},
				{
					"inputs": [],
					"name": "receiver",
					"outputs": [
						{
							"internalType": "address payable",
							"name": "",
							"type": "address"
						}
					],
					"stateMutability": "view",
					"type": "function"
				},
				{
					"inputs": [],
					"name": "renounceOwnership",
					"outputs": [],
					"stateMutability": "nonpayable",
					"type": "function"
				},
				{
					"inputs": [
						{
							"internalType": "uint256",
							"name": "newfee",
							"type": "uint256"
						},
						{
							"internalType": "address",
							"name": "_receiver",
							"type": "address"
						}
					],
					"name": "setfeeToUse",
					"outputs": [],
					"stateMutability": "nonpayable",
					"type": "function"
				},
				{
					"inputs": [],
					"name": "tokenAddress",
					"outputs": [
						{
							"internalType": "contract IERC20",
							"name": "",
							"type": "address"
						}
					],
					"stateMutability": "view",
					"type": "function"
				},
				{
					"inputs": [
						{
							"internalType": "address",
							"name": "newOwner",
							"type": "address"
						}
					],
					"name": "transferOwnership",
					"outputs": [],
					"stateMutability": "nonpayable",
					"type": "function"
				},
				{
					"inputs": [
						{
							"internalType": "address",
							"name": "user",
							"type": "address"
						}
					],
					"name": "unauthorizeUser",
					"outputs": [],
					"stateMutability": "nonpayable",
					"type": "function"
				},
				{
					"inputs": [
						{
							"internalType": "uint256",
							"name": "amount",
							"type": "uint256"
						}
					],
					"name": "withdrawCoins",
					"outputs": [],
					"stateMutability": "nonpayable",
					"type": "function"
				},
				{
					"inputs": [
						{
							"internalType": "contract IERC20",
							"name": "token",
							"type": "address"
						},
						{
							"internalType": "uint256",
							"name": "amount",
							"type": "uint256"
						}
					],
					"name": "withdrawToken",
					"outputs": [],
					"stateMutability": "nonpayable",
					"type": "function"
				},
				{
					"stateMutability": "payable",
					"type": "receive"
				}
			],
			"devdoc": {
				"kind": "dev",
				"methods": {
					"owner()": {
						"details": "Returns the address of the current owner."
					},
					"renounceOwnership()": {
						"details": "Leaves the contract without owner. It will not be possible to call `onlyOwner` functions. Can only be called by the current owner. NOTE: Renouncing ownership will leave the contract without an owner, thereby disabling any functionality that is only available to the owner."
					},
					"transferOwnership(address)": {
						"details": "Transfers ownership of the contract to a new account (`newOwner`). Can only be called by the current owner."
					}
				},
				"version": 1
			},
			"evm": {
				"assembly": "    /* \"contracts/SnipeFinanceMultisenders_flattened.sol\":15991:22903  contract SnipeFinanceMultisenders is Ownable {... */\n  mstore(0x40, 0x80)\n    /* \"contracts/SnipeFinanceMultisenders_flattened.sol\":16382:16466  constructor() {... */\n  callvalue\n  dup1\n  iszero\n  tag_1\n  jumpi\n  0x00\n  dup1\n  revert\ntag_1:\n  pop\n    /* \"contracts/SnipeFinanceMultisenders_flattened.sol\":11180:11212  _transferOwnership(_msgSender()) */\n  tag_5\n    /* \"contracts/SnipeFinanceMultisenders_flattened.sol\":10127:10137  msg.sender */\n  caller\n    /* \"contracts/SnipeFinanceMultisenders_flattened.sol\":11180:11198  _transferOwnership */\n  tag_8\n    /* \"contracts/SnipeFinanceMultisenders_flattened.sol\":11180:11212  _transferOwnership(_msgSender()) */\n  jump\t// in\ntag_5:\n    /* \"contracts/SnipeFinanceMultisenders_flattened.sol\":11491:11498  address */\n  0x00\n    /* \"contracts/SnipeFinanceMultisenders_flattened.sol\":11517:11523  _owner */\n  sload\n    /* \"contracts/SnipeFinanceMultisenders_flattened.sol\":16406:16414  receiver */\n  0x02\n    /* \"contracts/SnipeFinanceMultisenders_flattened.sol\":16406:16433  receiver = payable(owner()) */\n  dup1\n  sload\n  not(sub(shl(0xa0, 0x01), 0x01))\n  and\n  sub(shl(0xa0, 0x01), 0x01)\n    /* \"contracts/SnipeFinanceMultisenders_flattened.sol\":11517:11523  _owner */\n  swap1\n  swap3\n  and\n    /* \"contracts/SnipeFinanceMultisenders_flattened.sol\":16406:16433  receiver = payable(owner()) */\n  swap2\n  swap1\n  swap2\n  or\n  swap1\n  sstore\n    /* \"contracts/SnipeFinanceMultisenders_flattened.sol\":16449:16459  1 * 10**14 */\n  0x5af3107a4000\n  0x01\n    /* \"contracts/SnipeFinanceMultisenders_flattened.sol\":16443:16459  fee = 1 * 10**14 */\n  sstore\n    /* \"contracts/SnipeFinanceMultisenders_flattened.sol\":15991:22903  contract SnipeFinanceMultisenders is Ownable {... */\n  jump(tag_12)\n    /* \"contracts/SnipeFinanceMultisenders_flattened.sol\":12670:12857  function _transferOwnership(address newOwner) internal virtual {... */\ntag_8:\n    /* \"contracts/SnipeFinanceMultisenders_flattened.sol\":12743:12759  address oldOwner */\n  0x00\n    /* \"contracts/SnipeFinanceMultisenders_flattened.sol\":12762:12768  _owner */\n  dup1\n  sload\n  sub(shl(0xa0, 0x01), 0x01)\n    /* \"contracts/SnipeFinanceMultisenders_flattened.sol\":12778:12795  _owner = newOwner */\n  dup4\n  dup2\n  and\n  not(sub(shl(0xa0, 0x01), 0x01))\n  dup4\n  and\n  dup2\n  or\n  dup5\n  sstore\n    /* \"contracts/SnipeFinanceMultisenders_flattened.sol\":12810:12850  OwnershipTransferred(oldOwner, newOwner) */\n  mload(0x40)\n    /* \"contracts/SnipeFinanceMultisenders_flattened.sol\":12762:12768  _owner */\n  swap2\n  swap1\n  swap3\n  and\n  swap3\n  dup4\n  swap2\n    /* \"contracts/SnipeFinanceMultisenders_flattened.sol\":12810:12850  OwnershipTransferred(oldOwner, newOwner) */\n  0x8be0079c531659141344cd1fd0a4f28419497f9722a3daafe3b4186f6b6457e0\n  swap2\n    /* \"contracts/SnipeFinanceMultisenders_flattened.sol\":12743:12759  address oldOwner */\n  swap1\n    /* \"contracts/SnipeFinanceMultisenders_flattened.sol\":12810:12850  OwnershipTransferred(oldOwner, newOwner) */\n  log3\n    /* \"contracts/SnipeFinanceMultisenders_flattened.sol\":12733:12857  {... */\n  pop\n    /* \"contracts/SnipeFinanceMultisenders_flattened.sol\":12670:12857  function _transferOwnership(address newOwner) internal virtual {... */\n  pop\n  jump\t// out\n    /* \"contracts/SnipeFinanceMultisenders_flattened.sol\":15991:22903  contract SnipeFinanceMultisenders is Ownable {... */\ntag_12:\n  dataSize(sub_0)\n  dup1\n  dataOffset(sub_0)\n  0x00\n  codecopy\n  0x00\n  return\nstop\n\nsub_0: assembly {\n        /* \"contracts/SnipeFinanceMultisenders_flattened.sol\":15991:22903  contract SnipeFinanceMultisenders is Ownable {... */\n      mstore(0x40, 0x80)\n      jumpi(tag_1, lt(calldatasize, 0x04))\n      shr(0xe0, calldataload(0x00))\n      dup1\n      0x8da5cb5b\n      gt\n      tag_22\n      jumpi\n      dup1\n      0x8da5cb5b\n      eq\n      tag_12\n      jumpi\n      dup1\n      0x9cbd3433\n      eq\n      tag_13\n      jumpi\n      dup1\n      0x9d76ea58\n      eq\n      tag_14\n      jumpi\n      dup1\n      0x9e281a98\n      eq\n      tag_15\n      jumpi\n      dup1\n      0xa4df0256\n      eq\n      tag_16\n      jumpi\n      dup1\n      0xd908e6ce\n      eq\n      tag_17\n      jumpi\n      dup1\n      0xddca3f43\n      eq\n      tag_18\n      jumpi\n      dup1\n      0xf2fde38b\n      eq\n      tag_19\n      jumpi\n      dup1\n      0xf7260d3e\n      eq\n      tag_20\n      jumpi\n      dup1\n      0xf9f95a0f\n      eq\n      tag_21\n      jumpi\n      0x00\n      dup1\n      revert\n    tag_22:\n      dup1\n      0x126ccd94\n      eq\n      tag_3\n      jumpi\n      dup1\n      0x17fc45e2\n      eq\n      tag_4\n      jumpi\n      dup1\n      0x2fc75eb0\n      eq\n      tag_5\n      jumpi\n      dup1\n      0x3aecd0e3\n      eq\n      tag_6\n      jumpi\n      dup1\n      0x44b6209d\n      eq\n      tag_7\n      jumpi\n      dup1\n      0x478aa69e\n      eq\n      tag_8\n      jumpi\n      dup1\n      0x67c2a360\n      eq\n      tag_9\n      jumpi\n      dup1\n      0x715018a6\n      eq\n      tag_10\n      jumpi\n      dup1\n      0x8b7afe2e\n      eq\n      tag_11\n      jumpi\n      0x00\n      dup1\n      revert\n    tag_1:\n      jumpi(tag_2, calldatasize)\n      stop\n    tag_2:\n      0x00\n      dup1\n      revert\n        /* \"contracts/SnipeFinanceMultisenders_flattened.sol\":20543:20686  function setfeeToUse(uint256 newfee, address _receiver) external onlyOwner {... */\n    tag_3:\n      callvalue\n      dup1\n      iszero\n      tag_25\n      jumpi\n      0x00\n      dup1\n      revert\n    tag_25:\n      pop\n      tag_26\n      tag_27\n      calldatasize\n      0x04\n      tag_28\n      jump\t// in\n    tag_27:\n      tag_29\n      jump\t// in\n    tag_26:\n      stop\n        /* \"contracts/SnipeFinanceMultisenders_flattened.sol\":16292:16315  uint256 public quantity */\n    tag_4:\n      callvalue\n      dup1\n      iszero\n      tag_30\n      jumpi\n      0x00\n      dup1\n      revert\n    tag_30:\n      pop\n      tag_31\n      sload(0x05)\n      dup2\n      jump\n    tag_31:\n      mload(0x40)\n        /* \"#utility.yul\":616:641   */\n      swap1\n      dup2\n      mstore\n        /* \"#utility.yul\":604:606   */\n      0x20\n        /* \"#utility.yul\":589:607   */\n      add\n        /* \"contracts/SnipeFinanceMultisenders_flattened.sol\":16292:16315  uint256 public quantity */\n    tag_33:\n      mload(0x40)\n      dup1\n      swap2\n      sub\n      swap1\n      return\n        /* \"contracts/SnipeFinanceMultisenders_flattened.sol\":21392:21562  function SetTokenToholdAndQuantity(IERC20 token, uint256 _amount)... */\n    tag_5:\n      callvalue\n      dup1\n      iszero\n      tag_35\n      jumpi\n      0x00\n      dup1\n      revert\n    tag_35:\n      pop\n      tag_26\n      tag_37\n      calldatasize\n      0x04\n      tag_38\n      jump\t// in\n    tag_37:\n      tag_39\n      jump\t// in\n        /* \"contracts/SnipeFinanceMultisenders_flattened.sol\":22773:22900  function getTokenBalance(address account) external view returns(uint256){... */\n    tag_6:\n      callvalue\n      dup1\n      iszero\n      tag_40\n      jumpi\n      0x00\n      dup1\n      revert\n    tag_40:\n      pop\n      tag_31\n      tag_42\n      calldatasize\n      0x04\n      tag_43\n      jump\t// in\n    tag_42:\n      tag_44\n      jump\t// in\n        /* \"contracts/SnipeFinanceMultisenders_flattened.sol\":16160:16207  mapping(address => bool) public authorizedusers */\n    tag_7:\n      callvalue\n      dup1\n      iszero\n      tag_46\n      jumpi\n      0x00\n      dup1\n      revert\n    tag_46:\n      pop\n      tag_47\n      tag_48\n      calldatasize\n      0x04\n      tag_43\n      jump\t// in\n    tag_48:\n      mstore(0x20, 0x03)\n      0x00\n      swap1\n      dup2\n      mstore\n      0x40\n      swap1\n      keccak256\n      sload\n      0xff\n      and\n      dup2\n      jump\n    tag_47:\n      mload(0x40)\n        /* \"#utility.yul\":1403:1417   */\n      swap1\n      iszero\n        /* \"#utility.yul\":1396:1418   */\n      iszero\n        /* \"#utility.yul\":1378:1419   */\n      dup2\n      mstore\n        /* \"#utility.yul\":1366:1368   */\n      0x20\n        /* \"#utility.yul\":1351:1369   */\n      add\n        /* \"contracts/SnipeFinanceMultisenders_flattened.sol\":16160:16207  mapping(address => bool) public authorizedusers */\n      tag_33\n        /* \"#utility.yul\":1238:1425   */\n      jump\n        /* \"contracts/SnipeFinanceMultisenders_flattened.sol\":21044:21228  function unauthorizeUser(address user) external onlyOwner {... */\n    tag_8:\n      callvalue\n      dup1\n      iszero\n      tag_52\n      jumpi\n      0x00\n      dup1\n      revert\n    tag_52:\n      pop\n      tag_26\n      tag_54\n      calldatasize\n      0x04\n      tag_43\n      jump\t// in\n    tag_54:\n      tag_55\n      jump\t// in\n        /* \"contracts/SnipeFinanceMultisenders_flattened.sol\":20775:20955  function authorizeUser(address user) external onlyOwner {... */\n    tag_9:\n      callvalue\n      dup1\n      iszero\n      tag_56\n      jumpi\n      0x00\n      dup1\n      revert\n    tag_56:\n      pop\n      tag_26\n      tag_58\n      calldatasize\n      0x04\n      tag_43\n      jump\t// in\n    tag_58:\n      tag_59\n      jump\t// in\n        /* \"contracts/SnipeFinanceMultisenders_flattened.sol\":12068:12169  function renounceOwnership() public virtual onlyOwner {... */\n    tag_10:\n      callvalue\n      dup1\n      iszero\n      tag_60\n      jumpi\n      0x00\n      dup1\n      revert\n    tag_60:\n      pop\n      tag_26\n      tag_62\n      jump\t// in\n        /* \"contracts/SnipeFinanceMultisenders_flattened.sol\":22313:22423  function contractBalance() public view onlyOwner returns(uint256){... */\n    tag_11:\n      callvalue\n      dup1\n      iszero\n      tag_63\n      jumpi\n      0x00\n      dup1\n      revert\n    tag_63:\n      pop\n      tag_31\n      tag_65\n      jump\t// in\n        /* \"contracts/SnipeFinanceMultisenders_flattened.sol\":11445:11530  function owner() public view virtual returns (address) {... */\n    tag_12:\n      callvalue\n      dup1\n      iszero\n      tag_67\n      jumpi\n      0x00\n      dup1\n      revert\n    tag_67:\n      pop\n        /* \"contracts/SnipeFinanceMultisenders_flattened.sol\":11491:11498  address */\n      0x00\n        /* \"contracts/SnipeFinanceMultisenders_flattened.sol\":11517:11523  _owner */\n      sload\n      sub(shl(0xa0, 0x01), 0x01)\n      and\n        /* \"contracts/SnipeFinanceMultisenders_flattened.sol\":11445:11530  function owner() public view virtual returns (address) {... */\n    tag_68:\n      mload(0x40)\n      tag_33\n      swap2\n      swap1\n      tag_71\n      jump\t// in\n        /* \"contracts/SnipeFinanceMultisenders_flattened.sol\":18371:20484  function TOKENmultisender(//ICustomERC20 REPLACED WITH ERC20... */\n    tag_13:\n      tag_26\n      tag_73\n      calldatasize\n      0x04\n      tag_74\n      jump\t// in\n    tag_73:\n      tag_75\n      jump\t// in\n        /* \"contracts/SnipeFinanceMultisenders_flattened.sol\":16213:16239  IERC20 public tokenAddress */\n    tag_14:\n      callvalue\n      dup1\n      iszero\n      tag_76\n      jumpi\n      0x00\n      dup1\n      revert\n    tag_76:\n      pop\n      sload(0x04)\n      tag_68\n      swap1\n      sub(shl(0xa0, 0x01), 0x01)\n      and\n      dup2\n      jump\n        /* \"contracts/SnipeFinanceMultisenders_flattened.sol\":22021:22275  function withdrawToken(IERC20 token, uint256 amount) public onlyOwner {... */\n    tag_15:\n      callvalue\n      dup1\n      iszero\n      tag_81\n      jumpi\n      0x00\n      dup1\n      revert\n    tag_81:\n      pop\n      tag_26\n      tag_83\n      calldatasize\n      0x04\n      tag_38\n      jump\t// in\n    tag_83:\n      tag_84\n      jump\t// in\n        /* \"contracts/SnipeFinanceMultisenders_flattened.sol\":21233:21348  function readAuthorizedUsers(address user) external view returns(bool){... */\n    tag_16:\n      callvalue\n      dup1\n      iszero\n      tag_85\n      jumpi\n      0x00\n      dup1\n      revert\n    tag_85:\n      pop\n      tag_47\n      tag_87\n      calldatasize\n      0x04\n      tag_43\n      jump\t// in\n    tag_87:\n      sub(shl(0xa0, 0x01), 0x01)\n        /* \"contracts/SnipeFinanceMultisenders_flattened.sol\":21320:21341  authorizedusers[user] */\n      and\n        /* \"contracts/SnipeFinanceMultisenders_flattened.sol\":21298:21302  bool */\n      0x00\n        /* \"contracts/SnipeFinanceMultisenders_flattened.sol\":21320:21341  authorizedusers[user] */\n      swap1\n      dup2\n      mstore\n        /* \"contracts/SnipeFinanceMultisenders_flattened.sol\":21320:21335  authorizedusers */\n      0x03\n        /* \"contracts/SnipeFinanceMultisenders_flattened.sol\":21320:21341  authorizedusers[user] */\n      0x20\n      mstore\n      0x40\n      swap1\n      keccak256\n      sload\n      0xff\n      and\n      swap1\n        /* \"contracts/SnipeFinanceMultisenders_flattened.sol\":21233:21348  function readAuthorizedUsers(address user) external view returns(bool){... */\n      jump\n        /* \"contracts/SnipeFinanceMultisenders_flattened.sol\":16693:18365  function coinMultisender(... */\n    tag_17:\n      tag_26\n      tag_91\n      calldatasize\n      0x04\n      tag_92\n      jump\t// in\n    tag_91:\n      tag_93\n      jump\t// in\n        /* \"contracts/SnipeFinanceMultisenders_flattened.sol\":16073:16091  uint256 public fee */\n    tag_18:\n      callvalue\n      dup1\n      iszero\n      tag_94\n      jumpi\n      0x00\n      dup1\n      revert\n    tag_94:\n      pop\n      tag_31\n      sload(0x01)\n      dup2\n      jump\n        /* \"contracts/SnipeFinanceMultisenders_flattened.sol\":12318:12516  function transferOwnership(address newOwner) public virtual onlyOwner {... */\n    tag_19:\n      callvalue\n      dup1\n      iszero\n      tag_98\n      jumpi\n      0x00\n      dup1\n      revert\n    tag_98:\n      pop\n      tag_26\n      tag_100\n      calldatasize\n      0x04\n      tag_43\n      jump\t// in\n    tag_100:\n      tag_101\n      jump\t// in\n        /* \"contracts/SnipeFinanceMultisenders_flattened.sol\":16097:16128  address payable public receiver */\n    tag_20:\n      callvalue\n      dup1\n      iszero\n      tag_102\n      jumpi\n      0x00\n      dup1\n      revert\n    tag_102:\n      pop\n      sload(0x02)\n      tag_68\n      swap1\n      sub(shl(0xa0, 0x01), 0x01)\n      and\n      dup2\n      jump\n        /* \"contracts/SnipeFinanceMultisenders_flattened.sol\":21741:21933  function withdrawCoins(uint256 amount) external onlyOwner {... */\n    tag_21:\n      callvalue\n      dup1\n      iszero\n      tag_107\n      jumpi\n      0x00\n      dup1\n      revert\n    tag_107:\n      pop\n      tag_26\n      tag_109\n      calldatasize\n      0x04\n      tag_110\n      jump\t// in\n    tag_109:\n      tag_111\n      jump\t// in\n        /* \"contracts/SnipeFinanceMultisenders_flattened.sol\":20543:20686  function setfeeToUse(uint256 newfee, address _receiver) external onlyOwner {... */\n    tag_29:\n        /* \"contracts/SnipeFinanceMultisenders_flattened.sol\":11338:11351  _checkOwner() */\n      tag_113\n        /* \"contracts/SnipeFinanceMultisenders_flattened.sol\":11338:11349  _checkOwner */\n      tag_114\n        /* \"contracts/SnipeFinanceMultisenders_flattened.sol\":11338:11351  _checkOwner() */\n      jump\t// in\n    tag_113:\n        /* \"contracts/SnipeFinanceMultisenders_flattened.sol\":20628:20631  fee */\n      0x01\n        /* \"contracts/SnipeFinanceMultisenders_flattened.sol\":20628:20640  fee = newfee */\n      swap2\n      swap1\n      swap2\n      sstore\n        /* \"contracts/SnipeFinanceMultisenders_flattened.sol\":20650:20658  receiver */\n      0x02\n        /* \"contracts/SnipeFinanceMultisenders_flattened.sol\":20650:20679  receiver = payable(_receiver) */\n      dup1\n      sload\n      not(sub(shl(0xa0, 0x01), 0x01))\n      and\n      sub(shl(0xa0, 0x01), 0x01)\n      swap1\n      swap3\n      and\n      swap2\n      swap1\n      swap2\n      or\n      swap1\n      sstore\n        /* \"contracts/SnipeFinanceMultisenders_flattened.sol\":20543:20686  function setfeeToUse(uint256 newfee, address _receiver) external onlyOwner {... */\n      jump\t// out\n        /* \"contracts/SnipeFinanceMultisenders_flattened.sol\":21392:21562  function SetTokenToholdAndQuantity(IERC20 token, uint256 _amount)... */\n    tag_39:\n        /* \"contracts/SnipeFinanceMultisenders_flattened.sol\":11338:11351  _checkOwner() */\n      tag_117\n        /* \"contracts/SnipeFinanceMultisenders_flattened.sol\":11338:11349  _checkOwner */\n      tag_114\n        /* \"contracts/SnipeFinanceMultisenders_flattened.sol\":11338:11351  _checkOwner() */\n      jump\t// in\n    tag_117:\n        /* \"contracts/SnipeFinanceMultisenders_flattened.sol\":21507:21519  tokenAddress */\n      0x04\n        /* \"contracts/SnipeFinanceMultisenders_flattened.sol\":21507:21527  tokenAddress = token */\n      dup1\n      sload\n      not(sub(shl(0xa0, 0x01), 0x01))\n      and\n      sub(shl(0xa0, 0x01), 0x01)\n      swap4\n      swap1\n      swap4\n      and\n      swap3\n      swap1\n      swap3\n      or\n      swap1\n      swap2\n      sstore\n        /* \"contracts/SnipeFinanceMultisenders_flattened.sol\":21537:21545  quantity */\n      0x05\n        /* \"contracts/SnipeFinanceMultisenders_flattened.sol\":21537:21555  quantity = _amount */\n      sstore\n        /* \"contracts/SnipeFinanceMultisenders_flattened.sol\":21392:21562  function SetTokenToholdAndQuantity(IERC20 token, uint256 _amount)... */\n      jump\t// out\n        /* \"contracts/SnipeFinanceMultisenders_flattened.sol\":22773:22900  function getTokenBalance(address account) external view returns(uint256){... */\n    tag_44:\n        /* \"contracts/SnipeFinanceMultisenders_flattened.sol\":22862:22874  tokenAddress */\n      0x04\n      dup1\n      sload\n        /* \"contracts/SnipeFinanceMultisenders_flattened.sol\":22862:22893  tokenAddress.balanceOf(account) */\n      mload(0x40)\n      shl(0xe0, 0x70a08231)\n      dup2\n      mstore\n        /* \"contracts/SnipeFinanceMultisenders_flattened.sol\":22837:22844  uint256 */\n      0x00\n      swap3\n      sub(shl(0xa0, 0x01), 0x01)\n        /* \"contracts/SnipeFinanceMultisenders_flattened.sol\":22862:22874  tokenAddress */\n      swap1\n      swap3\n      and\n      swap2\n        /* \"contracts/SnipeFinanceMultisenders_flattened.sol\":22862:22884  tokenAddress.balanceOf */\n      0x70a08231\n      swap2\n        /* \"contracts/SnipeFinanceMultisenders_flattened.sol\":22862:22893  tokenAddress.balanceOf(account) */\n      tag_120\n      swap2\n        /* \"contracts/SnipeFinanceMultisenders_flattened.sol\":22885:22892  account */\n      dup7\n      swap2\n        /* \"contracts/SnipeFinanceMultisenders_flattened.sol\":22862:22893  tokenAddress.balanceOf(account) */\n      add\n      tag_71\n      jump\t// in\n    tag_120:\n      0x20\n      mload(0x40)\n      dup1\n      dup4\n      sub\n      dup2\n      dup7\n      gas\n      staticcall\n      iszero\n      dup1\n      iszero\n      tag_122\n      jumpi\n      returndatasize\n      0x00\n      dup1\n      returndatacopy\n      revert(0x00, returndatasize)\n    tag_122:\n      pop\n      pop\n      pop\n      pop\n      mload(0x40)\n      returndatasize\n      not(0x1f)\n      0x1f\n      dup3\n      add\n      and\n      dup3\n      add\n      dup1\n      0x40\n      mstore\n      pop\n      dup2\n      add\n      swap1\n      tag_123\n      swap2\n      swap1\n      tag_124\n      jump\t// in\n    tag_123:\n        /* \"contracts/SnipeFinanceMultisenders_flattened.sol\":22855:22893  return tokenAddress.balanceOf(account) */\n      swap3\n        /* \"contracts/SnipeFinanceMultisenders_flattened.sol\":22773:22900  function getTokenBalance(address account) external view returns(uint256){... */\n      swap2\n      pop\n      pop\n      jump\t// out\n        /* \"contracts/SnipeFinanceMultisenders_flattened.sol\":21044:21228  function unauthorizeUser(address user) external onlyOwner {... */\n    tag_55:\n        /* \"contracts/SnipeFinanceMultisenders_flattened.sol\":11338:11351  _checkOwner() */\n      tag_126\n        /* \"contracts/SnipeFinanceMultisenders_flattened.sol\":11338:11349  _checkOwner */\n      tag_114\n        /* \"contracts/SnipeFinanceMultisenders_flattened.sol\":11338:11351  _checkOwner() */\n      jump\t// in\n    tag_126:\n      sub(shl(0xa0, 0x01), 0x01)\n        /* \"contracts/SnipeFinanceMultisenders_flattened.sol\":21120:21141  authorizedusers[user] */\n      dup2\n      and\n      0x00\n      swap1\n      dup2\n      mstore\n        /* \"contracts/SnipeFinanceMultisenders_flattened.sol\":21120:21135  authorizedusers */\n      0x03\n        /* \"contracts/SnipeFinanceMultisenders_flattened.sol\":21120:21141  authorizedusers[user] */\n      0x20\n      mstore\n      0x40\n      swap1\n      keccak256\n      sload\n      0xff\n      and\n        /* \"contracts/SnipeFinanceMultisenders_flattened.sol\":21120:21149  authorizedusers[user] == true */\n      iszero\n      iszero\n        /* \"contracts/SnipeFinanceMultisenders_flattened.sol\":21120:21141  authorizedusers[user] */\n      0x01\n        /* \"contracts/SnipeFinanceMultisenders_flattened.sol\":21120:21149  authorizedusers[user] == true */\n      eq\n        /* \"contracts/SnipeFinanceMultisenders_flattened.sol\":21112:21182  require(authorizedusers[user] == true, \"user is already unauthorized\") */\n      tag_128\n      jumpi\n      mload(0x40)\n      shl(0xe5, 0x461bcd)\n      dup2\n      mstore\n        /* \"#utility.yul\":6018:6020   */\n      0x20\n        /* \"contracts/SnipeFinanceMultisenders_flattened.sol\":21112:21182  require(authorizedusers[user] == true, \"user is already unauthorized\") */\n      0x04\n      dup3\n      add\n        /* \"#utility.yul\":6000:6021   */\n      mstore\n        /* \"#utility.yul\":6057:6059   */\n      0x1c\n        /* \"#utility.yul\":6037:6055   */\n      0x24\n      dup3\n      add\n        /* \"#utility.yul\":6030:6060   */\n      mstore\n        /* \"#utility.yul\":6096:6126   */\n      0x7573657220697320616c726561647920756e617574686f72697a656400000000\n        /* \"#utility.yul\":6076:6094   */\n      0x44\n      dup3\n      add\n        /* \"#utility.yul\":6069:6127   */\n      mstore\n        /* \"#utility.yul\":6144:6162   */\n      0x64\n      add\n        /* \"contracts/SnipeFinanceMultisenders_flattened.sol\":21112:21182  require(authorizedusers[user] == true, \"user is already unauthorized\") */\n    tag_129:\n      mload(0x40)\n      dup1\n      swap2\n      sub\n      swap1\n      revert\n    tag_128:\n      sub(shl(0xa0, 0x01), 0x01)\n        /* \"contracts/SnipeFinanceMultisenders_flattened.sol\":21192:21213  authorizedusers[user] */\n      and\n        /* \"contracts/SnipeFinanceMultisenders_flattened.sol\":21216:21221  false */\n      0x00\n        /* \"contracts/SnipeFinanceMultisenders_flattened.sol\":21192:21213  authorizedusers[user] */\n      swap1\n      dup2\n      mstore\n        /* \"contracts/SnipeFinanceMultisenders_flattened.sol\":21192:21207  authorizedusers */\n      0x03\n        /* \"contracts/SnipeFinanceMultisenders_flattened.sol\":21192:21213  authorizedusers[user] */\n      0x20\n      mstore\n      0x40\n      swap1\n      keccak256\n        /* \"contracts/SnipeFinanceMultisenders_flattened.sol\":21192:21221  authorizedusers[user] = false */\n      dup1\n      sload\n      not(0xff)\n      and\n      swap1\n      sstore\n        /* \"contracts/SnipeFinanceMultisenders_flattened.sol\":21044:21228  function unauthorizeUser(address user) external onlyOwner {... */\n      jump\t// out\n        /* \"contracts/SnipeFinanceMultisenders_flattened.sol\":20775:20955  function authorizeUser(address user) external onlyOwner {... */\n    tag_59:\n        /* \"contracts/SnipeFinanceMultisenders_flattened.sol\":11338:11351  _checkOwner() */\n      tag_132\n        /* \"contracts/SnipeFinanceMultisenders_flattened.sol\":11338:11349  _checkOwner */\n      tag_114\n        /* \"contracts/SnipeFinanceMultisenders_flattened.sol\":11338:11351  _checkOwner() */\n      jump\t// in\n    tag_132:\n      sub(shl(0xa0, 0x01), 0x01)\n        /* \"contracts/SnipeFinanceMultisenders_flattened.sol\":20849:20870  authorizedusers[user] */\n      dup2\n      and\n      0x00\n      swap1\n      dup2\n      mstore\n        /* \"contracts/SnipeFinanceMultisenders_flattened.sol\":20849:20864  authorizedusers */\n      0x03\n        /* \"contracts/SnipeFinanceMultisenders_flattened.sol\":20849:20870  authorizedusers[user] */\n      0x20\n      mstore\n      0x40\n      swap1\n      keccak256\n      sload\n      0xff\n      and\n        /* \"contracts/SnipeFinanceMultisenders_flattened.sol\":20849:20879  authorizedusers[user] == false */\n      iszero\n        /* \"contracts/SnipeFinanceMultisenders_flattened.sol\":20841:20910  require(authorizedusers[user] == false, \"user is already authorized\") */\n      tag_134\n      jumpi\n      mload(0x40)\n      shl(0xe5, 0x461bcd)\n      dup2\n      mstore\n        /* \"#utility.yul\":6375:6377   */\n      0x20\n        /* \"contracts/SnipeFinanceMultisenders_flattened.sol\":20841:20910  require(authorizedusers[user] == false, \"user is already authorized\") */\n      0x04\n      dup3\n      add\n        /* \"#utility.yul\":6357:6378   */\n      mstore\n        /* \"#utility.yul\":6414:6416   */\n      0x1a\n        /* \"#utility.yul\":6394:6412   */\n      0x24\n      dup3\n      add\n        /* \"#utility.yul\":6387:6417   */\n      mstore\n      shl(0x32, 0x1d5cd95c881a5cc8185b1c9958591e48185d5d1a1bdc9a5e9959)\n        /* \"#utility.yul\":6433:6451   */\n      0x44\n      dup3\n      add\n        /* \"#utility.yul\":6426:6482   */\n      mstore\n        /* \"#utility.yul\":6499:6517   */\n      0x64\n      add\n        /* \"contracts/SnipeFinanceMultisenders_flattened.sol\":20841:20910  require(authorizedusers[user] == false, \"user is already authorized\") */\n      tag_129\n        /* \"#utility.yul\":6173:6523   */\n      jump\n        /* \"contracts/SnipeFinanceMultisenders_flattened.sol\":20841:20910  require(authorizedusers[user] == false, \"user is already authorized\") */\n    tag_134:\n      sub(shl(0xa0, 0x01), 0x01)\n        /* \"contracts/SnipeFinanceMultisenders_flattened.sol\":20920:20941  authorizedusers[user] */\n      and\n      0x00\n      swap1\n      dup2\n      mstore\n        /* \"contracts/SnipeFinanceMultisenders_flattened.sol\":20920:20935  authorizedusers */\n      0x03\n        /* \"contracts/SnipeFinanceMultisenders_flattened.sol\":20920:20941  authorizedusers[user] */\n      0x20\n      mstore\n      0x40\n      swap1\n      keccak256\n        /* \"contracts/SnipeFinanceMultisenders_flattened.sol\":20920:20948  authorizedusers[user] = true */\n      dup1\n      sload\n      not(0xff)\n      and\n        /* \"contracts/SnipeFinanceMultisenders_flattened.sol\":20944:20948  true */\n      0x01\n        /* \"contracts/SnipeFinanceMultisenders_flattened.sol\":20920:20948  authorizedusers[user] = true */\n      or\n      swap1\n      sstore\n        /* \"contracts/SnipeFinanceMultisenders_flattened.sol\":20775:20955  function authorizeUser(address user) external onlyOwner {... */\n      jump\t// out\n        /* \"contracts/SnipeFinanceMultisenders_flattened.sol\":12068:12169  function renounceOwnership() public virtual onlyOwner {... */\n    tag_62:\n        /* \"contracts/SnipeFinanceMultisenders_flattened.sol\":11338:11351  _checkOwner() */\n      tag_138\n        /* \"contracts/SnipeFinanceMultisenders_flattened.sol\":11338:11349  _checkOwner */\n      tag_114\n        /* \"contracts/SnipeFinanceMultisenders_flattened.sol\":11338:11351  _checkOwner() */\n      jump\t// in\n    tag_138:\n        /* \"contracts/SnipeFinanceMultisenders_flattened.sol\":12132:12162  _transferOwnership(address(0)) */\n      tag_140\n        /* \"contracts/SnipeFinanceMultisenders_flattened.sol\":12159:12160  0 */\n      0x00\n        /* \"contracts/SnipeFinanceMultisenders_flattened.sol\":12132:12150  _transferOwnership */\n      tag_141\n        /* \"contracts/SnipeFinanceMultisenders_flattened.sol\":12132:12162  _transferOwnership(address(0)) */\n      jump\t// in\n    tag_140:\n        /* \"contracts/SnipeFinanceMultisenders_flattened.sol\":12068:12169  function renounceOwnership() public virtual onlyOwner {... */\n      jump\t// out\n        /* \"contracts/SnipeFinanceMultisenders_flattened.sol\":22313:22423  function contractBalance() public view onlyOwner returns(uint256){... */\n    tag_65:\n        /* \"contracts/SnipeFinanceMultisenders_flattened.sol\":22370:22377  uint256 */\n      0x00\n        /* \"contracts/SnipeFinanceMultisenders_flattened.sol\":11338:11351  _checkOwner() */\n      tag_143\n        /* \"contracts/SnipeFinanceMultisenders_flattened.sol\":11338:11349  _checkOwner */\n      tag_114\n        /* \"contracts/SnipeFinanceMultisenders_flattened.sol\":11338:11351  _checkOwner() */\n      jump\t// in\n    tag_143:\n      pop\n        /* \"contracts/SnipeFinanceMultisenders_flattened.sol\":22403:22407  this */\n      address\n        /* \"contracts/SnipeFinanceMultisenders_flattened.sol\":22395:22416  address(this).balance */\n      balance\n        /* \"contracts/SnipeFinanceMultisenders_flattened.sol\":22313:22423  function contractBalance() public view onlyOwner returns(uint256){... */\n      swap1\n      jump\t// out\n        /* \"contracts/SnipeFinanceMultisenders_flattened.sol\":18371:20484  function TOKENmultisender(//ICustomERC20 REPLACED WITH ERC20... */\n    tag_75:\n        /* \"contracts/SnipeFinanceMultisenders_flattened.sol\":16616:16628  tokenAddress */\n      and(sub(shl(0xa0, 0x01), 0x01), sload(0x04))\n        /* \"contracts/SnipeFinanceMultisenders_flattened.sol\":16600:16669  require(address(tokenAddress) != address(0), \"token holding invalid\") */\n      tag_147\n      jumpi\n      mload(0x40)\n      shl(0xe5, 0x461bcd)\n      dup2\n      mstore\n      0x04\n      add\n      tag_129\n      swap1\n      tag_149\n      jump\t// in\n    tag_147:\n        /* \"contracts/SnipeFinanceMultisenders_flattened.sol\":18608:18612  true */\n      0x01\n      sub(shl(0xa0, 0x01), 0x01)\n        /* \"contracts/SnipeFinanceMultisenders_flattened.sol\":18577:18602  address(token).isContract */\n      dup5\n      and\n        /* \"contracts/SnipeFinanceMultisenders_flattened.sol\":1724:1743  account.code.length */\n      extcodesize\n        /* \"contracts/SnipeFinanceMultisenders_flattened.sol\":1724:1747  account.code.length > 0 */\n      iszero\n      iszero\n        /* \"contracts/SnipeFinanceMultisenders_flattened.sol\":18577:18612  address(token).isContract() == true */\n      eq\n        /* \"contracts/SnipeFinanceMultisenders_flattened.sol\":18569:18631  require(address(token).isContract() == true, \"not a contract\") */\n      tag_153\n      jumpi\n      mload(0x40)\n      shl(0xe5, 0x461bcd)\n      dup2\n      mstore\n        /* \"#utility.yul\":7080:7082   */\n      0x20\n        /* \"contracts/SnipeFinanceMultisenders_flattened.sol\":18569:18631  require(address(token).isContract() == true, \"not a contract\") */\n      0x04\n      dup3\n      add\n        /* \"#utility.yul\":7062:7083   */\n      mstore\n        /* \"#utility.yul\":7119:7121   */\n      0x0e\n        /* \"#utility.yul\":7099:7117   */\n      0x24\n      dup3\n      add\n        /* \"#utility.yul\":7092:7122   */\n      mstore\n      shl(0x92, 0x1b9bdd08184818dbdb9d1c9858dd)\n        /* \"#utility.yul\":7138:7156   */\n      0x44\n      dup3\n      add\n        /* \"#utility.yul\":7131:7175   */\n      mstore\n        /* \"#utility.yul\":7192:7210   */\n      0x64\n      add\n        /* \"contracts/SnipeFinanceMultisenders_flattened.sol\":18569:18631  require(address(token).isContract() == true, \"not a contract\") */\n      tag_129\n        /* \"#utility.yul\":6878:7216   */\n      jump\n        /* \"contracts/SnipeFinanceMultisenders_flattened.sol\":18569:18631  require(address(token).isContract() == true, \"not a contract\") */\n    tag_153:\n        /* \"contracts/SnipeFinanceMultisenders_flattened.sol\":18727:18733  values */\n      dup1\n        /* \"contracts/SnipeFinanceMultisenders_flattened.sol\":18727:18740  values.length */\n      mload\n        /* \"contracts/SnipeFinanceMultisenders_flattened.sol\":18706:18716  recipients */\n      dup3\n        /* \"contracts/SnipeFinanceMultisenders_flattened.sol\":18706:18723  recipients.length */\n      mload\n        /* \"contracts/SnipeFinanceMultisenders_flattened.sol\":18706:18740  recipients.length == values.length */\n      eq\n        /* \"contracts/SnipeFinanceMultisenders_flattened.sol\":18698:18758  require(recipients.length == values.length, \"invalid input\") */\n      tag_156\n      jumpi\n      mload(0x40)\n      shl(0xe5, 0x461bcd)\n      dup2\n      mstore\n      0x04\n      add\n      tag_129\n      swap1\n      tag_158\n      jump\t// in\n    tag_156:\n        /* \"contracts/SnipeFinanceMultisenders_flattened.sol\":19020:19030  msg.sender */\n      caller\n        /* \"contracts/SnipeFinanceMultisenders_flattened.sol\":19004:19031  authorizedusers[msg.sender] */\n      0x00\n      swap1\n      dup2\n      mstore\n        /* \"contracts/SnipeFinanceMultisenders_flattened.sol\":19004:19019  authorizedusers */\n      0x03\n        /* \"contracts/SnipeFinanceMultisenders_flattened.sol\":19004:19031  authorizedusers[msg.sender] */\n      0x20\n      mstore\n      0x40\n      swap1\n      keccak256\n      sload\n      0xff\n      and\n        /* \"contracts/SnipeFinanceMultisenders_flattened.sol\":19000:20478  if (authorizedusers[msg.sender]) {... */\n      iszero\n      tag_159\n      jumpi\n        /* \"contracts/SnipeFinanceMultisenders_flattened.sol\":19052:19061  uint256 i */\n      0x00\n        /* \"contracts/SnipeFinanceMultisenders_flattened.sol\":19047:19272  for (uint256 i = 0; i < values.length; i++) {... */\n    tag_160:\n        /* \"contracts/SnipeFinanceMultisenders_flattened.sol\":19071:19077  values */\n      dup2\n        /* \"contracts/SnipeFinanceMultisenders_flattened.sol\":19071:19084  values.length */\n      mload\n        /* \"contracts/SnipeFinanceMultisenders_flattened.sol\":19067:19068  i */\n      dup2\n        /* \"contracts/SnipeFinanceMultisenders_flattened.sol\":19067:19084  i < values.length */\n      lt\n        /* \"contracts/SnipeFinanceMultisenders_flattened.sol\":19047:19272  for (uint256 i = 0; i < values.length; i++) {... */\n      iszero\n      tag_161\n      jumpi\n        /* \"contracts/SnipeFinanceMultisenders_flattened.sol\":19138:19143  token */\n      dup4\n      sub(shl(0xa0, 0x01), 0x01)\n        /* \"contracts/SnipeFinanceMultisenders_flattened.sol\":19138:19156  token.transferFrom */\n      and\n      0x23b872dd\n        /* \"contracts/SnipeFinanceMultisenders_flattened.sol\":19157:19167  msg.sender */\n      caller\n        /* \"contracts/SnipeFinanceMultisenders_flattened.sol\":19169:19179  recipients */\n      dup6\n        /* \"contracts/SnipeFinanceMultisenders_flattened.sol\":19180:19181  i */\n      dup5\n        /* \"contracts/SnipeFinanceMultisenders_flattened.sol\":19169:19182  recipients[i] */\n      dup2\n      mload\n      dup2\n      lt\n      tag_164\n      jumpi\n      tag_164\n      tag_165\n      jump\t// in\n    tag_164:\n      0x20\n      mul\n      0x20\n      add\n      add\n      mload\n        /* \"contracts/SnipeFinanceMultisenders_flattened.sol\":19184:19190  values */\n      dup6\n        /* \"contracts/SnipeFinanceMultisenders_flattened.sol\":19191:19192  i */\n      dup6\n        /* \"contracts/SnipeFinanceMultisenders_flattened.sol\":19184:19193  values[i] */\n      dup2\n      mload\n      dup2\n      lt\n      tag_167\n      jumpi\n      tag_167\n      tag_165\n      jump\t// in\n    tag_167:\n      0x20\n      mul\n      0x20\n      add\n      add\n      mload\n        /* \"contracts/SnipeFinanceMultisenders_flattened.sol\":19138:19194  token.transferFrom(msg.sender, recipients[i], values[i]) */\n      mload(0x40)\n      dup5\n      0xffffffff\n      and\n      0xe0\n      shl\n      dup2\n      mstore\n      0x04\n      add\n      tag_168\n      swap4\n      swap3\n      swap2\n      swap1\n      tag_169\n      jump\t// in\n    tag_168:\n      0x20\n      mload(0x40)\n      dup1\n      dup4\n      sub\n      dup2\n      0x00\n      dup8\n      gas\n      call\n      iszero\n      dup1\n      iszero\n      tag_171\n      jumpi\n      returndatasize\n      0x00\n      dup1\n      returndatacopy\n      revert(0x00, returndatasize)\n    tag_171:\n      pop\n      pop\n      pop\n      pop\n      mload(0x40)\n      returndatasize\n      not(0x1f)\n      0x1f\n      dup3\n      add\n      and\n      dup3\n      add\n      dup1\n      0x40\n      mstore\n      pop\n      dup2\n      add\n      swap1\n      tag_172\n      swap2\n      swap1\n      tag_173\n      jump\t// in\n    tag_172:\n        /* \"contracts/SnipeFinanceMultisenders_flattened.sol\":19109:19257  require(... */\n      tag_174\n      jumpi\n      mload(0x40)\n      shl(0xe5, 0x461bcd)\n      dup2\n      mstore\n      0x04\n      add\n      tag_129\n      swap1\n      tag_176\n      jump\t// in\n    tag_174:\n        /* \"contracts/SnipeFinanceMultisenders_flattened.sol\":19086:19089  i++ */\n      dup1\n      tag_177\n      dup2\n      tag_178\n      jump\t// in\n    tag_177:\n      swap2\n      pop\n      pop\n        /* \"contracts/SnipeFinanceMultisenders_flattened.sol\":19047:19272  for (uint256 i = 0; i < values.length; i++) {... */\n      jump(tag_160)\n    tag_161:\n      pop\n        /* \"contracts/SnipeFinanceMultisenders_flattened.sol\":18371:20484  function TOKENmultisender(//ICustomERC20 REPLACED WITH ERC20... */\n      pop\n      pop\n      pop\n      jump\t// out\n        /* \"contracts/SnipeFinanceMultisenders_flattened.sol\":19000:20478  if (authorizedusers[msg.sender]) {... */\n    tag_159:\n        /* \"contracts/SnipeFinanceMultisenders_flattened.sol\":19309:19319  msg.sender */\n      caller\n        /* \"contracts/SnipeFinanceMultisenders_flattened.sol\":19293:19320  authorizedusers[msg.sender] */\n      0x00\n      swap1\n      dup2\n      mstore\n        /* \"contracts/SnipeFinanceMultisenders_flattened.sol\":19293:19308  authorizedusers */\n      0x03\n        /* \"contracts/SnipeFinanceMultisenders_flattened.sol\":19293:19320  authorizedusers[msg.sender] */\n      0x20\n      mstore\n      0x40\n      swap1\n      keccak256\n      sload\n      0xff\n      and\n        /* \"contracts/SnipeFinanceMultisenders_flattened.sol\":19288:20478  if (!authorizedusers[msg.sender]) {... */\n      tag_205\n      jumpi\n        /* \"contracts/SnipeFinanceMultisenders_flattened.sol\":19378:19386  quantity */\n      sload(0x05)\n        /* \"contracts/SnipeFinanceMultisenders_flattened.sol\":19340:19352  tokenAddress */\n      0x04\n      dup1\n      sload\n        /* \"contracts/SnipeFinanceMultisenders_flattened.sol\":19340:19374  tokenAddress.balanceOf(msg.sender) */\n      mload(0x40)\n      shl(0xe0, 0x70a08231)\n      dup2\n      mstore\n      sub(shl(0xa0, 0x01), 0x01)\n        /* \"contracts/SnipeFinanceMultisenders_flattened.sol\":19340:19352  tokenAddress */\n      swap1\n      swap2\n      and\n      swap2\n        /* \"contracts/SnipeFinanceMultisenders_flattened.sol\":19340:19362  tokenAddress.balanceOf */\n      0x70a08231\n      swap2\n        /* \"contracts/SnipeFinanceMultisenders_flattened.sol\":19340:19374  tokenAddress.balanceOf(msg.sender) */\n      tag_181\n      swap2\n        /* \"contracts/SnipeFinanceMultisenders_flattened.sol\":19363:19373  msg.sender */\n      caller\n      swap2\n        /* \"contracts/SnipeFinanceMultisenders_flattened.sol\":19340:19374  tokenAddress.balanceOf(msg.sender) */\n      add\n      tag_71\n      jump\t// in\n    tag_181:\n      0x20\n      mload(0x40)\n      dup1\n      dup4\n      sub\n      dup2\n      dup7\n      gas\n      staticcall\n      iszero\n      dup1\n      iszero\n      tag_183\n      jumpi\n      returndatasize\n      0x00\n      dup1\n      returndatacopy\n      revert(0x00, returndatasize)\n    tag_183:\n      pop\n      pop\n      pop\n      pop\n      mload(0x40)\n      returndatasize\n      not(0x1f)\n      0x1f\n      dup3\n      add\n      and\n      dup3\n      add\n      dup1\n      0x40\n      mstore\n      pop\n      dup2\n      add\n      swap1\n      tag_184\n      swap2\n      swap1\n      tag_124\n      jump\t// in\n    tag_184:\n        /* \"contracts/SnipeFinanceMultisenders_flattened.sol\":19340:19386  tokenAddress.balanceOf(msg.sender) >= quantity */\n      lt\n        /* \"contracts/SnipeFinanceMultisenders_flattened.sol\":19336:20468  if (tokenAddress.balanceOf(msg.sender) >= quantity) {... */\n      tag_185\n      jumpi\n        /* \"contracts/SnipeFinanceMultisenders_flattened.sol\":19422:19432  msg.sender */\n      caller\n        /* \"contracts/SnipeFinanceMultisenders_flattened.sol\":19406:19433  authorizedusers[msg.sender] */\n      0x00\n      swap1\n      dup2\n      mstore\n        /* \"contracts/SnipeFinanceMultisenders_flattened.sol\":19406:19421  authorizedusers */\n      0x03\n        /* \"contracts/SnipeFinanceMultisenders_flattened.sol\":19406:19433  authorizedusers[msg.sender] */\n      0x20\n      mstore\n      0x40\n      dup2\n      keccak256\n        /* \"contracts/SnipeFinanceMultisenders_flattened.sol\":19406:19440  authorizedusers[msg.sender] = true */\n      dup1\n      sload\n      not(0xff)\n      and\n        /* \"contracts/SnipeFinanceMultisenders_flattened.sol\":19436:19440  true */\n      0x01\n        /* \"contracts/SnipeFinanceMultisenders_flattened.sol\":19406:19440  authorizedusers[msg.sender] = true */\n      or\n      swap1\n      sstore\n        /* \"contracts/SnipeFinanceMultisenders_flattened.sol\":19458:19813  for (uint256 i = 0; i < values.length; i++) {... */\n    tag_186:\n        /* \"contracts/SnipeFinanceMultisenders_flattened.sol\":19482:19488  values */\n      dup2\n        /* \"contracts/SnipeFinanceMultisenders_flattened.sol\":19482:19495  values.length */\n      mload\n        /* \"contracts/SnipeFinanceMultisenders_flattened.sol\":19478:19479  i */\n      dup2\n        /* \"contracts/SnipeFinanceMultisenders_flattened.sol\":19478:19495  i < values.length */\n      lt\n        /* \"contracts/SnipeFinanceMultisenders_flattened.sol\":19458:19813  for (uint256 i = 0; i < values.length; i++) {... */\n      iszero\n      tag_161\n      jumpi\n        /* \"contracts/SnipeFinanceMultisenders_flattened.sol\":19557:19562  token */\n      dup4\n      sub(shl(0xa0, 0x01), 0x01)\n        /* \"contracts/SnipeFinanceMultisenders_flattened.sol\":19557:19575  token.transferFrom */\n      and\n      0x23b872dd\n        /* \"contracts/SnipeFinanceMultisenders_flattened.sol\":19605:19615  msg.sender */\n      caller\n        /* \"contracts/SnipeFinanceMultisenders_flattened.sol\":19645:19655  recipients */\n      dup6\n        /* \"contracts/SnipeFinanceMultisenders_flattened.sol\":19656:19657  i */\n      dup5\n        /* \"contracts/SnipeFinanceMultisenders_flattened.sol\":19645:19658  recipients[i] */\n      dup2\n      mload\n      dup2\n      lt\n      tag_190\n      jumpi\n      tag_190\n      tag_165\n      jump\t// in\n    tag_190:\n      0x20\n      mul\n      0x20\n      add\n      add\n      mload\n        /* \"contracts/SnipeFinanceMultisenders_flattened.sol\":19688:19694  values */\n      dup6\n        /* \"contracts/SnipeFinanceMultisenders_flattened.sol\":19695:19696  i */\n      dup6\n        /* \"contracts/SnipeFinanceMultisenders_flattened.sol\":19688:19697  values[i] */\n      dup2\n      mload\n      dup2\n      lt\n      tag_192\n      jumpi\n      tag_192\n      tag_165\n      jump\t// in\n    tag_192:\n      0x20\n      mul\n      0x20\n      add\n      add\n      mload\n        /* \"contracts/SnipeFinanceMultisenders_flattened.sol\":19557:19723  token.transferFrom(... */\n      mload(0x40)\n      dup5\n      0xffffffff\n      and\n      0xe0\n      shl\n      dup2\n      mstore\n      0x04\n      add\n      tag_193\n      swap4\n      swap3\n      swap2\n      swap1\n      tag_169\n      jump\t// in\n    tag_193:\n      0x20\n      mload(0x40)\n      dup1\n      dup4\n      sub\n      dup2\n      0x00\n      dup8\n      gas\n      call\n      iszero\n      dup1\n      iszero\n      tag_195\n      jumpi\n      returndatasize\n      0x00\n      dup1\n      returndatacopy\n      revert(0x00, returndatasize)\n    tag_195:\n      pop\n      pop\n      pop\n      pop\n      mload(0x40)\n      returndatasize\n      not(0x1f)\n      0x1f\n      dup3\n      add\n      and\n      dup3\n      add\n      dup1\n      0x40\n      mstore\n      pop\n      dup2\n      add\n      swap1\n      tag_196\n      swap2\n      swap1\n      tag_173\n      jump\t// in\n    tag_196:\n        /* \"contracts/SnipeFinanceMultisenders_flattened.sol\":19524:19794  require(... */\n      tag_197\n      jumpi\n      mload(0x40)\n      shl(0xe5, 0x461bcd)\n      dup2\n      mstore\n      0x04\n      add\n      tag_129\n      swap1\n      tag_176\n      jump\t// in\n    tag_197:\n        /* \"contracts/SnipeFinanceMultisenders_flattened.sol\":19497:19500  i++ */\n      dup1\n      tag_199\n      dup2\n      tag_178\n      jump\t// in\n    tag_199:\n      swap2\n      pop\n      pop\n        /* \"contracts/SnipeFinanceMultisenders_flattened.sol\":19458:19813  for (uint256 i = 0; i < values.length; i++) {... */\n      jump(tag_186)\n        /* \"contracts/SnipeFinanceMultisenders_flattened.sol\":19336:20468  if (tokenAddress.balanceOf(msg.sender) >= quantity) {... */\n    tag_185:\n        /* \"contracts/SnipeFinanceMultisenders_flattened.sol\":19874:19882  quantity */\n      sload(0x05)\n        /* \"contracts/SnipeFinanceMultisenders_flattened.sol\":19837:19849  tokenAddress */\n      0x04\n      dup1\n      sload\n        /* \"contracts/SnipeFinanceMultisenders_flattened.sol\":19837:19871  tokenAddress.balanceOf(msg.sender) */\n      mload(0x40)\n      shl(0xe0, 0x70a08231)\n      dup2\n      mstore\n      sub(shl(0xa0, 0x01), 0x01)\n        /* \"contracts/SnipeFinanceMultisenders_flattened.sol\":19837:19849  tokenAddress */\n      swap1\n      swap2\n      and\n      swap2\n        /* \"contracts/SnipeFinanceMultisenders_flattened.sol\":19837:19859  tokenAddress.balanceOf */\n      0x70a08231\n      swap2\n        /* \"contracts/SnipeFinanceMultisenders_flattened.sol\":19837:19871  tokenAddress.balanceOf(msg.sender) */\n      tag_201\n      swap2\n        /* \"contracts/SnipeFinanceMultisenders_flattened.sol\":19860:19870  msg.sender */\n      caller\n      swap2\n        /* \"contracts/SnipeFinanceMultisenders_flattened.sol\":19837:19871  tokenAddress.balanceOf(msg.sender) */\n      add\n      tag_71\n      jump\t// in\n    tag_201:\n      0x20\n      mload(0x40)\n      dup1\n      dup4\n      sub\n      dup2\n      dup7\n      gas\n      staticcall\n      iszero\n      dup1\n      iszero\n      tag_203\n      jumpi\n      returndatasize\n      0x00\n      dup1\n      returndatacopy\n      revert(0x00, returndatasize)\n    tag_203:\n      pop\n      pop\n      pop\n      pop\n      mload(0x40)\n      returndatasize\n      not(0x1f)\n      0x1f\n      dup3\n      add\n      and\n      dup3\n      add\n      dup1\n      0x40\n      mstore\n      pop\n      dup2\n      add\n      swap1\n      tag_204\n      swap2\n      swap1\n      tag_124\n      jump\t// in\n    tag_204:\n        /* \"contracts/SnipeFinanceMultisenders_flattened.sol\":19837:19882  tokenAddress.balanceOf(msg.sender) < quantity */\n      lt\n        /* \"contracts/SnipeFinanceMultisenders_flattened.sol\":19833:20468  if (tokenAddress.balanceOf(msg.sender) < quantity) {... */\n      iszero\n      tag_205\n      jumpi\n        /* \"contracts/SnipeFinanceMultisenders_flattened.sol\":19944:19947  fee */\n      sload(0x01)\n        /* \"contracts/SnipeFinanceMultisenders_flattened.sol\":19931:19940  msg.value */\n      callvalue\n        /* \"contracts/SnipeFinanceMultisenders_flattened.sol\":19931:19947  msg.value == fee */\n      eq\n        /* \"contracts/SnipeFinanceMultisenders_flattened.sol\":19902:20032  require(... */\n      tag_206\n      jumpi\n      mload(0x40)\n      shl(0xe5, 0x461bcd)\n      dup2\n      mstore\n      0x04\n      add\n      tag_129\n      swap1\n      tag_208\n      jump\t// in\n    tag_206:\n        /* \"contracts/SnipeFinanceMultisenders_flattened.sol\":20058:20066  receiver */\n      sload(0x02)\n      0x01\n        /* \"contracts/SnipeFinanceMultisenders_flattened.sol\":20077:20080  fee */\n      sload\n        /* \"contracts/SnipeFinanceMultisenders_flattened.sol\":20050:20081  payable(receiver).transfer(fee) */\n      mload(0x40)\n      sub(shl(0xa0, 0x01), 0x01)\n        /* \"contracts/SnipeFinanceMultisenders_flattened.sol\":20058:20066  receiver */\n      swap1\n      swap3\n      and\n      swap2\n        /* \"contracts/SnipeFinanceMultisenders_flattened.sol\":20050:20081  payable(receiver).transfer(fee) */\n      dup2\n      iszero\n      0x08fc\n      mul\n      swap2\n        /* \"contracts/SnipeFinanceMultisenders_flattened.sol\":20077:20080  fee */\n      swap1\n        /* \"contracts/SnipeFinanceMultisenders_flattened.sol\":20058:20066  receiver */\n      0x00\n        /* \"contracts/SnipeFinanceMultisenders_flattened.sol\":20050:20081  payable(receiver).transfer(fee) */\n      dup2\n        /* \"contracts/SnipeFinanceMultisenders_flattened.sol\":20058:20066  receiver */\n      dup2\n        /* \"contracts/SnipeFinanceMultisenders_flattened.sol\":20050:20081  payable(receiver).transfer(fee) */\n      dup2\n        /* \"contracts/SnipeFinanceMultisenders_flattened.sol\":20077:20080  fee */\n      dup6\n        /* \"contracts/SnipeFinanceMultisenders_flattened.sol\":20058:20066  receiver */\n      dup9\n        /* \"contracts/SnipeFinanceMultisenders_flattened.sol\":20050:20081  payable(receiver).transfer(fee) */\n      dup9\n      call\n      swap4\n      pop\n      pop\n      pop\n      pop\n      iszero\n      dup1\n      iszero\n      tag_210\n      jumpi\n      returndatasize\n      0x00\n      dup1\n      returndatacopy\n      revert(0x00, returndatasize)\n    tag_210:\n      pop\n        /* \"contracts/SnipeFinanceMultisenders_flattened.sol\":20104:20113  uint256 i */\n      0x00\n        /* \"contracts/SnipeFinanceMultisenders_flattened.sol\":20099:20454  for (uint256 i = 0; i < values.length; i++) {... */\n    tag_211:\n        /* \"contracts/SnipeFinanceMultisenders_flattened.sol\":20123:20129  values */\n      dup2\n        /* \"contracts/SnipeFinanceMultisenders_flattened.sol\":20123:20136  values.length */\n      mload\n        /* \"contracts/SnipeFinanceMultisenders_flattened.sol\":20119:20120  i */\n      dup2\n        /* \"contracts/SnipeFinanceMultisenders_flattened.sol\":20119:20136  i < values.length */\n      lt\n        /* \"contracts/SnipeFinanceMultisenders_flattened.sol\":20099:20454  for (uint256 i = 0; i < values.length; i++) {... */\n      iszero\n      tag_161\n      jumpi\n        /* \"contracts/SnipeFinanceMultisenders_flattened.sol\":20198:20203  token */\n      dup4\n      sub(shl(0xa0, 0x01), 0x01)\n        /* \"contracts/SnipeFinanceMultisenders_flattened.sol\":20198:20216  token.transferFrom */\n      and\n      0x23b872dd\n        /* \"contracts/SnipeFinanceMultisenders_flattened.sol\":20246:20256  msg.sender */\n      caller\n        /* \"contracts/SnipeFinanceMultisenders_flattened.sol\":20286:20296  recipients */\n      dup6\n        /* \"contracts/SnipeFinanceMultisenders_flattened.sol\":20297:20298  i */\n      dup5\n        /* \"contracts/SnipeFinanceMultisenders_flattened.sol\":20286:20299  recipients[i] */\n      dup2\n      mload\n      dup2\n      lt\n      tag_215\n      jumpi\n      tag_215\n      tag_165\n      jump\t// in\n    tag_215:\n      0x20\n      mul\n      0x20\n      add\n      add\n      mload\n        /* \"contracts/SnipeFinanceMultisenders_flattened.sol\":20329:20335  values */\n      dup6\n        /* \"contracts/SnipeFinanceMultisenders_flattened.sol\":20336:20337  i */\n      dup6\n        /* \"contracts/SnipeFinanceMultisenders_flattened.sol\":20329:20338  values[i] */\n      dup2\n      mload\n      dup2\n      lt\n      tag_217\n      jumpi\n      tag_217\n      tag_165\n      jump\t// in\n    tag_217:\n      0x20\n      mul\n      0x20\n      add\n      add\n      mload\n        /* \"contracts/SnipeFinanceMultisenders_flattened.sol\":20198:20364  token.transferFrom(... */\n      mload(0x40)\n      dup5\n      0xffffffff\n      and\n      0xe0\n      shl\n      dup2\n      mstore\n      0x04\n      add\n      tag_218\n      swap4\n      swap3\n      swap2\n      swap1\n      tag_169\n      jump\t// in\n    tag_218:\n      0x20\n      mload(0x40)\n      dup1\n      dup4\n      sub\n      dup2\n      0x00\n      dup8\n      gas\n      call\n      iszero\n      dup1\n      iszero\n      tag_220\n      jumpi\n      returndatasize\n      0x00\n      dup1\n      returndatacopy\n      revert(0x00, returndatasize)\n    tag_220:\n      pop\n      pop\n      pop\n      pop\n      mload(0x40)\n      returndatasize\n      not(0x1f)\n      0x1f\n      dup3\n      add\n      and\n      dup3\n      add\n      dup1\n      0x40\n      mstore\n      pop\n      dup2\n      add\n      swap1\n      tag_221\n      swap2\n      swap1\n      tag_173\n      jump\t// in\n    tag_221:\n        /* \"contracts/SnipeFinanceMultisenders_flattened.sol\":20165:20435  require(... */\n      tag_222\n      jumpi\n      mload(0x40)\n      shl(0xe5, 0x461bcd)\n      dup2\n      mstore\n      0x04\n      add\n      tag_129\n      swap1\n      tag_176\n      jump\t// in\n    tag_222:\n        /* \"contracts/SnipeFinanceMultisenders_flattened.sol\":20138:20141  i++ */\n      dup1\n      tag_224\n      dup2\n      tag_178\n      jump\t// in\n    tag_224:\n      swap2\n      pop\n      pop\n        /* \"contracts/SnipeFinanceMultisenders_flattened.sol\":20099:20454  for (uint256 i = 0; i < values.length; i++) {... */\n      jump(tag_211)\n        /* \"contracts/SnipeFinanceMultisenders_flattened.sol\":19833:20468  if (tokenAddress.balanceOf(msg.sender) < quantity) {... */\n    tag_205:\n        /* \"contracts/SnipeFinanceMultisenders_flattened.sol\":18371:20484  function TOKENmultisender(//ICustomERC20 REPLACED WITH ERC20... */\n      pop\n      pop\n      pop\n      jump\t// out\n        /* \"contracts/SnipeFinanceMultisenders_flattened.sol\":22021:22275  function withdrawToken(IERC20 token, uint256 amount) public onlyOwner {... */\n    tag_84:\n        /* \"contracts/SnipeFinanceMultisenders_flattened.sol\":11338:11351  _checkOwner() */\n      tag_226\n        /* \"contracts/SnipeFinanceMultisenders_flattened.sol\":11338:11349  _checkOwner */\n      tag_114\n        /* \"contracts/SnipeFinanceMultisenders_flattened.sol\":11338:11351  _checkOwner() */\n      jump\t// in\n    tag_226:\n        /* \"contracts/SnipeFinanceMultisenders_flattened.sol\":22122:22152  token.balanceOf(address(this)) */\n      mload(0x40)\n      shl(0xe0, 0x70a08231)\n      dup2\n      mstore\n        /* \"contracts/SnipeFinanceMultisenders_flattened.sol\":22156:22162  amount */\n      dup2\n      swap1\n      sub(shl(0xa0, 0x01), 0x01)\n        /* \"contracts/SnipeFinanceMultisenders_flattened.sol\":22122:22137  token.balanceOf */\n      dup5\n      and\n      swap1\n      0x70a08231\n      swap1\n        /* \"contracts/SnipeFinanceMultisenders_flattened.sol\":22122:22152  token.balanceOf(address(this)) */\n      tag_228\n      swap1\n        /* \"contracts/SnipeFinanceMultisenders_flattened.sol\":22146:22150  this */\n      address\n      swap1\n        /* \"contracts/SnipeFinanceMultisenders_flattened.sol\":22122:22152  token.balanceOf(address(this)) */\n      0x04\n      add\n      tag_71\n      jump\t// in\n    tag_228:\n      0x20\n      mload(0x40)\n      dup1\n      dup4\n      sub\n      dup2\n      dup7\n      gas\n      staticcall\n      iszero\n      dup1\n      iszero\n      tag_230\n      jumpi\n      returndatasize\n      0x00\n      dup1\n      returndatacopy\n      revert(0x00, returndatasize)\n    tag_230:\n      pop\n      pop\n      pop\n      pop\n      mload(0x40)\n      returndatasize\n      not(0x1f)\n      0x1f\n      dup3\n      add\n      and\n      dup3\n      add\n      dup1\n      0x40\n      mstore\n      pop\n      dup2\n      add\n      swap1\n      tag_231\n      swap2\n      swap1\n      tag_124\n      jump\t// in\n    tag_231:\n        /* \"contracts/SnipeFinanceMultisenders_flattened.sol\":22122:22162  token.balanceOf(address(this)) >= amount */\n      lt\n      iszero\n        /* \"contracts/SnipeFinanceMultisenders_flattened.sol\":22101:22224  require(... */\n      tag_232\n      jumpi\n      mload(0x40)\n      shl(0xe5, 0x461bcd)\n      dup2\n      mstore\n        /* \"#utility.yul\":9593:9595   */\n      0x20\n        /* \"contracts/SnipeFinanceMultisenders_flattened.sol\":22101:22224  require(... */\n      0x04\n      dup3\n      add\n        /* \"#utility.yul\":9575:9596   */\n      mstore\n        /* \"#utility.yul\":9632:9634   */\n      0x24\n        /* \"#utility.yul\":9612:9630   */\n      dup1\n      dup3\n      add\n        /* \"#utility.yul\":9605:9635   */\n      mstore\n        /* \"#utility.yul\":9671:9705   */\n      0x636f6e747261637420646f65736e2774206861766520656e6f75676820746f6b\n        /* \"#utility.yul\":9651:9669   */\n      0x44\n      dup3\n      add\n        /* \"#utility.yul\":9644:9706   */\n      mstore\n      shl(0xe0, 0x656e2773)\n        /* \"#utility.yul\":9722:9740   */\n      0x64\n      dup3\n      add\n        /* \"#utility.yul\":9715:9749   */\n      mstore\n        /* \"#utility.yul\":9766:9785   */\n      0x84\n      add\n        /* \"contracts/SnipeFinanceMultisenders_flattened.sol\":22101:22224  require(... */\n      tag_129\n        /* \"#utility.yul\":9391:9791   */\n      jump\n        /* \"contracts/SnipeFinanceMultisenders_flattened.sol\":22101:22224  require(... */\n    tag_232:\n        /* \"contracts/SnipeFinanceMultisenders_flattened.sol\":22234:22268  token.transfer(msg.sender, amount) */\n      mload(0x40)\n      shl(0xe0, 0xa9059cbb)\n      dup2\n      mstore\n        /* \"contracts/SnipeFinanceMultisenders_flattened.sol\":22249:22259  msg.sender */\n      caller\n        /* \"contracts/SnipeFinanceMultisenders_flattened.sol\":22234:22268  token.transfer(msg.sender, amount) */\n      0x04\n      dup3\n      add\n        /* \"#utility.yul\":9970:10021   */\n      mstore\n        /* \"#utility.yul\":10037:10055   */\n      0x24\n      dup2\n      add\n        /* \"#utility.yul\":10030:10064   */\n      dup3\n      swap1\n      mstore\n      sub(shl(0xa0, 0x01), 0x01)\n        /* \"contracts/SnipeFinanceMultisenders_flattened.sol\":22234:22248  token.transfer */\n      dup4\n      and\n      swap1\n      0xa9059cbb\n      swap1\n        /* \"#utility.yul\":9943:9961   */\n      0x44\n      add\n        /* \"contracts/SnipeFinanceMultisenders_flattened.sol\":22234:22268  token.transfer(msg.sender, amount) */\n      0x20\n      mload(0x40)\n      dup1\n      dup4\n      sub\n      dup2\n      0x00\n      dup8\n      gas\n      call\n      iszero\n      dup1\n      iszero\n      tag_238\n      jumpi\n      returndatasize\n      0x00\n      dup1\n      returndatacopy\n      revert(0x00, returndatasize)\n    tag_238:\n      pop\n      pop\n      pop\n      pop\n      mload(0x40)\n      returndatasize\n      not(0x1f)\n      0x1f\n      dup3\n      add\n      and\n      dup3\n      add\n      dup1\n      0x40\n      mstore\n      pop\n      dup2\n      add\n      swap1\n      tag_205\n      swap2\n      swap1\n      tag_173\n      jump\t// in\n        /* \"contracts/SnipeFinanceMultisenders_flattened.sol\":16693:18365  function coinMultisender(... */\n    tag_93:\n        /* \"contracts/SnipeFinanceMultisenders_flattened.sol\":16616:16628  tokenAddress */\n      and(sub(shl(0xa0, 0x01), 0x01), sload(0x04))\n        /* \"contracts/SnipeFinanceMultisenders_flattened.sol\":16600:16669  require(address(tokenAddress) != address(0), \"token holding invalid\") */\n      tag_242\n      jumpi\n      mload(0x40)\n      shl(0xe5, 0x461bcd)\n      dup2\n      mstore\n      0x04\n      add\n      tag_129\n      swap1\n      tag_149\n      jump\t// in\n    tag_242:\n        /* \"contracts/SnipeFinanceMultisenders_flattened.sol\":16888:16894  values */\n      dup1\n        /* \"contracts/SnipeFinanceMultisenders_flattened.sol\":16888:16901  values.length */\n      mload\n        /* \"contracts/SnipeFinanceMultisenders_flattened.sol\":16867:16877  recipients */\n      dup3\n        /* \"contracts/SnipeFinanceMultisenders_flattened.sol\":16867:16884  recipients.length */\n      mload\n        /* \"contracts/SnipeFinanceMultisenders_flattened.sol\":16867:16901  recipients.length == values.length */\n      eq\n        /* \"contracts/SnipeFinanceMultisenders_flattened.sol\":16859:16919  require(recipients.length == values.length, \"invalid input\") */\n      tag_245\n      jumpi\n      mload(0x40)\n      shl(0xe5, 0x461bcd)\n      dup2\n      mstore\n      0x04\n      add\n      tag_129\n      swap1\n      tag_158\n      jump\t// in\n    tag_245:\n        /* \"contracts/SnipeFinanceMultisenders_flattened.sol\":16929:16948  uint256 totalValues */\n      0x00\n        /* \"contracts/SnipeFinanceMultisenders_flattened.sol\":16963:16972  uint256 i */\n      dup1\n        /* \"contracts/SnipeFinanceMultisenders_flattened.sol\":16958:17047  for (uint256 i; i < values.length; i++) {... */\n    tag_247:\n        /* \"contracts/SnipeFinanceMultisenders_flattened.sol\":16978:16984  values */\n      dup3\n        /* \"contracts/SnipeFinanceMultisenders_flattened.sol\":16978:16991  values.length */\n      mload\n        /* \"contracts/SnipeFinanceMultisenders_flattened.sol\":16974:16975  i */\n      dup2\n        /* \"contracts/SnipeFinanceMultisenders_flattened.sol\":16974:16991  i < values.length */\n      lt\n        /* \"contracts/SnipeFinanceMultisenders_flattened.sol\":16958:17047  for (uint256 i; i < values.length; i++) {... */\n      iszero\n      tag_248\n      jumpi\n        /* \"contracts/SnipeFinanceMultisenders_flattened.sol\":17027:17033  values */\n      dup3\n        /* \"contracts/SnipeFinanceMultisenders_flattened.sol\":17034:17035  i */\n      dup2\n        /* \"contracts/SnipeFinanceMultisenders_flattened.sol\":17027:17036  values[i] */\n      dup2\n      mload\n      dup2\n      lt\n      tag_251\n      jumpi\n      tag_251\n      tag_165\n      jump\t// in\n    tag_251:\n      0x20\n      mul\n      0x20\n      add\n      add\n      mload\n        /* \"contracts/SnipeFinanceMultisenders_flattened.sol\":17012:17036  totalValues += values[i] */\n      dup3\n      tag_252\n      swap2\n      swap1\n      tag_253\n      jump\t// in\n    tag_252:\n      swap2\n      pop\n        /* \"contracts/SnipeFinanceMultisenders_flattened.sol\":16993:16996  i++ */\n      dup1\n      tag_254\n      dup2\n      tag_178\n      jump\t// in\n    tag_254:\n      swap2\n      pop\n      pop\n        /* \"contracts/SnipeFinanceMultisenders_flattened.sol\":16958:17047  for (uint256 i; i < values.length; i++) {... */\n      jump(tag_247)\n    tag_248:\n      pop\n        /* \"contracts/SnipeFinanceMultisenders_flattened.sol\":17077:17087  msg.sender */\n      caller\n        /* \"contracts/SnipeFinanceMultisenders_flattened.sol\":17061:17088  authorizedusers[msg.sender] */\n      0x00\n      swap1\n      dup2\n      mstore\n        /* \"contracts/SnipeFinanceMultisenders_flattened.sol\":17061:17076  authorizedusers */\n      0x03\n        /* \"contracts/SnipeFinanceMultisenders_flattened.sol\":17061:17088  authorizedusers[msg.sender] */\n      0x20\n      mstore\n      0x40\n      swap1\n      keccak256\n      sload\n      0xff\n      and\n        /* \"contracts/SnipeFinanceMultisenders_flattened.sol\":17057:18359  if (authorizedusers[msg.sender]) {... */\n      iszero\n      tag_255\n      jumpi\n        /* \"contracts/SnipeFinanceMultisenders_flattened.sol\":17142:17153  totalValues */\n      dup1\n        /* \"contracts/SnipeFinanceMultisenders_flattened.sol\":17129:17138  msg.value */\n      callvalue\n        /* \"contracts/SnipeFinanceMultisenders_flattened.sol\":17129:17153  msg.value == totalValues */\n      eq\n        /* \"contracts/SnipeFinanceMultisenders_flattened.sol\":17104:17229  require(... */\n      tag_256\n      jumpi\n      mload(0x40)\n      shl(0xe5, 0x461bcd)\n      dup2\n      mstore\n        /* \"#utility.yul\":10410:10412   */\n      0x20\n        /* \"contracts/SnipeFinanceMultisenders_flattened.sol\":17104:17229  require(... */\n      0x04\n      dup3\n      add\n        /* \"#utility.yul\":10392:10413   */\n      mstore\n        /* \"#utility.yul\":10449:10451   */\n      0x2a\n        /* \"#utility.yul\":10429:10447   */\n      0x24\n      dup3\n      add\n        /* \"#utility.yul\":10422:10452   */\n      mstore\n        /* \"#utility.yul\":10488:10522   */\n      0x7061792074686520657861637420616d6f756e7420746f20636f766572206469\n        /* \"#utility.yul\":10468:10486   */\n      0x44\n      dup3\n      add\n        /* \"#utility.yul\":10461:10523   */\n      mstore\n      shl(0xb1, 0x39ba3934b13aba34b7b7)\n        /* \"#utility.yul\":10539:10557   */\n      0x64\n      dup3\n      add\n        /* \"#utility.yul\":10532:10572   */\n      mstore\n        /* \"#utility.yul\":10589:10608   */\n      0x84\n      add\n        /* \"contracts/SnipeFinanceMultisenders_flattened.sol\":17104:17229  require(... */\n      tag_129\n        /* \"#utility.yul\":10208:10614   */\n      jump\n        /* \"contracts/SnipeFinanceMultisenders_flattened.sol\":17104:17229  require(... */\n    tag_256:\n        /* \"contracts/SnipeFinanceMultisenders_flattened.sol\":17248:17257  uint256 i */\n      0x00\n        /* \"contracts/SnipeFinanceMultisenders_flattened.sol\":17243:17366  for (uint256 i = 0; i < recipients.length; i++) {... */\n    tag_259:\n        /* \"contracts/SnipeFinanceMultisenders_flattened.sol\":17267:17277  recipients */\n      dup4\n        /* \"contracts/SnipeFinanceMultisenders_flattened.sol\":17267:17284  recipients.length */\n      mload\n        /* \"contracts/SnipeFinanceMultisenders_flattened.sol\":17263:17264  i */\n      dup2\n        /* \"contracts/SnipeFinanceMultisenders_flattened.sol\":17263:17284  i < recipients.length */\n      lt\n        /* \"contracts/SnipeFinanceMultisenders_flattened.sol\":17243:17366  for (uint256 i = 0; i < recipients.length; i++) {... */\n      iszero\n      tag_161\n      jumpi\n        /* \"contracts/SnipeFinanceMultisenders_flattened.sol\":17317:17327  recipients */\n      dup4\n        /* \"contracts/SnipeFinanceMultisenders_flattened.sol\":17328:17329  i */\n      dup2\n        /* \"contracts/SnipeFinanceMultisenders_flattened.sol\":17317:17330  recipients[i] */\n      dup2\n      mload\n      dup2\n      lt\n      tag_263\n      jumpi\n      tag_263\n      tag_165\n      jump\t// in\n    tag_263:\n      0x20\n      mul\n      0x20\n      add\n      add\n      mload\n      sub(shl(0xa0, 0x01), 0x01)\n        /* \"contracts/SnipeFinanceMultisenders_flattened.sol\":17309:17340  payable(recipients[i]).transfer */\n      and\n        /* \"contracts/SnipeFinanceMultisenders_flattened.sol\":17309:17351  payable(recipients[i]).transfer(values[i]) */\n      0x08fc\n        /* \"contracts/SnipeFinanceMultisenders_flattened.sol\":17341:17347  values */\n      dup5\n        /* \"contracts/SnipeFinanceMultisenders_flattened.sol\":17348:17349  i */\n      dup4\n        /* \"contracts/SnipeFinanceMultisenders_flattened.sol\":17341:17350  values[i] */\n      dup2\n      mload\n      dup2\n      lt\n      tag_265\n      jumpi\n      tag_265\n      tag_165\n      jump\t// in\n    tag_265:\n      0x20\n      mul\n      0x20\n      add\n      add\n      mload\n        /* \"contracts/SnipeFinanceMultisenders_flattened.sol\":17309:17351  payable(recipients[i]).transfer(values[i]) */\n      swap1\n      dup2\n      iszero\n      mul\n      swap1\n      mload(0x40)\n      0x00\n      mload(0x40)\n      dup1\n      dup4\n      sub\n      dup2\n      dup6\n      dup9\n      dup9\n      call\n      swap4\n      pop\n      pop\n      pop\n      pop\n      iszero\n      dup1\n      iszero\n      tag_267\n      jumpi\n      returndatasize\n      0x00\n      dup1\n      returndatacopy\n      revert(0x00, returndatasize)\n    tag_267:\n      pop\n        /* \"contracts/SnipeFinanceMultisenders_flattened.sol\":17286:17289  i++ */\n      dup1\n      tag_268\n      dup2\n      tag_178\n      jump\t// in\n    tag_268:\n      swap2\n      pop\n      pop\n        /* \"contracts/SnipeFinanceMultisenders_flattened.sol\":17243:17366  for (uint256 i = 0; i < recipients.length; i++) {... */\n      jump(tag_259)\n        /* \"contracts/SnipeFinanceMultisenders_flattened.sol\":17057:18359  if (authorizedusers[msg.sender]) {... */\n    tag_255:\n        /* \"contracts/SnipeFinanceMultisenders_flattened.sol\":17403:17413  msg.sender */\n      caller\n        /* \"contracts/SnipeFinanceMultisenders_flattened.sol\":17387:17414  authorizedusers[msg.sender] */\n      0x00\n      swap1\n      dup2\n      mstore\n        /* \"contracts/SnipeFinanceMultisenders_flattened.sol\":17387:17402  authorizedusers */\n      0x03\n        /* \"contracts/SnipeFinanceMultisenders_flattened.sol\":17387:17414  authorizedusers[msg.sender] */\n      0x20\n      mstore\n      0x40\n      swap1\n      keccak256\n      sload\n      0xff\n      and\n        /* \"contracts/SnipeFinanceMultisenders_flattened.sol\":17382:18359  if (!authorizedusers[msg.sender]) {... */\n      tag_205\n      jumpi\n        /* \"contracts/SnipeFinanceMultisenders_flattened.sol\":17472:17480  quantity */\n      sload(0x05)\n        /* \"contracts/SnipeFinanceMultisenders_flattened.sol\":17434:17446  tokenAddress */\n      0x04\n      dup1\n      sload\n        /* \"contracts/SnipeFinanceMultisenders_flattened.sol\":17434:17468  tokenAddress.balanceOf(msg.sender) */\n      mload(0x40)\n      shl(0xe0, 0x70a08231)\n      dup2\n      mstore\n      sub(shl(0xa0, 0x01), 0x01)\n        /* \"contracts/SnipeFinanceMultisenders_flattened.sol\":17434:17446  tokenAddress */\n      swap1\n      swap2\n      and\n      swap2\n        /* \"contracts/SnipeFinanceMultisenders_flattened.sol\":17434:17456  tokenAddress.balanceOf */\n      0x70a08231\n      swap2\n        /* \"contracts/SnipeFinanceMultisenders_flattened.sol\":17434:17468  tokenAddress.balanceOf(msg.sender) */\n      tag_271\n      swap2\n        /* \"contracts/SnipeFinanceMultisenders_flattened.sol\":17457:17467  msg.sender */\n      caller\n      swap2\n        /* \"contracts/SnipeFinanceMultisenders_flattened.sol\":17434:17468  tokenAddress.balanceOf(msg.sender) */\n      add\n      tag_71\n      jump\t// in\n    tag_271:\n      0x20\n      mload(0x40)\n      dup1\n      dup4\n      sub\n      dup2\n      dup7\n      gas\n      staticcall\n      iszero\n      dup1\n      iszero\n      tag_273\n      jumpi\n      returndatasize\n      0x00\n      dup1\n      returndatacopy\n      revert(0x00, returndatasize)\n    tag_273:\n      pop\n      pop\n      pop\n      pop\n      mload(0x40)\n      returndatasize\n      not(0x1f)\n      0x1f\n      dup3\n      add\n      and\n      dup3\n      add\n      dup1\n      0x40\n      mstore\n      pop\n      dup2\n      add\n      swap1\n      tag_274\n      swap2\n      swap1\n      tag_124\n      jump\t// in\n    tag_274:\n        /* \"contracts/SnipeFinanceMultisenders_flattened.sol\":17434:17480  tokenAddress.balanceOf(msg.sender) >= quantity */\n      lt\n        /* \"contracts/SnipeFinanceMultisenders_flattened.sol\":17430:18349  if (tokenAddress.balanceOf(msg.sender) >= quantity) {... */\n      tag_275\n      jumpi\n        /* \"contracts/SnipeFinanceMultisenders_flattened.sol\":17516:17526  msg.sender */\n      caller\n        /* \"contracts/SnipeFinanceMultisenders_flattened.sol\":17500:17527  authorizedusers[msg.sender] */\n      0x00\n      swap1\n      dup2\n      mstore\n        /* \"contracts/SnipeFinanceMultisenders_flattened.sol\":17500:17515  authorizedusers */\n      0x03\n        /* \"contracts/SnipeFinanceMultisenders_flattened.sol\":17500:17527  authorizedusers[msg.sender] */\n      0x20\n      mstore\n      0x40\n      swap1\n      keccak256\n        /* \"contracts/SnipeFinanceMultisenders_flattened.sol\":17500:17534  authorizedusers[msg.sender] = true */\n      dup1\n      sload\n      not(0xff)\n      and\n        /* \"contracts/SnipeFinanceMultisenders_flattened.sol\":17530:17534  true */\n      0x01\n        /* \"contracts/SnipeFinanceMultisenders_flattened.sol\":17500:17534  authorizedusers[msg.sender] = true */\n      or\n      swap1\n      sstore\n        /* \"contracts/SnipeFinanceMultisenders_flattened.sol\":17581:17590  msg.value */\n      callvalue\n        /* \"contracts/SnipeFinanceMultisenders_flattened.sol\":17581:17605  msg.value == totalValues */\n      dup2\n      eq\n        /* \"contracts/SnipeFinanceMultisenders_flattened.sol\":17552:17702  require(... */\n      tag_276\n      jumpi\n      mload(0x40)\n      shl(0xe5, 0x461bcd)\n      dup2\n      mstore\n        /* \"#utility.yul\":10821:10823   */\n      0x20\n        /* \"contracts/SnipeFinanceMultisenders_flattened.sol\":17552:17702  require(... */\n      0x04\n      dup3\n      add\n        /* \"#utility.yul\":10803:10824   */\n      mstore\n        /* \"#utility.yul\":10860:10862   */\n      0x37\n        /* \"#utility.yul\":10840:10858   */\n      0x24\n      dup3\n      add\n        /* \"#utility.yul\":10833:10863   */\n      mstore\n        /* \"#utility.yul\":10899:10933   */\n      0x686f6c64696e67207175616e74697479207472756520627574206d73672e7661\n        /* \"#utility.yul\":10879:10897   */\n      0x44\n      dup3\n      add\n        /* \"#utility.yul\":10872:10934   */\n      mstore\n      shl(0x4a, 0x1b1d59481d5b98d95c9d185a5b881c185e48195e1858dd)\n        /* \"#utility.yul\":10950:10968   */\n      0x64\n      dup3\n      add\n        /* \"#utility.yul\":10943:10996   */\n      mstore\n        /* \"#utility.yul\":11013:11032   */\n      0x84\n      add\n        /* \"contracts/SnipeFinanceMultisenders_flattened.sol\":17552:17702  require(... */\n      tag_129\n        /* \"#utility.yul\":10619:11038   */\n      jump\n        /* \"contracts/SnipeFinanceMultisenders_flattened.sol\":17552:17702  require(... */\n    tag_276:\n        /* \"contracts/SnipeFinanceMultisenders_flattened.sol\":17725:17734  uint256 i */\n      0x00\n        /* \"contracts/SnipeFinanceMultisenders_flattened.sol\":17720:17851  for (uint256 i = 0; i < recipients.length; i++) {... */\n    tag_279:\n        /* \"contracts/SnipeFinanceMultisenders_flattened.sol\":17744:17754  recipients */\n      dup4\n        /* \"contracts/SnipeFinanceMultisenders_flattened.sol\":17744:17761  recipients.length */\n      mload\n        /* \"contracts/SnipeFinanceMultisenders_flattened.sol\":17740:17741  i */\n      dup2\n        /* \"contracts/SnipeFinanceMultisenders_flattened.sol\":17740:17761  i < recipients.length */\n      lt\n        /* \"contracts/SnipeFinanceMultisenders_flattened.sol\":17720:17851  for (uint256 i = 0; i < recipients.length; i++) {... */\n      iszero\n      tag_161\n      jumpi\n        /* \"contracts/SnipeFinanceMultisenders_flattened.sol\":17798:17808  recipients */\n      dup4\n        /* \"contracts/SnipeFinanceMultisenders_flattened.sol\":17809:17810  i */\n      dup2\n        /* \"contracts/SnipeFinanceMultisenders_flattened.sol\":17798:17811  recipients[i] */\n      dup2\n      mload\n      dup2\n      lt\n      tag_283\n      jumpi\n      tag_283\n      tag_165\n      jump\t// in\n    tag_283:\n      0x20\n      mul\n      0x20\n      add\n      add\n      mload\n      sub(shl(0xa0, 0x01), 0x01)\n        /* \"contracts/SnipeFinanceMultisenders_flattened.sol\":17790:17821  payable(recipients[i]).transfer */\n      and\n        /* \"contracts/SnipeFinanceMultisenders_flattened.sol\":17790:17832  payable(recipients[i]).transfer(values[i]) */\n      0x08fc\n        /* \"contracts/SnipeFinanceMultisenders_flattened.sol\":17822:17828  values */\n      dup5\n        /* \"contracts/SnipeFinanceMultisenders_flattened.sol\":17829:17830  i */\n      dup4\n        /* \"contracts/SnipeFinanceMultisenders_flattened.sol\":17822:17831  values[i] */\n      dup2\n      mload\n      dup2\n      lt\n      tag_285\n      jumpi\n      tag_285\n      tag_165\n      jump\t// in\n    tag_285:\n      0x20\n      mul\n      0x20\n      add\n      add\n      mload\n        /* \"contracts/SnipeFinanceMultisenders_flattened.sol\":17790:17832  payable(recipients[i]).transfer(values[i]) */\n      swap1\n      dup2\n      iszero\n      mul\n      swap1\n      mload(0x40)\n      0x00\n      mload(0x40)\n      dup1\n      dup4\n      sub\n      dup2\n      dup6\n      dup9\n      dup9\n      call\n      swap4\n      pop\n      pop\n      pop\n      pop\n      iszero\n      dup1\n      iszero\n      tag_287\n      jumpi\n      returndatasize\n      0x00\n      dup1\n      returndatacopy\n      revert(0x00, returndatasize)\n    tag_287:\n      pop\n        /* \"contracts/SnipeFinanceMultisenders_flattened.sol\":17763:17766  i++ */\n      dup1\n      tag_288\n      dup2\n      tag_178\n      jump\t// in\n    tag_288:\n      swap2\n      pop\n      pop\n        /* \"contracts/SnipeFinanceMultisenders_flattened.sol\":17720:17851  for (uint256 i = 0; i < recipients.length; i++) {... */\n      jump(tag_279)\n        /* \"contracts/SnipeFinanceMultisenders_flattened.sol\":17430:18349  if (tokenAddress.balanceOf(msg.sender) >= quantity) {... */\n    tag_275:\n        /* \"contracts/SnipeFinanceMultisenders_flattened.sol\":17912:17920  quantity */\n      sload(0x05)\n        /* \"contracts/SnipeFinanceMultisenders_flattened.sol\":17875:17887  tokenAddress */\n      0x04\n      dup1\n      sload\n        /* \"contracts/SnipeFinanceMultisenders_flattened.sol\":17875:17909  tokenAddress.balanceOf(msg.sender) */\n      mload(0x40)\n      shl(0xe0, 0x70a08231)\n      dup2\n      mstore\n      sub(shl(0xa0, 0x01), 0x01)\n        /* \"contracts/SnipeFinanceMultisenders_flattened.sol\":17875:17887  tokenAddress */\n      swap1\n      swap2\n      and\n      swap2\n        /* \"contracts/SnipeFinanceMultisenders_flattened.sol\":17875:17897  tokenAddress.balanceOf */\n      0x70a08231\n      swap2\n        /* \"contracts/SnipeFinanceMultisenders_flattened.sol\":17875:17909  tokenAddress.balanceOf(msg.sender) */\n      tag_290\n      swap2\n        /* \"contracts/SnipeFinanceMultisenders_flattened.sol\":17898:17908  msg.sender */\n      caller\n      swap2\n        /* \"contracts/SnipeFinanceMultisenders_flattened.sol\":17875:17909  tokenAddress.balanceOf(msg.sender) */\n      add\n      tag_71\n      jump\t// in\n    tag_290:\n      0x20\n      mload(0x40)\n      dup1\n      dup4\n      sub\n      dup2\n      dup7\n      gas\n      staticcall\n      iszero\n      dup1\n      iszero\n      tag_292\n      jumpi\n      returndatasize\n      0x00\n      dup1\n      returndatacopy\n      revert(0x00, returndatasize)\n    tag_292:\n      pop\n      pop\n      pop\n      pop\n      mload(0x40)\n      returndatasize\n      not(0x1f)\n      0x1f\n      dup3\n      add\n      and\n      dup3\n      add\n      dup1\n      0x40\n      mstore\n      pop\n      dup2\n      add\n      swap1\n      tag_293\n      swap2\n      swap1\n      tag_124\n      jump\t// in\n    tag_293:\n        /* \"contracts/SnipeFinanceMultisenders_flattened.sol\":17875:17920  tokenAddress.balanceOf(msg.sender) < quantity */\n      lt\n        /* \"contracts/SnipeFinanceMultisenders_flattened.sol\":17871:18349  if (tokenAddress.balanceOf(msg.sender) < quantity) {... */\n      iszero\n      tag_205\n      jumpi\n        /* \"contracts/SnipeFinanceMultisenders_flattened.sol\":17940:17960  uint256 toBeIncluded */\n      0x00\n        /* \"contracts/SnipeFinanceMultisenders_flattened.sol\":17969:17980  totalValues */\n      dup2\n        /* \"contracts/SnipeFinanceMultisenders_flattened.sol\":17963:17966  fee */\n      sload(0x01)\n        /* \"contracts/SnipeFinanceMultisenders_flattened.sol\":17963:17980  fee + totalValues */\n      tag_295\n      swap2\n      swap1\n      tag_253\n      jump\t// in\n    tag_295:\n        /* \"contracts/SnipeFinanceMultisenders_flattened.sol\":17940:17980  uint256 toBeIncluded = fee + totalValues */\n      swap1\n      pop\n        /* \"contracts/SnipeFinanceMultisenders_flattened.sol\":18040:18052  toBeIncluded */\n      dup1\n        /* \"contracts/SnipeFinanceMultisenders_flattened.sol\":18027:18036  msg.value */\n      callvalue\n        /* \"contracts/SnipeFinanceMultisenders_flattened.sol\":18027:18052  msg.value == toBeIncluded */\n      eq\n        /* \"contracts/SnipeFinanceMultisenders_flattened.sol\":17998:18137  require(... */\n      tag_296\n      jumpi\n      mload(0x40)\n      shl(0xe5, 0x461bcd)\n      dup2\n      mstore\n      0x04\n      add\n      tag_129\n      swap1\n      tag_208\n      jump\t// in\n    tag_296:\n        /* \"contracts/SnipeFinanceMultisenders_flattened.sol\":18163:18171  receiver */\n      sload(0x02)\n      0x01\n        /* \"contracts/SnipeFinanceMultisenders_flattened.sol\":18182:18185  fee */\n      sload\n        /* \"contracts/SnipeFinanceMultisenders_flattened.sol\":18155:18186  payable(receiver).transfer(fee) */\n      mload(0x40)\n      sub(shl(0xa0, 0x01), 0x01)\n        /* \"contracts/SnipeFinanceMultisenders_flattened.sol\":18163:18171  receiver */\n      swap1\n      swap3\n      and\n      swap2\n        /* \"contracts/SnipeFinanceMultisenders_flattened.sol\":18155:18186  payable(receiver).transfer(fee) */\n      dup2\n      iszero\n      0x08fc\n      mul\n      swap2\n        /* \"contracts/SnipeFinanceMultisenders_flattened.sol\":18182:18185  fee */\n      swap1\n        /* \"contracts/SnipeFinanceMultisenders_flattened.sol\":18163:18171  receiver */\n      0x00\n        /* \"contracts/SnipeFinanceMultisenders_flattened.sol\":18155:18186  payable(receiver).transfer(fee) */\n      dup2\n        /* \"contracts/SnipeFinanceMultisenders_flattened.sol\":18163:18171  receiver */\n      dup2\n        /* \"contracts/SnipeFinanceMultisenders_flattened.sol\":18155:18186  payable(receiver).transfer(fee) */\n      dup2\n        /* \"contracts/SnipeFinanceMultisenders_flattened.sol\":18182:18185  fee */\n      dup6\n        /* \"contracts/SnipeFinanceMultisenders_flattened.sol\":18163:18171  receiver */\n      dup9\n        /* \"contracts/SnipeFinanceMultisenders_flattened.sol\":18155:18186  payable(receiver).transfer(fee) */\n      dup9\n      call\n      swap4\n      pop\n      pop\n      pop\n      pop\n      iszero\n      dup1\n      iszero\n      tag_299\n      jumpi\n      returndatasize\n      0x00\n      dup1\n      returndatacopy\n      revert(0x00, returndatasize)\n    tag_299:\n      pop\n        /* \"contracts/SnipeFinanceMultisenders_flattened.sol\":18209:18218  uint256 i */\n      0x00\n        /* \"contracts/SnipeFinanceMultisenders_flattened.sol\":18204:18335  for (uint256 i = 0; i < recipients.length; i++) {... */\n    tag_300:\n        /* \"contracts/SnipeFinanceMultisenders_flattened.sol\":18228:18238  recipients */\n      dup5\n        /* \"contracts/SnipeFinanceMultisenders_flattened.sol\":18228:18245  recipients.length */\n      mload\n        /* \"contracts/SnipeFinanceMultisenders_flattened.sol\":18224:18225  i */\n      dup2\n        /* \"contracts/SnipeFinanceMultisenders_flattened.sol\":18224:18245  i < recipients.length */\n      lt\n        /* \"contracts/SnipeFinanceMultisenders_flattened.sol\":18204:18335  for (uint256 i = 0; i < recipients.length; i++) {... */\n      iszero\n      tag_301\n      jumpi\n        /* \"contracts/SnipeFinanceMultisenders_flattened.sol\":18282:18292  recipients */\n      dup5\n        /* \"contracts/SnipeFinanceMultisenders_flattened.sol\":18293:18294  i */\n      dup2\n        /* \"contracts/SnipeFinanceMultisenders_flattened.sol\":18282:18295  recipients[i] */\n      dup2\n      mload\n      dup2\n      lt\n      tag_304\n      jumpi\n      tag_304\n      tag_165\n      jump\t// in\n    tag_304:\n      0x20\n      mul\n      0x20\n      add\n      add\n      mload\n      sub(shl(0xa0, 0x01), 0x01)\n        /* \"contracts/SnipeFinanceMultisenders_flattened.sol\":18274:18305  payable(recipients[i]).transfer */\n      and\n        /* \"contracts/SnipeFinanceMultisenders_flattened.sol\":18274:18316  payable(recipients[i]).transfer(values[i]) */\n      0x08fc\n        /* \"contracts/SnipeFinanceMultisenders_flattened.sol\":18306:18312  values */\n      dup6\n        /* \"contracts/SnipeFinanceMultisenders_flattened.sol\":18313:18314  i */\n      dup4\n        /* \"contracts/SnipeFinanceMultisenders_flattened.sol\":18306:18315  values[i] */\n      dup2\n      mload\n      dup2\n      lt\n      tag_306\n      jumpi\n      tag_306\n      tag_165\n      jump\t// in\n    tag_306:\n      0x20\n      mul\n      0x20\n      add\n      add\n      mload\n        /* \"contracts/SnipeFinanceMultisenders_flattened.sol\":18274:18316  payable(recipients[i]).transfer(values[i]) */\n      swap1\n      dup2\n      iszero\n      mul\n      swap1\n      mload(0x40)\n      0x00\n      mload(0x40)\n      dup1\n      dup4\n      sub\n      dup2\n      dup6\n      dup9\n      dup9\n      call\n      swap4\n      pop\n      pop\n      pop\n      pop\n      iszero\n      dup1\n      iszero\n      tag_308\n      jumpi\n      returndatasize\n      0x00\n      dup1\n      returndatacopy\n      revert(0x00, returndatasize)\n    tag_308:\n      pop\n        /* \"contracts/SnipeFinanceMultisenders_flattened.sol\":18247:18250  i++ */\n      dup1\n      tag_309\n      dup2\n      tag_178\n      jump\t// in\n    tag_309:\n      swap2\n      pop\n      pop\n        /* \"contracts/SnipeFinanceMultisenders_flattened.sol\":18204:18335  for (uint256 i = 0; i < recipients.length; i++) {... */\n      jump(tag_300)\n    tag_301:\n      pop\n        /* \"contracts/SnipeFinanceMultisenders_flattened.sol\":17922:18349  {... */\n      pop\n        /* \"contracts/SnipeFinanceMultisenders_flattened.sol\":16824:18365  {... */\n      pop\n        /* \"contracts/SnipeFinanceMultisenders_flattened.sol\":16693:18365  function coinMultisender(... */\n      pop\n      pop\n      jump\t// out\n        /* \"contracts/SnipeFinanceMultisenders_flattened.sol\":12318:12516  function transferOwnership(address newOwner) public virtual onlyOwner {... */\n    tag_101:\n        /* \"contracts/SnipeFinanceMultisenders_flattened.sol\":11338:11351  _checkOwner() */\n      tag_311\n        /* \"contracts/SnipeFinanceMultisenders_flattened.sol\":11338:11349  _checkOwner */\n      tag_114\n        /* \"contracts/SnipeFinanceMultisenders_flattened.sol\":11338:11351  _checkOwner() */\n      jump\t// in\n    tag_311:\n      sub(shl(0xa0, 0x01), 0x01)\n        /* \"contracts/SnipeFinanceMultisenders_flattened.sol\":12406:12428  newOwner != address(0) */\n      dup2\n      and\n        /* \"contracts/SnipeFinanceMultisenders_flattened.sol\":12398:12471  require(newOwner != address(0), \"Ownable: new owner is the zero address\") */\n      tag_313\n      jumpi\n      mload(0x40)\n      shl(0xe5, 0x461bcd)\n      dup2\n      mstore\n        /* \"#utility.yul\":11245:11247   */\n      0x20\n        /* \"contracts/SnipeFinanceMultisenders_flattened.sol\":12398:12471  require(newOwner != address(0), \"Ownable: new owner is the zero address\") */\n      0x04\n      dup3\n      add\n        /* \"#utility.yul\":11227:11248   */\n      mstore\n        /* \"#utility.yul\":11284:11286   */\n      0x26\n        /* \"#utility.yul\":11264:11282   */\n      0x24\n      dup3\n      add\n        /* \"#utility.yul\":11257:11287   */\n      mstore\n        /* \"#utility.yul\":11323:11357   */\n      0x4f776e61626c653a206e6577206f776e657220697320746865207a65726f2061\n        /* \"#utility.yul\":11303:11321   */\n      0x44\n      dup3\n      add\n        /* \"#utility.yul\":11296:11358   */\n      mstore\n      shl(0xd0, 0x646472657373)\n        /* \"#utility.yul\":11374:11392   */\n      0x64\n      dup3\n      add\n        /* \"#utility.yul\":11367:11403   */\n      mstore\n        /* \"#utility.yul\":11420:11439   */\n      0x84\n      add\n        /* \"contracts/SnipeFinanceMultisenders_flattened.sol\":12398:12471  require(newOwner != address(0), \"Ownable: new owner is the zero address\") */\n      tag_129\n        /* \"#utility.yul\":11043:11445   */\n      jump\n        /* \"contracts/SnipeFinanceMultisenders_flattened.sol\":12398:12471  require(newOwner != address(0), \"Ownable: new owner is the zero address\") */\n    tag_313:\n        /* \"contracts/SnipeFinanceMultisenders_flattened.sol\":12481:12509  _transferOwnership(newOwner) */\n      tag_316\n        /* \"contracts/SnipeFinanceMultisenders_flattened.sol\":12500:12508  newOwner */\n      dup2\n        /* \"contracts/SnipeFinanceMultisenders_flattened.sol\":12481:12499  _transferOwnership */\n      tag_141\n        /* \"contracts/SnipeFinanceMultisenders_flattened.sol\":12481:12509  _transferOwnership(newOwner) */\n      jump\t// in\n    tag_316:\n        /* \"contracts/SnipeFinanceMultisenders_flattened.sol\":12318:12516  function transferOwnership(address newOwner) public virtual onlyOwner {... */\n      pop\n      jump\t// out\n        /* \"contracts/SnipeFinanceMultisenders_flattened.sol\":21741:21933  function withdrawCoins(uint256 amount) external onlyOwner {... */\n    tag_111:\n        /* \"contracts/SnipeFinanceMultisenders_flattened.sol\":11338:11351  _checkOwner() */\n      tag_318\n        /* \"contracts/SnipeFinanceMultisenders_flattened.sol\":11338:11349  _checkOwner */\n      tag_114\n        /* \"contracts/SnipeFinanceMultisenders_flattened.sol\":11338:11351  _checkOwner() */\n      jump\t// in\n    tag_318:\n        /* \"contracts/SnipeFinanceMultisenders_flattened.sol\":21825:21829  this */\n      address\n        /* \"contracts/SnipeFinanceMultisenders_flattened.sol\":21817:21838  address(this).balance */\n      balance\n        /* \"contracts/SnipeFinanceMultisenders_flattened.sol\":21817:21848  address(this).balance >= amount */\n      dup2\n      gt\n      iszero\n        /* \"contracts/SnipeFinanceMultisenders_flattened.sol\":21809:21880  require(address(this).balance >= amount, \"invalid balance to withdraw\") */\n      tag_320\n      jumpi\n      mload(0x40)\n      shl(0xe5, 0x461bcd)\n      dup2\n      mstore\n        /* \"#utility.yul\":11652:11654   */\n      0x20\n        /* \"contracts/SnipeFinanceMultisenders_flattened.sol\":21809:21880  require(address(this).balance >= amount, \"invalid balance to withdraw\") */\n      0x04\n      dup3\n      add\n        /* \"#utility.yul\":11634:11655   */\n      mstore\n        /* \"#utility.yul\":11691:11693   */\n      0x1b\n        /* \"#utility.yul\":11671:11689   */\n      0x24\n      dup3\n      add\n        /* \"#utility.yul\":11664:11694   */\n      mstore\n      shl(0x28, 0x696e76616c69642062616c616e636520746f207769746864726177)\n        /* \"#utility.yul\":11710:11728   */\n      0x44\n      dup3\n      add\n        /* \"#utility.yul\":11703:11760   */\n      mstore\n        /* \"#utility.yul\":11777:11795   */\n      0x64\n      add\n        /* \"contracts/SnipeFinanceMultisenders_flattened.sol\":21809:21880  require(address(this).balance >= amount, \"invalid balance to withdraw\") */\n      tag_129\n        /* \"#utility.yul\":11450:11801   */\n      jump\n        /* \"contracts/SnipeFinanceMultisenders_flattened.sol\":21809:21880  require(address(this).balance >= amount, \"invalid balance to withdraw\") */\n    tag_320:\n        /* \"contracts/SnipeFinanceMultisenders_flattened.sol\":21890:21926  payable(msg.sender).transfer(amount) */\n      mload(0x40)\n        /* \"contracts/SnipeFinanceMultisenders_flattened.sol\":21898:21908  msg.sender */\n      caller\n      swap1\n        /* \"contracts/SnipeFinanceMultisenders_flattened.sol\":21890:21926  payable(msg.sender).transfer(amount) */\n      dup3\n      iszero\n      0x08fc\n      mul\n      swap1\n        /* \"contracts/SnipeFinanceMultisenders_flattened.sol\":21919:21925  amount */\n      dup4\n      swap1\n        /* \"contracts/SnipeFinanceMultisenders_flattened.sol\":21890:21926  payable(msg.sender).transfer(amount) */\n      0x00\n      dup2\n      dup2\n      dup2\n        /* \"contracts/SnipeFinanceMultisenders_flattened.sol\":21919:21925  amount */\n      dup6\n        /* \"contracts/SnipeFinanceMultisenders_flattened.sol\":21898:21908  msg.sender */\n      dup9\n        /* \"contracts/SnipeFinanceMultisenders_flattened.sol\":21890:21926  payable(msg.sender).transfer(amount) */\n      dup9\n      call\n      swap4\n      pop\n      pop\n      pop\n      pop\n      iszero\n      dup1\n      iszero\n      tag_324\n      jumpi\n      returndatasize\n      0x00\n      dup1\n      returndatacopy\n      revert(0x00, returndatasize)\n    tag_324:\n      pop\n        /* \"contracts/SnipeFinanceMultisenders_flattened.sol\":21741:21933  function withdrawCoins(uint256 amount) external onlyOwner {... */\n      pop\n      jump\t// out\n        /* \"contracts/SnipeFinanceMultisenders_flattened.sol\":11603:11733  function _checkOwner() internal view virtual {... */\n    tag_114:\n        /* \"contracts/SnipeFinanceMultisenders_flattened.sol\":11491:11498  address */\n      0x00\n        /* \"contracts/SnipeFinanceMultisenders_flattened.sol\":11517:11523  _owner */\n      sload\n      sub(shl(0xa0, 0x01), 0x01)\n      and\n        /* \"contracts/SnipeFinanceMultisenders_flattened.sol\":10127:10137  msg.sender */\n      caller\n        /* \"contracts/SnipeFinanceMultisenders_flattened.sol\":11666:11689  owner() == _msgSender() */\n      eq\n        /* \"contracts/SnipeFinanceMultisenders_flattened.sol\":11658:11726  require(owner() == _msgSender(), \"Ownable: caller is not the owner\") */\n      tag_140\n      jumpi\n      mload(0x40)\n      shl(0xe5, 0x461bcd)\n      dup2\n      mstore\n        /* \"#utility.yul\":12008:12010   */\n      0x20\n        /* \"contracts/SnipeFinanceMultisenders_flattened.sol\":11658:11726  require(owner() == _msgSender(), \"Ownable: caller is not the owner\") */\n      0x04\n      dup3\n      add\n        /* \"#utility.yul\":11990:12011   */\n      dup2\n      swap1\n      mstore\n        /* \"#utility.yul\":12027:12045   */\n      0x24\n      dup3\n      add\n        /* \"#utility.yul\":12020:12050   */\n      mstore\n        /* \"#utility.yul\":12086:12120   */\n      0x4f776e61626c653a2063616c6c6572206973206e6f7420746865206f776e6572\n        /* \"#utility.yul\":12066:12084   */\n      0x44\n      dup3\n      add\n        /* \"#utility.yul\":12059:12121   */\n      mstore\n        /* \"#utility.yul\":12138:12156   */\n      0x64\n      add\n        /* \"contracts/SnipeFinanceMultisenders_flattened.sol\":11658:11726  require(owner() == _msgSender(), \"Ownable: caller is not the owner\") */\n      tag_129\n        /* \"#utility.yul\":11806:12162   */\n      jump\n        /* \"contracts/SnipeFinanceMultisenders_flattened.sol\":12670:12857  function _transferOwnership(address newOwner) internal virtual {... */\n    tag_141:\n        /* \"contracts/SnipeFinanceMultisenders_flattened.sol\":12743:12759  address oldOwner */\n      0x00\n        /* \"contracts/SnipeFinanceMultisenders_flattened.sol\":12762:12768  _owner */\n      dup1\n      sload\n      sub(shl(0xa0, 0x01), 0x01)\n        /* \"contracts/SnipeFinanceMultisenders_flattened.sol\":12778:12795  _owner = newOwner */\n      dup4\n      dup2\n      and\n      not(sub(shl(0xa0, 0x01), 0x01))\n      dup4\n      and\n      dup2\n      or\n      dup5\n      sstore\n        /* \"contracts/SnipeFinanceMultisenders_flattened.sol\":12810:12850  OwnershipTransferred(oldOwner, newOwner) */\n      mload(0x40)\n        /* \"contracts/SnipeFinanceMultisenders_flattened.sol\":12762:12768  _owner */\n      swap2\n      swap1\n      swap3\n      and\n      swap3\n      dup4\n      swap2\n        /* \"contracts/SnipeFinanceMultisenders_flattened.sol\":12810:12850  OwnershipTransferred(oldOwner, newOwner) */\n      0x8be0079c531659141344cd1fd0a4f28419497f9722a3daafe3b4186f6b6457e0\n      swap2\n        /* \"contracts/SnipeFinanceMultisenders_flattened.sol\":12743:12759  address oldOwner */\n      swap1\n        /* \"contracts/SnipeFinanceMultisenders_flattened.sol\":12810:12850  OwnershipTransferred(oldOwner, newOwner) */\n      log3\n        /* \"contracts/SnipeFinanceMultisenders_flattened.sol\":12733:12857  {... */\n      pop\n        /* \"contracts/SnipeFinanceMultisenders_flattened.sol\":12670:12857  function _transferOwnership(address newOwner) internal virtual {... */\n      pop\n      jump\t// out\n        /* \"#utility.yul\":14:145   */\n    tag_335:\n      sub(shl(0xa0, 0x01), 0x01)\n        /* \"#utility.yul\":89:120   */\n      dup2\n      and\n        /* \"#utility.yul\":79:121   */\n      dup2\n      eq\n        /* \"#utility.yul\":69:139   */\n      tag_316\n      jumpi\n        /* \"#utility.yul\":135:136   */\n      0x00\n        /* \"#utility.yul\":132:133   */\n      dup1\n        /* \"#utility.yul\":125:137   */\n      revert\n        /* \"#utility.yul\":150:465   */\n    tag_28:\n        /* \"#utility.yul\":218:224   */\n      0x00\n        /* \"#utility.yul\":226:232   */\n      dup1\n        /* \"#utility.yul\":279:281   */\n      0x40\n        /* \"#utility.yul\":267:276   */\n      dup4\n        /* \"#utility.yul\":258:265   */\n      dup6\n        /* \"#utility.yul\":254:277   */\n      sub\n        /* \"#utility.yul\":250:282   */\n      slt\n        /* \"#utility.yul\":247:299   */\n      iszero\n      tag_346\n      jumpi\n        /* \"#utility.yul\":295:296   */\n      0x00\n        /* \"#utility.yul\":292:293   */\n      dup1\n        /* \"#utility.yul\":285:297   */\n      revert\n        /* \"#utility.yul\":247:299   */\n    tag_346:\n        /* \"#utility.yul\":331:340   */\n      dup3\n        /* \"#utility.yul\":318:341   */\n      calldataload\n        /* \"#utility.yul\":308:341   */\n      swap2\n      pop\n        /* \"#utility.yul\":391:393   */\n      0x20\n        /* \"#utility.yul\":380:389   */\n      dup4\n        /* \"#utility.yul\":376:394   */\n      add\n        /* \"#utility.yul\":363:395   */\n      calldataload\n        /* \"#utility.yul\":404:435   */\n      tag_347\n        /* \"#utility.yul\":429:434   */\n      dup2\n        /* \"#utility.yul\":404:435   */\n      tag_335\n      jump\t// in\n    tag_347:\n        /* \"#utility.yul\":454:459   */\n      dup1\n        /* \"#utility.yul\":444:459   */\n      swap2\n      pop\n      pop\n        /* \"#utility.yul\":150:465   */\n      swap3\n      pop\n      swap3\n      swap1\n      pop\n      jump\t// out\n        /* \"#utility.yul\":652:981   */\n    tag_38:\n        /* \"#utility.yul\":734:740   */\n      0x00\n        /* \"#utility.yul\":742:748   */\n      dup1\n        /* \"#utility.yul\":795:797   */\n      0x40\n        /* \"#utility.yul\":783:792   */\n      dup4\n        /* \"#utility.yul\":774:781   */\n      dup6\n        /* \"#utility.yul\":770:793   */\n      sub\n        /* \"#utility.yul\":766:798   */\n      slt\n        /* \"#utility.yul\":763:815   */\n      iszero\n      tag_350\n      jumpi\n        /* \"#utility.yul\":811:812   */\n      0x00\n        /* \"#utility.yul\":808:809   */\n      dup1\n        /* \"#utility.yul\":801:813   */\n      revert\n        /* \"#utility.yul\":763:815   */\n    tag_350:\n        /* \"#utility.yul\":850:859   */\n      dup3\n        /* \"#utility.yul\":837:860   */\n      calldataload\n        /* \"#utility.yul\":869:900   */\n      tag_351\n        /* \"#utility.yul\":894:899   */\n      dup2\n        /* \"#utility.yul\":869:900   */\n      tag_335\n      jump\t// in\n    tag_351:\n        /* \"#utility.yul\":919:924   */\n      swap5\n        /* \"#utility.yul\":971:973   */\n      0x20\n        /* \"#utility.yul\":956:974   */\n      swap4\n      swap1\n      swap4\n      add\n        /* \"#utility.yul\":943:975   */\n      calldataload\n      swap4\n      pop\n      pop\n      pop\n        /* \"#utility.yul\":652:981   */\n      jump\t// out\n        /* \"#utility.yul\":986:1233   */\n    tag_43:\n        /* \"#utility.yul\":1045:1051   */\n      0x00\n        /* \"#utility.yul\":1098:1100   */\n      0x20\n        /* \"#utility.yul\":1086:1095   */\n      dup3\n        /* \"#utility.yul\":1077:1084   */\n      dup5\n        /* \"#utility.yul\":1073:1096   */\n      sub\n        /* \"#utility.yul\":1069:1101   */\n      slt\n        /* \"#utility.yul\":1066:1118   */\n      iszero\n      tag_353\n      jumpi\n        /* \"#utility.yul\":1114:1115   */\n      0x00\n        /* \"#utility.yul\":1111:1112   */\n      dup1\n        /* \"#utility.yul\":1104:1116   */\n      revert\n        /* \"#utility.yul\":1066:1118   */\n    tag_353:\n        /* \"#utility.yul\":1153:1162   */\n      dup2\n        /* \"#utility.yul\":1140:1163   */\n      calldataload\n        /* \"#utility.yul\":1172:1203   */\n      tag_354\n        /* \"#utility.yul\":1197:1202   */\n      dup2\n        /* \"#utility.yul\":1172:1203   */\n      tag_335\n      jump\t// in\n    tag_354:\n        /* \"#utility.yul\":1222:1227   */\n      swap4\n        /* \"#utility.yul\":986:1233   */\n      swap3\n      pop\n      pop\n      pop\n      jump\t// out\n        /* \"#utility.yul\":1430:1633   */\n    tag_71:\n      sub(shl(0xa0, 0x01), 0x01)\n        /* \"#utility.yul\":1594:1626   */\n      swap2\n      swap1\n      swap2\n      and\n        /* \"#utility.yul\":1576:1627   */\n      dup2\n      mstore\n        /* \"#utility.yul\":1564:1566   */\n      0x20\n        /* \"#utility.yul\":1549:1567   */\n      add\n      swap1\n        /* \"#utility.yul\":1430:1633   */\n      jump\t// out\n        /* \"#utility.yul\":1638:1765   */\n    tag_336:\n        /* \"#utility.yul\":1699:1709   */\n      0x4e487b71\n        /* \"#utility.yul\":1694:1697   */\n      0xe0\n        /* \"#utility.yul\":1690:1710   */\n      shl\n        /* \"#utility.yul\":1687:1688   */\n      0x00\n        /* \"#utility.yul\":1680:1711   */\n      mstore\n        /* \"#utility.yul\":1730:1734   */\n      0x41\n        /* \"#utility.yul\":1727:1728   */\n      0x04\n        /* \"#utility.yul\":1720:1735   */\n      mstore\n        /* \"#utility.yul\":1754:1758   */\n      0x24\n        /* \"#utility.yul\":1751:1752   */\n      0x00\n        /* \"#utility.yul\":1744:1759   */\n      revert\n        /* \"#utility.yul\":1770:2045   */\n    tag_337:\n        /* \"#utility.yul\":1841:1843   */\n      0x40\n        /* \"#utility.yul\":1835:1844   */\n      mload\n        /* \"#utility.yul\":1906:1908   */\n      0x1f\n        /* \"#utility.yul\":1887:1900   */\n      dup3\n      add\n      not(0x1f)\n        /* \"#utility.yul\":1883:1910   */\n      and\n        /* \"#utility.yul\":1871:1911   */\n      dup2\n      add\n      sub(shl(0x40, 0x01), 0x01)\n        /* \"#utility.yul\":1926:1960   */\n      dup2\n      gt\n        /* \"#utility.yul\":1962:1984   */\n      dup3\n      dup3\n      lt\n        /* \"#utility.yul\":1923:1985   */\n      or\n        /* \"#utility.yul\":1920:2008   */\n      iszero\n      tag_360\n      jumpi\n        /* \"#utility.yul\":1988:2006   */\n      tag_360\n      tag_336\n      jump\t// in\n    tag_360:\n        /* \"#utility.yul\":2024:2026   */\n      0x40\n        /* \"#utility.yul\":2017:2039   */\n      mstore\n        /* \"#utility.yul\":1770:2045   */\n      swap2\n      swap1\n      pop\n      jump\t// out\n        /* \"#utility.yul\":2050:2233   */\n    tag_338:\n        /* \"#utility.yul\":2110:2114   */\n      0x00\n      sub(shl(0x40, 0x01), 0x01)\n        /* \"#utility.yul\":2135:2141   */\n      dup3\n        /* \"#utility.yul\":2132:2162   */\n      gt\n        /* \"#utility.yul\":2129:2185   */\n      iszero\n      tag_363\n      jumpi\n        /* \"#utility.yul\":2165:2183   */\n      tag_363\n      tag_336\n      jump\t// in\n    tag_363:\n      pop\n        /* \"#utility.yul\":2210:2211   */\n      0x05\n        /* \"#utility.yul\":2206:2220   */\n      shl\n        /* \"#utility.yul\":2222:2226   */\n      0x20\n        /* \"#utility.yul\":2202:2227   */\n      add\n      swap1\n        /* \"#utility.yul\":2050:2233   */\n      jump\t// out\n        /* \"#utility.yul\":2238:2975   */\n    tag_339:\n        /* \"#utility.yul\":2292:2297   */\n      0x00\n        /* \"#utility.yul\":2345:2348   */\n      dup3\n        /* \"#utility.yul\":2338:2342   */\n      0x1f\n        /* \"#utility.yul\":2330:2336   */\n      dup4\n        /* \"#utility.yul\":2326:2343   */\n      add\n        /* \"#utility.yul\":2322:2349   */\n      slt\n        /* \"#utility.yul\":2312:2367   */\n      tag_365\n      jumpi\n        /* \"#utility.yul\":2363:2364   */\n      0x00\n        /* \"#utility.yul\":2360:2361   */\n      dup1\n        /* \"#utility.yul\":2353:2365   */\n      revert\n        /* \"#utility.yul\":2312:2367   */\n    tag_365:\n        /* \"#utility.yul\":2399:2405   */\n      dup2\n        /* \"#utility.yul\":2386:2406   */\n      calldataload\n        /* \"#utility.yul\":2425:2429   */\n      0x20\n        /* \"#utility.yul\":2449:2509   */\n      tag_366\n        /* \"#utility.yul\":2465:2508   */\n      tag_367\n        /* \"#utility.yul\":2505:2507   */\n      dup4\n        /* \"#utility.yul\":2465:2508   */\n      tag_338\n      jump\t// in\n    tag_367:\n        /* \"#utility.yul\":2449:2509   */\n      tag_337\n      jump\t// in\n    tag_366:\n        /* \"#utility.yul\":2543:2558   */\n      dup3\n      dup2\n      mstore\n        /* \"#utility.yul\":2629:2630   */\n      0x05\n        /* \"#utility.yul\":2625:2635   */\n      swap3\n      swap1\n      swap3\n      shl\n        /* \"#utility.yul\":2613:2636   */\n      dup5\n      add\n        /* \"#utility.yul\":2609:2641   */\n      dup2\n      add\n      swap2\n        /* \"#utility.yul\":2574:2586   */\n      dup2\n      dup2\n      add\n      swap1\n        /* \"#utility.yul\":2653:2668   */\n      dup7\n      dup5\n      gt\n        /* \"#utility.yul\":2650:2685   */\n      iszero\n      tag_368\n      jumpi\n        /* \"#utility.yul\":2681:2682   */\n      0x00\n        /* \"#utility.yul\":2678:2679   */\n      dup1\n        /* \"#utility.yul\":2671:2683   */\n      revert\n        /* \"#utility.yul\":2650:2685   */\n    tag_368:\n        /* \"#utility.yul\":2717:2719   */\n      dup3\n        /* \"#utility.yul\":2709:2715   */\n      dup7\n        /* \"#utility.yul\":2705:2720   */\n      add\n        /* \"#utility.yul\":2729:2946   */\n    tag_369:\n        /* \"#utility.yul\":2745:2751   */\n      dup5\n        /* \"#utility.yul\":2740:2743   */\n      dup2\n        /* \"#utility.yul\":2737:2752   */\n      lt\n        /* \"#utility.yul\":2729:2946   */\n      iszero\n      tag_371\n      jumpi\n        /* \"#utility.yul\":2825:2828   */\n      dup1\n        /* \"#utility.yul\":2812:2829   */\n      calldataload\n        /* \"#utility.yul\":2842:2873   */\n      tag_372\n        /* \"#utility.yul\":2867:2872   */\n      dup2\n        /* \"#utility.yul\":2842:2873   */\n      tag_335\n      jump\t// in\n    tag_372:\n        /* \"#utility.yul\":2886:2904   */\n      dup4\n      mstore\n        /* \"#utility.yul\":2924:2936   */\n      swap2\n      dup4\n      add\n      swap2\n        /* \"#utility.yul\":2762:2774   */\n      dup4\n      add\n        /* \"#utility.yul\":2729:2946   */\n      jump(tag_369)\n    tag_371:\n      pop\n        /* \"#utility.yul\":2964:2969   */\n      swap7\n        /* \"#utility.yul\":2238:2975   */\n      swap6\n      pop\n      pop\n      pop\n      pop\n      pop\n      pop\n      jump\t// out\n        /* \"#utility.yul\":2980:3642   */\n    tag_340:\n        /* \"#utility.yul\":3034:3039   */\n      0x00\n        /* \"#utility.yul\":3087:3090   */\n      dup3\n        /* \"#utility.yul\":3080:3084   */\n      0x1f\n        /* \"#utility.yul\":3072:3078   */\n      dup4\n        /* \"#utility.yul\":3068:3085   */\n      add\n        /* \"#utility.yul\":3064:3091   */\n      slt\n        /* \"#utility.yul\":3054:3109   */\n      tag_374\n      jumpi\n        /* \"#utility.yul\":3105:3106   */\n      0x00\n        /* \"#utility.yul\":3102:3103   */\n      dup1\n        /* \"#utility.yul\":3095:3107   */\n      revert\n        /* \"#utility.yul\":3054:3109   */\n    tag_374:\n        /* \"#utility.yul\":3141:3147   */\n      dup2\n        /* \"#utility.yul\":3128:3148   */\n      calldataload\n        /* \"#utility.yul\":3167:3171   */\n      0x20\n        /* \"#utility.yul\":3191:3251   */\n      tag_375\n        /* \"#utility.yul\":3207:3250   */\n      tag_367\n        /* \"#utility.yul\":3247:3249   */\n      dup4\n        /* \"#utility.yul\":3207:3250   */\n      tag_338\n      jump\t// in\n        /* \"#utility.yul\":3191:3251   */\n    tag_375:\n        /* \"#utility.yul\":3285:3300   */\n      dup3\n      dup2\n      mstore\n        /* \"#utility.yul\":3371:3372   */\n      0x05\n        /* \"#utility.yul\":3367:3377   */\n      swap3\n      swap1\n      swap3\n      shl\n        /* \"#utility.yul\":3355:3378   */\n      dup5\n      add\n        /* \"#utility.yul\":3351:3383   */\n      dup2\n      add\n      swap2\n        /* \"#utility.yul\":3316:3328   */\n      dup2\n      dup2\n      add\n      swap1\n        /* \"#utility.yul\":3395:3410   */\n      dup7\n      dup5\n      gt\n        /* \"#utility.yul\":3392:3427   */\n      iszero\n      tag_377\n      jumpi\n        /* \"#utility.yul\":3423:3424   */\n      0x00\n        /* \"#utility.yul\":3420:3421   */\n      dup1\n        /* \"#utility.yul\":3413:3425   */\n      revert\n        /* \"#utility.yul\":3392:3427   */\n    tag_377:\n        /* \"#utility.yul\":3459:3461   */\n      dup3\n        /* \"#utility.yul\":3451:3457   */\n      dup7\n        /* \"#utility.yul\":3447:3462   */\n      add\n        /* \"#utility.yul\":3471:3613   */\n    tag_378:\n        /* \"#utility.yul\":3487:3493   */\n      dup5\n        /* \"#utility.yul\":3482:3485   */\n      dup2\n        /* \"#utility.yul\":3479:3494   */\n      lt\n        /* \"#utility.yul\":3471:3613   */\n      iszero\n      tag_371\n      jumpi\n        /* \"#utility.yul\":3553:3570   */\n      dup1\n      calldataload\n        /* \"#utility.yul\":3541:3571   */\n      dup4\n      mstore\n        /* \"#utility.yul\":3591:3603   */\n      swap2\n      dup4\n      add\n      swap2\n        /* \"#utility.yul\":3504:3516   */\n      dup4\n      add\n        /* \"#utility.yul\":3471:3613   */\n      jump(tag_378)\n        /* \"#utility.yul\":3647:4391   */\n    tag_74:\n        /* \"#utility.yul\":3788:3794   */\n      0x00\n        /* \"#utility.yul\":3796:3802   */\n      dup1\n        /* \"#utility.yul\":3804:3810   */\n      0x00\n        /* \"#utility.yul\":3857:3859   */\n      0x60\n        /* \"#utility.yul\":3845:3854   */\n      dup5\n        /* \"#utility.yul\":3836:3843   */\n      dup7\n        /* \"#utility.yul\":3832:3855   */\n      sub\n        /* \"#utility.yul\":3828:3860   */\n      slt\n        /* \"#utility.yul\":3825:3877   */\n      iszero\n      tag_382\n      jumpi\n        /* \"#utility.yul\":3873:3874   */\n      0x00\n        /* \"#utility.yul\":3870:3871   */\n      dup1\n        /* \"#utility.yul\":3863:3875   */\n      revert\n        /* \"#utility.yul\":3825:3877   */\n    tag_382:\n        /* \"#utility.yul\":3912:3921   */\n      dup4\n        /* \"#utility.yul\":3899:3922   */\n      calldataload\n        /* \"#utility.yul\":3931:3962   */\n      tag_383\n        /* \"#utility.yul\":3956:3961   */\n      dup2\n        /* \"#utility.yul\":3931:3962   */\n      tag_335\n      jump\t// in\n    tag_383:\n        /* \"#utility.yul\":3981:3986   */\n      swap3\n      pop\n        /* \"#utility.yul\":4037:4039   */\n      0x20\n        /* \"#utility.yul\":4022:4040   */\n      dup5\n      add\n        /* \"#utility.yul\":4009:4041   */\n      calldataload\n      sub(shl(0x40, 0x01), 0x01)\n        /* \"#utility.yul\":4090:4104   */\n      dup1\n      dup3\n      gt\n        /* \"#utility.yul\":4087:4121   */\n      iszero\n      tag_384\n      jumpi\n        /* \"#utility.yul\":4117:4118   */\n      0x00\n        /* \"#utility.yul\":4114:4115   */\n      dup1\n        /* \"#utility.yul\":4107:4119   */\n      revert\n        /* \"#utility.yul\":4087:4121   */\n    tag_384:\n        /* \"#utility.yul\":4140:4201   */\n      tag_385\n        /* \"#utility.yul\":4193:4200   */\n      dup8\n        /* \"#utility.yul\":4184:4190   */\n      dup4\n        /* \"#utility.yul\":4173:4182   */\n      dup9\n        /* \"#utility.yul\":4169:4191   */\n      add\n        /* \"#utility.yul\":4140:4201   */\n      tag_339\n      jump\t// in\n    tag_385:\n        /* \"#utility.yul\":4130:4201   */\n      swap4\n      pop\n        /* \"#utility.yul\":4254:4256   */\n      0x40\n        /* \"#utility.yul\":4243:4252   */\n      dup7\n        /* \"#utility.yul\":4239:4257   */\n      add\n        /* \"#utility.yul\":4226:4258   */\n      calldataload\n        /* \"#utility.yul\":4210:4258   */\n      swap2\n      pop\n        /* \"#utility.yul\":4283:4285   */\n      dup1\n        /* \"#utility.yul\":4273:4281   */\n      dup3\n        /* \"#utility.yul\":4270:4286   */\n      gt\n        /* \"#utility.yul\":4267:4303   */\n      iszero\n      tag_386\n      jumpi\n        /* \"#utility.yul\":4299:4300   */\n      0x00\n        /* \"#utility.yul\":4296:4297   */\n      dup1\n        /* \"#utility.yul\":4289:4301   */\n      revert\n        /* \"#utility.yul\":4267:4303   */\n    tag_386:\n      pop\n        /* \"#utility.yul\":4322:4385   */\n      tag_387\n        /* \"#utility.yul\":4377:4384   */\n      dup7\n        /* \"#utility.yul\":4366:4374   */\n      dup3\n        /* \"#utility.yul\":4355:4364   */\n      dup8\n        /* \"#utility.yul\":4351:4375   */\n      add\n        /* \"#utility.yul\":4322:4385   */\n      tag_340\n      jump\t// in\n    tag_387:\n        /* \"#utility.yul\":4312:4385   */\n      swap2\n      pop\n      pop\n        /* \"#utility.yul\":3647:4391   */\n      swap3\n      pop\n      swap3\n      pop\n      swap3\n      jump\t// out\n        /* \"#utility.yul\":4618:5213   */\n    tag_92:\n        /* \"#utility.yul\":4736:4742   */\n      0x00\n        /* \"#utility.yul\":4744:4750   */\n      dup1\n        /* \"#utility.yul\":4797:4799   */\n      0x40\n        /* \"#utility.yul\":4785:4794   */\n      dup4\n        /* \"#utility.yul\":4776:4783   */\n      dup6\n        /* \"#utility.yul\":4772:4795   */\n      sub\n        /* \"#utility.yul\":4768:4800   */\n      slt\n        /* \"#utility.yul\":4765:4817   */\n      iszero\n      tag_390\n      jumpi\n        /* \"#utility.yul\":4813:4814   */\n      0x00\n        /* \"#utility.yul\":4810:4811   */\n      dup1\n        /* \"#utility.yul\":4803:4815   */\n      revert\n        /* \"#utility.yul\":4765:4817   */\n    tag_390:\n        /* \"#utility.yul\":4853:4862   */\n      dup3\n        /* \"#utility.yul\":4840:4863   */\n      calldataload\n      sub(shl(0x40, 0x01), 0x01)\n        /* \"#utility.yul\":4923:4925   */\n      dup1\n        /* \"#utility.yul\":4915:4921   */\n      dup3\n        /* \"#utility.yul\":4912:4926   */\n      gt\n        /* \"#utility.yul\":4909:4943   */\n      iszero\n      tag_391\n      jumpi\n        /* \"#utility.yul\":4939:4940   */\n      0x00\n        /* \"#utility.yul\":4936:4937   */\n      dup1\n        /* \"#utility.yul\":4929:4941   */\n      revert\n        /* \"#utility.yul\":4909:4943   */\n    tag_391:\n        /* \"#utility.yul\":4962:5023   */\n      tag_392\n        /* \"#utility.yul\":5015:5022   */\n      dup7\n        /* \"#utility.yul\":5006:5012   */\n      dup4\n        /* \"#utility.yul\":4995:5004   */\n      dup8\n        /* \"#utility.yul\":4991:5013   */\n      add\n        /* \"#utility.yul\":4962:5023   */\n      tag_339\n      jump\t// in\n    tag_392:\n        /* \"#utility.yul\":4952:5023   */\n      swap4\n      pop\n        /* \"#utility.yul\":5076:5078   */\n      0x20\n        /* \"#utility.yul\":5065:5074   */\n      dup6\n        /* \"#utility.yul\":5061:5079   */\n      add\n        /* \"#utility.yul\":5048:5080   */\n      calldataload\n        /* \"#utility.yul\":5032:5080   */\n      swap2\n      pop\n        /* \"#utility.yul\":5105:5107   */\n      dup1\n        /* \"#utility.yul\":5095:5103   */\n      dup3\n        /* \"#utility.yul\":5092:5108   */\n      gt\n        /* \"#utility.yul\":5089:5125   */\n      iszero\n      tag_393\n      jumpi\n        /* \"#utility.yul\":5121:5122   */\n      0x00\n        /* \"#utility.yul\":5118:5119   */\n      dup1\n        /* \"#utility.yul\":5111:5123   */\n      revert\n        /* \"#utility.yul\":5089:5125   */\n    tag_393:\n      pop\n        /* \"#utility.yul\":5144:5207   */\n      tag_394\n        /* \"#utility.yul\":5199:5206   */\n      dup6\n        /* \"#utility.yul\":5188:5196   */\n      dup3\n        /* \"#utility.yul\":5177:5186   */\n      dup7\n        /* \"#utility.yul\":5173:5197   */\n      add\n        /* \"#utility.yul\":5144:5207   */\n      tag_340\n      jump\t// in\n    tag_394:\n        /* \"#utility.yul\":5134:5207   */\n      swap2\n      pop\n      pop\n        /* \"#utility.yul\":4618:5213   */\n      swap3\n      pop\n      swap3\n      swap1\n      pop\n      jump\t// out\n        /* \"#utility.yul\":5442:5622   */\n    tag_110:\n        /* \"#utility.yul\":5501:5507   */\n      0x00\n        /* \"#utility.yul\":5554:5556   */\n      0x20\n        /* \"#utility.yul\":5542:5551   */\n      dup3\n        /* \"#utility.yul\":5533:5540   */\n      dup5\n        /* \"#utility.yul\":5529:5552   */\n      sub\n        /* \"#utility.yul\":5525:5557   */\n      slt\n        /* \"#utility.yul\":5522:5574   */\n      iszero\n      tag_397\n      jumpi\n        /* \"#utility.yul\":5570:5571   */\n      0x00\n        /* \"#utility.yul\":5567:5568   */\n      dup1\n        /* \"#utility.yul\":5560:5572   */\n      revert\n        /* \"#utility.yul\":5522:5574   */\n    tag_397:\n      pop\n        /* \"#utility.yul\":5593:5616   */\n      calldataload\n      swap2\n        /* \"#utility.yul\":5442:5622   */\n      swap1\n      pop\n      jump\t// out\n        /* \"#utility.yul\":5627:5811   */\n    tag_124:\n        /* \"#utility.yul\":5697:5703   */\n      0x00\n        /* \"#utility.yul\":5750:5752   */\n      0x20\n        /* \"#utility.yul\":5738:5747   */\n      dup3\n        /* \"#utility.yul\":5729:5736   */\n      dup5\n        /* \"#utility.yul\":5725:5748   */\n      sub\n        /* \"#utility.yul\":5721:5753   */\n      slt\n        /* \"#utility.yul\":5718:5770   */\n      iszero\n      tag_399\n      jumpi\n        /* \"#utility.yul\":5766:5767   */\n      0x00\n        /* \"#utility.yul\":5763:5764   */\n      dup1\n        /* \"#utility.yul\":5756:5768   */\n      revert\n        /* \"#utility.yul\":5718:5770   */\n    tag_399:\n      pop\n        /* \"#utility.yul\":5789:5805   */\n      mload\n      swap2\n        /* \"#utility.yul\":5627:5811   */\n      swap1\n      pop\n      jump\t// out\n        /* \"#utility.yul\":6528:6873   */\n    tag_149:\n        /* \"#utility.yul\":6730:6732   */\n      0x20\n        /* \"#utility.yul\":6712:6733   */\n      dup1\n      dup3\n      mstore\n        /* \"#utility.yul\":6769:6771   */\n      0x15\n        /* \"#utility.yul\":6749:6767   */\n      swap1\n      dup3\n      add\n        /* \"#utility.yul\":6742:6772   */\n      mstore\n      shl(0x5a, 0x1d1bdad95b881a1bdb191a5b99c81a5b9d985b1a59)\n        /* \"#utility.yul\":6803:6805   */\n      0x40\n        /* \"#utility.yul\":6788:6806   */\n      dup3\n      add\n        /* \"#utility.yul\":6781:6832   */\n      mstore\n        /* \"#utility.yul\":6864:6866   */\n      0x60\n        /* \"#utility.yul\":6849:6867   */\n      add\n      swap1\n        /* \"#utility.yul\":6528:6873   */\n      jump\t// out\n        /* \"#utility.yul\":7221:7558   */\n    tag_158:\n        /* \"#utility.yul\":7423:7425   */\n      0x20\n        /* \"#utility.yul\":7405:7426   */\n      dup1\n      dup3\n      mstore\n        /* \"#utility.yul\":7462:7464   */\n      0x0d\n        /* \"#utility.yul\":7442:7460   */\n      swap1\n      dup3\n      add\n        /* \"#utility.yul\":7435:7465   */\n      mstore\n      shl(0x9a, 0x1a5b9d985b1a59081a5b9c1d5d)\n        /* \"#utility.yul\":7496:7498   */\n      0x40\n        /* \"#utility.yul\":7481:7499   */\n      dup3\n      add\n        /* \"#utility.yul\":7474:7517   */\n      mstore\n        /* \"#utility.yul\":7549:7551   */\n      0x60\n        /* \"#utility.yul\":7534:7552   */\n      add\n      swap1\n        /* \"#utility.yul\":7221:7558   */\n      jump\t// out\n        /* \"#utility.yul\":7563:7690   */\n    tag_165:\n        /* \"#utility.yul\":7624:7634   */\n      0x4e487b71\n        /* \"#utility.yul\":7619:7622   */\n      0xe0\n        /* \"#utility.yul\":7615:7635   */\n      shl\n        /* \"#utility.yul\":7612:7613   */\n      0x00\n        /* \"#utility.yul\":7605:7636   */\n      mstore\n        /* \"#utility.yul\":7655:7659   */\n      0x32\n        /* \"#utility.yul\":7652:7653   */\n      0x04\n        /* \"#utility.yul\":7645:7660   */\n      mstore\n        /* \"#utility.yul\":7679:7683   */\n      0x24\n        /* \"#utility.yul\":7676:7677   */\n      0x00\n        /* \"#utility.yul\":7669:7684   */\n      revert\n        /* \"#utility.yul\":7695:8070   */\n    tag_169:\n      sub(shl(0xa0, 0x01), 0x01)\n        /* \"#utility.yul\":7953:7968   */\n      swap4\n      dup5\n      and\n        /* \"#utility.yul\":7935:7969   */\n      dup2\n      mstore\n        /* \"#utility.yul\":8005:8020   */\n      swap2\n      swap1\n      swap3\n      and\n        /* \"#utility.yul\":8000:8002   */\n      0x20\n        /* \"#utility.yul\":7985:8003   */\n      dup3\n      add\n        /* \"#utility.yul\":7978:8021   */\n      mstore\n        /* \"#utility.yul\":8052:8054   */\n      0x40\n        /* \"#utility.yul\":8037:8055   */\n      dup2\n      add\n        /* \"#utility.yul\":8030:8064   */\n      swap2\n      swap1\n      swap2\n      mstore\n        /* \"#utility.yul\":7885:7887   */\n      0x60\n        /* \"#utility.yul\":7870:7888   */\n      add\n      swap1\n        /* \"#utility.yul\":7695:8070   */\n      jump\t// out\n        /* \"#utility.yul\":8075:8352   */\n    tag_173:\n        /* \"#utility.yul\":8142:8148   */\n      0x00\n        /* \"#utility.yul\":8195:8197   */\n      0x20\n        /* \"#utility.yul\":8183:8192   */\n      dup3\n        /* \"#utility.yul\":8174:8181   */\n      dup5\n        /* \"#utility.yul\":8170:8193   */\n      sub\n        /* \"#utility.yul\":8166:8198   */\n      slt\n        /* \"#utility.yul\":8163:8215   */\n      iszero\n      tag_408\n      jumpi\n        /* \"#utility.yul\":8211:8212   */\n      0x00\n        /* \"#utility.yul\":8208:8209   */\n      dup1\n        /* \"#utility.yul\":8201:8213   */\n      revert\n        /* \"#utility.yul\":8163:8215   */\n    tag_408:\n        /* \"#utility.yul\":8243:8252   */\n      dup2\n        /* \"#utility.yul\":8237:8253   */\n      mload\n        /* \"#utility.yul\":8296:8301   */\n      dup1\n        /* \"#utility.yul\":8289:8302   */\n      iszero\n        /* \"#utility.yul\":8282:8303   */\n      iszero\n        /* \"#utility.yul\":8275:8280   */\n      dup2\n        /* \"#utility.yul\":8272:8304   */\n      eq\n        /* \"#utility.yul\":8262:8322   */\n      tag_354\n      jumpi\n        /* \"#utility.yul\":8318:8319   */\n      0x00\n        /* \"#utility.yul\":8315:8316   */\n      dup1\n        /* \"#utility.yul\":8308:8320   */\n      revert\n        /* \"#utility.yul\":8357:8702   */\n    tag_176:\n        /* \"#utility.yul\":8559:8561   */\n      0x20\n        /* \"#utility.yul\":8541:8562   */\n      dup1\n      dup3\n      mstore\n        /* \"#utility.yul\":8598:8600   */\n      0x15\n        /* \"#utility.yul\":8578:8596   */\n      swap1\n      dup3\n      add\n        /* \"#utility.yul\":8571:8601   */\n      mstore\n      shl(0x59, 0x32b93937b91034b7103234b9ba3934b13aba34b7b7)\n        /* \"#utility.yul\":8632:8634   */\n      0x40\n        /* \"#utility.yul\":8617:8635   */\n      dup3\n      add\n        /* \"#utility.yul\":8610:8661   */\n      mstore\n        /* \"#utility.yul\":8693:8695   */\n      0x60\n        /* \"#utility.yul\":8678:8696   */\n      add\n      swap1\n        /* \"#utility.yul\":8357:8702   */\n      jump\t// out\n        /* \"#utility.yul\":8707:8834   */\n    tag_341:\n        /* \"#utility.yul\":8768:8778   */\n      0x4e487b71\n        /* \"#utility.yul\":8763:8766   */\n      0xe0\n        /* \"#utility.yul\":8759:8779   */\n      shl\n        /* \"#utility.yul\":8756:8757   */\n      0x00\n        /* \"#utility.yul\":8749:8780   */\n      mstore\n        /* \"#utility.yul\":8799:8803   */\n      0x11\n        /* \"#utility.yul\":8796:8797   */\n      0x04\n        /* \"#utility.yul\":8789:8804   */\n      mstore\n        /* \"#utility.yul\":8823:8827   */\n      0x24\n        /* \"#utility.yul\":8820:8821   */\n      0x00\n        /* \"#utility.yul\":8813:8828   */\n      revert\n        /* \"#utility.yul\":8839:8974   */\n    tag_178:\n        /* \"#utility.yul\":8878:8881   */\n      0x00\n        /* \"#utility.yul\":8899:8916   */\n      0x01\n      dup3\n      add\n        /* \"#utility.yul\":8896:8939   */\n      tag_414\n      jumpi\n        /* \"#utility.yul\":8919:8937   */\n      tag_414\n      tag_341\n      jump\t// in\n    tag_414:\n      pop\n        /* \"#utility.yul\":8966:8967   */\n      0x01\n        /* \"#utility.yul\":8955:8968   */\n      add\n      swap1\n        /* \"#utility.yul\":8839:8974   */\n      jump\t// out\n        /* \"#utility.yul\":8979:9386   */\n    tag_208:\n        /* \"#utility.yul\":9181:9183   */\n      0x20\n        /* \"#utility.yul\":9163:9184   */\n      dup1\n      dup3\n      mstore\n        /* \"#utility.yul\":9220:9222   */\n      0x2b\n        /* \"#utility.yul\":9200:9218   */\n      swap1\n      dup3\n      add\n        /* \"#utility.yul\":9193:9223   */\n      mstore\n        /* \"#utility.yul\":9259:9293   */\n      0x686f6c64696e67202620617574686f72697a6174696f6e2066616c7365207061\n        /* \"#utility.yul\":9254:9256   */\n      0x40\n        /* \"#utility.yul\":9239:9257   */\n      dup3\n      add\n        /* \"#utility.yul\":9232:9294   */\n      mstore\n      shl(0xa8, 0x7920657861637420666565)\n        /* \"#utility.yul\":9325:9327   */\n      0x60\n        /* \"#utility.yul\":9310:9328   */\n      dup3\n      add\n        /* \"#utility.yul\":9303:9344   */\n      mstore\n        /* \"#utility.yul\":9376:9379   */\n      0x80\n        /* \"#utility.yul\":9361:9380   */\n      add\n      swap1\n        /* \"#utility.yul\":8979:9386   */\n      jump\t// out\n        /* \"#utility.yul\":10075:10203   */\n    tag_253:\n        /* \"#utility.yul\":10115:10118   */\n      0x00\n        /* \"#utility.yul\":10146:10147   */\n      dup3\n        /* \"#utility.yul\":10142:10148   */\n      not\n        /* \"#utility.yul\":10139:10140   */\n      dup3\n        /* \"#utility.yul\":10136:10149   */\n      gt\n        /* \"#utility.yul\":10133:10172   */\n      iszero\n      tag_420\n      jumpi\n        /* \"#utility.yul\":10152:10170   */\n      tag_420\n      tag_341\n      jump\t// in\n    tag_420:\n      pop\n        /* \"#utility.yul\":10188:10197   */\n      add\n      swap1\n        /* \"#utility.yul\":10075:10203   */\n      jump\t// out\n\n    auxdata: 0xa2646970667358221220c5ef9ed6cdb996a81768cde690905a32c50dc4ad66688802dbf57a65234d180664736f6c634300080d0033\n}\n",
				"bytecode": {
					"linkReferences": {},
					"object": "608060405234801561001057600080fd5b5061001a3361004b565b600054600280546001600160a01b0319166001600160a01b03909216919091179055655af3107a400060015561009b565b600080546001600160a01b038381166001600160a01b0319831681178455604051919092169283917f8be0079c531659141344cd1fd0a4f28419497f9722a3daafe3b4186f6b6457e09190a35050565b61169f806100aa6000396000f3fe6080604052600436106100f85760003560e01c80638da5cb5b116100905780638da5cb5b146102395780639cbd3433146102605780639d76ea58146102735780639e281a9814610293578063a4df0256146102b3578063d908e6ce146102ec578063ddca3f43146102ff578063f2fde38b14610315578063f7260d3e14610335578063f9f95a0f1461035557600080fd5b8063126ccd941461010457806317fc45e2146101265780632fc75eb01461014f5780633aecd0e31461016f57806344b6209d1461018f578063478aa69e146101cf57806367c2a360146101ef578063715018a61461020f5780638b7afe2e1461022457600080fd5b366100ff57005b600080fd5b34801561011057600080fd5b5061012461011f366004611220565b610375565b005b34801561013257600080fd5b5061013c60055481565b6040519081526020015b60405180910390f35b34801561015b57600080fd5b5061012461016a366004611250565b6103a4565b34801561017b57600080fd5b5061013c61018a36600461127c565b6103d2565b34801561019b57600080fd5b506101bf6101aa36600461127c565b60036020526000908152604090205460ff1681565b6040519015158152602001610146565b3480156101db57600080fd5b506101246101ea36600461127c565b61044b565b3480156101fb57600080fd5b5061012461020a36600461127c565b6104e6565b34801561021b57600080fd5b50610124610578565b34801561023057600080fd5b5061013c61058c565b34801561024557600080fd5b506000546001600160a01b03165b60405161014691906112a0565b61012461026e3660046113ec565b61059c565b34801561027f57600080fd5b50600454610253906001600160a01b031681565b34801561029f57600080fd5b506101246102ae366004611250565b610a70565b3480156102bf57600080fd5b506101bf6102ce36600461127c565b6001600160a01b031660009081526003602052604090205460ff1690565b6101246102fa366004611461565b610bb2565b34801561030b57600080fd5b5061013c60015481565b34801561032157600080fd5b5061012461033036600461127c565b611060565b34801561034157600080fd5b50600254610253906001600160a01b031681565b34801561036157600080fd5b506101246103703660046114c4565b6110d9565b61037d611161565b600191909155600280546001600160a01b0319166001600160a01b03909216919091179055565b6103ac611161565b600480546001600160a01b0319166001600160a01b039390931692909217909155600555565b600480546040516370a0823160e01b81526000926001600160a01b03909216916370a0823191610404918691016112a0565b602060405180830381865afa158015610421573d6000803e3d6000fd5b505050506040513d601f19601f8201168201806040525081019061044591906114dd565b92915050565b610453611161565b6001600160a01b03811660009081526003602052604090205460ff1615156001146104c55760405162461bcd60e51b815260206004820152601c60248201527f7573657220697320616c726561647920756e617574686f72697a65640000000060448201526064015b60405180910390fd5b6001600160a01b03166000908152600360205260409020805460ff19169055565b6104ee611161565b6001600160a01b03811660009081526003602052604090205460ff16156105545760405162461bcd60e51b815260206004820152601a6024820152791d5cd95c881a5cc8185b1c9958591e48185d5d1a1bdc9a5e995960321b60448201526064016104bc565b6001600160a01b03166000908152600360205260409020805460ff19166001179055565b610580611161565b61058a60006111bb565b565b6000610596611161565b50303190565b6004546001600160a01b03166105c45760405162461bcd60e51b81526004016104bc906114f6565b60016001600160a01b0384163b1515146106115760405162461bcd60e51b815260206004820152600e60248201526d1b9bdd08184818dbdb9d1c9858dd60921b60448201526064016104bc565b80518251146106325760405162461bcd60e51b81526004016104bc90611525565b3360009081526003602052604090205460ff161561072f5760005b815181101561072957836001600160a01b03166323b872dd338584815181106106785761067861154c565b60200260200101518585815181106106925761069261154c565b60200260200101516040518463ffffffff1660e01b81526004016106b893929190611562565b6020604051808303816000875af11580156106d7573d6000803e3d6000fd5b505050506040513d601f19601f820116820180604052508101906106fb9190611586565b6107175760405162461bcd60e51b81526004016104bc906115a8565b80610721816115ed565b91505061064d565b50505050565b3360009081526003602052604090205460ff16610a6b57600554600480546040516370a0823160e01b81526001600160a01b03909116916370a0823191610778913391016112a0565b602060405180830381865afa158015610795573d6000803e3d6000fd5b505050506040513d601f19601f820116820180604052508101906107b991906114dd565b106108b557336000908152600360205260408120805460ff191660011790555b815181101561072957836001600160a01b03166323b872dd338584815181106108045761080461154c565b602002602001015185858151811061081e5761081e61154c565b60200260200101516040518463ffffffff1660e01b815260040161084493929190611562565b6020604051808303816000875af1158015610863573d6000803e3d6000fd5b505050506040513d601f19601f820116820180604052508101906108879190611586565b6108a35760405162461bcd60e51b81526004016104bc906115a8565b806108ad816115ed565b9150506107d9565b600554600480546040516370a0823160e01b81526001600160a01b03909116916370a08231916108e7913391016112a0565b602060405180830381865afa158015610904573d6000803e3d6000fd5b505050506040513d601f19601f8201168201806040525081019061092891906114dd565b1015610a6b57600154341461094f5760405162461bcd60e51b81526004016104bc90611606565b6002546001546040516001600160a01b039092169181156108fc0291906000818181858888f1935050505015801561098b573d6000803e3d6000fd5b5060005b815181101561072957836001600160a01b03166323b872dd338584815181106109ba576109ba61154c565b60200260200101518585815181106109d4576109d461154c565b60200260200101516040518463ffffffff1660e01b81526004016109fa93929190611562565b6020604051808303816000875af1158015610a19573d6000803e3d6000fd5b505050506040513d601f19601f82011682018060405250810190610a3d9190611586565b610a595760405162461bcd60e51b81526004016104bc906115a8565b80610a63816115ed565b91505061098f565b505050565b610a78611161565b6040516370a0823160e01b815281906001600160a01b038416906370a0823190610aa69030906004016112a0565b602060405180830381865afa158015610ac3573d6000803e3d6000fd5b505050506040513d601f19601f82011682018060405250810190610ae791906114dd565b1015610b415760405162461bcd60e51b8152602060048201526024808201527f636f6e747261637420646f65736e2774206861766520656e6f75676820746f6b604482015263656e277360e01b60648201526084016104bc565b60405163a9059cbb60e01b8152336004820152602481018290526001600160a01b0383169063a9059cbb906044016020604051808303816000875af1158015610b8e573d6000803e3d6000fd5b505050506040513d601f19601f82011682018060405250810190610a6b9190611586565b6004546001600160a01b0316610bda5760405162461bcd60e51b81526004016104bc906114f6565b8051825114610bfb5760405162461bcd60e51b81526004016104bc90611525565b6000805b8251811015610c4157828181518110610c1a57610c1a61154c565b602002602001015182610c2d9190611651565b915080610c39816115ed565b915050610bff565b503360009081526003602052604090205460ff1615610d4657803414610cbc5760405162461bcd60e51b815260206004820152602a60248201527f7061792074686520657861637420616d6f756e7420746f20636f76657220646960448201526939ba3934b13aba34b7b760b11b60648201526084016104bc565b60005b835181101561072957838181518110610cda57610cda61154c565b60200260200101516001600160a01b03166108fc848381518110610d0057610d0061154c565b60200260200101519081150290604051600060405180830381858888f19350505050158015610d33573d6000803e3d6000fd5b5080610d3e816115ed565b915050610cbf565b3360009081526003602052604090205460ff16610a6b57600554600480546040516370a0823160e01b81526001600160a01b03909116916370a0823191610d8f913391016112a0565b602060405180830381865afa158015610dac573d6000803e3d6000fd5b505050506040513d601f19601f82011682018060405250810190610dd091906114dd565b10610ee857336000908152600360205260409020805460ff19166001179055348114610e5e5760405162461bcd60e51b815260206004820152603760248201527f686f6c64696e67207175616e74697479207472756520627574206d73672e76616044820152761b1d59481d5b98d95c9d185a5b881c185e48195e1858dd604a1b60648201526084016104bc565b60005b835181101561072957838181518110610e7c57610e7c61154c565b60200260200101516001600160a01b03166108fc848381518110610ea257610ea261154c565b60200260200101519081150290604051600060405180830381858888f19350505050158015610ed5573d6000803e3d6000fd5b5080610ee0816115ed565b915050610e61565b600554600480546040516370a0823160e01b81526001600160a01b03909116916370a0823191610f1a913391016112a0565b602060405180830381865afa158015610f37573d6000803e3d6000fd5b505050506040513d601f19601f82011682018060405250810190610f5b91906114dd565b1015610a6b57600081600154610f719190611651565b9050803414610f925760405162461bcd60e51b81526004016104bc90611606565b6002546001546040516001600160a01b039092169181156108fc0291906000818181858888f19350505050158015610fce573d6000803e3d6000fd5b5060005b845181101561105957848181518110610fed57610fed61154c565b60200260200101516001600160a01b03166108fc8583815181106110135761101361154c565b60200260200101519081150290604051600060405180830381858888f19350505050158015611046573d6000803e3d6000fd5b5080611051816115ed565b915050610fd2565b5050505050565b611068611161565b6001600160a01b0381166110cd5760405162461bcd60e51b815260206004820152602660248201527f4f776e61626c653a206e6577206f776e657220697320746865207a65726f206160448201526564647265737360d01b60648201526084016104bc565b6110d6816111bb565b50565b6110e1611161565b30318111156111305760405162461bcd60e51b815260206004820152601b60248201527a696e76616c69642062616c616e636520746f20776974686472617760281b60448201526064016104bc565b604051339082156108fc029083906000818181858888f1935050505015801561115d573d6000803e3d6000fd5b5050565b6000546001600160a01b0316331461058a5760405162461bcd60e51b815260206004820181905260248201527f4f776e61626c653a2063616c6c6572206973206e6f7420746865206f776e657260448201526064016104bc565b600080546001600160a01b038381166001600160a01b0319831681178455604051919092169283917f8be0079c531659141344cd1fd0a4f28419497f9722a3daafe3b4186f6b6457e09190a35050565b6001600160a01b03811681146110d657600080fd5b6000806040838503121561123357600080fd5b8235915060208301356112458161120b565b809150509250929050565b6000806040838503121561126357600080fd5b823561126e8161120b565b946020939093013593505050565b60006020828403121561128e57600080fd5b81356112998161120b565b9392505050565b6001600160a01b0391909116815260200190565b634e487b7160e01b600052604160045260246000fd5b604051601f8201601f191681016001600160401b03811182821017156112f2576112f26112b4565b604052919050565b60006001600160401b03821115611313576113136112b4565b5060051b60200190565b600082601f83011261132e57600080fd5b8135602061134361133e836112fa565b6112ca565b82815260059290921b8401810191818101908684111561136257600080fd5b8286015b848110156113865780356113798161120b565b8352918301918301611366565b509695505050505050565b600082601f8301126113a257600080fd5b813560206113b261133e836112fa565b82815260059290921b840181019181810190868411156113d157600080fd5b8286015b8481101561138657803583529183019183016113d5565b60008060006060848603121561140157600080fd5b833561140c8161120b565b925060208401356001600160401b038082111561142857600080fd5b6114348783880161131d565b9350604086013591508082111561144a57600080fd5b5061145786828701611391565b9150509250925092565b6000806040838503121561147457600080fd5b82356001600160401b038082111561148b57600080fd5b6114978683870161131d565b935060208501359150808211156114ad57600080fd5b506114ba85828601611391565b9150509250929050565b6000602082840312156114d657600080fd5b5035919050565b6000602082840312156114ef57600080fd5b5051919050565b6020808252601590820152741d1bdad95b881a1bdb191a5b99c81a5b9d985b1a59605a1b604082015260600190565b6020808252600d908201526c1a5b9d985b1a59081a5b9c1d5d609a1b604082015260600190565b634e487b7160e01b600052603260045260246000fd5b6001600160a01b039384168152919092166020820152604081019190915260600190565b60006020828403121561159857600080fd5b8151801515811461129957600080fd5b60208082526015908201527432b93937b91034b7103234b9ba3934b13aba34b7b760591b604082015260600190565b634e487b7160e01b600052601160045260246000fd5b6000600182016115ff576115ff6115d7565b5060010190565b6020808252602b908201527f686f6c64696e67202620617574686f72697a6174696f6e2066616c736520706160408201526a792065786163742066656560a81b606082015260800190565b60008219821115611664576116646115d7565b50019056fea2646970667358221220c5ef9ed6cdb996a81768cde690905a32c50dc4ad66688802dbf57a65234d180664736f6c634300080d0033",
					"opcodes": "PUSH1 0x80 PUSH1 0x40 MSTORE CALLVALUE DUP1 ISZERO PUSH2 0x10 JUMPI PUSH1 0x0 DUP1 REVERT JUMPDEST POP PUSH2 0x1A CALLER PUSH2 0x4B JUMP JUMPDEST PUSH1 0x0 SLOAD PUSH1 0x2 DUP1 SLOAD PUSH1 0x1 PUSH1 0x1 PUSH1 0xA0 SHL SUB NOT AND PUSH1 0x1 PUSH1 0x1 PUSH1 0xA0 SHL SUB SWAP1 SWAP3 AND SWAP2 SWAP1 SWAP2 OR SWAP1 SSTORE PUSH6 0x5AF3107A4000 PUSH1 0x1 SSTORE PUSH2 0x9B JUMP JUMPDEST PUSH1 0x0 DUP1 SLOAD PUSH1 0x1 PUSH1 0x1 PUSH1 0xA0 SHL SUB DUP4 DUP2 AND PUSH1 0x1 PUSH1 0x1 PUSH1 0xA0 SHL SUB NOT DUP4 AND DUP2 OR DUP5 SSTORE PUSH1 0x40 MLOAD SWAP2 SWAP1 SWAP3 AND SWAP3 DUP4 SWAP2 PUSH32 0x8BE0079C531659141344CD1FD0A4F28419497F9722A3DAAFE3B4186F6B6457E0 SWAP2 SWAP1 LOG3 POP POP JUMP JUMPDEST PUSH2 0x169F DUP1 PUSH2 0xAA PUSH1 0x0 CODECOPY PUSH1 0x0 RETURN INVALID PUSH1 0x80 PUSH1 0x40 MSTORE PUSH1 0x4 CALLDATASIZE LT PUSH2 0xF8 JUMPI PUSH1 0x0 CALLDATALOAD PUSH1 0xE0 SHR DUP1 PUSH4 0x8DA5CB5B GT PUSH2 0x90 JUMPI DUP1 PUSH4 0x8DA5CB5B EQ PUSH2 0x239 JUMPI DUP1 PUSH4 0x9CBD3433 EQ PUSH2 0x260 JUMPI DUP1 PUSH4 0x9D76EA58 EQ PUSH2 0x273 JUMPI DUP1 PUSH4 0x9E281A98 EQ PUSH2 0x293 JUMPI DUP1 PUSH4 0xA4DF0256 EQ PUSH2 0x2B3 JUMPI DUP1 PUSH4 0xD908E6CE EQ PUSH2 0x2EC JUMPI DUP1 PUSH4 0xDDCA3F43 EQ PUSH2 0x2FF JUMPI DUP1 PUSH4 0xF2FDE38B EQ PUSH2 0x315 JUMPI DUP1 PUSH4 0xF7260D3E EQ PUSH2 0x335 JUMPI DUP1 PUSH4 0xF9F95A0F EQ PUSH2 0x355 JUMPI PUSH1 0x0 DUP1 REVERT JUMPDEST DUP1 PUSH4 0x126CCD94 EQ PUSH2 0x104 JUMPI DUP1 PUSH4 0x17FC45E2 EQ PUSH2 0x126 JUMPI DUP1 PUSH4 0x2FC75EB0 EQ PUSH2 0x14F JUMPI DUP1 PUSH4 0x3AECD0E3 EQ PUSH2 0x16F JUMPI DUP1 PUSH4 0x44B6209D EQ PUSH2 0x18F JUMPI DUP1 PUSH4 0x478AA69E EQ PUSH2 0x1CF JUMPI DUP1 PUSH4 0x67C2A360 EQ PUSH2 0x1EF JUMPI DUP1 PUSH4 0x715018A6 EQ PUSH2 0x20F JUMPI DUP1 PUSH4 0x8B7AFE2E EQ PUSH2 0x224 JUMPI PUSH1 0x0 DUP1 REVERT JUMPDEST CALLDATASIZE PUSH2 0xFF JUMPI STOP JUMPDEST PUSH1 0x0 DUP1 REVERT JUMPDEST CALLVALUE DUP1 ISZERO PUSH2 0x110 JUMPI PUSH1 0x0 DUP1 REVERT JUMPDEST POP PUSH2 0x124 PUSH2 0x11F CALLDATASIZE PUSH1 0x4 PUSH2 0x1220 JUMP JUMPDEST PUSH2 0x375 JUMP JUMPDEST STOP JUMPDEST CALLVALUE DUP1 ISZERO PUSH2 0x132 JUMPI PUSH1 0x0 DUP1 REVERT JUMPDEST POP PUSH2 0x13C PUSH1 0x5 SLOAD DUP2 JUMP JUMPDEST PUSH1 0x40 MLOAD SWAP1 DUP2 MSTORE PUSH1 0x20 ADD JUMPDEST PUSH1 0x40 MLOAD DUP1 SWAP2 SUB SWAP1 RETURN JUMPDEST CALLVALUE DUP1 ISZERO PUSH2 0x15B JUMPI PUSH1 0x0 DUP1 REVERT JUMPDEST POP PUSH2 0x124 PUSH2 0x16A CALLDATASIZE PUSH1 0x4 PUSH2 0x1250 JUMP JUMPDEST PUSH2 0x3A4 JUMP JUMPDEST CALLVALUE DUP1 ISZERO PUSH2 0x17B JUMPI PUSH1 0x0 DUP1 REVERT JUMPDEST POP PUSH2 0x13C PUSH2 0x18A CALLDATASIZE PUSH1 0x4 PUSH2 0x127C JUMP JUMPDEST PUSH2 0x3D2 JUMP JUMPDEST CALLVALUE DUP1 ISZERO PUSH2 0x19B JUMPI PUSH1 0x0 DUP1 REVERT JUMPDEST POP PUSH2 0x1BF PUSH2 0x1AA CALLDATASIZE PUSH1 0x4 PUSH2 0x127C JUMP JUMPDEST PUSH1 0x3 PUSH1 0x20 MSTORE PUSH1 0x0 SWAP1 DUP2 MSTORE PUSH1 0x40 SWAP1 KECCAK256 SLOAD PUSH1 0xFF AND DUP2 JUMP JUMPDEST PUSH1 0x40 MLOAD SWAP1 ISZERO ISZERO DUP2 MSTORE PUSH1 0x20 ADD PUSH2 0x146 JUMP JUMPDEST CALLVALUE DUP1 ISZERO PUSH2 0x1DB JUMPI PUSH1 0x0 DUP1 REVERT JUMPDEST POP PUSH2 0x124 PUSH2 0x1EA CALLDATASIZE PUSH1 0x4 PUSH2 0x127C JUMP JUMPDEST PUSH2 0x44B JUMP JUMPDEST CALLVALUE DUP1 ISZERO PUSH2 0x1FB JUMPI PUSH1 0x0 DUP1 REVERT JUMPDEST POP PUSH2 0x124 PUSH2 0x20A CALLDATASIZE PUSH1 0x4 PUSH2 0x127C JUMP JUMPDEST PUSH2 0x4E6 JUMP JUMPDEST CALLVALUE DUP1 ISZERO PUSH2 0x21B JUMPI PUSH1 0x0 DUP1 REVERT JUMPDEST POP PUSH2 0x124 PUSH2 0x578 JUMP JUMPDEST CALLVALUE DUP1 ISZERO PUSH2 0x230 JUMPI PUSH1 0x0 DUP1 REVERT JUMPDEST POP PUSH2 0x13C PUSH2 0x58C JUMP JUMPDEST CALLVALUE DUP1 ISZERO PUSH2 0x245 JUMPI PUSH1 0x0 DUP1 REVERT JUMPDEST POP PUSH1 0x0 SLOAD PUSH1 0x1 PUSH1 0x1 PUSH1 0xA0 SHL SUB AND JUMPDEST PUSH1 0x40 MLOAD PUSH2 0x146 SWAP2 SWAP1 PUSH2 0x12A0 JUMP JUMPDEST PUSH2 0x124 PUSH2 0x26E CALLDATASIZE PUSH1 0x4 PUSH2 0x13EC JUMP JUMPDEST PUSH2 0x59C JUMP JUMPDEST CALLVALUE DUP1 ISZERO PUSH2 0x27F JUMPI PUSH1 0x0 DUP1 REVERT JUMPDEST POP PUSH1 0x4 SLOAD PUSH2 0x253 SWAP1 PUSH1 0x1 PUSH1 0x1 PUSH1 0xA0 SHL SUB AND DUP2 JUMP JUMPDEST CALLVALUE DUP1 ISZERO PUSH2 0x29F JUMPI PUSH1 0x0 DUP1 REVERT JUMPDEST POP PUSH2 0x124 PUSH2 0x2AE CALLDATASIZE PUSH1 0x4 PUSH2 0x1250 JUMP JUMPDEST PUSH2 0xA70 JUMP JUMPDEST CALLVALUE DUP1 ISZERO PUSH2 0x2BF JUMPI PUSH1 0x0 DUP1 REVERT JUMPDEST POP PUSH2 0x1BF PUSH2 0x2CE CALLDATASIZE PUSH1 0x4 PUSH2 0x127C JUMP JUMPDEST PUSH1 0x1 PUSH1 0x1 PUSH1 0xA0 SHL SUB AND PUSH1 0x0 SWAP1 DUP2 MSTORE PUSH1 0x3 PUSH1 0x20 MSTORE PUSH1 0x40 SWAP1 KECCAK256 SLOAD PUSH1 0xFF AND SWAP1 JUMP JUMPDEST PUSH2 0x124 PUSH2 0x2FA CALLDATASIZE PUSH1 0x4 PUSH2 0x1461 JUMP JUMPDEST PUSH2 0xBB2 JUMP JUMPDEST CALLVALUE DUP1 ISZERO PUSH2 0x30B JUMPI PUSH1 0x0 DUP1 REVERT JUMPDEST POP PUSH2 0x13C PUSH1 0x1 SLOAD DUP2 JUMP JUMPDEST CALLVALUE DUP1 ISZERO PUSH2 0x321 JUMPI PUSH1 0x0 DUP1 REVERT JUMPDEST POP PUSH2 0x124 PUSH2 0x330 CALLDATASIZE PUSH1 0x4 PUSH2 0x127C JUMP JUMPDEST PUSH2 0x1060 JUMP JUMPDEST CALLVALUE DUP1 ISZERO PUSH2 0x341 JUMPI PUSH1 0x0 DUP1 REVERT JUMPDEST POP PUSH1 0x2 SLOAD PUSH2 0x253 SWAP1 PUSH1 0x1 PUSH1 0x1 PUSH1 0xA0 SHL SUB AND DUP2 JUMP JUMPDEST CALLVALUE DUP1 ISZERO PUSH2 0x361 JUMPI PUSH1 0x0 DUP1 REVERT JUMPDEST POP PUSH2 0x124 PUSH2 0x370 CALLDATASIZE PUSH1 0x4 PUSH2 0x14C4 JUMP JUMPDEST PUSH2 0x10D9 JUMP JUMPDEST PUSH2 0x37D PUSH2 0x1161 JUMP JUMPDEST PUSH1 0x1 SWAP2 SWAP1 SWAP2 SSTORE PUSH1 0x2 DUP1 SLOAD PUSH1 0x1 PUSH1 0x1 PUSH1 0xA0 SHL SUB NOT AND PUSH1 0x1 PUSH1 0x1 PUSH1 0xA0 SHL SUB SWAP1 SWAP3 AND SWAP2 SWAP1 SWAP2 OR SWAP1 SSTORE JUMP JUMPDEST PUSH2 0x3AC PUSH2 0x1161 JUMP JUMPDEST PUSH1 0x4 DUP1 SLOAD PUSH1 0x1 PUSH1 0x1 PUSH1 0xA0 SHL SUB NOT AND PUSH1 0x1 PUSH1 0x1 PUSH1 0xA0 SHL SUB SWAP4 SWAP1 SWAP4 AND SWAP3 SWAP1 SWAP3 OR SWAP1 SWAP2 SSTORE PUSH1 0x5 SSTORE JUMP JUMPDEST PUSH1 0x4 DUP1 SLOAD PUSH1 0x40 MLOAD PUSH4 0x70A08231 PUSH1 0xE0 SHL DUP2 MSTORE PUSH1 0x0 SWAP3 PUSH1 0x1 PUSH1 0x1 PUSH1 0xA0 SHL SUB SWAP1 SWAP3 AND SWAP2 PUSH4 0x70A08231 SWAP2 PUSH2 0x404 SWAP2 DUP7 SWAP2 ADD PUSH2 0x12A0 JUMP JUMPDEST PUSH1 0x20 PUSH1 0x40 MLOAD DUP1 DUP4 SUB DUP2 DUP7 GAS STATICCALL ISZERO DUP1 ISZERO PUSH2 0x421 JUMPI RETURNDATASIZE PUSH1 0x0 DUP1 RETURNDATACOPY RETURNDATASIZE PUSH1 0x0 REVERT JUMPDEST POP POP POP POP PUSH1 0x40 MLOAD RETURNDATASIZE PUSH1 0x1F NOT PUSH1 0x1F DUP3 ADD AND DUP3 ADD DUP1 PUSH1 0x40 MSTORE POP DUP2 ADD SWAP1 PUSH2 0x445 SWAP2 SWAP1 PUSH2 0x14DD JUMP JUMPDEST SWAP3 SWAP2 POP POP JUMP JUMPDEST PUSH2 0x453 PUSH2 0x1161 JUMP JUMPDEST PUSH1 0x1 PUSH1 0x1 PUSH1 0xA0 SHL SUB DUP2 AND PUSH1 0x0 SWAP1 DUP2 MSTORE PUSH1 0x3 PUSH1 0x20 MSTORE PUSH1 0x40 SWAP1 KECCAK256 SLOAD PUSH1 0xFF AND ISZERO ISZERO PUSH1 0x1 EQ PUSH2 0x4C5 JUMPI PUSH1 0x40 MLOAD PUSH3 0x461BCD PUSH1 0xE5 SHL DUP2 MSTORE PUSH1 0x20 PUSH1 0x4 DUP3 ADD MSTORE PUSH1 0x1C PUSH1 0x24 DUP3 ADD MSTORE PUSH32 0x7573657220697320616C726561647920756E617574686F72697A656400000000 PUSH1 0x44 DUP3 ADD MSTORE PUSH1 0x64 ADD JUMPDEST PUSH1 0x40 MLOAD DUP1 SWAP2 SUB SWAP1 REVERT JUMPDEST PUSH1 0x1 PUSH1 0x1 PUSH1 0xA0 SHL SUB AND PUSH1 0x0 SWAP1 DUP2 MSTORE PUSH1 0x3 PUSH1 0x20 MSTORE PUSH1 0x40 SWAP1 KECCAK256 DUP1 SLOAD PUSH1 0xFF NOT AND SWAP1 SSTORE JUMP JUMPDEST PUSH2 0x4EE PUSH2 0x1161 JUMP JUMPDEST PUSH1 0x1 PUSH1 0x1 PUSH1 0xA0 SHL SUB DUP2 AND PUSH1 0x0 SWAP1 DUP2 MSTORE PUSH1 0x3 PUSH1 0x20 MSTORE PUSH1 0x40 SWAP1 KECCAK256 SLOAD PUSH1 0xFF AND ISZERO PUSH2 0x554 JUMPI PUSH1 0x40 MLOAD PUSH3 0x461BCD PUSH1 0xE5 SHL DUP2 MSTORE PUSH1 0x20 PUSH1 0x4 DUP3 ADD MSTORE PUSH1 0x1A PUSH1 0x24 DUP3 ADD MSTORE PUSH26 0x1D5CD95C881A5CC8185B1C9958591E48185D5D1A1BDC9A5E9959 PUSH1 0x32 SHL PUSH1 0x44 DUP3 ADD MSTORE PUSH1 0x64 ADD PUSH2 0x4BC JUMP JUMPDEST PUSH1 0x1 PUSH1 0x1 PUSH1 0xA0 SHL SUB AND PUSH1 0x0 SWAP1 DUP2 MSTORE PUSH1 0x3 PUSH1 0x20 MSTORE PUSH1 0x40 SWAP1 KECCAK256 DUP1 SLOAD PUSH1 0xFF NOT AND PUSH1 0x1 OR SWAP1 SSTORE JUMP JUMPDEST PUSH2 0x580 PUSH2 0x1161 JUMP JUMPDEST PUSH2 0x58A PUSH1 0x0 PUSH2 0x11BB JUMP JUMPDEST JUMP JUMPDEST PUSH1 0x0 PUSH2 0x596 PUSH2 0x1161 JUMP JUMPDEST POP ADDRESS BALANCE SWAP1 JUMP JUMPDEST PUSH1 0x4 SLOAD PUSH1 0x1 PUSH1 0x1 PUSH1 0xA0 SHL SUB AND PUSH2 0x5C4 JUMPI PUSH1 0x40 MLOAD PUSH3 0x461BCD PUSH1 0xE5 SHL DUP2 MSTORE PUSH1 0x4 ADD PUSH2 0x4BC SWAP1 PUSH2 0x14F6 JUMP JUMPDEST PUSH1 0x1 PUSH1 0x1 PUSH1 0x1 PUSH1 0xA0 SHL SUB DUP5 AND EXTCODESIZE ISZERO ISZERO EQ PUSH2 0x611 JUMPI PUSH1 0x40 MLOAD PUSH3 0x461BCD PUSH1 0xE5 SHL DUP2 MSTORE PUSH1 0x20 PUSH1 0x4 DUP3 ADD MSTORE PUSH1 0xE PUSH1 0x24 DUP3 ADD MSTORE PUSH14 0x1B9BDD08184818DBDB9D1C9858DD PUSH1 0x92 SHL PUSH1 0x44 DUP3 ADD MSTORE PUSH1 0x64 ADD PUSH2 0x4BC JUMP JUMPDEST DUP1 MLOAD DUP3 MLOAD EQ PUSH2 0x632 JUMPI PUSH1 0x40 MLOAD PUSH3 0x461BCD PUSH1 0xE5 SHL DUP2 MSTORE PUSH1 0x4 ADD PUSH2 0x4BC SWAP1 PUSH2 0x1525 JUMP JUMPDEST CALLER PUSH1 0x0 SWAP1 DUP2 MSTORE PUSH1 0x3 PUSH1 0x20 MSTORE PUSH1 0x40 SWAP1 KECCAK256 SLOAD PUSH1 0xFF AND ISZERO PUSH2 0x72F JUMPI PUSH1 0x0 JUMPDEST DUP2 MLOAD DUP2 LT ISZERO PUSH2 0x729 JUMPI DUP4 PUSH1 0x1 PUSH1 0x1 PUSH1 0xA0 SHL SUB AND PUSH4 0x23B872DD CALLER DUP6 DUP5 DUP2 MLOAD DUP2 LT PUSH2 0x678 JUMPI PUSH2 0x678 PUSH2 0x154C JUMP JUMPDEST PUSH1 0x20 MUL PUSH1 0x20 ADD ADD MLOAD DUP6 DUP6 DUP2 MLOAD DUP2 LT PUSH2 0x692 JUMPI PUSH2 0x692 PUSH2 0x154C JUMP JUMPDEST PUSH1 0x20 MUL PUSH1 0x20 ADD ADD MLOAD PUSH1 0x40 MLOAD DUP5 PUSH4 0xFFFFFFFF AND PUSH1 0xE0 SHL DUP2 MSTORE PUSH1 0x4 ADD PUSH2 0x6B8 SWAP4 SWAP3 SWAP2 SWAP1 PUSH2 0x1562 JUMP JUMPDEST PUSH1 0x20 PUSH1 0x40 MLOAD DUP1 DUP4 SUB DUP2 PUSH1 0x0 DUP8 GAS CALL ISZERO DUP1 ISZERO PUSH2 0x6D7 JUMPI RETURNDATASIZE PUSH1 0x0 DUP1 RETURNDATACOPY RETURNDATASIZE PUSH1 0x0 REVERT JUMPDEST POP POP POP POP PUSH1 0x40 MLOAD RETURNDATASIZE PUSH1 0x1F NOT PUSH1 0x1F DUP3 ADD AND DUP3 ADD DUP1 PUSH1 0x40 MSTORE POP DUP2 ADD SWAP1 PUSH2 0x6FB SWAP2 SWAP1 PUSH2 0x1586 JUMP JUMPDEST PUSH2 0x717 JUMPI PUSH1 0x40 MLOAD PUSH3 0x461BCD PUSH1 0xE5 SHL DUP2 MSTORE PUSH1 0x4 ADD PUSH2 0x4BC SWAP1 PUSH2 0x15A8 JUMP JUMPDEST DUP1 PUSH2 0x721 DUP2 PUSH2 0x15ED JUMP JUMPDEST SWAP2 POP POP PUSH2 0x64D JUMP JUMPDEST POP POP POP POP JUMP JUMPDEST CALLER PUSH1 0x0 SWAP1 DUP2 MSTORE PUSH1 0x3 PUSH1 0x20 MSTORE PUSH1 0x40 SWAP1 KECCAK256 SLOAD PUSH1 0xFF AND PUSH2 0xA6B JUMPI PUSH1 0x5 SLOAD PUSH1 0x4 DUP1 SLOAD PUSH1 0x40 MLOAD PUSH4 0x70A08231 PUSH1 0xE0 SHL DUP2 MSTORE PUSH1 0x1 PUSH1 0x1 PUSH1 0xA0 SHL SUB SWAP1 SWAP2 AND SWAP2 PUSH4 0x70A08231 SWAP2 PUSH2 0x778 SWAP2 CALLER SWAP2 ADD PUSH2 0x12A0 JUMP JUMPDEST PUSH1 0x20 PUSH1 0x40 MLOAD DUP1 DUP4 SUB DUP2 DUP7 GAS STATICCALL ISZERO DUP1 ISZERO PUSH2 0x795 JUMPI RETURNDATASIZE PUSH1 0x0 DUP1 RETURNDATACOPY RETURNDATASIZE PUSH1 0x0 REVERT JUMPDEST POP POP POP POP PUSH1 0x40 MLOAD RETURNDATASIZE PUSH1 0x1F NOT PUSH1 0x1F DUP3 ADD AND DUP3 ADD DUP1 PUSH1 0x40 MSTORE POP DUP2 ADD SWAP1 PUSH2 0x7B9 SWAP2 SWAP1 PUSH2 0x14DD JUMP JUMPDEST LT PUSH2 0x8B5 JUMPI CALLER PUSH1 0x0 SWAP1 DUP2 MSTORE PUSH1 0x3 PUSH1 0x20 MSTORE PUSH1 0x40 DUP2 KECCAK256 DUP1 SLOAD PUSH1 0xFF NOT AND PUSH1 0x1 OR SWAP1 SSTORE JUMPDEST DUP2 MLOAD DUP2 LT ISZERO PUSH2 0x729 JUMPI DUP4 PUSH1 0x1 PUSH1 0x1 PUSH1 0xA0 SHL SUB AND PUSH4 0x23B872DD CALLER DUP6 DUP5 DUP2 MLOAD DUP2 LT PUSH2 0x804 JUMPI PUSH2 0x804 PUSH2 0x154C JUMP JUMPDEST PUSH1 0x20 MUL PUSH1 0x20 ADD ADD MLOAD DUP6 DUP6 DUP2 MLOAD DUP2 LT PUSH2 0x81E JUMPI PUSH2 0x81E PUSH2 0x154C JUMP JUMPDEST PUSH1 0x20 MUL PUSH1 0x20 ADD ADD MLOAD PUSH1 0x40 MLOAD DUP5 PUSH4 0xFFFFFFFF AND PUSH1 0xE0 SHL DUP2 MSTORE PUSH1 0x4 ADD PUSH2 0x844 SWAP4 SWAP3 SWAP2 SWAP1 PUSH2 0x1562 JUMP JUMPDEST PUSH1 0x20 PUSH1 0x40 MLOAD DUP1 DUP4 SUB DUP2 PUSH1 0x0 DUP8 GAS CALL ISZERO DUP1 ISZERO PUSH2 0x863 JUMPI RETURNDATASIZE PUSH1 0x0 DUP1 RETURNDATACOPY RETURNDATASIZE PUSH1 0x0 REVERT JUMPDEST POP POP POP POP PUSH1 0x40 MLOAD RETURNDATASIZE PUSH1 0x1F NOT PUSH1 0x1F DUP3 ADD AND DUP3 ADD DUP1 PUSH1 0x40 MSTORE POP DUP2 ADD SWAP1 PUSH2 0x887 SWAP2 SWAP1 PUSH2 0x1586 JUMP JUMPDEST PUSH2 0x8A3 JUMPI PUSH1 0x40 MLOAD PUSH3 0x461BCD PUSH1 0xE5 SHL DUP2 MSTORE PUSH1 0x4 ADD PUSH2 0x4BC SWAP1 PUSH2 0x15A8 JUMP JUMPDEST DUP1 PUSH2 0x8AD DUP2 PUSH2 0x15ED JUMP JUMPDEST SWAP2 POP POP PUSH2 0x7D9 JUMP JUMPDEST PUSH1 0x5 SLOAD PUSH1 0x4 DUP1 SLOAD PUSH1 0x40 MLOAD PUSH4 0x70A08231 PUSH1 0xE0 SHL DUP2 MSTORE PUSH1 0x1 PUSH1 0x1 PUSH1 0xA0 SHL SUB SWAP1 SWAP2 AND SWAP2 PUSH4 0x70A08231 SWAP2 PUSH2 0x8E7 SWAP2 CALLER SWAP2 ADD PUSH2 0x12A0 JUMP JUMPDEST PUSH1 0x20 PUSH1 0x40 MLOAD DUP1 DUP4 SUB DUP2 DUP7 GAS STATICCALL ISZERO DUP1 ISZERO PUSH2 0x904 JUMPI RETURNDATASIZE PUSH1 0x0 DUP1 RETURNDATACOPY RETURNDATASIZE PUSH1 0x0 REVERT JUMPDEST POP POP POP POP PUSH1 0x40 MLOAD RETURNDATASIZE PUSH1 0x1F NOT PUSH1 0x1F DUP3 ADD AND DUP3 ADD DUP1 PUSH1 0x40 MSTORE POP DUP2 ADD SWAP1 PUSH2 0x928 SWAP2 SWAP1 PUSH2 0x14DD JUMP JUMPDEST LT ISZERO PUSH2 0xA6B JUMPI PUSH1 0x1 SLOAD CALLVALUE EQ PUSH2 0x94F JUMPI PUSH1 0x40 MLOAD PUSH3 0x461BCD PUSH1 0xE5 SHL DUP2 MSTORE PUSH1 0x4 ADD PUSH2 0x4BC SWAP1 PUSH2 0x1606 JUMP JUMPDEST PUSH1 0x2 SLOAD PUSH1 0x1 SLOAD PUSH1 0x40 MLOAD PUSH1 0x1 PUSH1 0x1 PUSH1 0xA0 SHL SUB SWAP1 SWAP3 AND SWAP2 DUP2 ISZERO PUSH2 0x8FC MUL SWAP2 SWAP1 PUSH1 0x0 DUP2 DUP2 DUP2 DUP6 DUP9 DUP9 CALL SWAP4 POP POP POP POP ISZERO DUP1 ISZERO PUSH2 0x98B JUMPI RETURNDATASIZE PUSH1 0x0 DUP1 RETURNDATACOPY RETURNDATASIZE PUSH1 0x0 REVERT JUMPDEST POP PUSH1 0x0 JUMPDEST DUP2 MLOAD DUP2 LT ISZERO PUSH2 0x729 JUMPI DUP4 PUSH1 0x1 PUSH1 0x1 PUSH1 0xA0 SHL SUB AND PUSH4 0x23B872DD CALLER DUP6 DUP5 DUP2 MLOAD DUP2 LT PUSH2 0x9BA JUMPI PUSH2 0x9BA PUSH2 0x154C JUMP JUMPDEST PUSH1 0x20 MUL PUSH1 0x20 ADD ADD MLOAD DUP6 DUP6 DUP2 MLOAD DUP2 LT PUSH2 0x9D4 JUMPI PUSH2 0x9D4 PUSH2 0x154C JUMP JUMPDEST PUSH1 0x20 MUL PUSH1 0x20 ADD ADD MLOAD PUSH1 0x40 MLOAD DUP5 PUSH4 0xFFFFFFFF AND PUSH1 0xE0 SHL DUP2 MSTORE PUSH1 0x4 ADD PUSH2 0x9FA SWAP4 SWAP3 SWAP2 SWAP1 PUSH2 0x1562 JUMP JUMPDEST PUSH1 0x20 PUSH1 0x40 MLOAD DUP1 DUP4 SUB DUP2 PUSH1 0x0 DUP8 GAS CALL ISZERO DUP1 ISZERO PUSH2 0xA19 JUMPI RETURNDATASIZE PUSH1 0x0 DUP1 RETURNDATACOPY RETURNDATASIZE PUSH1 0x0 REVERT JUMPDEST POP POP POP POP PUSH1 0x40 MLOAD RETURNDATASIZE PUSH1 0x1F NOT PUSH1 0x1F DUP3 ADD AND DUP3 ADD DUP1 PUSH1 0x40 MSTORE POP DUP2 ADD SWAP1 PUSH2 0xA3D SWAP2 SWAP1 PUSH2 0x1586 JUMP JUMPDEST PUSH2 0xA59 JUMPI PUSH1 0x40 MLOAD PUSH3 0x461BCD PUSH1 0xE5 SHL DUP2 MSTORE PUSH1 0x4 ADD PUSH2 0x4BC SWAP1 PUSH2 0x15A8 JUMP JUMPDEST DUP1 PUSH2 0xA63 DUP2 PUSH2 0x15ED JUMP JUMPDEST SWAP2 POP POP PUSH2 0x98F JUMP JUMPDEST POP POP POP JUMP JUMPDEST PUSH2 0xA78 PUSH2 0x1161 JUMP JUMPDEST PUSH1 0x40 MLOAD PUSH4 0x70A08231 PUSH1 0xE0 SHL DUP2 MSTORE DUP2 SWAP1 PUSH1 0x1 PUSH1 0x1 PUSH1 0xA0 SHL SUB DUP5 AND SWAP1 PUSH4 0x70A08231 SWAP1 PUSH2 0xAA6 SWAP1 ADDRESS SWAP1 PUSH1 0x4 ADD PUSH2 0x12A0 JUMP JUMPDEST PUSH1 0x20 PUSH1 0x40 MLOAD DUP1 DUP4 SUB DUP2 DUP7 GAS STATICCALL ISZERO DUP1 ISZERO PUSH2 0xAC3 JUMPI RETURNDATASIZE PUSH1 0x0 DUP1 RETURNDATACOPY RETURNDATASIZE PUSH1 0x0 REVERT JUMPDEST POP POP POP POP PUSH1 0x40 MLOAD RETURNDATASIZE PUSH1 0x1F NOT PUSH1 0x1F DUP3 ADD AND DUP3 ADD DUP1 PUSH1 0x40 MSTORE POP DUP2 ADD SWAP1 PUSH2 0xAE7 SWAP2 SWAP1 PUSH2 0x14DD JUMP JUMPDEST LT ISZERO PUSH2 0xB41 JUMPI PUSH1 0x40 MLOAD PUSH3 0x461BCD PUSH1 0xE5 SHL DUP2 MSTORE PUSH1 0x20 PUSH1 0x4 DUP3 ADD MSTORE PUSH1 0x24 DUP1 DUP3 ADD MSTORE PUSH32 0x636F6E747261637420646F65736E2774206861766520656E6F75676820746F6B PUSH1 0x44 DUP3 ADD MSTORE PUSH4 0x656E2773 PUSH1 0xE0 SHL PUSH1 0x64 DUP3 ADD MSTORE PUSH1 0x84 ADD PUSH2 0x4BC JUMP JUMPDEST PUSH1 0x40 MLOAD PUSH4 0xA9059CBB PUSH1 0xE0 SHL DUP2 MSTORE CALLER PUSH1 0x4 DUP3 ADD MSTORE PUSH1 0x24 DUP2 ADD DUP3 SWAP1 MSTORE PUSH1 0x1 PUSH1 0x1 PUSH1 0xA0 SHL SUB DUP4 AND SWAP1 PUSH4 0xA9059CBB SWAP1 PUSH1 0x44 ADD PUSH1 0x20 PUSH1 0x40 MLOAD DUP1 DUP4 SUB DUP2 PUSH1 0x0 DUP8 GAS CALL ISZERO DUP1 ISZERO PUSH2 0xB8E JUMPI RETURNDATASIZE PUSH1 0x0 DUP1 RETURNDATACOPY RETURNDATASIZE PUSH1 0x0 REVERT JUMPDEST POP POP POP POP PUSH1 0x40 MLOAD RETURNDATASIZE PUSH1 0x1F NOT PUSH1 0x1F DUP3 ADD AND DUP3 ADD DUP1 PUSH1 0x40 MSTORE POP DUP2 ADD SWAP1 PUSH2 0xA6B SWAP2 SWAP1 PUSH2 0x1586 JUMP JUMPDEST PUSH1 0x4 SLOAD PUSH1 0x1 PUSH1 0x1 PUSH1 0xA0 SHL SUB AND PUSH2 0xBDA JUMPI PUSH1 0x40 MLOAD PUSH3 0x461BCD PUSH1 0xE5 SHL DUP2 MSTORE PUSH1 0x4 ADD PUSH2 0x4BC SWAP1 PUSH2 0x14F6 JUMP JUMPDEST DUP1 MLOAD DUP3 MLOAD EQ PUSH2 0xBFB JUMPI PUSH1 0x40 MLOAD PUSH3 0x461BCD PUSH1 0xE5 SHL DUP2 MSTORE PUSH1 0x4 ADD PUSH2 0x4BC SWAP1 PUSH2 0x1525 JUMP JUMPDEST PUSH1 0x0 DUP1 JUMPDEST DUP3 MLOAD DUP2 LT ISZERO PUSH2 0xC41 JUMPI DUP3 DUP2 DUP2 MLOAD DUP2 LT PUSH2 0xC1A JUMPI PUSH2 0xC1A PUSH2 0x154C JUMP JUMPDEST PUSH1 0x20 MUL PUSH1 0x20 ADD ADD MLOAD DUP3 PUSH2 0xC2D SWAP2 SWAP1 PUSH2 0x1651 JUMP JUMPDEST SWAP2 POP DUP1 PUSH2 0xC39 DUP2 PUSH2 0x15ED JUMP JUMPDEST SWAP2 POP POP PUSH2 0xBFF JUMP JUMPDEST POP CALLER PUSH1 0x0 SWAP1 DUP2 MSTORE PUSH1 0x3 PUSH1 0x20 MSTORE PUSH1 0x40 SWAP1 KECCAK256 SLOAD PUSH1 0xFF AND ISZERO PUSH2 0xD46 JUMPI DUP1 CALLVALUE EQ PUSH2 0xCBC JUMPI PUSH1 0x40 MLOAD PUSH3 0x461BCD PUSH1 0xE5 SHL DUP2 MSTORE PUSH1 0x20 PUSH1 0x4 DUP3 ADD MSTORE PUSH1 0x2A PUSH1 0x24 DUP3 ADD MSTORE PUSH32 0x7061792074686520657861637420616D6F756E7420746F20636F766572206469 PUSH1 0x44 DUP3 ADD MSTORE PUSH10 0x39BA3934B13ABA34B7B7 PUSH1 0xB1 SHL PUSH1 0x64 DUP3 ADD MSTORE PUSH1 0x84 ADD PUSH2 0x4BC JUMP JUMPDEST PUSH1 0x0 JUMPDEST DUP4 MLOAD DUP2 LT ISZERO PUSH2 0x729 JUMPI DUP4 DUP2 DUP2 MLOAD DUP2 LT PUSH2 0xCDA JUMPI PUSH2 0xCDA PUSH2 0x154C JUMP JUMPDEST PUSH1 0x20 MUL PUSH1 0x20 ADD ADD MLOAD PUSH1 0x1 PUSH1 0x1 PUSH1 0xA0 SHL SUB AND PUSH2 0x8FC DUP5 DUP4 DUP2 MLOAD DUP2 LT PUSH2 0xD00 JUMPI PUSH2 0xD00 PUSH2 0x154C JUMP JUMPDEST PUSH1 0x20 MUL PUSH1 0x20 ADD ADD MLOAD SWAP1 DUP2 ISZERO MUL SWAP1 PUSH1 0x40 MLOAD PUSH1 0x0 PUSH1 0x40 MLOAD DUP1 DUP4 SUB DUP2 DUP6 DUP9 DUP9 CALL SWAP4 POP POP POP POP ISZERO DUP1 ISZERO PUSH2 0xD33 JUMPI RETURNDATASIZE PUSH1 0x0 DUP1 RETURNDATACOPY RETURNDATASIZE PUSH1 0x0 REVERT JUMPDEST POP DUP1 PUSH2 0xD3E DUP2 PUSH2 0x15ED JUMP JUMPDEST SWAP2 POP POP PUSH2 0xCBF JUMP JUMPDEST CALLER PUSH1 0x0 SWAP1 DUP2 MSTORE PUSH1 0x3 PUSH1 0x20 MSTORE PUSH1 0x40 SWAP1 KECCAK256 SLOAD PUSH1 0xFF AND PUSH2 0xA6B JUMPI PUSH1 0x5 SLOAD PUSH1 0x4 DUP1 SLOAD PUSH1 0x40 MLOAD PUSH4 0x70A08231 PUSH1 0xE0 SHL DUP2 MSTORE PUSH1 0x1 PUSH1 0x1 PUSH1 0xA0 SHL SUB SWAP1 SWAP2 AND SWAP2 PUSH4 0x70A08231 SWAP2 PUSH2 0xD8F SWAP2 CALLER SWAP2 ADD PUSH2 0x12A0 JUMP JUMPDEST PUSH1 0x20 PUSH1 0x40 MLOAD DUP1 DUP4 SUB DUP2 DUP7 GAS STATICCALL ISZERO DUP1 ISZERO PUSH2 0xDAC JUMPI RETURNDATASIZE PUSH1 0x0 DUP1 RETURNDATACOPY RETURNDATASIZE PUSH1 0x0 REVERT JUMPDEST POP POP POP POP PUSH1 0x40 MLOAD RETURNDATASIZE PUSH1 0x1F NOT PUSH1 0x1F DUP3 ADD AND DUP3 ADD DUP1 PUSH1 0x40 MSTORE POP DUP2 ADD SWAP1 PUSH2 0xDD0 SWAP2 SWAP1 PUSH2 0x14DD JUMP JUMPDEST LT PUSH2 0xEE8 JUMPI CALLER PUSH1 0x0 SWAP1 DUP2 MSTORE PUSH1 0x3 PUSH1 0x20 MSTORE PUSH1 0x40 SWAP1 KECCAK256 DUP1 SLOAD PUSH1 0xFF NOT AND PUSH1 0x1 OR SWAP1 SSTORE CALLVALUE DUP2 EQ PUSH2 0xE5E JUMPI PUSH1 0x40 MLOAD PUSH3 0x461BCD PUSH1 0xE5 SHL DUP2 MSTORE PUSH1 0x20 PUSH1 0x4 DUP3 ADD MSTORE PUSH1 0x37 PUSH1 0x24 DUP3 ADD MSTORE PUSH32 0x686F6C64696E67207175616E74697479207472756520627574206D73672E7661 PUSH1 0x44 DUP3 ADD MSTORE PUSH23 0x1B1D59481D5B98D95C9D185A5B881C185E48195E1858DD PUSH1 0x4A SHL PUSH1 0x64 DUP3 ADD MSTORE PUSH1 0x84 ADD PUSH2 0x4BC JUMP JUMPDEST PUSH1 0x0 JUMPDEST DUP4 MLOAD DUP2 LT ISZERO PUSH2 0x729 JUMPI DUP4 DUP2 DUP2 MLOAD DUP2 LT PUSH2 0xE7C JUMPI PUSH2 0xE7C PUSH2 0x154C JUMP JUMPDEST PUSH1 0x20 MUL PUSH1 0x20 ADD ADD MLOAD PUSH1 0x1 PUSH1 0x1 PUSH1 0xA0 SHL SUB AND PUSH2 0x8FC DUP5 DUP4 DUP2 MLOAD DUP2 LT PUSH2 0xEA2 JUMPI PUSH2 0xEA2 PUSH2 0x154C JUMP JUMPDEST PUSH1 0x20 MUL PUSH1 0x20 ADD ADD MLOAD SWAP1 DUP2 ISZERO MUL SWAP1 PUSH1 0x40 MLOAD PUSH1 0x0 PUSH1 0x40 MLOAD DUP1 DUP4 SUB DUP2 DUP6 DUP9 DUP9 CALL SWAP4 POP POP POP POP ISZERO DUP1 ISZERO PUSH2 0xED5 JUMPI RETURNDATASIZE PUSH1 0x0 DUP1 RETURNDATACOPY RETURNDATASIZE PUSH1 0x0 REVERT JUMPDEST POP DUP1 PUSH2 0xEE0 DUP2 PUSH2 0x15ED JUMP JUMPDEST SWAP2 POP POP PUSH2 0xE61 JUMP JUMPDEST PUSH1 0x5 SLOAD PUSH1 0x4 DUP1 SLOAD PUSH1 0x40 MLOAD PUSH4 0x70A08231 PUSH1 0xE0 SHL DUP2 MSTORE PUSH1 0x1 PUSH1 0x1 PUSH1 0xA0 SHL SUB SWAP1 SWAP2 AND SWAP2 PUSH4 0x70A08231 SWAP2 PUSH2 0xF1A SWAP2 CALLER SWAP2 ADD PUSH2 0x12A0 JUMP JUMPDEST PUSH1 0x20 PUSH1 0x40 MLOAD DUP1 DUP4 SUB DUP2 DUP7 GAS STATICCALL ISZERO DUP1 ISZERO PUSH2 0xF37 JUMPI RETURNDATASIZE PUSH1 0x0 DUP1 RETURNDATACOPY RETURNDATASIZE PUSH1 0x0 REVERT JUMPDEST POP POP POP POP PUSH1 0x40 MLOAD RETURNDATASIZE PUSH1 0x1F NOT PUSH1 0x1F DUP3 ADD AND DUP3 ADD DUP1 PUSH1 0x40 MSTORE POP DUP2 ADD SWAP1 PUSH2 0xF5B SWAP2 SWAP1 PUSH2 0x14DD JUMP JUMPDEST LT ISZERO PUSH2 0xA6B JUMPI PUSH1 0x0 DUP2 PUSH1 0x1 SLOAD PUSH2 0xF71 SWAP2 SWAP1 PUSH2 0x1651 JUMP JUMPDEST SWAP1 POP DUP1 CALLVALUE EQ PUSH2 0xF92 JUMPI PUSH1 0x40 MLOAD PUSH3 0x461BCD PUSH1 0xE5 SHL DUP2 MSTORE PUSH1 0x4 ADD PUSH2 0x4BC SWAP1 PUSH2 0x1606 JUMP JUMPDEST PUSH1 0x2 SLOAD PUSH1 0x1 SLOAD PUSH1 0x40 MLOAD PUSH1 0x1 PUSH1 0x1 PUSH1 0xA0 SHL SUB SWAP1 SWAP3 AND SWAP2 DUP2 ISZERO PUSH2 0x8FC MUL SWAP2 SWAP1 PUSH1 0x0 DUP2 DUP2 DUP2 DUP6 DUP9 DUP9 CALL SWAP4 POP POP POP POP ISZERO DUP1 ISZERO PUSH2 0xFCE JUMPI RETURNDATASIZE PUSH1 0x0 DUP1 RETURNDATACOPY RETURNDATASIZE PUSH1 0x0 REVERT JUMPDEST POP PUSH1 0x0 JUMPDEST DUP5 MLOAD DUP2 LT ISZERO PUSH2 0x1059 JUMPI DUP5 DUP2 DUP2 MLOAD DUP2 LT PUSH2 0xFED JUMPI PUSH2 0xFED PUSH2 0x154C JUMP JUMPDEST PUSH1 0x20 MUL PUSH1 0x20 ADD ADD MLOAD PUSH1 0x1 PUSH1 0x1 PUSH1 0xA0 SHL SUB AND PUSH2 0x8FC DUP6 DUP4 DUP2 MLOAD DUP2 LT PUSH2 0x1013 JUMPI PUSH2 0x1013 PUSH2 0x154C JUMP JUMPDEST PUSH1 0x20 MUL PUSH1 0x20 ADD ADD MLOAD SWAP1 DUP2 ISZERO MUL SWAP1 PUSH1 0x40 MLOAD PUSH1 0x0 PUSH1 0x40 MLOAD DUP1 DUP4 SUB DUP2 DUP6 DUP9 DUP9 CALL SWAP4 POP POP POP POP ISZERO DUP1 ISZERO PUSH2 0x1046 JUMPI RETURNDATASIZE PUSH1 0x0 DUP1 RETURNDATACOPY RETURNDATASIZE PUSH1 0x0 REVERT JUMPDEST POP DUP1 PUSH2 0x1051 DUP2 PUSH2 0x15ED JUMP JUMPDEST SWAP2 POP POP PUSH2 0xFD2 JUMP JUMPDEST POP POP POP POP POP JUMP JUMPDEST PUSH2 0x1068 PUSH2 0x1161 JUMP JUMPDEST PUSH1 0x1 PUSH1 0x1 PUSH1 0xA0 SHL SUB DUP2 AND PUSH2 0x10CD JUMPI PUSH1 0x40 MLOAD PUSH3 0x461BCD PUSH1 0xE5 SHL DUP2 MSTORE PUSH1 0x20 PUSH1 0x4 DUP3 ADD MSTORE PUSH1 0x26 PUSH1 0x24 DUP3 ADD MSTORE PUSH32 0x4F776E61626C653A206E6577206F776E657220697320746865207A65726F2061 PUSH1 0x44 DUP3 ADD MSTORE PUSH6 0x646472657373 PUSH1 0xD0 SHL PUSH1 0x64 DUP3 ADD MSTORE PUSH1 0x84 ADD PUSH2 0x4BC JUMP JUMPDEST PUSH2 0x10D6 DUP2 PUSH2 0x11BB JUMP JUMPDEST POP JUMP JUMPDEST PUSH2 0x10E1 PUSH2 0x1161 JUMP JUMPDEST ADDRESS BALANCE DUP2 GT ISZERO PUSH2 0x1130 JUMPI PUSH1 0x40 MLOAD PUSH3 0x461BCD PUSH1 0xE5 SHL DUP2 MSTORE PUSH1 0x20 PUSH1 0x4 DUP3 ADD MSTORE PUSH1 0x1B PUSH1 0x24 DUP3 ADD MSTORE PUSH27 0x696E76616C69642062616C616E636520746F207769746864726177 PUSH1 0x28 SHL PUSH1 0x44 DUP3 ADD MSTORE PUSH1 0x64 ADD PUSH2 0x4BC JUMP JUMPDEST PUSH1 0x40 MLOAD CALLER SWAP1 DUP3 ISZERO PUSH2 0x8FC MUL SWAP1 DUP4 SWAP1 PUSH1 0x0 DUP2 DUP2 DUP2 DUP6 DUP9 DUP9 CALL SWAP4 POP POP POP POP ISZERO DUP1 ISZERO PUSH2 0x115D JUMPI RETURNDATASIZE PUSH1 0x0 DUP1 RETURNDATACOPY RETURNDATASIZE PUSH1 0x0 REVERT JUMPDEST POP POP JUMP JUMPDEST PUSH1 0x0 SLOAD PUSH1 0x1 PUSH1 0x1 PUSH1 0xA0 SHL SUB AND CALLER EQ PUSH2 0x58A JUMPI PUSH1 0x40 MLOAD PUSH3 0x461BCD PUSH1 0xE5 SHL DUP2 MSTORE PUSH1 0x20 PUSH1 0x4 DUP3 ADD DUP2 SWAP1 MSTORE PUSH1 0x24 DUP3 ADD MSTORE PUSH32 0x4F776E61626C653A2063616C6C6572206973206E6F7420746865206F776E6572 PUSH1 0x44 DUP3 ADD MSTORE PUSH1 0x64 ADD PUSH2 0x4BC JUMP JUMPDEST PUSH1 0x0 DUP1 SLOAD PUSH1 0x1 PUSH1 0x1 PUSH1 0xA0 SHL SUB DUP4 DUP2 AND PUSH1 0x1 PUSH1 0x1 PUSH1 0xA0 SHL SUB NOT DUP4 AND DUP2 OR DUP5 SSTORE PUSH1 0x40 MLOAD SWAP2 SWAP1 SWAP3 AND SWAP3 DUP4 SWAP2 PUSH32 0x8BE0079C531659141344CD1FD0A4F28419497F9722A3DAAFE3B4186F6B6457E0 SWAP2 SWAP1 LOG3 POP POP JUMP JUMPDEST PUSH1 0x1 PUSH1 0x1 PUSH1 0xA0 SHL SUB DUP2 AND DUP2 EQ PUSH2 0x10D6 JUMPI PUSH1 0x0 DUP1 REVERT JUMPDEST PUSH1 0x0 DUP1 PUSH1 0x40 DUP4 DUP6 SUB SLT ISZERO PUSH2 0x1233 JUMPI PUSH1 0x0 DUP1 REVERT JUMPDEST DUP3 CALLDATALOAD SWAP2 POP PUSH1 0x20 DUP4 ADD CALLDATALOAD PUSH2 0x1245 DUP2 PUSH2 0x120B JUMP JUMPDEST DUP1 SWAP2 POP POP SWAP3 POP SWAP3 SWAP1 POP JUMP JUMPDEST PUSH1 0x0 DUP1 PUSH1 0x40 DUP4 DUP6 SUB SLT ISZERO PUSH2 0x1263 JUMPI PUSH1 0x0 DUP1 REVERT JUMPDEST DUP3 CALLDATALOAD PUSH2 0x126E DUP2 PUSH2 0x120B JUMP JUMPDEST SWAP5 PUSH1 0x20 SWAP4 SWAP1 SWAP4 ADD CALLDATALOAD SWAP4 POP POP POP JUMP JUMPDEST PUSH1 0x0 PUSH1 0x20 DUP3 DUP5 SUB SLT ISZERO PUSH2 0x128E JUMPI PUSH1 0x0 DUP1 REVERT JUMPDEST DUP2 CALLDATALOAD PUSH2 0x1299 DUP2 PUSH2 0x120B JUMP JUMPDEST SWAP4 SWAP3 POP POP POP JUMP JUMPDEST PUSH1 0x1 PUSH1 0x1 PUSH1 0xA0 SHL SUB SWAP2 SWAP1 SWAP2 AND DUP2 MSTORE PUSH1 0x20 ADD SWAP1 JUMP JUMPDEST PUSH4 0x4E487B71 PUSH1 0xE0 SHL PUSH1 0x0 MSTORE PUSH1 0x41 PUSH1 0x4 MSTORE PUSH1 0x24 PUSH1 0x0 REVERT JUMPDEST PUSH1 0x40 MLOAD PUSH1 0x1F DUP3 ADD PUSH1 0x1F NOT AND DUP2 ADD PUSH1 0x1 PUSH1 0x1 PUSH1 0x40 SHL SUB DUP2 GT DUP3 DUP3 LT OR ISZERO PUSH2 0x12F2 JUMPI PUSH2 0x12F2 PUSH2 0x12B4 JUMP JUMPDEST PUSH1 0x40 MSTORE SWAP2 SWAP1 POP JUMP JUMPDEST PUSH1 0x0 PUSH1 0x1 PUSH1 0x1 PUSH1 0x40 SHL SUB DUP3 GT ISZERO PUSH2 0x1313 JUMPI PUSH2 0x1313 PUSH2 0x12B4 JUMP JUMPDEST POP PUSH1 0x5 SHL PUSH1 0x20 ADD SWAP1 JUMP JUMPDEST PUSH1 0x0 DUP3 PUSH1 0x1F DUP4 ADD SLT PUSH2 0x132E JUMPI PUSH1 0x0 DUP1 REVERT JUMPDEST DUP2 CALLDATALOAD PUSH1 0x20 PUSH2 0x1343 PUSH2 0x133E DUP4 PUSH2 0x12FA JUMP JUMPDEST PUSH2 0x12CA JUMP JUMPDEST DUP3 DUP2 MSTORE PUSH1 0x5 SWAP3 SWAP1 SWAP3 SHL DUP5 ADD DUP2 ADD SWAP2 DUP2 DUP2 ADD SWAP1 DUP7 DUP5 GT ISZERO PUSH2 0x1362 JUMPI PUSH1 0x0 DUP1 REVERT JUMPDEST DUP3 DUP7 ADD JUMPDEST DUP5 DUP2 LT ISZERO PUSH2 0x1386 JUMPI DUP1 CALLDATALOAD PUSH2 0x1379 DUP2 PUSH2 0x120B JUMP JUMPDEST DUP4 MSTORE SWAP2 DUP4 ADD SWAP2 DUP4 ADD PUSH2 0x1366 JUMP JUMPDEST POP SWAP7 SWAP6 POP POP POP POP POP POP JUMP JUMPDEST PUSH1 0x0 DUP3 PUSH1 0x1F DUP4 ADD SLT PUSH2 0x13A2 JUMPI PUSH1 0x0 DUP1 REVERT JUMPDEST DUP2 CALLDATALOAD PUSH1 0x20 PUSH2 0x13B2 PUSH2 0x133E DUP4 PUSH2 0x12FA JUMP JUMPDEST DUP3 DUP2 MSTORE PUSH1 0x5 SWAP3 SWAP1 SWAP3 SHL DUP5 ADD DUP2 ADD SWAP2 DUP2 DUP2 ADD SWAP1 DUP7 DUP5 GT ISZERO PUSH2 0x13D1 JUMPI PUSH1 0x0 DUP1 REVERT JUMPDEST DUP3 DUP7 ADD JUMPDEST DUP5 DUP2 LT ISZERO PUSH2 0x1386 JUMPI DUP1 CALLDATALOAD DUP4 MSTORE SWAP2 DUP4 ADD SWAP2 DUP4 ADD PUSH2 0x13D5 JUMP JUMPDEST PUSH1 0x0 DUP1 PUSH1 0x0 PUSH1 0x60 DUP5 DUP7 SUB SLT ISZERO PUSH2 0x1401 JUMPI PUSH1 0x0 DUP1 REVERT JUMPDEST DUP4 CALLDATALOAD PUSH2 0x140C DUP2 PUSH2 0x120B JUMP JUMPDEST SWAP3 POP PUSH1 0x20 DUP5 ADD CALLDATALOAD PUSH1 0x1 PUSH1 0x1 PUSH1 0x40 SHL SUB DUP1 DUP3 GT ISZERO PUSH2 0x1428 JUMPI PUSH1 0x0 DUP1 REVERT JUMPDEST PUSH2 0x1434 DUP8 DUP4 DUP9 ADD PUSH2 0x131D JUMP JUMPDEST SWAP4 POP PUSH1 0x40 DUP7 ADD CALLDATALOAD SWAP2 POP DUP1 DUP3 GT ISZERO PUSH2 0x144A JUMPI PUSH1 0x0 DUP1 REVERT JUMPDEST POP PUSH2 0x1457 DUP7 DUP3 DUP8 ADD PUSH2 0x1391 JUMP JUMPDEST SWAP2 POP POP SWAP3 POP SWAP3 POP SWAP3 JUMP JUMPDEST PUSH1 0x0 DUP1 PUSH1 0x40 DUP4 DUP6 SUB SLT ISZERO PUSH2 0x1474 JUMPI PUSH1 0x0 DUP1 REVERT JUMPDEST DUP3 CALLDATALOAD PUSH1 0x1 PUSH1 0x1 PUSH1 0x40 SHL SUB DUP1 DUP3 GT ISZERO PUSH2 0x148B JUMPI PUSH1 0x0 DUP1 REVERT JUMPDEST PUSH2 0x1497 DUP7 DUP4 DUP8 ADD PUSH2 0x131D JUMP JUMPDEST SWAP4 POP PUSH1 0x20 DUP6 ADD CALLDATALOAD SWAP2 POP DUP1 DUP3 GT ISZERO PUSH2 0x14AD JUMPI PUSH1 0x0 DUP1 REVERT JUMPDEST POP PUSH2 0x14BA DUP6 DUP3 DUP7 ADD PUSH2 0x1391 JUMP JUMPDEST SWAP2 POP POP SWAP3 POP SWAP3 SWAP1 POP JUMP JUMPDEST PUSH1 0x0 PUSH1 0x20 DUP3 DUP5 SUB SLT ISZERO PUSH2 0x14D6 JUMPI PUSH1 0x0 DUP1 REVERT JUMPDEST POP CALLDATALOAD SWAP2 SWAP1 POP JUMP JUMPDEST PUSH1 0x0 PUSH1 0x20 DUP3 DUP5 SUB SLT ISZERO PUSH2 0x14EF JUMPI PUSH1 0x0 DUP1 REVERT JUMPDEST POP MLOAD SWAP2 SWAP1 POP JUMP JUMPDEST PUSH1 0x20 DUP1 DUP3 MSTORE PUSH1 0x15 SWAP1 DUP3 ADD MSTORE PUSH21 0x1D1BDAD95B881A1BDB191A5B99C81A5B9D985B1A59 PUSH1 0x5A SHL PUSH1 0x40 DUP3 ADD MSTORE PUSH1 0x60 ADD SWAP1 JUMP JUMPDEST PUSH1 0x20 DUP1 DUP3 MSTORE PUSH1 0xD SWAP1 DUP3 ADD MSTORE PUSH13 0x1A5B9D985B1A59081A5B9C1D5D PUSH1 0x9A SHL PUSH1 0x40 DUP3 ADD MSTORE PUSH1 0x60 ADD SWAP1 JUMP JUMPDEST PUSH4 0x4E487B71 PUSH1 0xE0 SHL PUSH1 0x0 MSTORE PUSH1 0x32 PUSH1 0x4 MSTORE PUSH1 0x24 PUSH1 0x0 REVERT JUMPDEST PUSH1 0x1 PUSH1 0x1 PUSH1 0xA0 SHL SUB SWAP4 DUP5 AND DUP2 MSTORE SWAP2 SWAP1 SWAP3 AND PUSH1 0x20 DUP3 ADD MSTORE PUSH1 0x40 DUP2 ADD SWAP2 SWAP1 SWAP2 MSTORE PUSH1 0x60 ADD SWAP1 JUMP JUMPDEST PUSH1 0x0 PUSH1 0x20 DUP3 DUP5 SUB SLT ISZERO PUSH2 0x1598 JUMPI PUSH1 0x0 DUP1 REVERT JUMPDEST DUP2 MLOAD DUP1 ISZERO ISZERO DUP2 EQ PUSH2 0x1299 JUMPI PUSH1 0x0 DUP1 REVERT JUMPDEST PUSH1 0x20 DUP1 DUP3 MSTORE PUSH1 0x15 SWAP1 DUP3 ADD MSTORE PUSH21 0x32B93937B91034B7103234B9BA3934B13ABA34B7B7 PUSH1 0x59 SHL PUSH1 0x40 DUP3 ADD MSTORE PUSH1 0x60 ADD SWAP1 JUMP JUMPDEST PUSH4 0x4E487B71 PUSH1 0xE0 SHL PUSH1 0x0 MSTORE PUSH1 0x11 PUSH1 0x4 MSTORE PUSH1 0x24 PUSH1 0x0 REVERT JUMPDEST PUSH1 0x0 PUSH1 0x1 DUP3 ADD PUSH2 0x15FF JUMPI PUSH2 0x15FF PUSH2 0x15D7 JUMP JUMPDEST POP PUSH1 0x1 ADD SWAP1 JUMP JUMPDEST PUSH1 0x20 DUP1 DUP3 MSTORE PUSH1 0x2B SWAP1 DUP3 ADD MSTORE PUSH32 0x686F6C64696E67202620617574686F72697A6174696F6E2066616C7365207061 PUSH1 0x40 DUP3 ADD MSTORE PUSH11 0x7920657861637420666565 PUSH1 0xA8 SHL PUSH1 0x60 DUP3 ADD MSTORE PUSH1 0x80 ADD SWAP1 JUMP JUMPDEST PUSH1 0x0 DUP3 NOT DUP3 GT ISZERO PUSH2 0x1664 JUMPI PUSH2 0x1664 PUSH2 0x15D7 JUMP JUMPDEST POP ADD SWAP1 JUMP INVALID LOG2 PUSH5 0x6970667358 0x22 SLT KECCAK256 0xC5 0xEF SWAP15 0xD6 0xCD 0xB9 SWAP7 0xA8 OR PUSH9 0xCDE690905A32C50DC4 0xAD PUSH7 0x688802DBF57A65 0x23 0x4D XOR MOD PUSH5 0x736F6C6343 STOP ADDMOD 0xD STOP CALLER "
				},
				"gasEstimates": {
					"creation": {
						"codeDepositCost": "1158200",
						"executionCost": "63516",
						"totalCost": "1221716"
					},
					"external": {
						"SetTokenToholdAndQuantity(address,uint256)": "40901",
						"TOKENmultisender(address,address[],uint256[])": "infinite",
						"authorizeUser(address)": "21314",
						"authorizedusers(address)": "714",
						"coinMultisender(address[],uint256[])": "infinite",
						"contractBalance()": "1041",
						"fee()": "516",
						"getTokenBalance(address)": "infinite",
						"owner()": "444",
						"quantity()": "407",
						"readAuthorizedUsers(address)": "731",
						"receiver()": "637",
						"renounceOwnership()": "infinite",
						"setfeeToUse(uint256,address)": "40870",
						"tokenAddress()": "505",
						"transferOwnership(address)": "infinite",
						"unauthorizeUser(address)": "21295",
						"withdrawCoins(uint256)": "infinite",
						"withdrawToken(address,uint256)": "infinite"
					}
				},
				"methodIdentifiers": {
					"SetTokenToholdAndQuantity(address,uint256)": "2fc75eb0",
					"TOKENmultisender(address,address[],uint256[])": "9cbd3433",
					"authorizeUser(address)": "67c2a360",
					"authorizedusers(address)": "44b6209d",
					"coinMultisender(address[],uint256[])": "d908e6ce",
					"contractBalance()": "8b7afe2e",
					"fee()": "ddca3f43",
					"getTokenBalance(address)": "3aecd0e3",
					"owner()": "8da5cb5b",
					"quantity()": "17fc45e2",
					"readAuthorizedUsers(address)": "a4df0256",
					"receiver()": "f7260d3e",
					"renounceOwnership()": "715018a6",
					"setfeeToUse(uint256,address)": "126ccd94",
					"tokenAddress()": "9d76ea58",
					"transferOwnership(address)": "f2fde38b",
					"unauthorizeUser(address)": "478aa69e",
					"withdrawCoins(uint256)": "f9f95a0f",
					"withdrawToken(address,uint256)": "9e281a98"
				}
			},
			"storageLayout": {
				"storage": [
					{
						"astId": 356,
						"contract": "contracts/SnipeFinanceMultisenders_flattened.sol:SnipeFinanceMultisenders",
						"label": "_owner",
						"offset": 0,
						"slot": "0",
						"type": "t_address"
					},
					{
						"astId": 546,
						"contract": "contracts/SnipeFinanceMultisenders_flattened.sol:SnipeFinanceMultisenders",
						"label": "fee",
						"offset": 0,
						"slot": "1",
						"type": "t_uint256"
					},
					{
						"astId": 548,
						"contract": "contracts/SnipeFinanceMultisenders_flattened.sol:SnipeFinanceMultisenders",
						"label": "receiver",
						"offset": 0,
						"slot": "2",
						"type": "t_address_payable"
					},
					{
						"astId": 552,
						"contract": "contracts/SnipeFinanceMultisenders_flattened.sol:SnipeFinanceMultisenders",
						"label": "authorizedusers",
						"offset": 0,
						"slot": "3",
						"type": "t_mapping(t_address,t_bool)"
					},
					{
						"astId": 555,
						"contract": "contracts/SnipeFinanceMultisenders_flattened.sol:SnipeFinanceMultisenders",
						"label": "tokenAddress",
						"offset": 0,
						"slot": "4",
						"type": "t_contract(IERC20)538"
					},
					{
						"astId": 557,
						"contract": "contracts/SnipeFinanceMultisenders_flattened.sol:SnipeFinanceMultisenders",
						"label": "quantity",
						"offset": 0,
						"slot": "5",
						"type": "t_uint256"
					}
				],
				"types": {
					"t_address": {
						"encoding": "inplace",
						"label": "address",
						"numberOfBytes": "20"
					},
					"t_address_payable": {
						"encoding": "inplace",
						"label": "address payable",
						"numberOfBytes": "20"
					},
					"t_bool": {
						"encoding": "inplace",
						"label": "bool",
						"numberOfBytes": "1"
					},
					"t_contract(IERC20)538": {
						"encoding": "inplace",
						"label": "contract IERC20",
						"numberOfBytes": "20"
					},
					"t_mapping(t_address,t_bool)": {
						"encoding": "mapping",
						"key": "t_address",
						"label": "mapping(address => bool)",
						"numberOfBytes": "32",
						"value": "t_bool"
					},
					"t_uint256": {
						"encoding": "inplace",
						"label": "uint256",
						"numberOfBytes": "32"
					}
				}
			},
			"userdoc": {
				"kind": "user",
				"methods": {},
				"version": 1
			}
		}
	}
}