{
	"SwapBot/swapo.sol": {
		"Swap": {
			"abi": [
				{
					"inputs": [
						{
							"internalType": "address",
							"name": "routerAddress",
							"type": "address"
						}
					],
					"stateMutability": "nonpayable",
					"type": "constructor"
				},
				{
					"inputs": [
						{
							"internalType": "uint256",
							"name": "amountIn",
							"type": "uint256"
						},
						{
							"internalType": "address[]",
							"name": "path",
							"type": "address[]"
						},
						{
							"internalType": "uint256",
							"name": "amountOutMin",
							"type": "uint256"
						}
					],
					"name": "getMatch",
					"outputs": [
						{
							"internalType": "uint256[]",
							"name": "amounts",
							"type": "uint256[]"
						}
					],
					"stateMutability": "view",
					"type": "function"
				},
				{
					"inputs": [],
					"name": "instance",
					"outputs": [
						{
							"internalType": "contract IPancakeRouter02",
							"name": "",
							"type": "address"
						}
					],
					"stateMutability": "view",
					"type": "function"
				}
			],
			"devdoc": {
				"kind": "dev",
				"methods": {},
				"version": 1
			},
			"evm": {
				"assembly": "    /* \"SwapBot/swapo.sol\":97:650  contract Swap {... */\n  mstore(0x40, 0x80)\n    /* \"SwapBot/swapo.sol\":156:250  constructor(address routerAddress) {... */\n  callvalue\n  dup1\n  iszero\n  tag_1\n  jumpi\n  0x00\n  dup1\n  revert\ntag_1:\n  pop\n  mload(0x40)\n  sub(codesize, bytecodeSize)\n  dup1\n  bytecodeSize\n  dup4\n  codecopy\n  dup2\n  add\n  0x40\n  dup2\n  swap1\n  mstore\n  tag_2\n  swap2\n  tag_3\n  jump\t// in\ntag_2:\n    /* \"SwapBot/swapo.sol\":201:209  instance */\n  0x00\n    /* \"SwapBot/swapo.sol\":201:243  instance = IPancakeRouter02(routerAddress) */\n  dup1\n  sload\n  not(sub(shl(0xa0, 0x01), 0x01))\n  and\n  sub(shl(0xa0, 0x01), 0x01)\n  swap3\n  swap1\n  swap3\n  and\n  swap2\n  swap1\n  swap2\n  or\n  swap1\n  sstore\n    /* \"SwapBot/swapo.sol\":97:650  contract Swap {... */\n  jump(tag_7)\n    /* \"#utility.yul\":14:304   */\ntag_3:\n    /* \"#utility.yul\":84:90   */\n  0x00\n    /* \"#utility.yul\":137:139   */\n  0x20\n    /* \"#utility.yul\":125:134   */\n  dup3\n    /* \"#utility.yul\":116:123   */\n  dup5\n    /* \"#utility.yul\":112:135   */\n  sub\n    /* \"#utility.yul\":108:140   */\n  slt\n    /* \"#utility.yul\":105:157   */\n  iszero\n  tag_9\n  jumpi\n    /* \"#utility.yul\":153:154   */\n  0x00\n    /* \"#utility.yul\":150:151   */\n  dup1\n    /* \"#utility.yul\":143:155   */\n  revert\n    /* \"#utility.yul\":105:157   */\ntag_9:\n    /* \"#utility.yul\":179:195   */\n  dup2\n  mload\n  sub(shl(0xa0, 0x01), 0x01)\n    /* \"#utility.yul\":224:255   */\n  dup2\n  and\n    /* \"#utility.yul\":214:256   */\n  dup2\n  eq\n    /* \"#utility.yul\":204:274   */\n  tag_10\n  jumpi\n    /* \"#utility.yul\":270:271   */\n  0x00\n    /* \"#utility.yul\":267:268   */\n  dup1\n    /* \"#utility.yul\":260:272   */\n  revert\n    /* \"#utility.yul\":204:274   */\ntag_10:\n    /* \"#utility.yul\":293:298   */\n  swap4\n    /* \"#utility.yul\":14:304   */\n  swap3\n  pop\n  pop\n  pop\n  jump\t// out\ntag_7:\n    /* \"SwapBot/swapo.sol\":97:650  contract Swap {... */\n  dataSize(sub_0)\n  dup1\n  dataOffset(sub_0)\n  0x00\n  codecopy\n  0x00\n  return\nstop\n\nsub_0: assembly {\n        /* \"SwapBot/swapo.sol\":97:650  contract Swap {... */\n      mstore(0x40, 0x80)\n      callvalue\n      dup1\n      iszero\n      tag_1\n      jumpi\n      0x00\n      dup1\n      revert\n    tag_1:\n      pop\n      jumpi(tag_2, lt(calldatasize, 0x04))\n      shr(0xe0, calldataload(0x00))\n      dup1\n      0x022ec095\n      eq\n      tag_3\n      jumpi\n      dup1\n      0xf7666264\n      eq\n      tag_4\n      jumpi\n    tag_2:\n      0x00\n      dup1\n      revert\n        /* \"SwapBot/swapo.sol\":117:149  IPancakeRouter02 public instance */\n    tag_3:\n      sload(0x00)\n      tag_5\n      swap1\n      sub(shl(0xa0, 0x01), 0x01)\n      and\n      dup2\n      jump\n    tag_5:\n      mload(0x40)\n      sub(shl(0xa0, 0x01), 0x01)\n        /* \"#utility.yul\":202:234   */\n      swap1\n      swap2\n      and\n        /* \"#utility.yul\":184:235   */\n      dup2\n      mstore\n        /* \"#utility.yul\":172:174   */\n      0x20\n        /* \"#utility.yul\":157:175   */\n      add\n        /* \"SwapBot/swapo.sol\":117:149  IPancakeRouter02 public instance */\n    tag_7:\n      mload(0x40)\n      dup1\n      swap2\n      sub\n      swap1\n      return\n        /* \"SwapBot/swapo.sol\":256:648  function getMatch(... */\n    tag_4:\n      tag_9\n      tag_10\n      calldatasize\n      0x04\n      tag_11\n      jump\t// in\n    tag_10:\n      tag_12\n      jump\t// in\n    tag_9:\n      mload(0x40)\n      tag_7\n      swap2\n      swap1\n      tag_14\n      jump\t// in\n    tag_12:\n        /* \"SwapBot/swapo.sol\":434:442  instance */\n      sload(0x00)\n        /* \"SwapBot/swapo.sol\":434:472  instance.getAmountsOut(amountIn, path) */\n      mload(0x40)\n      shl(0xe0, 0xd06ca61f)\n      dup2\n      mstore\n        /* \"SwapBot/swapo.sol\":388:412  uint256[] memory amounts */\n      0x60\n      swap2\n      sub(shl(0xa0, 0x01), 0x01)\n        /* \"SwapBot/swapo.sol\":434:442  instance */\n      and\n      swap1\n        /* \"SwapBot/swapo.sol\":434:456  instance.getAmountsOut */\n      0xd06ca61f\n      swap1\n        /* \"SwapBot/swapo.sol\":434:472  instance.getAmountsOut(amountIn, path) */\n      tag_16\n      swap1\n        /* \"SwapBot/swapo.sol\":457:465  amountIn */\n      dup8\n      swap1\n        /* \"SwapBot/swapo.sol\":467:471  path */\n      dup8\n      swap1\n        /* \"SwapBot/swapo.sol\":434:472  instance.getAmountsOut(amountIn, path) */\n      0x04\n      add\n      tag_17\n      jump\t// in\n    tag_16:\n      0x00\n      mload(0x40)\n      dup1\n      dup4\n      sub\n      dup2\n      dup7\n      gas\n      staticcall\n      iszero\n      dup1\n      iszero\n      tag_19\n      jumpi\n      returndatasize\n      0x00\n      dup1\n      returndatacopy\n      revert(0x00, returndatasize)\n    tag_19:\n      pop\n      pop\n      pop\n      pop\n      mload(0x40)\n      returndatasize\n      0x00\n      dup3\n      returndatacopy\n      0x1f\n      returndatasize\n      swap1\n      dup2\n      add\n      not(0x1f)\n      and\n      dup3\n      add\n      0x40\n      mstore\n      tag_20\n      swap2\n      swap1\n      dup2\n      add\n      swap1\n      tag_21\n      jump\t// in\n    tag_20:\n        /* \"SwapBot/swapo.sol\":424:472  amounts = instance.getAmountsOut(amountIn, path) */\n      swap1\n      pop\n        /* \"SwapBot/swapo.sol\":534:546  amountOutMin */\n      dup2\n        /* \"SwapBot/swapo.sol\":503:510  amounts */\n      dup2\n        /* \"SwapBot/swapo.sol\":528:529  1 */\n      0x01\n        /* \"SwapBot/swapo.sol\":511:518  amounts */\n      dup4\n        /* \"SwapBot/swapo.sol\":511:525  amounts.length */\n      mload\n        /* \"SwapBot/swapo.sol\":511:529  amounts.length - 1 */\n      tag_22\n      swap2\n      swap1\n      tag_23\n      jump\t// in\n    tag_22:\n        /* \"SwapBot/swapo.sol\":503:530  amounts[amounts.length - 1] */\n      dup2\n      mload\n      dup2\n      lt\n      tag_25\n      jumpi\n      tag_25\n      tag_26\n      jump\t// in\n    tag_25:\n      0x20\n      mul\n      0x20\n      add\n      add\n      mload\n        /* \"SwapBot/swapo.sol\":503:546  amounts[amounts.length - 1] >= amountOutMin */\n      lt\n      iszero\n        /* \"SwapBot/swapo.sol\":482:617  require(... */\n      tag_27\n      jumpi\n      mload(0x40)\n      shl(0xe5, 0x461bcd)\n      dup2\n      mstore\n        /* \"#utility.yul\":4880:4882   */\n      0x20\n        /* \"SwapBot/swapo.sol\":482:617  require(... */\n      0x04\n      dup3\n      add\n        /* \"#utility.yul\":4862:4883   */\n      mstore\n        /* \"#utility.yul\":4919:4921   */\n      0x2d\n        /* \"#utility.yul\":4899:4917   */\n      0x24\n      dup3\n      add\n        /* \"#utility.yul\":4892:4922   */\n      mstore\n        /* \"#utility.yul\":4958:4992   */\n      0x526563656976656420616d6f756e742069732062656c6f7720746865206d696e\n        /* \"#utility.yul\":4938:4956   */\n      0x44\n      dup3\n      add\n        /* \"#utility.yul\":4931:4993   */\n      mstore\n      shl(0x9a, 0x1a5b5d5b481c995c5d5a5c9959)\n        /* \"#utility.yul\":5009:5027   */\n      0x64\n      dup3\n      add\n        /* \"#utility.yul\":5002:5045   */\n      mstore\n        /* \"#utility.yul\":5062:5081   */\n      0x84\n      add\n        /* \"SwapBot/swapo.sol\":482:617  require(... */\n      mload(0x40)\n      dup1\n      swap2\n      sub\n      swap1\n      revert\n    tag_27:\n        /* \"SwapBot/swapo.sol\":256:648  function getMatch(... */\n      swap4\n      swap3\n      pop\n      pop\n      pop\n      jump\t// out\n        /* \"#utility.yul\":246:373   */\n    tag_30:\n        /* \"#utility.yul\":307:317   */\n      0x4e487b71\n        /* \"#utility.yul\":302:305   */\n      0xe0\n        /* \"#utility.yul\":298:318   */\n      shl\n        /* \"#utility.yul\":295:296   */\n      0x00\n        /* \"#utility.yul\":288:319   */\n      mstore\n        /* \"#utility.yul\":338:342   */\n      0x41\n        /* \"#utility.yul\":335:336   */\n      0x04\n        /* \"#utility.yul\":328:343   */\n      mstore\n        /* \"#utility.yul\":362:366   */\n      0x24\n        /* \"#utility.yul\":359:360   */\n      0x00\n        /* \"#utility.yul\":352:367   */\n      revert\n        /* \"#utility.yul\":378:653   */\n    tag_31:\n        /* \"#utility.yul\":449:451   */\n      0x40\n        /* \"#utility.yul\":443:452   */\n      mload\n        /* \"#utility.yul\":514:516   */\n      0x1f\n        /* \"#utility.yul\":495:508   */\n      dup3\n      add\n      not(0x1f)\n        /* \"#utility.yul\":491:518   */\n      and\n        /* \"#utility.yul\":479:519   */\n      dup2\n      add\n      sub(shl(0x40, 0x01), 0x01)\n        /* \"#utility.yul\":534:568   */\n      dup2\n      gt\n        /* \"#utility.yul\":570:592   */\n      dup3\n      dup3\n      lt\n        /* \"#utility.yul\":531:593   */\n      or\n        /* \"#utility.yul\":528:616   */\n      iszero\n      tag_38\n      jumpi\n        /* \"#utility.yul\":596:614   */\n      tag_38\n      tag_30\n      jump\t// in\n    tag_38:\n        /* \"#utility.yul\":632:634   */\n      0x40\n        /* \"#utility.yul\":625:647   */\n      mstore\n        /* \"#utility.yul\":378:653   */\n      swap2\n      swap1\n      pop\n      jump\t// out\n        /* \"#utility.yul\":658:841   */\n    tag_32:\n        /* \"#utility.yul\":718:722   */\n      0x00\n      sub(shl(0x40, 0x01), 0x01)\n        /* \"#utility.yul\":743:749   */\n      dup3\n        /* \"#utility.yul\":740:770   */\n      gt\n        /* \"#utility.yul\":737:793   */\n      iszero\n      tag_41\n      jumpi\n        /* \"#utility.yul\":773:791   */\n      tag_41\n      tag_30\n      jump\t// in\n    tag_41:\n      pop\n        /* \"#utility.yul\":818:819   */\n      0x05\n        /* \"#utility.yul\":814:828   */\n      shl\n        /* \"#utility.yul\":830:834   */\n      0x20\n        /* \"#utility.yul\":810:835   */\n      add\n      swap1\n        /* \"#utility.yul\":658:841   */\n      jump\t// out\n        /* \"#utility.yul\":846:2057   */\n    tag_11:\n        /* \"#utility.yul\":948:954   */\n      0x00\n        /* \"#utility.yul\":956:962   */\n      dup1\n        /* \"#utility.yul\":964:970   */\n      0x00\n        /* \"#utility.yul\":1017:1019   */\n      0x60\n        /* \"#utility.yul\":1005:1014   */\n      dup5\n        /* \"#utility.yul\":996:1003   */\n      dup7\n        /* \"#utility.yul\":992:1015   */\n      sub\n        /* \"#utility.yul\":988:1020   */\n      slt\n        /* \"#utility.yul\":985:1037   */\n      iszero\n      tag_43\n      jumpi\n        /* \"#utility.yul\":1033:1034   */\n      0x00\n        /* \"#utility.yul\":1030:1031   */\n      dup1\n        /* \"#utility.yul\":1023:1035   */\n      revert\n        /* \"#utility.yul\":985:1037   */\n    tag_43:\n        /* \"#utility.yul\":1069:1078   */\n      dup4\n        /* \"#utility.yul\":1056:1079   */\n      calldataload\n        /* \"#utility.yul\":1046:1079   */\n      swap3\n      pop\n        /* \"#utility.yul\":1098:1100   */\n      0x20\n        /* \"#utility.yul\":1151:1153   */\n      dup1\n        /* \"#utility.yul\":1140:1149   */\n      dup6\n        /* \"#utility.yul\":1136:1154   */\n      add\n        /* \"#utility.yul\":1123:1155   */\n      calldataload\n      sub(shl(0x40, 0x01), 0x01)\n        /* \"#utility.yul\":1170:1176   */\n      dup2\n        /* \"#utility.yul\":1167:1197   */\n      gt\n        /* \"#utility.yul\":1164:1214   */\n      iszero\n      tag_44\n      jumpi\n        /* \"#utility.yul\":1210:1211   */\n      0x00\n        /* \"#utility.yul\":1207:1208   */\n      dup1\n        /* \"#utility.yul\":1200:1212   */\n      revert\n        /* \"#utility.yul\":1164:1214   */\n    tag_44:\n        /* \"#utility.yul\":1233:1255   */\n      dup6\n      add\n        /* \"#utility.yul\":1286:1290   */\n      0x1f\n        /* \"#utility.yul\":1278:1291   */\n      dup2\n      add\n        /* \"#utility.yul\":1274:1301   */\n      dup8\n      sgt\n        /* \"#utility.yul\":1264:1319   */\n      tag_45\n      jumpi\n        /* \"#utility.yul\":1315:1316   */\n      0x00\n        /* \"#utility.yul\":1312:1313   */\n      dup1\n        /* \"#utility.yul\":1305:1317   */\n      revert\n        /* \"#utility.yul\":1264:1319   */\n    tag_45:\n        /* \"#utility.yul\":1351:1353   */\n      dup1\n        /* \"#utility.yul\":1338:1354   */\n      calldataload\n        /* \"#utility.yul\":1374:1434   */\n      tag_46\n        /* \"#utility.yul\":1390:1433   */\n      tag_47\n        /* \"#utility.yul\":1430:1432   */\n      dup3\n        /* \"#utility.yul\":1390:1433   */\n      tag_32\n      jump\t// in\n    tag_47:\n        /* \"#utility.yul\":1374:1434   */\n      tag_31\n      jump\t// in\n    tag_46:\n        /* \"#utility.yul\":1468:1483   */\n      dup2\n      dup2\n      mstore\n        /* \"#utility.yul\":1550:1551   */\n      0x05\n        /* \"#utility.yul\":1546:1556   */\n      swap2\n      swap1\n      swap2\n      shl\n        /* \"#utility.yul\":1538:1557   */\n      dup3\n      add\n        /* \"#utility.yul\":1534:1562   */\n      dup4\n      add\n      swap1\n        /* \"#utility.yul\":1499:1511   */\n      dup4\n      dup2\n      add\n      swap1\n        /* \"#utility.yul\":1574:1593   */\n      dup10\n      dup4\n      gt\n        /* \"#utility.yul\":1571:1610   */\n      iszero\n      tag_48\n      jumpi\n        /* \"#utility.yul\":1606:1607   */\n      0x00\n        /* \"#utility.yul\":1603:1604   */\n      dup1\n        /* \"#utility.yul\":1596:1608   */\n      revert\n        /* \"#utility.yul\":1571:1610   */\n    tag_48:\n        /* \"#utility.yul\":1630:1641   */\n      swap3\n      dup5\n      add\n      swap3\n        /* \"#utility.yul\":1650:1976   */\n    tag_49:\n        /* \"#utility.yul\":1666:1672   */\n      dup3\n        /* \"#utility.yul\":1661:1664   */\n      dup5\n        /* \"#utility.yul\":1658:1673   */\n      lt\n        /* \"#utility.yul\":1650:1976   */\n      iszero\n      tag_51\n      jumpi\n        /* \"#utility.yul\":1733:1750   */\n      dup4\n      calldataload\n      sub(shl(0xa0, 0x01), 0x01)\n        /* \"#utility.yul\":1783:1814   */\n      dup2\n      and\n        /* \"#utility.yul\":1773:1815   */\n      dup2\n      eq\n        /* \"#utility.yul\":1763:1903   */\n      tag_52\n      jumpi\n        /* \"#utility.yul\":1857:1858   */\n      0x00\n        /* \"#utility.yul\":1886:1888   */\n      dup1\n        /* \"#utility.yul\":1882:1884   */\n      dup2\n        /* \"#utility.yul\":1875:1889   */\n      revert\n        /* \"#utility.yul\":1763:1903   */\n    tag_52:\n        /* \"#utility.yul\":1916:1934   */\n      dup3\n      mstore\n        /* \"#utility.yul\":1683:1695   */\n      swap3\n      dup5\n      add\n      swap3\n        /* \"#utility.yul\":1954:1966   */\n      swap1\n      dup5\n      add\n      swap1\n        /* \"#utility.yul\":1650:1976   */\n      jump(tag_49)\n    tag_51:\n        /* \"#utility.yul\":846:2057   */\n      swap7\n      swap10\n        /* \"#utility.yul\":1995:2000   */\n      swap7\n      swap9\n      pop\n      pop\n      pop\n      pop\n        /* \"#utility.yul\":2047:2049   */\n      0x40\n        /* \"#utility.yul\":2032:2050   */\n      swap5\n      swap1\n      swap5\n      add\n        /* \"#utility.yul\":2019:2051   */\n      calldataload\n      swap4\n      pop\n      pop\n      pop\n        /* \"#utility.yul\":846:2057   */\n      jump\t// out\n        /* \"#utility.yul\":2062:2694   */\n    tag_14:\n        /* \"#utility.yul\":2233:2235   */\n      0x20\n        /* \"#utility.yul\":2285:2306   */\n      dup1\n      dup3\n      mstore\n        /* \"#utility.yul\":2355:2368   */\n      dup3\n      mload\n        /* \"#utility.yul\":2258:2276   */\n      dup3\n      dup3\n      add\n        /* \"#utility.yul\":2377:2399   */\n      dup2\n      swap1\n      mstore\n        /* \"#utility.yul\":2204:2208   */\n      0x00\n      swap2\n        /* \"#utility.yul\":2233:2235   */\n      swap1\n        /* \"#utility.yul\":2456:2471   */\n      dup5\n      dup3\n      add\n      swap1\n        /* \"#utility.yul\":2430:2432   */\n      0x40\n        /* \"#utility.yul\":2415:2433   */\n      dup6\n      add\n      swap1\n        /* \"#utility.yul\":2204:2208   */\n      dup5\n        /* \"#utility.yul\":2499:2668   */\n    tag_54:\n        /* \"#utility.yul\":2513:2519   */\n      dup2\n        /* \"#utility.yul\":2510:2511   */\n      dup2\n        /* \"#utility.yul\":2507:2520   */\n      lt\n        /* \"#utility.yul\":2499:2668   */\n      iszero\n      tag_56\n      jumpi\n        /* \"#utility.yul\":2574:2587   */\n      dup4\n      mload\n        /* \"#utility.yul\":2562:2588   */\n      dup4\n      mstore\n        /* \"#utility.yul\":2643:2658   */\n      swap3\n      dup5\n      add\n      swap3\n        /* \"#utility.yul\":2608:2620   */\n      swap2\n      dup5\n      add\n      swap2\n        /* \"#utility.yul\":2535:2536   */\n      0x01\n        /* \"#utility.yul\":2528:2537   */\n      add\n        /* \"#utility.yul\":2499:2668   */\n      jump(tag_54)\n    tag_56:\n      pop\n        /* \"#utility.yul\":2685:2688   */\n      swap1\n      swap7\n        /* \"#utility.yul\":2062:2694   */\n      swap6\n      pop\n      pop\n      pop\n      pop\n      pop\n      pop\n      jump\t// out\n        /* \"#utility.yul\":2699:3428   */\n    tag_17:\n        /* \"#utility.yul\":2869:2873   */\n      0x00\n        /* \"#utility.yul\":2917:2919   */\n      0x40\n        /* \"#utility.yul\":2906:2915   */\n      dup3\n        /* \"#utility.yul\":2902:2920   */\n      add\n        /* \"#utility.yul\":2947:2953   */\n      dup5\n        /* \"#utility.yul\":2936:2945   */\n      dup4\n        /* \"#utility.yul\":2929:2954   */\n      mstore\n        /* \"#utility.yul\":2973:2975   */\n      0x20\n        /* \"#utility.yul\":3011:3013   */\n      0x40\n        /* \"#utility.yul\":3006:3008   */\n      dup2\n        /* \"#utility.yul\":2995:3004   */\n      dup6\n        /* \"#utility.yul\":2991:3009   */\n      add\n        /* \"#utility.yul\":2984:3014   */\n      mstore\n        /* \"#utility.yul\":3034:3040   */\n      dup2\n        /* \"#utility.yul\":3069:3075   */\n      dup6\n        /* \"#utility.yul\":3063:3076   */\n      mload\n        /* \"#utility.yul\":3100:3106   */\n      dup1\n        /* \"#utility.yul\":3092:3098   */\n      dup5\n        /* \"#utility.yul\":3085:3107   */\n      mstore\n        /* \"#utility.yul\":3138:3140   */\n      0x60\n        /* \"#utility.yul\":3127:3136   */\n      dup7\n        /* \"#utility.yul\":3123:3141   */\n      add\n        /* \"#utility.yul\":3116:3141   */\n      swap2\n      pop\n        /* \"#utility.yul\":3176:3178   */\n      dup3\n        /* \"#utility.yul\":3168:3174   */\n      dup8\n        /* \"#utility.yul\":3164:3179   */\n      add\n        /* \"#utility.yul\":3150:3179   */\n      swap4\n      pop\n        /* \"#utility.yul\":3197:3198   */\n      0x00\n        /* \"#utility.yul\":3207:3402   */\n    tag_58:\n        /* \"#utility.yul\":3221:3227   */\n      dup2\n        /* \"#utility.yul\":3218:3219   */\n      dup2\n        /* \"#utility.yul\":3215:3228   */\n      lt\n        /* \"#utility.yul\":3207:3402   */\n      iszero\n      tag_60\n      jumpi\n        /* \"#utility.yul\":3286:3299   */\n      dup5\n      mload\n      sub(shl(0xa0, 0x01), 0x01)\n        /* \"#utility.yul\":3282:3321   */\n      and\n        /* \"#utility.yul\":3270:3322   */\n      dup4\n      mstore\n        /* \"#utility.yul\":3377:3392   */\n      swap4\n      dup4\n      add\n      swap4\n        /* \"#utility.yul\":3342:3354   */\n      swap2\n      dup4\n      add\n      swap2\n        /* \"#utility.yul\":3318:3319   */\n      0x01\n        /* \"#utility.yul\":3236:3245   */\n      add\n        /* \"#utility.yul\":3207:3402   */\n      jump(tag_58)\n    tag_60:\n      pop\n        /* \"#utility.yul\":3419:3422   */\n      swap1\n      swap8\n        /* \"#utility.yul\":2699:3428   */\n      swap7\n      pop\n      pop\n      pop\n      pop\n      pop\n      pop\n      pop\n      jump\t// out\n        /* \"#utility.yul\":3433:4314   */\n    tag_21:\n        /* \"#utility.yul\":3528:3534   */\n      0x00\n        /* \"#utility.yul\":3559:3561   */\n      0x20\n        /* \"#utility.yul\":3602:3604   */\n      dup1\n        /* \"#utility.yul\":3590:3599   */\n      dup4\n        /* \"#utility.yul\":3581:3588   */\n      dup6\n        /* \"#utility.yul\":3577:3600   */\n      sub\n        /* \"#utility.yul\":3573:3605   */\n      slt\n        /* \"#utility.yul\":3570:3622   */\n      iszero\n      tag_62\n      jumpi\n        /* \"#utility.yul\":3618:3619   */\n      0x00\n        /* \"#utility.yul\":3615:3616   */\n      dup1\n        /* \"#utility.yul\":3608:3620   */\n      revert\n        /* \"#utility.yul\":3570:3622   */\n    tag_62:\n        /* \"#utility.yul\":3651:3660   */\n      dup3\n        /* \"#utility.yul\":3645:3661   */\n      mload\n      sub(shl(0x40, 0x01), 0x01)\n        /* \"#utility.yul\":3676:3682   */\n      dup2\n        /* \"#utility.yul\":3673:3703   */\n      gt\n        /* \"#utility.yul\":3670:3720   */\n      iszero\n      tag_63\n      jumpi\n        /* \"#utility.yul\":3716:3717   */\n      0x00\n        /* \"#utility.yul\":3713:3714   */\n      dup1\n        /* \"#utility.yul\":3706:3718   */\n      revert\n        /* \"#utility.yul\":3670:3720   */\n    tag_63:\n        /* \"#utility.yul\":3739:3761   */\n      dup4\n      add\n        /* \"#utility.yul\":3792:3796   */\n      0x1f\n        /* \"#utility.yul\":3784:3797   */\n      dup2\n      add\n        /* \"#utility.yul\":3780:3807   */\n      dup6\n      sgt\n        /* \"#utility.yul\":3770:3825   */\n      tag_64\n      jumpi\n        /* \"#utility.yul\":3821:3822   */\n      0x00\n        /* \"#utility.yul\":3818:3819   */\n      dup1\n        /* \"#utility.yul\":3811:3823   */\n      revert\n        /* \"#utility.yul\":3770:3825   */\n    tag_64:\n        /* \"#utility.yul\":3850:3852   */\n      dup1\n        /* \"#utility.yul\":3844:3853   */\n      mload\n        /* \"#utility.yul\":3873:3933   */\n      tag_65\n        /* \"#utility.yul\":3889:3932   */\n      tag_47\n        /* \"#utility.yul\":3929:3931   */\n      dup3\n        /* \"#utility.yul\":3889:3932   */\n      tag_32\n      jump\t// in\n        /* \"#utility.yul\":3873:3933   */\n    tag_65:\n        /* \"#utility.yul\":3967:3982   */\n      dup2\n      dup2\n      mstore\n        /* \"#utility.yul\":4049:4050   */\n      0x05\n        /* \"#utility.yul\":4045:4055   */\n      swap2\n      swap1\n      swap2\n      shl\n        /* \"#utility.yul\":4037:4056   */\n      dup3\n      add\n        /* \"#utility.yul\":4033:4061   */\n      dup4\n      add\n      swap1\n        /* \"#utility.yul\":3998:4010   */\n      dup4\n      dup2\n      add\n      swap1\n        /* \"#utility.yul\":4073:4092   */\n      dup8\n      dup4\n      gt\n        /* \"#utility.yul\":4070:4109   */\n      iszero\n      tag_67\n      jumpi\n        /* \"#utility.yul\":4105:4106   */\n      0x00\n        /* \"#utility.yul\":4102:4103   */\n      dup1\n        /* \"#utility.yul\":4095:4107   */\n      revert\n        /* \"#utility.yul\":4070:4109   */\n    tag_67:\n        /* \"#utility.yul\":4129:4140   */\n      swap3\n      dup5\n      add\n      swap3\n        /* \"#utility.yul\":4149:4284   */\n    tag_68:\n        /* \"#utility.yul\":4165:4171   */\n      dup3\n        /* \"#utility.yul\":4160:4163   */\n      dup5\n        /* \"#utility.yul\":4157:4172   */\n      lt\n        /* \"#utility.yul\":4149:4284   */\n      iszero\n      tag_70\n      jumpi\n        /* \"#utility.yul\":4231:4241   */\n      dup4\n      mload\n        /* \"#utility.yul\":4219:4242   */\n      dup3\n      mstore\n        /* \"#utility.yul\":4182:4194   */\n      swap3\n      dup5\n      add\n      swap3\n        /* \"#utility.yul\":4262:4274   */\n      swap1\n      dup5\n      add\n      swap1\n        /* \"#utility.yul\":4149:4284   */\n      jump(tag_68)\n    tag_70:\n        /* \"#utility.yul\":4303:4308   */\n      swap8\n        /* \"#utility.yul\":3433:4314   */\n      swap7\n      pop\n      pop\n      pop\n      pop\n      pop\n      pop\n      pop\n      jump\t// out\n        /* \"#utility.yul\":4319:4541   */\n    tag_23:\n        /* \"#utility.yul\":4359:4363   */\n      0x00\n        /* \"#utility.yul\":4387:4388   */\n      dup3\n        /* \"#utility.yul\":4384:4385   */\n      dup3\n        /* \"#utility.yul\":4381:4389   */\n      lt\n        /* \"#utility.yul\":4378:4509   */\n      iszero\n      tag_72\n      jumpi\n        /* \"#utility.yul\":4431:4441   */\n      0x4e487b71\n        /* \"#utility.yul\":4426:4429   */\n      0xe0\n        /* \"#utility.yul\":4422:4442   */\n      shl\n        /* \"#utility.yul\":4419:4420   */\n      0x00\n        /* \"#utility.yul\":4412:4443   */\n      mstore\n        /* \"#utility.yul\":4466:4470   */\n      0x11\n        /* \"#utility.yul\":4463:4464   */\n      0x04\n        /* \"#utility.yul\":4456:4471   */\n      mstore\n        /* \"#utility.yul\":4494:4498   */\n      0x24\n        /* \"#utility.yul\":4491:4492   */\n      0x00\n        /* \"#utility.yul\":4484:4499   */\n      revert\n        /* \"#utility.yul\":4378:4509   */\n    tag_72:\n      pop\n        /* \"#utility.yul\":4526:4535   */\n      sub\n      swap1\n        /* \"#utility.yul\":4319:4541   */\n      jump\t// out\n        /* \"#utility.yul\":4546:4673   */\n    tag_26:\n        /* \"#utility.yul\":4607:4617   */\n      0x4e487b71\n        /* \"#utility.yul\":4602:4605   */\n      0xe0\n        /* \"#utility.yul\":4598:4618   */\n      shl\n        /* \"#utility.yul\":4595:4596   */\n      0x00\n        /* \"#utility.yul\":4588:4619   */\n      mstore\n        /* \"#utility.yul\":4638:4642   */\n      0x32\n        /* \"#utility.yul\":4635:4636   */\n      0x04\n        /* \"#utility.yul\":4628:4643   */\n      mstore\n        /* \"#utility.yul\":4662:4666   */\n      0x24\n        /* \"#utility.yul\":4659:4660   */\n      0x00\n        /* \"#utility.yul\":4652:4667   */\n      revert\n\n    auxdata: 0xa26469706673582212206f713188b81ad35941f18e90341a0172dda104bf8f382b8ea549c9ab09d706ef64736f6c634300080e0033\n}\n",
				"bytecode": {
					"linkReferences": {},
					"object": "608060405234801561001057600080fd5b506040516104f33803806104f383398101604081905261002f91610054565b600080546001600160a01b0319166001600160a01b0392909216919091179055610084565b60006020828403121561006657600080fd5b81516001600160a01b038116811461007d57600080fd5b9392505050565b610460806100936000396000f3fe608060405234801561001057600080fd5b50600436106100365760003560e01c8063022ec0951461003b578063f76662641461006b575b600080fd5b60005461004e906001600160a01b031681565b6040516001600160a01b0390911681526020015b60405180910390f35b61007e610079366004610205565b61008b565b60405161006291906102c4565b60005460405163d06ca61f60e01b81526060916001600160a01b03169063d06ca61f906100be9087908790600401610308565b600060405180830381865afa1580156100db573d6000803e3d6000fd5b505050506040513d6000823e601f3d908101601f19168201604052610103919081019061035f565b905081816001835161011591906103ef565b8151811061012557610125610414565b602002602001015110156101955760405162461bcd60e51b815260206004820152602d60248201527f526563656976656420616d6f756e742069732062656c6f7720746865206d696e60448201526c1a5b5d5b481c995c5d5a5c9959609a1b606482015260840160405180910390fd5b9392505050565b634e487b7160e01b600052604160045260246000fd5b604051601f8201601f191681016001600160401b03811182821017156101da576101da61019c565b604052919050565b60006001600160401b038211156101fb576101fb61019c565b5060051b60200190565b60008060006060848603121561021a57600080fd5b833592506020808501356001600160401b0381111561023857600080fd5b8501601f8101871361024957600080fd5b803561025c610257826101e2565b6101b2565b81815260059190911b8201830190838101908983111561027b57600080fd5b928401925b828410156102af5783356001600160a01b03811681146102a05760008081fd5b82529284019290840190610280565b96999698505050506040949094013593505050565b6020808252825182820181905260009190848201906040850190845b818110156102fc578351835292840192918401916001016102e0565b50909695505050505050565b6000604082018483526020604081850152818551808452606086019150828701935060005b818110156103525784516001600160a01b03168352938301939183019160010161032d565b5090979650505050505050565b6000602080838503121561037257600080fd5b82516001600160401b0381111561038857600080fd5b8301601f8101851361039957600080fd5b80516103a7610257826101e2565b81815260059190911b820183019083810190878311156103c657600080fd5b928401925b828410156103e4578351825292840192908401906103cb565b979650505050505050565b60008282101561040f57634e487b7160e01b600052601160045260246000fd5b500390565b634e487b7160e01b600052603260045260246000fdfea26469706673582212206f713188b81ad35941f18e90341a0172dda104bf8f382b8ea549c9ab09d706ef64736f6c634300080e0033",
					"opcodes": "PUSH1 0x80 PUSH1 0x40 MSTORE CALLVALUE DUP1 ISZERO PUSH2 0x10 JUMPI PUSH1 0x0 DUP1 REVERT JUMPDEST POP PUSH1 0x40 MLOAD PUSH2 0x4F3 CODESIZE SUB DUP1 PUSH2 0x4F3 DUP4 CODECOPY DUP2 ADD PUSH1 0x40 DUP2 SWAP1 MSTORE PUSH2 0x2F SWAP2 PUSH2 0x54 JUMP JUMPDEST PUSH1 0x0 DUP1 SLOAD PUSH1 0x1 PUSH1 0x1 PUSH1 0xA0 SHL SUB NOT AND PUSH1 0x1 PUSH1 0x1 PUSH1 0xA0 SHL SUB SWAP3 SWAP1 SWAP3 AND SWAP2 SWAP1 SWAP2 OR SWAP1 SSTORE PUSH2 0x84 JUMP JUMPDEST PUSH1 0x0 PUSH1 0x20 DUP3 DUP5 SUB SLT ISZERO PUSH2 0x66 JUMPI PUSH1 0x0 DUP1 REVERT JUMPDEST DUP2 MLOAD PUSH1 0x1 PUSH1 0x1 PUSH1 0xA0 SHL SUB DUP2 AND DUP2 EQ PUSH2 0x7D JUMPI PUSH1 0x0 DUP1 REVERT JUMPDEST SWAP4 SWAP3 POP POP POP JUMP JUMPDEST PUSH2 0x460 DUP1 PUSH2 0x93 PUSH1 0x0 CODECOPY PUSH1 0x0 RETURN INVALID PUSH1 0x80 PUSH1 0x40 MSTORE CALLVALUE DUP1 ISZERO PUSH2 0x10 JUMPI PUSH1 0x0 DUP1 REVERT JUMPDEST POP PUSH1 0x4 CALLDATASIZE LT PUSH2 0x36 JUMPI PUSH1 0x0 CALLDATALOAD PUSH1 0xE0 SHR DUP1 PUSH4 0x22EC095 EQ PUSH2 0x3B JUMPI DUP1 PUSH4 0xF7666264 EQ PUSH2 0x6B JUMPI JUMPDEST PUSH1 0x0 DUP1 REVERT JUMPDEST PUSH1 0x0 SLOAD PUSH2 0x4E SWAP1 PUSH1 0x1 PUSH1 0x1 PUSH1 0xA0 SHL SUB AND DUP2 JUMP JUMPDEST PUSH1 0x40 MLOAD PUSH1 0x1 PUSH1 0x1 PUSH1 0xA0 SHL SUB SWAP1 SWAP2 AND DUP2 MSTORE PUSH1 0x20 ADD JUMPDEST PUSH1 0x40 MLOAD DUP1 SWAP2 SUB SWAP1 RETURN JUMPDEST PUSH2 0x7E PUSH2 0x79 CALLDATASIZE PUSH1 0x4 PUSH2 0x205 JUMP JUMPDEST PUSH2 0x8B JUMP JUMPDEST PUSH1 0x40 MLOAD PUSH2 0x62 SWAP2 SWAP1 PUSH2 0x2C4 JUMP JUMPDEST PUSH1 0x0 SLOAD PUSH1 0x40 MLOAD PUSH4 0xD06CA61F PUSH1 0xE0 SHL DUP2 MSTORE PUSH1 0x60 SWAP2 PUSH1 0x1 PUSH1 0x1 PUSH1 0xA0 SHL SUB AND SWAP1 PUSH4 0xD06CA61F SWAP1 PUSH2 0xBE SWAP1 DUP8 SWAP1 DUP8 SWAP1 PUSH1 0x4 ADD PUSH2 0x308 JUMP JUMPDEST PUSH1 0x0 PUSH1 0x40 MLOAD DUP1 DUP4 SUB DUP2 DUP7 GAS STATICCALL ISZERO DUP1 ISZERO PUSH2 0xDB JUMPI RETURNDATASIZE PUSH1 0x0 DUP1 RETURNDATACOPY RETURNDATASIZE PUSH1 0x0 REVERT JUMPDEST POP POP POP POP PUSH1 0x40 MLOAD RETURNDATASIZE PUSH1 0x0 DUP3 RETURNDATACOPY PUSH1 0x1F RETURNDATASIZE SWAP1 DUP2 ADD PUSH1 0x1F NOT AND DUP3 ADD PUSH1 0x40 MSTORE PUSH2 0x103 SWAP2 SWAP1 DUP2 ADD SWAP1 PUSH2 0x35F JUMP JUMPDEST SWAP1 POP DUP2 DUP2 PUSH1 0x1 DUP4 MLOAD PUSH2 0x115 SWAP2 SWAP1 PUSH2 0x3EF JUMP JUMPDEST DUP2 MLOAD DUP2 LT PUSH2 0x125 JUMPI PUSH2 0x125 PUSH2 0x414 JUMP JUMPDEST PUSH1 0x20 MUL PUSH1 0x20 ADD ADD MLOAD LT ISZERO PUSH2 0x195 JUMPI PUSH1 0x40 MLOAD PUSH3 0x461BCD PUSH1 0xE5 SHL DUP2 MSTORE PUSH1 0x20 PUSH1 0x4 DUP3 ADD MSTORE PUSH1 0x2D PUSH1 0x24 DUP3 ADD MSTORE PUSH32 0x526563656976656420616D6F756E742069732062656C6F7720746865206D696E PUSH1 0x44 DUP3 ADD MSTORE PUSH13 0x1A5B5D5B481C995C5D5A5C9959 PUSH1 0x9A SHL PUSH1 0x64 DUP3 ADD MSTORE PUSH1 0x84 ADD PUSH1 0x40 MLOAD DUP1 SWAP2 SUB SWAP1 REVERT JUMPDEST SWAP4 SWAP3 POP POP POP JUMP JUMPDEST PUSH4 0x4E487B71 PUSH1 0xE0 SHL PUSH1 0x0 MSTORE PUSH1 0x41 PUSH1 0x4 MSTORE PUSH1 0x24 PUSH1 0x0 REVERT JUMPDEST PUSH1 0x40 MLOAD PUSH1 0x1F DUP3 ADD PUSH1 0x1F NOT AND DUP2 ADD PUSH1 0x1 PUSH1 0x1 PUSH1 0x40 SHL SUB DUP2 GT DUP3 DUP3 LT OR ISZERO PUSH2 0x1DA JUMPI PUSH2 0x1DA PUSH2 0x19C JUMP JUMPDEST PUSH1 0x40 MSTORE SWAP2 SWAP1 POP JUMP JUMPDEST PUSH1 0x0 PUSH1 0x1 PUSH1 0x1 PUSH1 0x40 SHL SUB DUP3 GT ISZERO PUSH2 0x1FB JUMPI PUSH2 0x1FB PUSH2 0x19C JUMP JUMPDEST POP PUSH1 0x5 SHL PUSH1 0x20 ADD SWAP1 JUMP JUMPDEST PUSH1 0x0 DUP1 PUSH1 0x0 PUSH1 0x60 DUP5 DUP7 SUB SLT ISZERO PUSH2 0x21A JUMPI PUSH1 0x0 DUP1 REVERT JUMPDEST DUP4 CALLDATALOAD SWAP3 POP PUSH1 0x20 DUP1 DUP6 ADD CALLDATALOAD PUSH1 0x1 PUSH1 0x1 PUSH1 0x40 SHL SUB DUP2 GT ISZERO PUSH2 0x238 JUMPI PUSH1 0x0 DUP1 REVERT JUMPDEST DUP6 ADD PUSH1 0x1F DUP2 ADD DUP8 SGT PUSH2 0x249 JUMPI PUSH1 0x0 DUP1 REVERT JUMPDEST DUP1 CALLDATALOAD PUSH2 0x25C PUSH2 0x257 DUP3 PUSH2 0x1E2 JUMP JUMPDEST PUSH2 0x1B2 JUMP JUMPDEST DUP2 DUP2 MSTORE PUSH1 0x5 SWAP2 SWAP1 SWAP2 SHL DUP3 ADD DUP4 ADD SWAP1 DUP4 DUP2 ADD SWAP1 DUP10 DUP4 GT ISZERO PUSH2 0x27B JUMPI PUSH1 0x0 DUP1 REVERT JUMPDEST SWAP3 DUP5 ADD SWAP3 JUMPDEST DUP3 DUP5 LT ISZERO PUSH2 0x2AF JUMPI DUP4 CALLDATALOAD PUSH1 0x1 PUSH1 0x1 PUSH1 0xA0 SHL SUB DUP2 AND DUP2 EQ PUSH2 0x2A0 JUMPI PUSH1 0x0 DUP1 DUP2 REVERT JUMPDEST DUP3 MSTORE SWAP3 DUP5 ADD SWAP3 SWAP1 DUP5 ADD SWAP1 PUSH2 0x280 JUMP JUMPDEST SWAP7 SWAP10 SWAP7 SWAP9 POP POP POP POP PUSH1 0x40 SWAP5 SWAP1 SWAP5 ADD CALLDATALOAD SWAP4 POP POP POP JUMP JUMPDEST PUSH1 0x20 DUP1 DUP3 MSTORE DUP3 MLOAD DUP3 DUP3 ADD DUP2 SWAP1 MSTORE PUSH1 0x0 SWAP2 SWAP1 DUP5 DUP3 ADD SWAP1 PUSH1 0x40 DUP6 ADD SWAP1 DUP5 JUMPDEST DUP2 DUP2 LT ISZERO PUSH2 0x2FC JUMPI DUP4 MLOAD DUP4 MSTORE SWAP3 DUP5 ADD SWAP3 SWAP2 DUP5 ADD SWAP2 PUSH1 0x1 ADD PUSH2 0x2E0 JUMP JUMPDEST POP SWAP1 SWAP7 SWAP6 POP POP POP POP POP POP JUMP JUMPDEST PUSH1 0x0 PUSH1 0x40 DUP3 ADD DUP5 DUP4 MSTORE PUSH1 0x20 PUSH1 0x40 DUP2 DUP6 ADD MSTORE DUP2 DUP6 MLOAD DUP1 DUP5 MSTORE PUSH1 0x60 DUP7 ADD SWAP2 POP DUP3 DUP8 ADD SWAP4 POP PUSH1 0x0 JUMPDEST DUP2 DUP2 LT ISZERO PUSH2 0x352 JUMPI DUP5 MLOAD PUSH1 0x1 PUSH1 0x1 PUSH1 0xA0 SHL SUB AND DUP4 MSTORE SWAP4 DUP4 ADD SWAP4 SWAP2 DUP4 ADD SWAP2 PUSH1 0x1 ADD PUSH2 0x32D JUMP JUMPDEST POP SWAP1 SWAP8 SWAP7 POP POP POP POP POP POP POP JUMP JUMPDEST PUSH1 0x0 PUSH1 0x20 DUP1 DUP4 DUP6 SUB SLT ISZERO PUSH2 0x372 JUMPI PUSH1 0x0 DUP1 REVERT JUMPDEST DUP3 MLOAD PUSH1 0x1 PUSH1 0x1 PUSH1 0x40 SHL SUB DUP2 GT ISZERO PUSH2 0x388 JUMPI PUSH1 0x0 DUP1 REVERT JUMPDEST DUP4 ADD PUSH1 0x1F DUP2 ADD DUP6 SGT PUSH2 0x399 JUMPI PUSH1 0x0 DUP1 REVERT JUMPDEST DUP1 MLOAD PUSH2 0x3A7 PUSH2 0x257 DUP3 PUSH2 0x1E2 JUMP JUMPDEST DUP2 DUP2 MSTORE PUSH1 0x5 SWAP2 SWAP1 SWAP2 SHL DUP3 ADD DUP4 ADD SWAP1 DUP4 DUP2 ADD SWAP1 DUP8 DUP4 GT ISZERO PUSH2 0x3C6 JUMPI PUSH1 0x0 DUP1 REVERT JUMPDEST SWAP3 DUP5 ADD SWAP3 JUMPDEST DUP3 DUP5 LT ISZERO PUSH2 0x3E4 JUMPI DUP4 MLOAD DUP3 MSTORE SWAP3 DUP5 ADD SWAP3 SWAP1 DUP5 ADD SWAP1 PUSH2 0x3CB JUMP JUMPDEST SWAP8 SWAP7 POP POP POP POP POP POP POP JUMP JUMPDEST PUSH1 0x0 DUP3 DUP3 LT ISZERO PUSH2 0x40F JUMPI PUSH4 0x4E487B71 PUSH1 0xE0 SHL PUSH1 0x0 MSTORE PUSH1 0x11 PUSH1 0x4 MSTORE PUSH1 0x24 PUSH1 0x0 REVERT JUMPDEST POP SUB SWAP1 JUMP JUMPDEST PUSH4 0x4E487B71 PUSH1 0xE0 SHL PUSH1 0x0 MSTORE PUSH1 0x32 PUSH1 0x4 MSTORE PUSH1 0x24 PUSH1 0x0 REVERT INVALID LOG2 PUSH5 0x6970667358 0x22 SLT KECCAK256 PUSH16 0x713188B81AD35941F18E90341A0172DD LOG1 DIV 0xBF DUP16 CODESIZE 0x2B DUP15 0xA5 0x49 0xC9 0xAB MULMOD 0xD7 MOD 0xEF PUSH5 0x736F6C6343 STOP ADDMOD 0xE STOP CALLER "
				},
				"gasEstimates": {
					"creation": {
						"codeDepositCost": "224000",
						"executionCost": "infinite",
						"totalCost": "infinite"
					},
					"external": {
						"getMatch(uint256,address[],uint256)": "infinite",
						"instance()": "2304"
					}
				},
				"methodIdentifiers": {
					"getMatch(uint256,address[],uint256)": "f7666264",
					"instance()": "022ec095"
				}
			},
			"storageLayout": {
				"storage": [
					{
						"astId": 401,
						"contract": "SwapBot/swapo.sol:Swap",
						"label": "instance",
						"offset": 0,
						"slot": "0",
						"type": "t_contract(IPancakeRouter02)395"
					}
				],
				"types": {
					"t_contract(IPancakeRouter02)395": {
						"encoding": "inplace",
						"label": "contract IPancakeRouter02",
						"numberOfBytes": "20"
					}
				}
			},
			"userdoc": {
				"kind": "user",
				"methods": {},
				"version": 1
			}
		}
	}
}