{
	"data": {
		"bytecode": {
			"linkReferences": {},
			"object": "60806040523480156200001157600080fd5b506040516200606938038062006069833981016040819052620000349162000103565b6000805460ff19169055620000493362000091565b601480546001600160a01b039485166001600160a01b03199182161790915560118054939094169216919091179091556012556509184e72a00060018190556002556200014b565b600080546001600160a01b03838116610100818102610100600160a81b0319851617855560405193049190911692909183917f8be0079c531659141344cd1fd0a4f28419497f9722a3daafe3b4186f6b6457e091a35050565b6001600160a01b03811681146200010057600080fd5b50565b6000806000606084860312156200011957600080fd5b83516200012681620000ea565b60208501519093506200013981620000ea565b80925050604084015190509250925092565b615f0e806200015b6000396000f3fe60806040526004361061032c5760003560e01c806380554e9a116101b2578063cc64fb7a116100ed578063eb3ce7c711610090578063eb3ce7c714610a22578063eb80bdae14610a35578063ee0c493a14610a55578063eeacf78614610a68578063f2fde38b14610a88578063f7260d3e14610aa8578063fba7fd7114610ac8578063fd981c6614610ae857600080fd5b8063cc64fb7a146108e7578063cd83eadc14610907578063d3cac88514610927578063d738a44e14610947578063da1d8cff1461095d578063e0da83ce1461097d578063e1444fd6146109aa578063e3676f8814610a0257600080fd5b8063a57e314111610155578063a57e31411461080c578063aec640c61461082c578063aef0e5401461084c578063b3b9aa481461086c578063b982922e1461087f578063bd9574db14610894578063c61eaae0146108b4578063cb645e32146108d457600080fd5b806380554e9a146107215780638ca1f1b4146107415780638da5cb5b1461076157806395874b27146107765780639c8b9e7b146107965780639e281a98146107ac5780639f7260bd146107cc578063a20b8c18146107ec57600080fd5b80634c8948c9116102825780636ce850e3116102255780636ce850e314610612578063715018a614610625578063718da7ee1461063a57806375c9007c1461065a57806375d39c7c1461067a57806376c128221461069a5780637d207e3a146106c75780637e6706d3146106f457600080fd5b80634c8948c91461052f57806356a06235146105445780635a04fb691461055a5780635bfadb241461057a5780635c975abb1461059a5780635cc36cde146105b25780635e92b2cf146105d2578063618df7a3146105f257600080fd5b8063072793571461035057806307873ef11461037657806308f12470146103965780630d4f581a146103c35780631033218f146103e3578063148564e8146103f9578063181550e6146104265780631982242c146104535780631d111d13146104685780631ff5ea6f1461047f5780632a697129146104955780632aaa7655146104aa578063332f26d7146104bd57806339747ac0146104ea578063475831c81461051a57600080fd5b3661034b5734601360008282546103439190614ff6565b925050819055005b600080fd5b61036361035e3660046150e9565b610afd565b6040519081526020015b60405180910390f35b34801561038257600080fd5b5061036361039136600461516f565b610cce565b3480156103a257600080fd5b506103b66103b136600461518c565b610cf5565b60405161036d919061529b565b3480156103cf57600080fd5b506103b66103de36600461518c565b610e47565b3480156103ef57600080fd5b5061036360025481565b34801561040557600080fd5b506104196104143660046152ae565b610e62565b60405161036d9190615356565b34801561043257600080fd5b5061044661044136600461516f565b610ebe565b60405161036d9190615369565b34801561045f57600080fd5b50610363610fa4565b34801561047457600080fd5b5061047d610fc5565b005b34801561048b57600080fd5b5061036360125481565b3480156104a157600080fd5b506103636110c7565b61047d6104b83660046153cb565b6110ed565b3480156104c957600080fd5b506104dd6104d83660046153f7565b61139c565b60405161036d919061542c565b3480156104f657600080fd5b5061050a61050536600461516f565b6114e1565b604051901515815260200161036d565b34801561052657600080fd5b50610363611564565b34801561053b57600080fd5b50600654610363565b34801561055057600080fd5b5061036360015481565b34801561056657600080fd5b5061047d610575366004615481565b611570565b34801561058657600080fd5b5061047d6105953660046154b1565b6116f5565b3480156105a657600080fd5b5060005460ff1661050a565b3480156105be57600080fd5b506103636105cd36600461516f565b611786565b3480156105de57600080fd5b506104466105ed3660046154b1565b6117a7565b3480156105fe57600080fd5b506103b661060d3660046152ae565b6118cd565b61047d6106203660046154b1565b611922565b34801561063157600080fd5b5061047d611b33565b34801561064657600080fd5b5061047d61065536600461516f565b611b47565b34801561066657600080fd5b5061041961067536600461518c565b611b71565b34801561068657600080fd5b5061047d610695366004615481565b611c35565b3480156106a657600080fd5b506106ba6106b53660046154b1565b611d3f565b60405161036d91906154fa565b3480156106d357600080fd5b506014546106e7906001600160a01b031681565b60405161036d919061553c565b34801561070057600080fd5b5061071461070f36600461518c565b611e78565b60405161036d9190615550565b34801561072d57600080fd5b5061036361073c3660046154b1565b611eda565b34801561074d57600080fd5b5061047d61075c36600461516f565b611efa565b34801561076d57600080fd5b506106e7611f6c565b34801561078257600080fd5b5061047d61079136600461518c565b611f80565b3480156107a257600080fd5b5061036360045481565b3480156107b857600080fd5b5061047d6107c73660046152ae565b611f8d565b3480156107d857600080fd5b5061047d6107e736600461518c565b612118565b3480156107f857600080fd5b5061071461080736600461518c565b612125565b34801561081857600080fd5b5061047d61082736600461518c565b61213c565b34801561083857600080fd5b506106ba6108473660046154b1565b612147565b34801561085857600080fd5b506104dd61086736600461516f565b612280565b61047d61087a3660046153cb565b61235e565b34801561088b57600080fd5b50610363612666565b3480156108a057600080fd5b506103636108af3660046154b1565b612672565b3480156108c057600080fd5b5061047d6108cf3660046154b1565b61268a565b6103636108e236600461555e565b6126fc565b3480156108f357600080fd5b5061047d61090236600461518c565b612929565b34801561091357600080fd5b5061036361092236600461516f565b612934565b34801561093357600080fd5b5061047d610942366004615603565b612952565b34801561095357600080fd5b5061036360135481565b34801561096957600080fd5b506104dd61097836600461516f565b612a09565b34801561098957600080fd5b5061099d610998366004615694565b612ae7565b60405161036d9190615772565b3480156109b657600080fd5b506109f36109c536600461516f565b600e602052600090815260409020805460018201546002909201546001600160a01b03918216929091169083565b60405161036d939291906157aa565b348015610a0e57600080fd5b50610363610a1d36600461516f565b612c30565b610363610a303660046157ce565b612c51565b348015610a4157600080fd5b50610363610a5036600461516f565b612ed9565b610363610a6336600461584d565b612efa565b348015610a7457600080fd5b506103b6610a833660046152ae565b6130af565b348015610a9457600080fd5b5061047d610aa336600461516f565b613104565b348015610ab457600080fd5b506003546106e7906001600160a01b031681565b348015610ad457600080fd5b50610419610ae336600461518c565b61317a565b348015610af457600080fd5b50600554610363565b60006001600160a01b038616610b4a5760405162461bcd60e51b815260206004820152600d60248201526c24b73b30b634b2103a37b5b2b760991b60448201526064015b60405180910390fd5b60008411610b6a5760405162461bcd60e51b8152600401610b41906158af565b428311610b895760405162461bcd60e51b8152600401610b41906158e6565b60145460405163526f812b60e11b81526001600160a01b039091169063a4df025690610bb990339060040161553c565b602060405180830381865afa158015610bd6573d6000803e3d6000fd5b505050506040513d601f19601f82011682018060405250810190610bfa919061591d565b610c7757600154341015610c205760405162461bcd60e51b8152600401610b419061593a565b60015460046000828254610c349190614ff6565b90915550506003546001546040516001600160a01b039092169181156108fc0291906000818181858888f19350505050158015610c75573d6000803e3d6000fd5b505b610c8a878787878760008060008a61319d565b9050610c98863330876131e9565b80600080516020615eb983398151915287898787604051610cbc9493929190615971565b60405180910390a29695505050505050565b6001600160a01b0381166000908152600760205260408120610cef9061333a565b92915050565b610cfd614e5f565b6005610d0883613344565b81548110610d1857610d1861599a565b60009182526020918290206040805161016081018252600b9093029091018054835260018101546001600160a01b03908116948401949094526002810154909316908201526003820154606082015260048201546080820152600582015460a0820152600682015460c0820152600782015460e082015260088201546101008201526009820154610120820152600a8201805491929161014084019190610dbe906159b0565b80601f0160208091040260200160405190810160405280929190818152602001828054610dea906159b0565b8015610e375780601f10610e0c57610100808354040283529160200191610e37565b820191906000526020600020905b815481529060010190602001808311610e1a57829003601f168201915b5050505050815250509050919050565b610e4f614e5f565b60058281548110610d1857610d1861599a565b610e6a614ecb565b81610e7484611786565b11610e915760405162461bcd60e51b8152600401610b41906159e4565b6001600160a01b0383166000908152600960205260409020610eb790610ae3908461339c565b9392505050565b6001600160a01b038116600090815260096020526040812060609190610ee39061333a565b90506000816001600160401b03811115610eff57610eff615047565b604051908082528060200260200182016040528015610f3857816020015b610f25614ecb565b815260200190600190039081610f1d5790505b50905060005b82811015610f9c576001600160a01b0385166000908152600960205260409020610f6c90610ae3908361339c565b828281518110610f7e57610f7e61599a565b60200260200101819052508080610f9490615a0b565b915050610f3e565b509392505050565b6000610fae611564565b610fb6612666565b610fc09190614ff6565b905090565b610fcd6133a8565b60006013541161102a5760405162461bcd60e51b815260206004820152602260248201527f6e6f20657874726120424e4220617661696c61626c6520746f20776974686472604482015261617760f01b6064820152608401610b41565b6003546013546040516000926001600160a01b031691908381818185875af1925050503d8060008114611079576040519150601f19603f3d011682016040523d82523d6000602084013e61107e565b606091505b50509050806110c45760405162461bcd60e51b81526020600482015260126024820152711dda5d1a191c985dd093908819985a5b195960721b6044820152606401610b41565b50565b6000610fc060106040516110da90615a24565b908152602001604051809103902061333a565b826110f781613407565b506000600661110586613407565b815481106111155761111561599a565b600091825260209091206001600a90920201908101549091506001600160a01b031633146111555760405162461bcd60e51b8152600401610b4190615a33565b6008810154156111775760405162461bcd60e51b8152600401610b4190615a75565b60008311806111865750600084115b156112c95760145460405163526f812b60e11b81526001600160a01b039091169063a4df0256906111bb90339060040161553c565b602060405180830381865afa1580156111d8573d6000803e3d6000fd5b505050506040513d601f19601f820116820180604052508101906111fc919061591d565b6112c9576001543410156112225760405162461bcd60e51b8152600401610b4190615aa0565b6003546001546040516000926001600160a01b031691908381818185875af1925050503d8060008114611271576040519150601f19603f3d011682016040523d82523d6000602084013e611276565b606091505b50509050806112c75760405162461bcd60e51b815260206004820181905260248201527f656469744c6f636b424e423a20666565207472616e73666572206661696c65646044820152606401610b41565b505b821561130657806004015483101580156112e257504283115b6112fe5760405162461bcd60e51b8152600401610b4190615ad3565b600481018390555b83156113955780600201548410156113305760405162461bcd60e51b8152600401610b4190615b3d565b60008160020154856113429190615b8e565b905080156113935760028201859055348111156113935760405162461bcd60e51b815260206004820152600f60248201526e39b437bab632103830bc903234b33360891b6044820152606401610b41565b505b5050505050565b6001600160a01b0383166000908152600f602052604090206060906113c09061333a565b82106113f7576001600160a01b0384166000908152600f602052604090206001906113ea9061333a565b6113f49190615b8e565b91505b60006114038484615b8e565b61140e906001614ff6565b90506000816001600160401b0381111561142a5761142a615047565b60405190808252806020026020018201604052801561146357816020015b611450614e5f565b8152602001906001900390816114485790505b5090506000855b8581116114d5576001600160a01b0388166000908152600f60205260409020611497906103b1908361339c565b8383815181106114a9576114a961599a565b602002602001018190525081806114bf90615a0b565b92505080806114cd90615a0b565b91505061146a565b50909695505050505050565b6000816001600160a01b031663c45a01556040518163ffffffff1660e01b8152600401602060405180830381865afa92505050801561153d575060408051601f3d908101601f1916820190925261153a91810190615ba5565b60015b61154957506000919050565b6001600160a01b0381161561155d57600191505b505b919050565b6000610fc0600c61333a565b8161157a81613344565b506000600561158885613344565b815481106115985761159861599a565b60009182526020909120600b9091020160028101549091506001600160a01b03163381146115d85760405162461bcd60e51b8152600401610b4190615a33565b6002820180546001600160a01b0319166001600160a01b038681169190911790915560018084015482166000908152600e60205260409020908101549091161580159061166a576001600160a01b0383166000908152600760205260409020611641908861345f565b506001600160a01b0386166000908152600760205260409020611664908861346b565b506116b1565b6001600160a01b038316600090815260086020526040902061168c908861345f565b506001600160a01b03861660009081526008602052604090206116af908861346b565b505b7f9075ad040756c0d8743a1fed927066a92c4755071615bf61e04b17583d961caf8784886040516116e493929190615bc2565b60405180910390a150505050505050565b816116ff81613344565b506000600561170d85613344565b8154811061171d5761171d61599a565b600091825260209091206002600b90920201908101549091506001600160a01b0316331461175d5760405162461bcd60e51b8152600401610b4190615a33565b600681015415611776576117718184613477565b611780565b61178081846137d6565b50505050565b6001600160a01b0381166000908152600960205260408120610cef9061333a565b60606117ba60106040516110da90615a24565b82106117e05760016117d360106040516110da90615a24565b6117dd9190615b8e565b91505b60006117ec8484615b8e565b6117f7906001614ff6565b90506000816001600160401b0381111561181357611813615047565b60405190808252806020026020018201604052801561184c57816020015b611839614ecb565b8152602001906001900390816118315790505b5090506000855b8581116118c257611884610ae382601060405161186f90615a24565b9081526040519081900360200190209061339c565b8383815181106118965761189661599a565b602002602001018190525081806118ac90615a0b565b92505080806118ba90615a0b565b915050611853565b509095945050505050565b6118d5614e5f565b816118df84612ed9565b116118fc5760405162461bcd60e51b8152600401610b41906159e4565b6001600160a01b0383166000908152600860205260409020610eb7906103b1908461339c565b600082116119645760405162461bcd60e51b815260206004820152600f60248201526e1a5b9d985b1a59081b1bd8dac81a59608a1b6044820152606401610b41565b6000600661197184613407565b815481106119815761198161599a565b90600052602060002090600a0201905080600401548210156119b55760405162461bcd60e51b8152600401610b4190615be1565b60018101546001600160a01b031633146119e15760405162461bcd60e51b8152600401610b4190615a33565b600881015415611a035760405162461bcd60e51b8152600401610b4190615c13565b8054336000908152600960205260409020611a1d9161345f565b506002810154600882018190558154604051611a559190601090611a4090615a24565b9081526040519081900360200190209061345f565b50604051600090339083908381818185875af1925050503d8060008114611a98576040519150601f19603f3d011682016040523d82523d6000602084013e611a9d565b606091505b5050905080611adf5760405162461bcd60e51b815260206004820152600e60248201526d1d1c985b99995c8819985a5b195960921b6044820152606401610b41565b825460018401546040517f8af7b343ac14ff86ea14bc075fc0e761855633f85e24d12ff785b0673a22879591611b24916001600160a01b039091169086908990615c3e565b60405180910390a25050505050565b611b3b6133a8565b611b456000613993565b565b611b4f6133a8565b600380546001600160a01b0319166001600160a01b0392909216919091179055565b611b79614ecb565b60068281548110611b8c57611b8c61599a565b90600052602060002090600a020160405180610140016040529081600082015481526020016001820160009054906101000a90046001600160a01b03166001600160a01b03166001600160a01b0316815260200160028201548152602001600382015481526020016004820154815260200160058201548152602001600682015481526020016007820154815260200160088201548152602001600982018054610dbe906159b0565b81611c3f81613407565b5060006006611c4d85613407565b81548110611c5d57611c5d61599a565b60009182526020909120600a9091020160018101549091506001600160a01b0316338114611c9d5760405162461bcd60e51b8152600401610b4190615a33565b6001820180546001600160a01b0319166001600160a01b038681169190911790915581166000908152600960205260409020611cd9908661345f565b506001600160a01b0384166000908152600960205260409020611cfc908661346b565b507f9075ad040756c0d8743a1fed927066a92c4755071615bf61e04b17583d961caf858286604051611d3093929190615bc2565b60405180910390a15050505050565b6060611d4b600c61333a565b8210611d6a576001611d5d600c61333a565b611d679190615b8e565b91505b6000611d768484615b8e565b611d81906001614ff6565b90506000816001600160401b03811115611d9d57611d9d615047565b604051908082528060200260200182016040528015611dd657816020015b611dc3614f27565b815260200190600190039081611dbb5790505b5090506000855b8581116118c257600e6000611df3600c8461339c565b6001600160a01b03908116825260208083019390935260409182016000208251606081018452815483168152600182015490921693820193909352600290920154908201528351849084908110611e4c57611e4c61599a565b60200260200101819052508180611e6290615a0b565b9250508080611e7090615a0b565b915050611ddd565b611e80614f27565b600e6000611e8f600c8561339c565b6001600160a01b039081168252602080830193909352604091820160002082516060810184528154831681526001820154909216938201939093526002909201549082015292915050565b600080611ee68461317a565b9050611ef281846139ec565b949350505050565b611f026133a8565b6001600160a01b038116611f4a5760405162461bcd60e51b815260206004820152600f60248201526e496e76616c6964206164647265737360881b6044820152606401610b41565b601480546001600160a01b0319166001600160a01b0392909216919091179055565b60005461010090046001600160a01b031690565b611f886133a8565b600255565b611f956133a8565b6040516370a0823160e01b815282906000906001600160a01b038316906370a0823190611fc690309060040161553c565b602060405180830381865afa158015611fe3573d6000803e3d6000fd5b505050506040513d601f19601f820116820180604052508101906120079190615c5f565b90506001600160a01b0384166120575760405162461bcd60e51b8152602060048201526015602482015274696e76616c696420746f6b656e206164647265737360581b6044820152606401610b41565b828110156120a75760405162461bcd60e51b815260206004820152601e60248201527f696e73756666696369656e742066756e647320696e20636f6e747261637400006044820152606401610b41565b60405163a9059cbb60e01b81526001600160a01b0383169063a9059cbb906120d59033908790600401615c78565b6020604051808303816000875af11580156120f4573d6000803e3d6000fd5b505050506040513d601f19601f82011682018060405250810190611395919061591d565b6121206133a8565b600155565b61212d614f27565b600e6000611e8f600a8561339c565b6110c4816000611570565b6060612153600a61333a565b8210612172576001612165600a61333a565b61216f9190615b8e565b91505b600061217e8484615b8e565b612189906001614ff6565b90506000816001600160401b038111156121a5576121a5615047565b6040519080825280602002602001820160405280156121de57816020015b6121cb614f27565b8152602001906001900390816121c35790505b5090506000855b8581116118c257600e60006121fb600a8461339c565b6001600160a01b039081168252602080830193909352604091820160002082516060810184528154831681526001820154909216938201939093526002909201549082015283518490849081106122545761225461599a565b6020026020010181905250818061226a90615a0b565b925050808061227890615a0b565b9150506121e5565b6001600160a01b0381166000908152600760205260408120606091906122a59061333a565b90506000816001600160401b038111156122c1576122c1615047565b6040519080825280602002602001820160405280156122fa57816020015b6122e7614e5f565b8152602001906001900390816122df5790505b50905060005b82811015610f9c576001600160a01b038516600090815260076020526040902061232e906103b1908361339c565b8282815181106123405761234061599a565b6020026020010181905250808061235690615a0b565b915050612300565b8261236881613344565b506000600561237686613344565b815481106123865761238661599a565b600091825260209091206002600b90920201908101549091506001600160a01b031633146123c65760405162461bcd60e51b8152600401610b4190615a33565b6009810154156123e85760405162461bcd60e51b8152600401610b4190615a75565b60008311806123f75750600084115b1561253a5760145460405163526f812b60e11b81526001600160a01b039091169063a4df02569061242c90339060040161553c565b602060405180830381865afa158015612449573d6000803e3d6000fd5b505050506040513d601f19601f8201168201806040525081019061246d919061591d565b61253a576001543410156124935760405162461bcd60e51b8152600401610b4190615aa0565b6003546001546040516000926001600160a01b031691908381818185875af1925050503d80600081146124e2576040519150601f19603f3d011682016040523d82523d6000602084013e6124e7565b606091505b50509050806125385760405162461bcd60e51b815260206004820152601d60248201527f656469744c6f636b3a20666565207472616e73666572206661696c65640000006044820152606401610b41565b505b8215612577578060050154831015801561255357504283115b61256f5760405162461bcd60e51b8152600401610b4190615ad3565b600581018390555b83156126115780600301548410156125a15760405162461bcd60e51b8152600401610b4190615b3d565b60008160030154856125b39190615b8e565b9050801561260f576003820185905560018201546001600160a01b03166000908152600e6020526040902060028101546125ee908390614ff6565b6002820155600183015461260d906001600160a01b03163330856131e9565b505b505b805460018201546002830154600384015460058501546040517fa8b26360df8d5e154ffa5a8a7e894e85f781acfbbef0b744fb9551d8fd0fd36c94611b24946001600160a01b03918216949116929091615971565b6000610fc0600a61333a565b60008061267e84610cf5565b9050611ef28184613b0c565b8161269481613407565b50600060066126a285613407565b815481106126b2576126b261599a565b600091825260209091206001600a90920201908101549091506001600160a01b031633146126f25760405162461bcd60e51b8152600401610b4190615a33565b6117808184613c19565b600042861161271d5760405162461bcd60e51b8152600401610b4190615c91565b6000841161273d5760405162461bcd60e51b8152600401610b4190615cc6565b60008511801561274e575061271085105b61276a5760405162461bcd60e51b8152600401610b4190615ced565b60008311801561277b575061271083105b6127975760405162461bcd60e51b8152600401610b4190615d1b565b6127106127a48487614ff6565b11156127c25760405162461bcd60e51b8152600401610b4190615d4b565b600087116127e25760405162461bcd60e51b8152600401610b41906158af565b60145460405163526f812b60e11b81526001600160a01b039091169063a4df02569061281290339060040161553c565b602060405180830381865afa15801561282f573d6000803e3d6000fd5b505050506040513d601f19601f82011682018060405250810190612853919061591d565b6128d0576001543410156128795760405162461bcd60e51b8152600401610b419061593a565b6001546004600082825461288d9190614ff6565b90915550506003546001546040516001600160a01b039092169181156108fc0291906000818181858888f193505050501580156128ce573d6000803e3d6000fd5b505b6128e18a8a8a8a8a8a8a8a8a61319d565b90506128ef8933308a6131e9565b80600080516020615eb98339815191528a8c8a8a6040516129139493929190615971565b60405180910390a25b9998505050505050505050565b6110c4816000611c35565b600061293f82610cce565b61294883612ed9565b610cef9190614ff6565b8161295c81613344565b506000600561296a85613344565b8154811061297a5761297a61599a565b600091825260209091206002600b90920201908101549091506001600160a01b031633146129ba5760405162461bcd60e51b8152600401610b4190615a33565b82516129cf90600a8301906020860190614f47565b506040518481527fe4a1120fd509c50aec65802fd3c3c9a4b72bf746fe9a552396185c6de928e8aa9060200160405180910390a150505050565b6001600160a01b038116600090815260086020526040812060609190612a2e9061333a565b90506000816001600160401b03811115612a4a57612a4a615047565b604051908082528060200260200182016040528015612a8357816020015b612a70614e5f565b815260200190600190039081612a685790505b50905060005b82811015610f9c576001600160a01b0385166000908152600860205260409020612ab7906103b1908361339c565b828281518110612ac957612ac961599a565b60200260200101819052508080612adf90615a0b565b915050612a89565b60608a8914612b2c5760405162461bcd60e51b815260206004820152601160248201527013195b99dd1a081b5a5cdb585d18da1959607a1b6044820152606401610b41565b428611612b4b5760405162461bcd60e51b8152600401610b4190615c91565b60008411612b6b5760405162461bcd60e51b8152600401610b4190615cc6565b600085118015612b7c575061271085105b612b985760405162461bcd60e51b8152600401610b4190615ced565b600083118015612ba9575061271083105b612bc55760405162461bcd60e51b8152600401610b4190615d1b565b612710612bd28487614ff6565b1115612bf05760405162461bcd60e51b8152600401610b4190615d4b565b612c208c8c8c8c8c8c60405180608001604052808e81526020018d81526020018c81526020018b81525089613eb2565b9c9b505050505050505050505050565b6001600160a01b0381166000908152600f60205260408120610cef9061333a565b6000808711612c725760405162461bcd60e51b8152600401610b41906158af565b428611612cbf5760405162461bcd60e51b815260206004820152601b60248201527a506c656173652073657420612076616c696420544745206461746560281b6044820152606401610b41565b60008411612cdf5760405162461bcd60e51b8152600401610b4190615cc6565b600085118015612cf0575061271085105b612d0c5760405162461bcd60e51b8152600401610b4190615ced565b600083118015612d1d575061271083105b612d395760405162461bcd60e51b8152600401610b4190615d1b565b612710612d468487614ff6565b1115612d645760405162461bcd60e51b8152600401610b4190615d4b565b60145460405163526f812b60e11b81526001600160a01b039091169063a4df025690612d9490339060040161553c565b602060405180830381865afa158015612db1573d6000803e3d6000fd5b505050506040513d601f19601f82011682018060405250810190612dd5919061591d565b612e615786600254612de79190614ff6565b341015612e065760405162461bcd60e51b8152600401610b4190615d9d565b60025460046000828254612e1a9190614ff6565b90915550506003546002546040516001600160a01b039092169181156108fc0291906000818181858888f19350505050158015612e5b573d6000803e3d6000fd5b50612e81565b86341015612e815760405162461bcd60e51b8152600401610b4190615dd4565b612e9088888888888888614070565b9050807f20f7c5268098786f509c1f28cb089b96f36d68b9e1c572febdb5847f5ecb2897898989604051612ec693929190615c3e565b60405180910390a2979650505050505050565b6001600160a01b0381166000908152600860205260408120610cef9061333a565b6000428311612f1b5760405162461bcd60e51b8152600401610b41906158e6565b60008411612f3b5760405162461bcd60e51b8152600401610b41906158af565b60145460405163526f812b60e11b81526001600160a01b039091169063a4df025690612f6b90339060040161553c565b602060405180830381865afa158015612f88573d6000803e3d6000fd5b505050506040513d601f19601f82011682018060405250810190612fac919061591d565b6130385783600154612fbe9190614ff6565b341015612fdd5760405162461bcd60e51b8152600401610b4190615d9d565b60015460046000828254612ff19190614ff6565b90915550506003546001546040516001600160a01b039092169181156108fc0291906000818181858888f19350505050158015613032573d6000803e3d6000fd5b50613058565b833410156130585760405162461bcd60e51b8152600401610b4190615dd4565b613069858585600080600088614070565b9050807f20f7c5268098786f509c1f28cb089b96f36d68b9e1c572febdb5847f5ecb289786868660405161309f93929190615c3e565b60405180910390a2949350505050565b6130b7614e5f565b816130c184610cce565b116130de5760405162461bcd60e51b8152600401610b41906159e4565b6001600160a01b0383166000908152600760205260409020610eb7906103b1908461339c565b61310c6133a8565b6001600160a01b0381166131715760405162461bcd60e51b815260206004820152602660248201527f4f776e61626c653a206e6577206f776e657220697320746865207a65726f206160448201526564647265737360d01b6064820152608401610b41565b6110c481613993565b613182614ecb565b600661318d83613407565b81548110611b8c57611b8c61599a565b600087156131cb5760006131b08a6140da565b90506131c38b8b838b8b8b8b8b8b6141ee565b91505061291c565b6131db8a8a8989898989896142c7565b9a9950505050505050505050565b6040516370a0823160e01b81526000906001600160a01b038616906370a082319061321890869060040161553c565b602060405180830381865afa158015613235573d6000803e3d6000fd5b505050506040513d601f19601f820116820180604052508101906132599190615c5f565b90506132706001600160a01b038616858585614399565b6040516370a0823160e01b81526000906001600160a01b038716906370a082319061329f90879060040161553c565b602060405180830381865afa1580156132bc573d6000803e3d6000fd5b505050506040513d601f19601f820116820180604052508101906132e09190615c5f565b9050826132ed8383615b8e565b146113935760405162461bcd60e51b815260206004820181905260248201527f4e6f7420656e6f75676820746f6b656e20776173207472616e736665727265646044820152606401610b41565b6000610cef825490565b6000620f42408210156133695760405162461bcd60e51b8152600401610b4190615e09565b6000613378620f424084615b8e565b6005549091508110610cef5760405162461bcd60e51b8152600401610b4190615e09565b6000610eb783836143f1565b336133b1611f6c565b6001600160a01b031614611b455760405162461bcd60e51b815260206004820181905260248201527f4f776e61626c653a2063616c6c6572206973206e6f7420746865206f776e65726044820152606401610b41565b6000620f424082101561342c5760405162461bcd60e51b8152600401610b4190615e09565b600061343b620f424084615b8e565b6006549091508110610cef5760405162461bcd60e51b8152600401610b4190615e09565b6000610eb7838361441b565b6000610eb7838361450e565b60408051610160810182528354815260018401546001600160a01b039081166020830152600285015416918101919091526003830154606082015260048301546080820152600583015460a0820152600683015460c0820152600783015460e082015260088301546101008201526009830154610120820152600a830180546000926135989290918691610140840191613510906159b0565b80601f016020809104026020016040519081016040528092919081815260200182805461353c906159b0565b80156135895780601f1061355e57610100808354040283529160200191613589565b820191906000526020600020905b81548152906001019060200180831161356c57829003601f168201915b50505050508152505083613b0c565b905060008184600901546135ac9190614ff6565b90506000821180156135c2575083600301548111155b6135de5760405162461bcd60e51b8152600401610b4190615c13565b6001808501546001600160a01b039081166000908152600e60205260409020918201546003870154911615159083036136cb5780156136375785543360009081526007602052604090206136319161345f565b50613653565b85543360009081526008602052604090206136519161345f565b505b855460018701546001600160a01b03166000908152600f6020526040902061367a9161345f565b50855460018701546040517fc6532367992b32e42a62dd89fc3574876d97d081a263aa6e030f34b79b7e6e8b916136c2916001600160a01b0390911690339088904290615971565b60405180910390a25b838260020154116136e257600060028301556136f8565b8382600201546136f29190615b8e565b60028301555b816002015460000361374657801561372a57600186015461372490600a906001600160a01b031661455d565b50613746565b600186015461374490600c906001600160a01b031661455d565b505b600986018390556002860154600187015461376e916001600160a01b03918216911686614572565b855460018701546003880154604080516001600160a01b039093168352336020840152820187905260608201524260808201527ff93385ffdf40b698b13993c059834b8e91d0ca8e7abf827a34001ca03c03f6ff9060a00160405180910390a2505050505050565b81600501548110156137fa5760405162461bcd60e51b8152600401610b4190615be1565b60098201541561381c5760405162461bcd60e51b8152600401610b4190615c13565b6001808301546001600160a01b039081166000908152600e602052604090209182015416158015906138685783543360009081526007602052604090206138629161345f565b50613884565b83543360009081526008602052604090206138829161345f565b505b6003840154600283015481106138a057600060028401556138b6565b8083600201546138b09190615b8e565b60028401555b82600201546000036139045781156138e85760018501546138e290600a906001600160a01b031661455d565b50613904565b600185015461390290600c906001600160a01b031661455d565b505b60098501819055845460018601546001600160a01b03166000908152600f602052604090206139329161345f565b50600185015461394c906001600160a01b03163383614572565b845460018601546040517fc6532367992b32e42a62dd89fc3574876d97d081a263aa6e030f34b79b7e6e8b91611b24916001600160a01b0390911690339086908a90615971565b600080546001600160a01b03838116610100818102610100600160a81b0319851617855560405193049190911692909183917f8be0079c531659141344cd1fd0a4f28419497f9722a3daafe3b4186f6b6457e091a35050565b60008260400151600003613a0257506000610cef565b826040015183610100015110613a1a57506000610cef565b8260800151821015613a2e57506000610cef565b8260c00151600003613a4257506000610cef565b60006127108460a001518560400151613a5b9190615e32565b613a659190615e51565b90506000613a7e85604001518660e00151612710614596565b9050600085608001518510613ac55782828760c00151886080015188613aa49190615b8e565b613aae9190615e51565b613ab89190615e32565b613ac29190614ff6565b90505b60008660400151821115613aef578661010001518760400151613ae89190615b8e565b9050613b02565b610100870151613aff9083615b8e565b90505b9695505050505050565b60008260600151600003613b2257506000610cef565b826060015183610120015110613b3a57506000610cef565b8260a00151821015613b4e57506000610cef565b8260e00151600003613b6257506000610cef565b60006127108460c001518560600151613b7b9190615e32565b613b859190615e51565b90506000613b9f8560600151866101000151612710614596565b905060008560a001518510613be65782828760e001518860a0015188613bc59190615b8e565b613bcf9190615e51565b613bd99190615e32565b613be39190614ff6565b90505b60008660600151821115613c09578661012001518760600151613ae89190615b8e565b610120870151613aff9083615b8e565b60408051610140810182528354815260018401546001600160a01b031660208201526002840154918101919091526003830154606082015260048301546080820152600583015460a0820152600683015460c0820152600783015460e08201526008830154610100820152600983018054600092613d2c9290918691610120840191613ca4906159b0565b80601f0160208091040260200160405190810160405280929190818152602001828054613cd0906159b0565b8015613d1d5780601f10613cf257610100808354040283529160200191613d1d565b820191906000526020600020905b815481529060010190602001808311613d0057829003601f168201915b505050505081525050836139ec565b90506000818460080154613d409190614ff6565b9050600082118015613d56575083600201548111155b613d725760405162461bcd60e51b8152600401610b4190615c13565b83600201548103613dfd578354336000908152600960205260409020613d979161345f565b50613dae84600001546010604051611a4090615a24565b50835460018501546040517f8af7b343ac14ff86ea14bc075fc0e761855633f85e24d12ff785b0673a22879591613df4916001600160a01b039091169085904290615c3e565b60405180910390a25b6008840181905560018401546040516000916001600160a01b03169084908381818185875af1925050503d8060008114613e53576040519150601f19603f3d011682016040523d82523d6000602084013e613e58565b606091505b5050905080613e6657600080fd5b845460028601546040805133815260208101879052908101919091524260608201527f424477c0327de1b72ffa5652aa7ee249aa1216cc8f54b62a11fbd96d44ac68aa90608001611b24565b60606000613ec08888614644565b9050886000816001600160401b03811115613edd57613edd615047565b604051908082528060200260200182016040528015613f06578160200160208202803683370190505b50905060005b8281101561405457613f8a8d8d83818110613f2957613f2961599a565b9050602002016020810190613f3e919061516f565b8a8a8e8e86818110613f5257613f5261599a565b905060200201358b600060048110613f6c57613f6c61599a565b60209081029190910151908d015160408e015160608f01518e61319d565b828281518110613f9c57613f9c61599a565b602002602001018181525050818181518110613fba57613fba61599a565b6020026020010151600080516020615eb98339815191528a8f8f85818110613fe457613fe461599a565b9050602002016020810190613ff9919061516f565b8e8e8681811061400b5761400b61599a565b905060200201358b6000600481106140255761402561599a565b602002015160405161403a9493929190615971565b60405180910390a28061404c81615a0b565b915050613f0c565b50614061883330866131e9565b9b9a5050505050505050505050565b6000614081888888888888886146e7565b6001600160a01b03891660009081526009602052604090209091506140a6908261346b565b506140ce8160106040516140b990615a24565b9081526040519081900360200190209061346b565b50979650505050505050565b600080826001600160a01b031663c45a01556040518163ffffffff1660e01b8152600401602060405180830381865afa925050508015614137575060408051601f3d908101601f1916820190925261413491810190615ba5565b60015b6141835760405162461bcd60e51b815260206004820152601c60248201527f5468697320746f6b656e206973206e6f742061204c5020746f6b656e000000006044820152606401610b41565b90506001600160a01b038116158015906141a257506141a28382614924565b610cef5760405162461bcd60e51b815260206004820152601d60248201527f5468697320746f6b656e206973206e6f742061204c5020746f6b656e2e0000006044820152606401610b41565b60006142008a8a898989898989614a87565b6001600160a01b038b166000908152600760205260409020909150614225908261346b565b50614231600a8a614c0c565b506001600160a01b03808a166000908152600e6020526040902080549091166142815780546001600160a01b03808c166001600160a01b0319928316178355600183018054918c16919092161790555b8781600201546142919190614ff6565b60028201556001600160a01b038a166000908152600f602052604090206142b8908361346b565b50509998505050505050505050565b60006142d98989898989898989614a87565b6001600160a01b038a1660009081526008602052604090209091506142fe908261346b565b5061430a600c89614c0c565b506001600160a01b038089166000908152600e6020526040902080549091166143545780546001600160a01b038a166001600160a01b031991821617825560018201805490911690555b8781600201546143649190614ff6565b60028201556001600160a01b0389166000908152600f6020526040902061438b908361346b565b505098975050505050505050565b611780846323b872dd60e01b8585856040516024016143ba939291906157aa565b60408051601f198184030181529190526020810180516001600160e01b03166001600160e01b031990931692909217909152614c21565b60008260000182815481106144085761440861599a565b9060005260206000200154905092915050565b6000818152600183016020526040812054801561450457600061443f600183615b8e565b855490915060009061445390600190615b8e565b90508181146144b85760008660000182815481106144735761447361599a565b90600052602060002001549050808760000184815481106144965761449661599a565b6000918252602080832090910192909255918252600188019052604090208390555b85548690806144c9576144c9615e73565b600190038181906000526020600020016000905590558560010160008681526020019081526020016000206000905560019350505050610cef565b6000915050610cef565b600081815260018301602052604081205461455557508154600181810184556000848152602080822090930184905584548482528286019093526040902091909155610cef565b506000610cef565b6000610eb7836001600160a01b03841661441b565b6145918363a9059cbb60e01b84846040516024016143ba929190615c78565b505050565b60008080600019858709858702925082811083820303915050806000036145cf57600084116145c457600080fd5b508290049050610eb7565b8084116145db57600080fd5b60008486880960026001871981018816978890046003810283188082028403028082028403028082028403028082028403028082028403029081029092039091026000889003889004909101858311909403939093029303949094049190911702949350505050565b600080805b83811015610f9c578484828181106146635761466361599a565b905060200201356000036146af5760405162461bcd60e51b8152602060048201526013602482015272416d6f756e742063616e74206265207a65726f60681b6044820152606401610b41565b8484828181106146c1576146c161599a565b90506020020135826146d39190614ff6565b9150806146df81615a0b565b915050614649565b60006146f1614cf6565b60065461470290620f424090614ff6565b60408051610140810182528281526001600160a01b038b811660208084019182529383018c81524260608501908152608085018d815260a086018d815260c087018d815260e088018d815260006101008a018181526101208b018f81526006805460018101825593528b517ff652222313e28459528d920b65115c16c04f3efc82aaedc97be59f3f377c0d3f600a90940293840190815599517ff652222313e28459528d920b65115c16c04f3efc82aaedc97be59f3f377c0d40840180546001600160a01b03191691909c1617909a5596517ff652222313e28459528d920b65115c16c04f3efc82aaedc97be59f3f377c0d4182015594517ff652222313e28459528d920b65115c16c04f3efc82aaedc97be59f3f377c0d4286015592517ff652222313e28459528d920b65115c16c04f3efc82aaedc97be59f3f377c0d4385015590517ff652222313e28459528d920b65115c16c04f3efc82aaedc97be59f3f377c0d44840155517ff652222313e28459528d920b65115c16c04f3efc82aaedc97be59f3f377c0d45830155517ff652222313e28459528d920b65115c16c04f3efc82aaedc97be59f3f377c0d4682015590517ff652222313e28459528d920b65115c16c04f3efc82aaedc97be59f3f377c0d4782015591518051959650929485949193614915937ff652222313e28459528d920b65115c16c04f3efc82aaedc97be59f3f377c0d4801920190614f47565b50505050979650505050505050565b6000808390506000836001600160a01b031663e6a43905836001600160a01b0316630dfe16816040518163ffffffff1660e01b8152600401602060405180830381865afa158015614979573d6000803e3d6000fd5b505050506040513d601f19601f8201168201806040525081019061499d9190615ba5565b846001600160a01b031663d21220a76040518163ffffffff1660e01b8152600401602060405180830381865afa1580156149db573d6000803e3d6000fd5b505050506040513d601f19601f820116820180604052508101906149ff9190615ba5565b6040516001600160e01b031960e085901b1681526001600160a01b03928316600482015291166024820152604401602060405180830381865afa158015614a4a573d6000803e3d6000fd5b505050506040513d601f19601f82011682018060405250810190614a6e9190615ba5565b6001600160a01b03908116908616149250505092915050565b6000614a91614cf6565b600554614aa290620f424090614ff6565b905060006040518061016001604052808381526020018a6001600160a01b031681526020018b6001600160a01b031681526020018981526020014281526020018881526020018781526020018681526020018581526020016000815260200184815250905060058190806001815401808255809150506001900390600052602060002090600b02016000909190919091506000820151816000015560208201518160010160006101000a8154816001600160a01b0302191690836001600160a01b0316021790555060408201518160020160006101000a8154816001600160a01b0302191690836001600160a01b03160217905550606082015181600301556080820151816004015560a0820151816005015560c0820151816006015560e082015181600701556101008201518160080155610120820151816009015561014082015181600a019080519060200190614bfc929190614f47565b5050505098975050505050505050565b6000610eb7836001600160a01b03841661450e565b6000614c76826040518060400160405280602081526020017f5361666545524332303a206c6f772d6c6576656c2063616c6c206661696c6564815250856001600160a01b0316614d3c9092919063ffffffff16565b9050805160001480614c97575080806020019051810190614c97919061591d565b6145915760405162461bcd60e51b815260206004820152602a60248201527f5361666545524332303a204552433230206f7065726174696f6e20646964206e6044820152691bdd081cdd58d8d9595960b21b6064820152608401610b41565b60005460ff1615611b455760405162461bcd60e51b815260206004820152601060248201526f14185d5cd8589b194e881c185d5cd95960821b6044820152606401610b41565b6060611ef2848460008585600080866001600160a01b03168587604051614d639190615e89565b60006040518083038185875af1925050503d8060008114614da0576040519150601f19603f3d011682016040523d82523d6000602084013e614da5565b606091505b5091509150614db687838387614dc1565b979650505050505050565b60608315614e30578251600003614e29576001600160a01b0385163b614e295760405162461bcd60e51b815260206004820152601d60248201527f416464726573733a2063616c6c20746f206e6f6e2d636f6e74726163740000006044820152606401610b41565b5081611ef2565b611ef28383815115614e455781518083602001fd5b8060405162461bcd60e51b8152600401610b419190615ea5565b6040518061016001604052806000815260200160006001600160a01b0316815260200160006001600160a01b0316815260200160008152602001600081526020016000815260200160008152602001600081526020016000815260200160008152602001606081525090565b6040518061014001604052806000815260200160006001600160a01b0316815260200160008152602001600081526020016000815260200160008152602001600081526020016000815260200160008152602001606081525090565b604080516060810182526000808252602082018190529181019190915290565b828054614f53906159b0565b90600052602060002090601f016020900481019282614f755760008555614fbb565b82601f10614f8e57805160ff1916838001178555614fbb565b82800160010185558215614fbb579182015b82811115614fbb578251825591602001919060010190614fa0565b50614fc7929150614fcb565b5090565b5b80821115614fc75760008155600101614fcc565b634e487b7160e01b600052601160045260246000fd5b6000821982111561500957615009614fe0565b500190565b6001600160a01b03811681146110c457600080fd5b803561155f8161500e565b80151581146110c457600080fd5b803561155f8161502e565b634e487b7160e01b600052604160045260246000fd5b600082601f83011261506e57600080fd5b81356001600160401b038082111561508857615088615047565b604051601f8301601f19908116603f011681019082821181831017156150b0576150b0615047565b816040528381528660208588010111156150c957600080fd5b836020870160208301376000602085830101528094505050505092915050565b60008060008060008060c0878903121561510257600080fd5b863561510d8161500e565b9550602087013561511d8161500e565b9450604087013561512d8161502e565b9350606087013592506080870135915060a08701356001600160401b0381111561515657600080fd5b61516289828a0161505d565b9150509295509295509295565b60006020828403121561518157600080fd5b8135610eb78161500e565b60006020828403121561519e57600080fd5b5035919050565b6001600160a01b03169052565b60005b838110156151cd5781810151838201526020016151b5565b838111156117805750506000910152565b600081518084526151f68160208601602086016151b2565b601f01601f19169290920160200192915050565b600061016082518452602083015161522560208601826151a5565b50604083015161523860408601826151a5565b50606083015160608501526080830151608085015260a083015160a085015260c083015160c085015260e083015160e0850152610100808401518186015250610120808401518186015250610140808401518282870152613b02838701826151de565b602081526000610eb7602083018461520a565b600080604083850312156152c157600080fd5b82356152cc8161500e565b946020939093013593505050565b60006101408251845260208301516152f560208601826151a5565b5060408301516040850152606083015160608501526080830151608085015260a083015160a085015260c083015160c085015260e083015160e0850152610100808401518186015250610120808401518282870152613b02838701826151de565b602081526000610eb760208301846152da565b6000602080830181845280855180835260408601915060408160051b870101925083870160005b828110156153be57603f198886030184526153ac8583516152da565b94509285019290850190600101615390565b5092979650505050505050565b6000806000606084860312156153e057600080fd5b505081359360208301359350604090920135919050565b60008060006060848603121561540c57600080fd5b83356154178161500e565b95602085013595506040909401359392505050565b6000602080830181845280855180835260408601915060408160051b870101925083870160005b828110156153be57603f1988860301845261546f85835161520a565b94509285019290850190600101615453565b6000806040838503121561549457600080fd5b8235915060208301356154a68161500e565b809150509250929050565b600080604083850312156154c457600080fd5b50508035926020909101359150565b80516001600160a01b03908116835260208083015190911690830152604090810151910152565b6020808252825182820181905260009190848201906040850190845b818110156114d5576155298385516154d3565b9284019260609290920191600101615516565b6001600160a01b0391909116815260200190565b60608101610cef82846154d3565b60008060008060008060008060006101208a8c03121561557d57600080fd5b89356155888161500e565b985060208a01356155988161500e565b975060408a01356155a88161502e565b965060608a0135955060808a0135945060a08a0135935060c08a0135925060e08a013591506101008a01356001600160401b038111156155e757600080fd5b6155f38c828d0161505d565b9150509295985092959850929598565b6000806040838503121561561657600080fd5b8235915060208301356001600160401b0381111561563357600080fd5b61563f8582860161505d565b9150509250929050565b60008083601f84011261565b57600080fd5b5081356001600160401b0381111561567257600080fd5b6020830191508360208260051b850101111561568d57600080fd5b9250929050565b60008060008060008060008060008060006101208c8e0312156156b657600080fd5b6001600160401b03808d3511156156cc57600080fd5b6156d98e8e358f01615649565b909c509a5060208d01358110156156ef57600080fd5b6156ff8e60208f01358f01615649565b909a50985061571060408e01615023565b975061571e60608e0161503c565b965060808d0135955060a08d0135945060c08d0135935060e08d01359250806101008e0135111561574e57600080fd5b506157608d6101008e01358e0161505d565b90509295989b509295989b9093969950565b6020808252825182820181905260009190848201906040850190845b818110156114d55783518352928401929184019160010161578e565b6001600160a01b039384168152919092166020820152604081019190915260600190565b600080600080600080600060e0888a0312156157e957600080fd5b87356157f48161500e565b96506020880135955060408801359450606088013593506080880135925060a0880135915060c08801356001600160401b0381111561583257600080fd5b61583e8a828b0161505d565b91505092959891949750929550565b6000806000806080858703121561586357600080fd5b843561586e8161500e565b9350602085013592506040850135915060608501356001600160401b0381111561589757600080fd5b6158a38782880161505d565b91505092959194509250565b6020808252601f908201527f416d6f756e742073686f756c642062652067726561746572207468616e203000604082015260600190565b6020808252601e908201527f506c656173652073657420612076616c696420556e6c6f636b20446174650000604082015260600190565b60006020828403121561592f57600080fd5b8151610eb78161502e565b6020808252601f908201527f596f75206861766520746f207061792066656520666f72206c6f636b696e6700604082015260600190565b6001600160a01b0394851681529290931660208301526040820152606081019190915260800190565b634e487b7160e01b600052603260045260246000fd5b600181811c908216806159c457607f821691505b60208210810361155d57634e487b7160e01b600052602260045260246000fd5b6020808252600d908201526c092dcecc2d8d2c840d2dcc8caf609b1b604082015260600190565b600060018201615a1d57615a1d614fe0565b5060010190565b6221272160e91b815260030190565b60208082526022908201527f596f7520617265206e6f7420746865206f776e6572206f662074686973206c6f604082015261636b60f01b606082015260800190565b602080825260119082015270131bd8dac81dd85cc81d5b9b1bd8dad959607a1b604082015260600190565b602080825260199082015278119959481c995c5d5a5c9948199bdc88131bd8dac811591a5d603a1b604082015260600190565b60208082526044908201527f4e657720756e6c6f636b2074696d652073686f756c64206e6f7420626520626560408201527f666f7265206f6c6420756e6c6f636b2074696d65206f722063757272656e742060608201526374696d6560e01b608082015260a00190565b60208082526031908201527f4e657720616d6f756e742073686f756c64206e6f74206265206c657373207468604082015270185b8818dd5c9c995b9d08185b5bdd5b9d607a1b606082015260800190565b600082821015615ba057615ba0614fe0565b500390565b600060208284031215615bb757600080fd5b8151610eb78161500e565b9283526001600160a01b03918216602084015216604082015260600190565b6020808252601890820152774974206973206e6f742074696d6520746f20756e6c6f636b60401b604082015260600190565b6020808252601190820152704e6f7468696e6720746f20756e6c6f636b60781b604082015260600190565b6001600160a01b039390931683526020830191909152604082015260600190565b600060208284031215615c7157600080fd5b5051919050565b6001600160a01b03929092168252602082015260400190565b6020808252818101527f54474520646174652073686f756c6420626520696e2074686520667574757265604082015260600190565b6020808252600d908201526c496e76616c6964206379636c6560981b604082015260600190565b602080825260149082015273496e76616c6964206269707320666f722054474560601b604082015260600190565b602080825260169082015275496e76616c6964206269707320666f72206379636c6560501b604082015260600190565b60208082526032908201527f53756d206f66205447452062707320616e64206379636c652073686f756c642060408201527106265206c657373207468616e2031303030360741b606082015260800190565b6020808252601f908201527f596f75206861766520746f207061792066656520666f722076657374696e6700604082015260600190565b6020808252601b908201527a496e73756666696369656e7420616d6f756e7420746f206c6f636b60281b604082015260600190565b6020808252600f908201526e125b9d985b1a59081b1bd8dac81a59608a1b604082015260600190565b6000816000190483118215151615615e4c57615e4c614fe0565b500290565b600082615e6e57634e487b7160e01b600052601260045260246000fd5b500490565b634e487b7160e01b600052603160045260246000fd5b60008251615e9b8184602087016151b2565b9190910192915050565b602081526000610eb760208301846151de56fe694af1cc8727cdd0afbdd53d9b87b69248bd490224e9dd090e788546506e076fa2646970667358221220a577a77c1d9824fb5c56fd66db15cadf77aa2896d88cfcb184384003f9cbc09764736f6c634300080d0033",
			"opcodes": "PUSH1 0x80 PUSH1 0x40 MSTORE CALLVALUE DUP1 ISZERO PUSH3 0x11 JUMPI PUSH1 0x0 DUP1 REVERT JUMPDEST POP PUSH1 0x40 MLOAD PUSH3 0x6069 CODESIZE SUB DUP1 PUSH3 0x6069 DUP4 CODECOPY DUP2 ADD PUSH1 0x40 DUP2 SWAP1 MSTORE PUSH3 0x34 SWAP2 PUSH3 0x103 JUMP JUMPDEST PUSH1 0x0 DUP1 SLOAD PUSH1 0xFF NOT AND SWAP1 SSTORE PUSH3 0x49 CALLER PUSH3 0x91 JUMP JUMPDEST PUSH1 0x14 DUP1 SLOAD PUSH1 0x1 PUSH1 0x1 PUSH1 0xA0 SHL SUB SWAP5 DUP6 AND PUSH1 0x1 PUSH1 0x1 PUSH1 0xA0 SHL SUB NOT SWAP2 DUP3 AND OR SWAP1 SWAP2 SSTORE PUSH1 0x11 DUP1 SLOAD SWAP4 SWAP1 SWAP5 AND SWAP3 AND SWAP2 SWAP1 SWAP2 OR SWAP1 SWAP2 SSTORE PUSH1 0x12 SSTORE PUSH6 0x9184E72A000 PUSH1 0x1 DUP2 SWAP1 SSTORE PUSH1 0x2 SSTORE PUSH3 0x14B JUMP JUMPDEST PUSH1 0x0 DUP1 SLOAD PUSH1 0x1 PUSH1 0x1 PUSH1 0xA0 SHL SUB DUP4 DUP2 AND PUSH2 0x100 DUP2 DUP2 MUL PUSH2 0x100 PUSH1 0x1 PUSH1 0xA8 SHL SUB NOT DUP6 AND OR DUP6 SSTORE PUSH1 0x40 MLOAD SWAP4 DIV SWAP2 SWAP1 SWAP2 AND SWAP3 SWAP1 SWAP2 DUP4 SWAP2 PUSH32 0x8BE0079C531659141344CD1FD0A4F28419497F9722A3DAAFE3B4186F6B6457E0 SWAP2 LOG3 POP POP JUMP JUMPDEST PUSH1 0x1 PUSH1 0x1 PUSH1 0xA0 SHL SUB DUP2 AND DUP2 EQ PUSH3 0x100 JUMPI PUSH1 0x0 DUP1 REVERT JUMPDEST POP JUMP JUMPDEST PUSH1 0x0 DUP1 PUSH1 0x0 PUSH1 0x60 DUP5 DUP7 SUB SLT ISZERO PUSH3 0x119 JUMPI PUSH1 0x0 DUP1 REVERT JUMPDEST DUP4 MLOAD PUSH3 0x126 DUP2 PUSH3 0xEA JUMP JUMPDEST PUSH1 0x20 DUP6 ADD MLOAD SWAP1 SWAP4 POP PUSH3 0x139 DUP2 PUSH3 0xEA JUMP JUMPDEST DUP1 SWAP3 POP POP PUSH1 0x40 DUP5 ADD MLOAD SWAP1 POP SWAP3 POP SWAP3 POP SWAP3 JUMP JUMPDEST PUSH2 0x5F0E DUP1 PUSH3 0x15B PUSH1 0x0 CODECOPY PUSH1 0x0 RETURN INVALID PUSH1 0x80 PUSH1 0x40 MSTORE PUSH1 0x4 CALLDATASIZE LT PUSH2 0x32C JUMPI PUSH1 0x0 CALLDATALOAD PUSH1 0xE0 SHR DUP1 PUSH4 0x80554E9A GT PUSH2 0x1B2 JUMPI DUP1 PUSH4 0xCC64FB7A GT PUSH2 0xED JUMPI DUP1 PUSH4 0xEB3CE7C7 GT PUSH2 0x90 JUMPI DUP1 PUSH4 0xEB3CE7C7 EQ PUSH2 0xA22 JUMPI DUP1 PUSH4 0xEB80BDAE EQ PUSH2 0xA35 JUMPI DUP1 PUSH4 0xEE0C493A EQ PUSH2 0xA55 JUMPI DUP1 PUSH4 0xEEACF786 EQ PUSH2 0xA68 JUMPI DUP1 PUSH4 0xF2FDE38B EQ PUSH2 0xA88 JUMPI DUP1 PUSH4 0xF7260D3E EQ PUSH2 0xAA8 JUMPI DUP1 PUSH4 0xFBA7FD71 EQ PUSH2 0xAC8 JUMPI DUP1 PUSH4 0xFD981C66 EQ PUSH2 0xAE8 JUMPI PUSH1 0x0 DUP1 REVERT JUMPDEST DUP1 PUSH4 0xCC64FB7A EQ PUSH2 0x8E7 JUMPI DUP1 PUSH4 0xCD83EADC EQ PUSH2 0x907 JUMPI DUP1 PUSH4 0xD3CAC885 EQ PUSH2 0x927 JUMPI DUP1 PUSH4 0xD738A44E EQ PUSH2 0x947 JUMPI DUP1 PUSH4 0xDA1D8CFF EQ PUSH2 0x95D JUMPI DUP1 PUSH4 0xE0DA83CE EQ PUSH2 0x97D JUMPI DUP1 PUSH4 0xE1444FD6 EQ PUSH2 0x9AA JUMPI DUP1 PUSH4 0xE3676F88 EQ PUSH2 0xA02 JUMPI PUSH1 0x0 DUP1 REVERT JUMPDEST DUP1 PUSH4 0xA57E3141 GT PUSH2 0x155 JUMPI DUP1 PUSH4 0xA57E3141 EQ PUSH2 0x80C JUMPI DUP1 PUSH4 0xAEC640C6 EQ PUSH2 0x82C JUMPI DUP1 PUSH4 0xAEF0E540 EQ PUSH2 0x84C JUMPI DUP1 PUSH4 0xB3B9AA48 EQ PUSH2 0x86C JUMPI DUP1 PUSH4 0xB982922E EQ PUSH2 0x87F JUMPI DUP1 PUSH4 0xBD9574DB EQ PUSH2 0x894 JUMPI DUP1 PUSH4 0xC61EAAE0 EQ PUSH2 0x8B4 JUMPI DUP1 PUSH4 0xCB645E32 EQ PUSH2 0x8D4 JUMPI PUSH1 0x0 DUP1 REVERT JUMPDEST DUP1 PUSH4 0x80554E9A EQ PUSH2 0x721 JUMPI DUP1 PUSH4 0x8CA1F1B4 EQ PUSH2 0x741 JUMPI DUP1 PUSH4 0x8DA5CB5B EQ PUSH2 0x761 JUMPI DUP1 PUSH4 0x95874B27 EQ PUSH2 0x776 JUMPI DUP1 PUSH4 0x9C8B9E7B EQ PUSH2 0x796 JUMPI DUP1 PUSH4 0x9E281A98 EQ PUSH2 0x7AC JUMPI DUP1 PUSH4 0x9F7260BD EQ PUSH2 0x7CC JUMPI DUP1 PUSH4 0xA20B8C18 EQ PUSH2 0x7EC JUMPI PUSH1 0x0 DUP1 REVERT JUMPDEST DUP1 PUSH4 0x4C8948C9 GT PUSH2 0x282 JUMPI DUP1 PUSH4 0x6CE850E3 GT PUSH2 0x225 JUMPI DUP1 PUSH4 0x6CE850E3 EQ PUSH2 0x612 JUMPI DUP1 PUSH4 0x715018A6 EQ PUSH2 0x625 JUMPI DUP1 PUSH4 0x718DA7EE EQ PUSH2 0x63A JUMPI DUP1 PUSH4 0x75C9007C EQ PUSH2 0x65A JUMPI DUP1 PUSH4 0x75D39C7C EQ PUSH2 0x67A JUMPI DUP1 PUSH4 0x76C12822 EQ PUSH2 0x69A JUMPI DUP1 PUSH4 0x7D207E3A EQ PUSH2 0x6C7 JUMPI DUP1 PUSH4 0x7E6706D3 EQ PUSH2 0x6F4 JUMPI PUSH1 0x0 DUP1 REVERT JUMPDEST DUP1 PUSH4 0x4C8948C9 EQ PUSH2 0x52F JUMPI DUP1 PUSH4 0x56A06235 EQ PUSH2 0x544 JUMPI DUP1 PUSH4 0x5A04FB69 EQ PUSH2 0x55A JUMPI DUP1 PUSH4 0x5BFADB24 EQ PUSH2 0x57A JUMPI DUP1 PUSH4 0x5C975ABB EQ PUSH2 0x59A JUMPI DUP1 PUSH4 0x5CC36CDE EQ PUSH2 0x5B2 JUMPI DUP1 PUSH4 0x5E92B2CF EQ PUSH2 0x5D2 JUMPI DUP1 PUSH4 0x618DF7A3 EQ PUSH2 0x5F2 JUMPI PUSH1 0x0 DUP1 REVERT JUMPDEST DUP1 PUSH4 0x7279357 EQ PUSH2 0x350 JUMPI DUP1 PUSH4 0x7873EF1 EQ PUSH2 0x376 JUMPI DUP1 PUSH4 0x8F12470 EQ PUSH2 0x396 JUMPI DUP1 PUSH4 0xD4F581A EQ PUSH2 0x3C3 JUMPI DUP1 PUSH4 0x1033218F EQ PUSH2 0x3E3 JUMPI DUP1 PUSH4 0x148564E8 EQ PUSH2 0x3F9 JUMPI DUP1 PUSH4 0x181550E6 EQ PUSH2 0x426 JUMPI DUP1 PUSH4 0x1982242C EQ PUSH2 0x453 JUMPI DUP1 PUSH4 0x1D111D13 EQ PUSH2 0x468 JUMPI DUP1 PUSH4 0x1FF5EA6F EQ PUSH2 0x47F JUMPI DUP1 PUSH4 0x2A697129 EQ PUSH2 0x495 JUMPI DUP1 PUSH4 0x2AAA7655 EQ PUSH2 0x4AA JUMPI DUP1 PUSH4 0x332F26D7 EQ PUSH2 0x4BD JUMPI DUP1 PUSH4 0x39747AC0 EQ PUSH2 0x4EA JUMPI DUP1 PUSH4 0x475831C8 EQ PUSH2 0x51A JUMPI PUSH1 0x0 DUP1 REVERT JUMPDEST CALLDATASIZE PUSH2 0x34B JUMPI CALLVALUE PUSH1 0x13 PUSH1 0x0 DUP3 DUP3 SLOAD PUSH2 0x343 SWAP2 SWAP1 PUSH2 0x4FF6 JUMP JUMPDEST SWAP3 POP POP DUP2 SWAP1 SSTORE STOP JUMPDEST PUSH1 0x0 DUP1 REVERT JUMPDEST PUSH2 0x363 PUSH2 0x35E CALLDATASIZE PUSH1 0x4 PUSH2 0x50E9 JUMP JUMPDEST PUSH2 0xAFD JUMP JUMPDEST PUSH1 0x40 MLOAD SWAP1 DUP2 MSTORE PUSH1 0x20 ADD JUMPDEST PUSH1 0x40 MLOAD DUP1 SWAP2 SUB SWAP1 RETURN JUMPDEST CALLVALUE DUP1 ISZERO PUSH2 0x382 JUMPI PUSH1 0x0 DUP1 REVERT JUMPDEST POP PUSH2 0x363 PUSH2 0x391 CALLDATASIZE PUSH1 0x4 PUSH2 0x516F JUMP JUMPDEST PUSH2 0xCCE JUMP JUMPDEST CALLVALUE DUP1 ISZERO PUSH2 0x3A2 JUMPI PUSH1 0x0 DUP1 REVERT JUMPDEST POP PUSH2 0x3B6 PUSH2 0x3B1 CALLDATASIZE PUSH1 0x4 PUSH2 0x518C JUMP JUMPDEST PUSH2 0xCF5 JUMP JUMPDEST PUSH1 0x40 MLOAD PUSH2 0x36D SWAP2 SWAP1 PUSH2 0x529B JUMP JUMPDEST CALLVALUE DUP1 ISZERO PUSH2 0x3CF JUMPI PUSH1 0x0 DUP1 REVERT JUMPDEST POP PUSH2 0x3B6 PUSH2 0x3DE CALLDATASIZE PUSH1 0x4 PUSH2 0x518C JUMP JUMPDEST PUSH2 0xE47 JUMP JUMPDEST CALLVALUE DUP1 ISZERO PUSH2 0x3EF JUMPI PUSH1 0x0 DUP1 REVERT JUMPDEST POP PUSH2 0x363 PUSH1 0x2 SLOAD DUP2 JUMP JUMPDEST CALLVALUE DUP1 ISZERO PUSH2 0x405 JUMPI PUSH1 0x0 DUP1 REVERT JUMPDEST POP PUSH2 0x419 PUSH2 0x414 CALLDATASIZE PUSH1 0x4 PUSH2 0x52AE JUMP JUMPDEST PUSH2 0xE62 JUMP JUMPDEST PUSH1 0x40 MLOAD PUSH2 0x36D SWAP2 SWAP1 PUSH2 0x5356 JUMP JUMPDEST CALLVALUE DUP1 ISZERO PUSH2 0x432 JUMPI PUSH1 0x0 DUP1 REVERT JUMPDEST POP PUSH2 0x446 PUSH2 0x441 CALLDATASIZE PUSH1 0x4 PUSH2 0x516F JUMP JUMPDEST PUSH2 0xEBE JUMP JUMPDEST PUSH1 0x40 MLOAD PUSH2 0x36D SWAP2 SWAP1 PUSH2 0x5369 JUMP JUMPDEST CALLVALUE DUP1 ISZERO PUSH2 0x45F JUMPI PUSH1 0x0 DUP1 REVERT JUMPDEST POP PUSH2 0x363 PUSH2 0xFA4 JUMP JUMPDEST CALLVALUE DUP1 ISZERO PUSH2 0x474 JUMPI PUSH1 0x0 DUP1 REVERT JUMPDEST POP PUSH2 0x47D PUSH2 0xFC5 JUMP JUMPDEST STOP JUMPDEST CALLVALUE DUP1 ISZERO PUSH2 0x48B JUMPI PUSH1 0x0 DUP1 REVERT JUMPDEST POP PUSH2 0x363 PUSH1 0x12 SLOAD DUP2 JUMP JUMPDEST CALLVALUE DUP1 ISZERO PUSH2 0x4A1 JUMPI PUSH1 0x0 DUP1 REVERT JUMPDEST POP PUSH2 0x363 PUSH2 0x10C7 JUMP JUMPDEST PUSH2 0x47D PUSH2 0x4B8 CALLDATASIZE PUSH1 0x4 PUSH2 0x53CB JUMP JUMPDEST PUSH2 0x10ED JUMP JUMPDEST CALLVALUE DUP1 ISZERO PUSH2 0x4C9 JUMPI PUSH1 0x0 DUP1 REVERT JUMPDEST POP PUSH2 0x4DD PUSH2 0x4D8 CALLDATASIZE PUSH1 0x4 PUSH2 0x53F7 JUMP JUMPDEST PUSH2 0x139C JUMP JUMPDEST PUSH1 0x40 MLOAD PUSH2 0x36D SWAP2 SWAP1 PUSH2 0x542C JUMP JUMPDEST CALLVALUE DUP1 ISZERO PUSH2 0x4F6 JUMPI PUSH1 0x0 DUP1 REVERT JUMPDEST POP PUSH2 0x50A PUSH2 0x505 CALLDATASIZE PUSH1 0x4 PUSH2 0x516F JUMP JUMPDEST PUSH2 0x14E1 JUMP JUMPDEST PUSH1 0x40 MLOAD SWAP1 ISZERO ISZERO DUP2 MSTORE PUSH1 0x20 ADD PUSH2 0x36D JUMP JUMPDEST CALLVALUE DUP1 ISZERO PUSH2 0x526 JUMPI PUSH1 0x0 DUP1 REVERT JUMPDEST POP PUSH2 0x363 PUSH2 0x1564 JUMP JUMPDEST CALLVALUE DUP1 ISZERO PUSH2 0x53B JUMPI PUSH1 0x0 DUP1 REVERT JUMPDEST POP PUSH1 0x6 SLOAD PUSH2 0x363 JUMP JUMPDEST CALLVALUE DUP1 ISZERO PUSH2 0x550 JUMPI PUSH1 0x0 DUP1 REVERT JUMPDEST POP PUSH2 0x363 PUSH1 0x1 SLOAD DUP2 JUMP JUMPDEST CALLVALUE DUP1 ISZERO PUSH2 0x566 JUMPI PUSH1 0x0 DUP1 REVERT JUMPDEST POP PUSH2 0x47D PUSH2 0x575 CALLDATASIZE PUSH1 0x4 PUSH2 0x5481 JUMP JUMPDEST PUSH2 0x1570 JUMP JUMPDEST CALLVALUE DUP1 ISZERO PUSH2 0x586 JUMPI PUSH1 0x0 DUP1 REVERT JUMPDEST POP PUSH2 0x47D PUSH2 0x595 CALLDATASIZE PUSH1 0x4 PUSH2 0x54B1 JUMP JUMPDEST PUSH2 0x16F5 JUMP JUMPDEST CALLVALUE DUP1 ISZERO PUSH2 0x5A6 JUMPI PUSH1 0x0 DUP1 REVERT JUMPDEST POP PUSH1 0x0 SLOAD PUSH1 0xFF AND PUSH2 0x50A JUMP JUMPDEST CALLVALUE DUP1 ISZERO PUSH2 0x5BE JUMPI PUSH1 0x0 DUP1 REVERT JUMPDEST POP PUSH2 0x363 PUSH2 0x5CD CALLDATASIZE PUSH1 0x4 PUSH2 0x516F JUMP JUMPDEST PUSH2 0x1786 JUMP JUMPDEST CALLVALUE DUP1 ISZERO PUSH2 0x5DE JUMPI PUSH1 0x0 DUP1 REVERT JUMPDEST POP PUSH2 0x446 PUSH2 0x5ED CALLDATASIZE PUSH1 0x4 PUSH2 0x54B1 JUMP JUMPDEST PUSH2 0x17A7 JUMP JUMPDEST CALLVALUE DUP1 ISZERO PUSH2 0x5FE JUMPI PUSH1 0x0 DUP1 REVERT JUMPDEST POP PUSH2 0x3B6 PUSH2 0x60D CALLDATASIZE PUSH1 0x4 PUSH2 0x52AE JUMP JUMPDEST PUSH2 0x18CD JUMP JUMPDEST PUSH2 0x47D PUSH2 0x620 CALLDATASIZE PUSH1 0x4 PUSH2 0x54B1 JUMP JUMPDEST PUSH2 0x1922 JUMP JUMPDEST CALLVALUE DUP1 ISZERO PUSH2 0x631 JUMPI PUSH1 0x0 DUP1 REVERT JUMPDEST POP PUSH2 0x47D PUSH2 0x1B33 JUMP JUMPDEST CALLVALUE DUP1 ISZERO PUSH2 0x646 JUMPI PUSH1 0x0 DUP1 REVERT JUMPDEST POP PUSH2 0x47D PUSH2 0x655 CALLDATASIZE PUSH1 0x4 PUSH2 0x516F JUMP JUMPDEST PUSH2 0x1B47 JUMP JUMPDEST CALLVALUE DUP1 ISZERO PUSH2 0x666 JUMPI PUSH1 0x0 DUP1 REVERT JUMPDEST POP PUSH2 0x419 PUSH2 0x675 CALLDATASIZE PUSH1 0x4 PUSH2 0x518C JUMP JUMPDEST PUSH2 0x1B71 JUMP JUMPDEST CALLVALUE DUP1 ISZERO PUSH2 0x686 JUMPI PUSH1 0x0 DUP1 REVERT JUMPDEST POP PUSH2 0x47D PUSH2 0x695 CALLDATASIZE PUSH1 0x4 PUSH2 0x5481 JUMP JUMPDEST PUSH2 0x1C35 JUMP JUMPDEST CALLVALUE DUP1 ISZERO PUSH2 0x6A6 JUMPI PUSH1 0x0 DUP1 REVERT JUMPDEST POP PUSH2 0x6BA PUSH2 0x6B5 CALLDATASIZE PUSH1 0x4 PUSH2 0x54B1 JUMP JUMPDEST PUSH2 0x1D3F JUMP JUMPDEST PUSH1 0x40 MLOAD PUSH2 0x36D SWAP2 SWAP1 PUSH2 0x54FA JUMP JUMPDEST CALLVALUE DUP1 ISZERO PUSH2 0x6D3 JUMPI PUSH1 0x0 DUP1 REVERT JUMPDEST POP PUSH1 0x14 SLOAD PUSH2 0x6E7 SWAP1 PUSH1 0x1 PUSH1 0x1 PUSH1 0xA0 SHL SUB AND DUP2 JUMP JUMPDEST PUSH1 0x40 MLOAD PUSH2 0x36D SWAP2 SWAP1 PUSH2 0x553C JUMP JUMPDEST CALLVALUE DUP1 ISZERO PUSH2 0x700 JUMPI PUSH1 0x0 DUP1 REVERT JUMPDEST POP PUSH2 0x714 PUSH2 0x70F CALLDATASIZE PUSH1 0x4 PUSH2 0x518C JUMP JUMPDEST PUSH2 0x1E78 JUMP JUMPDEST PUSH1 0x40 MLOAD PUSH2 0x36D SWAP2 SWAP1 PUSH2 0x5550 JUMP JUMPDEST CALLVALUE DUP1 ISZERO PUSH2 0x72D JUMPI PUSH1 0x0 DUP1 REVERT JUMPDEST POP PUSH2 0x363 PUSH2 0x73C CALLDATASIZE PUSH1 0x4 PUSH2 0x54B1 JUMP JUMPDEST PUSH2 0x1EDA JUMP JUMPDEST CALLVALUE DUP1 ISZERO PUSH2 0x74D JUMPI PUSH1 0x0 DUP1 REVERT JUMPDEST POP PUSH2 0x47D PUSH2 0x75C CALLDATASIZE PUSH1 0x4 PUSH2 0x516F JUMP JUMPDEST PUSH2 0x1EFA JUMP JUMPDEST CALLVALUE DUP1 ISZERO PUSH2 0x76D JUMPI PUSH1 0x0 DUP1 REVERT JUMPDEST POP PUSH2 0x6E7 PUSH2 0x1F6C JUMP JUMPDEST CALLVALUE DUP1 ISZERO PUSH2 0x782 JUMPI PUSH1 0x0 DUP1 REVERT JUMPDEST POP PUSH2 0x47D PUSH2 0x791 CALLDATASIZE PUSH1 0x4 PUSH2 0x518C JUMP JUMPDEST PUSH2 0x1F80 JUMP JUMPDEST CALLVALUE DUP1 ISZERO PUSH2 0x7A2 JUMPI PUSH1 0x0 DUP1 REVERT JUMPDEST POP PUSH2 0x363 PUSH1 0x4 SLOAD DUP2 JUMP JUMPDEST CALLVALUE DUP1 ISZERO PUSH2 0x7B8 JUMPI PUSH1 0x0 DUP1 REVERT JUMPDEST POP PUSH2 0x47D PUSH2 0x7C7 CALLDATASIZE PUSH1 0x4 PUSH2 0x52AE JUMP JUMPDEST PUSH2 0x1F8D JUMP JUMPDEST CALLVALUE DUP1 ISZERO PUSH2 0x7D8 JUMPI PUSH1 0x0 DUP1 REVERT JUMPDEST POP PUSH2 0x47D PUSH2 0x7E7 CALLDATASIZE PUSH1 0x4 PUSH2 0x518C JUMP JUMPDEST PUSH2 0x2118 JUMP JUMPDEST CALLVALUE DUP1 ISZERO PUSH2 0x7F8 JUMPI PUSH1 0x0 DUP1 REVERT JUMPDEST POP PUSH2 0x714 PUSH2 0x807 CALLDATASIZE PUSH1 0x4 PUSH2 0x518C JUMP JUMPDEST PUSH2 0x2125 JUMP JUMPDEST CALLVALUE DUP1 ISZERO PUSH2 0x818 JUMPI PUSH1 0x0 DUP1 REVERT JUMPDEST POP PUSH2 0x47D PUSH2 0x827 CALLDATASIZE PUSH1 0x4 PUSH2 0x518C JUMP JUMPDEST PUSH2 0x213C JUMP JUMPDEST CALLVALUE DUP1 ISZERO PUSH2 0x838 JUMPI PUSH1 0x0 DUP1 REVERT JUMPDEST POP PUSH2 0x6BA PUSH2 0x847 CALLDATASIZE PUSH1 0x4 PUSH2 0x54B1 JUMP JUMPDEST PUSH2 0x2147 JUMP JUMPDEST CALLVALUE DUP1 ISZERO PUSH2 0x858 JUMPI PUSH1 0x0 DUP1 REVERT JUMPDEST POP PUSH2 0x4DD PUSH2 0x867 CALLDATASIZE PUSH1 0x4 PUSH2 0x516F JUMP JUMPDEST PUSH2 0x2280 JUMP JUMPDEST PUSH2 0x47D PUSH2 0x87A CALLDATASIZE PUSH1 0x4 PUSH2 0x53CB JUMP JUMPDEST PUSH2 0x235E JUMP JUMPDEST CALLVALUE DUP1 ISZERO PUSH2 0x88B JUMPI PUSH1 0x0 DUP1 REVERT JUMPDEST POP PUSH2 0x363 PUSH2 0x2666 JUMP JUMPDEST CALLVALUE DUP1 ISZERO PUSH2 0x8A0 JUMPI PUSH1 0x0 DUP1 REVERT JUMPDEST POP PUSH2 0x363 PUSH2 0x8AF CALLDATASIZE PUSH1 0x4 PUSH2 0x54B1 JUMP JUMPDEST PUSH2 0x2672 JUMP JUMPDEST CALLVALUE DUP1 ISZERO PUSH2 0x8C0 JUMPI PUSH1 0x0 DUP1 REVERT JUMPDEST POP PUSH2 0x47D PUSH2 0x8CF CALLDATASIZE PUSH1 0x4 PUSH2 0x54B1 JUMP JUMPDEST PUSH2 0x268A JUMP JUMPDEST PUSH2 0x363 PUSH2 0x8E2 CALLDATASIZE PUSH1 0x4 PUSH2 0x555E JUMP JUMPDEST PUSH2 0x26FC JUMP JUMPDEST CALLVALUE DUP1 ISZERO PUSH2 0x8F3 JUMPI PUSH1 0x0 DUP1 REVERT JUMPDEST POP PUSH2 0x47D PUSH2 0x902 CALLDATASIZE PUSH1 0x4 PUSH2 0x518C JUMP JUMPDEST PUSH2 0x2929 JUMP JUMPDEST CALLVALUE DUP1 ISZERO PUSH2 0x913 JUMPI PUSH1 0x0 DUP1 REVERT JUMPDEST POP PUSH2 0x363 PUSH2 0x922 CALLDATASIZE PUSH1 0x4 PUSH2 0x516F JUMP JUMPDEST PUSH2 0x2934 JUMP JUMPDEST CALLVALUE DUP1 ISZERO PUSH2 0x933 JUMPI PUSH1 0x0 DUP1 REVERT JUMPDEST POP PUSH2 0x47D PUSH2 0x942 CALLDATASIZE PUSH1 0x4 PUSH2 0x5603 JUMP JUMPDEST PUSH2 0x2952 JUMP JUMPDEST CALLVALUE DUP1 ISZERO PUSH2 0x953 JUMPI PUSH1 0x0 DUP1 REVERT JUMPDEST POP PUSH2 0x363 PUSH1 0x13 SLOAD DUP2 JUMP JUMPDEST CALLVALUE DUP1 ISZERO PUSH2 0x969 JUMPI PUSH1 0x0 DUP1 REVERT JUMPDEST POP PUSH2 0x4DD PUSH2 0x978 CALLDATASIZE PUSH1 0x4 PUSH2 0x516F JUMP JUMPDEST PUSH2 0x2A09 JUMP JUMPDEST CALLVALUE DUP1 ISZERO PUSH2 0x989 JUMPI PUSH1 0x0 DUP1 REVERT JUMPDEST POP PUSH2 0x99D PUSH2 0x998 CALLDATASIZE PUSH1 0x4 PUSH2 0x5694 JUMP JUMPDEST PUSH2 0x2AE7 JUMP JUMPDEST PUSH1 0x40 MLOAD PUSH2 0x36D SWAP2 SWAP1 PUSH2 0x5772 JUMP JUMPDEST CALLVALUE DUP1 ISZERO PUSH2 0x9B6 JUMPI PUSH1 0x0 DUP1 REVERT JUMPDEST POP PUSH2 0x9F3 PUSH2 0x9C5 CALLDATASIZE PUSH1 0x4 PUSH2 0x516F JUMP JUMPDEST PUSH1 0xE PUSH1 0x20 MSTORE PUSH1 0x0 SWAP1 DUP2 MSTORE PUSH1 0x40 SWAP1 KECCAK256 DUP1 SLOAD PUSH1 0x1 DUP3 ADD SLOAD PUSH1 0x2 SWAP1 SWAP3 ADD SLOAD PUSH1 0x1 PUSH1 0x1 PUSH1 0xA0 SHL SUB SWAP2 DUP3 AND SWAP3 SWAP1 SWAP2 AND SWAP1 DUP4 JUMP JUMPDEST PUSH1 0x40 MLOAD PUSH2 0x36D SWAP4 SWAP3 SWAP2 SWAP1 PUSH2 0x57AA JUMP JUMPDEST CALLVALUE DUP1 ISZERO PUSH2 0xA0E JUMPI PUSH1 0x0 DUP1 REVERT JUMPDEST POP PUSH2 0x363 PUSH2 0xA1D CALLDATASIZE PUSH1 0x4 PUSH2 0x516F JUMP JUMPDEST PUSH2 0x2C30 JUMP JUMPDEST PUSH2 0x363 PUSH2 0xA30 CALLDATASIZE PUSH1 0x4 PUSH2 0x57CE JUMP JUMPDEST PUSH2 0x2C51 JUMP JUMPDEST CALLVALUE DUP1 ISZERO PUSH2 0xA41 JUMPI PUSH1 0x0 DUP1 REVERT JUMPDEST POP PUSH2 0x363 PUSH2 0xA50 CALLDATASIZE PUSH1 0x4 PUSH2 0x516F JUMP JUMPDEST PUSH2 0x2ED9 JUMP JUMPDEST PUSH2 0x363 PUSH2 0xA63 CALLDATASIZE PUSH1 0x4 PUSH2 0x584D JUMP JUMPDEST PUSH2 0x2EFA JUMP JUMPDEST CALLVALUE DUP1 ISZERO PUSH2 0xA74 JUMPI PUSH1 0x0 DUP1 REVERT JUMPDEST POP PUSH2 0x3B6 PUSH2 0xA83 CALLDATASIZE PUSH1 0x4 PUSH2 0x52AE JUMP JUMPDEST PUSH2 0x30AF JUMP JUMPDEST CALLVALUE DUP1 ISZERO PUSH2 0xA94 JUMPI PUSH1 0x0 DUP1 REVERT JUMPDEST POP PUSH2 0x47D PUSH2 0xAA3 CALLDATASIZE PUSH1 0x4 PUSH2 0x516F JUMP JUMPDEST PUSH2 0x3104 JUMP JUMPDEST CALLVALUE DUP1 ISZERO PUSH2 0xAB4 JUMPI PUSH1 0x0 DUP1 REVERT JUMPDEST POP PUSH1 0x3 SLOAD PUSH2 0x6E7 SWAP1 PUSH1 0x1 PUSH1 0x1 PUSH1 0xA0 SHL SUB AND DUP2 JUMP JUMPDEST CALLVALUE DUP1 ISZERO PUSH2 0xAD4 JUMPI PUSH1 0x0 DUP1 REVERT JUMPDEST POP PUSH2 0x419 PUSH2 0xAE3 CALLDATASIZE PUSH1 0x4 PUSH2 0x518C JUMP JUMPDEST PUSH2 0x317A JUMP JUMPDEST CALLVALUE DUP1 ISZERO PUSH2 0xAF4 JUMPI PUSH1 0x0 DUP1 REVERT JUMPDEST POP PUSH1 0x5 SLOAD PUSH2 0x363 JUMP JUMPDEST PUSH1 0x0 PUSH1 0x1 PUSH1 0x1 PUSH1 0xA0 SHL SUB DUP7 AND PUSH2 0xB4A JUMPI PUSH1 0x40 MLOAD PUSH3 0x461BCD PUSH1 0xE5 SHL DUP2 MSTORE PUSH1 0x20 PUSH1 0x4 DUP3 ADD MSTORE PUSH1 0xD PUSH1 0x24 DUP3 ADD MSTORE PUSH13 0x24B73B30B634B2103A37B5B2B7 PUSH1 0x99 SHL PUSH1 0x44 DUP3 ADD MSTORE PUSH1 0x64 ADD JUMPDEST PUSH1 0x40 MLOAD DUP1 SWAP2 SUB SWAP1 REVERT JUMPDEST PUSH1 0x0 DUP5 GT PUSH2 0xB6A JUMPI PUSH1 0x40 MLOAD PUSH3 0x461BCD PUSH1 0xE5 SHL DUP2 MSTORE PUSH1 0x4 ADD PUSH2 0xB41 SWAP1 PUSH2 0x58AF JUMP JUMPDEST TIMESTAMP DUP4 GT PUSH2 0xB89 JUMPI PUSH1 0x40 MLOAD PUSH3 0x461BCD PUSH1 0xE5 SHL DUP2 MSTORE PUSH1 0x4 ADD PUSH2 0xB41 SWAP1 PUSH2 0x58E6 JUMP JUMPDEST PUSH1 0x14 SLOAD PUSH1 0x40 MLOAD PUSH4 0x526F812B PUSH1 0xE1 SHL DUP2 MSTORE PUSH1 0x1 PUSH1 0x1 PUSH1 0xA0 SHL SUB SWAP1 SWAP2 AND SWAP1 PUSH4 0xA4DF0256 SWAP1 PUSH2 0xBB9 SWAP1 CALLER SWAP1 PUSH1 0x4 ADD PUSH2 0x553C JUMP JUMPDEST PUSH1 0x20 PUSH1 0x40 MLOAD DUP1 DUP4 SUB DUP2 DUP7 GAS STATICCALL ISZERO DUP1 ISZERO PUSH2 0xBD6 JUMPI RETURNDATASIZE PUSH1 0x0 DUP1 RETURNDATACOPY RETURNDATASIZE PUSH1 0x0 REVERT JUMPDEST POP POP POP POP PUSH1 0x40 MLOAD RETURNDATASIZE PUSH1 0x1F NOT PUSH1 0x1F DUP3 ADD AND DUP3 ADD DUP1 PUSH1 0x40 MSTORE POP DUP2 ADD SWAP1 PUSH2 0xBFA SWAP2 SWAP1 PUSH2 0x591D JUMP JUMPDEST PUSH2 0xC77 JUMPI PUSH1 0x1 SLOAD CALLVALUE LT ISZERO PUSH2 0xC20 JUMPI PUSH1 0x40 MLOAD PUSH3 0x461BCD PUSH1 0xE5 SHL DUP2 MSTORE PUSH1 0x4 ADD PUSH2 0xB41 SWAP1 PUSH2 0x593A JUMP JUMPDEST PUSH1 0x1 SLOAD PUSH1 0x4 PUSH1 0x0 DUP3 DUP3 SLOAD PUSH2 0xC34 SWAP2 SWAP1 PUSH2 0x4FF6 JUMP JUMPDEST SWAP1 SWAP2 SSTORE POP POP PUSH1 0x3 SLOAD PUSH1 0x1 SLOAD PUSH1 0x40 MLOAD PUSH1 0x1 PUSH1 0x1 PUSH1 0xA0 SHL SUB SWAP1 SWAP3 AND SWAP2 DUP2 ISZERO PUSH2 0x8FC MUL SWAP2 SWAP1 PUSH1 0x0 DUP2 DUP2 DUP2 DUP6 DUP9 DUP9 CALL SWAP4 POP POP POP POP ISZERO DUP1 ISZERO PUSH2 0xC75 JUMPI RETURNDATASIZE PUSH1 0x0 DUP1 RETURNDATACOPY RETURNDATASIZE PUSH1 0x0 REVERT JUMPDEST POP JUMPDEST PUSH2 0xC8A DUP8 DUP8 DUP8 DUP8 DUP8 PUSH1 0x0 DUP1 PUSH1 0x0 DUP11 PUSH2 0x319D JUMP JUMPDEST SWAP1 POP PUSH2 0xC98 DUP7 CALLER ADDRESS DUP8 PUSH2 0x31E9 JUMP JUMPDEST DUP1 PUSH1 0x0 DUP1 MLOAD PUSH1 0x20 PUSH2 0x5EB9 DUP4 CODECOPY DUP2 MLOAD SWAP2 MSTORE DUP8 DUP10 DUP8 DUP8 PUSH1 0x40 MLOAD PUSH2 0xCBC SWAP5 SWAP4 SWAP3 SWAP2 SWAP1 PUSH2 0x5971 JUMP JUMPDEST PUSH1 0x40 MLOAD DUP1 SWAP2 SUB SWAP1 LOG2 SWAP7 SWAP6 POP POP POP POP POP POP JUMP JUMPDEST PUSH1 0x1 PUSH1 0x1 PUSH1 0xA0 SHL SUB DUP2 AND PUSH1 0x0 SWAP1 DUP2 MSTORE PUSH1 0x7 PUSH1 0x20 MSTORE PUSH1 0x40 DUP2 KECCAK256 PUSH2 0xCEF SWAP1 PUSH2 0x333A JUMP JUMPDEST SWAP3 SWAP2 POP POP JUMP JUMPDEST PUSH2 0xCFD PUSH2 0x4E5F JUMP JUMPDEST PUSH1 0x5 PUSH2 0xD08 DUP4 PUSH2 0x3344 JUMP JUMPDEST DUP2 SLOAD DUP2 LT PUSH2 0xD18 JUMPI PUSH2 0xD18 PUSH2 0x599A JUMP JUMPDEST PUSH1 0x0 SWAP2 DUP3 MSTORE PUSH1 0x20 SWAP2 DUP3 SWAP1 KECCAK256 PUSH1 0x40 DUP1 MLOAD PUSH2 0x160 DUP2 ADD DUP3 MSTORE PUSH1 0xB SWAP1 SWAP4 MUL SWAP1 SWAP2 ADD DUP1 SLOAD DUP4 MSTORE PUSH1 0x1 DUP2 ADD SLOAD PUSH1 0x1 PUSH1 0x1 PUSH1 0xA0 SHL SUB SWAP1 DUP2 AND SWAP5 DUP5 ADD SWAP5 SWAP1 SWAP5 MSTORE PUSH1 0x2 DUP2 ADD SLOAD SWAP1 SWAP4 AND SWAP1 DUP3 ADD MSTORE PUSH1 0x3 DUP3 ADD SLOAD PUSH1 0x60 DUP3 ADD MSTORE PUSH1 0x4 DUP3 ADD SLOAD PUSH1 0x80 DUP3 ADD MSTORE PUSH1 0x5 DUP3 ADD SLOAD PUSH1 0xA0 DUP3 ADD MSTORE PUSH1 0x6 DUP3 ADD SLOAD PUSH1 0xC0 DUP3 ADD MSTORE PUSH1 0x7 DUP3 ADD SLOAD PUSH1 0xE0 DUP3 ADD MSTORE PUSH1 0x8 DUP3 ADD SLOAD PUSH2 0x100 DUP3 ADD MSTORE PUSH1 0x9 DUP3 ADD SLOAD PUSH2 0x120 DUP3 ADD MSTORE PUSH1 0xA DUP3 ADD DUP1 SLOAD SWAP2 SWAP3 SWAP2 PUSH2 0x140 DUP5 ADD SWAP2 SWAP1 PUSH2 0xDBE SWAP1 PUSH2 0x59B0 JUMP JUMPDEST DUP1 PUSH1 0x1F ADD PUSH1 0x20 DUP1 SWAP2 DIV MUL PUSH1 0x20 ADD PUSH1 0x40 MLOAD SWAP1 DUP2 ADD PUSH1 0x40 MSTORE DUP1 SWAP3 SWAP2 SWAP1 DUP2 DUP2 MSTORE PUSH1 0x20 ADD DUP3 DUP1 SLOAD PUSH2 0xDEA SWAP1 PUSH2 0x59B0 JUMP JUMPDEST DUP1 ISZERO PUSH2 0xE37 JUMPI DUP1 PUSH1 0x1F LT PUSH2 0xE0C JUMPI PUSH2 0x100 DUP1 DUP4 SLOAD DIV MUL DUP4 MSTORE SWAP2 PUSH1 0x20 ADD SWAP2 PUSH2 0xE37 JUMP JUMPDEST DUP3 ADD SWAP2 SWAP1 PUSH1 0x0 MSTORE PUSH1 0x20 PUSH1 0x0 KECCAK256 SWAP1 JUMPDEST DUP2 SLOAD DUP2 MSTORE SWAP1 PUSH1 0x1 ADD SWAP1 PUSH1 0x20 ADD DUP1 DUP4 GT PUSH2 0xE1A JUMPI DUP3 SWAP1 SUB PUSH1 0x1F AND DUP3 ADD SWAP2 JUMPDEST POP POP POP POP POP DUP2 MSTORE POP POP SWAP1 POP SWAP2 SWAP1 POP JUMP JUMPDEST PUSH2 0xE4F PUSH2 0x4E5F JUMP JUMPDEST PUSH1 0x5 DUP3 DUP2 SLOAD DUP2 LT PUSH2 0xD18 JUMPI PUSH2 0xD18 PUSH2 0x599A JUMP JUMPDEST PUSH2 0xE6A PUSH2 0x4ECB JUMP JUMPDEST DUP2 PUSH2 0xE74 DUP5 PUSH2 0x1786 JUMP JUMPDEST GT PUSH2 0xE91 JUMPI PUSH1 0x40 MLOAD PUSH3 0x461BCD PUSH1 0xE5 SHL DUP2 MSTORE PUSH1 0x4 ADD PUSH2 0xB41 SWAP1 PUSH2 0x59E4 JUMP JUMPDEST PUSH1 0x1 PUSH1 0x1 PUSH1 0xA0 SHL SUB DUP4 AND PUSH1 0x0 SWAP1 DUP2 MSTORE PUSH1 0x9 PUSH1 0x20 MSTORE PUSH1 0x40 SWAP1 KECCAK256 PUSH2 0xEB7 SWAP1 PUSH2 0xAE3 SWAP1 DUP5 PUSH2 0x339C JUMP JUMPDEST SWAP4 SWAP3 POP POP POP JUMP JUMPDEST PUSH1 0x1 PUSH1 0x1 PUSH1 0xA0 SHL SUB DUP2 AND PUSH1 0x0 SWAP1 DUP2 MSTORE PUSH1 0x9 PUSH1 0x20 MSTORE PUSH1 0x40 DUP2 KECCAK256 PUSH1 0x60 SWAP2 SWAP1 PUSH2 0xEE3 SWAP1 PUSH2 0x333A JUMP JUMPDEST SWAP1 POP PUSH1 0x0 DUP2 PUSH1 0x1 PUSH1 0x1 PUSH1 0x40 SHL SUB DUP2 GT ISZERO PUSH2 0xEFF JUMPI PUSH2 0xEFF PUSH2 0x5047 JUMP JUMPDEST PUSH1 0x40 MLOAD SWAP1 DUP1 DUP3 MSTORE DUP1 PUSH1 0x20 MUL PUSH1 0x20 ADD DUP3 ADD PUSH1 0x40 MSTORE DUP1 ISZERO PUSH2 0xF38 JUMPI DUP2 PUSH1 0x20 ADD JUMPDEST PUSH2 0xF25 PUSH2 0x4ECB JUMP JUMPDEST DUP2 MSTORE PUSH1 0x20 ADD SWAP1 PUSH1 0x1 SWAP1 SUB SWAP1 DUP2 PUSH2 0xF1D JUMPI SWAP1 POP JUMPDEST POP SWAP1 POP PUSH1 0x0 JUMPDEST DUP3 DUP2 LT ISZERO PUSH2 0xF9C JUMPI PUSH1 0x1 PUSH1 0x1 PUSH1 0xA0 SHL SUB DUP6 AND PUSH1 0x0 SWAP1 DUP2 MSTORE PUSH1 0x9 PUSH1 0x20 MSTORE PUSH1 0x40 SWAP1 KECCAK256 PUSH2 0xF6C SWAP1 PUSH2 0xAE3 SWAP1 DUP4 PUSH2 0x339C JUMP JUMPDEST DUP3 DUP3 DUP2 MLOAD DUP2 LT PUSH2 0xF7E JUMPI PUSH2 0xF7E PUSH2 0x599A JUMP JUMPDEST PUSH1 0x20 MUL PUSH1 0x20 ADD ADD DUP2 SWAP1 MSTORE POP DUP1 DUP1 PUSH2 0xF94 SWAP1 PUSH2 0x5A0B JUMP JUMPDEST SWAP2 POP POP PUSH2 0xF3E JUMP JUMPDEST POP SWAP4 SWAP3 POP POP POP JUMP JUMPDEST PUSH1 0x0 PUSH2 0xFAE PUSH2 0x1564 JUMP JUMPDEST PUSH2 0xFB6 PUSH2 0x2666 JUMP JUMPDEST PUSH2 0xFC0 SWAP2 SWAP1 PUSH2 0x4FF6 JUMP JUMPDEST SWAP1 POP SWAP1 JUMP JUMPDEST PUSH2 0xFCD PUSH2 0x33A8 JUMP JUMPDEST PUSH1 0x0 PUSH1 0x13 SLOAD GT PUSH2 0x102A JUMPI PUSH1 0x40 MLOAD PUSH3 0x461BCD PUSH1 0xE5 SHL DUP2 MSTORE PUSH1 0x20 PUSH1 0x4 DUP3 ADD MSTORE PUSH1 0x22 PUSH1 0x24 DUP3 ADD MSTORE PUSH32 0x6E6F20657874726120424E4220617661696C61626C6520746F20776974686472 PUSH1 0x44 DUP3 ADD MSTORE PUSH2 0x6177 PUSH1 0xF0 SHL PUSH1 0x64 DUP3 ADD MSTORE PUSH1 0x84 ADD PUSH2 0xB41 JUMP JUMPDEST PUSH1 0x3 SLOAD PUSH1 0x13 SLOAD PUSH1 0x40 MLOAD PUSH1 0x0 SWAP3 PUSH1 0x1 PUSH1 0x1 PUSH1 0xA0 SHL SUB AND SWAP2 SWAP1 DUP4 DUP2 DUP2 DUP2 DUP6 DUP8 GAS CALL SWAP3 POP POP POP RETURNDATASIZE DUP1 PUSH1 0x0 DUP2 EQ PUSH2 0x1079 JUMPI PUSH1 0x40 MLOAD SWAP2 POP PUSH1 0x1F NOT PUSH1 0x3F RETURNDATASIZE ADD AND DUP3 ADD PUSH1 0x40 MSTORE RETURNDATASIZE DUP3 MSTORE RETURNDATASIZE PUSH1 0x0 PUSH1 0x20 DUP5 ADD RETURNDATACOPY PUSH2 0x107E JUMP JUMPDEST PUSH1 0x60 SWAP2 POP JUMPDEST POP POP SWAP1 POP DUP1 PUSH2 0x10C4 JUMPI PUSH1 0x40 MLOAD PUSH3 0x461BCD PUSH1 0xE5 SHL DUP2 MSTORE PUSH1 0x20 PUSH1 0x4 DUP3 ADD MSTORE PUSH1 0x12 PUSH1 0x24 DUP3 ADD MSTORE PUSH18 0x1DDA5D1A191C985DD093908819985A5B1959 PUSH1 0x72 SHL PUSH1 0x44 DUP3 ADD MSTORE PUSH1 0x64 ADD PUSH2 0xB41 JUMP JUMPDEST POP JUMP JUMPDEST PUSH1 0x0 PUSH2 0xFC0 PUSH1 0x10 PUSH1 0x40 MLOAD PUSH2 0x10DA SWAP1 PUSH2 0x5A24 JUMP JUMPDEST SWAP1 DUP2 MSTORE PUSH1 0x20 ADD PUSH1 0x40 MLOAD DUP1 SWAP2 SUB SWAP1 KECCAK256 PUSH2 0x333A JUMP JUMPDEST DUP3 PUSH2 0x10F7 DUP2 PUSH2 0x3407 JUMP JUMPDEST POP PUSH1 0x0 PUSH1 0x6 PUSH2 0x1105 DUP7 PUSH2 0x3407 JUMP JUMPDEST DUP2 SLOAD DUP2 LT PUSH2 0x1115 JUMPI PUSH2 0x1115 PUSH2 0x599A JUMP JUMPDEST PUSH1 0x0 SWAP2 DUP3 MSTORE PUSH1 0x20 SWAP1 SWAP2 KECCAK256 PUSH1 0x1 PUSH1 0xA SWAP1 SWAP3 MUL ADD SWAP1 DUP2 ADD SLOAD SWAP1 SWAP2 POP PUSH1 0x1 PUSH1 0x1 PUSH1 0xA0 SHL SUB AND CALLER EQ PUSH2 0x1155 JUMPI PUSH1 0x40 MLOAD PUSH3 0x461BCD PUSH1 0xE5 SHL DUP2 MSTORE PUSH1 0x4 ADD PUSH2 0xB41 SWAP1 PUSH2 0x5A33 JUMP JUMPDEST PUSH1 0x8 DUP2 ADD SLOAD ISZERO PUSH2 0x1177 JUMPI PUSH1 0x40 MLOAD PUSH3 0x461BCD PUSH1 0xE5 SHL DUP2 MSTORE PUSH1 0x4 ADD PUSH2 0xB41 SWAP1 PUSH2 0x5A75 JUMP JUMPDEST PUSH1 0x0 DUP4 GT DUP1 PUSH2 0x1186 JUMPI POP PUSH1 0x0 DUP5 GT JUMPDEST ISZERO PUSH2 0x12C9 JUMPI PUSH1 0x14 SLOAD PUSH1 0x40 MLOAD PUSH4 0x526F812B PUSH1 0xE1 SHL DUP2 MSTORE PUSH1 0x1 PUSH1 0x1 PUSH1 0xA0 SHL SUB SWAP1 SWAP2 AND SWAP1 PUSH4 0xA4DF0256 SWAP1 PUSH2 0x11BB SWAP1 CALLER SWAP1 PUSH1 0x4 ADD PUSH2 0x553C JUMP JUMPDEST PUSH1 0x20 PUSH1 0x40 MLOAD DUP1 DUP4 SUB DUP2 DUP7 GAS STATICCALL ISZERO DUP1 ISZERO PUSH2 0x11D8 JUMPI RETURNDATASIZE PUSH1 0x0 DUP1 RETURNDATACOPY RETURNDATASIZE PUSH1 0x0 REVERT JUMPDEST POP POP POP POP PUSH1 0x40 MLOAD RETURNDATASIZE PUSH1 0x1F NOT PUSH1 0x1F DUP3 ADD AND DUP3 ADD DUP1 PUSH1 0x40 MSTORE POP DUP2 ADD SWAP1 PUSH2 0x11FC SWAP2 SWAP1 PUSH2 0x591D JUMP JUMPDEST PUSH2 0x12C9 JUMPI PUSH1 0x1 SLOAD CALLVALUE LT ISZERO PUSH2 0x1222 JUMPI PUSH1 0x40 MLOAD PUSH3 0x461BCD PUSH1 0xE5 SHL DUP2 MSTORE PUSH1 0x4 ADD PUSH2 0xB41 SWAP1 PUSH2 0x5AA0 JUMP JUMPDEST PUSH1 0x3 SLOAD PUSH1 0x1 SLOAD PUSH1 0x40 MLOAD PUSH1 0x0 SWAP3 PUSH1 0x1 PUSH1 0x1 PUSH1 0xA0 SHL SUB AND SWAP2 SWAP1 DUP4 DUP2 DUP2 DUP2 DUP6 DUP8 GAS CALL SWAP3 POP POP POP RETURNDATASIZE DUP1 PUSH1 0x0 DUP2 EQ PUSH2 0x1271 JUMPI PUSH1 0x40 MLOAD SWAP2 POP PUSH1 0x1F NOT PUSH1 0x3F RETURNDATASIZE ADD AND DUP3 ADD PUSH1 0x40 MSTORE RETURNDATASIZE DUP3 MSTORE RETURNDATASIZE PUSH1 0x0 PUSH1 0x20 DUP5 ADD RETURNDATACOPY PUSH2 0x1276 JUMP JUMPDEST PUSH1 0x60 SWAP2 POP JUMPDEST POP POP SWAP1 POP DUP1 PUSH2 0x12C7 JUMPI PUSH1 0x40 MLOAD PUSH3 0x461BCD PUSH1 0xE5 SHL DUP2 MSTORE PUSH1 0x20 PUSH1 0x4 DUP3 ADD DUP2 SWAP1 MSTORE PUSH1 0x24 DUP3 ADD MSTORE PUSH32 0x656469744C6F636B424E423A20666565207472616E73666572206661696C6564 PUSH1 0x44 DUP3 ADD MSTORE PUSH1 0x64 ADD PUSH2 0xB41 JUMP JUMPDEST POP JUMPDEST DUP3 ISZERO PUSH2 0x1306 JUMPI DUP1 PUSH1 0x4 ADD SLOAD DUP4 LT ISZERO DUP1 ISZERO PUSH2 0x12E2 JUMPI POP TIMESTAMP DUP4 GT JUMPDEST PUSH2 0x12FE JUMPI PUSH1 0x40 MLOAD PUSH3 0x461BCD PUSH1 0xE5 SHL DUP2 MSTORE PUSH1 0x4 ADD PUSH2 0xB41 SWAP1 PUSH2 0x5AD3 JUMP JUMPDEST PUSH1 0x4 DUP2 ADD DUP4 SWAP1 SSTORE JUMPDEST DUP4 ISZERO PUSH2 0x1395 JUMPI DUP1 PUSH1 0x2 ADD SLOAD DUP5 LT ISZERO PUSH2 0x1330 JUMPI PUSH1 0x40 MLOAD PUSH3 0x461BCD PUSH1 0xE5 SHL DUP2 MSTORE PUSH1 0x4 ADD PUSH2 0xB41 SWAP1 PUSH2 0x5B3D JUMP JUMPDEST PUSH1 0x0 DUP2 PUSH1 0x2 ADD SLOAD DUP6 PUSH2 0x1342 SWAP2 SWAP1 PUSH2 0x5B8E JUMP JUMPDEST SWAP1 POP DUP1 ISZERO PUSH2 0x1393 JUMPI PUSH1 0x2 DUP3 ADD DUP6 SWAP1 SSTORE CALLVALUE DUP2 GT ISZERO PUSH2 0x1393 JUMPI PUSH1 0x40 MLOAD PUSH3 0x461BCD PUSH1 0xE5 SHL DUP2 MSTORE PUSH1 0x20 PUSH1 0x4 DUP3 ADD MSTORE PUSH1 0xF PUSH1 0x24 DUP3 ADD MSTORE PUSH15 0x39B437BAB632103830BC903234B333 PUSH1 0x89 SHL PUSH1 0x44 DUP3 ADD MSTORE PUSH1 0x64 ADD PUSH2 0xB41 JUMP JUMPDEST POP JUMPDEST POP POP POP POP POP JUMP JUMPDEST PUSH1 0x1 PUSH1 0x1 PUSH1 0xA0 SHL SUB DUP4 AND PUSH1 0x0 SWAP1 DUP2 MSTORE PUSH1 0xF PUSH1 0x20 MSTORE PUSH1 0x40 SWAP1 KECCAK256 PUSH1 0x60 SWAP1 PUSH2 0x13C0 SWAP1 PUSH2 0x333A JUMP JUMPDEST DUP3 LT PUSH2 0x13F7 JUMPI PUSH1 0x1 PUSH1 0x1 PUSH1 0xA0 SHL SUB DUP5 AND PUSH1 0x0 SWAP1 DUP2 MSTORE PUSH1 0xF PUSH1 0x20 MSTORE PUSH1 0x40 SWAP1 KECCAK256 PUSH1 0x1 SWAP1 PUSH2 0x13EA SWAP1 PUSH2 0x333A JUMP JUMPDEST PUSH2 0x13F4 SWAP2 SWAP1 PUSH2 0x5B8E JUMP JUMPDEST SWAP2 POP JUMPDEST PUSH1 0x0 PUSH2 0x1403 DUP5 DUP5 PUSH2 0x5B8E JUMP JUMPDEST PUSH2 0x140E SWAP1 PUSH1 0x1 PUSH2 0x4FF6 JUMP JUMPDEST SWAP1 POP PUSH1 0x0 DUP2 PUSH1 0x1 PUSH1 0x1 PUSH1 0x40 SHL SUB DUP2 GT ISZERO PUSH2 0x142A JUMPI PUSH2 0x142A PUSH2 0x5047 JUMP JUMPDEST PUSH1 0x40 MLOAD SWAP1 DUP1 DUP3 MSTORE DUP1 PUSH1 0x20 MUL PUSH1 0x20 ADD DUP3 ADD PUSH1 0x40 MSTORE DUP1 ISZERO PUSH2 0x1463 JUMPI DUP2 PUSH1 0x20 ADD JUMPDEST PUSH2 0x1450 PUSH2 0x4E5F JUMP JUMPDEST DUP2 MSTORE PUSH1 0x20 ADD SWAP1 PUSH1 0x1 SWAP1 SUB SWAP1 DUP2 PUSH2 0x1448 JUMPI SWAP1 POP JUMPDEST POP SWAP1 POP PUSH1 0x0 DUP6 JUMPDEST DUP6 DUP2 GT PUSH2 0x14D5 JUMPI PUSH1 0x1 PUSH1 0x1 PUSH1 0xA0 SHL SUB DUP9 AND PUSH1 0x0 SWAP1 DUP2 MSTORE PUSH1 0xF PUSH1 0x20 MSTORE PUSH1 0x40 SWAP1 KECCAK256 PUSH2 0x1497 SWAP1 PUSH2 0x3B1 SWAP1 DUP4 PUSH2 0x339C JUMP JUMPDEST DUP4 DUP4 DUP2 MLOAD DUP2 LT PUSH2 0x14A9 JUMPI PUSH2 0x14A9 PUSH2 0x599A JUMP JUMPDEST PUSH1 0x20 MUL PUSH1 0x20 ADD ADD DUP2 SWAP1 MSTORE POP DUP2 DUP1 PUSH2 0x14BF SWAP1 PUSH2 0x5A0B JUMP JUMPDEST SWAP3 POP POP DUP1 DUP1 PUSH2 0x14CD SWAP1 PUSH2 0x5A0B JUMP JUMPDEST SWAP2 POP POP PUSH2 0x146A JUMP JUMPDEST POP SWAP1 SWAP7 SWAP6 POP POP POP POP POP POP JUMP JUMPDEST PUSH1 0x0 DUP2 PUSH1 0x1 PUSH1 0x1 PUSH1 0xA0 SHL SUB AND PUSH4 0xC45A0155 PUSH1 0x40 MLOAD DUP2 PUSH4 0xFFFFFFFF AND PUSH1 0xE0 SHL DUP2 MSTORE PUSH1 0x4 ADD PUSH1 0x20 PUSH1 0x40 MLOAD DUP1 DUP4 SUB DUP2 DUP7 GAS STATICCALL SWAP3 POP POP POP DUP1 ISZERO PUSH2 0x153D JUMPI POP PUSH1 0x40 DUP1 MLOAD PUSH1 0x1F RETURNDATASIZE SWAP1 DUP2 ADD PUSH1 0x1F NOT AND DUP3 ADD SWAP1 SWAP3 MSTORE PUSH2 0x153A SWAP2 DUP2 ADD SWAP1 PUSH2 0x5BA5 JUMP JUMPDEST PUSH1 0x1 JUMPDEST PUSH2 0x1549 JUMPI POP PUSH1 0x0 SWAP2 SWAP1 POP JUMP JUMPDEST PUSH1 0x1 PUSH1 0x1 PUSH1 0xA0 SHL SUB DUP2 AND ISZERO PUSH2 0x155D JUMPI PUSH1 0x1 SWAP2 POP JUMPDEST POP JUMPDEST SWAP2 SWAP1 POP JUMP JUMPDEST PUSH1 0x0 PUSH2 0xFC0 PUSH1 0xC PUSH2 0x333A JUMP JUMPDEST DUP2 PUSH2 0x157A DUP2 PUSH2 0x3344 JUMP JUMPDEST POP PUSH1 0x0 PUSH1 0x5 PUSH2 0x1588 DUP6 PUSH2 0x3344 JUMP JUMPDEST DUP2 SLOAD DUP2 LT PUSH2 0x1598 JUMPI PUSH2 0x1598 PUSH2 0x599A JUMP JUMPDEST PUSH1 0x0 SWAP2 DUP3 MSTORE PUSH1 0x20 SWAP1 SWAP2 KECCAK256 PUSH1 0xB SWAP1 SWAP2 MUL ADD PUSH1 0x2 DUP2 ADD SLOAD SWAP1 SWAP2 POP PUSH1 0x1 PUSH1 0x1 PUSH1 0xA0 SHL SUB AND CALLER DUP2 EQ PUSH2 0x15D8 JUMPI PUSH1 0x40 MLOAD PUSH3 0x461BCD PUSH1 0xE5 SHL DUP2 MSTORE PUSH1 0x4 ADD PUSH2 0xB41 SWAP1 PUSH2 0x5A33 JUMP JUMPDEST PUSH1 0x2 DUP3 ADD DUP1 SLOAD PUSH1 0x1 PUSH1 0x1 PUSH1 0xA0 SHL SUB NOT AND PUSH1 0x1 PUSH1 0x1 PUSH1 0xA0 SHL SUB DUP7 DUP2 AND SWAP2 SWAP1 SWAP2 OR SWAP1 SWAP2 SSTORE PUSH1 0x1 DUP1 DUP5 ADD SLOAD DUP3 AND PUSH1 0x0 SWAP1 DUP2 MSTORE PUSH1 0xE PUSH1 0x20 MSTORE PUSH1 0x40 SWAP1 KECCAK256 SWAP1 DUP2 ADD SLOAD SWAP1 SWAP2 AND ISZERO DUP1 ISZERO SWAP1 PUSH2 0x166A JUMPI PUSH1 0x1 PUSH1 0x1 PUSH1 0xA0 SHL SUB DUP4 AND PUSH1 0x0 SWAP1 DUP2 MSTORE PUSH1 0x7 PUSH1 0x20 MSTORE PUSH1 0x40 SWAP1 KECCAK256 PUSH2 0x1641 SWAP1 DUP9 PUSH2 0x345F JUMP JUMPDEST POP PUSH1 0x1 PUSH1 0x1 PUSH1 0xA0 SHL SUB DUP7 AND PUSH1 0x0 SWAP1 DUP2 MSTORE PUSH1 0x7 PUSH1 0x20 MSTORE PUSH1 0x40 SWAP1 KECCAK256 PUSH2 0x1664 SWAP1 DUP9 PUSH2 0x346B JUMP JUMPDEST POP PUSH2 0x16B1 JUMP JUMPDEST PUSH1 0x1 PUSH1 0x1 PUSH1 0xA0 SHL SUB DUP4 AND PUSH1 0x0 SWAP1 DUP2 MSTORE PUSH1 0x8 PUSH1 0x20 MSTORE PUSH1 0x40 SWAP1 KECCAK256 PUSH2 0x168C SWAP1 DUP9 PUSH2 0x345F JUMP JUMPDEST POP PUSH1 0x1 PUSH1 0x1 PUSH1 0xA0 SHL SUB DUP7 AND PUSH1 0x0 SWAP1 DUP2 MSTORE PUSH1 0x8 PUSH1 0x20 MSTORE PUSH1 0x40 SWAP1 KECCAK256 PUSH2 0x16AF SWAP1 DUP9 PUSH2 0x346B JUMP JUMPDEST POP JUMPDEST PUSH32 0x9075AD040756C0D8743A1FED927066A92C4755071615BF61E04B17583D961CAF DUP8 DUP5 DUP9 PUSH1 0x40 MLOAD PUSH2 0x16E4 SWAP4 SWAP3 SWAP2 SWAP1 PUSH2 0x5BC2 JUMP JUMPDEST PUSH1 0x40 MLOAD DUP1 SWAP2 SUB SWAP1 LOG1 POP POP POP POP POP POP POP JUMP JUMPDEST DUP2 PUSH2 0x16FF DUP2 PUSH2 0x3344 JUMP JUMPDEST POP PUSH1 0x0 PUSH1 0x5 PUSH2 0x170D DUP6 PUSH2 0x3344 JUMP JUMPDEST DUP2 SLOAD DUP2 LT PUSH2 0x171D JUMPI PUSH2 0x171D PUSH2 0x599A JUMP JUMPDEST PUSH1 0x0 SWAP2 DUP3 MSTORE PUSH1 0x20 SWAP1 SWAP2 KECCAK256 PUSH1 0x2 PUSH1 0xB SWAP1 SWAP3 MUL ADD SWAP1 DUP2 ADD SLOAD SWAP1 SWAP2 POP PUSH1 0x1 PUSH1 0x1 PUSH1 0xA0 SHL SUB AND CALLER EQ PUSH2 0x175D JUMPI PUSH1 0x40 MLOAD PUSH3 0x461BCD PUSH1 0xE5 SHL DUP2 MSTORE PUSH1 0x4 ADD PUSH2 0xB41 SWAP1 PUSH2 0x5A33 JUMP JUMPDEST PUSH1 0x6 DUP2 ADD SLOAD ISZERO PUSH2 0x1776 JUMPI PUSH2 0x1771 DUP2 DUP5 PUSH2 0x3477 JUMP JUMPDEST PUSH2 0x1780 JUMP JUMPDEST PUSH2 0x1780 DUP2 DUP5 PUSH2 0x37D6 JUMP JUMPDEST POP POP POP POP JUMP JUMPDEST PUSH1 0x1 PUSH1 0x1 PUSH1 0xA0 SHL SUB DUP2 AND PUSH1 0x0 SWAP1 DUP2 MSTORE PUSH1 0x9 PUSH1 0x20 MSTORE PUSH1 0x40 DUP2 KECCAK256 PUSH2 0xCEF SWAP1 PUSH2 0x333A JUMP JUMPDEST PUSH1 0x60 PUSH2 0x17BA PUSH1 0x10 PUSH1 0x40 MLOAD PUSH2 0x10DA SWAP1 PUSH2 0x5A24 JUMP JUMPDEST DUP3 LT PUSH2 0x17E0 JUMPI PUSH1 0x1 PUSH2 0x17D3 PUSH1 0x10 PUSH1 0x40 MLOAD PUSH2 0x10DA SWAP1 PUSH2 0x5A24 JUMP JUMPDEST PUSH2 0x17DD SWAP2 SWAP1 PUSH2 0x5B8E JUMP JUMPDEST SWAP2 POP JUMPDEST PUSH1 0x0 PUSH2 0x17EC DUP5 DUP5 PUSH2 0x5B8E JUMP JUMPDEST PUSH2 0x17F7 SWAP1 PUSH1 0x1 PUSH2 0x4FF6 JUMP JUMPDEST SWAP1 POP PUSH1 0x0 DUP2 PUSH1 0x1 PUSH1 0x1 PUSH1 0x40 SHL SUB DUP2 GT ISZERO PUSH2 0x1813 JUMPI PUSH2 0x1813 PUSH2 0x5047 JUMP JUMPDEST PUSH1 0x40 MLOAD SWAP1 DUP1 DUP3 MSTORE DUP1 PUSH1 0x20 MUL PUSH1 0x20 ADD DUP3 ADD PUSH1 0x40 MSTORE DUP1 ISZERO PUSH2 0x184C JUMPI DUP2 PUSH1 0x20 ADD JUMPDEST PUSH2 0x1839 PUSH2 0x4ECB JUMP JUMPDEST DUP2 MSTORE PUSH1 0x20 ADD SWAP1 PUSH1 0x1 SWAP1 SUB SWAP1 DUP2 PUSH2 0x1831 JUMPI SWAP1 POP JUMPDEST POP SWAP1 POP PUSH1 0x0 DUP6 JUMPDEST DUP6 DUP2 GT PUSH2 0x18C2 JUMPI PUSH2 0x1884 PUSH2 0xAE3 DUP3 PUSH1 0x10 PUSH1 0x40 MLOAD PUSH2 0x186F SWAP1 PUSH2 0x5A24 JUMP JUMPDEST SWAP1 DUP2 MSTORE PUSH1 0x40 MLOAD SWAP1 DUP2 SWAP1 SUB PUSH1 0x20 ADD SWAP1 KECCAK256 SWAP1 PUSH2 0x339C JUMP JUMPDEST DUP4 DUP4 DUP2 MLOAD DUP2 LT PUSH2 0x1896 JUMPI PUSH2 0x1896 PUSH2 0x599A JUMP JUMPDEST PUSH1 0x20 MUL PUSH1 0x20 ADD ADD DUP2 SWAP1 MSTORE POP DUP2 DUP1 PUSH2 0x18AC SWAP1 PUSH2 0x5A0B JUMP JUMPDEST SWAP3 POP POP DUP1 DUP1 PUSH2 0x18BA SWAP1 PUSH2 0x5A0B JUMP JUMPDEST SWAP2 POP POP PUSH2 0x1853 JUMP JUMPDEST POP SWAP1 SWAP6 SWAP5 POP POP POP POP POP JUMP JUMPDEST PUSH2 0x18D5 PUSH2 0x4E5F JUMP JUMPDEST DUP2 PUSH2 0x18DF DUP5 PUSH2 0x2ED9 JUMP JUMPDEST GT PUSH2 0x18FC JUMPI PUSH1 0x40 MLOAD PUSH3 0x461BCD PUSH1 0xE5 SHL DUP2 MSTORE PUSH1 0x4 ADD PUSH2 0xB41 SWAP1 PUSH2 0x59E4 JUMP JUMPDEST PUSH1 0x1 PUSH1 0x1 PUSH1 0xA0 SHL SUB DUP4 AND PUSH1 0x0 SWAP1 DUP2 MSTORE PUSH1 0x8 PUSH1 0x20 MSTORE PUSH1 0x40 SWAP1 KECCAK256 PUSH2 0xEB7 SWAP1 PUSH2 0x3B1 SWAP1 DUP5 PUSH2 0x339C JUMP JUMPDEST PUSH1 0x0 DUP3 GT PUSH2 0x1964 JUMPI PUSH1 0x40 MLOAD PUSH3 0x461BCD PUSH1 0xE5 SHL DUP2 MSTORE PUSH1 0x20 PUSH1 0x4 DUP3 ADD MSTORE PUSH1 0xF PUSH1 0x24 DUP3 ADD MSTORE PUSH15 0x1A5B9D985B1A59081B1BD8DAC81A59 PUSH1 0x8A SHL PUSH1 0x44 DUP3 ADD MSTORE PUSH1 0x64 ADD PUSH2 0xB41 JUMP JUMPDEST PUSH1 0x0 PUSH1 0x6 PUSH2 0x1971 DUP5 PUSH2 0x3407 JUMP JUMPDEST DUP2 SLOAD DUP2 LT PUSH2 0x1981 JUMPI PUSH2 0x1981 PUSH2 0x599A JUMP JUMPDEST SWAP1 PUSH1 0x0 MSTORE PUSH1 0x20 PUSH1 0x0 KECCAK256 SWAP1 PUSH1 0xA MUL ADD SWAP1 POP DUP1 PUSH1 0x4 ADD SLOAD DUP3 LT ISZERO PUSH2 0x19B5 JUMPI PUSH1 0x40 MLOAD PUSH3 0x461BCD PUSH1 0xE5 SHL DUP2 MSTORE PUSH1 0x4 ADD PUSH2 0xB41 SWAP1 PUSH2 0x5BE1 JUMP JUMPDEST PUSH1 0x1 DUP2 ADD SLOAD PUSH1 0x1 PUSH1 0x1 PUSH1 0xA0 SHL SUB AND CALLER EQ PUSH2 0x19E1 JUMPI PUSH1 0x40 MLOAD PUSH3 0x461BCD PUSH1 0xE5 SHL DUP2 MSTORE PUSH1 0x4 ADD PUSH2 0xB41 SWAP1 PUSH2 0x5A33 JUMP JUMPDEST PUSH1 0x8 DUP2 ADD SLOAD ISZERO PUSH2 0x1A03 JUMPI PUSH1 0x40 MLOAD PUSH3 0x461BCD PUSH1 0xE5 SHL DUP2 MSTORE PUSH1 0x4 ADD PUSH2 0xB41 SWAP1 PUSH2 0x5C13 JUMP JUMPDEST DUP1 SLOAD CALLER PUSH1 0x0 SWAP1 DUP2 MSTORE PUSH1 0x9 PUSH1 0x20 MSTORE PUSH1 0x40 SWAP1 KECCAK256 PUSH2 0x1A1D SWAP2 PUSH2 0x345F JUMP JUMPDEST POP PUSH1 0x2 DUP2 ADD SLOAD PUSH1 0x8 DUP3 ADD DUP2 SWAP1 SSTORE DUP2 SLOAD PUSH1 0x40 MLOAD PUSH2 0x1A55 SWAP2 SWAP1 PUSH1 0x10 SWAP1 PUSH2 0x1A40 SWAP1 PUSH2 0x5A24 JUMP JUMPDEST SWAP1 DUP2 MSTORE PUSH1 0x40 MLOAD SWAP1 DUP2 SWAP1 SUB PUSH1 0x20 ADD SWAP1 KECCAK256 SWAP1 PUSH2 0x345F JUMP JUMPDEST POP PUSH1 0x40 MLOAD PUSH1 0x0 SWAP1 CALLER SWAP1 DUP4 SWAP1 DUP4 DUP2 DUP2 DUP2 DUP6 DUP8 GAS CALL SWAP3 POP POP POP RETURNDATASIZE DUP1 PUSH1 0x0 DUP2 EQ PUSH2 0x1A98 JUMPI PUSH1 0x40 MLOAD SWAP2 POP PUSH1 0x1F NOT PUSH1 0x3F RETURNDATASIZE ADD AND DUP3 ADD PUSH1 0x40 MSTORE RETURNDATASIZE DUP3 MSTORE RETURNDATASIZE PUSH1 0x0 PUSH1 0x20 DUP5 ADD RETURNDATACOPY PUSH2 0x1A9D JUMP JUMPDEST PUSH1 0x60 SWAP2 POP JUMPDEST POP POP SWAP1 POP DUP1 PUSH2 0x1ADF JUMPI PUSH1 0x40 MLOAD PUSH3 0x461BCD PUSH1 0xE5 SHL DUP2 MSTORE PUSH1 0x20 PUSH1 0x4 DUP3 ADD MSTORE PUSH1 0xE PUSH1 0x24 DUP3 ADD MSTORE PUSH14 0x1D1C985B99995C8819985A5B1959 PUSH1 0x92 SHL PUSH1 0x44 DUP3 ADD MSTORE PUSH1 0x64 ADD PUSH2 0xB41 JUMP JUMPDEST DUP3 SLOAD PUSH1 0x1 DUP5 ADD SLOAD PUSH1 0x40 MLOAD PUSH32 0x8AF7B343AC14FF86EA14BC075FC0E761855633F85E24D12FF785B0673A228795 SWAP2 PUSH2 0x1B24 SWAP2 PUSH1 0x1 PUSH1 0x1 PUSH1 0xA0 SHL SUB SWAP1 SWAP2 AND SWAP1 DUP7 SWAP1 DUP10 SWAP1 PUSH2 0x5C3E JUMP JUMPDEST PUSH1 0x40 MLOAD DUP1 SWAP2 SUB SWAP1 LOG2 POP POP POP POP POP JUMP JUMPDEST PUSH2 0x1B3B PUSH2 0x33A8 JUMP JUMPDEST PUSH2 0x1B45 PUSH1 0x0 PUSH2 0x3993 JUMP JUMPDEST JUMP JUMPDEST PUSH2 0x1B4F PUSH2 0x33A8 JUMP JUMPDEST PUSH1 0x3 DUP1 SLOAD PUSH1 0x1 PUSH1 0x1 PUSH1 0xA0 SHL SUB NOT AND PUSH1 0x1 PUSH1 0x1 PUSH1 0xA0 SHL SUB SWAP3 SWAP1 SWAP3 AND SWAP2 SWAP1 SWAP2 OR SWAP1 SSTORE JUMP JUMPDEST PUSH2 0x1B79 PUSH2 0x4ECB JUMP JUMPDEST PUSH1 0x6 DUP3 DUP2 SLOAD DUP2 LT PUSH2 0x1B8C JUMPI PUSH2 0x1B8C PUSH2 0x599A JUMP JUMPDEST SWAP1 PUSH1 0x0 MSTORE PUSH1 0x20 PUSH1 0x0 KECCAK256 SWAP1 PUSH1 0xA MUL ADD PUSH1 0x40 MLOAD DUP1 PUSH2 0x140 ADD PUSH1 0x40 MSTORE SWAP1 DUP2 PUSH1 0x0 DUP3 ADD SLOAD DUP2 MSTORE PUSH1 0x20 ADD PUSH1 0x1 DUP3 ADD PUSH1 0x0 SWAP1 SLOAD SWAP1 PUSH2 0x100 EXP SWAP1 DIV PUSH1 0x1 PUSH1 0x1 PUSH1 0xA0 SHL SUB AND PUSH1 0x1 PUSH1 0x1 PUSH1 0xA0 SHL SUB AND PUSH1 0x1 PUSH1 0x1 PUSH1 0xA0 SHL SUB AND DUP2 MSTORE PUSH1 0x20 ADD PUSH1 0x2 DUP3 ADD SLOAD DUP2 MSTORE PUSH1 0x20 ADD PUSH1 0x3 DUP3 ADD SLOAD DUP2 MSTORE PUSH1 0x20 ADD PUSH1 0x4 DUP3 ADD SLOAD DUP2 MSTORE PUSH1 0x20 ADD PUSH1 0x5 DUP3 ADD SLOAD DUP2 MSTORE PUSH1 0x20 ADD PUSH1 0x6 DUP3 ADD SLOAD DUP2 MSTORE PUSH1 0x20 ADD PUSH1 0x7 DUP3 ADD SLOAD DUP2 MSTORE PUSH1 0x20 ADD PUSH1 0x8 DUP3 ADD SLOAD DUP2 MSTORE PUSH1 0x20 ADD PUSH1 0x9 DUP3 ADD DUP1 SLOAD PUSH2 0xDBE SWAP1 PUSH2 0x59B0 JUMP JUMPDEST DUP2 PUSH2 0x1C3F DUP2 PUSH2 0x3407 JUMP JUMPDEST POP PUSH1 0x0 PUSH1 0x6 PUSH2 0x1C4D DUP6 PUSH2 0x3407 JUMP JUMPDEST DUP2 SLOAD DUP2 LT PUSH2 0x1C5D JUMPI PUSH2 0x1C5D PUSH2 0x599A JUMP JUMPDEST PUSH1 0x0 SWAP2 DUP3 MSTORE PUSH1 0x20 SWAP1 SWAP2 KECCAK256 PUSH1 0xA SWAP1 SWAP2 MUL ADD PUSH1 0x1 DUP2 ADD SLOAD SWAP1 SWAP2 POP PUSH1 0x1 PUSH1 0x1 PUSH1 0xA0 SHL SUB AND CALLER DUP2 EQ PUSH2 0x1C9D JUMPI PUSH1 0x40 MLOAD PUSH3 0x461BCD PUSH1 0xE5 SHL DUP2 MSTORE PUSH1 0x4 ADD PUSH2 0xB41 SWAP1 PUSH2 0x5A33 JUMP JUMPDEST PUSH1 0x1 DUP3 ADD DUP1 SLOAD PUSH1 0x1 PUSH1 0x1 PUSH1 0xA0 SHL SUB NOT AND PUSH1 0x1 PUSH1 0x1 PUSH1 0xA0 SHL SUB DUP7 DUP2 AND SWAP2 SWAP1 SWAP2 OR SWAP1 SWAP2 SSTORE DUP2 AND PUSH1 0x0 SWAP1 DUP2 MSTORE PUSH1 0x9 PUSH1 0x20 MSTORE PUSH1 0x40 SWAP1 KECCAK256 PUSH2 0x1CD9 SWAP1 DUP7 PUSH2 0x345F JUMP JUMPDEST POP PUSH1 0x1 PUSH1 0x1 PUSH1 0xA0 SHL SUB DUP5 AND PUSH1 0x0 SWAP1 DUP2 MSTORE PUSH1 0x9 PUSH1 0x20 MSTORE PUSH1 0x40 SWAP1 KECCAK256 PUSH2 0x1CFC SWAP1 DUP7 PUSH2 0x346B JUMP JUMPDEST POP PUSH32 0x9075AD040756C0D8743A1FED927066A92C4755071615BF61E04B17583D961CAF DUP6 DUP3 DUP7 PUSH1 0x40 MLOAD PUSH2 0x1D30 SWAP4 SWAP3 SWAP2 SWAP1 PUSH2 0x5BC2 JUMP JUMPDEST PUSH1 0x40 MLOAD DUP1 SWAP2 SUB SWAP1 LOG1 POP POP POP POP POP JUMP JUMPDEST PUSH1 0x60 PUSH2 0x1D4B PUSH1 0xC PUSH2 0x333A JUMP JUMPDEST DUP3 LT PUSH2 0x1D6A JUMPI PUSH1 0x1 PUSH2 0x1D5D PUSH1 0xC PUSH2 0x333A JUMP JUMPDEST PUSH2 0x1D67 SWAP2 SWAP1 PUSH2 0x5B8E JUMP JUMPDEST SWAP2 POP JUMPDEST PUSH1 0x0 PUSH2 0x1D76 DUP5 DUP5 PUSH2 0x5B8E JUMP JUMPDEST PUSH2 0x1D81 SWAP1 PUSH1 0x1 PUSH2 0x4FF6 JUMP JUMPDEST SWAP1 POP PUSH1 0x0 DUP2 PUSH1 0x1 PUSH1 0x1 PUSH1 0x40 SHL SUB DUP2 GT ISZERO PUSH2 0x1D9D JUMPI PUSH2 0x1D9D PUSH2 0x5047 JUMP JUMPDEST PUSH1 0x40 MLOAD SWAP1 DUP1 DUP3 MSTORE DUP1 PUSH1 0x20 MUL PUSH1 0x20 ADD DUP3 ADD PUSH1 0x40 MSTORE DUP1 ISZERO PUSH2 0x1DD6 JUMPI DUP2 PUSH1 0x20 ADD JUMPDEST PUSH2 0x1DC3 PUSH2 0x4F27 JUMP JUMPDEST DUP2 MSTORE PUSH1 0x20 ADD SWAP1 PUSH1 0x1 SWAP1 SUB SWAP1 DUP2 PUSH2 0x1DBB JUMPI SWAP1 POP JUMPDEST POP SWAP1 POP PUSH1 0x0 DUP6 JUMPDEST DUP6 DUP2 GT PUSH2 0x18C2 JUMPI PUSH1 0xE PUSH1 0x0 PUSH2 0x1DF3 PUSH1 0xC DUP5 PUSH2 0x339C JUMP JUMPDEST PUSH1 0x1 PUSH1 0x1 PUSH1 0xA0 SHL SUB SWAP1 DUP2 AND DUP3 MSTORE PUSH1 0x20 DUP1 DUP4 ADD SWAP4 SWAP1 SWAP4 MSTORE PUSH1 0x40 SWAP2 DUP3 ADD PUSH1 0x0 KECCAK256 DUP3 MLOAD PUSH1 0x60 DUP2 ADD DUP5 MSTORE DUP2 SLOAD DUP4 AND DUP2 MSTORE PUSH1 0x1 DUP3 ADD SLOAD SWAP1 SWAP3 AND SWAP4 DUP3 ADD SWAP4 SWAP1 SWAP4 MSTORE PUSH1 0x2 SWAP1 SWAP3 ADD SLOAD SWAP1 DUP3 ADD MSTORE DUP4 MLOAD DUP5 SWAP1 DUP5 SWAP1 DUP2 LT PUSH2 0x1E4C JUMPI PUSH2 0x1E4C PUSH2 0x599A JUMP JUMPDEST PUSH1 0x20 MUL PUSH1 0x20 ADD ADD DUP2 SWAP1 MSTORE POP DUP2 DUP1 PUSH2 0x1E62 SWAP1 PUSH2 0x5A0B JUMP JUMPDEST SWAP3 POP POP DUP1 DUP1 PUSH2 0x1E70 SWAP1 PUSH2 0x5A0B JUMP JUMPDEST SWAP2 POP POP PUSH2 0x1DDD JUMP JUMPDEST PUSH2 0x1E80 PUSH2 0x4F27 JUMP JUMPDEST PUSH1 0xE PUSH1 0x0 PUSH2 0x1E8F PUSH1 0xC DUP6 PUSH2 0x339C JUMP JUMPDEST PUSH1 0x1 PUSH1 0x1 PUSH1 0xA0 SHL SUB SWAP1 DUP2 AND DUP3 MSTORE PUSH1 0x20 DUP1 DUP4 ADD SWAP4 SWAP1 SWAP4 MSTORE PUSH1 0x40 SWAP2 DUP3 ADD PUSH1 0x0 KECCAK256 DUP3 MLOAD PUSH1 0x60 DUP2 ADD DUP5 MSTORE DUP2 SLOAD DUP4 AND DUP2 MSTORE PUSH1 0x1 DUP3 ADD SLOAD SWAP1 SWAP3 AND SWAP4 DUP3 ADD SWAP4 SWAP1 SWAP4 MSTORE PUSH1 0x2 SWAP1 SWAP3 ADD SLOAD SWAP1 DUP3 ADD MSTORE SWAP3 SWAP2 POP POP JUMP JUMPDEST PUSH1 0x0 DUP1 PUSH2 0x1EE6 DUP5 PUSH2 0x317A JUMP JUMPDEST SWAP1 POP PUSH2 0x1EF2 DUP2 DUP5 PUSH2 0x39EC JUMP JUMPDEST SWAP5 SWAP4 POP POP POP POP JUMP JUMPDEST PUSH2 0x1F02 PUSH2 0x33A8 JUMP JUMPDEST PUSH1 0x1 PUSH1 0x1 PUSH1 0xA0 SHL SUB DUP2 AND PUSH2 0x1F4A JUMPI PUSH1 0x40 MLOAD PUSH3 0x461BCD PUSH1 0xE5 SHL DUP2 MSTORE PUSH1 0x20 PUSH1 0x4 DUP3 ADD MSTORE PUSH1 0xF PUSH1 0x24 DUP3 ADD MSTORE PUSH15 0x496E76616C69642061646472657373 PUSH1 0x88 SHL PUSH1 0x44 DUP3 ADD MSTORE PUSH1 0x64 ADD PUSH2 0xB41 JUMP JUMPDEST PUSH1 0x14 DUP1 SLOAD PUSH1 0x1 PUSH1 0x1 PUSH1 0xA0 SHL SUB NOT AND PUSH1 0x1 PUSH1 0x1 PUSH1 0xA0 SHL SUB SWAP3 SWAP1 SWAP3 AND SWAP2 SWAP1 SWAP2 OR SWAP1 SSTORE JUMP JUMPDEST PUSH1 0x0 SLOAD PUSH2 0x100 SWAP1 DIV PUSH1 0x1 PUSH1 0x1 PUSH1 0xA0 SHL SUB AND SWAP1 JUMP JUMPDEST PUSH2 0x1F88 PUSH2 0x33A8 JUMP JUMPDEST PUSH1 0x2 SSTORE JUMP JUMPDEST PUSH2 0x1F95 PUSH2 0x33A8 JUMP JUMPDEST PUSH1 0x40 MLOAD PUSH4 0x70A08231 PUSH1 0xE0 SHL DUP2 MSTORE DUP3 SWAP1 PUSH1 0x0 SWAP1 PUSH1 0x1 PUSH1 0x1 PUSH1 0xA0 SHL SUB DUP4 AND SWAP1 PUSH4 0x70A08231 SWAP1 PUSH2 0x1FC6 SWAP1 ADDRESS SWAP1 PUSH1 0x4 ADD PUSH2 0x553C JUMP JUMPDEST PUSH1 0x20 PUSH1 0x40 MLOAD DUP1 DUP4 SUB DUP2 DUP7 GAS STATICCALL ISZERO DUP1 ISZERO PUSH2 0x1FE3 JUMPI RETURNDATASIZE PUSH1 0x0 DUP1 RETURNDATACOPY RETURNDATASIZE PUSH1 0x0 REVERT JUMPDEST POP POP POP POP PUSH1 0x40 MLOAD RETURNDATASIZE PUSH1 0x1F NOT PUSH1 0x1F DUP3 ADD AND DUP3 ADD DUP1 PUSH1 0x40 MSTORE POP DUP2 ADD SWAP1 PUSH2 0x2007 SWAP2 SWAP1 PUSH2 0x5C5F JUMP JUMPDEST SWAP1 POP PUSH1 0x1 PUSH1 0x1 PUSH1 0xA0 SHL SUB DUP5 AND PUSH2 0x2057 JUMPI PUSH1 0x40 MLOAD PUSH3 0x461BCD PUSH1 0xE5 SHL DUP2 MSTORE PUSH1 0x20 PUSH1 0x4 DUP3 ADD MSTORE PUSH1 0x15 PUSH1 0x24 DUP3 ADD MSTORE PUSH21 0x696E76616C696420746F6B656E2061646472657373 PUSH1 0x58 SHL PUSH1 0x44 DUP3 ADD MSTORE PUSH1 0x64 ADD PUSH2 0xB41 JUMP JUMPDEST DUP3 DUP2 LT ISZERO PUSH2 0x20A7 JUMPI PUSH1 0x40 MLOAD PUSH3 0x461BCD PUSH1 0xE5 SHL DUP2 MSTORE PUSH1 0x20 PUSH1 0x4 DUP3 ADD MSTORE PUSH1 0x1E PUSH1 0x24 DUP3 ADD MSTORE PUSH32 0x696E73756666696369656E742066756E647320696E20636F6E74726163740000 PUSH1 0x44 DUP3 ADD MSTORE PUSH1 0x64 ADD PUSH2 0xB41 JUMP JUMPDEST PUSH1 0x40 MLOAD PUSH4 0xA9059CBB PUSH1 0xE0 SHL DUP2 MSTORE PUSH1 0x1 PUSH1 0x1 PUSH1 0xA0 SHL SUB DUP4 AND SWAP1 PUSH4 0xA9059CBB SWAP1 PUSH2 0x20D5 SWAP1 CALLER SWAP1 DUP8 SWAP1 PUSH1 0x4 ADD PUSH2 0x5C78 JUMP JUMPDEST PUSH1 0x20 PUSH1 0x40 MLOAD DUP1 DUP4 SUB DUP2 PUSH1 0x0 DUP8 GAS CALL ISZERO DUP1 ISZERO PUSH2 0x20F4 JUMPI RETURNDATASIZE PUSH1 0x0 DUP1 RETURNDATACOPY RETURNDATASIZE PUSH1 0x0 REVERT JUMPDEST POP POP POP POP PUSH1 0x40 MLOAD RETURNDATASIZE PUSH1 0x1F NOT PUSH1 0x1F DUP3 ADD AND DUP3 ADD DUP1 PUSH1 0x40 MSTORE POP DUP2 ADD SWAP1 PUSH2 0x1395 SWAP2 SWAP1 PUSH2 0x591D JUMP JUMPDEST PUSH2 0x2120 PUSH2 0x33A8 JUMP JUMPDEST PUSH1 0x1 SSTORE JUMP JUMPDEST PUSH2 0x212D PUSH2 0x4F27 JUMP JUMPDEST PUSH1 0xE PUSH1 0x0 PUSH2 0x1E8F PUSH1 0xA DUP6 PUSH2 0x339C JUMP JUMPDEST PUSH2 0x10C4 DUP2 PUSH1 0x0 PUSH2 0x1570 JUMP JUMPDEST PUSH1 0x60 PUSH2 0x2153 PUSH1 0xA PUSH2 0x333A JUMP JUMPDEST DUP3 LT PUSH2 0x2172 JUMPI PUSH1 0x1 PUSH2 0x2165 PUSH1 0xA PUSH2 0x333A JUMP JUMPDEST PUSH2 0x216F SWAP2 SWAP1 PUSH2 0x5B8E JUMP JUMPDEST SWAP2 POP JUMPDEST PUSH1 0x0 PUSH2 0x217E DUP5 DUP5 PUSH2 0x5B8E JUMP JUMPDEST PUSH2 0x2189 SWAP1 PUSH1 0x1 PUSH2 0x4FF6 JUMP JUMPDEST SWAP1 POP PUSH1 0x0 DUP2 PUSH1 0x1 PUSH1 0x1 PUSH1 0x40 SHL SUB DUP2 GT ISZERO PUSH2 0x21A5 JUMPI PUSH2 0x21A5 PUSH2 0x5047 JUMP JUMPDEST PUSH1 0x40 MLOAD SWAP1 DUP1 DUP3 MSTORE DUP1 PUSH1 0x20 MUL PUSH1 0x20 ADD DUP3 ADD PUSH1 0x40 MSTORE DUP1 ISZERO PUSH2 0x21DE JUMPI DUP2 PUSH1 0x20 ADD JUMPDEST PUSH2 0x21CB PUSH2 0x4F27 JUMP JUMPDEST DUP2 MSTORE PUSH1 0x20 ADD SWAP1 PUSH1 0x1 SWAP1 SUB SWAP1 DUP2 PUSH2 0x21C3 JUMPI SWAP1 POP JUMPDEST POP SWAP1 POP PUSH1 0x0 DUP6 JUMPDEST DUP6 DUP2 GT PUSH2 0x18C2 JUMPI PUSH1 0xE PUSH1 0x0 PUSH2 0x21FB PUSH1 0xA DUP5 PUSH2 0x339C JUMP JUMPDEST PUSH1 0x1 PUSH1 0x1 PUSH1 0xA0 SHL SUB SWAP1 DUP2 AND DUP3 MSTORE PUSH1 0x20 DUP1 DUP4 ADD SWAP4 SWAP1 SWAP4 MSTORE PUSH1 0x40 SWAP2 DUP3 ADD PUSH1 0x0 KECCAK256 DUP3 MLOAD PUSH1 0x60 DUP2 ADD DUP5 MSTORE DUP2 SLOAD DUP4 AND DUP2 MSTORE PUSH1 0x1 DUP3 ADD SLOAD SWAP1 SWAP3 AND SWAP4 DUP3 ADD SWAP4 SWAP1 SWAP4 MSTORE PUSH1 0x2 SWAP1 SWAP3 ADD SLOAD SWAP1 DUP3 ADD MSTORE DUP4 MLOAD DUP5 SWAP1 DUP5 SWAP1 DUP2 LT PUSH2 0x2254 JUMPI PUSH2 0x2254 PUSH2 0x599A JUMP JUMPDEST PUSH1 0x20 MUL PUSH1 0x20 ADD ADD DUP2 SWAP1 MSTORE POP DUP2 DUP1 PUSH2 0x226A SWAP1 PUSH2 0x5A0B JUMP JUMPDEST SWAP3 POP POP DUP1 DUP1 PUSH2 0x2278 SWAP1 PUSH2 0x5A0B JUMP JUMPDEST SWAP2 POP POP PUSH2 0x21E5 JUMP JUMPDEST PUSH1 0x1 PUSH1 0x1 PUSH1 0xA0 SHL SUB DUP2 AND PUSH1 0x0 SWAP1 DUP2 MSTORE PUSH1 0x7 PUSH1 0x20 MSTORE PUSH1 0x40 DUP2 KECCAK256 PUSH1 0x60 SWAP2 SWAP1 PUSH2 0x22A5 SWAP1 PUSH2 0x333A JUMP JUMPDEST SWAP1 POP PUSH1 0x0 DUP2 PUSH1 0x1 PUSH1 0x1 PUSH1 0x40 SHL SUB DUP2 GT ISZERO PUSH2 0x22C1 JUMPI PUSH2 0x22C1 PUSH2 0x5047 JUMP JUMPDEST PUSH1 0x40 MLOAD SWAP1 DUP1 DUP3 MSTORE DUP1 PUSH1 0x20 MUL PUSH1 0x20 ADD DUP3 ADD PUSH1 0x40 MSTORE DUP1 ISZERO PUSH2 0x22FA JUMPI DUP2 PUSH1 0x20 ADD JUMPDEST PUSH2 0x22E7 PUSH2 0x4E5F JUMP JUMPDEST DUP2 MSTORE PUSH1 0x20 ADD SWAP1 PUSH1 0x1 SWAP1 SUB SWAP1 DUP2 PUSH2 0x22DF JUMPI SWAP1 POP JUMPDEST POP SWAP1 POP PUSH1 0x0 JUMPDEST DUP3 DUP2 LT ISZERO PUSH2 0xF9C JUMPI PUSH1 0x1 PUSH1 0x1 PUSH1 0xA0 SHL SUB DUP6 AND PUSH1 0x0 SWAP1 DUP2 MSTORE PUSH1 0x7 PUSH1 0x20 MSTORE PUSH1 0x40 SWAP1 KECCAK256 PUSH2 0x232E SWAP1 PUSH2 0x3B1 SWAP1 DUP4 PUSH2 0x339C JUMP JUMPDEST DUP3 DUP3 DUP2 MLOAD DUP2 LT PUSH2 0x2340 JUMPI PUSH2 0x2340 PUSH2 0x599A JUMP JUMPDEST PUSH1 0x20 MUL PUSH1 0x20 ADD ADD DUP2 SWAP1 MSTORE POP DUP1 DUP1 PUSH2 0x2356 SWAP1 PUSH2 0x5A0B JUMP JUMPDEST SWAP2 POP POP PUSH2 0x2300 JUMP JUMPDEST DUP3 PUSH2 0x2368 DUP2 PUSH2 0x3344 JUMP JUMPDEST POP PUSH1 0x0 PUSH1 0x5 PUSH2 0x2376 DUP7 PUSH2 0x3344 JUMP JUMPDEST DUP2 SLOAD DUP2 LT PUSH2 0x2386 JUMPI PUSH2 0x2386 PUSH2 0x599A JUMP JUMPDEST PUSH1 0x0 SWAP2 DUP3 MSTORE PUSH1 0x20 SWAP1 SWAP2 KECCAK256 PUSH1 0x2 PUSH1 0xB SWAP1 SWAP3 MUL ADD SWAP1 DUP2 ADD SLOAD SWAP1 SWAP2 POP PUSH1 0x1 PUSH1 0x1 PUSH1 0xA0 SHL SUB AND CALLER EQ PUSH2 0x23C6 JUMPI PUSH1 0x40 MLOAD PUSH3 0x461BCD PUSH1 0xE5 SHL DUP2 MSTORE PUSH1 0x4 ADD PUSH2 0xB41 SWAP1 PUSH2 0x5A33 JUMP JUMPDEST PUSH1 0x9 DUP2 ADD SLOAD ISZERO PUSH2 0x23E8 JUMPI PUSH1 0x40 MLOAD PUSH3 0x461BCD PUSH1 0xE5 SHL DUP2 MSTORE PUSH1 0x4 ADD PUSH2 0xB41 SWAP1 PUSH2 0x5A75 JUMP JUMPDEST PUSH1 0x0 DUP4 GT DUP1 PUSH2 0x23F7 JUMPI POP PUSH1 0x0 DUP5 GT JUMPDEST ISZERO PUSH2 0x253A JUMPI PUSH1 0x14 SLOAD PUSH1 0x40 MLOAD PUSH4 0x526F812B PUSH1 0xE1 SHL DUP2 MSTORE PUSH1 0x1 PUSH1 0x1 PUSH1 0xA0 SHL SUB SWAP1 SWAP2 AND SWAP1 PUSH4 0xA4DF0256 SWAP1 PUSH2 0x242C SWAP1 CALLER SWAP1 PUSH1 0x4 ADD PUSH2 0x553C JUMP JUMPDEST PUSH1 0x20 PUSH1 0x40 MLOAD DUP1 DUP4 SUB DUP2 DUP7 GAS STATICCALL ISZERO DUP1 ISZERO PUSH2 0x2449 JUMPI RETURNDATASIZE PUSH1 0x0 DUP1 RETURNDATACOPY RETURNDATASIZE PUSH1 0x0 REVERT JUMPDEST POP POP POP POP PUSH1 0x40 MLOAD RETURNDATASIZE PUSH1 0x1F NOT PUSH1 0x1F DUP3 ADD AND DUP3 ADD DUP1 PUSH1 0x40 MSTORE POP DUP2 ADD SWAP1 PUSH2 0x246D SWAP2 SWAP1 PUSH2 0x591D JUMP JUMPDEST PUSH2 0x253A JUMPI PUSH1 0x1 SLOAD CALLVALUE LT ISZERO PUSH2 0x2493 JUMPI PUSH1 0x40 MLOAD PUSH3 0x461BCD PUSH1 0xE5 SHL DUP2 MSTORE PUSH1 0x4 ADD PUSH2 0xB41 SWAP1 PUSH2 0x5AA0 JUMP JUMPDEST PUSH1 0x3 SLOAD PUSH1 0x1 SLOAD PUSH1 0x40 MLOAD PUSH1 0x0 SWAP3 PUSH1 0x1 PUSH1 0x1 PUSH1 0xA0 SHL SUB AND SWAP2 SWAP1 DUP4 DUP2 DUP2 DUP2 DUP6 DUP8 GAS CALL SWAP3 POP POP POP RETURNDATASIZE DUP1 PUSH1 0x0 DUP2 EQ PUSH2 0x24E2 JUMPI PUSH1 0x40 MLOAD SWAP2 POP PUSH1 0x1F NOT PUSH1 0x3F RETURNDATASIZE ADD AND DUP3 ADD PUSH1 0x40 MSTORE RETURNDATASIZE DUP3 MSTORE RETURNDATASIZE PUSH1 0x0 PUSH1 0x20 DUP5 ADD RETURNDATACOPY PUSH2 0x24E7 JUMP JUMPDEST PUSH1 0x60 SWAP2 POP JUMPDEST POP POP SWAP1 POP DUP1 PUSH2 0x2538 JUMPI PUSH1 0x40 MLOAD PUSH3 0x461BCD PUSH1 0xE5 SHL DUP2 MSTORE PUSH1 0x20 PUSH1 0x4 DUP3 ADD MSTORE PUSH1 0x1D PUSH1 0x24 DUP3 ADD MSTORE PUSH32 0x656469744C6F636B3A20666565207472616E73666572206661696C6564000000 PUSH1 0x44 DUP3 ADD MSTORE PUSH1 0x64 ADD PUSH2 0xB41 JUMP JUMPDEST POP JUMPDEST DUP3 ISZERO PUSH2 0x2577 JUMPI DUP1 PUSH1 0x5 ADD SLOAD DUP4 LT ISZERO DUP1 ISZERO PUSH2 0x2553 JUMPI POP TIMESTAMP DUP4 GT JUMPDEST PUSH2 0x256F JUMPI PUSH1 0x40 MLOAD PUSH3 0x461BCD PUSH1 0xE5 SHL DUP2 MSTORE PUSH1 0x4 ADD PUSH2 0xB41 SWAP1 PUSH2 0x5AD3 JUMP JUMPDEST PUSH1 0x5 DUP2 ADD DUP4 SWAP1 SSTORE JUMPDEST DUP4 ISZERO PUSH2 0x2611 JUMPI DUP1 PUSH1 0x3 ADD SLOAD DUP5 LT ISZERO PUSH2 0x25A1 JUMPI PUSH1 0x40 MLOAD PUSH3 0x461BCD PUSH1 0xE5 SHL DUP2 MSTORE PUSH1 0x4 ADD PUSH2 0xB41 SWAP1 PUSH2 0x5B3D JUMP JUMPDEST PUSH1 0x0 DUP2 PUSH1 0x3 ADD SLOAD DUP6 PUSH2 0x25B3 SWAP2 SWAP1 PUSH2 0x5B8E JUMP JUMPDEST SWAP1 POP DUP1 ISZERO PUSH2 0x260F JUMPI PUSH1 0x3 DUP3 ADD DUP6 SWAP1 SSTORE PUSH1 0x1 DUP3 ADD SLOAD PUSH1 0x1 PUSH1 0x1 PUSH1 0xA0 SHL SUB AND PUSH1 0x0 SWAP1 DUP2 MSTORE PUSH1 0xE PUSH1 0x20 MSTORE PUSH1 0x40 SWAP1 KECCAK256 PUSH1 0x2 DUP2 ADD SLOAD PUSH2 0x25EE SWAP1 DUP4 SWAP1 PUSH2 0x4FF6 JUMP JUMPDEST PUSH1 0x2 DUP3 ADD SSTORE PUSH1 0x1 DUP4 ADD SLOAD PUSH2 0x260D SWAP1 PUSH1 0x1 PUSH1 0x1 PUSH1 0xA0 SHL SUB AND CALLER ADDRESS DUP6 PUSH2 0x31E9 JUMP JUMPDEST POP JUMPDEST POP JUMPDEST DUP1 SLOAD PUSH1 0x1 DUP3 ADD SLOAD PUSH1 0x2 DUP4 ADD SLOAD PUSH1 0x3 DUP5 ADD SLOAD PUSH1 0x5 DUP6 ADD SLOAD PUSH1 0x40 MLOAD PUSH32 0xA8B26360DF8D5E154FFA5A8A7E894E85F781ACFBBEF0B744FB9551D8FD0FD36C SWAP5 PUSH2 0x1B24 SWAP5 PUSH1 0x1 PUSH1 0x1 PUSH1 0xA0 SHL SUB SWAP2 DUP3 AND SWAP5 SWAP2 AND SWAP3 SWAP1 SWAP2 PUSH2 0x5971 JUMP JUMPDEST PUSH1 0x0 PUSH2 0xFC0 PUSH1 0xA PUSH2 0x333A JUMP JUMPDEST PUSH1 0x0 DUP1 PUSH2 0x267E DUP5 PUSH2 0xCF5 JUMP JUMPDEST SWAP1 POP PUSH2 0x1EF2 DUP2 DUP5 PUSH2 0x3B0C JUMP JUMPDEST DUP2 PUSH2 0x2694 DUP2 PUSH2 0x3407 JUMP JUMPDEST POP PUSH1 0x0 PUSH1 0x6 PUSH2 0x26A2 DUP6 PUSH2 0x3407 JUMP JUMPDEST DUP2 SLOAD DUP2 LT PUSH2 0x26B2 JUMPI PUSH2 0x26B2 PUSH2 0x599A JUMP JUMPDEST PUSH1 0x0 SWAP2 DUP3 MSTORE PUSH1 0x20 SWAP1 SWAP2 KECCAK256 PUSH1 0x1 PUSH1 0xA SWAP1 SWAP3 MUL ADD SWAP1 DUP2 ADD SLOAD SWAP1 SWAP2 POP PUSH1 0x1 PUSH1 0x1 PUSH1 0xA0 SHL SUB AND CALLER EQ PUSH2 0x26F2 JUMPI PUSH1 0x40 MLOAD PUSH3 0x461BCD PUSH1 0xE5 SHL DUP2 MSTORE PUSH1 0x4 ADD PUSH2 0xB41 SWAP1 PUSH2 0x5A33 JUMP JUMPDEST PUSH2 0x1780 DUP2 DUP5 PUSH2 0x3C19 JUMP JUMPDEST PUSH1 0x0 TIMESTAMP DUP7 GT PUSH2 0x271D JUMPI PUSH1 0x40 MLOAD PUSH3 0x461BCD PUSH1 0xE5 SHL DUP2 MSTORE PUSH1 0x4 ADD PUSH2 0xB41 SWAP1 PUSH2 0x5C91 JUMP JUMPDEST PUSH1 0x0 DUP5 GT PUSH2 0x273D JUMPI PUSH1 0x40 MLOAD PUSH3 0x461BCD PUSH1 0xE5 SHL DUP2 MSTORE PUSH1 0x4 ADD PUSH2 0xB41 SWAP1 PUSH2 0x5CC6 JUMP JUMPDEST PUSH1 0x0 DUP6 GT DUP1 ISZERO PUSH2 0x274E JUMPI POP PUSH2 0x2710 DUP6 LT JUMPDEST PUSH2 0x276A JUMPI PUSH1 0x40 MLOAD PUSH3 0x461BCD PUSH1 0xE5 SHL DUP2 MSTORE PUSH1 0x4 ADD PUSH2 0xB41 SWAP1 PUSH2 0x5CED JUMP JUMPDEST PUSH1 0x0 DUP4 GT DUP1 ISZERO PUSH2 0x277B JUMPI POP PUSH2 0x2710 DUP4 LT JUMPDEST PUSH2 0x2797 JUMPI PUSH1 0x40 MLOAD PUSH3 0x461BCD PUSH1 0xE5 SHL DUP2 MSTORE PUSH1 0x4 ADD PUSH2 0xB41 SWAP1 PUSH2 0x5D1B JUMP JUMPDEST PUSH2 0x2710 PUSH2 0x27A4 DUP5 DUP8 PUSH2 0x4FF6 JUMP JUMPDEST GT ISZERO PUSH2 0x27C2 JUMPI PUSH1 0x40 MLOAD PUSH3 0x461BCD PUSH1 0xE5 SHL DUP2 MSTORE PUSH1 0x4 ADD PUSH2 0xB41 SWAP1 PUSH2 0x5D4B JUMP JUMPDEST PUSH1 0x0 DUP8 GT PUSH2 0x27E2 JUMPI PUSH1 0x40 MLOAD PUSH3 0x461BCD PUSH1 0xE5 SHL DUP2 MSTORE PUSH1 0x4 ADD PUSH2 0xB41 SWAP1 PUSH2 0x58AF JUMP JUMPDEST PUSH1 0x14 SLOAD PUSH1 0x40 MLOAD PUSH4 0x526F812B PUSH1 0xE1 SHL DUP2 MSTORE PUSH1 0x1 PUSH1 0x1 PUSH1 0xA0 SHL SUB SWAP1 SWAP2 AND SWAP1 PUSH4 0xA4DF0256 SWAP1 PUSH2 0x2812 SWAP1 CALLER SWAP1 PUSH1 0x4 ADD PUSH2 0x553C JUMP JUMPDEST PUSH1 0x20 PUSH1 0x40 MLOAD DUP1 DUP4 SUB DUP2 DUP7 GAS STATICCALL ISZERO DUP1 ISZERO PUSH2 0x282F JUMPI RETURNDATASIZE PUSH1 0x0 DUP1 RETURNDATACOPY RETURNDATASIZE PUSH1 0x0 REVERT JUMPDEST POP POP POP POP PUSH1 0x40 MLOAD RETURNDATASIZE PUSH1 0x1F NOT PUSH1 0x1F DUP3 ADD AND DUP3 ADD DUP1 PUSH1 0x40 MSTORE POP DUP2 ADD SWAP1 PUSH2 0x2853 SWAP2 SWAP1 PUSH2 0x591D JUMP JUMPDEST PUSH2 0x28D0 JUMPI PUSH1 0x1 SLOAD CALLVALUE LT ISZERO PUSH2 0x2879 JUMPI PUSH1 0x40 MLOAD PUSH3 0x461BCD PUSH1 0xE5 SHL DUP2 MSTORE PUSH1 0x4 ADD PUSH2 0xB41 SWAP1 PUSH2 0x593A JUMP JUMPDEST PUSH1 0x1 SLOAD PUSH1 0x4 PUSH1 0x0 DUP3 DUP3 SLOAD PUSH2 0x288D SWAP2 SWAP1 PUSH2 0x4FF6 JUMP JUMPDEST SWAP1 SWAP2 SSTORE POP POP PUSH1 0x3 SLOAD PUSH1 0x1 SLOAD PUSH1 0x40 MLOAD PUSH1 0x1 PUSH1 0x1 PUSH1 0xA0 SHL SUB SWAP1 SWAP3 AND SWAP2 DUP2 ISZERO PUSH2 0x8FC MUL SWAP2 SWAP1 PUSH1 0x0 DUP2 DUP2 DUP2 DUP6 DUP9 DUP9 CALL SWAP4 POP POP POP POP ISZERO DUP1 ISZERO PUSH2 0x28CE JUMPI RETURNDATASIZE PUSH1 0x0 DUP1 RETURNDATACOPY RETURNDATASIZE PUSH1 0x0 REVERT JUMPDEST POP JUMPDEST PUSH2 0x28E1 DUP11 DUP11 DUP11 DUP11 DUP11 DUP11 DUP11 DUP11 DUP11 PUSH2 0x319D JUMP JUMPDEST SWAP1 POP PUSH2 0x28EF DUP10 CALLER ADDRESS DUP11 PUSH2 0x31E9 JUMP JUMPDEST DUP1 PUSH1 0x0 DUP1 MLOAD PUSH1 0x20 PUSH2 0x5EB9 DUP4 CODECOPY DUP2 MLOAD SWAP2 MSTORE DUP11 DUP13 DUP11 DUP11 PUSH1 0x40 MLOAD PUSH2 0x2913 SWAP5 SWAP4 SWAP3 SWAP2 SWAP1 PUSH2 0x5971 JUMP JUMPDEST PUSH1 0x40 MLOAD DUP1 SWAP2 SUB SWAP1 LOG2 JUMPDEST SWAP10 SWAP9 POP POP POP POP POP POP POP POP POP JUMP JUMPDEST PUSH2 0x10C4 DUP2 PUSH1 0x0 PUSH2 0x1C35 JUMP JUMPDEST PUSH1 0x0 PUSH2 0x293F DUP3 PUSH2 0xCCE JUMP JUMPDEST PUSH2 0x2948 DUP4 PUSH2 0x2ED9 JUMP JUMPDEST PUSH2 0xCEF SWAP2 SWAP1 PUSH2 0x4FF6 JUMP JUMPDEST DUP2 PUSH2 0x295C DUP2 PUSH2 0x3344 JUMP JUMPDEST POP PUSH1 0x0 PUSH1 0x5 PUSH2 0x296A DUP6 PUSH2 0x3344 JUMP JUMPDEST DUP2 SLOAD DUP2 LT PUSH2 0x297A JUMPI PUSH2 0x297A PUSH2 0x599A JUMP JUMPDEST PUSH1 0x0 SWAP2 DUP3 MSTORE PUSH1 0x20 SWAP1 SWAP2 KECCAK256 PUSH1 0x2 PUSH1 0xB SWAP1 SWAP3 MUL ADD SWAP1 DUP2 ADD SLOAD SWAP1 SWAP2 POP PUSH1 0x1 PUSH1 0x1 PUSH1 0xA0 SHL SUB AND CALLER EQ PUSH2 0x29BA JUMPI PUSH1 0x40 MLOAD PUSH3 0x461BCD PUSH1 0xE5 SHL DUP2 MSTORE PUSH1 0x4 ADD PUSH2 0xB41 SWAP1 PUSH2 0x5A33 JUMP JUMPDEST DUP3 MLOAD PUSH2 0x29CF SWAP1 PUSH1 0xA DUP4 ADD SWAP1 PUSH1 0x20 DUP7 ADD SWAP1 PUSH2 0x4F47 JUMP JUMPDEST POP PUSH1 0x40 MLOAD DUP5 DUP2 MSTORE PUSH32 0xE4A1120FD509C50AEC65802FD3C3C9A4B72BF746FE9A552396185C6DE928E8AA SWAP1 PUSH1 0x20 ADD PUSH1 0x40 MLOAD DUP1 SWAP2 SUB SWAP1 LOG1 POP POP POP POP JUMP JUMPDEST PUSH1 0x1 PUSH1 0x1 PUSH1 0xA0 SHL SUB DUP2 AND PUSH1 0x0 SWAP1 DUP2 MSTORE PUSH1 0x8 PUSH1 0x20 MSTORE PUSH1 0x40 DUP2 KECCAK256 PUSH1 0x60 SWAP2 SWAP1 PUSH2 0x2A2E SWAP1 PUSH2 0x333A JUMP JUMPDEST SWAP1 POP PUSH1 0x0 DUP2 PUSH1 0x1 PUSH1 0x1 PUSH1 0x40 SHL SUB DUP2 GT ISZERO PUSH2 0x2A4A JUMPI PUSH2 0x2A4A PUSH2 0x5047 JUMP JUMPDEST PUSH1 0x40 MLOAD SWAP1 DUP1 DUP3 MSTORE DUP1 PUSH1 0x20 MUL PUSH1 0x20 ADD DUP3 ADD PUSH1 0x40 MSTORE DUP1 ISZERO PUSH2 0x2A83 JUMPI DUP2 PUSH1 0x20 ADD JUMPDEST PUSH2 0x2A70 PUSH2 0x4E5F JUMP JUMPDEST DUP2 MSTORE PUSH1 0x20 ADD SWAP1 PUSH1 0x1 SWAP1 SUB SWAP1 DUP2 PUSH2 0x2A68 JUMPI SWAP1 POP JUMPDEST POP SWAP1 POP PUSH1 0x0 JUMPDEST DUP3 DUP2 LT ISZERO PUSH2 0xF9C JUMPI PUSH1 0x1 PUSH1 0x1 PUSH1 0xA0 SHL SUB DUP6 AND PUSH1 0x0 SWAP1 DUP2 MSTORE PUSH1 0x8 PUSH1 0x20 MSTORE PUSH1 0x40 SWAP1 KECCAK256 PUSH2 0x2AB7 SWAP1 PUSH2 0x3B1 SWAP1 DUP4 PUSH2 0x339C JUMP JUMPDEST DUP3 DUP3 DUP2 MLOAD DUP2 LT PUSH2 0x2AC9 JUMPI PUSH2 0x2AC9 PUSH2 0x599A JUMP JUMPDEST PUSH1 0x20 MUL PUSH1 0x20 ADD ADD DUP2 SWAP1 MSTORE POP DUP1 DUP1 PUSH2 0x2ADF SWAP1 PUSH2 0x5A0B JUMP JUMPDEST SWAP2 POP POP PUSH2 0x2A89 JUMP JUMPDEST PUSH1 0x60 DUP11 DUP10 EQ PUSH2 0x2B2C JUMPI PUSH1 0x40 MLOAD PUSH3 0x461BCD PUSH1 0xE5 SHL DUP2 MSTORE PUSH1 0x20 PUSH1 0x4 DUP3 ADD MSTORE PUSH1 0x11 PUSH1 0x24 DUP3 ADD MSTORE PUSH17 0x13195B99DD1A081B5A5CDB585D18DA1959 PUSH1 0x7A SHL PUSH1 0x44 DUP3 ADD MSTORE PUSH1 0x64 ADD PUSH2 0xB41 JUMP JUMPDEST TIMESTAMP DUP7 GT PUSH2 0x2B4B JUMPI PUSH1 0x40 MLOAD PUSH3 0x461BCD PUSH1 0xE5 SHL DUP2 MSTORE PUSH1 0x4 ADD PUSH2 0xB41 SWAP1 PUSH2 0x5C91 JUMP JUMPDEST PUSH1 0x0 DUP5 GT PUSH2 0x2B6B JUMPI PUSH1 0x40 MLOAD PUSH3 0x461BCD PUSH1 0xE5 SHL DUP2 MSTORE PUSH1 0x4 ADD PUSH2 0xB41 SWAP1 PUSH2 0x5CC6 JUMP JUMPDEST PUSH1 0x0 DUP6 GT DUP1 ISZERO PUSH2 0x2B7C JUMPI POP PUSH2 0x2710 DUP6 LT JUMPDEST PUSH2 0x2B98 JUMPI PUSH1 0x40 MLOAD PUSH3 0x461BCD PUSH1 0xE5 SHL DUP2 MSTORE PUSH1 0x4 ADD PUSH2 0xB41 SWAP1 PUSH2 0x5CED JUMP JUMPDEST PUSH1 0x0 DUP4 GT DUP1 ISZERO PUSH2 0x2BA9 JUMPI POP PUSH2 0x2710 DUP4 LT JUMPDEST PUSH2 0x2BC5 JUMPI PUSH1 0x40 MLOAD PUSH3 0x461BCD PUSH1 0xE5 SHL DUP2 MSTORE PUSH1 0x4 ADD PUSH2 0xB41 SWAP1 PUSH2 0x5D1B JUMP JUMPDEST PUSH2 0x2710 PUSH2 0x2BD2 DUP5 DUP8 PUSH2 0x4FF6 JUMP JUMPDEST GT ISZERO PUSH2 0x2BF0 JUMPI PUSH1 0x40 MLOAD PUSH3 0x461BCD PUSH1 0xE5 SHL DUP2 MSTORE PUSH1 0x4 ADD PUSH2 0xB41 SWAP1 PUSH2 0x5D4B JUMP JUMPDEST PUSH2 0x2C20 DUP13 DUP13 DUP13 DUP13 DUP13 DUP13 PUSH1 0x40 MLOAD DUP1 PUSH1 0x80 ADD PUSH1 0x40 MSTORE DUP1 DUP15 DUP2 MSTORE PUSH1 0x20 ADD DUP14 DUP2 MSTORE PUSH1 0x20 ADD DUP13 DUP2 MSTORE PUSH1 0x20 ADD DUP12 DUP2 MSTORE POP DUP10 PUSH2 0x3EB2 JUMP JUMPDEST SWAP13 SWAP12 POP POP POP POP POP POP POP POP POP POP POP POP JUMP JUMPDEST PUSH1 0x1 PUSH1 0x1 PUSH1 0xA0 SHL SUB DUP2 AND PUSH1 0x0 SWAP1 DUP2 MSTORE PUSH1 0xF PUSH1 0x20 MSTORE PUSH1 0x40 DUP2 KECCAK256 PUSH2 0xCEF SWAP1 PUSH2 0x333A JUMP JUMPDEST PUSH1 0x0 DUP1 DUP8 GT PUSH2 0x2C72 JUMPI PUSH1 0x40 MLOAD PUSH3 0x461BCD PUSH1 0xE5 SHL DUP2 MSTORE PUSH1 0x4 ADD PUSH2 0xB41 SWAP1 PUSH2 0x58AF JUMP JUMPDEST TIMESTAMP DUP7 GT PUSH2 0x2CBF JUMPI PUSH1 0x40 MLOAD PUSH3 0x461BCD PUSH1 0xE5 SHL DUP2 MSTORE PUSH1 0x20 PUSH1 0x4 DUP3 ADD MSTORE PUSH1 0x1B PUSH1 0x24 DUP3 ADD MSTORE PUSH27 0x506C656173652073657420612076616C6964205447452064617465 PUSH1 0x28 SHL PUSH1 0x44 DUP3 ADD MSTORE PUSH1 0x64 ADD PUSH2 0xB41 JUMP JUMPDEST PUSH1 0x0 DUP5 GT PUSH2 0x2CDF JUMPI PUSH1 0x40 MLOAD PUSH3 0x461BCD PUSH1 0xE5 SHL DUP2 MSTORE PUSH1 0x4 ADD PUSH2 0xB41 SWAP1 PUSH2 0x5CC6 JUMP JUMPDEST PUSH1 0x0 DUP6 GT DUP1 ISZERO PUSH2 0x2CF0 JUMPI POP PUSH2 0x2710 DUP6 LT JUMPDEST PUSH2 0x2D0C JUMPI PUSH1 0x40 MLOAD PUSH3 0x461BCD PUSH1 0xE5 SHL DUP2 MSTORE PUSH1 0x4 ADD PUSH2 0xB41 SWAP1 PUSH2 0x5CED JUMP JUMPDEST PUSH1 0x0 DUP4 GT DUP1 ISZERO PUSH2 0x2D1D JUMPI POP PUSH2 0x2710 DUP4 LT JUMPDEST PUSH2 0x2D39 JUMPI PUSH1 0x40 MLOAD PUSH3 0x461BCD PUSH1 0xE5 SHL DUP2 MSTORE PUSH1 0x4 ADD PUSH2 0xB41 SWAP1 PUSH2 0x5D1B JUMP JUMPDEST PUSH2 0x2710 PUSH2 0x2D46 DUP5 DUP8 PUSH2 0x4FF6 JUMP JUMPDEST GT ISZERO PUSH2 0x2D64 JUMPI PUSH1 0x40 MLOAD PUSH3 0x461BCD PUSH1 0xE5 SHL DUP2 MSTORE PUSH1 0x4 ADD PUSH2 0xB41 SWAP1 PUSH2 0x5D4B JUMP JUMPDEST PUSH1 0x14 SLOAD PUSH1 0x40 MLOAD PUSH4 0x526F812B PUSH1 0xE1 SHL DUP2 MSTORE PUSH1 0x1 PUSH1 0x1 PUSH1 0xA0 SHL SUB SWAP1 SWAP2 AND SWAP1 PUSH4 0xA4DF0256 SWAP1 PUSH2 0x2D94 SWAP1 CALLER SWAP1 PUSH1 0x4 ADD PUSH2 0x553C JUMP JUMPDEST PUSH1 0x20 PUSH1 0x40 MLOAD DUP1 DUP4 SUB DUP2 DUP7 GAS STATICCALL ISZERO DUP1 ISZERO PUSH2 0x2DB1 JUMPI RETURNDATASIZE PUSH1 0x0 DUP1 RETURNDATACOPY RETURNDATASIZE PUSH1 0x0 REVERT JUMPDEST POP POP POP POP PUSH1 0x40 MLOAD RETURNDATASIZE PUSH1 0x1F NOT PUSH1 0x1F DUP3 ADD AND DUP3 ADD DUP1 PUSH1 0x40 MSTORE POP DUP2 ADD SWAP1 PUSH2 0x2DD5 SWAP2 SWAP1 PUSH2 0x591D JUMP JUMPDEST PUSH2 0x2E61 JUMPI DUP7 PUSH1 0x2 SLOAD PUSH2 0x2DE7 SWAP2 SWAP1 PUSH2 0x4FF6 JUMP JUMPDEST CALLVALUE LT ISZERO PUSH2 0x2E06 JUMPI PUSH1 0x40 MLOAD PUSH3 0x461BCD PUSH1 0xE5 SHL DUP2 MSTORE PUSH1 0x4 ADD PUSH2 0xB41 SWAP1 PUSH2 0x5D9D JUMP JUMPDEST PUSH1 0x2 SLOAD PUSH1 0x4 PUSH1 0x0 DUP3 DUP3 SLOAD PUSH2 0x2E1A SWAP2 SWAP1 PUSH2 0x4FF6 JUMP JUMPDEST SWAP1 SWAP2 SSTORE POP POP PUSH1 0x3 SLOAD PUSH1 0x2 SLOAD PUSH1 0x40 MLOAD PUSH1 0x1 PUSH1 0x1 PUSH1 0xA0 SHL SUB SWAP1 SWAP3 AND SWAP2 DUP2 ISZERO PUSH2 0x8FC MUL SWAP2 SWAP1 PUSH1 0x0 DUP2 DUP2 DUP2 DUP6 DUP9 DUP9 CALL SWAP4 POP POP POP POP ISZERO DUP1 ISZERO PUSH2 0x2E5B JUMPI RETURNDATASIZE PUSH1 0x0 DUP1 RETURNDATACOPY RETURNDATASIZE PUSH1 0x0 REVERT JUMPDEST POP PUSH2 0x2E81 JUMP JUMPDEST DUP7 CALLVALUE LT ISZERO PUSH2 0x2E81 JUMPI PUSH1 0x40 MLOAD PUSH3 0x461BCD PUSH1 0xE5 SHL DUP2 MSTORE PUSH1 0x4 ADD PUSH2 0xB41 SWAP1 PUSH2 0x5DD4 JUMP JUMPDEST PUSH2 0x2E90 DUP9 DUP9 DUP9 DUP9 DUP9 DUP9 DUP9 PUSH2 0x4070 JUMP JUMPDEST SWAP1 POP DUP1 PUSH32 0x20F7C5268098786F509C1F28CB089B96F36D68B9E1C572FEBDB5847F5ECB2897 DUP10 DUP10 DUP10 PUSH1 0x40 MLOAD PUSH2 0x2EC6 SWAP4 SWAP3 SWAP2 SWAP1 PUSH2 0x5C3E JUMP JUMPDEST PUSH1 0x40 MLOAD DUP1 SWAP2 SUB SWAP1 LOG2 SWAP8 SWAP7 POP POP POP POP POP POP POP JUMP JUMPDEST PUSH1 0x1 PUSH1 0x1 PUSH1 0xA0 SHL SUB DUP2 AND PUSH1 0x0 SWAP1 DUP2 MSTORE PUSH1 0x8 PUSH1 0x20 MSTORE PUSH1 0x40 DUP2 KECCAK256 PUSH2 0xCEF SWAP1 PUSH2 0x333A JUMP JUMPDEST PUSH1 0x0 TIMESTAMP DUP4 GT PUSH2 0x2F1B JUMPI PUSH1 0x40 MLOAD PUSH3 0x461BCD PUSH1 0xE5 SHL DUP2 MSTORE PUSH1 0x4 ADD PUSH2 0xB41 SWAP1 PUSH2 0x58E6 JUMP JUMPDEST PUSH1 0x0 DUP5 GT PUSH2 0x2F3B JUMPI PUSH1 0x40 MLOAD PUSH3 0x461BCD PUSH1 0xE5 SHL DUP2 MSTORE PUSH1 0x4 ADD PUSH2 0xB41 SWAP1 PUSH2 0x58AF JUMP JUMPDEST PUSH1 0x14 SLOAD PUSH1 0x40 MLOAD PUSH4 0x526F812B PUSH1 0xE1 SHL DUP2 MSTORE PUSH1 0x1 PUSH1 0x1 PUSH1 0xA0 SHL SUB SWAP1 SWAP2 AND SWAP1 PUSH4 0xA4DF0256 SWAP1 PUSH2 0x2F6B SWAP1 CALLER SWAP1 PUSH1 0x4 ADD PUSH2 0x553C JUMP JUMPDEST PUSH1 0x20 PUSH1 0x40 MLOAD DUP1 DUP4 SUB DUP2 DUP7 GAS STATICCALL ISZERO DUP1 ISZERO PUSH2 0x2F88 JUMPI RETURNDATASIZE PUSH1 0x0 DUP1 RETURNDATACOPY RETURNDATASIZE PUSH1 0x0 REVERT JUMPDEST POP POP POP POP PUSH1 0x40 MLOAD RETURNDATASIZE PUSH1 0x1F NOT PUSH1 0x1F DUP3 ADD AND DUP3 ADD DUP1 PUSH1 0x40 MSTORE POP DUP2 ADD SWAP1 PUSH2 0x2FAC SWAP2 SWAP1 PUSH2 0x591D JUMP JUMPDEST PUSH2 0x3038 JUMPI DUP4 PUSH1 0x1 SLOAD PUSH2 0x2FBE SWAP2 SWAP1 PUSH2 0x4FF6 JUMP JUMPDEST CALLVALUE LT ISZERO PUSH2 0x2FDD JUMPI PUSH1 0x40 MLOAD PUSH3 0x461BCD PUSH1 0xE5 SHL DUP2 MSTORE PUSH1 0x4 ADD PUSH2 0xB41 SWAP1 PUSH2 0x5D9D JUMP JUMPDEST PUSH1 0x1 SLOAD PUSH1 0x4 PUSH1 0x0 DUP3 DUP3 SLOAD PUSH2 0x2FF1 SWAP2 SWAP1 PUSH2 0x4FF6 JUMP JUMPDEST SWAP1 SWAP2 SSTORE POP POP PUSH1 0x3 SLOAD PUSH1 0x1 SLOAD PUSH1 0x40 MLOAD PUSH1 0x1 PUSH1 0x1 PUSH1 0xA0 SHL SUB SWAP1 SWAP3 AND SWAP2 DUP2 ISZERO PUSH2 0x8FC MUL SWAP2 SWAP1 PUSH1 0x0 DUP2 DUP2 DUP2 DUP6 DUP9 DUP9 CALL SWAP4 POP POP POP POP ISZERO DUP1 ISZERO PUSH2 0x3032 JUMPI RETURNDATASIZE PUSH1 0x0 DUP1 RETURNDATACOPY RETURNDATASIZE PUSH1 0x0 REVERT JUMPDEST POP PUSH2 0x3058 JUMP JUMPDEST DUP4 CALLVALUE LT ISZERO PUSH2 0x3058 JUMPI PUSH1 0x40 MLOAD PUSH3 0x461BCD PUSH1 0xE5 SHL DUP2 MSTORE PUSH1 0x4 ADD PUSH2 0xB41 SWAP1 PUSH2 0x5DD4 JUMP JUMPDEST PUSH2 0x3069 DUP6 DUP6 DUP6 PUSH1 0x0 DUP1 PUSH1 0x0 DUP9 PUSH2 0x4070 JUMP JUMPDEST SWAP1 POP DUP1 PUSH32 0x20F7C5268098786F509C1F28CB089B96F36D68B9E1C572FEBDB5847F5ECB2897 DUP7 DUP7 DUP7 PUSH1 0x40 MLOAD PUSH2 0x309F SWAP4 SWAP3 SWAP2 SWAP1 PUSH2 0x5C3E JUMP JUMPDEST PUSH1 0x40 MLOAD DUP1 SWAP2 SUB SWAP1 LOG2 SWAP5 SWAP4 POP POP POP POP JUMP JUMPDEST PUSH2 0x30B7 PUSH2 0x4E5F JUMP JUMPDEST DUP2 PUSH2 0x30C1 DUP5 PUSH2 0xCCE JUMP JUMPDEST GT PUSH2 0x30DE JUMPI PUSH1 0x40 MLOAD PUSH3 0x461BCD PUSH1 0xE5 SHL DUP2 MSTORE PUSH1 0x4 ADD PUSH2 0xB41 SWAP1 PUSH2 0x59E4 JUMP JUMPDEST PUSH1 0x1 PUSH1 0x1 PUSH1 0xA0 SHL SUB DUP4 AND PUSH1 0x0 SWAP1 DUP2 MSTORE PUSH1 0x7 PUSH1 0x20 MSTORE PUSH1 0x40 SWAP1 KECCAK256 PUSH2 0xEB7 SWAP1 PUSH2 0x3B1 SWAP1 DUP5 PUSH2 0x339C JUMP JUMPDEST PUSH2 0x310C PUSH2 0x33A8 JUMP JUMPDEST PUSH1 0x1 PUSH1 0x1 PUSH1 0xA0 SHL SUB DUP2 AND PUSH2 0x3171 JUMPI PUSH1 0x40 MLOAD PUSH3 0x461BCD PUSH1 0xE5 SHL DUP2 MSTORE PUSH1 0x20 PUSH1 0x4 DUP3 ADD MSTORE PUSH1 0x26 PUSH1 0x24 DUP3 ADD MSTORE PUSH32 0x4F776E61626C653A206E6577206F776E657220697320746865207A65726F2061 PUSH1 0x44 DUP3 ADD MSTORE PUSH6 0x646472657373 PUSH1 0xD0 SHL PUSH1 0x64 DUP3 ADD MSTORE PUSH1 0x84 ADD PUSH2 0xB41 JUMP JUMPDEST PUSH2 0x10C4 DUP2 PUSH2 0x3993 JUMP JUMPDEST PUSH2 0x3182 PUSH2 0x4ECB JUMP JUMPDEST PUSH1 0x6 PUSH2 0x318D DUP4 PUSH2 0x3407 JUMP JUMPDEST DUP2 SLOAD DUP2 LT PUSH2 0x1B8C JUMPI PUSH2 0x1B8C PUSH2 0x599A JUMP JUMPDEST PUSH1 0x0 DUP8 ISZERO PUSH2 0x31CB JUMPI PUSH1 0x0 PUSH2 0x31B0 DUP11 PUSH2 0x40DA JUMP JUMPDEST SWAP1 POP PUSH2 0x31C3 DUP12 DUP12 DUP4 DUP12 DUP12 DUP12 DUP12 DUP12 DUP12 PUSH2 0x41EE JUMP JUMPDEST SWAP2 POP POP PUSH2 0x291C JUMP JUMPDEST PUSH2 0x31DB DUP11 DUP11 DUP10 DUP10 DUP10 DUP10 DUP10 DUP10 PUSH2 0x42C7 JUMP JUMPDEST SWAP11 SWAP10 POP POP POP POP POP POP POP POP POP POP JUMP JUMPDEST PUSH1 0x40 MLOAD PUSH4 0x70A08231 PUSH1 0xE0 SHL DUP2 MSTORE PUSH1 0x0 SWAP1 PUSH1 0x1 PUSH1 0x1 PUSH1 0xA0 SHL SUB DUP7 AND SWAP1 PUSH4 0x70A08231 SWAP1 PUSH2 0x3218 SWAP1 DUP7 SWAP1 PUSH1 0x4 ADD PUSH2 0x553C JUMP JUMPDEST PUSH1 0x20 PUSH1 0x40 MLOAD DUP1 DUP4 SUB DUP2 DUP7 GAS STATICCALL ISZERO DUP1 ISZERO PUSH2 0x3235 JUMPI RETURNDATASIZE PUSH1 0x0 DUP1 RETURNDATACOPY RETURNDATASIZE PUSH1 0x0 REVERT JUMPDEST POP POP POP POP PUSH1 0x40 MLOAD RETURNDATASIZE PUSH1 0x1F NOT PUSH1 0x1F DUP3 ADD AND DUP3 ADD DUP1 PUSH1 0x40 MSTORE POP DUP2 ADD SWAP1 PUSH2 0x3259 SWAP2 SWAP1 PUSH2 0x5C5F JUMP JUMPDEST SWAP1 POP PUSH2 0x3270 PUSH1 0x1 PUSH1 0x1 PUSH1 0xA0 SHL SUB DUP7 AND DUP6 DUP6 DUP6 PUSH2 0x4399 JUMP JUMPDEST PUSH1 0x40 MLOAD PUSH4 0x70A08231 PUSH1 0xE0 SHL DUP2 MSTORE PUSH1 0x0 SWAP1 PUSH1 0x1 PUSH1 0x1 PUSH1 0xA0 SHL SUB DUP8 AND SWAP1 PUSH4 0x70A08231 SWAP1 PUSH2 0x329F SWAP1 DUP8 SWAP1 PUSH1 0x4 ADD PUSH2 0x553C JUMP JUMPDEST PUSH1 0x20 PUSH1 0x40 MLOAD DUP1 DUP4 SUB DUP2 DUP7 GAS STATICCALL ISZERO DUP1 ISZERO PUSH2 0x32BC JUMPI RETURNDATASIZE PUSH1 0x0 DUP1 RETURNDATACOPY RETURNDATASIZE PUSH1 0x0 REVERT JUMPDEST POP POP POP POP PUSH1 0x40 MLOAD RETURNDATASIZE PUSH1 0x1F NOT PUSH1 0x1F DUP3 ADD AND DUP3 ADD DUP1 PUSH1 0x40 MSTORE POP DUP2 ADD SWAP1 PUSH2 0x32E0 SWAP2 SWAP1 PUSH2 0x5C5F JUMP JUMPDEST SWAP1 POP DUP3 PUSH2 0x32ED DUP4 DUP4 PUSH2 0x5B8E JUMP JUMPDEST EQ PUSH2 0x1393 JUMPI PUSH1 0x40 MLOAD PUSH3 0x461BCD PUSH1 0xE5 SHL DUP2 MSTORE PUSH1 0x20 PUSH1 0x4 DUP3 ADD DUP2 SWAP1 MSTORE PUSH1 0x24 DUP3 ADD MSTORE PUSH32 0x4E6F7420656E6F75676820746F6B656E20776173207472616E73666572726564 PUSH1 0x44 DUP3 ADD MSTORE PUSH1 0x64 ADD PUSH2 0xB41 JUMP JUMPDEST PUSH1 0x0 PUSH2 0xCEF DUP3 SLOAD SWAP1 JUMP JUMPDEST PUSH1 0x0 PUSH3 0xF4240 DUP3 LT ISZERO PUSH2 0x3369 JUMPI PUSH1 0x40 MLOAD PUSH3 0x461BCD PUSH1 0xE5 SHL DUP2 MSTORE PUSH1 0x4 ADD PUSH2 0xB41 SWAP1 PUSH2 0x5E09 JUMP JUMPDEST PUSH1 0x0 PUSH2 0x3378 PUSH3 0xF4240 DUP5 PUSH2 0x5B8E JUMP JUMPDEST PUSH1 0x5 SLOAD SWAP1 SWAP2 POP DUP2 LT PUSH2 0xCEF JUMPI PUSH1 0x40 MLOAD PUSH3 0x461BCD PUSH1 0xE5 SHL DUP2 MSTORE PUSH1 0x4 ADD PUSH2 0xB41 SWAP1 PUSH2 0x5E09 JUMP JUMPDEST PUSH1 0x0 PUSH2 0xEB7 DUP4 DUP4 PUSH2 0x43F1 JUMP JUMPDEST CALLER PUSH2 0x33B1 PUSH2 0x1F6C JUMP JUMPDEST PUSH1 0x1 PUSH1 0x1 PUSH1 0xA0 SHL SUB AND EQ PUSH2 0x1B45 JUMPI PUSH1 0x40 MLOAD PUSH3 0x461BCD PUSH1 0xE5 SHL DUP2 MSTORE PUSH1 0x20 PUSH1 0x4 DUP3 ADD DUP2 SWAP1 MSTORE PUSH1 0x24 DUP3 ADD MSTORE PUSH32 0x4F776E61626C653A2063616C6C6572206973206E6F7420746865206F776E6572 PUSH1 0x44 DUP3 ADD MSTORE PUSH1 0x64 ADD PUSH2 0xB41 JUMP JUMPDEST PUSH1 0x0 PUSH3 0xF4240 DUP3 LT ISZERO PUSH2 0x342C JUMPI PUSH1 0x40 MLOAD PUSH3 0x461BCD PUSH1 0xE5 SHL DUP2 MSTORE PUSH1 0x4 ADD PUSH2 0xB41 SWAP1 PUSH2 0x5E09 JUMP JUMPDEST PUSH1 0x0 PUSH2 0x343B PUSH3 0xF4240 DUP5 PUSH2 0x5B8E JUMP JUMPDEST PUSH1 0x6 SLOAD SWAP1 SWAP2 POP DUP2 LT PUSH2 0xCEF JUMPI PUSH1 0x40 MLOAD PUSH3 0x461BCD PUSH1 0xE5 SHL DUP2 MSTORE PUSH1 0x4 ADD PUSH2 0xB41 SWAP1 PUSH2 0x5E09 JUMP JUMPDEST PUSH1 0x0 PUSH2 0xEB7 DUP4 DUP4 PUSH2 0x441B JUMP JUMPDEST PUSH1 0x0 PUSH2 0xEB7 DUP4 DUP4 PUSH2 0x450E JUMP JUMPDEST PUSH1 0x40 DUP1 MLOAD PUSH2 0x160 DUP2 ADD DUP3 MSTORE DUP4 SLOAD DUP2 MSTORE PUSH1 0x1 DUP5 ADD SLOAD PUSH1 0x1 PUSH1 0x1 PUSH1 0xA0 SHL SUB SWAP1 DUP2 AND PUSH1 0x20 DUP4 ADD MSTORE PUSH1 0x2 DUP6 ADD SLOAD AND SWAP2 DUP2 ADD SWAP2 SWAP1 SWAP2 MSTORE PUSH1 0x3 DUP4 ADD SLOAD PUSH1 0x60 DUP3 ADD MSTORE PUSH1 0x4 DUP4 ADD SLOAD PUSH1 0x80 DUP3 ADD MSTORE PUSH1 0x5 DUP4 ADD SLOAD PUSH1 0xA0 DUP3 ADD MSTORE PUSH1 0x6 DUP4 ADD SLOAD PUSH1 0xC0 DUP3 ADD MSTORE PUSH1 0x7 DUP4 ADD SLOAD PUSH1 0xE0 DUP3 ADD MSTORE PUSH1 0x8 DUP4 ADD SLOAD PUSH2 0x100 DUP3 ADD MSTORE PUSH1 0x9 DUP4 ADD SLOAD PUSH2 0x120 DUP3 ADD MSTORE PUSH1 0xA DUP4 ADD DUP1 SLOAD PUSH1 0x0 SWAP3 PUSH2 0x3598 SWAP3 SWAP1 SWAP2 DUP7 SWAP2 PUSH2 0x140 DUP5 ADD SWAP2 PUSH2 0x3510 SWAP1 PUSH2 0x59B0 JUMP JUMPDEST DUP1 PUSH1 0x1F ADD PUSH1 0x20 DUP1 SWAP2 DIV MUL PUSH1 0x20 ADD PUSH1 0x40 MLOAD SWAP1 DUP2 ADD PUSH1 0x40 MSTORE DUP1 SWAP3 SWAP2 SWAP1 DUP2 DUP2 MSTORE PUSH1 0x20 ADD DUP3 DUP1 SLOAD PUSH2 0x353C SWAP1 PUSH2 0x59B0 JUMP JUMPDEST DUP1 ISZERO PUSH2 0x3589 JUMPI DUP1 PUSH1 0x1F LT PUSH2 0x355E JUMPI PUSH2 0x100 DUP1 DUP4 SLOAD DIV MUL DUP4 MSTORE SWAP2 PUSH1 0x20 ADD SWAP2 PUSH2 0x3589 JUMP JUMPDEST DUP3 ADD SWAP2 SWAP1 PUSH1 0x0 MSTORE PUSH1 0x20 PUSH1 0x0 KECCAK256 SWAP1 JUMPDEST DUP2 SLOAD DUP2 MSTORE SWAP1 PUSH1 0x1 ADD SWAP1 PUSH1 0x20 ADD DUP1 DUP4 GT PUSH2 0x356C JUMPI DUP3 SWAP1 SUB PUSH1 0x1F AND DUP3 ADD SWAP2 JUMPDEST POP POP POP POP POP DUP2 MSTORE POP POP DUP4 PUSH2 0x3B0C JUMP JUMPDEST SWAP1 POP PUSH1 0x0 DUP2 DUP5 PUSH1 0x9 ADD SLOAD PUSH2 0x35AC SWAP2 SWAP1 PUSH2 0x4FF6 JUMP JUMPDEST SWAP1 POP PUSH1 0x0 DUP3 GT DUP1 ISZERO PUSH2 0x35C2 JUMPI POP DUP4 PUSH1 0x3 ADD SLOAD DUP2 GT ISZERO JUMPDEST PUSH2 0x35DE JUMPI PUSH1 0x40 MLOAD PUSH3 0x461BCD PUSH1 0xE5 SHL DUP2 MSTORE PUSH1 0x4 ADD PUSH2 0xB41 SWAP1 PUSH2 0x5C13 JUMP JUMPDEST PUSH1 0x1 DUP1 DUP6 ADD SLOAD PUSH1 0x1 PUSH1 0x1 PUSH1 0xA0 SHL SUB SWAP1 DUP2 AND PUSH1 0x0 SWAP1 DUP2 MSTORE PUSH1 0xE PUSH1 0x20 MSTORE PUSH1 0x40 SWAP1 KECCAK256 SWAP2 DUP3 ADD SLOAD PUSH1 0x3 DUP8 ADD SLOAD SWAP2 AND ISZERO ISZERO SWAP1 DUP4 SUB PUSH2 0x36CB JUMPI DUP1 ISZERO PUSH2 0x3637 JUMPI DUP6 SLOAD CALLER PUSH1 0x0 SWAP1 DUP2 MSTORE PUSH1 0x7 PUSH1 0x20 MSTORE PUSH1 0x40 SWAP1 KECCAK256 PUSH2 0x3631 SWAP2 PUSH2 0x345F JUMP JUMPDEST POP PUSH2 0x3653 JUMP JUMPDEST DUP6 SLOAD CALLER PUSH1 0x0 SWAP1 DUP2 MSTORE PUSH1 0x8 PUSH1 0x20 MSTORE PUSH1 0x40 SWAP1 KECCAK256 PUSH2 0x3651 SWAP2 PUSH2 0x345F JUMP JUMPDEST POP JUMPDEST DUP6 SLOAD PUSH1 0x1 DUP8 ADD SLOAD PUSH1 0x1 PUSH1 0x1 PUSH1 0xA0 SHL SUB AND PUSH1 0x0 SWAP1 DUP2 MSTORE PUSH1 0xF PUSH1 0x20 MSTORE PUSH1 0x40 SWAP1 KECCAK256 PUSH2 0x367A SWAP2 PUSH2 0x345F JUMP JUMPDEST POP DUP6 SLOAD PUSH1 0x1 DUP8 ADD SLOAD PUSH1 0x40 MLOAD PUSH32 0xC6532367992B32E42A62DD89FC3574876D97D081A263AA6E030F34B79B7E6E8B SWAP2 PUSH2 0x36C2 SWAP2 PUSH1 0x1 PUSH1 0x1 PUSH1 0xA0 SHL SUB SWAP1 SWAP2 AND SWAP1 CALLER SWAP1 DUP9 SWAP1 TIMESTAMP SWAP1 PUSH2 0x5971 JUMP JUMPDEST PUSH1 0x40 MLOAD DUP1 SWAP2 SUB SWAP1 LOG2 JUMPDEST DUP4 DUP3 PUSH1 0x2 ADD SLOAD GT PUSH2 0x36E2 JUMPI PUSH1 0x0 PUSH1 0x2 DUP4 ADD SSTORE PUSH2 0x36F8 JUMP JUMPDEST DUP4 DUP3 PUSH1 0x2 ADD SLOAD PUSH2 0x36F2 SWAP2 SWAP1 PUSH2 0x5B8E JUMP JUMPDEST PUSH1 0x2 DUP4 ADD SSTORE JUMPDEST DUP2 PUSH1 0x2 ADD SLOAD PUSH1 0x0 SUB PUSH2 0x3746 JUMPI DUP1 ISZERO PUSH2 0x372A JUMPI PUSH1 0x1 DUP7 ADD SLOAD PUSH2 0x3724 SWAP1 PUSH1 0xA SWAP1 PUSH1 0x1 PUSH1 0x1 PUSH1 0xA0 SHL SUB AND PUSH2 0x455D JUMP JUMPDEST POP PUSH2 0x3746 JUMP JUMPDEST PUSH1 0x1 DUP7 ADD SLOAD PUSH2 0x3744 SWAP1 PUSH1 0xC SWAP1 PUSH1 0x1 PUSH1 0x1 PUSH1 0xA0 SHL SUB AND PUSH2 0x455D JUMP JUMPDEST POP JUMPDEST PUSH1 0x9 DUP7 ADD DUP4 SWAP1 SSTORE PUSH1 0x2 DUP7 ADD SLOAD PUSH1 0x1 DUP8 ADD SLOAD PUSH2 0x376E SWAP2 PUSH1 0x1 PUSH1 0x1 PUSH1 0xA0 SHL SUB SWAP2 DUP3 AND SWAP2 AND DUP7 PUSH2 0x4572 JUMP JUMPDEST DUP6 SLOAD PUSH1 0x1 DUP8 ADD SLOAD PUSH1 0x3 DUP9 ADD SLOAD PUSH1 0x40 DUP1 MLOAD PUSH1 0x1 PUSH1 0x1 PUSH1 0xA0 SHL SUB SWAP1 SWAP4 AND DUP4 MSTORE CALLER PUSH1 0x20 DUP5 ADD MSTORE DUP3 ADD DUP8 SWAP1 MSTORE PUSH1 0x60 DUP3 ADD MSTORE TIMESTAMP PUSH1 0x80 DUP3 ADD MSTORE PUSH32 0xF93385FFDF40B698B13993C059834B8E91D0CA8E7ABF827A34001CA03C03F6FF SWAP1 PUSH1 0xA0 ADD PUSH1 0x40 MLOAD DUP1 SWAP2 SUB SWAP1 LOG2 POP POP POP POP POP POP JUMP JUMPDEST DUP2 PUSH1 0x5 ADD SLOAD DUP2 LT ISZERO PUSH2 0x37FA JUMPI PUSH1 0x40 MLOAD PUSH3 0x461BCD PUSH1 0xE5 SHL DUP2 MSTORE PUSH1 0x4 ADD PUSH2 0xB41 SWAP1 PUSH2 0x5BE1 JUMP JUMPDEST PUSH1 0x9 DUP3 ADD SLOAD ISZERO PUSH2 0x381C JUMPI PUSH1 0x40 MLOAD PUSH3 0x461BCD PUSH1 0xE5 SHL DUP2 MSTORE PUSH1 0x4 ADD PUSH2 0xB41 SWAP1 PUSH2 0x5C13 JUMP JUMPDEST PUSH1 0x1 DUP1 DUP4 ADD SLOAD PUSH1 0x1 PUSH1 0x1 PUSH1 0xA0 SHL SUB SWAP1 DUP2 AND PUSH1 0x0 SWAP1 DUP2 MSTORE PUSH1 0xE PUSH1 0x20 MSTORE PUSH1 0x40 SWAP1 KECCAK256 SWAP2 DUP3 ADD SLOAD AND ISZERO DUP1 ISZERO SWAP1 PUSH2 0x3868 JUMPI DUP4 SLOAD CALLER PUSH1 0x0 SWAP1 DUP2 MSTORE PUSH1 0x7 PUSH1 0x20 MSTORE PUSH1 0x40 SWAP1 KECCAK256 PUSH2 0x3862 SWAP2 PUSH2 0x345F JUMP JUMPDEST POP PUSH2 0x3884 JUMP JUMPDEST DUP4 SLOAD CALLER PUSH1 0x0 SWAP1 DUP2 MSTORE PUSH1 0x8 PUSH1 0x20 MSTORE PUSH1 0x40 SWAP1 KECCAK256 PUSH2 0x3882 SWAP2 PUSH2 0x345F JUMP JUMPDEST POP JUMPDEST PUSH1 0x3 DUP5 ADD SLOAD PUSH1 0x2 DUP4 ADD SLOAD DUP2 LT PUSH2 0x38A0 JUMPI PUSH1 0x0 PUSH1 0x2 DUP5 ADD SSTORE PUSH2 0x38B6 JUMP JUMPDEST DUP1 DUP4 PUSH1 0x2 ADD SLOAD PUSH2 0x38B0 SWAP2 SWAP1 PUSH2 0x5B8E JUMP JUMPDEST PUSH1 0x2 DUP5 ADD SSTORE JUMPDEST DUP3 PUSH1 0x2 ADD SLOAD PUSH1 0x0 SUB PUSH2 0x3904 JUMPI DUP2 ISZERO PUSH2 0x38E8 JUMPI PUSH1 0x1 DUP6 ADD SLOAD PUSH2 0x38E2 SWAP1 PUSH1 0xA SWAP1 PUSH1 0x1 PUSH1 0x1 PUSH1 0xA0 SHL SUB AND PUSH2 0x455D JUMP JUMPDEST POP PUSH2 0x3904 JUMP JUMPDEST PUSH1 0x1 DUP6 ADD SLOAD PUSH2 0x3902 SWAP1 PUSH1 0xC SWAP1 PUSH1 0x1 PUSH1 0x1 PUSH1 0xA0 SHL SUB AND PUSH2 0x455D JUMP JUMPDEST POP JUMPDEST PUSH1 0x9 DUP6 ADD DUP2 SWAP1 SSTORE DUP5 SLOAD PUSH1 0x1 DUP7 ADD SLOAD PUSH1 0x1 PUSH1 0x1 PUSH1 0xA0 SHL SUB AND PUSH1 0x0 SWAP1 DUP2 MSTORE PUSH1 0xF PUSH1 0x20 MSTORE PUSH1 0x40 SWAP1 KECCAK256 PUSH2 0x3932 SWAP2 PUSH2 0x345F JUMP JUMPDEST POP PUSH1 0x1 DUP6 ADD SLOAD PUSH2 0x394C SWAP1 PUSH1 0x1 PUSH1 0x1 PUSH1 0xA0 SHL SUB AND CALLER DUP4 PUSH2 0x4572 JUMP JUMPDEST DUP5 SLOAD PUSH1 0x1 DUP7 ADD SLOAD PUSH1 0x40 MLOAD PUSH32 0xC6532367992B32E42A62DD89FC3574876D97D081A263AA6E030F34B79B7E6E8B SWAP2 PUSH2 0x1B24 SWAP2 PUSH1 0x1 PUSH1 0x1 PUSH1 0xA0 SHL SUB SWAP1 SWAP2 AND SWAP1 CALLER SWAP1 DUP7 SWAP1 DUP11 SWAP1 PUSH2 0x5971 JUMP JUMPDEST PUSH1 0x0 DUP1 SLOAD PUSH1 0x1 PUSH1 0x1 PUSH1 0xA0 SHL SUB DUP4 DUP2 AND PUSH2 0x100 DUP2 DUP2 MUL PUSH2 0x100 PUSH1 0x1 PUSH1 0xA8 SHL SUB NOT DUP6 AND OR DUP6 SSTORE PUSH1 0x40 MLOAD SWAP4 DIV SWAP2 SWAP1 SWAP2 AND SWAP3 SWAP1 SWAP2 DUP4 SWAP2 PUSH32 0x8BE0079C531659141344CD1FD0A4F28419497F9722A3DAAFE3B4186F6B6457E0 SWAP2 LOG3 POP POP JUMP JUMPDEST PUSH1 0x0 DUP3 PUSH1 0x40 ADD MLOAD PUSH1 0x0 SUB PUSH2 0x3A02 JUMPI POP PUSH1 0x0 PUSH2 0xCEF JUMP JUMPDEST DUP3 PUSH1 0x40 ADD MLOAD DUP4 PUSH2 0x100 ADD MLOAD LT PUSH2 0x3A1A JUMPI POP PUSH1 0x0 PUSH2 0xCEF JUMP JUMPDEST DUP3 PUSH1 0x80 ADD MLOAD DUP3 LT ISZERO PUSH2 0x3A2E JUMPI POP PUSH1 0x0 PUSH2 0xCEF JUMP JUMPDEST DUP3 PUSH1 0xC0 ADD MLOAD PUSH1 0x0 SUB PUSH2 0x3A42 JUMPI POP PUSH1 0x0 PUSH2 0xCEF JUMP JUMPDEST PUSH1 0x0 PUSH2 0x2710 DUP5 PUSH1 0xA0 ADD MLOAD DUP6 PUSH1 0x40 ADD MLOAD PUSH2 0x3A5B SWAP2 SWAP1 PUSH2 0x5E32 JUMP JUMPDEST PUSH2 0x3A65 SWAP2 SWAP1 PUSH2 0x5E51 JUMP JUMPDEST SWAP1 POP PUSH1 0x0 PUSH2 0x3A7E DUP6 PUSH1 0x40 ADD MLOAD DUP7 PUSH1 0xE0 ADD MLOAD PUSH2 0x2710 PUSH2 0x4596 JUMP JUMPDEST SWAP1 POP PUSH1 0x0 DUP6 PUSH1 0x80 ADD MLOAD DUP6 LT PUSH2 0x3AC5 JUMPI DUP3 DUP3 DUP8 PUSH1 0xC0 ADD MLOAD DUP9 PUSH1 0x80 ADD MLOAD DUP9 PUSH2 0x3AA4 SWAP2 SWAP1 PUSH2 0x5B8E JUMP JUMPDEST PUSH2 0x3AAE SWAP2 SWAP1 PUSH2 0x5E51 JUMP JUMPDEST PUSH2 0x3AB8 SWAP2 SWAP1 PUSH2 0x5E32 JUMP JUMPDEST PUSH2 0x3AC2 SWAP2 SWAP1 PUSH2 0x4FF6 JUMP JUMPDEST SWAP1 POP JUMPDEST PUSH1 0x0 DUP7 PUSH1 0x40 ADD MLOAD DUP3 GT ISZERO PUSH2 0x3AEF JUMPI DUP7 PUSH2 0x100 ADD MLOAD DUP8 PUSH1 0x40 ADD MLOAD PUSH2 0x3AE8 SWAP2 SWAP1 PUSH2 0x5B8E JUMP JUMPDEST SWAP1 POP PUSH2 0x3B02 JUMP JUMPDEST PUSH2 0x100 DUP8 ADD MLOAD PUSH2 0x3AFF SWAP1 DUP4 PUSH2 0x5B8E JUMP JUMPDEST SWAP1 POP JUMPDEST SWAP7 SWAP6 POP POP POP POP POP POP JUMP JUMPDEST PUSH1 0x0 DUP3 PUSH1 0x60 ADD MLOAD PUSH1 0x0 SUB PUSH2 0x3B22 JUMPI POP PUSH1 0x0 PUSH2 0xCEF JUMP JUMPDEST DUP3 PUSH1 0x60 ADD MLOAD DUP4 PUSH2 0x120 ADD MLOAD LT PUSH2 0x3B3A JUMPI POP PUSH1 0x0 PUSH2 0xCEF JUMP JUMPDEST DUP3 PUSH1 0xA0 ADD MLOAD DUP3 LT ISZERO PUSH2 0x3B4E JUMPI POP PUSH1 0x0 PUSH2 0xCEF JUMP JUMPDEST DUP3 PUSH1 0xE0 ADD MLOAD PUSH1 0x0 SUB PUSH2 0x3B62 JUMPI POP PUSH1 0x0 PUSH2 0xCEF JUMP JUMPDEST PUSH1 0x0 PUSH2 0x2710 DUP5 PUSH1 0xC0 ADD MLOAD DUP6 PUSH1 0x60 ADD MLOAD PUSH2 0x3B7B SWAP2 SWAP1 PUSH2 0x5E32 JUMP JUMPDEST PUSH2 0x3B85 SWAP2 SWAP1 PUSH2 0x5E51 JUMP JUMPDEST SWAP1 POP PUSH1 0x0 PUSH2 0x3B9F DUP6 PUSH1 0x60 ADD MLOAD DUP7 PUSH2 0x100 ADD MLOAD PUSH2 0x2710 PUSH2 0x4596 JUMP JUMPDEST SWAP1 POP PUSH1 0x0 DUP6 PUSH1 0xA0 ADD MLOAD DUP6 LT PUSH2 0x3BE6 JUMPI DUP3 DUP3 DUP8 PUSH1 0xE0 ADD MLOAD DUP9 PUSH1 0xA0 ADD MLOAD DUP9 PUSH2 0x3BC5 SWAP2 SWAP1 PUSH2 0x5B8E JUMP JUMPDEST PUSH2 0x3BCF SWAP2 SWAP1 PUSH2 0x5E51 JUMP JUMPDEST PUSH2 0x3BD9 SWAP2 SWAP1 PUSH2 0x5E32 JUMP JUMPDEST PUSH2 0x3BE3 SWAP2 SWAP1 PUSH2 0x4FF6 JUMP JUMPDEST SWAP1 POP JUMPDEST PUSH1 0x0 DUP7 PUSH1 0x60 ADD MLOAD DUP3 GT ISZERO PUSH2 0x3C09 JUMPI DUP7 PUSH2 0x120 ADD MLOAD DUP8 PUSH1 0x60 ADD MLOAD PUSH2 0x3AE8 SWAP2 SWAP1 PUSH2 0x5B8E JUMP JUMPDEST PUSH2 0x120 DUP8 ADD MLOAD PUSH2 0x3AFF SWAP1 DUP4 PUSH2 0x5B8E JUMP JUMPDEST PUSH1 0x40 DUP1 MLOAD PUSH2 0x140 DUP2 ADD DUP3 MSTORE DUP4 SLOAD DUP2 MSTORE PUSH1 0x1 DUP5 ADD SLOAD PUSH1 0x1 PUSH1 0x1 PUSH1 0xA0 SHL SUB AND PUSH1 0x20 DUP3 ADD MSTORE PUSH1 0x2 DUP5 ADD SLOAD SWAP2 DUP2 ADD SWAP2 SWAP1 SWAP2 MSTORE PUSH1 0x3 DUP4 ADD SLOAD PUSH1 0x60 DUP3 ADD MSTORE PUSH1 0x4 DUP4 ADD SLOAD PUSH1 0x80 DUP3 ADD MSTORE PUSH1 0x5 DUP4 ADD SLOAD PUSH1 0xA0 DUP3 ADD MSTORE PUSH1 0x6 DUP4 ADD SLOAD PUSH1 0xC0 DUP3 ADD MSTORE PUSH1 0x7 DUP4 ADD SLOAD PUSH1 0xE0 DUP3 ADD MSTORE PUSH1 0x8 DUP4 ADD SLOAD PUSH2 0x100 DUP3 ADD MSTORE PUSH1 0x9 DUP4 ADD DUP1 SLOAD PUSH1 0x0 SWAP3 PUSH2 0x3D2C SWAP3 SWAP1 SWAP2 DUP7 SWAP2 PUSH2 0x120 DUP5 ADD SWAP2 PUSH2 0x3CA4 SWAP1 PUSH2 0x59B0 JUMP JUMPDEST DUP1 PUSH1 0x1F ADD PUSH1 0x20 DUP1 SWAP2 DIV MUL PUSH1 0x20 ADD PUSH1 0x40 MLOAD SWAP1 DUP2 ADD PUSH1 0x40 MSTORE DUP1 SWAP3 SWAP2 SWAP1 DUP2 DUP2 MSTORE PUSH1 0x20 ADD DUP3 DUP1 SLOAD PUSH2 0x3CD0 SWAP1 PUSH2 0x59B0 JUMP JUMPDEST DUP1 ISZERO PUSH2 0x3D1D JUMPI DUP1 PUSH1 0x1F LT PUSH2 0x3CF2 JUMPI PUSH2 0x100 DUP1 DUP4 SLOAD DIV MUL DUP4 MSTORE SWAP2 PUSH1 0x20 ADD SWAP2 PUSH2 0x3D1D JUMP JUMPDEST DUP3 ADD SWAP2 SWAP1 PUSH1 0x0 MSTORE PUSH1 0x20 PUSH1 0x0 KECCAK256 SWAP1 JUMPDEST DUP2 SLOAD DUP2 MSTORE SWAP1 PUSH1 0x1 ADD SWAP1 PUSH1 0x20 ADD DUP1 DUP4 GT PUSH2 0x3D00 JUMPI DUP3 SWAP1 SUB PUSH1 0x1F AND DUP3 ADD SWAP2 JUMPDEST POP POP POP POP POP DUP2 MSTORE POP POP DUP4 PUSH2 0x39EC JUMP JUMPDEST SWAP1 POP PUSH1 0x0 DUP2 DUP5 PUSH1 0x8 ADD SLOAD PUSH2 0x3D40 SWAP2 SWAP1 PUSH2 0x4FF6 JUMP JUMPDEST SWAP1 POP PUSH1 0x0 DUP3 GT DUP1 ISZERO PUSH2 0x3D56 JUMPI POP DUP4 PUSH1 0x2 ADD SLOAD DUP2 GT ISZERO JUMPDEST PUSH2 0x3D72 JUMPI PUSH1 0x40 MLOAD PUSH3 0x461BCD PUSH1 0xE5 SHL DUP2 MSTORE PUSH1 0x4 ADD PUSH2 0xB41 SWAP1 PUSH2 0x5C13 JUMP JUMPDEST DUP4 PUSH1 0x2 ADD SLOAD DUP2 SUB PUSH2 0x3DFD JUMPI DUP4 SLOAD CALLER PUSH1 0x0 SWAP1 DUP2 MSTORE PUSH1 0x9 PUSH1 0x20 MSTORE PUSH1 0x40 SWAP1 KECCAK256 PUSH2 0x3D97 SWAP2 PUSH2 0x345F JUMP JUMPDEST POP PUSH2 0x3DAE DUP5 PUSH1 0x0 ADD SLOAD PUSH1 0x10 PUSH1 0x40 MLOAD PUSH2 0x1A40 SWAP1 PUSH2 0x5A24 JUMP JUMPDEST POP DUP4 SLOAD PUSH1 0x1 DUP6 ADD SLOAD PUSH1 0x40 MLOAD PUSH32 0x8AF7B343AC14FF86EA14BC075FC0E761855633F85E24D12FF785B0673A228795 SWAP2 PUSH2 0x3DF4 SWAP2 PUSH1 0x1 PUSH1 0x1 PUSH1 0xA0 SHL SUB SWAP1 SWAP2 AND SWAP1 DUP6 SWAP1 TIMESTAMP SWAP1 PUSH2 0x5C3E JUMP JUMPDEST PUSH1 0x40 MLOAD DUP1 SWAP2 SUB SWAP1 LOG2 JUMPDEST PUSH1 0x8 DUP5 ADD DUP2 SWAP1 SSTORE PUSH1 0x1 DUP5 ADD SLOAD PUSH1 0x40 MLOAD PUSH1 0x0 SWAP2 PUSH1 0x1 PUSH1 0x1 PUSH1 0xA0 SHL SUB AND SWAP1 DUP5 SWAP1 DUP4 DUP2 DUP2 DUP2 DUP6 DUP8 GAS CALL SWAP3 POP POP POP RETURNDATASIZE DUP1 PUSH1 0x0 DUP2 EQ PUSH2 0x3E53 JUMPI PUSH1 0x40 MLOAD SWAP2 POP PUSH1 0x1F NOT PUSH1 0x3F RETURNDATASIZE ADD AND DUP3 ADD PUSH1 0x40 MSTORE RETURNDATASIZE DUP3 MSTORE RETURNDATASIZE PUSH1 0x0 PUSH1 0x20 DUP5 ADD RETURNDATACOPY PUSH2 0x3E58 JUMP JUMPDEST PUSH1 0x60 SWAP2 POP JUMPDEST POP POP SWAP1 POP DUP1 PUSH2 0x3E66 JUMPI PUSH1 0x0 DUP1 REVERT JUMPDEST DUP5 SLOAD PUSH1 0x2 DUP7 ADD SLOAD PUSH1 0x40 DUP1 MLOAD CALLER DUP2 MSTORE PUSH1 0x20 DUP2 ADD DUP8 SWAP1 MSTORE SWAP1 DUP2 ADD SWAP2 SWAP1 SWAP2 MSTORE TIMESTAMP PUSH1 0x60 DUP3 ADD MSTORE PUSH32 0x424477C0327DE1B72FFA5652AA7EE249AA1216CC8F54B62A11FBD96D44AC68AA SWAP1 PUSH1 0x80 ADD PUSH2 0x1B24 JUMP JUMPDEST PUSH1 0x60 PUSH1 0x0 PUSH2 0x3EC0 DUP9 DUP9 PUSH2 0x4644 JUMP JUMPDEST SWAP1 POP DUP9 PUSH1 0x0 DUP2 PUSH1 0x1 PUSH1 0x1 PUSH1 0x40 SHL SUB DUP2 GT ISZERO PUSH2 0x3EDD JUMPI PUSH2 0x3EDD PUSH2 0x5047 JUMP JUMPDEST PUSH1 0x40 MLOAD SWAP1 DUP1 DUP3 MSTORE DUP1 PUSH1 0x20 MUL PUSH1 0x20 ADD DUP3 ADD PUSH1 0x40 MSTORE DUP1 ISZERO PUSH2 0x3F06 JUMPI DUP2 PUSH1 0x20 ADD PUSH1 0x20 DUP3 MUL DUP1 CALLDATASIZE DUP4 CALLDATACOPY ADD SWAP1 POP JUMPDEST POP SWAP1 POP PUSH1 0x0 JUMPDEST DUP3 DUP2 LT ISZERO PUSH2 0x4054 JUMPI PUSH2 0x3F8A DUP14 DUP14 DUP4 DUP2 DUP2 LT PUSH2 0x3F29 JUMPI PUSH2 0x3F29 PUSH2 0x599A JUMP JUMPDEST SWAP1 POP PUSH1 0x20 MUL ADD PUSH1 0x20 DUP2 ADD SWAP1 PUSH2 0x3F3E SWAP2 SWAP1 PUSH2 0x516F JUMP JUMPDEST DUP11 DUP11 DUP15 DUP15 DUP7 DUP2 DUP2 LT PUSH2 0x3F52 JUMPI PUSH2 0x3F52 PUSH2 0x599A JUMP JUMPDEST SWAP1 POP PUSH1 0x20 MUL ADD CALLDATALOAD DUP12 PUSH1 0x0 PUSH1 0x4 DUP2 LT PUSH2 0x3F6C JUMPI PUSH2 0x3F6C PUSH2 0x599A JUMP JUMPDEST PUSH1 0x20 SWAP1 DUP2 MUL SWAP2 SWAP1 SWAP2 ADD MLOAD SWAP1 DUP14 ADD MLOAD PUSH1 0x40 DUP15 ADD MLOAD PUSH1 0x60 DUP16 ADD MLOAD DUP15 PUSH2 0x319D JUMP JUMPDEST DUP3 DUP3 DUP2 MLOAD DUP2 LT PUSH2 0x3F9C JUMPI PUSH2 0x3F9C PUSH2 0x599A JUMP JUMPDEST PUSH1 0x20 MUL PUSH1 0x20 ADD ADD DUP2 DUP2 MSTORE POP POP DUP2 DUP2 DUP2 MLOAD DUP2 LT PUSH2 0x3FBA JUMPI PUSH2 0x3FBA PUSH2 0x599A JUMP JUMPDEST PUSH1 0x20 MUL PUSH1 0x20 ADD ADD MLOAD PUSH1 0x0 DUP1 MLOAD PUSH1 0x20 PUSH2 0x5EB9 DUP4 CODECOPY DUP2 MLOAD SWAP2 MSTORE DUP11 DUP16 DUP16 DUP6 DUP2 DUP2 LT PUSH2 0x3FE4 JUMPI PUSH2 0x3FE4 PUSH2 0x599A JUMP JUMPDEST SWAP1 POP PUSH1 0x20 MUL ADD PUSH1 0x20 DUP2 ADD SWAP1 PUSH2 0x3FF9 SWAP2 SWAP1 PUSH2 0x516F JUMP JUMPDEST DUP15 DUP15 DUP7 DUP2 DUP2 LT PUSH2 0x400B JUMPI PUSH2 0x400B PUSH2 0x599A JUMP JUMPDEST SWAP1 POP PUSH1 0x20 MUL ADD CALLDATALOAD DUP12 PUSH1 0x0 PUSH1 0x4 DUP2 LT PUSH2 0x4025 JUMPI PUSH2 0x4025 PUSH2 0x599A JUMP JUMPDEST PUSH1 0x20 MUL ADD MLOAD PUSH1 0x40 MLOAD PUSH2 0x403A SWAP5 SWAP4 SWAP3 SWAP2 SWAP1 PUSH2 0x5971 JUMP JUMPDEST PUSH1 0x40 MLOAD DUP1 SWAP2 SUB SWAP1 LOG2 DUP1 PUSH2 0x404C DUP2 PUSH2 0x5A0B JUMP JUMPDEST SWAP2 POP POP PUSH2 0x3F0C JUMP JUMPDEST POP PUSH2 0x4061 DUP9 CALLER ADDRESS DUP7 PUSH2 0x31E9 JUMP JUMPDEST SWAP12 SWAP11 POP POP POP POP POP POP POP POP POP POP POP JUMP JUMPDEST PUSH1 0x0 PUSH2 0x4081 DUP9 DUP9 DUP9 DUP9 DUP9 DUP9 DUP9 PUSH2 0x46E7 JUMP JUMPDEST PUSH1 0x1 PUSH1 0x1 PUSH1 0xA0 SHL SUB DUP10 AND PUSH1 0x0 SWAP1 DUP2 MSTORE PUSH1 0x9 PUSH1 0x20 MSTORE PUSH1 0x40 SWAP1 KECCAK256 SWAP1 SWAP2 POP PUSH2 0x40A6 SWAP1 DUP3 PUSH2 0x346B JUMP JUMPDEST POP PUSH2 0x40CE DUP2 PUSH1 0x10 PUSH1 0x40 MLOAD PUSH2 0x40B9 SWAP1 PUSH2 0x5A24 JUMP JUMPDEST SWAP1 DUP2 MSTORE PUSH1 0x40 MLOAD SWAP1 DUP2 SWAP1 SUB PUSH1 0x20 ADD SWAP1 KECCAK256 SWAP1 PUSH2 0x346B JUMP JUMPDEST POP SWAP8 SWAP7 POP POP POP POP POP POP POP JUMP JUMPDEST PUSH1 0x0 DUP1 DUP3 PUSH1 0x1 PUSH1 0x1 PUSH1 0xA0 SHL SUB AND PUSH4 0xC45A0155 PUSH1 0x40 MLOAD DUP2 PUSH4 0xFFFFFFFF AND PUSH1 0xE0 SHL DUP2 MSTORE PUSH1 0x4 ADD PUSH1 0x20 PUSH1 0x40 MLOAD DUP1 DUP4 SUB DUP2 DUP7 GAS STATICCALL SWAP3 POP POP POP DUP1 ISZERO PUSH2 0x4137 JUMPI POP PUSH1 0x40 DUP1 MLOAD PUSH1 0x1F RETURNDATASIZE SWAP1 DUP2 ADD PUSH1 0x1F NOT AND DUP3 ADD SWAP1 SWAP3 MSTORE PUSH2 0x4134 SWAP2 DUP2 ADD SWAP1 PUSH2 0x5BA5 JUMP JUMPDEST PUSH1 0x1 JUMPDEST PUSH2 0x4183 JUMPI PUSH1 0x40 MLOAD PUSH3 0x461BCD PUSH1 0xE5 SHL DUP2 MSTORE PUSH1 0x20 PUSH1 0x4 DUP3 ADD MSTORE PUSH1 0x1C PUSH1 0x24 DUP3 ADD MSTORE PUSH32 0x5468697320746F6B656E206973206E6F742061204C5020746F6B656E00000000 PUSH1 0x44 DUP3 ADD MSTORE PUSH1 0x64 ADD PUSH2 0xB41 JUMP JUMPDEST SWAP1 POP PUSH1 0x1 PUSH1 0x1 PUSH1 0xA0 SHL SUB DUP2 AND ISZERO DUP1 ISZERO SWAP1 PUSH2 0x41A2 JUMPI POP PUSH2 0x41A2 DUP4 DUP3 PUSH2 0x4924 JUMP JUMPDEST PUSH2 0xCEF JUMPI PUSH1 0x40 MLOAD PUSH3 0x461BCD PUSH1 0xE5 SHL DUP2 MSTORE PUSH1 0x20 PUSH1 0x4 DUP3 ADD MSTORE PUSH1 0x1D PUSH1 0x24 DUP3 ADD MSTORE PUSH32 0x5468697320746F6B656E206973206E6F742061204C5020746F6B656E2E000000 PUSH1 0x44 DUP3 ADD MSTORE PUSH1 0x64 ADD PUSH2 0xB41 JUMP JUMPDEST PUSH1 0x0 PUSH2 0x4200 DUP11 DUP11 DUP10 DUP10 DUP10 DUP10 DUP10 DUP10 PUSH2 0x4A87 JUMP JUMPDEST PUSH1 0x1 PUSH1 0x1 PUSH1 0xA0 SHL SUB DUP12 AND PUSH1 0x0 SWAP1 DUP2 MSTORE PUSH1 0x7 PUSH1 0x20 MSTORE PUSH1 0x40 SWAP1 KECCAK256 SWAP1 SWAP2 POP PUSH2 0x4225 SWAP1 DUP3 PUSH2 0x346B JUMP JUMPDEST POP PUSH2 0x4231 PUSH1 0xA DUP11 PUSH2 0x4C0C JUMP JUMPDEST POP PUSH1 0x1 PUSH1 0x1 PUSH1 0xA0 SHL SUB DUP1 DUP11 AND PUSH1 0x0 SWAP1 DUP2 MSTORE PUSH1 0xE PUSH1 0x20 MSTORE PUSH1 0x40 SWAP1 KECCAK256 DUP1 SLOAD SWAP1 SWAP2 AND PUSH2 0x4281 JUMPI DUP1 SLOAD PUSH1 0x1 PUSH1 0x1 PUSH1 0xA0 SHL SUB DUP1 DUP13 AND PUSH1 0x1 PUSH1 0x1 PUSH1 0xA0 SHL SUB NOT SWAP3 DUP4 AND OR DUP4 SSTORE PUSH1 0x1 DUP4 ADD DUP1 SLOAD SWAP2 DUP13 AND SWAP2 SWAP1 SWAP3 AND OR SWAP1 SSTORE JUMPDEST DUP8 DUP2 PUSH1 0x2 ADD SLOAD PUSH2 0x4291 SWAP2 SWAP1 PUSH2 0x4FF6 JUMP JUMPDEST PUSH1 0x2 DUP3 ADD SSTORE PUSH1 0x1 PUSH1 0x1 PUSH1 0xA0 SHL SUB DUP11 AND PUSH1 0x0 SWAP1 DUP2 MSTORE PUSH1 0xF PUSH1 0x20 MSTORE PUSH1 0x40 SWAP1 KECCAK256 PUSH2 0x42B8 SWAP1 DUP4 PUSH2 0x346B JUMP JUMPDEST POP POP SWAP10 SWAP9 POP POP POP POP POP POP POP POP POP JUMP JUMPDEST PUSH1 0x0 PUSH2 0x42D9 DUP10 DUP10 DUP10 DUP10 DUP10 DUP10 DUP10 DUP10 PUSH2 0x4A87 JUMP JUMPDEST PUSH1 0x1 PUSH1 0x1 PUSH1 0xA0 SHL SUB DUP11 AND PUSH1 0x0 SWAP1 DUP2 MSTORE PUSH1 0x8 PUSH1 0x20 MSTORE PUSH1 0x40 SWAP1 KECCAK256 SWAP1 SWAP2 POP PUSH2 0x42FE SWAP1 DUP3 PUSH2 0x346B JUMP JUMPDEST POP PUSH2 0x430A PUSH1 0xC DUP10 PUSH2 0x4C0C JUMP JUMPDEST POP PUSH1 0x1 PUSH1 0x1 PUSH1 0xA0 SHL SUB DUP1 DUP10 AND PUSH1 0x0 SWAP1 DUP2 MSTORE PUSH1 0xE PUSH1 0x20 MSTORE PUSH1 0x40 SWAP1 KECCAK256 DUP1 SLOAD SWAP1 SWAP2 AND PUSH2 0x4354 JUMPI DUP1 SLOAD PUSH1 0x1 PUSH1 0x1 PUSH1 0xA0 SHL SUB DUP11 AND PUSH1 0x1 PUSH1 0x1 PUSH1 0xA0 SHL SUB NOT SWAP2 DUP3 AND OR DUP3 SSTORE PUSH1 0x1 DUP3 ADD DUP1 SLOAD SWAP1 SWAP2 AND SWAP1 SSTORE JUMPDEST DUP8 DUP2 PUSH1 0x2 ADD SLOAD PUSH2 0x4364 SWAP2 SWAP1 PUSH2 0x4FF6 JUMP JUMPDEST PUSH1 0x2 DUP3 ADD SSTORE PUSH1 0x1 PUSH1 0x1 PUSH1 0xA0 SHL SUB DUP10 AND PUSH1 0x0 SWAP1 DUP2 MSTORE PUSH1 0xF PUSH1 0x20 MSTORE PUSH1 0x40 SWAP1 KECCAK256 PUSH2 0x438B SWAP1 DUP4 PUSH2 0x346B JUMP JUMPDEST POP POP SWAP9 SWAP8 POP POP POP POP POP POP POP POP JUMP JUMPDEST PUSH2 0x1780 DUP5 PUSH4 0x23B872DD PUSH1 0xE0 SHL DUP6 DUP6 DUP6 PUSH1 0x40 MLOAD PUSH1 0x24 ADD PUSH2 0x43BA SWAP4 SWAP3 SWAP2 SWAP1 PUSH2 0x57AA JUMP JUMPDEST PUSH1 0x40 DUP1 MLOAD PUSH1 0x1F NOT DUP2 DUP5 SUB ADD DUP2 MSTORE SWAP2 SWAP1 MSTORE PUSH1 0x20 DUP2 ADD DUP1 MLOAD PUSH1 0x1 PUSH1 0x1 PUSH1 0xE0 SHL SUB AND PUSH1 0x1 PUSH1 0x1 PUSH1 0xE0 SHL SUB NOT SWAP1 SWAP4 AND SWAP3 SWAP1 SWAP3 OR SWAP1 SWAP2 MSTORE PUSH2 0x4C21 JUMP JUMPDEST PUSH1 0x0 DUP3 PUSH1 0x0 ADD DUP3 DUP2 SLOAD DUP2 LT PUSH2 0x4408 JUMPI PUSH2 0x4408 PUSH2 0x599A JUMP JUMPDEST SWAP1 PUSH1 0x0 MSTORE PUSH1 0x20 PUSH1 0x0 KECCAK256 ADD SLOAD SWAP1 POP SWAP3 SWAP2 POP POP JUMP JUMPDEST PUSH1 0x0 DUP2 DUP2 MSTORE PUSH1 0x1 DUP4 ADD PUSH1 0x20 MSTORE PUSH1 0x40 DUP2 KECCAK256 SLOAD DUP1 ISZERO PUSH2 0x4504 JUMPI PUSH1 0x0 PUSH2 0x443F PUSH1 0x1 DUP4 PUSH2 0x5B8E JUMP JUMPDEST DUP6 SLOAD SWAP1 SWAP2 POP PUSH1 0x0 SWAP1 PUSH2 0x4453 SWAP1 PUSH1 0x1 SWAP1 PUSH2 0x5B8E JUMP JUMPDEST SWAP1 POP DUP2 DUP2 EQ PUSH2 0x44B8 JUMPI PUSH1 0x0 DUP7 PUSH1 0x0 ADD DUP3 DUP2 SLOAD DUP2 LT PUSH2 0x4473 JUMPI PUSH2 0x4473 PUSH2 0x599A JUMP JUMPDEST SWAP1 PUSH1 0x0 MSTORE PUSH1 0x20 PUSH1 0x0 KECCAK256 ADD SLOAD SWAP1 POP DUP1 DUP8 PUSH1 0x0 ADD DUP5 DUP2 SLOAD DUP2 LT PUSH2 0x4496 JUMPI PUSH2 0x4496 PUSH2 0x599A JUMP JUMPDEST PUSH1 0x0 SWAP2 DUP3 MSTORE PUSH1 0x20 DUP1 DUP4 KECCAK256 SWAP1 SWAP2 ADD SWAP3 SWAP1 SWAP3 SSTORE SWAP2 DUP3 MSTORE PUSH1 0x1 DUP9 ADD SWAP1 MSTORE PUSH1 0x40 SWAP1 KECCAK256 DUP4 SWAP1 SSTORE JUMPDEST DUP6 SLOAD DUP7 SWAP1 DUP1 PUSH2 0x44C9 JUMPI PUSH2 0x44C9 PUSH2 0x5E73 JUMP JUMPDEST PUSH1 0x1 SWAP1 SUB DUP2 DUP2 SWAP1 PUSH1 0x0 MSTORE PUSH1 0x20 PUSH1 0x0 KECCAK256 ADD PUSH1 0x0 SWAP1 SSTORE SWAP1 SSTORE DUP6 PUSH1 0x1 ADD PUSH1 0x0 DUP7 DUP2 MSTORE PUSH1 0x20 ADD SWAP1 DUP2 MSTORE PUSH1 0x20 ADD PUSH1 0x0 KECCAK256 PUSH1 0x0 SWAP1 SSTORE PUSH1 0x1 SWAP4 POP POP POP POP PUSH2 0xCEF JUMP JUMPDEST PUSH1 0x0 SWAP2 POP POP PUSH2 0xCEF JUMP JUMPDEST PUSH1 0x0 DUP2 DUP2 MSTORE PUSH1 0x1 DUP4 ADD PUSH1 0x20 MSTORE PUSH1 0x40 DUP2 KECCAK256 SLOAD PUSH2 0x4555 JUMPI POP DUP2 SLOAD PUSH1 0x1 DUP2 DUP2 ADD DUP5 SSTORE PUSH1 0x0 DUP5 DUP2 MSTORE PUSH1 0x20 DUP1 DUP3 KECCAK256 SWAP1 SWAP4 ADD DUP5 SWAP1 SSTORE DUP5 SLOAD DUP5 DUP3 MSTORE DUP3 DUP7 ADD SWAP1 SWAP4 MSTORE PUSH1 0x40 SWAP1 KECCAK256 SWAP2 SWAP1 SWAP2 SSTORE PUSH2 0xCEF JUMP JUMPDEST POP PUSH1 0x0 PUSH2 0xCEF JUMP JUMPDEST PUSH1 0x0 PUSH2 0xEB7 DUP4 PUSH1 0x1 PUSH1 0x1 PUSH1 0xA0 SHL SUB DUP5 AND PUSH2 0x441B JUMP JUMPDEST PUSH2 0x4591 DUP4 PUSH4 0xA9059CBB PUSH1 0xE0 SHL DUP5 DUP5 PUSH1 0x40 MLOAD PUSH1 0x24 ADD PUSH2 0x43BA SWAP3 SWAP2 SWAP1 PUSH2 0x5C78 JUMP JUMPDEST POP POP POP JUMP JUMPDEST PUSH1 0x0 DUP1 DUP1 PUSH1 0x0 NOT DUP6 DUP8 MULMOD DUP6 DUP8 MUL SWAP3 POP DUP3 DUP2 LT DUP4 DUP3 SUB SUB SWAP2 POP POP DUP1 PUSH1 0x0 SUB PUSH2 0x45CF JUMPI PUSH1 0x0 DUP5 GT PUSH2 0x45C4 JUMPI PUSH1 0x0 DUP1 REVERT JUMPDEST POP DUP3 SWAP1 DIV SWAP1 POP PUSH2 0xEB7 JUMP JUMPDEST DUP1 DUP5 GT PUSH2 0x45DB JUMPI PUSH1 0x0 DUP1 REVERT JUMPDEST PUSH1 0x0 DUP5 DUP7 DUP9 MULMOD PUSH1 0x2 PUSH1 0x1 DUP8 NOT DUP2 ADD DUP9 AND SWAP8 DUP9 SWAP1 DIV PUSH1 0x3 DUP2 MUL DUP4 XOR DUP1 DUP3 MUL DUP5 SUB MUL DUP1 DUP3 MUL DUP5 SUB MUL DUP1 DUP3 MUL DUP5 SUB MUL DUP1 DUP3 MUL DUP5 SUB MUL DUP1 DUP3 MUL DUP5 SUB MUL SWAP1 DUP2 MUL SWAP1 SWAP3 SUB SWAP1 SWAP2 MUL PUSH1 0x0 DUP9 SWAP1 SUB DUP9 SWAP1 DIV SWAP1 SWAP2 ADD DUP6 DUP4 GT SWAP1 SWAP5 SUB SWAP4 SWAP1 SWAP4 MUL SWAP4 SUB SWAP5 SWAP1 SWAP5 DIV SWAP2 SWAP1 SWAP2 OR MUL SWAP5 SWAP4 POP POP POP POP JUMP JUMPDEST PUSH1 0x0 DUP1 DUP1 JUMPDEST DUP4 DUP2 LT ISZERO PUSH2 0xF9C JUMPI DUP5 DUP5 DUP3 DUP2 DUP2 LT PUSH2 0x4663 JUMPI PUSH2 0x4663 PUSH2 0x599A JUMP JUMPDEST SWAP1 POP PUSH1 0x20 MUL ADD CALLDATALOAD PUSH1 0x0 SUB PUSH2 0x46AF JUMPI PUSH1 0x40 MLOAD PUSH3 0x461BCD PUSH1 0xE5 SHL DUP2 MSTORE PUSH1 0x20 PUSH1 0x4 DUP3 ADD MSTORE PUSH1 0x13 PUSH1 0x24 DUP3 ADD MSTORE PUSH19 0x416D6F756E742063616E74206265207A65726F PUSH1 0x68 SHL PUSH1 0x44 DUP3 ADD MSTORE PUSH1 0x64 ADD PUSH2 0xB41 JUMP JUMPDEST DUP5 DUP5 DUP3 DUP2 DUP2 LT PUSH2 0x46C1 JUMPI PUSH2 0x46C1 PUSH2 0x599A JUMP JUMPDEST SWAP1 POP PUSH1 0x20 MUL ADD CALLDATALOAD DUP3 PUSH2 0x46D3 SWAP2 SWAP1 PUSH2 0x4FF6 JUMP JUMPDEST SWAP2 POP DUP1 PUSH2 0x46DF DUP2 PUSH2 0x5A0B JUMP JUMPDEST SWAP2 POP POP PUSH2 0x4649 JUMP JUMPDEST PUSH1 0x0 PUSH2 0x46F1 PUSH2 0x4CF6 JUMP JUMPDEST PUSH1 0x6 SLOAD PUSH2 0x4702 SWAP1 PUSH3 0xF4240 SWAP1 PUSH2 0x4FF6 JUMP JUMPDEST PUSH1 0x40 DUP1 MLOAD PUSH2 0x140 DUP2 ADD DUP3 MSTORE DUP3 DUP2 MSTORE PUSH1 0x1 PUSH1 0x1 PUSH1 0xA0 SHL SUB DUP12 DUP2 AND PUSH1 0x20 DUP1 DUP5 ADD SWAP2 DUP3 MSTORE SWAP4 DUP4 ADD DUP13 DUP2 MSTORE TIMESTAMP PUSH1 0x60 DUP6 ADD SWAP1 DUP2 MSTORE PUSH1 0x80 DUP6 ADD DUP14 DUP2 MSTORE PUSH1 0xA0 DUP7 ADD DUP14 DUP2 MSTORE PUSH1 0xC0 DUP8 ADD DUP14 DUP2 MSTORE PUSH1 0xE0 DUP9 ADD DUP14 DUP2 MSTORE PUSH1 0x0 PUSH2 0x100 DUP11 ADD DUP2 DUP2 MSTORE PUSH2 0x120 DUP12 ADD DUP16 DUP2 MSTORE PUSH1 0x6 DUP1 SLOAD PUSH1 0x1 DUP2 ADD DUP3 SSTORE SWAP4 MSTORE DUP12 MLOAD PUSH32 0xF652222313E28459528D920B65115C16C04F3EFC82AAEDC97BE59F3F377C0D3F PUSH1 0xA SWAP1 SWAP5 MUL SWAP4 DUP5 ADD SWAP1 DUP2 SSTORE SWAP10 MLOAD PUSH32 0xF652222313E28459528D920B65115C16C04F3EFC82AAEDC97BE59F3F377C0D40 DUP5 ADD DUP1 SLOAD PUSH1 0x1 PUSH1 0x1 PUSH1 0xA0 SHL SUB NOT AND SWAP2 SWAP1 SWAP13 AND OR SWAP1 SWAP11 SSTORE SWAP7 MLOAD PUSH32 0xF652222313E28459528D920B65115C16C04F3EFC82AAEDC97BE59F3F377C0D41 DUP3 ADD SSTORE SWAP5 MLOAD PUSH32 0xF652222313E28459528D920B65115C16C04F3EFC82AAEDC97BE59F3F377C0D42 DUP7 ADD SSTORE SWAP3 MLOAD PUSH32 0xF652222313E28459528D920B65115C16C04F3EFC82AAEDC97BE59F3F377C0D43 DUP6 ADD SSTORE SWAP1 MLOAD PUSH32 0xF652222313E28459528D920B65115C16C04F3EFC82AAEDC97BE59F3F377C0D44 DUP5 ADD SSTORE MLOAD PUSH32 0xF652222313E28459528D920B65115C16C04F3EFC82AAEDC97BE59F3F377C0D45 DUP4 ADD SSTORE MLOAD PUSH32 0xF652222313E28459528D920B65115C16C04F3EFC82AAEDC97BE59F3F377C0D46 DUP3 ADD SSTORE SWAP1 MLOAD PUSH32 0xF652222313E28459528D920B65115C16C04F3EFC82AAEDC97BE59F3F377C0D47 DUP3 ADD SSTORE SWAP2 MLOAD DUP1 MLOAD SWAP6 SWAP7 POP SWAP3 SWAP5 DUP6 SWAP5 SWAP2 SWAP4 PUSH2 0x4915 SWAP4 PUSH32 0xF652222313E28459528D920B65115C16C04F3EFC82AAEDC97BE59F3F377C0D48 ADD SWAP3 ADD SWAP1 PUSH2 0x4F47 JUMP JUMPDEST POP POP POP POP SWAP8 SWAP7 POP POP POP POP POP POP POP JUMP JUMPDEST PUSH1 0x0 DUP1 DUP4 SWAP1 POP PUSH1 0x0 DUP4 PUSH1 0x1 PUSH1 0x1 PUSH1 0xA0 SHL SUB AND PUSH4 0xE6A43905 DUP4 PUSH1 0x1 PUSH1 0x1 PUSH1 0xA0 SHL SUB AND PUSH4 0xDFE1681 PUSH1 0x40 MLOAD DUP2 PUSH4 0xFFFFFFFF AND PUSH1 0xE0 SHL DUP2 MSTORE PUSH1 0x4 ADD PUSH1 0x20 PUSH1 0x40 MLOAD DUP1 DUP4 SUB DUP2 DUP7 GAS STATICCALL ISZERO DUP1 ISZERO PUSH2 0x4979 JUMPI RETURNDATASIZE PUSH1 0x0 DUP1 RETURNDATACOPY RETURNDATASIZE PUSH1 0x0 REVERT JUMPDEST POP POP POP POP PUSH1 0x40 MLOAD RETURNDATASIZE PUSH1 0x1F NOT PUSH1 0x1F DUP3 ADD AND DUP3 ADD DUP1 PUSH1 0x40 MSTORE POP DUP2 ADD SWAP1 PUSH2 0x499D SWAP2 SWAP1 PUSH2 0x5BA5 JUMP JUMPDEST DUP5 PUSH1 0x1 PUSH1 0x1 PUSH1 0xA0 SHL SUB AND PUSH4 0xD21220A7 PUSH1 0x40 MLOAD DUP2 PUSH4 0xFFFFFFFF AND PUSH1 0xE0 SHL DUP2 MSTORE PUSH1 0x4 ADD PUSH1 0x20 PUSH1 0x40 MLOAD DUP1 DUP4 SUB DUP2 DUP7 GAS STATICCALL ISZERO DUP1 ISZERO PUSH2 0x49DB JUMPI RETURNDATASIZE PUSH1 0x0 DUP1 RETURNDATACOPY RETURNDATASIZE PUSH1 0x0 REVERT JUMPDEST POP POP POP POP PUSH1 0x40 MLOAD RETURNDATASIZE PUSH1 0x1F NOT PUSH1 0x1F DUP3 ADD AND DUP3 ADD DUP1 PUSH1 0x40 MSTORE POP DUP2 ADD SWAP1 PUSH2 0x49FF SWAP2 SWAP1 PUSH2 0x5BA5 JUMP JUMPDEST PUSH1 0x40 MLOAD PUSH1 0x1 PUSH1 0x1 PUSH1 0xE0 SHL SUB NOT PUSH1 0xE0 DUP6 SWAP1 SHL AND DUP2 MSTORE PUSH1 0x1 PUSH1 0x1 PUSH1 0xA0 SHL SUB SWAP3 DUP4 AND PUSH1 0x4 DUP3 ADD MSTORE SWAP2 AND PUSH1 0x24 DUP3 ADD MSTORE PUSH1 0x44 ADD PUSH1 0x20 PUSH1 0x40 MLOAD DUP1 DUP4 SUB DUP2 DUP7 GAS STATICCALL ISZERO DUP1 ISZERO PUSH2 0x4A4A JUMPI RETURNDATASIZE PUSH1 0x0 DUP1 RETURNDATACOPY RETURNDATASIZE PUSH1 0x0 REVERT JUMPDEST POP POP POP POP PUSH1 0x40 MLOAD RETURNDATASIZE PUSH1 0x1F NOT PUSH1 0x1F DUP3 ADD AND DUP3 ADD DUP1 PUSH1 0x40 MSTORE POP DUP2 ADD SWAP1 PUSH2 0x4A6E SWAP2 SWAP1 PUSH2 0x5BA5 JUMP JUMPDEST PUSH1 0x1 PUSH1 0x1 PUSH1 0xA0 SHL SUB SWAP1 DUP2 AND SWAP1 DUP7 AND EQ SWAP3 POP POP POP SWAP3 SWAP2 POP POP JUMP JUMPDEST PUSH1 0x0 PUSH2 0x4A91 PUSH2 0x4CF6 JUMP JUMPDEST PUSH1 0x5 SLOAD PUSH2 0x4AA2 SWAP1 PUSH3 0xF4240 SWAP1 PUSH2 0x4FF6 JUMP JUMPDEST SWAP1 POP PUSH1 0x0 PUSH1 0x40 MLOAD DUP1 PUSH2 0x160 ADD PUSH1 0x40 MSTORE DUP1 DUP4 DUP2 MSTORE PUSH1 0x20 ADD DUP11 PUSH1 0x1 PUSH1 0x1 PUSH1 0xA0 SHL SUB AND DUP2 MSTORE PUSH1 0x20 ADD DUP12 PUSH1 0x1 PUSH1 0x1 PUSH1 0xA0 SHL SUB AND DUP2 MSTORE PUSH1 0x20 ADD DUP10 DUP2 MSTORE PUSH1 0x20 ADD TIMESTAMP DUP2 MSTORE PUSH1 0x20 ADD DUP9 DUP2 MSTORE PUSH1 0x20 ADD DUP8 DUP2 MSTORE PUSH1 0x20 ADD DUP7 DUP2 MSTORE PUSH1 0x20 ADD DUP6 DUP2 MSTORE PUSH1 0x20 ADD PUSH1 0x0 DUP2 MSTORE PUSH1 0x20 ADD DUP5 DUP2 MSTORE POP SWAP1 POP PUSH1 0x5 DUP2 SWAP1 DUP1 PUSH1 0x1 DUP2 SLOAD ADD DUP1 DUP3 SSTORE DUP1 SWAP2 POP POP PUSH1 0x1 SWAP1 SUB SWAP1 PUSH1 0x0 MSTORE PUSH1 0x20 PUSH1 0x0 KECCAK256 SWAP1 PUSH1 0xB MUL ADD PUSH1 0x0 SWAP1 SWAP2 SWAP1 SWAP2 SWAP1 SWAP2 POP PUSH1 0x0 DUP3 ADD MLOAD DUP2 PUSH1 0x0 ADD SSTORE PUSH1 0x20 DUP3 ADD MLOAD DUP2 PUSH1 0x1 ADD PUSH1 0x0 PUSH2 0x100 EXP DUP2 SLOAD DUP2 PUSH1 0x1 PUSH1 0x1 PUSH1 0xA0 SHL SUB MUL NOT AND SWAP1 DUP4 PUSH1 0x1 PUSH1 0x1 PUSH1 0xA0 SHL SUB AND MUL OR SWAP1 SSTORE POP PUSH1 0x40 DUP3 ADD MLOAD DUP2 PUSH1 0x2 ADD PUSH1 0x0 PUSH2 0x100 EXP DUP2 SLOAD DUP2 PUSH1 0x1 PUSH1 0x1 PUSH1 0xA0 SHL SUB MUL NOT AND SWAP1 DUP4 PUSH1 0x1 PUSH1 0x1 PUSH1 0xA0 SHL SUB AND MUL OR SWAP1 SSTORE POP PUSH1 0x60 DUP3 ADD MLOAD DUP2 PUSH1 0x3 ADD SSTORE PUSH1 0x80 DUP3 ADD MLOAD DUP2 PUSH1 0x4 ADD SSTORE PUSH1 0xA0 DUP3 ADD MLOAD DUP2 PUSH1 0x5 ADD SSTORE PUSH1 0xC0 DUP3 ADD MLOAD DUP2 PUSH1 0x6 ADD SSTORE PUSH1 0xE0 DUP3 ADD MLOAD DUP2 PUSH1 0x7 ADD SSTORE PUSH2 0x100 DUP3 ADD MLOAD DUP2 PUSH1 0x8 ADD SSTORE PUSH2 0x120 DUP3 ADD MLOAD DUP2 PUSH1 0x9 ADD SSTORE PUSH2 0x140 DUP3 ADD MLOAD DUP2 PUSH1 0xA ADD SWAP1 DUP1 MLOAD SWAP1 PUSH1 0x20 ADD SWAP1 PUSH2 0x4BFC SWAP3 SWAP2 SWAP1 PUSH2 0x4F47 JUMP JUMPDEST POP POP POP POP SWAP9 SWAP8 POP POP POP POP POP POP POP POP JUMP JUMPDEST PUSH1 0x0 PUSH2 0xEB7 DUP4 PUSH1 0x1 PUSH1 0x1 PUSH1 0xA0 SHL SUB DUP5 AND PUSH2 0x450E JUMP JUMPDEST PUSH1 0x0 PUSH2 0x4C76 DUP3 PUSH1 0x40 MLOAD DUP1 PUSH1 0x40 ADD PUSH1 0x40 MSTORE DUP1 PUSH1 0x20 DUP2 MSTORE PUSH1 0x20 ADD PUSH32 0x5361666545524332303A206C6F772D6C6576656C2063616C6C206661696C6564 DUP2 MSTORE POP DUP6 PUSH1 0x1 PUSH1 0x1 PUSH1 0xA0 SHL SUB AND PUSH2 0x4D3C SWAP1 SWAP3 SWAP2 SWAP1 PUSH4 0xFFFFFFFF AND JUMP JUMPDEST SWAP1 POP DUP1 MLOAD PUSH1 0x0 EQ DUP1 PUSH2 0x4C97 JUMPI POP DUP1 DUP1 PUSH1 0x20 ADD SWAP1 MLOAD DUP2 ADD SWAP1 PUSH2 0x4C97 SWAP2 SWAP1 PUSH2 0x591D JUMP JUMPDEST PUSH2 0x4591 JUMPI PUSH1 0x40 MLOAD PUSH3 0x461BCD PUSH1 0xE5 SHL DUP2 MSTORE PUSH1 0x20 PUSH1 0x4 DUP3 ADD MSTORE PUSH1 0x2A PUSH1 0x24 DUP3 ADD MSTORE PUSH32 0x5361666545524332303A204552433230206F7065726174696F6E20646964206E PUSH1 0x44 DUP3 ADD MSTORE PUSH10 0x1BDD081CDD58D8D95959 PUSH1 0xB2 SHL PUSH1 0x64 DUP3 ADD MSTORE PUSH1 0x84 ADD PUSH2 0xB41 JUMP JUMPDEST PUSH1 0x0 SLOAD PUSH1 0xFF AND ISZERO PUSH2 0x1B45 JUMPI PUSH1 0x40 MLOAD PUSH3 0x461BCD PUSH1 0xE5 SHL DUP2 MSTORE PUSH1 0x20 PUSH1 0x4 DUP3 ADD MSTORE PUSH1 0x10 PUSH1 0x24 DUP3 ADD MSTORE PUSH16 0x14185D5CD8589B194E881C185D5CD959 PUSH1 0x82 SHL PUSH1 0x44 DUP3 ADD MSTORE PUSH1 0x64 ADD PUSH2 0xB41 JUMP JUMPDEST PUSH1 0x60 PUSH2 0x1EF2 DUP5 DUP5 PUSH1 0x0 DUP6 DUP6 PUSH1 0x0 DUP1 DUP7 PUSH1 0x1 PUSH1 0x1 PUSH1 0xA0 SHL SUB AND DUP6 DUP8 PUSH1 0x40 MLOAD PUSH2 0x4D63 SWAP2 SWAP1 PUSH2 0x5E89 JUMP JUMPDEST PUSH1 0x0 PUSH1 0x40 MLOAD DUP1 DUP4 SUB DUP2 DUP6 DUP8 GAS CALL SWAP3 POP POP POP RETURNDATASIZE DUP1 PUSH1 0x0 DUP2 EQ PUSH2 0x4DA0 JUMPI PUSH1 0x40 MLOAD SWAP2 POP PUSH1 0x1F NOT PUSH1 0x3F RETURNDATASIZE ADD AND DUP3 ADD PUSH1 0x40 MSTORE RETURNDATASIZE DUP3 MSTORE RETURNDATASIZE PUSH1 0x0 PUSH1 0x20 DUP5 ADD RETURNDATACOPY PUSH2 0x4DA5 JUMP JUMPDEST PUSH1 0x60 SWAP2 POP JUMPDEST POP SWAP2 POP SWAP2 POP PUSH2 0x4DB6 DUP8 DUP4 DUP4 DUP8 PUSH2 0x4DC1 JUMP JUMPDEST SWAP8 SWAP7 POP POP POP POP POP POP POP JUMP JUMPDEST PUSH1 0x60 DUP4 ISZERO PUSH2 0x4E30 JUMPI DUP3 MLOAD PUSH1 0x0 SUB PUSH2 0x4E29 JUMPI PUSH1 0x1 PUSH1 0x1 PUSH1 0xA0 SHL SUB DUP6 AND EXTCODESIZE PUSH2 0x4E29 JUMPI PUSH1 0x40 MLOAD PUSH3 0x461BCD PUSH1 0xE5 SHL DUP2 MSTORE PUSH1 0x20 PUSH1 0x4 DUP3 ADD MSTORE PUSH1 0x1D PUSH1 0x24 DUP3 ADD MSTORE PUSH32 0x416464726573733A2063616C6C20746F206E6F6E2D636F6E7472616374000000 PUSH1 0x44 DUP3 ADD MSTORE PUSH1 0x64 ADD PUSH2 0xB41 JUMP JUMPDEST POP DUP2 PUSH2 0x1EF2 JUMP JUMPDEST PUSH2 0x1EF2 DUP4 DUP4 DUP2 MLOAD ISZERO PUSH2 0x4E45 JUMPI DUP2 MLOAD DUP1 DUP4 PUSH1 0x20 ADD REVERT JUMPDEST DUP1 PUSH1 0x40 MLOAD PUSH3 0x461BCD PUSH1 0xE5 SHL DUP2 MSTORE PUSH1 0x4 ADD PUSH2 0xB41 SWAP2 SWAP1 PUSH2 0x5EA5 JUMP JUMPDEST PUSH1 0x40 MLOAD DUP1 PUSH2 0x160 ADD PUSH1 0x40 MSTORE DUP1 PUSH1 0x0 DUP2 MSTORE PUSH1 0x20 ADD PUSH1 0x0 PUSH1 0x1 PUSH1 0x1 PUSH1 0xA0 SHL SUB AND DUP2 MSTORE PUSH1 0x20 ADD PUSH1 0x0 PUSH1 0x1 PUSH1 0x1 PUSH1 0xA0 SHL SUB AND DUP2 MSTORE PUSH1 0x20 ADD PUSH1 0x0 DUP2 MSTORE PUSH1 0x20 ADD PUSH1 0x0 DUP2 MSTORE PUSH1 0x20 ADD PUSH1 0x0 DUP2 MSTORE PUSH1 0x20 ADD PUSH1 0x0 DUP2 MSTORE PUSH1 0x20 ADD PUSH1 0x0 DUP2 MSTORE PUSH1 0x20 ADD PUSH1 0x0 DUP2 MSTORE PUSH1 0x20 ADD PUSH1 0x0 DUP2 MSTORE PUSH1 0x20 ADD PUSH1 0x60 DUP2 MSTORE POP SWAP1 JUMP JUMPDEST PUSH1 0x40 MLOAD DUP1 PUSH2 0x140 ADD PUSH1 0x40 MSTORE DUP1 PUSH1 0x0 DUP2 MSTORE PUSH1 0x20 ADD PUSH1 0x0 PUSH1 0x1 PUSH1 0x1 PUSH1 0xA0 SHL SUB AND DUP2 MSTORE PUSH1 0x20 ADD PUSH1 0x0 DUP2 MSTORE PUSH1 0x20 ADD PUSH1 0x0 DUP2 MSTORE PUSH1 0x20 ADD PUSH1 0x0 DUP2 MSTORE PUSH1 0x20 ADD PUSH1 0x0 DUP2 MSTORE PUSH1 0x20 ADD PUSH1 0x0 DUP2 MSTORE PUSH1 0x20 ADD PUSH1 0x0 DUP2 MSTORE PUSH1 0x20 ADD PUSH1 0x0 DUP2 MSTORE PUSH1 0x20 ADD PUSH1 0x60 DUP2 MSTORE POP SWAP1 JUMP JUMPDEST PUSH1 0x40 DUP1 MLOAD PUSH1 0x60 DUP2 ADD DUP3 MSTORE PUSH1 0x0 DUP1 DUP3 MSTORE PUSH1 0x20 DUP3 ADD DUP2 SWAP1 MSTORE SWAP2 DUP2 ADD SWAP2 SWAP1 SWAP2 MSTORE SWAP1 JUMP JUMPDEST DUP3 DUP1 SLOAD PUSH2 0x4F53 SWAP1 PUSH2 0x59B0 JUMP JUMPDEST SWAP1 PUSH1 0x0 MSTORE PUSH1 0x20 PUSH1 0x0 KECCAK256 SWAP1 PUSH1 0x1F ADD PUSH1 0x20 SWAP1 DIV DUP2 ADD SWAP3 DUP3 PUSH2 0x4F75 JUMPI PUSH1 0x0 DUP6 SSTORE PUSH2 0x4FBB JUMP JUMPDEST DUP3 PUSH1 0x1F LT PUSH2 0x4F8E JUMPI DUP1 MLOAD PUSH1 0xFF NOT AND DUP4 DUP1 ADD OR DUP6 SSTORE PUSH2 0x4FBB JUMP JUMPDEST DUP3 DUP1 ADD PUSH1 0x1 ADD DUP6 SSTORE DUP3 ISZERO PUSH2 0x4FBB JUMPI SWAP2 DUP3 ADD JUMPDEST DUP3 DUP2 GT ISZERO PUSH2 0x4FBB JUMPI DUP3 MLOAD DUP3 SSTORE SWAP2 PUSH1 0x20 ADD SWAP2 SWAP1 PUSH1 0x1 ADD SWAP1 PUSH2 0x4FA0 JUMP JUMPDEST POP PUSH2 0x4FC7 SWAP3 SWAP2 POP PUSH2 0x4FCB JUMP JUMPDEST POP SWAP1 JUMP JUMPDEST JUMPDEST DUP1 DUP3 GT ISZERO PUSH2 0x4FC7 JUMPI PUSH1 0x0 DUP2 SSTORE PUSH1 0x1 ADD PUSH2 0x4FCC JUMP JUMPDEST PUSH4 0x4E487B71 PUSH1 0xE0 SHL PUSH1 0x0 MSTORE PUSH1 0x11 PUSH1 0x4 MSTORE PUSH1 0x24 PUSH1 0x0 REVERT JUMPDEST PUSH1 0x0 DUP3 NOT DUP3 GT ISZERO PUSH2 0x5009 JUMPI PUSH2 0x5009 PUSH2 0x4FE0 JUMP JUMPDEST POP ADD SWAP1 JUMP JUMPDEST PUSH1 0x1 PUSH1 0x1 PUSH1 0xA0 SHL SUB DUP2 AND DUP2 EQ PUSH2 0x10C4 JUMPI PUSH1 0x0 DUP1 REVERT JUMPDEST DUP1 CALLDATALOAD PUSH2 0x155F DUP2 PUSH2 0x500E JUMP JUMPDEST DUP1 ISZERO ISZERO DUP2 EQ PUSH2 0x10C4 JUMPI PUSH1 0x0 DUP1 REVERT JUMPDEST DUP1 CALLDATALOAD PUSH2 0x155F DUP2 PUSH2 0x502E JUMP JUMPDEST PUSH4 0x4E487B71 PUSH1 0xE0 SHL PUSH1 0x0 MSTORE PUSH1 0x41 PUSH1 0x4 MSTORE PUSH1 0x24 PUSH1 0x0 REVERT JUMPDEST PUSH1 0x0 DUP3 PUSH1 0x1F DUP4 ADD SLT PUSH2 0x506E JUMPI PUSH1 0x0 DUP1 REVERT JUMPDEST DUP2 CALLDATALOAD PUSH1 0x1 PUSH1 0x1 PUSH1 0x40 SHL SUB DUP1 DUP3 GT ISZERO PUSH2 0x5088 JUMPI PUSH2 0x5088 PUSH2 0x5047 JUMP JUMPDEST PUSH1 0x40 MLOAD PUSH1 0x1F DUP4 ADD PUSH1 0x1F NOT SWAP1 DUP2 AND PUSH1 0x3F ADD AND DUP2 ADD SWAP1 DUP3 DUP3 GT DUP2 DUP4 LT OR ISZERO PUSH2 0x50B0 JUMPI PUSH2 0x50B0 PUSH2 0x5047 JUMP JUMPDEST DUP2 PUSH1 0x40 MSTORE DUP4 DUP2 MSTORE DUP7 PUSH1 0x20 DUP6 DUP9 ADD ADD GT ISZERO PUSH2 0x50C9 JUMPI PUSH1 0x0 DUP1 REVERT JUMPDEST DUP4 PUSH1 0x20 DUP8 ADD PUSH1 0x20 DUP4 ADD CALLDATACOPY PUSH1 0x0 PUSH1 0x20 DUP6 DUP4 ADD ADD MSTORE DUP1 SWAP5 POP POP POP POP POP SWAP3 SWAP2 POP POP JUMP JUMPDEST PUSH1 0x0 DUP1 PUSH1 0x0 DUP1 PUSH1 0x0 DUP1 PUSH1 0xC0 DUP8 DUP10 SUB SLT ISZERO PUSH2 0x5102 JUMPI PUSH1 0x0 DUP1 REVERT JUMPDEST DUP7 CALLDATALOAD PUSH2 0x510D DUP2 PUSH2 0x500E JUMP JUMPDEST SWAP6 POP PUSH1 0x20 DUP8 ADD CALLDATALOAD PUSH2 0x511D DUP2 PUSH2 0x500E JUMP JUMPDEST SWAP5 POP PUSH1 0x40 DUP8 ADD CALLDATALOAD PUSH2 0x512D DUP2 PUSH2 0x502E JUMP JUMPDEST SWAP4 POP PUSH1 0x60 DUP8 ADD CALLDATALOAD SWAP3 POP PUSH1 0x80 DUP8 ADD CALLDATALOAD SWAP2 POP PUSH1 0xA0 DUP8 ADD CALLDATALOAD PUSH1 0x1 PUSH1 0x1 PUSH1 0x40 SHL SUB DUP2 GT ISZERO PUSH2 0x5156 JUMPI PUSH1 0x0 DUP1 REVERT JUMPDEST PUSH2 0x5162 DUP10 DUP3 DUP11 ADD PUSH2 0x505D JUMP JUMPDEST SWAP2 POP POP SWAP3 SWAP6 POP SWAP3 SWAP6 POP SWAP3 SWAP6 JUMP JUMPDEST PUSH1 0x0 PUSH1 0x20 DUP3 DUP5 SUB SLT ISZERO PUSH2 0x5181 JUMPI PUSH1 0x0 DUP1 REVERT JUMPDEST DUP2 CALLDATALOAD PUSH2 0xEB7 DUP2 PUSH2 0x500E JUMP JUMPDEST PUSH1 0x0 PUSH1 0x20 DUP3 DUP5 SUB SLT ISZERO PUSH2 0x519E JUMPI PUSH1 0x0 DUP1 REVERT JUMPDEST POP CALLDATALOAD SWAP2 SWAP1 POP JUMP JUMPDEST PUSH1 0x1 PUSH1 0x1 PUSH1 0xA0 SHL SUB AND SWAP1 MSTORE JUMP JUMPDEST PUSH1 0x0 JUMPDEST DUP4 DUP2 LT ISZERO PUSH2 0x51CD JUMPI DUP2 DUP2 ADD MLOAD DUP4 DUP3 ADD MSTORE PUSH1 0x20 ADD PUSH2 0x51B5 JUMP JUMPDEST DUP4 DUP2 GT ISZERO PUSH2 0x1780 JUMPI POP POP PUSH1 0x0 SWAP2 ADD MSTORE JUMP JUMPDEST PUSH1 0x0 DUP2 MLOAD DUP1 DUP5 MSTORE PUSH2 0x51F6 DUP2 PUSH1 0x20 DUP7 ADD PUSH1 0x20 DUP7 ADD PUSH2 0x51B2 JUMP JUMPDEST PUSH1 0x1F ADD PUSH1 0x1F NOT AND SWAP3 SWAP1 SWAP3 ADD PUSH1 0x20 ADD SWAP3 SWAP2 POP POP JUMP JUMPDEST PUSH1 0x0 PUSH2 0x160 DUP3 MLOAD DUP5 MSTORE PUSH1 0x20 DUP4 ADD MLOAD PUSH2 0x5225 PUSH1 0x20 DUP7 ADD DUP3 PUSH2 0x51A5 JUMP JUMPDEST POP PUSH1 0x40 DUP4 ADD MLOAD PUSH2 0x5238 PUSH1 0x40 DUP7 ADD DUP3 PUSH2 0x51A5 JUMP JUMPDEST POP PUSH1 0x60 DUP4 ADD MLOAD PUSH1 0x60 DUP6 ADD MSTORE PUSH1 0x80 DUP4 ADD MLOAD PUSH1 0x80 DUP6 ADD MSTORE PUSH1 0xA0 DUP4 ADD MLOAD PUSH1 0xA0 DUP6 ADD MSTORE PUSH1 0xC0 DUP4 ADD MLOAD PUSH1 0xC0 DUP6 ADD MSTORE PUSH1 0xE0 DUP4 ADD MLOAD PUSH1 0xE0 DUP6 ADD MSTORE PUSH2 0x100 DUP1 DUP5 ADD MLOAD DUP2 DUP7 ADD MSTORE POP PUSH2 0x120 DUP1 DUP5 ADD MLOAD DUP2 DUP7 ADD MSTORE POP PUSH2 0x140 DUP1 DUP5 ADD MLOAD DUP3 DUP3 DUP8 ADD MSTORE PUSH2 0x3B02 DUP4 DUP8 ADD DUP3 PUSH2 0x51DE JUMP JUMPDEST PUSH1 0x20 DUP2 MSTORE PUSH1 0x0 PUSH2 0xEB7 PUSH1 0x20 DUP4 ADD DUP5 PUSH2 0x520A JUMP JUMPDEST PUSH1 0x0 DUP1 PUSH1 0x40 DUP4 DUP6 SUB SLT ISZERO PUSH2 0x52C1 JUMPI PUSH1 0x0 DUP1 REVERT JUMPDEST DUP3 CALLDATALOAD PUSH2 0x52CC DUP2 PUSH2 0x500E JUMP JUMPDEST SWAP5 PUSH1 0x20 SWAP4 SWAP1 SWAP4 ADD CALLDATALOAD SWAP4 POP POP POP JUMP JUMPDEST PUSH1 0x0 PUSH2 0x140 DUP3 MLOAD DUP5 MSTORE PUSH1 0x20 DUP4 ADD MLOAD PUSH2 0x52F5 PUSH1 0x20 DUP7 ADD DUP3 PUSH2 0x51A5 JUMP JUMPDEST POP PUSH1 0x40 DUP4 ADD MLOAD PUSH1 0x40 DUP6 ADD MSTORE PUSH1 0x60 DUP4 ADD MLOAD PUSH1 0x60 DUP6 ADD MSTORE PUSH1 0x80 DUP4 ADD MLOAD PUSH1 0x80 DUP6 ADD MSTORE PUSH1 0xA0 DUP4 ADD MLOAD PUSH1 0xA0 DUP6 ADD MSTORE PUSH1 0xC0 DUP4 ADD MLOAD PUSH1 0xC0 DUP6 ADD MSTORE PUSH1 0xE0 DUP4 ADD MLOAD PUSH1 0xE0 DUP6 ADD MSTORE PUSH2 0x100 DUP1 DUP5 ADD MLOAD DUP2 DUP7 ADD MSTORE POP PUSH2 0x120 DUP1 DUP5 ADD MLOAD DUP3 DUP3 DUP8 ADD MSTORE PUSH2 0x3B02 DUP4 DUP8 ADD DUP3 PUSH2 0x51DE JUMP JUMPDEST PUSH1 0x20 DUP2 MSTORE PUSH1 0x0 PUSH2 0xEB7 PUSH1 0x20 DUP4 ADD DUP5 PUSH2 0x52DA JUMP JUMPDEST PUSH1 0x0 PUSH1 0x20 DUP1 DUP4 ADD DUP2 DUP5 MSTORE DUP1 DUP6 MLOAD DUP1 DUP4 MSTORE PUSH1 0x40 DUP7 ADD SWAP2 POP PUSH1 0x40 DUP2 PUSH1 0x5 SHL DUP8 ADD ADD SWAP3 POP DUP4 DUP8 ADD PUSH1 0x0 JUMPDEST DUP3 DUP2 LT ISZERO PUSH2 0x53BE JUMPI PUSH1 0x3F NOT DUP9 DUP7 SUB ADD DUP5 MSTORE PUSH2 0x53AC DUP6 DUP4 MLOAD PUSH2 0x52DA JUMP JUMPDEST SWAP5 POP SWAP3 DUP6 ADD SWAP3 SWAP1 DUP6 ADD SWAP1 PUSH1 0x1 ADD PUSH2 0x5390 JUMP JUMPDEST POP SWAP3 SWAP8 SWAP7 POP POP POP POP POP POP POP JUMP JUMPDEST PUSH1 0x0 DUP1 PUSH1 0x0 PUSH1 0x60 DUP5 DUP7 SUB SLT ISZERO PUSH2 0x53E0 JUMPI PUSH1 0x0 DUP1 REVERT JUMPDEST POP POP DUP2 CALLDATALOAD SWAP4 PUSH1 0x20 DUP4 ADD CALLDATALOAD SWAP4 POP PUSH1 0x40 SWAP1 SWAP3 ADD CALLDATALOAD SWAP2 SWAP1 POP JUMP JUMPDEST PUSH1 0x0 DUP1 PUSH1 0x0 PUSH1 0x60 DUP5 DUP7 SUB SLT ISZERO PUSH2 0x540C JUMPI PUSH1 0x0 DUP1 REVERT JUMPDEST DUP4 CALLDATALOAD PUSH2 0x5417 DUP2 PUSH2 0x500E JUMP JUMPDEST SWAP6 PUSH1 0x20 DUP6 ADD CALLDATALOAD SWAP6 POP PUSH1 0x40 SWAP1 SWAP5 ADD CALLDATALOAD SWAP4 SWAP3 POP POP POP JUMP JUMPDEST PUSH1 0x0 PUSH1 0x20 DUP1 DUP4 ADD DUP2 DUP5 MSTORE DUP1 DUP6 MLOAD DUP1 DUP4 MSTORE PUSH1 0x40 DUP7 ADD SWAP2 POP PUSH1 0x40 DUP2 PUSH1 0x5 SHL DUP8 ADD ADD SWAP3 POP DUP4 DUP8 ADD PUSH1 0x0 JUMPDEST DUP3 DUP2 LT ISZERO PUSH2 0x53BE JUMPI PUSH1 0x3F NOT DUP9 DUP7 SUB ADD DUP5 MSTORE PUSH2 0x546F DUP6 DUP4 MLOAD PUSH2 0x520A JUMP JUMPDEST SWAP5 POP SWAP3 DUP6 ADD SWAP3 SWAP1 DUP6 ADD SWAP1 PUSH1 0x1 ADD PUSH2 0x5453 JUMP JUMPDEST PUSH1 0x0 DUP1 PUSH1 0x40 DUP4 DUP6 SUB SLT ISZERO PUSH2 0x5494 JUMPI PUSH1 0x0 DUP1 REVERT JUMPDEST DUP3 CALLDATALOAD SWAP2 POP PUSH1 0x20 DUP4 ADD CALLDATALOAD PUSH2 0x54A6 DUP2 PUSH2 0x500E JUMP JUMPDEST DUP1 SWAP2 POP POP SWAP3 POP SWAP3 SWAP1 POP JUMP JUMPDEST PUSH1 0x0 DUP1 PUSH1 0x40 DUP4 DUP6 SUB SLT ISZERO PUSH2 0x54C4 JUMPI PUSH1 0x0 DUP1 REVERT JUMPDEST POP POP DUP1 CALLDATALOAD SWAP3 PUSH1 0x20 SWAP1 SWAP2 ADD CALLDATALOAD SWAP2 POP JUMP JUMPDEST DUP1 MLOAD PUSH1 0x1 PUSH1 0x1 PUSH1 0xA0 SHL SUB SWAP1 DUP2 AND DUP4 MSTORE PUSH1 0x20 DUP1 DUP4 ADD MLOAD SWAP1 SWAP2 AND SWAP1 DUP4 ADD MSTORE PUSH1 0x40 SWAP1 DUP2 ADD MLOAD SWAP2 ADD MSTORE JUMP JUMPDEST PUSH1 0x20 DUP1 DUP3 MSTORE DUP3 MLOAD DUP3 DUP3 ADD DUP2 SWAP1 MSTORE PUSH1 0x0 SWAP2 SWAP1 DUP5 DUP3 ADD SWAP1 PUSH1 0x40 DUP6 ADD SWAP1 DUP5 JUMPDEST DUP2 DUP2 LT ISZERO PUSH2 0x14D5 JUMPI PUSH2 0x5529 DUP4 DUP6 MLOAD PUSH2 0x54D3 JUMP JUMPDEST SWAP3 DUP5 ADD SWAP3 PUSH1 0x60 SWAP3 SWAP1 SWAP3 ADD SWAP2 PUSH1 0x1 ADD PUSH2 0x5516 JUMP JUMPDEST PUSH1 0x1 PUSH1 0x1 PUSH1 0xA0 SHL SUB SWAP2 SWAP1 SWAP2 AND DUP2 MSTORE PUSH1 0x20 ADD SWAP1 JUMP JUMPDEST PUSH1 0x60 DUP2 ADD PUSH2 0xCEF DUP3 DUP5 PUSH2 0x54D3 JUMP JUMPDEST PUSH1 0x0 DUP1 PUSH1 0x0 DUP1 PUSH1 0x0 DUP1 PUSH1 0x0 DUP1 PUSH1 0x0 PUSH2 0x120 DUP11 DUP13 SUB SLT ISZERO PUSH2 0x557D JUMPI PUSH1 0x0 DUP1 REVERT JUMPDEST DUP10 CALLDATALOAD PUSH2 0x5588 DUP2 PUSH2 0x500E JUMP JUMPDEST SWAP9 POP PUSH1 0x20 DUP11 ADD CALLDATALOAD PUSH2 0x5598 DUP2 PUSH2 0x500E JUMP JUMPDEST SWAP8 POP PUSH1 0x40 DUP11 ADD CALLDATALOAD PUSH2 0x55A8 DUP2 PUSH2 0x502E JUMP JUMPDEST SWAP7 POP PUSH1 0x60 DUP11 ADD CALLDATALOAD SWAP6 POP PUSH1 0x80 DUP11 ADD CALLDATALOAD SWAP5 POP PUSH1 0xA0 DUP11 ADD CALLDATALOAD SWAP4 POP PUSH1 0xC0 DUP11 ADD CALLDATALOAD SWAP3 POP PUSH1 0xE0 DUP11 ADD CALLDATALOAD SWAP2 POP PUSH2 0x100 DUP11 ADD CALLDATALOAD PUSH1 0x1 PUSH1 0x1 PUSH1 0x40 SHL SUB DUP2 GT ISZERO PUSH2 0x55E7 JUMPI PUSH1 0x0 DUP1 REVERT JUMPDEST PUSH2 0x55F3 DUP13 DUP3 DUP14 ADD PUSH2 0x505D JUMP JUMPDEST SWAP2 POP POP SWAP3 SWAP6 SWAP9 POP SWAP3 SWAP6 SWAP9 POP SWAP3 SWAP6 SWAP9 JUMP JUMPDEST PUSH1 0x0 DUP1 PUSH1 0x40 DUP4 DUP6 SUB SLT ISZERO PUSH2 0x5616 JUMPI PUSH1 0x0 DUP1 REVERT JUMPDEST DUP3 CALLDATALOAD SWAP2 POP PUSH1 0x20 DUP4 ADD CALLDATALOAD PUSH1 0x1 PUSH1 0x1 PUSH1 0x40 SHL SUB DUP2 GT ISZERO PUSH2 0x5633 JUMPI PUSH1 0x0 DUP1 REVERT JUMPDEST PUSH2 0x563F DUP6 DUP3 DUP7 ADD PUSH2 0x505D JUMP JUMPDEST SWAP2 POP POP SWAP3 POP SWAP3 SWAP1 POP JUMP JUMPDEST PUSH1 0x0 DUP1 DUP4 PUSH1 0x1F DUP5 ADD SLT PUSH2 0x565B JUMPI PUSH1 0x0 DUP1 REVERT JUMPDEST POP DUP2 CALLDATALOAD PUSH1 0x1 PUSH1 0x1 PUSH1 0x40 SHL SUB DUP2 GT ISZERO PUSH2 0x5672 JUMPI PUSH1 0x0 DUP1 REVERT JUMPDEST PUSH1 0x20 DUP4 ADD SWAP2 POP DUP4 PUSH1 0x20 DUP3 PUSH1 0x5 SHL DUP6 ADD ADD GT ISZERO PUSH2 0x568D JUMPI PUSH1 0x0 DUP1 REVERT JUMPDEST SWAP3 POP SWAP3 SWAP1 POP JUMP JUMPDEST PUSH1 0x0 DUP1 PUSH1 0x0 DUP1 PUSH1 0x0 DUP1 PUSH1 0x0 DUP1 PUSH1 0x0 DUP1 PUSH1 0x0 PUSH2 0x120 DUP13 DUP15 SUB SLT ISZERO PUSH2 0x56B6 JUMPI PUSH1 0x0 DUP1 REVERT JUMPDEST PUSH1 0x1 PUSH1 0x1 PUSH1 0x40 SHL SUB DUP1 DUP14 CALLDATALOAD GT ISZERO PUSH2 0x56CC JUMPI PUSH1 0x0 DUP1 REVERT JUMPDEST PUSH2 0x56D9 DUP15 DUP15 CALLDATALOAD DUP16 ADD PUSH2 0x5649 JUMP JUMPDEST SWAP1 SWAP13 POP SWAP11 POP PUSH1 0x20 DUP14 ADD CALLDATALOAD DUP2 LT ISZERO PUSH2 0x56EF JUMPI PUSH1 0x0 DUP1 REVERT JUMPDEST PUSH2 0x56FF DUP15 PUSH1 0x20 DUP16 ADD CALLDATALOAD DUP16 ADD PUSH2 0x5649 JUMP JUMPDEST SWAP1 SWAP11 POP SWAP9 POP PUSH2 0x5710 PUSH1 0x40 DUP15 ADD PUSH2 0x5023 JUMP JUMPDEST SWAP8 POP PUSH2 0x571E PUSH1 0x60 DUP15 ADD PUSH2 0x503C JUMP JUMPDEST SWAP7 POP PUSH1 0x80 DUP14 ADD CALLDATALOAD SWAP6 POP PUSH1 0xA0 DUP14 ADD CALLDATALOAD SWAP5 POP PUSH1 0xC0 DUP14 ADD CALLDATALOAD SWAP4 POP PUSH1 0xE0 DUP14 ADD CALLDATALOAD SWAP3 POP DUP1 PUSH2 0x100 DUP15 ADD CALLDATALOAD GT ISZERO PUSH2 0x574E JUMPI PUSH1 0x0 DUP1 REVERT JUMPDEST POP PUSH2 0x5760 DUP14 PUSH2 0x100 DUP15 ADD CALLDATALOAD DUP15 ADD PUSH2 0x505D JUMP JUMPDEST SWAP1 POP SWAP3 SWAP6 SWAP9 SWAP12 POP SWAP3 SWAP6 SWAP9 SWAP12 SWAP1 SWAP4 SWAP7 SWAP10 POP JUMP JUMPDEST PUSH1 0x20 DUP1 DUP3 MSTORE DUP3 MLOAD DUP3 DUP3 ADD DUP2 SWAP1 MSTORE PUSH1 0x0 SWAP2 SWAP1 DUP5 DUP3 ADD SWAP1 PUSH1 0x40 DUP6 ADD SWAP1 DUP5 JUMPDEST DUP2 DUP2 LT ISZERO PUSH2 0x14D5 JUMPI DUP4 MLOAD DUP4 MSTORE SWAP3 DUP5 ADD SWAP3 SWAP2 DUP5 ADD SWAP2 PUSH1 0x1 ADD PUSH2 0x578E JUMP JUMPDEST PUSH1 0x1 PUSH1 0x1 PUSH1 0xA0 SHL SUB SWAP4 DUP5 AND DUP2 MSTORE SWAP2 SWAP1 SWAP3 AND PUSH1 0x20 DUP3 ADD MSTORE PUSH1 0x40 DUP2 ADD SWAP2 SWAP1 SWAP2 MSTORE PUSH1 0x60 ADD SWAP1 JUMP JUMPDEST PUSH1 0x0 DUP1 PUSH1 0x0 DUP1 PUSH1 0x0 DUP1 PUSH1 0x0 PUSH1 0xE0 DUP9 DUP11 SUB SLT ISZERO PUSH2 0x57E9 JUMPI PUSH1 0x0 DUP1 REVERT JUMPDEST DUP8 CALLDATALOAD PUSH2 0x57F4 DUP2 PUSH2 0x500E JUMP JUMPDEST SWAP7 POP PUSH1 0x20 DUP9 ADD CALLDATALOAD SWAP6 POP PUSH1 0x40 DUP9 ADD CALLDATALOAD SWAP5 POP PUSH1 0x60 DUP9 ADD CALLDATALOAD SWAP4 POP PUSH1 0x80 DUP9 ADD CALLDATALOAD SWAP3 POP PUSH1 0xA0 DUP9 ADD CALLDATALOAD SWAP2 POP PUSH1 0xC0 DUP9 ADD CALLDATALOAD PUSH1 0x1 PUSH1 0x1 PUSH1 0x40 SHL SUB DUP2 GT ISZERO PUSH2 0x5832 JUMPI PUSH1 0x0 DUP1 REVERT JUMPDEST PUSH2 0x583E DUP11 DUP3 DUP12 ADD PUSH2 0x505D JUMP JUMPDEST SWAP2 POP POP SWAP3 SWAP6 SWAP9 SWAP2 SWAP5 SWAP8 POP SWAP3 SWAP6 POP JUMP JUMPDEST PUSH1 0x0 DUP1 PUSH1 0x0 DUP1 PUSH1 0x80 DUP6 DUP8 SUB SLT ISZERO PUSH2 0x5863 JUMPI PUSH1 0x0 DUP1 REVERT JUMPDEST DUP5 CALLDATALOAD PUSH2 0x586E DUP2 PUSH2 0x500E JUMP JUMPDEST SWAP4 POP PUSH1 0x20 DUP6 ADD CALLDATALOAD SWAP3 POP PUSH1 0x40 DUP6 ADD CALLDATALOAD SWAP2 POP PUSH1 0x60 DUP6 ADD CALLDATALOAD PUSH1 0x1 PUSH1 0x1 PUSH1 0x40 SHL SUB DUP2 GT ISZERO PUSH2 0x5897 JUMPI PUSH1 0x0 DUP1 REVERT JUMPDEST PUSH2 0x58A3 DUP8 DUP3 DUP9 ADD PUSH2 0x505D JUMP JUMPDEST SWAP2 POP POP SWAP3 SWAP6 SWAP2 SWAP5 POP SWAP3 POP JUMP JUMPDEST PUSH1 0x20 DUP1 DUP3 MSTORE PUSH1 0x1F SWAP1 DUP3 ADD MSTORE PUSH32 0x416D6F756E742073686F756C642062652067726561746572207468616E203000 PUSH1 0x40 DUP3 ADD MSTORE PUSH1 0x60 ADD SWAP1 JUMP JUMPDEST PUSH1 0x20 DUP1 DUP3 MSTORE PUSH1 0x1E SWAP1 DUP3 ADD MSTORE PUSH32 0x506C656173652073657420612076616C696420556E6C6F636B20446174650000 PUSH1 0x40 DUP3 ADD MSTORE PUSH1 0x60 ADD SWAP1 JUMP JUMPDEST PUSH1 0x0 PUSH1 0x20 DUP3 DUP5 SUB SLT ISZERO PUSH2 0x592F JUMPI PUSH1 0x0 DUP1 REVERT JUMPDEST DUP2 MLOAD PUSH2 0xEB7 DUP2 PUSH2 0x502E JUMP JUMPDEST PUSH1 0x20 DUP1 DUP3 MSTORE PUSH1 0x1F SWAP1 DUP3 ADD MSTORE PUSH32 0x596F75206861766520746F207061792066656520666F72206C6F636B696E6700 PUSH1 0x40 DUP3 ADD MSTORE PUSH1 0x60 ADD SWAP1 JUMP JUMPDEST PUSH1 0x1 PUSH1 0x1 PUSH1 0xA0 SHL SUB SWAP5 DUP6 AND DUP2 MSTORE SWAP3 SWAP1 SWAP4 AND PUSH1 0x20 DUP4 ADD MSTORE PUSH1 0x40 DUP3 ADD MSTORE PUSH1 0x60 DUP2 ADD SWAP2 SWAP1 SWAP2 MSTORE PUSH1 0x80 ADD SWAP1 JUMP JUMPDEST PUSH4 0x4E487B71 PUSH1 0xE0 SHL PUSH1 0x0 MSTORE PUSH1 0x32 PUSH1 0x4 MSTORE PUSH1 0x24 PUSH1 0x0 REVERT JUMPDEST PUSH1 0x1 DUP2 DUP2 SHR SWAP1 DUP3 AND DUP1 PUSH2 0x59C4 JUMPI PUSH1 0x7F DUP3 AND SWAP2 POP JUMPDEST PUSH1 0x20 DUP3 LT DUP2 SUB PUSH2 0x155D JUMPI PUSH4 0x4E487B71 PUSH1 0xE0 SHL PUSH1 0x0 MSTORE PUSH1 0x22 PUSH1 0x4 MSTORE PUSH1 0x24 PUSH1 0x0 REVERT JUMPDEST PUSH1 0x20 DUP1 DUP3 MSTORE PUSH1 0xD SWAP1 DUP3 ADD MSTORE PUSH13 0x92DCECC2D8D2C840D2DCC8CAF PUSH1 0x9B SHL PUSH1 0x40 DUP3 ADD MSTORE PUSH1 0x60 ADD SWAP1 JUMP JUMPDEST PUSH1 0x0 PUSH1 0x1 DUP3 ADD PUSH2 0x5A1D JUMPI PUSH2 0x5A1D PUSH2 0x4FE0 JUMP JUMPDEST POP PUSH1 0x1 ADD SWAP1 JUMP JUMPDEST PUSH3 0x212721 PUSH1 0xE9 SHL DUP2 MSTORE PUSH1 0x3 ADD SWAP1 JUMP JUMPDEST PUSH1 0x20 DUP1 DUP3 MSTORE PUSH1 0x22 SWAP1 DUP3 ADD MSTORE PUSH32 0x596F7520617265206E6F7420746865206F776E6572206F662074686973206C6F PUSH1 0x40 DUP3 ADD MSTORE PUSH2 0x636B PUSH1 0xF0 SHL PUSH1 0x60 DUP3 ADD MSTORE PUSH1 0x80 ADD SWAP1 JUMP JUMPDEST PUSH1 0x20 DUP1 DUP3 MSTORE PUSH1 0x11 SWAP1 DUP3 ADD MSTORE PUSH17 0x131BD8DAC81DD85CC81D5B9B1BD8DAD959 PUSH1 0x7A SHL PUSH1 0x40 DUP3 ADD MSTORE PUSH1 0x60 ADD SWAP1 JUMP JUMPDEST PUSH1 0x20 DUP1 DUP3 MSTORE PUSH1 0x19 SWAP1 DUP3 ADD MSTORE PUSH25 0x119959481C995C5D5A5C9948199BDC88131BD8DAC811591A5D PUSH1 0x3A SHL PUSH1 0x40 DUP3 ADD MSTORE PUSH1 0x60 ADD SWAP1 JUMP JUMPDEST PUSH1 0x20 DUP1 DUP3 MSTORE PUSH1 0x44 SWAP1 DUP3 ADD MSTORE PUSH32 0x4E657720756E6C6F636B2074696D652073686F756C64206E6F74206265206265 PUSH1 0x40 DUP3 ADD MSTORE PUSH32 0x666F7265206F6C6420756E6C6F636B2074696D65206F722063757272656E7420 PUSH1 0x60 DUP3 ADD MSTORE PUSH4 0x74696D65 PUSH1 0xE0 SHL PUSH1 0x80 DUP3 ADD MSTORE PUSH1 0xA0 ADD SWAP1 JUMP JUMPDEST PUSH1 0x20 DUP1 DUP3 MSTORE PUSH1 0x31 SWAP1 DUP3 ADD MSTORE PUSH32 0x4E657720616D6F756E742073686F756C64206E6F74206265206C657373207468 PUSH1 0x40 DUP3 ADD MSTORE PUSH17 0x185B8818DD5C9C995B9D08185B5BDD5B9D PUSH1 0x7A SHL PUSH1 0x60 DUP3 ADD MSTORE PUSH1 0x80 ADD SWAP1 JUMP JUMPDEST PUSH1 0x0 DUP3 DUP3 LT ISZERO PUSH2 0x5BA0 JUMPI PUSH2 0x5BA0 PUSH2 0x4FE0 JUMP JUMPDEST POP SUB SWAP1 JUMP JUMPDEST PUSH1 0x0 PUSH1 0x20 DUP3 DUP5 SUB SLT ISZERO PUSH2 0x5BB7 JUMPI PUSH1 0x0 DUP1 REVERT JUMPDEST DUP2 MLOAD PUSH2 0xEB7 DUP2 PUSH2 0x500E JUMP JUMPDEST SWAP3 DUP4 MSTORE PUSH1 0x1 PUSH1 0x1 PUSH1 0xA0 SHL SUB SWAP2 DUP3 AND PUSH1 0x20 DUP5 ADD MSTORE AND PUSH1 0x40 DUP3 ADD MSTORE PUSH1 0x60 ADD SWAP1 JUMP JUMPDEST PUSH1 0x20 DUP1 DUP3 MSTORE PUSH1 0x18 SWAP1 DUP3 ADD MSTORE PUSH24 0x4974206973206E6F742074696D6520746F20756E6C6F636B PUSH1 0x40 SHL PUSH1 0x40 DUP3 ADD MSTORE PUSH1 0x60 ADD SWAP1 JUMP JUMPDEST PUSH1 0x20 DUP1 DUP3 MSTORE PUSH1 0x11 SWAP1 DUP3 ADD MSTORE PUSH17 0x4E6F7468696E6720746F20756E6C6F636B PUSH1 0x78 SHL PUSH1 0x40 DUP3 ADD MSTORE PUSH1 0x60 ADD SWAP1 JUMP JUMPDEST PUSH1 0x1 PUSH1 0x1 PUSH1 0xA0 SHL SUB SWAP4 SWAP1 SWAP4 AND DUP4 MSTORE PUSH1 0x20 DUP4 ADD SWAP2 SWAP1 SWAP2 MSTORE PUSH1 0x40 DUP3 ADD MSTORE PUSH1 0x60 ADD SWAP1 JUMP JUMPDEST PUSH1 0x0 PUSH1 0x20 DUP3 DUP5 SUB SLT ISZERO PUSH2 0x5C71 JUMPI PUSH1 0x0 DUP1 REVERT JUMPDEST POP MLOAD SWAP2 SWAP1 POP JUMP JUMPDEST PUSH1 0x1 PUSH1 0x1 PUSH1 0xA0 SHL SUB SWAP3 SWAP1 SWAP3 AND DUP3 MSTORE PUSH1 0x20 DUP3 ADD MSTORE PUSH1 0x40 ADD SWAP1 JUMP JUMPDEST PUSH1 0x20 DUP1 DUP3 MSTORE DUP2 DUP2 ADD MSTORE PUSH32 0x54474520646174652073686F756C6420626520696E2074686520667574757265 PUSH1 0x40 DUP3 ADD MSTORE PUSH1 0x60 ADD SWAP1 JUMP JUMPDEST PUSH1 0x20 DUP1 DUP3 MSTORE PUSH1 0xD SWAP1 DUP3 ADD MSTORE PUSH13 0x496E76616C6964206379636C65 PUSH1 0x98 SHL PUSH1 0x40 DUP3 ADD MSTORE PUSH1 0x60 ADD SWAP1 JUMP JUMPDEST PUSH1 0x20 DUP1 DUP3 MSTORE PUSH1 0x14 SWAP1 DUP3 ADD MSTORE PUSH20 0x496E76616C6964206269707320666F7220544745 PUSH1 0x60 SHL PUSH1 0x40 DUP3 ADD MSTORE PUSH1 0x60 ADD SWAP1 JUMP JUMPDEST PUSH1 0x20 DUP1 DUP3 MSTORE PUSH1 0x16 SWAP1 DUP3 ADD MSTORE PUSH22 0x496E76616C6964206269707320666F72206379636C65 PUSH1 0x50 SHL PUSH1 0x40 DUP3 ADD MSTORE PUSH1 0x60 ADD SWAP1 JUMP JUMPDEST PUSH1 0x20 DUP1 DUP3 MSTORE PUSH1 0x32 SWAP1 DUP3 ADD MSTORE PUSH32 0x53756D206F66205447452062707320616E64206379636C652073686F756C6420 PUSH1 0x40 DUP3 ADD MSTORE PUSH18 0x6265206C657373207468616E20313030303 PUSH1 0x74 SHL PUSH1 0x60 DUP3 ADD MSTORE PUSH1 0x80 ADD SWAP1 JUMP JUMPDEST PUSH1 0x20 DUP1 DUP3 MSTORE PUSH1 0x1F SWAP1 DUP3 ADD MSTORE PUSH32 0x596F75206861766520746F207061792066656520666F722076657374696E6700 PUSH1 0x40 DUP3 ADD MSTORE PUSH1 0x60 ADD SWAP1 JUMP JUMPDEST PUSH1 0x20 DUP1 DUP3 MSTORE PUSH1 0x1B SWAP1 DUP3 ADD MSTORE PUSH27 0x496E73756666696369656E7420616D6F756E7420746F206C6F636B PUSH1 0x28 SHL PUSH1 0x40 DUP3 ADD MSTORE PUSH1 0x60 ADD SWAP1 JUMP JUMPDEST PUSH1 0x20 DUP1 DUP3 MSTORE PUSH1 0xF SWAP1 DUP3 ADD MSTORE PUSH15 0x125B9D985B1A59081B1BD8DAC81A59 PUSH1 0x8A SHL PUSH1 0x40 DUP3 ADD MSTORE PUSH1 0x60 ADD SWAP1 JUMP JUMPDEST PUSH1 0x0 DUP2 PUSH1 0x0 NOT DIV DUP4 GT DUP3 ISZERO ISZERO AND ISZERO PUSH2 0x5E4C JUMPI PUSH2 0x5E4C PUSH2 0x4FE0 JUMP JUMPDEST POP MUL SWAP1 JUMP JUMPDEST PUSH1 0x0 DUP3 PUSH2 0x5E6E JUMPI PUSH4 0x4E487B71 PUSH1 0xE0 SHL PUSH1 0x0 MSTORE PUSH1 0x12 PUSH1 0x4 MSTORE PUSH1 0x24 PUSH1 0x0 REVERT JUMPDEST POP DIV SWAP1 JUMP JUMPDEST PUSH4 0x4E487B71 PUSH1 0xE0 SHL PUSH1 0x0 MSTORE PUSH1 0x31 PUSH1 0x4 MSTORE PUSH1 0x24 PUSH1 0x0 REVERT JUMPDEST PUSH1 0x0 DUP3 MLOAD PUSH2 0x5E9B DUP2 DUP5 PUSH1 0x20 DUP8 ADD PUSH2 0x51B2 JUMP JUMPDEST SWAP2 SWAP1 SWAP2 ADD SWAP3 SWAP2 POP POP JUMP JUMPDEST PUSH1 0x20 DUP2 MSTORE PUSH1 0x0 PUSH2 0xEB7 PUSH1 0x20 DUP4 ADD DUP5 PUSH2 0x51DE JUMP INVALID PUSH10 0x4AF1CC8727CDD0AFBDD5 RETURNDATASIZE SWAP12 DUP8 0xB6 SWAP3 BASEFEE 0xBD 0x49 MUL 0x24 0xE9 0xDD MULMOD 0xE PUSH25 0x8546506E076FA2646970667358221220A577A77C1D9824FB5C JUMP REVERT PUSH7 0xDB15CADF77AA28 SWAP7 0xD8 DUP13 0xFC 0xB1 DUP5 CODESIZE BLOCKHASH SUB 0xF9 0xCB 0xC0 SWAP8 PUSH5 0x736F6C6343 STOP ADDMOD 0xD STOP CALLER "
		},
		"gasEstimates": {
			"creation": {
				"codeDepositCost": "4866800",
				"executionCost": "infinite",
				"totalCost": "infinite"
			},
			"external": {
				"BNBLockCountForUser(address)": "infinite",
				"BNBLockForUserAtIndex(address,uint256)": "infinite",
				"BNBLocksForUser(address)": "infinite",
				"LockBNB(address,uint256,uint256,string)": "infinite",
				"VestingLockBNB(address,uint256,uint256,uint256,uint256,uint256,string)": "infinite",
				"VestingUnLockBNB(uint256,uint256)": "infinite",
				"allLpTokenLockedCount()": "592",
				"allNormalTokenLockedCount()": "791",
				"checkValidLPToken(address)": "infinite",
				"cumulativeLockInfo(address)": "1352",
				"editLock(uint256,uint256,uint256)": "infinite",
				"editLockBNB(uint256,uint256,uint256)": "infinite",
				"editLockDescription(uint256,string)": "infinite",
				"extraBNB()": "495",
				"feeamounts()": "518",
				"getBNBLockAt(uint256)": "infinite",
				"getCumulativeLpTokenLockInfo(uint256,uint256)": "infinite",
				"getCumulativeLpTokenLockInfoAt(uint256)": "2160",
				"getCumulativeNormalTokenLockInfo(uint256,uint256)": "infinite",
				"getCumulativeNormalTokenLockInfoAt(uint256)": "2159",
				"getLockAt(uint256)": "infinite",
				"getLockById(uint256)": "infinite",
				"getLockByIdBNB(uint256)": "infinite",
				"getLocksForBNB(uint256,uint256)": "infinite",
				"getLocksForToken(address,uint256,uint256)": "infinite",
				"getTotalLockCount()": "579",
				"getTotalLockCountBNB()": "427",
				"lock(address,address,bool,uint256,uint256,string)": "infinite",
				"lockFee()": "452",
				"lpLockCountForUser(address)": "infinite",
				"lpLockForUserAtIndex(address,uint256)": "infinite",
				"lpLocksForUser(address)": "infinite",
				"minimumTokenForFeeExemption()": "606",
				"multipleVestingLock(address[],uint256[],address,bool,uint256,uint256,uint256,uint256,string)": "infinite",
				"normalLockCountForUser(address)": "infinite",
				"normalLockForUserAtIndex(address,uint256)": "infinite",
				"normalLocksForUser(address)": "infinite",
				"owner()": "571",
				"paused()": "538",
				"receiver()": "615",
				"renounceLockOwnership(uint256)": "infinite",
				"renounceLockOwnershipBNB(uint256)": "infinite",
				"renounceOwnership()": "infinite",
				"setLockFee(uint256)": "20722",
				"setReceiver(address)": "20974",
				"setSnipeFinanceContract(address)": "20988",
				"setVestFee(uint256)": "20656",
				"snipefinancemultisenders()": "638",
				"totalLockCountForBNB()": "838",
				"totalLockCountForToken(address)": "infinite",
				"totalLockCountForUser(address)": "infinite",
				"totalTokenLockedCount()": "infinite",
				"transferLockOwnership(uint256,address)": "infinite",
				"transferLockOwnershipBNB(uint256,address)": "infinite",
				"transferOwnership(address)": "infinite",
				"unlock(uint256,uint256)": "infinite",
				"unlockBNB(uint256,uint256)": "infinite",
				"vestFee()": "496",
				"vestingLock(address,address,bool,uint256,uint256,uint256,uint256,uint256,string)": "infinite",
				"withdrawBNB()": "infinite",
				"withdrawToken(address,uint256)": "infinite",
				"withdrawableTokens(uint256,uint256)": "infinite",
				"withdrawableTokensBNB(uint256,uint256)": "infinite"
			},
			"internal": {
				"_createLock(address,address,bool,uint256,uint256,uint256,uint256,uint256,string memory)": "infinite",
				"_createLockBNB(address,uint256,uint256,uint256,uint256,uint256,string memory)": "infinite",
				"_getActualIndex(uint256)": "infinite",
				"_getActualIndexBNB(uint256)": "infinite",
				"_isValidLpToken(address,address)": "infinite",
				"_lockLpToken(address,address,address,uint256,uint256,uint256,uint256,uint256,string memory)": "infinite",
				"_lockNormalToken(address,address,uint256,uint256,uint256,uint256,uint256,string memory)": "infinite",
				"_multipleVestingLock(address[] calldata,uint256[] calldata,address,bool,uint256[4] memory,string memory)": "infinite",
				"_normalUnlock(struct Contract.Lock storage pointer,uint256)": "infinite",
				"_parseFactoryAddress(address)": "infinite",
				"_registerLock(address,address,uint256,uint256,uint256,uint256,uint256,string memory)": "infinite",
				"_registerLockBNB(address,uint256,uint256,uint256,uint256,uint256,string memory)": "infinite",
				"_safeTransferFromEnsureExactAmount(address,address,address,uint256)": "infinite",
				"_sumAmount(uint256[] calldata)": "infinite",
				"_vestingUnlock(struct Contract.Lock storage pointer,uint256)": "infinite",
				"_vestingUnlockBNB(struct Contract.BNBLock storage pointer,uint256)": "infinite",
				"_withdrawableTokens(struct Contract.Lock memory,uint256)": "infinite",
				"_withdrawableTokensBNB(struct Contract.BNBLock memory,uint256)": "infinite"
			}
		},
		"methodIdentifiers": {
			"BNBLockCountForUser(address)": "5cc36cde",
			"BNBLockForUserAtIndex(address,uint256)": "148564e8",
			"BNBLocksForUser(address)": "181550e6",
			"LockBNB(address,uint256,uint256,string)": "ee0c493a",
			"VestingLockBNB(address,uint256,uint256,uint256,uint256,uint256,string)": "eb3ce7c7",
			"VestingUnLockBNB(uint256,uint256)": "c61eaae0",
			"allLpTokenLockedCount()": "b982922e",
			"allNormalTokenLockedCount()": "475831c8",
			"checkValidLPToken(address)": "39747ac0",
			"cumulativeLockInfo(address)": "e1444fd6",
			"editLock(uint256,uint256,uint256)": "b3b9aa48",
			"editLockBNB(uint256,uint256,uint256)": "2aaa7655",
			"editLockDescription(uint256,string)": "d3cac885",
			"extraBNB()": "d738a44e",
			"feeamounts()": "9c8b9e7b",
			"getBNBLockAt(uint256)": "75c9007c",
			"getCumulativeLpTokenLockInfo(uint256,uint256)": "aec640c6",
			"getCumulativeLpTokenLockInfoAt(uint256)": "a20b8c18",
			"getCumulativeNormalTokenLockInfo(uint256,uint256)": "76c12822",
			"getCumulativeNormalTokenLockInfoAt(uint256)": "7e6706d3",
			"getLockAt(uint256)": "0d4f581a",
			"getLockById(uint256)": "08f12470",
			"getLockByIdBNB(uint256)": "fba7fd71",
			"getLocksForBNB(uint256,uint256)": "5e92b2cf",
			"getLocksForToken(address,uint256,uint256)": "332f26d7",
			"getTotalLockCount()": "fd981c66",
			"getTotalLockCountBNB()": "4c8948c9",
			"lock(address,address,bool,uint256,uint256,string)": "07279357",
			"lockFee()": "56a06235",
			"lpLockCountForUser(address)": "07873ef1",
			"lpLockForUserAtIndex(address,uint256)": "eeacf786",
			"lpLocksForUser(address)": "aef0e540",
			"minimumTokenForFeeExemption()": "1ff5ea6f",
			"multipleVestingLock(address[],uint256[],address,bool,uint256,uint256,uint256,uint256,string)": "e0da83ce",
			"normalLockCountForUser(address)": "eb80bdae",
			"normalLockForUserAtIndex(address,uint256)": "618df7a3",
			"normalLocksForUser(address)": "da1d8cff",
			"owner()": "8da5cb5b",
			"paused()": "5c975abb",
			"receiver()": "f7260d3e",
			"renounceLockOwnership(uint256)": "a57e3141",
			"renounceLockOwnershipBNB(uint256)": "cc64fb7a",
			"renounceOwnership()": "715018a6",
			"setLockFee(uint256)": "9f7260bd",
			"setReceiver(address)": "718da7ee",
			"setSnipeFinanceContract(address)": "8ca1f1b4",
			"setVestFee(uint256)": "95874b27",
			"snipefinancemultisenders()": "7d207e3a",
			"totalLockCountForBNB()": "2a697129",
			"totalLockCountForToken(address)": "e3676f88",
			"totalLockCountForUser(address)": "cd83eadc",
			"totalTokenLockedCount()": "1982242c",
			"transferLockOwnership(uint256,address)": "5a04fb69",
			"transferLockOwnershipBNB(uint256,address)": "75d39c7c",
			"transferOwnership(address)": "f2fde38b",
			"unlock(uint256,uint256)": "5bfadb24",
			"unlockBNB(uint256,uint256)": "6ce850e3",
			"vestFee()": "1033218f",
			"vestingLock(address,address,bool,uint256,uint256,uint256,uint256,uint256,string)": "cb645e32",
			"withdrawBNB()": "1d111d13",
			"withdrawToken(address,uint256)": "9e281a98",
			"withdrawableTokens(uint256,uint256)": "bd9574db",
			"withdrawableTokensBNB(uint256,uint256)": "80554e9a"
		}
	},
	"abi": [
		{
			"inputs": [
				{
					"internalType": "address",
					"name": "_snipefinancemultisenders",
					"type": "address"
				},
				{
					"internalType": "contract IERC20",
					"name": "_tokenAddressForFeeExemption",
					"type": "address"
				},
				{
					"internalType": "uint256",
					"name": "_minimumTokenForFeeExemption",
					"type": "uint256"
				}
			],
			"stateMutability": "nonpayable",
			"type": "constructor"
		},
		{
			"anonymous": false,
			"inputs": [
				{
					"indexed": true,
					"internalType": "uint256",
					"name": "id",
					"type": "uint256"
				},
				{
					"indexed": false,
					"internalType": "address",
					"name": "token",
					"type": "address"
				},
				{
					"indexed": false,
					"internalType": "address",
					"name": "owner",
					"type": "address"
				},
				{
					"indexed": false,
					"internalType": "uint256",
					"name": "amount",
					"type": "uint256"
				},
				{
					"indexed": false,
					"internalType": "uint256",
					"name": "unlockDate",
					"type": "uint256"
				}
			],
			"name": "LockAdded",
			"type": "event"
		},
		{
			"anonymous": false,
			"inputs": [
				{
					"indexed": true,
					"internalType": "uint256",
					"name": "id",
					"type": "uint256"
				},
				{
					"indexed": false,
					"internalType": "address",
					"name": "owner",
					"type": "address"
				},
				{
					"indexed": false,
					"internalType": "uint256",
					"name": "amount",
					"type": "uint256"
				},
				{
					"indexed": false,
					"internalType": "uint256",
					"name": "unlockDate",
					"type": "uint256"
				}
			],
			"name": "LockBNBAdded",
			"type": "event"
		},
		{
			"anonymous": false,
			"inputs": [
				{
					"indexed": true,
					"internalType": "uint256",
					"name": "id",
					"type": "uint256"
				},
				{
					"indexed": false,
					"internalType": "address",
					"name": "owner",
					"type": "address"
				},
				{
					"indexed": false,
					"internalType": "uint256",
					"name": "amount",
					"type": "uint256"
				},
				{
					"indexed": false,
					"internalType": "uint256",
					"name": "unlockedAt",
					"type": "uint256"
				}
			],
			"name": "LockBNBRemoved",
			"type": "event"
		},
		{
			"anonymous": false,
			"inputs": [
				{
					"indexed": false,
					"internalType": "uint256",
					"name": "lockId",
					"type": "uint256"
				}
			],
			"name": "LockDescriptionChanged",
			"type": "event"
		},
		{
			"anonymous": false,
			"inputs": [
				{
					"indexed": false,
					"internalType": "uint256",
					"name": "lockId",
					"type": "uint256"
				},
				{
					"indexed": false,
					"internalType": "address",
					"name": "owner",
					"type": "address"
				},
				{
					"indexed": false,
					"internalType": "address",
					"name": "newOwner",
					"type": "address"
				}
			],
			"name": "LockOwnerChanged",
			"type": "event"
		},
		{
			"anonymous": false,
			"inputs": [
				{
					"indexed": true,
					"internalType": "uint256",
					"name": "id",
					"type": "uint256"
				},
				{
					"indexed": false,
					"internalType": "address",
					"name": "token",
					"type": "address"
				},
				{
					"indexed": false,
					"internalType": "address",
					"name": "owner",
					"type": "address"
				},
				{
					"indexed": false,
					"internalType": "uint256",
					"name": "amount",
					"type": "uint256"
				},
				{
					"indexed": false,
					"internalType": "uint256",
					"name": "unlockedAt",
					"type": "uint256"
				}
			],
			"name": "LockRemoved",
			"type": "event"
		},
		{
			"anonymous": false,
			"inputs": [
				{
					"indexed": true,
					"internalType": "uint256",
					"name": "id",
					"type": "uint256"
				},
				{
					"indexed": false,
					"internalType": "address",
					"name": "token",
					"type": "address"
				},
				{
					"indexed": false,
					"internalType": "address",
					"name": "owner",
					"type": "address"
				},
				{
					"indexed": false,
					"internalType": "uint256",
					"name": "newAmount",
					"type": "uint256"
				},
				{
					"indexed": false,
					"internalType": "uint256",
					"name": "newUnlockDate",
					"type": "uint256"
				}
			],
			"name": "LockUpdated",
			"type": "event"
		},
		{
			"anonymous": false,
			"inputs": [
				{
					"indexed": true,
					"internalType": "uint256",
					"name": "id",
					"type": "uint256"
				},
				{
					"indexed": false,
					"internalType": "address",
					"name": "owner",
					"type": "address"
				},
				{
					"indexed": false,
					"internalType": "uint256",
					"name": "newAmount",
					"type": "uint256"
				},
				{
					"indexed": false,
					"internalType": "uint256",
					"name": "newUnlockDate",
					"type": "uint256"
				}
			],
			"name": "LockUpdatedBNB",
			"type": "event"
		},
		{
			"anonymous": false,
			"inputs": [
				{
					"indexed": true,
					"internalType": "uint256",
					"name": "id",
					"type": "uint256"
				},
				{
					"indexed": false,
					"internalType": "address",
					"name": "token",
					"type": "address"
				},
				{
					"indexed": false,
					"internalType": "address",
					"name": "owner",
					"type": "address"
				},
				{
					"indexed": false,
					"internalType": "uint256",
					"name": "amount",
					"type": "uint256"
				},
				{
					"indexed": false,
					"internalType": "uint256",
					"name": "total",
					"type": "uint256"
				},
				{
					"indexed": false,
					"internalType": "uint256",
					"name": "timestamp",
					"type": "uint256"
				}
			],
			"name": "LockVested",
			"type": "event"
		},
		{
			"anonymous": false,
			"inputs": [
				{
					"indexed": true,
					"internalType": "uint256",
					"name": "id",
					"type": "uint256"
				},
				{
					"indexed": false,
					"internalType": "address",
					"name": "owner",
					"type": "address"
				},
				{
					"indexed": false,
					"internalType": "uint256",
					"name": "amount",
					"type": "uint256"
				},
				{
					"indexed": false,
					"internalType": "uint256",
					"name": "total",
					"type": "uint256"
				},
				{
					"indexed": false,
					"internalType": "uint256",
					"name": "timestamp",
					"type": "uint256"
				}
			],
			"name": "LockVestedBNB",
			"type": "event"
		},
		{
			"anonymous": false,
			"inputs": [
				{
					"indexed": true,
					"internalType": "address",
					"name": "previousOwner",
					"type": "address"
				},
				{
					"indexed": true,
					"internalType": "address",
					"name": "newOwner",
					"type": "address"
				}
			],
			"name": "OwnershipTransferred",
			"type": "event"
		},
		{
			"anonymous": false,
			"inputs": [
				{
					"indexed": false,
					"internalType": "address",
					"name": "account",
					"type": "address"
				}
			],
			"name": "Paused",
			"type": "event"
		},
		{
			"anonymous": false,
			"inputs": [
				{
					"indexed": false,
					"internalType": "address",
					"name": "account",
					"type": "address"
				}
			],
			"name": "Unpaused",
			"type": "event"
		},
		{
			"inputs": [
				{
					"internalType": "address",
					"name": "user",
					"type": "address"
				}
			],
			"name": "BNBLockCountForUser",
			"outputs": [
				{
					"internalType": "uint256",
					"name": "",
					"type": "uint256"
				}
			],
			"stateMutability": "view",
			"type": "function"
		},
		{
			"inputs": [
				{
					"internalType": "address",
					"name": "user",
					"type": "address"
				},
				{
					"internalType": "uint256",
					"name": "index",
					"type": "uint256"
				}
			],
			"name": "BNBLockForUserAtIndex",
			"outputs": [
				{
					"components": [
						{
							"internalType": "uint256",
							"name": "id",
							"type": "uint256"
						},
						{
							"internalType": "address",
							"name": "owner",
							"type": "address"
						},
						{
							"internalType": "uint256",
							"name": "amount",
							"type": "uint256"
						},
						{
							"internalType": "uint256",
							"name": "lockDate",
							"type": "uint256"
						},
						{
							"internalType": "uint256",
							"name": "tgeDate",
							"type": "uint256"
						},
						{
							"internalType": "uint256",
							"name": "tgeBps",
							"type": "uint256"
						},
						{
							"internalType": "uint256",
							"name": "cycle",
							"type": "uint256"
						},
						{
							"internalType": "uint256",
							"name": "cycleBps",
							"type": "uint256"
						},
						{
							"internalType": "uint256",
							"name": "unlockedAmount",
							"type": "uint256"
						},
						{
							"internalType": "string",
							"name": "description",
							"type": "string"
						}
					],
					"internalType": "struct Contract.BNBLock",
					"name": "",
					"type": "tuple"
				}
			],
			"stateMutability": "view",
			"type": "function"
		},
		{
			"inputs": [
				{
					"internalType": "address",
					"name": "user",
					"type": "address"
				}
			],
			"name": "BNBLocksForUser",
			"outputs": [
				{
					"components": [
						{
							"internalType": "uint256",
							"name": "id",
							"type": "uint256"
						},
						{
							"internalType": "address",
							"name": "owner",
							"type": "address"
						},
						{
							"internalType": "uint256",
							"name": "amount",
							"type": "uint256"
						},
						{
							"internalType": "uint256",
							"name": "lockDate",
							"type": "uint256"
						},
						{
							"internalType": "uint256",
							"name": "tgeDate",
							"type": "uint256"
						},
						{
							"internalType": "uint256",
							"name": "tgeBps",
							"type": "uint256"
						},
						{
							"internalType": "uint256",
							"name": "cycle",
							"type": "uint256"
						},
						{
							"internalType": "uint256",
							"name": "cycleBps",
							"type": "uint256"
						},
						{
							"internalType": "uint256",
							"name": "unlockedAmount",
							"type": "uint256"
						},
						{
							"internalType": "string",
							"name": "description",
							"type": "string"
						}
					],
					"internalType": "struct Contract.BNBLock[]",
					"name": "",
					"type": "tuple[]"
				}
			],
			"stateMutability": "view",
			"type": "function"
		},
		{
			"inputs": [
				{
					"internalType": "address",
					"name": "owner",
					"type": "address"
				},
				{
					"internalType": "uint256",
					"name": "amount",
					"type": "uint256"
				},
				{
					"internalType": "uint256",
					"name": "unlockDate",
					"type": "uint256"
				},
				{
					"internalType": "string",
					"name": "description",
					"type": "string"
				}
			],
			"name": "LockBNB",
			"outputs": [
				{
					"internalType": "uint256",
					"name": "id",
					"type": "uint256"
				}
			],
			"stateMutability": "payable",
			"type": "function"
		},
		{
			"inputs": [
				{
					"internalType": "address",
					"name": "owner",
					"type": "address"
				},
				{
					"internalType": "uint256",
					"name": "amount",
					"type": "uint256"
				},
				{
					"internalType": "uint256",
					"name": "tgeDate",
					"type": "uint256"
				},
				{
					"internalType": "uint256",
					"name": "tgeBps",
					"type": "uint256"
				},
				{
					"internalType": "uint256",
					"name": "cycle",
					"type": "uint256"
				},
				{
					"internalType": "uint256",
					"name": "cycleBps",
					"type": "uint256"
				},
				{
					"internalType": "string",
					"name": "description",
					"type": "string"
				}
			],
			"name": "VestingLockBNB",
			"outputs": [
				{
					"internalType": "uint256",
					"name": "id",
					"type": "uint256"
				}
			],
			"stateMutability": "payable",
			"type": "function"
		},
		{
			"inputs": [
				{
					"internalType": "uint256",
					"name": "lockId",
					"type": "uint256"
				},
				{
					"internalType": "uint256",
					"name": "timestamp",
					"type": "uint256"
				}
			],
			"name": "VestingUnLockBNB",
			"outputs": [],
			"stateMutability": "nonpayable",
			"type": "function"
		},
		{
			"inputs": [],
			"name": "allLpTokenLockedCount",
			"outputs": [
				{
					"internalType": "uint256",
					"name": "",
					"type": "uint256"
				}
			],
			"stateMutability": "view",
			"type": "function"
		},
		{
			"inputs": [],
			"name": "allNormalTokenLockedCount",
			"outputs": [
				{
					"internalType": "uint256",
					"name": "",
					"type": "uint256"
				}
			],
			"stateMutability": "view",
			"type": "function"
		},
		{
			"inputs": [
				{
					"internalType": "address",
					"name": "token",
					"type": "address"
				}
			],
			"name": "checkValidLPToken",
			"outputs": [
				{
					"internalType": "bool",
					"name": "success",
					"type": "bool"
				}
			],
			"stateMutability": "view",
			"type": "function"
		},
		{
			"inputs": [
				{
					"internalType": "address",
					"name": "",
					"type": "address"
				}
			],
			"name": "cumulativeLockInfo",
			"outputs": [
				{
					"internalType": "address",
					"name": "token",
					"type": "address"
				},
				{
					"internalType": "address",
					"name": "factory",
					"type": "address"
				},
				{
					"internalType": "uint256",
					"name": "amount",
					"type": "uint256"
				}
			],
			"stateMutability": "view",
			"type": "function"
		},
		{
			"inputs": [
				{
					"internalType": "uint256",
					"name": "lockId",
					"type": "uint256"
				},
				{
					"internalType": "uint256",
					"name": "newAmount",
					"type": "uint256"
				},
				{
					"internalType": "uint256",
					"name": "newUnlockDate",
					"type": "uint256"
				}
			],
			"name": "editLock",
			"outputs": [],
			"stateMutability": "payable",
			"type": "function"
		},
		{
			"inputs": [
				{
					"internalType": "uint256",
					"name": "lockId",
					"type": "uint256"
				},
				{
					"internalType": "uint256",
					"name": "newAmount",
					"type": "uint256"
				},
				{
					"internalType": "uint256",
					"name": "newUnlockDate",
					"type": "uint256"
				}
			],
			"name": "editLockBNB",
			"outputs": [],
			"stateMutability": "payable",
			"type": "function"
		},
		{
			"inputs": [
				{
					"internalType": "uint256",
					"name": "lockId",
					"type": "uint256"
				},
				{
					"internalType": "string",
					"name": "description",
					"type": "string"
				}
			],
			"name": "editLockDescription",
			"outputs": [],
			"stateMutability": "nonpayable",
			"type": "function"
		},
		{
			"inputs": [],
			"name": "extraBNB",
			"outputs": [
				{
					"internalType": "uint256",
					"name": "",
					"type": "uint256"
				}
			],
			"stateMutability": "view",
			"type": "function"
		},
		{
			"inputs": [],
			"name": "feeamounts",
			"outputs": [
				{
					"internalType": "uint256",
					"name": "",
					"type": "uint256"
				}
			],
			"stateMutability": "view",
			"type": "function"
		},
		{
			"inputs": [
				{
					"internalType": "uint256",
					"name": "index",
					"type": "uint256"
				}
			],
			"name": "getBNBLockAt",
			"outputs": [
				{
					"components": [
						{
							"internalType": "uint256",
							"name": "id",
							"type": "uint256"
						},
						{
							"internalType": "address",
							"name": "owner",
							"type": "address"
						},
						{
							"internalType": "uint256",
							"name": "amount",
							"type": "uint256"
						},
						{
							"internalType": "uint256",
							"name": "lockDate",
							"type": "uint256"
						},
						{
							"internalType": "uint256",
							"name": "tgeDate",
							"type": "uint256"
						},
						{
							"internalType": "uint256",
							"name": "tgeBps",
							"type": "uint256"
						},
						{
							"internalType": "uint256",
							"name": "cycle",
							"type": "uint256"
						},
						{
							"internalType": "uint256",
							"name": "cycleBps",
							"type": "uint256"
						},
						{
							"internalType": "uint256",
							"name": "unlockedAmount",
							"type": "uint256"
						},
						{
							"internalType": "string",
							"name": "description",
							"type": "string"
						}
					],
					"internalType": "struct Contract.BNBLock",
					"name": "",
					"type": "tuple"
				}
			],
			"stateMutability": "view",
			"type": "function"
		},
		{
			"inputs": [
				{
					"internalType": "uint256",
					"name": "start",
					"type": "uint256"
				},
				{
					"internalType": "uint256",
					"name": "end",
					"type": "uint256"
				}
			],
			"name": "getCumulativeLpTokenLockInfo",
			"outputs": [
				{
					"components": [
						{
							"internalType": "address",
							"name": "token",
							"type": "address"
						},
						{
							"internalType": "address",
							"name": "factory",
							"type": "address"
						},
						{
							"internalType": "uint256",
							"name": "amount",
							"type": "uint256"
						}
					],
					"internalType": "struct Contract.CumulativeLockInfo[]",
					"name": "",
					"type": "tuple[]"
				}
			],
			"stateMutability": "view",
			"type": "function"
		},
		{
			"inputs": [
				{
					"internalType": "uint256",
					"name": "index",
					"type": "uint256"
				}
			],
			"name": "getCumulativeLpTokenLockInfoAt",
			"outputs": [
				{
					"components": [
						{
							"internalType": "address",
							"name": "token",
							"type": "address"
						},
						{
							"internalType": "address",
							"name": "factory",
							"type": "address"
						},
						{
							"internalType": "uint256",
							"name": "amount",
							"type": "uint256"
						}
					],
					"internalType": "struct Contract.CumulativeLockInfo",
					"name": "",
					"type": "tuple"
				}
			],
			"stateMutability": "view",
			"type": "function"
		},
		{
			"inputs": [
				{
					"internalType": "uint256",
					"name": "start",
					"type": "uint256"
				},
				{
					"internalType": "uint256",
					"name": "end",
					"type": "uint256"
				}
			],
			"name": "getCumulativeNormalTokenLockInfo",
			"outputs": [
				{
					"components": [
						{
							"internalType": "address",
							"name": "token",
							"type": "address"
						},
						{
							"internalType": "address",
							"name": "factory",
							"type": "address"
						},
						{
							"internalType": "uint256",
							"name": "amount",
							"type": "uint256"
						}
					],
					"internalType": "struct Contract.CumulativeLockInfo[]",
					"name": "",
					"type": "tuple[]"
				}
			],
			"stateMutability": "view",
			"type": "function"
		},
		{
			"inputs": [
				{
					"internalType": "uint256",
					"name": "index",
					"type": "uint256"
				}
			],
			"name": "getCumulativeNormalTokenLockInfoAt",
			"outputs": [
				{
					"components": [
						{
							"internalType": "address",
							"name": "token",
							"type": "address"
						},
						{
							"internalType": "address",
							"name": "factory",
							"type": "address"
						},
						{
							"internalType": "uint256",
							"name": "amount",
							"type": "uint256"
						}
					],
					"internalType": "struct Contract.CumulativeLockInfo",
					"name": "",
					"type": "tuple"
				}
			],
			"stateMutability": "view",
			"type": "function"
		},
		{
			"inputs": [
				{
					"internalType": "uint256",
					"name": "index",
					"type": "uint256"
				}
			],
			"name": "getLockAt",
			"outputs": [
				{
					"components": [
						{
							"internalType": "uint256",
							"name": "id",
							"type": "uint256"
						},
						{
							"internalType": "address",
							"name": "token",
							"type": "address"
						},
						{
							"internalType": "address",
							"name": "owner",
							"type": "address"
						},
						{
							"internalType": "uint256",
							"name": "amount",
							"type": "uint256"
						},
						{
							"internalType": "uint256",
							"name": "lockDate",
							"type": "uint256"
						},
						{
							"internalType": "uint256",
							"name": "tgeDate",
							"type": "uint256"
						},
						{
							"internalType": "uint256",
							"name": "tgeBps",
							"type": "uint256"
						},
						{
							"internalType": "uint256",
							"name": "cycle",
							"type": "uint256"
						},
						{
							"internalType": "uint256",
							"name": "cycleBps",
							"type": "uint256"
						},
						{
							"internalType": "uint256",
							"name": "unlockedAmount",
							"type": "uint256"
						},
						{
							"internalType": "string",
							"name": "description",
							"type": "string"
						}
					],
					"internalType": "struct Contract.Lock",
					"name": "",
					"type": "tuple"
				}
			],
			"stateMutability": "view",
			"type": "function"
		},
		{
			"inputs": [
				{
					"internalType": "uint256",
					"name": "lockId",
					"type": "uint256"
				}
			],
			"name": "getLockById",
			"outputs": [
				{
					"components": [
						{
							"internalType": "uint256",
							"name": "id",
							"type": "uint256"
						},
						{
							"internalType": "address",
							"name": "token",
							"type": "address"
						},
						{
							"internalType": "address",
							"name": "owner",
							"type": "address"
						},
						{
							"internalType": "uint256",
							"name": "amount",
							"type": "uint256"
						},
						{
							"internalType": "uint256",
							"name": "lockDate",
							"type": "uint256"
						},
						{
							"internalType": "uint256",
							"name": "tgeDate",
							"type": "uint256"
						},
						{
							"internalType": "uint256",
							"name": "tgeBps",
							"type": "uint256"
						},
						{
							"internalType": "uint256",
							"name": "cycle",
							"type": "uint256"
						},
						{
							"internalType": "uint256",
							"name": "cycleBps",
							"type": "uint256"
						},
						{
							"internalType": "uint256",
							"name": "unlockedAmount",
							"type": "uint256"
						},
						{
							"internalType": "string",
							"name": "description",
							"type": "string"
						}
					],
					"internalType": "struct Contract.Lock",
					"name": "",
					"type": "tuple"
				}
			],
			"stateMutability": "view",
			"type": "function"
		},
		{
			"inputs": [
				{
					"internalType": "uint256",
					"name": "lockId",
					"type": "uint256"
				}
			],
			"name": "getLockByIdBNB",
			"outputs": [
				{
					"components": [
						{
							"internalType": "uint256",
							"name": "id",
							"type": "uint256"
						},
						{
							"internalType": "address",
							"name": "owner",
							"type": "address"
						},
						{
							"internalType": "uint256",
							"name": "amount",
							"type": "uint256"
						},
						{
							"internalType": "uint256",
							"name": "lockDate",
							"type": "uint256"
						},
						{
							"internalType": "uint256",
							"name": "tgeDate",
							"type": "uint256"
						},
						{
							"internalType": "uint256",
							"name": "tgeBps",
							"type": "uint256"
						},
						{
							"internalType": "uint256",
							"name": "cycle",
							"type": "uint256"
						},
						{
							"internalType": "uint256",
							"name": "cycleBps",
							"type": "uint256"
						},
						{
							"internalType": "uint256",
							"name": "unlockedAmount",
							"type": "uint256"
						},
						{
							"internalType": "string",
							"name": "description",
							"type": "string"
						}
					],
					"internalType": "struct Contract.BNBLock",
					"name": "",
					"type": "tuple"
				}
			],
			"stateMutability": "view",
			"type": "function"
		},
		{
			"inputs": [
				{
					"internalType": "uint256",
					"name": "start",
					"type": "uint256"
				},
				{
					"internalType": "uint256",
					"name": "end",
					"type": "uint256"
				}
			],
			"name": "getLocksForBNB",
			"outputs": [
				{
					"components": [
						{
							"internalType": "uint256",
							"name": "id",
							"type": "uint256"
						},
						{
							"internalType": "address",
							"name": "owner",
							"type": "address"
						},
						{
							"internalType": "uint256",
							"name": "amount",
							"type": "uint256"
						},
						{
							"internalType": "uint256",
							"name": "lockDate",
							"type": "uint256"
						},
						{
							"internalType": "uint256",
							"name": "tgeDate",
							"type": "uint256"
						},
						{
							"internalType": "uint256",
							"name": "tgeBps",
							"type": "uint256"
						},
						{
							"internalType": "uint256",
							"name": "cycle",
							"type": "uint256"
						},
						{
							"internalType": "uint256",
							"name": "cycleBps",
							"type": "uint256"
						},
						{
							"internalType": "uint256",
							"name": "unlockedAmount",
							"type": "uint256"
						},
						{
							"internalType": "string",
							"name": "description",
							"type": "string"
						}
					],
					"internalType": "struct Contract.BNBLock[]",
					"name": "",
					"type": "tuple[]"
				}
			],
			"stateMutability": "view",
			"type": "function"
		},
		{
			"inputs": [
				{
					"internalType": "address",
					"name": "token",
					"type": "address"
				},
				{
					"internalType": "uint256",
					"name": "start",
					"type": "uint256"
				},
				{
					"internalType": "uint256",
					"name": "end",
					"type": "uint256"
				}
			],
			"name": "getLocksForToken",
			"outputs": [
				{
					"components": [
						{
							"internalType": "uint256",
							"name": "id",
							"type": "uint256"
						},
						{
							"internalType": "address",
							"name": "token",
							"type": "address"
						},
						{
							"internalType": "address",
							"name": "owner",
							"type": "address"
						},
						{
							"internalType": "uint256",
							"name": "amount",
							"type": "uint256"
						},
						{
							"internalType": "uint256",
							"name": "lockDate",
							"type": "uint256"
						},
						{
							"internalType": "uint256",
							"name": "tgeDate",
							"type": "uint256"
						},
						{
							"internalType": "uint256",
							"name": "tgeBps",
							"type": "uint256"
						},
						{
							"internalType": "uint256",
							"name": "cycle",
							"type": "uint256"
						},
						{
							"internalType": "uint256",
							"name": "cycleBps",
							"type": "uint256"
						},
						{
							"internalType": "uint256",
							"name": "unlockedAmount",
							"type": "uint256"
						},
						{
							"internalType": "string",
							"name": "description",
							"type": "string"
						}
					],
					"internalType": "struct Contract.Lock[]",
					"name": "",
					"type": "tuple[]"
				}
			],
			"stateMutability": "view",
			"type": "function"
		},
		{
			"inputs": [],
			"name": "getTotalLockCount",
			"outputs": [
				{
					"internalType": "uint256",
					"name": "",
					"type": "uint256"
				}
			],
			"stateMutability": "view",
			"type": "function"
		},
		{
			"inputs": [],
			"name": "getTotalLockCountBNB",
			"outputs": [
				{
					"internalType": "uint256",
					"name": "",
					"type": "uint256"
				}
			],
			"stateMutability": "view",
			"type": "function"
		},
		{
			"inputs": [
				{
					"internalType": "address",
					"name": "owner",
					"type": "address"
				},
				{
					"internalType": "address",
					"name": "token",
					"type": "address"
				},
				{
					"internalType": "bool",
					"name": "isLpToken",
					"type": "bool"
				},
				{
					"internalType": "uint256",
					"name": "amount",
					"type": "uint256"
				},
				{
					"internalType": "uint256",
					"name": "unlockDate",
					"type": "uint256"
				},
				{
					"internalType": "string",
					"name": "description",
					"type": "string"
				}
			],
			"name": "lock",
			"outputs": [
				{
					"internalType": "uint256",
					"name": "id",
					"type": "uint256"
				}
			],
			"stateMutability": "payable",
			"type": "function"
		},
		{
			"inputs": [],
			"name": "lockFee",
			"outputs": [
				{
					"internalType": "uint256",
					"name": "",
					"type": "uint256"
				}
			],
			"stateMutability": "view",
			"type": "function"
		},
		{
			"inputs": [
				{
					"internalType": "address",
					"name": "user",
					"type": "address"
				}
			],
			"name": "lpLockCountForUser",
			"outputs": [
				{
					"internalType": "uint256",
					"name": "",
					"type": "uint256"
				}
			],
			"stateMutability": "view",
			"type": "function"
		},
		{
			"inputs": [
				{
					"internalType": "address",
					"name": "user",
					"type": "address"
				},
				{
					"internalType": "uint256",
					"name": "index",
					"type": "uint256"
				}
			],
			"name": "lpLockForUserAtIndex",
			"outputs": [
				{
					"components": [
						{
							"internalType": "uint256",
							"name": "id",
							"type": "uint256"
						},
						{
							"internalType": "address",
							"name": "token",
							"type": "address"
						},
						{
							"internalType": "address",
							"name": "owner",
							"type": "address"
						},
						{
							"internalType": "uint256",
							"name": "amount",
							"type": "uint256"
						},
						{
							"internalType": "uint256",
							"name": "lockDate",
							"type": "uint256"
						},
						{
							"internalType": "uint256",
							"name": "tgeDate",
							"type": "uint256"
						},
						{
							"internalType": "uint256",
							"name": "tgeBps",
							"type": "uint256"
						},
						{
							"internalType": "uint256",
							"name": "cycle",
							"type": "uint256"
						},
						{
							"internalType": "uint256",
							"name": "cycleBps",
							"type": "uint256"
						},
						{
							"internalType": "uint256",
							"name": "unlockedAmount",
							"type": "uint256"
						},
						{
							"internalType": "string",
							"name": "description",
							"type": "string"
						}
					],
					"internalType": "struct Contract.Lock",
					"name": "",
					"type": "tuple"
				}
			],
			"stateMutability": "view",
			"type": "function"
		},
		{
			"inputs": [
				{
					"internalType": "address",
					"name": "user",
					"type": "address"
				}
			],
			"name": "lpLocksForUser",
			"outputs": [
				{
					"components": [
						{
							"internalType": "uint256",
							"name": "id",
							"type": "uint256"
						},
						{
							"internalType": "address",
							"name": "token",
							"type": "address"
						},
						{
							"internalType": "address",
							"name": "owner",
							"type": "address"
						},
						{
							"internalType": "uint256",
							"name": "amount",
							"type": "uint256"
						},
						{
							"internalType": "uint256",
							"name": "lockDate",
							"type": "uint256"
						},
						{
							"internalType": "uint256",
							"name": "tgeDate",
							"type": "uint256"
						},
						{
							"internalType": "uint256",
							"name": "tgeBps",
							"type": "uint256"
						},
						{
							"internalType": "uint256",
							"name": "cycle",
							"type": "uint256"
						},
						{
							"internalType": "uint256",
							"name": "cycleBps",
							"type": "uint256"
						},
						{
							"internalType": "uint256",
							"name": "unlockedAmount",
							"type": "uint256"
						},
						{
							"internalType": "string",
							"name": "description",
							"type": "string"
						}
					],
					"internalType": "struct Contract.Lock[]",
					"name": "",
					"type": "tuple[]"
				}
			],
			"stateMutability": "view",
			"type": "function"
		},
		{
			"inputs": [],
			"name": "minimumTokenForFeeExemption",
			"outputs": [
				{
					"internalType": "uint256",
					"name": "",
					"type": "uint256"
				}
			],
			"stateMutability": "view",
			"type": "function"
		},
		{
			"inputs": [
				{
					"internalType": "address[]",
					"name": "owners",
					"type": "address[]"
				},
				{
					"internalType": "uint256[]",
					"name": "amounts",
					"type": "uint256[]"
				},
				{
					"internalType": "address",
					"name": "token",
					"type": "address"
				},
				{
					"internalType": "bool",
					"name": "isLpToken",
					"type": "bool"
				},
				{
					"internalType": "uint256",
					"name": "tgeDate",
					"type": "uint256"
				},
				{
					"internalType": "uint256",
					"name": "tgeBps",
					"type": "uint256"
				},
				{
					"internalType": "uint256",
					"name": "cycle",
					"type": "uint256"
				},
				{
					"internalType": "uint256",
					"name": "cycleBps",
					"type": "uint256"
				},
				{
					"internalType": "string",
					"name": "description",
					"type": "string"
				}
			],
			"name": "multipleVestingLock",
			"outputs": [
				{
					"internalType": "uint256[]",
					"name": "",
					"type": "uint256[]"
				}
			],
			"stateMutability": "nonpayable",
			"type": "function"
		},
		{
			"inputs": [
				{
					"internalType": "address",
					"name": "user",
					"type": "address"
				}
			],
			"name": "normalLockCountForUser",
			"outputs": [
				{
					"internalType": "uint256",
					"name": "",
					"type": "uint256"
				}
			],
			"stateMutability": "view",
			"type": "function"
		},
		{
			"inputs": [
				{
					"internalType": "address",
					"name": "user",
					"type": "address"
				},
				{
					"internalType": "uint256",
					"name": "index",
					"type": "uint256"
				}
			],
			"name": "normalLockForUserAtIndex",
			"outputs": [
				{
					"components": [
						{
							"internalType": "uint256",
							"name": "id",
							"type": "uint256"
						},
						{
							"internalType": "address",
							"name": "token",
							"type": "address"
						},
						{
							"internalType": "address",
							"name": "owner",
							"type": "address"
						},
						{
							"internalType": "uint256",
							"name": "amount",
							"type": "uint256"
						},
						{
							"internalType": "uint256",
							"name": "lockDate",
							"type": "uint256"
						},
						{
							"internalType": "uint256",
							"name": "tgeDate",
							"type": "uint256"
						},
						{
							"internalType": "uint256",
							"name": "tgeBps",
							"type": "uint256"
						},
						{
							"internalType": "uint256",
							"name": "cycle",
							"type": "uint256"
						},
						{
							"internalType": "uint256",
							"name": "cycleBps",
							"type": "uint256"
						},
						{
							"internalType": "uint256",
							"name": "unlockedAmount",
							"type": "uint256"
						},
						{
							"internalType": "string",
							"name": "description",
							"type": "string"
						}
					],
					"internalType": "struct Contract.Lock",
					"name": "",
					"type": "tuple"
				}
			],
			"stateMutability": "view",
			"type": "function"
		},
		{
			"inputs": [
				{
					"internalType": "address",
					"name": "user",
					"type": "address"
				}
			],
			"name": "normalLocksForUser",
			"outputs": [
				{
					"components": [
						{
							"internalType": "uint256",
							"name": "id",
							"type": "uint256"
						},
						{
							"internalType": "address",
							"name": "token",
							"type": "address"
						},
						{
							"internalType": "address",
							"name": "owner",
							"type": "address"
						},
						{
							"internalType": "uint256",
							"name": "amount",
							"type": "uint256"
						},
						{
							"internalType": "uint256",
							"name": "lockDate",
							"type": "uint256"
						},
						{
							"internalType": "uint256",
							"name": "tgeDate",
							"type": "uint256"
						},
						{
							"internalType": "uint256",
							"name": "tgeBps",
							"type": "uint256"
						},
						{
							"internalType": "uint256",
							"name": "cycle",
							"type": "uint256"
						},
						{
							"internalType": "uint256",
							"name": "cycleBps",
							"type": "uint256"
						},
						{
							"internalType": "uint256",
							"name": "unlockedAmount",
							"type": "uint256"
						},
						{
							"internalType": "string",
							"name": "description",
							"type": "string"
						}
					],
					"internalType": "struct Contract.Lock[]",
					"name": "",
					"type": "tuple[]"
				}
			],
			"stateMutability": "view",
			"type": "function"
		},
		{
			"inputs": [],
			"name": "owner",
			"outputs": [
				{
					"internalType": "address",
					"name": "",
					"type": "address"
				}
			],
			"stateMutability": "view",
			"type": "function"
		},
		{
			"inputs": [],
			"name": "paused",
			"outputs": [
				{
					"internalType": "bool",
					"name": "",
					"type": "bool"
				}
			],
			"stateMutability": "view",
			"type": "function"
		},
		{
			"inputs": [],
			"name": "receiver",
			"outputs": [
				{
					"internalType": "address",
					"name": "",
					"type": "address"
				}
			],
			"stateMutability": "view",
			"type": "function"
		},
		{
			"inputs": [
				{
					"internalType": "uint256",
					"name": "lockId",
					"type": "uint256"
				}
			],
			"name": "renounceLockOwnership",
			"outputs": [],
			"stateMutability": "nonpayable",
			"type": "function"
		},
		{
			"inputs": [
				{
					"internalType": "uint256",
					"name": "lockId",
					"type": "uint256"
				}
			],
			"name": "renounceLockOwnershipBNB",
			"outputs": [],
			"stateMutability": "nonpayable",
			"type": "function"
		},
		{
			"inputs": [],
			"name": "renounceOwnership",
			"outputs": [],
			"stateMutability": "nonpayable",
			"type": "function"
		},
		{
			"inputs": [
				{
					"internalType": "uint256",
					"name": "_newFee",
					"type": "uint256"
				}
			],
			"name": "setLockFee",
			"outputs": [],
			"stateMutability": "nonpayable",
			"type": "function"
		},
		{
			"inputs": [
				{
					"internalType": "address",
					"name": "_receiver",
					"type": "address"
				}
			],
			"name": "setReceiver",
			"outputs": [],
			"stateMutability": "nonpayable",
			"type": "function"
		},
		{
			"inputs": [
				{
					"internalType": "address",
					"name": "contractAddress",
					"type": "address"
				}
			],
			"name": "setSnipeFinanceContract",
			"outputs": [],
			"stateMutability": "nonpayable",
			"type": "function"
		},
		{
			"inputs": [
				{
					"internalType": "uint256",
					"name": "_newFee",
					"type": "uint256"
				}
			],
			"name": "setVestFee",
			"outputs": [],
			"stateMutability": "nonpayable",
			"type": "function"
		},
		{
			"inputs": [],
			"name": "snipefinancemultisenders",
			"outputs": [
				{
					"internalType": "contract ISnipeFinanceMultisenders",
					"name": "",
					"type": "address"
				}
			],
			"stateMutability": "view",
			"type": "function"
		},
		{
			"inputs": [],
			"name": "totalLockCountForBNB",
			"outputs": [
				{
					"internalType": "uint256",
					"name": "",
					"type": "uint256"
				}
			],
			"stateMutability": "view",
			"type": "function"
		},
		{
			"inputs": [
				{
					"internalType": "address",
					"name": "token",
					"type": "address"
				}
			],
			"name": "totalLockCountForToken",
			"outputs": [
				{
					"internalType": "uint256",
					"name": "",
					"type": "uint256"
				}
			],
			"stateMutability": "view",
			"type": "function"
		},
		{
			"inputs": [
				{
					"internalType": "address",
					"name": "user",
					"type": "address"
				}
			],
			"name": "totalLockCountForUser",
			"outputs": [
				{
					"internalType": "uint256",
					"name": "",
					"type": "uint256"
				}
			],
			"stateMutability": "view",
			"type": "function"
		},
		{
			"inputs": [],
			"name": "totalTokenLockedCount",
			"outputs": [
				{
					"internalType": "uint256",
					"name": "",
					"type": "uint256"
				}
			],
			"stateMutability": "view",
			"type": "function"
		},
		{
			"inputs": [
				{
					"internalType": "uint256",
					"name": "lockId",
					"type": "uint256"
				},
				{
					"internalType": "address",
					"name": "newOwner",
					"type": "address"
				}
			],
			"name": "transferLockOwnership",
			"outputs": [],
			"stateMutability": "nonpayable",
			"type": "function"
		},
		{
			"inputs": [
				{
					"internalType": "uint256",
					"name": "lockId",
					"type": "uint256"
				},
				{
					"internalType": "address",
					"name": "newOwner",
					"type": "address"
				}
			],
			"name": "transferLockOwnershipBNB",
			"outputs": [],
			"stateMutability": "nonpayable",
			"type": "function"
		},
		{
			"inputs": [
				{
					"internalType": "address",
					"name": "newOwner",
					"type": "address"
				}
			],
			"name": "transferOwnership",
			"outputs": [],
			"stateMutability": "nonpayable",
			"type": "function"
		},
		{
			"inputs": [
				{
					"internalType": "uint256",
					"name": "lockId",
					"type": "uint256"
				},
				{
					"internalType": "uint256",
					"name": "timestamp",
					"type": "uint256"
				}
			],
			"name": "unlock",
			"outputs": [],
			"stateMutability": "nonpayable",
			"type": "function"
		},
		{
			"inputs": [
				{
					"internalType": "uint256",
					"name": "lockId",
					"type": "uint256"
				},
				{
					"internalType": "uint256",
					"name": "timestamp",
					"type": "uint256"
				}
			],
			"name": "unlockBNB",
			"outputs": [],
			"stateMutability": "payable",
			"type": "function"
		},
		{
			"inputs": [],
			"name": "vestFee",
			"outputs": [
				{
					"internalType": "uint256",
					"name": "",
					"type": "uint256"
				}
			],
			"stateMutability": "view",
			"type": "function"
		},
		{
			"inputs": [
				{
					"internalType": "address",
					"name": "owner",
					"type": "address"
				},
				{
					"internalType": "address",
					"name": "token",
					"type": "address"
				},
				{
					"internalType": "bool",
					"name": "isLpToken",
					"type": "bool"
				},
				{
					"internalType": "uint256",
					"name": "amount",
					"type": "uint256"
				},
				{
					"internalType": "uint256",
					"name": "tgeDate",
					"type": "uint256"
				},
				{
					"internalType": "uint256",
					"name": "tgeBps",
					"type": "uint256"
				},
				{
					"internalType": "uint256",
					"name": "cycle",
					"type": "uint256"
				},
				{
					"internalType": "uint256",
					"name": "cycleBps",
					"type": "uint256"
				},
				{
					"internalType": "string",
					"name": "description",
					"type": "string"
				}
			],
			"name": "vestingLock",
			"outputs": [
				{
					"internalType": "uint256",
					"name": "id",
					"type": "uint256"
				}
			],
			"stateMutability": "payable",
			"type": "function"
		},
		{
			"inputs": [],
			"name": "withdrawBNB",
			"outputs": [],
			"stateMutability": "nonpayable",
			"type": "function"
		},
		{
			"inputs": [
				{
					"internalType": "address",
					"name": "tokenToWithdraw",
					"type": "address"
				},
				{
					"internalType": "uint256",
					"name": "quantityToWithdraw",
					"type": "uint256"
				}
			],
			"name": "withdrawToken",
			"outputs": [],
			"stateMutability": "nonpayable",
			"type": "function"
		},
		{
			"inputs": [
				{
					"internalType": "uint256",
					"name": "lockId",
					"type": "uint256"
				},
				{
					"internalType": "uint256",
					"name": "timestamp",
					"type": "uint256"
				}
			],
			"name": "withdrawableTokens",
			"outputs": [
				{
					"internalType": "uint256",
					"name": "",
					"type": "uint256"
				}
			],
			"stateMutability": "view",
			"type": "function"
		},
		{
			"inputs": [
				{
					"internalType": "uint256",
					"name": "lockId",
					"type": "uint256"
				},
				{
					"internalType": "uint256",
					"name": "timestamp",
					"type": "uint256"
				}
			],
			"name": "withdrawableTokensBNB",
			"outputs": [
				{
					"internalType": "uint256",
					"name": "",
					"type": "uint256"
				}
			],
			"stateMutability": "view",
			"type": "function"
		},
		{
			"stateMutability": "payable",
			"type": "receive"
		}
	]
}