{
	"data": {
		"bytecode": {
			"linkReferences": {},
			"object": "60806040523480156200001157600080fd5b506040516200611338038062006113833981016040819052620000349162000103565b6000805460ff19169055620000493362000091565b601480546001600160a01b039485166001600160a01b03199182161790915560118054939094169216919091179091556012556509184e72a00060018190556002556200014b565b600080546001600160a01b03838116610100818102610100600160a81b0319851617855560405193049190911692909183917f8be0079c531659141344cd1fd0a4f28419497f9722a3daafe3b4186f6b6457e091a35050565b6001600160a01b03811681146200010057600080fd5b50565b6000806000606084860312156200011957600080fd5b83516200012681620000ea565b60208501519093506200013981620000ea565b80925050604084015190509250925092565b615fb8806200015b6000396000f3fe60806040526004361061032c5760003560e01c806380554e9a116101b2578063cc64fb7a116100ed578063eb3ce7c711610090578063eb3ce7c714610a22578063eb80bdae14610a35578063ee0c493a14610a55578063eeacf78614610a68578063f2fde38b14610a88578063f7260d3e14610aa8578063fba7fd7114610ac8578063fd981c6614610ae857600080fd5b8063cc64fb7a146108e7578063cd83eadc14610907578063d3cac88514610927578063d738a44e14610947578063da1d8cff1461095d578063e0da83ce1461097d578063e1444fd6146109aa578063e3676f8814610a0257600080fd5b8063a57e314111610155578063a57e31411461080c578063aec640c61461082c578063aef0e5401461084c578063b3b9aa481461086c578063b982922e1461087f578063bd9574db14610894578063c61eaae0146108b4578063cb645e32146108d457600080fd5b806380554e9a146107215780638ca1f1b4146107415780638da5cb5b1461076157806395874b27146107765780639c8b9e7b146107965780639e281a98146107ac5780639f7260bd146107cc578063a20b8c18146107ec57600080fd5b80634c8948c9116102825780636ce850e3116102255780636ce850e314610612578063715018a614610625578063718da7ee1461063a57806375c9007c1461065a57806375d39c7c1461067a57806376c128221461069a5780637d207e3a146106c75780637e6706d3146106f457600080fd5b80634c8948c91461052f57806356a06235146105445780635a04fb691461055a5780635bfadb241461057a5780635c975abb1461059a5780635cc36cde146105b25780635e92b2cf146105d2578063618df7a3146105f257600080fd5b8063072793571461035057806307873ef11461037657806308f12470146103965780630d4f581a146103c35780631033218f146103e3578063148564e8146103f9578063181550e6146104265780631982242c146104535780631d111d13146104685780631ff5ea6f1461047f5780632a697129146104955780632aaa7655146104aa578063332f26d7146104bd57806339747ac0146104ea578063475831c81461051a57600080fd5b3661034b57346013600082825461034391906150d7565b925050819055005b600080fd5b61036361035e3660046151ca565b610afd565b6040519081526020015b60405180910390f35b34801561038257600080fd5b50610363610391366004615250565b610ceb565b3480156103a257600080fd5b506103b66103b136600461526d565b610d12565b60405161036d919061537c565b3480156103cf57600080fd5b506103b66103de36600461526d565b610e64565b3480156103ef57600080fd5b5061036360025481565b34801561040557600080fd5b5061041961041436600461538f565b610e7f565b60405161036d9190615437565b34801561043257600080fd5b50610446610441366004615250565b610edb565b60405161036d919061544a565b34801561045f57600080fd5b50610363610fc1565b34801561047457600080fd5b5061047d610fe2565b005b34801561048b57600080fd5b5061036360125481565b3480156104a157600080fd5b506103636110e4565b61047d6104b83660046154ac565b61110a565b3480156104c957600080fd5b506104dd6104d83660046154d8565b611438565b60405161036d919061550d565b3480156104f657600080fd5b5061050a610505366004615250565b61157d565b604051901515815260200161036d565b34801561052657600080fd5b50610363611600565b34801561053b57600080fd5b50600654610363565b34801561055057600080fd5b5061036360015481565b34801561056657600080fd5b5061047d610575366004615562565b61160c565b34801561058657600080fd5b5061047d610595366004615592565b611791565b3480156105a657600080fd5b5060005460ff1661050a565b3480156105be57600080fd5b506103636105cd366004615250565b611822565b3480156105de57600080fd5b506104466105ed366004615592565b611843565b3480156105fe57600080fd5b506103b661060d36600461538f565b611969565b61047d610620366004615592565b6119be565b34801561063157600080fd5b5061047d611bcf565b34801561064657600080fd5b5061047d610655366004615250565b611be3565b34801561066657600080fd5b5061041961067536600461526d565b611c0d565b34801561068657600080fd5b5061047d610695366004615562565b611cd1565b3480156106a657600080fd5b506106ba6106b5366004615592565b611ddb565b60405161036d91906155db565b3480156106d357600080fd5b506014546106e7906001600160a01b031681565b60405161036d919061561d565b34801561070057600080fd5b5061071461070f36600461526d565b611f14565b60405161036d9190615631565b34801561072d57600080fd5b5061036361073c366004615592565b611f76565b34801561074d57600080fd5b5061047d61075c366004615250565b611f96565b34801561076d57600080fd5b506106e7611fc0565b34801561078257600080fd5b5061047d61079136600461526d565b611fd4565b3480156107a257600080fd5b5061036360045481565b3480156107b857600080fd5b5061047d6107c736600461538f565b611fe1565b3480156107d857600080fd5b5061047d6107e736600461526d565b61205c565b3480156107f857600080fd5b5061071461080736600461526d565b612069565b34801561081857600080fd5b5061047d61082736600461526d565b612080565b34801561083857600080fd5b506106ba610847366004615592565b61208b565b34801561085857600080fd5b506104dd610867366004615250565b6121c4565b61047d61087a3660046154ac565b6122a2565b34801561088b57600080fd5b50610363612629565b3480156108a057600080fd5b506103636108af366004615592565b612635565b3480156108c057600080fd5b5061047d6108cf366004615592565b61264d565b6103636108e236600461563f565b6126bf565b3480156108f357600080fd5b5061047d61090236600461526d565b61294b565b34801561091357600080fd5b50610363610922366004615250565b612956565b34801561093357600080fd5b5061047d6109423660046156e4565b612974565b34801561095357600080fd5b5061036360135481565b34801561096957600080fd5b506104dd610978366004615250565b612a2b565b34801561098957600080fd5b5061099d610998366004615775565b612b09565b60405161036d9190615853565b3480156109b657600080fd5b506109f36109c5366004615250565b600e602052600090815260409020805460018201546002909201546001600160a01b03918216929091169083565b60405161036d9392919061588b565b348015610a0e57600080fd5b50610363610a1d366004615250565b612c52565b610363610a303660046158af565b612c73565b348015610a4157600080fd5b50610363610a50366004615250565b612f5b565b610363610a6336600461592e565b612f7c565b348015610a7457600080fd5b506103b6610a8336600461538f565b613190565b348015610a9457600080fd5b5061047d610aa3366004615250565b6131e5565b348015610ab457600080fd5b506003546106e7906001600160a01b031681565b348015610ad457600080fd5b50610419610ae336600461526d565b61325b565b348015610af457600080fd5b50600554610363565b6000428311610b275760405162461bcd60e51b8152600401610b1e90615990565b60405180910390fd5b60145460405163526f812b60e11b81526001600160a01b039091169063a4df025690610b5790339060040161561d565b602060405180830381865afa158015610b74573d6000803e3d6000fd5b505050506040513d601f19601f82011682018060405250810190610b9891906159c7565b158015610c165750601254601454604051633aecd0e360e01b81526001600160a01b0390911690633aecd0e390610bd390339060040161561d565b602060405180830381865afa158015610bf0573d6000803e3d6000fd5b505050506040513d601f19601f82011682018060405250810190610c1491906159e4565b105b15610c9457600154341015610c3d5760405162461bcd60e51b8152600401610b1e906159fd565b60015460046000828254610c5191906150d7565b90915550506003546001546040516001600160a01b039092169181156108fc0291906000818181858888f19350505050158015610c92573d6000803e3d6000fd5b505b610ca7878787878760008060008a61327e565b9050610cb5863330876132ca565b80600080516020615f6383398151915287898787604051610cd99493929190615a34565b60405180910390a29695505050505050565b6001600160a01b0381166000908152600760205260408120610d0c9061341b565b92915050565b610d1a614f40565b6005610d2583613425565b81548110610d3557610d35615a5d565b60009182526020918290206040805161016081018252600b9093029091018054835260018101546001600160a01b03908116948401949094526002810154909316908201526003820154606082015260048201546080820152600582015460a0820152600682015460c0820152600782015460e082015260088201546101008201526009820154610120820152600a8201805491929161014084019190610ddb90615a73565b80601f0160208091040260200160405190810160405280929190818152602001828054610e0790615a73565b8015610e545780601f10610e2957610100808354040283529160200191610e54565b820191906000526020600020905b815481529060010190602001808311610e3757829003601f168201915b5050505050815250509050919050565b610e6c614f40565b60058281548110610d3557610d35615a5d565b610e87614fac565b81610e9184611822565b11610eae5760405162461bcd60e51b8152600401610b1e90615aa7565b6001600160a01b0383166000908152600960205260409020610ed490610ae3908461347d565b9392505050565b6001600160a01b038116600090815260096020526040812060609190610f009061341b565b90506000816001600160401b03811115610f1c57610f1c615128565b604051908082528060200260200182016040528015610f5557816020015b610f42614fac565b815260200190600190039081610f3a5790505b50905060005b82811015610fb9576001600160a01b0385166000908152600960205260409020610f8990610ae3908361347d565b828281518110610f9b57610f9b615a5d565b60200260200101819052508080610fb190615ace565b915050610f5b565b509392505050565b6000610fcb611600565b610fd3612629565b610fdd91906150d7565b905090565b610fea613489565b6000601354116110475760405162461bcd60e51b815260206004820152602260248201527f6e6f20657874726120424e4220617661696c61626c6520746f20776974686472604482015261617760f01b6064820152608401610b1e565b6003546013546040516000926001600160a01b031691908381818185875af1925050503d8060008114611096576040519150601f19603f3d011682016040523d82523d6000602084013e61109b565b606091505b50509050806110e15760405162461bcd60e51b81526020600482015260126024820152711dda5d1a191c985dd093908819985a5b195960721b6044820152606401610b1e565b50565b6000610fdd60106040516110f790615ae7565b908152602001604051809103902061341b565b82611114816134e8565b5060006006611122866134e8565b8154811061113257611132615a5d565b600091825260209091206001600a90920201908101549091506001600160a01b031633146111725760405162461bcd60e51b8152600401610b1e90615af6565b6008810154156111945760405162461bcd60e51b8152600401610b1e90615b38565b60008311806111a35750600084115b156113655760145460405163526f812b60e11b81526001600160a01b039091169063a4df0256906111d890339060040161561d565b602060405180830381865afa1580156111f5573d6000803e3d6000fd5b505050506040513d601f19601f8201168201806040525081019061121991906159c7565b1580156112975750601254601454604051633aecd0e360e01b81526001600160a01b0390911690633aecd0e39061125490339060040161561d565b602060405180830381865afa158015611271573d6000803e3d6000fd5b505050506040513d601f19601f8201168201806040525081019061129591906159e4565b105b15611365576001543410156112be5760405162461bcd60e51b8152600401610b1e90615b63565b6003546001546040516000926001600160a01b031691908381818185875af1925050503d806000811461130d576040519150601f19603f3d011682016040523d82523d6000602084013e611312565b606091505b50509050806113635760405162461bcd60e51b815260206004820181905260248201527f656469744c6f636b424e423a20666565207472616e73666572206661696c65646044820152606401610b1e565b505b82156113a2578060040154831015801561137e57504283115b61139a5760405162461bcd60e51b8152600401610b1e90615b96565b600481018390555b83156114315780600201548410156113cc5760405162461bcd60e51b8152600401610b1e90615c00565b60008160020154856113de9190615c51565b9050801561142f57600282018590553481111561142f5760405162461bcd60e51b815260206004820152600f60248201526e39b437bab632103830bc903234b33360891b6044820152606401610b1e565b505b5050505050565b6001600160a01b0383166000908152600f6020526040902060609061145c9061341b565b8210611493576001600160a01b0384166000908152600f602052604090206001906114869061341b565b6114909190615c51565b91505b600061149f8484615c51565b6114aa9060016150d7565b90506000816001600160401b038111156114c6576114c6615128565b6040519080825280602002602001820160405280156114ff57816020015b6114ec614f40565b8152602001906001900390816114e45790505b5090506000855b858111611571576001600160a01b0388166000908152600f60205260409020611533906103b1908361347d565b83838151811061154557611545615a5d565b6020026020010181905250818061155b90615ace565b925050808061156990615ace565b915050611506565b50909695505050505050565b6000816001600160a01b031663c45a01556040518163ffffffff1660e01b8152600401602060405180830381865afa9250505080156115d9575060408051601f3d908101601f191682019092526115d691810190615c68565b60015b6115e557506000919050565b6001600160a01b038116156115f957600191505b505b919050565b6000610fdd600c61341b565b8161161681613425565b506000600561162485613425565b8154811061163457611634615a5d565b60009182526020909120600b9091020160028101549091506001600160a01b03163381146116745760405162461bcd60e51b8152600401610b1e90615af6565b6002820180546001600160a01b0319166001600160a01b038681169190911790915560018084015482166000908152600e602052604090209081015490911615801590611706576001600160a01b03831660009081526007602052604090206116dd9088613540565b506001600160a01b0386166000908152600760205260409020611700908861354c565b5061174d565b6001600160a01b03831660009081526008602052604090206117289088613540565b506001600160a01b038616600090815260086020526040902061174b908861354c565b505b7f9075ad040756c0d8743a1fed927066a92c4755071615bf61e04b17583d961caf87848860405161178093929190615c85565b60405180910390a150505050505050565b8161179b81613425565b50600060056117a985613425565b815481106117b9576117b9615a5d565b600091825260209091206002600b90920201908101549091506001600160a01b031633146117f95760405162461bcd60e51b8152600401610b1e90615af6565b6006810154156118125761180d8184613558565b61181c565b61181c81846138b7565b50505050565b6001600160a01b0381166000908152600960205260408120610d0c9061341b565b606061185660106040516110f790615ae7565b821061187c57600161186f60106040516110f790615ae7565b6118799190615c51565b91505b60006118888484615c51565b6118939060016150d7565b90506000816001600160401b038111156118af576118af615128565b6040519080825280602002602001820160405280156118e857816020015b6118d5614fac565b8152602001906001900390816118cd5790505b5090506000855b85811161195e57611920610ae382601060405161190b90615ae7565b9081526040519081900360200190209061347d565b83838151811061193257611932615a5d565b6020026020010181905250818061194890615ace565b925050808061195690615ace565b9150506118ef565b509095945050505050565b611971614f40565b8161197b84612f5b565b116119985760405162461bcd60e51b8152600401610b1e90615aa7565b6001600160a01b0383166000908152600860205260409020610ed4906103b1908461347d565b60008211611a005760405162461bcd60e51b815260206004820152600f60248201526e1a5b9d985b1a59081b1bd8dac81a59608a1b6044820152606401610b1e565b60006006611a0d846134e8565b81548110611a1d57611a1d615a5d565b90600052602060002090600a020190508060040154821015611a515760405162461bcd60e51b8152600401610b1e90615ca4565b60018101546001600160a01b03163314611a7d5760405162461bcd60e51b8152600401610b1e90615af6565b600881015415611a9f5760405162461bcd60e51b8152600401610b1e90615cd6565b8054336000908152600960205260409020611ab991613540565b506002810154600882018190558154604051611af19190601090611adc90615ae7565b90815260405190819003602001902090613540565b50604051600090339083908381818185875af1925050503d8060008114611b34576040519150601f19603f3d011682016040523d82523d6000602084013e611b39565b606091505b5050905080611b7b5760405162461bcd60e51b815260206004820152600e60248201526d1d1c985b99995c8819985a5b195960921b6044820152606401610b1e565b825460018401546040517f8af7b343ac14ff86ea14bc075fc0e761855633f85e24d12ff785b0673a22879591611bc0916001600160a01b039091169086908990615d01565b60405180910390a25050505050565b611bd7613489565b611be16000613a74565b565b611beb613489565b600380546001600160a01b0319166001600160a01b0392909216919091179055565b611c15614fac565b60068281548110611c2857611c28615a5d565b90600052602060002090600a020160405180610140016040529081600082015481526020016001820160009054906101000a90046001600160a01b03166001600160a01b03166001600160a01b0316815260200160028201548152602001600382015481526020016004820154815260200160058201548152602001600682015481526020016007820154815260200160088201548152602001600982018054610ddb90615a73565b81611cdb816134e8565b5060006006611ce9856134e8565b81548110611cf957611cf9615a5d565b60009182526020909120600a9091020160018101549091506001600160a01b0316338114611d395760405162461bcd60e51b8152600401610b1e90615af6565b6001820180546001600160a01b0319166001600160a01b038681169190911790915581166000908152600960205260409020611d759086613540565b506001600160a01b0384166000908152600960205260409020611d98908661354c565b507f9075ad040756c0d8743a1fed927066a92c4755071615bf61e04b17583d961caf858286604051611dcc93929190615c85565b60405180910390a15050505050565b6060611de7600c61341b565b8210611e06576001611df9600c61341b565b611e039190615c51565b91505b6000611e128484615c51565b611e1d9060016150d7565b90506000816001600160401b03811115611e3957611e39615128565b604051908082528060200260200182016040528015611e7257816020015b611e5f615008565b815260200190600190039081611e575790505b5090506000855b85811161195e57600e6000611e8f600c8461347d565b6001600160a01b03908116825260208083019390935260409182016000208251606081018452815483168152600182015490921693820193909352600290920154908201528351849084908110611ee857611ee8615a5d565b60200260200101819052508180611efe90615ace565b9250508080611f0c90615ace565b915050611e79565b611f1c615008565b600e6000611f2b600c8561347d565b6001600160a01b039081168252602080830193909352604091820160002082516060810184528154831681526001820154909216938201939093526002909201549082015292915050565b600080611f828461325b565b9050611f8e8184613acd565b949350505050565b611f9e613489565b601480546001600160a01b0319166001600160a01b0392909216919091179055565b60005461010090046001600160a01b031690565b611fdc613489565b600255565b611fe9613489565b60405163a9059cbb60e01b815282906001600160a01b0382169063a9059cbb906120199033908690600401615d22565b6020604051808303816000875af1158015612038573d6000803e3d6000fd5b505050506040513d601f19601f8201168201806040525081019061181c91906159c7565b612064613489565b600155565b612071615008565b600e6000611f2b600a8561347d565b6110e181600061160c565b6060612097600a61341b565b82106120b65760016120a9600a61341b565b6120b39190615c51565b91505b60006120c28484615c51565b6120cd9060016150d7565b90506000816001600160401b038111156120e9576120e9615128565b60405190808252806020026020018201604052801561212257816020015b61210f615008565b8152602001906001900390816121075790505b5090506000855b85811161195e57600e600061213f600a8461347d565b6001600160a01b0390811682526020808301939093526040918201600020825160608101845281548316815260018201549092169382019390935260029092015490820152835184908490811061219857612198615a5d565b602002602001018190525081806121ae90615ace565b92505080806121bc90615ace565b915050612129565b6001600160a01b0381166000908152600760205260408120606091906121e99061341b565b90506000816001600160401b0381111561220557612205615128565b60405190808252806020026020018201604052801561223e57816020015b61222b614f40565b8152602001906001900390816122235790505b50905060005b82811015610fb9576001600160a01b0385166000908152600760205260409020612272906103b1908361347d565b82828151811061228457612284615a5d565b6020026020010181905250808061229a90615ace565b915050612244565b826122ac81613425565b50600060056122ba86613425565b815481106122ca576122ca615a5d565b600091825260209091206002600b90920201908101549091506001600160a01b0316331461230a5760405162461bcd60e51b8152600401610b1e90615af6565b60098101541561232c5760405162461bcd60e51b8152600401610b1e90615b38565b600083118061233b5750600084115b156124fd5760145460405163526f812b60e11b81526001600160a01b039091169063a4df02569061237090339060040161561d565b602060405180830381865afa15801561238d573d6000803e3d6000fd5b505050506040513d601f19601f820116820180604052508101906123b191906159c7565b15801561242f5750601254601454604051633aecd0e360e01b81526001600160a01b0390911690633aecd0e3906123ec90339060040161561d565b602060405180830381865afa158015612409573d6000803e3d6000fd5b505050506040513d601f19601f8201168201806040525081019061242d91906159e4565b105b156124fd576001543410156124565760405162461bcd60e51b8152600401610b1e90615b63565b6003546001546040516000926001600160a01b031691908381818185875af1925050503d80600081146124a5576040519150601f19603f3d011682016040523d82523d6000602084013e6124aa565b606091505b50509050806124fb5760405162461bcd60e51b815260206004820152601d60248201527f656469744c6f636b3a20666565207472616e73666572206661696c65640000006044820152606401610b1e565b505b821561253a578060050154831015801561251657504283115b6125325760405162461bcd60e51b8152600401610b1e90615b96565b600581018390555b83156125d45780600301548410156125645760405162461bcd60e51b8152600401610b1e90615c00565b60008160030154856125769190615c51565b905080156125d2576003820185905560018201546001600160a01b03166000908152600e6020526040902060028101546125b19083906150d7565b600282015560018301546125d0906001600160a01b03163330856132ca565b505b505b805460018201546002830154600384015460058501546040517fa8b26360df8d5e154ffa5a8a7e894e85f781acfbbef0b744fb9551d8fd0fd36c94611bc0946001600160a01b03918216949116929091615a34565b6000610fdd600a61341b565b60008061264184610d12565b9050611f8e8184613bed565b81612657816134e8565b5060006006612665856134e8565b8154811061267557612675615a5d565b600091825260209091206001600a90920201908101549091506001600160a01b031633146126b55760405162461bcd60e51b8152600401610b1e90615af6565b61181c8184613cfa565b60004286116126e05760405162461bcd60e51b8152600401610b1e90615d3b565b600084116127005760405162461bcd60e51b8152600401610b1e90615d70565b600085118015612711575061271085105b61272d5760405162461bcd60e51b8152600401610b1e90615d97565b60008311801561273e575061271083105b61275a5760405162461bcd60e51b8152600401610b1e90615dc5565b61271061276784876150d7565b11156127855760405162461bcd60e51b8152600401610b1e90615df5565b60145460405163526f812b60e11b81526001600160a01b039091169063a4df0256906127b590339060040161561d565b602060405180830381865afa1580156127d2573d6000803e3d6000fd5b505050506040513d601f19601f820116820180604052508101906127f691906159c7565b1580156128745750601254601454604051633aecd0e360e01b81526001600160a01b0390911690633aecd0e39061283190339060040161561d565b602060405180830381865afa15801561284e573d6000803e3d6000fd5b505050506040513d601f19601f8201168201806040525081019061287291906159e4565b105b156128f25760015434101561289b5760405162461bcd60e51b8152600401610b1e906159fd565b600154600460008282546128af91906150d7565b90915550506003546001546040516001600160a01b039092169181156108fc0291906000818181858888f193505050501580156128f0573d6000803e3d6000fd5b505b6129038a8a8a8a8a8a8a8a8a61327e565b90506129118933308a6132ca565b80600080516020615f638339815191528a8c8a8a6040516129359493929190615a34565b60405180910390a25b9998505050505050505050565b6110e1816000611cd1565b600061296182610ceb565b61296a83612f5b565b610d0c91906150d7565b8161297e81613425565b506000600561298c85613425565b8154811061299c5761299c615a5d565b600091825260209091206002600b90920201908101549091506001600160a01b031633146129dc5760405162461bcd60e51b8152600401610b1e90615af6565b82516129f190600a8301906020860190615028565b506040518481527fe4a1120fd509c50aec65802fd3c3c9a4b72bf746fe9a552396185c6de928e8aa9060200160405180910390a150505050565b6001600160a01b038116600090815260086020526040812060609190612a509061341b565b90506000816001600160401b03811115612a6c57612a6c615128565b604051908082528060200260200182016040528015612aa557816020015b612a92614f40565b815260200190600190039081612a8a5790505b50905060005b82811015610fb9576001600160a01b0385166000908152600860205260409020612ad9906103b1908361347d565b828281518110612aeb57612aeb615a5d565b60200260200101819052508080612b0190615ace565b915050612aab565b60608a8914612b4e5760405162461bcd60e51b815260206004820152601160248201527013195b99dd1a081b5a5cdb585d18da1959607a1b6044820152606401610b1e565b428611612b6d5760405162461bcd60e51b8152600401610b1e90615d3b565b60008411612b8d5760405162461bcd60e51b8152600401610b1e90615d70565b600085118015612b9e575061271085105b612bba5760405162461bcd60e51b8152600401610b1e90615d97565b600083118015612bcb575061271083105b612be75760405162461bcd60e51b8152600401610b1e90615dc5565b612710612bf484876150d7565b1115612c125760405162461bcd60e51b8152600401610b1e90615df5565b612c428c8c8c8c8c8c60405180608001604052808e81526020018d81526020018c81526020018b81525089613f93565b9c9b505050505050505050505050565b6001600160a01b0381166000908152600f60205260408120610d0c9061341b565b6000428611612cc25760405162461bcd60e51b815260206004820152601b60248201527a506c656173652073657420612076616c696420544745206461746560281b6044820152606401610b1e565b60008411612ce25760405162461bcd60e51b8152600401610b1e90615d70565b600085118015612cf3575061271085105b612d0f5760405162461bcd60e51b8152600401610b1e90615d97565b600083118015612d20575061271083105b612d3c5760405162461bcd60e51b8152600401610b1e90615dc5565b612710612d4984876150d7565b1115612d675760405162461bcd60e51b8152600401610b1e90615df5565b60145460405163526f812b60e11b81526001600160a01b039091169063a4df025690612d9790339060040161561d565b602060405180830381865afa158015612db4573d6000803e3d6000fd5b505050506040513d601f19601f82011682018060405250810190612dd891906159c7565b158015612e565750601254601454604051633aecd0e360e01b81526001600160a01b0390911690633aecd0e390612e1390339060040161561d565b602060405180830381865afa158015612e30573d6000803e3d6000fd5b505050506040513d601f19601f82011682018060405250810190612e5491906159e4565b105b15612ee35786600254612e6991906150d7565b341015612e885760405162461bcd60e51b8152600401610b1e90615e47565b60025460046000828254612e9c91906150d7565b90915550506003546002546040516001600160a01b039092169181156108fc0291906000818181858888f19350505050158015612edd573d6000803e3d6000fd5b50612f03565b86341015612f035760405162461bcd60e51b8152600401610b1e90615e7e565b612f1288888888888888614151565b9050807f20f7c5268098786f509c1f28cb089b96f36d68b9e1c572febdb5847f5ecb2897898989604051612f4893929190615d01565b60405180910390a2979650505050505050565b6001600160a01b0381166000908152600860205260408120610d0c9061341b565b6000428311612f9d5760405162461bcd60e51b8152600401610b1e90615990565b60145460405163526f812b60e11b81526001600160a01b039091169063a4df025690612fcd90339060040161561d565b602060405180830381865afa158015612fea573d6000803e3d6000fd5b505050506040513d601f19601f8201168201806040525081019061300e91906159c7565b15801561308c5750601254601454604051633aecd0e360e01b81526001600160a01b0390911690633aecd0e39061304990339060040161561d565b602060405180830381865afa158015613066573d6000803e3d6000fd5b505050506040513d601f19601f8201168201806040525081019061308a91906159e4565b105b15613119578360015461309f91906150d7565b3410156130be5760405162461bcd60e51b8152600401610b1e90615e47565b600154600460008282546130d291906150d7565b90915550506003546001546040516001600160a01b039092169181156108fc0291906000818181858888f19350505050158015613113573d6000803e3d6000fd5b50613139565b833410156131395760405162461bcd60e51b8152600401610b1e90615e7e565b61314a858585600080600088614151565b9050807f20f7c5268098786f509c1f28cb089b96f36d68b9e1c572febdb5847f5ecb289786868660405161318093929190615d01565b60405180910390a2949350505050565b613198614f40565b816131a284610ceb565b116131bf5760405162461bcd60e51b8152600401610b1e90615aa7565b6001600160a01b0383166000908152600760205260409020610ed4906103b1908461347d565b6131ed613489565b6001600160a01b0381166132525760405162461bcd60e51b815260206004820152602660248201527f4f776e61626c653a206e6577206f776e657220697320746865207a65726f206160448201526564647265737360d01b6064820152608401610b1e565b6110e181613a74565b613263614fac565b600661326e836134e8565b81548110611c2857611c28615a5d565b600087156132ac5760006132918a6141bb565b90506132a48b8b838b8b8b8b8b8b6142cf565b91505061293e565b6132bc8a8a8989898989896143a8565b9a9950505050505050505050565b6040516370a0823160e01b81526000906001600160a01b038616906370a08231906132f990869060040161561d565b602060405180830381865afa158015613316573d6000803e3d6000fd5b505050506040513d601f19601f8201168201806040525081019061333a91906159e4565b90506133516001600160a01b03861685858561447a565b6040516370a0823160e01b81526000906001600160a01b038716906370a082319061338090879060040161561d565b602060405180830381865afa15801561339d573d6000803e3d6000fd5b505050506040513d601f19601f820116820180604052508101906133c191906159e4565b9050826133ce8383615c51565b1461142f5760405162461bcd60e51b815260206004820181905260248201527f4e6f7420656e6f75676820746f6b656e20776173207472616e736665727265646044820152606401610b1e565b6000610d0c825490565b6000620f424082101561344a5760405162461bcd60e51b8152600401610b1e90615eb3565b6000613459620f424084615c51565b6005549091508110610d0c5760405162461bcd60e51b8152600401610b1e90615eb3565b6000610ed483836144d2565b33613492611fc0565b6001600160a01b031614611be15760405162461bcd60e51b815260206004820181905260248201527f4f776e61626c653a2063616c6c6572206973206e6f7420746865206f776e65726044820152606401610b1e565b6000620f424082101561350d5760405162461bcd60e51b8152600401610b1e90615eb3565b600061351c620f424084615c51565b6006549091508110610d0c5760405162461bcd60e51b8152600401610b1e90615eb3565b6000610ed483836144fc565b6000610ed483836145ef565b60408051610160810182528354815260018401546001600160a01b039081166020830152600285015416918101919091526003830154606082015260048301546080820152600583015460a0820152600683015460c0820152600783015460e082015260088301546101008201526009830154610120820152600a8301805460009261367992909186916101408401916135f190615a73565b80601f016020809104026020016040519081016040528092919081815260200182805461361d90615a73565b801561366a5780601f1061363f5761010080835404028352916020019161366a565b820191906000526020600020905b81548152906001019060200180831161364d57829003601f168201915b50505050508152505083613bed565b9050600081846009015461368d91906150d7565b90506000821180156136a3575083600301548111155b6136bf5760405162461bcd60e51b8152600401610b1e90615cd6565b6001808501546001600160a01b039081166000908152600e60205260409020918201546003870154911615159083036137ac57801561371857855433600090815260076020526040902061371291613540565b50613734565b855433600090815260086020526040902061373291613540565b505b855460018701546001600160a01b03166000908152600f6020526040902061375b91613540565b50855460018701546040517fc6532367992b32e42a62dd89fc3574876d97d081a263aa6e030f34b79b7e6e8b916137a3916001600160a01b0390911690339088904290615a34565b60405180910390a25b838260020154116137c357600060028301556137d9565b8382600201546137d39190615c51565b60028301555b816002015460000361382757801561380b57600186015461380590600a906001600160a01b031661463e565b50613827565b600186015461382590600c906001600160a01b031661463e565b505b600986018390556002860154600187015461384f916001600160a01b03918216911686614653565b855460018701546003880154604080516001600160a01b039093168352336020840152820187905260608201524260808201527ff93385ffdf40b698b13993c059834b8e91d0ca8e7abf827a34001ca03c03f6ff9060a00160405180910390a2505050505050565b81600501548110156138db5760405162461bcd60e51b8152600401610b1e90615ca4565b6009820154156138fd5760405162461bcd60e51b8152600401610b1e90615cd6565b6001808301546001600160a01b039081166000908152600e6020526040902091820154161580159061394957835433600090815260076020526040902061394391613540565b50613965565b835433600090815260086020526040902061396391613540565b505b6003840154600283015481106139815760006002840155613997565b8083600201546139919190615c51565b60028401555b82600201546000036139e55781156139c95760018501546139c390600a906001600160a01b031661463e565b506139e5565b60018501546139e390600c906001600160a01b031661463e565b505b60098501819055845460018601546001600160a01b03166000908152600f60205260409020613a1391613540565b506001850154613a2d906001600160a01b03163383614653565b845460018601546040517fc6532367992b32e42a62dd89fc3574876d97d081a263aa6e030f34b79b7e6e8b91611bc0916001600160a01b0390911690339086908a90615a34565b600080546001600160a01b03838116610100818102610100600160a81b0319851617855560405193049190911692909183917f8be0079c531659141344cd1fd0a4f28419497f9722a3daafe3b4186f6b6457e091a35050565b60008260400151600003613ae357506000610d0c565b826040015183610100015110613afb57506000610d0c565b8260800151821015613b0f57506000610d0c565b8260c00151600003613b2357506000610d0c565b60006127108460a001518560400151613b3c9190615edc565b613b469190615efb565b90506000613b5f85604001518660e00151612710614677565b9050600085608001518510613ba65782828760c00151886080015188613b859190615c51565b613b8f9190615efb565b613b999190615edc565b613ba391906150d7565b90505b60008660400151821115613bd0578661010001518760400151613bc99190615c51565b9050613be3565b610100870151613be09083615c51565b90505b9695505050505050565b60008260600151600003613c0357506000610d0c565b826060015183610120015110613c1b57506000610d0c565b8260a00151821015613c2f57506000610d0c565b8260e00151600003613c4357506000610d0c565b60006127108460c001518560600151613c5c9190615edc565b613c669190615efb565b90506000613c808560600151866101000151612710614677565b905060008560a001518510613cc75782828760e001518860a0015188613ca69190615c51565b613cb09190615efb565b613cba9190615edc565b613cc491906150d7565b90505b60008660600151821115613cea578661012001518760600151613bc99190615c51565b610120870151613be09083615c51565b60408051610140810182528354815260018401546001600160a01b031660208201526002840154918101919091526003830154606082015260048301546080820152600583015460a0820152600683015460c0820152600783015460e08201526008830154610100820152600983018054600092613e0d9290918691610120840191613d8590615a73565b80601f0160208091040260200160405190810160405280929190818152602001828054613db190615a73565b8015613dfe5780601f10613dd357610100808354040283529160200191613dfe565b820191906000526020600020905b815481529060010190602001808311613de157829003601f168201915b50505050508152505083613acd565b90506000818460080154613e2191906150d7565b9050600082118015613e37575083600201548111155b613e535760405162461bcd60e51b8152600401610b1e90615cd6565b83600201548103613ede578354336000908152600960205260409020613e7891613540565b50613e8f84600001546010604051611adc90615ae7565b50835460018501546040517f8af7b343ac14ff86ea14bc075fc0e761855633f85e24d12ff785b0673a22879591613ed5916001600160a01b039091169085904290615d01565b60405180910390a25b6008840181905560018401546040516000916001600160a01b03169084908381818185875af1925050503d8060008114613f34576040519150601f19603f3d011682016040523d82523d6000602084013e613f39565b606091505b5050905080613f4757600080fd5b845460028601546040805133815260208101879052908101919091524260608201527f424477c0327de1b72ffa5652aa7ee249aa1216cc8f54b62a11fbd96d44ac68aa90608001611bc0565b60606000613fa18888614725565b9050886000816001600160401b03811115613fbe57613fbe615128565b604051908082528060200260200182016040528015613fe7578160200160208202803683370190505b50905060005b828110156141355761406b8d8d8381811061400a5761400a615a5d565b905060200201602081019061401f9190615250565b8a8a8e8e8681811061403357614033615a5d565b905060200201358b60006004811061404d5761404d615a5d565b60209081029190910151908d015160408e015160608f01518e61327e565b82828151811061407d5761407d615a5d565b60200260200101818152505081818151811061409b5761409b615a5d565b6020026020010151600080516020615f638339815191528a8f8f858181106140c5576140c5615a5d565b90506020020160208101906140da9190615250565b8e8e868181106140ec576140ec615a5d565b905060200201358b60006004811061410657614106615a5d565b602002015160405161411b9493929190615a34565b60405180910390a28061412d81615ace565b915050613fed565b50614142883330866132ca565b9b9a5050505050505050505050565b6000614162888888888888886147c8565b6001600160a01b0389166000908152600960205260409020909150614187908261354c565b506141af81601060405161419a90615ae7565b9081526040519081900360200190209061354c565b50979650505050505050565b600080826001600160a01b031663c45a01556040518163ffffffff1660e01b8152600401602060405180830381865afa925050508015614218575060408051601f3d908101601f1916820190925261421591810190615c68565b60015b6142645760405162461bcd60e51b815260206004820152601c60248201527f5468697320746f6b656e206973206e6f742061204c5020746f6b656e000000006044820152606401610b1e565b90506001600160a01b0381161580159061428357506142838382614a05565b610d0c5760405162461bcd60e51b815260206004820152601d60248201527f5468697320746f6b656e206973206e6f742061204c5020746f6b656e2e0000006044820152606401610b1e565b60006142e18a8a898989898989614b68565b6001600160a01b038b166000908152600760205260409020909150614306908261354c565b50614312600a8a614ced565b506001600160a01b03808a166000908152600e6020526040902080549091166143625780546001600160a01b03808c166001600160a01b0319928316178355600183018054918c16919092161790555b87816002015461437291906150d7565b60028201556001600160a01b038a166000908152600f60205260409020614399908361354c565b50509998505050505050505050565b60006143ba8989898989898989614b68565b6001600160a01b038a1660009081526008602052604090209091506143df908261354c565b506143eb600c89614ced565b506001600160a01b038089166000908152600e6020526040902080549091166144355780546001600160a01b038a166001600160a01b031991821617825560018201805490911690555b87816002015461444591906150d7565b60028201556001600160a01b0389166000908152600f6020526040902061446c908361354c565b505098975050505050505050565b61181c846323b872dd60e01b85858560405160240161449b9392919061588b565b60408051601f198184030181529190526020810180516001600160e01b03166001600160e01b031990931692909217909152614d02565b60008260000182815481106144e9576144e9615a5d565b9060005260206000200154905092915050565b600081815260018301602052604081205480156145e5576000614520600183615c51565b855490915060009061453490600190615c51565b905081811461459957600086600001828154811061455457614554615a5d565b906000526020600020015490508087600001848154811061457757614577615a5d565b6000918252602080832090910192909255918252600188019052604090208390555b85548690806145aa576145aa615f1d565b600190038181906000526020600020016000905590558560010160008681526020019081526020016000206000905560019350505050610d0c565b6000915050610d0c565b600081815260018301602052604081205461463657508154600181810184556000848152602080822090930184905584548482528286019093526040902091909155610d0c565b506000610d0c565b6000610ed4836001600160a01b0384166144fc565b6146728363a9059cbb60e01b848460405160240161449b929190615d22565b505050565b60008080600019858709858702925082811083820303915050806000036146b057600084116146a557600080fd5b508290049050610ed4565b8084116146bc57600080fd5b60008486880960026001871981018816978890046003810283188082028403028082028403028082028403028082028403028082028403029081029092039091026000889003889004909101858311909403939093029303949094049190911702949350505050565b600080805b83811015610fb95784848281811061474457614744615a5d565b905060200201356000036147905760405162461bcd60e51b8152602060048201526013602482015272416d6f756e742063616e74206265207a65726f60681b6044820152606401610b1e565b8484828181106147a2576147a2615a5d565b90506020020135826147b491906150d7565b9150806147c081615ace565b91505061472a565b60006147d2614dd7565b6006546147e390620f4240906150d7565b60408051610140810182528281526001600160a01b038b811660208084019182529383018c81524260608501908152608085018d815260a086018d815260c087018d815260e088018d815260006101008a018181526101208b018f81526006805460018101825593528b517ff652222313e28459528d920b65115c16c04f3efc82aaedc97be59f3f377c0d3f600a90940293840190815599517ff652222313e28459528d920b65115c16c04f3efc82aaedc97be59f3f377c0d40840180546001600160a01b03191691909c1617909a5596517ff652222313e28459528d920b65115c16c04f3efc82aaedc97be59f3f377c0d4182015594517ff652222313e28459528d920b65115c16c04f3efc82aaedc97be59f3f377c0d4286015592517ff652222313e28459528d920b65115c16c04f3efc82aaedc97be59f3f377c0d4385015590517ff652222313e28459528d920b65115c16c04f3efc82aaedc97be59f3f377c0d44840155517ff652222313e28459528d920b65115c16c04f3efc82aaedc97be59f3f377c0d45830155517ff652222313e28459528d920b65115c16c04f3efc82aaedc97be59f3f377c0d4682015590517ff652222313e28459528d920b65115c16c04f3efc82aaedc97be59f3f377c0d47820155915180519596509294859491936149f6937ff652222313e28459528d920b65115c16c04f3efc82aaedc97be59f3f377c0d4801920190615028565b50505050979650505050505050565b6000808390506000836001600160a01b031663e6a43905836001600160a01b0316630dfe16816040518163ffffffff1660e01b8152600401602060405180830381865afa158015614a5a573d6000803e3d6000fd5b505050506040513d601f19601f82011682018060405250810190614a7e9190615c68565b846001600160a01b031663d21220a76040518163ffffffff1660e01b8152600401602060405180830381865afa158015614abc573d6000803e3d6000fd5b505050506040513d601f19601f82011682018060405250810190614ae09190615c68565b6040516001600160e01b031960e085901b1681526001600160a01b03928316600482015291166024820152604401602060405180830381865afa158015614b2b573d6000803e3d6000fd5b505050506040513d601f19601f82011682018060405250810190614b4f9190615c68565b6001600160a01b03908116908616149250505092915050565b6000614b72614dd7565b600554614b8390620f4240906150d7565b905060006040518061016001604052808381526020018a6001600160a01b031681526020018b6001600160a01b031681526020018981526020014281526020018881526020018781526020018681526020018581526020016000815260200184815250905060058190806001815401808255809150506001900390600052602060002090600b02016000909190919091506000820151816000015560208201518160010160006101000a8154816001600160a01b0302191690836001600160a01b0316021790555060408201518160020160006101000a8154816001600160a01b0302191690836001600160a01b03160217905550606082015181600301556080820151816004015560a0820151816005015560c0820151816006015560e082015181600701556101008201518160080155610120820151816009015561014082015181600a019080519060200190614cdd929190615028565b5050505098975050505050505050565b6000610ed4836001600160a01b0384166145ef565b6000614d57826040518060400160405280602081526020017f5361666545524332303a206c6f772d6c6576656c2063616c6c206661696c6564815250856001600160a01b0316614e1d9092919063ffffffff16565b9050805160001480614d78575080806020019051810190614d7891906159c7565b6146725760405162461bcd60e51b815260206004820152602a60248201527f5361666545524332303a204552433230206f7065726174696f6e20646964206e6044820152691bdd081cdd58d8d9595960b21b6064820152608401610b1e565b60005460ff1615611be15760405162461bcd60e51b815260206004820152601060248201526f14185d5cd8589b194e881c185d5cd95960821b6044820152606401610b1e565b6060611f8e848460008585600080866001600160a01b03168587604051614e449190615f33565b60006040518083038185875af1925050503d8060008114614e81576040519150601f19603f3d011682016040523d82523d6000602084013e614e86565b606091505b5091509150614e9787838387614ea2565b979650505050505050565b60608315614f11578251600003614f0a576001600160a01b0385163b614f0a5760405162461bcd60e51b815260206004820152601d60248201527f416464726573733a2063616c6c20746f206e6f6e2d636f6e74726163740000006044820152606401610b1e565b5081611f8e565b611f8e8383815115614f265781518083602001fd5b8060405162461bcd60e51b8152600401610b1e9190615f4f565b6040518061016001604052806000815260200160006001600160a01b0316815260200160006001600160a01b0316815260200160008152602001600081526020016000815260200160008152602001600081526020016000815260200160008152602001606081525090565b6040518061014001604052806000815260200160006001600160a01b0316815260200160008152602001600081526020016000815260200160008152602001600081526020016000815260200160008152602001606081525090565b604080516060810182526000808252602082018190529181019190915290565b82805461503490615a73565b90600052602060002090601f016020900481019282615056576000855561509c565b82601f1061506f57805160ff191683800117855561509c565b8280016001018555821561509c579182015b8281111561509c578251825591602001919060010190615081565b506150a89291506150ac565b5090565b5b808211156150a857600081556001016150ad565b634e487b7160e01b600052601160045260246000fd5b600082198211156150ea576150ea6150c1565b500190565b6001600160a01b03811681146110e157600080fd5b80356115fb816150ef565b80151581146110e157600080fd5b80356115fb8161510f565b634e487b7160e01b600052604160045260246000fd5b600082601f83011261514f57600080fd5b81356001600160401b038082111561516957615169615128565b604051601f8301601f19908116603f0116810190828211818310171561519157615191615128565b816040528381528660208588010111156151aa57600080fd5b836020870160208301376000602085830101528094505050505092915050565b60008060008060008060c087890312156151e357600080fd5b86356151ee816150ef565b955060208701356151fe816150ef565b9450604087013561520e8161510f565b9350606087013592506080870135915060a08701356001600160401b0381111561523757600080fd5b61524389828a0161513e565b9150509295509295509295565b60006020828403121561526257600080fd5b8135610ed4816150ef565b60006020828403121561527f57600080fd5b5035919050565b6001600160a01b03169052565b60005b838110156152ae578181015183820152602001615296565b8381111561181c5750506000910152565b600081518084526152d7816020860160208601615293565b601f01601f19169290920160200192915050565b60006101608251845260208301516153066020860182615286565b5060408301516153196040860182615286565b50606083015160608501526080830151608085015260a083015160a085015260c083015160c085015260e083015160e0850152610100808401518186015250610120808401518186015250610140808401518282870152613be3838701826152bf565b602081526000610ed460208301846152eb565b600080604083850312156153a257600080fd5b82356153ad816150ef565b946020939093013593505050565b60006101408251845260208301516153d66020860182615286565b5060408301516040850152606083015160608501526080830151608085015260a083015160a085015260c083015160c085015260e083015160e0850152610100808401518186015250610120808401518282870152613be3838701826152bf565b602081526000610ed460208301846153bb565b6000602080830181845280855180835260408601915060408160051b870101925083870160005b8281101561549f57603f1988860301845261548d8583516153bb565b94509285019290850190600101615471565b5092979650505050505050565b6000806000606084860312156154c157600080fd5b505081359360208301359350604090920135919050565b6000806000606084860312156154ed57600080fd5b83356154f8816150ef565b95602085013595506040909401359392505050565b6000602080830181845280855180835260408601915060408160051b870101925083870160005b8281101561549f57603f198886030184526155508583516152eb565b94509285019290850190600101615534565b6000806040838503121561557557600080fd5b823591506020830135615587816150ef565b809150509250929050565b600080604083850312156155a557600080fd5b50508035926020909101359150565b80516001600160a01b03908116835260208083015190911690830152604090810151910152565b6020808252825182820181905260009190848201906040850190845b818110156115715761560a8385516155b4565b92840192606092909201916001016155f7565b6001600160a01b0391909116815260200190565b60608101610d0c82846155b4565b60008060008060008060008060006101208a8c03121561565e57600080fd5b8935615669816150ef565b985060208a0135615679816150ef565b975060408a01356156898161510f565b965060608a0135955060808a0135945060a08a0135935060c08a0135925060e08a013591506101008a01356001600160401b038111156156c857600080fd5b6156d48c828d0161513e565b9150509295985092959850929598565b600080604083850312156156f757600080fd5b8235915060208301356001600160401b0381111561571457600080fd5b6157208582860161513e565b9150509250929050565b60008083601f84011261573c57600080fd5b5081356001600160401b0381111561575357600080fd5b6020830191508360208260051b850101111561576e57600080fd5b9250929050565b60008060008060008060008060008060006101208c8e03121561579757600080fd5b6001600160401b03808d3511156157ad57600080fd5b6157ba8e8e358f0161572a565b909c509a5060208d01358110156157d057600080fd5b6157e08e60208f01358f0161572a565b909a5098506157f160408e01615104565b97506157ff60608e0161511d565b965060808d0135955060a08d0135945060c08d0135935060e08d01359250806101008e0135111561582f57600080fd5b506158418d6101008e01358e0161513e565b90509295989b509295989b9093969950565b6020808252825182820181905260009190848201906040850190845b818110156115715783518352928401929184019160010161586f565b6001600160a01b039384168152919092166020820152604081019190915260600190565b600080600080600080600060e0888a0312156158ca57600080fd5b87356158d5816150ef565b96506020880135955060408801359450606088013593506080880135925060a0880135915060c08801356001600160401b0381111561591357600080fd5b61591f8a828b0161513e565b91505092959891949750929550565b6000806000806080858703121561594457600080fd5b843561594f816150ef565b9350602085013592506040850135915060608501356001600160401b0381111561597857600080fd5b6159848782880161513e565b91505092959194509250565b6020808252601e908201527f506c656173652073657420612076616c696420556e6c6f636b20446174650000604082015260600190565b6000602082840312156159d957600080fd5b8151610ed48161510f565b6000602082840312156159f657600080fd5b5051919050565b6020808252601f908201527f596f75206861766520746f207061792066656520666f72206c6f636b696e6700604082015260600190565b6001600160a01b0394851681529290931660208301526040820152606081019190915260800190565b634e487b7160e01b600052603260045260246000fd5b600181811c90821680615a8757607f821691505b6020821081036115f957634e487b7160e01b600052602260045260246000fd5b6020808252600d908201526c092dcecc2d8d2c840d2dcc8caf609b1b604082015260600190565b600060018201615ae057615ae06150c1565b5060010190565b6221272160e91b815260030190565b60208082526022908201527f596f7520617265206e6f7420746865206f776e6572206f662074686973206c6f604082015261636b60f01b606082015260800190565b602080825260119082015270131bd8dac81dd85cc81d5b9b1bd8dad959607a1b604082015260600190565b602080825260199082015278119959481c995c5d5a5c9948199bdc88131bd8dac811591a5d603a1b604082015260600190565b60208082526044908201527f4e657720756e6c6f636b2074696d652073686f756c64206e6f7420626520626560408201527f666f7265206f6c6420756e6c6f636b2074696d65206f722063757272656e742060608201526374696d6560e01b608082015260a00190565b60208082526031908201527f4e657720616d6f756e742073686f756c64206e6f74206265206c657373207468604082015270185b8818dd5c9c995b9d08185b5bdd5b9d607a1b606082015260800190565b600082821015615c6357615c636150c1565b500390565b600060208284031215615c7a57600080fd5b8151610ed4816150ef565b9283526001600160a01b03918216602084015216604082015260600190565b6020808252601890820152774974206973206e6f742074696d6520746f20756e6c6f636b60401b604082015260600190565b6020808252601190820152704e6f7468696e6720746f20756e6c6f636b60781b604082015260600190565b6001600160a01b039390931683526020830191909152604082015260600190565b6001600160a01b03929092168252602082015260400190565b6020808252818101527f54474520646174652073686f756c6420626520696e2074686520667574757265604082015260600190565b6020808252600d908201526c496e76616c6964206379636c6560981b604082015260600190565b602080825260149082015273496e76616c6964206269707320666f722054474560601b604082015260600190565b602080825260169082015275496e76616c6964206269707320666f72206379636c6560501b604082015260600190565b60208082526032908201527f53756d206f66205447452062707320616e64206379636c652073686f756c642060408201527106265206c657373207468616e2031303030360741b606082015260800190565b6020808252601f908201527f596f75206861766520746f207061792066656520666f722076657374696e6700604082015260600190565b6020808252601b908201527a496e73756666696369656e7420616d6f756e7420746f206c6f636b60281b604082015260600190565b6020808252600f908201526e125b9d985b1a59081b1bd8dac81a59608a1b604082015260600190565b6000816000190483118215151615615ef657615ef66150c1565b500290565b600082615f1857634e487b7160e01b600052601260045260246000fd5b500490565b634e487b7160e01b600052603160045260246000fd5b60008251615f45818460208701615293565b9190910192915050565b602081526000610ed460208301846152bf56fe694af1cc8727cdd0afbdd53d9b87b69248bd490224e9dd090e788546506e076fa264697066735822122065f7e6a4ed1e1f5b5eafcacf446b9e115a09705103717984bdfa633dd247c76664736f6c634300080d0033",
			"opcodes": "PUSH1 0x80 PUSH1 0x40 MSTORE CALLVALUE DUP1 ISZERO PUSH3 0x11 JUMPI PUSH1 0x0 DUP1 REVERT JUMPDEST POP PUSH1 0x40 MLOAD PUSH3 0x6113 CODESIZE SUB DUP1 PUSH3 0x6113 DUP4 CODECOPY DUP2 ADD PUSH1 0x40 DUP2 SWAP1 MSTORE PUSH3 0x34 SWAP2 PUSH3 0x103 JUMP JUMPDEST PUSH1 0x0 DUP1 SLOAD PUSH1 0xFF NOT AND SWAP1 SSTORE PUSH3 0x49 CALLER PUSH3 0x91 JUMP JUMPDEST PUSH1 0x14 DUP1 SLOAD PUSH1 0x1 PUSH1 0x1 PUSH1 0xA0 SHL SUB SWAP5 DUP6 AND PUSH1 0x1 PUSH1 0x1 PUSH1 0xA0 SHL SUB NOT SWAP2 DUP3 AND OR SWAP1 SWAP2 SSTORE PUSH1 0x11 DUP1 SLOAD SWAP4 SWAP1 SWAP5 AND SWAP3 AND SWAP2 SWAP1 SWAP2 OR SWAP1 SWAP2 SSTORE PUSH1 0x12 SSTORE PUSH6 0x9184E72A000 PUSH1 0x1 DUP2 SWAP1 SSTORE PUSH1 0x2 SSTORE PUSH3 0x14B JUMP JUMPDEST PUSH1 0x0 DUP1 SLOAD PUSH1 0x1 PUSH1 0x1 PUSH1 0xA0 SHL SUB DUP4 DUP2 AND PUSH2 0x100 DUP2 DUP2 MUL PUSH2 0x100 PUSH1 0x1 PUSH1 0xA8 SHL SUB NOT DUP6 AND OR DUP6 SSTORE PUSH1 0x40 MLOAD SWAP4 DIV SWAP2 SWAP1 SWAP2 AND SWAP3 SWAP1 SWAP2 DUP4 SWAP2 PUSH32 0x8BE0079C531659141344CD1FD0A4F28419497F9722A3DAAFE3B4186F6B6457E0 SWAP2 LOG3 POP POP JUMP JUMPDEST PUSH1 0x1 PUSH1 0x1 PUSH1 0xA0 SHL SUB DUP2 AND DUP2 EQ PUSH3 0x100 JUMPI PUSH1 0x0 DUP1 REVERT JUMPDEST POP JUMP JUMPDEST PUSH1 0x0 DUP1 PUSH1 0x0 PUSH1 0x60 DUP5 DUP7 SUB SLT ISZERO PUSH3 0x119 JUMPI PUSH1 0x0 DUP1 REVERT JUMPDEST DUP4 MLOAD PUSH3 0x126 DUP2 PUSH3 0xEA JUMP JUMPDEST PUSH1 0x20 DUP6 ADD MLOAD SWAP1 SWAP4 POP PUSH3 0x139 DUP2 PUSH3 0xEA JUMP JUMPDEST DUP1 SWAP3 POP POP PUSH1 0x40 DUP5 ADD MLOAD SWAP1 POP SWAP3 POP SWAP3 POP SWAP3 JUMP JUMPDEST PUSH2 0x5FB8 DUP1 PUSH3 0x15B PUSH1 0x0 CODECOPY PUSH1 0x0 RETURN INVALID PUSH1 0x80 PUSH1 0x40 MSTORE PUSH1 0x4 CALLDATASIZE LT PUSH2 0x32C JUMPI PUSH1 0x0 CALLDATALOAD PUSH1 0xE0 SHR DUP1 PUSH4 0x80554E9A GT PUSH2 0x1B2 JUMPI DUP1 PUSH4 0xCC64FB7A GT PUSH2 0xED JUMPI DUP1 PUSH4 0xEB3CE7C7 GT PUSH2 0x90 JUMPI DUP1 PUSH4 0xEB3CE7C7 EQ PUSH2 0xA22 JUMPI DUP1 PUSH4 0xEB80BDAE EQ PUSH2 0xA35 JUMPI DUP1 PUSH4 0xEE0C493A EQ PUSH2 0xA55 JUMPI DUP1 PUSH4 0xEEACF786 EQ PUSH2 0xA68 JUMPI DUP1 PUSH4 0xF2FDE38B EQ PUSH2 0xA88 JUMPI DUP1 PUSH4 0xF7260D3E EQ PUSH2 0xAA8 JUMPI DUP1 PUSH4 0xFBA7FD71 EQ PUSH2 0xAC8 JUMPI DUP1 PUSH4 0xFD981C66 EQ PUSH2 0xAE8 JUMPI PUSH1 0x0 DUP1 REVERT JUMPDEST DUP1 PUSH4 0xCC64FB7A EQ PUSH2 0x8E7 JUMPI DUP1 PUSH4 0xCD83EADC EQ PUSH2 0x907 JUMPI DUP1 PUSH4 0xD3CAC885 EQ PUSH2 0x927 JUMPI DUP1 PUSH4 0xD738A44E EQ PUSH2 0x947 JUMPI DUP1 PUSH4 0xDA1D8CFF EQ PUSH2 0x95D JUMPI DUP1 PUSH4 0xE0DA83CE EQ PUSH2 0x97D JUMPI DUP1 PUSH4 0xE1444FD6 EQ PUSH2 0x9AA JUMPI DUP1 PUSH4 0xE3676F88 EQ PUSH2 0xA02 JUMPI PUSH1 0x0 DUP1 REVERT JUMPDEST DUP1 PUSH4 0xA57E3141 GT PUSH2 0x155 JUMPI DUP1 PUSH4 0xA57E3141 EQ PUSH2 0x80C JUMPI DUP1 PUSH4 0xAEC640C6 EQ PUSH2 0x82C JUMPI DUP1 PUSH4 0xAEF0E540 EQ PUSH2 0x84C JUMPI DUP1 PUSH4 0xB3B9AA48 EQ PUSH2 0x86C JUMPI DUP1 PUSH4 0xB982922E EQ PUSH2 0x87F JUMPI DUP1 PUSH4 0xBD9574DB EQ PUSH2 0x894 JUMPI DUP1 PUSH4 0xC61EAAE0 EQ PUSH2 0x8B4 JUMPI DUP1 PUSH4 0xCB645E32 EQ PUSH2 0x8D4 JUMPI PUSH1 0x0 DUP1 REVERT JUMPDEST DUP1 PUSH4 0x80554E9A EQ PUSH2 0x721 JUMPI DUP1 PUSH4 0x8CA1F1B4 EQ PUSH2 0x741 JUMPI DUP1 PUSH4 0x8DA5CB5B EQ PUSH2 0x761 JUMPI DUP1 PUSH4 0x95874B27 EQ PUSH2 0x776 JUMPI DUP1 PUSH4 0x9C8B9E7B EQ PUSH2 0x796 JUMPI DUP1 PUSH4 0x9E281A98 EQ PUSH2 0x7AC JUMPI DUP1 PUSH4 0x9F7260BD EQ PUSH2 0x7CC JUMPI DUP1 PUSH4 0xA20B8C18 EQ PUSH2 0x7EC JUMPI PUSH1 0x0 DUP1 REVERT JUMPDEST DUP1 PUSH4 0x4C8948C9 GT PUSH2 0x282 JUMPI DUP1 PUSH4 0x6CE850E3 GT PUSH2 0x225 JUMPI DUP1 PUSH4 0x6CE850E3 EQ PUSH2 0x612 JUMPI DUP1 PUSH4 0x715018A6 EQ PUSH2 0x625 JUMPI DUP1 PUSH4 0x718DA7EE EQ PUSH2 0x63A JUMPI DUP1 PUSH4 0x75C9007C EQ PUSH2 0x65A JUMPI DUP1 PUSH4 0x75D39C7C EQ PUSH2 0x67A JUMPI DUP1 PUSH4 0x76C12822 EQ PUSH2 0x69A JUMPI DUP1 PUSH4 0x7D207E3A EQ PUSH2 0x6C7 JUMPI DUP1 PUSH4 0x7E6706D3 EQ PUSH2 0x6F4 JUMPI PUSH1 0x0 DUP1 REVERT JUMPDEST DUP1 PUSH4 0x4C8948C9 EQ PUSH2 0x52F JUMPI DUP1 PUSH4 0x56A06235 EQ PUSH2 0x544 JUMPI DUP1 PUSH4 0x5A04FB69 EQ PUSH2 0x55A JUMPI DUP1 PUSH4 0x5BFADB24 EQ PUSH2 0x57A JUMPI DUP1 PUSH4 0x5C975ABB EQ PUSH2 0x59A JUMPI DUP1 PUSH4 0x5CC36CDE EQ PUSH2 0x5B2 JUMPI DUP1 PUSH4 0x5E92B2CF EQ PUSH2 0x5D2 JUMPI DUP1 PUSH4 0x618DF7A3 EQ PUSH2 0x5F2 JUMPI PUSH1 0x0 DUP1 REVERT JUMPDEST DUP1 PUSH4 0x7279357 EQ PUSH2 0x350 JUMPI DUP1 PUSH4 0x7873EF1 EQ PUSH2 0x376 JUMPI DUP1 PUSH4 0x8F12470 EQ PUSH2 0x396 JUMPI DUP1 PUSH4 0xD4F581A EQ PUSH2 0x3C3 JUMPI DUP1 PUSH4 0x1033218F EQ PUSH2 0x3E3 JUMPI DUP1 PUSH4 0x148564E8 EQ PUSH2 0x3F9 JUMPI DUP1 PUSH4 0x181550E6 EQ PUSH2 0x426 JUMPI DUP1 PUSH4 0x1982242C EQ PUSH2 0x453 JUMPI DUP1 PUSH4 0x1D111D13 EQ PUSH2 0x468 JUMPI DUP1 PUSH4 0x1FF5EA6F EQ PUSH2 0x47F JUMPI DUP1 PUSH4 0x2A697129 EQ PUSH2 0x495 JUMPI DUP1 PUSH4 0x2AAA7655 EQ PUSH2 0x4AA JUMPI DUP1 PUSH4 0x332F26D7 EQ PUSH2 0x4BD JUMPI DUP1 PUSH4 0x39747AC0 EQ PUSH2 0x4EA JUMPI DUP1 PUSH4 0x475831C8 EQ PUSH2 0x51A JUMPI PUSH1 0x0 DUP1 REVERT JUMPDEST CALLDATASIZE PUSH2 0x34B JUMPI CALLVALUE PUSH1 0x13 PUSH1 0x0 DUP3 DUP3 SLOAD PUSH2 0x343 SWAP2 SWAP1 PUSH2 0x50D7 JUMP JUMPDEST SWAP3 POP POP DUP2 SWAP1 SSTORE STOP JUMPDEST PUSH1 0x0 DUP1 REVERT JUMPDEST PUSH2 0x363 PUSH2 0x35E CALLDATASIZE PUSH1 0x4 PUSH2 0x51CA JUMP JUMPDEST PUSH2 0xAFD JUMP JUMPDEST PUSH1 0x40 MLOAD SWAP1 DUP2 MSTORE PUSH1 0x20 ADD JUMPDEST PUSH1 0x40 MLOAD DUP1 SWAP2 SUB SWAP1 RETURN JUMPDEST CALLVALUE DUP1 ISZERO PUSH2 0x382 JUMPI PUSH1 0x0 DUP1 REVERT JUMPDEST POP PUSH2 0x363 PUSH2 0x391 CALLDATASIZE PUSH1 0x4 PUSH2 0x5250 JUMP JUMPDEST PUSH2 0xCEB JUMP JUMPDEST CALLVALUE DUP1 ISZERO PUSH2 0x3A2 JUMPI PUSH1 0x0 DUP1 REVERT JUMPDEST POP PUSH2 0x3B6 PUSH2 0x3B1 CALLDATASIZE PUSH1 0x4 PUSH2 0x526D JUMP JUMPDEST PUSH2 0xD12 JUMP JUMPDEST PUSH1 0x40 MLOAD PUSH2 0x36D SWAP2 SWAP1 PUSH2 0x537C JUMP JUMPDEST CALLVALUE DUP1 ISZERO PUSH2 0x3CF JUMPI PUSH1 0x0 DUP1 REVERT JUMPDEST POP PUSH2 0x3B6 PUSH2 0x3DE CALLDATASIZE PUSH1 0x4 PUSH2 0x526D JUMP JUMPDEST PUSH2 0xE64 JUMP JUMPDEST CALLVALUE DUP1 ISZERO PUSH2 0x3EF JUMPI PUSH1 0x0 DUP1 REVERT JUMPDEST POP PUSH2 0x363 PUSH1 0x2 SLOAD DUP2 JUMP JUMPDEST CALLVALUE DUP1 ISZERO PUSH2 0x405 JUMPI PUSH1 0x0 DUP1 REVERT JUMPDEST POP PUSH2 0x419 PUSH2 0x414 CALLDATASIZE PUSH1 0x4 PUSH2 0x538F JUMP JUMPDEST PUSH2 0xE7F JUMP JUMPDEST PUSH1 0x40 MLOAD PUSH2 0x36D SWAP2 SWAP1 PUSH2 0x5437 JUMP JUMPDEST CALLVALUE DUP1 ISZERO PUSH2 0x432 JUMPI PUSH1 0x0 DUP1 REVERT JUMPDEST POP PUSH2 0x446 PUSH2 0x441 CALLDATASIZE PUSH1 0x4 PUSH2 0x5250 JUMP JUMPDEST PUSH2 0xEDB JUMP JUMPDEST PUSH1 0x40 MLOAD PUSH2 0x36D SWAP2 SWAP1 PUSH2 0x544A JUMP JUMPDEST CALLVALUE DUP1 ISZERO PUSH2 0x45F JUMPI PUSH1 0x0 DUP1 REVERT JUMPDEST POP PUSH2 0x363 PUSH2 0xFC1 JUMP JUMPDEST CALLVALUE DUP1 ISZERO PUSH2 0x474 JUMPI PUSH1 0x0 DUP1 REVERT JUMPDEST POP PUSH2 0x47D PUSH2 0xFE2 JUMP JUMPDEST STOP JUMPDEST CALLVALUE DUP1 ISZERO PUSH2 0x48B JUMPI PUSH1 0x0 DUP1 REVERT JUMPDEST POP PUSH2 0x363 PUSH1 0x12 SLOAD DUP2 JUMP JUMPDEST CALLVALUE DUP1 ISZERO PUSH2 0x4A1 JUMPI PUSH1 0x0 DUP1 REVERT JUMPDEST POP PUSH2 0x363 PUSH2 0x10E4 JUMP JUMPDEST PUSH2 0x47D PUSH2 0x4B8 CALLDATASIZE PUSH1 0x4 PUSH2 0x54AC JUMP JUMPDEST PUSH2 0x110A JUMP JUMPDEST CALLVALUE DUP1 ISZERO PUSH2 0x4C9 JUMPI PUSH1 0x0 DUP1 REVERT JUMPDEST POP PUSH2 0x4DD PUSH2 0x4D8 CALLDATASIZE PUSH1 0x4 PUSH2 0x54D8 JUMP JUMPDEST PUSH2 0x1438 JUMP JUMPDEST PUSH1 0x40 MLOAD PUSH2 0x36D SWAP2 SWAP1 PUSH2 0x550D JUMP JUMPDEST CALLVALUE DUP1 ISZERO PUSH2 0x4F6 JUMPI PUSH1 0x0 DUP1 REVERT JUMPDEST POP PUSH2 0x50A PUSH2 0x505 CALLDATASIZE PUSH1 0x4 PUSH2 0x5250 JUMP JUMPDEST PUSH2 0x157D JUMP JUMPDEST PUSH1 0x40 MLOAD SWAP1 ISZERO ISZERO DUP2 MSTORE PUSH1 0x20 ADD PUSH2 0x36D JUMP JUMPDEST CALLVALUE DUP1 ISZERO PUSH2 0x526 JUMPI PUSH1 0x0 DUP1 REVERT JUMPDEST POP PUSH2 0x363 PUSH2 0x1600 JUMP JUMPDEST CALLVALUE DUP1 ISZERO PUSH2 0x53B JUMPI PUSH1 0x0 DUP1 REVERT JUMPDEST POP PUSH1 0x6 SLOAD PUSH2 0x363 JUMP JUMPDEST CALLVALUE DUP1 ISZERO PUSH2 0x550 JUMPI PUSH1 0x0 DUP1 REVERT JUMPDEST POP PUSH2 0x363 PUSH1 0x1 SLOAD DUP2 JUMP JUMPDEST CALLVALUE DUP1 ISZERO PUSH2 0x566 JUMPI PUSH1 0x0 DUP1 REVERT JUMPDEST POP PUSH2 0x47D PUSH2 0x575 CALLDATASIZE PUSH1 0x4 PUSH2 0x5562 JUMP JUMPDEST PUSH2 0x160C JUMP JUMPDEST CALLVALUE DUP1 ISZERO PUSH2 0x586 JUMPI PUSH1 0x0 DUP1 REVERT JUMPDEST POP PUSH2 0x47D PUSH2 0x595 CALLDATASIZE PUSH1 0x4 PUSH2 0x5592 JUMP JUMPDEST PUSH2 0x1791 JUMP JUMPDEST CALLVALUE DUP1 ISZERO PUSH2 0x5A6 JUMPI PUSH1 0x0 DUP1 REVERT JUMPDEST POP PUSH1 0x0 SLOAD PUSH1 0xFF AND PUSH2 0x50A JUMP JUMPDEST CALLVALUE DUP1 ISZERO PUSH2 0x5BE JUMPI PUSH1 0x0 DUP1 REVERT JUMPDEST POP PUSH2 0x363 PUSH2 0x5CD CALLDATASIZE PUSH1 0x4 PUSH2 0x5250 JUMP JUMPDEST PUSH2 0x1822 JUMP JUMPDEST CALLVALUE DUP1 ISZERO PUSH2 0x5DE JUMPI PUSH1 0x0 DUP1 REVERT JUMPDEST POP PUSH2 0x446 PUSH2 0x5ED CALLDATASIZE PUSH1 0x4 PUSH2 0x5592 JUMP JUMPDEST PUSH2 0x1843 JUMP JUMPDEST CALLVALUE DUP1 ISZERO PUSH2 0x5FE JUMPI PUSH1 0x0 DUP1 REVERT JUMPDEST POP PUSH2 0x3B6 PUSH2 0x60D CALLDATASIZE PUSH1 0x4 PUSH2 0x538F JUMP JUMPDEST PUSH2 0x1969 JUMP JUMPDEST PUSH2 0x47D PUSH2 0x620 CALLDATASIZE PUSH1 0x4 PUSH2 0x5592 JUMP JUMPDEST PUSH2 0x19BE JUMP JUMPDEST CALLVALUE DUP1 ISZERO PUSH2 0x631 JUMPI PUSH1 0x0 DUP1 REVERT JUMPDEST POP PUSH2 0x47D PUSH2 0x1BCF JUMP JUMPDEST CALLVALUE DUP1 ISZERO PUSH2 0x646 JUMPI PUSH1 0x0 DUP1 REVERT JUMPDEST POP PUSH2 0x47D PUSH2 0x655 CALLDATASIZE PUSH1 0x4 PUSH2 0x5250 JUMP JUMPDEST PUSH2 0x1BE3 JUMP JUMPDEST CALLVALUE DUP1 ISZERO PUSH2 0x666 JUMPI PUSH1 0x0 DUP1 REVERT JUMPDEST POP PUSH2 0x419 PUSH2 0x675 CALLDATASIZE PUSH1 0x4 PUSH2 0x526D JUMP JUMPDEST PUSH2 0x1C0D JUMP JUMPDEST CALLVALUE DUP1 ISZERO PUSH2 0x686 JUMPI PUSH1 0x0 DUP1 REVERT JUMPDEST POP PUSH2 0x47D PUSH2 0x695 CALLDATASIZE PUSH1 0x4 PUSH2 0x5562 JUMP JUMPDEST PUSH2 0x1CD1 JUMP JUMPDEST CALLVALUE DUP1 ISZERO PUSH2 0x6A6 JUMPI PUSH1 0x0 DUP1 REVERT JUMPDEST POP PUSH2 0x6BA PUSH2 0x6B5 CALLDATASIZE PUSH1 0x4 PUSH2 0x5592 JUMP JUMPDEST PUSH2 0x1DDB JUMP JUMPDEST PUSH1 0x40 MLOAD PUSH2 0x36D SWAP2 SWAP1 PUSH2 0x55DB JUMP JUMPDEST CALLVALUE DUP1 ISZERO PUSH2 0x6D3 JUMPI PUSH1 0x0 DUP1 REVERT JUMPDEST POP PUSH1 0x14 SLOAD PUSH2 0x6E7 SWAP1 PUSH1 0x1 PUSH1 0x1 PUSH1 0xA0 SHL SUB AND DUP2 JUMP JUMPDEST PUSH1 0x40 MLOAD PUSH2 0x36D SWAP2 SWAP1 PUSH2 0x561D JUMP JUMPDEST CALLVALUE DUP1 ISZERO PUSH2 0x700 JUMPI PUSH1 0x0 DUP1 REVERT JUMPDEST POP PUSH2 0x714 PUSH2 0x70F CALLDATASIZE PUSH1 0x4 PUSH2 0x526D JUMP JUMPDEST PUSH2 0x1F14 JUMP JUMPDEST PUSH1 0x40 MLOAD PUSH2 0x36D SWAP2 SWAP1 PUSH2 0x5631 JUMP JUMPDEST CALLVALUE DUP1 ISZERO PUSH2 0x72D JUMPI PUSH1 0x0 DUP1 REVERT JUMPDEST POP PUSH2 0x363 PUSH2 0x73C CALLDATASIZE PUSH1 0x4 PUSH2 0x5592 JUMP JUMPDEST PUSH2 0x1F76 JUMP JUMPDEST CALLVALUE DUP1 ISZERO PUSH2 0x74D JUMPI PUSH1 0x0 DUP1 REVERT JUMPDEST POP PUSH2 0x47D PUSH2 0x75C CALLDATASIZE PUSH1 0x4 PUSH2 0x5250 JUMP JUMPDEST PUSH2 0x1F96 JUMP JUMPDEST CALLVALUE DUP1 ISZERO PUSH2 0x76D JUMPI PUSH1 0x0 DUP1 REVERT JUMPDEST POP PUSH2 0x6E7 PUSH2 0x1FC0 JUMP JUMPDEST CALLVALUE DUP1 ISZERO PUSH2 0x782 JUMPI PUSH1 0x0 DUP1 REVERT JUMPDEST POP PUSH2 0x47D PUSH2 0x791 CALLDATASIZE PUSH1 0x4 PUSH2 0x526D JUMP JUMPDEST PUSH2 0x1FD4 JUMP JUMPDEST CALLVALUE DUP1 ISZERO PUSH2 0x7A2 JUMPI PUSH1 0x0 DUP1 REVERT JUMPDEST POP PUSH2 0x363 PUSH1 0x4 SLOAD DUP2 JUMP JUMPDEST CALLVALUE DUP1 ISZERO PUSH2 0x7B8 JUMPI PUSH1 0x0 DUP1 REVERT JUMPDEST POP PUSH2 0x47D PUSH2 0x7C7 CALLDATASIZE PUSH1 0x4 PUSH2 0x538F JUMP JUMPDEST PUSH2 0x1FE1 JUMP JUMPDEST CALLVALUE DUP1 ISZERO PUSH2 0x7D8 JUMPI PUSH1 0x0 DUP1 REVERT JUMPDEST POP PUSH2 0x47D PUSH2 0x7E7 CALLDATASIZE PUSH1 0x4 PUSH2 0x526D JUMP JUMPDEST PUSH2 0x205C JUMP JUMPDEST CALLVALUE DUP1 ISZERO PUSH2 0x7F8 JUMPI PUSH1 0x0 DUP1 REVERT JUMPDEST POP PUSH2 0x714 PUSH2 0x807 CALLDATASIZE PUSH1 0x4 PUSH2 0x526D JUMP JUMPDEST PUSH2 0x2069 JUMP JUMPDEST CALLVALUE DUP1 ISZERO PUSH2 0x818 JUMPI PUSH1 0x0 DUP1 REVERT JUMPDEST POP PUSH2 0x47D PUSH2 0x827 CALLDATASIZE PUSH1 0x4 PUSH2 0x526D JUMP JUMPDEST PUSH2 0x2080 JUMP JUMPDEST CALLVALUE DUP1 ISZERO PUSH2 0x838 JUMPI PUSH1 0x0 DUP1 REVERT JUMPDEST POP PUSH2 0x6BA PUSH2 0x847 CALLDATASIZE PUSH1 0x4 PUSH2 0x5592 JUMP JUMPDEST PUSH2 0x208B JUMP JUMPDEST CALLVALUE DUP1 ISZERO PUSH2 0x858 JUMPI PUSH1 0x0 DUP1 REVERT JUMPDEST POP PUSH2 0x4DD PUSH2 0x867 CALLDATASIZE PUSH1 0x4 PUSH2 0x5250 JUMP JUMPDEST PUSH2 0x21C4 JUMP JUMPDEST PUSH2 0x47D PUSH2 0x87A CALLDATASIZE PUSH1 0x4 PUSH2 0x54AC JUMP JUMPDEST PUSH2 0x22A2 JUMP JUMPDEST CALLVALUE DUP1 ISZERO PUSH2 0x88B JUMPI PUSH1 0x0 DUP1 REVERT JUMPDEST POP PUSH2 0x363 PUSH2 0x2629 JUMP JUMPDEST CALLVALUE DUP1 ISZERO PUSH2 0x8A0 JUMPI PUSH1 0x0 DUP1 REVERT JUMPDEST POP PUSH2 0x363 PUSH2 0x8AF CALLDATASIZE PUSH1 0x4 PUSH2 0x5592 JUMP JUMPDEST PUSH2 0x2635 JUMP JUMPDEST CALLVALUE DUP1 ISZERO PUSH2 0x8C0 JUMPI PUSH1 0x0 DUP1 REVERT JUMPDEST POP PUSH2 0x47D PUSH2 0x8CF CALLDATASIZE PUSH1 0x4 PUSH2 0x5592 JUMP JUMPDEST PUSH2 0x264D JUMP JUMPDEST PUSH2 0x363 PUSH2 0x8E2 CALLDATASIZE PUSH1 0x4 PUSH2 0x563F JUMP JUMPDEST PUSH2 0x26BF JUMP JUMPDEST CALLVALUE DUP1 ISZERO PUSH2 0x8F3 JUMPI PUSH1 0x0 DUP1 REVERT JUMPDEST POP PUSH2 0x47D PUSH2 0x902 CALLDATASIZE PUSH1 0x4 PUSH2 0x526D JUMP JUMPDEST PUSH2 0x294B JUMP JUMPDEST CALLVALUE DUP1 ISZERO PUSH2 0x913 JUMPI PUSH1 0x0 DUP1 REVERT JUMPDEST POP PUSH2 0x363 PUSH2 0x922 CALLDATASIZE PUSH1 0x4 PUSH2 0x5250 JUMP JUMPDEST PUSH2 0x2956 JUMP JUMPDEST CALLVALUE DUP1 ISZERO PUSH2 0x933 JUMPI PUSH1 0x0 DUP1 REVERT JUMPDEST POP PUSH2 0x47D PUSH2 0x942 CALLDATASIZE PUSH1 0x4 PUSH2 0x56E4 JUMP JUMPDEST PUSH2 0x2974 JUMP JUMPDEST CALLVALUE DUP1 ISZERO PUSH2 0x953 JUMPI PUSH1 0x0 DUP1 REVERT JUMPDEST POP PUSH2 0x363 PUSH1 0x13 SLOAD DUP2 JUMP JUMPDEST CALLVALUE DUP1 ISZERO PUSH2 0x969 JUMPI PUSH1 0x0 DUP1 REVERT JUMPDEST POP PUSH2 0x4DD PUSH2 0x978 CALLDATASIZE PUSH1 0x4 PUSH2 0x5250 JUMP JUMPDEST PUSH2 0x2A2B JUMP JUMPDEST CALLVALUE DUP1 ISZERO PUSH2 0x989 JUMPI PUSH1 0x0 DUP1 REVERT JUMPDEST POP PUSH2 0x99D PUSH2 0x998 CALLDATASIZE PUSH1 0x4 PUSH2 0x5775 JUMP JUMPDEST PUSH2 0x2B09 JUMP JUMPDEST PUSH1 0x40 MLOAD PUSH2 0x36D SWAP2 SWAP1 PUSH2 0x5853 JUMP JUMPDEST CALLVALUE DUP1 ISZERO PUSH2 0x9B6 JUMPI PUSH1 0x0 DUP1 REVERT JUMPDEST POP PUSH2 0x9F3 PUSH2 0x9C5 CALLDATASIZE PUSH1 0x4 PUSH2 0x5250 JUMP JUMPDEST PUSH1 0xE PUSH1 0x20 MSTORE PUSH1 0x0 SWAP1 DUP2 MSTORE PUSH1 0x40 SWAP1 KECCAK256 DUP1 SLOAD PUSH1 0x1 DUP3 ADD SLOAD PUSH1 0x2 SWAP1 SWAP3 ADD SLOAD PUSH1 0x1 PUSH1 0x1 PUSH1 0xA0 SHL SUB SWAP2 DUP3 AND SWAP3 SWAP1 SWAP2 AND SWAP1 DUP4 JUMP JUMPDEST PUSH1 0x40 MLOAD PUSH2 0x36D SWAP4 SWAP3 SWAP2 SWAP1 PUSH2 0x588B JUMP JUMPDEST CALLVALUE DUP1 ISZERO PUSH2 0xA0E JUMPI PUSH1 0x0 DUP1 REVERT JUMPDEST POP PUSH2 0x363 PUSH2 0xA1D CALLDATASIZE PUSH1 0x4 PUSH2 0x5250 JUMP JUMPDEST PUSH2 0x2C52 JUMP JUMPDEST PUSH2 0x363 PUSH2 0xA30 CALLDATASIZE PUSH1 0x4 PUSH2 0x58AF JUMP JUMPDEST PUSH2 0x2C73 JUMP JUMPDEST CALLVALUE DUP1 ISZERO PUSH2 0xA41 JUMPI PUSH1 0x0 DUP1 REVERT JUMPDEST POP PUSH2 0x363 PUSH2 0xA50 CALLDATASIZE PUSH1 0x4 PUSH2 0x5250 JUMP JUMPDEST PUSH2 0x2F5B JUMP JUMPDEST PUSH2 0x363 PUSH2 0xA63 CALLDATASIZE PUSH1 0x4 PUSH2 0x592E JUMP JUMPDEST PUSH2 0x2F7C JUMP JUMPDEST CALLVALUE DUP1 ISZERO PUSH2 0xA74 JUMPI PUSH1 0x0 DUP1 REVERT JUMPDEST POP PUSH2 0x3B6 PUSH2 0xA83 CALLDATASIZE PUSH1 0x4 PUSH2 0x538F JUMP JUMPDEST PUSH2 0x3190 JUMP JUMPDEST CALLVALUE DUP1 ISZERO PUSH2 0xA94 JUMPI PUSH1 0x0 DUP1 REVERT JUMPDEST POP PUSH2 0x47D PUSH2 0xAA3 CALLDATASIZE PUSH1 0x4 PUSH2 0x5250 JUMP JUMPDEST PUSH2 0x31E5 JUMP JUMPDEST CALLVALUE DUP1 ISZERO PUSH2 0xAB4 JUMPI PUSH1 0x0 DUP1 REVERT JUMPDEST POP PUSH1 0x3 SLOAD PUSH2 0x6E7 SWAP1 PUSH1 0x1 PUSH1 0x1 PUSH1 0xA0 SHL SUB AND DUP2 JUMP JUMPDEST CALLVALUE DUP1 ISZERO PUSH2 0xAD4 JUMPI PUSH1 0x0 DUP1 REVERT JUMPDEST POP PUSH2 0x419 PUSH2 0xAE3 CALLDATASIZE PUSH1 0x4 PUSH2 0x526D JUMP JUMPDEST PUSH2 0x325B JUMP JUMPDEST CALLVALUE DUP1 ISZERO PUSH2 0xAF4 JUMPI PUSH1 0x0 DUP1 REVERT JUMPDEST POP PUSH1 0x5 SLOAD PUSH2 0x363 JUMP JUMPDEST PUSH1 0x0 TIMESTAMP DUP4 GT PUSH2 0xB27 JUMPI PUSH1 0x40 MLOAD PUSH3 0x461BCD PUSH1 0xE5 SHL DUP2 MSTORE PUSH1 0x4 ADD PUSH2 0xB1E SWAP1 PUSH2 0x5990 JUMP JUMPDEST PUSH1 0x40 MLOAD DUP1 SWAP2 SUB SWAP1 REVERT JUMPDEST PUSH1 0x14 SLOAD PUSH1 0x40 MLOAD PUSH4 0x526F812B PUSH1 0xE1 SHL DUP2 MSTORE PUSH1 0x1 PUSH1 0x1 PUSH1 0xA0 SHL SUB SWAP1 SWAP2 AND SWAP1 PUSH4 0xA4DF0256 SWAP1 PUSH2 0xB57 SWAP1 CALLER SWAP1 PUSH1 0x4 ADD PUSH2 0x561D JUMP JUMPDEST PUSH1 0x20 PUSH1 0x40 MLOAD DUP1 DUP4 SUB DUP2 DUP7 GAS STATICCALL ISZERO DUP1 ISZERO PUSH2 0xB74 JUMPI RETURNDATASIZE PUSH1 0x0 DUP1 RETURNDATACOPY RETURNDATASIZE PUSH1 0x0 REVERT JUMPDEST POP POP POP POP PUSH1 0x40 MLOAD RETURNDATASIZE PUSH1 0x1F NOT PUSH1 0x1F DUP3 ADD AND DUP3 ADD DUP1 PUSH1 0x40 MSTORE POP DUP2 ADD SWAP1 PUSH2 0xB98 SWAP2 SWAP1 PUSH2 0x59C7 JUMP JUMPDEST ISZERO DUP1 ISZERO PUSH2 0xC16 JUMPI POP PUSH1 0x12 SLOAD PUSH1 0x14 SLOAD PUSH1 0x40 MLOAD PUSH4 0x3AECD0E3 PUSH1 0xE0 SHL DUP2 MSTORE PUSH1 0x1 PUSH1 0x1 PUSH1 0xA0 SHL SUB SWAP1 SWAP2 AND SWAP1 PUSH4 0x3AECD0E3 SWAP1 PUSH2 0xBD3 SWAP1 CALLER SWAP1 PUSH1 0x4 ADD PUSH2 0x561D JUMP JUMPDEST PUSH1 0x20 PUSH1 0x40 MLOAD DUP1 DUP4 SUB DUP2 DUP7 GAS STATICCALL ISZERO DUP1 ISZERO PUSH2 0xBF0 JUMPI RETURNDATASIZE PUSH1 0x0 DUP1 RETURNDATACOPY RETURNDATASIZE PUSH1 0x0 REVERT JUMPDEST POP POP POP POP PUSH1 0x40 MLOAD RETURNDATASIZE PUSH1 0x1F NOT PUSH1 0x1F DUP3 ADD AND DUP3 ADD DUP1 PUSH1 0x40 MSTORE POP DUP2 ADD SWAP1 PUSH2 0xC14 SWAP2 SWAP1 PUSH2 0x59E4 JUMP JUMPDEST LT JUMPDEST ISZERO PUSH2 0xC94 JUMPI PUSH1 0x1 SLOAD CALLVALUE LT ISZERO PUSH2 0xC3D JUMPI PUSH1 0x40 MLOAD PUSH3 0x461BCD PUSH1 0xE5 SHL DUP2 MSTORE PUSH1 0x4 ADD PUSH2 0xB1E SWAP1 PUSH2 0x59FD JUMP JUMPDEST PUSH1 0x1 SLOAD PUSH1 0x4 PUSH1 0x0 DUP3 DUP3 SLOAD PUSH2 0xC51 SWAP2 SWAP1 PUSH2 0x50D7 JUMP JUMPDEST SWAP1 SWAP2 SSTORE POP POP PUSH1 0x3 SLOAD PUSH1 0x1 SLOAD PUSH1 0x40 MLOAD PUSH1 0x1 PUSH1 0x1 PUSH1 0xA0 SHL SUB SWAP1 SWAP3 AND SWAP2 DUP2 ISZERO PUSH2 0x8FC MUL SWAP2 SWAP1 PUSH1 0x0 DUP2 DUP2 DUP2 DUP6 DUP9 DUP9 CALL SWAP4 POP POP POP POP ISZERO DUP1 ISZERO PUSH2 0xC92 JUMPI RETURNDATASIZE PUSH1 0x0 DUP1 RETURNDATACOPY RETURNDATASIZE PUSH1 0x0 REVERT JUMPDEST POP JUMPDEST PUSH2 0xCA7 DUP8 DUP8 DUP8 DUP8 DUP8 PUSH1 0x0 DUP1 PUSH1 0x0 DUP11 PUSH2 0x327E JUMP JUMPDEST SWAP1 POP PUSH2 0xCB5 DUP7 CALLER ADDRESS DUP8 PUSH2 0x32CA JUMP JUMPDEST DUP1 PUSH1 0x0 DUP1 MLOAD PUSH1 0x20 PUSH2 0x5F63 DUP4 CODECOPY DUP2 MLOAD SWAP2 MSTORE DUP8 DUP10 DUP8 DUP8 PUSH1 0x40 MLOAD PUSH2 0xCD9 SWAP5 SWAP4 SWAP3 SWAP2 SWAP1 PUSH2 0x5A34 JUMP JUMPDEST PUSH1 0x40 MLOAD DUP1 SWAP2 SUB SWAP1 LOG2 SWAP7 SWAP6 POP POP POP POP POP POP JUMP JUMPDEST PUSH1 0x1 PUSH1 0x1 PUSH1 0xA0 SHL SUB DUP2 AND PUSH1 0x0 SWAP1 DUP2 MSTORE PUSH1 0x7 PUSH1 0x20 MSTORE PUSH1 0x40 DUP2 KECCAK256 PUSH2 0xD0C SWAP1 PUSH2 0x341B JUMP JUMPDEST SWAP3 SWAP2 POP POP JUMP JUMPDEST PUSH2 0xD1A PUSH2 0x4F40 JUMP JUMPDEST PUSH1 0x5 PUSH2 0xD25 DUP4 PUSH2 0x3425 JUMP JUMPDEST DUP2 SLOAD DUP2 LT PUSH2 0xD35 JUMPI PUSH2 0xD35 PUSH2 0x5A5D JUMP JUMPDEST PUSH1 0x0 SWAP2 DUP3 MSTORE PUSH1 0x20 SWAP2 DUP3 SWAP1 KECCAK256 PUSH1 0x40 DUP1 MLOAD PUSH2 0x160 DUP2 ADD DUP3 MSTORE PUSH1 0xB SWAP1 SWAP4 MUL SWAP1 SWAP2 ADD DUP1 SLOAD DUP4 MSTORE PUSH1 0x1 DUP2 ADD SLOAD PUSH1 0x1 PUSH1 0x1 PUSH1 0xA0 SHL SUB SWAP1 DUP2 AND SWAP5 DUP5 ADD SWAP5 SWAP1 SWAP5 MSTORE PUSH1 0x2 DUP2 ADD SLOAD SWAP1 SWAP4 AND SWAP1 DUP3 ADD MSTORE PUSH1 0x3 DUP3 ADD SLOAD PUSH1 0x60 DUP3 ADD MSTORE PUSH1 0x4 DUP3 ADD SLOAD PUSH1 0x80 DUP3 ADD MSTORE PUSH1 0x5 DUP3 ADD SLOAD PUSH1 0xA0 DUP3 ADD MSTORE PUSH1 0x6 DUP3 ADD SLOAD PUSH1 0xC0 DUP3 ADD MSTORE PUSH1 0x7 DUP3 ADD SLOAD PUSH1 0xE0 DUP3 ADD MSTORE PUSH1 0x8 DUP3 ADD SLOAD PUSH2 0x100 DUP3 ADD MSTORE PUSH1 0x9 DUP3 ADD SLOAD PUSH2 0x120 DUP3 ADD MSTORE PUSH1 0xA DUP3 ADD DUP1 SLOAD SWAP2 SWAP3 SWAP2 PUSH2 0x140 DUP5 ADD SWAP2 SWAP1 PUSH2 0xDDB SWAP1 PUSH2 0x5A73 JUMP JUMPDEST DUP1 PUSH1 0x1F ADD PUSH1 0x20 DUP1 SWAP2 DIV MUL PUSH1 0x20 ADD PUSH1 0x40 MLOAD SWAP1 DUP2 ADD PUSH1 0x40 MSTORE DUP1 SWAP3 SWAP2 SWAP1 DUP2 DUP2 MSTORE PUSH1 0x20 ADD DUP3 DUP1 SLOAD PUSH2 0xE07 SWAP1 PUSH2 0x5A73 JUMP JUMPDEST DUP1 ISZERO PUSH2 0xE54 JUMPI DUP1 PUSH1 0x1F LT PUSH2 0xE29 JUMPI PUSH2 0x100 DUP1 DUP4 SLOAD DIV MUL DUP4 MSTORE SWAP2 PUSH1 0x20 ADD SWAP2 PUSH2 0xE54 JUMP JUMPDEST DUP3 ADD SWAP2 SWAP1 PUSH1 0x0 MSTORE PUSH1 0x20 PUSH1 0x0 KECCAK256 SWAP1 JUMPDEST DUP2 SLOAD DUP2 MSTORE SWAP1 PUSH1 0x1 ADD SWAP1 PUSH1 0x20 ADD DUP1 DUP4 GT PUSH2 0xE37 JUMPI DUP3 SWAP1 SUB PUSH1 0x1F AND DUP3 ADD SWAP2 JUMPDEST POP POP POP POP POP DUP2 MSTORE POP POP SWAP1 POP SWAP2 SWAP1 POP JUMP JUMPDEST PUSH2 0xE6C PUSH2 0x4F40 JUMP JUMPDEST PUSH1 0x5 DUP3 DUP2 SLOAD DUP2 LT PUSH2 0xD35 JUMPI PUSH2 0xD35 PUSH2 0x5A5D JUMP JUMPDEST PUSH2 0xE87 PUSH2 0x4FAC JUMP JUMPDEST DUP2 PUSH2 0xE91 DUP5 PUSH2 0x1822 JUMP JUMPDEST GT PUSH2 0xEAE JUMPI PUSH1 0x40 MLOAD PUSH3 0x461BCD PUSH1 0xE5 SHL DUP2 MSTORE PUSH1 0x4 ADD PUSH2 0xB1E SWAP1 PUSH2 0x5AA7 JUMP JUMPDEST PUSH1 0x1 PUSH1 0x1 PUSH1 0xA0 SHL SUB DUP4 AND PUSH1 0x0 SWAP1 DUP2 MSTORE PUSH1 0x9 PUSH1 0x20 MSTORE PUSH1 0x40 SWAP1 KECCAK256 PUSH2 0xED4 SWAP1 PUSH2 0xAE3 SWAP1 DUP5 PUSH2 0x347D JUMP JUMPDEST SWAP4 SWAP3 POP POP POP JUMP JUMPDEST PUSH1 0x1 PUSH1 0x1 PUSH1 0xA0 SHL SUB DUP2 AND PUSH1 0x0 SWAP1 DUP2 MSTORE PUSH1 0x9 PUSH1 0x20 MSTORE PUSH1 0x40 DUP2 KECCAK256 PUSH1 0x60 SWAP2 SWAP1 PUSH2 0xF00 SWAP1 PUSH2 0x341B JUMP JUMPDEST SWAP1 POP PUSH1 0x0 DUP2 PUSH1 0x1 PUSH1 0x1 PUSH1 0x40 SHL SUB DUP2 GT ISZERO PUSH2 0xF1C JUMPI PUSH2 0xF1C PUSH2 0x5128 JUMP JUMPDEST PUSH1 0x40 MLOAD SWAP1 DUP1 DUP3 MSTORE DUP1 PUSH1 0x20 MUL PUSH1 0x20 ADD DUP3 ADD PUSH1 0x40 MSTORE DUP1 ISZERO PUSH2 0xF55 JUMPI DUP2 PUSH1 0x20 ADD JUMPDEST PUSH2 0xF42 PUSH2 0x4FAC JUMP JUMPDEST DUP2 MSTORE PUSH1 0x20 ADD SWAP1 PUSH1 0x1 SWAP1 SUB SWAP1 DUP2 PUSH2 0xF3A JUMPI SWAP1 POP JUMPDEST POP SWAP1 POP PUSH1 0x0 JUMPDEST DUP3 DUP2 LT ISZERO PUSH2 0xFB9 JUMPI PUSH1 0x1 PUSH1 0x1 PUSH1 0xA0 SHL SUB DUP6 AND PUSH1 0x0 SWAP1 DUP2 MSTORE PUSH1 0x9 PUSH1 0x20 MSTORE PUSH1 0x40 SWAP1 KECCAK256 PUSH2 0xF89 SWAP1 PUSH2 0xAE3 SWAP1 DUP4 PUSH2 0x347D JUMP JUMPDEST DUP3 DUP3 DUP2 MLOAD DUP2 LT PUSH2 0xF9B JUMPI PUSH2 0xF9B PUSH2 0x5A5D JUMP JUMPDEST PUSH1 0x20 MUL PUSH1 0x20 ADD ADD DUP2 SWAP1 MSTORE POP DUP1 DUP1 PUSH2 0xFB1 SWAP1 PUSH2 0x5ACE JUMP JUMPDEST SWAP2 POP POP PUSH2 0xF5B JUMP JUMPDEST POP SWAP4 SWAP3 POP POP POP JUMP JUMPDEST PUSH1 0x0 PUSH2 0xFCB PUSH2 0x1600 JUMP JUMPDEST PUSH2 0xFD3 PUSH2 0x2629 JUMP JUMPDEST PUSH2 0xFDD SWAP2 SWAP1 PUSH2 0x50D7 JUMP JUMPDEST SWAP1 POP SWAP1 JUMP JUMPDEST PUSH2 0xFEA PUSH2 0x3489 JUMP JUMPDEST PUSH1 0x0 PUSH1 0x13 SLOAD GT PUSH2 0x1047 JUMPI PUSH1 0x40 MLOAD PUSH3 0x461BCD PUSH1 0xE5 SHL DUP2 MSTORE PUSH1 0x20 PUSH1 0x4 DUP3 ADD MSTORE PUSH1 0x22 PUSH1 0x24 DUP3 ADD MSTORE PUSH32 0x6E6F20657874726120424E4220617661696C61626C6520746F20776974686472 PUSH1 0x44 DUP3 ADD MSTORE PUSH2 0x6177 PUSH1 0xF0 SHL PUSH1 0x64 DUP3 ADD MSTORE PUSH1 0x84 ADD PUSH2 0xB1E JUMP JUMPDEST PUSH1 0x3 SLOAD PUSH1 0x13 SLOAD PUSH1 0x40 MLOAD PUSH1 0x0 SWAP3 PUSH1 0x1 PUSH1 0x1 PUSH1 0xA0 SHL SUB AND SWAP2 SWAP1 DUP4 DUP2 DUP2 DUP2 DUP6 DUP8 GAS CALL SWAP3 POP POP POP RETURNDATASIZE DUP1 PUSH1 0x0 DUP2 EQ PUSH2 0x1096 JUMPI PUSH1 0x40 MLOAD SWAP2 POP PUSH1 0x1F NOT PUSH1 0x3F RETURNDATASIZE ADD AND DUP3 ADD PUSH1 0x40 MSTORE RETURNDATASIZE DUP3 MSTORE RETURNDATASIZE PUSH1 0x0 PUSH1 0x20 DUP5 ADD RETURNDATACOPY PUSH2 0x109B JUMP JUMPDEST PUSH1 0x60 SWAP2 POP JUMPDEST POP POP SWAP1 POP DUP1 PUSH2 0x10E1 JUMPI PUSH1 0x40 MLOAD PUSH3 0x461BCD PUSH1 0xE5 SHL DUP2 MSTORE PUSH1 0x20 PUSH1 0x4 DUP3 ADD MSTORE PUSH1 0x12 PUSH1 0x24 DUP3 ADD MSTORE PUSH18 0x1DDA5D1A191C985DD093908819985A5B1959 PUSH1 0x72 SHL PUSH1 0x44 DUP3 ADD MSTORE PUSH1 0x64 ADD PUSH2 0xB1E JUMP JUMPDEST POP JUMP JUMPDEST PUSH1 0x0 PUSH2 0xFDD PUSH1 0x10 PUSH1 0x40 MLOAD PUSH2 0x10F7 SWAP1 PUSH2 0x5AE7 JUMP JUMPDEST SWAP1 DUP2 MSTORE PUSH1 0x20 ADD PUSH1 0x40 MLOAD DUP1 SWAP2 SUB SWAP1 KECCAK256 PUSH2 0x341B JUMP JUMPDEST DUP3 PUSH2 0x1114 DUP2 PUSH2 0x34E8 JUMP JUMPDEST POP PUSH1 0x0 PUSH1 0x6 PUSH2 0x1122 DUP7 PUSH2 0x34E8 JUMP JUMPDEST DUP2 SLOAD DUP2 LT PUSH2 0x1132 JUMPI PUSH2 0x1132 PUSH2 0x5A5D JUMP JUMPDEST PUSH1 0x0 SWAP2 DUP3 MSTORE PUSH1 0x20 SWAP1 SWAP2 KECCAK256 PUSH1 0x1 PUSH1 0xA SWAP1 SWAP3 MUL ADD SWAP1 DUP2 ADD SLOAD SWAP1 SWAP2 POP PUSH1 0x1 PUSH1 0x1 PUSH1 0xA0 SHL SUB AND CALLER EQ PUSH2 0x1172 JUMPI PUSH1 0x40 MLOAD PUSH3 0x461BCD PUSH1 0xE5 SHL DUP2 MSTORE PUSH1 0x4 ADD PUSH2 0xB1E SWAP1 PUSH2 0x5AF6 JUMP JUMPDEST PUSH1 0x8 DUP2 ADD SLOAD ISZERO PUSH2 0x1194 JUMPI PUSH1 0x40 MLOAD PUSH3 0x461BCD PUSH1 0xE5 SHL DUP2 MSTORE PUSH1 0x4 ADD PUSH2 0xB1E SWAP1 PUSH2 0x5B38 JUMP JUMPDEST PUSH1 0x0 DUP4 GT DUP1 PUSH2 0x11A3 JUMPI POP PUSH1 0x0 DUP5 GT JUMPDEST ISZERO PUSH2 0x1365 JUMPI PUSH1 0x14 SLOAD PUSH1 0x40 MLOAD PUSH4 0x526F812B PUSH1 0xE1 SHL DUP2 MSTORE PUSH1 0x1 PUSH1 0x1 PUSH1 0xA0 SHL SUB SWAP1 SWAP2 AND SWAP1 PUSH4 0xA4DF0256 SWAP1 PUSH2 0x11D8 SWAP1 CALLER SWAP1 PUSH1 0x4 ADD PUSH2 0x561D JUMP JUMPDEST PUSH1 0x20 PUSH1 0x40 MLOAD DUP1 DUP4 SUB DUP2 DUP7 GAS STATICCALL ISZERO DUP1 ISZERO PUSH2 0x11F5 JUMPI RETURNDATASIZE PUSH1 0x0 DUP1 RETURNDATACOPY RETURNDATASIZE PUSH1 0x0 REVERT JUMPDEST POP POP POP POP PUSH1 0x40 MLOAD RETURNDATASIZE PUSH1 0x1F NOT PUSH1 0x1F DUP3 ADD AND DUP3 ADD DUP1 PUSH1 0x40 MSTORE POP DUP2 ADD SWAP1 PUSH2 0x1219 SWAP2 SWAP1 PUSH2 0x59C7 JUMP JUMPDEST ISZERO DUP1 ISZERO PUSH2 0x1297 JUMPI POP PUSH1 0x12 SLOAD PUSH1 0x14 SLOAD PUSH1 0x40 MLOAD PUSH4 0x3AECD0E3 PUSH1 0xE0 SHL DUP2 MSTORE PUSH1 0x1 PUSH1 0x1 PUSH1 0xA0 SHL SUB SWAP1 SWAP2 AND SWAP1 PUSH4 0x3AECD0E3 SWAP1 PUSH2 0x1254 SWAP1 CALLER SWAP1 PUSH1 0x4 ADD PUSH2 0x561D JUMP JUMPDEST PUSH1 0x20 PUSH1 0x40 MLOAD DUP1 DUP4 SUB DUP2 DUP7 GAS STATICCALL ISZERO DUP1 ISZERO PUSH2 0x1271 JUMPI RETURNDATASIZE PUSH1 0x0 DUP1 RETURNDATACOPY RETURNDATASIZE PUSH1 0x0 REVERT JUMPDEST POP POP POP POP PUSH1 0x40 MLOAD RETURNDATASIZE PUSH1 0x1F NOT PUSH1 0x1F DUP3 ADD AND DUP3 ADD DUP1 PUSH1 0x40 MSTORE POP DUP2 ADD SWAP1 PUSH2 0x1295 SWAP2 SWAP1 PUSH2 0x59E4 JUMP JUMPDEST LT JUMPDEST ISZERO PUSH2 0x1365 JUMPI PUSH1 0x1 SLOAD CALLVALUE LT ISZERO PUSH2 0x12BE JUMPI PUSH1 0x40 MLOAD PUSH3 0x461BCD PUSH1 0xE5 SHL DUP2 MSTORE PUSH1 0x4 ADD PUSH2 0xB1E SWAP1 PUSH2 0x5B63 JUMP JUMPDEST PUSH1 0x3 SLOAD PUSH1 0x1 SLOAD PUSH1 0x40 MLOAD PUSH1 0x0 SWAP3 PUSH1 0x1 PUSH1 0x1 PUSH1 0xA0 SHL SUB AND SWAP2 SWAP1 DUP4 DUP2 DUP2 DUP2 DUP6 DUP8 GAS CALL SWAP3 POP POP POP RETURNDATASIZE DUP1 PUSH1 0x0 DUP2 EQ PUSH2 0x130D JUMPI PUSH1 0x40 MLOAD SWAP2 POP PUSH1 0x1F NOT PUSH1 0x3F RETURNDATASIZE ADD AND DUP3 ADD PUSH1 0x40 MSTORE RETURNDATASIZE DUP3 MSTORE RETURNDATASIZE PUSH1 0x0 PUSH1 0x20 DUP5 ADD RETURNDATACOPY PUSH2 0x1312 JUMP JUMPDEST PUSH1 0x60 SWAP2 POP JUMPDEST POP POP SWAP1 POP DUP1 PUSH2 0x1363 JUMPI PUSH1 0x40 MLOAD PUSH3 0x461BCD PUSH1 0xE5 SHL DUP2 MSTORE PUSH1 0x20 PUSH1 0x4 DUP3 ADD DUP2 SWAP1 MSTORE PUSH1 0x24 DUP3 ADD MSTORE PUSH32 0x656469744C6F636B424E423A20666565207472616E73666572206661696C6564 PUSH1 0x44 DUP3 ADD MSTORE PUSH1 0x64 ADD PUSH2 0xB1E JUMP JUMPDEST POP JUMPDEST DUP3 ISZERO PUSH2 0x13A2 JUMPI DUP1 PUSH1 0x4 ADD SLOAD DUP4 LT ISZERO DUP1 ISZERO PUSH2 0x137E JUMPI POP TIMESTAMP DUP4 GT JUMPDEST PUSH2 0x139A JUMPI PUSH1 0x40 MLOAD PUSH3 0x461BCD PUSH1 0xE5 SHL DUP2 MSTORE PUSH1 0x4 ADD PUSH2 0xB1E SWAP1 PUSH2 0x5B96 JUMP JUMPDEST PUSH1 0x4 DUP2 ADD DUP4 SWAP1 SSTORE JUMPDEST DUP4 ISZERO PUSH2 0x1431 JUMPI DUP1 PUSH1 0x2 ADD SLOAD DUP5 LT ISZERO PUSH2 0x13CC JUMPI PUSH1 0x40 MLOAD PUSH3 0x461BCD PUSH1 0xE5 SHL DUP2 MSTORE PUSH1 0x4 ADD PUSH2 0xB1E SWAP1 PUSH2 0x5C00 JUMP JUMPDEST PUSH1 0x0 DUP2 PUSH1 0x2 ADD SLOAD DUP6 PUSH2 0x13DE SWAP2 SWAP1 PUSH2 0x5C51 JUMP JUMPDEST SWAP1 POP DUP1 ISZERO PUSH2 0x142F JUMPI PUSH1 0x2 DUP3 ADD DUP6 SWAP1 SSTORE CALLVALUE DUP2 GT ISZERO PUSH2 0x142F JUMPI PUSH1 0x40 MLOAD PUSH3 0x461BCD PUSH1 0xE5 SHL DUP2 MSTORE PUSH1 0x20 PUSH1 0x4 DUP3 ADD MSTORE PUSH1 0xF PUSH1 0x24 DUP3 ADD MSTORE PUSH15 0x39B437BAB632103830BC903234B333 PUSH1 0x89 SHL PUSH1 0x44 DUP3 ADD MSTORE PUSH1 0x64 ADD PUSH2 0xB1E JUMP JUMPDEST POP JUMPDEST POP POP POP POP POP JUMP JUMPDEST PUSH1 0x1 PUSH1 0x1 PUSH1 0xA0 SHL SUB DUP4 AND PUSH1 0x0 SWAP1 DUP2 MSTORE PUSH1 0xF PUSH1 0x20 MSTORE PUSH1 0x40 SWAP1 KECCAK256 PUSH1 0x60 SWAP1 PUSH2 0x145C SWAP1 PUSH2 0x341B JUMP JUMPDEST DUP3 LT PUSH2 0x1493 JUMPI PUSH1 0x1 PUSH1 0x1 PUSH1 0xA0 SHL SUB DUP5 AND PUSH1 0x0 SWAP1 DUP2 MSTORE PUSH1 0xF PUSH1 0x20 MSTORE PUSH1 0x40 SWAP1 KECCAK256 PUSH1 0x1 SWAP1 PUSH2 0x1486 SWAP1 PUSH2 0x341B JUMP JUMPDEST PUSH2 0x1490 SWAP2 SWAP1 PUSH2 0x5C51 JUMP JUMPDEST SWAP2 POP JUMPDEST PUSH1 0x0 PUSH2 0x149F DUP5 DUP5 PUSH2 0x5C51 JUMP JUMPDEST PUSH2 0x14AA SWAP1 PUSH1 0x1 PUSH2 0x50D7 JUMP JUMPDEST SWAP1 POP PUSH1 0x0 DUP2 PUSH1 0x1 PUSH1 0x1 PUSH1 0x40 SHL SUB DUP2 GT ISZERO PUSH2 0x14C6 JUMPI PUSH2 0x14C6 PUSH2 0x5128 JUMP JUMPDEST PUSH1 0x40 MLOAD SWAP1 DUP1 DUP3 MSTORE DUP1 PUSH1 0x20 MUL PUSH1 0x20 ADD DUP3 ADD PUSH1 0x40 MSTORE DUP1 ISZERO PUSH2 0x14FF JUMPI DUP2 PUSH1 0x20 ADD JUMPDEST PUSH2 0x14EC PUSH2 0x4F40 JUMP JUMPDEST DUP2 MSTORE PUSH1 0x20 ADD SWAP1 PUSH1 0x1 SWAP1 SUB SWAP1 DUP2 PUSH2 0x14E4 JUMPI SWAP1 POP JUMPDEST POP SWAP1 POP PUSH1 0x0 DUP6 JUMPDEST DUP6 DUP2 GT PUSH2 0x1571 JUMPI PUSH1 0x1 PUSH1 0x1 PUSH1 0xA0 SHL SUB DUP9 AND PUSH1 0x0 SWAP1 DUP2 MSTORE PUSH1 0xF PUSH1 0x20 MSTORE PUSH1 0x40 SWAP1 KECCAK256 PUSH2 0x1533 SWAP1 PUSH2 0x3B1 SWAP1 DUP4 PUSH2 0x347D JUMP JUMPDEST DUP4 DUP4 DUP2 MLOAD DUP2 LT PUSH2 0x1545 JUMPI PUSH2 0x1545 PUSH2 0x5A5D JUMP JUMPDEST PUSH1 0x20 MUL PUSH1 0x20 ADD ADD DUP2 SWAP1 MSTORE POP DUP2 DUP1 PUSH2 0x155B SWAP1 PUSH2 0x5ACE JUMP JUMPDEST SWAP3 POP POP DUP1 DUP1 PUSH2 0x1569 SWAP1 PUSH2 0x5ACE JUMP JUMPDEST SWAP2 POP POP PUSH2 0x1506 JUMP JUMPDEST POP SWAP1 SWAP7 SWAP6 POP POP POP POP POP POP JUMP JUMPDEST PUSH1 0x0 DUP2 PUSH1 0x1 PUSH1 0x1 PUSH1 0xA0 SHL SUB AND PUSH4 0xC45A0155 PUSH1 0x40 MLOAD DUP2 PUSH4 0xFFFFFFFF AND PUSH1 0xE0 SHL DUP2 MSTORE PUSH1 0x4 ADD PUSH1 0x20 PUSH1 0x40 MLOAD DUP1 DUP4 SUB DUP2 DUP7 GAS STATICCALL SWAP3 POP POP POP DUP1 ISZERO PUSH2 0x15D9 JUMPI POP PUSH1 0x40 DUP1 MLOAD PUSH1 0x1F RETURNDATASIZE SWAP1 DUP2 ADD PUSH1 0x1F NOT AND DUP3 ADD SWAP1 SWAP3 MSTORE PUSH2 0x15D6 SWAP2 DUP2 ADD SWAP1 PUSH2 0x5C68 JUMP JUMPDEST PUSH1 0x1 JUMPDEST PUSH2 0x15E5 JUMPI POP PUSH1 0x0 SWAP2 SWAP1 POP JUMP JUMPDEST PUSH1 0x1 PUSH1 0x1 PUSH1 0xA0 SHL SUB DUP2 AND ISZERO PUSH2 0x15F9 JUMPI PUSH1 0x1 SWAP2 POP JUMPDEST POP JUMPDEST SWAP2 SWAP1 POP JUMP JUMPDEST PUSH1 0x0 PUSH2 0xFDD PUSH1 0xC PUSH2 0x341B JUMP JUMPDEST DUP2 PUSH2 0x1616 DUP2 PUSH2 0x3425 JUMP JUMPDEST POP PUSH1 0x0 PUSH1 0x5 PUSH2 0x1624 DUP6 PUSH2 0x3425 JUMP JUMPDEST DUP2 SLOAD DUP2 LT PUSH2 0x1634 JUMPI PUSH2 0x1634 PUSH2 0x5A5D JUMP JUMPDEST PUSH1 0x0 SWAP2 DUP3 MSTORE PUSH1 0x20 SWAP1 SWAP2 KECCAK256 PUSH1 0xB SWAP1 SWAP2 MUL ADD PUSH1 0x2 DUP2 ADD SLOAD SWAP1 SWAP2 POP PUSH1 0x1 PUSH1 0x1 PUSH1 0xA0 SHL SUB AND CALLER DUP2 EQ PUSH2 0x1674 JUMPI PUSH1 0x40 MLOAD PUSH3 0x461BCD PUSH1 0xE5 SHL DUP2 MSTORE PUSH1 0x4 ADD PUSH2 0xB1E SWAP1 PUSH2 0x5AF6 JUMP JUMPDEST PUSH1 0x2 DUP3 ADD DUP1 SLOAD PUSH1 0x1 PUSH1 0x1 PUSH1 0xA0 SHL SUB NOT AND PUSH1 0x1 PUSH1 0x1 PUSH1 0xA0 SHL SUB DUP7 DUP2 AND SWAP2 SWAP1 SWAP2 OR SWAP1 SWAP2 SSTORE PUSH1 0x1 DUP1 DUP5 ADD SLOAD DUP3 AND PUSH1 0x0 SWAP1 DUP2 MSTORE PUSH1 0xE PUSH1 0x20 MSTORE PUSH1 0x40 SWAP1 KECCAK256 SWAP1 DUP2 ADD SLOAD SWAP1 SWAP2 AND ISZERO DUP1 ISZERO SWAP1 PUSH2 0x1706 JUMPI PUSH1 0x1 PUSH1 0x1 PUSH1 0xA0 SHL SUB DUP4 AND PUSH1 0x0 SWAP1 DUP2 MSTORE PUSH1 0x7 PUSH1 0x20 MSTORE PUSH1 0x40 SWAP1 KECCAK256 PUSH2 0x16DD SWAP1 DUP9 PUSH2 0x3540 JUMP JUMPDEST POP PUSH1 0x1 PUSH1 0x1 PUSH1 0xA0 SHL SUB DUP7 AND PUSH1 0x0 SWAP1 DUP2 MSTORE PUSH1 0x7 PUSH1 0x20 MSTORE PUSH1 0x40 SWAP1 KECCAK256 PUSH2 0x1700 SWAP1 DUP9 PUSH2 0x354C JUMP JUMPDEST POP PUSH2 0x174D JUMP JUMPDEST PUSH1 0x1 PUSH1 0x1 PUSH1 0xA0 SHL SUB DUP4 AND PUSH1 0x0 SWAP1 DUP2 MSTORE PUSH1 0x8 PUSH1 0x20 MSTORE PUSH1 0x40 SWAP1 KECCAK256 PUSH2 0x1728 SWAP1 DUP9 PUSH2 0x3540 JUMP JUMPDEST POP PUSH1 0x1 PUSH1 0x1 PUSH1 0xA0 SHL SUB DUP7 AND PUSH1 0x0 SWAP1 DUP2 MSTORE PUSH1 0x8 PUSH1 0x20 MSTORE PUSH1 0x40 SWAP1 KECCAK256 PUSH2 0x174B SWAP1 DUP9 PUSH2 0x354C JUMP JUMPDEST POP JUMPDEST PUSH32 0x9075AD040756C0D8743A1FED927066A92C4755071615BF61E04B17583D961CAF DUP8 DUP5 DUP9 PUSH1 0x40 MLOAD PUSH2 0x1780 SWAP4 SWAP3 SWAP2 SWAP1 PUSH2 0x5C85 JUMP JUMPDEST PUSH1 0x40 MLOAD DUP1 SWAP2 SUB SWAP1 LOG1 POP POP POP POP POP POP POP JUMP JUMPDEST DUP2 PUSH2 0x179B DUP2 PUSH2 0x3425 JUMP JUMPDEST POP PUSH1 0x0 PUSH1 0x5 PUSH2 0x17A9 DUP6 PUSH2 0x3425 JUMP JUMPDEST DUP2 SLOAD DUP2 LT PUSH2 0x17B9 JUMPI PUSH2 0x17B9 PUSH2 0x5A5D JUMP JUMPDEST PUSH1 0x0 SWAP2 DUP3 MSTORE PUSH1 0x20 SWAP1 SWAP2 KECCAK256 PUSH1 0x2 PUSH1 0xB SWAP1 SWAP3 MUL ADD SWAP1 DUP2 ADD SLOAD SWAP1 SWAP2 POP PUSH1 0x1 PUSH1 0x1 PUSH1 0xA0 SHL SUB AND CALLER EQ PUSH2 0x17F9 JUMPI PUSH1 0x40 MLOAD PUSH3 0x461BCD PUSH1 0xE5 SHL DUP2 MSTORE PUSH1 0x4 ADD PUSH2 0xB1E SWAP1 PUSH2 0x5AF6 JUMP JUMPDEST PUSH1 0x6 DUP2 ADD SLOAD ISZERO PUSH2 0x1812 JUMPI PUSH2 0x180D DUP2 DUP5 PUSH2 0x3558 JUMP JUMPDEST PUSH2 0x181C JUMP JUMPDEST PUSH2 0x181C DUP2 DUP5 PUSH2 0x38B7 JUMP JUMPDEST POP POP POP POP JUMP JUMPDEST PUSH1 0x1 PUSH1 0x1 PUSH1 0xA0 SHL SUB DUP2 AND PUSH1 0x0 SWAP1 DUP2 MSTORE PUSH1 0x9 PUSH1 0x20 MSTORE PUSH1 0x40 DUP2 KECCAK256 PUSH2 0xD0C SWAP1 PUSH2 0x341B JUMP JUMPDEST PUSH1 0x60 PUSH2 0x1856 PUSH1 0x10 PUSH1 0x40 MLOAD PUSH2 0x10F7 SWAP1 PUSH2 0x5AE7 JUMP JUMPDEST DUP3 LT PUSH2 0x187C JUMPI PUSH1 0x1 PUSH2 0x186F PUSH1 0x10 PUSH1 0x40 MLOAD PUSH2 0x10F7 SWAP1 PUSH2 0x5AE7 JUMP JUMPDEST PUSH2 0x1879 SWAP2 SWAP1 PUSH2 0x5C51 JUMP JUMPDEST SWAP2 POP JUMPDEST PUSH1 0x0 PUSH2 0x1888 DUP5 DUP5 PUSH2 0x5C51 JUMP JUMPDEST PUSH2 0x1893 SWAP1 PUSH1 0x1 PUSH2 0x50D7 JUMP JUMPDEST SWAP1 POP PUSH1 0x0 DUP2 PUSH1 0x1 PUSH1 0x1 PUSH1 0x40 SHL SUB DUP2 GT ISZERO PUSH2 0x18AF JUMPI PUSH2 0x18AF PUSH2 0x5128 JUMP JUMPDEST PUSH1 0x40 MLOAD SWAP1 DUP1 DUP3 MSTORE DUP1 PUSH1 0x20 MUL PUSH1 0x20 ADD DUP3 ADD PUSH1 0x40 MSTORE DUP1 ISZERO PUSH2 0x18E8 JUMPI DUP2 PUSH1 0x20 ADD JUMPDEST PUSH2 0x18D5 PUSH2 0x4FAC JUMP JUMPDEST DUP2 MSTORE PUSH1 0x20 ADD SWAP1 PUSH1 0x1 SWAP1 SUB SWAP1 DUP2 PUSH2 0x18CD JUMPI SWAP1 POP JUMPDEST POP SWAP1 POP PUSH1 0x0 DUP6 JUMPDEST DUP6 DUP2 GT PUSH2 0x195E JUMPI PUSH2 0x1920 PUSH2 0xAE3 DUP3 PUSH1 0x10 PUSH1 0x40 MLOAD PUSH2 0x190B SWAP1 PUSH2 0x5AE7 JUMP JUMPDEST SWAP1 DUP2 MSTORE PUSH1 0x40 MLOAD SWAP1 DUP2 SWAP1 SUB PUSH1 0x20 ADD SWAP1 KECCAK256 SWAP1 PUSH2 0x347D JUMP JUMPDEST DUP4 DUP4 DUP2 MLOAD DUP2 LT PUSH2 0x1932 JUMPI PUSH2 0x1932 PUSH2 0x5A5D JUMP JUMPDEST PUSH1 0x20 MUL PUSH1 0x20 ADD ADD DUP2 SWAP1 MSTORE POP DUP2 DUP1 PUSH2 0x1948 SWAP1 PUSH2 0x5ACE JUMP JUMPDEST SWAP3 POP POP DUP1 DUP1 PUSH2 0x1956 SWAP1 PUSH2 0x5ACE JUMP JUMPDEST SWAP2 POP POP PUSH2 0x18EF JUMP JUMPDEST POP SWAP1 SWAP6 SWAP5 POP POP POP POP POP JUMP JUMPDEST PUSH2 0x1971 PUSH2 0x4F40 JUMP JUMPDEST DUP2 PUSH2 0x197B DUP5 PUSH2 0x2F5B JUMP JUMPDEST GT PUSH2 0x1998 JUMPI PUSH1 0x40 MLOAD PUSH3 0x461BCD PUSH1 0xE5 SHL DUP2 MSTORE PUSH1 0x4 ADD PUSH2 0xB1E SWAP1 PUSH2 0x5AA7 JUMP JUMPDEST PUSH1 0x1 PUSH1 0x1 PUSH1 0xA0 SHL SUB DUP4 AND PUSH1 0x0 SWAP1 DUP2 MSTORE PUSH1 0x8 PUSH1 0x20 MSTORE PUSH1 0x40 SWAP1 KECCAK256 PUSH2 0xED4 SWAP1 PUSH2 0x3B1 SWAP1 DUP5 PUSH2 0x347D JUMP JUMPDEST PUSH1 0x0 DUP3 GT PUSH2 0x1A00 JUMPI PUSH1 0x40 MLOAD PUSH3 0x461BCD PUSH1 0xE5 SHL DUP2 MSTORE PUSH1 0x20 PUSH1 0x4 DUP3 ADD MSTORE PUSH1 0xF PUSH1 0x24 DUP3 ADD MSTORE PUSH15 0x1A5B9D985B1A59081B1BD8DAC81A59 PUSH1 0x8A SHL PUSH1 0x44 DUP3 ADD MSTORE PUSH1 0x64 ADD PUSH2 0xB1E JUMP JUMPDEST PUSH1 0x0 PUSH1 0x6 PUSH2 0x1A0D DUP5 PUSH2 0x34E8 JUMP JUMPDEST DUP2 SLOAD DUP2 LT PUSH2 0x1A1D JUMPI PUSH2 0x1A1D PUSH2 0x5A5D JUMP JUMPDEST SWAP1 PUSH1 0x0 MSTORE PUSH1 0x20 PUSH1 0x0 KECCAK256 SWAP1 PUSH1 0xA MUL ADD SWAP1 POP DUP1 PUSH1 0x4 ADD SLOAD DUP3 LT ISZERO PUSH2 0x1A51 JUMPI PUSH1 0x40 MLOAD PUSH3 0x461BCD PUSH1 0xE5 SHL DUP2 MSTORE PUSH1 0x4 ADD PUSH2 0xB1E SWAP1 PUSH2 0x5CA4 JUMP JUMPDEST PUSH1 0x1 DUP2 ADD SLOAD PUSH1 0x1 PUSH1 0x1 PUSH1 0xA0 SHL SUB AND CALLER EQ PUSH2 0x1A7D JUMPI PUSH1 0x40 MLOAD PUSH3 0x461BCD PUSH1 0xE5 SHL DUP2 MSTORE PUSH1 0x4 ADD PUSH2 0xB1E SWAP1 PUSH2 0x5AF6 JUMP JUMPDEST PUSH1 0x8 DUP2 ADD SLOAD ISZERO PUSH2 0x1A9F JUMPI PUSH1 0x40 MLOAD PUSH3 0x461BCD PUSH1 0xE5 SHL DUP2 MSTORE PUSH1 0x4 ADD PUSH2 0xB1E SWAP1 PUSH2 0x5CD6 JUMP JUMPDEST DUP1 SLOAD CALLER PUSH1 0x0 SWAP1 DUP2 MSTORE PUSH1 0x9 PUSH1 0x20 MSTORE PUSH1 0x40 SWAP1 KECCAK256 PUSH2 0x1AB9 SWAP2 PUSH2 0x3540 JUMP JUMPDEST POP PUSH1 0x2 DUP2 ADD SLOAD PUSH1 0x8 DUP3 ADD DUP2 SWAP1 SSTORE DUP2 SLOAD PUSH1 0x40 MLOAD PUSH2 0x1AF1 SWAP2 SWAP1 PUSH1 0x10 SWAP1 PUSH2 0x1ADC SWAP1 PUSH2 0x5AE7 JUMP JUMPDEST SWAP1 DUP2 MSTORE PUSH1 0x40 MLOAD SWAP1 DUP2 SWAP1 SUB PUSH1 0x20 ADD SWAP1 KECCAK256 SWAP1 PUSH2 0x3540 JUMP JUMPDEST POP PUSH1 0x40 MLOAD PUSH1 0x0 SWAP1 CALLER SWAP1 DUP4 SWAP1 DUP4 DUP2 DUP2 DUP2 DUP6 DUP8 GAS CALL SWAP3 POP POP POP RETURNDATASIZE DUP1 PUSH1 0x0 DUP2 EQ PUSH2 0x1B34 JUMPI PUSH1 0x40 MLOAD SWAP2 POP PUSH1 0x1F NOT PUSH1 0x3F RETURNDATASIZE ADD AND DUP3 ADD PUSH1 0x40 MSTORE RETURNDATASIZE DUP3 MSTORE RETURNDATASIZE PUSH1 0x0 PUSH1 0x20 DUP5 ADD RETURNDATACOPY PUSH2 0x1B39 JUMP JUMPDEST PUSH1 0x60 SWAP2 POP JUMPDEST POP POP SWAP1 POP DUP1 PUSH2 0x1B7B JUMPI PUSH1 0x40 MLOAD PUSH3 0x461BCD PUSH1 0xE5 SHL DUP2 MSTORE PUSH1 0x20 PUSH1 0x4 DUP3 ADD MSTORE PUSH1 0xE PUSH1 0x24 DUP3 ADD MSTORE PUSH14 0x1D1C985B99995C8819985A5B1959 PUSH1 0x92 SHL PUSH1 0x44 DUP3 ADD MSTORE PUSH1 0x64 ADD PUSH2 0xB1E JUMP JUMPDEST DUP3 SLOAD PUSH1 0x1 DUP5 ADD SLOAD PUSH1 0x40 MLOAD PUSH32 0x8AF7B343AC14FF86EA14BC075FC0E761855633F85E24D12FF785B0673A228795 SWAP2 PUSH2 0x1BC0 SWAP2 PUSH1 0x1 PUSH1 0x1 PUSH1 0xA0 SHL SUB SWAP1 SWAP2 AND SWAP1 DUP7 SWAP1 DUP10 SWAP1 PUSH2 0x5D01 JUMP JUMPDEST PUSH1 0x40 MLOAD DUP1 SWAP2 SUB SWAP1 LOG2 POP POP POP POP POP JUMP JUMPDEST PUSH2 0x1BD7 PUSH2 0x3489 JUMP JUMPDEST PUSH2 0x1BE1 PUSH1 0x0 PUSH2 0x3A74 JUMP JUMPDEST JUMP JUMPDEST PUSH2 0x1BEB PUSH2 0x3489 JUMP JUMPDEST PUSH1 0x3 DUP1 SLOAD PUSH1 0x1 PUSH1 0x1 PUSH1 0xA0 SHL SUB NOT AND PUSH1 0x1 PUSH1 0x1 PUSH1 0xA0 SHL SUB SWAP3 SWAP1 SWAP3 AND SWAP2 SWAP1 SWAP2 OR SWAP1 SSTORE JUMP JUMPDEST PUSH2 0x1C15 PUSH2 0x4FAC JUMP JUMPDEST PUSH1 0x6 DUP3 DUP2 SLOAD DUP2 LT PUSH2 0x1C28 JUMPI PUSH2 0x1C28 PUSH2 0x5A5D JUMP JUMPDEST SWAP1 PUSH1 0x0 MSTORE PUSH1 0x20 PUSH1 0x0 KECCAK256 SWAP1 PUSH1 0xA MUL ADD PUSH1 0x40 MLOAD DUP1 PUSH2 0x140 ADD PUSH1 0x40 MSTORE SWAP1 DUP2 PUSH1 0x0 DUP3 ADD SLOAD DUP2 MSTORE PUSH1 0x20 ADD PUSH1 0x1 DUP3 ADD PUSH1 0x0 SWAP1 SLOAD SWAP1 PUSH2 0x100 EXP SWAP1 DIV PUSH1 0x1 PUSH1 0x1 PUSH1 0xA0 SHL SUB AND PUSH1 0x1 PUSH1 0x1 PUSH1 0xA0 SHL SUB AND PUSH1 0x1 PUSH1 0x1 PUSH1 0xA0 SHL SUB AND DUP2 MSTORE PUSH1 0x20 ADD PUSH1 0x2 DUP3 ADD SLOAD DUP2 MSTORE PUSH1 0x20 ADD PUSH1 0x3 DUP3 ADD SLOAD DUP2 MSTORE PUSH1 0x20 ADD PUSH1 0x4 DUP3 ADD SLOAD DUP2 MSTORE PUSH1 0x20 ADD PUSH1 0x5 DUP3 ADD SLOAD DUP2 MSTORE PUSH1 0x20 ADD PUSH1 0x6 DUP3 ADD SLOAD DUP2 MSTORE PUSH1 0x20 ADD PUSH1 0x7 DUP3 ADD SLOAD DUP2 MSTORE PUSH1 0x20 ADD PUSH1 0x8 DUP3 ADD SLOAD DUP2 MSTORE PUSH1 0x20 ADD PUSH1 0x9 DUP3 ADD DUP1 SLOAD PUSH2 0xDDB SWAP1 PUSH2 0x5A73 JUMP JUMPDEST DUP2 PUSH2 0x1CDB DUP2 PUSH2 0x34E8 JUMP JUMPDEST POP PUSH1 0x0 PUSH1 0x6 PUSH2 0x1CE9 DUP6 PUSH2 0x34E8 JUMP JUMPDEST DUP2 SLOAD DUP2 LT PUSH2 0x1CF9 JUMPI PUSH2 0x1CF9 PUSH2 0x5A5D JUMP JUMPDEST PUSH1 0x0 SWAP2 DUP3 MSTORE PUSH1 0x20 SWAP1 SWAP2 KECCAK256 PUSH1 0xA SWAP1 SWAP2 MUL ADD PUSH1 0x1 DUP2 ADD SLOAD SWAP1 SWAP2 POP PUSH1 0x1 PUSH1 0x1 PUSH1 0xA0 SHL SUB AND CALLER DUP2 EQ PUSH2 0x1D39 JUMPI PUSH1 0x40 MLOAD PUSH3 0x461BCD PUSH1 0xE5 SHL DUP2 MSTORE PUSH1 0x4 ADD PUSH2 0xB1E SWAP1 PUSH2 0x5AF6 JUMP JUMPDEST PUSH1 0x1 DUP3 ADD DUP1 SLOAD PUSH1 0x1 PUSH1 0x1 PUSH1 0xA0 SHL SUB NOT AND PUSH1 0x1 PUSH1 0x1 PUSH1 0xA0 SHL SUB DUP7 DUP2 AND SWAP2 SWAP1 SWAP2 OR SWAP1 SWAP2 SSTORE DUP2 AND PUSH1 0x0 SWAP1 DUP2 MSTORE PUSH1 0x9 PUSH1 0x20 MSTORE PUSH1 0x40 SWAP1 KECCAK256 PUSH2 0x1D75 SWAP1 DUP7 PUSH2 0x3540 JUMP JUMPDEST POP PUSH1 0x1 PUSH1 0x1 PUSH1 0xA0 SHL SUB DUP5 AND PUSH1 0x0 SWAP1 DUP2 MSTORE PUSH1 0x9 PUSH1 0x20 MSTORE PUSH1 0x40 SWAP1 KECCAK256 PUSH2 0x1D98 SWAP1 DUP7 PUSH2 0x354C JUMP JUMPDEST POP PUSH32 0x9075AD040756C0D8743A1FED927066A92C4755071615BF61E04B17583D961CAF DUP6 DUP3 DUP7 PUSH1 0x40 MLOAD PUSH2 0x1DCC SWAP4 SWAP3 SWAP2 SWAP1 PUSH2 0x5C85 JUMP JUMPDEST PUSH1 0x40 MLOAD DUP1 SWAP2 SUB SWAP1 LOG1 POP POP POP POP POP JUMP JUMPDEST PUSH1 0x60 PUSH2 0x1DE7 PUSH1 0xC PUSH2 0x341B JUMP JUMPDEST DUP3 LT PUSH2 0x1E06 JUMPI PUSH1 0x1 PUSH2 0x1DF9 PUSH1 0xC PUSH2 0x341B JUMP JUMPDEST PUSH2 0x1E03 SWAP2 SWAP1 PUSH2 0x5C51 JUMP JUMPDEST SWAP2 POP JUMPDEST PUSH1 0x0 PUSH2 0x1E12 DUP5 DUP5 PUSH2 0x5C51 JUMP JUMPDEST PUSH2 0x1E1D SWAP1 PUSH1 0x1 PUSH2 0x50D7 JUMP JUMPDEST SWAP1 POP PUSH1 0x0 DUP2 PUSH1 0x1 PUSH1 0x1 PUSH1 0x40 SHL SUB DUP2 GT ISZERO PUSH2 0x1E39 JUMPI PUSH2 0x1E39 PUSH2 0x5128 JUMP JUMPDEST PUSH1 0x40 MLOAD SWAP1 DUP1 DUP3 MSTORE DUP1 PUSH1 0x20 MUL PUSH1 0x20 ADD DUP3 ADD PUSH1 0x40 MSTORE DUP1 ISZERO PUSH2 0x1E72 JUMPI DUP2 PUSH1 0x20 ADD JUMPDEST PUSH2 0x1E5F PUSH2 0x5008 JUMP JUMPDEST DUP2 MSTORE PUSH1 0x20 ADD SWAP1 PUSH1 0x1 SWAP1 SUB SWAP1 DUP2 PUSH2 0x1E57 JUMPI SWAP1 POP JUMPDEST POP SWAP1 POP PUSH1 0x0 DUP6 JUMPDEST DUP6 DUP2 GT PUSH2 0x195E JUMPI PUSH1 0xE PUSH1 0x0 PUSH2 0x1E8F PUSH1 0xC DUP5 PUSH2 0x347D JUMP JUMPDEST PUSH1 0x1 PUSH1 0x1 PUSH1 0xA0 SHL SUB SWAP1 DUP2 AND DUP3 MSTORE PUSH1 0x20 DUP1 DUP4 ADD SWAP4 SWAP1 SWAP4 MSTORE PUSH1 0x40 SWAP2 DUP3 ADD PUSH1 0x0 KECCAK256 DUP3 MLOAD PUSH1 0x60 DUP2 ADD DUP5 MSTORE DUP2 SLOAD DUP4 AND DUP2 MSTORE PUSH1 0x1 DUP3 ADD SLOAD SWAP1 SWAP3 AND SWAP4 DUP3 ADD SWAP4 SWAP1 SWAP4 MSTORE PUSH1 0x2 SWAP1 SWAP3 ADD SLOAD SWAP1 DUP3 ADD MSTORE DUP4 MLOAD DUP5 SWAP1 DUP5 SWAP1 DUP2 LT PUSH2 0x1EE8 JUMPI PUSH2 0x1EE8 PUSH2 0x5A5D JUMP JUMPDEST PUSH1 0x20 MUL PUSH1 0x20 ADD ADD DUP2 SWAP1 MSTORE POP DUP2 DUP1 PUSH2 0x1EFE SWAP1 PUSH2 0x5ACE JUMP JUMPDEST SWAP3 POP POP DUP1 DUP1 PUSH2 0x1F0C SWAP1 PUSH2 0x5ACE JUMP JUMPDEST SWAP2 POP POP PUSH2 0x1E79 JUMP JUMPDEST PUSH2 0x1F1C PUSH2 0x5008 JUMP JUMPDEST PUSH1 0xE PUSH1 0x0 PUSH2 0x1F2B PUSH1 0xC DUP6 PUSH2 0x347D JUMP JUMPDEST PUSH1 0x1 PUSH1 0x1 PUSH1 0xA0 SHL SUB SWAP1 DUP2 AND DUP3 MSTORE PUSH1 0x20 DUP1 DUP4 ADD SWAP4 SWAP1 SWAP4 MSTORE PUSH1 0x40 SWAP2 DUP3 ADD PUSH1 0x0 KECCAK256 DUP3 MLOAD PUSH1 0x60 DUP2 ADD DUP5 MSTORE DUP2 SLOAD DUP4 AND DUP2 MSTORE PUSH1 0x1 DUP3 ADD SLOAD SWAP1 SWAP3 AND SWAP4 DUP3 ADD SWAP4 SWAP1 SWAP4 MSTORE PUSH1 0x2 SWAP1 SWAP3 ADD SLOAD SWAP1 DUP3 ADD MSTORE SWAP3 SWAP2 POP POP JUMP JUMPDEST PUSH1 0x0 DUP1 PUSH2 0x1F82 DUP5 PUSH2 0x325B JUMP JUMPDEST SWAP1 POP PUSH2 0x1F8E DUP2 DUP5 PUSH2 0x3ACD JUMP JUMPDEST SWAP5 SWAP4 POP POP POP POP JUMP JUMPDEST PUSH2 0x1F9E PUSH2 0x3489 JUMP JUMPDEST PUSH1 0x14 DUP1 SLOAD PUSH1 0x1 PUSH1 0x1 PUSH1 0xA0 SHL SUB NOT AND PUSH1 0x1 PUSH1 0x1 PUSH1 0xA0 SHL SUB SWAP3 SWAP1 SWAP3 AND SWAP2 SWAP1 SWAP2 OR SWAP1 SSTORE JUMP JUMPDEST PUSH1 0x0 SLOAD PUSH2 0x100 SWAP1 DIV PUSH1 0x1 PUSH1 0x1 PUSH1 0xA0 SHL SUB AND SWAP1 JUMP JUMPDEST PUSH2 0x1FDC PUSH2 0x3489 JUMP JUMPDEST PUSH1 0x2 SSTORE JUMP JUMPDEST PUSH2 0x1FE9 PUSH2 0x3489 JUMP JUMPDEST PUSH1 0x40 MLOAD PUSH4 0xA9059CBB PUSH1 0xE0 SHL DUP2 MSTORE DUP3 SWAP1 PUSH1 0x1 PUSH1 0x1 PUSH1 0xA0 SHL SUB DUP3 AND SWAP1 PUSH4 0xA9059CBB SWAP1 PUSH2 0x2019 SWAP1 CALLER SWAP1 DUP7 SWAP1 PUSH1 0x4 ADD PUSH2 0x5D22 JUMP JUMPDEST PUSH1 0x20 PUSH1 0x40 MLOAD DUP1 DUP4 SUB DUP2 PUSH1 0x0 DUP8 GAS CALL ISZERO DUP1 ISZERO PUSH2 0x2038 JUMPI RETURNDATASIZE PUSH1 0x0 DUP1 RETURNDATACOPY RETURNDATASIZE PUSH1 0x0 REVERT JUMPDEST POP POP POP POP PUSH1 0x40 MLOAD RETURNDATASIZE PUSH1 0x1F NOT PUSH1 0x1F DUP3 ADD AND DUP3 ADD DUP1 PUSH1 0x40 MSTORE POP DUP2 ADD SWAP1 PUSH2 0x181C SWAP2 SWAP1 PUSH2 0x59C7 JUMP JUMPDEST PUSH2 0x2064 PUSH2 0x3489 JUMP JUMPDEST PUSH1 0x1 SSTORE JUMP JUMPDEST PUSH2 0x2071 PUSH2 0x5008 JUMP JUMPDEST PUSH1 0xE PUSH1 0x0 PUSH2 0x1F2B PUSH1 0xA DUP6 PUSH2 0x347D JUMP JUMPDEST PUSH2 0x10E1 DUP2 PUSH1 0x0 PUSH2 0x160C JUMP JUMPDEST PUSH1 0x60 PUSH2 0x2097 PUSH1 0xA PUSH2 0x341B JUMP JUMPDEST DUP3 LT PUSH2 0x20B6 JUMPI PUSH1 0x1 PUSH2 0x20A9 PUSH1 0xA PUSH2 0x341B JUMP JUMPDEST PUSH2 0x20B3 SWAP2 SWAP1 PUSH2 0x5C51 JUMP JUMPDEST SWAP2 POP JUMPDEST PUSH1 0x0 PUSH2 0x20C2 DUP5 DUP5 PUSH2 0x5C51 JUMP JUMPDEST PUSH2 0x20CD SWAP1 PUSH1 0x1 PUSH2 0x50D7 JUMP JUMPDEST SWAP1 POP PUSH1 0x0 DUP2 PUSH1 0x1 PUSH1 0x1 PUSH1 0x40 SHL SUB DUP2 GT ISZERO PUSH2 0x20E9 JUMPI PUSH2 0x20E9 PUSH2 0x5128 JUMP JUMPDEST PUSH1 0x40 MLOAD SWAP1 DUP1 DUP3 MSTORE DUP1 PUSH1 0x20 MUL PUSH1 0x20 ADD DUP3 ADD PUSH1 0x40 MSTORE DUP1 ISZERO PUSH2 0x2122 JUMPI DUP2 PUSH1 0x20 ADD JUMPDEST PUSH2 0x210F PUSH2 0x5008 JUMP JUMPDEST DUP2 MSTORE PUSH1 0x20 ADD SWAP1 PUSH1 0x1 SWAP1 SUB SWAP1 DUP2 PUSH2 0x2107 JUMPI SWAP1 POP JUMPDEST POP SWAP1 POP PUSH1 0x0 DUP6 JUMPDEST DUP6 DUP2 GT PUSH2 0x195E JUMPI PUSH1 0xE PUSH1 0x0 PUSH2 0x213F PUSH1 0xA DUP5 PUSH2 0x347D JUMP JUMPDEST PUSH1 0x1 PUSH1 0x1 PUSH1 0xA0 SHL SUB SWAP1 DUP2 AND DUP3 MSTORE PUSH1 0x20 DUP1 DUP4 ADD SWAP4 SWAP1 SWAP4 MSTORE PUSH1 0x40 SWAP2 DUP3 ADD PUSH1 0x0 KECCAK256 DUP3 MLOAD PUSH1 0x60 DUP2 ADD DUP5 MSTORE DUP2 SLOAD DUP4 AND DUP2 MSTORE PUSH1 0x1 DUP3 ADD SLOAD SWAP1 SWAP3 AND SWAP4 DUP3 ADD SWAP4 SWAP1 SWAP4 MSTORE PUSH1 0x2 SWAP1 SWAP3 ADD SLOAD SWAP1 DUP3 ADD MSTORE DUP4 MLOAD DUP5 SWAP1 DUP5 SWAP1 DUP2 LT PUSH2 0x2198 JUMPI PUSH2 0x2198 PUSH2 0x5A5D JUMP JUMPDEST PUSH1 0x20 MUL PUSH1 0x20 ADD ADD DUP2 SWAP1 MSTORE POP DUP2 DUP1 PUSH2 0x21AE SWAP1 PUSH2 0x5ACE JUMP JUMPDEST SWAP3 POP POP DUP1 DUP1 PUSH2 0x21BC SWAP1 PUSH2 0x5ACE JUMP JUMPDEST SWAP2 POP POP PUSH2 0x2129 JUMP JUMPDEST PUSH1 0x1 PUSH1 0x1 PUSH1 0xA0 SHL SUB DUP2 AND PUSH1 0x0 SWAP1 DUP2 MSTORE PUSH1 0x7 PUSH1 0x20 MSTORE PUSH1 0x40 DUP2 KECCAK256 PUSH1 0x60 SWAP2 SWAP1 PUSH2 0x21E9 SWAP1 PUSH2 0x341B JUMP JUMPDEST SWAP1 POP PUSH1 0x0 DUP2 PUSH1 0x1 PUSH1 0x1 PUSH1 0x40 SHL SUB DUP2 GT ISZERO PUSH2 0x2205 JUMPI PUSH2 0x2205 PUSH2 0x5128 JUMP JUMPDEST PUSH1 0x40 MLOAD SWAP1 DUP1 DUP3 MSTORE DUP1 PUSH1 0x20 MUL PUSH1 0x20 ADD DUP3 ADD PUSH1 0x40 MSTORE DUP1 ISZERO PUSH2 0x223E JUMPI DUP2 PUSH1 0x20 ADD JUMPDEST PUSH2 0x222B PUSH2 0x4F40 JUMP JUMPDEST DUP2 MSTORE PUSH1 0x20 ADD SWAP1 PUSH1 0x1 SWAP1 SUB SWAP1 DUP2 PUSH2 0x2223 JUMPI SWAP1 POP JUMPDEST POP SWAP1 POP PUSH1 0x0 JUMPDEST DUP3 DUP2 LT ISZERO PUSH2 0xFB9 JUMPI PUSH1 0x1 PUSH1 0x1 PUSH1 0xA0 SHL SUB DUP6 AND PUSH1 0x0 SWAP1 DUP2 MSTORE PUSH1 0x7 PUSH1 0x20 MSTORE PUSH1 0x40 SWAP1 KECCAK256 PUSH2 0x2272 SWAP1 PUSH2 0x3B1 SWAP1 DUP4 PUSH2 0x347D JUMP JUMPDEST DUP3 DUP3 DUP2 MLOAD DUP2 LT PUSH2 0x2284 JUMPI PUSH2 0x2284 PUSH2 0x5A5D JUMP JUMPDEST PUSH1 0x20 MUL PUSH1 0x20 ADD ADD DUP2 SWAP1 MSTORE POP DUP1 DUP1 PUSH2 0x229A SWAP1 PUSH2 0x5ACE JUMP JUMPDEST SWAP2 POP POP PUSH2 0x2244 JUMP JUMPDEST DUP3 PUSH2 0x22AC DUP2 PUSH2 0x3425 JUMP JUMPDEST POP PUSH1 0x0 PUSH1 0x5 PUSH2 0x22BA DUP7 PUSH2 0x3425 JUMP JUMPDEST DUP2 SLOAD DUP2 LT PUSH2 0x22CA JUMPI PUSH2 0x22CA PUSH2 0x5A5D JUMP JUMPDEST PUSH1 0x0 SWAP2 DUP3 MSTORE PUSH1 0x20 SWAP1 SWAP2 KECCAK256 PUSH1 0x2 PUSH1 0xB SWAP1 SWAP3 MUL ADD SWAP1 DUP2 ADD SLOAD SWAP1 SWAP2 POP PUSH1 0x1 PUSH1 0x1 PUSH1 0xA0 SHL SUB AND CALLER EQ PUSH2 0x230A JUMPI PUSH1 0x40 MLOAD PUSH3 0x461BCD PUSH1 0xE5 SHL DUP2 MSTORE PUSH1 0x4 ADD PUSH2 0xB1E SWAP1 PUSH2 0x5AF6 JUMP JUMPDEST PUSH1 0x9 DUP2 ADD SLOAD ISZERO PUSH2 0x232C JUMPI PUSH1 0x40 MLOAD PUSH3 0x461BCD PUSH1 0xE5 SHL DUP2 MSTORE PUSH1 0x4 ADD PUSH2 0xB1E SWAP1 PUSH2 0x5B38 JUMP JUMPDEST PUSH1 0x0 DUP4 GT DUP1 PUSH2 0x233B JUMPI POP PUSH1 0x0 DUP5 GT JUMPDEST ISZERO PUSH2 0x24FD JUMPI PUSH1 0x14 SLOAD PUSH1 0x40 MLOAD PUSH4 0x526F812B PUSH1 0xE1 SHL DUP2 MSTORE PUSH1 0x1 PUSH1 0x1 PUSH1 0xA0 SHL SUB SWAP1 SWAP2 AND SWAP1 PUSH4 0xA4DF0256 SWAP1 PUSH2 0x2370 SWAP1 CALLER SWAP1 PUSH1 0x4 ADD PUSH2 0x561D JUMP JUMPDEST PUSH1 0x20 PUSH1 0x40 MLOAD DUP1 DUP4 SUB DUP2 DUP7 GAS STATICCALL ISZERO DUP1 ISZERO PUSH2 0x238D JUMPI RETURNDATASIZE PUSH1 0x0 DUP1 RETURNDATACOPY RETURNDATASIZE PUSH1 0x0 REVERT JUMPDEST POP POP POP POP PUSH1 0x40 MLOAD RETURNDATASIZE PUSH1 0x1F NOT PUSH1 0x1F DUP3 ADD AND DUP3 ADD DUP1 PUSH1 0x40 MSTORE POP DUP2 ADD SWAP1 PUSH2 0x23B1 SWAP2 SWAP1 PUSH2 0x59C7 JUMP JUMPDEST ISZERO DUP1 ISZERO PUSH2 0x242F JUMPI POP PUSH1 0x12 SLOAD PUSH1 0x14 SLOAD PUSH1 0x40 MLOAD PUSH4 0x3AECD0E3 PUSH1 0xE0 SHL DUP2 MSTORE PUSH1 0x1 PUSH1 0x1 PUSH1 0xA0 SHL SUB SWAP1 SWAP2 AND SWAP1 PUSH4 0x3AECD0E3 SWAP1 PUSH2 0x23EC SWAP1 CALLER SWAP1 PUSH1 0x4 ADD PUSH2 0x561D JUMP JUMPDEST PUSH1 0x20 PUSH1 0x40 MLOAD DUP1 DUP4 SUB DUP2 DUP7 GAS STATICCALL ISZERO DUP1 ISZERO PUSH2 0x2409 JUMPI RETURNDATASIZE PUSH1 0x0 DUP1 RETURNDATACOPY RETURNDATASIZE PUSH1 0x0 REVERT JUMPDEST POP POP POP POP PUSH1 0x40 MLOAD RETURNDATASIZE PUSH1 0x1F NOT PUSH1 0x1F DUP3 ADD AND DUP3 ADD DUP1 PUSH1 0x40 MSTORE POP DUP2 ADD SWAP1 PUSH2 0x242D SWAP2 SWAP1 PUSH2 0x59E4 JUMP JUMPDEST LT JUMPDEST ISZERO PUSH2 0x24FD JUMPI PUSH1 0x1 SLOAD CALLVALUE LT ISZERO PUSH2 0x2456 JUMPI PUSH1 0x40 MLOAD PUSH3 0x461BCD PUSH1 0xE5 SHL DUP2 MSTORE PUSH1 0x4 ADD PUSH2 0xB1E SWAP1 PUSH2 0x5B63 JUMP JUMPDEST PUSH1 0x3 SLOAD PUSH1 0x1 SLOAD PUSH1 0x40 MLOAD PUSH1 0x0 SWAP3 PUSH1 0x1 PUSH1 0x1 PUSH1 0xA0 SHL SUB AND SWAP2 SWAP1 DUP4 DUP2 DUP2 DUP2 DUP6 DUP8 GAS CALL SWAP3 POP POP POP RETURNDATASIZE DUP1 PUSH1 0x0 DUP2 EQ PUSH2 0x24A5 JUMPI PUSH1 0x40 MLOAD SWAP2 POP PUSH1 0x1F NOT PUSH1 0x3F RETURNDATASIZE ADD AND DUP3 ADD PUSH1 0x40 MSTORE RETURNDATASIZE DUP3 MSTORE RETURNDATASIZE PUSH1 0x0 PUSH1 0x20 DUP5 ADD RETURNDATACOPY PUSH2 0x24AA JUMP JUMPDEST PUSH1 0x60 SWAP2 POP JUMPDEST POP POP SWAP1 POP DUP1 PUSH2 0x24FB JUMPI PUSH1 0x40 MLOAD PUSH3 0x461BCD PUSH1 0xE5 SHL DUP2 MSTORE PUSH1 0x20 PUSH1 0x4 DUP3 ADD MSTORE PUSH1 0x1D PUSH1 0x24 DUP3 ADD MSTORE PUSH32 0x656469744C6F636B3A20666565207472616E73666572206661696C6564000000 PUSH1 0x44 DUP3 ADD MSTORE PUSH1 0x64 ADD PUSH2 0xB1E JUMP JUMPDEST POP JUMPDEST DUP3 ISZERO PUSH2 0x253A JUMPI DUP1 PUSH1 0x5 ADD SLOAD DUP4 LT ISZERO DUP1 ISZERO PUSH2 0x2516 JUMPI POP TIMESTAMP DUP4 GT JUMPDEST PUSH2 0x2532 JUMPI PUSH1 0x40 MLOAD PUSH3 0x461BCD PUSH1 0xE5 SHL DUP2 MSTORE PUSH1 0x4 ADD PUSH2 0xB1E SWAP1 PUSH2 0x5B96 JUMP JUMPDEST PUSH1 0x5 DUP2 ADD DUP4 SWAP1 SSTORE JUMPDEST DUP4 ISZERO PUSH2 0x25D4 JUMPI DUP1 PUSH1 0x3 ADD SLOAD DUP5 LT ISZERO PUSH2 0x2564 JUMPI PUSH1 0x40 MLOAD PUSH3 0x461BCD PUSH1 0xE5 SHL DUP2 MSTORE PUSH1 0x4 ADD PUSH2 0xB1E SWAP1 PUSH2 0x5C00 JUMP JUMPDEST PUSH1 0x0 DUP2 PUSH1 0x3 ADD SLOAD DUP6 PUSH2 0x2576 SWAP2 SWAP1 PUSH2 0x5C51 JUMP JUMPDEST SWAP1 POP DUP1 ISZERO PUSH2 0x25D2 JUMPI PUSH1 0x3 DUP3 ADD DUP6 SWAP1 SSTORE PUSH1 0x1 DUP3 ADD SLOAD PUSH1 0x1 PUSH1 0x1 PUSH1 0xA0 SHL SUB AND PUSH1 0x0 SWAP1 DUP2 MSTORE PUSH1 0xE PUSH1 0x20 MSTORE PUSH1 0x40 SWAP1 KECCAK256 PUSH1 0x2 DUP2 ADD SLOAD PUSH2 0x25B1 SWAP1 DUP4 SWAP1 PUSH2 0x50D7 JUMP JUMPDEST PUSH1 0x2 DUP3 ADD SSTORE PUSH1 0x1 DUP4 ADD SLOAD PUSH2 0x25D0 SWAP1 PUSH1 0x1 PUSH1 0x1 PUSH1 0xA0 SHL SUB AND CALLER ADDRESS DUP6 PUSH2 0x32CA JUMP JUMPDEST POP JUMPDEST POP JUMPDEST DUP1 SLOAD PUSH1 0x1 DUP3 ADD SLOAD PUSH1 0x2 DUP4 ADD SLOAD PUSH1 0x3 DUP5 ADD SLOAD PUSH1 0x5 DUP6 ADD SLOAD PUSH1 0x40 MLOAD PUSH32 0xA8B26360DF8D5E154FFA5A8A7E894E85F781ACFBBEF0B744FB9551D8FD0FD36C SWAP5 PUSH2 0x1BC0 SWAP5 PUSH1 0x1 PUSH1 0x1 PUSH1 0xA0 SHL SUB SWAP2 DUP3 AND SWAP5 SWAP2 AND SWAP3 SWAP1 SWAP2 PUSH2 0x5A34 JUMP JUMPDEST PUSH1 0x0 PUSH2 0xFDD PUSH1 0xA PUSH2 0x341B JUMP JUMPDEST PUSH1 0x0 DUP1 PUSH2 0x2641 DUP5 PUSH2 0xD12 JUMP JUMPDEST SWAP1 POP PUSH2 0x1F8E DUP2 DUP5 PUSH2 0x3BED JUMP JUMPDEST DUP2 PUSH2 0x2657 DUP2 PUSH2 0x34E8 JUMP JUMPDEST POP PUSH1 0x0 PUSH1 0x6 PUSH2 0x2665 DUP6 PUSH2 0x34E8 JUMP JUMPDEST DUP2 SLOAD DUP2 LT PUSH2 0x2675 JUMPI PUSH2 0x2675 PUSH2 0x5A5D JUMP JUMPDEST PUSH1 0x0 SWAP2 DUP3 MSTORE PUSH1 0x20 SWAP1 SWAP2 KECCAK256 PUSH1 0x1 PUSH1 0xA SWAP1 SWAP3 MUL ADD SWAP1 DUP2 ADD SLOAD SWAP1 SWAP2 POP PUSH1 0x1 PUSH1 0x1 PUSH1 0xA0 SHL SUB AND CALLER EQ PUSH2 0x26B5 JUMPI PUSH1 0x40 MLOAD PUSH3 0x461BCD PUSH1 0xE5 SHL DUP2 MSTORE PUSH1 0x4 ADD PUSH2 0xB1E SWAP1 PUSH2 0x5AF6 JUMP JUMPDEST PUSH2 0x181C DUP2 DUP5 PUSH2 0x3CFA JUMP JUMPDEST PUSH1 0x0 TIMESTAMP DUP7 GT PUSH2 0x26E0 JUMPI PUSH1 0x40 MLOAD PUSH3 0x461BCD PUSH1 0xE5 SHL DUP2 MSTORE PUSH1 0x4 ADD PUSH2 0xB1E SWAP1 PUSH2 0x5D3B JUMP JUMPDEST PUSH1 0x0 DUP5 GT PUSH2 0x2700 JUMPI PUSH1 0x40 MLOAD PUSH3 0x461BCD PUSH1 0xE5 SHL DUP2 MSTORE PUSH1 0x4 ADD PUSH2 0xB1E SWAP1 PUSH2 0x5D70 JUMP JUMPDEST PUSH1 0x0 DUP6 GT DUP1 ISZERO PUSH2 0x2711 JUMPI POP PUSH2 0x2710 DUP6 LT JUMPDEST PUSH2 0x272D JUMPI PUSH1 0x40 MLOAD PUSH3 0x461BCD PUSH1 0xE5 SHL DUP2 MSTORE PUSH1 0x4 ADD PUSH2 0xB1E SWAP1 PUSH2 0x5D97 JUMP JUMPDEST PUSH1 0x0 DUP4 GT DUP1 ISZERO PUSH2 0x273E JUMPI POP PUSH2 0x2710 DUP4 LT JUMPDEST PUSH2 0x275A JUMPI PUSH1 0x40 MLOAD PUSH3 0x461BCD PUSH1 0xE5 SHL DUP2 MSTORE PUSH1 0x4 ADD PUSH2 0xB1E SWAP1 PUSH2 0x5DC5 JUMP JUMPDEST PUSH2 0x2710 PUSH2 0x2767 DUP5 DUP8 PUSH2 0x50D7 JUMP JUMPDEST GT ISZERO PUSH2 0x2785 JUMPI PUSH1 0x40 MLOAD PUSH3 0x461BCD PUSH1 0xE5 SHL DUP2 MSTORE PUSH1 0x4 ADD PUSH2 0xB1E SWAP1 PUSH2 0x5DF5 JUMP JUMPDEST PUSH1 0x14 SLOAD PUSH1 0x40 MLOAD PUSH4 0x526F812B PUSH1 0xE1 SHL DUP2 MSTORE PUSH1 0x1 PUSH1 0x1 PUSH1 0xA0 SHL SUB SWAP1 SWAP2 AND SWAP1 PUSH4 0xA4DF0256 SWAP1 PUSH2 0x27B5 SWAP1 CALLER SWAP1 PUSH1 0x4 ADD PUSH2 0x561D JUMP JUMPDEST PUSH1 0x20 PUSH1 0x40 MLOAD DUP1 DUP4 SUB DUP2 DUP7 GAS STATICCALL ISZERO DUP1 ISZERO PUSH2 0x27D2 JUMPI RETURNDATASIZE PUSH1 0x0 DUP1 RETURNDATACOPY RETURNDATASIZE PUSH1 0x0 REVERT JUMPDEST POP POP POP POP PUSH1 0x40 MLOAD RETURNDATASIZE PUSH1 0x1F NOT PUSH1 0x1F DUP3 ADD AND DUP3 ADD DUP1 PUSH1 0x40 MSTORE POP DUP2 ADD SWAP1 PUSH2 0x27F6 SWAP2 SWAP1 PUSH2 0x59C7 JUMP JUMPDEST ISZERO DUP1 ISZERO PUSH2 0x2874 JUMPI POP PUSH1 0x12 SLOAD PUSH1 0x14 SLOAD PUSH1 0x40 MLOAD PUSH4 0x3AECD0E3 PUSH1 0xE0 SHL DUP2 MSTORE PUSH1 0x1 PUSH1 0x1 PUSH1 0xA0 SHL SUB SWAP1 SWAP2 AND SWAP1 PUSH4 0x3AECD0E3 SWAP1 PUSH2 0x2831 SWAP1 CALLER SWAP1 PUSH1 0x4 ADD PUSH2 0x561D JUMP JUMPDEST PUSH1 0x20 PUSH1 0x40 MLOAD DUP1 DUP4 SUB DUP2 DUP7 GAS STATICCALL ISZERO DUP1 ISZERO PUSH2 0x284E JUMPI RETURNDATASIZE PUSH1 0x0 DUP1 RETURNDATACOPY RETURNDATASIZE PUSH1 0x0 REVERT JUMPDEST POP POP POP POP PUSH1 0x40 MLOAD RETURNDATASIZE PUSH1 0x1F NOT PUSH1 0x1F DUP3 ADD AND DUP3 ADD DUP1 PUSH1 0x40 MSTORE POP DUP2 ADD SWAP1 PUSH2 0x2872 SWAP2 SWAP1 PUSH2 0x59E4 JUMP JUMPDEST LT JUMPDEST ISZERO PUSH2 0x28F2 JUMPI PUSH1 0x1 SLOAD CALLVALUE LT ISZERO PUSH2 0x289B JUMPI PUSH1 0x40 MLOAD PUSH3 0x461BCD PUSH1 0xE5 SHL DUP2 MSTORE PUSH1 0x4 ADD PUSH2 0xB1E SWAP1 PUSH2 0x59FD JUMP JUMPDEST PUSH1 0x1 SLOAD PUSH1 0x4 PUSH1 0x0 DUP3 DUP3 SLOAD PUSH2 0x28AF SWAP2 SWAP1 PUSH2 0x50D7 JUMP JUMPDEST SWAP1 SWAP2 SSTORE POP POP PUSH1 0x3 SLOAD PUSH1 0x1 SLOAD PUSH1 0x40 MLOAD PUSH1 0x1 PUSH1 0x1 PUSH1 0xA0 SHL SUB SWAP1 SWAP3 AND SWAP2 DUP2 ISZERO PUSH2 0x8FC MUL SWAP2 SWAP1 PUSH1 0x0 DUP2 DUP2 DUP2 DUP6 DUP9 DUP9 CALL SWAP4 POP POP POP POP ISZERO DUP1 ISZERO PUSH2 0x28F0 JUMPI RETURNDATASIZE PUSH1 0x0 DUP1 RETURNDATACOPY RETURNDATASIZE PUSH1 0x0 REVERT JUMPDEST POP JUMPDEST PUSH2 0x2903 DUP11 DUP11 DUP11 DUP11 DUP11 DUP11 DUP11 DUP11 DUP11 PUSH2 0x327E JUMP JUMPDEST SWAP1 POP PUSH2 0x2911 DUP10 CALLER ADDRESS DUP11 PUSH2 0x32CA JUMP JUMPDEST DUP1 PUSH1 0x0 DUP1 MLOAD PUSH1 0x20 PUSH2 0x5F63 DUP4 CODECOPY DUP2 MLOAD SWAP2 MSTORE DUP11 DUP13 DUP11 DUP11 PUSH1 0x40 MLOAD PUSH2 0x2935 SWAP5 SWAP4 SWAP3 SWAP2 SWAP1 PUSH2 0x5A34 JUMP JUMPDEST PUSH1 0x40 MLOAD DUP1 SWAP2 SUB SWAP1 LOG2 JUMPDEST SWAP10 SWAP9 POP POP POP POP POP POP POP POP POP JUMP JUMPDEST PUSH2 0x10E1 DUP2 PUSH1 0x0 PUSH2 0x1CD1 JUMP JUMPDEST PUSH1 0x0 PUSH2 0x2961 DUP3 PUSH2 0xCEB JUMP JUMPDEST PUSH2 0x296A DUP4 PUSH2 0x2F5B JUMP JUMPDEST PUSH2 0xD0C SWAP2 SWAP1 PUSH2 0x50D7 JUMP JUMPDEST DUP2 PUSH2 0x297E DUP2 PUSH2 0x3425 JUMP JUMPDEST POP PUSH1 0x0 PUSH1 0x5 PUSH2 0x298C DUP6 PUSH2 0x3425 JUMP JUMPDEST DUP2 SLOAD DUP2 LT PUSH2 0x299C JUMPI PUSH2 0x299C PUSH2 0x5A5D JUMP JUMPDEST PUSH1 0x0 SWAP2 DUP3 MSTORE PUSH1 0x20 SWAP1 SWAP2 KECCAK256 PUSH1 0x2 PUSH1 0xB SWAP1 SWAP3 MUL ADD SWAP1 DUP2 ADD SLOAD SWAP1 SWAP2 POP PUSH1 0x1 PUSH1 0x1 PUSH1 0xA0 SHL SUB AND CALLER EQ PUSH2 0x29DC JUMPI PUSH1 0x40 MLOAD PUSH3 0x461BCD PUSH1 0xE5 SHL DUP2 MSTORE PUSH1 0x4 ADD PUSH2 0xB1E SWAP1 PUSH2 0x5AF6 JUMP JUMPDEST DUP3 MLOAD PUSH2 0x29F1 SWAP1 PUSH1 0xA DUP4 ADD SWAP1 PUSH1 0x20 DUP7 ADD SWAP1 PUSH2 0x5028 JUMP JUMPDEST POP PUSH1 0x40 MLOAD DUP5 DUP2 MSTORE PUSH32 0xE4A1120FD509C50AEC65802FD3C3C9A4B72BF746FE9A552396185C6DE928E8AA SWAP1 PUSH1 0x20 ADD PUSH1 0x40 MLOAD DUP1 SWAP2 SUB SWAP1 LOG1 POP POP POP POP JUMP JUMPDEST PUSH1 0x1 PUSH1 0x1 PUSH1 0xA0 SHL SUB DUP2 AND PUSH1 0x0 SWAP1 DUP2 MSTORE PUSH1 0x8 PUSH1 0x20 MSTORE PUSH1 0x40 DUP2 KECCAK256 PUSH1 0x60 SWAP2 SWAP1 PUSH2 0x2A50 SWAP1 PUSH2 0x341B JUMP JUMPDEST SWAP1 POP PUSH1 0x0 DUP2 PUSH1 0x1 PUSH1 0x1 PUSH1 0x40 SHL SUB DUP2 GT ISZERO PUSH2 0x2A6C JUMPI PUSH2 0x2A6C PUSH2 0x5128 JUMP JUMPDEST PUSH1 0x40 MLOAD SWAP1 DUP1 DUP3 MSTORE DUP1 PUSH1 0x20 MUL PUSH1 0x20 ADD DUP3 ADD PUSH1 0x40 MSTORE DUP1 ISZERO PUSH2 0x2AA5 JUMPI DUP2 PUSH1 0x20 ADD JUMPDEST PUSH2 0x2A92 PUSH2 0x4F40 JUMP JUMPDEST DUP2 MSTORE PUSH1 0x20 ADD SWAP1 PUSH1 0x1 SWAP1 SUB SWAP1 DUP2 PUSH2 0x2A8A JUMPI SWAP1 POP JUMPDEST POP SWAP1 POP PUSH1 0x0 JUMPDEST DUP3 DUP2 LT ISZERO PUSH2 0xFB9 JUMPI PUSH1 0x1 PUSH1 0x1 PUSH1 0xA0 SHL SUB DUP6 AND PUSH1 0x0 SWAP1 DUP2 MSTORE PUSH1 0x8 PUSH1 0x20 MSTORE PUSH1 0x40 SWAP1 KECCAK256 PUSH2 0x2AD9 SWAP1 PUSH2 0x3B1 SWAP1 DUP4 PUSH2 0x347D JUMP JUMPDEST DUP3 DUP3 DUP2 MLOAD DUP2 LT PUSH2 0x2AEB JUMPI PUSH2 0x2AEB PUSH2 0x5A5D JUMP JUMPDEST PUSH1 0x20 MUL PUSH1 0x20 ADD ADD DUP2 SWAP1 MSTORE POP DUP1 DUP1 PUSH2 0x2B01 SWAP1 PUSH2 0x5ACE JUMP JUMPDEST SWAP2 POP POP PUSH2 0x2AAB JUMP JUMPDEST PUSH1 0x60 DUP11 DUP10 EQ PUSH2 0x2B4E JUMPI PUSH1 0x40 MLOAD PUSH3 0x461BCD PUSH1 0xE5 SHL DUP2 MSTORE PUSH1 0x20 PUSH1 0x4 DUP3 ADD MSTORE PUSH1 0x11 PUSH1 0x24 DUP3 ADD MSTORE PUSH17 0x13195B99DD1A081B5A5CDB585D18DA1959 PUSH1 0x7A SHL PUSH1 0x44 DUP3 ADD MSTORE PUSH1 0x64 ADD PUSH2 0xB1E JUMP JUMPDEST TIMESTAMP DUP7 GT PUSH2 0x2B6D JUMPI PUSH1 0x40 MLOAD PUSH3 0x461BCD PUSH1 0xE5 SHL DUP2 MSTORE PUSH1 0x4 ADD PUSH2 0xB1E SWAP1 PUSH2 0x5D3B JUMP JUMPDEST PUSH1 0x0 DUP5 GT PUSH2 0x2B8D JUMPI PUSH1 0x40 MLOAD PUSH3 0x461BCD PUSH1 0xE5 SHL DUP2 MSTORE PUSH1 0x4 ADD PUSH2 0xB1E SWAP1 PUSH2 0x5D70 JUMP JUMPDEST PUSH1 0x0 DUP6 GT DUP1 ISZERO PUSH2 0x2B9E JUMPI POP PUSH2 0x2710 DUP6 LT JUMPDEST PUSH2 0x2BBA JUMPI PUSH1 0x40 MLOAD PUSH3 0x461BCD PUSH1 0xE5 SHL DUP2 MSTORE PUSH1 0x4 ADD PUSH2 0xB1E SWAP1 PUSH2 0x5D97 JUMP JUMPDEST PUSH1 0x0 DUP4 GT DUP1 ISZERO PUSH2 0x2BCB JUMPI POP PUSH2 0x2710 DUP4 LT JUMPDEST PUSH2 0x2BE7 JUMPI PUSH1 0x40 MLOAD PUSH3 0x461BCD PUSH1 0xE5 SHL DUP2 MSTORE PUSH1 0x4 ADD PUSH2 0xB1E SWAP1 PUSH2 0x5DC5 JUMP JUMPDEST PUSH2 0x2710 PUSH2 0x2BF4 DUP5 DUP8 PUSH2 0x50D7 JUMP JUMPDEST GT ISZERO PUSH2 0x2C12 JUMPI PUSH1 0x40 MLOAD PUSH3 0x461BCD PUSH1 0xE5 SHL DUP2 MSTORE PUSH1 0x4 ADD PUSH2 0xB1E SWAP1 PUSH2 0x5DF5 JUMP JUMPDEST PUSH2 0x2C42 DUP13 DUP13 DUP13 DUP13 DUP13 DUP13 PUSH1 0x40 MLOAD DUP1 PUSH1 0x80 ADD PUSH1 0x40 MSTORE DUP1 DUP15 DUP2 MSTORE PUSH1 0x20 ADD DUP14 DUP2 MSTORE PUSH1 0x20 ADD DUP13 DUP2 MSTORE PUSH1 0x20 ADD DUP12 DUP2 MSTORE POP DUP10 PUSH2 0x3F93 JUMP JUMPDEST SWAP13 SWAP12 POP POP POP POP POP POP POP POP POP POP POP POP JUMP JUMPDEST PUSH1 0x1 PUSH1 0x1 PUSH1 0xA0 SHL SUB DUP2 AND PUSH1 0x0 SWAP1 DUP2 MSTORE PUSH1 0xF PUSH1 0x20 MSTORE PUSH1 0x40 DUP2 KECCAK256 PUSH2 0xD0C SWAP1 PUSH2 0x341B JUMP JUMPDEST PUSH1 0x0 TIMESTAMP DUP7 GT PUSH2 0x2CC2 JUMPI PUSH1 0x40 MLOAD PUSH3 0x461BCD PUSH1 0xE5 SHL DUP2 MSTORE PUSH1 0x20 PUSH1 0x4 DUP3 ADD MSTORE PUSH1 0x1B PUSH1 0x24 DUP3 ADD MSTORE PUSH27 0x506C656173652073657420612076616C6964205447452064617465 PUSH1 0x28 SHL PUSH1 0x44 DUP3 ADD MSTORE PUSH1 0x64 ADD PUSH2 0xB1E JUMP JUMPDEST PUSH1 0x0 DUP5 GT PUSH2 0x2CE2 JUMPI PUSH1 0x40 MLOAD PUSH3 0x461BCD PUSH1 0xE5 SHL DUP2 MSTORE PUSH1 0x4 ADD PUSH2 0xB1E SWAP1 PUSH2 0x5D70 JUMP JUMPDEST PUSH1 0x0 DUP6 GT DUP1 ISZERO PUSH2 0x2CF3 JUMPI POP PUSH2 0x2710 DUP6 LT JUMPDEST PUSH2 0x2D0F JUMPI PUSH1 0x40 MLOAD PUSH3 0x461BCD PUSH1 0xE5 SHL DUP2 MSTORE PUSH1 0x4 ADD PUSH2 0xB1E SWAP1 PUSH2 0x5D97 JUMP JUMPDEST PUSH1 0x0 DUP4 GT DUP1 ISZERO PUSH2 0x2D20 JUMPI POP PUSH2 0x2710 DUP4 LT JUMPDEST PUSH2 0x2D3C JUMPI PUSH1 0x40 MLOAD PUSH3 0x461BCD PUSH1 0xE5 SHL DUP2 MSTORE PUSH1 0x4 ADD PUSH2 0xB1E SWAP1 PUSH2 0x5DC5 JUMP JUMPDEST PUSH2 0x2710 PUSH2 0x2D49 DUP5 DUP8 PUSH2 0x50D7 JUMP JUMPDEST GT ISZERO PUSH2 0x2D67 JUMPI PUSH1 0x40 MLOAD PUSH3 0x461BCD PUSH1 0xE5 SHL DUP2 MSTORE PUSH1 0x4 ADD PUSH2 0xB1E SWAP1 PUSH2 0x5DF5 JUMP JUMPDEST PUSH1 0x14 SLOAD PUSH1 0x40 MLOAD PUSH4 0x526F812B PUSH1 0xE1 SHL DUP2 MSTORE PUSH1 0x1 PUSH1 0x1 PUSH1 0xA0 SHL SUB SWAP1 SWAP2 AND SWAP1 PUSH4 0xA4DF0256 SWAP1 PUSH2 0x2D97 SWAP1 CALLER SWAP1 PUSH1 0x4 ADD PUSH2 0x561D JUMP JUMPDEST PUSH1 0x20 PUSH1 0x40 MLOAD DUP1 DUP4 SUB DUP2 DUP7 GAS STATICCALL ISZERO DUP1 ISZERO PUSH2 0x2DB4 JUMPI RETURNDATASIZE PUSH1 0x0 DUP1 RETURNDATACOPY RETURNDATASIZE PUSH1 0x0 REVERT JUMPDEST POP POP POP POP PUSH1 0x40 MLOAD RETURNDATASIZE PUSH1 0x1F NOT PUSH1 0x1F DUP3 ADD AND DUP3 ADD DUP1 PUSH1 0x40 MSTORE POP DUP2 ADD SWAP1 PUSH2 0x2DD8 SWAP2 SWAP1 PUSH2 0x59C7 JUMP JUMPDEST ISZERO DUP1 ISZERO PUSH2 0x2E56 JUMPI POP PUSH1 0x12 SLOAD PUSH1 0x14 SLOAD PUSH1 0x40 MLOAD PUSH4 0x3AECD0E3 PUSH1 0xE0 SHL DUP2 MSTORE PUSH1 0x1 PUSH1 0x1 PUSH1 0xA0 SHL SUB SWAP1 SWAP2 AND SWAP1 PUSH4 0x3AECD0E3 SWAP1 PUSH2 0x2E13 SWAP1 CALLER SWAP1 PUSH1 0x4 ADD PUSH2 0x561D JUMP JUMPDEST PUSH1 0x20 PUSH1 0x40 MLOAD DUP1 DUP4 SUB DUP2 DUP7 GAS STATICCALL ISZERO DUP1 ISZERO PUSH2 0x2E30 JUMPI RETURNDATASIZE PUSH1 0x0 DUP1 RETURNDATACOPY RETURNDATASIZE PUSH1 0x0 REVERT JUMPDEST POP POP POP POP PUSH1 0x40 MLOAD RETURNDATASIZE PUSH1 0x1F NOT PUSH1 0x1F DUP3 ADD AND DUP3 ADD DUP1 PUSH1 0x40 MSTORE POP DUP2 ADD SWAP1 PUSH2 0x2E54 SWAP2 SWAP1 PUSH2 0x59E4 JUMP JUMPDEST LT JUMPDEST ISZERO PUSH2 0x2EE3 JUMPI DUP7 PUSH1 0x2 SLOAD PUSH2 0x2E69 SWAP2 SWAP1 PUSH2 0x50D7 JUMP JUMPDEST CALLVALUE LT ISZERO PUSH2 0x2E88 JUMPI PUSH1 0x40 MLOAD PUSH3 0x461BCD PUSH1 0xE5 SHL DUP2 MSTORE PUSH1 0x4 ADD PUSH2 0xB1E SWAP1 PUSH2 0x5E47 JUMP JUMPDEST PUSH1 0x2 SLOAD PUSH1 0x4 PUSH1 0x0 DUP3 DUP3 SLOAD PUSH2 0x2E9C SWAP2 SWAP1 PUSH2 0x50D7 JUMP JUMPDEST SWAP1 SWAP2 SSTORE POP POP PUSH1 0x3 SLOAD PUSH1 0x2 SLOAD PUSH1 0x40 MLOAD PUSH1 0x1 PUSH1 0x1 PUSH1 0xA0 SHL SUB SWAP1 SWAP3 AND SWAP2 DUP2 ISZERO PUSH2 0x8FC MUL SWAP2 SWAP1 PUSH1 0x0 DUP2 DUP2 DUP2 DUP6 DUP9 DUP9 CALL SWAP4 POP POP POP POP ISZERO DUP1 ISZERO PUSH2 0x2EDD JUMPI RETURNDATASIZE PUSH1 0x0 DUP1 RETURNDATACOPY RETURNDATASIZE PUSH1 0x0 REVERT JUMPDEST POP PUSH2 0x2F03 JUMP JUMPDEST DUP7 CALLVALUE LT ISZERO PUSH2 0x2F03 JUMPI PUSH1 0x40 MLOAD PUSH3 0x461BCD PUSH1 0xE5 SHL DUP2 MSTORE PUSH1 0x4 ADD PUSH2 0xB1E SWAP1 PUSH2 0x5E7E JUMP JUMPDEST PUSH2 0x2F12 DUP9 DUP9 DUP9 DUP9 DUP9 DUP9 DUP9 PUSH2 0x4151 JUMP JUMPDEST SWAP1 POP DUP1 PUSH32 0x20F7C5268098786F509C1F28CB089B96F36D68B9E1C572FEBDB5847F5ECB2897 DUP10 DUP10 DUP10 PUSH1 0x40 MLOAD PUSH2 0x2F48 SWAP4 SWAP3 SWAP2 SWAP1 PUSH2 0x5D01 JUMP JUMPDEST PUSH1 0x40 MLOAD DUP1 SWAP2 SUB SWAP1 LOG2 SWAP8 SWAP7 POP POP POP POP POP POP POP JUMP JUMPDEST PUSH1 0x1 PUSH1 0x1 PUSH1 0xA0 SHL SUB DUP2 AND PUSH1 0x0 SWAP1 DUP2 MSTORE PUSH1 0x8 PUSH1 0x20 MSTORE PUSH1 0x40 DUP2 KECCAK256 PUSH2 0xD0C SWAP1 PUSH2 0x341B JUMP JUMPDEST PUSH1 0x0 TIMESTAMP DUP4 GT PUSH2 0x2F9D JUMPI PUSH1 0x40 MLOAD PUSH3 0x461BCD PUSH1 0xE5 SHL DUP2 MSTORE PUSH1 0x4 ADD PUSH2 0xB1E SWAP1 PUSH2 0x5990 JUMP JUMPDEST PUSH1 0x14 SLOAD PUSH1 0x40 MLOAD PUSH4 0x526F812B PUSH1 0xE1 SHL DUP2 MSTORE PUSH1 0x1 PUSH1 0x1 PUSH1 0xA0 SHL SUB SWAP1 SWAP2 AND SWAP1 PUSH4 0xA4DF0256 SWAP1 PUSH2 0x2FCD SWAP1 CALLER SWAP1 PUSH1 0x4 ADD PUSH2 0x561D JUMP JUMPDEST PUSH1 0x20 PUSH1 0x40 MLOAD DUP1 DUP4 SUB DUP2 DUP7 GAS STATICCALL ISZERO DUP1 ISZERO PUSH2 0x2FEA JUMPI RETURNDATASIZE PUSH1 0x0 DUP1 RETURNDATACOPY RETURNDATASIZE PUSH1 0x0 REVERT JUMPDEST POP POP POP POP PUSH1 0x40 MLOAD RETURNDATASIZE PUSH1 0x1F NOT PUSH1 0x1F DUP3 ADD AND DUP3 ADD DUP1 PUSH1 0x40 MSTORE POP DUP2 ADD SWAP1 PUSH2 0x300E SWAP2 SWAP1 PUSH2 0x59C7 JUMP JUMPDEST ISZERO DUP1 ISZERO PUSH2 0x308C JUMPI POP PUSH1 0x12 SLOAD PUSH1 0x14 SLOAD PUSH1 0x40 MLOAD PUSH4 0x3AECD0E3 PUSH1 0xE0 SHL DUP2 MSTORE PUSH1 0x1 PUSH1 0x1 PUSH1 0xA0 SHL SUB SWAP1 SWAP2 AND SWAP1 PUSH4 0x3AECD0E3 SWAP1 PUSH2 0x3049 SWAP1 CALLER SWAP1 PUSH1 0x4 ADD PUSH2 0x561D JUMP JUMPDEST PUSH1 0x20 PUSH1 0x40 MLOAD DUP1 DUP4 SUB DUP2 DUP7 GAS STATICCALL ISZERO DUP1 ISZERO PUSH2 0x3066 JUMPI RETURNDATASIZE PUSH1 0x0 DUP1 RETURNDATACOPY RETURNDATASIZE PUSH1 0x0 REVERT JUMPDEST POP POP POP POP PUSH1 0x40 MLOAD RETURNDATASIZE PUSH1 0x1F NOT PUSH1 0x1F DUP3 ADD AND DUP3 ADD DUP1 PUSH1 0x40 MSTORE POP DUP2 ADD SWAP1 PUSH2 0x308A SWAP2 SWAP1 PUSH2 0x59E4 JUMP JUMPDEST LT JUMPDEST ISZERO PUSH2 0x3119 JUMPI DUP4 PUSH1 0x1 SLOAD PUSH2 0x309F SWAP2 SWAP1 PUSH2 0x50D7 JUMP JUMPDEST CALLVALUE LT ISZERO PUSH2 0x30BE JUMPI PUSH1 0x40 MLOAD PUSH3 0x461BCD PUSH1 0xE5 SHL DUP2 MSTORE PUSH1 0x4 ADD PUSH2 0xB1E SWAP1 PUSH2 0x5E47 JUMP JUMPDEST PUSH1 0x1 SLOAD PUSH1 0x4 PUSH1 0x0 DUP3 DUP3 SLOAD PUSH2 0x30D2 SWAP2 SWAP1 PUSH2 0x50D7 JUMP JUMPDEST SWAP1 SWAP2 SSTORE POP POP PUSH1 0x3 SLOAD PUSH1 0x1 SLOAD PUSH1 0x40 MLOAD PUSH1 0x1 PUSH1 0x1 PUSH1 0xA0 SHL SUB SWAP1 SWAP3 AND SWAP2 DUP2 ISZERO PUSH2 0x8FC MUL SWAP2 SWAP1 PUSH1 0x0 DUP2 DUP2 DUP2 DUP6 DUP9 DUP9 CALL SWAP4 POP POP POP POP ISZERO DUP1 ISZERO PUSH2 0x3113 JUMPI RETURNDATASIZE PUSH1 0x0 DUP1 RETURNDATACOPY RETURNDATASIZE PUSH1 0x0 REVERT JUMPDEST POP PUSH2 0x3139 JUMP JUMPDEST DUP4 CALLVALUE LT ISZERO PUSH2 0x3139 JUMPI PUSH1 0x40 MLOAD PUSH3 0x461BCD PUSH1 0xE5 SHL DUP2 MSTORE PUSH1 0x4 ADD PUSH2 0xB1E SWAP1 PUSH2 0x5E7E JUMP JUMPDEST PUSH2 0x314A DUP6 DUP6 DUP6 PUSH1 0x0 DUP1 PUSH1 0x0 DUP9 PUSH2 0x4151 JUMP JUMPDEST SWAP1 POP DUP1 PUSH32 0x20F7C5268098786F509C1F28CB089B96F36D68B9E1C572FEBDB5847F5ECB2897 DUP7 DUP7 DUP7 PUSH1 0x40 MLOAD PUSH2 0x3180 SWAP4 SWAP3 SWAP2 SWAP1 PUSH2 0x5D01 JUMP JUMPDEST PUSH1 0x40 MLOAD DUP1 SWAP2 SUB SWAP1 LOG2 SWAP5 SWAP4 POP POP POP POP JUMP JUMPDEST PUSH2 0x3198 PUSH2 0x4F40 JUMP JUMPDEST DUP2 PUSH2 0x31A2 DUP5 PUSH2 0xCEB JUMP JUMPDEST GT PUSH2 0x31BF JUMPI PUSH1 0x40 MLOAD PUSH3 0x461BCD PUSH1 0xE5 SHL DUP2 MSTORE PUSH1 0x4 ADD PUSH2 0xB1E SWAP1 PUSH2 0x5AA7 JUMP JUMPDEST PUSH1 0x1 PUSH1 0x1 PUSH1 0xA0 SHL SUB DUP4 AND PUSH1 0x0 SWAP1 DUP2 MSTORE PUSH1 0x7 PUSH1 0x20 MSTORE PUSH1 0x40 SWAP1 KECCAK256 PUSH2 0xED4 SWAP1 PUSH2 0x3B1 SWAP1 DUP5 PUSH2 0x347D JUMP JUMPDEST PUSH2 0x31ED PUSH2 0x3489 JUMP JUMPDEST PUSH1 0x1 PUSH1 0x1 PUSH1 0xA0 SHL SUB DUP2 AND PUSH2 0x3252 JUMPI PUSH1 0x40 MLOAD PUSH3 0x461BCD PUSH1 0xE5 SHL DUP2 MSTORE PUSH1 0x20 PUSH1 0x4 DUP3 ADD MSTORE PUSH1 0x26 PUSH1 0x24 DUP3 ADD MSTORE PUSH32 0x4F776E61626C653A206E6577206F776E657220697320746865207A65726F2061 PUSH1 0x44 DUP3 ADD MSTORE PUSH6 0x646472657373 PUSH1 0xD0 SHL PUSH1 0x64 DUP3 ADD MSTORE PUSH1 0x84 ADD PUSH2 0xB1E JUMP JUMPDEST PUSH2 0x10E1 DUP2 PUSH2 0x3A74 JUMP JUMPDEST PUSH2 0x3263 PUSH2 0x4FAC JUMP JUMPDEST PUSH1 0x6 PUSH2 0x326E DUP4 PUSH2 0x34E8 JUMP JUMPDEST DUP2 SLOAD DUP2 LT PUSH2 0x1C28 JUMPI PUSH2 0x1C28 PUSH2 0x5A5D JUMP JUMPDEST PUSH1 0x0 DUP8 ISZERO PUSH2 0x32AC JUMPI PUSH1 0x0 PUSH2 0x3291 DUP11 PUSH2 0x41BB JUMP JUMPDEST SWAP1 POP PUSH2 0x32A4 DUP12 DUP12 DUP4 DUP12 DUP12 DUP12 DUP12 DUP12 DUP12 PUSH2 0x42CF JUMP JUMPDEST SWAP2 POP POP PUSH2 0x293E JUMP JUMPDEST PUSH2 0x32BC DUP11 DUP11 DUP10 DUP10 DUP10 DUP10 DUP10 DUP10 PUSH2 0x43A8 JUMP JUMPDEST SWAP11 SWAP10 POP POP POP POP POP POP POP POP POP POP JUMP JUMPDEST PUSH1 0x40 MLOAD PUSH4 0x70A08231 PUSH1 0xE0 SHL DUP2 MSTORE PUSH1 0x0 SWAP1 PUSH1 0x1 PUSH1 0x1 PUSH1 0xA0 SHL SUB DUP7 AND SWAP1 PUSH4 0x70A08231 SWAP1 PUSH2 0x32F9 SWAP1 DUP7 SWAP1 PUSH1 0x4 ADD PUSH2 0x561D JUMP JUMPDEST PUSH1 0x20 PUSH1 0x40 MLOAD DUP1 DUP4 SUB DUP2 DUP7 GAS STATICCALL ISZERO DUP1 ISZERO PUSH2 0x3316 JUMPI RETURNDATASIZE PUSH1 0x0 DUP1 RETURNDATACOPY RETURNDATASIZE PUSH1 0x0 REVERT JUMPDEST POP POP POP POP PUSH1 0x40 MLOAD RETURNDATASIZE PUSH1 0x1F NOT PUSH1 0x1F DUP3 ADD AND DUP3 ADD DUP1 PUSH1 0x40 MSTORE POP DUP2 ADD SWAP1 PUSH2 0x333A SWAP2 SWAP1 PUSH2 0x59E4 JUMP JUMPDEST SWAP1 POP PUSH2 0x3351 PUSH1 0x1 PUSH1 0x1 PUSH1 0xA0 SHL SUB DUP7 AND DUP6 DUP6 DUP6 PUSH2 0x447A JUMP JUMPDEST PUSH1 0x40 MLOAD PUSH4 0x70A08231 PUSH1 0xE0 SHL DUP2 MSTORE PUSH1 0x0 SWAP1 PUSH1 0x1 PUSH1 0x1 PUSH1 0xA0 SHL SUB DUP8 AND SWAP1 PUSH4 0x70A08231 SWAP1 PUSH2 0x3380 SWAP1 DUP8 SWAP1 PUSH1 0x4 ADD PUSH2 0x561D JUMP JUMPDEST PUSH1 0x20 PUSH1 0x40 MLOAD DUP1 DUP4 SUB DUP2 DUP7 GAS STATICCALL ISZERO DUP1 ISZERO PUSH2 0x339D JUMPI RETURNDATASIZE PUSH1 0x0 DUP1 RETURNDATACOPY RETURNDATASIZE PUSH1 0x0 REVERT JUMPDEST POP POP POP POP PUSH1 0x40 MLOAD RETURNDATASIZE PUSH1 0x1F NOT PUSH1 0x1F DUP3 ADD AND DUP3 ADD DUP1 PUSH1 0x40 MSTORE POP DUP2 ADD SWAP1 PUSH2 0x33C1 SWAP2 SWAP1 PUSH2 0x59E4 JUMP JUMPDEST SWAP1 POP DUP3 PUSH2 0x33CE DUP4 DUP4 PUSH2 0x5C51 JUMP JUMPDEST EQ PUSH2 0x142F JUMPI PUSH1 0x40 MLOAD PUSH3 0x461BCD PUSH1 0xE5 SHL DUP2 MSTORE PUSH1 0x20 PUSH1 0x4 DUP3 ADD DUP2 SWAP1 MSTORE PUSH1 0x24 DUP3 ADD MSTORE PUSH32 0x4E6F7420656E6F75676820746F6B656E20776173207472616E73666572726564 PUSH1 0x44 DUP3 ADD MSTORE PUSH1 0x64 ADD PUSH2 0xB1E JUMP JUMPDEST PUSH1 0x0 PUSH2 0xD0C DUP3 SLOAD SWAP1 JUMP JUMPDEST PUSH1 0x0 PUSH3 0xF4240 DUP3 LT ISZERO PUSH2 0x344A JUMPI PUSH1 0x40 MLOAD PUSH3 0x461BCD PUSH1 0xE5 SHL DUP2 MSTORE PUSH1 0x4 ADD PUSH2 0xB1E SWAP1 PUSH2 0x5EB3 JUMP JUMPDEST PUSH1 0x0 PUSH2 0x3459 PUSH3 0xF4240 DUP5 PUSH2 0x5C51 JUMP JUMPDEST PUSH1 0x5 SLOAD SWAP1 SWAP2 POP DUP2 LT PUSH2 0xD0C JUMPI PUSH1 0x40 MLOAD PUSH3 0x461BCD PUSH1 0xE5 SHL DUP2 MSTORE PUSH1 0x4 ADD PUSH2 0xB1E SWAP1 PUSH2 0x5EB3 JUMP JUMPDEST PUSH1 0x0 PUSH2 0xED4 DUP4 DUP4 PUSH2 0x44D2 JUMP JUMPDEST CALLER PUSH2 0x3492 PUSH2 0x1FC0 JUMP JUMPDEST PUSH1 0x1 PUSH1 0x1 PUSH1 0xA0 SHL SUB AND EQ PUSH2 0x1BE1 JUMPI PUSH1 0x40 MLOAD PUSH3 0x461BCD PUSH1 0xE5 SHL DUP2 MSTORE PUSH1 0x20 PUSH1 0x4 DUP3 ADD DUP2 SWAP1 MSTORE PUSH1 0x24 DUP3 ADD MSTORE PUSH32 0x4F776E61626C653A2063616C6C6572206973206E6F7420746865206F776E6572 PUSH1 0x44 DUP3 ADD MSTORE PUSH1 0x64 ADD PUSH2 0xB1E JUMP JUMPDEST PUSH1 0x0 PUSH3 0xF4240 DUP3 LT ISZERO PUSH2 0x350D JUMPI PUSH1 0x40 MLOAD PUSH3 0x461BCD PUSH1 0xE5 SHL DUP2 MSTORE PUSH1 0x4 ADD PUSH2 0xB1E SWAP1 PUSH2 0x5EB3 JUMP JUMPDEST PUSH1 0x0 PUSH2 0x351C PUSH3 0xF4240 DUP5 PUSH2 0x5C51 JUMP JUMPDEST PUSH1 0x6 SLOAD SWAP1 SWAP2 POP DUP2 LT PUSH2 0xD0C JUMPI PUSH1 0x40 MLOAD PUSH3 0x461BCD PUSH1 0xE5 SHL DUP2 MSTORE PUSH1 0x4 ADD PUSH2 0xB1E SWAP1 PUSH2 0x5EB3 JUMP JUMPDEST PUSH1 0x0 PUSH2 0xED4 DUP4 DUP4 PUSH2 0x44FC JUMP JUMPDEST PUSH1 0x0 PUSH2 0xED4 DUP4 DUP4 PUSH2 0x45EF JUMP JUMPDEST PUSH1 0x40 DUP1 MLOAD PUSH2 0x160 DUP2 ADD DUP3 MSTORE DUP4 SLOAD DUP2 MSTORE PUSH1 0x1 DUP5 ADD SLOAD PUSH1 0x1 PUSH1 0x1 PUSH1 0xA0 SHL SUB SWAP1 DUP2 AND PUSH1 0x20 DUP4 ADD MSTORE PUSH1 0x2 DUP6 ADD SLOAD AND SWAP2 DUP2 ADD SWAP2 SWAP1 SWAP2 MSTORE PUSH1 0x3 DUP4 ADD SLOAD PUSH1 0x60 DUP3 ADD MSTORE PUSH1 0x4 DUP4 ADD SLOAD PUSH1 0x80 DUP3 ADD MSTORE PUSH1 0x5 DUP4 ADD SLOAD PUSH1 0xA0 DUP3 ADD MSTORE PUSH1 0x6 DUP4 ADD SLOAD PUSH1 0xC0 DUP3 ADD MSTORE PUSH1 0x7 DUP4 ADD SLOAD PUSH1 0xE0 DUP3 ADD MSTORE PUSH1 0x8 DUP4 ADD SLOAD PUSH2 0x100 DUP3 ADD MSTORE PUSH1 0x9 DUP4 ADD SLOAD PUSH2 0x120 DUP3 ADD MSTORE PUSH1 0xA DUP4 ADD DUP1 SLOAD PUSH1 0x0 SWAP3 PUSH2 0x3679 SWAP3 SWAP1 SWAP2 DUP7 SWAP2 PUSH2 0x140 DUP5 ADD SWAP2 PUSH2 0x35F1 SWAP1 PUSH2 0x5A73 JUMP JUMPDEST DUP1 PUSH1 0x1F ADD PUSH1 0x20 DUP1 SWAP2 DIV MUL PUSH1 0x20 ADD PUSH1 0x40 MLOAD SWAP1 DUP2 ADD PUSH1 0x40 MSTORE DUP1 SWAP3 SWAP2 SWAP1 DUP2 DUP2 MSTORE PUSH1 0x20 ADD DUP3 DUP1 SLOAD PUSH2 0x361D SWAP1 PUSH2 0x5A73 JUMP JUMPDEST DUP1 ISZERO PUSH2 0x366A JUMPI DUP1 PUSH1 0x1F LT PUSH2 0x363F JUMPI PUSH2 0x100 DUP1 DUP4 SLOAD DIV MUL DUP4 MSTORE SWAP2 PUSH1 0x20 ADD SWAP2 PUSH2 0x366A JUMP JUMPDEST DUP3 ADD SWAP2 SWAP1 PUSH1 0x0 MSTORE PUSH1 0x20 PUSH1 0x0 KECCAK256 SWAP1 JUMPDEST DUP2 SLOAD DUP2 MSTORE SWAP1 PUSH1 0x1 ADD SWAP1 PUSH1 0x20 ADD DUP1 DUP4 GT PUSH2 0x364D JUMPI DUP3 SWAP1 SUB PUSH1 0x1F AND DUP3 ADD SWAP2 JUMPDEST POP POP POP POP POP DUP2 MSTORE POP POP DUP4 PUSH2 0x3BED JUMP JUMPDEST SWAP1 POP PUSH1 0x0 DUP2 DUP5 PUSH1 0x9 ADD SLOAD PUSH2 0x368D SWAP2 SWAP1 PUSH2 0x50D7 JUMP JUMPDEST SWAP1 POP PUSH1 0x0 DUP3 GT DUP1 ISZERO PUSH2 0x36A3 JUMPI POP DUP4 PUSH1 0x3 ADD SLOAD DUP2 GT ISZERO JUMPDEST PUSH2 0x36BF JUMPI PUSH1 0x40 MLOAD PUSH3 0x461BCD PUSH1 0xE5 SHL DUP2 MSTORE PUSH1 0x4 ADD PUSH2 0xB1E SWAP1 PUSH2 0x5CD6 JUMP JUMPDEST PUSH1 0x1 DUP1 DUP6 ADD SLOAD PUSH1 0x1 PUSH1 0x1 PUSH1 0xA0 SHL SUB SWAP1 DUP2 AND PUSH1 0x0 SWAP1 DUP2 MSTORE PUSH1 0xE PUSH1 0x20 MSTORE PUSH1 0x40 SWAP1 KECCAK256 SWAP2 DUP3 ADD SLOAD PUSH1 0x3 DUP8 ADD SLOAD SWAP2 AND ISZERO ISZERO SWAP1 DUP4 SUB PUSH2 0x37AC JUMPI DUP1 ISZERO PUSH2 0x3718 JUMPI DUP6 SLOAD CALLER PUSH1 0x0 SWAP1 DUP2 MSTORE PUSH1 0x7 PUSH1 0x20 MSTORE PUSH1 0x40 SWAP1 KECCAK256 PUSH2 0x3712 SWAP2 PUSH2 0x3540 JUMP JUMPDEST POP PUSH2 0x3734 JUMP JUMPDEST DUP6 SLOAD CALLER PUSH1 0x0 SWAP1 DUP2 MSTORE PUSH1 0x8 PUSH1 0x20 MSTORE PUSH1 0x40 SWAP1 KECCAK256 PUSH2 0x3732 SWAP2 PUSH2 0x3540 JUMP JUMPDEST POP JUMPDEST DUP6 SLOAD PUSH1 0x1 DUP8 ADD SLOAD PUSH1 0x1 PUSH1 0x1 PUSH1 0xA0 SHL SUB AND PUSH1 0x0 SWAP1 DUP2 MSTORE PUSH1 0xF PUSH1 0x20 MSTORE PUSH1 0x40 SWAP1 KECCAK256 PUSH2 0x375B SWAP2 PUSH2 0x3540 JUMP JUMPDEST POP DUP6 SLOAD PUSH1 0x1 DUP8 ADD SLOAD PUSH1 0x40 MLOAD PUSH32 0xC6532367992B32E42A62DD89FC3574876D97D081A263AA6E030F34B79B7E6E8B SWAP2 PUSH2 0x37A3 SWAP2 PUSH1 0x1 PUSH1 0x1 PUSH1 0xA0 SHL SUB SWAP1 SWAP2 AND SWAP1 CALLER SWAP1 DUP9 SWAP1 TIMESTAMP SWAP1 PUSH2 0x5A34 JUMP JUMPDEST PUSH1 0x40 MLOAD DUP1 SWAP2 SUB SWAP1 LOG2 JUMPDEST DUP4 DUP3 PUSH1 0x2 ADD SLOAD GT PUSH2 0x37C3 JUMPI PUSH1 0x0 PUSH1 0x2 DUP4 ADD SSTORE PUSH2 0x37D9 JUMP JUMPDEST DUP4 DUP3 PUSH1 0x2 ADD SLOAD PUSH2 0x37D3 SWAP2 SWAP1 PUSH2 0x5C51 JUMP JUMPDEST PUSH1 0x2 DUP4 ADD SSTORE JUMPDEST DUP2 PUSH1 0x2 ADD SLOAD PUSH1 0x0 SUB PUSH2 0x3827 JUMPI DUP1 ISZERO PUSH2 0x380B JUMPI PUSH1 0x1 DUP7 ADD SLOAD PUSH2 0x3805 SWAP1 PUSH1 0xA SWAP1 PUSH1 0x1 PUSH1 0x1 PUSH1 0xA0 SHL SUB AND PUSH2 0x463E JUMP JUMPDEST POP PUSH2 0x3827 JUMP JUMPDEST PUSH1 0x1 DUP7 ADD SLOAD PUSH2 0x3825 SWAP1 PUSH1 0xC SWAP1 PUSH1 0x1 PUSH1 0x1 PUSH1 0xA0 SHL SUB AND PUSH2 0x463E JUMP JUMPDEST POP JUMPDEST PUSH1 0x9 DUP7 ADD DUP4 SWAP1 SSTORE PUSH1 0x2 DUP7 ADD SLOAD PUSH1 0x1 DUP8 ADD SLOAD PUSH2 0x384F SWAP2 PUSH1 0x1 PUSH1 0x1 PUSH1 0xA0 SHL SUB SWAP2 DUP3 AND SWAP2 AND DUP7 PUSH2 0x4653 JUMP JUMPDEST DUP6 SLOAD PUSH1 0x1 DUP8 ADD SLOAD PUSH1 0x3 DUP9 ADD SLOAD PUSH1 0x40 DUP1 MLOAD PUSH1 0x1 PUSH1 0x1 PUSH1 0xA0 SHL SUB SWAP1 SWAP4 AND DUP4 MSTORE CALLER PUSH1 0x20 DUP5 ADD MSTORE DUP3 ADD DUP8 SWAP1 MSTORE PUSH1 0x60 DUP3 ADD MSTORE TIMESTAMP PUSH1 0x80 DUP3 ADD MSTORE PUSH32 0xF93385FFDF40B698B13993C059834B8E91D0CA8E7ABF827A34001CA03C03F6FF SWAP1 PUSH1 0xA0 ADD PUSH1 0x40 MLOAD DUP1 SWAP2 SUB SWAP1 LOG2 POP POP POP POP POP POP JUMP JUMPDEST DUP2 PUSH1 0x5 ADD SLOAD DUP2 LT ISZERO PUSH2 0x38DB JUMPI PUSH1 0x40 MLOAD PUSH3 0x461BCD PUSH1 0xE5 SHL DUP2 MSTORE PUSH1 0x4 ADD PUSH2 0xB1E SWAP1 PUSH2 0x5CA4 JUMP JUMPDEST PUSH1 0x9 DUP3 ADD SLOAD ISZERO PUSH2 0x38FD JUMPI PUSH1 0x40 MLOAD PUSH3 0x461BCD PUSH1 0xE5 SHL DUP2 MSTORE PUSH1 0x4 ADD PUSH2 0xB1E SWAP1 PUSH2 0x5CD6 JUMP JUMPDEST PUSH1 0x1 DUP1 DUP4 ADD SLOAD PUSH1 0x1 PUSH1 0x1 PUSH1 0xA0 SHL SUB SWAP1 DUP2 AND PUSH1 0x0 SWAP1 DUP2 MSTORE PUSH1 0xE PUSH1 0x20 MSTORE PUSH1 0x40 SWAP1 KECCAK256 SWAP2 DUP3 ADD SLOAD AND ISZERO DUP1 ISZERO SWAP1 PUSH2 0x3949 JUMPI DUP4 SLOAD CALLER PUSH1 0x0 SWAP1 DUP2 MSTORE PUSH1 0x7 PUSH1 0x20 MSTORE PUSH1 0x40 SWAP1 KECCAK256 PUSH2 0x3943 SWAP2 PUSH2 0x3540 JUMP JUMPDEST POP PUSH2 0x3965 JUMP JUMPDEST DUP4 SLOAD CALLER PUSH1 0x0 SWAP1 DUP2 MSTORE PUSH1 0x8 PUSH1 0x20 MSTORE PUSH1 0x40 SWAP1 KECCAK256 PUSH2 0x3963 SWAP2 PUSH2 0x3540 JUMP JUMPDEST POP JUMPDEST PUSH1 0x3 DUP5 ADD SLOAD PUSH1 0x2 DUP4 ADD SLOAD DUP2 LT PUSH2 0x3981 JUMPI PUSH1 0x0 PUSH1 0x2 DUP5 ADD SSTORE PUSH2 0x3997 JUMP JUMPDEST DUP1 DUP4 PUSH1 0x2 ADD SLOAD PUSH2 0x3991 SWAP2 SWAP1 PUSH2 0x5C51 JUMP JUMPDEST PUSH1 0x2 DUP5 ADD SSTORE JUMPDEST DUP3 PUSH1 0x2 ADD SLOAD PUSH1 0x0 SUB PUSH2 0x39E5 JUMPI DUP2 ISZERO PUSH2 0x39C9 JUMPI PUSH1 0x1 DUP6 ADD SLOAD PUSH2 0x39C3 SWAP1 PUSH1 0xA SWAP1 PUSH1 0x1 PUSH1 0x1 PUSH1 0xA0 SHL SUB AND PUSH2 0x463E JUMP JUMPDEST POP PUSH2 0x39E5 JUMP JUMPDEST PUSH1 0x1 DUP6 ADD SLOAD PUSH2 0x39E3 SWAP1 PUSH1 0xC SWAP1 PUSH1 0x1 PUSH1 0x1 PUSH1 0xA0 SHL SUB AND PUSH2 0x463E JUMP JUMPDEST POP JUMPDEST PUSH1 0x9 DUP6 ADD DUP2 SWAP1 SSTORE DUP5 SLOAD PUSH1 0x1 DUP7 ADD SLOAD PUSH1 0x1 PUSH1 0x1 PUSH1 0xA0 SHL SUB AND PUSH1 0x0 SWAP1 DUP2 MSTORE PUSH1 0xF PUSH1 0x20 MSTORE PUSH1 0x40 SWAP1 KECCAK256 PUSH2 0x3A13 SWAP2 PUSH2 0x3540 JUMP JUMPDEST POP PUSH1 0x1 DUP6 ADD SLOAD PUSH2 0x3A2D SWAP1 PUSH1 0x1 PUSH1 0x1 PUSH1 0xA0 SHL SUB AND CALLER DUP4 PUSH2 0x4653 JUMP JUMPDEST DUP5 SLOAD PUSH1 0x1 DUP7 ADD SLOAD PUSH1 0x40 MLOAD PUSH32 0xC6532367992B32E42A62DD89FC3574876D97D081A263AA6E030F34B79B7E6E8B SWAP2 PUSH2 0x1BC0 SWAP2 PUSH1 0x1 PUSH1 0x1 PUSH1 0xA0 SHL SUB SWAP1 SWAP2 AND SWAP1 CALLER SWAP1 DUP7 SWAP1 DUP11 SWAP1 PUSH2 0x5A34 JUMP JUMPDEST PUSH1 0x0 DUP1 SLOAD PUSH1 0x1 PUSH1 0x1 PUSH1 0xA0 SHL SUB DUP4 DUP2 AND PUSH2 0x100 DUP2 DUP2 MUL PUSH2 0x100 PUSH1 0x1 PUSH1 0xA8 SHL SUB NOT DUP6 AND OR DUP6 SSTORE PUSH1 0x40 MLOAD SWAP4 DIV SWAP2 SWAP1 SWAP2 AND SWAP3 SWAP1 SWAP2 DUP4 SWAP2 PUSH32 0x8BE0079C531659141344CD1FD0A4F28419497F9722A3DAAFE3B4186F6B6457E0 SWAP2 LOG3 POP POP JUMP JUMPDEST PUSH1 0x0 DUP3 PUSH1 0x40 ADD MLOAD PUSH1 0x0 SUB PUSH2 0x3AE3 JUMPI POP PUSH1 0x0 PUSH2 0xD0C JUMP JUMPDEST DUP3 PUSH1 0x40 ADD MLOAD DUP4 PUSH2 0x100 ADD MLOAD LT PUSH2 0x3AFB JUMPI POP PUSH1 0x0 PUSH2 0xD0C JUMP JUMPDEST DUP3 PUSH1 0x80 ADD MLOAD DUP3 LT ISZERO PUSH2 0x3B0F JUMPI POP PUSH1 0x0 PUSH2 0xD0C JUMP JUMPDEST DUP3 PUSH1 0xC0 ADD MLOAD PUSH1 0x0 SUB PUSH2 0x3B23 JUMPI POP PUSH1 0x0 PUSH2 0xD0C JUMP JUMPDEST PUSH1 0x0 PUSH2 0x2710 DUP5 PUSH1 0xA0 ADD MLOAD DUP6 PUSH1 0x40 ADD MLOAD PUSH2 0x3B3C SWAP2 SWAP1 PUSH2 0x5EDC JUMP JUMPDEST PUSH2 0x3B46 SWAP2 SWAP1 PUSH2 0x5EFB JUMP JUMPDEST SWAP1 POP PUSH1 0x0 PUSH2 0x3B5F DUP6 PUSH1 0x40 ADD MLOAD DUP7 PUSH1 0xE0 ADD MLOAD PUSH2 0x2710 PUSH2 0x4677 JUMP JUMPDEST SWAP1 POP PUSH1 0x0 DUP6 PUSH1 0x80 ADD MLOAD DUP6 LT PUSH2 0x3BA6 JUMPI DUP3 DUP3 DUP8 PUSH1 0xC0 ADD MLOAD DUP9 PUSH1 0x80 ADD MLOAD DUP9 PUSH2 0x3B85 SWAP2 SWAP1 PUSH2 0x5C51 JUMP JUMPDEST PUSH2 0x3B8F SWAP2 SWAP1 PUSH2 0x5EFB JUMP JUMPDEST PUSH2 0x3B99 SWAP2 SWAP1 PUSH2 0x5EDC JUMP JUMPDEST PUSH2 0x3BA3 SWAP2 SWAP1 PUSH2 0x50D7 JUMP JUMPDEST SWAP1 POP JUMPDEST PUSH1 0x0 DUP7 PUSH1 0x40 ADD MLOAD DUP3 GT ISZERO PUSH2 0x3BD0 JUMPI DUP7 PUSH2 0x100 ADD MLOAD DUP8 PUSH1 0x40 ADD MLOAD PUSH2 0x3BC9 SWAP2 SWAP1 PUSH2 0x5C51 JUMP JUMPDEST SWAP1 POP PUSH2 0x3BE3 JUMP JUMPDEST PUSH2 0x100 DUP8 ADD MLOAD PUSH2 0x3BE0 SWAP1 DUP4 PUSH2 0x5C51 JUMP JUMPDEST SWAP1 POP JUMPDEST SWAP7 SWAP6 POP POP POP POP POP POP JUMP JUMPDEST PUSH1 0x0 DUP3 PUSH1 0x60 ADD MLOAD PUSH1 0x0 SUB PUSH2 0x3C03 JUMPI POP PUSH1 0x0 PUSH2 0xD0C JUMP JUMPDEST DUP3 PUSH1 0x60 ADD MLOAD DUP4 PUSH2 0x120 ADD MLOAD LT PUSH2 0x3C1B JUMPI POP PUSH1 0x0 PUSH2 0xD0C JUMP JUMPDEST DUP3 PUSH1 0xA0 ADD MLOAD DUP3 LT ISZERO PUSH2 0x3C2F JUMPI POP PUSH1 0x0 PUSH2 0xD0C JUMP JUMPDEST DUP3 PUSH1 0xE0 ADD MLOAD PUSH1 0x0 SUB PUSH2 0x3C43 JUMPI POP PUSH1 0x0 PUSH2 0xD0C JUMP JUMPDEST PUSH1 0x0 PUSH2 0x2710 DUP5 PUSH1 0xC0 ADD MLOAD DUP6 PUSH1 0x60 ADD MLOAD PUSH2 0x3C5C SWAP2 SWAP1 PUSH2 0x5EDC JUMP JUMPDEST PUSH2 0x3C66 SWAP2 SWAP1 PUSH2 0x5EFB JUMP JUMPDEST SWAP1 POP PUSH1 0x0 PUSH2 0x3C80 DUP6 PUSH1 0x60 ADD MLOAD DUP7 PUSH2 0x100 ADD MLOAD PUSH2 0x2710 PUSH2 0x4677 JUMP JUMPDEST SWAP1 POP PUSH1 0x0 DUP6 PUSH1 0xA0 ADD MLOAD DUP6 LT PUSH2 0x3CC7 JUMPI DUP3 DUP3 DUP8 PUSH1 0xE0 ADD MLOAD DUP9 PUSH1 0xA0 ADD MLOAD DUP9 PUSH2 0x3CA6 SWAP2 SWAP1 PUSH2 0x5C51 JUMP JUMPDEST PUSH2 0x3CB0 SWAP2 SWAP1 PUSH2 0x5EFB JUMP JUMPDEST PUSH2 0x3CBA SWAP2 SWAP1 PUSH2 0x5EDC JUMP JUMPDEST PUSH2 0x3CC4 SWAP2 SWAP1 PUSH2 0x50D7 JUMP JUMPDEST SWAP1 POP JUMPDEST PUSH1 0x0 DUP7 PUSH1 0x60 ADD MLOAD DUP3 GT ISZERO PUSH2 0x3CEA JUMPI DUP7 PUSH2 0x120 ADD MLOAD DUP8 PUSH1 0x60 ADD MLOAD PUSH2 0x3BC9 SWAP2 SWAP1 PUSH2 0x5C51 JUMP JUMPDEST PUSH2 0x120 DUP8 ADD MLOAD PUSH2 0x3BE0 SWAP1 DUP4 PUSH2 0x5C51 JUMP JUMPDEST PUSH1 0x40 DUP1 MLOAD PUSH2 0x140 DUP2 ADD DUP3 MSTORE DUP4 SLOAD DUP2 MSTORE PUSH1 0x1 DUP5 ADD SLOAD PUSH1 0x1 PUSH1 0x1 PUSH1 0xA0 SHL SUB AND PUSH1 0x20 DUP3 ADD MSTORE PUSH1 0x2 DUP5 ADD SLOAD SWAP2 DUP2 ADD SWAP2 SWAP1 SWAP2 MSTORE PUSH1 0x3 DUP4 ADD SLOAD PUSH1 0x60 DUP3 ADD MSTORE PUSH1 0x4 DUP4 ADD SLOAD PUSH1 0x80 DUP3 ADD MSTORE PUSH1 0x5 DUP4 ADD SLOAD PUSH1 0xA0 DUP3 ADD MSTORE PUSH1 0x6 DUP4 ADD SLOAD PUSH1 0xC0 DUP3 ADD MSTORE PUSH1 0x7 DUP4 ADD SLOAD PUSH1 0xE0 DUP3 ADD MSTORE PUSH1 0x8 DUP4 ADD SLOAD PUSH2 0x100 DUP3 ADD MSTORE PUSH1 0x9 DUP4 ADD DUP1 SLOAD PUSH1 0x0 SWAP3 PUSH2 0x3E0D SWAP3 SWAP1 SWAP2 DUP7 SWAP2 PUSH2 0x120 DUP5 ADD SWAP2 PUSH2 0x3D85 SWAP1 PUSH2 0x5A73 JUMP JUMPDEST DUP1 PUSH1 0x1F ADD PUSH1 0x20 DUP1 SWAP2 DIV MUL PUSH1 0x20 ADD PUSH1 0x40 MLOAD SWAP1 DUP2 ADD PUSH1 0x40 MSTORE DUP1 SWAP3 SWAP2 SWAP1 DUP2 DUP2 MSTORE PUSH1 0x20 ADD DUP3 DUP1 SLOAD PUSH2 0x3DB1 SWAP1 PUSH2 0x5A73 JUMP JUMPDEST DUP1 ISZERO PUSH2 0x3DFE JUMPI DUP1 PUSH1 0x1F LT PUSH2 0x3DD3 JUMPI PUSH2 0x100 DUP1 DUP4 SLOAD DIV MUL DUP4 MSTORE SWAP2 PUSH1 0x20 ADD SWAP2 PUSH2 0x3DFE JUMP JUMPDEST DUP3 ADD SWAP2 SWAP1 PUSH1 0x0 MSTORE PUSH1 0x20 PUSH1 0x0 KECCAK256 SWAP1 JUMPDEST DUP2 SLOAD DUP2 MSTORE SWAP1 PUSH1 0x1 ADD SWAP1 PUSH1 0x20 ADD DUP1 DUP4 GT PUSH2 0x3DE1 JUMPI DUP3 SWAP1 SUB PUSH1 0x1F AND DUP3 ADD SWAP2 JUMPDEST POP POP POP POP POP DUP2 MSTORE POP POP DUP4 PUSH2 0x3ACD JUMP JUMPDEST SWAP1 POP PUSH1 0x0 DUP2 DUP5 PUSH1 0x8 ADD SLOAD PUSH2 0x3E21 SWAP2 SWAP1 PUSH2 0x50D7 JUMP JUMPDEST SWAP1 POP PUSH1 0x0 DUP3 GT DUP1 ISZERO PUSH2 0x3E37 JUMPI POP DUP4 PUSH1 0x2 ADD SLOAD DUP2 GT ISZERO JUMPDEST PUSH2 0x3E53 JUMPI PUSH1 0x40 MLOAD PUSH3 0x461BCD PUSH1 0xE5 SHL DUP2 MSTORE PUSH1 0x4 ADD PUSH2 0xB1E SWAP1 PUSH2 0x5CD6 JUMP JUMPDEST DUP4 PUSH1 0x2 ADD SLOAD DUP2 SUB PUSH2 0x3EDE JUMPI DUP4 SLOAD CALLER PUSH1 0x0 SWAP1 DUP2 MSTORE PUSH1 0x9 PUSH1 0x20 MSTORE PUSH1 0x40 SWAP1 KECCAK256 PUSH2 0x3E78 SWAP2 PUSH2 0x3540 JUMP JUMPDEST POP PUSH2 0x3E8F DUP5 PUSH1 0x0 ADD SLOAD PUSH1 0x10 PUSH1 0x40 MLOAD PUSH2 0x1ADC SWAP1 PUSH2 0x5AE7 JUMP JUMPDEST POP DUP4 SLOAD PUSH1 0x1 DUP6 ADD SLOAD PUSH1 0x40 MLOAD PUSH32 0x8AF7B343AC14FF86EA14BC075FC0E761855633F85E24D12FF785B0673A228795 SWAP2 PUSH2 0x3ED5 SWAP2 PUSH1 0x1 PUSH1 0x1 PUSH1 0xA0 SHL SUB SWAP1 SWAP2 AND SWAP1 DUP6 SWAP1 TIMESTAMP SWAP1 PUSH2 0x5D01 JUMP JUMPDEST PUSH1 0x40 MLOAD DUP1 SWAP2 SUB SWAP1 LOG2 JUMPDEST PUSH1 0x8 DUP5 ADD DUP2 SWAP1 SSTORE PUSH1 0x1 DUP5 ADD SLOAD PUSH1 0x40 MLOAD PUSH1 0x0 SWAP2 PUSH1 0x1 PUSH1 0x1 PUSH1 0xA0 SHL SUB AND SWAP1 DUP5 SWAP1 DUP4 DUP2 DUP2 DUP2 DUP6 DUP8 GAS CALL SWAP3 POP POP POP RETURNDATASIZE DUP1 PUSH1 0x0 DUP2 EQ PUSH2 0x3F34 JUMPI PUSH1 0x40 MLOAD SWAP2 POP PUSH1 0x1F NOT PUSH1 0x3F RETURNDATASIZE ADD AND DUP3 ADD PUSH1 0x40 MSTORE RETURNDATASIZE DUP3 MSTORE RETURNDATASIZE PUSH1 0x0 PUSH1 0x20 DUP5 ADD RETURNDATACOPY PUSH2 0x3F39 JUMP JUMPDEST PUSH1 0x60 SWAP2 POP JUMPDEST POP POP SWAP1 POP DUP1 PUSH2 0x3F47 JUMPI PUSH1 0x0 DUP1 REVERT JUMPDEST DUP5 SLOAD PUSH1 0x2 DUP7 ADD SLOAD PUSH1 0x40 DUP1 MLOAD CALLER DUP2 MSTORE PUSH1 0x20 DUP2 ADD DUP8 SWAP1 MSTORE SWAP1 DUP2 ADD SWAP2 SWAP1 SWAP2 MSTORE TIMESTAMP PUSH1 0x60 DUP3 ADD MSTORE PUSH32 0x424477C0327DE1B72FFA5652AA7EE249AA1216CC8F54B62A11FBD96D44AC68AA SWAP1 PUSH1 0x80 ADD PUSH2 0x1BC0 JUMP JUMPDEST PUSH1 0x60 PUSH1 0x0 PUSH2 0x3FA1 DUP9 DUP9 PUSH2 0x4725 JUMP JUMPDEST SWAP1 POP DUP9 PUSH1 0x0 DUP2 PUSH1 0x1 PUSH1 0x1 PUSH1 0x40 SHL SUB DUP2 GT ISZERO PUSH2 0x3FBE JUMPI PUSH2 0x3FBE PUSH2 0x5128 JUMP JUMPDEST PUSH1 0x40 MLOAD SWAP1 DUP1 DUP3 MSTORE DUP1 PUSH1 0x20 MUL PUSH1 0x20 ADD DUP3 ADD PUSH1 0x40 MSTORE DUP1 ISZERO PUSH2 0x3FE7 JUMPI DUP2 PUSH1 0x20 ADD PUSH1 0x20 DUP3 MUL DUP1 CALLDATASIZE DUP4 CALLDATACOPY ADD SWAP1 POP JUMPDEST POP SWAP1 POP PUSH1 0x0 JUMPDEST DUP3 DUP2 LT ISZERO PUSH2 0x4135 JUMPI PUSH2 0x406B DUP14 DUP14 DUP4 DUP2 DUP2 LT PUSH2 0x400A JUMPI PUSH2 0x400A PUSH2 0x5A5D JUMP JUMPDEST SWAP1 POP PUSH1 0x20 MUL ADD PUSH1 0x20 DUP2 ADD SWAP1 PUSH2 0x401F SWAP2 SWAP1 PUSH2 0x5250 JUMP JUMPDEST DUP11 DUP11 DUP15 DUP15 DUP7 DUP2 DUP2 LT PUSH2 0x4033 JUMPI PUSH2 0x4033 PUSH2 0x5A5D JUMP JUMPDEST SWAP1 POP PUSH1 0x20 MUL ADD CALLDATALOAD DUP12 PUSH1 0x0 PUSH1 0x4 DUP2 LT PUSH2 0x404D JUMPI PUSH2 0x404D PUSH2 0x5A5D JUMP JUMPDEST PUSH1 0x20 SWAP1 DUP2 MUL SWAP2 SWAP1 SWAP2 ADD MLOAD SWAP1 DUP14 ADD MLOAD PUSH1 0x40 DUP15 ADD MLOAD PUSH1 0x60 DUP16 ADD MLOAD DUP15 PUSH2 0x327E JUMP JUMPDEST DUP3 DUP3 DUP2 MLOAD DUP2 LT PUSH2 0x407D JUMPI PUSH2 0x407D PUSH2 0x5A5D JUMP JUMPDEST PUSH1 0x20 MUL PUSH1 0x20 ADD ADD DUP2 DUP2 MSTORE POP POP DUP2 DUP2 DUP2 MLOAD DUP2 LT PUSH2 0x409B JUMPI PUSH2 0x409B PUSH2 0x5A5D JUMP JUMPDEST PUSH1 0x20 MUL PUSH1 0x20 ADD ADD MLOAD PUSH1 0x0 DUP1 MLOAD PUSH1 0x20 PUSH2 0x5F63 DUP4 CODECOPY DUP2 MLOAD SWAP2 MSTORE DUP11 DUP16 DUP16 DUP6 DUP2 DUP2 LT PUSH2 0x40C5 JUMPI PUSH2 0x40C5 PUSH2 0x5A5D JUMP JUMPDEST SWAP1 POP PUSH1 0x20 MUL ADD PUSH1 0x20 DUP2 ADD SWAP1 PUSH2 0x40DA SWAP2 SWAP1 PUSH2 0x5250 JUMP JUMPDEST DUP15 DUP15 DUP7 DUP2 DUP2 LT PUSH2 0x40EC JUMPI PUSH2 0x40EC PUSH2 0x5A5D JUMP JUMPDEST SWAP1 POP PUSH1 0x20 MUL ADD CALLDATALOAD DUP12 PUSH1 0x0 PUSH1 0x4 DUP2 LT PUSH2 0x4106 JUMPI PUSH2 0x4106 PUSH2 0x5A5D JUMP JUMPDEST PUSH1 0x20 MUL ADD MLOAD PUSH1 0x40 MLOAD PUSH2 0x411B SWAP5 SWAP4 SWAP3 SWAP2 SWAP1 PUSH2 0x5A34 JUMP JUMPDEST PUSH1 0x40 MLOAD DUP1 SWAP2 SUB SWAP1 LOG2 DUP1 PUSH2 0x412D DUP2 PUSH2 0x5ACE JUMP JUMPDEST SWAP2 POP POP PUSH2 0x3FED JUMP JUMPDEST POP PUSH2 0x4142 DUP9 CALLER ADDRESS DUP7 PUSH2 0x32CA JUMP JUMPDEST SWAP12 SWAP11 POP POP POP POP POP POP POP POP POP POP POP JUMP JUMPDEST PUSH1 0x0 PUSH2 0x4162 DUP9 DUP9 DUP9 DUP9 DUP9 DUP9 DUP9 PUSH2 0x47C8 JUMP JUMPDEST PUSH1 0x1 PUSH1 0x1 PUSH1 0xA0 SHL SUB DUP10 AND PUSH1 0x0 SWAP1 DUP2 MSTORE PUSH1 0x9 PUSH1 0x20 MSTORE PUSH1 0x40 SWAP1 KECCAK256 SWAP1 SWAP2 POP PUSH2 0x4187 SWAP1 DUP3 PUSH2 0x354C JUMP JUMPDEST POP PUSH2 0x41AF DUP2 PUSH1 0x10 PUSH1 0x40 MLOAD PUSH2 0x419A SWAP1 PUSH2 0x5AE7 JUMP JUMPDEST SWAP1 DUP2 MSTORE PUSH1 0x40 MLOAD SWAP1 DUP2 SWAP1 SUB PUSH1 0x20 ADD SWAP1 KECCAK256 SWAP1 PUSH2 0x354C JUMP JUMPDEST POP SWAP8 SWAP7 POP POP POP POP POP POP POP JUMP JUMPDEST PUSH1 0x0 DUP1 DUP3 PUSH1 0x1 PUSH1 0x1 PUSH1 0xA0 SHL SUB AND PUSH4 0xC45A0155 PUSH1 0x40 MLOAD DUP2 PUSH4 0xFFFFFFFF AND PUSH1 0xE0 SHL DUP2 MSTORE PUSH1 0x4 ADD PUSH1 0x20 PUSH1 0x40 MLOAD DUP1 DUP4 SUB DUP2 DUP7 GAS STATICCALL SWAP3 POP POP POP DUP1 ISZERO PUSH2 0x4218 JUMPI POP PUSH1 0x40 DUP1 MLOAD PUSH1 0x1F RETURNDATASIZE SWAP1 DUP2 ADD PUSH1 0x1F NOT AND DUP3 ADD SWAP1 SWAP3 MSTORE PUSH2 0x4215 SWAP2 DUP2 ADD SWAP1 PUSH2 0x5C68 JUMP JUMPDEST PUSH1 0x1 JUMPDEST PUSH2 0x4264 JUMPI PUSH1 0x40 MLOAD PUSH3 0x461BCD PUSH1 0xE5 SHL DUP2 MSTORE PUSH1 0x20 PUSH1 0x4 DUP3 ADD MSTORE PUSH1 0x1C PUSH1 0x24 DUP3 ADD MSTORE PUSH32 0x5468697320746F6B656E206973206E6F742061204C5020746F6B656E00000000 PUSH1 0x44 DUP3 ADD MSTORE PUSH1 0x64 ADD PUSH2 0xB1E JUMP JUMPDEST SWAP1 POP PUSH1 0x1 PUSH1 0x1 PUSH1 0xA0 SHL SUB DUP2 AND ISZERO DUP1 ISZERO SWAP1 PUSH2 0x4283 JUMPI POP PUSH2 0x4283 DUP4 DUP3 PUSH2 0x4A05 JUMP JUMPDEST PUSH2 0xD0C JUMPI PUSH1 0x40 MLOAD PUSH3 0x461BCD PUSH1 0xE5 SHL DUP2 MSTORE PUSH1 0x20 PUSH1 0x4 DUP3 ADD MSTORE PUSH1 0x1D PUSH1 0x24 DUP3 ADD MSTORE PUSH32 0x5468697320746F6B656E206973206E6F742061204C5020746F6B656E2E000000 PUSH1 0x44 DUP3 ADD MSTORE PUSH1 0x64 ADD PUSH2 0xB1E JUMP JUMPDEST PUSH1 0x0 PUSH2 0x42E1 DUP11 DUP11 DUP10 DUP10 DUP10 DUP10 DUP10 DUP10 PUSH2 0x4B68 JUMP JUMPDEST PUSH1 0x1 PUSH1 0x1 PUSH1 0xA0 SHL SUB DUP12 AND PUSH1 0x0 SWAP1 DUP2 MSTORE PUSH1 0x7 PUSH1 0x20 MSTORE PUSH1 0x40 SWAP1 KECCAK256 SWAP1 SWAP2 POP PUSH2 0x4306 SWAP1 DUP3 PUSH2 0x354C JUMP JUMPDEST POP PUSH2 0x4312 PUSH1 0xA DUP11 PUSH2 0x4CED JUMP JUMPDEST POP PUSH1 0x1 PUSH1 0x1 PUSH1 0xA0 SHL SUB DUP1 DUP11 AND PUSH1 0x0 SWAP1 DUP2 MSTORE PUSH1 0xE PUSH1 0x20 MSTORE PUSH1 0x40 SWAP1 KECCAK256 DUP1 SLOAD SWAP1 SWAP2 AND PUSH2 0x4362 JUMPI DUP1 SLOAD PUSH1 0x1 PUSH1 0x1 PUSH1 0xA0 SHL SUB DUP1 DUP13 AND PUSH1 0x1 PUSH1 0x1 PUSH1 0xA0 SHL SUB NOT SWAP3 DUP4 AND OR DUP4 SSTORE PUSH1 0x1 DUP4 ADD DUP1 SLOAD SWAP2 DUP13 AND SWAP2 SWAP1 SWAP3 AND OR SWAP1 SSTORE JUMPDEST DUP8 DUP2 PUSH1 0x2 ADD SLOAD PUSH2 0x4372 SWAP2 SWAP1 PUSH2 0x50D7 JUMP JUMPDEST PUSH1 0x2 DUP3 ADD SSTORE PUSH1 0x1 PUSH1 0x1 PUSH1 0xA0 SHL SUB DUP11 AND PUSH1 0x0 SWAP1 DUP2 MSTORE PUSH1 0xF PUSH1 0x20 MSTORE PUSH1 0x40 SWAP1 KECCAK256 PUSH2 0x4399 SWAP1 DUP4 PUSH2 0x354C JUMP JUMPDEST POP POP SWAP10 SWAP9 POP POP POP POP POP POP POP POP POP JUMP JUMPDEST PUSH1 0x0 PUSH2 0x43BA DUP10 DUP10 DUP10 DUP10 DUP10 DUP10 DUP10 DUP10 PUSH2 0x4B68 JUMP JUMPDEST PUSH1 0x1 PUSH1 0x1 PUSH1 0xA0 SHL SUB DUP11 AND PUSH1 0x0 SWAP1 DUP2 MSTORE PUSH1 0x8 PUSH1 0x20 MSTORE PUSH1 0x40 SWAP1 KECCAK256 SWAP1 SWAP2 POP PUSH2 0x43DF SWAP1 DUP3 PUSH2 0x354C JUMP JUMPDEST POP PUSH2 0x43EB PUSH1 0xC DUP10 PUSH2 0x4CED JUMP JUMPDEST POP PUSH1 0x1 PUSH1 0x1 PUSH1 0xA0 SHL SUB DUP1 DUP10 AND PUSH1 0x0 SWAP1 DUP2 MSTORE PUSH1 0xE PUSH1 0x20 MSTORE PUSH1 0x40 SWAP1 KECCAK256 DUP1 SLOAD SWAP1 SWAP2 AND PUSH2 0x4435 JUMPI DUP1 SLOAD PUSH1 0x1 PUSH1 0x1 PUSH1 0xA0 SHL SUB DUP11 AND PUSH1 0x1 PUSH1 0x1 PUSH1 0xA0 SHL SUB NOT SWAP2 DUP3 AND OR DUP3 SSTORE PUSH1 0x1 DUP3 ADD DUP1 SLOAD SWAP1 SWAP2 AND SWAP1 SSTORE JUMPDEST DUP8 DUP2 PUSH1 0x2 ADD SLOAD PUSH2 0x4445 SWAP2 SWAP1 PUSH2 0x50D7 JUMP JUMPDEST PUSH1 0x2 DUP3 ADD SSTORE PUSH1 0x1 PUSH1 0x1 PUSH1 0xA0 SHL SUB DUP10 AND PUSH1 0x0 SWAP1 DUP2 MSTORE PUSH1 0xF PUSH1 0x20 MSTORE PUSH1 0x40 SWAP1 KECCAK256 PUSH2 0x446C SWAP1 DUP4 PUSH2 0x354C JUMP JUMPDEST POP POP SWAP9 SWAP8 POP POP POP POP POP POP POP POP JUMP JUMPDEST PUSH2 0x181C DUP5 PUSH4 0x23B872DD PUSH1 0xE0 SHL DUP6 DUP6 DUP6 PUSH1 0x40 MLOAD PUSH1 0x24 ADD PUSH2 0x449B SWAP4 SWAP3 SWAP2 SWAP1 PUSH2 0x588B JUMP JUMPDEST PUSH1 0x40 DUP1 MLOAD PUSH1 0x1F NOT DUP2 DUP5 SUB ADD DUP2 MSTORE SWAP2 SWAP1 MSTORE PUSH1 0x20 DUP2 ADD DUP1 MLOAD PUSH1 0x1 PUSH1 0x1 PUSH1 0xE0 SHL SUB AND PUSH1 0x1 PUSH1 0x1 PUSH1 0xE0 SHL SUB NOT SWAP1 SWAP4 AND SWAP3 SWAP1 SWAP3 OR SWAP1 SWAP2 MSTORE PUSH2 0x4D02 JUMP JUMPDEST PUSH1 0x0 DUP3 PUSH1 0x0 ADD DUP3 DUP2 SLOAD DUP2 LT PUSH2 0x44E9 JUMPI PUSH2 0x44E9 PUSH2 0x5A5D JUMP JUMPDEST SWAP1 PUSH1 0x0 MSTORE PUSH1 0x20 PUSH1 0x0 KECCAK256 ADD SLOAD SWAP1 POP SWAP3 SWAP2 POP POP JUMP JUMPDEST PUSH1 0x0 DUP2 DUP2 MSTORE PUSH1 0x1 DUP4 ADD PUSH1 0x20 MSTORE PUSH1 0x40 DUP2 KECCAK256 SLOAD DUP1 ISZERO PUSH2 0x45E5 JUMPI PUSH1 0x0 PUSH2 0x4520 PUSH1 0x1 DUP4 PUSH2 0x5C51 JUMP JUMPDEST DUP6 SLOAD SWAP1 SWAP2 POP PUSH1 0x0 SWAP1 PUSH2 0x4534 SWAP1 PUSH1 0x1 SWAP1 PUSH2 0x5C51 JUMP JUMPDEST SWAP1 POP DUP2 DUP2 EQ PUSH2 0x4599 JUMPI PUSH1 0x0 DUP7 PUSH1 0x0 ADD DUP3 DUP2 SLOAD DUP2 LT PUSH2 0x4554 JUMPI PUSH2 0x4554 PUSH2 0x5A5D JUMP JUMPDEST SWAP1 PUSH1 0x0 MSTORE PUSH1 0x20 PUSH1 0x0 KECCAK256 ADD SLOAD SWAP1 POP DUP1 DUP8 PUSH1 0x0 ADD DUP5 DUP2 SLOAD DUP2 LT PUSH2 0x4577 JUMPI PUSH2 0x4577 PUSH2 0x5A5D JUMP JUMPDEST PUSH1 0x0 SWAP2 DUP3 MSTORE PUSH1 0x20 DUP1 DUP4 KECCAK256 SWAP1 SWAP2 ADD SWAP3 SWAP1 SWAP3 SSTORE SWAP2 DUP3 MSTORE PUSH1 0x1 DUP9 ADD SWAP1 MSTORE PUSH1 0x40 SWAP1 KECCAK256 DUP4 SWAP1 SSTORE JUMPDEST DUP6 SLOAD DUP7 SWAP1 DUP1 PUSH2 0x45AA JUMPI PUSH2 0x45AA PUSH2 0x5F1D JUMP JUMPDEST PUSH1 0x1 SWAP1 SUB DUP2 DUP2 SWAP1 PUSH1 0x0 MSTORE PUSH1 0x20 PUSH1 0x0 KECCAK256 ADD PUSH1 0x0 SWAP1 SSTORE SWAP1 SSTORE DUP6 PUSH1 0x1 ADD PUSH1 0x0 DUP7 DUP2 MSTORE PUSH1 0x20 ADD SWAP1 DUP2 MSTORE PUSH1 0x20 ADD PUSH1 0x0 KECCAK256 PUSH1 0x0 SWAP1 SSTORE PUSH1 0x1 SWAP4 POP POP POP POP PUSH2 0xD0C JUMP JUMPDEST PUSH1 0x0 SWAP2 POP POP PUSH2 0xD0C JUMP JUMPDEST PUSH1 0x0 DUP2 DUP2 MSTORE PUSH1 0x1 DUP4 ADD PUSH1 0x20 MSTORE PUSH1 0x40 DUP2 KECCAK256 SLOAD PUSH2 0x4636 JUMPI POP DUP2 SLOAD PUSH1 0x1 DUP2 DUP2 ADD DUP5 SSTORE PUSH1 0x0 DUP5 DUP2 MSTORE PUSH1 0x20 DUP1 DUP3 KECCAK256 SWAP1 SWAP4 ADD DUP5 SWAP1 SSTORE DUP5 SLOAD DUP5 DUP3 MSTORE DUP3 DUP7 ADD SWAP1 SWAP4 MSTORE PUSH1 0x40 SWAP1 KECCAK256 SWAP2 SWAP1 SWAP2 SSTORE PUSH2 0xD0C JUMP JUMPDEST POP PUSH1 0x0 PUSH2 0xD0C JUMP JUMPDEST PUSH1 0x0 PUSH2 0xED4 DUP4 PUSH1 0x1 PUSH1 0x1 PUSH1 0xA0 SHL SUB DUP5 AND PUSH2 0x44FC JUMP JUMPDEST PUSH2 0x4672 DUP4 PUSH4 0xA9059CBB PUSH1 0xE0 SHL DUP5 DUP5 PUSH1 0x40 MLOAD PUSH1 0x24 ADD PUSH2 0x449B SWAP3 SWAP2 SWAP1 PUSH2 0x5D22 JUMP JUMPDEST POP POP POP JUMP JUMPDEST PUSH1 0x0 DUP1 DUP1 PUSH1 0x0 NOT DUP6 DUP8 MULMOD DUP6 DUP8 MUL SWAP3 POP DUP3 DUP2 LT DUP4 DUP3 SUB SUB SWAP2 POP POP DUP1 PUSH1 0x0 SUB PUSH2 0x46B0 JUMPI PUSH1 0x0 DUP5 GT PUSH2 0x46A5 JUMPI PUSH1 0x0 DUP1 REVERT JUMPDEST POP DUP3 SWAP1 DIV SWAP1 POP PUSH2 0xED4 JUMP JUMPDEST DUP1 DUP5 GT PUSH2 0x46BC JUMPI PUSH1 0x0 DUP1 REVERT JUMPDEST PUSH1 0x0 DUP5 DUP7 DUP9 MULMOD PUSH1 0x2 PUSH1 0x1 DUP8 NOT DUP2 ADD DUP9 AND SWAP8 DUP9 SWAP1 DIV PUSH1 0x3 DUP2 MUL DUP4 XOR DUP1 DUP3 MUL DUP5 SUB MUL DUP1 DUP3 MUL DUP5 SUB MUL DUP1 DUP3 MUL DUP5 SUB MUL DUP1 DUP3 MUL DUP5 SUB MUL DUP1 DUP3 MUL DUP5 SUB MUL SWAP1 DUP2 MUL SWAP1 SWAP3 SUB SWAP1 SWAP2 MUL PUSH1 0x0 DUP9 SWAP1 SUB DUP9 SWAP1 DIV SWAP1 SWAP2 ADD DUP6 DUP4 GT SWAP1 SWAP5 SUB SWAP4 SWAP1 SWAP4 MUL SWAP4 SUB SWAP5 SWAP1 SWAP5 DIV SWAP2 SWAP1 SWAP2 OR MUL SWAP5 SWAP4 POP POP POP POP JUMP JUMPDEST PUSH1 0x0 DUP1 DUP1 JUMPDEST DUP4 DUP2 LT ISZERO PUSH2 0xFB9 JUMPI DUP5 DUP5 DUP3 DUP2 DUP2 LT PUSH2 0x4744 JUMPI PUSH2 0x4744 PUSH2 0x5A5D JUMP JUMPDEST SWAP1 POP PUSH1 0x20 MUL ADD CALLDATALOAD PUSH1 0x0 SUB PUSH2 0x4790 JUMPI PUSH1 0x40 MLOAD PUSH3 0x461BCD PUSH1 0xE5 SHL DUP2 MSTORE PUSH1 0x20 PUSH1 0x4 DUP3 ADD MSTORE PUSH1 0x13 PUSH1 0x24 DUP3 ADD MSTORE PUSH19 0x416D6F756E742063616E74206265207A65726F PUSH1 0x68 SHL PUSH1 0x44 DUP3 ADD MSTORE PUSH1 0x64 ADD PUSH2 0xB1E JUMP JUMPDEST DUP5 DUP5 DUP3 DUP2 DUP2 LT PUSH2 0x47A2 JUMPI PUSH2 0x47A2 PUSH2 0x5A5D JUMP JUMPDEST SWAP1 POP PUSH1 0x20 MUL ADD CALLDATALOAD DUP3 PUSH2 0x47B4 SWAP2 SWAP1 PUSH2 0x50D7 JUMP JUMPDEST SWAP2 POP DUP1 PUSH2 0x47C0 DUP2 PUSH2 0x5ACE JUMP JUMPDEST SWAP2 POP POP PUSH2 0x472A JUMP JUMPDEST PUSH1 0x0 PUSH2 0x47D2 PUSH2 0x4DD7 JUMP JUMPDEST PUSH1 0x6 SLOAD PUSH2 0x47E3 SWAP1 PUSH3 0xF4240 SWAP1 PUSH2 0x50D7 JUMP JUMPDEST PUSH1 0x40 DUP1 MLOAD PUSH2 0x140 DUP2 ADD DUP3 MSTORE DUP3 DUP2 MSTORE PUSH1 0x1 PUSH1 0x1 PUSH1 0xA0 SHL SUB DUP12 DUP2 AND PUSH1 0x20 DUP1 DUP5 ADD SWAP2 DUP3 MSTORE SWAP4 DUP4 ADD DUP13 DUP2 MSTORE TIMESTAMP PUSH1 0x60 DUP6 ADD SWAP1 DUP2 MSTORE PUSH1 0x80 DUP6 ADD DUP14 DUP2 MSTORE PUSH1 0xA0 DUP7 ADD DUP14 DUP2 MSTORE PUSH1 0xC0 DUP8 ADD DUP14 DUP2 MSTORE PUSH1 0xE0 DUP9 ADD DUP14 DUP2 MSTORE PUSH1 0x0 PUSH2 0x100 DUP11 ADD DUP2 DUP2 MSTORE PUSH2 0x120 DUP12 ADD DUP16 DUP2 MSTORE PUSH1 0x6 DUP1 SLOAD PUSH1 0x1 DUP2 ADD DUP3 SSTORE SWAP4 MSTORE DUP12 MLOAD PUSH32 0xF652222313E28459528D920B65115C16C04F3EFC82AAEDC97BE59F3F377C0D3F PUSH1 0xA SWAP1 SWAP5 MUL SWAP4 DUP5 ADD SWAP1 DUP2 SSTORE SWAP10 MLOAD PUSH32 0xF652222313E28459528D920B65115C16C04F3EFC82AAEDC97BE59F3F377C0D40 DUP5 ADD DUP1 SLOAD PUSH1 0x1 PUSH1 0x1 PUSH1 0xA0 SHL SUB NOT AND SWAP2 SWAP1 SWAP13 AND OR SWAP1 SWAP11 SSTORE SWAP7 MLOAD PUSH32 0xF652222313E28459528D920B65115C16C04F3EFC82AAEDC97BE59F3F377C0D41 DUP3 ADD SSTORE SWAP5 MLOAD PUSH32 0xF652222313E28459528D920B65115C16C04F3EFC82AAEDC97BE59F3F377C0D42 DUP7 ADD SSTORE SWAP3 MLOAD PUSH32 0xF652222313E28459528D920B65115C16C04F3EFC82AAEDC97BE59F3F377C0D43 DUP6 ADD SSTORE SWAP1 MLOAD PUSH32 0xF652222313E28459528D920B65115C16C04F3EFC82AAEDC97BE59F3F377C0D44 DUP5 ADD SSTORE MLOAD PUSH32 0xF652222313E28459528D920B65115C16C04F3EFC82AAEDC97BE59F3F377C0D45 DUP4 ADD SSTORE MLOAD PUSH32 0xF652222313E28459528D920B65115C16C04F3EFC82AAEDC97BE59F3F377C0D46 DUP3 ADD SSTORE SWAP1 MLOAD PUSH32 0xF652222313E28459528D920B65115C16C04F3EFC82AAEDC97BE59F3F377C0D47 DUP3 ADD SSTORE SWAP2 MLOAD DUP1 MLOAD SWAP6 SWAP7 POP SWAP3 SWAP5 DUP6 SWAP5 SWAP2 SWAP4 PUSH2 0x49F6 SWAP4 PUSH32 0xF652222313E28459528D920B65115C16C04F3EFC82AAEDC97BE59F3F377C0D48 ADD SWAP3 ADD SWAP1 PUSH2 0x5028 JUMP JUMPDEST POP POP POP POP SWAP8 SWAP7 POP POP POP POP POP POP POP JUMP JUMPDEST PUSH1 0x0 DUP1 DUP4 SWAP1 POP PUSH1 0x0 DUP4 PUSH1 0x1 PUSH1 0x1 PUSH1 0xA0 SHL SUB AND PUSH4 0xE6A43905 DUP4 PUSH1 0x1 PUSH1 0x1 PUSH1 0xA0 SHL SUB AND PUSH4 0xDFE1681 PUSH1 0x40 MLOAD DUP2 PUSH4 0xFFFFFFFF AND PUSH1 0xE0 SHL DUP2 MSTORE PUSH1 0x4 ADD PUSH1 0x20 PUSH1 0x40 MLOAD DUP1 DUP4 SUB DUP2 DUP7 GAS STATICCALL ISZERO DUP1 ISZERO PUSH2 0x4A5A JUMPI RETURNDATASIZE PUSH1 0x0 DUP1 RETURNDATACOPY RETURNDATASIZE PUSH1 0x0 REVERT JUMPDEST POP POP POP POP PUSH1 0x40 MLOAD RETURNDATASIZE PUSH1 0x1F NOT PUSH1 0x1F DUP3 ADD AND DUP3 ADD DUP1 PUSH1 0x40 MSTORE POP DUP2 ADD SWAP1 PUSH2 0x4A7E SWAP2 SWAP1 PUSH2 0x5C68 JUMP JUMPDEST DUP5 PUSH1 0x1 PUSH1 0x1 PUSH1 0xA0 SHL SUB AND PUSH4 0xD21220A7 PUSH1 0x40 MLOAD DUP2 PUSH4 0xFFFFFFFF AND PUSH1 0xE0 SHL DUP2 MSTORE PUSH1 0x4 ADD PUSH1 0x20 PUSH1 0x40 MLOAD DUP1 DUP4 SUB DUP2 DUP7 GAS STATICCALL ISZERO DUP1 ISZERO PUSH2 0x4ABC JUMPI RETURNDATASIZE PUSH1 0x0 DUP1 RETURNDATACOPY RETURNDATASIZE PUSH1 0x0 REVERT JUMPDEST POP POP POP POP PUSH1 0x40 MLOAD RETURNDATASIZE PUSH1 0x1F NOT PUSH1 0x1F DUP3 ADD AND DUP3 ADD DUP1 PUSH1 0x40 MSTORE POP DUP2 ADD SWAP1 PUSH2 0x4AE0 SWAP2 SWAP1 PUSH2 0x5C68 JUMP JUMPDEST PUSH1 0x40 MLOAD PUSH1 0x1 PUSH1 0x1 PUSH1 0xE0 SHL SUB NOT PUSH1 0xE0 DUP6 SWAP1 SHL AND DUP2 MSTORE PUSH1 0x1 PUSH1 0x1 PUSH1 0xA0 SHL SUB SWAP3 DUP4 AND PUSH1 0x4 DUP3 ADD MSTORE SWAP2 AND PUSH1 0x24 DUP3 ADD MSTORE PUSH1 0x44 ADD PUSH1 0x20 PUSH1 0x40 MLOAD DUP1 DUP4 SUB DUP2 DUP7 GAS STATICCALL ISZERO DUP1 ISZERO PUSH2 0x4B2B JUMPI RETURNDATASIZE PUSH1 0x0 DUP1 RETURNDATACOPY RETURNDATASIZE PUSH1 0x0 REVERT JUMPDEST POP POP POP POP PUSH1 0x40 MLOAD RETURNDATASIZE PUSH1 0x1F NOT PUSH1 0x1F DUP3 ADD AND DUP3 ADD DUP1 PUSH1 0x40 MSTORE POP DUP2 ADD SWAP1 PUSH2 0x4B4F SWAP2 SWAP1 PUSH2 0x5C68 JUMP JUMPDEST PUSH1 0x1 PUSH1 0x1 PUSH1 0xA0 SHL SUB SWAP1 DUP2 AND SWAP1 DUP7 AND EQ SWAP3 POP POP POP SWAP3 SWAP2 POP POP JUMP JUMPDEST PUSH1 0x0 PUSH2 0x4B72 PUSH2 0x4DD7 JUMP JUMPDEST PUSH1 0x5 SLOAD PUSH2 0x4B83 SWAP1 PUSH3 0xF4240 SWAP1 PUSH2 0x50D7 JUMP JUMPDEST SWAP1 POP PUSH1 0x0 PUSH1 0x40 MLOAD DUP1 PUSH2 0x160 ADD PUSH1 0x40 MSTORE DUP1 DUP4 DUP2 MSTORE PUSH1 0x20 ADD DUP11 PUSH1 0x1 PUSH1 0x1 PUSH1 0xA0 SHL SUB AND DUP2 MSTORE PUSH1 0x20 ADD DUP12 PUSH1 0x1 PUSH1 0x1 PUSH1 0xA0 SHL SUB AND DUP2 MSTORE PUSH1 0x20 ADD DUP10 DUP2 MSTORE PUSH1 0x20 ADD TIMESTAMP DUP2 MSTORE PUSH1 0x20 ADD DUP9 DUP2 MSTORE PUSH1 0x20 ADD DUP8 DUP2 MSTORE PUSH1 0x20 ADD DUP7 DUP2 MSTORE PUSH1 0x20 ADD DUP6 DUP2 MSTORE PUSH1 0x20 ADD PUSH1 0x0 DUP2 MSTORE PUSH1 0x20 ADD DUP5 DUP2 MSTORE POP SWAP1 POP PUSH1 0x5 DUP2 SWAP1 DUP1 PUSH1 0x1 DUP2 SLOAD ADD DUP1 DUP3 SSTORE DUP1 SWAP2 POP POP PUSH1 0x1 SWAP1 SUB SWAP1 PUSH1 0x0 MSTORE PUSH1 0x20 PUSH1 0x0 KECCAK256 SWAP1 PUSH1 0xB MUL ADD PUSH1 0x0 SWAP1 SWAP2 SWAP1 SWAP2 SWAP1 SWAP2 POP PUSH1 0x0 DUP3 ADD MLOAD DUP2 PUSH1 0x0 ADD SSTORE PUSH1 0x20 DUP3 ADD MLOAD DUP2 PUSH1 0x1 ADD PUSH1 0x0 PUSH2 0x100 EXP DUP2 SLOAD DUP2 PUSH1 0x1 PUSH1 0x1 PUSH1 0xA0 SHL SUB MUL NOT AND SWAP1 DUP4 PUSH1 0x1 PUSH1 0x1 PUSH1 0xA0 SHL SUB AND MUL OR SWAP1 SSTORE POP PUSH1 0x40 DUP3 ADD MLOAD DUP2 PUSH1 0x2 ADD PUSH1 0x0 PUSH2 0x100 EXP DUP2 SLOAD DUP2 PUSH1 0x1 PUSH1 0x1 PUSH1 0xA0 SHL SUB MUL NOT AND SWAP1 DUP4 PUSH1 0x1 PUSH1 0x1 PUSH1 0xA0 SHL SUB AND MUL OR SWAP1 SSTORE POP PUSH1 0x60 DUP3 ADD MLOAD DUP2 PUSH1 0x3 ADD SSTORE PUSH1 0x80 DUP3 ADD MLOAD DUP2 PUSH1 0x4 ADD SSTORE PUSH1 0xA0 DUP3 ADD MLOAD DUP2 PUSH1 0x5 ADD SSTORE PUSH1 0xC0 DUP3 ADD MLOAD DUP2 PUSH1 0x6 ADD SSTORE PUSH1 0xE0 DUP3 ADD MLOAD DUP2 PUSH1 0x7 ADD SSTORE PUSH2 0x100 DUP3 ADD MLOAD DUP2 PUSH1 0x8 ADD SSTORE PUSH2 0x120 DUP3 ADD MLOAD DUP2 PUSH1 0x9 ADD SSTORE PUSH2 0x140 DUP3 ADD MLOAD DUP2 PUSH1 0xA ADD SWAP1 DUP1 MLOAD SWAP1 PUSH1 0x20 ADD SWAP1 PUSH2 0x4CDD SWAP3 SWAP2 SWAP1 PUSH2 0x5028 JUMP JUMPDEST POP POP POP POP SWAP9 SWAP8 POP POP POP POP POP POP POP POP JUMP JUMPDEST PUSH1 0x0 PUSH2 0xED4 DUP4 PUSH1 0x1 PUSH1 0x1 PUSH1 0xA0 SHL SUB DUP5 AND PUSH2 0x45EF JUMP JUMPDEST PUSH1 0x0 PUSH2 0x4D57 DUP3 PUSH1 0x40 MLOAD DUP1 PUSH1 0x40 ADD PUSH1 0x40 MSTORE DUP1 PUSH1 0x20 DUP2 MSTORE PUSH1 0x20 ADD PUSH32 0x5361666545524332303A206C6F772D6C6576656C2063616C6C206661696C6564 DUP2 MSTORE POP DUP6 PUSH1 0x1 PUSH1 0x1 PUSH1 0xA0 SHL SUB AND PUSH2 0x4E1D SWAP1 SWAP3 SWAP2 SWAP1 PUSH4 0xFFFFFFFF AND JUMP JUMPDEST SWAP1 POP DUP1 MLOAD PUSH1 0x0 EQ DUP1 PUSH2 0x4D78 JUMPI POP DUP1 DUP1 PUSH1 0x20 ADD SWAP1 MLOAD DUP2 ADD SWAP1 PUSH2 0x4D78 SWAP2 SWAP1 PUSH2 0x59C7 JUMP JUMPDEST PUSH2 0x4672 JUMPI PUSH1 0x40 MLOAD PUSH3 0x461BCD PUSH1 0xE5 SHL DUP2 MSTORE PUSH1 0x20 PUSH1 0x4 DUP3 ADD MSTORE PUSH1 0x2A PUSH1 0x24 DUP3 ADD MSTORE PUSH32 0x5361666545524332303A204552433230206F7065726174696F6E20646964206E PUSH1 0x44 DUP3 ADD MSTORE PUSH10 0x1BDD081CDD58D8D95959 PUSH1 0xB2 SHL PUSH1 0x64 DUP3 ADD MSTORE PUSH1 0x84 ADD PUSH2 0xB1E JUMP JUMPDEST PUSH1 0x0 SLOAD PUSH1 0xFF AND ISZERO PUSH2 0x1BE1 JUMPI PUSH1 0x40 MLOAD PUSH3 0x461BCD PUSH1 0xE5 SHL DUP2 MSTORE PUSH1 0x20 PUSH1 0x4 DUP3 ADD MSTORE PUSH1 0x10 PUSH1 0x24 DUP3 ADD MSTORE PUSH16 0x14185D5CD8589B194E881C185D5CD959 PUSH1 0x82 SHL PUSH1 0x44 DUP3 ADD MSTORE PUSH1 0x64 ADD PUSH2 0xB1E JUMP JUMPDEST PUSH1 0x60 PUSH2 0x1F8E DUP5 DUP5 PUSH1 0x0 DUP6 DUP6 PUSH1 0x0 DUP1 DUP7 PUSH1 0x1 PUSH1 0x1 PUSH1 0xA0 SHL SUB AND DUP6 DUP8 PUSH1 0x40 MLOAD PUSH2 0x4E44 SWAP2 SWAP1 PUSH2 0x5F33 JUMP JUMPDEST PUSH1 0x0 PUSH1 0x40 MLOAD DUP1 DUP4 SUB DUP2 DUP6 DUP8 GAS CALL SWAP3 POP POP POP RETURNDATASIZE DUP1 PUSH1 0x0 DUP2 EQ PUSH2 0x4E81 JUMPI PUSH1 0x40 MLOAD SWAP2 POP PUSH1 0x1F NOT PUSH1 0x3F RETURNDATASIZE ADD AND DUP3 ADD PUSH1 0x40 MSTORE RETURNDATASIZE DUP3 MSTORE RETURNDATASIZE PUSH1 0x0 PUSH1 0x20 DUP5 ADD RETURNDATACOPY PUSH2 0x4E86 JUMP JUMPDEST PUSH1 0x60 SWAP2 POP JUMPDEST POP SWAP2 POP SWAP2 POP PUSH2 0x4E97 DUP8 DUP4 DUP4 DUP8 PUSH2 0x4EA2 JUMP JUMPDEST SWAP8 SWAP7 POP POP POP POP POP POP POP JUMP JUMPDEST PUSH1 0x60 DUP4 ISZERO PUSH2 0x4F11 JUMPI DUP3 MLOAD PUSH1 0x0 SUB PUSH2 0x4F0A JUMPI PUSH1 0x1 PUSH1 0x1 PUSH1 0xA0 SHL SUB DUP6 AND EXTCODESIZE PUSH2 0x4F0A JUMPI PUSH1 0x40 MLOAD PUSH3 0x461BCD PUSH1 0xE5 SHL DUP2 MSTORE PUSH1 0x20 PUSH1 0x4 DUP3 ADD MSTORE PUSH1 0x1D PUSH1 0x24 DUP3 ADD MSTORE PUSH32 0x416464726573733A2063616C6C20746F206E6F6E2D636F6E7472616374000000 PUSH1 0x44 DUP3 ADD MSTORE PUSH1 0x64 ADD PUSH2 0xB1E JUMP JUMPDEST POP DUP2 PUSH2 0x1F8E JUMP JUMPDEST PUSH2 0x1F8E DUP4 DUP4 DUP2 MLOAD ISZERO PUSH2 0x4F26 JUMPI DUP2 MLOAD DUP1 DUP4 PUSH1 0x20 ADD REVERT JUMPDEST DUP1 PUSH1 0x40 MLOAD PUSH3 0x461BCD PUSH1 0xE5 SHL DUP2 MSTORE PUSH1 0x4 ADD PUSH2 0xB1E SWAP2 SWAP1 PUSH2 0x5F4F JUMP JUMPDEST PUSH1 0x40 MLOAD DUP1 PUSH2 0x160 ADD PUSH1 0x40 MSTORE DUP1 PUSH1 0x0 DUP2 MSTORE PUSH1 0x20 ADD PUSH1 0x0 PUSH1 0x1 PUSH1 0x1 PUSH1 0xA0 SHL SUB AND DUP2 MSTORE PUSH1 0x20 ADD PUSH1 0x0 PUSH1 0x1 PUSH1 0x1 PUSH1 0xA0 SHL SUB AND DUP2 MSTORE PUSH1 0x20 ADD PUSH1 0x0 DUP2 MSTORE PUSH1 0x20 ADD PUSH1 0x0 DUP2 MSTORE PUSH1 0x20 ADD PUSH1 0x0 DUP2 MSTORE PUSH1 0x20 ADD PUSH1 0x0 DUP2 MSTORE PUSH1 0x20 ADD PUSH1 0x0 DUP2 MSTORE PUSH1 0x20 ADD PUSH1 0x0 DUP2 MSTORE PUSH1 0x20 ADD PUSH1 0x0 DUP2 MSTORE PUSH1 0x20 ADD PUSH1 0x60 DUP2 MSTORE POP SWAP1 JUMP JUMPDEST PUSH1 0x40 MLOAD DUP1 PUSH2 0x140 ADD PUSH1 0x40 MSTORE DUP1 PUSH1 0x0 DUP2 MSTORE PUSH1 0x20 ADD PUSH1 0x0 PUSH1 0x1 PUSH1 0x1 PUSH1 0xA0 SHL SUB AND DUP2 MSTORE PUSH1 0x20 ADD PUSH1 0x0 DUP2 MSTORE PUSH1 0x20 ADD PUSH1 0x0 DUP2 MSTORE PUSH1 0x20 ADD PUSH1 0x0 DUP2 MSTORE PUSH1 0x20 ADD PUSH1 0x0 DUP2 MSTORE PUSH1 0x20 ADD PUSH1 0x0 DUP2 MSTORE PUSH1 0x20 ADD PUSH1 0x0 DUP2 MSTORE PUSH1 0x20 ADD PUSH1 0x0 DUP2 MSTORE PUSH1 0x20 ADD PUSH1 0x60 DUP2 MSTORE POP SWAP1 JUMP JUMPDEST PUSH1 0x40 DUP1 MLOAD PUSH1 0x60 DUP2 ADD DUP3 MSTORE PUSH1 0x0 DUP1 DUP3 MSTORE PUSH1 0x20 DUP3 ADD DUP2 SWAP1 MSTORE SWAP2 DUP2 ADD SWAP2 SWAP1 SWAP2 MSTORE SWAP1 JUMP JUMPDEST DUP3 DUP1 SLOAD PUSH2 0x5034 SWAP1 PUSH2 0x5A73 JUMP JUMPDEST SWAP1 PUSH1 0x0 MSTORE PUSH1 0x20 PUSH1 0x0 KECCAK256 SWAP1 PUSH1 0x1F ADD PUSH1 0x20 SWAP1 DIV DUP2 ADD SWAP3 DUP3 PUSH2 0x5056 JUMPI PUSH1 0x0 DUP6 SSTORE PUSH2 0x509C JUMP JUMPDEST DUP3 PUSH1 0x1F LT PUSH2 0x506F JUMPI DUP1 MLOAD PUSH1 0xFF NOT AND DUP4 DUP1 ADD OR DUP6 SSTORE PUSH2 0x509C JUMP JUMPDEST DUP3 DUP1 ADD PUSH1 0x1 ADD DUP6 SSTORE DUP3 ISZERO PUSH2 0x509C JUMPI SWAP2 DUP3 ADD JUMPDEST DUP3 DUP2 GT ISZERO PUSH2 0x509C JUMPI DUP3 MLOAD DUP3 SSTORE SWAP2 PUSH1 0x20 ADD SWAP2 SWAP1 PUSH1 0x1 ADD SWAP1 PUSH2 0x5081 JUMP JUMPDEST POP PUSH2 0x50A8 SWAP3 SWAP2 POP PUSH2 0x50AC JUMP JUMPDEST POP SWAP1 JUMP JUMPDEST JUMPDEST DUP1 DUP3 GT ISZERO PUSH2 0x50A8 JUMPI PUSH1 0x0 DUP2 SSTORE PUSH1 0x1 ADD PUSH2 0x50AD JUMP JUMPDEST PUSH4 0x4E487B71 PUSH1 0xE0 SHL PUSH1 0x0 MSTORE PUSH1 0x11 PUSH1 0x4 MSTORE PUSH1 0x24 PUSH1 0x0 REVERT JUMPDEST PUSH1 0x0 DUP3 NOT DUP3 GT ISZERO PUSH2 0x50EA JUMPI PUSH2 0x50EA PUSH2 0x50C1 JUMP JUMPDEST POP ADD SWAP1 JUMP JUMPDEST PUSH1 0x1 PUSH1 0x1 PUSH1 0xA0 SHL SUB DUP2 AND DUP2 EQ PUSH2 0x10E1 JUMPI PUSH1 0x0 DUP1 REVERT JUMPDEST DUP1 CALLDATALOAD PUSH2 0x15FB DUP2 PUSH2 0x50EF JUMP JUMPDEST DUP1 ISZERO ISZERO DUP2 EQ PUSH2 0x10E1 JUMPI PUSH1 0x0 DUP1 REVERT JUMPDEST DUP1 CALLDATALOAD PUSH2 0x15FB DUP2 PUSH2 0x510F JUMP JUMPDEST PUSH4 0x4E487B71 PUSH1 0xE0 SHL PUSH1 0x0 MSTORE PUSH1 0x41 PUSH1 0x4 MSTORE PUSH1 0x24 PUSH1 0x0 REVERT JUMPDEST PUSH1 0x0 DUP3 PUSH1 0x1F DUP4 ADD SLT PUSH2 0x514F JUMPI PUSH1 0x0 DUP1 REVERT JUMPDEST DUP2 CALLDATALOAD PUSH1 0x1 PUSH1 0x1 PUSH1 0x40 SHL SUB DUP1 DUP3 GT ISZERO PUSH2 0x5169 JUMPI PUSH2 0x5169 PUSH2 0x5128 JUMP JUMPDEST PUSH1 0x40 MLOAD PUSH1 0x1F DUP4 ADD PUSH1 0x1F NOT SWAP1 DUP2 AND PUSH1 0x3F ADD AND DUP2 ADD SWAP1 DUP3 DUP3 GT DUP2 DUP4 LT OR ISZERO PUSH2 0x5191 JUMPI PUSH2 0x5191 PUSH2 0x5128 JUMP JUMPDEST DUP2 PUSH1 0x40 MSTORE DUP4 DUP2 MSTORE DUP7 PUSH1 0x20 DUP6 DUP9 ADD ADD GT ISZERO PUSH2 0x51AA JUMPI PUSH1 0x0 DUP1 REVERT JUMPDEST DUP4 PUSH1 0x20 DUP8 ADD PUSH1 0x20 DUP4 ADD CALLDATACOPY PUSH1 0x0 PUSH1 0x20 DUP6 DUP4 ADD ADD MSTORE DUP1 SWAP5 POP POP POP POP POP SWAP3 SWAP2 POP POP JUMP JUMPDEST PUSH1 0x0 DUP1 PUSH1 0x0 DUP1 PUSH1 0x0 DUP1 PUSH1 0xC0 DUP8 DUP10 SUB SLT ISZERO PUSH2 0x51E3 JUMPI PUSH1 0x0 DUP1 REVERT JUMPDEST DUP7 CALLDATALOAD PUSH2 0x51EE DUP2 PUSH2 0x50EF JUMP JUMPDEST SWAP6 POP PUSH1 0x20 DUP8 ADD CALLDATALOAD PUSH2 0x51FE DUP2 PUSH2 0x50EF JUMP JUMPDEST SWAP5 POP PUSH1 0x40 DUP8 ADD CALLDATALOAD PUSH2 0x520E DUP2 PUSH2 0x510F JUMP JUMPDEST SWAP4 POP PUSH1 0x60 DUP8 ADD CALLDATALOAD SWAP3 POP PUSH1 0x80 DUP8 ADD CALLDATALOAD SWAP2 POP PUSH1 0xA0 DUP8 ADD CALLDATALOAD PUSH1 0x1 PUSH1 0x1 PUSH1 0x40 SHL SUB DUP2 GT ISZERO PUSH2 0x5237 JUMPI PUSH1 0x0 DUP1 REVERT JUMPDEST PUSH2 0x5243 DUP10 DUP3 DUP11 ADD PUSH2 0x513E JUMP JUMPDEST SWAP2 POP POP SWAP3 SWAP6 POP SWAP3 SWAP6 POP SWAP3 SWAP6 JUMP JUMPDEST PUSH1 0x0 PUSH1 0x20 DUP3 DUP5 SUB SLT ISZERO PUSH2 0x5262 JUMPI PUSH1 0x0 DUP1 REVERT JUMPDEST DUP2 CALLDATALOAD PUSH2 0xED4 DUP2 PUSH2 0x50EF JUMP JUMPDEST PUSH1 0x0 PUSH1 0x20 DUP3 DUP5 SUB SLT ISZERO PUSH2 0x527F JUMPI PUSH1 0x0 DUP1 REVERT JUMPDEST POP CALLDATALOAD SWAP2 SWAP1 POP JUMP JUMPDEST PUSH1 0x1 PUSH1 0x1 PUSH1 0xA0 SHL SUB AND SWAP1 MSTORE JUMP JUMPDEST PUSH1 0x0 JUMPDEST DUP4 DUP2 LT ISZERO PUSH2 0x52AE JUMPI DUP2 DUP2 ADD MLOAD DUP4 DUP3 ADD MSTORE PUSH1 0x20 ADD PUSH2 0x5296 JUMP JUMPDEST DUP4 DUP2 GT ISZERO PUSH2 0x181C JUMPI POP POP PUSH1 0x0 SWAP2 ADD MSTORE JUMP JUMPDEST PUSH1 0x0 DUP2 MLOAD DUP1 DUP5 MSTORE PUSH2 0x52D7 DUP2 PUSH1 0x20 DUP7 ADD PUSH1 0x20 DUP7 ADD PUSH2 0x5293 JUMP JUMPDEST PUSH1 0x1F ADD PUSH1 0x1F NOT AND SWAP3 SWAP1 SWAP3 ADD PUSH1 0x20 ADD SWAP3 SWAP2 POP POP JUMP JUMPDEST PUSH1 0x0 PUSH2 0x160 DUP3 MLOAD DUP5 MSTORE PUSH1 0x20 DUP4 ADD MLOAD PUSH2 0x5306 PUSH1 0x20 DUP7 ADD DUP3 PUSH2 0x5286 JUMP JUMPDEST POP PUSH1 0x40 DUP4 ADD MLOAD PUSH2 0x5319 PUSH1 0x40 DUP7 ADD DUP3 PUSH2 0x5286 JUMP JUMPDEST POP PUSH1 0x60 DUP4 ADD MLOAD PUSH1 0x60 DUP6 ADD MSTORE PUSH1 0x80 DUP4 ADD MLOAD PUSH1 0x80 DUP6 ADD MSTORE PUSH1 0xA0 DUP4 ADD MLOAD PUSH1 0xA0 DUP6 ADD MSTORE PUSH1 0xC0 DUP4 ADD MLOAD PUSH1 0xC0 DUP6 ADD MSTORE PUSH1 0xE0 DUP4 ADD MLOAD PUSH1 0xE0 DUP6 ADD MSTORE PUSH2 0x100 DUP1 DUP5 ADD MLOAD DUP2 DUP7 ADD MSTORE POP PUSH2 0x120 DUP1 DUP5 ADD MLOAD DUP2 DUP7 ADD MSTORE POP PUSH2 0x140 DUP1 DUP5 ADD MLOAD DUP3 DUP3 DUP8 ADD MSTORE PUSH2 0x3BE3 DUP4 DUP8 ADD DUP3 PUSH2 0x52BF JUMP JUMPDEST PUSH1 0x20 DUP2 MSTORE PUSH1 0x0 PUSH2 0xED4 PUSH1 0x20 DUP4 ADD DUP5 PUSH2 0x52EB JUMP JUMPDEST PUSH1 0x0 DUP1 PUSH1 0x40 DUP4 DUP6 SUB SLT ISZERO PUSH2 0x53A2 JUMPI PUSH1 0x0 DUP1 REVERT JUMPDEST DUP3 CALLDATALOAD PUSH2 0x53AD DUP2 PUSH2 0x50EF JUMP JUMPDEST SWAP5 PUSH1 0x20 SWAP4 SWAP1 SWAP4 ADD CALLDATALOAD SWAP4 POP POP POP JUMP JUMPDEST PUSH1 0x0 PUSH2 0x140 DUP3 MLOAD DUP5 MSTORE PUSH1 0x20 DUP4 ADD MLOAD PUSH2 0x53D6 PUSH1 0x20 DUP7 ADD DUP3 PUSH2 0x5286 JUMP JUMPDEST POP PUSH1 0x40 DUP4 ADD MLOAD PUSH1 0x40 DUP6 ADD MSTORE PUSH1 0x60 DUP4 ADD MLOAD PUSH1 0x60 DUP6 ADD MSTORE PUSH1 0x80 DUP4 ADD MLOAD PUSH1 0x80 DUP6 ADD MSTORE PUSH1 0xA0 DUP4 ADD MLOAD PUSH1 0xA0 DUP6 ADD MSTORE PUSH1 0xC0 DUP4 ADD MLOAD PUSH1 0xC0 DUP6 ADD MSTORE PUSH1 0xE0 DUP4 ADD MLOAD PUSH1 0xE0 DUP6 ADD MSTORE PUSH2 0x100 DUP1 DUP5 ADD MLOAD DUP2 DUP7 ADD MSTORE POP PUSH2 0x120 DUP1 DUP5 ADD MLOAD DUP3 DUP3 DUP8 ADD MSTORE PUSH2 0x3BE3 DUP4 DUP8 ADD DUP3 PUSH2 0x52BF JUMP JUMPDEST PUSH1 0x20 DUP2 MSTORE PUSH1 0x0 PUSH2 0xED4 PUSH1 0x20 DUP4 ADD DUP5 PUSH2 0x53BB JUMP JUMPDEST PUSH1 0x0 PUSH1 0x20 DUP1 DUP4 ADD DUP2 DUP5 MSTORE DUP1 DUP6 MLOAD DUP1 DUP4 MSTORE PUSH1 0x40 DUP7 ADD SWAP2 POP PUSH1 0x40 DUP2 PUSH1 0x5 SHL DUP8 ADD ADD SWAP3 POP DUP4 DUP8 ADD PUSH1 0x0 JUMPDEST DUP3 DUP2 LT ISZERO PUSH2 0x549F JUMPI PUSH1 0x3F NOT DUP9 DUP7 SUB ADD DUP5 MSTORE PUSH2 0x548D DUP6 DUP4 MLOAD PUSH2 0x53BB JUMP JUMPDEST SWAP5 POP SWAP3 DUP6 ADD SWAP3 SWAP1 DUP6 ADD SWAP1 PUSH1 0x1 ADD PUSH2 0x5471 JUMP JUMPDEST POP SWAP3 SWAP8 SWAP7 POP POP POP POP POP POP POP JUMP JUMPDEST PUSH1 0x0 DUP1 PUSH1 0x0 PUSH1 0x60 DUP5 DUP7 SUB SLT ISZERO PUSH2 0x54C1 JUMPI PUSH1 0x0 DUP1 REVERT JUMPDEST POP POP DUP2 CALLDATALOAD SWAP4 PUSH1 0x20 DUP4 ADD CALLDATALOAD SWAP4 POP PUSH1 0x40 SWAP1 SWAP3 ADD CALLDATALOAD SWAP2 SWAP1 POP JUMP JUMPDEST PUSH1 0x0 DUP1 PUSH1 0x0 PUSH1 0x60 DUP5 DUP7 SUB SLT ISZERO PUSH2 0x54ED JUMPI PUSH1 0x0 DUP1 REVERT JUMPDEST DUP4 CALLDATALOAD PUSH2 0x54F8 DUP2 PUSH2 0x50EF JUMP JUMPDEST SWAP6 PUSH1 0x20 DUP6 ADD CALLDATALOAD SWAP6 POP PUSH1 0x40 SWAP1 SWAP5 ADD CALLDATALOAD SWAP4 SWAP3 POP POP POP JUMP JUMPDEST PUSH1 0x0 PUSH1 0x20 DUP1 DUP4 ADD DUP2 DUP5 MSTORE DUP1 DUP6 MLOAD DUP1 DUP4 MSTORE PUSH1 0x40 DUP7 ADD SWAP2 POP PUSH1 0x40 DUP2 PUSH1 0x5 SHL DUP8 ADD ADD SWAP3 POP DUP4 DUP8 ADD PUSH1 0x0 JUMPDEST DUP3 DUP2 LT ISZERO PUSH2 0x549F JUMPI PUSH1 0x3F NOT DUP9 DUP7 SUB ADD DUP5 MSTORE PUSH2 0x5550 DUP6 DUP4 MLOAD PUSH2 0x52EB JUMP JUMPDEST SWAP5 POP SWAP3 DUP6 ADD SWAP3 SWAP1 DUP6 ADD SWAP1 PUSH1 0x1 ADD PUSH2 0x5534 JUMP JUMPDEST PUSH1 0x0 DUP1 PUSH1 0x40 DUP4 DUP6 SUB SLT ISZERO PUSH2 0x5575 JUMPI PUSH1 0x0 DUP1 REVERT JUMPDEST DUP3 CALLDATALOAD SWAP2 POP PUSH1 0x20 DUP4 ADD CALLDATALOAD PUSH2 0x5587 DUP2 PUSH2 0x50EF JUMP JUMPDEST DUP1 SWAP2 POP POP SWAP3 POP SWAP3 SWAP1 POP JUMP JUMPDEST PUSH1 0x0 DUP1 PUSH1 0x40 DUP4 DUP6 SUB SLT ISZERO PUSH2 0x55A5 JUMPI PUSH1 0x0 DUP1 REVERT JUMPDEST POP POP DUP1 CALLDATALOAD SWAP3 PUSH1 0x20 SWAP1 SWAP2 ADD CALLDATALOAD SWAP2 POP JUMP JUMPDEST DUP1 MLOAD PUSH1 0x1 PUSH1 0x1 PUSH1 0xA0 SHL SUB SWAP1 DUP2 AND DUP4 MSTORE PUSH1 0x20 DUP1 DUP4 ADD MLOAD SWAP1 SWAP2 AND SWAP1 DUP4 ADD MSTORE PUSH1 0x40 SWAP1 DUP2 ADD MLOAD SWAP2 ADD MSTORE JUMP JUMPDEST PUSH1 0x20 DUP1 DUP3 MSTORE DUP3 MLOAD DUP3 DUP3 ADD DUP2 SWAP1 MSTORE PUSH1 0x0 SWAP2 SWAP1 DUP5 DUP3 ADD SWAP1 PUSH1 0x40 DUP6 ADD SWAP1 DUP5 JUMPDEST DUP2 DUP2 LT ISZERO PUSH2 0x1571 JUMPI PUSH2 0x560A DUP4 DUP6 MLOAD PUSH2 0x55B4 JUMP JUMPDEST SWAP3 DUP5 ADD SWAP3 PUSH1 0x60 SWAP3 SWAP1 SWAP3 ADD SWAP2 PUSH1 0x1 ADD PUSH2 0x55F7 JUMP JUMPDEST PUSH1 0x1 PUSH1 0x1 PUSH1 0xA0 SHL SUB SWAP2 SWAP1 SWAP2 AND DUP2 MSTORE PUSH1 0x20 ADD SWAP1 JUMP JUMPDEST PUSH1 0x60 DUP2 ADD PUSH2 0xD0C DUP3 DUP5 PUSH2 0x55B4 JUMP JUMPDEST PUSH1 0x0 DUP1 PUSH1 0x0 DUP1 PUSH1 0x0 DUP1 PUSH1 0x0 DUP1 PUSH1 0x0 PUSH2 0x120 DUP11 DUP13 SUB SLT ISZERO PUSH2 0x565E JUMPI PUSH1 0x0 DUP1 REVERT JUMPDEST DUP10 CALLDATALOAD PUSH2 0x5669 DUP2 PUSH2 0x50EF JUMP JUMPDEST SWAP9 POP PUSH1 0x20 DUP11 ADD CALLDATALOAD PUSH2 0x5679 DUP2 PUSH2 0x50EF JUMP JUMPDEST SWAP8 POP PUSH1 0x40 DUP11 ADD CALLDATALOAD PUSH2 0x5689 DUP2 PUSH2 0x510F JUMP JUMPDEST SWAP7 POP PUSH1 0x60 DUP11 ADD CALLDATALOAD SWAP6 POP PUSH1 0x80 DUP11 ADD CALLDATALOAD SWAP5 POP PUSH1 0xA0 DUP11 ADD CALLDATALOAD SWAP4 POP PUSH1 0xC0 DUP11 ADD CALLDATALOAD SWAP3 POP PUSH1 0xE0 DUP11 ADD CALLDATALOAD SWAP2 POP PUSH2 0x100 DUP11 ADD CALLDATALOAD PUSH1 0x1 PUSH1 0x1 PUSH1 0x40 SHL SUB DUP2 GT ISZERO PUSH2 0x56C8 JUMPI PUSH1 0x0 DUP1 REVERT JUMPDEST PUSH2 0x56D4 DUP13 DUP3 DUP14 ADD PUSH2 0x513E JUMP JUMPDEST SWAP2 POP POP SWAP3 SWAP6 SWAP9 POP SWAP3 SWAP6 SWAP9 POP SWAP3 SWAP6 SWAP9 JUMP JUMPDEST PUSH1 0x0 DUP1 PUSH1 0x40 DUP4 DUP6 SUB SLT ISZERO PUSH2 0x56F7 JUMPI PUSH1 0x0 DUP1 REVERT JUMPDEST DUP3 CALLDATALOAD SWAP2 POP PUSH1 0x20 DUP4 ADD CALLDATALOAD PUSH1 0x1 PUSH1 0x1 PUSH1 0x40 SHL SUB DUP2 GT ISZERO PUSH2 0x5714 JUMPI PUSH1 0x0 DUP1 REVERT JUMPDEST PUSH2 0x5720 DUP6 DUP3 DUP7 ADD PUSH2 0x513E JUMP JUMPDEST SWAP2 POP POP SWAP3 POP SWAP3 SWAP1 POP JUMP JUMPDEST PUSH1 0x0 DUP1 DUP4 PUSH1 0x1F DUP5 ADD SLT PUSH2 0x573C JUMPI PUSH1 0x0 DUP1 REVERT JUMPDEST POP DUP2 CALLDATALOAD PUSH1 0x1 PUSH1 0x1 PUSH1 0x40 SHL SUB DUP2 GT ISZERO PUSH2 0x5753 JUMPI PUSH1 0x0 DUP1 REVERT JUMPDEST PUSH1 0x20 DUP4 ADD SWAP2 POP DUP4 PUSH1 0x20 DUP3 PUSH1 0x5 SHL DUP6 ADD ADD GT ISZERO PUSH2 0x576E JUMPI PUSH1 0x0 DUP1 REVERT JUMPDEST SWAP3 POP SWAP3 SWAP1 POP JUMP JUMPDEST PUSH1 0x0 DUP1 PUSH1 0x0 DUP1 PUSH1 0x0 DUP1 PUSH1 0x0 DUP1 PUSH1 0x0 DUP1 PUSH1 0x0 PUSH2 0x120 DUP13 DUP15 SUB SLT ISZERO PUSH2 0x5797 JUMPI PUSH1 0x0 DUP1 REVERT JUMPDEST PUSH1 0x1 PUSH1 0x1 PUSH1 0x40 SHL SUB DUP1 DUP14 CALLDATALOAD GT ISZERO PUSH2 0x57AD JUMPI PUSH1 0x0 DUP1 REVERT JUMPDEST PUSH2 0x57BA DUP15 DUP15 CALLDATALOAD DUP16 ADD PUSH2 0x572A JUMP JUMPDEST SWAP1 SWAP13 POP SWAP11 POP PUSH1 0x20 DUP14 ADD CALLDATALOAD DUP2 LT ISZERO PUSH2 0x57D0 JUMPI PUSH1 0x0 DUP1 REVERT JUMPDEST PUSH2 0x57E0 DUP15 PUSH1 0x20 DUP16 ADD CALLDATALOAD DUP16 ADD PUSH2 0x572A JUMP JUMPDEST SWAP1 SWAP11 POP SWAP9 POP PUSH2 0x57F1 PUSH1 0x40 DUP15 ADD PUSH2 0x5104 JUMP JUMPDEST SWAP8 POP PUSH2 0x57FF PUSH1 0x60 DUP15 ADD PUSH2 0x511D JUMP JUMPDEST SWAP7 POP PUSH1 0x80 DUP14 ADD CALLDATALOAD SWAP6 POP PUSH1 0xA0 DUP14 ADD CALLDATALOAD SWAP5 POP PUSH1 0xC0 DUP14 ADD CALLDATALOAD SWAP4 POP PUSH1 0xE0 DUP14 ADD CALLDATALOAD SWAP3 POP DUP1 PUSH2 0x100 DUP15 ADD CALLDATALOAD GT ISZERO PUSH2 0x582F JUMPI PUSH1 0x0 DUP1 REVERT JUMPDEST POP PUSH2 0x5841 DUP14 PUSH2 0x100 DUP15 ADD CALLDATALOAD DUP15 ADD PUSH2 0x513E JUMP JUMPDEST SWAP1 POP SWAP3 SWAP6 SWAP9 SWAP12 POP SWAP3 SWAP6 SWAP9 SWAP12 SWAP1 SWAP4 SWAP7 SWAP10 POP JUMP JUMPDEST PUSH1 0x20 DUP1 DUP3 MSTORE DUP3 MLOAD DUP3 DUP3 ADD DUP2 SWAP1 MSTORE PUSH1 0x0 SWAP2 SWAP1 DUP5 DUP3 ADD SWAP1 PUSH1 0x40 DUP6 ADD SWAP1 DUP5 JUMPDEST DUP2 DUP2 LT ISZERO PUSH2 0x1571 JUMPI DUP4 MLOAD DUP4 MSTORE SWAP3 DUP5 ADD SWAP3 SWAP2 DUP5 ADD SWAP2 PUSH1 0x1 ADD PUSH2 0x586F JUMP JUMPDEST PUSH1 0x1 PUSH1 0x1 PUSH1 0xA0 SHL SUB SWAP4 DUP5 AND DUP2 MSTORE SWAP2 SWAP1 SWAP3 AND PUSH1 0x20 DUP3 ADD MSTORE PUSH1 0x40 DUP2 ADD SWAP2 SWAP1 SWAP2 MSTORE PUSH1 0x60 ADD SWAP1 JUMP JUMPDEST PUSH1 0x0 DUP1 PUSH1 0x0 DUP1 PUSH1 0x0 DUP1 PUSH1 0x0 PUSH1 0xE0 DUP9 DUP11 SUB SLT ISZERO PUSH2 0x58CA JUMPI PUSH1 0x0 DUP1 REVERT JUMPDEST DUP8 CALLDATALOAD PUSH2 0x58D5 DUP2 PUSH2 0x50EF JUMP JUMPDEST SWAP7 POP PUSH1 0x20 DUP9 ADD CALLDATALOAD SWAP6 POP PUSH1 0x40 DUP9 ADD CALLDATALOAD SWAP5 POP PUSH1 0x60 DUP9 ADD CALLDATALOAD SWAP4 POP PUSH1 0x80 DUP9 ADD CALLDATALOAD SWAP3 POP PUSH1 0xA0 DUP9 ADD CALLDATALOAD SWAP2 POP PUSH1 0xC0 DUP9 ADD CALLDATALOAD PUSH1 0x1 PUSH1 0x1 PUSH1 0x40 SHL SUB DUP2 GT ISZERO PUSH2 0x5913 JUMPI PUSH1 0x0 DUP1 REVERT JUMPDEST PUSH2 0x591F DUP11 DUP3 DUP12 ADD PUSH2 0x513E JUMP JUMPDEST SWAP2 POP POP SWAP3 SWAP6 SWAP9 SWAP2 SWAP5 SWAP8 POP SWAP3 SWAP6 POP JUMP JUMPDEST PUSH1 0x0 DUP1 PUSH1 0x0 DUP1 PUSH1 0x80 DUP6 DUP8 SUB SLT ISZERO PUSH2 0x5944 JUMPI PUSH1 0x0 DUP1 REVERT JUMPDEST DUP5 CALLDATALOAD PUSH2 0x594F DUP2 PUSH2 0x50EF JUMP JUMPDEST SWAP4 POP PUSH1 0x20 DUP6 ADD CALLDATALOAD SWAP3 POP PUSH1 0x40 DUP6 ADD CALLDATALOAD SWAP2 POP PUSH1 0x60 DUP6 ADD CALLDATALOAD PUSH1 0x1 PUSH1 0x1 PUSH1 0x40 SHL SUB DUP2 GT ISZERO PUSH2 0x5978 JUMPI PUSH1 0x0 DUP1 REVERT JUMPDEST PUSH2 0x5984 DUP8 DUP3 DUP9 ADD PUSH2 0x513E JUMP JUMPDEST SWAP2 POP POP SWAP3 SWAP6 SWAP2 SWAP5 POP SWAP3 POP JUMP JUMPDEST PUSH1 0x20 DUP1 DUP3 MSTORE PUSH1 0x1E SWAP1 DUP3 ADD MSTORE PUSH32 0x506C656173652073657420612076616C696420556E6C6F636B20446174650000 PUSH1 0x40 DUP3 ADD MSTORE PUSH1 0x60 ADD SWAP1 JUMP JUMPDEST PUSH1 0x0 PUSH1 0x20 DUP3 DUP5 SUB SLT ISZERO PUSH2 0x59D9 JUMPI PUSH1 0x0 DUP1 REVERT JUMPDEST DUP2 MLOAD PUSH2 0xED4 DUP2 PUSH2 0x510F JUMP JUMPDEST PUSH1 0x0 PUSH1 0x20 DUP3 DUP5 SUB SLT ISZERO PUSH2 0x59F6 JUMPI PUSH1 0x0 DUP1 REVERT JUMPDEST POP MLOAD SWAP2 SWAP1 POP JUMP JUMPDEST PUSH1 0x20 DUP1 DUP3 MSTORE PUSH1 0x1F SWAP1 DUP3 ADD MSTORE PUSH32 0x596F75206861766520746F207061792066656520666F72206C6F636B696E6700 PUSH1 0x40 DUP3 ADD MSTORE PUSH1 0x60 ADD SWAP1 JUMP JUMPDEST PUSH1 0x1 PUSH1 0x1 PUSH1 0xA0 SHL SUB SWAP5 DUP6 AND DUP2 MSTORE SWAP3 SWAP1 SWAP4 AND PUSH1 0x20 DUP4 ADD MSTORE PUSH1 0x40 DUP3 ADD MSTORE PUSH1 0x60 DUP2 ADD SWAP2 SWAP1 SWAP2 MSTORE PUSH1 0x80 ADD SWAP1 JUMP JUMPDEST PUSH4 0x4E487B71 PUSH1 0xE0 SHL PUSH1 0x0 MSTORE PUSH1 0x32 PUSH1 0x4 MSTORE PUSH1 0x24 PUSH1 0x0 REVERT JUMPDEST PUSH1 0x1 DUP2 DUP2 SHR SWAP1 DUP3 AND DUP1 PUSH2 0x5A87 JUMPI PUSH1 0x7F DUP3 AND SWAP2 POP JUMPDEST PUSH1 0x20 DUP3 LT DUP2 SUB PUSH2 0x15F9 JUMPI PUSH4 0x4E487B71 PUSH1 0xE0 SHL PUSH1 0x0 MSTORE PUSH1 0x22 PUSH1 0x4 MSTORE PUSH1 0x24 PUSH1 0x0 REVERT JUMPDEST PUSH1 0x20 DUP1 DUP3 MSTORE PUSH1 0xD SWAP1 DUP3 ADD MSTORE PUSH13 0x92DCECC2D8D2C840D2DCC8CAF PUSH1 0x9B SHL PUSH1 0x40 DUP3 ADD MSTORE PUSH1 0x60 ADD SWAP1 JUMP JUMPDEST PUSH1 0x0 PUSH1 0x1 DUP3 ADD PUSH2 0x5AE0 JUMPI PUSH2 0x5AE0 PUSH2 0x50C1 JUMP JUMPDEST POP PUSH1 0x1 ADD SWAP1 JUMP JUMPDEST PUSH3 0x212721 PUSH1 0xE9 SHL DUP2 MSTORE PUSH1 0x3 ADD SWAP1 JUMP JUMPDEST PUSH1 0x20 DUP1 DUP3 MSTORE PUSH1 0x22 SWAP1 DUP3 ADD MSTORE PUSH32 0x596F7520617265206E6F7420746865206F776E6572206F662074686973206C6F PUSH1 0x40 DUP3 ADD MSTORE PUSH2 0x636B PUSH1 0xF0 SHL PUSH1 0x60 DUP3 ADD MSTORE PUSH1 0x80 ADD SWAP1 JUMP JUMPDEST PUSH1 0x20 DUP1 DUP3 MSTORE PUSH1 0x11 SWAP1 DUP3 ADD MSTORE PUSH17 0x131BD8DAC81DD85CC81D5B9B1BD8DAD959 PUSH1 0x7A SHL PUSH1 0x40 DUP3 ADD MSTORE PUSH1 0x60 ADD SWAP1 JUMP JUMPDEST PUSH1 0x20 DUP1 DUP3 MSTORE PUSH1 0x19 SWAP1 DUP3 ADD MSTORE PUSH25 0x119959481C995C5D5A5C9948199BDC88131BD8DAC811591A5D PUSH1 0x3A SHL PUSH1 0x40 DUP3 ADD MSTORE PUSH1 0x60 ADD SWAP1 JUMP JUMPDEST PUSH1 0x20 DUP1 DUP3 MSTORE PUSH1 0x44 SWAP1 DUP3 ADD MSTORE PUSH32 0x4E657720756E6C6F636B2074696D652073686F756C64206E6F74206265206265 PUSH1 0x40 DUP3 ADD MSTORE PUSH32 0x666F7265206F6C6420756E6C6F636B2074696D65206F722063757272656E7420 PUSH1 0x60 DUP3 ADD MSTORE PUSH4 0x74696D65 PUSH1 0xE0 SHL PUSH1 0x80 DUP3 ADD MSTORE PUSH1 0xA0 ADD SWAP1 JUMP JUMPDEST PUSH1 0x20 DUP1 DUP3 MSTORE PUSH1 0x31 SWAP1 DUP3 ADD MSTORE PUSH32 0x4E657720616D6F756E742073686F756C64206E6F74206265206C657373207468 PUSH1 0x40 DUP3 ADD MSTORE PUSH17 0x185B8818DD5C9C995B9D08185B5BDD5B9D PUSH1 0x7A SHL PUSH1 0x60 DUP3 ADD MSTORE PUSH1 0x80 ADD SWAP1 JUMP JUMPDEST PUSH1 0x0 DUP3 DUP3 LT ISZERO PUSH2 0x5C63 JUMPI PUSH2 0x5C63 PUSH2 0x50C1 JUMP JUMPDEST POP SUB SWAP1 JUMP JUMPDEST PUSH1 0x0 PUSH1 0x20 DUP3 DUP5 SUB SLT ISZERO PUSH2 0x5C7A JUMPI PUSH1 0x0 DUP1 REVERT JUMPDEST DUP2 MLOAD PUSH2 0xED4 DUP2 PUSH2 0x50EF JUMP JUMPDEST SWAP3 DUP4 MSTORE PUSH1 0x1 PUSH1 0x1 PUSH1 0xA0 SHL SUB SWAP2 DUP3 AND PUSH1 0x20 DUP5 ADD MSTORE AND PUSH1 0x40 DUP3 ADD MSTORE PUSH1 0x60 ADD SWAP1 JUMP JUMPDEST PUSH1 0x20 DUP1 DUP3 MSTORE PUSH1 0x18 SWAP1 DUP3 ADD MSTORE PUSH24 0x4974206973206E6F742074696D6520746F20756E6C6F636B PUSH1 0x40 SHL PUSH1 0x40 DUP3 ADD MSTORE PUSH1 0x60 ADD SWAP1 JUMP JUMPDEST PUSH1 0x20 DUP1 DUP3 MSTORE PUSH1 0x11 SWAP1 DUP3 ADD MSTORE PUSH17 0x4E6F7468696E6720746F20756E6C6F636B PUSH1 0x78 SHL PUSH1 0x40 DUP3 ADD MSTORE PUSH1 0x60 ADD SWAP1 JUMP JUMPDEST PUSH1 0x1 PUSH1 0x1 PUSH1 0xA0 SHL SUB SWAP4 SWAP1 SWAP4 AND DUP4 MSTORE PUSH1 0x20 DUP4 ADD SWAP2 SWAP1 SWAP2 MSTORE PUSH1 0x40 DUP3 ADD MSTORE PUSH1 0x60 ADD SWAP1 JUMP JUMPDEST PUSH1 0x1 PUSH1 0x1 PUSH1 0xA0 SHL SUB SWAP3 SWAP1 SWAP3 AND DUP3 MSTORE PUSH1 0x20 DUP3 ADD MSTORE PUSH1 0x40 ADD SWAP1 JUMP JUMPDEST PUSH1 0x20 DUP1 DUP3 MSTORE DUP2 DUP2 ADD MSTORE PUSH32 0x54474520646174652073686F756C6420626520696E2074686520667574757265 PUSH1 0x40 DUP3 ADD MSTORE PUSH1 0x60 ADD SWAP1 JUMP JUMPDEST PUSH1 0x20 DUP1 DUP3 MSTORE PUSH1 0xD SWAP1 DUP3 ADD MSTORE PUSH13 0x496E76616C6964206379636C65 PUSH1 0x98 SHL PUSH1 0x40 DUP3 ADD MSTORE PUSH1 0x60 ADD SWAP1 JUMP JUMPDEST PUSH1 0x20 DUP1 DUP3 MSTORE PUSH1 0x14 SWAP1 DUP3 ADD MSTORE PUSH20 0x496E76616C6964206269707320666F7220544745 PUSH1 0x60 SHL PUSH1 0x40 DUP3 ADD MSTORE PUSH1 0x60 ADD SWAP1 JUMP JUMPDEST PUSH1 0x20 DUP1 DUP3 MSTORE PUSH1 0x16 SWAP1 DUP3 ADD MSTORE PUSH22 0x496E76616C6964206269707320666F72206379636C65 PUSH1 0x50 SHL PUSH1 0x40 DUP3 ADD MSTORE PUSH1 0x60 ADD SWAP1 JUMP JUMPDEST PUSH1 0x20 DUP1 DUP3 MSTORE PUSH1 0x32 SWAP1 DUP3 ADD MSTORE PUSH32 0x53756D206F66205447452062707320616E64206379636C652073686F756C6420 PUSH1 0x40 DUP3 ADD MSTORE PUSH18 0x6265206C657373207468616E20313030303 PUSH1 0x74 SHL PUSH1 0x60 DUP3 ADD MSTORE PUSH1 0x80 ADD SWAP1 JUMP JUMPDEST PUSH1 0x20 DUP1 DUP3 MSTORE PUSH1 0x1F SWAP1 DUP3 ADD MSTORE PUSH32 0x596F75206861766520746F207061792066656520666F722076657374696E6700 PUSH1 0x40 DUP3 ADD MSTORE PUSH1 0x60 ADD SWAP1 JUMP JUMPDEST PUSH1 0x20 DUP1 DUP3 MSTORE PUSH1 0x1B SWAP1 DUP3 ADD MSTORE PUSH27 0x496E73756666696369656E7420616D6F756E7420746F206C6F636B PUSH1 0x28 SHL PUSH1 0x40 DUP3 ADD MSTORE PUSH1 0x60 ADD SWAP1 JUMP JUMPDEST PUSH1 0x20 DUP1 DUP3 MSTORE PUSH1 0xF SWAP1 DUP3 ADD MSTORE PUSH15 0x125B9D985B1A59081B1BD8DAC81A59 PUSH1 0x8A SHL PUSH1 0x40 DUP3 ADD MSTORE PUSH1 0x60 ADD SWAP1 JUMP JUMPDEST PUSH1 0x0 DUP2 PUSH1 0x0 NOT DIV DUP4 GT DUP3 ISZERO ISZERO AND ISZERO PUSH2 0x5EF6 JUMPI PUSH2 0x5EF6 PUSH2 0x50C1 JUMP JUMPDEST POP MUL SWAP1 JUMP JUMPDEST PUSH1 0x0 DUP3 PUSH2 0x5F18 JUMPI PUSH4 0x4E487B71 PUSH1 0xE0 SHL PUSH1 0x0 MSTORE PUSH1 0x12 PUSH1 0x4 MSTORE PUSH1 0x24 PUSH1 0x0 REVERT JUMPDEST POP DIV SWAP1 JUMP JUMPDEST PUSH4 0x4E487B71 PUSH1 0xE0 SHL PUSH1 0x0 MSTORE PUSH1 0x31 PUSH1 0x4 MSTORE PUSH1 0x24 PUSH1 0x0 REVERT JUMPDEST PUSH1 0x0 DUP3 MLOAD PUSH2 0x5F45 DUP2 DUP5 PUSH1 0x20 DUP8 ADD PUSH2 0x5293 JUMP JUMPDEST SWAP2 SWAP1 SWAP2 ADD SWAP3 SWAP2 POP POP JUMP JUMPDEST PUSH1 0x20 DUP2 MSTORE PUSH1 0x0 PUSH2 0xED4 PUSH1 0x20 DUP4 ADD DUP5 PUSH2 0x52BF JUMP INVALID PUSH10 0x4AF1CC8727CDD0AFBDD5 RETURNDATASIZE SWAP12 DUP8 0xB6 SWAP3 BASEFEE 0xBD 0x49 MUL 0x24 0xE9 0xDD MULMOD 0xE PUSH25 0x8546506E076FA264697066735822122065F7E6A4ED1E1F5B5E 0xAF 0xCA 0xCF DIFFICULTY PUSH12 0x9E115A09705103717984BDFA PUSH4 0x3DD247C7 PUSH7 0x64736F6C634300 ADDMOD 0xD STOP CALLER "
		},
		"gasEstimates": {
			"creation": {
				"codeDepositCost": "4900800",
				"executionCost": "infinite",
				"totalCost": "infinite"
			},
			"external": {
				"BNBLockCountForUser(address)": "infinite",
				"BNBLockForUserAtIndex(address,uint256)": "infinite",
				"BNBLocksForUser(address)": "infinite",
				"LockBNB(address,uint256,uint256,string)": "infinite",
				"VestingLockBNB(address,uint256,uint256,uint256,uint256,uint256,string)": "infinite",
				"VestingUnLockBNB(uint256,uint256)": "infinite",
				"allLpTokenLockedCount()": "2492",
				"allNormalTokenLockedCount()": "2691",
				"checkValidLPToken(address)": "infinite",
				"cumulativeLockInfo(address)": "7052",
				"editLock(uint256,uint256,uint256)": "infinite",
				"editLockBNB(uint256,uint256,uint256)": "infinite",
				"editLockDescription(uint256,string)": "infinite",
				"extraBNB()": "2395",
				"feeamounts()": "2418",
				"getBNBLockAt(uint256)": "infinite",
				"getCumulativeLpTokenLockInfo(uint256,uint256)": "infinite",
				"getCumulativeLpTokenLockInfoAt(uint256)": "11660",
				"getCumulativeNormalTokenLockInfo(uint256,uint256)": "infinite",
				"getCumulativeNormalTokenLockInfoAt(uint256)": "11659",
				"getLockAt(uint256)": "infinite",
				"getLockById(uint256)": "infinite",
				"getLockByIdBNB(uint256)": "infinite",
				"getLocksForBNB(uint256,uint256)": "infinite",
				"getLocksForToken(address,uint256,uint256)": "infinite",
				"getTotalLockCount()": "2479",
				"getTotalLockCountBNB()": "2327",
				"lock(address,address,bool,uint256,uint256,string)": "infinite",
				"lockFee()": "2352",
				"lpLockCountForUser(address)": "infinite",
				"lpLockForUserAtIndex(address,uint256)": "infinite",
				"lpLocksForUser(address)": "infinite",
				"minimumTokenForFeeExemption()": "2506",
				"multipleVestingLock(address[],uint256[],address,bool,uint256,uint256,uint256,uint256,string)": "infinite",
				"normalLockCountForUser(address)": "infinite",
				"normalLockForUserAtIndex(address,uint256)": "infinite",
				"normalLocksForUser(address)": "infinite",
				"owner()": "2471",
				"paused()": "2438",
				"receiver()": "2515",
				"renounceLockOwnership(uint256)": "infinite",
				"renounceLockOwnershipBNB(uint256)": "infinite",
				"renounceOwnership()": "infinite",
				"setLockFee(uint256)": "24722",
				"setReceiver(address)": "26874",
				"setSnipeFinanceContract(address)": "26853",
				"setVestFee(uint256)": "24656",
				"snipefinancemultisenders()": "2538",
				"totalLockCountForBNB()": "2738",
				"totalLockCountForToken(address)": "infinite",
				"totalLockCountForUser(address)": "infinite",
				"totalTokenLockedCount()": "infinite",
				"transferLockOwnership(uint256,address)": "infinite",
				"transferLockOwnershipBNB(uint256,address)": "infinite",
				"transferOwnership(address)": "infinite",
				"unlock(uint256,uint256)": "infinite",
				"unlockBNB(uint256,uint256)": "infinite",
				"vestFee()": "2396",
				"vestingLock(address,address,bool,uint256,uint256,uint256,uint256,uint256,string)": "infinite",
				"withdrawBNB()": "infinite",
				"withdrawToken(address,uint256)": "infinite",
				"withdrawableTokens(uint256,uint256)": "infinite",
				"withdrawableTokensBNB(uint256,uint256)": "infinite"
			},
			"internal": {
				"_createLock(address,address,bool,uint256,uint256,uint256,uint256,uint256,string memory)": "infinite",
				"_createLockBNB(address,uint256,uint256,uint256,uint256,uint256,string memory)": "infinite",
				"_getActualIndex(uint256)": "infinite",
				"_getActualIndexBNB(uint256)": "infinite",
				"_isValidLpToken(address,address)": "infinite",
				"_lockLpToken(address,address,address,uint256,uint256,uint256,uint256,uint256,string memory)": "infinite",
				"_lockNormalToken(address,address,uint256,uint256,uint256,uint256,uint256,string memory)": "infinite",
				"_multipleVestingLock(address[] calldata,uint256[] calldata,address,bool,uint256[4] memory,string memory)": "infinite",
				"_normalUnlock(struct Contract.Lock storage pointer,uint256)": "infinite",
				"_parseFactoryAddress(address)": "infinite",
				"_registerLock(address,address,uint256,uint256,uint256,uint256,uint256,string memory)": "infinite",
				"_registerLockBNB(address,uint256,uint256,uint256,uint256,uint256,string memory)": "infinite",
				"_safeTransferFromEnsureExactAmount(address,address,address,uint256)": "infinite",
				"_sumAmount(uint256[] calldata)": "infinite",
				"_vestingUnlock(struct Contract.Lock storage pointer,uint256)": "infinite",
				"_vestingUnlockBNB(struct Contract.BNBLock storage pointer,uint256)": "infinite",
				"_withdrawableTokens(struct Contract.Lock memory,uint256)": "infinite",
				"_withdrawableTokensBNB(struct Contract.BNBLock memory,uint256)": "infinite"
			}
		},
		"methodIdentifiers": {
			"BNBLockCountForUser(address)": "5cc36cde",
			"BNBLockForUserAtIndex(address,uint256)": "148564e8",
			"BNBLocksForUser(address)": "181550e6",
			"LockBNB(address,uint256,uint256,string)": "ee0c493a",
			"VestingLockBNB(address,uint256,uint256,uint256,uint256,uint256,string)": "eb3ce7c7",
			"VestingUnLockBNB(uint256,uint256)": "c61eaae0",
			"allLpTokenLockedCount()": "b982922e",
			"allNormalTokenLockedCount()": "475831c8",
			"checkValidLPToken(address)": "39747ac0",
			"cumulativeLockInfo(address)": "e1444fd6",
			"editLock(uint256,uint256,uint256)": "b3b9aa48",
			"editLockBNB(uint256,uint256,uint256)": "2aaa7655",
			"editLockDescription(uint256,string)": "d3cac885",
			"extraBNB()": "d738a44e",
			"feeamounts()": "9c8b9e7b",
			"getBNBLockAt(uint256)": "75c9007c",
			"getCumulativeLpTokenLockInfo(uint256,uint256)": "aec640c6",
			"getCumulativeLpTokenLockInfoAt(uint256)": "a20b8c18",
			"getCumulativeNormalTokenLockInfo(uint256,uint256)": "76c12822",
			"getCumulativeNormalTokenLockInfoAt(uint256)": "7e6706d3",
			"getLockAt(uint256)": "0d4f581a",
			"getLockById(uint256)": "08f12470",
			"getLockByIdBNB(uint256)": "fba7fd71",
			"getLocksForBNB(uint256,uint256)": "5e92b2cf",
			"getLocksForToken(address,uint256,uint256)": "332f26d7",
			"getTotalLockCount()": "fd981c66",
			"getTotalLockCountBNB()": "4c8948c9",
			"lock(address,address,bool,uint256,uint256,string)": "07279357",
			"lockFee()": "56a06235",
			"lpLockCountForUser(address)": "07873ef1",
			"lpLockForUserAtIndex(address,uint256)": "eeacf786",
			"lpLocksForUser(address)": "aef0e540",
			"minimumTokenForFeeExemption()": "1ff5ea6f",
			"multipleVestingLock(address[],uint256[],address,bool,uint256,uint256,uint256,uint256,string)": "e0da83ce",
			"normalLockCountForUser(address)": "eb80bdae",
			"normalLockForUserAtIndex(address,uint256)": "618df7a3",
			"normalLocksForUser(address)": "da1d8cff",
			"owner()": "8da5cb5b",
			"paused()": "5c975abb",
			"receiver()": "f7260d3e",
			"renounceLockOwnership(uint256)": "a57e3141",
			"renounceLockOwnershipBNB(uint256)": "cc64fb7a",
			"renounceOwnership()": "715018a6",
			"setLockFee(uint256)": "9f7260bd",
			"setReceiver(address)": "718da7ee",
			"setSnipeFinanceContract(address)": "8ca1f1b4",
			"setVestFee(uint256)": "95874b27",
			"snipefinancemultisenders()": "7d207e3a",
			"totalLockCountForBNB()": "2a697129",
			"totalLockCountForToken(address)": "e3676f88",
			"totalLockCountForUser(address)": "cd83eadc",
			"totalTokenLockedCount()": "1982242c",
			"transferLockOwnership(uint256,address)": "5a04fb69",
			"transferLockOwnershipBNB(uint256,address)": "75d39c7c",
			"transferOwnership(address)": "f2fde38b",
			"unlock(uint256,uint256)": "5bfadb24",
			"unlockBNB(uint256,uint256)": "6ce850e3",
			"vestFee()": "1033218f",
			"vestingLock(address,address,bool,uint256,uint256,uint256,uint256,uint256,string)": "cb645e32",
			"withdrawBNB()": "1d111d13",
			"withdrawToken(address,uint256)": "9e281a98",
			"withdrawableTokens(uint256,uint256)": "bd9574db",
			"withdrawableTokensBNB(uint256,uint256)": "80554e9a"
		}
	},
	"abi": [
		{
			"inputs": [
				{
					"internalType": "address",
					"name": "_snipefinancemultisenders",
					"type": "address"
				},
				{
					"internalType": "contract IERC20",
					"name": "_tokenAddressForFeeExemption",
					"type": "address"
				},
				{
					"internalType": "uint256",
					"name": "_minimumTokenForFeeExemption",
					"type": "uint256"
				}
			],
			"stateMutability": "nonpayable",
			"type": "constructor"
		},
		{
			"anonymous": false,
			"inputs": [
				{
					"indexed": true,
					"internalType": "uint256",
					"name": "id",
					"type": "uint256"
				},
				{
					"indexed": false,
					"internalType": "address",
					"name": "token",
					"type": "address"
				},
				{
					"indexed": false,
					"internalType": "address",
					"name": "owner",
					"type": "address"
				},
				{
					"indexed": false,
					"internalType": "uint256",
					"name": "amount",
					"type": "uint256"
				},
				{
					"indexed": false,
					"internalType": "uint256",
					"name": "unlockDate",
					"type": "uint256"
				}
			],
			"name": "LockAdded",
			"type": "event"
		},
		{
			"anonymous": false,
			"inputs": [
				{
					"indexed": true,
					"internalType": "uint256",
					"name": "id",
					"type": "uint256"
				},
				{
					"indexed": false,
					"internalType": "address",
					"name": "owner",
					"type": "address"
				},
				{
					"indexed": false,
					"internalType": "uint256",
					"name": "amount",
					"type": "uint256"
				},
				{
					"indexed": false,
					"internalType": "uint256",
					"name": "unlockDate",
					"type": "uint256"
				}
			],
			"name": "LockBNBAdded",
			"type": "event"
		},
		{
			"anonymous": false,
			"inputs": [
				{
					"indexed": true,
					"internalType": "uint256",
					"name": "id",
					"type": "uint256"
				},
				{
					"indexed": false,
					"internalType": "address",
					"name": "owner",
					"type": "address"
				},
				{
					"indexed": false,
					"internalType": "uint256",
					"name": "amount",
					"type": "uint256"
				},
				{
					"indexed": false,
					"internalType": "uint256",
					"name": "unlockedAt",
					"type": "uint256"
				}
			],
			"name": "LockBNBRemoved",
			"type": "event"
		},
		{
			"anonymous": false,
			"inputs": [
				{
					"indexed": false,
					"internalType": "uint256",
					"name": "lockId",
					"type": "uint256"
				}
			],
			"name": "LockDescriptionChanged",
			"type": "event"
		},
		{
			"anonymous": false,
			"inputs": [
				{
					"indexed": false,
					"internalType": "uint256",
					"name": "lockId",
					"type": "uint256"
				},
				{
					"indexed": false,
					"internalType": "address",
					"name": "owner",
					"type": "address"
				},
				{
					"indexed": false,
					"internalType": "address",
					"name": "newOwner",
					"type": "address"
				}
			],
			"name": "LockOwnerChanged",
			"type": "event"
		},
		{
			"anonymous": false,
			"inputs": [
				{
					"indexed": true,
					"internalType": "uint256",
					"name": "id",
					"type": "uint256"
				},
				{
					"indexed": false,
					"internalType": "address",
					"name": "token",
					"type": "address"
				},
				{
					"indexed": false,
					"internalType": "address",
					"name": "owner",
					"type": "address"
				},
				{
					"indexed": false,
					"internalType": "uint256",
					"name": "amount",
					"type": "uint256"
				},
				{
					"indexed": false,
					"internalType": "uint256",
					"name": "unlockedAt",
					"type": "uint256"
				}
			],
			"name": "LockRemoved",
			"type": "event"
		},
		{
			"anonymous": false,
			"inputs": [
				{
					"indexed": true,
					"internalType": "uint256",
					"name": "id",
					"type": "uint256"
				},
				{
					"indexed": false,
					"internalType": "address",
					"name": "token",
					"type": "address"
				},
				{
					"indexed": false,
					"internalType": "address",
					"name": "owner",
					"type": "address"
				},
				{
					"indexed": false,
					"internalType": "uint256",
					"name": "newAmount",
					"type": "uint256"
				},
				{
					"indexed": false,
					"internalType": "uint256",
					"name": "newUnlockDate",
					"type": "uint256"
				}
			],
			"name": "LockUpdated",
			"type": "event"
		},
		{
			"anonymous": false,
			"inputs": [
				{
					"indexed": true,
					"internalType": "uint256",
					"name": "id",
					"type": "uint256"
				},
				{
					"indexed": false,
					"internalType": "address",
					"name": "owner",
					"type": "address"
				},
				{
					"indexed": false,
					"internalType": "uint256",
					"name": "newAmount",
					"type": "uint256"
				},
				{
					"indexed": false,
					"internalType": "uint256",
					"name": "newUnlockDate",
					"type": "uint256"
				}
			],
			"name": "LockUpdatedBNB",
			"type": "event"
		},
		{
			"anonymous": false,
			"inputs": [
				{
					"indexed": true,
					"internalType": "uint256",
					"name": "id",
					"type": "uint256"
				},
				{
					"indexed": false,
					"internalType": "address",
					"name": "token",
					"type": "address"
				},
				{
					"indexed": false,
					"internalType": "address",
					"name": "owner",
					"type": "address"
				},
				{
					"indexed": false,
					"internalType": "uint256",
					"name": "amount",
					"type": "uint256"
				},
				{
					"indexed": false,
					"internalType": "uint256",
					"name": "total",
					"type": "uint256"
				},
				{
					"indexed": false,
					"internalType": "uint256",
					"name": "timestamp",
					"type": "uint256"
				}
			],
			"name": "LockVested",
			"type": "event"
		},
		{
			"anonymous": false,
			"inputs": [
				{
					"indexed": true,
					"internalType": "uint256",
					"name": "id",
					"type": "uint256"
				},
				{
					"indexed": false,
					"internalType": "address",
					"name": "owner",
					"type": "address"
				},
				{
					"indexed": false,
					"internalType": "uint256",
					"name": "amount",
					"type": "uint256"
				},
				{
					"indexed": false,
					"internalType": "uint256",
					"name": "total",
					"type": "uint256"
				},
				{
					"indexed": false,
					"internalType": "uint256",
					"name": "timestamp",
					"type": "uint256"
				}
			],
			"name": "LockVestedBNB",
			"type": "event"
		},
		{
			"anonymous": false,
			"inputs": [
				{
					"indexed": true,
					"internalType": "address",
					"name": "previousOwner",
					"type": "address"
				},
				{
					"indexed": true,
					"internalType": "address",
					"name": "newOwner",
					"type": "address"
				}
			],
			"name": "OwnershipTransferred",
			"type": "event"
		},
		{
			"anonymous": false,
			"inputs": [
				{
					"indexed": false,
					"internalType": "address",
					"name": "account",
					"type": "address"
				}
			],
			"name": "Paused",
			"type": "event"
		},
		{
			"anonymous": false,
			"inputs": [
				{
					"indexed": false,
					"internalType": "address",
					"name": "account",
					"type": "address"
				}
			],
			"name": "Unpaused",
			"type": "event"
		},
		{
			"inputs": [
				{
					"internalType": "address",
					"name": "user",
					"type": "address"
				}
			],
			"name": "BNBLockCountForUser",
			"outputs": [
				{
					"internalType": "uint256",
					"name": "",
					"type": "uint256"
				}
			],
			"stateMutability": "view",
			"type": "function"
		},
		{
			"inputs": [
				{
					"internalType": "address",
					"name": "user",
					"type": "address"
				},
				{
					"internalType": "uint256",
					"name": "index",
					"type": "uint256"
				}
			],
			"name": "BNBLockForUserAtIndex",
			"outputs": [
				{
					"components": [
						{
							"internalType": "uint256",
							"name": "id",
							"type": "uint256"
						},
						{
							"internalType": "address",
							"name": "owner",
							"type": "address"
						},
						{
							"internalType": "uint256",
							"name": "amount",
							"type": "uint256"
						},
						{
							"internalType": "uint256",
							"name": "lockDate",
							"type": "uint256"
						},
						{
							"internalType": "uint256",
							"name": "tgeDate",
							"type": "uint256"
						},
						{
							"internalType": "uint256",
							"name": "tgeBps",
							"type": "uint256"
						},
						{
							"internalType": "uint256",
							"name": "cycle",
							"type": "uint256"
						},
						{
							"internalType": "uint256",
							"name": "cycleBps",
							"type": "uint256"
						},
						{
							"internalType": "uint256",
							"name": "unlockedAmount",
							"type": "uint256"
						},
						{
							"internalType": "string",
							"name": "description",
							"type": "string"
						}
					],
					"internalType": "struct Contract.BNBLock",
					"name": "",
					"type": "tuple"
				}
			],
			"stateMutability": "view",
			"type": "function"
		},
		{
			"inputs": [
				{
					"internalType": "address",
					"name": "user",
					"type": "address"
				}
			],
			"name": "BNBLocksForUser",
			"outputs": [
				{
					"components": [
						{
							"internalType": "uint256",
							"name": "id",
							"type": "uint256"
						},
						{
							"internalType": "address",
							"name": "owner",
							"type": "address"
						},
						{
							"internalType": "uint256",
							"name": "amount",
							"type": "uint256"
						},
						{
							"internalType": "uint256",
							"name": "lockDate",
							"type": "uint256"
						},
						{
							"internalType": "uint256",
							"name": "tgeDate",
							"type": "uint256"
						},
						{
							"internalType": "uint256",
							"name": "tgeBps",
							"type": "uint256"
						},
						{
							"internalType": "uint256",
							"name": "cycle",
							"type": "uint256"
						},
						{
							"internalType": "uint256",
							"name": "cycleBps",
							"type": "uint256"
						},
						{
							"internalType": "uint256",
							"name": "unlockedAmount",
							"type": "uint256"
						},
						{
							"internalType": "string",
							"name": "description",
							"type": "string"
						}
					],
					"internalType": "struct Contract.BNBLock[]",
					"name": "",
					"type": "tuple[]"
				}
			],
			"stateMutability": "view",
			"type": "function"
		},
		{
			"inputs": [
				{
					"internalType": "address",
					"name": "owner",
					"type": "address"
				},
				{
					"internalType": "uint256",
					"name": "amount",
					"type": "uint256"
				},
				{
					"internalType": "uint256",
					"name": "unlockDate",
					"type": "uint256"
				},
				{
					"internalType": "string",
					"name": "description",
					"type": "string"
				}
			],
			"name": "LockBNB",
			"outputs": [
				{
					"internalType": "uint256",
					"name": "id",
					"type": "uint256"
				}
			],
			"stateMutability": "payable",
			"type": "function"
		},
		{
			"inputs": [
				{
					"internalType": "address",
					"name": "owner",
					"type": "address"
				},
				{
					"internalType": "uint256",
					"name": "amount",
					"type": "uint256"
				},
				{
					"internalType": "uint256",
					"name": "tgeDate",
					"type": "uint256"
				},
				{
					"internalType": "uint256",
					"name": "tgeBps",
					"type": "uint256"
				},
				{
					"internalType": "uint256",
					"name": "cycle",
					"type": "uint256"
				},
				{
					"internalType": "uint256",
					"name": "cycleBps",
					"type": "uint256"
				},
				{
					"internalType": "string",
					"name": "description",
					"type": "string"
				}
			],
			"name": "VestingLockBNB",
			"outputs": [
				{
					"internalType": "uint256",
					"name": "id",
					"type": "uint256"
				}
			],
			"stateMutability": "payable",
			"type": "function"
		},
		{
			"inputs": [
				{
					"internalType": "uint256",
					"name": "lockId",
					"type": "uint256"
				},
				{
					"internalType": "uint256",
					"name": "timestamp",
					"type": "uint256"
				}
			],
			"name": "VestingUnLockBNB",
			"outputs": [],
			"stateMutability": "nonpayable",
			"type": "function"
		},
		{
			"inputs": [],
			"name": "allLpTokenLockedCount",
			"outputs": [
				{
					"internalType": "uint256",
					"name": "",
					"type": "uint256"
				}
			],
			"stateMutability": "view",
			"type": "function"
		},
		{
			"inputs": [],
			"name": "allNormalTokenLockedCount",
			"outputs": [
				{
					"internalType": "uint256",
					"name": "",
					"type": "uint256"
				}
			],
			"stateMutability": "view",
			"type": "function"
		},
		{
			"inputs": [
				{
					"internalType": "address",
					"name": "token",
					"type": "address"
				}
			],
			"name": "checkValidLPToken",
			"outputs": [
				{
					"internalType": "bool",
					"name": "success",
					"type": "bool"
				}
			],
			"stateMutability": "view",
			"type": "function"
		},
		{
			"inputs": [
				{
					"internalType": "address",
					"name": "",
					"type": "address"
				}
			],
			"name": "cumulativeLockInfo",
			"outputs": [
				{
					"internalType": "address",
					"name": "token",
					"type": "address"
				},
				{
					"internalType": "address",
					"name": "factory",
					"type": "address"
				},
				{
					"internalType": "uint256",
					"name": "amount",
					"type": "uint256"
				}
			],
			"stateMutability": "view",
			"type": "function"
		},
		{
			"inputs": [
				{
					"internalType": "uint256",
					"name": "lockId",
					"type": "uint256"
				},
				{
					"internalType": "uint256",
					"name": "newAmount",
					"type": "uint256"
				},
				{
					"internalType": "uint256",
					"name": "newUnlockDate",
					"type": "uint256"
				}
			],
			"name": "editLock",
			"outputs": [],
			"stateMutability": "payable",
			"type": "function"
		},
		{
			"inputs": [
				{
					"internalType": "uint256",
					"name": "lockId",
					"type": "uint256"
				},
				{
					"internalType": "uint256",
					"name": "newAmount",
					"type": "uint256"
				},
				{
					"internalType": "uint256",
					"name": "newUnlockDate",
					"type": "uint256"
				}
			],
			"name": "editLockBNB",
			"outputs": [],
			"stateMutability": "payable",
			"type": "function"
		},
		{
			"inputs": [
				{
					"internalType": "uint256",
					"name": "lockId",
					"type": "uint256"
				},
				{
					"internalType": "string",
					"name": "description",
					"type": "string"
				}
			],
			"name": "editLockDescription",
			"outputs": [],
			"stateMutability": "nonpayable",
			"type": "function"
		},
		{
			"inputs": [],
			"name": "extraBNB",
			"outputs": [
				{
					"internalType": "uint256",
					"name": "",
					"type": "uint256"
				}
			],
			"stateMutability": "view",
			"type": "function"
		},
		{
			"inputs": [],
			"name": "feeamounts",
			"outputs": [
				{
					"internalType": "uint256",
					"name": "",
					"type": "uint256"
				}
			],
			"stateMutability": "view",
			"type": "function"
		},
		{
			"inputs": [
				{
					"internalType": "uint256",
					"name": "index",
					"type": "uint256"
				}
			],
			"name": "getBNBLockAt",
			"outputs": [
				{
					"components": [
						{
							"internalType": "uint256",
							"name": "id",
							"type": "uint256"
						},
						{
							"internalType": "address",
							"name": "owner",
							"type": "address"
						},
						{
							"internalType": "uint256",
							"name": "amount",
							"type": "uint256"
						},
						{
							"internalType": "uint256",
							"name": "lockDate",
							"type": "uint256"
						},
						{
							"internalType": "uint256",
							"name": "tgeDate",
							"type": "uint256"
						},
						{
							"internalType": "uint256",
							"name": "tgeBps",
							"type": "uint256"
						},
						{
							"internalType": "uint256",
							"name": "cycle",
							"type": "uint256"
						},
						{
							"internalType": "uint256",
							"name": "cycleBps",
							"type": "uint256"
						},
						{
							"internalType": "uint256",
							"name": "unlockedAmount",
							"type": "uint256"
						},
						{
							"internalType": "string",
							"name": "description",
							"type": "string"
						}
					],
					"internalType": "struct Contract.BNBLock",
					"name": "",
					"type": "tuple"
				}
			],
			"stateMutability": "view",
			"type": "function"
		},
		{
			"inputs": [
				{
					"internalType": "uint256",
					"name": "start",
					"type": "uint256"
				},
				{
					"internalType": "uint256",
					"name": "end",
					"type": "uint256"
				}
			],
			"name": "getCumulativeLpTokenLockInfo",
			"outputs": [
				{
					"components": [
						{
							"internalType": "address",
							"name": "token",
							"type": "address"
						},
						{
							"internalType": "address",
							"name": "factory",
							"type": "address"
						},
						{
							"internalType": "uint256",
							"name": "amount",
							"type": "uint256"
						}
					],
					"internalType": "struct Contract.CumulativeLockInfo[]",
					"name": "",
					"type": "tuple[]"
				}
			],
			"stateMutability": "view",
			"type": "function"
		},
		{
			"inputs": [
				{
					"internalType": "uint256",
					"name": "index",
					"type": "uint256"
				}
			],
			"name": "getCumulativeLpTokenLockInfoAt",
			"outputs": [
				{
					"components": [
						{
							"internalType": "address",
							"name": "token",
							"type": "address"
						},
						{
							"internalType": "address",
							"name": "factory",
							"type": "address"
						},
						{
							"internalType": "uint256",
							"name": "amount",
							"type": "uint256"
						}
					],
					"internalType": "struct Contract.CumulativeLockInfo",
					"name": "",
					"type": "tuple"
				}
			],
			"stateMutability": "view",
			"type": "function"
		},
		{
			"inputs": [
				{
					"internalType": "uint256",
					"name": "start",
					"type": "uint256"
				},
				{
					"internalType": "uint256",
					"name": "end",
					"type": "uint256"
				}
			],
			"name": "getCumulativeNormalTokenLockInfo",
			"outputs": [
				{
					"components": [
						{
							"internalType": "address",
							"name": "token",
							"type": "address"
						},
						{
							"internalType": "address",
							"name": "factory",
							"type": "address"
						},
						{
							"internalType": "uint256",
							"name": "amount",
							"type": "uint256"
						}
					],
					"internalType": "struct Contract.CumulativeLockInfo[]",
					"name": "",
					"type": "tuple[]"
				}
			],
			"stateMutability": "view",
			"type": "function"
		},
		{
			"inputs": [
				{
					"internalType": "uint256",
					"name": "index",
					"type": "uint256"
				}
			],
			"name": "getCumulativeNormalTokenLockInfoAt",
			"outputs": [
				{
					"components": [
						{
							"internalType": "address",
							"name": "token",
							"type": "address"
						},
						{
							"internalType": "address",
							"name": "factory",
							"type": "address"
						},
						{
							"internalType": "uint256",
							"name": "amount",
							"type": "uint256"
						}
					],
					"internalType": "struct Contract.CumulativeLockInfo",
					"name": "",
					"type": "tuple"
				}
			],
			"stateMutability": "view",
			"type": "function"
		},
		{
			"inputs": [
				{
					"internalType": "uint256",
					"name": "index",
					"type": "uint256"
				}
			],
			"name": "getLockAt",
			"outputs": [
				{
					"components": [
						{
							"internalType": "uint256",
							"name": "id",
							"type": "uint256"
						},
						{
							"internalType": "address",
							"name": "token",
							"type": "address"
						},
						{
							"internalType": "address",
							"name": "owner",
							"type": "address"
						},
						{
							"internalType": "uint256",
							"name": "amount",
							"type": "uint256"
						},
						{
							"internalType": "uint256",
							"name": "lockDate",
							"type": "uint256"
						},
						{
							"internalType": "uint256",
							"name": "tgeDate",
							"type": "uint256"
						},
						{
							"internalType": "uint256",
							"name": "tgeBps",
							"type": "uint256"
						},
						{
							"internalType": "uint256",
							"name": "cycle",
							"type": "uint256"
						},
						{
							"internalType": "uint256",
							"name": "cycleBps",
							"type": "uint256"
						},
						{
							"internalType": "uint256",
							"name": "unlockedAmount",
							"type": "uint256"
						},
						{
							"internalType": "string",
							"name": "description",
							"type": "string"
						}
					],
					"internalType": "struct Contract.Lock",
					"name": "",
					"type": "tuple"
				}
			],
			"stateMutability": "view",
			"type": "function"
		},
		{
			"inputs": [
				{
					"internalType": "uint256",
					"name": "lockId",
					"type": "uint256"
				}
			],
			"name": "getLockById",
			"outputs": [
				{
					"components": [
						{
							"internalType": "uint256",
							"name": "id",
							"type": "uint256"
						},
						{
							"internalType": "address",
							"name": "token",
							"type": "address"
						},
						{
							"internalType": "address",
							"name": "owner",
							"type": "address"
						},
						{
							"internalType": "uint256",
							"name": "amount",
							"type": "uint256"
						},
						{
							"internalType": "uint256",
							"name": "lockDate",
							"type": "uint256"
						},
						{
							"internalType": "uint256",
							"name": "tgeDate",
							"type": "uint256"
						},
						{
							"internalType": "uint256",
							"name": "tgeBps",
							"type": "uint256"
						},
						{
							"internalType": "uint256",
							"name": "cycle",
							"type": "uint256"
						},
						{
							"internalType": "uint256",
							"name": "cycleBps",
							"type": "uint256"
						},
						{
							"internalType": "uint256",
							"name": "unlockedAmount",
							"type": "uint256"
						},
						{
							"internalType": "string",
							"name": "description",
							"type": "string"
						}
					],
					"internalType": "struct Contract.Lock",
					"name": "",
					"type": "tuple"
				}
			],
			"stateMutability": "view",
			"type": "function"
		},
		{
			"inputs": [
				{
					"internalType": "uint256",
					"name": "lockId",
					"type": "uint256"
				}
			],
			"name": "getLockByIdBNB",
			"outputs": [
				{
					"components": [
						{
							"internalType": "uint256",
							"name": "id",
							"type": "uint256"
						},
						{
							"internalType": "address",
							"name": "owner",
							"type": "address"
						},
						{
							"internalType": "uint256",
							"name": "amount",
							"type": "uint256"
						},
						{
							"internalType": "uint256",
							"name": "lockDate",
							"type": "uint256"
						},
						{
							"internalType": "uint256",
							"name": "tgeDate",
							"type": "uint256"
						},
						{
							"internalType": "uint256",
							"name": "tgeBps",
							"type": "uint256"
						},
						{
							"internalType": "uint256",
							"name": "cycle",
							"type": "uint256"
						},
						{
							"internalType": "uint256",
							"name": "cycleBps",
							"type": "uint256"
						},
						{
							"internalType": "uint256",
							"name": "unlockedAmount",
							"type": "uint256"
						},
						{
							"internalType": "string",
							"name": "description",
							"type": "string"
						}
					],
					"internalType": "struct Contract.BNBLock",
					"name": "",
					"type": "tuple"
				}
			],
			"stateMutability": "view",
			"type": "function"
		},
		{
			"inputs": [
				{
					"internalType": "uint256",
					"name": "start",
					"type": "uint256"
				},
				{
					"internalType": "uint256",
					"name": "end",
					"type": "uint256"
				}
			],
			"name": "getLocksForBNB",
			"outputs": [
				{
					"components": [
						{
							"internalType": "uint256",
							"name": "id",
							"type": "uint256"
						},
						{
							"internalType": "address",
							"name": "owner",
							"type": "address"
						},
						{
							"internalType": "uint256",
							"name": "amount",
							"type": "uint256"
						},
						{
							"internalType": "uint256",
							"name": "lockDate",
							"type": "uint256"
						},
						{
							"internalType": "uint256",
							"name": "tgeDate",
							"type": "uint256"
						},
						{
							"internalType": "uint256",
							"name": "tgeBps",
							"type": "uint256"
						},
						{
							"internalType": "uint256",
							"name": "cycle",
							"type": "uint256"
						},
						{
							"internalType": "uint256",
							"name": "cycleBps",
							"type": "uint256"
						},
						{
							"internalType": "uint256",
							"name": "unlockedAmount",
							"type": "uint256"
						},
						{
							"internalType": "string",
							"name": "description",
							"type": "string"
						}
					],
					"internalType": "struct Contract.BNBLock[]",
					"name": "",
					"type": "tuple[]"
				}
			],
			"stateMutability": "view",
			"type": "function"
		},
		{
			"inputs": [
				{
					"internalType": "address",
					"name": "token",
					"type": "address"
				},
				{
					"internalType": "uint256",
					"name": "start",
					"type": "uint256"
				},
				{
					"internalType": "uint256",
					"name": "end",
					"type": "uint256"
				}
			],
			"name": "getLocksForToken",
			"outputs": [
				{
					"components": [
						{
							"internalType": "uint256",
							"name": "id",
							"type": "uint256"
						},
						{
							"internalType": "address",
							"name": "token",
							"type": "address"
						},
						{
							"internalType": "address",
							"name": "owner",
							"type": "address"
						},
						{
							"internalType": "uint256",
							"name": "amount",
							"type": "uint256"
						},
						{
							"internalType": "uint256",
							"name": "lockDate",
							"type": "uint256"
						},
						{
							"internalType": "uint256",
							"name": "tgeDate",
							"type": "uint256"
						},
						{
							"internalType": "uint256",
							"name": "tgeBps",
							"type": "uint256"
						},
						{
							"internalType": "uint256",
							"name": "cycle",
							"type": "uint256"
						},
						{
							"internalType": "uint256",
							"name": "cycleBps",
							"type": "uint256"
						},
						{
							"internalType": "uint256",
							"name": "unlockedAmount",
							"type": "uint256"
						},
						{
							"internalType": "string",
							"name": "description",
							"type": "string"
						}
					],
					"internalType": "struct Contract.Lock[]",
					"name": "",
					"type": "tuple[]"
				}
			],
			"stateMutability": "view",
			"type": "function"
		},
		{
			"inputs": [],
			"name": "getTotalLockCount",
			"outputs": [
				{
					"internalType": "uint256",
					"name": "",
					"type": "uint256"
				}
			],
			"stateMutability": "view",
			"type": "function"
		},
		{
			"inputs": [],
			"name": "getTotalLockCountBNB",
			"outputs": [
				{
					"internalType": "uint256",
					"name": "",
					"type": "uint256"
				}
			],
			"stateMutability": "view",
			"type": "function"
		},
		{
			"inputs": [
				{
					"internalType": "address",
					"name": "owner",
					"type": "address"
				},
				{
					"internalType": "address",
					"name": "token",
					"type": "address"
				},
				{
					"internalType": "bool",
					"name": "isLpToken",
					"type": "bool"
				},
				{
					"internalType": "uint256",
					"name": "amount",
					"type": "uint256"
				},
				{
					"internalType": "uint256",
					"name": "unlockDate",
					"type": "uint256"
				},
				{
					"internalType": "string",
					"name": "description",
					"type": "string"
				}
			],
			"name": "lock",
			"outputs": [
				{
					"internalType": "uint256",
					"name": "id",
					"type": "uint256"
				}
			],
			"stateMutability": "payable",
			"type": "function"
		},
		{
			"inputs": [],
			"name": "lockFee",
			"outputs": [
				{
					"internalType": "uint256",
					"name": "",
					"type": "uint256"
				}
			],
			"stateMutability": "view",
			"type": "function"
		},
		{
			"inputs": [
				{
					"internalType": "address",
					"name": "user",
					"type": "address"
				}
			],
			"name": "lpLockCountForUser",
			"outputs": [
				{
					"internalType": "uint256",
					"name": "",
					"type": "uint256"
				}
			],
			"stateMutability": "view",
			"type": "function"
		},
		{
			"inputs": [
				{
					"internalType": "address",
					"name": "user",
					"type": "address"
				},
				{
					"internalType": "uint256",
					"name": "index",
					"type": "uint256"
				}
			],
			"name": "lpLockForUserAtIndex",
			"outputs": [
				{
					"components": [
						{
							"internalType": "uint256",
							"name": "id",
							"type": "uint256"
						},
						{
							"internalType": "address",
							"name": "token",
							"type": "address"
						},
						{
							"internalType": "address",
							"name": "owner",
							"type": "address"
						},
						{
							"internalType": "uint256",
							"name": "amount",
							"type": "uint256"
						},
						{
							"internalType": "uint256",
							"name": "lockDate",
							"type": "uint256"
						},
						{
							"internalType": "uint256",
							"name": "tgeDate",
							"type": "uint256"
						},
						{
							"internalType": "uint256",
							"name": "tgeBps",
							"type": "uint256"
						},
						{
							"internalType": "uint256",
							"name": "cycle",
							"type": "uint256"
						},
						{
							"internalType": "uint256",
							"name": "cycleBps",
							"type": "uint256"
						},
						{
							"internalType": "uint256",
							"name": "unlockedAmount",
							"type": "uint256"
						},
						{
							"internalType": "string",
							"name": "description",
							"type": "string"
						}
					],
					"internalType": "struct Contract.Lock",
					"name": "",
					"type": "tuple"
				}
			],
			"stateMutability": "view",
			"type": "function"
		},
		{
			"inputs": [
				{
					"internalType": "address",
					"name": "user",
					"type": "address"
				}
			],
			"name": "lpLocksForUser",
			"outputs": [
				{
					"components": [
						{
							"internalType": "uint256",
							"name": "id",
							"type": "uint256"
						},
						{
							"internalType": "address",
							"name": "token",
							"type": "address"
						},
						{
							"internalType": "address",
							"name": "owner",
							"type": "address"
						},
						{
							"internalType": "uint256",
							"name": "amount",
							"type": "uint256"
						},
						{
							"internalType": "uint256",
							"name": "lockDate",
							"type": "uint256"
						},
						{
							"internalType": "uint256",
							"name": "tgeDate",
							"type": "uint256"
						},
						{
							"internalType": "uint256",
							"name": "tgeBps",
							"type": "uint256"
						},
						{
							"internalType": "uint256",
							"name": "cycle",
							"type": "uint256"
						},
						{
							"internalType": "uint256",
							"name": "cycleBps",
							"type": "uint256"
						},
						{
							"internalType": "uint256",
							"name": "unlockedAmount",
							"type": "uint256"
						},
						{
							"internalType": "string",
							"name": "description",
							"type": "string"
						}
					],
					"internalType": "struct Contract.Lock[]",
					"name": "",
					"type": "tuple[]"
				}
			],
			"stateMutability": "view",
			"type": "function"
		},
		{
			"inputs": [],
			"name": "minimumTokenForFeeExemption",
			"outputs": [
				{
					"internalType": "uint256",
					"name": "",
					"type": "uint256"
				}
			],
			"stateMutability": "view",
			"type": "function"
		},
		{
			"inputs": [
				{
					"internalType": "address[]",
					"name": "owners",
					"type": "address[]"
				},
				{
					"internalType": "uint256[]",
					"name": "amounts",
					"type": "uint256[]"
				},
				{
					"internalType": "address",
					"name": "token",
					"type": "address"
				},
				{
					"internalType": "bool",
					"name": "isLpToken",
					"type": "bool"
				},
				{
					"internalType": "uint256",
					"name": "tgeDate",
					"type": "uint256"
				},
				{
					"internalType": "uint256",
					"name": "tgeBps",
					"type": "uint256"
				},
				{
					"internalType": "uint256",
					"name": "cycle",
					"type": "uint256"
				},
				{
					"internalType": "uint256",
					"name": "cycleBps",
					"type": "uint256"
				},
				{
					"internalType": "string",
					"name": "description",
					"type": "string"
				}
			],
			"name": "multipleVestingLock",
			"outputs": [
				{
					"internalType": "uint256[]",
					"name": "",
					"type": "uint256[]"
				}
			],
			"stateMutability": "nonpayable",
			"type": "function"
		},
		{
			"inputs": [
				{
					"internalType": "address",
					"name": "user",
					"type": "address"
				}
			],
			"name": "normalLockCountForUser",
			"outputs": [
				{
					"internalType": "uint256",
					"name": "",
					"type": "uint256"
				}
			],
			"stateMutability": "view",
			"type": "function"
		},
		{
			"inputs": [
				{
					"internalType": "address",
					"name": "user",
					"type": "address"
				},
				{
					"internalType": "uint256",
					"name": "index",
					"type": "uint256"
				}
			],
			"name": "normalLockForUserAtIndex",
			"outputs": [
				{
					"components": [
						{
							"internalType": "uint256",
							"name": "id",
							"type": "uint256"
						},
						{
							"internalType": "address",
							"name": "token",
							"type": "address"
						},
						{
							"internalType": "address",
							"name": "owner",
							"type": "address"
						},
						{
							"internalType": "uint256",
							"name": "amount",
							"type": "uint256"
						},
						{
							"internalType": "uint256",
							"name": "lockDate",
							"type": "uint256"
						},
						{
							"internalType": "uint256",
							"name": "tgeDate",
							"type": "uint256"
						},
						{
							"internalType": "uint256",
							"name": "tgeBps",
							"type": "uint256"
						},
						{
							"internalType": "uint256",
							"name": "cycle",
							"type": "uint256"
						},
						{
							"internalType": "uint256",
							"name": "cycleBps",
							"type": "uint256"
						},
						{
							"internalType": "uint256",
							"name": "unlockedAmount",
							"type": "uint256"
						},
						{
							"internalType": "string",
							"name": "description",
							"type": "string"
						}
					],
					"internalType": "struct Contract.Lock",
					"name": "",
					"type": "tuple"
				}
			],
			"stateMutability": "view",
			"type": "function"
		},
		{
			"inputs": [
				{
					"internalType": "address",
					"name": "user",
					"type": "address"
				}
			],
			"name": "normalLocksForUser",
			"outputs": [
				{
					"components": [
						{
							"internalType": "uint256",
							"name": "id",
							"type": "uint256"
						},
						{
							"internalType": "address",
							"name": "token",
							"type": "address"
						},
						{
							"internalType": "address",
							"name": "owner",
							"type": "address"
						},
						{
							"internalType": "uint256",
							"name": "amount",
							"type": "uint256"
						},
						{
							"internalType": "uint256",
							"name": "lockDate",
							"type": "uint256"
						},
						{
							"internalType": "uint256",
							"name": "tgeDate",
							"type": "uint256"
						},
						{
							"internalType": "uint256",
							"name": "tgeBps",
							"type": "uint256"
						},
						{
							"internalType": "uint256",
							"name": "cycle",
							"type": "uint256"
						},
						{
							"internalType": "uint256",
							"name": "cycleBps",
							"type": "uint256"
						},
						{
							"internalType": "uint256",
							"name": "unlockedAmount",
							"type": "uint256"
						},
						{
							"internalType": "string",
							"name": "description",
							"type": "string"
						}
					],
					"internalType": "struct Contract.Lock[]",
					"name": "",
					"type": "tuple[]"
				}
			],
			"stateMutability": "view",
			"type": "function"
		},
		{
			"inputs": [],
			"name": "owner",
			"outputs": [
				{
					"internalType": "address",
					"name": "",
					"type": "address"
				}
			],
			"stateMutability": "view",
			"type": "function"
		},
		{
			"inputs": [],
			"name": "paused",
			"outputs": [
				{
					"internalType": "bool",
					"name": "",
					"type": "bool"
				}
			],
			"stateMutability": "view",
			"type": "function"
		},
		{
			"inputs": [],
			"name": "receiver",
			"outputs": [
				{
					"internalType": "address",
					"name": "",
					"type": "address"
				}
			],
			"stateMutability": "view",
			"type": "function"
		},
		{
			"inputs": [
				{
					"internalType": "uint256",
					"name": "lockId",
					"type": "uint256"
				}
			],
			"name": "renounceLockOwnership",
			"outputs": [],
			"stateMutability": "nonpayable",
			"type": "function"
		},
		{
			"inputs": [
				{
					"internalType": "uint256",
					"name": "lockId",
					"type": "uint256"
				}
			],
			"name": "renounceLockOwnershipBNB",
			"outputs": [],
			"stateMutability": "nonpayable",
			"type": "function"
		},
		{
			"inputs": [],
			"name": "renounceOwnership",
			"outputs": [],
			"stateMutability": "nonpayable",
			"type": "function"
		},
		{
			"inputs": [
				{
					"internalType": "uint256",
					"name": "_newFee",
					"type": "uint256"
				}
			],
			"name": "setLockFee",
			"outputs": [],
			"stateMutability": "nonpayable",
			"type": "function"
		},
		{
			"inputs": [
				{
					"internalType": "address",
					"name": "_receiver",
					"type": "address"
				}
			],
			"name": "setReceiver",
			"outputs": [],
			"stateMutability": "nonpayable",
			"type": "function"
		},
		{
			"inputs": [
				{
					"internalType": "address",
					"name": "contractAddress",
					"type": "address"
				}
			],
			"name": "setSnipeFinanceContract",
			"outputs": [],
			"stateMutability": "nonpayable",
			"type": "function"
		},
		{
			"inputs": [
				{
					"internalType": "uint256",
					"name": "_newFee",
					"type": "uint256"
				}
			],
			"name": "setVestFee",
			"outputs": [],
			"stateMutability": "nonpayable",
			"type": "function"
		},
		{
			"inputs": [],
			"name": "snipefinancemultisenders",
			"outputs": [
				{
					"internalType": "contract ISnipeFinanceMultisenders",
					"name": "",
					"type": "address"
				}
			],
			"stateMutability": "view",
			"type": "function"
		},
		{
			"inputs": [],
			"name": "totalLockCountForBNB",
			"outputs": [
				{
					"internalType": "uint256",
					"name": "",
					"type": "uint256"
				}
			],
			"stateMutability": "view",
			"type": "function"
		},
		{
			"inputs": [
				{
					"internalType": "address",
					"name": "token",
					"type": "address"
				}
			],
			"name": "totalLockCountForToken",
			"outputs": [
				{
					"internalType": "uint256",
					"name": "",
					"type": "uint256"
				}
			],
			"stateMutability": "view",
			"type": "function"
		},
		{
			"inputs": [
				{
					"internalType": "address",
					"name": "user",
					"type": "address"
				}
			],
			"name": "totalLockCountForUser",
			"outputs": [
				{
					"internalType": "uint256",
					"name": "",
					"type": "uint256"
				}
			],
			"stateMutability": "view",
			"type": "function"
		},
		{
			"inputs": [],
			"name": "totalTokenLockedCount",
			"outputs": [
				{
					"internalType": "uint256",
					"name": "",
					"type": "uint256"
				}
			],
			"stateMutability": "view",
			"type": "function"
		},
		{
			"inputs": [
				{
					"internalType": "uint256",
					"name": "lockId",
					"type": "uint256"
				},
				{
					"internalType": "address",
					"name": "newOwner",
					"type": "address"
				}
			],
			"name": "transferLockOwnership",
			"outputs": [],
			"stateMutability": "nonpayable",
			"type": "function"
		},
		{
			"inputs": [
				{
					"internalType": "uint256",
					"name": "lockId",
					"type": "uint256"
				},
				{
					"internalType": "address",
					"name": "newOwner",
					"type": "address"
				}
			],
			"name": "transferLockOwnershipBNB",
			"outputs": [],
			"stateMutability": "nonpayable",
			"type": "function"
		},
		{
			"inputs": [
				{
					"internalType": "address",
					"name": "newOwner",
					"type": "address"
				}
			],
			"name": "transferOwnership",
			"outputs": [],
			"stateMutability": "nonpayable",
			"type": "function"
		},
		{
			"inputs": [
				{
					"internalType": "uint256",
					"name": "lockId",
					"type": "uint256"
				},
				{
					"internalType": "uint256",
					"name": "timestamp",
					"type": "uint256"
				}
			],
			"name": "unlock",
			"outputs": [],
			"stateMutability": "nonpayable",
			"type": "function"
		},
		{
			"inputs": [
				{
					"internalType": "uint256",
					"name": "lockId",
					"type": "uint256"
				},
				{
					"internalType": "uint256",
					"name": "timestamp",
					"type": "uint256"
				}
			],
			"name": "unlockBNB",
			"outputs": [],
			"stateMutability": "payable",
			"type": "function"
		},
		{
			"inputs": [],
			"name": "vestFee",
			"outputs": [
				{
					"internalType": "uint256",
					"name": "",
					"type": "uint256"
				}
			],
			"stateMutability": "view",
			"type": "function"
		},
		{
			"inputs": [
				{
					"internalType": "address",
					"name": "owner",
					"type": "address"
				},
				{
					"internalType": "address",
					"name": "token",
					"type": "address"
				},
				{
					"internalType": "bool",
					"name": "isLpToken",
					"type": "bool"
				},
				{
					"internalType": "uint256",
					"name": "amount",
					"type": "uint256"
				},
				{
					"internalType": "uint256",
					"name": "tgeDate",
					"type": "uint256"
				},
				{
					"internalType": "uint256",
					"name": "tgeBps",
					"type": "uint256"
				},
				{
					"internalType": "uint256",
					"name": "cycle",
					"type": "uint256"
				},
				{
					"internalType": "uint256",
					"name": "cycleBps",
					"type": "uint256"
				},
				{
					"internalType": "string",
					"name": "description",
					"type": "string"
				}
			],
			"name": "vestingLock",
			"outputs": [
				{
					"internalType": "uint256",
					"name": "id",
					"type": "uint256"
				}
			],
			"stateMutability": "payable",
			"type": "function"
		},
		{
			"inputs": [],
			"name": "withdrawBNB",
			"outputs": [],
			"stateMutability": "nonpayable",
			"type": "function"
		},
		{
			"inputs": [
				{
					"internalType": "address",
					"name": "tokenToWithdraw",
					"type": "address"
				},
				{
					"internalType": "uint256",
					"name": "quantityToWithdraw",
					"type": "uint256"
				}
			],
			"name": "withdrawToken",
			"outputs": [],
			"stateMutability": "nonpayable",
			"type": "function"
		},
		{
			"inputs": [
				{
					"internalType": "uint256",
					"name": "lockId",
					"type": "uint256"
				},
				{
					"internalType": "uint256",
					"name": "timestamp",
					"type": "uint256"
				}
			],
			"name": "withdrawableTokens",
			"outputs": [
				{
					"internalType": "uint256",
					"name": "",
					"type": "uint256"
				}
			],
			"stateMutability": "view",
			"type": "function"
		},
		{
			"inputs": [
				{
					"internalType": "uint256",
					"name": "lockId",
					"type": "uint256"
				},
				{
					"internalType": "uint256",
					"name": "timestamp",
					"type": "uint256"
				}
			],
			"name": "withdrawableTokensBNB",
			"outputs": [
				{
					"internalType": "uint256",
					"name": "",
					"type": "uint256"
				}
			],
			"stateMutability": "view",
			"type": "function"
		},
		{
			"stateMutability": "payable",
			"type": "receive"
		}
	]
}