{
	"SnipeFinanceMultisenders/SnipeFinanceMultisenders.sol": {
		"SnipeFinanceMultisenders": {
			"abi": [
				{
					"inputs": [],
					"stateMutability": "nonpayable",
					"type": "constructor"
				},
				{
					"anonymous": false,
					"inputs": [
						{
							"indexed": true,
							"internalType": "address",
							"name": "previousOwner",
							"type": "address"
						},
						{
							"indexed": true,
							"internalType": "address",
							"name": "newOwner",
							"type": "address"
						}
					],
					"name": "OwnershipTransferred",
					"type": "event"
				},
				{
					"inputs": [
						{
							"internalType": "address[]",
							"name": "recipients",
							"type": "address[]"
						},
						{
							"internalType": "uint256[]",
							"name": "values",
							"type": "uint256[]"
						}
					],
					"name": "BNBmultisender",
					"outputs": [],
					"stateMutability": "payable",
					"type": "function"
				},
				{
					"inputs": [
						{
							"internalType": "contract IBEP20",
							"name": "token",
							"type": "address"
						},
						{
							"internalType": "uint256",
							"name": "_amount",
							"type": "uint256"
						}
					],
					"name": "SetTokenToholdAndQuantity",
					"outputs": [],
					"stateMutability": "nonpayable",
					"type": "function"
				},
				{
					"inputs": [
						{
							"internalType": "contract IBEP20",
							"name": "token",
							"type": "address"
						},
						{
							"internalType": "address[]",
							"name": "recipients",
							"type": "address[]"
						},
						{
							"internalType": "uint256[]",
							"name": "values",
							"type": "uint256[]"
						}
					],
					"name": "TOKENmultisender",
					"outputs": [],
					"stateMutability": "payable",
					"type": "function"
				},
				{
					"inputs": [
						{
							"internalType": "address",
							"name": "_addr",
							"type": "address"
						}
					],
					"name": "authorizeToUse",
					"outputs": [],
					"stateMutability": "nonpayable",
					"type": "function"
				},
				{
					"inputs": [
						{
							"internalType": "address",
							"name": "",
							"type": "address"
						}
					],
					"name": "authorizedusers",
					"outputs": [
						{
							"internalType": "bool",
							"name": "",
							"type": "bool"
						}
					],
					"stateMutability": "view",
					"type": "function"
				},
				{
					"inputs": [],
					"name": "fee",
					"outputs": [
						{
							"internalType": "uint256",
							"name": "",
							"type": "uint256"
						}
					],
					"stateMutability": "view",
					"type": "function"
				},
				{
					"inputs": [],
					"name": "feeamounts",
					"outputs": [
						{
							"internalType": "uint256",
							"name": "",
							"type": "uint256"
						}
					],
					"stateMutability": "view",
					"type": "function"
				},
				{
					"inputs": [],
					"name": "owner",
					"outputs": [
						{
							"internalType": "address",
							"name": "",
							"type": "address"
						}
					],
					"stateMutability": "view",
					"type": "function"
				},
				{
					"inputs": [],
					"name": "quantity",
					"outputs": [
						{
							"internalType": "uint256",
							"name": "",
							"type": "uint256"
						}
					],
					"stateMutability": "view",
					"type": "function"
				},
				{
					"inputs": [
						{
							"internalType": "address",
							"name": "user",
							"type": "address"
						}
					],
					"name": "readAuthorizedUsers",
					"outputs": [
						{
							"internalType": "bool",
							"name": "",
							"type": "bool"
						}
					],
					"stateMutability": "view",
					"type": "function"
				},
				{
					"inputs": [],
					"name": "receiver",
					"outputs": [
						{
							"internalType": "address payable",
							"name": "",
							"type": "address"
						}
					],
					"stateMutability": "view",
					"type": "function"
				},
				{
					"inputs": [],
					"name": "renounceOwnership",
					"outputs": [],
					"stateMutability": "nonpayable",
					"type": "function"
				},
				{
					"inputs": [
						{
							"internalType": "address",
							"name": "_addr",
							"type": "address"
						},
						{
							"internalType": "bool",
							"name": "_bool",
							"type": "bool"
						}
					],
					"name": "setauthor",
					"outputs": [],
					"stateMutability": "nonpayable",
					"type": "function"
				},
				{
					"inputs": [
						{
							"internalType": "uint256",
							"name": "newfee",
							"type": "uint256"
						},
						{
							"internalType": "address",
							"name": "_receiver",
							"type": "address"
						}
					],
					"name": "setfeeToUse",
					"outputs": [],
					"stateMutability": "nonpayable",
					"type": "function"
				},
				{
					"inputs": [],
					"name": "tokenaddress",
					"outputs": [
						{
							"internalType": "contract IBEP20",
							"name": "",
							"type": "address"
						}
					],
					"stateMutability": "view",
					"type": "function"
				},
				{
					"inputs": [
						{
							"internalType": "address",
							"name": "newOwner",
							"type": "address"
						}
					],
					"name": "transferOwnership",
					"outputs": [],
					"stateMutability": "nonpayable",
					"type": "function"
				},
				{
					"inputs": [],
					"name": "withdraw",
					"outputs": [],
					"stateMutability": "nonpayable",
					"type": "function"
				}
			],
			"devdoc": {
				"kind": "dev",
				"methods": {
					"owner()": {
						"details": "Returns the address of the current owner."
					},
					"renounceOwnership()": {
						"details": "Leaves the contract without owner. It will not be possible to call `onlyOwner` functions anymore. Can only be called by the current owner. NOTE: Renouncing ownership will leave the contract without an owner, thereby removing any functionality that is only available to the owner."
					},
					"transferOwnership(address)": {
						"details": "Transfers ownership of the contract to a new account (`newOwner`). Can only be called by the current owner."
					}
				},
				"version": 1
			},
			"evm": {
				"assembly": "    /* \"SnipeFinanceMultisenders/SnipeFinanceMultisenders.sol\":139:3061  contract SnipeFinanceMultisenders is Ownable{... */\n  mstore(0x40, 0x80)\n    /* \"SnipeFinanceMultisenders/SnipeFinanceMultisenders.sol\":485:574  constructor() {... */\n  callvalue\n  dup1\n  iszero\n  tag_1\n  jumpi\n  0x00\n  dup1\n  revert\ntag_1:\n  pop\n    /* \"@openzeppelin/contracts/access/Ownable.sol\":936:968  _transferOwnership(_msgSender()) */\n  tag_5\n    /* \"@openzeppelin/contracts/utils/Context.sol\":719:729  msg.sender */\n  caller\n    /* \"@openzeppelin/contracts/access/Ownable.sol\":936:954  _transferOwnership */\n  tag_8\n    /* \"@openzeppelin/contracts/access/Ownable.sol\":936:968  _transferOwnership(_msgSender()) */\n  jump\t// in\ntag_5:\n    /* \"@openzeppelin/contracts/access/Ownable.sol\":1247:1254  address */\n  0x00\n    /* \"@openzeppelin/contracts/access/Ownable.sol\":1273:1279  _owner */\n  sload\n    /* \"SnipeFinanceMultisenders/SnipeFinanceMultisenders.sol\":510:518  receiver */\n  0x02\n    /* \"SnipeFinanceMultisenders/SnipeFinanceMultisenders.sol\":510:537  receiver = payable(owner()) */\n  dup1\n  sload\n  not(sub(shl(0xa0, 0x01), 0x01))\n  and\n  sub(shl(0xa0, 0x01), 0x01)\n    /* \"@openzeppelin/contracts/access/Ownable.sol\":1273:1279  _owner */\n  swap1\n  swap3\n  and\n    /* \"SnipeFinanceMultisenders/SnipeFinanceMultisenders.sol\":510:537  receiver = payable(owner()) */\n  swap2\n  swap1\n  swap2\n  or\n  swap1\n  sstore\n    /* \"SnipeFinanceMultisenders/SnipeFinanceMultisenders.sol\":554:566  1 * 10 ** 14 */\n  0x5af3107a4000\n  0x01\n    /* \"SnipeFinanceMultisenders/SnipeFinanceMultisenders.sol\":548:566  fee = 1 * 10 ** 14 */\n  sstore\n    /* \"SnipeFinanceMultisenders/SnipeFinanceMultisenders.sol\":139:3061  contract SnipeFinanceMultisenders is Ownable{... */\n  jump(tag_12)\n    /* \"@openzeppelin/contracts/access/Ownable.sol\":2433:2620  function _transferOwnership(address newOwner) internal virtual {... */\ntag_8:\n    /* \"@openzeppelin/contracts/access/Ownable.sol\":2506:2522  address oldOwner */\n  0x00\n    /* \"@openzeppelin/contracts/access/Ownable.sol\":2525:2531  _owner */\n  dup1\n  sload\n  sub(shl(0xa0, 0x01), 0x01)\n    /* \"@openzeppelin/contracts/access/Ownable.sol\":2541:2558  _owner = newOwner */\n  dup4\n  dup2\n  and\n  not(sub(shl(0xa0, 0x01), 0x01))\n  dup4\n  and\n  dup2\n  or\n  dup5\n  sstore\n    /* \"@openzeppelin/contracts/access/Ownable.sol\":2573:2613  OwnershipTransferred(oldOwner, newOwner) */\n  mload(0x40)\n    /* \"@openzeppelin/contracts/access/Ownable.sol\":2525:2531  _owner */\n  swap2\n  swap1\n  swap3\n  and\n  swap3\n  dup4\n  swap2\n    /* \"@openzeppelin/contracts/access/Ownable.sol\":2573:2613  OwnershipTransferred(oldOwner, newOwner) */\n  0x8be0079c531659141344cd1fd0a4f28419497f9722a3daafe3b4186f6b6457e0\n  swap2\n    /* \"@openzeppelin/contracts/access/Ownable.sol\":2506:2522  address oldOwner */\n  swap1\n    /* \"@openzeppelin/contracts/access/Ownable.sol\":2573:2613  OwnershipTransferred(oldOwner, newOwner) */\n  log3\n    /* \"@openzeppelin/contracts/access/Ownable.sol\":2496:2620  {... */\n  pop\n    /* \"@openzeppelin/contracts/access/Ownable.sol\":2433:2620  function _transferOwnership(address newOwner) internal virtual {... */\n  pop\n  jump\t// out\n    /* \"SnipeFinanceMultisenders/SnipeFinanceMultisenders.sol\":139:3061  contract SnipeFinanceMultisenders is Ownable{... */\ntag_12:\n  dataSize(sub_0)\n  dup1\n  dataOffset(sub_0)\n  0x00\n  codecopy\n  0x00\n  return\nstop\n\nsub_0: assembly {\n        /* \"SnipeFinanceMultisenders/SnipeFinanceMultisenders.sol\":139:3061  contract SnipeFinanceMultisenders is Ownable{... */\n      mstore(0x40, 0x80)\n      jumpi(tag_1, lt(calldatasize, 0x04))\n      shr(0xe0, calldataload(0x00))\n      dup1\n      0x8da5cb5b\n      gt\n      tag_19\n      jumpi\n      dup1\n      0xddca3f43\n      gt\n      tag_20\n      jumpi\n      dup1\n      0xddca3f43\n      eq\n      tag_14\n      jumpi\n      dup1\n      0xe3cec849\n      eq\n      tag_15\n      jumpi\n      dup1\n      0xf2fde38b\n      eq\n      tag_16\n      jumpi\n      dup1\n      0xf7260d3e\n      eq\n      tag_17\n      jumpi\n      dup1\n      0xfb520af2\n      eq\n      tag_18\n      jumpi\n      0x00\n      dup1\n      revert\n    tag_20:\n      dup1\n      0x8da5cb5b\n      eq\n      tag_10\n      jumpi\n      dup1\n      0x9c8b9e7b\n      eq\n      tag_11\n      jumpi\n      dup1\n      0x9cbd3433\n      eq\n      tag_12\n      jumpi\n      dup1\n      0xa4df0256\n      eq\n      tag_13\n      jumpi\n      0x00\n      dup1\n      revert\n    tag_19:\n      dup1\n      0x3feff76d\n      gt\n      tag_21\n      jumpi\n      dup1\n      0x3feff76d\n      eq\n      tag_6\n      jumpi\n      dup1\n      0x44b6209d\n      eq\n      tag_7\n      jumpi\n      dup1\n      0x4b4fb1b0\n      eq\n      tag_8\n      jumpi\n      dup1\n      0x715018a6\n      eq\n      tag_9\n      jumpi\n      0x00\n      dup1\n      revert\n    tag_21:\n      dup1\n      0x126ccd94\n      eq\n      tag_2\n      jumpi\n      dup1\n      0x17fc45e2\n      eq\n      tag_3\n      jumpi\n      dup1\n      0x2fc75eb0\n      eq\n      tag_4\n      jumpi\n      dup1\n      0x3ccfd60b\n      eq\n      tag_5\n      jumpi\n    tag_1:\n      0x00\n      dup1\n      revert\n        /* \"SnipeFinanceMultisenders/SnipeFinanceMultisenders.sol\":1999:2146  function setfeeToUse (uint256 newfee, address _receiver) onlyOwner external {... */\n    tag_2:\n      callvalue\n      dup1\n      iszero\n      tag_22\n      jumpi\n      0x00\n      dup1\n      revert\n    tag_22:\n      pop\n      tag_23\n      tag_24\n      calldatasize\n      0x04\n      tag_25\n      jump\t// in\n    tag_24:\n      tag_26\n      jump\t// in\n    tag_23:\n      stop\n        /* \"SnipeFinanceMultisenders/SnipeFinanceMultisenders.sol\":417:440  uint256 public quantity */\n    tag_3:\n      callvalue\n      dup1\n      iszero\n      tag_27\n      jumpi\n      0x00\n      dup1\n      revert\n    tag_27:\n      pop\n      tag_28\n      sload(0x06)\n      dup2\n      jump\n    tag_28:\n      mload(0x40)\n        /* \"#utility.yul\":616:641   */\n      swap1\n      dup2\n      mstore\n        /* \"#utility.yul\":604:606   */\n      0x20\n        /* \"#utility.yul\":589:607   */\n      add\n        /* \"SnipeFinanceMultisenders/SnipeFinanceMultisenders.sol\":417:440  uint256 public quantity */\n    tag_30:\n      mload(0x40)\n      dup1\n      swap2\n      sub\n      swap1\n      return\n        /* \"SnipeFinanceMultisenders/SnipeFinanceMultisenders.sol\":2781:2935  function SetTokenToholdAndQuantity (IBEP20 token, uint256 _amount) onlyOwner external {... */\n    tag_4:\n      callvalue\n      dup1\n      iszero\n      tag_32\n      jumpi\n      0x00\n      dup1\n      revert\n    tag_32:\n      pop\n      tag_23\n      tag_34\n      calldatasize\n      0x04\n      tag_35\n      jump\t// in\n    tag_34:\n      tag_36\n      jump\t// in\n        /* \"SnipeFinanceMultisenders/SnipeFinanceMultisenders.sol\":2205:2334  function withdraw() onlyOwner external {... */\n    tag_5:\n      callvalue\n      dup1\n      iszero\n      tag_37\n      jumpi\n      0x00\n      dup1\n      revert\n    tag_37:\n      pop\n      tag_23\n      tag_39\n      jump\t// in\n        /* \"SnipeFinanceMultisenders/SnipeFinanceMultisenders.sol\":339:365  IBEP20 public tokenaddress */\n    tag_6:\n      callvalue\n      dup1\n      iszero\n      tag_40\n      jumpi\n      0x00\n      dup1\n      revert\n    tag_40:\n      pop\n      sload(0x05)\n      tag_41\n      swap1\n      sub(shl(0xa0, 0x01), 0x01)\n      and\n      dup2\n      jump\n    tag_41:\n      mload(0x40)\n      sub(shl(0xa0, 0x01), 0x01)\n        /* \"#utility.yul\":1164:1196   */\n      swap1\n      swap2\n      and\n        /* \"#utility.yul\":1146:1197   */\n      dup2\n      mstore\n        /* \"#utility.yul\":1134:1136   */\n      0x20\n        /* \"#utility.yul\":1119:1137   */\n      add\n        /* \"SnipeFinanceMultisenders/SnipeFinanceMultisenders.sol\":339:365  IBEP20 public tokenaddress */\n      tag_30\n        /* \"#utility.yul\":986:1203   */\n      jump\n        /* \"SnipeFinanceMultisenders/SnipeFinanceMultisenders.sol\":285:332  mapping(address => bool) public authorizedusers */\n    tag_7:\n      callvalue\n      dup1\n      iszero\n      tag_45\n      jumpi\n      0x00\n      dup1\n      revert\n    tag_45:\n      pop\n      tag_46\n      tag_47\n      calldatasize\n      0x04\n      tag_48\n      jump\t// in\n    tag_47:\n      mstore(0x20, 0x04)\n      0x00\n      swap1\n      dup2\n      mstore\n      0x40\n      swap1\n      keccak256\n      sload\n      0xff\n      and\n      dup2\n      jump\n    tag_46:\n      mload(0x40)\n        /* \"#utility.yul\":1625:1639   */\n      swap1\n      iszero\n        /* \"#utility.yul\":1618:1640   */\n      iszero\n        /* \"#utility.yul\":1600:1641   */\n      dup2\n      mstore\n        /* \"#utility.yul\":1588:1590   */\n      0x20\n        /* \"#utility.yul\":1573:1591   */\n      add\n        /* \"SnipeFinanceMultisenders/SnipeFinanceMultisenders.sol\":285:332  mapping(address => bool) public authorizedusers */\n      tag_30\n        /* \"#utility.yul\":1460:1647   */\n      jump\n        /* \"SnipeFinanceMultisenders/SnipeFinanceMultisenders.sol\":2379:2485  function authorizeToUse(address _addr) onlyOwner external {... */\n    tag_8:\n      callvalue\n      dup1\n      iszero\n      tag_52\n      jumpi\n      0x00\n      dup1\n      revert\n    tag_52:\n      pop\n      tag_23\n      tag_54\n      calldatasize\n      0x04\n      tag_48\n      jump\t// in\n    tag_54:\n      tag_55\n      jump\t// in\n        /* \"@openzeppelin/contracts/access/Ownable.sol\":1831:1932  function renounceOwnership() public virtual onlyOwner {... */\n    tag_9:\n      callvalue\n      dup1\n      iszero\n      tag_56\n      jumpi\n      0x00\n      dup1\n      revert\n    tag_56:\n      pop\n      tag_23\n      tag_58\n      jump\t// in\n        /* \"@openzeppelin/contracts/access/Ownable.sol\":1201:1286  function owner() public view virtual returns (address) {... */\n    tag_10:\n      callvalue\n      dup1\n      iszero\n      tag_59\n      jumpi\n      0x00\n      dup1\n      revert\n    tag_59:\n      pop\n        /* \"@openzeppelin/contracts/access/Ownable.sol\":1247:1254  address */\n      0x00\n        /* \"@openzeppelin/contracts/access/Ownable.sol\":1273:1279  _owner */\n      sload\n      sub(shl(0xa0, 0x01), 0x01)\n      and\n        /* \"@openzeppelin/contracts/access/Ownable.sol\":1201:1286  function owner() public view virtual returns (address) {... */\n      jump(tag_41)\n        /* \"SnipeFinanceMultisenders/SnipeFinanceMultisenders.sol\":253:278  uint256 public feeamounts */\n    tag_11:\n      callvalue\n      dup1\n      iszero\n      tag_64\n      jumpi\n      0x00\n      dup1\n      revert\n    tag_64:\n      pop\n      tag_28\n      sload(0x03)\n      dup2\n      jump\n        /* \"SnipeFinanceMultisenders/SnipeFinanceMultisenders.sol\":1229:1951  function TOKENmultisender(IBEP20 token, address[] memory recipients, uint256[] memory values) external payable {... */\n    tag_12:\n      tag_23\n      tag_69\n      calldatasize\n      0x04\n      tag_70\n      jump\t// in\n    tag_69:\n      tag_71\n      jump\t// in\n        /* \"SnipeFinanceMultisenders/SnipeFinanceMultisenders.sol\":2943:3058  function readAuthorizedUsers(address user) public view returns(bool){... */\n    tag_13:\n      callvalue\n      dup1\n      iszero\n      tag_72\n      jumpi\n      0x00\n      dup1\n      revert\n    tag_72:\n      pop\n      tag_46\n      tag_74\n      calldatasize\n      0x04\n      tag_48\n      jump\t// in\n    tag_74:\n      sub(shl(0xa0, 0x01), 0x01)\n        /* \"SnipeFinanceMultisenders/SnipeFinanceMultisenders.sol\":3029:3050  authorizedusers[user] */\n      and\n        /* \"SnipeFinanceMultisenders/SnipeFinanceMultisenders.sol\":3006:3010  bool */\n      0x00\n        /* \"SnipeFinanceMultisenders/SnipeFinanceMultisenders.sol\":3029:3050  authorizedusers[user] */\n      swap1\n      dup2\n      mstore\n        /* \"SnipeFinanceMultisenders/SnipeFinanceMultisenders.sol\":3029:3044  authorizedusers */\n      0x04\n        /* \"SnipeFinanceMultisenders/SnipeFinanceMultisenders.sol\":3029:3050  authorizedusers[user] */\n      0x20\n      mstore\n      0x40\n      swap1\n      keccak256\n      sload\n      0xff\n      and\n      swap1\n        /* \"SnipeFinanceMultisenders/SnipeFinanceMultisenders.sol\":2943:3058  function readAuthorizedUsers(address user) public view returns(bool){... */\n      jump\n        /* \"SnipeFinanceMultisenders/SnipeFinanceMultisenders.sol\":190:208  uint256 public fee */\n    tag_14:\n      callvalue\n      dup1\n      iszero\n      tag_77\n      jumpi\n      0x00\n      dup1\n      revert\n    tag_77:\n      pop\n      tag_28\n      sload(0x01)\n      dup2\n      jump\n        /* \"SnipeFinanceMultisenders/SnipeFinanceMultisenders.sol\":582:1217  function BNBmultisender(address[] memory recipients, uint256[] memory values) external payable {... */\n    tag_15:\n      tag_23\n      tag_82\n      calldatasize\n      0x04\n      tag_83\n      jump\t// in\n    tag_82:\n      tag_84\n      jump\t// in\n        /* \"@openzeppelin/contracts/access/Ownable.sol\":2081:2279  function transferOwnership(address newOwner) public virtual onlyOwner {... */\n    tag_16:\n      callvalue\n      dup1\n      iszero\n      tag_85\n      jumpi\n      0x00\n      dup1\n      revert\n    tag_85:\n      pop\n      tag_23\n      tag_87\n      calldatasize\n      0x04\n      tag_48\n      jump\t// in\n    tag_87:\n      tag_88\n      jump\t// in\n        /* \"SnipeFinanceMultisenders/SnipeFinanceMultisenders.sol\":215:246  address payable public receiver */\n    tag_17:\n      callvalue\n      dup1\n      iszero\n      tag_89\n      jumpi\n      0x00\n      dup1\n      revert\n    tag_89:\n      pop\n      sload(0x02)\n      tag_41\n      swap1\n      sub(shl(0xa0, 0x01), 0x01)\n      and\n      dup2\n      jump\n        /* \"SnipeFinanceMultisenders/SnipeFinanceMultisenders.sol\":2567:2734  function setauthor(address _addr, bool _bool) onlyOwner external {... */\n    tag_18:\n      callvalue\n      dup1\n      iszero\n      tag_94\n      jumpi\n      0x00\n      dup1\n      revert\n    tag_94:\n      pop\n      tag_23\n      tag_96\n      calldatasize\n      0x04\n      tag_97\n      jump\t// in\n    tag_96:\n      tag_98\n      jump\t// in\n        /* \"SnipeFinanceMultisenders/SnipeFinanceMultisenders.sol\":1999:2146  function setfeeToUse (uint256 newfee, address _receiver) onlyOwner external {... */\n    tag_26:\n        /* \"@openzeppelin/contracts/access/Ownable.sol\":1094:1107  _checkOwner() */\n      tag_100\n        /* \"@openzeppelin/contracts/access/Ownable.sol\":1094:1105  _checkOwner */\n      tag_101\n        /* \"@openzeppelin/contracts/access/Ownable.sol\":1094:1107  _checkOwner() */\n      jump\t// in\n    tag_100:\n        /* \"SnipeFinanceMultisenders/SnipeFinanceMultisenders.sol\":2086:2089  fee */\n      0x01\n        /* \"SnipeFinanceMultisenders/SnipeFinanceMultisenders.sol\":2086:2098  fee = newfee */\n      swap2\n      swap1\n      swap2\n      sstore\n        /* \"SnipeFinanceMultisenders/SnipeFinanceMultisenders.sol\":2109:2117  receiver */\n      0x02\n        /* \"SnipeFinanceMultisenders/SnipeFinanceMultisenders.sol\":2109:2138  receiver = payable(_receiver) */\n      dup1\n      sload\n      not(sub(shl(0xa0, 0x01), 0x01))\n      and\n      sub(shl(0xa0, 0x01), 0x01)\n      swap1\n      swap3\n      and\n      swap2\n      swap1\n      swap2\n      or\n      swap1\n      sstore\n        /* \"SnipeFinanceMultisenders/SnipeFinanceMultisenders.sol\":1999:2146  function setfeeToUse (uint256 newfee, address _receiver) onlyOwner external {... */\n      jump\t// out\n        /* \"SnipeFinanceMultisenders/SnipeFinanceMultisenders.sol\":2781:2935  function SetTokenToholdAndQuantity (IBEP20 token, uint256 _amount) onlyOwner external {... */\n    tag_36:\n        /* \"@openzeppelin/contracts/access/Ownable.sol\":1094:1107  _checkOwner() */\n      tag_104\n        /* \"@openzeppelin/contracts/access/Ownable.sol\":1094:1105  _checkOwner */\n      tag_101\n        /* \"@openzeppelin/contracts/access/Ownable.sol\":1094:1107  _checkOwner() */\n      jump\t// in\n    tag_104:\n        /* \"SnipeFinanceMultisenders/SnipeFinanceMultisenders.sol\":2878:2890  tokenaddress */\n      0x05\n        /* \"SnipeFinanceMultisenders/SnipeFinanceMultisenders.sol\":2878:2898  tokenaddress = token */\n      dup1\n      sload\n      not(sub(shl(0xa0, 0x01), 0x01))\n      and\n      sub(shl(0xa0, 0x01), 0x01)\n      swap4\n      swap1\n      swap4\n      and\n      swap3\n      swap1\n      swap3\n      or\n      swap1\n      swap2\n      sstore\n        /* \"SnipeFinanceMultisenders/SnipeFinanceMultisenders.sol\":2909:2917  quantity */\n      0x06\n        /* \"SnipeFinanceMultisenders/SnipeFinanceMultisenders.sol\":2909:2927  quantity = _amount */\n      sstore\n        /* \"SnipeFinanceMultisenders/SnipeFinanceMultisenders.sol\":2781:2935  function SetTokenToholdAndQuantity (IBEP20 token, uint256 _amount) onlyOwner external {... */\n      jump\t// out\n        /* \"SnipeFinanceMultisenders/SnipeFinanceMultisenders.sol\":2205:2334  function withdraw() onlyOwner external {... */\n    tag_39:\n        /* \"@openzeppelin/contracts/access/Ownable.sol\":1094:1107  _checkOwner() */\n      tag_107\n        /* \"@openzeppelin/contracts/access/Ownable.sol\":1094:1105  _checkOwner */\n      tag_101\n        /* \"@openzeppelin/contracts/access/Ownable.sol\":1094:1107  _checkOwner() */\n      jump\t// in\n    tag_107:\n        /* \"SnipeFinanceMultisenders/SnipeFinanceMultisenders.sol\":2258:2268  feeamounts */\n      sload(0x03)\n        /* \"SnipeFinanceMultisenders/SnipeFinanceMultisenders.sol\":2258:2272  feeamounts > 0 */\n      iszero\n        /* \"SnipeFinanceMultisenders/SnipeFinanceMultisenders.sol\":2255:2326  if(feeamounts > 0)... */\n      tag_109\n      jumpi\n        /* \"SnipeFinanceMultisenders/SnipeFinanceMultisenders.sol\":2315:2325  feeamounts */\n      sload(0x03)\n        /* \"SnipeFinanceMultisenders/SnipeFinanceMultisenders.sol\":2286:2326  payable(msg.sender).transfer(feeamounts) */\n      mload(0x40)\n        /* \"SnipeFinanceMultisenders/SnipeFinanceMultisenders.sol\":2294:2304  msg.sender */\n      caller\n      swap2\n        /* \"SnipeFinanceMultisenders/SnipeFinanceMultisenders.sol\":2286:2326  payable(msg.sender).transfer(feeamounts) */\n      dup1\n      iszero\n      0x08fc\n      mul\n      swap2\n      0x00\n      dup2\n      dup2\n      dup2\n        /* \"SnipeFinanceMultisenders/SnipeFinanceMultisenders.sol\":2315:2325  feeamounts */\n      dup6\n        /* \"SnipeFinanceMultisenders/SnipeFinanceMultisenders.sol\":2294:2304  msg.sender */\n      dup9\n        /* \"SnipeFinanceMultisenders/SnipeFinanceMultisenders.sol\":2286:2326  payable(msg.sender).transfer(feeamounts) */\n      dup9\n      call\n      swap4\n      pop\n      pop\n      pop\n      pop\n      iszero\n      dup1\n      iszero\n      tag_111\n      jumpi\n      returndatasize\n      0x00\n      dup1\n      returndatacopy\n      revert(0x00, returndatasize)\n    tag_111:\n      pop\n        /* \"SnipeFinanceMultisenders/SnipeFinanceMultisenders.sol\":2255:2326  if(feeamounts > 0)... */\n    tag_109:\n        /* \"SnipeFinanceMultisenders/SnipeFinanceMultisenders.sol\":2205:2334  function withdraw() onlyOwner external {... */\n      jump\t// out\n        /* \"SnipeFinanceMultisenders/SnipeFinanceMultisenders.sol\":2379:2485  function authorizeToUse(address _addr) onlyOwner external {... */\n    tag_55:\n        /* \"@openzeppelin/contracts/access/Ownable.sol\":1094:1107  _checkOwner() */\n      tag_113\n        /* \"@openzeppelin/contracts/access/Ownable.sol\":1094:1105  _checkOwner */\n      tag_101\n        /* \"@openzeppelin/contracts/access/Ownable.sol\":1094:1107  _checkOwner() */\n      jump\t// in\n    tag_113:\n      sub(shl(0xa0, 0x01), 0x01)\n        /* \"SnipeFinanceMultisenders/SnipeFinanceMultisenders.sol\":2448:2470  authorizedusers[_addr] */\n      and\n      0x00\n      swap1\n      dup2\n      mstore\n        /* \"SnipeFinanceMultisenders/SnipeFinanceMultisenders.sol\":2448:2463  authorizedusers */\n      0x04\n        /* \"SnipeFinanceMultisenders/SnipeFinanceMultisenders.sol\":2448:2470  authorizedusers[_addr] */\n      0x20\n      mstore\n      0x40\n      swap1\n      keccak256\n        /* \"SnipeFinanceMultisenders/SnipeFinanceMultisenders.sol\":2448:2477  authorizedusers[_addr] = true */\n      dup1\n      sload\n      not(0xff)\n      and\n        /* \"SnipeFinanceMultisenders/SnipeFinanceMultisenders.sol\":2473:2477  true */\n      0x01\n        /* \"SnipeFinanceMultisenders/SnipeFinanceMultisenders.sol\":2448:2477  authorizedusers[_addr] = true */\n      or\n      swap1\n      sstore\n        /* \"SnipeFinanceMultisenders/SnipeFinanceMultisenders.sol\":2379:2485  function authorizeToUse(address _addr) onlyOwner external {... */\n      jump\t// out\n        /* \"@openzeppelin/contracts/access/Ownable.sol\":1831:1932  function renounceOwnership() public virtual onlyOwner {... */\n    tag_58:\n        /* \"@openzeppelin/contracts/access/Ownable.sol\":1094:1107  _checkOwner() */\n      tag_116\n        /* \"@openzeppelin/contracts/access/Ownable.sol\":1094:1105  _checkOwner */\n      tag_101\n        /* \"@openzeppelin/contracts/access/Ownable.sol\":1094:1107  _checkOwner() */\n      jump\t// in\n    tag_116:\n        /* \"@openzeppelin/contracts/access/Ownable.sol\":1895:1925  _transferOwnership(address(0)) */\n      tag_109\n        /* \"@openzeppelin/contracts/access/Ownable.sol\":1922:1923  0 */\n      0x00\n        /* \"@openzeppelin/contracts/access/Ownable.sol\":1895:1913  _transferOwnership */\n      tag_119\n        /* \"@openzeppelin/contracts/access/Ownable.sol\":1895:1925  _transferOwnership(address(0)) */\n      jump\t// in\n        /* \"SnipeFinanceMultisenders/SnipeFinanceMultisenders.sol\":1229:1951  function TOKENmultisender(IBEP20 token, address[] memory recipients, uint256[] memory values) external payable {... */\n    tag_71:\n        /* \"SnipeFinanceMultisenders/SnipeFinanceMultisenders.sol\":1371:1381  msg.sender */\n      caller\n        /* \"SnipeFinanceMultisenders/SnipeFinanceMultisenders.sol\":1355:1382  authorizedusers[msg.sender] */\n      0x00\n      swap1\n      dup2\n      mstore\n        /* \"SnipeFinanceMultisenders/SnipeFinanceMultisenders.sol\":1355:1370  authorizedusers */\n      0x04\n        /* \"SnipeFinanceMultisenders/SnipeFinanceMultisenders.sol\":1355:1382  authorizedusers[msg.sender] */\n      0x20\n      mstore\n      0x40\n      swap1\n      keccak256\n      sload\n      0xff\n      and\n        /* \"SnipeFinanceMultisenders/SnipeFinanceMultisenders.sol\":1354:1382  !authorizedusers[msg.sender] */\n      iszero\n      dup1\n        /* \"SnipeFinanceMultisenders/SnipeFinanceMultisenders.sol\":1354:1431  !authorizedusers[msg.sender] || tokenaddress.balanceOf(msg.sender) < quantity */\n      tag_122\n      jumpi\n      pop\n        /* \"SnipeFinanceMultisenders/SnipeFinanceMultisenders.sol\":1423:1431  quantity */\n      sload(0x06)\n        /* \"SnipeFinanceMultisenders/SnipeFinanceMultisenders.sol\":1386:1398  tokenaddress */\n      sload(0x05)\n        /* \"SnipeFinanceMultisenders/SnipeFinanceMultisenders.sol\":1386:1420  tokenaddress.balanceOf(msg.sender) */\n      mload(0x40)\n      shl(0xe0, 0x70a08231)\n      dup2\n      mstore\n        /* \"SnipeFinanceMultisenders/SnipeFinanceMultisenders.sol\":1409:1419  msg.sender */\n      caller\n        /* \"SnipeFinanceMultisenders/SnipeFinanceMultisenders.sol\":1386:1420  tokenaddress.balanceOf(msg.sender) */\n      0x04\n      dup3\n      add\n        /* \"#utility.yul\":1146:1197   */\n      mstore\n      sub(shl(0xa0, 0x01), 0x01)\n        /* \"SnipeFinanceMultisenders/SnipeFinanceMultisenders.sol\":1386:1398  tokenaddress */\n      swap1\n      swap2\n      and\n      swap1\n        /* \"SnipeFinanceMultisenders/SnipeFinanceMultisenders.sol\":1386:1408  tokenaddress.balanceOf */\n      0x70a08231\n      swap1\n        /* \"#utility.yul\":1119:1137   */\n      0x24\n      add\n        /* \"SnipeFinanceMultisenders/SnipeFinanceMultisenders.sol\":1386:1420  tokenaddress.balanceOf(msg.sender) */\n      0x20\n      mload(0x40)\n      dup1\n      dup4\n      sub\n      dup2\n      dup7\n      gas\n      staticcall\n      iszero\n      dup1\n      iszero\n      tag_125\n      jumpi\n      returndatasize\n      0x00\n      dup1\n      returndatacopy\n      revert(0x00, returndatasize)\n    tag_125:\n      pop\n      pop\n      pop\n      pop\n      mload(0x40)\n      returndatasize\n      not(0x1f)\n      0x1f\n      dup3\n      add\n      and\n      dup3\n      add\n      dup1\n      0x40\n      mstore\n      pop\n      dup2\n      add\n      swap1\n      tag_126\n      swap2\n      swap1\n      tag_127\n      jump\t// in\n    tag_126:\n        /* \"SnipeFinanceMultisenders/SnipeFinanceMultisenders.sol\":1386:1431  tokenaddress.balanceOf(msg.sender) < quantity */\n      lt\n        /* \"SnipeFinanceMultisenders/SnipeFinanceMultisenders.sol\":1354:1431  !authorizedusers[msg.sender] || tokenaddress.balanceOf(msg.sender) < quantity */\n    tag_122:\n        /* \"SnipeFinanceMultisenders/SnipeFinanceMultisenders.sol\":1351:1633  if(!authorizedusers[msg.sender] || tokenaddress.balanceOf(msg.sender) < quantity) {... */\n      iszero\n      tag_128\n      jumpi\n        /* \"SnipeFinanceMultisenders/SnipeFinanceMultisenders.sol\":1470:1473  fee */\n      sload(0x01)\n        /* \"SnipeFinanceMultisenders/SnipeFinanceMultisenders.sol\":1457:1466  msg.value */\n      callvalue\n        /* \"SnipeFinanceMultisenders/SnipeFinanceMultisenders.sol\":1457:1473  msg.value >= fee */\n      lt\n      iszero\n        /* \"SnipeFinanceMultisenders/SnipeFinanceMultisenders.sol\":1448:1543  require (msg.value >= fee, \"You have to pay fee to use SnipeFinance Token Multi bulk function\") */\n      tag_129\n      jumpi\n      mload(0x40)\n      shl(0xe5, 0x461bcd)\n      dup2\n      mstore\n        /* \"#utility.yul\":6343:6345   */\n      0x20\n        /* \"SnipeFinanceMultisenders/SnipeFinanceMultisenders.sol\":1448:1543  require (msg.value >= fee, \"You have to pay fee to use SnipeFinance Token Multi bulk function\") */\n      0x04\n      dup3\n      add\n        /* \"#utility.yul\":6325:6346   */\n      mstore\n        /* \"#utility.yul\":6382:6384   */\n      0x41\n        /* \"#utility.yul\":6362:6380   */\n      0x24\n      dup3\n      add\n        /* \"#utility.yul\":6355:6385   */\n      mstore\n        /* \"#utility.yul\":6421:6455   */\n      0x596f75206861766520746f207061792066656520746f2075736520536e697065\n        /* \"#utility.yul\":6401:6419   */\n      0x44\n      dup3\n      add\n        /* \"#utility.yul\":6394:6456   */\n      mstore\n        /* \"#utility.yul\":6492:6526   */\n      0x46696e616e636520546f6b656e204d756c74692062756c6b2066756e6374696f\n        /* \"#utility.yul\":6472:6490   */\n      0x64\n      dup3\n      add\n        /* \"#utility.yul\":6465:6527   */\n      mstore\n      shl(0xf9, 0x37)\n        /* \"#utility.yul\":6543:6562   */\n      0x84\n      dup3\n      add\n        /* \"#utility.yul\":6536:6568   */\n      mstore\n        /* \"#utility.yul\":6585:6604   */\n      0xa4\n      add\n        /* \"SnipeFinanceMultisenders/SnipeFinanceMultisenders.sol\":1448:1543  require (msg.value >= fee, \"You have to pay fee to use SnipeFinance Token Multi bulk function\") */\n    tag_130:\n      mload(0x40)\n      dup1\n      swap2\n      sub\n      swap1\n      revert\n    tag_129:\n        /* \"SnipeFinanceMultisenders/SnipeFinanceMultisenders.sol\":1572:1575  fee */\n      sload(0x01)\n        /* \"SnipeFinanceMultisenders/SnipeFinanceMultisenders.sol\":1558:1568  feeamounts */\n      0x03\n      0x00\n        /* \"SnipeFinanceMultisenders/SnipeFinanceMultisenders.sol\":1558:1575  feeamounts += fee */\n      dup3\n      dup3\n      sload\n      tag_132\n      swap2\n      swap1\n      tag_133\n      jump\t// in\n    tag_132:\n      swap1\n      swap2\n      sstore\n      pop\n      pop\n        /* \"SnipeFinanceMultisenders/SnipeFinanceMultisenders.sol\":1598:1606  receiver */\n      sload(0x02)\n      0x01\n        /* \"SnipeFinanceMultisenders/SnipeFinanceMultisenders.sol\":1617:1620  fee */\n      sload\n        /* \"SnipeFinanceMultisenders/SnipeFinanceMultisenders.sol\":1590:1621  payable(receiver).transfer(fee) */\n      mload(0x40)\n      sub(shl(0xa0, 0x01), 0x01)\n        /* \"SnipeFinanceMultisenders/SnipeFinanceMultisenders.sol\":1598:1606  receiver */\n      swap1\n      swap3\n      and\n      swap2\n        /* \"SnipeFinanceMultisenders/SnipeFinanceMultisenders.sol\":1590:1621  payable(receiver).transfer(fee) */\n      dup2\n      iszero\n      0x08fc\n      mul\n      swap2\n        /* \"SnipeFinanceMultisenders/SnipeFinanceMultisenders.sol\":1617:1620  fee */\n      swap1\n        /* \"SnipeFinanceMultisenders/SnipeFinanceMultisenders.sol\":1598:1606  receiver */\n      0x00\n        /* \"SnipeFinanceMultisenders/SnipeFinanceMultisenders.sol\":1590:1621  payable(receiver).transfer(fee) */\n      dup2\n        /* \"SnipeFinanceMultisenders/SnipeFinanceMultisenders.sol\":1598:1606  receiver */\n      dup2\n        /* \"SnipeFinanceMultisenders/SnipeFinanceMultisenders.sol\":1590:1621  payable(receiver).transfer(fee) */\n      dup2\n        /* \"SnipeFinanceMultisenders/SnipeFinanceMultisenders.sol\":1617:1620  fee */\n      dup6\n        /* \"SnipeFinanceMultisenders/SnipeFinanceMultisenders.sol\":1598:1606  receiver */\n      dup9\n        /* \"SnipeFinanceMultisenders/SnipeFinanceMultisenders.sol\":1590:1621  payable(receiver).transfer(fee) */\n      dup9\n      call\n      swap4\n      pop\n      pop\n      pop\n      pop\n      iszero\n      dup1\n      iszero\n      tag_135\n      jumpi\n      returndatasize\n      0x00\n      dup1\n      returndatacopy\n      revert(0x00, returndatasize)\n    tag_135:\n      pop\n        /* \"SnipeFinanceMultisenders/SnipeFinanceMultisenders.sol\":1351:1633  if(!authorizedusers[msg.sender] || tokenaddress.balanceOf(msg.sender) < quantity) {... */\n    tag_128:\n        /* \"SnipeFinanceMultisenders/SnipeFinanceMultisenders.sol\":1643:1656  uint256 total */\n      0x00\n        /* \"SnipeFinanceMultisenders/SnipeFinanceMultisenders.sol\":1676:1685  uint256 i */\n      dup1\n        /* \"SnipeFinanceMultisenders/SnipeFinanceMultisenders.sol\":1671:1750  for (uint256 i = 0; i < recipients.length; i++)... */\n    tag_136:\n        /* \"SnipeFinanceMultisenders/SnipeFinanceMultisenders.sol\":1695:1705  recipients */\n      dup4\n        /* \"SnipeFinanceMultisenders/SnipeFinanceMultisenders.sol\":1695:1712  recipients.length */\n      mload\n        /* \"SnipeFinanceMultisenders/SnipeFinanceMultisenders.sol\":1691:1692  i */\n      dup2\n        /* \"SnipeFinanceMultisenders/SnipeFinanceMultisenders.sol\":1691:1712  i < recipients.length */\n      lt\n        /* \"SnipeFinanceMultisenders/SnipeFinanceMultisenders.sol\":1671:1750  for (uint256 i = 0; i < recipients.length; i++)... */\n      iszero\n      tag_137\n      jumpi\n        /* \"SnipeFinanceMultisenders/SnipeFinanceMultisenders.sol\":1741:1747  values */\n      dup3\n        /* \"SnipeFinanceMultisenders/SnipeFinanceMultisenders.sol\":1748:1749  i */\n      dup2\n        /* \"SnipeFinanceMultisenders/SnipeFinanceMultisenders.sol\":1741:1750  values[i] */\n      dup2\n      mload\n      dup2\n      lt\n      tag_140\n      jumpi\n      tag_140\n      tag_141\n      jump\t// in\n    tag_140:\n      0x20\n      mul\n      0x20\n      add\n      add\n      mload\n        /* \"SnipeFinanceMultisenders/SnipeFinanceMultisenders.sol\":1732:1750  total += values[i] */\n      dup3\n      tag_142\n      swap2\n      swap1\n      tag_133\n      jump\t// in\n    tag_142:\n      swap2\n      pop\n        /* \"SnipeFinanceMultisenders/SnipeFinanceMultisenders.sol\":1714:1717  i++ */\n      dup1\n      tag_143\n      dup2\n      tag_144\n      jump\t// in\n    tag_143:\n      swap2\n      pop\n      pop\n        /* \"SnipeFinanceMultisenders/SnipeFinanceMultisenders.sol\":1671:1750  for (uint256 i = 0; i < recipients.length; i++)... */\n      jump(tag_136)\n    tag_137:\n      pop\n        /* \"SnipeFinanceMultisenders/SnipeFinanceMultisenders.sol\":1769:1821  token.transferFrom(msg.sender, address(this), total) */\n      mload(0x40)\n      shl(0xe0, 0x23b872dd)\n      dup2\n      mstore\n        /* \"SnipeFinanceMultisenders/SnipeFinanceMultisenders.sol\":1788:1798  msg.sender */\n      caller\n        /* \"SnipeFinanceMultisenders/SnipeFinanceMultisenders.sol\":1769:1821  token.transferFrom(msg.sender, address(this), total) */\n      0x04\n      dup3\n      add\n        /* \"#utility.yul\":7389:7423   */\n      mstore\n        /* \"SnipeFinanceMultisenders/SnipeFinanceMultisenders.sol\":1808:1812  this */\n      address\n        /* \"#utility.yul\":7439:7457   */\n      0x24\n      dup3\n      add\n        /* \"#utility.yul\":7432:7475   */\n      mstore\n        /* \"#utility.yul\":7491:7509   */\n      0x44\n      dup2\n      add\n        /* \"#utility.yul\":7484:7518   */\n      dup3\n      swap1\n      mstore\n      sub(shl(0xa0, 0x01), 0x01)\n        /* \"SnipeFinanceMultisenders/SnipeFinanceMultisenders.sol\":1769:1787  token.transferFrom */\n      dup6\n      and\n      swap1\n      0x23b872dd\n      swap1\n        /* \"#utility.yul\":7324:7342   */\n      0x64\n      add\n        /* \"SnipeFinanceMultisenders/SnipeFinanceMultisenders.sol\":1769:1821  token.transferFrom(msg.sender, address(this), total) */\n      0x20\n      mload(0x40)\n      dup1\n      dup4\n      sub\n      dup2\n      0x00\n      dup8\n      gas\n      call\n      iszero\n      dup1\n      iszero\n      tag_148\n      jumpi\n      returndatasize\n      0x00\n      dup1\n      returndatacopy\n      revert(0x00, returndatasize)\n    tag_148:\n      pop\n      pop\n      pop\n      pop\n      mload(0x40)\n      returndatasize\n      not(0x1f)\n      0x1f\n      dup3\n      add\n      and\n      dup3\n      add\n      dup1\n      0x40\n      mstore\n      pop\n      dup2\n      add\n      swap1\n      tag_149\n      swap2\n      swap1\n      tag_150\n      jump\t// in\n    tag_149:\n        /* \"SnipeFinanceMultisenders/SnipeFinanceMultisenders.sol\":1761:1822  require(token.transferFrom(msg.sender, address(this), total)) */\n      tag_151\n      jumpi\n      0x00\n      dup1\n      revert\n    tag_151:\n        /* \"SnipeFinanceMultisenders/SnipeFinanceMultisenders.sol\":1838:1847  uint256 i */\n      0x00\n        /* \"SnipeFinanceMultisenders/SnipeFinanceMultisenders.sol\":1833:1943  for (uint256 i = 0; i < recipients.length; i++)... */\n    tag_152:\n        /* \"SnipeFinanceMultisenders/SnipeFinanceMultisenders.sol\":1857:1867  recipients */\n      dup4\n        /* \"SnipeFinanceMultisenders/SnipeFinanceMultisenders.sol\":1857:1874  recipients.length */\n      mload\n        /* \"SnipeFinanceMultisenders/SnipeFinanceMultisenders.sol\":1853:1854  i */\n      dup2\n        /* \"SnipeFinanceMultisenders/SnipeFinanceMultisenders.sol\":1853:1874  i < recipients.length */\n      lt\n        /* \"SnipeFinanceMultisenders/SnipeFinanceMultisenders.sol\":1833:1943  for (uint256 i = 0; i < recipients.length; i++)... */\n      iszero\n      tag_153\n      jumpi\n        /* \"SnipeFinanceMultisenders/SnipeFinanceMultisenders.sol\":1902:1907  token */\n      dup5\n      sub(shl(0xa0, 0x01), 0x01)\n        /* \"SnipeFinanceMultisenders/SnipeFinanceMultisenders.sol\":1902:1916  token.transfer */\n      and\n      0xa9059cbb\n        /* \"SnipeFinanceMultisenders/SnipeFinanceMultisenders.sol\":1917:1927  recipients */\n      dup6\n        /* \"SnipeFinanceMultisenders/SnipeFinanceMultisenders.sol\":1928:1929  i */\n      dup4\n        /* \"SnipeFinanceMultisenders/SnipeFinanceMultisenders.sol\":1917:1930  recipients[i] */\n      dup2\n      mload\n      dup2\n      lt\n      tag_156\n      jumpi\n      tag_156\n      tag_141\n      jump\t// in\n    tag_156:\n      0x20\n      mul\n      0x20\n      add\n      add\n      mload\n        /* \"SnipeFinanceMultisenders/SnipeFinanceMultisenders.sol\":1932:1938  values */\n      dup6\n        /* \"SnipeFinanceMultisenders/SnipeFinanceMultisenders.sol\":1939:1940  i */\n      dup5\n        /* \"SnipeFinanceMultisenders/SnipeFinanceMultisenders.sol\":1932:1941  values[i] */\n      dup2\n      mload\n      dup2\n      lt\n      tag_158\n      jumpi\n      tag_158\n      tag_141\n      jump\t// in\n    tag_158:\n      0x20\n      mul\n      0x20\n      add\n      add\n      mload\n        /* \"SnipeFinanceMultisenders/SnipeFinanceMultisenders.sol\":1902:1942  token.transfer(recipients[i], values[i]) */\n      mload(0x40)\n      dup4\n      0xffffffff\n      and\n      0xe0\n      shl\n      dup2\n      mstore\n      0x04\n      add\n      tag_159\n      swap3\n      swap2\n      swap1\n      sub(shl(0xa0, 0x01), 0x01)\n        /* \"#utility.yul\":7971:8003   */\n      swap3\n      swap1\n      swap3\n      and\n        /* \"#utility.yul\":7953:8004   */\n      dup3\n      mstore\n        /* \"#utility.yul\":8035:8037   */\n      0x20\n        /* \"#utility.yul\":8020:8038   */\n      dup3\n      add\n        /* \"#utility.yul\":8013:8047   */\n      mstore\n        /* \"#utility.yul\":7941:7943   */\n      0x40\n        /* \"#utility.yul\":7926:7944   */\n      add\n      swap1\n        /* \"#utility.yul\":7779:8053   */\n      jump\n        /* \"SnipeFinanceMultisenders/SnipeFinanceMultisenders.sol\":1902:1942  token.transfer(recipients[i], values[i]) */\n    tag_159:\n      0x20\n      mload(0x40)\n      dup1\n      dup4\n      sub\n      dup2\n      0x00\n      dup8\n      gas\n      call\n      iszero\n      dup1\n      iszero\n      tag_162\n      jumpi\n      returndatasize\n      0x00\n      dup1\n      returndatacopy\n      revert(0x00, returndatasize)\n    tag_162:\n      pop\n      pop\n      pop\n      pop\n      mload(0x40)\n      returndatasize\n      not(0x1f)\n      0x1f\n      dup3\n      add\n      and\n      dup3\n      add\n      dup1\n      0x40\n      mstore\n      pop\n      dup2\n      add\n      swap1\n      tag_163\n      swap2\n      swap1\n      tag_150\n      jump\t// in\n    tag_163:\n        /* \"SnipeFinanceMultisenders/SnipeFinanceMultisenders.sol\":1894:1943  require(token.transfer(recipients[i], values[i])) */\n      tag_164\n      jumpi\n      0x00\n      dup1\n      revert\n    tag_164:\n        /* \"SnipeFinanceMultisenders/SnipeFinanceMultisenders.sol\":1876:1879  i++ */\n      dup1\n      tag_165\n      dup2\n      tag_144\n      jump\t// in\n    tag_165:\n      swap2\n      pop\n      pop\n        /* \"SnipeFinanceMultisenders/SnipeFinanceMultisenders.sol\":1833:1943  for (uint256 i = 0; i < recipients.length; i++)... */\n      jump(tag_152)\n    tag_153:\n      pop\n        /* \"SnipeFinanceMultisenders/SnipeFinanceMultisenders.sol\":1340:1951  {... */\n      pop\n        /* \"SnipeFinanceMultisenders/SnipeFinanceMultisenders.sol\":1229:1951  function TOKENmultisender(IBEP20 token, address[] memory recipients, uint256[] memory values) external payable {... */\n      pop\n      pop\n      pop\n      jump\t// out\n        /* \"SnipeFinanceMultisenders/SnipeFinanceMultisenders.sol\":582:1217  function BNBmultisender(address[] memory recipients, uint256[] memory values) external payable {... */\n    tag_84:\n        /* \"SnipeFinanceMultisenders/SnipeFinanceMultisenders.sol\":708:718  msg.sender */\n      caller\n        /* \"SnipeFinanceMultisenders/SnipeFinanceMultisenders.sol\":692:719  authorizedusers[msg.sender] */\n      0x00\n      swap1\n      dup2\n      mstore\n        /* \"SnipeFinanceMultisenders/SnipeFinanceMultisenders.sol\":692:707  authorizedusers */\n      0x04\n        /* \"SnipeFinanceMultisenders/SnipeFinanceMultisenders.sol\":692:719  authorizedusers[msg.sender] */\n      0x20\n      mstore\n      0x40\n      swap1\n      keccak256\n      sload\n      0xff\n      and\n        /* \"SnipeFinanceMultisenders/SnipeFinanceMultisenders.sol\":691:719  !authorizedusers[msg.sender] */\n      iszero\n      dup1\n        /* \"SnipeFinanceMultisenders/SnipeFinanceMultisenders.sol\":691:768  !authorizedusers[msg.sender] || tokenaddress.balanceOf(msg.sender) < quantity */\n      tag_168\n      jumpi\n      pop\n        /* \"SnipeFinanceMultisenders/SnipeFinanceMultisenders.sol\":760:768  quantity */\n      sload(0x06)\n        /* \"SnipeFinanceMultisenders/SnipeFinanceMultisenders.sol\":723:735  tokenaddress */\n      sload(0x05)\n        /* \"SnipeFinanceMultisenders/SnipeFinanceMultisenders.sol\":723:757  tokenaddress.balanceOf(msg.sender) */\n      mload(0x40)\n      shl(0xe0, 0x70a08231)\n      dup2\n      mstore\n        /* \"SnipeFinanceMultisenders/SnipeFinanceMultisenders.sol\":746:756  msg.sender */\n      caller\n        /* \"SnipeFinanceMultisenders/SnipeFinanceMultisenders.sol\":723:757  tokenaddress.balanceOf(msg.sender) */\n      0x04\n      dup3\n      add\n        /* \"#utility.yul\":1146:1197   */\n      mstore\n      sub(shl(0xa0, 0x01), 0x01)\n        /* \"SnipeFinanceMultisenders/SnipeFinanceMultisenders.sol\":723:735  tokenaddress */\n      swap1\n      swap2\n      and\n      swap1\n        /* \"SnipeFinanceMultisenders/SnipeFinanceMultisenders.sol\":723:745  tokenaddress.balanceOf */\n      0x70a08231\n      swap1\n        /* \"#utility.yul\":1119:1137   */\n      0x24\n      add\n        /* \"SnipeFinanceMultisenders/SnipeFinanceMultisenders.sol\":723:757  tokenaddress.balanceOf(msg.sender) */\n      0x20\n      mload(0x40)\n      dup1\n      dup4\n      sub\n      dup2\n      dup7\n      gas\n      staticcall\n      iszero\n      dup1\n      iszero\n      tag_171\n      jumpi\n      returndatasize\n      0x00\n      dup1\n      returndatacopy\n      revert(0x00, returndatasize)\n    tag_171:\n      pop\n      pop\n      pop\n      pop\n      mload(0x40)\n      returndatasize\n      not(0x1f)\n      0x1f\n      dup3\n      add\n      and\n      dup3\n      add\n      dup1\n      0x40\n      mstore\n      pop\n      dup2\n      add\n      swap1\n      tag_172\n      swap2\n      swap1\n      tag_127\n      jump\t// in\n    tag_172:\n        /* \"SnipeFinanceMultisenders/SnipeFinanceMultisenders.sol\":723:768  tokenaddress.balanceOf(msg.sender) < quantity */\n      lt\n        /* \"SnipeFinanceMultisenders/SnipeFinanceMultisenders.sol\":691:768  !authorizedusers[msg.sender] || tokenaddress.balanceOf(msg.sender) < quantity */\n    tag_168:\n        /* \"SnipeFinanceMultisenders/SnipeFinanceMultisenders.sol\":688:956  if(!authorizedusers[msg.sender] || tokenaddress.balanceOf(msg.sender) < quantity ) {... */\n      iszero\n      tag_173\n      jumpi\n        /* \"SnipeFinanceMultisenders/SnipeFinanceMultisenders.sol\":808:811  fee */\n      sload(0x01)\n        /* \"SnipeFinanceMultisenders/SnipeFinanceMultisenders.sol\":795:804  msg.value */\n      callvalue\n        /* \"SnipeFinanceMultisenders/SnipeFinanceMultisenders.sol\":795:811  msg.value >= fee */\n      lt\n      iszero\n        /* \"SnipeFinanceMultisenders/SnipeFinanceMultisenders.sol\":786:875  require (msg.value >= fee, \"You have to pay fee to use SnipeFinance Multi bulk function\") */\n      tag_174\n      jumpi\n      mload(0x40)\n      shl(0xe5, 0x461bcd)\n      dup2\n      mstore\n        /* \"#utility.yul\":8260:8262   */\n      0x20\n        /* \"SnipeFinanceMultisenders/SnipeFinanceMultisenders.sol\":786:875  require (msg.value >= fee, \"You have to pay fee to use SnipeFinance Multi bulk function\") */\n      0x04\n      dup3\n      add\n        /* \"#utility.yul\":8242:8263   */\n      mstore\n        /* \"#utility.yul\":8299:8301   */\n      0x3b\n        /* \"#utility.yul\":8279:8297   */\n      0x24\n      dup3\n      add\n        /* \"#utility.yul\":8272:8302   */\n      mstore\n        /* \"#utility.yul\":8338:8372   */\n      0x596f75206861766520746f207061792066656520746f2075736520536e697065\n        /* \"#utility.yul\":8318:8336   */\n      0x44\n      dup3\n      add\n        /* \"#utility.yul\":8311:8373   */\n      mstore\n        /* \"#utility.yul\":8409:8438   */\n      0x46696e616e6365204d756c74692062756c6b2066756e6374696f6e0000000000\n        /* \"#utility.yul\":8389:8407   */\n      0x64\n      dup3\n      add\n        /* \"#utility.yul\":8382:8439   */\n      mstore\n        /* \"#utility.yul\":8456:8475   */\n      0x84\n      add\n        /* \"SnipeFinanceMultisenders/SnipeFinanceMultisenders.sol\":786:875  require (msg.value >= fee, \"You have to pay fee to use SnipeFinance Multi bulk function\") */\n      tag_130\n        /* \"#utility.yul\":8058:8481   */\n      jump\n        /* \"SnipeFinanceMultisenders/SnipeFinanceMultisenders.sol\":786:875  require (msg.value >= fee, \"You have to pay fee to use SnipeFinance Multi bulk function\") */\n    tag_174:\n        /* \"SnipeFinanceMultisenders/SnipeFinanceMultisenders.sol\":904:907  fee */\n      sload(0x01)\n        /* \"SnipeFinanceMultisenders/SnipeFinanceMultisenders.sol\":890:900  feeamounts */\n      0x03\n      0x00\n        /* \"SnipeFinanceMultisenders/SnipeFinanceMultisenders.sol\":890:907  feeamounts += fee */\n      dup3\n      dup3\n      sload\n      tag_177\n      swap2\n      swap1\n      tag_133\n      jump\t// in\n    tag_177:\n      swap1\n      swap2\n      sstore\n      pop\n      pop\n        /* \"SnipeFinanceMultisenders/SnipeFinanceMultisenders.sol\":922:930  receiver */\n      sload(0x02)\n      0x01\n        /* \"SnipeFinanceMultisenders/SnipeFinanceMultisenders.sol\":940:943  fee */\n      sload\n        /* \"SnipeFinanceMultisenders/SnipeFinanceMultisenders.sol\":922:944  receiver.transfer(fee) */\n      mload(0x40)\n      sub(shl(0xa0, 0x01), 0x01)\n        /* \"SnipeFinanceMultisenders/SnipeFinanceMultisenders.sol\":922:930  receiver */\n      swap1\n      swap3\n      and\n      swap2\n        /* \"SnipeFinanceMultisenders/SnipeFinanceMultisenders.sol\":922:944  receiver.transfer(fee) */\n      dup2\n      iszero\n      0x08fc\n      mul\n      swap2\n        /* \"SnipeFinanceMultisenders/SnipeFinanceMultisenders.sol\":940:943  fee */\n      swap1\n        /* \"SnipeFinanceMultisenders/SnipeFinanceMultisenders.sol\":922:930  receiver */\n      0x00\n        /* \"SnipeFinanceMultisenders/SnipeFinanceMultisenders.sol\":922:944  receiver.transfer(fee) */\n      dup2\n        /* \"SnipeFinanceMultisenders/SnipeFinanceMultisenders.sol\":922:930  receiver */\n      dup2\n        /* \"SnipeFinanceMultisenders/SnipeFinanceMultisenders.sol\":922:944  receiver.transfer(fee) */\n      dup2\n        /* \"SnipeFinanceMultisenders/SnipeFinanceMultisenders.sol\":940:943  fee */\n      dup6\n        /* \"SnipeFinanceMultisenders/SnipeFinanceMultisenders.sol\":922:930  receiver */\n      dup9\n        /* \"SnipeFinanceMultisenders/SnipeFinanceMultisenders.sol\":922:944  receiver.transfer(fee) */\n      dup9\n      call\n      swap4\n      pop\n      pop\n      pop\n      pop\n      iszero\n      dup1\n      iszero\n      tag_179\n      jumpi\n      returndatasize\n      0x00\n      dup1\n      returndatacopy\n      revert(0x00, returndatasize)\n    tag_179:\n      pop\n        /* \"SnipeFinanceMultisenders/SnipeFinanceMultisenders.sol\":688:956  if(!authorizedusers[msg.sender] || tokenaddress.balanceOf(msg.sender) < quantity ) {... */\n    tag_173:\n        /* \"SnipeFinanceMultisenders/SnipeFinanceMultisenders.sol\":971:980  uint256 i */\n      0x00\n        /* \"SnipeFinanceMultisenders/SnipeFinanceMultisenders.sol\":966:1069  for (uint256 i = 0; i < recipients.length; i++)... */\n    tag_180:\n        /* \"SnipeFinanceMultisenders/SnipeFinanceMultisenders.sol\":990:1000  recipients */\n      dup3\n        /* \"SnipeFinanceMultisenders/SnipeFinanceMultisenders.sol\":990:1007  recipients.length */\n      mload\n        /* \"SnipeFinanceMultisenders/SnipeFinanceMultisenders.sol\":986:987  i */\n      dup2\n        /* \"SnipeFinanceMultisenders/SnipeFinanceMultisenders.sol\":986:1007  i < recipients.length */\n      lt\n        /* \"SnipeFinanceMultisenders/SnipeFinanceMultisenders.sol\":966:1069  for (uint256 i = 0; i < recipients.length; i++)... */\n      iszero\n      tag_181\n      jumpi\n        /* \"SnipeFinanceMultisenders/SnipeFinanceMultisenders.sol\":1035:1045  recipients */\n      dup3\n        /* \"SnipeFinanceMultisenders/SnipeFinanceMultisenders.sol\":1046:1047  i */\n      dup2\n        /* \"SnipeFinanceMultisenders/SnipeFinanceMultisenders.sol\":1035:1048  recipients[i] */\n      dup2\n      mload\n      dup2\n      lt\n      tag_184\n      jumpi\n      tag_184\n      tag_141\n      jump\t// in\n    tag_184:\n      0x20\n      mul\n      0x20\n      add\n      add\n      mload\n      sub(shl(0xa0, 0x01), 0x01)\n        /* \"SnipeFinanceMultisenders/SnipeFinanceMultisenders.sol\":1027:1058  payable(recipients[i]).transfer */\n      and\n        /* \"SnipeFinanceMultisenders/SnipeFinanceMultisenders.sol\":1027:1069  payable(recipients[i]).transfer(values[i]) */\n      0x08fc\n        /* \"SnipeFinanceMultisenders/SnipeFinanceMultisenders.sol\":1059:1065  values */\n      dup4\n        /* \"SnipeFinanceMultisenders/SnipeFinanceMultisenders.sol\":1066:1067  i */\n      dup4\n        /* \"SnipeFinanceMultisenders/SnipeFinanceMultisenders.sol\":1059:1068  values[i] */\n      dup2\n      mload\n      dup2\n      lt\n      tag_186\n      jumpi\n      tag_186\n      tag_141\n      jump\t// in\n    tag_186:\n      0x20\n      mul\n      0x20\n      add\n      add\n      mload\n        /* \"SnipeFinanceMultisenders/SnipeFinanceMultisenders.sol\":1027:1069  payable(recipients[i]).transfer(values[i]) */\n      swap1\n      dup2\n      iszero\n      mul\n      swap1\n      mload(0x40)\n      0x00\n      mload(0x40)\n      dup1\n      dup4\n      sub\n      dup2\n      dup6\n      dup9\n      dup9\n      call\n      swap4\n      pop\n      pop\n      pop\n      pop\n      iszero\n      dup1\n      iszero\n      tag_188\n      jumpi\n      returndatasize\n      0x00\n      dup1\n      returndatacopy\n      revert(0x00, returndatasize)\n    tag_188:\n      pop\n        /* \"SnipeFinanceMultisenders/SnipeFinanceMultisenders.sol\":1009:1012  i++ */\n      dup1\n      tag_189\n      dup2\n      tag_144\n      jump\t// in\n    tag_189:\n      swap2\n      pop\n      pop\n        /* \"SnipeFinanceMultisenders/SnipeFinanceMultisenders.sol\":966:1069  for (uint256 i = 0; i < recipients.length; i++)... */\n      jump(tag_180)\n    tag_181:\n      pop\n        /* \"SnipeFinanceMultisenders/SnipeFinanceMultisenders.sol\":1104:1125  address(this).balance */\n      selfbalance\n        /* \"SnipeFinanceMultisenders/SnipeFinanceMultisenders.sol\":1146:1157  balance > 0 */\n      dup1\n      iszero\n        /* \"SnipeFinanceMultisenders/SnipeFinanceMultisenders.sol\":1142:1209  if (balance > 0)... */\n      tag_190\n      jumpi\n        /* \"SnipeFinanceMultisenders/SnipeFinanceMultisenders.sol\":1172:1209  payable(msg.sender).transfer(balance) */\n      mload(0x40)\n        /* \"SnipeFinanceMultisenders/SnipeFinanceMultisenders.sol\":1180:1190  msg.sender */\n      caller\n      swap1\n        /* \"SnipeFinanceMultisenders/SnipeFinanceMultisenders.sol\":1172:1209  payable(msg.sender).transfer(balance) */\n      dup3\n      iszero\n      0x08fc\n      mul\n      swap1\n        /* \"SnipeFinanceMultisenders/SnipeFinanceMultisenders.sol\":1201:1208  balance */\n      dup4\n      swap1\n        /* \"SnipeFinanceMultisenders/SnipeFinanceMultisenders.sol\":1172:1209  payable(msg.sender).transfer(balance) */\n      0x00\n      dup2\n      dup2\n      dup2\n        /* \"SnipeFinanceMultisenders/SnipeFinanceMultisenders.sol\":1201:1208  balance */\n      dup6\n        /* \"SnipeFinanceMultisenders/SnipeFinanceMultisenders.sol\":1180:1190  msg.sender */\n      dup9\n        /* \"SnipeFinanceMultisenders/SnipeFinanceMultisenders.sol\":1172:1209  payable(msg.sender).transfer(balance) */\n      dup9\n      call\n      swap4\n      pop\n      pop\n      pop\n      pop\n      iszero\n      dup1\n      iszero\n      tag_192\n      jumpi\n      returndatasize\n      0x00\n      dup1\n      returndatacopy\n      revert(0x00, returndatasize)\n    tag_192:\n      pop\n        /* \"SnipeFinanceMultisenders/SnipeFinanceMultisenders.sol\":1142:1209  if (balance > 0)... */\n    tag_190:\n        /* \"SnipeFinanceMultisenders/SnipeFinanceMultisenders.sol\":677:1217  {... */\n      pop\n        /* \"SnipeFinanceMultisenders/SnipeFinanceMultisenders.sol\":582:1217  function BNBmultisender(address[] memory recipients, uint256[] memory values) external payable {... */\n      pop\n      pop\n      jump\t// out\n        /* \"@openzeppelin/contracts/access/Ownable.sol\":2081:2279  function transferOwnership(address newOwner) public virtual onlyOwner {... */\n    tag_88:\n        /* \"@openzeppelin/contracts/access/Ownable.sol\":1094:1107  _checkOwner() */\n      tag_194\n        /* \"@openzeppelin/contracts/access/Ownable.sol\":1094:1105  _checkOwner */\n      tag_101\n        /* \"@openzeppelin/contracts/access/Ownable.sol\":1094:1107  _checkOwner() */\n      jump\t// in\n    tag_194:\n      sub(shl(0xa0, 0x01), 0x01)\n        /* \"@openzeppelin/contracts/access/Ownable.sol\":2169:2191  newOwner != address(0) */\n      dup2\n      and\n        /* \"@openzeppelin/contracts/access/Ownable.sol\":2161:2234  require(newOwner != address(0), \"Ownable: new owner is the zero address\") */\n      tag_196\n      jumpi\n      mload(0x40)\n      shl(0xe5, 0x461bcd)\n      dup2\n      mstore\n        /* \"#utility.yul\":8688:8690   */\n      0x20\n        /* \"@openzeppelin/contracts/access/Ownable.sol\":2161:2234  require(newOwner != address(0), \"Ownable: new owner is the zero address\") */\n      0x04\n      dup3\n      add\n        /* \"#utility.yul\":8670:8691   */\n      mstore\n        /* \"#utility.yul\":8727:8729   */\n      0x26\n        /* \"#utility.yul\":8707:8725   */\n      0x24\n      dup3\n      add\n        /* \"#utility.yul\":8700:8730   */\n      mstore\n        /* \"#utility.yul\":8766:8800   */\n      0x4f776e61626c653a206e6577206f776e657220697320746865207a65726f2061\n        /* \"#utility.yul\":8746:8764   */\n      0x44\n      dup3\n      add\n        /* \"#utility.yul\":8739:8801   */\n      mstore\n      shl(0xd0, 0x646472657373)\n        /* \"#utility.yul\":8817:8835   */\n      0x64\n      dup3\n      add\n        /* \"#utility.yul\":8810:8846   */\n      mstore\n        /* \"#utility.yul\":8863:8882   */\n      0x84\n      add\n        /* \"@openzeppelin/contracts/access/Ownable.sol\":2161:2234  require(newOwner != address(0), \"Ownable: new owner is the zero address\") */\n      tag_130\n        /* \"#utility.yul\":8486:8888   */\n      jump\n        /* \"@openzeppelin/contracts/access/Ownable.sol\":2161:2234  require(newOwner != address(0), \"Ownable: new owner is the zero address\") */\n    tag_196:\n        /* \"@openzeppelin/contracts/access/Ownable.sol\":2244:2272  _transferOwnership(newOwner) */\n      tag_111\n        /* \"@openzeppelin/contracts/access/Ownable.sol\":2263:2271  newOwner */\n      dup2\n        /* \"@openzeppelin/contracts/access/Ownable.sol\":2244:2262  _transferOwnership */\n      tag_119\n        /* \"@openzeppelin/contracts/access/Ownable.sol\":2244:2272  _transferOwnership(newOwner) */\n      jump\t// in\n        /* \"SnipeFinanceMultisenders/SnipeFinanceMultisenders.sol\":2567:2734  function setauthor(address _addr, bool _bool) onlyOwner external {... */\n    tag_98:\n        /* \"@openzeppelin/contracts/access/Ownable.sol\":1094:1107  _checkOwner() */\n      tag_201\n        /* \"@openzeppelin/contracts/access/Ownable.sol\":1094:1105  _checkOwner */\n      tag_101\n        /* \"@openzeppelin/contracts/access/Ownable.sol\":1094:1107  _checkOwner() */\n      jump\t// in\n    tag_201:\n      sub(shl(0xa0, 0x01), 0x01)\n        /* \"SnipeFinanceMultisenders/SnipeFinanceMultisenders.sol\":2646:2668  authorizedusers[_addr] */\n      dup3\n      and\n      0x00\n      swap1\n      dup2\n      mstore\n        /* \"SnipeFinanceMultisenders/SnipeFinanceMultisenders.sol\":2646:2661  authorizedusers */\n      0x04\n        /* \"SnipeFinanceMultisenders/SnipeFinanceMultisenders.sol\":2646:2668  authorizedusers[_addr] */\n      0x20\n      mstore\n      0x40\n      swap1\n      keccak256\n      sload\n      0xff\n      and\n        /* \"SnipeFinanceMultisenders/SnipeFinanceMultisenders.sol\":2643:2727  if(authorizedusers[_addr]) {... */\n      iszero\n      tag_203\n      jumpi\n      sub(shl(0xa0, 0x01), 0x01)\n        /* \"SnipeFinanceMultisenders/SnipeFinanceMultisenders.sol\":2685:2707  authorizedusers[_addr] */\n      dup3\n      and\n      0x00\n      swap1\n      dup2\n      mstore\n        /* \"SnipeFinanceMultisenders/SnipeFinanceMultisenders.sol\":2685:2700  authorizedusers */\n      0x04\n        /* \"SnipeFinanceMultisenders/SnipeFinanceMultisenders.sol\":2685:2707  authorizedusers[_addr] */\n      0x20\n      mstore\n      0x40\n      swap1\n      keccak256\n        /* \"SnipeFinanceMultisenders/SnipeFinanceMultisenders.sol\":2685:2715  authorizedusers[_addr] = _bool */\n      dup1\n      sload\n      not(0xff)\n      and\n      dup3\n      iszero\n      iszero\n      or\n      swap1\n      sstore\n        /* \"SnipeFinanceMultisenders/SnipeFinanceMultisenders.sol\":2643:2727  if(authorizedusers[_addr]) {... */\n    tag_203:\n        /* \"SnipeFinanceMultisenders/SnipeFinanceMultisenders.sol\":2567:2734  function setauthor(address _addr, bool _bool) onlyOwner external {... */\n      pop\n      pop\n      jump\t// out\n        /* \"@openzeppelin/contracts/access/Ownable.sol\":1359:1489  function _checkOwner() internal view virtual {... */\n    tag_101:\n        /* \"@openzeppelin/contracts/access/Ownable.sol\":1247:1254  address */\n      0x00\n        /* \"@openzeppelin/contracts/access/Ownable.sol\":1273:1279  _owner */\n      sload\n      sub(shl(0xa0, 0x01), 0x01)\n      and\n        /* \"@openzeppelin/contracts/utils/Context.sol\":719:729  msg.sender */\n      caller\n        /* \"@openzeppelin/contracts/access/Ownable.sol\":1422:1445  owner() == _msgSender() */\n      eq\n        /* \"@openzeppelin/contracts/access/Ownable.sol\":1414:1482  require(owner() == _msgSender(), \"Ownable: caller is not the owner\") */\n      tag_109\n      jumpi\n      mload(0x40)\n      shl(0xe5, 0x461bcd)\n      dup2\n      mstore\n        /* \"#utility.yul\":9095:9097   */\n      0x20\n        /* \"@openzeppelin/contracts/access/Ownable.sol\":1414:1482  require(owner() == _msgSender(), \"Ownable: caller is not the owner\") */\n      0x04\n      dup3\n      add\n        /* \"#utility.yul\":9077:9098   */\n      dup2\n      swap1\n      mstore\n        /* \"#utility.yul\":9114:9132   */\n      0x24\n      dup3\n      add\n        /* \"#utility.yul\":9107:9137   */\n      mstore\n        /* \"#utility.yul\":9173:9207   */\n      0x4f776e61626c653a2063616c6c6572206973206e6f7420746865206f776e6572\n        /* \"#utility.yul\":9153:9171   */\n      0x44\n      dup3\n      add\n        /* \"#utility.yul\":9146:9208   */\n      mstore\n        /* \"#utility.yul\":9225:9243   */\n      0x64\n      add\n        /* \"@openzeppelin/contracts/access/Ownable.sol\":1414:1482  require(owner() == _msgSender(), \"Ownable: caller is not the owner\") */\n      tag_130\n        /* \"#utility.yul\":8893:9249   */\n      jump\n        /* \"@openzeppelin/contracts/access/Ownable.sol\":2433:2620  function _transferOwnership(address newOwner) internal virtual {... */\n    tag_119:\n        /* \"@openzeppelin/contracts/access/Ownable.sol\":2506:2522  address oldOwner */\n      0x00\n        /* \"@openzeppelin/contracts/access/Ownable.sol\":2525:2531  _owner */\n      dup1\n      sload\n      sub(shl(0xa0, 0x01), 0x01)\n        /* \"@openzeppelin/contracts/access/Ownable.sol\":2541:2558  _owner = newOwner */\n      dup4\n      dup2\n      and\n      not(sub(shl(0xa0, 0x01), 0x01))\n      dup4\n      and\n      dup2\n      or\n      dup5\n      sstore\n        /* \"@openzeppelin/contracts/access/Ownable.sol\":2573:2613  OwnershipTransferred(oldOwner, newOwner) */\n      mload(0x40)\n        /* \"@openzeppelin/contracts/access/Ownable.sol\":2525:2531  _owner */\n      swap2\n      swap1\n      swap3\n      and\n      swap3\n      dup4\n      swap2\n        /* \"@openzeppelin/contracts/access/Ownable.sol\":2573:2613  OwnershipTransferred(oldOwner, newOwner) */\n      0x8be0079c531659141344cd1fd0a4f28419497f9722a3daafe3b4186f6b6457e0\n      swap2\n        /* \"@openzeppelin/contracts/access/Ownable.sol\":2506:2522  address oldOwner */\n      swap1\n        /* \"@openzeppelin/contracts/access/Ownable.sol\":2573:2613  OwnershipTransferred(oldOwner, newOwner) */\n      log3\n        /* \"@openzeppelin/contracts/access/Ownable.sol\":2496:2620  {... */\n      pop\n        /* \"@openzeppelin/contracts/access/Ownable.sol\":2433:2620  function _transferOwnership(address newOwner) internal virtual {... */\n      pop\n      jump\t// out\n        /* \"#utility.yul\":14:145   */\n    tag_213:\n      sub(shl(0xa0, 0x01), 0x01)\n        /* \"#utility.yul\":89:120   */\n      dup2\n      and\n        /* \"#utility.yul\":79:121   */\n      dup2\n      eq\n        /* \"#utility.yul\":69:139   */\n      tag_111\n      jumpi\n        /* \"#utility.yul\":135:136   */\n      0x00\n        /* \"#utility.yul\":132:133   */\n      dup1\n        /* \"#utility.yul\":125:137   */\n      revert\n        /* \"#utility.yul\":150:465   */\n    tag_25:\n        /* \"#utility.yul\":218:224   */\n      0x00\n        /* \"#utility.yul\":226:232   */\n      dup1\n        /* \"#utility.yul\":279:281   */\n      0x40\n        /* \"#utility.yul\":267:276   */\n      dup4\n        /* \"#utility.yul\":258:265   */\n      dup6\n        /* \"#utility.yul\":254:277   */\n      sub\n        /* \"#utility.yul\":250:282   */\n      slt\n        /* \"#utility.yul\":247:299   */\n      iszero\n      tag_225\n      jumpi\n        /* \"#utility.yul\":295:296   */\n      0x00\n        /* \"#utility.yul\":292:293   */\n      dup1\n        /* \"#utility.yul\":285:297   */\n      revert\n        /* \"#utility.yul\":247:299   */\n    tag_225:\n        /* \"#utility.yul\":331:340   */\n      dup3\n        /* \"#utility.yul\":318:341   */\n      calldataload\n        /* \"#utility.yul\":308:341   */\n      swap2\n      pop\n        /* \"#utility.yul\":391:393   */\n      0x20\n        /* \"#utility.yul\":380:389   */\n      dup4\n        /* \"#utility.yul\":376:394   */\n      add\n        /* \"#utility.yul\":363:395   */\n      calldataload\n        /* \"#utility.yul\":404:435   */\n      tag_226\n        /* \"#utility.yul\":429:434   */\n      dup2\n        /* \"#utility.yul\":404:435   */\n      tag_213\n      jump\t// in\n    tag_226:\n        /* \"#utility.yul\":454:459   */\n      dup1\n        /* \"#utility.yul\":444:459   */\n      swap2\n      pop\n      pop\n        /* \"#utility.yul\":150:465   */\n      swap3\n      pop\n      swap3\n      swap1\n      pop\n      jump\t// out\n        /* \"#utility.yul\":652:981   */\n    tag_35:\n        /* \"#utility.yul\":734:740   */\n      0x00\n        /* \"#utility.yul\":742:748   */\n      dup1\n        /* \"#utility.yul\":795:797   */\n      0x40\n        /* \"#utility.yul\":783:792   */\n      dup4\n        /* \"#utility.yul\":774:781   */\n      dup6\n        /* \"#utility.yul\":770:793   */\n      sub\n        /* \"#utility.yul\":766:798   */\n      slt\n        /* \"#utility.yul\":763:815   */\n      iszero\n      tag_229\n      jumpi\n        /* \"#utility.yul\":811:812   */\n      0x00\n        /* \"#utility.yul\":808:809   */\n      dup1\n        /* \"#utility.yul\":801:813   */\n      revert\n        /* \"#utility.yul\":763:815   */\n    tag_229:\n        /* \"#utility.yul\":850:859   */\n      dup3\n        /* \"#utility.yul\":837:860   */\n      calldataload\n        /* \"#utility.yul\":869:900   */\n      tag_230\n        /* \"#utility.yul\":894:899   */\n      dup2\n        /* \"#utility.yul\":869:900   */\n      tag_213\n      jump\t// in\n    tag_230:\n        /* \"#utility.yul\":919:924   */\n      swap5\n        /* \"#utility.yul\":971:973   */\n      0x20\n        /* \"#utility.yul\":956:974   */\n      swap4\n      swap1\n      swap4\n      add\n        /* \"#utility.yul\":943:975   */\n      calldataload\n      swap4\n      pop\n      pop\n      pop\n        /* \"#utility.yul\":652:981   */\n      jump\t// out\n        /* \"#utility.yul\":1208:1455   */\n    tag_48:\n        /* \"#utility.yul\":1267:1273   */\n      0x00\n        /* \"#utility.yul\":1320:1322   */\n      0x20\n        /* \"#utility.yul\":1308:1317   */\n      dup3\n        /* \"#utility.yul\":1299:1306   */\n      dup5\n        /* \"#utility.yul\":1295:1318   */\n      sub\n        /* \"#utility.yul\":1291:1323   */\n      slt\n        /* \"#utility.yul\":1288:1340   */\n      iszero\n      tag_233\n      jumpi\n        /* \"#utility.yul\":1336:1337   */\n      0x00\n        /* \"#utility.yul\":1333:1334   */\n      dup1\n        /* \"#utility.yul\":1326:1338   */\n      revert\n        /* \"#utility.yul\":1288:1340   */\n    tag_233:\n        /* \"#utility.yul\":1375:1384   */\n      dup2\n        /* \"#utility.yul\":1362:1385   */\n      calldataload\n        /* \"#utility.yul\":1394:1425   */\n      tag_234\n        /* \"#utility.yul\":1419:1424   */\n      dup2\n        /* \"#utility.yul\":1394:1425   */\n      tag_213\n      jump\t// in\n    tag_234:\n        /* \"#utility.yul\":1444:1449   */\n      swap4\n        /* \"#utility.yul\":1208:1455   */\n      swap3\n      pop\n      pop\n      pop\n      jump\t// out\n        /* \"#utility.yul\":1860:1987   */\n    tag_214:\n        /* \"#utility.yul\":1921:1931   */\n      0x4e487b71\n        /* \"#utility.yul\":1916:1919   */\n      0xe0\n        /* \"#utility.yul\":1912:1932   */\n      shl\n        /* \"#utility.yul\":1909:1910   */\n      0x00\n        /* \"#utility.yul\":1902:1933   */\n      mstore\n        /* \"#utility.yul\":1952:1956   */\n      0x41\n        /* \"#utility.yul\":1949:1950   */\n      0x04\n        /* \"#utility.yul\":1942:1957   */\n      mstore\n        /* \"#utility.yul\":1976:1980   */\n      0x24\n        /* \"#utility.yul\":1973:1974   */\n      0x00\n        /* \"#utility.yul\":1966:1981   */\n      revert\n        /* \"#utility.yul\":1992:2267   */\n    tag_215:\n        /* \"#utility.yul\":2063:2065   */\n      0x40\n        /* \"#utility.yul\":2057:2066   */\n      mload\n        /* \"#utility.yul\":2128:2130   */\n      0x1f\n        /* \"#utility.yul\":2109:2122   */\n      dup3\n      add\n      not(0x1f)\n        /* \"#utility.yul\":2105:2132   */\n      and\n        /* \"#utility.yul\":2093:2133   */\n      dup2\n      add\n        /* \"#utility.yul\":2163:2181   */\n      0xffffffffffffffff\n        /* \"#utility.yul\":2148:2182   */\n      dup2\n      gt\n        /* \"#utility.yul\":2184:2206   */\n      dup3\n      dup3\n      lt\n        /* \"#utility.yul\":2145:2207   */\n      or\n        /* \"#utility.yul\":2142:2230   */\n      iszero\n      tag_240\n      jumpi\n        /* \"#utility.yul\":2210:2228   */\n      tag_240\n      tag_214\n      jump\t// in\n    tag_240:\n        /* \"#utility.yul\":2246:2248   */\n      0x40\n        /* \"#utility.yul\":2239:2261   */\n      mstore\n        /* \"#utility.yul\":1992:2267   */\n      swap2\n      swap1\n      pop\n      jump\t// out\n        /* \"#utility.yul\":2272:2455   */\n    tag_216:\n        /* \"#utility.yul\":2332:2336   */\n      0x00\n        /* \"#utility.yul\":2365:2383   */\n      0xffffffffffffffff\n        /* \"#utility.yul\":2357:2363   */\n      dup3\n        /* \"#utility.yul\":2354:2384   */\n      gt\n        /* \"#utility.yul\":2351:2407   */\n      iszero\n      tag_243\n      jumpi\n        /* \"#utility.yul\":2387:2405   */\n      tag_243\n      tag_214\n      jump\t// in\n    tag_243:\n      pop\n        /* \"#utility.yul\":2432:2433   */\n      0x05\n        /* \"#utility.yul\":2428:2442   */\n      shl\n        /* \"#utility.yul\":2444:2448   */\n      0x20\n        /* \"#utility.yul\":2424:2449   */\n      add\n      swap1\n        /* \"#utility.yul\":2272:2455   */\n      jump\t// out\n        /* \"#utility.yul\":2460:3197   */\n    tag_217:\n        /* \"#utility.yul\":2514:2519   */\n      0x00\n        /* \"#utility.yul\":2567:2570   */\n      dup3\n        /* \"#utility.yul\":2560:2564   */\n      0x1f\n        /* \"#utility.yul\":2552:2558   */\n      dup4\n        /* \"#utility.yul\":2548:2565   */\n      add\n        /* \"#utility.yul\":2544:2571   */\n      slt\n        /* \"#utility.yul\":2534:2589   */\n      tag_245\n      jumpi\n        /* \"#utility.yul\":2585:2586   */\n      0x00\n        /* \"#utility.yul\":2582:2583   */\n      dup1\n        /* \"#utility.yul\":2575:2587   */\n      revert\n        /* \"#utility.yul\":2534:2589   */\n    tag_245:\n        /* \"#utility.yul\":2621:2627   */\n      dup2\n        /* \"#utility.yul\":2608:2628   */\n      calldataload\n        /* \"#utility.yul\":2647:2651   */\n      0x20\n        /* \"#utility.yul\":2671:2731   */\n      tag_246\n        /* \"#utility.yul\":2687:2730   */\n      tag_247\n        /* \"#utility.yul\":2727:2729   */\n      dup4\n        /* \"#utility.yul\":2687:2730   */\n      tag_216\n      jump\t// in\n    tag_247:\n        /* \"#utility.yul\":2671:2731   */\n      tag_215\n      jump\t// in\n    tag_246:\n        /* \"#utility.yul\":2765:2780   */\n      dup3\n      dup2\n      mstore\n        /* \"#utility.yul\":2851:2852   */\n      0x05\n        /* \"#utility.yul\":2847:2857   */\n      swap3\n      swap1\n      swap3\n      shl\n        /* \"#utility.yul\":2835:2858   */\n      dup5\n      add\n        /* \"#utility.yul\":2831:2863   */\n      dup2\n      add\n      swap2\n        /* \"#utility.yul\":2796:2808   */\n      dup2\n      dup2\n      add\n      swap1\n        /* \"#utility.yul\":2875:2890   */\n      dup7\n      dup5\n      gt\n        /* \"#utility.yul\":2872:2907   */\n      iszero\n      tag_248\n      jumpi\n        /* \"#utility.yul\":2903:2904   */\n      0x00\n        /* \"#utility.yul\":2900:2901   */\n      dup1\n        /* \"#utility.yul\":2893:2905   */\n      revert\n        /* \"#utility.yul\":2872:2907   */\n    tag_248:\n        /* \"#utility.yul\":2939:2941   */\n      dup3\n        /* \"#utility.yul\":2931:2937   */\n      dup7\n        /* \"#utility.yul\":2927:2942   */\n      add\n        /* \"#utility.yul\":2951:3168   */\n    tag_249:\n        /* \"#utility.yul\":2967:2973   */\n      dup5\n        /* \"#utility.yul\":2962:2965   */\n      dup2\n        /* \"#utility.yul\":2959:2974   */\n      lt\n        /* \"#utility.yul\":2951:3168   */\n      iszero\n      tag_251\n      jumpi\n        /* \"#utility.yul\":3047:3050   */\n      dup1\n        /* \"#utility.yul\":3034:3051   */\n      calldataload\n        /* \"#utility.yul\":3064:3095   */\n      tag_252\n        /* \"#utility.yul\":3089:3094   */\n      dup2\n        /* \"#utility.yul\":3064:3095   */\n      tag_213\n      jump\t// in\n    tag_252:\n        /* \"#utility.yul\":3108:3126   */\n      dup4\n      mstore\n        /* \"#utility.yul\":3146:3158   */\n      swap2\n      dup4\n      add\n      swap2\n        /* \"#utility.yul\":2984:2996   */\n      dup4\n      add\n        /* \"#utility.yul\":2951:3168   */\n      jump(tag_249)\n    tag_251:\n      pop\n        /* \"#utility.yul\":3186:3191   */\n      swap7\n        /* \"#utility.yul\":2460:3197   */\n      swap6\n      pop\n      pop\n      pop\n      pop\n      pop\n      pop\n      jump\t// out\n        /* \"#utility.yul\":3202:3864   */\n    tag_218:\n        /* \"#utility.yul\":3256:3261   */\n      0x00\n        /* \"#utility.yul\":3309:3312   */\n      dup3\n        /* \"#utility.yul\":3302:3306   */\n      0x1f\n        /* \"#utility.yul\":3294:3300   */\n      dup4\n        /* \"#utility.yul\":3290:3307   */\n      add\n        /* \"#utility.yul\":3286:3313   */\n      slt\n        /* \"#utility.yul\":3276:3331   */\n      tag_254\n      jumpi\n        /* \"#utility.yul\":3327:3328   */\n      0x00\n        /* \"#utility.yul\":3324:3325   */\n      dup1\n        /* \"#utility.yul\":3317:3329   */\n      revert\n        /* \"#utility.yul\":3276:3331   */\n    tag_254:\n        /* \"#utility.yul\":3363:3369   */\n      dup2\n        /* \"#utility.yul\":3350:3370   */\n      calldataload\n        /* \"#utility.yul\":3389:3393   */\n      0x20\n        /* \"#utility.yul\":3413:3473   */\n      tag_255\n        /* \"#utility.yul\":3429:3472   */\n      tag_247\n        /* \"#utility.yul\":3469:3471   */\n      dup4\n        /* \"#utility.yul\":3429:3472   */\n      tag_216\n      jump\t// in\n        /* \"#utility.yul\":3413:3473   */\n    tag_255:\n        /* \"#utility.yul\":3507:3522   */\n      dup3\n      dup2\n      mstore\n        /* \"#utility.yul\":3593:3594   */\n      0x05\n        /* \"#utility.yul\":3589:3599   */\n      swap3\n      swap1\n      swap3\n      shl\n        /* \"#utility.yul\":3577:3600   */\n      dup5\n      add\n        /* \"#utility.yul\":3573:3605   */\n      dup2\n      add\n      swap2\n        /* \"#utility.yul\":3538:3550   */\n      dup2\n      dup2\n      add\n      swap1\n        /* \"#utility.yul\":3617:3632   */\n      dup7\n      dup5\n      gt\n        /* \"#utility.yul\":3614:3649   */\n      iszero\n      tag_257\n      jumpi\n        /* \"#utility.yul\":3645:3646   */\n      0x00\n        /* \"#utility.yul\":3642:3643   */\n      dup1\n        /* \"#utility.yul\":3635:3647   */\n      revert\n        /* \"#utility.yul\":3614:3649   */\n    tag_257:\n        /* \"#utility.yul\":3681:3683   */\n      dup3\n        /* \"#utility.yul\":3673:3679   */\n      dup7\n        /* \"#utility.yul\":3669:3684   */\n      add\n        /* \"#utility.yul\":3693:3835   */\n    tag_258:\n        /* \"#utility.yul\":3709:3715   */\n      dup5\n        /* \"#utility.yul\":3704:3707   */\n      dup2\n        /* \"#utility.yul\":3701:3716   */\n      lt\n        /* \"#utility.yul\":3693:3835   */\n      iszero\n      tag_251\n      jumpi\n        /* \"#utility.yul\":3775:3792   */\n      dup1\n      calldataload\n        /* \"#utility.yul\":3763:3793   */\n      dup4\n      mstore\n        /* \"#utility.yul\":3813:3825   */\n      swap2\n      dup4\n      add\n      swap2\n        /* \"#utility.yul\":3726:3738   */\n      dup4\n      add\n        /* \"#utility.yul\":3693:3835   */\n      jump(tag_258)\n        /* \"#utility.yul\":3869:4613   */\n    tag_70:\n        /* \"#utility.yul\":4010:4016   */\n      0x00\n        /* \"#utility.yul\":4018:4024   */\n      dup1\n        /* \"#utility.yul\":4026:4032   */\n      0x00\n        /* \"#utility.yul\":4079:4081   */\n      0x60\n        /* \"#utility.yul\":4067:4076   */\n      dup5\n        /* \"#utility.yul\":4058:4065   */\n      dup7\n        /* \"#utility.yul\":4054:4077   */\n      sub\n        /* \"#utility.yul\":4050:4082   */\n      slt\n        /* \"#utility.yul\":4047:4099   */\n      iszero\n      tag_262\n      jumpi\n        /* \"#utility.yul\":4095:4096   */\n      0x00\n        /* \"#utility.yul\":4092:4093   */\n      dup1\n        /* \"#utility.yul\":4085:4097   */\n      revert\n        /* \"#utility.yul\":4047:4099   */\n    tag_262:\n        /* \"#utility.yul\":4134:4143   */\n      dup4\n        /* \"#utility.yul\":4121:4144   */\n      calldataload\n        /* \"#utility.yul\":4153:4184   */\n      tag_263\n        /* \"#utility.yul\":4178:4183   */\n      dup2\n        /* \"#utility.yul\":4153:4184   */\n      tag_213\n      jump\t// in\n    tag_263:\n        /* \"#utility.yul\":4203:4208   */\n      swap3\n      pop\n        /* \"#utility.yul\":4259:4261   */\n      0x20\n        /* \"#utility.yul\":4244:4262   */\n      dup5\n      add\n        /* \"#utility.yul\":4231:4263   */\n      calldataload\n        /* \"#utility.yul\":4282:4300   */\n      0xffffffffffffffff\n        /* \"#utility.yul\":4312:4326   */\n      dup1\n      dup3\n      gt\n        /* \"#utility.yul\":4309:4343   */\n      iszero\n      tag_264\n      jumpi\n        /* \"#utility.yul\":4339:4340   */\n      0x00\n        /* \"#utility.yul\":4336:4337   */\n      dup1\n        /* \"#utility.yul\":4329:4341   */\n      revert\n        /* \"#utility.yul\":4309:4343   */\n    tag_264:\n        /* \"#utility.yul\":4362:4423   */\n      tag_265\n        /* \"#utility.yul\":4415:4422   */\n      dup8\n        /* \"#utility.yul\":4406:4412   */\n      dup4\n        /* \"#utility.yul\":4395:4404   */\n      dup9\n        /* \"#utility.yul\":4391:4413   */\n      add\n        /* \"#utility.yul\":4362:4423   */\n      tag_217\n      jump\t// in\n    tag_265:\n        /* \"#utility.yul\":4352:4423   */\n      swap4\n      pop\n        /* \"#utility.yul\":4476:4478   */\n      0x40\n        /* \"#utility.yul\":4465:4474   */\n      dup7\n        /* \"#utility.yul\":4461:4479   */\n      add\n        /* \"#utility.yul\":4448:4480   */\n      calldataload\n        /* \"#utility.yul\":4432:4480   */\n      swap2\n      pop\n        /* \"#utility.yul\":4505:4507   */\n      dup1\n        /* \"#utility.yul\":4495:4503   */\n      dup3\n        /* \"#utility.yul\":4492:4508   */\n      gt\n        /* \"#utility.yul\":4489:4525   */\n      iszero\n      tag_266\n      jumpi\n        /* \"#utility.yul\":4521:4522   */\n      0x00\n        /* \"#utility.yul\":4518:4519   */\n      dup1\n        /* \"#utility.yul\":4511:4523   */\n      revert\n        /* \"#utility.yul\":4489:4525   */\n    tag_266:\n      pop\n        /* \"#utility.yul\":4544:4607   */\n      tag_267\n        /* \"#utility.yul\":4599:4606   */\n      dup7\n        /* \"#utility.yul\":4588:4596   */\n      dup3\n        /* \"#utility.yul\":4577:4586   */\n      dup8\n        /* \"#utility.yul\":4573:4597   */\n      add\n        /* \"#utility.yul\":4544:4607   */\n      tag_218\n      jump\t// in\n    tag_267:\n        /* \"#utility.yul\":4534:4607   */\n      swap2\n      pop\n      pop\n        /* \"#utility.yul\":3869:4613   */\n      swap3\n      pop\n      swap3\n      pop\n      swap3\n      jump\t// out\n        /* \"#utility.yul\":4618:5213   */\n    tag_83:\n        /* \"#utility.yul\":4736:4742   */\n      0x00\n        /* \"#utility.yul\":4744:4750   */\n      dup1\n        /* \"#utility.yul\":4797:4799   */\n      0x40\n        /* \"#utility.yul\":4785:4794   */\n      dup4\n        /* \"#utility.yul\":4776:4783   */\n      dup6\n        /* \"#utility.yul\":4772:4795   */\n      sub\n        /* \"#utility.yul\":4768:4800   */\n      slt\n        /* \"#utility.yul\":4765:4817   */\n      iszero\n      tag_269\n      jumpi\n        /* \"#utility.yul\":4813:4814   */\n      0x00\n        /* \"#utility.yul\":4810:4811   */\n      dup1\n        /* \"#utility.yul\":4803:4815   */\n      revert\n        /* \"#utility.yul\":4765:4817   */\n    tag_269:\n        /* \"#utility.yul\":4853:4862   */\n      dup3\n        /* \"#utility.yul\":4840:4863   */\n      calldataload\n        /* \"#utility.yul\":4882:4900   */\n      0xffffffffffffffff\n        /* \"#utility.yul\":4923:4925   */\n      dup1\n        /* \"#utility.yul\":4915:4921   */\n      dup3\n        /* \"#utility.yul\":4912:4926   */\n      gt\n        /* \"#utility.yul\":4909:4943   */\n      iszero\n      tag_270\n      jumpi\n        /* \"#utility.yul\":4939:4940   */\n      0x00\n        /* \"#utility.yul\":4936:4937   */\n      dup1\n        /* \"#utility.yul\":4929:4941   */\n      revert\n        /* \"#utility.yul\":4909:4943   */\n    tag_270:\n        /* \"#utility.yul\":4962:5023   */\n      tag_271\n        /* \"#utility.yul\":5015:5022   */\n      dup7\n        /* \"#utility.yul\":5006:5012   */\n      dup4\n        /* \"#utility.yul\":4995:5004   */\n      dup8\n        /* \"#utility.yul\":4991:5013   */\n      add\n        /* \"#utility.yul\":4962:5023   */\n      tag_217\n      jump\t// in\n    tag_271:\n        /* \"#utility.yul\":4952:5023   */\n      swap4\n      pop\n        /* \"#utility.yul\":5076:5078   */\n      0x20\n        /* \"#utility.yul\":5065:5074   */\n      dup6\n        /* \"#utility.yul\":5061:5079   */\n      add\n        /* \"#utility.yul\":5048:5080   */\n      calldataload\n        /* \"#utility.yul\":5032:5080   */\n      swap2\n      pop\n        /* \"#utility.yul\":5105:5107   */\n      dup1\n        /* \"#utility.yul\":5095:5103   */\n      dup3\n        /* \"#utility.yul\":5092:5108   */\n      gt\n        /* \"#utility.yul\":5089:5125   */\n      iszero\n      tag_272\n      jumpi\n        /* \"#utility.yul\":5121:5122   */\n      0x00\n        /* \"#utility.yul\":5118:5119   */\n      dup1\n        /* \"#utility.yul\":5111:5123   */\n      revert\n        /* \"#utility.yul\":5089:5125   */\n    tag_272:\n      pop\n        /* \"#utility.yul\":5144:5207   */\n      tag_273\n        /* \"#utility.yul\":5199:5206   */\n      dup6\n        /* \"#utility.yul\":5188:5196   */\n      dup3\n        /* \"#utility.yul\":5177:5186   */\n      dup7\n        /* \"#utility.yul\":5173:5197   */\n      add\n        /* \"#utility.yul\":5144:5207   */\n      tag_218\n      jump\t// in\n    tag_273:\n        /* \"#utility.yul\":5134:5207   */\n      swap2\n      pop\n      pop\n        /* \"#utility.yul\":4618:5213   */\n      swap3\n      pop\n      swap3\n      swap1\n      pop\n      jump\t// out\n        /* \"#utility.yul\":5442:5560   */\n    tag_219:\n        /* \"#utility.yul\":5528:5533   */\n      dup1\n        /* \"#utility.yul\":5521:5534   */\n      iszero\n        /* \"#utility.yul\":5514:5535   */\n      iszero\n        /* \"#utility.yul\":5507:5512   */\n      dup2\n        /* \"#utility.yul\":5504:5536   */\n      eq\n        /* \"#utility.yul\":5494:5554   */\n      tag_111\n      jumpi\n        /* \"#utility.yul\":5550:5551   */\n      0x00\n        /* \"#utility.yul\":5547:5548   */\n      dup1\n        /* \"#utility.yul\":5540:5552   */\n      revert\n        /* \"#utility.yul\":5565:5947   */\n    tag_97:\n        /* \"#utility.yul\":5630:5636   */\n      0x00\n        /* \"#utility.yul\":5638:5644   */\n      dup1\n        /* \"#utility.yul\":5691:5693   */\n      0x40\n        /* \"#utility.yul\":5679:5688   */\n      dup4\n        /* \"#utility.yul\":5670:5677   */\n      dup6\n        /* \"#utility.yul\":5666:5689   */\n      sub\n        /* \"#utility.yul\":5662:5694   */\n      slt\n        /* \"#utility.yul\":5659:5711   */\n      iszero\n      tag_278\n      jumpi\n        /* \"#utility.yul\":5707:5708   */\n      0x00\n        /* \"#utility.yul\":5704:5705   */\n      dup1\n        /* \"#utility.yul\":5697:5709   */\n      revert\n        /* \"#utility.yul\":5659:5711   */\n    tag_278:\n        /* \"#utility.yul\":5746:5755   */\n      dup3\n        /* \"#utility.yul\":5733:5756   */\n      calldataload\n        /* \"#utility.yul\":5765:5796   */\n      tag_279\n        /* \"#utility.yul\":5790:5795   */\n      dup2\n        /* \"#utility.yul\":5765:5796   */\n      tag_213\n      jump\t// in\n    tag_279:\n        /* \"#utility.yul\":5815:5820   */\n      swap2\n      pop\n        /* \"#utility.yul\":5872:5874   */\n      0x20\n        /* \"#utility.yul\":5857:5875   */\n      dup4\n      add\n        /* \"#utility.yul\":5844:5876   */\n      calldataload\n        /* \"#utility.yul\":5885:5915   */\n      tag_226\n        /* \"#utility.yul\":5844:5876   */\n      dup2\n        /* \"#utility.yul\":5885:5915   */\n      tag_219\n      jump\t// in\n        /* \"#utility.yul\":5952:6136   */\n    tag_127:\n        /* \"#utility.yul\":6022:6028   */\n      0x00\n        /* \"#utility.yul\":6075:6077   */\n      0x20\n        /* \"#utility.yul\":6063:6072   */\n      dup3\n        /* \"#utility.yul\":6054:6061   */\n      dup5\n        /* \"#utility.yul\":6050:6073   */\n      sub\n        /* \"#utility.yul\":6046:6078   */\n      slt\n        /* \"#utility.yul\":6043:6095   */\n      iszero\n      tag_282\n      jumpi\n        /* \"#utility.yul\":6091:6092   */\n      0x00\n        /* \"#utility.yul\":6088:6089   */\n      dup1\n        /* \"#utility.yul\":6081:6093   */\n      revert\n        /* \"#utility.yul\":6043:6095   */\n    tag_282:\n      pop\n        /* \"#utility.yul\":6114:6130   */\n      mload\n      swap2\n        /* \"#utility.yul\":5952:6136   */\n      swap1\n      pop\n      jump\t// out\n        /* \"#utility.yul\":6615:6742   */\n    tag_220:\n        /* \"#utility.yul\":6676:6686   */\n      0x4e487b71\n        /* \"#utility.yul\":6671:6674   */\n      0xe0\n        /* \"#utility.yul\":6667:6687   */\n      shl\n        /* \"#utility.yul\":6664:6665   */\n      0x00\n        /* \"#utility.yul\":6657:6688   */\n      mstore\n        /* \"#utility.yul\":6707:6711   */\n      0x11\n        /* \"#utility.yul\":6704:6705   */\n      0x04\n        /* \"#utility.yul\":6697:6712   */\n      mstore\n        /* \"#utility.yul\":6731:6735   */\n      0x24\n        /* \"#utility.yul\":6728:6729   */\n      0x00\n        /* \"#utility.yul\":6721:6736   */\n      revert\n        /* \"#utility.yul\":6747:6872   */\n    tag_133:\n        /* \"#utility.yul\":6812:6821   */\n      dup1\n      dup3\n      add\n        /* \"#utility.yul\":6833:6843   */\n      dup1\n      dup3\n      gt\n        /* \"#utility.yul\":6830:6866   */\n      iszero\n      tag_287\n      jumpi\n        /* \"#utility.yul\":6846:6864   */\n      tag_287\n      tag_220\n      jump\t// in\n    tag_287:\n        /* \"#utility.yul\":6747:6872   */\n      swap3\n      swap2\n      pop\n      pop\n      jump\t// out\n        /* \"#utility.yul\":6877:7004   */\n    tag_141:\n        /* \"#utility.yul\":6938:6948   */\n      0x4e487b71\n        /* \"#utility.yul\":6933:6936   */\n      0xe0\n        /* \"#utility.yul\":6929:6949   */\n      shl\n        /* \"#utility.yul\":6926:6927   */\n      0x00\n        /* \"#utility.yul\":6919:6950   */\n      mstore\n        /* \"#utility.yul\":6969:6973   */\n      0x32\n        /* \"#utility.yul\":6966:6967   */\n      0x04\n        /* \"#utility.yul\":6959:6974   */\n      mstore\n        /* \"#utility.yul\":6993:6997   */\n      0x24\n        /* \"#utility.yul\":6990:6991   */\n      0x00\n        /* \"#utility.yul\":6983:6998   */\n      revert\n        /* \"#utility.yul\":7009:7144   */\n    tag_144:\n        /* \"#utility.yul\":7048:7051   */\n      0x00\n        /* \"#utility.yul\":7069:7086   */\n      0x01\n      dup3\n      add\n        /* \"#utility.yul\":7066:7109   */\n      tag_291\n      jumpi\n        /* \"#utility.yul\":7089:7107   */\n      tag_291\n      tag_220\n      jump\t// in\n    tag_291:\n      pop\n        /* \"#utility.yul\":7136:7137   */\n      0x01\n        /* \"#utility.yul\":7125:7138   */\n      add\n      swap1\n        /* \"#utility.yul\":7009:7144   */\n      jump\t// out\n        /* \"#utility.yul\":7529:7774   */\n    tag_150:\n        /* \"#utility.yul\":7596:7602   */\n      0x00\n        /* \"#utility.yul\":7649:7651   */\n      0x20\n        /* \"#utility.yul\":7637:7646   */\n      dup3\n        /* \"#utility.yul\":7628:7635   */\n      dup5\n        /* \"#utility.yul\":7624:7647   */\n      sub\n        /* \"#utility.yul\":7620:7652   */\n      slt\n        /* \"#utility.yul\":7617:7669   */\n      iszero\n      tag_294\n      jumpi\n        /* \"#utility.yul\":7665:7666   */\n      0x00\n        /* \"#utility.yul\":7662:7663   */\n      dup1\n        /* \"#utility.yul\":7655:7667   */\n      revert\n        /* \"#utility.yul\":7617:7669   */\n    tag_294:\n        /* \"#utility.yul\":7697:7706   */\n      dup2\n        /* \"#utility.yul\":7691:7707   */\n      mload\n        /* \"#utility.yul\":7716:7744   */\n      tag_234\n        /* \"#utility.yul\":7738:7743   */\n      dup2\n        /* \"#utility.yul\":7716:7744   */\n      tag_219\n      jump\t// in\n\n    auxdata: 0xa2646970667358221220c2d0931c5a6a6d9e96072dec2b8fc798c6795a3d767a147d6fb23cb79e66722064736f6c63430008100033\n}\n",
				"bytecode": {
					"linkReferences": {},
					"object": "608060405234801561001057600080fd5b5061001a3361004b565b600054600280546001600160a01b0319166001600160a01b03909216919091179055655af3107a400060015561009b565b600080546001600160a01b038381166001600160a01b0319831681178455604051919092169283917f8be0079c531659141344cd1fd0a4f28419497f9722a3daafe3b4186f6b6457e09190a35050565b610e76806100aa6000396000f3fe6080604052600436106100fe5760003560e01c80638da5cb5b11610095578063ddca3f4311610064578063ddca3f43146102b0578063e3cec849146102c6578063f2fde38b146102d9578063f7260d3e146102f9578063fb520af21461031957600080fd5b80638da5cb5b146102305780639c8b9e7b1461024e5780639cbd343314610264578063a4df02561461027757600080fd5b80633feff76d116100d15780633feff76d1461018357806344b6209d146101bb5780634b4fb1b0146101fb578063715018a61461021b57600080fd5b8063126ccd941461010357806317fc45e2146101255780632fc75eb01461014e5780633ccfd60b1461016e575b600080fd5b34801561010f57600080fd5b5061012361011e366004610adc565b610339565b005b34801561013157600080fd5b5061013b60065481565b6040519081526020015b60405180910390f35b34801561015a57600080fd5b50610123610169366004610b0c565b610368565b34801561017a57600080fd5b50610123610396565b34801561018f57600080fd5b506005546101a3906001600160a01b031681565b6040516001600160a01b039091168152602001610145565b3480156101c757600080fd5b506101eb6101d6366004610b38565b60046020526000908152604090205460ff1681565b6040519015158152602001610145565b34801561020757600080fd5b50610123610216366004610b38565b6103d8565b34801561022757600080fd5b50610123610404565b34801561023c57600080fd5b506000546001600160a01b03166101a3565b34801561025a57600080fd5b5061013b60035481565b610123610272366004610c96565b610416565b34801561028357600080fd5b506101eb610292366004610b38565b6001600160a01b031660009081526004602052604090205460ff1690565b3480156102bc57600080fd5b5061013b60015481565b6101236102d4366004610d0c565b610730565b3480156102e557600080fd5b506101236102f4366004610b38565b610955565b34801561030557600080fd5b506002546101a3906001600160a01b031681565b34801561032557600080fd5b50610123610334366004610d7e565b6109cb565b610341610a1d565b600191909155600280546001600160a01b0319166001600160a01b03909216919091179055565b610370610a1d565b600580546001600160a01b0319166001600160a01b039390931692909217909155600655565b61039e610a1d565b600354156103d657600354604051339180156108fc02916000818181858888f193505050501580156103d4573d6000803e3d6000fd5b505b565b6103e0610a1d565b6001600160a01b03166000908152600460205260409020805460ff19166001179055565b61040c610a1d565b6103d66000610a77565b3360009081526004602052604090205460ff1615806104a157506006546005546040516370a0823160e01b81523360048201526001600160a01b03909116906370a0823190602401602060405180830381865afa15801561047b573d6000803e3d6000fd5b505050506040513d601f19601f8201168201806040525081019061049f9190610dac565b105b156105845760015434101561052d5760405162461bcd60e51b815260206004820152604160248201527f596f75206861766520746f207061792066656520746f2075736520536e69706560448201527f46696e616e636520546f6b656e204d756c74692062756c6b2066756e6374696f6064820152603760f91b608482015260a4015b60405180910390fd5b600154600360008282546105419190610ddb565b90915550506002546001546040516001600160a01b039092169181156108fc0291906000818181858888f19350505050158015610582573d6000803e3d6000fd5b505b6000805b83518110156105ca578281815181106105a3576105a3610df4565b6020026020010151826105b69190610ddb565b9150806105c281610e0a565b915050610588565b506040516323b872dd60e01b8152336004820152306024820152604481018290526001600160a01b038516906323b872dd906064016020604051808303816000875af115801561061e573d6000803e3d6000fd5b505050506040513d601f19601f820116820180604052508101906106429190610e23565b61064b57600080fd5b60005b835181101561072957846001600160a01b031663a9059cbb85838151811061067857610678610df4565b602002602001015185848151811061069257610692610df4565b60200260200101516040518363ffffffff1660e01b81526004016106cb9291906001600160a01b03929092168252602082015260400190565b6020604051808303816000875af11580156106ea573d6000803e3d6000fd5b505050506040513d601f19601f8201168201806040525081019061070e9190610e23565b61071757600080fd5b8061072181610e0a565b91505061064e565b5050505050565b3360009081526004602052604090205460ff1615806107bb57506006546005546040516370a0823160e01b81523360048201526001600160a01b03909116906370a0823190602401602060405180830381865afa158015610795573d6000803e3d6000fd5b505050506040513d601f19601f820116820180604052508101906107b99190610dac565b105b1561088f576001543410156108385760405162461bcd60e51b815260206004820152603b60248201527f596f75206861766520746f207061792066656520746f2075736520536e69706560448201527f46696e616e6365204d756c74692062756c6b2066756e6374696f6e00000000006064820152608401610524565b6001546003600082825461084c9190610ddb565b90915550506002546001546040516001600160a01b039092169181156108fc0291906000818181858888f1935050505015801561088d573d6000803e3d6000fd5b505b60005b8251811015610919578281815181106108ad576108ad610df4565b60200260200101516001600160a01b03166108fc8383815181106108d3576108d3610df4565b60200260200101519081150290604051600060405180830381858888f19350505050158015610906573d6000803e3d6000fd5b508061091181610e0a565b915050610892565b5047801561095057604051339082156108fc029083906000818181858888f1935050505015801561094e573d6000803e3d6000fd5b505b505050565b61095d610a1d565b6001600160a01b0381166109c25760405162461bcd60e51b815260206004820152602660248201527f4f776e61626c653a206e6577206f776e657220697320746865207a65726f206160448201526564647265737360d01b6064820152608401610524565b6103d481610a77565b6109d3610a1d565b6001600160a01b03821660009081526004602052604090205460ff1615610a19576001600160a01b0382166000908152600460205260409020805460ff19168215151790555b5050565b6000546001600160a01b031633146103d65760405162461bcd60e51b815260206004820181905260248201527f4f776e61626c653a2063616c6c6572206973206e6f7420746865206f776e65726044820152606401610524565b600080546001600160a01b038381166001600160a01b0319831681178455604051919092169283917f8be0079c531659141344cd1fd0a4f28419497f9722a3daafe3b4186f6b6457e09190a35050565b6001600160a01b03811681146103d457600080fd5b60008060408385031215610aef57600080fd5b823591506020830135610b0181610ac7565b809150509250929050565b60008060408385031215610b1f57600080fd5b8235610b2a81610ac7565b946020939093013593505050565b600060208284031215610b4a57600080fd5b8135610b5581610ac7565b9392505050565b634e487b7160e01b600052604160045260246000fd5b604051601f8201601f1916810167ffffffffffffffff81118282101715610b9b57610b9b610b5c565b604052919050565b600067ffffffffffffffff821115610bbd57610bbd610b5c565b5060051b60200190565b600082601f830112610bd857600080fd5b81356020610bed610be883610ba3565b610b72565b82815260059290921b84018101918181019086841115610c0c57600080fd5b8286015b84811015610c30578035610c2381610ac7565b8352918301918301610c10565b509695505050505050565b600082601f830112610c4c57600080fd5b81356020610c5c610be883610ba3565b82815260059290921b84018101918181019086841115610c7b57600080fd5b8286015b84811015610c305780358352918301918301610c7f565b600080600060608486031215610cab57600080fd5b8335610cb681610ac7565b9250602084013567ffffffffffffffff80821115610cd357600080fd5b610cdf87838801610bc7565b93506040860135915080821115610cf557600080fd5b50610d0286828701610c3b565b9150509250925092565b60008060408385031215610d1f57600080fd5b823567ffffffffffffffff80821115610d3757600080fd5b610d4386838701610bc7565b93506020850135915080821115610d5957600080fd5b50610d6685828601610c3b565b9150509250929050565b80151581146103d457600080fd5b60008060408385031215610d9157600080fd5b8235610d9c81610ac7565b91506020830135610b0181610d70565b600060208284031215610dbe57600080fd5b5051919050565b634e487b7160e01b600052601160045260246000fd5b80820180821115610dee57610dee610dc5565b92915050565b634e487b7160e01b600052603260045260246000fd5b600060018201610e1c57610e1c610dc5565b5060010190565b600060208284031215610e3557600080fd5b8151610b5581610d7056fea2646970667358221220c2d0931c5a6a6d9e96072dec2b8fc798c6795a3d767a147d6fb23cb79e66722064736f6c63430008100033",
					"opcodes": "PUSH1 0x80 PUSH1 0x40 MSTORE CALLVALUE DUP1 ISZERO PUSH2 0x10 JUMPI PUSH1 0x0 DUP1 REVERT JUMPDEST POP PUSH2 0x1A CALLER PUSH2 0x4B JUMP JUMPDEST PUSH1 0x0 SLOAD PUSH1 0x2 DUP1 SLOAD PUSH1 0x1 PUSH1 0x1 PUSH1 0xA0 SHL SUB NOT AND PUSH1 0x1 PUSH1 0x1 PUSH1 0xA0 SHL SUB SWAP1 SWAP3 AND SWAP2 SWAP1 SWAP2 OR SWAP1 SSTORE PUSH6 0x5AF3107A4000 PUSH1 0x1 SSTORE PUSH2 0x9B JUMP JUMPDEST PUSH1 0x0 DUP1 SLOAD PUSH1 0x1 PUSH1 0x1 PUSH1 0xA0 SHL SUB DUP4 DUP2 AND PUSH1 0x1 PUSH1 0x1 PUSH1 0xA0 SHL SUB NOT DUP4 AND DUP2 OR DUP5 SSTORE PUSH1 0x40 MLOAD SWAP2 SWAP1 SWAP3 AND SWAP3 DUP4 SWAP2 PUSH32 0x8BE0079C531659141344CD1FD0A4F28419497F9722A3DAAFE3B4186F6B6457E0 SWAP2 SWAP1 LOG3 POP POP JUMP JUMPDEST PUSH2 0xE76 DUP1 PUSH2 0xAA PUSH1 0x0 CODECOPY PUSH1 0x0 RETURN INVALID PUSH1 0x80 PUSH1 0x40 MSTORE PUSH1 0x4 CALLDATASIZE LT PUSH2 0xFE JUMPI PUSH1 0x0 CALLDATALOAD PUSH1 0xE0 SHR DUP1 PUSH4 0x8DA5CB5B GT PUSH2 0x95 JUMPI DUP1 PUSH4 0xDDCA3F43 GT PUSH2 0x64 JUMPI DUP1 PUSH4 0xDDCA3F43 EQ PUSH2 0x2B0 JUMPI DUP1 PUSH4 0xE3CEC849 EQ PUSH2 0x2C6 JUMPI DUP1 PUSH4 0xF2FDE38B EQ PUSH2 0x2D9 JUMPI DUP1 PUSH4 0xF7260D3E EQ PUSH2 0x2F9 JUMPI DUP1 PUSH4 0xFB520AF2 EQ PUSH2 0x319 JUMPI PUSH1 0x0 DUP1 REVERT JUMPDEST DUP1 PUSH4 0x8DA5CB5B EQ PUSH2 0x230 JUMPI DUP1 PUSH4 0x9C8B9E7B EQ PUSH2 0x24E JUMPI DUP1 PUSH4 0x9CBD3433 EQ PUSH2 0x264 JUMPI DUP1 PUSH4 0xA4DF0256 EQ PUSH2 0x277 JUMPI PUSH1 0x0 DUP1 REVERT JUMPDEST DUP1 PUSH4 0x3FEFF76D GT PUSH2 0xD1 JUMPI DUP1 PUSH4 0x3FEFF76D EQ PUSH2 0x183 JUMPI DUP1 PUSH4 0x44B6209D EQ PUSH2 0x1BB JUMPI DUP1 PUSH4 0x4B4FB1B0 EQ PUSH2 0x1FB JUMPI DUP1 PUSH4 0x715018A6 EQ PUSH2 0x21B JUMPI PUSH1 0x0 DUP1 REVERT JUMPDEST DUP1 PUSH4 0x126CCD94 EQ PUSH2 0x103 JUMPI DUP1 PUSH4 0x17FC45E2 EQ PUSH2 0x125 JUMPI DUP1 PUSH4 0x2FC75EB0 EQ PUSH2 0x14E JUMPI DUP1 PUSH4 0x3CCFD60B EQ PUSH2 0x16E JUMPI JUMPDEST PUSH1 0x0 DUP1 REVERT JUMPDEST CALLVALUE DUP1 ISZERO PUSH2 0x10F JUMPI PUSH1 0x0 DUP1 REVERT JUMPDEST POP PUSH2 0x123 PUSH2 0x11E CALLDATASIZE PUSH1 0x4 PUSH2 0xADC JUMP JUMPDEST PUSH2 0x339 JUMP JUMPDEST STOP JUMPDEST CALLVALUE DUP1 ISZERO PUSH2 0x131 JUMPI PUSH1 0x0 DUP1 REVERT JUMPDEST POP PUSH2 0x13B PUSH1 0x6 SLOAD DUP2 JUMP JUMPDEST PUSH1 0x40 MLOAD SWAP1 DUP2 MSTORE PUSH1 0x20 ADD JUMPDEST PUSH1 0x40 MLOAD DUP1 SWAP2 SUB SWAP1 RETURN JUMPDEST CALLVALUE DUP1 ISZERO PUSH2 0x15A JUMPI PUSH1 0x0 DUP1 REVERT JUMPDEST POP PUSH2 0x123 PUSH2 0x169 CALLDATASIZE PUSH1 0x4 PUSH2 0xB0C JUMP JUMPDEST PUSH2 0x368 JUMP JUMPDEST CALLVALUE DUP1 ISZERO PUSH2 0x17A JUMPI PUSH1 0x0 DUP1 REVERT JUMPDEST POP PUSH2 0x123 PUSH2 0x396 JUMP JUMPDEST CALLVALUE DUP1 ISZERO PUSH2 0x18F JUMPI PUSH1 0x0 DUP1 REVERT JUMPDEST POP PUSH1 0x5 SLOAD PUSH2 0x1A3 SWAP1 PUSH1 0x1 PUSH1 0x1 PUSH1 0xA0 SHL SUB AND DUP2 JUMP JUMPDEST PUSH1 0x40 MLOAD PUSH1 0x1 PUSH1 0x1 PUSH1 0xA0 SHL SUB SWAP1 SWAP2 AND DUP2 MSTORE PUSH1 0x20 ADD PUSH2 0x145 JUMP JUMPDEST CALLVALUE DUP1 ISZERO PUSH2 0x1C7 JUMPI PUSH1 0x0 DUP1 REVERT JUMPDEST POP PUSH2 0x1EB PUSH2 0x1D6 CALLDATASIZE PUSH1 0x4 PUSH2 0xB38 JUMP JUMPDEST PUSH1 0x4 PUSH1 0x20 MSTORE PUSH1 0x0 SWAP1 DUP2 MSTORE PUSH1 0x40 SWAP1 KECCAK256 SLOAD PUSH1 0xFF AND DUP2 JUMP JUMPDEST PUSH1 0x40 MLOAD SWAP1 ISZERO ISZERO DUP2 MSTORE PUSH1 0x20 ADD PUSH2 0x145 JUMP JUMPDEST CALLVALUE DUP1 ISZERO PUSH2 0x207 JUMPI PUSH1 0x0 DUP1 REVERT JUMPDEST POP PUSH2 0x123 PUSH2 0x216 CALLDATASIZE PUSH1 0x4 PUSH2 0xB38 JUMP JUMPDEST PUSH2 0x3D8 JUMP JUMPDEST CALLVALUE DUP1 ISZERO PUSH2 0x227 JUMPI PUSH1 0x0 DUP1 REVERT JUMPDEST POP PUSH2 0x123 PUSH2 0x404 JUMP JUMPDEST CALLVALUE DUP1 ISZERO PUSH2 0x23C JUMPI PUSH1 0x0 DUP1 REVERT JUMPDEST POP PUSH1 0x0 SLOAD PUSH1 0x1 PUSH1 0x1 PUSH1 0xA0 SHL SUB AND PUSH2 0x1A3 JUMP JUMPDEST CALLVALUE DUP1 ISZERO PUSH2 0x25A JUMPI PUSH1 0x0 DUP1 REVERT JUMPDEST POP PUSH2 0x13B PUSH1 0x3 SLOAD DUP2 JUMP JUMPDEST PUSH2 0x123 PUSH2 0x272 CALLDATASIZE PUSH1 0x4 PUSH2 0xC96 JUMP JUMPDEST PUSH2 0x416 JUMP JUMPDEST CALLVALUE DUP1 ISZERO PUSH2 0x283 JUMPI PUSH1 0x0 DUP1 REVERT JUMPDEST POP PUSH2 0x1EB PUSH2 0x292 CALLDATASIZE PUSH1 0x4 PUSH2 0xB38 JUMP JUMPDEST PUSH1 0x1 PUSH1 0x1 PUSH1 0xA0 SHL SUB AND PUSH1 0x0 SWAP1 DUP2 MSTORE PUSH1 0x4 PUSH1 0x20 MSTORE PUSH1 0x40 SWAP1 KECCAK256 SLOAD PUSH1 0xFF AND SWAP1 JUMP JUMPDEST CALLVALUE DUP1 ISZERO PUSH2 0x2BC JUMPI PUSH1 0x0 DUP1 REVERT JUMPDEST POP PUSH2 0x13B PUSH1 0x1 SLOAD DUP2 JUMP JUMPDEST PUSH2 0x123 PUSH2 0x2D4 CALLDATASIZE PUSH1 0x4 PUSH2 0xD0C JUMP JUMPDEST PUSH2 0x730 JUMP JUMPDEST CALLVALUE DUP1 ISZERO PUSH2 0x2E5 JUMPI PUSH1 0x0 DUP1 REVERT JUMPDEST POP PUSH2 0x123 PUSH2 0x2F4 CALLDATASIZE PUSH1 0x4 PUSH2 0xB38 JUMP JUMPDEST PUSH2 0x955 JUMP JUMPDEST CALLVALUE DUP1 ISZERO PUSH2 0x305 JUMPI PUSH1 0x0 DUP1 REVERT JUMPDEST POP PUSH1 0x2 SLOAD PUSH2 0x1A3 SWAP1 PUSH1 0x1 PUSH1 0x1 PUSH1 0xA0 SHL SUB AND DUP2 JUMP JUMPDEST CALLVALUE DUP1 ISZERO PUSH2 0x325 JUMPI PUSH1 0x0 DUP1 REVERT JUMPDEST POP PUSH2 0x123 PUSH2 0x334 CALLDATASIZE PUSH1 0x4 PUSH2 0xD7E JUMP JUMPDEST PUSH2 0x9CB JUMP JUMPDEST PUSH2 0x341 PUSH2 0xA1D JUMP JUMPDEST PUSH1 0x1 SWAP2 SWAP1 SWAP2 SSTORE PUSH1 0x2 DUP1 SLOAD PUSH1 0x1 PUSH1 0x1 PUSH1 0xA0 SHL SUB NOT AND PUSH1 0x1 PUSH1 0x1 PUSH1 0xA0 SHL SUB SWAP1 SWAP3 AND SWAP2 SWAP1 SWAP2 OR SWAP1 SSTORE JUMP JUMPDEST PUSH2 0x370 PUSH2 0xA1D JUMP JUMPDEST PUSH1 0x5 DUP1 SLOAD PUSH1 0x1 PUSH1 0x1 PUSH1 0xA0 SHL SUB NOT AND PUSH1 0x1 PUSH1 0x1 PUSH1 0xA0 SHL SUB SWAP4 SWAP1 SWAP4 AND SWAP3 SWAP1 SWAP3 OR SWAP1 SWAP2 SSTORE PUSH1 0x6 SSTORE JUMP JUMPDEST PUSH2 0x39E PUSH2 0xA1D JUMP JUMPDEST PUSH1 0x3 SLOAD ISZERO PUSH2 0x3D6 JUMPI PUSH1 0x3 SLOAD PUSH1 0x40 MLOAD CALLER SWAP2 DUP1 ISZERO PUSH2 0x8FC MUL SWAP2 PUSH1 0x0 DUP2 DUP2 DUP2 DUP6 DUP9 DUP9 CALL SWAP4 POP POP POP POP ISZERO DUP1 ISZERO PUSH2 0x3D4 JUMPI RETURNDATASIZE PUSH1 0x0 DUP1 RETURNDATACOPY RETURNDATASIZE PUSH1 0x0 REVERT JUMPDEST POP JUMPDEST JUMP JUMPDEST PUSH2 0x3E0 PUSH2 0xA1D JUMP JUMPDEST PUSH1 0x1 PUSH1 0x1 PUSH1 0xA0 SHL SUB AND PUSH1 0x0 SWAP1 DUP2 MSTORE PUSH1 0x4 PUSH1 0x20 MSTORE PUSH1 0x40 SWAP1 KECCAK256 DUP1 SLOAD PUSH1 0xFF NOT AND PUSH1 0x1 OR SWAP1 SSTORE JUMP JUMPDEST PUSH2 0x40C PUSH2 0xA1D JUMP JUMPDEST PUSH2 0x3D6 PUSH1 0x0 PUSH2 0xA77 JUMP JUMPDEST CALLER PUSH1 0x0 SWAP1 DUP2 MSTORE PUSH1 0x4 PUSH1 0x20 MSTORE PUSH1 0x40 SWAP1 KECCAK256 SLOAD PUSH1 0xFF AND ISZERO DUP1 PUSH2 0x4A1 JUMPI POP PUSH1 0x6 SLOAD PUSH1 0x5 SLOAD PUSH1 0x40 MLOAD PUSH4 0x70A08231 PUSH1 0xE0 SHL DUP2 MSTORE CALLER PUSH1 0x4 DUP3 ADD MSTORE PUSH1 0x1 PUSH1 0x1 PUSH1 0xA0 SHL SUB SWAP1 SWAP2 AND SWAP1 PUSH4 0x70A08231 SWAP1 PUSH1 0x24 ADD PUSH1 0x20 PUSH1 0x40 MLOAD DUP1 DUP4 SUB DUP2 DUP7 GAS STATICCALL ISZERO DUP1 ISZERO PUSH2 0x47B JUMPI RETURNDATASIZE PUSH1 0x0 DUP1 RETURNDATACOPY RETURNDATASIZE PUSH1 0x0 REVERT JUMPDEST POP POP POP POP PUSH1 0x40 MLOAD RETURNDATASIZE PUSH1 0x1F NOT PUSH1 0x1F DUP3 ADD AND DUP3 ADD DUP1 PUSH1 0x40 MSTORE POP DUP2 ADD SWAP1 PUSH2 0x49F SWAP2 SWAP1 PUSH2 0xDAC JUMP JUMPDEST LT JUMPDEST ISZERO PUSH2 0x584 JUMPI PUSH1 0x1 SLOAD CALLVALUE LT ISZERO PUSH2 0x52D JUMPI PUSH1 0x40 MLOAD PUSH3 0x461BCD PUSH1 0xE5 SHL DUP2 MSTORE PUSH1 0x20 PUSH1 0x4 DUP3 ADD MSTORE PUSH1 0x41 PUSH1 0x24 DUP3 ADD MSTORE PUSH32 0x596F75206861766520746F207061792066656520746F2075736520536E697065 PUSH1 0x44 DUP3 ADD MSTORE PUSH32 0x46696E616E636520546F6B656E204D756C74692062756C6B2066756E6374696F PUSH1 0x64 DUP3 ADD MSTORE PUSH1 0x37 PUSH1 0xF9 SHL PUSH1 0x84 DUP3 ADD MSTORE PUSH1 0xA4 ADD JUMPDEST PUSH1 0x40 MLOAD DUP1 SWAP2 SUB SWAP1 REVERT JUMPDEST PUSH1 0x1 SLOAD PUSH1 0x3 PUSH1 0x0 DUP3 DUP3 SLOAD PUSH2 0x541 SWAP2 SWAP1 PUSH2 0xDDB JUMP JUMPDEST SWAP1 SWAP2 SSTORE POP POP PUSH1 0x2 SLOAD PUSH1 0x1 SLOAD PUSH1 0x40 MLOAD PUSH1 0x1 PUSH1 0x1 PUSH1 0xA0 SHL SUB SWAP1 SWAP3 AND SWAP2 DUP2 ISZERO PUSH2 0x8FC MUL SWAP2 SWAP1 PUSH1 0x0 DUP2 DUP2 DUP2 DUP6 DUP9 DUP9 CALL SWAP4 POP POP POP POP ISZERO DUP1 ISZERO PUSH2 0x582 JUMPI RETURNDATASIZE PUSH1 0x0 DUP1 RETURNDATACOPY RETURNDATASIZE PUSH1 0x0 REVERT JUMPDEST POP JUMPDEST PUSH1 0x0 DUP1 JUMPDEST DUP4 MLOAD DUP2 LT ISZERO PUSH2 0x5CA JUMPI DUP3 DUP2 DUP2 MLOAD DUP2 LT PUSH2 0x5A3 JUMPI PUSH2 0x5A3 PUSH2 0xDF4 JUMP JUMPDEST PUSH1 0x20 MUL PUSH1 0x20 ADD ADD MLOAD DUP3 PUSH2 0x5B6 SWAP2 SWAP1 PUSH2 0xDDB JUMP JUMPDEST SWAP2 POP DUP1 PUSH2 0x5C2 DUP2 PUSH2 0xE0A JUMP JUMPDEST SWAP2 POP POP PUSH2 0x588 JUMP JUMPDEST POP PUSH1 0x40 MLOAD PUSH4 0x23B872DD PUSH1 0xE0 SHL DUP2 MSTORE CALLER PUSH1 0x4 DUP3 ADD MSTORE ADDRESS PUSH1 0x24 DUP3 ADD MSTORE PUSH1 0x44 DUP2 ADD DUP3 SWAP1 MSTORE PUSH1 0x1 PUSH1 0x1 PUSH1 0xA0 SHL SUB DUP6 AND SWAP1 PUSH4 0x23B872DD SWAP1 PUSH1 0x64 ADD PUSH1 0x20 PUSH1 0x40 MLOAD DUP1 DUP4 SUB DUP2 PUSH1 0x0 DUP8 GAS CALL ISZERO DUP1 ISZERO PUSH2 0x61E JUMPI RETURNDATASIZE PUSH1 0x0 DUP1 RETURNDATACOPY RETURNDATASIZE PUSH1 0x0 REVERT JUMPDEST POP POP POP POP PUSH1 0x40 MLOAD RETURNDATASIZE PUSH1 0x1F NOT PUSH1 0x1F DUP3 ADD AND DUP3 ADD DUP1 PUSH1 0x40 MSTORE POP DUP2 ADD SWAP1 PUSH2 0x642 SWAP2 SWAP1 PUSH2 0xE23 JUMP JUMPDEST PUSH2 0x64B JUMPI PUSH1 0x0 DUP1 REVERT JUMPDEST PUSH1 0x0 JUMPDEST DUP4 MLOAD DUP2 LT ISZERO PUSH2 0x729 JUMPI DUP5 PUSH1 0x1 PUSH1 0x1 PUSH1 0xA0 SHL SUB AND PUSH4 0xA9059CBB DUP6 DUP4 DUP2 MLOAD DUP2 LT PUSH2 0x678 JUMPI PUSH2 0x678 PUSH2 0xDF4 JUMP JUMPDEST PUSH1 0x20 MUL PUSH1 0x20 ADD ADD MLOAD DUP6 DUP5 DUP2 MLOAD DUP2 LT PUSH2 0x692 JUMPI PUSH2 0x692 PUSH2 0xDF4 JUMP JUMPDEST PUSH1 0x20 MUL PUSH1 0x20 ADD ADD MLOAD PUSH1 0x40 MLOAD DUP4 PUSH4 0xFFFFFFFF AND PUSH1 0xE0 SHL DUP2 MSTORE PUSH1 0x4 ADD PUSH2 0x6CB SWAP3 SWAP2 SWAP1 PUSH1 0x1 PUSH1 0x1 PUSH1 0xA0 SHL SUB SWAP3 SWAP1 SWAP3 AND DUP3 MSTORE PUSH1 0x20 DUP3 ADD MSTORE PUSH1 0x40 ADD SWAP1 JUMP JUMPDEST PUSH1 0x20 PUSH1 0x40 MLOAD DUP1 DUP4 SUB DUP2 PUSH1 0x0 DUP8 GAS CALL ISZERO DUP1 ISZERO PUSH2 0x6EA JUMPI RETURNDATASIZE PUSH1 0x0 DUP1 RETURNDATACOPY RETURNDATASIZE PUSH1 0x0 REVERT JUMPDEST POP POP POP POP PUSH1 0x40 MLOAD RETURNDATASIZE PUSH1 0x1F NOT PUSH1 0x1F DUP3 ADD AND DUP3 ADD DUP1 PUSH1 0x40 MSTORE POP DUP2 ADD SWAP1 PUSH2 0x70E SWAP2 SWAP1 PUSH2 0xE23 JUMP JUMPDEST PUSH2 0x717 JUMPI PUSH1 0x0 DUP1 REVERT JUMPDEST DUP1 PUSH2 0x721 DUP2 PUSH2 0xE0A JUMP JUMPDEST SWAP2 POP POP PUSH2 0x64E JUMP JUMPDEST POP POP POP POP POP JUMP JUMPDEST CALLER PUSH1 0x0 SWAP1 DUP2 MSTORE PUSH1 0x4 PUSH1 0x20 MSTORE PUSH1 0x40 SWAP1 KECCAK256 SLOAD PUSH1 0xFF AND ISZERO DUP1 PUSH2 0x7BB JUMPI POP PUSH1 0x6 SLOAD PUSH1 0x5 SLOAD PUSH1 0x40 MLOAD PUSH4 0x70A08231 PUSH1 0xE0 SHL DUP2 MSTORE CALLER PUSH1 0x4 DUP3 ADD MSTORE PUSH1 0x1 PUSH1 0x1 PUSH1 0xA0 SHL SUB SWAP1 SWAP2 AND SWAP1 PUSH4 0x70A08231 SWAP1 PUSH1 0x24 ADD PUSH1 0x20 PUSH1 0x40 MLOAD DUP1 DUP4 SUB DUP2 DUP7 GAS STATICCALL ISZERO DUP1 ISZERO PUSH2 0x795 JUMPI RETURNDATASIZE PUSH1 0x0 DUP1 RETURNDATACOPY RETURNDATASIZE PUSH1 0x0 REVERT JUMPDEST POP POP POP POP PUSH1 0x40 MLOAD RETURNDATASIZE PUSH1 0x1F NOT PUSH1 0x1F DUP3 ADD AND DUP3 ADD DUP1 PUSH1 0x40 MSTORE POP DUP2 ADD SWAP1 PUSH2 0x7B9 SWAP2 SWAP1 PUSH2 0xDAC JUMP JUMPDEST LT JUMPDEST ISZERO PUSH2 0x88F JUMPI PUSH1 0x1 SLOAD CALLVALUE LT ISZERO PUSH2 0x838 JUMPI PUSH1 0x40 MLOAD PUSH3 0x461BCD PUSH1 0xE5 SHL DUP2 MSTORE PUSH1 0x20 PUSH1 0x4 DUP3 ADD MSTORE PUSH1 0x3B PUSH1 0x24 DUP3 ADD MSTORE PUSH32 0x596F75206861766520746F207061792066656520746F2075736520536E697065 PUSH1 0x44 DUP3 ADD MSTORE PUSH32 0x46696E616E6365204D756C74692062756C6B2066756E6374696F6E0000000000 PUSH1 0x64 DUP3 ADD MSTORE PUSH1 0x84 ADD PUSH2 0x524 JUMP JUMPDEST PUSH1 0x1 SLOAD PUSH1 0x3 PUSH1 0x0 DUP3 DUP3 SLOAD PUSH2 0x84C SWAP2 SWAP1 PUSH2 0xDDB JUMP JUMPDEST SWAP1 SWAP2 SSTORE POP POP PUSH1 0x2 SLOAD PUSH1 0x1 SLOAD PUSH1 0x40 MLOAD PUSH1 0x1 PUSH1 0x1 PUSH1 0xA0 SHL SUB SWAP1 SWAP3 AND SWAP2 DUP2 ISZERO PUSH2 0x8FC MUL SWAP2 SWAP1 PUSH1 0x0 DUP2 DUP2 DUP2 DUP6 DUP9 DUP9 CALL SWAP4 POP POP POP POP ISZERO DUP1 ISZERO PUSH2 0x88D JUMPI RETURNDATASIZE PUSH1 0x0 DUP1 RETURNDATACOPY RETURNDATASIZE PUSH1 0x0 REVERT JUMPDEST POP JUMPDEST PUSH1 0x0 JUMPDEST DUP3 MLOAD DUP2 LT ISZERO PUSH2 0x919 JUMPI DUP3 DUP2 DUP2 MLOAD DUP2 LT PUSH2 0x8AD JUMPI PUSH2 0x8AD PUSH2 0xDF4 JUMP JUMPDEST PUSH1 0x20 MUL PUSH1 0x20 ADD ADD MLOAD PUSH1 0x1 PUSH1 0x1 PUSH1 0xA0 SHL SUB AND PUSH2 0x8FC DUP4 DUP4 DUP2 MLOAD DUP2 LT PUSH2 0x8D3 JUMPI PUSH2 0x8D3 PUSH2 0xDF4 JUMP JUMPDEST PUSH1 0x20 MUL PUSH1 0x20 ADD ADD MLOAD SWAP1 DUP2 ISZERO MUL SWAP1 PUSH1 0x40 MLOAD PUSH1 0x0 PUSH1 0x40 MLOAD DUP1 DUP4 SUB DUP2 DUP6 DUP9 DUP9 CALL SWAP4 POP POP POP POP ISZERO DUP1 ISZERO PUSH2 0x906 JUMPI RETURNDATASIZE PUSH1 0x0 DUP1 RETURNDATACOPY RETURNDATASIZE PUSH1 0x0 REVERT JUMPDEST POP DUP1 PUSH2 0x911 DUP2 PUSH2 0xE0A JUMP JUMPDEST SWAP2 POP POP PUSH2 0x892 JUMP JUMPDEST POP SELFBALANCE DUP1 ISZERO PUSH2 0x950 JUMPI PUSH1 0x40 MLOAD CALLER SWAP1 DUP3 ISZERO PUSH2 0x8FC MUL SWAP1 DUP4 SWAP1 PUSH1 0x0 DUP2 DUP2 DUP2 DUP6 DUP9 DUP9 CALL SWAP4 POP POP POP POP ISZERO DUP1 ISZERO PUSH2 0x94E JUMPI RETURNDATASIZE PUSH1 0x0 DUP1 RETURNDATACOPY RETURNDATASIZE PUSH1 0x0 REVERT JUMPDEST POP JUMPDEST POP POP POP JUMP JUMPDEST PUSH2 0x95D PUSH2 0xA1D JUMP JUMPDEST PUSH1 0x1 PUSH1 0x1 PUSH1 0xA0 SHL SUB DUP2 AND PUSH2 0x9C2 JUMPI PUSH1 0x40 MLOAD PUSH3 0x461BCD PUSH1 0xE5 SHL DUP2 MSTORE PUSH1 0x20 PUSH1 0x4 DUP3 ADD MSTORE PUSH1 0x26 PUSH1 0x24 DUP3 ADD MSTORE PUSH32 0x4F776E61626C653A206E6577206F776E657220697320746865207A65726F2061 PUSH1 0x44 DUP3 ADD MSTORE PUSH6 0x646472657373 PUSH1 0xD0 SHL PUSH1 0x64 DUP3 ADD MSTORE PUSH1 0x84 ADD PUSH2 0x524 JUMP JUMPDEST PUSH2 0x3D4 DUP2 PUSH2 0xA77 JUMP JUMPDEST PUSH2 0x9D3 PUSH2 0xA1D JUMP JUMPDEST PUSH1 0x1 PUSH1 0x1 PUSH1 0xA0 SHL SUB DUP3 AND PUSH1 0x0 SWAP1 DUP2 MSTORE PUSH1 0x4 PUSH1 0x20 MSTORE PUSH1 0x40 SWAP1 KECCAK256 SLOAD PUSH1 0xFF AND ISZERO PUSH2 0xA19 JUMPI PUSH1 0x1 PUSH1 0x1 PUSH1 0xA0 SHL SUB DUP3 AND PUSH1 0x0 SWAP1 DUP2 MSTORE PUSH1 0x4 PUSH1 0x20 MSTORE PUSH1 0x40 SWAP1 KECCAK256 DUP1 SLOAD PUSH1 0xFF NOT AND DUP3 ISZERO ISZERO OR SWAP1 SSTORE JUMPDEST POP POP JUMP JUMPDEST PUSH1 0x0 SLOAD PUSH1 0x1 PUSH1 0x1 PUSH1 0xA0 SHL SUB AND CALLER EQ PUSH2 0x3D6 JUMPI PUSH1 0x40 MLOAD PUSH3 0x461BCD PUSH1 0xE5 SHL DUP2 MSTORE PUSH1 0x20 PUSH1 0x4 DUP3 ADD DUP2 SWAP1 MSTORE PUSH1 0x24 DUP3 ADD MSTORE PUSH32 0x4F776E61626C653A2063616C6C6572206973206E6F7420746865206F776E6572 PUSH1 0x44 DUP3 ADD MSTORE PUSH1 0x64 ADD PUSH2 0x524 JUMP JUMPDEST PUSH1 0x0 DUP1 SLOAD PUSH1 0x1 PUSH1 0x1 PUSH1 0xA0 SHL SUB DUP4 DUP2 AND PUSH1 0x1 PUSH1 0x1 PUSH1 0xA0 SHL SUB NOT DUP4 AND DUP2 OR DUP5 SSTORE PUSH1 0x40 MLOAD SWAP2 SWAP1 SWAP3 AND SWAP3 DUP4 SWAP2 PUSH32 0x8BE0079C531659141344CD1FD0A4F28419497F9722A3DAAFE3B4186F6B6457E0 SWAP2 SWAP1 LOG3 POP POP JUMP JUMPDEST PUSH1 0x1 PUSH1 0x1 PUSH1 0xA0 SHL SUB DUP2 AND DUP2 EQ PUSH2 0x3D4 JUMPI PUSH1 0x0 DUP1 REVERT JUMPDEST PUSH1 0x0 DUP1 PUSH1 0x40 DUP4 DUP6 SUB SLT ISZERO PUSH2 0xAEF JUMPI PUSH1 0x0 DUP1 REVERT JUMPDEST DUP3 CALLDATALOAD SWAP2 POP PUSH1 0x20 DUP4 ADD CALLDATALOAD PUSH2 0xB01 DUP2 PUSH2 0xAC7 JUMP JUMPDEST DUP1 SWAP2 POP POP SWAP3 POP SWAP3 SWAP1 POP JUMP JUMPDEST PUSH1 0x0 DUP1 PUSH1 0x40 DUP4 DUP6 SUB SLT ISZERO PUSH2 0xB1F JUMPI PUSH1 0x0 DUP1 REVERT JUMPDEST DUP3 CALLDATALOAD PUSH2 0xB2A DUP2 PUSH2 0xAC7 JUMP JUMPDEST SWAP5 PUSH1 0x20 SWAP4 SWAP1 SWAP4 ADD CALLDATALOAD SWAP4 POP POP POP JUMP JUMPDEST PUSH1 0x0 PUSH1 0x20 DUP3 DUP5 SUB SLT ISZERO PUSH2 0xB4A JUMPI PUSH1 0x0 DUP1 REVERT JUMPDEST DUP2 CALLDATALOAD PUSH2 0xB55 DUP2 PUSH2 0xAC7 JUMP JUMPDEST SWAP4 SWAP3 POP POP POP JUMP JUMPDEST PUSH4 0x4E487B71 PUSH1 0xE0 SHL PUSH1 0x0 MSTORE PUSH1 0x41 PUSH1 0x4 MSTORE PUSH1 0x24 PUSH1 0x0 REVERT JUMPDEST PUSH1 0x40 MLOAD PUSH1 0x1F DUP3 ADD PUSH1 0x1F NOT AND DUP2 ADD PUSH8 0xFFFFFFFFFFFFFFFF DUP2 GT DUP3 DUP3 LT OR ISZERO PUSH2 0xB9B JUMPI PUSH2 0xB9B PUSH2 0xB5C JUMP JUMPDEST PUSH1 0x40 MSTORE SWAP2 SWAP1 POP JUMP JUMPDEST PUSH1 0x0 PUSH8 0xFFFFFFFFFFFFFFFF DUP3 GT ISZERO PUSH2 0xBBD JUMPI PUSH2 0xBBD PUSH2 0xB5C JUMP JUMPDEST POP PUSH1 0x5 SHL PUSH1 0x20 ADD SWAP1 JUMP JUMPDEST PUSH1 0x0 DUP3 PUSH1 0x1F DUP4 ADD SLT PUSH2 0xBD8 JUMPI PUSH1 0x0 DUP1 REVERT JUMPDEST DUP2 CALLDATALOAD PUSH1 0x20 PUSH2 0xBED PUSH2 0xBE8 DUP4 PUSH2 0xBA3 JUMP JUMPDEST PUSH2 0xB72 JUMP JUMPDEST DUP3 DUP2 MSTORE PUSH1 0x5 SWAP3 SWAP1 SWAP3 SHL DUP5 ADD DUP2 ADD SWAP2 DUP2 DUP2 ADD SWAP1 DUP7 DUP5 GT ISZERO PUSH2 0xC0C JUMPI PUSH1 0x0 DUP1 REVERT JUMPDEST DUP3 DUP7 ADD JUMPDEST DUP5 DUP2 LT ISZERO PUSH2 0xC30 JUMPI DUP1 CALLDATALOAD PUSH2 0xC23 DUP2 PUSH2 0xAC7 JUMP JUMPDEST DUP4 MSTORE SWAP2 DUP4 ADD SWAP2 DUP4 ADD PUSH2 0xC10 JUMP JUMPDEST POP SWAP7 SWAP6 POP POP POP POP POP POP JUMP JUMPDEST PUSH1 0x0 DUP3 PUSH1 0x1F DUP4 ADD SLT PUSH2 0xC4C JUMPI PUSH1 0x0 DUP1 REVERT JUMPDEST DUP2 CALLDATALOAD PUSH1 0x20 PUSH2 0xC5C PUSH2 0xBE8 DUP4 PUSH2 0xBA3 JUMP JUMPDEST DUP3 DUP2 MSTORE PUSH1 0x5 SWAP3 SWAP1 SWAP3 SHL DUP5 ADD DUP2 ADD SWAP2 DUP2 DUP2 ADD SWAP1 DUP7 DUP5 GT ISZERO PUSH2 0xC7B JUMPI PUSH1 0x0 DUP1 REVERT JUMPDEST DUP3 DUP7 ADD JUMPDEST DUP5 DUP2 LT ISZERO PUSH2 0xC30 JUMPI DUP1 CALLDATALOAD DUP4 MSTORE SWAP2 DUP4 ADD SWAP2 DUP4 ADD PUSH2 0xC7F JUMP JUMPDEST PUSH1 0x0 DUP1 PUSH1 0x0 PUSH1 0x60 DUP5 DUP7 SUB SLT ISZERO PUSH2 0xCAB JUMPI PUSH1 0x0 DUP1 REVERT JUMPDEST DUP4 CALLDATALOAD PUSH2 0xCB6 DUP2 PUSH2 0xAC7 JUMP JUMPDEST SWAP3 POP PUSH1 0x20 DUP5 ADD CALLDATALOAD PUSH8 0xFFFFFFFFFFFFFFFF DUP1 DUP3 GT ISZERO PUSH2 0xCD3 JUMPI PUSH1 0x0 DUP1 REVERT JUMPDEST PUSH2 0xCDF DUP8 DUP4 DUP9 ADD PUSH2 0xBC7 JUMP JUMPDEST SWAP4 POP PUSH1 0x40 DUP7 ADD CALLDATALOAD SWAP2 POP DUP1 DUP3 GT ISZERO PUSH2 0xCF5 JUMPI PUSH1 0x0 DUP1 REVERT JUMPDEST POP PUSH2 0xD02 DUP7 DUP3 DUP8 ADD PUSH2 0xC3B JUMP JUMPDEST SWAP2 POP POP SWAP3 POP SWAP3 POP SWAP3 JUMP JUMPDEST PUSH1 0x0 DUP1 PUSH1 0x40 DUP4 DUP6 SUB SLT ISZERO PUSH2 0xD1F JUMPI PUSH1 0x0 DUP1 REVERT JUMPDEST DUP3 CALLDATALOAD PUSH8 0xFFFFFFFFFFFFFFFF DUP1 DUP3 GT ISZERO PUSH2 0xD37 JUMPI PUSH1 0x0 DUP1 REVERT JUMPDEST PUSH2 0xD43 DUP7 DUP4 DUP8 ADD PUSH2 0xBC7 JUMP JUMPDEST SWAP4 POP PUSH1 0x20 DUP6 ADD CALLDATALOAD SWAP2 POP DUP1 DUP3 GT ISZERO PUSH2 0xD59 JUMPI PUSH1 0x0 DUP1 REVERT JUMPDEST POP PUSH2 0xD66 DUP6 DUP3 DUP7 ADD PUSH2 0xC3B JUMP JUMPDEST SWAP2 POP POP SWAP3 POP SWAP3 SWAP1 POP JUMP JUMPDEST DUP1 ISZERO ISZERO DUP2 EQ PUSH2 0x3D4 JUMPI PUSH1 0x0 DUP1 REVERT JUMPDEST PUSH1 0x0 DUP1 PUSH1 0x40 DUP4 DUP6 SUB SLT ISZERO PUSH2 0xD91 JUMPI PUSH1 0x0 DUP1 REVERT JUMPDEST DUP3 CALLDATALOAD PUSH2 0xD9C DUP2 PUSH2 0xAC7 JUMP JUMPDEST SWAP2 POP PUSH1 0x20 DUP4 ADD CALLDATALOAD PUSH2 0xB01 DUP2 PUSH2 0xD70 JUMP JUMPDEST PUSH1 0x0 PUSH1 0x20 DUP3 DUP5 SUB SLT ISZERO PUSH2 0xDBE JUMPI PUSH1 0x0 DUP1 REVERT JUMPDEST POP MLOAD SWAP2 SWAP1 POP JUMP JUMPDEST PUSH4 0x4E487B71 PUSH1 0xE0 SHL PUSH1 0x0 MSTORE PUSH1 0x11 PUSH1 0x4 MSTORE PUSH1 0x24 PUSH1 0x0 REVERT JUMPDEST DUP1 DUP3 ADD DUP1 DUP3 GT ISZERO PUSH2 0xDEE JUMPI PUSH2 0xDEE PUSH2 0xDC5 JUMP JUMPDEST SWAP3 SWAP2 POP POP JUMP JUMPDEST PUSH4 0x4E487B71 PUSH1 0xE0 SHL PUSH1 0x0 MSTORE PUSH1 0x32 PUSH1 0x4 MSTORE PUSH1 0x24 PUSH1 0x0 REVERT JUMPDEST PUSH1 0x0 PUSH1 0x1 DUP3 ADD PUSH2 0xE1C JUMPI PUSH2 0xE1C PUSH2 0xDC5 JUMP JUMPDEST POP PUSH1 0x1 ADD SWAP1 JUMP JUMPDEST PUSH1 0x0 PUSH1 0x20 DUP3 DUP5 SUB SLT ISZERO PUSH2 0xE35 JUMPI PUSH1 0x0 DUP1 REVERT JUMPDEST DUP2 MLOAD PUSH2 0xB55 DUP2 PUSH2 0xD70 JUMP INVALID LOG2 PUSH5 0x6970667358 0x22 SLT KECCAK256 0xC2 0xD0 SWAP4 SHR GAS PUSH11 0x6D9E96072DEC2B8FC798C6 PUSH26 0x5A3D767A147D6FB23CB79E66722064736F6C6343000810003300 "
				},
				"gasEstimates": {
					"creation": {
						"codeDepositCost": "740400",
						"executionCost": "75089",
						"totalCost": "815489"
					},
					"external": {
						"BNBmultisender(address[],uint256[])": "infinite",
						"SetTokenToholdAndQuantity(address,uint256)": "infinite",
						"TOKENmultisender(address,address[],uint256[])": "infinite",
						"authorizeToUse(address)": "infinite",
						"authorizedusers(address)": "2571",
						"fee()": "2306",
						"feeamounts()": "2329",
						"owner()": "2354",
						"quantity()": "2330",
						"readAuthorizedUsers(address)": "2633",
						"receiver()": "2425",
						"renounceOwnership()": "infinite",
						"setauthor(address,bool)": "infinite",
						"setfeeToUse(uint256,address)": "infinite",
						"tokenaddress()": "2360",
						"transferOwnership(address)": "infinite",
						"withdraw()": "infinite"
					}
				},
				"methodIdentifiers": {
					"BNBmultisender(address[],uint256[])": "e3cec849",
					"SetTokenToholdAndQuantity(address,uint256)": "2fc75eb0",
					"TOKENmultisender(address,address[],uint256[])": "9cbd3433",
					"authorizeToUse(address)": "4b4fb1b0",
					"authorizedusers(address)": "44b6209d",
					"fee()": "ddca3f43",
					"feeamounts()": "9c8b9e7b",
					"owner()": "8da5cb5b",
					"quantity()": "17fc45e2",
					"readAuthorizedUsers(address)": "a4df0256",
					"receiver()": "f7260d3e",
					"renounceOwnership()": "715018a6",
					"setauthor(address,bool)": "fb520af2",
					"setfeeToUse(uint256,address)": "126ccd94",
					"tokenaddress()": "3feff76d",
					"transferOwnership(address)": "f2fde38b",
					"withdraw()": "3ccfd60b"
				}
			},
			"storageLayout": {
				"storage": [
					{
						"astId": 7,
						"contract": "SnipeFinanceMultisenders/SnipeFinanceMultisenders.sol:SnipeFinanceMultisenders",
						"label": "_owner",
						"offset": 0,
						"slot": "0",
						"type": "t_address"
					},
					{
						"astId": 172,
						"contract": "SnipeFinanceMultisenders/SnipeFinanceMultisenders.sol:SnipeFinanceMultisenders",
						"label": "fee",
						"offset": 0,
						"slot": "1",
						"type": "t_uint256"
					},
					{
						"astId": 174,
						"contract": "SnipeFinanceMultisenders/SnipeFinanceMultisenders.sol:SnipeFinanceMultisenders",
						"label": "receiver",
						"offset": 0,
						"slot": "2",
						"type": "t_address_payable"
					},
					{
						"astId": 176,
						"contract": "SnipeFinanceMultisenders/SnipeFinanceMultisenders.sol:SnipeFinanceMultisenders",
						"label": "feeamounts",
						"offset": 0,
						"slot": "3",
						"type": "t_uint256"
					},
					{
						"astId": 180,
						"contract": "SnipeFinanceMultisenders/SnipeFinanceMultisenders.sol:SnipeFinanceMultisenders",
						"label": "authorizedusers",
						"offset": 0,
						"slot": "4",
						"type": "t_mapping(t_address,t_bool)"
					},
					{
						"astId": 183,
						"contract": "SnipeFinanceMultisenders/SnipeFinanceMultisenders.sol:SnipeFinanceMultisenders",
						"label": "tokenaddress",
						"offset": 0,
						"slot": "5",
						"type": "t_contract(IBEP20)164"
					},
					{
						"astId": 185,
						"contract": "SnipeFinanceMultisenders/SnipeFinanceMultisenders.sol:SnipeFinanceMultisenders",
						"label": "quantity",
						"offset": 0,
						"slot": "6",
						"type": "t_uint256"
					}
				],
				"types": {
					"t_address": {
						"encoding": "inplace",
						"label": "address",
						"numberOfBytes": "20"
					},
					"t_address_payable": {
						"encoding": "inplace",
						"label": "address payable",
						"numberOfBytes": "20"
					},
					"t_bool": {
						"encoding": "inplace",
						"label": "bool",
						"numberOfBytes": "1"
					},
					"t_contract(IBEP20)164": {
						"encoding": "inplace",
						"label": "contract IBEP20",
						"numberOfBytes": "20"
					},
					"t_mapping(t_address,t_bool)": {
						"encoding": "mapping",
						"key": "t_address",
						"label": "mapping(address => bool)",
						"numberOfBytes": "32",
						"value": "t_bool"
					},
					"t_uint256": {
						"encoding": "inplace",
						"label": "uint256",
						"numberOfBytes": "32"
					}
				}
			},
			"userdoc": {
				"kind": "user",
				"methods": {},
				"version": 1
			}
		}
	}
}