{
	"SnipeFinanceMultisenders (2)/SnipeFinanceMultisenders/SnipeFinanceMultisenders_flattened.sol": {
		"SnipeFinanceMultisenders": {
			"abi": [
				{
					"inputs": [],
					"stateMutability": "nonpayable",
					"type": "constructor"
				},
				{
					"anonymous": false,
					"inputs": [
						{
							"indexed": true,
							"internalType": "address",
							"name": "previousOwner",
							"type": "address"
						},
						{
							"indexed": true,
							"internalType": "address",
							"name": "newOwner",
							"type": "address"
						}
					],
					"name": "OwnershipTransferred",
					"type": "event"
				},
				{
					"inputs": [
						{
							"internalType": "contract IERC20",
							"name": "token",
							"type": "address"
						},
						{
							"internalType": "uint256",
							"name": "_amount",
							"type": "uint256"
						}
					],
					"name": "SetTokenToholdAndQuantity",
					"outputs": [],
					"stateMutability": "nonpayable",
					"type": "function"
				},
				{
					"inputs": [
						{
							"internalType": "contract IERC20",
							"name": "token",
							"type": "address"
						},
						{
							"internalType": "address[]",
							"name": "recipients",
							"type": "address[]"
						},
						{
							"internalType": "uint256[]",
							"name": "values",
							"type": "uint256[]"
						}
					],
					"name": "TOKENmultisender",
					"outputs": [],
					"stateMutability": "payable",
					"type": "function"
				},
				{
					"inputs": [
						{
							"internalType": "address",
							"name": "user",
							"type": "address"
						}
					],
					"name": "authorizeUser",
					"outputs": [],
					"stateMutability": "nonpayable",
					"type": "function"
				},
				{
					"inputs": [
						{
							"internalType": "address",
							"name": "",
							"type": "address"
						}
					],
					"name": "authorizedusers",
					"outputs": [
						{
							"internalType": "bool",
							"name": "",
							"type": "bool"
						}
					],
					"stateMutability": "view",
					"type": "function"
				},
				{
					"inputs": [
						{
							"internalType": "address[]",
							"name": "recipients",
							"type": "address[]"
						},
						{
							"internalType": "uint256[]",
							"name": "values",
							"type": "uint256[]"
						}
					],
					"name": "coinMultisender",
					"outputs": [],
					"stateMutability": "payable",
					"type": "function"
				},
				{
					"inputs": [],
					"name": "contractBalance",
					"outputs": [
						{
							"internalType": "uint256",
							"name": "",
							"type": "uint256"
						}
					],
					"stateMutability": "view",
					"type": "function"
				},
				{
					"inputs": [],
					"name": "fee",
					"outputs": [
						{
							"internalType": "uint256",
							"name": "",
							"type": "uint256"
						}
					],
					"stateMutability": "view",
					"type": "function"
				},
				{
					"inputs": [],
					"name": "owner",
					"outputs": [
						{
							"internalType": "address",
							"name": "",
							"type": "address"
						}
					],
					"stateMutability": "view",
					"type": "function"
				},
				{
					"inputs": [],
					"name": "quantity",
					"outputs": [
						{
							"internalType": "uint256",
							"name": "",
							"type": "uint256"
						}
					],
					"stateMutability": "view",
					"type": "function"
				},
				{
					"inputs": [],
					"name": "receiver",
					"outputs": [
						{
							"internalType": "address payable",
							"name": "",
							"type": "address"
						}
					],
					"stateMutability": "view",
					"type": "function"
				},
				{
					"inputs": [],
					"name": "renounceOwnership",
					"outputs": [],
					"stateMutability": "nonpayable",
					"type": "function"
				},
				{
					"inputs": [
						{
							"internalType": "uint256",
							"name": "newfee",
							"type": "uint256"
						},
						{
							"internalType": "address",
							"name": "_receiver",
							"type": "address"
						}
					],
					"name": "setfeeToUse",
					"outputs": [],
					"stateMutability": "nonpayable",
					"type": "function"
				},
				{
					"inputs": [],
					"name": "tokenAddress",
					"outputs": [
						{
							"internalType": "contract IERC20",
							"name": "",
							"type": "address"
						}
					],
					"stateMutability": "view",
					"type": "function"
				},
				{
					"inputs": [
						{
							"internalType": "address",
							"name": "newOwner",
							"type": "address"
						}
					],
					"name": "transferOwnership",
					"outputs": [],
					"stateMutability": "nonpayable",
					"type": "function"
				},
				{
					"inputs": [
						{
							"internalType": "address",
							"name": "user",
							"type": "address"
						}
					],
					"name": "unauthorizeUser",
					"outputs": [],
					"stateMutability": "nonpayable",
					"type": "function"
				},
				{
					"inputs": [
						{
							"internalType": "uint256",
							"name": "amount",
							"type": "uint256"
						}
					],
					"name": "withdrawCoins",
					"outputs": [],
					"stateMutability": "nonpayable",
					"type": "function"
				},
				{
					"inputs": [
						{
							"internalType": "contract IERC20",
							"name": "token",
							"type": "address"
						},
						{
							"internalType": "uint256",
							"name": "amount",
							"type": "uint256"
						}
					],
					"name": "withdrawToken",
					"outputs": [],
					"stateMutability": "nonpayable",
					"type": "function"
				},
				{
					"stateMutability": "payable",
					"type": "receive"
				}
			],
			"devdoc": {
				"kind": "dev",
				"methods": {
					"owner()": {
						"details": "Returns the address of the current owner."
					},
					"renounceOwnership()": {
						"details": "Leaves the contract without owner. It will not be possible to call `onlyOwner` functions. Can only be called by the current owner. NOTE: Renouncing ownership will leave the contract without an owner, thereby disabling any functionality that is only available to the owner."
					},
					"transferOwnership(address)": {
						"details": "Transfers ownership of the contract to a new account (`newOwner`). Can only be called by the current owner."
					}
				},
				"version": 1
			},
			"evm": {
				"assembly": "    /* \"SnipeFinanceMultisenders (2)/SnipeFinanceMultisenders/SnipeFinanceMultisenders_flattened.sol\":16035:22693  contract SnipeFinanceMultisenders is Ownable {... */\n  mstore(0x40, 0x80)\n    /* \"SnipeFinanceMultisenders (2)/SnipeFinanceMultisenders/SnipeFinanceMultisenders_flattened.sol\":16426:16510  constructor() {... */\n  callvalue\n  dup1\n  iszero\n  tag_1\n  jumpi\n  0x00\n  dup1\n  revert\ntag_1:\n  pop\n    /* \"SnipeFinanceMultisenders (2)/SnipeFinanceMultisenders/SnipeFinanceMultisenders_flattened.sol\":11180:11212  _transferOwnership(_msgSender()) */\n  tag_5\n    /* \"SnipeFinanceMultisenders (2)/SnipeFinanceMultisenders/SnipeFinanceMultisenders_flattened.sol\":11199:11211  _msgSender() */\n  tag_6\n    /* \"SnipeFinanceMultisenders (2)/SnipeFinanceMultisenders/SnipeFinanceMultisenders_flattened.sol\":11199:11209  _msgSender */\n  shl(0x20, tag_7)\n    /* \"SnipeFinanceMultisenders (2)/SnipeFinanceMultisenders/SnipeFinanceMultisenders_flattened.sol\":11199:11211  _msgSender() */\n  0x20\n  shr\n  jump\t// in\ntag_6:\n    /* \"SnipeFinanceMultisenders (2)/SnipeFinanceMultisenders/SnipeFinanceMultisenders_flattened.sol\":11180:11198  _transferOwnership */\n  shl(0x20, tag_8)\n    /* \"SnipeFinanceMultisenders (2)/SnipeFinanceMultisenders/SnipeFinanceMultisenders_flattened.sol\":11180:11212  _transferOwnership(_msgSender()) */\n  0x20\n  shr\n  jump\t// in\ntag_5:\n    /* \"SnipeFinanceMultisenders (2)/SnipeFinanceMultisenders/SnipeFinanceMultisenders_flattened.sol\":16469:16476  owner() */\n  tag_10\n    /* \"SnipeFinanceMultisenders (2)/SnipeFinanceMultisenders/SnipeFinanceMultisenders_flattened.sol\":16469:16474  owner */\n  shl(0x20, tag_11)\n    /* \"SnipeFinanceMultisenders (2)/SnipeFinanceMultisenders/SnipeFinanceMultisenders_flattened.sol\":16469:16476  owner() */\n  0x20\n  shr\n  jump\t// in\ntag_10:\n    /* \"SnipeFinanceMultisenders (2)/SnipeFinanceMultisenders/SnipeFinanceMultisenders_flattened.sol\":16450:16458  receiver */\n  0x02\n  0x00\n    /* \"SnipeFinanceMultisenders (2)/SnipeFinanceMultisenders/SnipeFinanceMultisenders_flattened.sol\":16450:16477  receiver = payable(owner()) */\n  0x0100\n  exp\n  dup2\n  sload\n  dup2\n  0xffffffffffffffffffffffffffffffffffffffff\n  mul\n  not\n  and\n  swap1\n  dup4\n  0xffffffffffffffffffffffffffffffffffffffff\n  and\n  mul\n  or\n  swap1\n  sstore\n  pop\n    /* \"SnipeFinanceMultisenders (2)/SnipeFinanceMultisenders/SnipeFinanceMultisenders_flattened.sol\":16493:16503  1 * 10**14 */\n  0x5af3107a4000\n    /* \"SnipeFinanceMultisenders (2)/SnipeFinanceMultisenders/SnipeFinanceMultisenders_flattened.sol\":16487:16490  fee */\n  0x01\n    /* \"SnipeFinanceMultisenders (2)/SnipeFinanceMultisenders/SnipeFinanceMultisenders_flattened.sol\":16487:16503  fee = 1 * 10**14 */\n  dup2\n  swap1\n  sstore\n  pop\n    /* \"SnipeFinanceMultisenders (2)/SnipeFinanceMultisenders/SnipeFinanceMultisenders_flattened.sol\":16035:22693  contract SnipeFinanceMultisenders is Ownable {... */\n  jump(tag_12)\n    /* \"SnipeFinanceMultisenders (2)/SnipeFinanceMultisenders/SnipeFinanceMultisenders_flattened.sol\":10048:10144  function _msgSender() internal view virtual returns (address) {... */\ntag_7:\n    /* \"SnipeFinanceMultisenders (2)/SnipeFinanceMultisenders/SnipeFinanceMultisenders_flattened.sol\":10101:10108  address */\n  0x00\n    /* \"SnipeFinanceMultisenders (2)/SnipeFinanceMultisenders/SnipeFinanceMultisenders_flattened.sol\":10127:10137  msg.sender */\n  caller\n    /* \"SnipeFinanceMultisenders (2)/SnipeFinanceMultisenders/SnipeFinanceMultisenders_flattened.sol\":10120:10137  return msg.sender */\n  swap1\n  pop\n    /* \"SnipeFinanceMultisenders (2)/SnipeFinanceMultisenders/SnipeFinanceMultisenders_flattened.sol\":10048:10144  function _msgSender() internal view virtual returns (address) {... */\n  swap1\n  jump\t// out\n    /* \"SnipeFinanceMultisenders (2)/SnipeFinanceMultisenders/SnipeFinanceMultisenders_flattened.sol\":12670:12857  function _transferOwnership(address newOwner) internal virtual {... */\ntag_8:\n    /* \"SnipeFinanceMultisenders (2)/SnipeFinanceMultisenders/SnipeFinanceMultisenders_flattened.sol\":12743:12759  address oldOwner */\n  0x00\n    /* \"SnipeFinanceMultisenders (2)/SnipeFinanceMultisenders/SnipeFinanceMultisenders_flattened.sol\":12762:12768  _owner */\n  dup1\n  0x00\n  swap1\n  sload\n  swap1\n  0x0100\n  exp\n  swap1\n  div\n  0xffffffffffffffffffffffffffffffffffffffff\n  and\n    /* \"SnipeFinanceMultisenders (2)/SnipeFinanceMultisenders/SnipeFinanceMultisenders_flattened.sol\":12743:12768  address oldOwner = _owner */\n  swap1\n  pop\n    /* \"SnipeFinanceMultisenders (2)/SnipeFinanceMultisenders/SnipeFinanceMultisenders_flattened.sol\":12787:12795  newOwner */\n  dup2\n    /* \"SnipeFinanceMultisenders (2)/SnipeFinanceMultisenders/SnipeFinanceMultisenders_flattened.sol\":12778:12784  _owner */\n  0x00\n  dup1\n    /* \"SnipeFinanceMultisenders (2)/SnipeFinanceMultisenders/SnipeFinanceMultisenders_flattened.sol\":12778:12795  _owner = newOwner */\n  0x0100\n  exp\n  dup2\n  sload\n  dup2\n  0xffffffffffffffffffffffffffffffffffffffff\n  mul\n  not\n  and\n  swap1\n  dup4\n  0xffffffffffffffffffffffffffffffffffffffff\n  and\n  mul\n  or\n  swap1\n  sstore\n  pop\n    /* \"SnipeFinanceMultisenders (2)/SnipeFinanceMultisenders/SnipeFinanceMultisenders_flattened.sol\":12841:12849  newOwner */\n  dup2\n    /* \"SnipeFinanceMultisenders (2)/SnipeFinanceMultisenders/SnipeFinanceMultisenders_flattened.sol\":12810:12850  OwnershipTransferred(oldOwner, newOwner) */\n  0xffffffffffffffffffffffffffffffffffffffff\n  and\n    /* \"SnipeFinanceMultisenders (2)/SnipeFinanceMultisenders/SnipeFinanceMultisenders_flattened.sol\":12831:12839  oldOwner */\n  dup2\n    /* \"SnipeFinanceMultisenders (2)/SnipeFinanceMultisenders/SnipeFinanceMultisenders_flattened.sol\":12810:12850  OwnershipTransferred(oldOwner, newOwner) */\n  0xffffffffffffffffffffffffffffffffffffffff\n  and\n  0x8be0079c531659141344cd1fd0a4f28419497f9722a3daafe3b4186f6b6457e0\n  mload(0x40)\n  mload(0x40)\n  dup1\n  swap2\n  sub\n  swap1\n  log3\n    /* \"SnipeFinanceMultisenders (2)/SnipeFinanceMultisenders/SnipeFinanceMultisenders_flattened.sol\":12733:12857  {... */\n  pop\n    /* \"SnipeFinanceMultisenders (2)/SnipeFinanceMultisenders/SnipeFinanceMultisenders_flattened.sol\":12670:12857  function _transferOwnership(address newOwner) internal virtual {... */\n  pop\n  jump\t// out\n    /* \"SnipeFinanceMultisenders (2)/SnipeFinanceMultisenders/SnipeFinanceMultisenders_flattened.sol\":11445:11530  function owner() public view virtual returns (address) {... */\ntag_11:\n    /* \"SnipeFinanceMultisenders (2)/SnipeFinanceMultisenders/SnipeFinanceMultisenders_flattened.sol\":11491:11498  address */\n  0x00\n    /* \"SnipeFinanceMultisenders (2)/SnipeFinanceMultisenders/SnipeFinanceMultisenders_flattened.sol\":11517:11523  _owner */\n  dup1\n  0x00\n  swap1\n  sload\n  swap1\n  0x0100\n  exp\n  swap1\n  div\n  0xffffffffffffffffffffffffffffffffffffffff\n  and\n    /* \"SnipeFinanceMultisenders (2)/SnipeFinanceMultisenders/SnipeFinanceMultisenders_flattened.sol\":11510:11523  return _owner */\n  swap1\n  pop\n    /* \"SnipeFinanceMultisenders (2)/SnipeFinanceMultisenders/SnipeFinanceMultisenders_flattened.sol\":11445:11530  function owner() public view virtual returns (address) {... */\n  swap1\n  jump\t// out\n    /* \"SnipeFinanceMultisenders (2)/SnipeFinanceMultisenders/SnipeFinanceMultisenders_flattened.sol\":16035:22693  contract SnipeFinanceMultisenders is Ownable {... */\ntag_12:\n  dataSize(sub_0)\n  dup1\n  dataOffset(sub_0)\n  0x00\n  codecopy\n  0x00\n  return\nstop\n\nsub_0: assembly {\n        /* \"SnipeFinanceMultisenders (2)/SnipeFinanceMultisenders/SnipeFinanceMultisenders_flattened.sol\":16035:22693  contract SnipeFinanceMultisenders is Ownable {... */\n      mstore(0x40, 0x80)\n      jumpi(tag_1, lt(calldatasize, 0x04))\n      shr(0xe0, calldataload(0x00))\n      dup1\n      0x8da5cb5b\n      gt\n      tag_20\n      jumpi\n      dup1\n      0xd908e6ce\n      gt\n      tag_21\n      jumpi\n      dup1\n      0xd908e6ce\n      eq\n      tag_15\n      jumpi\n      dup1\n      0xddca3f43\n      eq\n      tag_16\n      jumpi\n      dup1\n      0xf2fde38b\n      eq\n      tag_17\n      jumpi\n      dup1\n      0xf7260d3e\n      eq\n      tag_18\n      jumpi\n      dup1\n      0xf9f95a0f\n      eq\n      tag_19\n      jumpi\n      jump(tag_2)\n    tag_21:\n      dup1\n      0x8da5cb5b\n      eq\n      tag_11\n      jumpi\n      dup1\n      0x9cbd3433\n      eq\n      tag_12\n      jumpi\n      dup1\n      0x9d76ea58\n      eq\n      tag_13\n      jumpi\n      dup1\n      0x9e281a98\n      eq\n      tag_14\n      jumpi\n      jump(tag_2)\n    tag_20:\n      dup1\n      0x478aa69e\n      gt\n      tag_22\n      jumpi\n      dup1\n      0x478aa69e\n      eq\n      tag_7\n      jumpi\n      dup1\n      0x67c2a360\n      eq\n      tag_8\n      jumpi\n      dup1\n      0x715018a6\n      eq\n      tag_9\n      jumpi\n      dup1\n      0x8b7afe2e\n      eq\n      tag_10\n      jumpi\n      jump(tag_2)\n    tag_22:\n      dup1\n      0x126ccd94\n      eq\n      tag_3\n      jumpi\n      dup1\n      0x17fc45e2\n      eq\n      tag_4\n      jumpi\n      dup1\n      0x2fc75eb0\n      eq\n      tag_5\n      jumpi\n      dup1\n      0x44b6209d\n      eq\n      tag_6\n      jumpi\n      jump(tag_2)\n    tag_1:\n      jumpi(tag_2, calldatasize)\n      stop\n    tag_2:\n      0x00\n      dup1\n      revert\n        /* \"SnipeFinanceMultisenders (2)/SnipeFinanceMultisenders/SnipeFinanceMultisenders_flattened.sol\":20587:20730  function setfeeToUse(uint256 newfee, address _receiver) external onlyOwner {... */\n    tag_3:\n      callvalue\n      dup1\n      iszero\n      tag_25\n      jumpi\n      0x00\n      dup1\n      revert\n    tag_25:\n      pop\n      tag_26\n      0x04\n      dup1\n      calldatasize\n      sub\n      dup2\n      add\n      swap1\n      tag_27\n      swap2\n      swap1\n      tag_28\n      jump\t// in\n    tag_27:\n      tag_29\n      jump\t// in\n    tag_26:\n      stop\n        /* \"SnipeFinanceMultisenders (2)/SnipeFinanceMultisenders/SnipeFinanceMultisenders_flattened.sol\":16336:16359  uint256 public quantity */\n    tag_4:\n      callvalue\n      dup1\n      iszero\n      tag_30\n      jumpi\n      0x00\n      dup1\n      revert\n    tag_30:\n      pop\n      tag_31\n      tag_32\n      jump\t// in\n    tag_31:\n      mload(0x40)\n      tag_33\n      swap2\n      swap1\n      tag_34\n      jump\t// in\n    tag_33:\n      mload(0x40)\n      dup1\n      swap2\n      sub\n      swap1\n      return\n        /* \"SnipeFinanceMultisenders (2)/SnipeFinanceMultisenders/SnipeFinanceMultisenders_flattened.sol\":21316:21486  function SetTokenToholdAndQuantity(IERC20 token, uint256 _amount)... */\n    tag_5:\n      callvalue\n      dup1\n      iszero\n      tag_35\n      jumpi\n      0x00\n      dup1\n      revert\n    tag_35:\n      pop\n      tag_36\n      0x04\n      dup1\n      calldatasize\n      sub\n      dup2\n      add\n      swap1\n      tag_37\n      swap2\n      swap1\n      tag_38\n      jump\t// in\n    tag_37:\n      tag_39\n      jump\t// in\n    tag_36:\n      stop\n        /* \"SnipeFinanceMultisenders (2)/SnipeFinanceMultisenders/SnipeFinanceMultisenders_flattened.sol\":16204:16251  mapping(address => bool) public authorizedusers */\n    tag_6:\n      callvalue\n      dup1\n      iszero\n      tag_40\n      jumpi\n      0x00\n      dup1\n      revert\n    tag_40:\n      pop\n      tag_41\n      0x04\n      dup1\n      calldatasize\n      sub\n      dup2\n      add\n      swap1\n      tag_42\n      swap2\n      swap1\n      tag_43\n      jump\t// in\n    tag_42:\n      tag_44\n      jump\t// in\n    tag_41:\n      mload(0x40)\n      tag_45\n      swap2\n      swap1\n      tag_46\n      jump\t// in\n    tag_45:\n      mload(0x40)\n      dup1\n      swap2\n      sub\n      swap1\n      return\n        /* \"SnipeFinanceMultisenders (2)/SnipeFinanceMultisenders/SnipeFinanceMultisenders_flattened.sol\":21088:21272  function unauthorizeUser(address user) external onlyOwner {... */\n    tag_7:\n      callvalue\n      dup1\n      iszero\n      tag_47\n      jumpi\n      0x00\n      dup1\n      revert\n    tag_47:\n      pop\n      tag_48\n      0x04\n      dup1\n      calldatasize\n      sub\n      dup2\n      add\n      swap1\n      tag_49\n      swap2\n      swap1\n      tag_43\n      jump\t// in\n    tag_49:\n      tag_50\n      jump\t// in\n    tag_48:\n      stop\n        /* \"SnipeFinanceMultisenders (2)/SnipeFinanceMultisenders/SnipeFinanceMultisenders_flattened.sol\":20819:20999  function authorizeUser(address user) external onlyOwner {... */\n    tag_8:\n      callvalue\n      dup1\n      iszero\n      tag_51\n      jumpi\n      0x00\n      dup1\n      revert\n    tag_51:\n      pop\n      tag_52\n      0x04\n      dup1\n      calldatasize\n      sub\n      dup2\n      add\n      swap1\n      tag_53\n      swap2\n      swap1\n      tag_43\n      jump\t// in\n    tag_53:\n      tag_54\n      jump\t// in\n    tag_52:\n      stop\n        /* \"SnipeFinanceMultisenders (2)/SnipeFinanceMultisenders/SnipeFinanceMultisenders_flattened.sol\":12068:12169  function renounceOwnership() public virtual onlyOwner {... */\n    tag_9:\n      callvalue\n      dup1\n      iszero\n      tag_55\n      jumpi\n      0x00\n      dup1\n      revert\n    tag_55:\n      pop\n      tag_56\n      tag_57\n      jump\t// in\n    tag_56:\n      stop\n        /* \"SnipeFinanceMultisenders (2)/SnipeFinanceMultisenders/SnipeFinanceMultisenders_flattened.sol\":22237:22347  function contractBalance() public view onlyOwner returns(uint256){... */\n    tag_10:\n      callvalue\n      dup1\n      iszero\n      tag_58\n      jumpi\n      0x00\n      dup1\n      revert\n    tag_58:\n      pop\n      tag_59\n      tag_60\n      jump\t// in\n    tag_59:\n      mload(0x40)\n      tag_61\n      swap2\n      swap1\n      tag_34\n      jump\t// in\n    tag_61:\n      mload(0x40)\n      dup1\n      swap2\n      sub\n      swap1\n      return\n        /* \"SnipeFinanceMultisenders (2)/SnipeFinanceMultisenders/SnipeFinanceMultisenders_flattened.sol\":11445:11530  function owner() public view virtual returns (address) {... */\n    tag_11:\n      callvalue\n      dup1\n      iszero\n      tag_62\n      jumpi\n      0x00\n      dup1\n      revert\n    tag_62:\n      pop\n      tag_63\n      tag_64\n      jump\t// in\n    tag_63:\n      mload(0x40)\n      tag_65\n      swap2\n      swap1\n      tag_66\n      jump\t// in\n    tag_65:\n      mload(0x40)\n      dup1\n      swap2\n      sub\n      swap1\n      return\n        /* \"SnipeFinanceMultisenders (2)/SnipeFinanceMultisenders/SnipeFinanceMultisenders_flattened.sol\":18415:20528  function TOKENmultisender(//ICustomERC20 REPLACED WITH ERC20... */\n    tag_12:\n      tag_67\n      0x04\n      dup1\n      calldatasize\n      sub\n      dup2\n      add\n      swap1\n      tag_68\n      swap2\n      swap1\n      tag_69\n      jump\t// in\n    tag_68:\n      tag_70\n      jump\t// in\n    tag_67:\n      stop\n        /* \"SnipeFinanceMultisenders (2)/SnipeFinanceMultisenders/SnipeFinanceMultisenders_flattened.sol\":16257:16283  IERC20 public tokenAddress */\n    tag_13:\n      callvalue\n      dup1\n      iszero\n      tag_71\n      jumpi\n      0x00\n      dup1\n      revert\n    tag_71:\n      pop\n      tag_72\n      tag_73\n      jump\t// in\n    tag_72:\n      mload(0x40)\n      tag_74\n      swap2\n      swap1\n      tag_75\n      jump\t// in\n    tag_74:\n      mload(0x40)\n      dup1\n      swap2\n      sub\n      swap1\n      return\n        /* \"SnipeFinanceMultisenders (2)/SnipeFinanceMultisenders/SnipeFinanceMultisenders_flattened.sol\":21945:22199  function withdrawToken(IERC20 token, uint256 amount) public onlyOwner {... */\n    tag_14:\n      callvalue\n      dup1\n      iszero\n      tag_76\n      jumpi\n      0x00\n      dup1\n      revert\n    tag_76:\n      pop\n      tag_77\n      0x04\n      dup1\n      calldatasize\n      sub\n      dup2\n      add\n      swap1\n      tag_78\n      swap2\n      swap1\n      tag_38\n      jump\t// in\n    tag_78:\n      tag_79\n      jump\t// in\n    tag_77:\n      stop\n        /* \"SnipeFinanceMultisenders (2)/SnipeFinanceMultisenders/SnipeFinanceMultisenders_flattened.sol\":16737:18409  function coinMultisender(... */\n    tag_15:\n      tag_80\n      0x04\n      dup1\n      calldatasize\n      sub\n      dup2\n      add\n      swap1\n      tag_81\n      swap2\n      swap1\n      tag_82\n      jump\t// in\n    tag_81:\n      tag_83\n      jump\t// in\n    tag_80:\n      stop\n        /* \"SnipeFinanceMultisenders (2)/SnipeFinanceMultisenders/SnipeFinanceMultisenders_flattened.sol\":16117:16135  uint256 public fee */\n    tag_16:\n      callvalue\n      dup1\n      iszero\n      tag_84\n      jumpi\n      0x00\n      dup1\n      revert\n    tag_84:\n      pop\n      tag_85\n      tag_86\n      jump\t// in\n    tag_85:\n      mload(0x40)\n      tag_87\n      swap2\n      swap1\n      tag_34\n      jump\t// in\n    tag_87:\n      mload(0x40)\n      dup1\n      swap2\n      sub\n      swap1\n      return\n        /* \"SnipeFinanceMultisenders (2)/SnipeFinanceMultisenders/SnipeFinanceMultisenders_flattened.sol\":12318:12516  function transferOwnership(address newOwner) public virtual onlyOwner {... */\n    tag_17:\n      callvalue\n      dup1\n      iszero\n      tag_88\n      jumpi\n      0x00\n      dup1\n      revert\n    tag_88:\n      pop\n      tag_89\n      0x04\n      dup1\n      calldatasize\n      sub\n      dup2\n      add\n      swap1\n      tag_90\n      swap2\n      swap1\n      tag_43\n      jump\t// in\n    tag_90:\n      tag_91\n      jump\t// in\n    tag_89:\n      stop\n        /* \"SnipeFinanceMultisenders (2)/SnipeFinanceMultisenders/SnipeFinanceMultisenders_flattened.sol\":16141:16172  address payable public receiver */\n    tag_18:\n      callvalue\n      dup1\n      iszero\n      tag_92\n      jumpi\n      0x00\n      dup1\n      revert\n    tag_92:\n      pop\n      tag_93\n      tag_94\n      jump\t// in\n    tag_93:\n      mload(0x40)\n      tag_95\n      swap2\n      swap1\n      tag_96\n      jump\t// in\n    tag_95:\n      mload(0x40)\n      dup1\n      swap2\n      sub\n      swap1\n      return\n        /* \"SnipeFinanceMultisenders (2)/SnipeFinanceMultisenders/SnipeFinanceMultisenders_flattened.sol\":21665:21857  function withdrawCoins(uint256 amount) external onlyOwner {... */\n    tag_19:\n      callvalue\n      dup1\n      iszero\n      tag_97\n      jumpi\n      0x00\n      dup1\n      revert\n    tag_97:\n      pop\n      tag_98\n      0x04\n      dup1\n      calldatasize\n      sub\n      dup2\n      add\n      swap1\n      tag_99\n      swap2\n      swap1\n      tag_100\n      jump\t// in\n    tag_99:\n      tag_101\n      jump\t// in\n    tag_98:\n      stop\n        /* \"SnipeFinanceMultisenders (2)/SnipeFinanceMultisenders/SnipeFinanceMultisenders_flattened.sol\":20587:20730  function setfeeToUse(uint256 newfee, address _receiver) external onlyOwner {... */\n    tag_29:\n        /* \"SnipeFinanceMultisenders (2)/SnipeFinanceMultisenders/SnipeFinanceMultisenders_flattened.sol\":11338:11351  _checkOwner() */\n      tag_103\n        /* \"SnipeFinanceMultisenders (2)/SnipeFinanceMultisenders/SnipeFinanceMultisenders_flattened.sol\":11338:11349  _checkOwner */\n      tag_104\n        /* \"SnipeFinanceMultisenders (2)/SnipeFinanceMultisenders/SnipeFinanceMultisenders_flattened.sol\":11338:11351  _checkOwner() */\n      jump\t// in\n    tag_103:\n        /* \"SnipeFinanceMultisenders (2)/SnipeFinanceMultisenders/SnipeFinanceMultisenders_flattened.sol\":20678:20684  newfee */\n      dup2\n        /* \"SnipeFinanceMultisenders (2)/SnipeFinanceMultisenders/SnipeFinanceMultisenders_flattened.sol\":20672:20675  fee */\n      0x01\n        /* \"SnipeFinanceMultisenders (2)/SnipeFinanceMultisenders/SnipeFinanceMultisenders_flattened.sol\":20672:20684  fee = newfee */\n      dup2\n      swap1\n      sstore\n      pop\n        /* \"SnipeFinanceMultisenders (2)/SnipeFinanceMultisenders/SnipeFinanceMultisenders_flattened.sol\":20713:20722  _receiver */\n      dup1\n        /* \"SnipeFinanceMultisenders (2)/SnipeFinanceMultisenders/SnipeFinanceMultisenders_flattened.sol\":20694:20702  receiver */\n      0x02\n      0x00\n        /* \"SnipeFinanceMultisenders (2)/SnipeFinanceMultisenders/SnipeFinanceMultisenders_flattened.sol\":20694:20723  receiver = payable(_receiver) */\n      0x0100\n      exp\n      dup2\n      sload\n      dup2\n      0xffffffffffffffffffffffffffffffffffffffff\n      mul\n      not\n      and\n      swap1\n      dup4\n      0xffffffffffffffffffffffffffffffffffffffff\n      and\n      mul\n      or\n      swap1\n      sstore\n      pop\n        /* \"SnipeFinanceMultisenders (2)/SnipeFinanceMultisenders/SnipeFinanceMultisenders_flattened.sol\":20587:20730  function setfeeToUse(uint256 newfee, address _receiver) external onlyOwner {... */\n      pop\n      pop\n      jump\t// out\n        /* \"SnipeFinanceMultisenders (2)/SnipeFinanceMultisenders/SnipeFinanceMultisenders_flattened.sol\":16336:16359  uint256 public quantity */\n    tag_32:\n      sload(0x05)\n      dup2\n      jump\t// out\n        /* \"SnipeFinanceMultisenders (2)/SnipeFinanceMultisenders/SnipeFinanceMultisenders_flattened.sol\":21316:21486  function SetTokenToholdAndQuantity(IERC20 token, uint256 _amount)... */\n    tag_39:\n        /* \"SnipeFinanceMultisenders (2)/SnipeFinanceMultisenders/SnipeFinanceMultisenders_flattened.sol\":11338:11351  _checkOwner() */\n      tag_107\n        /* \"SnipeFinanceMultisenders (2)/SnipeFinanceMultisenders/SnipeFinanceMultisenders_flattened.sol\":11338:11349  _checkOwner */\n      tag_104\n        /* \"SnipeFinanceMultisenders (2)/SnipeFinanceMultisenders/SnipeFinanceMultisenders_flattened.sol\":11338:11351  _checkOwner() */\n      jump\t// in\n    tag_107:\n        /* \"SnipeFinanceMultisenders (2)/SnipeFinanceMultisenders/SnipeFinanceMultisenders_flattened.sol\":21446:21451  token */\n      dup2\n        /* \"SnipeFinanceMultisenders (2)/SnipeFinanceMultisenders/SnipeFinanceMultisenders_flattened.sol\":21431:21443  tokenAddress */\n      0x04\n      0x00\n        /* \"SnipeFinanceMultisenders (2)/SnipeFinanceMultisenders/SnipeFinanceMultisenders_flattened.sol\":21431:21451  tokenAddress = token */\n      0x0100\n      exp\n      dup2\n      sload\n      dup2\n      0xffffffffffffffffffffffffffffffffffffffff\n      mul\n      not\n      and\n      swap1\n      dup4\n      0xffffffffffffffffffffffffffffffffffffffff\n      and\n      mul\n      or\n      swap1\n      sstore\n      pop\n        /* \"SnipeFinanceMultisenders (2)/SnipeFinanceMultisenders/SnipeFinanceMultisenders_flattened.sol\":21472:21479  _amount */\n      dup1\n        /* \"SnipeFinanceMultisenders (2)/SnipeFinanceMultisenders/SnipeFinanceMultisenders_flattened.sol\":21461:21469  quantity */\n      0x05\n        /* \"SnipeFinanceMultisenders (2)/SnipeFinanceMultisenders/SnipeFinanceMultisenders_flattened.sol\":21461:21479  quantity = _amount */\n      dup2\n      swap1\n      sstore\n      pop\n        /* \"SnipeFinanceMultisenders (2)/SnipeFinanceMultisenders/SnipeFinanceMultisenders_flattened.sol\":21316:21486  function SetTokenToholdAndQuantity(IERC20 token, uint256 _amount)... */\n      pop\n      pop\n      jump\t// out\n        /* \"SnipeFinanceMultisenders (2)/SnipeFinanceMultisenders/SnipeFinanceMultisenders_flattened.sol\":16204:16251  mapping(address => bool) public authorizedusers */\n    tag_44:\n      mstore(0x20, 0x03)\n      dup1\n      0x00\n      mstore\n      keccak256(0x00, 0x40)\n      0x00\n      swap2\n      pop\n      sload\n      swap1\n      0x0100\n      exp\n      swap1\n      div\n      0xff\n      and\n      dup2\n      jump\t// out\n        /* \"SnipeFinanceMultisenders (2)/SnipeFinanceMultisenders/SnipeFinanceMultisenders_flattened.sol\":21088:21272  function unauthorizeUser(address user) external onlyOwner {... */\n    tag_50:\n        /* \"SnipeFinanceMultisenders (2)/SnipeFinanceMultisenders/SnipeFinanceMultisenders_flattened.sol\":11338:11351  _checkOwner() */\n      tag_110\n        /* \"SnipeFinanceMultisenders (2)/SnipeFinanceMultisenders/SnipeFinanceMultisenders_flattened.sol\":11338:11349  _checkOwner */\n      tag_104\n        /* \"SnipeFinanceMultisenders (2)/SnipeFinanceMultisenders/SnipeFinanceMultisenders_flattened.sol\":11338:11351  _checkOwner() */\n      jump\t// in\n    tag_110:\n        /* \"SnipeFinanceMultisenders (2)/SnipeFinanceMultisenders/SnipeFinanceMultisenders_flattened.sol\":21189:21193  true */\n      0x01\n        /* \"SnipeFinanceMultisenders (2)/SnipeFinanceMultisenders/SnipeFinanceMultisenders_flattened.sol\":21164:21193  authorizedusers[user] == true */\n      iszero\n      iszero\n        /* \"SnipeFinanceMultisenders (2)/SnipeFinanceMultisenders/SnipeFinanceMultisenders_flattened.sol\":21164:21179  authorizedusers */\n      0x03\n        /* \"SnipeFinanceMultisenders (2)/SnipeFinanceMultisenders/SnipeFinanceMultisenders_flattened.sol\":21164:21185  authorizedusers[user] */\n      0x00\n        /* \"SnipeFinanceMultisenders (2)/SnipeFinanceMultisenders/SnipeFinanceMultisenders_flattened.sol\":21180:21184  user */\n      dup4\n        /* \"SnipeFinanceMultisenders (2)/SnipeFinanceMultisenders/SnipeFinanceMultisenders_flattened.sol\":21164:21185  authorizedusers[user] */\n      0xffffffffffffffffffffffffffffffffffffffff\n      and\n      0xffffffffffffffffffffffffffffffffffffffff\n      and\n      dup2\n      mstore\n      0x20\n      add\n      swap1\n      dup2\n      mstore\n      0x20\n      add\n      0x00\n      keccak256\n      0x00\n      swap1\n      sload\n      swap1\n      0x0100\n      exp\n      swap1\n      div\n      0xff\n      and\n        /* \"SnipeFinanceMultisenders (2)/SnipeFinanceMultisenders/SnipeFinanceMultisenders_flattened.sol\":21164:21193  authorizedusers[user] == true */\n      iszero\n      iszero\n      eq\n        /* \"SnipeFinanceMultisenders (2)/SnipeFinanceMultisenders/SnipeFinanceMultisenders_flattened.sol\":21156:21226  require(authorizedusers[user] == true, \"user is already unauthorized\") */\n      tag_112\n      jumpi\n      mload(0x40)\n      0x08c379a000000000000000000000000000000000000000000000000000000000\n      dup2\n      mstore\n      0x04\n      add\n      tag_113\n      swap1\n      tag_114\n      jump\t// in\n    tag_113:\n      mload(0x40)\n      dup1\n      swap2\n      sub\n      swap1\n      revert\n    tag_112:\n        /* \"SnipeFinanceMultisenders (2)/SnipeFinanceMultisenders/SnipeFinanceMultisenders_flattened.sol\":21260:21265  false */\n      0x00\n        /* \"SnipeFinanceMultisenders (2)/SnipeFinanceMultisenders/SnipeFinanceMultisenders_flattened.sol\":21236:21251  authorizedusers */\n      0x03\n        /* \"SnipeFinanceMultisenders (2)/SnipeFinanceMultisenders/SnipeFinanceMultisenders_flattened.sol\":21236:21257  authorizedusers[user] */\n      0x00\n        /* \"SnipeFinanceMultisenders (2)/SnipeFinanceMultisenders/SnipeFinanceMultisenders_flattened.sol\":21252:21256  user */\n      dup4\n        /* \"SnipeFinanceMultisenders (2)/SnipeFinanceMultisenders/SnipeFinanceMultisenders_flattened.sol\":21236:21257  authorizedusers[user] */\n      0xffffffffffffffffffffffffffffffffffffffff\n      and\n      0xffffffffffffffffffffffffffffffffffffffff\n      and\n      dup2\n      mstore\n      0x20\n      add\n      swap1\n      dup2\n      mstore\n      0x20\n      add\n      0x00\n      keccak256\n      0x00\n        /* \"SnipeFinanceMultisenders (2)/SnipeFinanceMultisenders/SnipeFinanceMultisenders_flattened.sol\":21236:21265  authorizedusers[user] = false */\n      0x0100\n      exp\n      dup2\n      sload\n      dup2\n      0xff\n      mul\n      not\n      and\n      swap1\n      dup4\n      iszero\n      iszero\n      mul\n      or\n      swap1\n      sstore\n      pop\n        /* \"SnipeFinanceMultisenders (2)/SnipeFinanceMultisenders/SnipeFinanceMultisenders_flattened.sol\":21088:21272  function unauthorizeUser(address user) external onlyOwner {... */\n      pop\n      jump\t// out\n        /* \"SnipeFinanceMultisenders (2)/SnipeFinanceMultisenders/SnipeFinanceMultisenders_flattened.sol\":20819:20999  function authorizeUser(address user) external onlyOwner {... */\n    tag_54:\n        /* \"SnipeFinanceMultisenders (2)/SnipeFinanceMultisenders/SnipeFinanceMultisenders_flattened.sol\":11338:11351  _checkOwner() */\n      tag_116\n        /* \"SnipeFinanceMultisenders (2)/SnipeFinanceMultisenders/SnipeFinanceMultisenders_flattened.sol\":11338:11349  _checkOwner */\n      tag_104\n        /* \"SnipeFinanceMultisenders (2)/SnipeFinanceMultisenders/SnipeFinanceMultisenders_flattened.sol\":11338:11351  _checkOwner() */\n      jump\t// in\n    tag_116:\n        /* \"SnipeFinanceMultisenders (2)/SnipeFinanceMultisenders/SnipeFinanceMultisenders_flattened.sol\":20918:20923  false */\n      0x00\n        /* \"SnipeFinanceMultisenders (2)/SnipeFinanceMultisenders/SnipeFinanceMultisenders_flattened.sol\":20893:20923  authorizedusers[user] == false */\n      iszero\n      iszero\n        /* \"SnipeFinanceMultisenders (2)/SnipeFinanceMultisenders/SnipeFinanceMultisenders_flattened.sol\":20893:20908  authorizedusers */\n      0x03\n        /* \"SnipeFinanceMultisenders (2)/SnipeFinanceMultisenders/SnipeFinanceMultisenders_flattened.sol\":20893:20914  authorizedusers[user] */\n      0x00\n        /* \"SnipeFinanceMultisenders (2)/SnipeFinanceMultisenders/SnipeFinanceMultisenders_flattened.sol\":20909:20913  user */\n      dup4\n        /* \"SnipeFinanceMultisenders (2)/SnipeFinanceMultisenders/SnipeFinanceMultisenders_flattened.sol\":20893:20914  authorizedusers[user] */\n      0xffffffffffffffffffffffffffffffffffffffff\n      and\n      0xffffffffffffffffffffffffffffffffffffffff\n      and\n      dup2\n      mstore\n      0x20\n      add\n      swap1\n      dup2\n      mstore\n      0x20\n      add\n      0x00\n      keccak256\n      0x00\n      swap1\n      sload\n      swap1\n      0x0100\n      exp\n      swap1\n      div\n      0xff\n      and\n        /* \"SnipeFinanceMultisenders (2)/SnipeFinanceMultisenders/SnipeFinanceMultisenders_flattened.sol\":20893:20923  authorizedusers[user] == false */\n      iszero\n      iszero\n      eq\n        /* \"SnipeFinanceMultisenders (2)/SnipeFinanceMultisenders/SnipeFinanceMultisenders_flattened.sol\":20885:20954  require(authorizedusers[user] == false, \"user is already authorized\") */\n      tag_118\n      jumpi\n      mload(0x40)\n      0x08c379a000000000000000000000000000000000000000000000000000000000\n      dup2\n      mstore\n      0x04\n      add\n      tag_119\n      swap1\n      tag_120\n      jump\t// in\n    tag_119:\n      mload(0x40)\n      dup1\n      swap2\n      sub\n      swap1\n      revert\n    tag_118:\n        /* \"SnipeFinanceMultisenders (2)/SnipeFinanceMultisenders/SnipeFinanceMultisenders_flattened.sol\":20988:20992  true */\n      0x01\n        /* \"SnipeFinanceMultisenders (2)/SnipeFinanceMultisenders/SnipeFinanceMultisenders_flattened.sol\":20964:20979  authorizedusers */\n      0x03\n        /* \"SnipeFinanceMultisenders (2)/SnipeFinanceMultisenders/SnipeFinanceMultisenders_flattened.sol\":20964:20985  authorizedusers[user] */\n      0x00\n        /* \"SnipeFinanceMultisenders (2)/SnipeFinanceMultisenders/SnipeFinanceMultisenders_flattened.sol\":20980:20984  user */\n      dup4\n        /* \"SnipeFinanceMultisenders (2)/SnipeFinanceMultisenders/SnipeFinanceMultisenders_flattened.sol\":20964:20985  authorizedusers[user] */\n      0xffffffffffffffffffffffffffffffffffffffff\n      and\n      0xffffffffffffffffffffffffffffffffffffffff\n      and\n      dup2\n      mstore\n      0x20\n      add\n      swap1\n      dup2\n      mstore\n      0x20\n      add\n      0x00\n      keccak256\n      0x00\n        /* \"SnipeFinanceMultisenders (2)/SnipeFinanceMultisenders/SnipeFinanceMultisenders_flattened.sol\":20964:20992  authorizedusers[user] = true */\n      0x0100\n      exp\n      dup2\n      sload\n      dup2\n      0xff\n      mul\n      not\n      and\n      swap1\n      dup4\n      iszero\n      iszero\n      mul\n      or\n      swap1\n      sstore\n      pop\n        /* \"SnipeFinanceMultisenders (2)/SnipeFinanceMultisenders/SnipeFinanceMultisenders_flattened.sol\":20819:20999  function authorizeUser(address user) external onlyOwner {... */\n      pop\n      jump\t// out\n        /* \"SnipeFinanceMultisenders (2)/SnipeFinanceMultisenders/SnipeFinanceMultisenders_flattened.sol\":12068:12169  function renounceOwnership() public virtual onlyOwner {... */\n    tag_57:\n        /* \"SnipeFinanceMultisenders (2)/SnipeFinanceMultisenders/SnipeFinanceMultisenders_flattened.sol\":11338:11351  _checkOwner() */\n      tag_122\n        /* \"SnipeFinanceMultisenders (2)/SnipeFinanceMultisenders/SnipeFinanceMultisenders_flattened.sol\":11338:11349  _checkOwner */\n      tag_104\n        /* \"SnipeFinanceMultisenders (2)/SnipeFinanceMultisenders/SnipeFinanceMultisenders_flattened.sol\":11338:11351  _checkOwner() */\n      jump\t// in\n    tag_122:\n        /* \"SnipeFinanceMultisenders (2)/SnipeFinanceMultisenders/SnipeFinanceMultisenders_flattened.sol\":12132:12162  _transferOwnership(address(0)) */\n      tag_124\n        /* \"SnipeFinanceMultisenders (2)/SnipeFinanceMultisenders/SnipeFinanceMultisenders_flattened.sol\":12159:12160  0 */\n      0x00\n        /* \"SnipeFinanceMultisenders (2)/SnipeFinanceMultisenders/SnipeFinanceMultisenders_flattened.sol\":12132:12150  _transferOwnership */\n      tag_125\n        /* \"SnipeFinanceMultisenders (2)/SnipeFinanceMultisenders/SnipeFinanceMultisenders_flattened.sol\":12132:12162  _transferOwnership(address(0)) */\n      jump\t// in\n    tag_124:\n        /* \"SnipeFinanceMultisenders (2)/SnipeFinanceMultisenders/SnipeFinanceMultisenders_flattened.sol\":12068:12169  function renounceOwnership() public virtual onlyOwner {... */\n      jump\t// out\n        /* \"SnipeFinanceMultisenders (2)/SnipeFinanceMultisenders/SnipeFinanceMultisenders_flattened.sol\":22237:22347  function contractBalance() public view onlyOwner returns(uint256){... */\n    tag_60:\n        /* \"SnipeFinanceMultisenders (2)/SnipeFinanceMultisenders/SnipeFinanceMultisenders_flattened.sol\":22294:22301  uint256 */\n      0x00\n        /* \"SnipeFinanceMultisenders (2)/SnipeFinanceMultisenders/SnipeFinanceMultisenders_flattened.sol\":11338:11351  _checkOwner() */\n      tag_127\n        /* \"SnipeFinanceMultisenders (2)/SnipeFinanceMultisenders/SnipeFinanceMultisenders_flattened.sol\":11338:11349  _checkOwner */\n      tag_104\n        /* \"SnipeFinanceMultisenders (2)/SnipeFinanceMultisenders/SnipeFinanceMultisenders_flattened.sol\":11338:11351  _checkOwner() */\n      jump\t// in\n    tag_127:\n        /* \"SnipeFinanceMultisenders (2)/SnipeFinanceMultisenders/SnipeFinanceMultisenders_flattened.sol\":22319:22340  address(this).balance */\n      selfbalance\n        /* \"SnipeFinanceMultisenders (2)/SnipeFinanceMultisenders/SnipeFinanceMultisenders_flattened.sol\":22312:22340  return address(this).balance */\n      swap1\n      pop\n        /* \"SnipeFinanceMultisenders (2)/SnipeFinanceMultisenders/SnipeFinanceMultisenders_flattened.sol\":22237:22347  function contractBalance() public view onlyOwner returns(uint256){... */\n      swap1\n      jump\t// out\n        /* \"SnipeFinanceMultisenders (2)/SnipeFinanceMultisenders/SnipeFinanceMultisenders_flattened.sol\":11445:11530  function owner() public view virtual returns (address) {... */\n    tag_64:\n        /* \"SnipeFinanceMultisenders (2)/SnipeFinanceMultisenders/SnipeFinanceMultisenders_flattened.sol\":11491:11498  address */\n      0x00\n        /* \"SnipeFinanceMultisenders (2)/SnipeFinanceMultisenders/SnipeFinanceMultisenders_flattened.sol\":11517:11523  _owner */\n      dup1\n      0x00\n      swap1\n      sload\n      swap1\n      0x0100\n      exp\n      swap1\n      div\n      0xffffffffffffffffffffffffffffffffffffffff\n      and\n        /* \"SnipeFinanceMultisenders (2)/SnipeFinanceMultisenders/SnipeFinanceMultisenders_flattened.sol\":11510:11523  return _owner */\n      swap1\n      pop\n        /* \"SnipeFinanceMultisenders (2)/SnipeFinanceMultisenders/SnipeFinanceMultisenders_flattened.sol\":11445:11530  function owner() public view virtual returns (address) {... */\n      swap1\n      jump\t// out\n        /* \"SnipeFinanceMultisenders (2)/SnipeFinanceMultisenders/SnipeFinanceMultisenders_flattened.sol\":18415:20528  function TOKENmultisender(//ICustomERC20 REPLACED WITH ERC20... */\n    tag_70:\n        /* \"SnipeFinanceMultisenders (2)/SnipeFinanceMultisenders/SnipeFinanceMultisenders_flattened.sol\":16685:16686  0 */\n      0x00\n        /* \"SnipeFinanceMultisenders (2)/SnipeFinanceMultisenders/SnipeFinanceMultisenders_flattened.sol\":16652:16687  address(tokenAddress) != address(0) */\n      0xffffffffffffffffffffffffffffffffffffffff\n      and\n        /* \"SnipeFinanceMultisenders (2)/SnipeFinanceMultisenders/SnipeFinanceMultisenders_flattened.sol\":16660:16672  tokenAddress */\n      0x04\n      0x00\n      swap1\n      sload\n      swap1\n      0x0100\n      exp\n      swap1\n      div\n      0xffffffffffffffffffffffffffffffffffffffff\n      and\n        /* \"SnipeFinanceMultisenders (2)/SnipeFinanceMultisenders/SnipeFinanceMultisenders_flattened.sol\":16652:16687  address(tokenAddress) != address(0) */\n      0xffffffffffffffffffffffffffffffffffffffff\n      and\n      sub\n        /* \"SnipeFinanceMultisenders (2)/SnipeFinanceMultisenders/SnipeFinanceMultisenders_flattened.sol\":16644:16713  require(address(tokenAddress) != address(0), \"token holding invalid\") */\n      tag_131\n      jumpi\n      mload(0x40)\n      0x08c379a000000000000000000000000000000000000000000000000000000000\n      dup2\n      mstore\n      0x04\n      add\n      tag_132\n      swap1\n      tag_133\n      jump\t// in\n    tag_132:\n      mload(0x40)\n      dup1\n      swap2\n      sub\n      swap1\n      revert\n    tag_131:\n        /* \"SnipeFinanceMultisenders (2)/SnipeFinanceMultisenders/SnipeFinanceMultisenders_flattened.sol\":18652:18656  true */\n      0x01\n        /* \"SnipeFinanceMultisenders (2)/SnipeFinanceMultisenders/SnipeFinanceMultisenders_flattened.sol\":18621:18656  address(token).isContract() == true */\n      iszero\n      iszero\n        /* \"SnipeFinanceMultisenders (2)/SnipeFinanceMultisenders/SnipeFinanceMultisenders_flattened.sol\":18621:18648  address(token).isContract() */\n      tag_135\n        /* \"SnipeFinanceMultisenders (2)/SnipeFinanceMultisenders/SnipeFinanceMultisenders_flattened.sol\":18629:18634  token */\n      dup5\n        /* \"SnipeFinanceMultisenders (2)/SnipeFinanceMultisenders/SnipeFinanceMultisenders_flattened.sol\":18621:18646  address(token).isContract */\n      0xffffffffffffffffffffffffffffffffffffffff\n      and\n      tag_136\n        /* \"SnipeFinanceMultisenders (2)/SnipeFinanceMultisenders/SnipeFinanceMultisenders_flattened.sol\":18621:18648  address(token).isContract() */\n      jump\t// in\n    tag_135:\n        /* \"SnipeFinanceMultisenders (2)/SnipeFinanceMultisenders/SnipeFinanceMultisenders_flattened.sol\":18621:18656  address(token).isContract() == true */\n      iszero\n      iszero\n      eq\n        /* \"SnipeFinanceMultisenders (2)/SnipeFinanceMultisenders/SnipeFinanceMultisenders_flattened.sol\":18613:18675  require(address(token).isContract() == true, \"not a contract\") */\n      tag_137\n      jumpi\n      mload(0x40)\n      0x08c379a000000000000000000000000000000000000000000000000000000000\n      dup2\n      mstore\n      0x04\n      add\n      tag_138\n      swap1\n      tag_139\n      jump\t// in\n    tag_138:\n      mload(0x40)\n      dup1\n      swap2\n      sub\n      swap1\n      revert\n    tag_137:\n        /* \"SnipeFinanceMultisenders (2)/SnipeFinanceMultisenders/SnipeFinanceMultisenders_flattened.sol\":18771:18777  values */\n      dup1\n        /* \"SnipeFinanceMultisenders (2)/SnipeFinanceMultisenders/SnipeFinanceMultisenders_flattened.sol\":18771:18784  values.length */\n      mload\n        /* \"SnipeFinanceMultisenders (2)/SnipeFinanceMultisenders/SnipeFinanceMultisenders_flattened.sol\":18750:18760  recipients */\n      dup3\n        /* \"SnipeFinanceMultisenders (2)/SnipeFinanceMultisenders/SnipeFinanceMultisenders_flattened.sol\":18750:18767  recipients.length */\n      mload\n        /* \"SnipeFinanceMultisenders (2)/SnipeFinanceMultisenders/SnipeFinanceMultisenders_flattened.sol\":18750:18784  recipients.length == values.length */\n      eq\n        /* \"SnipeFinanceMultisenders (2)/SnipeFinanceMultisenders/SnipeFinanceMultisenders_flattened.sol\":18742:18802  require(recipients.length == values.length, \"invalid input\") */\n      tag_140\n      jumpi\n      mload(0x40)\n      0x08c379a000000000000000000000000000000000000000000000000000000000\n      dup2\n      mstore\n      0x04\n      add\n      tag_141\n      swap1\n      tag_142\n      jump\t// in\n    tag_141:\n      mload(0x40)\n      dup1\n      swap2\n      sub\n      swap1\n      revert\n    tag_140:\n        /* \"SnipeFinanceMultisenders (2)/SnipeFinanceMultisenders/SnipeFinanceMultisenders_flattened.sol\":19048:19063  authorizedusers */\n      0x03\n        /* \"SnipeFinanceMultisenders (2)/SnipeFinanceMultisenders/SnipeFinanceMultisenders_flattened.sol\":19048:19075  authorizedusers[msg.sender] */\n      0x00\n        /* \"SnipeFinanceMultisenders (2)/SnipeFinanceMultisenders/SnipeFinanceMultisenders_flattened.sol\":19064:19074  msg.sender */\n      caller\n        /* \"SnipeFinanceMultisenders (2)/SnipeFinanceMultisenders/SnipeFinanceMultisenders_flattened.sol\":19048:19075  authorizedusers[msg.sender] */\n      0xffffffffffffffffffffffffffffffffffffffff\n      and\n      0xffffffffffffffffffffffffffffffffffffffff\n      and\n      dup2\n      mstore\n      0x20\n      add\n      swap1\n      dup2\n      mstore\n      0x20\n      add\n      0x00\n      keccak256\n      0x00\n      swap1\n      sload\n      swap1\n      0x0100\n      exp\n      swap1\n      div\n      0xff\n      and\n        /* \"SnipeFinanceMultisenders (2)/SnipeFinanceMultisenders/SnipeFinanceMultisenders_flattened.sol\":19044:20522  if (authorizedusers[msg.sender]) {... */\n      iszero\n      tag_143\n      jumpi\n        /* \"SnipeFinanceMultisenders (2)/SnipeFinanceMultisenders/SnipeFinanceMultisenders_flattened.sol\":19096:19105  uint256 i */\n      0x00\n        /* \"SnipeFinanceMultisenders (2)/SnipeFinanceMultisenders/SnipeFinanceMultisenders_flattened.sol\":19091:19316  for (uint256 i = 0; i < values.length; i++) {... */\n    tag_144:\n        /* \"SnipeFinanceMultisenders (2)/SnipeFinanceMultisenders/SnipeFinanceMultisenders_flattened.sol\":19115:19121  values */\n      dup2\n        /* \"SnipeFinanceMultisenders (2)/SnipeFinanceMultisenders/SnipeFinanceMultisenders_flattened.sol\":19115:19128  values.length */\n      mload\n        /* \"SnipeFinanceMultisenders (2)/SnipeFinanceMultisenders/SnipeFinanceMultisenders_flattened.sol\":19111:19112  i */\n      dup2\n        /* \"SnipeFinanceMultisenders (2)/SnipeFinanceMultisenders/SnipeFinanceMultisenders_flattened.sol\":19111:19128  i < values.length */\n      lt\n        /* \"SnipeFinanceMultisenders (2)/SnipeFinanceMultisenders/SnipeFinanceMultisenders_flattened.sol\":19091:19316  for (uint256 i = 0; i < values.length; i++) {... */\n      iszero\n      tag_145\n      jumpi\n        /* \"SnipeFinanceMultisenders (2)/SnipeFinanceMultisenders/SnipeFinanceMultisenders_flattened.sol\":19182:19187  token */\n      dup4\n        /* \"SnipeFinanceMultisenders (2)/SnipeFinanceMultisenders/SnipeFinanceMultisenders_flattened.sol\":19182:19200  token.transferFrom */\n      0xffffffffffffffffffffffffffffffffffffffff\n      and\n      0x23b872dd\n        /* \"SnipeFinanceMultisenders (2)/SnipeFinanceMultisenders/SnipeFinanceMultisenders_flattened.sol\":19201:19211  msg.sender */\n      caller\n        /* \"SnipeFinanceMultisenders (2)/SnipeFinanceMultisenders/SnipeFinanceMultisenders_flattened.sol\":19213:19223  recipients */\n      dup6\n        /* \"SnipeFinanceMultisenders (2)/SnipeFinanceMultisenders/SnipeFinanceMultisenders_flattened.sol\":19224:19225  i */\n      dup5\n        /* \"SnipeFinanceMultisenders (2)/SnipeFinanceMultisenders/SnipeFinanceMultisenders_flattened.sol\":19213:19226  recipients[i] */\n      dup2\n      mload\n      dup2\n      lt\n      tag_147\n      jumpi\n      tag_148\n      tag_149\n      jump\t// in\n    tag_148:\n    tag_147:\n      0x20\n      mul\n      0x20\n      add\n      add\n      mload\n        /* \"SnipeFinanceMultisenders (2)/SnipeFinanceMultisenders/SnipeFinanceMultisenders_flattened.sol\":19228:19234  values */\n      dup6\n        /* \"SnipeFinanceMultisenders (2)/SnipeFinanceMultisenders/SnipeFinanceMultisenders_flattened.sol\":19235:19236  i */\n      dup6\n        /* \"SnipeFinanceMultisenders (2)/SnipeFinanceMultisenders/SnipeFinanceMultisenders_flattened.sol\":19228:19237  values[i] */\n      dup2\n      mload\n      dup2\n      lt\n      tag_150\n      jumpi\n      tag_151\n      tag_149\n      jump\t// in\n    tag_151:\n    tag_150:\n      0x20\n      mul\n      0x20\n      add\n      add\n      mload\n        /* \"SnipeFinanceMultisenders (2)/SnipeFinanceMultisenders/SnipeFinanceMultisenders_flattened.sol\":19182:19238  token.transferFrom(msg.sender, recipients[i], values[i]) */\n      mload(0x40)\n      dup5\n      0xffffffff\n      and\n      0xe0\n      shl\n      dup2\n      mstore\n      0x04\n      add\n      tag_152\n      swap4\n      swap3\n      swap2\n      swap1\n      tag_153\n      jump\t// in\n    tag_152:\n      0x20\n      mload(0x40)\n      dup1\n      dup4\n      sub\n      dup2\n      0x00\n      dup8\n      gas\n      call\n      iszero\n      dup1\n      iszero\n      tag_155\n      jumpi\n      returndatasize\n      0x00\n      dup1\n      returndatacopy\n      revert(0x00, returndatasize)\n    tag_155:\n      pop\n      pop\n      pop\n      pop\n      mload(0x40)\n      returndatasize\n      not(0x1f)\n      0x1f\n      dup3\n      add\n      and\n      dup3\n      add\n      dup1\n      0x40\n      mstore\n      pop\n      dup2\n      add\n      swap1\n      tag_156\n      swap2\n      swap1\n      tag_157\n      jump\t// in\n    tag_156:\n        /* \"SnipeFinanceMultisenders (2)/SnipeFinanceMultisenders/SnipeFinanceMultisenders_flattened.sol\":19153:19301  require(... */\n      tag_158\n      jumpi\n      mload(0x40)\n      0x08c379a000000000000000000000000000000000000000000000000000000000\n      dup2\n      mstore\n      0x04\n      add\n      tag_159\n      swap1\n      tag_160\n      jump\t// in\n    tag_159:\n      mload(0x40)\n      dup1\n      swap2\n      sub\n      swap1\n      revert\n    tag_158:\n        /* \"SnipeFinanceMultisenders (2)/SnipeFinanceMultisenders/SnipeFinanceMultisenders_flattened.sol\":19130:19133  i++ */\n      dup1\n      dup1\n      tag_161\n      swap1\n      tag_162\n      jump\t// in\n    tag_161:\n      swap2\n      pop\n      pop\n        /* \"SnipeFinanceMultisenders (2)/SnipeFinanceMultisenders/SnipeFinanceMultisenders_flattened.sol\":19091:19316  for (uint256 i = 0; i < values.length; i++) {... */\n      jump(tag_144)\n    tag_145:\n      pop\n        /* \"SnipeFinanceMultisenders (2)/SnipeFinanceMultisenders/SnipeFinanceMultisenders_flattened.sol\":19044:20522  if (authorizedusers[msg.sender]) {... */\n      jump(tag_163)\n    tag_143:\n        /* \"SnipeFinanceMultisenders (2)/SnipeFinanceMultisenders/SnipeFinanceMultisenders_flattened.sol\":19337:19352  authorizedusers */\n      0x03\n        /* \"SnipeFinanceMultisenders (2)/SnipeFinanceMultisenders/SnipeFinanceMultisenders_flattened.sol\":19337:19364  authorizedusers[msg.sender] */\n      0x00\n        /* \"SnipeFinanceMultisenders (2)/SnipeFinanceMultisenders/SnipeFinanceMultisenders_flattened.sol\":19353:19363  msg.sender */\n      caller\n        /* \"SnipeFinanceMultisenders (2)/SnipeFinanceMultisenders/SnipeFinanceMultisenders_flattened.sol\":19337:19364  authorizedusers[msg.sender] */\n      0xffffffffffffffffffffffffffffffffffffffff\n      and\n      0xffffffffffffffffffffffffffffffffffffffff\n      and\n      dup2\n      mstore\n      0x20\n      add\n      swap1\n      dup2\n      mstore\n      0x20\n      add\n      0x00\n      keccak256\n      0x00\n      swap1\n      sload\n      swap1\n      0x0100\n      exp\n      swap1\n      div\n      0xff\n      and\n        /* \"SnipeFinanceMultisenders (2)/SnipeFinanceMultisenders/SnipeFinanceMultisenders_flattened.sol\":19332:20522  if (!authorizedusers[msg.sender]) {... */\n      tag_164\n      jumpi\n        /* \"SnipeFinanceMultisenders (2)/SnipeFinanceMultisenders/SnipeFinanceMultisenders_flattened.sol\":19422:19430  quantity */\n      sload(0x05)\n        /* \"SnipeFinanceMultisenders (2)/SnipeFinanceMultisenders/SnipeFinanceMultisenders_flattened.sol\":19384:19396  tokenAddress */\n      0x04\n      0x00\n      swap1\n      sload\n      swap1\n      0x0100\n      exp\n      swap1\n      div\n      0xffffffffffffffffffffffffffffffffffffffff\n      and\n        /* \"SnipeFinanceMultisenders (2)/SnipeFinanceMultisenders/SnipeFinanceMultisenders_flattened.sol\":19384:19406  tokenAddress.balanceOf */\n      0xffffffffffffffffffffffffffffffffffffffff\n      and\n      0x70a08231\n        /* \"SnipeFinanceMultisenders (2)/SnipeFinanceMultisenders/SnipeFinanceMultisenders_flattened.sol\":19407:19417  msg.sender */\n      caller\n        /* \"SnipeFinanceMultisenders (2)/SnipeFinanceMultisenders/SnipeFinanceMultisenders_flattened.sol\":19384:19418  tokenAddress.balanceOf(msg.sender) */\n      mload(0x40)\n      dup3\n      0xffffffff\n      and\n      0xe0\n      shl\n      dup2\n      mstore\n      0x04\n      add\n      tag_165\n      swap2\n      swap1\n      tag_66\n      jump\t// in\n    tag_165:\n      0x20\n      mload(0x40)\n      dup1\n      dup4\n      sub\n      dup2\n      dup7\n      gas\n      staticcall\n      iszero\n      dup1\n      iszero\n      tag_167\n      jumpi\n      returndatasize\n      0x00\n      dup1\n      returndatacopy\n      revert(0x00, returndatasize)\n    tag_167:\n      pop\n      pop\n      pop\n      pop\n      mload(0x40)\n      returndatasize\n      not(0x1f)\n      0x1f\n      dup3\n      add\n      and\n      dup3\n      add\n      dup1\n      0x40\n      mstore\n      pop\n      dup2\n      add\n      swap1\n      tag_168\n      swap2\n      swap1\n      tag_169\n      jump\t// in\n    tag_168:\n        /* \"SnipeFinanceMultisenders (2)/SnipeFinanceMultisenders/SnipeFinanceMultisenders_flattened.sol\":19384:19430  tokenAddress.balanceOf(msg.sender) >= quantity */\n      lt\n        /* \"SnipeFinanceMultisenders (2)/SnipeFinanceMultisenders/SnipeFinanceMultisenders_flattened.sol\":19380:20512  if (tokenAddress.balanceOf(msg.sender) >= quantity) {... */\n      tag_170\n      jumpi\n        /* \"SnipeFinanceMultisenders (2)/SnipeFinanceMultisenders/SnipeFinanceMultisenders_flattened.sol\":19480:19484  true */\n      0x01\n        /* \"SnipeFinanceMultisenders (2)/SnipeFinanceMultisenders/SnipeFinanceMultisenders_flattened.sol\":19450:19465  authorizedusers */\n      0x03\n        /* \"SnipeFinanceMultisenders (2)/SnipeFinanceMultisenders/SnipeFinanceMultisenders_flattened.sol\":19450:19477  authorizedusers[msg.sender] */\n      0x00\n        /* \"SnipeFinanceMultisenders (2)/SnipeFinanceMultisenders/SnipeFinanceMultisenders_flattened.sol\":19466:19476  msg.sender */\n      caller\n        /* \"SnipeFinanceMultisenders (2)/SnipeFinanceMultisenders/SnipeFinanceMultisenders_flattened.sol\":19450:19477  authorizedusers[msg.sender] */\n      0xffffffffffffffffffffffffffffffffffffffff\n      and\n      0xffffffffffffffffffffffffffffffffffffffff\n      and\n      dup2\n      mstore\n      0x20\n      add\n      swap1\n      dup2\n      mstore\n      0x20\n      add\n      0x00\n      keccak256\n      0x00\n        /* \"SnipeFinanceMultisenders (2)/SnipeFinanceMultisenders/SnipeFinanceMultisenders_flattened.sol\":19450:19484  authorizedusers[msg.sender] = true */\n      0x0100\n      exp\n      dup2\n      sload\n      dup2\n      0xff\n      mul\n      not\n      and\n      swap1\n      dup4\n      iszero\n      iszero\n      mul\n      or\n      swap1\n      sstore\n      pop\n        /* \"SnipeFinanceMultisenders (2)/SnipeFinanceMultisenders/SnipeFinanceMultisenders_flattened.sol\":19507:19516  uint256 i */\n      0x00\n        /* \"SnipeFinanceMultisenders (2)/SnipeFinanceMultisenders/SnipeFinanceMultisenders_flattened.sol\":19502:19857  for (uint256 i = 0; i < values.length; i++) {... */\n    tag_171:\n        /* \"SnipeFinanceMultisenders (2)/SnipeFinanceMultisenders/SnipeFinanceMultisenders_flattened.sol\":19526:19532  values */\n      dup2\n        /* \"SnipeFinanceMultisenders (2)/SnipeFinanceMultisenders/SnipeFinanceMultisenders_flattened.sol\":19526:19539  values.length */\n      mload\n        /* \"SnipeFinanceMultisenders (2)/SnipeFinanceMultisenders/SnipeFinanceMultisenders_flattened.sol\":19522:19523  i */\n      dup2\n        /* \"SnipeFinanceMultisenders (2)/SnipeFinanceMultisenders/SnipeFinanceMultisenders_flattened.sol\":19522:19539  i < values.length */\n      lt\n        /* \"SnipeFinanceMultisenders (2)/SnipeFinanceMultisenders/SnipeFinanceMultisenders_flattened.sol\":19502:19857  for (uint256 i = 0; i < values.length; i++) {... */\n      iszero\n      tag_172\n      jumpi\n        /* \"SnipeFinanceMultisenders (2)/SnipeFinanceMultisenders/SnipeFinanceMultisenders_flattened.sol\":19601:19606  token */\n      dup4\n        /* \"SnipeFinanceMultisenders (2)/SnipeFinanceMultisenders/SnipeFinanceMultisenders_flattened.sol\":19601:19619  token.transferFrom */\n      0xffffffffffffffffffffffffffffffffffffffff\n      and\n      0x23b872dd\n        /* \"SnipeFinanceMultisenders (2)/SnipeFinanceMultisenders/SnipeFinanceMultisenders_flattened.sol\":19649:19659  msg.sender */\n      caller\n        /* \"SnipeFinanceMultisenders (2)/SnipeFinanceMultisenders/SnipeFinanceMultisenders_flattened.sol\":19689:19699  recipients */\n      dup6\n        /* \"SnipeFinanceMultisenders (2)/SnipeFinanceMultisenders/SnipeFinanceMultisenders_flattened.sol\":19700:19701  i */\n      dup5\n        /* \"SnipeFinanceMultisenders (2)/SnipeFinanceMultisenders/SnipeFinanceMultisenders_flattened.sol\":19689:19702  recipients[i] */\n      dup2\n      mload\n      dup2\n      lt\n      tag_174\n      jumpi\n      tag_175\n      tag_149\n      jump\t// in\n    tag_175:\n    tag_174:\n      0x20\n      mul\n      0x20\n      add\n      add\n      mload\n        /* \"SnipeFinanceMultisenders (2)/SnipeFinanceMultisenders/SnipeFinanceMultisenders_flattened.sol\":19732:19738  values */\n      dup6\n        /* \"SnipeFinanceMultisenders (2)/SnipeFinanceMultisenders/SnipeFinanceMultisenders_flattened.sol\":19739:19740  i */\n      dup6\n        /* \"SnipeFinanceMultisenders (2)/SnipeFinanceMultisenders/SnipeFinanceMultisenders_flattened.sol\":19732:19741  values[i] */\n      dup2\n      mload\n      dup2\n      lt\n      tag_176\n      jumpi\n      tag_177\n      tag_149\n      jump\t// in\n    tag_177:\n    tag_176:\n      0x20\n      mul\n      0x20\n      add\n      add\n      mload\n        /* \"SnipeFinanceMultisenders (2)/SnipeFinanceMultisenders/SnipeFinanceMultisenders_flattened.sol\":19601:19767  token.transferFrom(... */\n      mload(0x40)\n      dup5\n      0xffffffff\n      and\n      0xe0\n      shl\n      dup2\n      mstore\n      0x04\n      add\n      tag_178\n      swap4\n      swap3\n      swap2\n      swap1\n      tag_153\n      jump\t// in\n    tag_178:\n      0x20\n      mload(0x40)\n      dup1\n      dup4\n      sub\n      dup2\n      0x00\n      dup8\n      gas\n      call\n      iszero\n      dup1\n      iszero\n      tag_180\n      jumpi\n      returndatasize\n      0x00\n      dup1\n      returndatacopy\n      revert(0x00, returndatasize)\n    tag_180:\n      pop\n      pop\n      pop\n      pop\n      mload(0x40)\n      returndatasize\n      not(0x1f)\n      0x1f\n      dup3\n      add\n      and\n      dup3\n      add\n      dup1\n      0x40\n      mstore\n      pop\n      dup2\n      add\n      swap1\n      tag_181\n      swap2\n      swap1\n      tag_157\n      jump\t// in\n    tag_181:\n        /* \"SnipeFinanceMultisenders (2)/SnipeFinanceMultisenders/SnipeFinanceMultisenders_flattened.sol\":19568:19838  require(... */\n      tag_182\n      jumpi\n      mload(0x40)\n      0x08c379a000000000000000000000000000000000000000000000000000000000\n      dup2\n      mstore\n      0x04\n      add\n      tag_183\n      swap1\n      tag_160\n      jump\t// in\n    tag_183:\n      mload(0x40)\n      dup1\n      swap2\n      sub\n      swap1\n      revert\n    tag_182:\n        /* \"SnipeFinanceMultisenders (2)/SnipeFinanceMultisenders/SnipeFinanceMultisenders_flattened.sol\":19541:19544  i++ */\n      dup1\n      dup1\n      tag_184\n      swap1\n      tag_162\n      jump\t// in\n    tag_184:\n      swap2\n      pop\n      pop\n        /* \"SnipeFinanceMultisenders (2)/SnipeFinanceMultisenders/SnipeFinanceMultisenders_flattened.sol\":19502:19857  for (uint256 i = 0; i < values.length; i++) {... */\n      jump(tag_171)\n    tag_172:\n      pop\n        /* \"SnipeFinanceMultisenders (2)/SnipeFinanceMultisenders/SnipeFinanceMultisenders_flattened.sol\":19380:20512  if (tokenAddress.balanceOf(msg.sender) >= quantity) {... */\n      jump(tag_185)\n    tag_170:\n        /* \"SnipeFinanceMultisenders (2)/SnipeFinanceMultisenders/SnipeFinanceMultisenders_flattened.sol\":19918:19926  quantity */\n      sload(0x05)\n        /* \"SnipeFinanceMultisenders (2)/SnipeFinanceMultisenders/SnipeFinanceMultisenders_flattened.sol\":19881:19893  tokenAddress */\n      0x04\n      0x00\n      swap1\n      sload\n      swap1\n      0x0100\n      exp\n      swap1\n      div\n      0xffffffffffffffffffffffffffffffffffffffff\n      and\n        /* \"SnipeFinanceMultisenders (2)/SnipeFinanceMultisenders/SnipeFinanceMultisenders_flattened.sol\":19881:19903  tokenAddress.balanceOf */\n      0xffffffffffffffffffffffffffffffffffffffff\n      and\n      0x70a08231\n        /* \"SnipeFinanceMultisenders (2)/SnipeFinanceMultisenders/SnipeFinanceMultisenders_flattened.sol\":19904:19914  msg.sender */\n      caller\n        /* \"SnipeFinanceMultisenders (2)/SnipeFinanceMultisenders/SnipeFinanceMultisenders_flattened.sol\":19881:19915  tokenAddress.balanceOf(msg.sender) */\n      mload(0x40)\n      dup3\n      0xffffffff\n      and\n      0xe0\n      shl\n      dup2\n      mstore\n      0x04\n      add\n      tag_186\n      swap2\n      swap1\n      tag_66\n      jump\t// in\n    tag_186:\n      0x20\n      mload(0x40)\n      dup1\n      dup4\n      sub\n      dup2\n      dup7\n      gas\n      staticcall\n      iszero\n      dup1\n      iszero\n      tag_188\n      jumpi\n      returndatasize\n      0x00\n      dup1\n      returndatacopy\n      revert(0x00, returndatasize)\n    tag_188:\n      pop\n      pop\n      pop\n      pop\n      mload(0x40)\n      returndatasize\n      not(0x1f)\n      0x1f\n      dup3\n      add\n      and\n      dup3\n      add\n      dup1\n      0x40\n      mstore\n      pop\n      dup2\n      add\n      swap1\n      tag_189\n      swap2\n      swap1\n      tag_169\n      jump\t// in\n    tag_189:\n        /* \"SnipeFinanceMultisenders (2)/SnipeFinanceMultisenders/SnipeFinanceMultisenders_flattened.sol\":19881:19926  tokenAddress.balanceOf(msg.sender) < quantity */\n      lt\n        /* \"SnipeFinanceMultisenders (2)/SnipeFinanceMultisenders/SnipeFinanceMultisenders_flattened.sol\":19877:20512  if (tokenAddress.balanceOf(msg.sender) < quantity) {... */\n      iszero\n      tag_190\n      jumpi\n        /* \"SnipeFinanceMultisenders (2)/SnipeFinanceMultisenders/SnipeFinanceMultisenders_flattened.sol\":19988:19991  fee */\n      sload(0x01)\n        /* \"SnipeFinanceMultisenders (2)/SnipeFinanceMultisenders/SnipeFinanceMultisenders_flattened.sol\":19975:19984  msg.value */\n      callvalue\n        /* \"SnipeFinanceMultisenders (2)/SnipeFinanceMultisenders/SnipeFinanceMultisenders_flattened.sol\":19975:19991  msg.value == fee */\n      eq\n        /* \"SnipeFinanceMultisenders (2)/SnipeFinanceMultisenders/SnipeFinanceMultisenders_flattened.sol\":19946:20076  require(... */\n      tag_191\n      jumpi\n      mload(0x40)\n      0x08c379a000000000000000000000000000000000000000000000000000000000\n      dup2\n      mstore\n      0x04\n      add\n      tag_192\n      swap1\n      tag_193\n      jump\t// in\n    tag_192:\n      mload(0x40)\n      dup1\n      swap2\n      sub\n      swap1\n      revert\n    tag_191:\n        /* \"SnipeFinanceMultisenders (2)/SnipeFinanceMultisenders/SnipeFinanceMultisenders_flattened.sol\":20102:20110  receiver */\n      0x02\n      0x00\n      swap1\n      sload\n      swap1\n      0x0100\n      exp\n      swap1\n      div\n      0xffffffffffffffffffffffffffffffffffffffff\n      and\n        /* \"SnipeFinanceMultisenders (2)/SnipeFinanceMultisenders/SnipeFinanceMultisenders_flattened.sol\":20094:20120  payable(receiver).transfer */\n      0xffffffffffffffffffffffffffffffffffffffff\n      and\n        /* \"SnipeFinanceMultisenders (2)/SnipeFinanceMultisenders/SnipeFinanceMultisenders_flattened.sol\":20094:20125  payable(receiver).transfer(fee) */\n      0x08fc\n        /* \"SnipeFinanceMultisenders (2)/SnipeFinanceMultisenders/SnipeFinanceMultisenders_flattened.sol\":20121:20124  fee */\n      sload(0x01)\n        /* \"SnipeFinanceMultisenders (2)/SnipeFinanceMultisenders/SnipeFinanceMultisenders_flattened.sol\":20094:20125  payable(receiver).transfer(fee) */\n      swap1\n      dup2\n      iszero\n      mul\n      swap1\n      mload(0x40)\n      0x00\n      mload(0x40)\n      dup1\n      dup4\n      sub\n      dup2\n      dup6\n      dup9\n      dup9\n      call\n      swap4\n      pop\n      pop\n      pop\n      pop\n      iszero\n      dup1\n      iszero\n      tag_195\n      jumpi\n      returndatasize\n      0x00\n      dup1\n      returndatacopy\n      revert(0x00, returndatasize)\n    tag_195:\n      pop\n        /* \"SnipeFinanceMultisenders (2)/SnipeFinanceMultisenders/SnipeFinanceMultisenders_flattened.sol\":20148:20157  uint256 i */\n      0x00\n        /* \"SnipeFinanceMultisenders (2)/SnipeFinanceMultisenders/SnipeFinanceMultisenders_flattened.sol\":20143:20498  for (uint256 i = 0; i < values.length; i++) {... */\n    tag_196:\n        /* \"SnipeFinanceMultisenders (2)/SnipeFinanceMultisenders/SnipeFinanceMultisenders_flattened.sol\":20167:20173  values */\n      dup2\n        /* \"SnipeFinanceMultisenders (2)/SnipeFinanceMultisenders/SnipeFinanceMultisenders_flattened.sol\":20167:20180  values.length */\n      mload\n        /* \"SnipeFinanceMultisenders (2)/SnipeFinanceMultisenders/SnipeFinanceMultisenders_flattened.sol\":20163:20164  i */\n      dup2\n        /* \"SnipeFinanceMultisenders (2)/SnipeFinanceMultisenders/SnipeFinanceMultisenders_flattened.sol\":20163:20180  i < values.length */\n      lt\n        /* \"SnipeFinanceMultisenders (2)/SnipeFinanceMultisenders/SnipeFinanceMultisenders_flattened.sol\":20143:20498  for (uint256 i = 0; i < values.length; i++) {... */\n      iszero\n      tag_197\n      jumpi\n        /* \"SnipeFinanceMultisenders (2)/SnipeFinanceMultisenders/SnipeFinanceMultisenders_flattened.sol\":20242:20247  token */\n      dup4\n        /* \"SnipeFinanceMultisenders (2)/SnipeFinanceMultisenders/SnipeFinanceMultisenders_flattened.sol\":20242:20260  token.transferFrom */\n      0xffffffffffffffffffffffffffffffffffffffff\n      and\n      0x23b872dd\n        /* \"SnipeFinanceMultisenders (2)/SnipeFinanceMultisenders/SnipeFinanceMultisenders_flattened.sol\":20290:20300  msg.sender */\n      caller\n        /* \"SnipeFinanceMultisenders (2)/SnipeFinanceMultisenders/SnipeFinanceMultisenders_flattened.sol\":20330:20340  recipients */\n      dup6\n        /* \"SnipeFinanceMultisenders (2)/SnipeFinanceMultisenders/SnipeFinanceMultisenders_flattened.sol\":20341:20342  i */\n      dup5\n        /* \"SnipeFinanceMultisenders (2)/SnipeFinanceMultisenders/SnipeFinanceMultisenders_flattened.sol\":20330:20343  recipients[i] */\n      dup2\n      mload\n      dup2\n      lt\n      tag_199\n      jumpi\n      tag_200\n      tag_149\n      jump\t// in\n    tag_200:\n    tag_199:\n      0x20\n      mul\n      0x20\n      add\n      add\n      mload\n        /* \"SnipeFinanceMultisenders (2)/SnipeFinanceMultisenders/SnipeFinanceMultisenders_flattened.sol\":20373:20379  values */\n      dup6\n        /* \"SnipeFinanceMultisenders (2)/SnipeFinanceMultisenders/SnipeFinanceMultisenders_flattened.sol\":20380:20381  i */\n      dup6\n        /* \"SnipeFinanceMultisenders (2)/SnipeFinanceMultisenders/SnipeFinanceMultisenders_flattened.sol\":20373:20382  values[i] */\n      dup2\n      mload\n      dup2\n      lt\n      tag_201\n      jumpi\n      tag_202\n      tag_149\n      jump\t// in\n    tag_202:\n    tag_201:\n      0x20\n      mul\n      0x20\n      add\n      add\n      mload\n        /* \"SnipeFinanceMultisenders (2)/SnipeFinanceMultisenders/SnipeFinanceMultisenders_flattened.sol\":20242:20408  token.transferFrom(... */\n      mload(0x40)\n      dup5\n      0xffffffff\n      and\n      0xe0\n      shl\n      dup2\n      mstore\n      0x04\n      add\n      tag_203\n      swap4\n      swap3\n      swap2\n      swap1\n      tag_153\n      jump\t// in\n    tag_203:\n      0x20\n      mload(0x40)\n      dup1\n      dup4\n      sub\n      dup2\n      0x00\n      dup8\n      gas\n      call\n      iszero\n      dup1\n      iszero\n      tag_205\n      jumpi\n      returndatasize\n      0x00\n      dup1\n      returndatacopy\n      revert(0x00, returndatasize)\n    tag_205:\n      pop\n      pop\n      pop\n      pop\n      mload(0x40)\n      returndatasize\n      not(0x1f)\n      0x1f\n      dup3\n      add\n      and\n      dup3\n      add\n      dup1\n      0x40\n      mstore\n      pop\n      dup2\n      add\n      swap1\n      tag_206\n      swap2\n      swap1\n      tag_157\n      jump\t// in\n    tag_206:\n        /* \"SnipeFinanceMultisenders (2)/SnipeFinanceMultisenders/SnipeFinanceMultisenders_flattened.sol\":20209:20479  require(... */\n      tag_207\n      jumpi\n      mload(0x40)\n      0x08c379a000000000000000000000000000000000000000000000000000000000\n      dup2\n      mstore\n      0x04\n      add\n      tag_208\n      swap1\n      tag_160\n      jump\t// in\n    tag_208:\n      mload(0x40)\n      dup1\n      swap2\n      sub\n      swap1\n      revert\n    tag_207:\n        /* \"SnipeFinanceMultisenders (2)/SnipeFinanceMultisenders/SnipeFinanceMultisenders_flattened.sol\":20182:20185  i++ */\n      dup1\n      dup1\n      tag_209\n      swap1\n      tag_162\n      jump\t// in\n    tag_209:\n      swap2\n      pop\n      pop\n        /* \"SnipeFinanceMultisenders (2)/SnipeFinanceMultisenders/SnipeFinanceMultisenders_flattened.sol\":20143:20498  for (uint256 i = 0; i < values.length; i++) {... */\n      jump(tag_196)\n    tag_197:\n      pop\n        /* \"SnipeFinanceMultisenders (2)/SnipeFinanceMultisenders/SnipeFinanceMultisenders_flattened.sol\":19877:20512  if (tokenAddress.balanceOf(msg.sender) < quantity) {... */\n    tag_190:\n        /* \"SnipeFinanceMultisenders (2)/SnipeFinanceMultisenders/SnipeFinanceMultisenders_flattened.sol\":19380:20512  if (tokenAddress.balanceOf(msg.sender) >= quantity) {... */\n    tag_185:\n        /* \"SnipeFinanceMultisenders (2)/SnipeFinanceMultisenders/SnipeFinanceMultisenders_flattened.sol\":19332:20522  if (!authorizedusers[msg.sender]) {... */\n    tag_164:\n        /* \"SnipeFinanceMultisenders (2)/SnipeFinanceMultisenders/SnipeFinanceMultisenders_flattened.sol\":19044:20522  if (authorizedusers[msg.sender]) {... */\n    tag_163:\n        /* \"SnipeFinanceMultisenders (2)/SnipeFinanceMultisenders/SnipeFinanceMultisenders_flattened.sol\":18415:20528  function TOKENmultisender(//ICustomERC20 REPLACED WITH ERC20... */\n      pop\n      pop\n      pop\n      jump\t// out\n        /* \"SnipeFinanceMultisenders (2)/SnipeFinanceMultisenders/SnipeFinanceMultisenders_flattened.sol\":16257:16283  IERC20 public tokenAddress */\n    tag_73:\n      0x04\n      0x00\n      swap1\n      sload\n      swap1\n      0x0100\n      exp\n      swap1\n      div\n      0xffffffffffffffffffffffffffffffffffffffff\n      and\n      dup2\n      jump\t// out\n        /* \"SnipeFinanceMultisenders (2)/SnipeFinanceMultisenders/SnipeFinanceMultisenders_flattened.sol\":21945:22199  function withdrawToken(IERC20 token, uint256 amount) public onlyOwner {... */\n    tag_79:\n        /* \"SnipeFinanceMultisenders (2)/SnipeFinanceMultisenders/SnipeFinanceMultisenders_flattened.sol\":11338:11351  _checkOwner() */\n      tag_211\n        /* \"SnipeFinanceMultisenders (2)/SnipeFinanceMultisenders/SnipeFinanceMultisenders_flattened.sol\":11338:11349  _checkOwner */\n      tag_104\n        /* \"SnipeFinanceMultisenders (2)/SnipeFinanceMultisenders/SnipeFinanceMultisenders_flattened.sol\":11338:11351  _checkOwner() */\n      jump\t// in\n    tag_211:\n        /* \"SnipeFinanceMultisenders (2)/SnipeFinanceMultisenders/SnipeFinanceMultisenders_flattened.sol\":22080:22086  amount */\n      dup1\n        /* \"SnipeFinanceMultisenders (2)/SnipeFinanceMultisenders/SnipeFinanceMultisenders_flattened.sol\":22046:22051  token */\n      dup3\n        /* \"SnipeFinanceMultisenders (2)/SnipeFinanceMultisenders/SnipeFinanceMultisenders_flattened.sol\":22046:22061  token.balanceOf */\n      0xffffffffffffffffffffffffffffffffffffffff\n      and\n      0x70a08231\n        /* \"SnipeFinanceMultisenders (2)/SnipeFinanceMultisenders/SnipeFinanceMultisenders_flattened.sol\":22070:22074  this */\n      address\n        /* \"SnipeFinanceMultisenders (2)/SnipeFinanceMultisenders/SnipeFinanceMultisenders_flattened.sol\":22046:22076  token.balanceOf(address(this)) */\n      mload(0x40)\n      dup3\n      0xffffffff\n      and\n      0xe0\n      shl\n      dup2\n      mstore\n      0x04\n      add\n      tag_213\n      swap2\n      swap1\n      tag_66\n      jump\t// in\n    tag_213:\n      0x20\n      mload(0x40)\n      dup1\n      dup4\n      sub\n      dup2\n      dup7\n      gas\n      staticcall\n      iszero\n      dup1\n      iszero\n      tag_215\n      jumpi\n      returndatasize\n      0x00\n      dup1\n      returndatacopy\n      revert(0x00, returndatasize)\n    tag_215:\n      pop\n      pop\n      pop\n      pop\n      mload(0x40)\n      returndatasize\n      not(0x1f)\n      0x1f\n      dup3\n      add\n      and\n      dup3\n      add\n      dup1\n      0x40\n      mstore\n      pop\n      dup2\n      add\n      swap1\n      tag_216\n      swap2\n      swap1\n      tag_169\n      jump\t// in\n    tag_216:\n        /* \"SnipeFinanceMultisenders (2)/SnipeFinanceMultisenders/SnipeFinanceMultisenders_flattened.sol\":22046:22086  token.balanceOf(address(this)) >= amount */\n      lt\n      iszero\n        /* \"SnipeFinanceMultisenders (2)/SnipeFinanceMultisenders/SnipeFinanceMultisenders_flattened.sol\":22025:22148  require(... */\n      tag_217\n      jumpi\n      mload(0x40)\n      0x08c379a000000000000000000000000000000000000000000000000000000000\n      dup2\n      mstore\n      0x04\n      add\n      tag_218\n      swap1\n      tag_219\n      jump\t// in\n    tag_218:\n      mload(0x40)\n      dup1\n      swap2\n      sub\n      swap1\n      revert\n    tag_217:\n        /* \"SnipeFinanceMultisenders (2)/SnipeFinanceMultisenders/SnipeFinanceMultisenders_flattened.sol\":22158:22163  token */\n      dup2\n        /* \"SnipeFinanceMultisenders (2)/SnipeFinanceMultisenders/SnipeFinanceMultisenders_flattened.sol\":22158:22172  token.transfer */\n      0xffffffffffffffffffffffffffffffffffffffff\n      and\n      0xa9059cbb\n        /* \"SnipeFinanceMultisenders (2)/SnipeFinanceMultisenders/SnipeFinanceMultisenders_flattened.sol\":22173:22183  msg.sender */\n      caller\n        /* \"SnipeFinanceMultisenders (2)/SnipeFinanceMultisenders/SnipeFinanceMultisenders_flattened.sol\":22185:22191  amount */\n      dup4\n        /* \"SnipeFinanceMultisenders (2)/SnipeFinanceMultisenders/SnipeFinanceMultisenders_flattened.sol\":22158:22192  token.transfer(msg.sender, amount) */\n      mload(0x40)\n      dup4\n      0xffffffff\n      and\n      0xe0\n      shl\n      dup2\n      mstore\n      0x04\n      add\n      tag_220\n      swap3\n      swap2\n      swap1\n      tag_221\n      jump\t// in\n    tag_220:\n      0x20\n      mload(0x40)\n      dup1\n      dup4\n      sub\n      dup2\n      0x00\n      dup8\n      gas\n      call\n      iszero\n      dup1\n      iszero\n      tag_223\n      jumpi\n      returndatasize\n      0x00\n      dup1\n      returndatacopy\n      revert(0x00, returndatasize)\n    tag_223:\n      pop\n      pop\n      pop\n      pop\n      mload(0x40)\n      returndatasize\n      not(0x1f)\n      0x1f\n      dup3\n      add\n      and\n      dup3\n      add\n      dup1\n      0x40\n      mstore\n      pop\n      dup2\n      add\n      swap1\n      tag_224\n      swap2\n      swap1\n      tag_157\n      jump\t// in\n    tag_224:\n      pop\n        /* \"SnipeFinanceMultisenders (2)/SnipeFinanceMultisenders/SnipeFinanceMultisenders_flattened.sol\":21945:22199  function withdrawToken(IERC20 token, uint256 amount) public onlyOwner {... */\n      pop\n      pop\n      jump\t// out\n        /* \"SnipeFinanceMultisenders (2)/SnipeFinanceMultisenders/SnipeFinanceMultisenders_flattened.sol\":16737:18409  function coinMultisender(... */\n    tag_83:\n        /* \"SnipeFinanceMultisenders (2)/SnipeFinanceMultisenders/SnipeFinanceMultisenders_flattened.sol\":16685:16686  0 */\n      0x00\n        /* \"SnipeFinanceMultisenders (2)/SnipeFinanceMultisenders/SnipeFinanceMultisenders_flattened.sol\":16652:16687  address(tokenAddress) != address(0) */\n      0xffffffffffffffffffffffffffffffffffffffff\n      and\n        /* \"SnipeFinanceMultisenders (2)/SnipeFinanceMultisenders/SnipeFinanceMultisenders_flattened.sol\":16660:16672  tokenAddress */\n      0x04\n      0x00\n      swap1\n      sload\n      swap1\n      0x0100\n      exp\n      swap1\n      div\n      0xffffffffffffffffffffffffffffffffffffffff\n      and\n        /* \"SnipeFinanceMultisenders (2)/SnipeFinanceMultisenders/SnipeFinanceMultisenders_flattened.sol\":16652:16687  address(tokenAddress) != address(0) */\n      0xffffffffffffffffffffffffffffffffffffffff\n      and\n      sub\n        /* \"SnipeFinanceMultisenders (2)/SnipeFinanceMultisenders/SnipeFinanceMultisenders_flattened.sol\":16644:16713  require(address(tokenAddress) != address(0), \"token holding invalid\") */\n      tag_226\n      jumpi\n      mload(0x40)\n      0x08c379a000000000000000000000000000000000000000000000000000000000\n      dup2\n      mstore\n      0x04\n      add\n      tag_227\n      swap1\n      tag_133\n      jump\t// in\n    tag_227:\n      mload(0x40)\n      dup1\n      swap2\n      sub\n      swap1\n      revert\n    tag_226:\n        /* \"SnipeFinanceMultisenders (2)/SnipeFinanceMultisenders/SnipeFinanceMultisenders_flattened.sol\":16932:16938  values */\n      dup1\n        /* \"SnipeFinanceMultisenders (2)/SnipeFinanceMultisenders/SnipeFinanceMultisenders_flattened.sol\":16932:16945  values.length */\n      mload\n        /* \"SnipeFinanceMultisenders (2)/SnipeFinanceMultisenders/SnipeFinanceMultisenders_flattened.sol\":16911:16921  recipients */\n      dup3\n        /* \"SnipeFinanceMultisenders (2)/SnipeFinanceMultisenders/SnipeFinanceMultisenders_flattened.sol\":16911:16928  recipients.length */\n      mload\n        /* \"SnipeFinanceMultisenders (2)/SnipeFinanceMultisenders/SnipeFinanceMultisenders_flattened.sol\":16911:16945  recipients.length == values.length */\n      eq\n        /* \"SnipeFinanceMultisenders (2)/SnipeFinanceMultisenders/SnipeFinanceMultisenders_flattened.sol\":16903:16963  require(recipients.length == values.length, \"invalid input\") */\n      tag_229\n      jumpi\n      mload(0x40)\n      0x08c379a000000000000000000000000000000000000000000000000000000000\n      dup2\n      mstore\n      0x04\n      add\n      tag_230\n      swap1\n      tag_142\n      jump\t// in\n    tag_230:\n      mload(0x40)\n      dup1\n      swap2\n      sub\n      swap1\n      revert\n    tag_229:\n        /* \"SnipeFinanceMultisenders (2)/SnipeFinanceMultisenders/SnipeFinanceMultisenders_flattened.sol\":16973:16992  uint256 totalValues */\n      0x00\n        /* \"SnipeFinanceMultisenders (2)/SnipeFinanceMultisenders/SnipeFinanceMultisenders_flattened.sol\":17007:17016  uint256 i */\n      dup1\n        /* \"SnipeFinanceMultisenders (2)/SnipeFinanceMultisenders/SnipeFinanceMultisenders_flattened.sol\":17002:17091  for (uint256 i; i < values.length; i++) {... */\n    tag_231:\n        /* \"SnipeFinanceMultisenders (2)/SnipeFinanceMultisenders/SnipeFinanceMultisenders_flattened.sol\":17022:17028  values */\n      dup3\n        /* \"SnipeFinanceMultisenders (2)/SnipeFinanceMultisenders/SnipeFinanceMultisenders_flattened.sol\":17022:17035  values.length */\n      mload\n        /* \"SnipeFinanceMultisenders (2)/SnipeFinanceMultisenders/SnipeFinanceMultisenders_flattened.sol\":17018:17019  i */\n      dup2\n        /* \"SnipeFinanceMultisenders (2)/SnipeFinanceMultisenders/SnipeFinanceMultisenders_flattened.sol\":17018:17035  i < values.length */\n      lt\n        /* \"SnipeFinanceMultisenders (2)/SnipeFinanceMultisenders/SnipeFinanceMultisenders_flattened.sol\":17002:17091  for (uint256 i; i < values.length; i++) {... */\n      iszero\n      tag_232\n      jumpi\n        /* \"SnipeFinanceMultisenders (2)/SnipeFinanceMultisenders/SnipeFinanceMultisenders_flattened.sol\":17071:17077  values */\n      dup3\n        /* \"SnipeFinanceMultisenders (2)/SnipeFinanceMultisenders/SnipeFinanceMultisenders_flattened.sol\":17078:17079  i */\n      dup2\n        /* \"SnipeFinanceMultisenders (2)/SnipeFinanceMultisenders/SnipeFinanceMultisenders_flattened.sol\":17071:17080  values[i] */\n      dup2\n      mload\n      dup2\n      lt\n      tag_234\n      jumpi\n      tag_235\n      tag_149\n      jump\t// in\n    tag_235:\n    tag_234:\n      0x20\n      mul\n      0x20\n      add\n      add\n      mload\n        /* \"SnipeFinanceMultisenders (2)/SnipeFinanceMultisenders/SnipeFinanceMultisenders_flattened.sol\":17056:17080  totalValues += values[i] */\n      dup3\n      tag_236\n      swap2\n      swap1\n      tag_237\n      jump\t// in\n    tag_236:\n      swap2\n      pop\n        /* \"SnipeFinanceMultisenders (2)/SnipeFinanceMultisenders/SnipeFinanceMultisenders_flattened.sol\":17037:17040  i++ */\n      dup1\n      dup1\n      tag_238\n      swap1\n      tag_162\n      jump\t// in\n    tag_238:\n      swap2\n      pop\n      pop\n        /* \"SnipeFinanceMultisenders (2)/SnipeFinanceMultisenders/SnipeFinanceMultisenders_flattened.sol\":17002:17091  for (uint256 i; i < values.length; i++) {... */\n      jump(tag_231)\n    tag_232:\n      pop\n        /* \"SnipeFinanceMultisenders (2)/SnipeFinanceMultisenders/SnipeFinanceMultisenders_flattened.sol\":17105:17120  authorizedusers */\n      0x03\n        /* \"SnipeFinanceMultisenders (2)/SnipeFinanceMultisenders/SnipeFinanceMultisenders_flattened.sol\":17105:17132  authorizedusers[msg.sender] */\n      0x00\n        /* \"SnipeFinanceMultisenders (2)/SnipeFinanceMultisenders/SnipeFinanceMultisenders_flattened.sol\":17121:17131  msg.sender */\n      caller\n        /* \"SnipeFinanceMultisenders (2)/SnipeFinanceMultisenders/SnipeFinanceMultisenders_flattened.sol\":17105:17132  authorizedusers[msg.sender] */\n      0xffffffffffffffffffffffffffffffffffffffff\n      and\n      0xffffffffffffffffffffffffffffffffffffffff\n      and\n      dup2\n      mstore\n      0x20\n      add\n      swap1\n      dup2\n      mstore\n      0x20\n      add\n      0x00\n      keccak256\n      0x00\n      swap1\n      sload\n      swap1\n      0x0100\n      exp\n      swap1\n      div\n      0xff\n      and\n        /* \"SnipeFinanceMultisenders (2)/SnipeFinanceMultisenders/SnipeFinanceMultisenders_flattened.sol\":17101:18403  if (authorizedusers[msg.sender]) {... */\n      iszero\n      tag_239\n      jumpi\n        /* \"SnipeFinanceMultisenders (2)/SnipeFinanceMultisenders/SnipeFinanceMultisenders_flattened.sol\":17186:17197  totalValues */\n      dup1\n        /* \"SnipeFinanceMultisenders (2)/SnipeFinanceMultisenders/SnipeFinanceMultisenders_flattened.sol\":17173:17182  msg.value */\n      callvalue\n        /* \"SnipeFinanceMultisenders (2)/SnipeFinanceMultisenders/SnipeFinanceMultisenders_flattened.sol\":17173:17197  msg.value == totalValues */\n      eq\n        /* \"SnipeFinanceMultisenders (2)/SnipeFinanceMultisenders/SnipeFinanceMultisenders_flattened.sol\":17148:17273  require(... */\n      tag_240\n      jumpi\n      mload(0x40)\n      0x08c379a000000000000000000000000000000000000000000000000000000000\n      dup2\n      mstore\n      0x04\n      add\n      tag_241\n      swap1\n      tag_242\n      jump\t// in\n    tag_241:\n      mload(0x40)\n      dup1\n      swap2\n      sub\n      swap1\n      revert\n    tag_240:\n        /* \"SnipeFinanceMultisenders (2)/SnipeFinanceMultisenders/SnipeFinanceMultisenders_flattened.sol\":17292:17301  uint256 i */\n      0x00\n        /* \"SnipeFinanceMultisenders (2)/SnipeFinanceMultisenders/SnipeFinanceMultisenders_flattened.sol\":17287:17410  for (uint256 i = 0; i < recipients.length; i++) {... */\n    tag_243:\n        /* \"SnipeFinanceMultisenders (2)/SnipeFinanceMultisenders/SnipeFinanceMultisenders_flattened.sol\":17311:17321  recipients */\n      dup4\n        /* \"SnipeFinanceMultisenders (2)/SnipeFinanceMultisenders/SnipeFinanceMultisenders_flattened.sol\":17311:17328  recipients.length */\n      mload\n        /* \"SnipeFinanceMultisenders (2)/SnipeFinanceMultisenders/SnipeFinanceMultisenders_flattened.sol\":17307:17308  i */\n      dup2\n        /* \"SnipeFinanceMultisenders (2)/SnipeFinanceMultisenders/SnipeFinanceMultisenders_flattened.sol\":17307:17328  i < recipients.length */\n      lt\n        /* \"SnipeFinanceMultisenders (2)/SnipeFinanceMultisenders/SnipeFinanceMultisenders_flattened.sol\":17287:17410  for (uint256 i = 0; i < recipients.length; i++) {... */\n      iszero\n      tag_244\n      jumpi\n        /* \"SnipeFinanceMultisenders (2)/SnipeFinanceMultisenders/SnipeFinanceMultisenders_flattened.sol\":17361:17371  recipients */\n      dup4\n        /* \"SnipeFinanceMultisenders (2)/SnipeFinanceMultisenders/SnipeFinanceMultisenders_flattened.sol\":17372:17373  i */\n      dup2\n        /* \"SnipeFinanceMultisenders (2)/SnipeFinanceMultisenders/SnipeFinanceMultisenders_flattened.sol\":17361:17374  recipients[i] */\n      dup2\n      mload\n      dup2\n      lt\n      tag_246\n      jumpi\n      tag_247\n      tag_149\n      jump\t// in\n    tag_247:\n    tag_246:\n      0x20\n      mul\n      0x20\n      add\n      add\n      mload\n        /* \"SnipeFinanceMultisenders (2)/SnipeFinanceMultisenders/SnipeFinanceMultisenders_flattened.sol\":17353:17384  payable(recipients[i]).transfer */\n      0xffffffffffffffffffffffffffffffffffffffff\n      and\n        /* \"SnipeFinanceMultisenders (2)/SnipeFinanceMultisenders/SnipeFinanceMultisenders_flattened.sol\":17353:17395  payable(recipients[i]).transfer(values[i]) */\n      0x08fc\n        /* \"SnipeFinanceMultisenders (2)/SnipeFinanceMultisenders/SnipeFinanceMultisenders_flattened.sol\":17385:17391  values */\n      dup5\n        /* \"SnipeFinanceMultisenders (2)/SnipeFinanceMultisenders/SnipeFinanceMultisenders_flattened.sol\":17392:17393  i */\n      dup4\n        /* \"SnipeFinanceMultisenders (2)/SnipeFinanceMultisenders/SnipeFinanceMultisenders_flattened.sol\":17385:17394  values[i] */\n      dup2\n      mload\n      dup2\n      lt\n      tag_248\n      jumpi\n      tag_249\n      tag_149\n      jump\t// in\n    tag_249:\n    tag_248:\n      0x20\n      mul\n      0x20\n      add\n      add\n      mload\n        /* \"SnipeFinanceMultisenders (2)/SnipeFinanceMultisenders/SnipeFinanceMultisenders_flattened.sol\":17353:17395  payable(recipients[i]).transfer(values[i]) */\n      swap1\n      dup2\n      iszero\n      mul\n      swap1\n      mload(0x40)\n      0x00\n      mload(0x40)\n      dup1\n      dup4\n      sub\n      dup2\n      dup6\n      dup9\n      dup9\n      call\n      swap4\n      pop\n      pop\n      pop\n      pop\n      iszero\n      dup1\n      iszero\n      tag_251\n      jumpi\n      returndatasize\n      0x00\n      dup1\n      returndatacopy\n      revert(0x00, returndatasize)\n    tag_251:\n      pop\n        /* \"SnipeFinanceMultisenders (2)/SnipeFinanceMultisenders/SnipeFinanceMultisenders_flattened.sol\":17330:17333  i++ */\n      dup1\n      dup1\n      tag_252\n      swap1\n      tag_162\n      jump\t// in\n    tag_252:\n      swap2\n      pop\n      pop\n        /* \"SnipeFinanceMultisenders (2)/SnipeFinanceMultisenders/SnipeFinanceMultisenders_flattened.sol\":17287:17410  for (uint256 i = 0; i < recipients.length; i++) {... */\n      jump(tag_243)\n    tag_244:\n      pop\n        /* \"SnipeFinanceMultisenders (2)/SnipeFinanceMultisenders/SnipeFinanceMultisenders_flattened.sol\":17101:18403  if (authorizedusers[msg.sender]) {... */\n      jump(tag_253)\n    tag_239:\n        /* \"SnipeFinanceMultisenders (2)/SnipeFinanceMultisenders/SnipeFinanceMultisenders_flattened.sol\":17431:17446  authorizedusers */\n      0x03\n        /* \"SnipeFinanceMultisenders (2)/SnipeFinanceMultisenders/SnipeFinanceMultisenders_flattened.sol\":17431:17458  authorizedusers[msg.sender] */\n      0x00\n        /* \"SnipeFinanceMultisenders (2)/SnipeFinanceMultisenders/SnipeFinanceMultisenders_flattened.sol\":17447:17457  msg.sender */\n      caller\n        /* \"SnipeFinanceMultisenders (2)/SnipeFinanceMultisenders/SnipeFinanceMultisenders_flattened.sol\":17431:17458  authorizedusers[msg.sender] */\n      0xffffffffffffffffffffffffffffffffffffffff\n      and\n      0xffffffffffffffffffffffffffffffffffffffff\n      and\n      dup2\n      mstore\n      0x20\n      add\n      swap1\n      dup2\n      mstore\n      0x20\n      add\n      0x00\n      keccak256\n      0x00\n      swap1\n      sload\n      swap1\n      0x0100\n      exp\n      swap1\n      div\n      0xff\n      and\n        /* \"SnipeFinanceMultisenders (2)/SnipeFinanceMultisenders/SnipeFinanceMultisenders_flattened.sol\":17426:18403  if (!authorizedusers[msg.sender]) {... */\n      tag_254\n      jumpi\n        /* \"SnipeFinanceMultisenders (2)/SnipeFinanceMultisenders/SnipeFinanceMultisenders_flattened.sol\":17516:17524  quantity */\n      sload(0x05)\n        /* \"SnipeFinanceMultisenders (2)/SnipeFinanceMultisenders/SnipeFinanceMultisenders_flattened.sol\":17478:17490  tokenAddress */\n      0x04\n      0x00\n      swap1\n      sload\n      swap1\n      0x0100\n      exp\n      swap1\n      div\n      0xffffffffffffffffffffffffffffffffffffffff\n      and\n        /* \"SnipeFinanceMultisenders (2)/SnipeFinanceMultisenders/SnipeFinanceMultisenders_flattened.sol\":17478:17500  tokenAddress.balanceOf */\n      0xffffffffffffffffffffffffffffffffffffffff\n      and\n      0x70a08231\n        /* \"SnipeFinanceMultisenders (2)/SnipeFinanceMultisenders/SnipeFinanceMultisenders_flattened.sol\":17501:17511  msg.sender */\n      caller\n        /* \"SnipeFinanceMultisenders (2)/SnipeFinanceMultisenders/SnipeFinanceMultisenders_flattened.sol\":17478:17512  tokenAddress.balanceOf(msg.sender) */\n      mload(0x40)\n      dup3\n      0xffffffff\n      and\n      0xe0\n      shl\n      dup2\n      mstore\n      0x04\n      add\n      tag_255\n      swap2\n      swap1\n      tag_66\n      jump\t// in\n    tag_255:\n      0x20\n      mload(0x40)\n      dup1\n      dup4\n      sub\n      dup2\n      dup7\n      gas\n      staticcall\n      iszero\n      dup1\n      iszero\n      tag_257\n      jumpi\n      returndatasize\n      0x00\n      dup1\n      returndatacopy\n      revert(0x00, returndatasize)\n    tag_257:\n      pop\n      pop\n      pop\n      pop\n      mload(0x40)\n      returndatasize\n      not(0x1f)\n      0x1f\n      dup3\n      add\n      and\n      dup3\n      add\n      dup1\n      0x40\n      mstore\n      pop\n      dup2\n      add\n      swap1\n      tag_258\n      swap2\n      swap1\n      tag_169\n      jump\t// in\n    tag_258:\n        /* \"SnipeFinanceMultisenders (2)/SnipeFinanceMultisenders/SnipeFinanceMultisenders_flattened.sol\":17478:17524  tokenAddress.balanceOf(msg.sender) >= quantity */\n      lt\n        /* \"SnipeFinanceMultisenders (2)/SnipeFinanceMultisenders/SnipeFinanceMultisenders_flattened.sol\":17474:18393  if (tokenAddress.balanceOf(msg.sender) >= quantity) {... */\n      tag_259\n      jumpi\n        /* \"SnipeFinanceMultisenders (2)/SnipeFinanceMultisenders/SnipeFinanceMultisenders_flattened.sol\":17574:17578  true */\n      0x01\n        /* \"SnipeFinanceMultisenders (2)/SnipeFinanceMultisenders/SnipeFinanceMultisenders_flattened.sol\":17544:17559  authorizedusers */\n      0x03\n        /* \"SnipeFinanceMultisenders (2)/SnipeFinanceMultisenders/SnipeFinanceMultisenders_flattened.sol\":17544:17571  authorizedusers[msg.sender] */\n      0x00\n        /* \"SnipeFinanceMultisenders (2)/SnipeFinanceMultisenders/SnipeFinanceMultisenders_flattened.sol\":17560:17570  msg.sender */\n      caller\n        /* \"SnipeFinanceMultisenders (2)/SnipeFinanceMultisenders/SnipeFinanceMultisenders_flattened.sol\":17544:17571  authorizedusers[msg.sender] */\n      0xffffffffffffffffffffffffffffffffffffffff\n      and\n      0xffffffffffffffffffffffffffffffffffffffff\n      and\n      dup2\n      mstore\n      0x20\n      add\n      swap1\n      dup2\n      mstore\n      0x20\n      add\n      0x00\n      keccak256\n      0x00\n        /* \"SnipeFinanceMultisenders (2)/SnipeFinanceMultisenders/SnipeFinanceMultisenders_flattened.sol\":17544:17578  authorizedusers[msg.sender] = true */\n      0x0100\n      exp\n      dup2\n      sload\n      dup2\n      0xff\n      mul\n      not\n      and\n      swap1\n      dup4\n      iszero\n      iszero\n      mul\n      or\n      swap1\n      sstore\n      pop\n        /* \"SnipeFinanceMultisenders (2)/SnipeFinanceMultisenders/SnipeFinanceMultisenders_flattened.sol\":17638:17649  totalValues */\n      dup1\n        /* \"SnipeFinanceMultisenders (2)/SnipeFinanceMultisenders/SnipeFinanceMultisenders_flattened.sol\":17625:17634  msg.value */\n      callvalue\n        /* \"SnipeFinanceMultisenders (2)/SnipeFinanceMultisenders/SnipeFinanceMultisenders_flattened.sol\":17625:17649  msg.value == totalValues */\n      eq\n        /* \"SnipeFinanceMultisenders (2)/SnipeFinanceMultisenders/SnipeFinanceMultisenders_flattened.sol\":17596:17746  require(... */\n      tag_260\n      jumpi\n      mload(0x40)\n      0x08c379a000000000000000000000000000000000000000000000000000000000\n      dup2\n      mstore\n      0x04\n      add\n      tag_261\n      swap1\n      tag_262\n      jump\t// in\n    tag_261:\n      mload(0x40)\n      dup1\n      swap2\n      sub\n      swap1\n      revert\n    tag_260:\n        /* \"SnipeFinanceMultisenders (2)/SnipeFinanceMultisenders/SnipeFinanceMultisenders_flattened.sol\":17769:17778  uint256 i */\n      0x00\n        /* \"SnipeFinanceMultisenders (2)/SnipeFinanceMultisenders/SnipeFinanceMultisenders_flattened.sol\":17764:17895  for (uint256 i = 0; i < recipients.length; i++) {... */\n    tag_263:\n        /* \"SnipeFinanceMultisenders (2)/SnipeFinanceMultisenders/SnipeFinanceMultisenders_flattened.sol\":17788:17798  recipients */\n      dup4\n        /* \"SnipeFinanceMultisenders (2)/SnipeFinanceMultisenders/SnipeFinanceMultisenders_flattened.sol\":17788:17805  recipients.length */\n      mload\n        /* \"SnipeFinanceMultisenders (2)/SnipeFinanceMultisenders/SnipeFinanceMultisenders_flattened.sol\":17784:17785  i */\n      dup2\n        /* \"SnipeFinanceMultisenders (2)/SnipeFinanceMultisenders/SnipeFinanceMultisenders_flattened.sol\":17784:17805  i < recipients.length */\n      lt\n        /* \"SnipeFinanceMultisenders (2)/SnipeFinanceMultisenders/SnipeFinanceMultisenders_flattened.sol\":17764:17895  for (uint256 i = 0; i < recipients.length; i++) {... */\n      iszero\n      tag_264\n      jumpi\n        /* \"SnipeFinanceMultisenders (2)/SnipeFinanceMultisenders/SnipeFinanceMultisenders_flattened.sol\":17842:17852  recipients */\n      dup4\n        /* \"SnipeFinanceMultisenders (2)/SnipeFinanceMultisenders/SnipeFinanceMultisenders_flattened.sol\":17853:17854  i */\n      dup2\n        /* \"SnipeFinanceMultisenders (2)/SnipeFinanceMultisenders/SnipeFinanceMultisenders_flattened.sol\":17842:17855  recipients[i] */\n      dup2\n      mload\n      dup2\n      lt\n      tag_266\n      jumpi\n      tag_267\n      tag_149\n      jump\t// in\n    tag_267:\n    tag_266:\n      0x20\n      mul\n      0x20\n      add\n      add\n      mload\n        /* \"SnipeFinanceMultisenders (2)/SnipeFinanceMultisenders/SnipeFinanceMultisenders_flattened.sol\":17834:17865  payable(recipients[i]).transfer */\n      0xffffffffffffffffffffffffffffffffffffffff\n      and\n        /* \"SnipeFinanceMultisenders (2)/SnipeFinanceMultisenders/SnipeFinanceMultisenders_flattened.sol\":17834:17876  payable(recipients[i]).transfer(values[i]) */\n      0x08fc\n        /* \"SnipeFinanceMultisenders (2)/SnipeFinanceMultisenders/SnipeFinanceMultisenders_flattened.sol\":17866:17872  values */\n      dup5\n        /* \"SnipeFinanceMultisenders (2)/SnipeFinanceMultisenders/SnipeFinanceMultisenders_flattened.sol\":17873:17874  i */\n      dup4\n        /* \"SnipeFinanceMultisenders (2)/SnipeFinanceMultisenders/SnipeFinanceMultisenders_flattened.sol\":17866:17875  values[i] */\n      dup2\n      mload\n      dup2\n      lt\n      tag_268\n      jumpi\n      tag_269\n      tag_149\n      jump\t// in\n    tag_269:\n    tag_268:\n      0x20\n      mul\n      0x20\n      add\n      add\n      mload\n        /* \"SnipeFinanceMultisenders (2)/SnipeFinanceMultisenders/SnipeFinanceMultisenders_flattened.sol\":17834:17876  payable(recipients[i]).transfer(values[i]) */\n      swap1\n      dup2\n      iszero\n      mul\n      swap1\n      mload(0x40)\n      0x00\n      mload(0x40)\n      dup1\n      dup4\n      sub\n      dup2\n      dup6\n      dup9\n      dup9\n      call\n      swap4\n      pop\n      pop\n      pop\n      pop\n      iszero\n      dup1\n      iszero\n      tag_271\n      jumpi\n      returndatasize\n      0x00\n      dup1\n      returndatacopy\n      revert(0x00, returndatasize)\n    tag_271:\n      pop\n        /* \"SnipeFinanceMultisenders (2)/SnipeFinanceMultisenders/SnipeFinanceMultisenders_flattened.sol\":17807:17810  i++ */\n      dup1\n      dup1\n      tag_272\n      swap1\n      tag_162\n      jump\t// in\n    tag_272:\n      swap2\n      pop\n      pop\n        /* \"SnipeFinanceMultisenders (2)/SnipeFinanceMultisenders/SnipeFinanceMultisenders_flattened.sol\":17764:17895  for (uint256 i = 0; i < recipients.length; i++) {... */\n      jump(tag_263)\n    tag_264:\n      pop\n        /* \"SnipeFinanceMultisenders (2)/SnipeFinanceMultisenders/SnipeFinanceMultisenders_flattened.sol\":17474:18393  if (tokenAddress.balanceOf(msg.sender) >= quantity) {... */\n      jump(tag_273)\n    tag_259:\n        /* \"SnipeFinanceMultisenders (2)/SnipeFinanceMultisenders/SnipeFinanceMultisenders_flattened.sol\":17956:17964  quantity */\n      sload(0x05)\n        /* \"SnipeFinanceMultisenders (2)/SnipeFinanceMultisenders/SnipeFinanceMultisenders_flattened.sol\":17919:17931  tokenAddress */\n      0x04\n      0x00\n      swap1\n      sload\n      swap1\n      0x0100\n      exp\n      swap1\n      div\n      0xffffffffffffffffffffffffffffffffffffffff\n      and\n        /* \"SnipeFinanceMultisenders (2)/SnipeFinanceMultisenders/SnipeFinanceMultisenders_flattened.sol\":17919:17941  tokenAddress.balanceOf */\n      0xffffffffffffffffffffffffffffffffffffffff\n      and\n      0x70a08231\n        /* \"SnipeFinanceMultisenders (2)/SnipeFinanceMultisenders/SnipeFinanceMultisenders_flattened.sol\":17942:17952  msg.sender */\n      caller\n        /* \"SnipeFinanceMultisenders (2)/SnipeFinanceMultisenders/SnipeFinanceMultisenders_flattened.sol\":17919:17953  tokenAddress.balanceOf(msg.sender) */\n      mload(0x40)\n      dup3\n      0xffffffff\n      and\n      0xe0\n      shl\n      dup2\n      mstore\n      0x04\n      add\n      tag_274\n      swap2\n      swap1\n      tag_66\n      jump\t// in\n    tag_274:\n      0x20\n      mload(0x40)\n      dup1\n      dup4\n      sub\n      dup2\n      dup7\n      gas\n      staticcall\n      iszero\n      dup1\n      iszero\n      tag_276\n      jumpi\n      returndatasize\n      0x00\n      dup1\n      returndatacopy\n      revert(0x00, returndatasize)\n    tag_276:\n      pop\n      pop\n      pop\n      pop\n      mload(0x40)\n      returndatasize\n      not(0x1f)\n      0x1f\n      dup3\n      add\n      and\n      dup3\n      add\n      dup1\n      0x40\n      mstore\n      pop\n      dup2\n      add\n      swap1\n      tag_277\n      swap2\n      swap1\n      tag_169\n      jump\t// in\n    tag_277:\n        /* \"SnipeFinanceMultisenders (2)/SnipeFinanceMultisenders/SnipeFinanceMultisenders_flattened.sol\":17919:17964  tokenAddress.balanceOf(msg.sender) < quantity */\n      lt\n        /* \"SnipeFinanceMultisenders (2)/SnipeFinanceMultisenders/SnipeFinanceMultisenders_flattened.sol\":17915:18393  if (tokenAddress.balanceOf(msg.sender) < quantity) {... */\n      iszero\n      tag_278\n      jumpi\n        /* \"SnipeFinanceMultisenders (2)/SnipeFinanceMultisenders/SnipeFinanceMultisenders_flattened.sol\":17984:18004  uint256 toBeIncluded */\n      0x00\n        /* \"SnipeFinanceMultisenders (2)/SnipeFinanceMultisenders/SnipeFinanceMultisenders_flattened.sol\":18013:18024  totalValues */\n      dup2\n        /* \"SnipeFinanceMultisenders (2)/SnipeFinanceMultisenders/SnipeFinanceMultisenders_flattened.sol\":18007:18010  fee */\n      sload(0x01)\n        /* \"SnipeFinanceMultisenders (2)/SnipeFinanceMultisenders/SnipeFinanceMultisenders_flattened.sol\":18007:18024  fee + totalValues */\n      tag_279\n      swap2\n      swap1\n      tag_237\n      jump\t// in\n    tag_279:\n        /* \"SnipeFinanceMultisenders (2)/SnipeFinanceMultisenders/SnipeFinanceMultisenders_flattened.sol\":17984:18024  uint256 toBeIncluded = fee + totalValues */\n      swap1\n      pop\n        /* \"SnipeFinanceMultisenders (2)/SnipeFinanceMultisenders/SnipeFinanceMultisenders_flattened.sol\":18084:18096  toBeIncluded */\n      dup1\n        /* \"SnipeFinanceMultisenders (2)/SnipeFinanceMultisenders/SnipeFinanceMultisenders_flattened.sol\":18071:18080  msg.value */\n      callvalue\n        /* \"SnipeFinanceMultisenders (2)/SnipeFinanceMultisenders/SnipeFinanceMultisenders_flattened.sol\":18071:18096  msg.value == toBeIncluded */\n      eq\n        /* \"SnipeFinanceMultisenders (2)/SnipeFinanceMultisenders/SnipeFinanceMultisenders_flattened.sol\":18042:18181  require(... */\n      tag_280\n      jumpi\n      mload(0x40)\n      0x08c379a000000000000000000000000000000000000000000000000000000000\n      dup2\n      mstore\n      0x04\n      add\n      tag_281\n      swap1\n      tag_193\n      jump\t// in\n    tag_281:\n      mload(0x40)\n      dup1\n      swap2\n      sub\n      swap1\n      revert\n    tag_280:\n        /* \"SnipeFinanceMultisenders (2)/SnipeFinanceMultisenders/SnipeFinanceMultisenders_flattened.sol\":18207:18215  receiver */\n      0x02\n      0x00\n      swap1\n      sload\n      swap1\n      0x0100\n      exp\n      swap1\n      div\n      0xffffffffffffffffffffffffffffffffffffffff\n      and\n        /* \"SnipeFinanceMultisenders (2)/SnipeFinanceMultisenders/SnipeFinanceMultisenders_flattened.sol\":18199:18225  payable(receiver).transfer */\n      0xffffffffffffffffffffffffffffffffffffffff\n      and\n        /* \"SnipeFinanceMultisenders (2)/SnipeFinanceMultisenders/SnipeFinanceMultisenders_flattened.sol\":18199:18230  payable(receiver).transfer(fee) */\n      0x08fc\n        /* \"SnipeFinanceMultisenders (2)/SnipeFinanceMultisenders/SnipeFinanceMultisenders_flattened.sol\":18226:18229  fee */\n      sload(0x01)\n        /* \"SnipeFinanceMultisenders (2)/SnipeFinanceMultisenders/SnipeFinanceMultisenders_flattened.sol\":18199:18230  payable(receiver).transfer(fee) */\n      swap1\n      dup2\n      iszero\n      mul\n      swap1\n      mload(0x40)\n      0x00\n      mload(0x40)\n      dup1\n      dup4\n      sub\n      dup2\n      dup6\n      dup9\n      dup9\n      call\n      swap4\n      pop\n      pop\n      pop\n      pop\n      iszero\n      dup1\n      iszero\n      tag_283\n      jumpi\n      returndatasize\n      0x00\n      dup1\n      returndatacopy\n      revert(0x00, returndatasize)\n    tag_283:\n      pop\n        /* \"SnipeFinanceMultisenders (2)/SnipeFinanceMultisenders/SnipeFinanceMultisenders_flattened.sol\":18253:18262  uint256 i */\n      0x00\n        /* \"SnipeFinanceMultisenders (2)/SnipeFinanceMultisenders/SnipeFinanceMultisenders_flattened.sol\":18248:18379  for (uint256 i = 0; i < recipients.length; i++) {... */\n    tag_284:\n        /* \"SnipeFinanceMultisenders (2)/SnipeFinanceMultisenders/SnipeFinanceMultisenders_flattened.sol\":18272:18282  recipients */\n      dup5\n        /* \"SnipeFinanceMultisenders (2)/SnipeFinanceMultisenders/SnipeFinanceMultisenders_flattened.sol\":18272:18289  recipients.length */\n      mload\n        /* \"SnipeFinanceMultisenders (2)/SnipeFinanceMultisenders/SnipeFinanceMultisenders_flattened.sol\":18268:18269  i */\n      dup2\n        /* \"SnipeFinanceMultisenders (2)/SnipeFinanceMultisenders/SnipeFinanceMultisenders_flattened.sol\":18268:18289  i < recipients.length */\n      lt\n        /* \"SnipeFinanceMultisenders (2)/SnipeFinanceMultisenders/SnipeFinanceMultisenders_flattened.sol\":18248:18379  for (uint256 i = 0; i < recipients.length; i++) {... */\n      iszero\n      tag_285\n      jumpi\n        /* \"SnipeFinanceMultisenders (2)/SnipeFinanceMultisenders/SnipeFinanceMultisenders_flattened.sol\":18326:18336  recipients */\n      dup5\n        /* \"SnipeFinanceMultisenders (2)/SnipeFinanceMultisenders/SnipeFinanceMultisenders_flattened.sol\":18337:18338  i */\n      dup2\n        /* \"SnipeFinanceMultisenders (2)/SnipeFinanceMultisenders/SnipeFinanceMultisenders_flattened.sol\":18326:18339  recipients[i] */\n      dup2\n      mload\n      dup2\n      lt\n      tag_287\n      jumpi\n      tag_288\n      tag_149\n      jump\t// in\n    tag_288:\n    tag_287:\n      0x20\n      mul\n      0x20\n      add\n      add\n      mload\n        /* \"SnipeFinanceMultisenders (2)/SnipeFinanceMultisenders/SnipeFinanceMultisenders_flattened.sol\":18318:18349  payable(recipients[i]).transfer */\n      0xffffffffffffffffffffffffffffffffffffffff\n      and\n        /* \"SnipeFinanceMultisenders (2)/SnipeFinanceMultisenders/SnipeFinanceMultisenders_flattened.sol\":18318:18360  payable(recipients[i]).transfer(values[i]) */\n      0x08fc\n        /* \"SnipeFinanceMultisenders (2)/SnipeFinanceMultisenders/SnipeFinanceMultisenders_flattened.sol\":18350:18356  values */\n      dup6\n        /* \"SnipeFinanceMultisenders (2)/SnipeFinanceMultisenders/SnipeFinanceMultisenders_flattened.sol\":18357:18358  i */\n      dup4\n        /* \"SnipeFinanceMultisenders (2)/SnipeFinanceMultisenders/SnipeFinanceMultisenders_flattened.sol\":18350:18359  values[i] */\n      dup2\n      mload\n      dup2\n      lt\n      tag_289\n      jumpi\n      tag_290\n      tag_149\n      jump\t// in\n    tag_290:\n    tag_289:\n      0x20\n      mul\n      0x20\n      add\n      add\n      mload\n        /* \"SnipeFinanceMultisenders (2)/SnipeFinanceMultisenders/SnipeFinanceMultisenders_flattened.sol\":18318:18360  payable(recipients[i]).transfer(values[i]) */\n      swap1\n      dup2\n      iszero\n      mul\n      swap1\n      mload(0x40)\n      0x00\n      mload(0x40)\n      dup1\n      dup4\n      sub\n      dup2\n      dup6\n      dup9\n      dup9\n      call\n      swap4\n      pop\n      pop\n      pop\n      pop\n      iszero\n      dup1\n      iszero\n      tag_292\n      jumpi\n      returndatasize\n      0x00\n      dup1\n      returndatacopy\n      revert(0x00, returndatasize)\n    tag_292:\n      pop\n        /* \"SnipeFinanceMultisenders (2)/SnipeFinanceMultisenders/SnipeFinanceMultisenders_flattened.sol\":18291:18294  i++ */\n      dup1\n      dup1\n      tag_293\n      swap1\n      tag_162\n      jump\t// in\n    tag_293:\n      swap2\n      pop\n      pop\n        /* \"SnipeFinanceMultisenders (2)/SnipeFinanceMultisenders/SnipeFinanceMultisenders_flattened.sol\":18248:18379  for (uint256 i = 0; i < recipients.length; i++) {... */\n      jump(tag_284)\n    tag_285:\n      pop\n        /* \"SnipeFinanceMultisenders (2)/SnipeFinanceMultisenders/SnipeFinanceMultisenders_flattened.sol\":17966:18393  {... */\n      pop\n        /* \"SnipeFinanceMultisenders (2)/SnipeFinanceMultisenders/SnipeFinanceMultisenders_flattened.sol\":17915:18393  if (tokenAddress.balanceOf(msg.sender) < quantity) {... */\n    tag_278:\n        /* \"SnipeFinanceMultisenders (2)/SnipeFinanceMultisenders/SnipeFinanceMultisenders_flattened.sol\":17474:18393  if (tokenAddress.balanceOf(msg.sender) >= quantity) {... */\n    tag_273:\n        /* \"SnipeFinanceMultisenders (2)/SnipeFinanceMultisenders/SnipeFinanceMultisenders_flattened.sol\":17426:18403  if (!authorizedusers[msg.sender]) {... */\n    tag_254:\n        /* \"SnipeFinanceMultisenders (2)/SnipeFinanceMultisenders/SnipeFinanceMultisenders_flattened.sol\":17101:18403  if (authorizedusers[msg.sender]) {... */\n    tag_253:\n        /* \"SnipeFinanceMultisenders (2)/SnipeFinanceMultisenders/SnipeFinanceMultisenders_flattened.sol\":16868:18409  {... */\n      pop\n        /* \"SnipeFinanceMultisenders (2)/SnipeFinanceMultisenders/SnipeFinanceMultisenders_flattened.sol\":16737:18409  function coinMultisender(... */\n      pop\n      pop\n      jump\t// out\n        /* \"SnipeFinanceMultisenders (2)/SnipeFinanceMultisenders/SnipeFinanceMultisenders_flattened.sol\":16117:16135  uint256 public fee */\n    tag_86:\n      sload(0x01)\n      dup2\n      jump\t// out\n        /* \"SnipeFinanceMultisenders (2)/SnipeFinanceMultisenders/SnipeFinanceMultisenders_flattened.sol\":12318:12516  function transferOwnership(address newOwner) public virtual onlyOwner {... */\n    tag_91:\n        /* \"SnipeFinanceMultisenders (2)/SnipeFinanceMultisenders/SnipeFinanceMultisenders_flattened.sol\":11338:11351  _checkOwner() */\n      tag_295\n        /* \"SnipeFinanceMultisenders (2)/SnipeFinanceMultisenders/SnipeFinanceMultisenders_flattened.sol\":11338:11349  _checkOwner */\n      tag_104\n        /* \"SnipeFinanceMultisenders (2)/SnipeFinanceMultisenders/SnipeFinanceMultisenders_flattened.sol\":11338:11351  _checkOwner() */\n      jump\t// in\n    tag_295:\n        /* \"SnipeFinanceMultisenders (2)/SnipeFinanceMultisenders/SnipeFinanceMultisenders_flattened.sol\":12426:12427  0 */\n      0x00\n        /* \"SnipeFinanceMultisenders (2)/SnipeFinanceMultisenders/SnipeFinanceMultisenders_flattened.sol\":12406:12428  newOwner != address(0) */\n      0xffffffffffffffffffffffffffffffffffffffff\n      and\n        /* \"SnipeFinanceMultisenders (2)/SnipeFinanceMultisenders/SnipeFinanceMultisenders_flattened.sol\":12406:12414  newOwner */\n      dup2\n        /* \"SnipeFinanceMultisenders (2)/SnipeFinanceMultisenders/SnipeFinanceMultisenders_flattened.sol\":12406:12428  newOwner != address(0) */\n      0xffffffffffffffffffffffffffffffffffffffff\n      and\n      sub\n        /* \"SnipeFinanceMultisenders (2)/SnipeFinanceMultisenders/SnipeFinanceMultisenders_flattened.sol\":12398:12471  require(newOwner != address(0), \"Ownable: new owner is the zero address\") */\n      tag_297\n      jumpi\n      mload(0x40)\n      0x08c379a000000000000000000000000000000000000000000000000000000000\n      dup2\n      mstore\n      0x04\n      add\n      tag_298\n      swap1\n      tag_299\n      jump\t// in\n    tag_298:\n      mload(0x40)\n      dup1\n      swap2\n      sub\n      swap1\n      revert\n    tag_297:\n        /* \"SnipeFinanceMultisenders (2)/SnipeFinanceMultisenders/SnipeFinanceMultisenders_flattened.sol\":12481:12509  _transferOwnership(newOwner) */\n      tag_300\n        /* \"SnipeFinanceMultisenders (2)/SnipeFinanceMultisenders/SnipeFinanceMultisenders_flattened.sol\":12500:12508  newOwner */\n      dup2\n        /* \"SnipeFinanceMultisenders (2)/SnipeFinanceMultisenders/SnipeFinanceMultisenders_flattened.sol\":12481:12499  _transferOwnership */\n      tag_125\n        /* \"SnipeFinanceMultisenders (2)/SnipeFinanceMultisenders/SnipeFinanceMultisenders_flattened.sol\":12481:12509  _transferOwnership(newOwner) */\n      jump\t// in\n    tag_300:\n        /* \"SnipeFinanceMultisenders (2)/SnipeFinanceMultisenders/SnipeFinanceMultisenders_flattened.sol\":12318:12516  function transferOwnership(address newOwner) public virtual onlyOwner {... */\n      pop\n      jump\t// out\n        /* \"SnipeFinanceMultisenders (2)/SnipeFinanceMultisenders/SnipeFinanceMultisenders_flattened.sol\":16141:16172  address payable public receiver */\n    tag_94:\n      0x02\n      0x00\n      swap1\n      sload\n      swap1\n      0x0100\n      exp\n      swap1\n      div\n      0xffffffffffffffffffffffffffffffffffffffff\n      and\n      dup2\n      jump\t// out\n        /* \"SnipeFinanceMultisenders (2)/SnipeFinanceMultisenders/SnipeFinanceMultisenders_flattened.sol\":21665:21857  function withdrawCoins(uint256 amount) external onlyOwner {... */\n    tag_101:\n        /* \"SnipeFinanceMultisenders (2)/SnipeFinanceMultisenders/SnipeFinanceMultisenders_flattened.sol\":11338:11351  _checkOwner() */\n      tag_302\n        /* \"SnipeFinanceMultisenders (2)/SnipeFinanceMultisenders/SnipeFinanceMultisenders_flattened.sol\":11338:11349  _checkOwner */\n      tag_104\n        /* \"SnipeFinanceMultisenders (2)/SnipeFinanceMultisenders/SnipeFinanceMultisenders_flattened.sol\":11338:11351  _checkOwner() */\n      jump\t// in\n    tag_302:\n        /* \"SnipeFinanceMultisenders (2)/SnipeFinanceMultisenders/SnipeFinanceMultisenders_flattened.sol\":21766:21772  amount */\n      dup1\n        /* \"SnipeFinanceMultisenders (2)/SnipeFinanceMultisenders/SnipeFinanceMultisenders_flattened.sol\":21741:21762  address(this).balance */\n      selfbalance\n        /* \"SnipeFinanceMultisenders (2)/SnipeFinanceMultisenders/SnipeFinanceMultisenders_flattened.sol\":21741:21772  address(this).balance >= amount */\n      lt\n      iszero\n        /* \"SnipeFinanceMultisenders (2)/SnipeFinanceMultisenders/SnipeFinanceMultisenders_flattened.sol\":21733:21804  require(address(this).balance >= amount, \"invalid balance to withdraw\") */\n      tag_304\n      jumpi\n      mload(0x40)\n      0x08c379a000000000000000000000000000000000000000000000000000000000\n      dup2\n      mstore\n      0x04\n      add\n      tag_305\n      swap1\n      tag_306\n      jump\t// in\n    tag_305:\n      mload(0x40)\n      dup1\n      swap2\n      sub\n      swap1\n      revert\n    tag_304:\n        /* \"SnipeFinanceMultisenders (2)/SnipeFinanceMultisenders/SnipeFinanceMultisenders_flattened.sol\":21822:21832  msg.sender */\n      caller\n        /* \"SnipeFinanceMultisenders (2)/SnipeFinanceMultisenders/SnipeFinanceMultisenders_flattened.sol\":21814:21842  payable(msg.sender).transfer */\n      0xffffffffffffffffffffffffffffffffffffffff\n      and\n        /* \"SnipeFinanceMultisenders (2)/SnipeFinanceMultisenders/SnipeFinanceMultisenders_flattened.sol\":21814:21850  payable(msg.sender).transfer(amount) */\n      0x08fc\n        /* \"SnipeFinanceMultisenders (2)/SnipeFinanceMultisenders/SnipeFinanceMultisenders_flattened.sol\":21843:21849  amount */\n      dup3\n        /* \"SnipeFinanceMultisenders (2)/SnipeFinanceMultisenders/SnipeFinanceMultisenders_flattened.sol\":21814:21850  payable(msg.sender).transfer(amount) */\n      swap1\n      dup2\n      iszero\n      mul\n      swap1\n      mload(0x40)\n      0x00\n      mload(0x40)\n      dup1\n      dup4\n      sub\n      dup2\n      dup6\n      dup9\n      dup9\n      call\n      swap4\n      pop\n      pop\n      pop\n      pop\n      iszero\n      dup1\n      iszero\n      tag_308\n      jumpi\n      returndatasize\n      0x00\n      dup1\n      returndatacopy\n      revert(0x00, returndatasize)\n    tag_308:\n      pop\n        /* \"SnipeFinanceMultisenders (2)/SnipeFinanceMultisenders/SnipeFinanceMultisenders_flattened.sol\":21665:21857  function withdrawCoins(uint256 amount) external onlyOwner {... */\n      pop\n      jump\t// out\n        /* \"SnipeFinanceMultisenders (2)/SnipeFinanceMultisenders/SnipeFinanceMultisenders_flattened.sol\":11603:11733  function _checkOwner() internal view virtual {... */\n    tag_104:\n        /* \"SnipeFinanceMultisenders (2)/SnipeFinanceMultisenders/SnipeFinanceMultisenders_flattened.sol\":11677:11689  _msgSender() */\n      tag_310\n        /* \"SnipeFinanceMultisenders (2)/SnipeFinanceMultisenders/SnipeFinanceMultisenders_flattened.sol\":11677:11687  _msgSender */\n      tag_311\n        /* \"SnipeFinanceMultisenders (2)/SnipeFinanceMultisenders/SnipeFinanceMultisenders_flattened.sol\":11677:11689  _msgSender() */\n      jump\t// in\n    tag_310:\n        /* \"SnipeFinanceMultisenders (2)/SnipeFinanceMultisenders/SnipeFinanceMultisenders_flattened.sol\":11666:11689  owner() == _msgSender() */\n      0xffffffffffffffffffffffffffffffffffffffff\n      and\n        /* \"SnipeFinanceMultisenders (2)/SnipeFinanceMultisenders/SnipeFinanceMultisenders_flattened.sol\":11666:11673  owner() */\n      tag_312\n        /* \"SnipeFinanceMultisenders (2)/SnipeFinanceMultisenders/SnipeFinanceMultisenders_flattened.sol\":11666:11671  owner */\n      tag_64\n        /* \"SnipeFinanceMultisenders (2)/SnipeFinanceMultisenders/SnipeFinanceMultisenders_flattened.sol\":11666:11673  owner() */\n      jump\t// in\n    tag_312:\n        /* \"SnipeFinanceMultisenders (2)/SnipeFinanceMultisenders/SnipeFinanceMultisenders_flattened.sol\":11666:11689  owner() == _msgSender() */\n      0xffffffffffffffffffffffffffffffffffffffff\n      and\n      eq\n        /* \"SnipeFinanceMultisenders (2)/SnipeFinanceMultisenders/SnipeFinanceMultisenders_flattened.sol\":11658:11726  require(owner() == _msgSender(), \"Ownable: caller is not the owner\") */\n      tag_313\n      jumpi\n      mload(0x40)\n      0x08c379a000000000000000000000000000000000000000000000000000000000\n      dup2\n      mstore\n      0x04\n      add\n      tag_314\n      swap1\n      tag_315\n      jump\t// in\n    tag_314:\n      mload(0x40)\n      dup1\n      swap2\n      sub\n      swap1\n      revert\n    tag_313:\n        /* \"SnipeFinanceMultisenders (2)/SnipeFinanceMultisenders/SnipeFinanceMultisenders_flattened.sol\":11603:11733  function _checkOwner() internal view virtual {... */\n      jump\t// out\n        /* \"SnipeFinanceMultisenders (2)/SnipeFinanceMultisenders/SnipeFinanceMultisenders_flattened.sol\":12670:12857  function _transferOwnership(address newOwner) internal virtual {... */\n    tag_125:\n        /* \"SnipeFinanceMultisenders (2)/SnipeFinanceMultisenders/SnipeFinanceMultisenders_flattened.sol\":12743:12759  address oldOwner */\n      0x00\n        /* \"SnipeFinanceMultisenders (2)/SnipeFinanceMultisenders/SnipeFinanceMultisenders_flattened.sol\":12762:12768  _owner */\n      dup1\n      0x00\n      swap1\n      sload\n      swap1\n      0x0100\n      exp\n      swap1\n      div\n      0xffffffffffffffffffffffffffffffffffffffff\n      and\n        /* \"SnipeFinanceMultisenders (2)/SnipeFinanceMultisenders/SnipeFinanceMultisenders_flattened.sol\":12743:12768  address oldOwner = _owner */\n      swap1\n      pop\n        /* \"SnipeFinanceMultisenders (2)/SnipeFinanceMultisenders/SnipeFinanceMultisenders_flattened.sol\":12787:12795  newOwner */\n      dup2\n        /* \"SnipeFinanceMultisenders (2)/SnipeFinanceMultisenders/SnipeFinanceMultisenders_flattened.sol\":12778:12784  _owner */\n      0x00\n      dup1\n        /* \"SnipeFinanceMultisenders (2)/SnipeFinanceMultisenders/SnipeFinanceMultisenders_flattened.sol\":12778:12795  _owner = newOwner */\n      0x0100\n      exp\n      dup2\n      sload\n      dup2\n      0xffffffffffffffffffffffffffffffffffffffff\n      mul\n      not\n      and\n      swap1\n      dup4\n      0xffffffffffffffffffffffffffffffffffffffff\n      and\n      mul\n      or\n      swap1\n      sstore\n      pop\n        /* \"SnipeFinanceMultisenders (2)/SnipeFinanceMultisenders/SnipeFinanceMultisenders_flattened.sol\":12841:12849  newOwner */\n      dup2\n        /* \"SnipeFinanceMultisenders (2)/SnipeFinanceMultisenders/SnipeFinanceMultisenders_flattened.sol\":12810:12850  OwnershipTransferred(oldOwner, newOwner) */\n      0xffffffffffffffffffffffffffffffffffffffff\n      and\n        /* \"SnipeFinanceMultisenders (2)/SnipeFinanceMultisenders/SnipeFinanceMultisenders_flattened.sol\":12831:12839  oldOwner */\n      dup2\n        /* \"SnipeFinanceMultisenders (2)/SnipeFinanceMultisenders/SnipeFinanceMultisenders_flattened.sol\":12810:12850  OwnershipTransferred(oldOwner, newOwner) */\n      0xffffffffffffffffffffffffffffffffffffffff\n      and\n      0x8be0079c531659141344cd1fd0a4f28419497f9722a3daafe3b4186f6b6457e0\n      mload(0x40)\n      mload(0x40)\n      dup1\n      swap2\n      sub\n      swap1\n      log3\n        /* \"SnipeFinanceMultisenders (2)/SnipeFinanceMultisenders/SnipeFinanceMultisenders_flattened.sol\":12733:12857  {... */\n      pop\n        /* \"SnipeFinanceMultisenders (2)/SnipeFinanceMultisenders/SnipeFinanceMultisenders_flattened.sol\":12670:12857  function _transferOwnership(address newOwner) internal virtual {... */\n      pop\n      jump\t// out\n        /* \"SnipeFinanceMultisenders (2)/SnipeFinanceMultisenders/SnipeFinanceMultisenders_flattened.sol\":1434:1754  function isContract(address account) internal view returns (bool) {... */\n    tag_136:\n        /* \"SnipeFinanceMultisenders (2)/SnipeFinanceMultisenders/SnipeFinanceMultisenders_flattened.sol\":1494:1498  bool */\n      0x00\n        /* \"SnipeFinanceMultisenders (2)/SnipeFinanceMultisenders/SnipeFinanceMultisenders_flattened.sol\":1746:1747  0 */\n      dup1\n        /* \"SnipeFinanceMultisenders (2)/SnipeFinanceMultisenders/SnipeFinanceMultisenders_flattened.sol\":1724:1731  account */\n      dup3\n        /* \"SnipeFinanceMultisenders (2)/SnipeFinanceMultisenders/SnipeFinanceMultisenders_flattened.sol\":1724:1743  account.code.length */\n      0xffffffffffffffffffffffffffffffffffffffff\n      and\n      extcodesize\n        /* \"SnipeFinanceMultisenders (2)/SnipeFinanceMultisenders/SnipeFinanceMultisenders_flattened.sol\":1724:1747  account.code.length > 0 */\n      gt\n        /* \"SnipeFinanceMultisenders (2)/SnipeFinanceMultisenders/SnipeFinanceMultisenders_flattened.sol\":1717:1747  return account.code.length > 0 */\n      swap1\n      pop\n        /* \"SnipeFinanceMultisenders (2)/SnipeFinanceMultisenders/SnipeFinanceMultisenders_flattened.sol\":1434:1754  function isContract(address account) internal view returns (bool) {... */\n      swap2\n      swap1\n      pop\n      jump\t// out\n        /* \"SnipeFinanceMultisenders (2)/SnipeFinanceMultisenders/SnipeFinanceMultisenders_flattened.sol\":10048:10144  function _msgSender() internal view virtual returns (address) {... */\n    tag_311:\n        /* \"SnipeFinanceMultisenders (2)/SnipeFinanceMultisenders/SnipeFinanceMultisenders_flattened.sol\":10101:10108  address */\n      0x00\n        /* \"SnipeFinanceMultisenders (2)/SnipeFinanceMultisenders/SnipeFinanceMultisenders_flattened.sol\":10127:10137  msg.sender */\n      caller\n        /* \"SnipeFinanceMultisenders (2)/SnipeFinanceMultisenders/SnipeFinanceMultisenders_flattened.sol\":10120:10137  return msg.sender */\n      swap1\n      pop\n        /* \"SnipeFinanceMultisenders (2)/SnipeFinanceMultisenders/SnipeFinanceMultisenders_flattened.sol\":10048:10144  function _msgSender() internal view virtual returns (address) {... */\n      swap1\n      jump\t// out\n        /* \"#utility.yul\":7:82   */\n    tag_319:\n        /* \"#utility.yul\":40:46   */\n      0x00\n        /* \"#utility.yul\":73:75   */\n      0x40\n        /* \"#utility.yul\":67:76   */\n      mload\n        /* \"#utility.yul\":57:76   */\n      swap1\n      pop\n        /* \"#utility.yul\":7:82   */\n      swap1\n      jump\t// out\n        /* \"#utility.yul\":88:205   */\n    tag_320:\n        /* \"#utility.yul\":197:198   */\n      0x00\n        /* \"#utility.yul\":194:195   */\n      dup1\n        /* \"#utility.yul\":187:199   */\n      revert\n        /* \"#utility.yul\":211:328   */\n    tag_321:\n        /* \"#utility.yul\":320:321   */\n      0x00\n        /* \"#utility.yul\":317:318   */\n      dup1\n        /* \"#utility.yul\":310:322   */\n      revert\n        /* \"#utility.yul\":334:411   */\n    tag_322:\n        /* \"#utility.yul\":371:378   */\n      0x00\n        /* \"#utility.yul\":400:405   */\n      dup2\n        /* \"#utility.yul\":389:405   */\n      swap1\n      pop\n        /* \"#utility.yul\":334:411   */\n      swap2\n      swap1\n      pop\n      jump\t// out\n        /* \"#utility.yul\":417:539   */\n    tag_323:\n        /* \"#utility.yul\":490:514   */\n      tag_392\n        /* \"#utility.yul\":508:513   */\n      dup2\n        /* \"#utility.yul\":490:514   */\n      tag_322\n      jump\t// in\n    tag_392:\n        /* \"#utility.yul\":483:488   */\n      dup2\n        /* \"#utility.yul\":480:515   */\n      eq\n        /* \"#utility.yul\":470:533   */\n      tag_393\n      jumpi\n        /* \"#utility.yul\":529:530   */\n      0x00\n        /* \"#utility.yul\":526:527   */\n      dup1\n        /* \"#utility.yul\":519:531   */\n      revert\n        /* \"#utility.yul\":470:533   */\n    tag_393:\n        /* \"#utility.yul\":417:539   */\n      pop\n      jump\t// out\n        /* \"#utility.yul\":545:684   */\n    tag_324:\n        /* \"#utility.yul\":591:596   */\n      0x00\n        /* \"#utility.yul\":629:635   */\n      dup2\n        /* \"#utility.yul\":616:636   */\n      calldataload\n        /* \"#utility.yul\":607:636   */\n      swap1\n      pop\n        /* \"#utility.yul\":645:678   */\n      tag_395\n        /* \"#utility.yul\":672:677   */\n      dup2\n        /* \"#utility.yul\":645:678   */\n      tag_323\n      jump\t// in\n    tag_395:\n        /* \"#utility.yul\":545:684   */\n      swap3\n      swap2\n      pop\n      pop\n      jump\t// out\n        /* \"#utility.yul\":690:816   */\n    tag_325:\n        /* \"#utility.yul\":727:734   */\n      0x00\n        /* \"#utility.yul\":767:809   */\n      0xffffffffffffffffffffffffffffffffffffffff\n        /* \"#utility.yul\":760:765   */\n      dup3\n        /* \"#utility.yul\":756:810   */\n      and\n        /* \"#utility.yul\":745:810   */\n      swap1\n      pop\n        /* \"#utility.yul\":690:816   */\n      swap2\n      swap1\n      pop\n      jump\t// out\n        /* \"#utility.yul\":822:918   */\n    tag_326:\n        /* \"#utility.yul\":859:866   */\n      0x00\n        /* \"#utility.yul\":888:912   */\n      tag_398\n        /* \"#utility.yul\":906:911   */\n      dup3\n        /* \"#utility.yul\":888:912   */\n      tag_325\n      jump\t// in\n    tag_398:\n        /* \"#utility.yul\":877:912   */\n      swap1\n      pop\n        /* \"#utility.yul\":822:918   */\n      swap2\n      swap1\n      pop\n      jump\t// out\n        /* \"#utility.yul\":924:1046   */\n    tag_327:\n        /* \"#utility.yul\":997:1021   */\n      tag_400\n        /* \"#utility.yul\":1015:1020   */\n      dup2\n        /* \"#utility.yul\":997:1021   */\n      tag_326\n      jump\t// in\n    tag_400:\n        /* \"#utility.yul\":990:995   */\n      dup2\n        /* \"#utility.yul\":987:1022   */\n      eq\n        /* \"#utility.yul\":977:1040   */\n      tag_401\n      jumpi\n        /* \"#utility.yul\":1036:1037   */\n      0x00\n        /* \"#utility.yul\":1033:1034   */\n      dup1\n        /* \"#utility.yul\":1026:1038   */\n      revert\n        /* \"#utility.yul\":977:1040   */\n    tag_401:\n        /* \"#utility.yul\":924:1046   */\n      pop\n      jump\t// out\n        /* \"#utility.yul\":1052:1191   */\n    tag_328:\n        /* \"#utility.yul\":1098:1103   */\n      0x00\n        /* \"#utility.yul\":1136:1142   */\n      dup2\n        /* \"#utility.yul\":1123:1143   */\n      calldataload\n        /* \"#utility.yul\":1114:1143   */\n      swap1\n      pop\n        /* \"#utility.yul\":1152:1185   */\n      tag_403\n        /* \"#utility.yul\":1179:1184   */\n      dup2\n        /* \"#utility.yul\":1152:1185   */\n      tag_327\n      jump\t// in\n    tag_403:\n        /* \"#utility.yul\":1052:1191   */\n      swap3\n      swap2\n      pop\n      pop\n      jump\t// out\n        /* \"#utility.yul\":1197:1671   */\n    tag_28:\n        /* \"#utility.yul\":1265:1271   */\n      0x00\n        /* \"#utility.yul\":1273:1279   */\n      dup1\n        /* \"#utility.yul\":1322:1324   */\n      0x40\n        /* \"#utility.yul\":1310:1319   */\n      dup4\n        /* \"#utility.yul\":1301:1308   */\n      dup6\n        /* \"#utility.yul\":1297:1320   */\n      sub\n        /* \"#utility.yul\":1293:1325   */\n      slt\n        /* \"#utility.yul\":1290:1409   */\n      iszero\n      tag_405\n      jumpi\n        /* \"#utility.yul\":1328:1407   */\n      tag_406\n      tag_320\n      jump\t// in\n    tag_406:\n        /* \"#utility.yul\":1290:1409   */\n    tag_405:\n        /* \"#utility.yul\":1448:1449   */\n      0x00\n        /* \"#utility.yul\":1473:1526   */\n      tag_407\n        /* \"#utility.yul\":1518:1525   */\n      dup6\n        /* \"#utility.yul\":1509:1515   */\n      dup3\n        /* \"#utility.yul\":1498:1507   */\n      dup7\n        /* \"#utility.yul\":1494:1516   */\n      add\n        /* \"#utility.yul\":1473:1526   */\n      tag_324\n      jump\t// in\n    tag_407:\n        /* \"#utility.yul\":1463:1526   */\n      swap3\n      pop\n        /* \"#utility.yul\":1419:1536   */\n      pop\n        /* \"#utility.yul\":1575:1577   */\n      0x20\n        /* \"#utility.yul\":1601:1654   */\n      tag_408\n        /* \"#utility.yul\":1646:1653   */\n      dup6\n        /* \"#utility.yul\":1637:1643   */\n      dup3\n        /* \"#utility.yul\":1626:1635   */\n      dup7\n        /* \"#utility.yul\":1622:1644   */\n      add\n        /* \"#utility.yul\":1601:1654   */\n      tag_328\n      jump\t// in\n    tag_408:\n        /* \"#utility.yul\":1591:1654   */\n      swap2\n      pop\n        /* \"#utility.yul\":1546:1664   */\n      pop\n        /* \"#utility.yul\":1197:1671   */\n      swap3\n      pop\n      swap3\n      swap1\n      pop\n      jump\t// out\n        /* \"#utility.yul\":1677:1795   */\n    tag_329:\n        /* \"#utility.yul\":1764:1788   */\n      tag_410\n        /* \"#utility.yul\":1782:1787   */\n      dup2\n        /* \"#utility.yul\":1764:1788   */\n      tag_322\n      jump\t// in\n    tag_410:\n        /* \"#utility.yul\":1759:1762   */\n      dup3\n        /* \"#utility.yul\":1752:1789   */\n      mstore\n        /* \"#utility.yul\":1677:1795   */\n      pop\n      pop\n      jump\t// out\n        /* \"#utility.yul\":1801:2023   */\n    tag_34:\n        /* \"#utility.yul\":1894:1898   */\n      0x00\n        /* \"#utility.yul\":1932:1934   */\n      0x20\n        /* \"#utility.yul\":1921:1930   */\n      dup3\n        /* \"#utility.yul\":1917:1935   */\n      add\n        /* \"#utility.yul\":1909:1935   */\n      swap1\n      pop\n        /* \"#utility.yul\":1945:2016   */\n      tag_412\n        /* \"#utility.yul\":2013:2014   */\n      0x00\n        /* \"#utility.yul\":2002:2011   */\n      dup4\n        /* \"#utility.yul\":1998:2015   */\n      add\n        /* \"#utility.yul\":1989:1995   */\n      dup5\n        /* \"#utility.yul\":1945:2016   */\n      tag_329\n      jump\t// in\n    tag_412:\n        /* \"#utility.yul\":1801:2023   */\n      swap3\n      swap2\n      pop\n      pop\n      jump\t// out\n        /* \"#utility.yul\":2029:2139   */\n    tag_330:\n        /* \"#utility.yul\":2080:2087   */\n      0x00\n        /* \"#utility.yul\":2109:2133   */\n      tag_414\n        /* \"#utility.yul\":2127:2132   */\n      dup3\n        /* \"#utility.yul\":2109:2133   */\n      tag_326\n      jump\t// in\n    tag_414:\n        /* \"#utility.yul\":2098:2133   */\n      swap1\n      pop\n        /* \"#utility.yul\":2029:2139   */\n      swap2\n      swap1\n      pop\n      jump\t// out\n        /* \"#utility.yul\":2145:2295   */\n    tag_331:\n        /* \"#utility.yul\":2232:2270   */\n      tag_416\n        /* \"#utility.yul\":2264:2269   */\n      dup2\n        /* \"#utility.yul\":2232:2270   */\n      tag_330\n      jump\t// in\n    tag_416:\n        /* \"#utility.yul\":2225:2230   */\n      dup2\n        /* \"#utility.yul\":2222:2271   */\n      eq\n        /* \"#utility.yul\":2212:2289   */\n      tag_417\n      jumpi\n        /* \"#utility.yul\":2285:2286   */\n      0x00\n        /* \"#utility.yul\":2282:2283   */\n      dup1\n        /* \"#utility.yul\":2275:2287   */\n      revert\n        /* \"#utility.yul\":2212:2289   */\n    tag_417:\n        /* \"#utility.yul\":2145:2295   */\n      pop\n      jump\t// out\n        /* \"#utility.yul\":2301:2468   */\n    tag_332:\n        /* \"#utility.yul\":2361:2366   */\n      0x00\n        /* \"#utility.yul\":2399:2405   */\n      dup2\n        /* \"#utility.yul\":2386:2406   */\n      calldataload\n        /* \"#utility.yul\":2377:2406   */\n      swap1\n      pop\n        /* \"#utility.yul\":2415:2462   */\n      tag_419\n        /* \"#utility.yul\":2456:2461   */\n      dup2\n        /* \"#utility.yul\":2415:2462   */\n      tag_331\n      jump\t// in\n    tag_419:\n        /* \"#utility.yul\":2301:2468   */\n      swap3\n      swap2\n      pop\n      pop\n      jump\t// out\n        /* \"#utility.yul\":2474:2976   */\n    tag_38:\n        /* \"#utility.yul\":2556:2562   */\n      0x00\n        /* \"#utility.yul\":2564:2570   */\n      dup1\n        /* \"#utility.yul\":2613:2615   */\n      0x40\n        /* \"#utility.yul\":2601:2610   */\n      dup4\n        /* \"#utility.yul\":2592:2599   */\n      dup6\n        /* \"#utility.yul\":2588:2611   */\n      sub\n        /* \"#utility.yul\":2584:2616   */\n      slt\n        /* \"#utility.yul\":2581:2700   */\n      iszero\n      tag_421\n      jumpi\n        /* \"#utility.yul\":2619:2698   */\n      tag_422\n      tag_320\n      jump\t// in\n    tag_422:\n        /* \"#utility.yul\":2581:2700   */\n    tag_421:\n        /* \"#utility.yul\":2739:2740   */\n      0x00\n        /* \"#utility.yul\":2764:2831   */\n      tag_423\n        /* \"#utility.yul\":2823:2830   */\n      dup6\n        /* \"#utility.yul\":2814:2820   */\n      dup3\n        /* \"#utility.yul\":2803:2812   */\n      dup7\n        /* \"#utility.yul\":2799:2821   */\n      add\n        /* \"#utility.yul\":2764:2831   */\n      tag_332\n      jump\t// in\n    tag_423:\n        /* \"#utility.yul\":2754:2831   */\n      swap3\n      pop\n        /* \"#utility.yul\":2710:2841   */\n      pop\n        /* \"#utility.yul\":2880:2882   */\n      0x20\n        /* \"#utility.yul\":2906:2959   */\n      tag_424\n        /* \"#utility.yul\":2951:2958   */\n      dup6\n        /* \"#utility.yul\":2942:2948   */\n      dup3\n        /* \"#utility.yul\":2931:2940   */\n      dup7\n        /* \"#utility.yul\":2927:2949   */\n      add\n        /* \"#utility.yul\":2906:2959   */\n      tag_324\n      jump\t// in\n    tag_424:\n        /* \"#utility.yul\":2896:2959   */\n      swap2\n      pop\n        /* \"#utility.yul\":2851:2969   */\n      pop\n        /* \"#utility.yul\":2474:2976   */\n      swap3\n      pop\n      swap3\n      swap1\n      pop\n      jump\t// out\n        /* \"#utility.yul\":2982:3311   */\n    tag_43:\n        /* \"#utility.yul\":3041:3047   */\n      0x00\n        /* \"#utility.yul\":3090:3092   */\n      0x20\n        /* \"#utility.yul\":3078:3087   */\n      dup3\n        /* \"#utility.yul\":3069:3076   */\n      dup5\n        /* \"#utility.yul\":3065:3088   */\n      sub\n        /* \"#utility.yul\":3061:3093   */\n      slt\n        /* \"#utility.yul\":3058:3177   */\n      iszero\n      tag_426\n      jumpi\n        /* \"#utility.yul\":3096:3175   */\n      tag_427\n      tag_320\n      jump\t// in\n    tag_427:\n        /* \"#utility.yul\":3058:3177   */\n    tag_426:\n        /* \"#utility.yul\":3216:3217   */\n      0x00\n        /* \"#utility.yul\":3241:3294   */\n      tag_428\n        /* \"#utility.yul\":3286:3293   */\n      dup5\n        /* \"#utility.yul\":3277:3283   */\n      dup3\n        /* \"#utility.yul\":3266:3275   */\n      dup6\n        /* \"#utility.yul\":3262:3284   */\n      add\n        /* \"#utility.yul\":3241:3294   */\n      tag_328\n      jump\t// in\n    tag_428:\n        /* \"#utility.yul\":3231:3294   */\n      swap2\n      pop\n        /* \"#utility.yul\":3187:3304   */\n      pop\n        /* \"#utility.yul\":2982:3311   */\n      swap3\n      swap2\n      pop\n      pop\n      jump\t// out\n        /* \"#utility.yul\":3317:3407   */\n    tag_333:\n        /* \"#utility.yul\":3351:3358   */\n      0x00\n        /* \"#utility.yul\":3394:3399   */\n      dup2\n        /* \"#utility.yul\":3387:3400   */\n      iszero\n        /* \"#utility.yul\":3380:3401   */\n      iszero\n        /* \"#utility.yul\":3369:3401   */\n      swap1\n      pop\n        /* \"#utility.yul\":3317:3407   */\n      swap2\n      swap1\n      pop\n      jump\t// out\n        /* \"#utility.yul\":3413:3522   */\n    tag_334:\n        /* \"#utility.yul\":3494:3515   */\n      tag_431\n        /* \"#utility.yul\":3509:3514   */\n      dup2\n        /* \"#utility.yul\":3494:3515   */\n      tag_333\n      jump\t// in\n    tag_431:\n        /* \"#utility.yul\":3489:3492   */\n      dup3\n        /* \"#utility.yul\":3482:3516   */\n      mstore\n        /* \"#utility.yul\":3413:3522   */\n      pop\n      pop\n      jump\t// out\n        /* \"#utility.yul\":3528:3738   */\n    tag_46:\n        /* \"#utility.yul\":3615:3619   */\n      0x00\n        /* \"#utility.yul\":3653:3655   */\n      0x20\n        /* \"#utility.yul\":3642:3651   */\n      dup3\n        /* \"#utility.yul\":3638:3656   */\n      add\n        /* \"#utility.yul\":3630:3656   */\n      swap1\n      pop\n        /* \"#utility.yul\":3666:3731   */\n      tag_433\n        /* \"#utility.yul\":3728:3729   */\n      0x00\n        /* \"#utility.yul\":3717:3726   */\n      dup4\n        /* \"#utility.yul\":3713:3730   */\n      add\n        /* \"#utility.yul\":3704:3710   */\n      dup5\n        /* \"#utility.yul\":3666:3731   */\n      tag_334\n      jump\t// in\n    tag_433:\n        /* \"#utility.yul\":3528:3738   */\n      swap3\n      swap2\n      pop\n      pop\n      jump\t// out\n        /* \"#utility.yul\":3744:3862   */\n    tag_335:\n        /* \"#utility.yul\":3831:3855   */\n      tag_435\n        /* \"#utility.yul\":3849:3854   */\n      dup2\n        /* \"#utility.yul\":3831:3855   */\n      tag_326\n      jump\t// in\n    tag_435:\n        /* \"#utility.yul\":3826:3829   */\n      dup3\n        /* \"#utility.yul\":3819:3856   */\n      mstore\n        /* \"#utility.yul\":3744:3862   */\n      pop\n      pop\n      jump\t// out\n        /* \"#utility.yul\":3868:4090   */\n    tag_66:\n        /* \"#utility.yul\":3961:3965   */\n      0x00\n        /* \"#utility.yul\":3999:4001   */\n      0x20\n        /* \"#utility.yul\":3988:3997   */\n      dup3\n        /* \"#utility.yul\":3984:4002   */\n      add\n        /* \"#utility.yul\":3976:4002   */\n      swap1\n      pop\n        /* \"#utility.yul\":4012:4083   */\n      tag_437\n        /* \"#utility.yul\":4080:4081   */\n      0x00\n        /* \"#utility.yul\":4069:4078   */\n      dup4\n        /* \"#utility.yul\":4065:4082   */\n      add\n        /* \"#utility.yul\":4056:4062   */\n      dup5\n        /* \"#utility.yul\":4012:4083   */\n      tag_335\n      jump\t// in\n    tag_437:\n        /* \"#utility.yul\":3868:4090   */\n      swap3\n      swap2\n      pop\n      pop\n      jump\t// out\n        /* \"#utility.yul\":4096:4213   */\n    tag_336:\n        /* \"#utility.yul\":4205:4206   */\n      0x00\n        /* \"#utility.yul\":4202:4203   */\n      dup1\n        /* \"#utility.yul\":4195:4207   */\n      revert\n        /* \"#utility.yul\":4219:4321   */\n    tag_337:\n        /* \"#utility.yul\":4260:4266   */\n      0x00\n        /* \"#utility.yul\":4311:4313   */\n      0x1f\n        /* \"#utility.yul\":4307:4314   */\n      not\n        /* \"#utility.yul\":4302:4304   */\n      0x1f\n        /* \"#utility.yul\":4295:4300   */\n      dup4\n        /* \"#utility.yul\":4291:4305   */\n      add\n        /* \"#utility.yul\":4287:4315   */\n      and\n        /* \"#utility.yul\":4277:4315   */\n      swap1\n      pop\n        /* \"#utility.yul\":4219:4321   */\n      swap2\n      swap1\n      pop\n      jump\t// out\n        /* \"#utility.yul\":4327:4507   */\n    tag_338:\n        /* \"#utility.yul\":4375:4452   */\n      0x4e487b7100000000000000000000000000000000000000000000000000000000\n        /* \"#utility.yul\":4372:4373   */\n      0x00\n        /* \"#utility.yul\":4365:4453   */\n      mstore\n        /* \"#utility.yul\":4472:4476   */\n      0x41\n        /* \"#utility.yul\":4469:4470   */\n      0x04\n        /* \"#utility.yul\":4462:4477   */\n      mstore\n        /* \"#utility.yul\":4496:4500   */\n      0x24\n        /* \"#utility.yul\":4493:4494   */\n      0x00\n        /* \"#utility.yul\":4486:4501   */\n      revert\n        /* \"#utility.yul\":4513:4794   */\n    tag_339:\n        /* \"#utility.yul\":4596:4623   */\n      tag_442\n        /* \"#utility.yul\":4618:4622   */\n      dup3\n        /* \"#utility.yul\":4596:4623   */\n      tag_337\n      jump\t// in\n    tag_442:\n        /* \"#utility.yul\":4588:4594   */\n      dup2\n        /* \"#utility.yul\":4584:4624   */\n      add\n        /* \"#utility.yul\":4726:4732   */\n      dup2\n        /* \"#utility.yul\":4714:4724   */\n      dup2\n        /* \"#utility.yul\":4711:4733   */\n      lt\n        /* \"#utility.yul\":4690:4708   */\n      0xffffffffffffffff\n        /* \"#utility.yul\":4678:4688   */\n      dup3\n        /* \"#utility.yul\":4675:4709   */\n      gt\n        /* \"#utility.yul\":4672:4734   */\n      or\n        /* \"#utility.yul\":4669:4757   */\n      iszero\n      tag_443\n      jumpi\n        /* \"#utility.yul\":4737:4755   */\n      tag_444\n      tag_338\n      jump\t// in\n    tag_444:\n        /* \"#utility.yul\":4669:4757   */\n    tag_443:\n        /* \"#utility.yul\":4777:4787   */\n      dup1\n        /* \"#utility.yul\":4773:4775   */\n      0x40\n        /* \"#utility.yul\":4766:4788   */\n      mstore\n        /* \"#utility.yul\":4556:4794   */\n      pop\n        /* \"#utility.yul\":4513:4794   */\n      pop\n      pop\n      jump\t// out\n        /* \"#utility.yul\":4800:4929   */\n    tag_340:\n        /* \"#utility.yul\":4834:4840   */\n      0x00\n        /* \"#utility.yul\":4861:4881   */\n      tag_446\n      tag_319\n      jump\t// in\n    tag_446:\n        /* \"#utility.yul\":4851:4881   */\n      swap1\n      pop\n        /* \"#utility.yul\":4890:4923   */\n      tag_447\n        /* \"#utility.yul\":4918:4922   */\n      dup3\n        /* \"#utility.yul\":4910:4916   */\n      dup3\n        /* \"#utility.yul\":4890:4923   */\n      tag_339\n      jump\t// in\n    tag_447:\n        /* \"#utility.yul\":4800:4929   */\n      swap2\n      swap1\n      pop\n      jump\t// out\n        /* \"#utility.yul\":4935:5246   */\n    tag_341:\n        /* \"#utility.yul\":5012:5016   */\n      0x00\n        /* \"#utility.yul\":5102:5120   */\n      0xffffffffffffffff\n        /* \"#utility.yul\":5094:5100   */\n      dup3\n        /* \"#utility.yul\":5091:5121   */\n      gt\n        /* \"#utility.yul\":5088:5144   */\n      iszero\n      tag_449\n      jumpi\n        /* \"#utility.yul\":5124:5142   */\n      tag_450\n      tag_338\n      jump\t// in\n    tag_450:\n        /* \"#utility.yul\":5088:5144   */\n    tag_449:\n        /* \"#utility.yul\":5174:5178   */\n      0x20\n        /* \"#utility.yul\":5166:5172   */\n      dup3\n        /* \"#utility.yul\":5162:5179   */\n      mul\n        /* \"#utility.yul\":5154:5179   */\n      swap1\n      pop\n        /* \"#utility.yul\":5234:5238   */\n      0x20\n        /* \"#utility.yul\":5228:5232   */\n      dup2\n        /* \"#utility.yul\":5224:5239   */\n      add\n        /* \"#utility.yul\":5216:5239   */\n      swap1\n      pop\n        /* \"#utility.yul\":4935:5246   */\n      swap2\n      swap1\n      pop\n      jump\t// out\n        /* \"#utility.yul\":5252:5369   */\n    tag_342:\n        /* \"#utility.yul\":5361:5362   */\n      0x00\n        /* \"#utility.yul\":5358:5359   */\n      dup1\n        /* \"#utility.yul\":5351:5363   */\n      revert\n        /* \"#utility.yul\":5392:6102   */\n    tag_343:\n        /* \"#utility.yul\":5488:5493   */\n      0x00\n        /* \"#utility.yul\":5513:5594   */\n      tag_453\n        /* \"#utility.yul\":5529:5593   */\n      tag_454\n        /* \"#utility.yul\":5586:5592   */\n      dup5\n        /* \"#utility.yul\":5529:5593   */\n      tag_341\n      jump\t// in\n    tag_454:\n        /* \"#utility.yul\":5513:5594   */\n      tag_340\n      jump\t// in\n    tag_453:\n        /* \"#utility.yul\":5504:5594   */\n      swap1\n      pop\n        /* \"#utility.yul\":5614:5619   */\n      dup1\n        /* \"#utility.yul\":5643:5649   */\n      dup4\n        /* \"#utility.yul\":5636:5641   */\n      dup3\n        /* \"#utility.yul\":5629:5650   */\n      mstore\n        /* \"#utility.yul\":5677:5681   */\n      0x20\n        /* \"#utility.yul\":5670:5675   */\n      dup3\n        /* \"#utility.yul\":5666:5682   */\n      add\n        /* \"#utility.yul\":5659:5682   */\n      swap1\n      pop\n        /* \"#utility.yul\":5730:5734   */\n      0x20\n        /* \"#utility.yul\":5722:5728   */\n      dup5\n        /* \"#utility.yul\":5718:5735   */\n      mul\n        /* \"#utility.yul\":5710:5716   */\n      dup4\n        /* \"#utility.yul\":5706:5736   */\n      add\n        /* \"#utility.yul\":5759:5762   */\n      dup6\n        /* \"#utility.yul\":5751:5757   */\n      dup2\n        /* \"#utility.yul\":5748:5763   */\n      gt\n        /* \"#utility.yul\":5745:5867   */\n      iszero\n      tag_455\n      jumpi\n        /* \"#utility.yul\":5778:5857   */\n      tag_456\n      tag_342\n      jump\t// in\n    tag_456:\n        /* \"#utility.yul\":5745:5867   */\n    tag_455:\n        /* \"#utility.yul\":5893:5899   */\n      dup4\n        /* \"#utility.yul\":5876:6096   */\n    tag_457:\n        /* \"#utility.yul\":5910:5916   */\n      dup2\n        /* \"#utility.yul\":5905:5908   */\n      dup2\n        /* \"#utility.yul\":5902:5917   */\n      lt\n        /* \"#utility.yul\":5876:6096   */\n      iszero\n      tag_459\n      jumpi\n        /* \"#utility.yul\":5985:5988   */\n      dup1\n        /* \"#utility.yul\":6014:6051   */\n      tag_460\n        /* \"#utility.yul\":6047:6050   */\n      dup9\n        /* \"#utility.yul\":6035:6045   */\n      dup3\n        /* \"#utility.yul\":6014:6051   */\n      tag_328\n      jump\t// in\n    tag_460:\n        /* \"#utility.yul\":6009:6012   */\n      dup5\n        /* \"#utility.yul\":6002:6052   */\n      mstore\n        /* \"#utility.yul\":6081:6085   */\n      0x20\n        /* \"#utility.yul\":6076:6079   */\n      dup5\n        /* \"#utility.yul\":6072:6086   */\n      add\n        /* \"#utility.yul\":6065:6086   */\n      swap4\n      pop\n        /* \"#utility.yul\":5952:6096   */\n      pop\n        /* \"#utility.yul\":5936:5940   */\n      0x20\n        /* \"#utility.yul\":5931:5934   */\n      dup2\n        /* \"#utility.yul\":5927:5941   */\n      add\n        /* \"#utility.yul\":5920:5941   */\n      swap1\n      pop\n        /* \"#utility.yul\":5876:6096   */\n      jump(tag_457)\n    tag_459:\n        /* \"#utility.yul\":5880:5901   */\n      pop\n        /* \"#utility.yul\":5494:6102   */\n      pop\n      pop\n        /* \"#utility.yul\":5392:6102   */\n      swap4\n      swap3\n      pop\n      pop\n      pop\n      jump\t// out\n        /* \"#utility.yul\":6125:6495   */\n    tag_344:\n        /* \"#utility.yul\":6196:6201   */\n      0x00\n        /* \"#utility.yul\":6245:6248   */\n      dup3\n        /* \"#utility.yul\":6238:6242   */\n      0x1f\n        /* \"#utility.yul\":6230:6236   */\n      dup4\n        /* \"#utility.yul\":6226:6243   */\n      add\n        /* \"#utility.yul\":6222:6249   */\n      slt\n        /* \"#utility.yul\":6212:6334   */\n      tag_462\n      jumpi\n        /* \"#utility.yul\":6253:6332   */\n      tag_463\n      tag_336\n      jump\t// in\n    tag_463:\n        /* \"#utility.yul\":6212:6334   */\n    tag_462:\n        /* \"#utility.yul\":6370:6376   */\n      dup2\n        /* \"#utility.yul\":6357:6377   */\n      calldataload\n        /* \"#utility.yul\":6395:6489   */\n      tag_464\n        /* \"#utility.yul\":6485:6488   */\n      dup5\n        /* \"#utility.yul\":6477:6483   */\n      dup3\n        /* \"#utility.yul\":6470:6474   */\n      0x20\n        /* \"#utility.yul\":6462:6468   */\n      dup7\n        /* \"#utility.yul\":6458:6475   */\n      add\n        /* \"#utility.yul\":6395:6489   */\n      tag_343\n      jump\t// in\n    tag_464:\n        /* \"#utility.yul\":6386:6489   */\n      swap2\n      pop\n        /* \"#utility.yul\":6202:6495   */\n      pop\n        /* \"#utility.yul\":6125:6495   */\n      swap3\n      swap2\n      pop\n      pop\n      jump\t// out\n        /* \"#utility.yul\":6501:6812   */\n    tag_345:\n        /* \"#utility.yul\":6578:6582   */\n      0x00\n        /* \"#utility.yul\":6668:6686   */\n      0xffffffffffffffff\n        /* \"#utility.yul\":6660:6666   */\n      dup3\n        /* \"#utility.yul\":6657:6687   */\n      gt\n        /* \"#utility.yul\":6654:6710   */\n      iszero\n      tag_466\n      jumpi\n        /* \"#utility.yul\":6690:6708   */\n      tag_467\n      tag_338\n      jump\t// in\n    tag_467:\n        /* \"#utility.yul\":6654:6710   */\n    tag_466:\n        /* \"#utility.yul\":6740:6744   */\n      0x20\n        /* \"#utility.yul\":6732:6738   */\n      dup3\n        /* \"#utility.yul\":6728:6745   */\n      mul\n        /* \"#utility.yul\":6720:6745   */\n      swap1\n      pop\n        /* \"#utility.yul\":6800:6804   */\n      0x20\n        /* \"#utility.yul\":6794:6798   */\n      dup2\n        /* \"#utility.yul\":6790:6805   */\n      add\n        /* \"#utility.yul\":6782:6805   */\n      swap1\n      pop\n        /* \"#utility.yul\":6501:6812   */\n      swap2\n      swap1\n      pop\n      jump\t// out\n        /* \"#utility.yul\":6835:7545   */\n    tag_346:\n        /* \"#utility.yul\":6931:6936   */\n      0x00\n        /* \"#utility.yul\":6956:7037   */\n      tag_469\n        /* \"#utility.yul\":6972:7036   */\n      tag_470\n        /* \"#utility.yul\":7029:7035   */\n      dup5\n        /* \"#utility.yul\":6972:7036   */\n      tag_345\n      jump\t// in\n    tag_470:\n        /* \"#utility.yul\":6956:7037   */\n      tag_340\n      jump\t// in\n    tag_469:\n        /* \"#utility.yul\":6947:7037   */\n      swap1\n      pop\n        /* \"#utility.yul\":7057:7062   */\n      dup1\n        /* \"#utility.yul\":7086:7092   */\n      dup4\n        /* \"#utility.yul\":7079:7084   */\n      dup3\n        /* \"#utility.yul\":7072:7093   */\n      mstore\n        /* \"#utility.yul\":7120:7124   */\n      0x20\n        /* \"#utility.yul\":7113:7118   */\n      dup3\n        /* \"#utility.yul\":7109:7125   */\n      add\n        /* \"#utility.yul\":7102:7125   */\n      swap1\n      pop\n        /* \"#utility.yul\":7173:7177   */\n      0x20\n        /* \"#utility.yul\":7165:7171   */\n      dup5\n        /* \"#utility.yul\":7161:7178   */\n      mul\n        /* \"#utility.yul\":7153:7159   */\n      dup4\n        /* \"#utility.yul\":7149:7179   */\n      add\n        /* \"#utility.yul\":7202:7205   */\n      dup6\n        /* \"#utility.yul\":7194:7200   */\n      dup2\n        /* \"#utility.yul\":7191:7206   */\n      gt\n        /* \"#utility.yul\":7188:7310   */\n      iszero\n      tag_471\n      jumpi\n        /* \"#utility.yul\":7221:7300   */\n      tag_472\n      tag_342\n      jump\t// in\n    tag_472:\n        /* \"#utility.yul\":7188:7310   */\n    tag_471:\n        /* \"#utility.yul\":7336:7342   */\n      dup4\n        /* \"#utility.yul\":7319:7539   */\n    tag_473:\n        /* \"#utility.yul\":7353:7359   */\n      dup2\n        /* \"#utility.yul\":7348:7351   */\n      dup2\n        /* \"#utility.yul\":7345:7360   */\n      lt\n        /* \"#utility.yul\":7319:7539   */\n      iszero\n      tag_475\n      jumpi\n        /* \"#utility.yul\":7428:7431   */\n      dup1\n        /* \"#utility.yul\":7457:7494   */\n      tag_476\n        /* \"#utility.yul\":7490:7493   */\n      dup9\n        /* \"#utility.yul\":7478:7488   */\n      dup3\n        /* \"#utility.yul\":7457:7494   */\n      tag_324\n      jump\t// in\n    tag_476:\n        /* \"#utility.yul\":7452:7455   */\n      dup5\n        /* \"#utility.yul\":7445:7495   */\n      mstore\n        /* \"#utility.yul\":7524:7528   */\n      0x20\n        /* \"#utility.yul\":7519:7522   */\n      dup5\n        /* \"#utility.yul\":7515:7529   */\n      add\n        /* \"#utility.yul\":7508:7529   */\n      swap4\n      pop\n        /* \"#utility.yul\":7395:7539   */\n      pop\n        /* \"#utility.yul\":7379:7383   */\n      0x20\n        /* \"#utility.yul\":7374:7377   */\n      dup2\n        /* \"#utility.yul\":7370:7384   */\n      add\n        /* \"#utility.yul\":7363:7384   */\n      swap1\n      pop\n        /* \"#utility.yul\":7319:7539   */\n      jump(tag_473)\n    tag_475:\n        /* \"#utility.yul\":7323:7344   */\n      pop\n        /* \"#utility.yul\":6937:7545   */\n      pop\n      pop\n        /* \"#utility.yul\":6835:7545   */\n      swap4\n      swap3\n      pop\n      pop\n      pop\n      jump\t// out\n        /* \"#utility.yul\":7568:7938   */\n    tag_347:\n        /* \"#utility.yul\":7639:7644   */\n      0x00\n        /* \"#utility.yul\":7688:7691   */\n      dup3\n        /* \"#utility.yul\":7681:7685   */\n      0x1f\n        /* \"#utility.yul\":7673:7679   */\n      dup4\n        /* \"#utility.yul\":7669:7686   */\n      add\n        /* \"#utility.yul\":7665:7692   */\n      slt\n        /* \"#utility.yul\":7655:7777   */\n      tag_478\n      jumpi\n        /* \"#utility.yul\":7696:7775   */\n      tag_479\n      tag_336\n      jump\t// in\n    tag_479:\n        /* \"#utility.yul\":7655:7777   */\n    tag_478:\n        /* \"#utility.yul\":7813:7819   */\n      dup2\n        /* \"#utility.yul\":7800:7820   */\n      calldataload\n        /* \"#utility.yul\":7838:7932   */\n      tag_480\n        /* \"#utility.yul\":7928:7931   */\n      dup5\n        /* \"#utility.yul\":7920:7926   */\n      dup3\n        /* \"#utility.yul\":7913:7917   */\n      0x20\n        /* \"#utility.yul\":7905:7911   */\n      dup7\n        /* \"#utility.yul\":7901:7918   */\n      add\n        /* \"#utility.yul\":7838:7932   */\n      tag_346\n      jump\t// in\n    tag_480:\n        /* \"#utility.yul\":7829:7932   */\n      swap2\n      pop\n        /* \"#utility.yul\":7645:7938   */\n      pop\n        /* \"#utility.yul\":7568:7938   */\n      swap3\n      swap2\n      pop\n      pop\n      jump\t// out\n        /* \"#utility.yul\":7944:9011   */\n    tag_69:\n        /* \"#utility.yul\":8085:8091   */\n      0x00\n        /* \"#utility.yul\":8093:8099   */\n      dup1\n        /* \"#utility.yul\":8101:8107   */\n      0x00\n        /* \"#utility.yul\":8150:8152   */\n      0x60\n        /* \"#utility.yul\":8138:8147   */\n      dup5\n        /* \"#utility.yul\":8129:8136   */\n      dup7\n        /* \"#utility.yul\":8125:8148   */\n      sub\n        /* \"#utility.yul\":8121:8153   */\n      slt\n        /* \"#utility.yul\":8118:8237   */\n      iszero\n      tag_482\n      jumpi\n        /* \"#utility.yul\":8156:8235   */\n      tag_483\n      tag_320\n      jump\t// in\n    tag_483:\n        /* \"#utility.yul\":8118:8237   */\n    tag_482:\n        /* \"#utility.yul\":8276:8277   */\n      0x00\n        /* \"#utility.yul\":8301:8368   */\n      tag_484\n        /* \"#utility.yul\":8360:8367   */\n      dup7\n        /* \"#utility.yul\":8351:8357   */\n      dup3\n        /* \"#utility.yul\":8340:8349   */\n      dup8\n        /* \"#utility.yul\":8336:8358   */\n      add\n        /* \"#utility.yul\":8301:8368   */\n      tag_332\n      jump\t// in\n    tag_484:\n        /* \"#utility.yul\":8291:8368   */\n      swap4\n      pop\n        /* \"#utility.yul\":8247:8378   */\n      pop\n        /* \"#utility.yul\":8445:8447   */\n      0x20\n        /* \"#utility.yul\":8434:8443   */\n      dup5\n        /* \"#utility.yul\":8430:8448   */\n      add\n        /* \"#utility.yul\":8417:8449   */\n      calldataload\n        /* \"#utility.yul\":8476:8494   */\n      0xffffffffffffffff\n        /* \"#utility.yul\":8468:8474   */\n      dup2\n        /* \"#utility.yul\":8465:8495   */\n      gt\n        /* \"#utility.yul\":8462:8579   */\n      iszero\n      tag_485\n      jumpi\n        /* \"#utility.yul\":8498:8577   */\n      tag_486\n      tag_321\n      jump\t// in\n    tag_486:\n        /* \"#utility.yul\":8462:8579   */\n    tag_485:\n        /* \"#utility.yul\":8603:8681   */\n      tag_487\n        /* \"#utility.yul\":8673:8680   */\n      dup7\n        /* \"#utility.yul\":8664:8670   */\n      dup3\n        /* \"#utility.yul\":8653:8662   */\n      dup8\n        /* \"#utility.yul\":8649:8671   */\n      add\n        /* \"#utility.yul\":8603:8681   */\n      tag_344\n      jump\t// in\n    tag_487:\n        /* \"#utility.yul\":8593:8681   */\n      swap3\n      pop\n        /* \"#utility.yul\":8388:8691   */\n      pop\n        /* \"#utility.yul\":8758:8760   */\n      0x40\n        /* \"#utility.yul\":8747:8756   */\n      dup5\n        /* \"#utility.yul\":8743:8761   */\n      add\n        /* \"#utility.yul\":8730:8762   */\n      calldataload\n        /* \"#utility.yul\":8789:8807   */\n      0xffffffffffffffff\n        /* \"#utility.yul\":8781:8787   */\n      dup2\n        /* \"#utility.yul\":8778:8808   */\n      gt\n        /* \"#utility.yul\":8775:8892   */\n      iszero\n      tag_488\n      jumpi\n        /* \"#utility.yul\":8811:8890   */\n      tag_489\n      tag_321\n      jump\t// in\n    tag_489:\n        /* \"#utility.yul\":8775:8892   */\n    tag_488:\n        /* \"#utility.yul\":8916:8994   */\n      tag_490\n        /* \"#utility.yul\":8986:8993   */\n      dup7\n        /* \"#utility.yul\":8977:8983   */\n      dup3\n        /* \"#utility.yul\":8966:8975   */\n      dup8\n        /* \"#utility.yul\":8962:8984   */\n      add\n        /* \"#utility.yul\":8916:8994   */\n      tag_347\n      jump\t// in\n    tag_490:\n        /* \"#utility.yul\":8906:8994   */\n      swap2\n      pop\n        /* \"#utility.yul\":8701:9004   */\n      pop\n        /* \"#utility.yul\":7944:9011   */\n      swap3\n      pop\n      swap3\n      pop\n      swap3\n      jump\t// out\n        /* \"#utility.yul\":9017:9077   */\n    tag_348:\n        /* \"#utility.yul\":9045:9048   */\n      0x00\n        /* \"#utility.yul\":9066:9071   */\n      dup2\n        /* \"#utility.yul\":9059:9071   */\n      swap1\n      pop\n        /* \"#utility.yul\":9017:9077   */\n      swap2\n      swap1\n      pop\n      jump\t// out\n        /* \"#utility.yul\":9083:9225   */\n    tag_349:\n        /* \"#utility.yul\":9133:9142   */\n      0x00\n        /* \"#utility.yul\":9166:9219   */\n      tag_493\n        /* \"#utility.yul\":9184:9218   */\n      tag_494\n        /* \"#utility.yul\":9193:9217   */\n      tag_495\n        /* \"#utility.yul\":9211:9216   */\n      dup5\n        /* \"#utility.yul\":9193:9217   */\n      tag_325\n      jump\t// in\n    tag_495:\n        /* \"#utility.yul\":9184:9218   */\n      tag_348\n      jump\t// in\n    tag_494:\n        /* \"#utility.yul\":9166:9219   */\n      tag_325\n      jump\t// in\n    tag_493:\n        /* \"#utility.yul\":9153:9219   */\n      swap1\n      pop\n        /* \"#utility.yul\":9083:9225   */\n      swap2\n      swap1\n      pop\n      jump\t// out\n        /* \"#utility.yul\":9231:9357   */\n    tag_350:\n        /* \"#utility.yul\":9281:9290   */\n      0x00\n        /* \"#utility.yul\":9314:9351   */\n      tag_497\n        /* \"#utility.yul\":9345:9350   */\n      dup3\n        /* \"#utility.yul\":9314:9351   */\n      tag_349\n      jump\t// in\n    tag_497:\n        /* \"#utility.yul\":9301:9351   */\n      swap1\n      pop\n        /* \"#utility.yul\":9231:9357   */\n      swap2\n      swap1\n      pop\n      jump\t// out\n        /* \"#utility.yul\":9363:9503   */\n    tag_351:\n        /* \"#utility.yul\":9427:9436   */\n      0x00\n        /* \"#utility.yul\":9460:9497   */\n      tag_499\n        /* \"#utility.yul\":9491:9496   */\n      dup3\n        /* \"#utility.yul\":9460:9497   */\n      tag_350\n      jump\t// in\n    tag_499:\n        /* \"#utility.yul\":9447:9497   */\n      swap1\n      pop\n        /* \"#utility.yul\":9363:9503   */\n      swap2\n      swap1\n      pop\n      jump\t// out\n        /* \"#utility.yul\":9509:9668   */\n    tag_352:\n        /* \"#utility.yul\":9610:9661   */\n      tag_501\n        /* \"#utility.yul\":9655:9660   */\n      dup2\n        /* \"#utility.yul\":9610:9661   */\n      tag_351\n      jump\t// in\n    tag_501:\n        /* \"#utility.yul\":9605:9608   */\n      dup3\n        /* \"#utility.yul\":9598:9662   */\n      mstore\n        /* \"#utility.yul\":9509:9668   */\n      pop\n      pop\n      jump\t// out\n        /* \"#utility.yul\":9674:9924   */\n    tag_75:\n        /* \"#utility.yul\":9781:9785   */\n      0x00\n        /* \"#utility.yul\":9819:9821   */\n      0x20\n        /* \"#utility.yul\":9808:9817   */\n      dup3\n        /* \"#utility.yul\":9804:9822   */\n      add\n        /* \"#utility.yul\":9796:9822   */\n      swap1\n      pop\n        /* \"#utility.yul\":9832:9917   */\n      tag_503\n        /* \"#utility.yul\":9914:9915   */\n      0x00\n        /* \"#utility.yul\":9903:9912   */\n      dup4\n        /* \"#utility.yul\":9899:9916   */\n      add\n        /* \"#utility.yul\":9890:9896   */\n      dup5\n        /* \"#utility.yul\":9832:9917   */\n      tag_352\n      jump\t// in\n    tag_503:\n        /* \"#utility.yul\":9674:9924   */\n      swap3\n      swap2\n      pop\n      pop\n      jump\t// out\n        /* \"#utility.yul\":9930:10824   */\n    tag_82:\n        /* \"#utility.yul\":10048:10054   */\n      0x00\n        /* \"#utility.yul\":10056:10062   */\n      dup1\n        /* \"#utility.yul\":10105:10107   */\n      0x40\n        /* \"#utility.yul\":10093:10102   */\n      dup4\n        /* \"#utility.yul\":10084:10091   */\n      dup6\n        /* \"#utility.yul\":10080:10103   */\n      sub\n        /* \"#utility.yul\":10076:10108   */\n      slt\n        /* \"#utility.yul\":10073:10192   */\n      iszero\n      tag_505\n      jumpi\n        /* \"#utility.yul\":10111:10190   */\n      tag_506\n      tag_320\n      jump\t// in\n    tag_506:\n        /* \"#utility.yul\":10073:10192   */\n    tag_505:\n        /* \"#utility.yul\":10259:10260   */\n      0x00\n        /* \"#utility.yul\":10248:10257   */\n      dup4\n        /* \"#utility.yul\":10244:10261   */\n      add\n        /* \"#utility.yul\":10231:10262   */\n      calldataload\n        /* \"#utility.yul\":10289:10307   */\n      0xffffffffffffffff\n        /* \"#utility.yul\":10281:10287   */\n      dup2\n        /* \"#utility.yul\":10278:10308   */\n      gt\n        /* \"#utility.yul\":10275:10392   */\n      iszero\n      tag_507\n      jumpi\n        /* \"#utility.yul\":10311:10390   */\n      tag_508\n      tag_321\n      jump\t// in\n    tag_508:\n        /* \"#utility.yul\":10275:10392   */\n    tag_507:\n        /* \"#utility.yul\":10416:10494   */\n      tag_509\n        /* \"#utility.yul\":10486:10493   */\n      dup6\n        /* \"#utility.yul\":10477:10483   */\n      dup3\n        /* \"#utility.yul\":10466:10475   */\n      dup7\n        /* \"#utility.yul\":10462:10484   */\n      add\n        /* \"#utility.yul\":10416:10494   */\n      tag_344\n      jump\t// in\n    tag_509:\n        /* \"#utility.yul\":10406:10494   */\n      swap3\n      pop\n        /* \"#utility.yul\":10202:10504   */\n      pop\n        /* \"#utility.yul\":10571:10573   */\n      0x20\n        /* \"#utility.yul\":10560:10569   */\n      dup4\n        /* \"#utility.yul\":10556:10574   */\n      add\n        /* \"#utility.yul\":10543:10575   */\n      calldataload\n        /* \"#utility.yul\":10602:10620   */\n      0xffffffffffffffff\n        /* \"#utility.yul\":10594:10600   */\n      dup2\n        /* \"#utility.yul\":10591:10621   */\n      gt\n        /* \"#utility.yul\":10588:10705   */\n      iszero\n      tag_510\n      jumpi\n        /* \"#utility.yul\":10624:10703   */\n      tag_511\n      tag_321\n      jump\t// in\n    tag_511:\n        /* \"#utility.yul\":10588:10705   */\n    tag_510:\n        /* \"#utility.yul\":10729:10807   */\n      tag_512\n        /* \"#utility.yul\":10799:10806   */\n      dup6\n        /* \"#utility.yul\":10790:10796   */\n      dup3\n        /* \"#utility.yul\":10779:10788   */\n      dup7\n        /* \"#utility.yul\":10775:10797   */\n      add\n        /* \"#utility.yul\":10729:10807   */\n      tag_347\n      jump\t// in\n    tag_512:\n        /* \"#utility.yul\":10719:10807   */\n      swap2\n      pop\n        /* \"#utility.yul\":10514:10817   */\n      pop\n        /* \"#utility.yul\":9930:10824   */\n      swap3\n      pop\n      swap3\n      swap1\n      pop\n      jump\t// out\n        /* \"#utility.yul\":10830:10934   */\n    tag_353:\n        /* \"#utility.yul\":10875:10882   */\n      0x00\n        /* \"#utility.yul\":10904:10928   */\n      tag_514\n        /* \"#utility.yul\":10922:10927   */\n      dup3\n        /* \"#utility.yul\":10904:10928   */\n      tag_325\n      jump\t// in\n    tag_514:\n        /* \"#utility.yul\":10893:10928   */\n      swap1\n      pop\n        /* \"#utility.yul\":10830:10934   */\n      swap2\n      swap1\n      pop\n      jump\t// out\n        /* \"#utility.yul\":10940:11082   */\n    tag_354:\n        /* \"#utility.yul\":11043:11075   */\n      tag_516\n        /* \"#utility.yul\":11069:11074   */\n      dup2\n        /* \"#utility.yul\":11043:11075   */\n      tag_353\n      jump\t// in\n    tag_516:\n        /* \"#utility.yul\":11038:11041   */\n      dup3\n        /* \"#utility.yul\":11031:11076   */\n      mstore\n        /* \"#utility.yul\":10940:11082   */\n      pop\n      pop\n      jump\t// out\n        /* \"#utility.yul\":11088:11342   */\n    tag_96:\n        /* \"#utility.yul\":11197:11201   */\n      0x00\n        /* \"#utility.yul\":11235:11237   */\n      0x20\n        /* \"#utility.yul\":11224:11233   */\n      dup3\n        /* \"#utility.yul\":11220:11238   */\n      add\n        /* \"#utility.yul\":11212:11238   */\n      swap1\n      pop\n        /* \"#utility.yul\":11248:11335   */\n      tag_518\n        /* \"#utility.yul\":11332:11333   */\n      0x00\n        /* \"#utility.yul\":11321:11330   */\n      dup4\n        /* \"#utility.yul\":11317:11334   */\n      add\n        /* \"#utility.yul\":11308:11314   */\n      dup5\n        /* \"#utility.yul\":11248:11335   */\n      tag_354\n      jump\t// in\n    tag_518:\n        /* \"#utility.yul\":11088:11342   */\n      swap3\n      swap2\n      pop\n      pop\n      jump\t// out\n        /* \"#utility.yul\":11348:11677   */\n    tag_100:\n        /* \"#utility.yul\":11407:11413   */\n      0x00\n        /* \"#utility.yul\":11456:11458   */\n      0x20\n        /* \"#utility.yul\":11444:11453   */\n      dup3\n        /* \"#utility.yul\":11435:11442   */\n      dup5\n        /* \"#utility.yul\":11431:11454   */\n      sub\n        /* \"#utility.yul\":11427:11459   */\n      slt\n        /* \"#utility.yul\":11424:11543   */\n      iszero\n      tag_520\n      jumpi\n        /* \"#utility.yul\":11462:11541   */\n      tag_521\n      tag_320\n      jump\t// in\n    tag_521:\n        /* \"#utility.yul\":11424:11543   */\n    tag_520:\n        /* \"#utility.yul\":11582:11583   */\n      0x00\n        /* \"#utility.yul\":11607:11660   */\n      tag_522\n        /* \"#utility.yul\":11652:11659   */\n      dup5\n        /* \"#utility.yul\":11643:11649   */\n      dup3\n        /* \"#utility.yul\":11632:11641   */\n      dup6\n        /* \"#utility.yul\":11628:11650   */\n      add\n        /* \"#utility.yul\":11607:11660   */\n      tag_324\n      jump\t// in\n    tag_522:\n        /* \"#utility.yul\":11597:11660   */\n      swap2\n      pop\n        /* \"#utility.yul\":11553:11670   */\n      pop\n        /* \"#utility.yul\":11348:11677   */\n      swap3\n      swap2\n      pop\n      pop\n      jump\t// out\n        /* \"#utility.yul\":11683:11852   */\n    tag_355:\n        /* \"#utility.yul\":11767:11778   */\n      0x00\n        /* \"#utility.yul\":11801:11807   */\n      dup3\n        /* \"#utility.yul\":11796:11799   */\n      dup3\n        /* \"#utility.yul\":11789:11808   */\n      mstore\n        /* \"#utility.yul\":11841:11845   */\n      0x20\n        /* \"#utility.yul\":11836:11839   */\n      dup3\n        /* \"#utility.yul\":11832:11846   */\n      add\n        /* \"#utility.yul\":11817:11846   */\n      swap1\n      pop\n        /* \"#utility.yul\":11683:11852   */\n      swap3\n      swap2\n      pop\n      pop\n      jump\t// out\n        /* \"#utility.yul\":11858:12036   */\n    tag_356:\n        /* \"#utility.yul\":11998:12028   */\n      0x7573657220697320616c726561647920756e617574686f72697a656400000000\n        /* \"#utility.yul\":11994:11995   */\n      0x00\n        /* \"#utility.yul\":11986:11992   */\n      dup3\n        /* \"#utility.yul\":11982:11996   */\n      add\n        /* \"#utility.yul\":11975:12029   */\n      mstore\n        /* \"#utility.yul\":11858:12036   */\n      pop\n      jump\t// out\n        /* \"#utility.yul\":12042:12408   */\n    tag_357:\n        /* \"#utility.yul\":12184:12187   */\n      0x00\n        /* \"#utility.yul\":12205:12272   */\n      tag_526\n        /* \"#utility.yul\":12269:12271   */\n      0x1c\n        /* \"#utility.yul\":12264:12267   */\n      dup4\n        /* \"#utility.yul\":12205:12272   */\n      tag_355\n      jump\t// in\n    tag_526:\n        /* \"#utility.yul\":12198:12272   */\n      swap2\n      pop\n        /* \"#utility.yul\":12281:12374   */\n      tag_527\n        /* \"#utility.yul\":12370:12373   */\n      dup3\n        /* \"#utility.yul\":12281:12374   */\n      tag_356\n      jump\t// in\n    tag_527:\n        /* \"#utility.yul\":12399:12401   */\n      0x20\n        /* \"#utility.yul\":12394:12397   */\n      dup3\n        /* \"#utility.yul\":12390:12402   */\n      add\n        /* \"#utility.yul\":12383:12402   */\n      swap1\n      pop\n        /* \"#utility.yul\":12042:12408   */\n      swap2\n      swap1\n      pop\n      jump\t// out\n        /* \"#utility.yul\":12414:12833   */\n    tag_114:\n        /* \"#utility.yul\":12580:12584   */\n      0x00\n        /* \"#utility.yul\":12618:12620   */\n      0x20\n        /* \"#utility.yul\":12607:12616   */\n      dup3\n        /* \"#utility.yul\":12603:12621   */\n      add\n        /* \"#utility.yul\":12595:12621   */\n      swap1\n      pop\n        /* \"#utility.yul\":12667:12676   */\n      dup2\n        /* \"#utility.yul\":12661:12665   */\n      dup2\n        /* \"#utility.yul\":12657:12677   */\n      sub\n        /* \"#utility.yul\":12653:12654   */\n      0x00\n        /* \"#utility.yul\":12642:12651   */\n      dup4\n        /* \"#utility.yul\":12638:12655   */\n      add\n        /* \"#utility.yul\":12631:12678   */\n      mstore\n        /* \"#utility.yul\":12695:12826   */\n      tag_529\n        /* \"#utility.yul\":12821:12825   */\n      dup2\n        /* \"#utility.yul\":12695:12826   */\n      tag_357\n      jump\t// in\n    tag_529:\n        /* \"#utility.yul\":12687:12826   */\n      swap1\n      pop\n        /* \"#utility.yul\":12414:12833   */\n      swap2\n      swap1\n      pop\n      jump\t// out\n        /* \"#utility.yul\":12839:13015   */\n    tag_358:\n        /* \"#utility.yul\":12979:13007   */\n      0x7573657220697320616c726561647920617574686f72697a6564000000000000\n        /* \"#utility.yul\":12975:12976   */\n      0x00\n        /* \"#utility.yul\":12967:12973   */\n      dup3\n        /* \"#utility.yul\":12963:12977   */\n      add\n        /* \"#utility.yul\":12956:13008   */\n      mstore\n        /* \"#utility.yul\":12839:13015   */\n      pop\n      jump\t// out\n        /* \"#utility.yul\":13021:13387   */\n    tag_359:\n        /* \"#utility.yul\":13163:13166   */\n      0x00\n        /* \"#utility.yul\":13184:13251   */\n      tag_532\n        /* \"#utility.yul\":13248:13250   */\n      0x1a\n        /* \"#utility.yul\":13243:13246   */\n      dup4\n        /* \"#utility.yul\":13184:13251   */\n      tag_355\n      jump\t// in\n    tag_532:\n        /* \"#utility.yul\":13177:13251   */\n      swap2\n      pop\n        /* \"#utility.yul\":13260:13353   */\n      tag_533\n        /* \"#utility.yul\":13349:13352   */\n      dup3\n        /* \"#utility.yul\":13260:13353   */\n      tag_358\n      jump\t// in\n    tag_533:\n        /* \"#utility.yul\":13378:13380   */\n      0x20\n        /* \"#utility.yul\":13373:13376   */\n      dup3\n        /* \"#utility.yul\":13369:13381   */\n      add\n        /* \"#utility.yul\":13362:13381   */\n      swap1\n      pop\n        /* \"#utility.yul\":13021:13387   */\n      swap2\n      swap1\n      pop\n      jump\t// out\n        /* \"#utility.yul\":13393:13812   */\n    tag_120:\n        /* \"#utility.yul\":13559:13563   */\n      0x00\n        /* \"#utility.yul\":13597:13599   */\n      0x20\n        /* \"#utility.yul\":13586:13595   */\n      dup3\n        /* \"#utility.yul\":13582:13600   */\n      add\n        /* \"#utility.yul\":13574:13600   */\n      swap1\n      pop\n        /* \"#utility.yul\":13646:13655   */\n      dup2\n        /* \"#utility.yul\":13640:13644   */\n      dup2\n        /* \"#utility.yul\":13636:13656   */\n      sub\n        /* \"#utility.yul\":13632:13633   */\n      0x00\n        /* \"#utility.yul\":13621:13630   */\n      dup4\n        /* \"#utility.yul\":13617:13634   */\n      add\n        /* \"#utility.yul\":13610:13657   */\n      mstore\n        /* \"#utility.yul\":13674:13805   */\n      tag_535\n        /* \"#utility.yul\":13800:13804   */\n      dup2\n        /* \"#utility.yul\":13674:13805   */\n      tag_359\n      jump\t// in\n    tag_535:\n        /* \"#utility.yul\":13666:13805   */\n      swap1\n      pop\n        /* \"#utility.yul\":13393:13812   */\n      swap2\n      swap1\n      pop\n      jump\t// out\n        /* \"#utility.yul\":13818:13989   */\n    tag_360:\n        /* \"#utility.yul\":13958:13981   */\n      0x746f6b656e20686f6c64696e6720696e76616c69640000000000000000000000\n        /* \"#utility.yul\":13954:13955   */\n      0x00\n        /* \"#utility.yul\":13946:13952   */\n      dup3\n        /* \"#utility.yul\":13942:13956   */\n      add\n        /* \"#utility.yul\":13935:13982   */\n      mstore\n        /* \"#utility.yul\":13818:13989   */\n      pop\n      jump\t// out\n        /* \"#utility.yul\":13995:14361   */\n    tag_361:\n        /* \"#utility.yul\":14137:14140   */\n      0x00\n        /* \"#utility.yul\":14158:14225   */\n      tag_538\n        /* \"#utility.yul\":14222:14224   */\n      0x15\n        /* \"#utility.yul\":14217:14220   */\n      dup4\n        /* \"#utility.yul\":14158:14225   */\n      tag_355\n      jump\t// in\n    tag_538:\n        /* \"#utility.yul\":14151:14225   */\n      swap2\n      pop\n        /* \"#utility.yul\":14234:14327   */\n      tag_539\n        /* \"#utility.yul\":14323:14326   */\n      dup3\n        /* \"#utility.yul\":14234:14327   */\n      tag_360\n      jump\t// in\n    tag_539:\n        /* \"#utility.yul\":14352:14354   */\n      0x20\n        /* \"#utility.yul\":14347:14350   */\n      dup3\n        /* \"#utility.yul\":14343:14355   */\n      add\n        /* \"#utility.yul\":14336:14355   */\n      swap1\n      pop\n        /* \"#utility.yul\":13995:14361   */\n      swap2\n      swap1\n      pop\n      jump\t// out\n        /* \"#utility.yul\":14367:14786   */\n    tag_133:\n        /* \"#utility.yul\":14533:14537   */\n      0x00\n        /* \"#utility.yul\":14571:14573   */\n      0x20\n        /* \"#utility.yul\":14560:14569   */\n      dup3\n        /* \"#utility.yul\":14556:14574   */\n      add\n        /* \"#utility.yul\":14548:14574   */\n      swap1\n      pop\n        /* \"#utility.yul\":14620:14629   */\n      dup2\n        /* \"#utility.yul\":14614:14618   */\n      dup2\n        /* \"#utility.yul\":14610:14630   */\n      sub\n        /* \"#utility.yul\":14606:14607   */\n      0x00\n        /* \"#utility.yul\":14595:14604   */\n      dup4\n        /* \"#utility.yul\":14591:14608   */\n      add\n        /* \"#utility.yul\":14584:14631   */\n      mstore\n        /* \"#utility.yul\":14648:14779   */\n      tag_541\n        /* \"#utility.yul\":14774:14778   */\n      dup2\n        /* \"#utility.yul\":14648:14779   */\n      tag_361\n      jump\t// in\n    tag_541:\n        /* \"#utility.yul\":14640:14779   */\n      swap1\n      pop\n        /* \"#utility.yul\":14367:14786   */\n      swap2\n      swap1\n      pop\n      jump\t// out\n        /* \"#utility.yul\":14792:14956   */\n    tag_362:\n        /* \"#utility.yul\":14932:14948   */\n      0x6e6f74206120636f6e7472616374000000000000000000000000000000000000\n        /* \"#utility.yul\":14928:14929   */\n      0x00\n        /* \"#utility.yul\":14920:14926   */\n      dup3\n        /* \"#utility.yul\":14916:14930   */\n      add\n        /* \"#utility.yul\":14909:14949   */\n      mstore\n        /* \"#utility.yul\":14792:14956   */\n      pop\n      jump\t// out\n        /* \"#utility.yul\":14962:15328   */\n    tag_363:\n        /* \"#utility.yul\":15104:15107   */\n      0x00\n        /* \"#utility.yul\":15125:15192   */\n      tag_544\n        /* \"#utility.yul\":15189:15191   */\n      0x0e\n        /* \"#utility.yul\":15184:15187   */\n      dup4\n        /* \"#utility.yul\":15125:15192   */\n      tag_355\n      jump\t// in\n    tag_544:\n        /* \"#utility.yul\":15118:15192   */\n      swap2\n      pop\n        /* \"#utility.yul\":15201:15294   */\n      tag_545\n        /* \"#utility.yul\":15290:15293   */\n      dup3\n        /* \"#utility.yul\":15201:15294   */\n      tag_362\n      jump\t// in\n    tag_545:\n        /* \"#utility.yul\":15319:15321   */\n      0x20\n        /* \"#utility.yul\":15314:15317   */\n      dup3\n        /* \"#utility.yul\":15310:15322   */\n      add\n        /* \"#utility.yul\":15303:15322   */\n      swap1\n      pop\n        /* \"#utility.yul\":14962:15328   */\n      swap2\n      swap1\n      pop\n      jump\t// out\n        /* \"#utility.yul\":15334:15753   */\n    tag_139:\n        /* \"#utility.yul\":15500:15504   */\n      0x00\n        /* \"#utility.yul\":15538:15540   */\n      0x20\n        /* \"#utility.yul\":15527:15536   */\n      dup3\n        /* \"#utility.yul\":15523:15541   */\n      add\n        /* \"#utility.yul\":15515:15541   */\n      swap1\n      pop\n        /* \"#utility.yul\":15587:15596   */\n      dup2\n        /* \"#utility.yul\":15581:15585   */\n      dup2\n        /* \"#utility.yul\":15577:15597   */\n      sub\n        /* \"#utility.yul\":15573:15574   */\n      0x00\n        /* \"#utility.yul\":15562:15571   */\n      dup4\n        /* \"#utility.yul\":15558:15575   */\n      add\n        /* \"#utility.yul\":15551:15598   */\n      mstore\n        /* \"#utility.yul\":15615:15746   */\n      tag_547\n        /* \"#utility.yul\":15741:15745   */\n      dup2\n        /* \"#utility.yul\":15615:15746   */\n      tag_363\n      jump\t// in\n    tag_547:\n        /* \"#utility.yul\":15607:15746   */\n      swap1\n      pop\n        /* \"#utility.yul\":15334:15753   */\n      swap2\n      swap1\n      pop\n      jump\t// out\n        /* \"#utility.yul\":15759:15922   */\n    tag_364:\n        /* \"#utility.yul\":15899:15914   */\n      0x696e76616c696420696e70757400000000000000000000000000000000000000\n        /* \"#utility.yul\":15895:15896   */\n      0x00\n        /* \"#utility.yul\":15887:15893   */\n      dup3\n        /* \"#utility.yul\":15883:15897   */\n      add\n        /* \"#utility.yul\":15876:15915   */\n      mstore\n        /* \"#utility.yul\":15759:15922   */\n      pop\n      jump\t// out\n        /* \"#utility.yul\":15928:16294   */\n    tag_365:\n        /* \"#utility.yul\":16070:16073   */\n      0x00\n        /* \"#utility.yul\":16091:16158   */\n      tag_550\n        /* \"#utility.yul\":16155:16157   */\n      0x0d\n        /* \"#utility.yul\":16150:16153   */\n      dup4\n        /* \"#utility.yul\":16091:16158   */\n      tag_355\n      jump\t// in\n    tag_550:\n        /* \"#utility.yul\":16084:16158   */\n      swap2\n      pop\n        /* \"#utility.yul\":16167:16260   */\n      tag_551\n        /* \"#utility.yul\":16256:16259   */\n      dup3\n        /* \"#utility.yul\":16167:16260   */\n      tag_364\n      jump\t// in\n    tag_551:\n        /* \"#utility.yul\":16285:16287   */\n      0x20\n        /* \"#utility.yul\":16280:16283   */\n      dup3\n        /* \"#utility.yul\":16276:16288   */\n      add\n        /* \"#utility.yul\":16269:16288   */\n      swap1\n      pop\n        /* \"#utility.yul\":15928:16294   */\n      swap2\n      swap1\n      pop\n      jump\t// out\n        /* \"#utility.yul\":16300:16719   */\n    tag_142:\n        /* \"#utility.yul\":16466:16470   */\n      0x00\n        /* \"#utility.yul\":16504:16506   */\n      0x20\n        /* \"#utility.yul\":16493:16502   */\n      dup3\n        /* \"#utility.yul\":16489:16507   */\n      add\n        /* \"#utility.yul\":16481:16507   */\n      swap1\n      pop\n        /* \"#utility.yul\":16553:16562   */\n      dup2\n        /* \"#utility.yul\":16547:16551   */\n      dup2\n        /* \"#utility.yul\":16543:16563   */\n      sub\n        /* \"#utility.yul\":16539:16540   */\n      0x00\n        /* \"#utility.yul\":16528:16537   */\n      dup4\n        /* \"#utility.yul\":16524:16541   */\n      add\n        /* \"#utility.yul\":16517:16564   */\n      mstore\n        /* \"#utility.yul\":16581:16712   */\n      tag_553\n        /* \"#utility.yul\":16707:16711   */\n      dup2\n        /* \"#utility.yul\":16581:16712   */\n      tag_365\n      jump\t// in\n    tag_553:\n        /* \"#utility.yul\":16573:16712   */\n      swap1\n      pop\n        /* \"#utility.yul\":16300:16719   */\n      swap2\n      swap1\n      pop\n      jump\t// out\n        /* \"#utility.yul\":16725:16905   */\n    tag_149:\n        /* \"#utility.yul\":16773:16850   */\n      0x4e487b7100000000000000000000000000000000000000000000000000000000\n        /* \"#utility.yul\":16770:16771   */\n      0x00\n        /* \"#utility.yul\":16763:16851   */\n      mstore\n        /* \"#utility.yul\":16870:16874   */\n      0x32\n        /* \"#utility.yul\":16867:16868   */\n      0x04\n        /* \"#utility.yul\":16860:16875   */\n      mstore\n        /* \"#utility.yul\":16894:16898   */\n      0x24\n        /* \"#utility.yul\":16891:16892   */\n      0x00\n        /* \"#utility.yul\":16884:16899   */\n      revert\n        /* \"#utility.yul\":16911:17353   */\n    tag_153:\n        /* \"#utility.yul\":17060:17064   */\n      0x00\n        /* \"#utility.yul\":17098:17100   */\n      0x60\n        /* \"#utility.yul\":17087:17096   */\n      dup3\n        /* \"#utility.yul\":17083:17101   */\n      add\n        /* \"#utility.yul\":17075:17101   */\n      swap1\n      pop\n        /* \"#utility.yul\":17111:17182   */\n      tag_556\n        /* \"#utility.yul\":17179:17180   */\n      0x00\n        /* \"#utility.yul\":17168:17177   */\n      dup4\n        /* \"#utility.yul\":17164:17181   */\n      add\n        /* \"#utility.yul\":17155:17161   */\n      dup7\n        /* \"#utility.yul\":17111:17182   */\n      tag_335\n      jump\t// in\n    tag_556:\n        /* \"#utility.yul\":17192:17264   */\n      tag_557\n        /* \"#utility.yul\":17260:17262   */\n      0x20\n        /* \"#utility.yul\":17249:17258   */\n      dup4\n        /* \"#utility.yul\":17245:17263   */\n      add\n        /* \"#utility.yul\":17236:17242   */\n      dup6\n        /* \"#utility.yul\":17192:17264   */\n      tag_335\n      jump\t// in\n    tag_557:\n        /* \"#utility.yul\":17274:17346   */\n      tag_558\n        /* \"#utility.yul\":17342:17344   */\n      0x40\n        /* \"#utility.yul\":17331:17340   */\n      dup4\n        /* \"#utility.yul\":17327:17345   */\n      add\n        /* \"#utility.yul\":17318:17324   */\n      dup5\n        /* \"#utility.yul\":17274:17346   */\n      tag_329\n      jump\t// in\n    tag_558:\n        /* \"#utility.yul\":16911:17353   */\n      swap5\n      swap4\n      pop\n      pop\n      pop\n      pop\n      jump\t// out\n        /* \"#utility.yul\":17359:17475   */\n    tag_366:\n        /* \"#utility.yul\":17429:17450   */\n      tag_560\n        /* \"#utility.yul\":17444:17449   */\n      dup2\n        /* \"#utility.yul\":17429:17450   */\n      tag_333\n      jump\t// in\n    tag_560:\n        /* \"#utility.yul\":17422:17427   */\n      dup2\n        /* \"#utility.yul\":17419:17451   */\n      eq\n        /* \"#utility.yul\":17409:17469   */\n      tag_561\n      jumpi\n        /* \"#utility.yul\":17465:17466   */\n      0x00\n        /* \"#utility.yul\":17462:17463   */\n      dup1\n        /* \"#utility.yul\":17455:17467   */\n      revert\n        /* \"#utility.yul\":17409:17469   */\n    tag_561:\n        /* \"#utility.yul\":17359:17475   */\n      pop\n      jump\t// out\n        /* \"#utility.yul\":17481:17618   */\n    tag_367:\n        /* \"#utility.yul\":17535:17540   */\n      0x00\n        /* \"#utility.yul\":17566:17572   */\n      dup2\n        /* \"#utility.yul\":17560:17573   */\n      mload\n        /* \"#utility.yul\":17551:17573   */\n      swap1\n      pop\n        /* \"#utility.yul\":17582:17612   */\n      tag_563\n        /* \"#utility.yul\":17606:17611   */\n      dup2\n        /* \"#utility.yul\":17582:17612   */\n      tag_366\n      jump\t// in\n    tag_563:\n        /* \"#utility.yul\":17481:17618   */\n      swap3\n      swap2\n      pop\n      pop\n      jump\t// out\n        /* \"#utility.yul\":17624:17969   */\n    tag_157:\n        /* \"#utility.yul\":17691:17697   */\n      0x00\n        /* \"#utility.yul\":17740:17742   */\n      0x20\n        /* \"#utility.yul\":17728:17737   */\n      dup3\n        /* \"#utility.yul\":17719:17726   */\n      dup5\n        /* \"#utility.yul\":17715:17738   */\n      sub\n        /* \"#utility.yul\":17711:17743   */\n      slt\n        /* \"#utility.yul\":17708:17827   */\n      iszero\n      tag_565\n      jumpi\n        /* \"#utility.yul\":17746:17825   */\n      tag_566\n      tag_320\n      jump\t// in\n    tag_566:\n        /* \"#utility.yul\":17708:17827   */\n    tag_565:\n        /* \"#utility.yul\":17866:17867   */\n      0x00\n        /* \"#utility.yul\":17891:17952   */\n      tag_567\n        /* \"#utility.yul\":17944:17951   */\n      dup5\n        /* \"#utility.yul\":17935:17941   */\n      dup3\n        /* \"#utility.yul\":17924:17933   */\n      dup6\n        /* \"#utility.yul\":17920:17942   */\n      add\n        /* \"#utility.yul\":17891:17952   */\n      tag_367\n      jump\t// in\n    tag_567:\n        /* \"#utility.yul\":17881:17952   */\n      swap2\n      pop\n        /* \"#utility.yul\":17837:17962   */\n      pop\n        /* \"#utility.yul\":17624:17969   */\n      swap3\n      swap2\n      pop\n      pop\n      jump\t// out\n        /* \"#utility.yul\":17975:18146   */\n    tag_368:\n        /* \"#utility.yul\":18115:18138   */\n      0x6572726f7220696e20646973747269627574696f6e0000000000000000000000\n        /* \"#utility.yul\":18111:18112   */\n      0x00\n        /* \"#utility.yul\":18103:18109   */\n      dup3\n        /* \"#utility.yul\":18099:18113   */\n      add\n        /* \"#utility.yul\":18092:18139   */\n      mstore\n        /* \"#utility.yul\":17975:18146   */\n      pop\n      jump\t// out\n        /* \"#utility.yul\":18152:18518   */\n    tag_369:\n        /* \"#utility.yul\":18294:18297   */\n      0x00\n        /* \"#utility.yul\":18315:18382   */\n      tag_570\n        /* \"#utility.yul\":18379:18381   */\n      0x15\n        /* \"#utility.yul\":18374:18377   */\n      dup4\n        /* \"#utility.yul\":18315:18382   */\n      tag_355\n      jump\t// in\n    tag_570:\n        /* \"#utility.yul\":18308:18382   */\n      swap2\n      pop\n        /* \"#utility.yul\":18391:18484   */\n      tag_571\n        /* \"#utility.yul\":18480:18483   */\n      dup3\n        /* \"#utility.yul\":18391:18484   */\n      tag_368\n      jump\t// in\n    tag_571:\n        /* \"#utility.yul\":18509:18511   */\n      0x20\n        /* \"#utility.yul\":18504:18507   */\n      dup3\n        /* \"#utility.yul\":18500:18512   */\n      add\n        /* \"#utility.yul\":18493:18512   */\n      swap1\n      pop\n        /* \"#utility.yul\":18152:18518   */\n      swap2\n      swap1\n      pop\n      jump\t// out\n        /* \"#utility.yul\":18524:18943   */\n    tag_160:\n        /* \"#utility.yul\":18690:18694   */\n      0x00\n        /* \"#utility.yul\":18728:18730   */\n      0x20\n        /* \"#utility.yul\":18717:18726   */\n      dup3\n        /* \"#utility.yul\":18713:18731   */\n      add\n        /* \"#utility.yul\":18705:18731   */\n      swap1\n      pop\n        /* \"#utility.yul\":18777:18786   */\n      dup2\n        /* \"#utility.yul\":18771:18775   */\n      dup2\n        /* \"#utility.yul\":18767:18787   */\n      sub\n        /* \"#utility.yul\":18763:18764   */\n      0x00\n        /* \"#utility.yul\":18752:18761   */\n      dup4\n        /* \"#utility.yul\":18748:18765   */\n      add\n        /* \"#utility.yul\":18741:18788   */\n      mstore\n        /* \"#utility.yul\":18805:18936   */\n      tag_573\n        /* \"#utility.yul\":18931:18935   */\n      dup2\n        /* \"#utility.yul\":18805:18936   */\n      tag_369\n      jump\t// in\n    tag_573:\n        /* \"#utility.yul\":18797:18936   */\n      swap1\n      pop\n        /* \"#utility.yul\":18524:18943   */\n      swap2\n      swap1\n      pop\n      jump\t// out\n        /* \"#utility.yul\":18949:19129   */\n    tag_370:\n        /* \"#utility.yul\":18997:19074   */\n      0x4e487b7100000000000000000000000000000000000000000000000000000000\n        /* \"#utility.yul\":18994:18995   */\n      0x00\n        /* \"#utility.yul\":18987:19075   */\n      mstore\n        /* \"#utility.yul\":19094:19098   */\n      0x11\n        /* \"#utility.yul\":19091:19092   */\n      0x04\n        /* \"#utility.yul\":19084:19099   */\n      mstore\n        /* \"#utility.yul\":19118:19122   */\n      0x24\n        /* \"#utility.yul\":19115:19116   */\n      0x00\n        /* \"#utility.yul\":19108:19123   */\n      revert\n        /* \"#utility.yul\":19135:19368   */\n    tag_162:\n        /* \"#utility.yul\":19174:19177   */\n      0x00\n        /* \"#utility.yul\":19197:19221   */\n      tag_576\n        /* \"#utility.yul\":19215:19220   */\n      dup3\n        /* \"#utility.yul\":19197:19221   */\n      tag_322\n      jump\t// in\n    tag_576:\n        /* \"#utility.yul\":19188:19221   */\n      swap2\n      pop\n        /* \"#utility.yul\":19243:19309   */\n      0xffffffffffffffffffffffffffffffffffffffffffffffffffffffffffffffff\n        /* \"#utility.yul\":19236:19241   */\n      dup3\n        /* \"#utility.yul\":19233:19310   */\n      sub\n        /* \"#utility.yul\":19230:19333   */\n      tag_577\n      jumpi\n        /* \"#utility.yul\":19313:19331   */\n      tag_578\n      tag_370\n      jump\t// in\n    tag_578:\n        /* \"#utility.yul\":19230:19333   */\n    tag_577:\n        /* \"#utility.yul\":19360:19361   */\n      0x01\n        /* \"#utility.yul\":19353:19358   */\n      dup3\n        /* \"#utility.yul\":19349:19362   */\n      add\n        /* \"#utility.yul\":19342:19362   */\n      swap1\n      pop\n        /* \"#utility.yul\":19135:19368   */\n      swap2\n      swap1\n      pop\n      jump\t// out\n        /* \"#utility.yul\":19374:19517   */\n    tag_371:\n        /* \"#utility.yul\":19431:19436   */\n      0x00\n        /* \"#utility.yul\":19462:19468   */\n      dup2\n        /* \"#utility.yul\":19456:19469   */\n      mload\n        /* \"#utility.yul\":19447:19469   */\n      swap1\n      pop\n        /* \"#utility.yul\":19478:19511   */\n      tag_580\n        /* \"#utility.yul\":19505:19510   */\n      dup2\n        /* \"#utility.yul\":19478:19511   */\n      tag_323\n      jump\t// in\n    tag_580:\n        /* \"#utility.yul\":19374:19517   */\n      swap3\n      swap2\n      pop\n      pop\n      jump\t// out\n        /* \"#utility.yul\":19523:19874   */\n    tag_169:\n        /* \"#utility.yul\":19593:19599   */\n      0x00\n        /* \"#utility.yul\":19642:19644   */\n      0x20\n        /* \"#utility.yul\":19630:19639   */\n      dup3\n        /* \"#utility.yul\":19621:19628   */\n      dup5\n        /* \"#utility.yul\":19617:19640   */\n      sub\n        /* \"#utility.yul\":19613:19645   */\n      slt\n        /* \"#utility.yul\":19610:19729   */\n      iszero\n      tag_582\n      jumpi\n        /* \"#utility.yul\":19648:19727   */\n      tag_583\n      tag_320\n      jump\t// in\n    tag_583:\n        /* \"#utility.yul\":19610:19729   */\n    tag_582:\n        /* \"#utility.yul\":19768:19769   */\n      0x00\n        /* \"#utility.yul\":19793:19857   */\n      tag_584\n        /* \"#utility.yul\":19849:19856   */\n      dup5\n        /* \"#utility.yul\":19840:19846   */\n      dup3\n        /* \"#utility.yul\":19829:19838   */\n      dup6\n        /* \"#utility.yul\":19825:19847   */\n      add\n        /* \"#utility.yul\":19793:19857   */\n      tag_371\n      jump\t// in\n    tag_584:\n        /* \"#utility.yul\":19783:19857   */\n      swap2\n      pop\n        /* \"#utility.yul\":19739:19867   */\n      pop\n        /* \"#utility.yul\":19523:19874   */\n      swap3\n      swap2\n      pop\n      pop\n      jump\t// out\n        /* \"#utility.yul\":19880:20110   */\n    tag_372:\n        /* \"#utility.yul\":20020:20054   */\n      0x686f6c64696e67202620617574686f72697a6174696f6e2066616c7365207061\n        /* \"#utility.yul\":20016:20017   */\n      0x00\n        /* \"#utility.yul\":20008:20014   */\n      dup3\n        /* \"#utility.yul\":20004:20018   */\n      add\n        /* \"#utility.yul\":19997:20055   */\n      mstore\n        /* \"#utility.yul\":20089:20102   */\n      0x7920657861637420666565000000000000000000000000000000000000000000\n        /* \"#utility.yul\":20084:20086   */\n      0x20\n        /* \"#utility.yul\":20076:20082   */\n      dup3\n        /* \"#utility.yul\":20072:20087   */\n      add\n        /* \"#utility.yul\":20065:20103   */\n      mstore\n        /* \"#utility.yul\":19880:20110   */\n      pop\n      jump\t// out\n        /* \"#utility.yul\":20116:20482   */\n    tag_373:\n        /* \"#utility.yul\":20258:20261   */\n      0x00\n        /* \"#utility.yul\":20279:20346   */\n      tag_587\n        /* \"#utility.yul\":20343:20345   */\n      0x2b\n        /* \"#utility.yul\":20338:20341   */\n      dup4\n        /* \"#utility.yul\":20279:20346   */\n      tag_355\n      jump\t// in\n    tag_587:\n        /* \"#utility.yul\":20272:20346   */\n      swap2\n      pop\n        /* \"#utility.yul\":20355:20448   */\n      tag_588\n        /* \"#utility.yul\":20444:20447   */\n      dup3\n        /* \"#utility.yul\":20355:20448   */\n      tag_372\n      jump\t// in\n    tag_588:\n        /* \"#utility.yul\":20473:20475   */\n      0x40\n        /* \"#utility.yul\":20468:20471   */\n      dup3\n        /* \"#utility.yul\":20464:20476   */\n      add\n        /* \"#utility.yul\":20457:20476   */\n      swap1\n      pop\n        /* \"#utility.yul\":20116:20482   */\n      swap2\n      swap1\n      pop\n      jump\t// out\n        /* \"#utility.yul\":20488:20907   */\n    tag_193:\n        /* \"#utility.yul\":20654:20658   */\n      0x00\n        /* \"#utility.yul\":20692:20694   */\n      0x20\n        /* \"#utility.yul\":20681:20690   */\n      dup3\n        /* \"#utility.yul\":20677:20695   */\n      add\n        /* \"#utility.yul\":20669:20695   */\n      swap1\n      pop\n        /* \"#utility.yul\":20741:20750   */\n      dup2\n        /* \"#utility.yul\":20735:20739   */\n      dup2\n        /* \"#utility.yul\":20731:20751   */\n      sub\n        /* \"#utility.yul\":20727:20728   */\n      0x00\n        /* \"#utility.yul\":20716:20725   */\n      dup4\n        /* \"#utility.yul\":20712:20729   */\n      add\n        /* \"#utility.yul\":20705:20752   */\n      mstore\n        /* \"#utility.yul\":20769:20900   */\n      tag_590\n        /* \"#utility.yul\":20895:20899   */\n      dup2\n        /* \"#utility.yul\":20769:20900   */\n      tag_373\n      jump\t// in\n    tag_590:\n        /* \"#utility.yul\":20761:20900   */\n      swap1\n      pop\n        /* \"#utility.yul\":20488:20907   */\n      swap2\n      swap1\n      pop\n      jump\t// out\n        /* \"#utility.yul\":20913:21136   */\n    tag_374:\n        /* \"#utility.yul\":21053:21087   */\n      0x636f6e747261637420646f65736e2774206861766520656e6f75676820746f6b\n        /* \"#utility.yul\":21049:21050   */\n      0x00\n        /* \"#utility.yul\":21041:21047   */\n      dup3\n        /* \"#utility.yul\":21037:21051   */\n      add\n        /* \"#utility.yul\":21030:21088   */\n      mstore\n        /* \"#utility.yul\":21122:21128   */\n      0x656e277300000000000000000000000000000000000000000000000000000000\n        /* \"#utility.yul\":21117:21119   */\n      0x20\n        /* \"#utility.yul\":21109:21115   */\n      dup3\n        /* \"#utility.yul\":21105:21120   */\n      add\n        /* \"#utility.yul\":21098:21129   */\n      mstore\n        /* \"#utility.yul\":20913:21136   */\n      pop\n      jump\t// out\n        /* \"#utility.yul\":21142:21508   */\n    tag_375:\n        /* \"#utility.yul\":21284:21287   */\n      0x00\n        /* \"#utility.yul\":21305:21372   */\n      tag_593\n        /* \"#utility.yul\":21369:21371   */\n      0x24\n        /* \"#utility.yul\":21364:21367   */\n      dup4\n        /* \"#utility.yul\":21305:21372   */\n      tag_355\n      jump\t// in\n    tag_593:\n        /* \"#utility.yul\":21298:21372   */\n      swap2\n      pop\n        /* \"#utility.yul\":21381:21474   */\n      tag_594\n        /* \"#utility.yul\":21470:21473   */\n      dup3\n        /* \"#utility.yul\":21381:21474   */\n      tag_374\n      jump\t// in\n    tag_594:\n        /* \"#utility.yul\":21499:21501   */\n      0x40\n        /* \"#utility.yul\":21494:21497   */\n      dup3\n        /* \"#utility.yul\":21490:21502   */\n      add\n        /* \"#utility.yul\":21483:21502   */\n      swap1\n      pop\n        /* \"#utility.yul\":21142:21508   */\n      swap2\n      swap1\n      pop\n      jump\t// out\n        /* \"#utility.yul\":21514:21933   */\n    tag_219:\n        /* \"#utility.yul\":21680:21684   */\n      0x00\n        /* \"#utility.yul\":21718:21720   */\n      0x20\n        /* \"#utility.yul\":21707:21716   */\n      dup3\n        /* \"#utility.yul\":21703:21721   */\n      add\n        /* \"#utility.yul\":21695:21721   */\n      swap1\n      pop\n        /* \"#utility.yul\":21767:21776   */\n      dup2\n        /* \"#utility.yul\":21761:21765   */\n      dup2\n        /* \"#utility.yul\":21757:21777   */\n      sub\n        /* \"#utility.yul\":21753:21754   */\n      0x00\n        /* \"#utility.yul\":21742:21751   */\n      dup4\n        /* \"#utility.yul\":21738:21755   */\n      add\n        /* \"#utility.yul\":21731:21778   */\n      mstore\n        /* \"#utility.yul\":21795:21926   */\n      tag_596\n        /* \"#utility.yul\":21921:21925   */\n      dup2\n        /* \"#utility.yul\":21795:21926   */\n      tag_375\n      jump\t// in\n    tag_596:\n        /* \"#utility.yul\":21787:21926   */\n      swap1\n      pop\n        /* \"#utility.yul\":21514:21933   */\n      swap2\n      swap1\n      pop\n      jump\t// out\n        /* \"#utility.yul\":21939:22271   */\n    tag_221:\n        /* \"#utility.yul\":22060:22064   */\n      0x00\n        /* \"#utility.yul\":22098:22100   */\n      0x40\n        /* \"#utility.yul\":22087:22096   */\n      dup3\n        /* \"#utility.yul\":22083:22101   */\n      add\n        /* \"#utility.yul\":22075:22101   */\n      swap1\n      pop\n        /* \"#utility.yul\":22111:22182   */\n      tag_598\n        /* \"#utility.yul\":22179:22180   */\n      0x00\n        /* \"#utility.yul\":22168:22177   */\n      dup4\n        /* \"#utility.yul\":22164:22181   */\n      add\n        /* \"#utility.yul\":22155:22161   */\n      dup6\n        /* \"#utility.yul\":22111:22182   */\n      tag_335\n      jump\t// in\n    tag_598:\n        /* \"#utility.yul\":22192:22264   */\n      tag_599\n        /* \"#utility.yul\":22260:22262   */\n      0x20\n        /* \"#utility.yul\":22249:22258   */\n      dup4\n        /* \"#utility.yul\":22245:22263   */\n      add\n        /* \"#utility.yul\":22236:22242   */\n      dup5\n        /* \"#utility.yul\":22192:22264   */\n      tag_329\n      jump\t// in\n    tag_599:\n        /* \"#utility.yul\":21939:22271   */\n      swap4\n      swap3\n      pop\n      pop\n      pop\n      jump\t// out\n        /* \"#utility.yul\":22277:22582   */\n    tag_237:\n        /* \"#utility.yul\":22317:22320   */\n      0x00\n        /* \"#utility.yul\":22336:22356   */\n      tag_601\n        /* \"#utility.yul\":22354:22355   */\n      dup3\n        /* \"#utility.yul\":22336:22356   */\n      tag_322\n      jump\t// in\n    tag_601:\n        /* \"#utility.yul\":22331:22356   */\n      swap2\n      pop\n        /* \"#utility.yul\":22370:22390   */\n      tag_602\n        /* \"#utility.yul\":22388:22389   */\n      dup4\n        /* \"#utility.yul\":22370:22390   */\n      tag_322\n      jump\t// in\n    tag_602:\n        /* \"#utility.yul\":22365:22390   */\n      swap3\n      pop\n        /* \"#utility.yul\":22524:22525   */\n      dup3\n        /* \"#utility.yul\":22456:22522   */\n      0xffffffffffffffffffffffffffffffffffffffffffffffffffffffffffffffff\n        /* \"#utility.yul\":22452:22526   */\n      sub\n        /* \"#utility.yul\":22449:22450   */\n      dup3\n        /* \"#utility.yul\":22446:22527   */\n      gt\n        /* \"#utility.yul\":22443:22550   */\n      iszero\n      tag_603\n      jumpi\n        /* \"#utility.yul\":22530:22548   */\n      tag_604\n      tag_370\n      jump\t// in\n    tag_604:\n        /* \"#utility.yul\":22443:22550   */\n    tag_603:\n        /* \"#utility.yul\":22574:22575   */\n      dup3\n        /* \"#utility.yul\":22571:22572   */\n      dup3\n        /* \"#utility.yul\":22567:22576   */\n      add\n        /* \"#utility.yul\":22560:22576   */\n      swap1\n      pop\n        /* \"#utility.yul\":22277:22582   */\n      swap3\n      swap2\n      pop\n      pop\n      jump\t// out\n        /* \"#utility.yul\":22588:22817   */\n    tag_376:\n        /* \"#utility.yul\":22728:22762   */\n      0x7061792074686520657861637420616d6f756e7420746f20636f766572206469\n        /* \"#utility.yul\":22724:22725   */\n      0x00\n        /* \"#utility.yul\":22716:22722   */\n      dup3\n        /* \"#utility.yul\":22712:22726   */\n      add\n        /* \"#utility.yul\":22705:22763   */\n      mstore\n        /* \"#utility.yul\":22797:22809   */\n      0x73747269627574696f6e00000000000000000000000000000000000000000000\n        /* \"#utility.yul\":22792:22794   */\n      0x20\n        /* \"#utility.yul\":22784:22790   */\n      dup3\n        /* \"#utility.yul\":22780:22795   */\n      add\n        /* \"#utility.yul\":22773:22810   */\n      mstore\n        /* \"#utility.yul\":22588:22817   */\n      pop\n      jump\t// out\n        /* \"#utility.yul\":22823:23189   */\n    tag_377:\n        /* \"#utility.yul\":22965:22968   */\n      0x00\n        /* \"#utility.yul\":22986:23053   */\n      tag_607\n        /* \"#utility.yul\":23050:23052   */\n      0x2a\n        /* \"#utility.yul\":23045:23048   */\n      dup4\n        /* \"#utility.yul\":22986:23053   */\n      tag_355\n      jump\t// in\n    tag_607:\n        /* \"#utility.yul\":22979:23053   */\n      swap2\n      pop\n        /* \"#utility.yul\":23062:23155   */\n      tag_608\n        /* \"#utility.yul\":23151:23154   */\n      dup3\n        /* \"#utility.yul\":23062:23155   */\n      tag_376\n      jump\t// in\n    tag_608:\n        /* \"#utility.yul\":23180:23182   */\n      0x40\n        /* \"#utility.yul\":23175:23178   */\n      dup3\n        /* \"#utility.yul\":23171:23183   */\n      add\n        /* \"#utility.yul\":23164:23183   */\n      swap1\n      pop\n        /* \"#utility.yul\":22823:23189   */\n      swap2\n      swap1\n      pop\n      jump\t// out\n        /* \"#utility.yul\":23195:23614   */\n    tag_242:\n        /* \"#utility.yul\":23361:23365   */\n      0x00\n        /* \"#utility.yul\":23399:23401   */\n      0x20\n        /* \"#utility.yul\":23388:23397   */\n      dup3\n        /* \"#utility.yul\":23384:23402   */\n      add\n        /* \"#utility.yul\":23376:23402   */\n      swap1\n      pop\n        /* \"#utility.yul\":23448:23457   */\n      dup2\n        /* \"#utility.yul\":23442:23446   */\n      dup2\n        /* \"#utility.yul\":23438:23458   */\n      sub\n        /* \"#utility.yul\":23434:23435   */\n      0x00\n        /* \"#utility.yul\":23423:23432   */\n      dup4\n        /* \"#utility.yul\":23419:23436   */\n      add\n        /* \"#utility.yul\":23412:23459   */\n      mstore\n        /* \"#utility.yul\":23476:23607   */\n      tag_610\n        /* \"#utility.yul\":23602:23606   */\n      dup2\n        /* \"#utility.yul\":23476:23607   */\n      tag_377\n      jump\t// in\n    tag_610:\n        /* \"#utility.yul\":23468:23607   */\n      swap1\n      pop\n        /* \"#utility.yul\":23195:23614   */\n      swap2\n      swap1\n      pop\n      jump\t// out\n        /* \"#utility.yul\":23620:23862   */\n    tag_378:\n        /* \"#utility.yul\":23760:23794   */\n      0x686f6c64696e67207175616e74697479207472756520627574206d73672e7661\n        /* \"#utility.yul\":23756:23757   */\n      0x00\n        /* \"#utility.yul\":23748:23754   */\n      dup3\n        /* \"#utility.yul\":23744:23758   */\n      add\n        /* \"#utility.yul\":23737:23795   */\n      mstore\n        /* \"#utility.yul\":23829:23854   */\n      0x6c756520756e6365727461696e20706179206578616374000000000000000000\n        /* \"#utility.yul\":23824:23826   */\n      0x20\n        /* \"#utility.yul\":23816:23822   */\n      dup3\n        /* \"#utility.yul\":23812:23827   */\n      add\n        /* \"#utility.yul\":23805:23855   */\n      mstore\n        /* \"#utility.yul\":23620:23862   */\n      pop\n      jump\t// out\n        /* \"#utility.yul\":23868:24234   */\n    tag_379:\n        /* \"#utility.yul\":24010:24013   */\n      0x00\n        /* \"#utility.yul\":24031:24098   */\n      tag_613\n        /* \"#utility.yul\":24095:24097   */\n      0x37\n        /* \"#utility.yul\":24090:24093   */\n      dup4\n        /* \"#utility.yul\":24031:24098   */\n      tag_355\n      jump\t// in\n    tag_613:\n        /* \"#utility.yul\":24024:24098   */\n      swap2\n      pop\n        /* \"#utility.yul\":24107:24200   */\n      tag_614\n        /* \"#utility.yul\":24196:24199   */\n      dup3\n        /* \"#utility.yul\":24107:24200   */\n      tag_378\n      jump\t// in\n    tag_614:\n        /* \"#utility.yul\":24225:24227   */\n      0x40\n        /* \"#utility.yul\":24220:24223   */\n      dup3\n        /* \"#utility.yul\":24216:24228   */\n      add\n        /* \"#utility.yul\":24209:24228   */\n      swap1\n      pop\n        /* \"#utility.yul\":23868:24234   */\n      swap2\n      swap1\n      pop\n      jump\t// out\n        /* \"#utility.yul\":24240:24659   */\n    tag_262:\n        /* \"#utility.yul\":24406:24410   */\n      0x00\n        /* \"#utility.yul\":24444:24446   */\n      0x20\n        /* \"#utility.yul\":24433:24442   */\n      dup3\n        /* \"#utility.yul\":24429:24447   */\n      add\n        /* \"#utility.yul\":24421:24447   */\n      swap1\n      pop\n        /* \"#utility.yul\":24493:24502   */\n      dup2\n        /* \"#utility.yul\":24487:24491   */\n      dup2\n        /* \"#utility.yul\":24483:24503   */\n      sub\n        /* \"#utility.yul\":24479:24480   */\n      0x00\n        /* \"#utility.yul\":24468:24477   */\n      dup4\n        /* \"#utility.yul\":24464:24481   */\n      add\n        /* \"#utility.yul\":24457:24504   */\n      mstore\n        /* \"#utility.yul\":24521:24652   */\n      tag_616\n        /* \"#utility.yul\":24647:24651   */\n      dup2\n        /* \"#utility.yul\":24521:24652   */\n      tag_379\n      jump\t// in\n    tag_616:\n        /* \"#utility.yul\":24513:24652   */\n      swap1\n      pop\n        /* \"#utility.yul\":24240:24659   */\n      swap2\n      swap1\n      pop\n      jump\t// out\n        /* \"#utility.yul\":24665:24890   */\n    tag_380:\n        /* \"#utility.yul\":24805:24839   */\n      0x4f776e61626c653a206e6577206f776e657220697320746865207a65726f2061\n        /* \"#utility.yul\":24801:24802   */\n      0x00\n        /* \"#utility.yul\":24793:24799   */\n      dup3\n        /* \"#utility.yul\":24789:24803   */\n      add\n        /* \"#utility.yul\":24782:24840   */\n      mstore\n        /* \"#utility.yul\":24874:24882   */\n      0x6464726573730000000000000000000000000000000000000000000000000000\n        /* \"#utility.yul\":24869:24871   */\n      0x20\n        /* \"#utility.yul\":24861:24867   */\n      dup3\n        /* \"#utility.yul\":24857:24872   */\n      add\n        /* \"#utility.yul\":24850:24883   */\n      mstore\n        /* \"#utility.yul\":24665:24890   */\n      pop\n      jump\t// out\n        /* \"#utility.yul\":24896:25262   */\n    tag_381:\n        /* \"#utility.yul\":25038:25041   */\n      0x00\n        /* \"#utility.yul\":25059:25126   */\n      tag_619\n        /* \"#utility.yul\":25123:25125   */\n      0x26\n        /* \"#utility.yul\":25118:25121   */\n      dup4\n        /* \"#utility.yul\":25059:25126   */\n      tag_355\n      jump\t// in\n    tag_619:\n        /* \"#utility.yul\":25052:25126   */\n      swap2\n      pop\n        /* \"#utility.yul\":25135:25228   */\n      tag_620\n        /* \"#utility.yul\":25224:25227   */\n      dup3\n        /* \"#utility.yul\":25135:25228   */\n      tag_380\n      jump\t// in\n    tag_620:\n        /* \"#utility.yul\":25253:25255   */\n      0x40\n        /* \"#utility.yul\":25248:25251   */\n      dup3\n        /* \"#utility.yul\":25244:25256   */\n      add\n        /* \"#utility.yul\":25237:25256   */\n      swap1\n      pop\n        /* \"#utility.yul\":24896:25262   */\n      swap2\n      swap1\n      pop\n      jump\t// out\n        /* \"#utility.yul\":25268:25687   */\n    tag_299:\n        /* \"#utility.yul\":25434:25438   */\n      0x00\n        /* \"#utility.yul\":25472:25474   */\n      0x20\n        /* \"#utility.yul\":25461:25470   */\n      dup3\n        /* \"#utility.yul\":25457:25475   */\n      add\n        /* \"#utility.yul\":25449:25475   */\n      swap1\n      pop\n        /* \"#utility.yul\":25521:25530   */\n      dup2\n        /* \"#utility.yul\":25515:25519   */\n      dup2\n        /* \"#utility.yul\":25511:25531   */\n      sub\n        /* \"#utility.yul\":25507:25508   */\n      0x00\n        /* \"#utility.yul\":25496:25505   */\n      dup4\n        /* \"#utility.yul\":25492:25509   */\n      add\n        /* \"#utility.yul\":25485:25532   */\n      mstore\n        /* \"#utility.yul\":25549:25680   */\n      tag_622\n        /* \"#utility.yul\":25675:25679   */\n      dup2\n        /* \"#utility.yul\":25549:25680   */\n      tag_381\n      jump\t// in\n    tag_622:\n        /* \"#utility.yul\":25541:25680   */\n      swap1\n      pop\n        /* \"#utility.yul\":25268:25687   */\n      swap2\n      swap1\n      pop\n      jump\t// out\n        /* \"#utility.yul\":25693:25870   */\n    tag_382:\n        /* \"#utility.yul\":25833:25862   */\n      0x696e76616c69642062616c616e636520746f2077697468647261770000000000\n        /* \"#utility.yul\":25829:25830   */\n      0x00\n        /* \"#utility.yul\":25821:25827   */\n      dup3\n        /* \"#utility.yul\":25817:25831   */\n      add\n        /* \"#utility.yul\":25810:25863   */\n      mstore\n        /* \"#utility.yul\":25693:25870   */\n      pop\n      jump\t// out\n        /* \"#utility.yul\":25876:26242   */\n    tag_383:\n        /* \"#utility.yul\":26018:26021   */\n      0x00\n        /* \"#utility.yul\":26039:26106   */\n      tag_625\n        /* \"#utility.yul\":26103:26105   */\n      0x1b\n        /* \"#utility.yul\":26098:26101   */\n      dup4\n        /* \"#utility.yul\":26039:26106   */\n      tag_355\n      jump\t// in\n    tag_625:\n        /* \"#utility.yul\":26032:26106   */\n      swap2\n      pop\n        /* \"#utility.yul\":26115:26208   */\n      tag_626\n        /* \"#utility.yul\":26204:26207   */\n      dup3\n        /* \"#utility.yul\":26115:26208   */\n      tag_382\n      jump\t// in\n    tag_626:\n        /* \"#utility.yul\":26233:26235   */\n      0x20\n        /* \"#utility.yul\":26228:26231   */\n      dup3\n        /* \"#utility.yul\":26224:26236   */\n      add\n        /* \"#utility.yul\":26217:26236   */\n      swap1\n      pop\n        /* \"#utility.yul\":25876:26242   */\n      swap2\n      swap1\n      pop\n      jump\t// out\n        /* \"#utility.yul\":26248:26667   */\n    tag_306:\n        /* \"#utility.yul\":26414:26418   */\n      0x00\n        /* \"#utility.yul\":26452:26454   */\n      0x20\n        /* \"#utility.yul\":26441:26450   */\n      dup3\n        /* \"#utility.yul\":26437:26455   */\n      add\n        /* \"#utility.yul\":26429:26455   */\n      swap1\n      pop\n        /* \"#utility.yul\":26501:26510   */\n      dup2\n        /* \"#utility.yul\":26495:26499   */\n      dup2\n        /* \"#utility.yul\":26491:26511   */\n      sub\n        /* \"#utility.yul\":26487:26488   */\n      0x00\n        /* \"#utility.yul\":26476:26485   */\n      dup4\n        /* \"#utility.yul\":26472:26489   */\n      add\n        /* \"#utility.yul\":26465:26512   */\n      mstore\n        /* \"#utility.yul\":26529:26660   */\n      tag_628\n        /* \"#utility.yul\":26655:26659   */\n      dup2\n        /* \"#utility.yul\":26529:26660   */\n      tag_383\n      jump\t// in\n    tag_628:\n        /* \"#utility.yul\":26521:26660   */\n      swap1\n      pop\n        /* \"#utility.yul\":26248:26667   */\n      swap2\n      swap1\n      pop\n      jump\t// out\n        /* \"#utility.yul\":26673:26855   */\n    tag_384:\n        /* \"#utility.yul\":26813:26847   */\n      0x4f776e61626c653a2063616c6c6572206973206e6f7420746865206f776e6572\n        /* \"#utility.yul\":26809:26810   */\n      0x00\n        /* \"#utility.yul\":26801:26807   */\n      dup3\n        /* \"#utility.yul\":26797:26811   */\n      add\n        /* \"#utility.yul\":26790:26848   */\n      mstore\n        /* \"#utility.yul\":26673:26855   */\n      pop\n      jump\t// out\n        /* \"#utility.yul\":26861:27227   */\n    tag_385:\n        /* \"#utility.yul\":27003:27006   */\n      0x00\n        /* \"#utility.yul\":27024:27091   */\n      tag_631\n        /* \"#utility.yul\":27088:27090   */\n      0x20\n        /* \"#utility.yul\":27083:27086   */\n      dup4\n        /* \"#utility.yul\":27024:27091   */\n      tag_355\n      jump\t// in\n    tag_631:\n        /* \"#utility.yul\":27017:27091   */\n      swap2\n      pop\n        /* \"#utility.yul\":27100:27193   */\n      tag_632\n        /* \"#utility.yul\":27189:27192   */\n      dup3\n        /* \"#utility.yul\":27100:27193   */\n      tag_384\n      jump\t// in\n    tag_632:\n        /* \"#utility.yul\":27218:27220   */\n      0x20\n        /* \"#utility.yul\":27213:27216   */\n      dup3\n        /* \"#utility.yul\":27209:27221   */\n      add\n        /* \"#utility.yul\":27202:27221   */\n      swap1\n      pop\n        /* \"#utility.yul\":26861:27227   */\n      swap2\n      swap1\n      pop\n      jump\t// out\n        /* \"#utility.yul\":27233:27652   */\n    tag_315:\n        /* \"#utility.yul\":27399:27403   */\n      0x00\n        /* \"#utility.yul\":27437:27439   */\n      0x20\n        /* \"#utility.yul\":27426:27435   */\n      dup3\n        /* \"#utility.yul\":27422:27440   */\n      add\n        /* \"#utility.yul\":27414:27440   */\n      swap1\n      pop\n        /* \"#utility.yul\":27486:27495   */\n      dup2\n        /* \"#utility.yul\":27480:27484   */\n      dup2\n        /* \"#utility.yul\":27476:27496   */\n      sub\n        /* \"#utility.yul\":27472:27473   */\n      0x00\n        /* \"#utility.yul\":27461:27470   */\n      dup4\n        /* \"#utility.yul\":27457:27474   */\n      add\n        /* \"#utility.yul\":27450:27497   */\n      mstore\n        /* \"#utility.yul\":27514:27645   */\n      tag_634\n        /* \"#utility.yul\":27640:27644   */\n      dup2\n        /* \"#utility.yul\":27514:27645   */\n      tag_385\n      jump\t// in\n    tag_634:\n        /* \"#utility.yul\":27506:27645   */\n      swap1\n      pop\n        /* \"#utility.yul\":27233:27652   */\n      swap2\n      swap1\n      pop\n      jump\t// out\n\n    auxdata: 0xa26469706673582212206289b5431847df25da9c36311a79a8454ae5a0fed3d528f603a5377b1e879dcb64736f6c634300080d0033\n}\n",
				"bytecode": {
					"linkReferences": {},
					"object": "60806040523480156200001157600080fd5b5062000032620000266200009560201b60201c565b6200009d60201b60201c565b620000426200016160201b60201c565b600260006101000a81548173ffffffffffffffffffffffffffffffffffffffff021916908373ffffffffffffffffffffffffffffffffffffffff160217905550655af3107a40006001819055506200018a565b600033905090565b60008060009054906101000a900473ffffffffffffffffffffffffffffffffffffffff169050816000806101000a81548173ffffffffffffffffffffffffffffffffffffffff021916908373ffffffffffffffffffffffffffffffffffffffff1602179055508173ffffffffffffffffffffffffffffffffffffffff168173ffffffffffffffffffffffffffffffffffffffff167f8be0079c531659141344cd1fd0a4f28419497f9722a3daafe3b4186f6b6457e060405160405180910390a35050565b60008060009054906101000a900473ffffffffffffffffffffffffffffffffffffffff16905090565b61277a806200019a6000396000f3fe6080604052600436106101025760003560e01c80638da5cb5b11610095578063d908e6ce11610064578063d908e6ce146102f7578063ddca3f4314610313578063f2fde38b1461033e578063f7260d3e14610367578063f9f95a0f1461039257610109565b80638da5cb5b1461025c5780639cbd3433146102875780639d76ea58146102a35780639e281a98146102ce57610109565b8063478aa69e116100d1578063478aa69e146101c857806367c2a360146101f1578063715018a61461021a5780638b7afe2e1461023157610109565b8063126ccd941461010e57806317fc45e2146101375780632fc75eb01461016257806344b6209d1461018b57610109565b3661010957005b600080fd5b34801561011a57600080fd5b506101356004803603810190610130919061198b565b6103bb565b005b34801561014357600080fd5b5061014c61040f565b60405161015991906119da565b60405180910390f35b34801561016e57600080fd5b5061018960048036038101906101849190611a33565b610415565b005b34801561019757600080fd5b506101b260048036038101906101ad9190611a73565b610469565b6040516101bf9190611abb565b60405180910390f35b3480156101d457600080fd5b506101ef60048036038101906101ea9190611a73565b610489565b005b3480156101fd57600080fd5b5061021860048036038101906102139190611a73565b61057f565b005b34801561022657600080fd5b5061022f610675565b005b34801561023d57600080fd5b50610246610689565b60405161025391906119da565b60405180910390f35b34801561026857600080fd5b50610271610699565b60405161027e9190611ae5565b60405180910390f35b6102a1600480360381019061029c9190611d1c565b6106c2565b005b3480156102af57600080fd5b506102b8610e3b565b6040516102c59190611e06565b60405180910390f35b3480156102da57600080fd5b506102f560048036038101906102f09190611a33565b610e61565b005b610311600480360381019061030c9190611e21565b610fa8565b005b34801561031f57600080fd5b50610328611632565b60405161033591906119da565b60405180910390f35b34801561034a57600080fd5b5061036560048036038101906103609190611a73565b611638565b005b34801561037357600080fd5b5061037c6116bb565b6040516103899190611eba565b60405180910390f35b34801561039e57600080fd5b506103b960048036038101906103b49190611ed5565b6116e1565b005b6103c3611776565b8160018190555080600260006101000a81548173ffffffffffffffffffffffffffffffffffffffff021916908373ffffffffffffffffffffffffffffffffffffffff1602179055505050565b60055481565b61041d611776565b81600460006101000a81548173ffffffffffffffffffffffffffffffffffffffff021916908373ffffffffffffffffffffffffffffffffffffffff160217905550806005819055505050565b60036020528060005260406000206000915054906101000a900460ff1681565b610491611776565b60011515600360008373ffffffffffffffffffffffffffffffffffffffff1673ffffffffffffffffffffffffffffffffffffffff16815260200190815260200160002060009054906101000a900460ff16151514610524576040517f08c379a000000000000000000000000000000000000000000000000000000000815260040161051b90611f5f565b60405180910390fd5b6000600360008373ffffffffffffffffffffffffffffffffffffffff1673ffffffffffffffffffffffffffffffffffffffff16815260200190815260200160002060006101000a81548160ff02191690831515021790555050565b610587611776565b60001515600360008373ffffffffffffffffffffffffffffffffffffffff1673ffffffffffffffffffffffffffffffffffffffff16815260200190815260200160002060009054906101000a900460ff1615151461061a576040517f08c379a000000000000000000000000000000000000000000000000000000000815260040161061190611fcb565b60405180910390fd5b6001600360008373ffffffffffffffffffffffffffffffffffffffff1673ffffffffffffffffffffffffffffffffffffffff16815260200190815260200160002060006101000a81548160ff02191690831515021790555050565b61067d611776565b61068760006117f4565b565b6000610693611776565b47905090565b60008060009054906101000a900473ffffffffffffffffffffffffffffffffffffffff16905090565b600073ffffffffffffffffffffffffffffffffffffffff16600460009054906101000a900473ffffffffffffffffffffffffffffffffffffffff1673ffffffffffffffffffffffffffffffffffffffff1603610753576040517f08c379a000000000000000000000000000000000000000000000000000000000815260040161074a90612037565b60405180910390fd5b600115156107768473ffffffffffffffffffffffffffffffffffffffff166118b8565b1515146107b8576040517f08c379a00000000000000000000000000000000000000000000000000000000081526004016107af906120a3565b60405180910390fd5b80518251146107fc576040517f08c379a00000000000000000000000000000000000000000000000000000000081526004016107f39061210f565b60405180910390fd5b600360003373ffffffffffffffffffffffffffffffffffffffff1673ffffffffffffffffffffffffffffffffffffffff16815260200190815260200160002060009054906101000a900460ff16156109665760005b8151811015610960578373ffffffffffffffffffffffffffffffffffffffff166323b872dd3385848151811061088a5761088961212f565b5b60200260200101518585815181106108a5576108a461212f565b5b60200260200101516040518463ffffffff1660e01b81526004016108cb9392919061215e565b6020604051808303816000875af11580156108ea573d6000803e3d6000fd5b505050506040513d601f19601f8201168201806040525081019061090e91906121c1565b61094d576040517f08c379a00000000000000000000000000000000000000000000000000000000081526004016109449061223a565b60405180910390fd5b808061095890612289565b915050610851565b50610e36565b600360003373ffffffffffffffffffffffffffffffffffffffff1673ffffffffffffffffffffffffffffffffffffffff16815260200190815260200160002060009054906101000a900460ff16610e3557600554600460009054906101000a900473ffffffffffffffffffffffffffffffffffffffff1673ffffffffffffffffffffffffffffffffffffffff166370a08231336040518263ffffffff1660e01b8152600401610a159190611ae5565b602060405180830381865afa158015610a32573d6000803e3d6000fd5b505050506040513d601f19601f82011682018060405250810190610a5691906122e6565b10610bcb576001600360003373ffffffffffffffffffffffffffffffffffffffff1673ffffffffffffffffffffffffffffffffffffffff16815260200190815260200160002060006101000a81548160ff02191690831515021790555060005b8151811015610bc5578373ffffffffffffffffffffffffffffffffffffffff166323b872dd33858481518110610aef57610aee61212f565b5b6020026020010151858581518110610b0a57610b0961212f565b5b60200260200101516040518463ffffffff1660e01b8152600401610b309392919061215e565b6020604051808303816000875af1158015610b4f573d6000803e3d6000fd5b505050506040513d601f19601f82011682018060405250810190610b7391906121c1565b610bb2576040517f08c379a0000000000000000000000000000000000000000000000000000000008152600401610ba99061223a565b60405180910390fd5b8080610bbd90612289565b915050610ab6565b50610e34565b600554600460009054906101000a900473ffffffffffffffffffffffffffffffffffffffff1673ffffffffffffffffffffffffffffffffffffffff166370a08231336040518263ffffffff1660e01b8152600401610c299190611ae5565b602060405180830381865afa158015610c46573d6000803e3d6000fd5b505050506040513d601f19601f82011682018060405250810190610c6a91906122e6565b1015610e33576001543414610cb4576040517f08c379a0000000000000000000000000000000000000000000000000000000008152600401610cab90612385565b60405180910390fd5b600260009054906101000a900473ffffffffffffffffffffffffffffffffffffffff1673ffffffffffffffffffffffffffffffffffffffff166108fc6001549081150290604051600060405180830381858888f19350505050158015610d1e573d6000803e3d6000fd5b5060005b8151811015610e31578373ffffffffffffffffffffffffffffffffffffffff166323b872dd33858481518110610d5b57610d5a61212f565b5b6020026020010151858581518110610d7657610d7561212f565b5b60200260200101516040518463ffffffff1660e01b8152600401610d9c9392919061215e565b6020604051808303816000875af1158015610dbb573d6000803e3d6000fd5b505050506040513d601f19601f82011682018060405250810190610ddf91906121c1565b610e1e576040517f08c379a0000000000000000000000000000000000000000000000000000000008152600401610e159061223a565b60405180910390fd5b8080610e2990612289565b915050610d22565b505b5b5b5b505050565b600460009054906101000a900473ffffffffffffffffffffffffffffffffffffffff1681565b610e69611776565b808273ffffffffffffffffffffffffffffffffffffffff166370a08231306040518263ffffffff1660e01b8152600401610ea39190611ae5565b602060405180830381865afa158015610ec0573d6000803e3d6000fd5b505050506040513d601f19601f82011682018060405250810190610ee491906122e6565b1015610f25576040517f08c379a0000000000000000000000000000000000000000000000000000000008152600401610f1c90612417565b60405180910390fd5b8173ffffffffffffffffffffffffffffffffffffffff1663a9059cbb33836040518363ffffffff1660e01b8152600401610f60929190612437565b6020604051808303816000875af1158015610f7f573d6000803e3d6000fd5b505050506040513d601f19601f82011682018060405250810190610fa391906121c1565b505050565b600073ffffffffffffffffffffffffffffffffffffffff16600460009054906101000a900473ffffffffffffffffffffffffffffffffffffffff1673ffffffffffffffffffffffffffffffffffffffff1603611039576040517f08c379a000000000000000000000000000000000000000000000000000000000815260040161103090612037565b60405180910390fd5b805182511461107d576040517f08c379a00000000000000000000000000000000000000000000000000000000081526004016110749061210f565b60405180910390fd5b6000805b82518110156110c55782818151811061109d5761109c61212f565b5b6020026020010151826110b09190612460565b915080806110bd90612289565b915050611081565b50600360003373ffffffffffffffffffffffffffffffffffffffff1673ffffffffffffffffffffffffffffffffffffffff16815260200190815260200160002060009054906101000a900460ff16156111fa5780341461115a576040517f08c379a000000000000000000000000000000000000000000000000000000000815260040161115190612528565b60405180910390fd5b60005b83518110156111f4578381815181106111795761117861212f565b5b602002602001015173ffffffffffffffffffffffffffffffffffffffff166108fc8483815181106111ad576111ac61212f565b5b60200260200101519081150290604051600060405180830381858888f193505050501580156111e0573d6000803e3d6000fd5b5080806111ec90612289565b91505061115d565b5061162d565b600360003373ffffffffffffffffffffffffffffffffffffffff1673ffffffffffffffffffffffffffffffffffffffff16815260200190815260200160002060009054906101000a900460ff1661162c57600554600460009054906101000a900473ffffffffffffffffffffffffffffffffffffffff1673ffffffffffffffffffffffffffffffffffffffff166370a08231336040518263ffffffff1660e01b81526004016112a99190611ae5565b602060405180830381865afa1580156112c6573d6000803e3d6000fd5b505050506040513d601f19601f820116820180604052508101906112ea91906122e6565b10611429576001600360003373ffffffffffffffffffffffffffffffffffffffff1673ffffffffffffffffffffffffffffffffffffffff16815260200190815260200160002060006101000a81548160ff021916908315150217905550803414611389576040517f08c379a0000000000000000000000000000000000000000000000000000000008152600401611380906125ba565b60405180910390fd5b60005b8351811015611423578381815181106113a8576113a761212f565b5b602002602001015173ffffffffffffffffffffffffffffffffffffffff166108fc8483815181106113dc576113db61212f565b5b60200260200101519081150290604051600060405180830381858888f1935050505015801561140f573d6000803e3d6000fd5b50808061141b90612289565b91505061138c565b5061162b565b600554600460009054906101000a900473ffffffffffffffffffffffffffffffffffffffff1673ffffffffffffffffffffffffffffffffffffffff166370a08231336040518263ffffffff1660e01b81526004016114879190611ae5565b602060405180830381865afa1580156114a4573d6000803e3d6000fd5b505050506040513d601f19601f820116820180604052508101906114c891906122e6565b101561162a576000816001546114de9190612460565b9050803414611522576040517f08c379a000000000000000000000000000000000000000000000000000000000815260040161151990612385565b60405180910390fd5b600260009054906101000a900473ffffffffffffffffffffffffffffffffffffffff1673ffffffffffffffffffffffffffffffffffffffff166108fc6001549081150290604051600060405180830381858888f1935050505015801561158c573d6000803e3d6000fd5b5060005b8451811015611627578481815181106115ac576115ab61212f565b5b602002602001015173ffffffffffffffffffffffffffffffffffffffff166108fc8583815181106115e0576115df61212f565b5b60200260200101519081150290604051600060405180830381858888f19350505050158015611613573d6000803e3d6000fd5b50808061161f90612289565b915050611590565b50505b5b5b5b505050565b60015481565b611640611776565b600073ffffffffffffffffffffffffffffffffffffffff168173ffffffffffffffffffffffffffffffffffffffff16036116af576040517f08c379a00000000000000000000000000000000000000000000000000000000081526004016116a69061264c565b60405180910390fd5b6116b8816117f4565b50565b600260009054906101000a900473ffffffffffffffffffffffffffffffffffffffff1681565b6116e9611776565b8047101561172c576040517f08c379a0000000000000000000000000000000000000000000000000000000008152600401611723906126b8565b60405180910390fd5b3373ffffffffffffffffffffffffffffffffffffffff166108fc829081150290604051600060405180830381858888f19350505050158015611772573d6000803e3d6000fd5b5050565b61177e6118db565b73ffffffffffffffffffffffffffffffffffffffff1661179c610699565b73ffffffffffffffffffffffffffffffffffffffff16146117f2576040517f08c379a00000000000000000000000000000000000000000000000000000000081526004016117e990612724565b60405180910390fd5b565b60008060009054906101000a900473ffffffffffffffffffffffffffffffffffffffff169050816000806101000a81548173ffffffffffffffffffffffffffffffffffffffff021916908373ffffffffffffffffffffffffffffffffffffffff1602179055508173ffffffffffffffffffffffffffffffffffffffff168173ffffffffffffffffffffffffffffffffffffffff167f8be0079c531659141344cd1fd0a4f28419497f9722a3daafe3b4186f6b6457e060405160405180910390a35050565b6000808273ffffffffffffffffffffffffffffffffffffffff163b119050919050565b600033905090565b6000604051905090565b600080fd5b600080fd5b6000819050919050565b61190a816118f7565b811461191557600080fd5b50565b60008135905061192781611901565b92915050565b600073ffffffffffffffffffffffffffffffffffffffff82169050919050565b60006119588261192d565b9050919050565b6119688161194d565b811461197357600080fd5b50565b6000813590506119858161195f565b92915050565b600080604083850312156119a2576119a16118ed565b5b60006119b085828601611918565b92505060206119c185828601611976565b9150509250929050565b6119d4816118f7565b82525050565b60006020820190506119ef60008301846119cb565b92915050565b6000611a008261194d565b9050919050565b611a10816119f5565b8114611a1b57600080fd5b50565b600081359050611a2d81611a07565b92915050565b60008060408385031215611a4a57611a496118ed565b5b6000611a5885828601611a1e565b9250506020611a6985828601611918565b9150509250929050565b600060208284031215611a8957611a886118ed565b5b6000611a9784828501611976565b91505092915050565b60008115159050919050565b611ab581611aa0565b82525050565b6000602082019050611ad06000830184611aac565b92915050565b611adf8161194d565b82525050565b6000602082019050611afa6000830184611ad6565b92915050565b600080fd5b6000601f19601f8301169050919050565b7f4e487b7100000000000000000000000000000000000000000000000000000000600052604160045260246000fd5b611b4e82611b05565b810181811067ffffffffffffffff82111715611b6d57611b6c611b16565b5b80604052505050565b6000611b806118e3565b9050611b8c8282611b45565b919050565b600067ffffffffffffffff821115611bac57611bab611b16565b5b602082029050602081019050919050565b600080fd5b6000611bd5611bd084611b91565b611b76565b90508083825260208201905060208402830185811115611bf857611bf7611bbd565b5b835b81811015611c215780611c0d8882611976565b845260208401935050602081019050611bfa565b5050509392505050565b600082601f830112611c4057611c3f611b00565b5b8135611c50848260208601611bc2565b91505092915050565b600067ffffffffffffffff821115611c7457611c73611b16565b5b602082029050602081019050919050565b6000611c98611c9384611c59565b611b76565b90508083825260208201905060208402830185811115611cbb57611cba611bbd565b5b835b81811015611ce45780611cd08882611918565b845260208401935050602081019050611cbd565b5050509392505050565b600082601f830112611d0357611d02611b00565b5b8135611d13848260208601611c85565b91505092915050565b600080600060608486031215611d3557611d346118ed565b5b6000611d4386828701611a1e565b935050602084013567ffffffffffffffff811115611d6457611d636118f2565b5b611d7086828701611c2b565b925050604084013567ffffffffffffffff811115611d9157611d906118f2565b5b611d9d86828701611cee565b9150509250925092565b6000819050919050565b6000611dcc611dc7611dc28461192d565b611da7565b61192d565b9050919050565b6000611dde82611db1565b9050919050565b6000611df082611dd3565b9050919050565b611e0081611de5565b82525050565b6000602082019050611e1b6000830184611df7565b92915050565b60008060408385031215611e3857611e376118ed565b5b600083013567ffffffffffffffff811115611e5657611e556118f2565b5b611e6285828601611c2b565b925050602083013567ffffffffffffffff811115611e8357611e826118f2565b5b611e8f85828601611cee565b9150509250929050565b6000611ea48261192d565b9050919050565b611eb481611e99565b82525050565b6000602082019050611ecf6000830184611eab565b92915050565b600060208284031215611eeb57611eea6118ed565b5b6000611ef984828501611918565b91505092915050565b600082825260208201905092915050565b7f7573657220697320616c726561647920756e617574686f72697a656400000000600082015250565b6000611f49601c83611f02565b9150611f5482611f13565b602082019050919050565b60006020820190508181036000830152611f7881611f3c565b9050919050565b7f7573657220697320616c726561647920617574686f72697a6564000000000000600082015250565b6000611fb5601a83611f02565b9150611fc082611f7f565b602082019050919050565b60006020820190508181036000830152611fe481611fa8565b9050919050565b7f746f6b656e20686f6c64696e6720696e76616c69640000000000000000000000600082015250565b6000612021601583611f02565b915061202c82611feb565b602082019050919050565b6000602082019050818103600083015261205081612014565b9050919050565b7f6e6f74206120636f6e7472616374000000000000000000000000000000000000600082015250565b600061208d600e83611f02565b915061209882612057565b602082019050919050565b600060208201905081810360008301526120bc81612080565b9050919050565b7f696e76616c696420696e70757400000000000000000000000000000000000000600082015250565b60006120f9600d83611f02565b9150612104826120c3565b602082019050919050565b60006020820190508181036000830152612128816120ec565b9050919050565b7f4e487b7100000000000000000000000000000000000000000000000000000000600052603260045260246000fd5b60006060820190506121736000830186611ad6565b6121806020830185611ad6565b61218d60408301846119cb565b949350505050565b61219e81611aa0565b81146121a957600080fd5b50565b6000815190506121bb81612195565b92915050565b6000602082840312156121d7576121d66118ed565b5b60006121e5848285016121ac565b91505092915050565b7f6572726f7220696e20646973747269627574696f6e0000000000000000000000600082015250565b6000612224601583611f02565b915061222f826121ee565b602082019050919050565b6000602082019050818103600083015261225381612217565b9050919050565b7f4e487b7100000000000000000000000000000000000000000000000000000000600052601160045260246000fd5b6000612294826118f7565b91507fffffffffffffffffffffffffffffffffffffffffffffffffffffffffffffffff82036122c6576122c561225a565b5b600182019050919050565b6000815190506122e081611901565b92915050565b6000602082840312156122fc576122fb6118ed565b5b600061230a848285016122d1565b91505092915050565b7f686f6c64696e67202620617574686f72697a6174696f6e2066616c736520706160008201527f7920657861637420666565000000000000000000000000000000000000000000602082015250565b600061236f602b83611f02565b915061237a82612313565b604082019050919050565b6000602082019050818103600083015261239e81612362565b9050919050565b7f636f6e747261637420646f65736e2774206861766520656e6f75676820746f6b60008201527f656e277300000000000000000000000000000000000000000000000000000000602082015250565b6000612401602483611f02565b915061240c826123a5565b604082019050919050565b60006020820190508181036000830152612430816123f4565b9050919050565b600060408201905061244c6000830185611ad6565b61245960208301846119cb565b9392505050565b600061246b826118f7565b9150612476836118f7565b9250827fffffffffffffffffffffffffffffffffffffffffffffffffffffffffffffffff038211156124ab576124aa61225a565b5b828201905092915050565b7f7061792074686520657861637420616d6f756e7420746f20636f76657220646960008201527f73747269627574696f6e00000000000000000000000000000000000000000000602082015250565b6000612512602a83611f02565b915061251d826124b6565b604082019050919050565b6000602082019050818103600083015261254181612505565b9050919050565b7f686f6c64696e67207175616e74697479207472756520627574206d73672e766160008201527f6c756520756e6365727461696e20706179206578616374000000000000000000602082015250565b60006125a4603783611f02565b91506125af82612548565b604082019050919050565b600060208201905081810360008301526125d381612597565b9050919050565b7f4f776e61626c653a206e6577206f776e657220697320746865207a65726f206160008201527f6464726573730000000000000000000000000000000000000000000000000000602082015250565b6000612636602683611f02565b9150612641826125da565b604082019050919050565b6000602082019050818103600083015261266581612629565b9050919050565b7f696e76616c69642062616c616e636520746f2077697468647261770000000000600082015250565b60006126a2601b83611f02565b91506126ad8261266c565b602082019050919050565b600060208201905081810360008301526126d181612695565b9050919050565b7f4f776e61626c653a2063616c6c6572206973206e6f7420746865206f776e6572600082015250565b600061270e602083611f02565b9150612719826126d8565b602082019050919050565b6000602082019050818103600083015261273d81612701565b905091905056fea26469706673582212206289b5431847df25da9c36311a79a8454ae5a0fed3d528f603a5377b1e879dcb64736f6c634300080d0033",
					"opcodes": "PUSH1 0x80 PUSH1 0x40 MSTORE CALLVALUE DUP1 ISZERO PUSH3 0x11 JUMPI PUSH1 0x0 DUP1 REVERT JUMPDEST POP PUSH3 0x32 PUSH3 0x26 PUSH3 0x95 PUSH1 0x20 SHL PUSH1 0x20 SHR JUMP JUMPDEST PUSH3 0x9D PUSH1 0x20 SHL PUSH1 0x20 SHR JUMP JUMPDEST PUSH3 0x42 PUSH3 0x161 PUSH1 0x20 SHL PUSH1 0x20 SHR JUMP JUMPDEST PUSH1 0x2 PUSH1 0x0 PUSH2 0x100 EXP DUP2 SLOAD DUP2 PUSH20 0xFFFFFFFFFFFFFFFFFFFFFFFFFFFFFFFFFFFFFFFF MUL NOT AND SWAP1 DUP4 PUSH20 0xFFFFFFFFFFFFFFFFFFFFFFFFFFFFFFFFFFFFFFFF AND MUL OR SWAP1 SSTORE POP PUSH6 0x5AF3107A4000 PUSH1 0x1 DUP2 SWAP1 SSTORE POP PUSH3 0x18A JUMP JUMPDEST PUSH1 0x0 CALLER SWAP1 POP SWAP1 JUMP JUMPDEST PUSH1 0x0 DUP1 PUSH1 0x0 SWAP1 SLOAD SWAP1 PUSH2 0x100 EXP SWAP1 DIV PUSH20 0xFFFFFFFFFFFFFFFFFFFFFFFFFFFFFFFFFFFFFFFF AND SWAP1 POP DUP2 PUSH1 0x0 DUP1 PUSH2 0x100 EXP DUP2 SLOAD DUP2 PUSH20 0xFFFFFFFFFFFFFFFFFFFFFFFFFFFFFFFFFFFFFFFF MUL NOT AND SWAP1 DUP4 PUSH20 0xFFFFFFFFFFFFFFFFFFFFFFFFFFFFFFFFFFFFFFFF AND MUL OR SWAP1 SSTORE POP DUP2 PUSH20 0xFFFFFFFFFFFFFFFFFFFFFFFFFFFFFFFFFFFFFFFF AND DUP2 PUSH20 0xFFFFFFFFFFFFFFFFFFFFFFFFFFFFFFFFFFFFFFFF AND PUSH32 0x8BE0079C531659141344CD1FD0A4F28419497F9722A3DAAFE3B4186F6B6457E0 PUSH1 0x40 MLOAD PUSH1 0x40 MLOAD DUP1 SWAP2 SUB SWAP1 LOG3 POP POP JUMP JUMPDEST PUSH1 0x0 DUP1 PUSH1 0x0 SWAP1 SLOAD SWAP1 PUSH2 0x100 EXP SWAP1 DIV PUSH20 0xFFFFFFFFFFFFFFFFFFFFFFFFFFFFFFFFFFFFFFFF AND SWAP1 POP SWAP1 JUMP JUMPDEST PUSH2 0x277A DUP1 PUSH3 0x19A PUSH1 0x0 CODECOPY PUSH1 0x0 RETURN INVALID PUSH1 0x80 PUSH1 0x40 MSTORE PUSH1 0x4 CALLDATASIZE LT PUSH2 0x102 JUMPI PUSH1 0x0 CALLDATALOAD PUSH1 0xE0 SHR DUP1 PUSH4 0x8DA5CB5B GT PUSH2 0x95 JUMPI DUP1 PUSH4 0xD908E6CE GT PUSH2 0x64 JUMPI DUP1 PUSH4 0xD908E6CE EQ PUSH2 0x2F7 JUMPI DUP1 PUSH4 0xDDCA3F43 EQ PUSH2 0x313 JUMPI DUP1 PUSH4 0xF2FDE38B EQ PUSH2 0x33E JUMPI DUP1 PUSH4 0xF7260D3E EQ PUSH2 0x367 JUMPI DUP1 PUSH4 0xF9F95A0F EQ PUSH2 0x392 JUMPI PUSH2 0x109 JUMP JUMPDEST DUP1 PUSH4 0x8DA5CB5B EQ PUSH2 0x25C JUMPI DUP1 PUSH4 0x9CBD3433 EQ PUSH2 0x287 JUMPI DUP1 PUSH4 0x9D76EA58 EQ PUSH2 0x2A3 JUMPI DUP1 PUSH4 0x9E281A98 EQ PUSH2 0x2CE JUMPI PUSH2 0x109 JUMP JUMPDEST DUP1 PUSH4 0x478AA69E GT PUSH2 0xD1 JUMPI DUP1 PUSH4 0x478AA69E EQ PUSH2 0x1C8 JUMPI DUP1 PUSH4 0x67C2A360 EQ PUSH2 0x1F1 JUMPI DUP1 PUSH4 0x715018A6 EQ PUSH2 0x21A JUMPI DUP1 PUSH4 0x8B7AFE2E EQ PUSH2 0x231 JUMPI PUSH2 0x109 JUMP JUMPDEST DUP1 PUSH4 0x126CCD94 EQ PUSH2 0x10E JUMPI DUP1 PUSH4 0x17FC45E2 EQ PUSH2 0x137 JUMPI DUP1 PUSH4 0x2FC75EB0 EQ PUSH2 0x162 JUMPI DUP1 PUSH4 0x44B6209D EQ PUSH2 0x18B JUMPI PUSH2 0x109 JUMP JUMPDEST CALLDATASIZE PUSH2 0x109 JUMPI STOP JUMPDEST PUSH1 0x0 DUP1 REVERT JUMPDEST CALLVALUE DUP1 ISZERO PUSH2 0x11A JUMPI PUSH1 0x0 DUP1 REVERT JUMPDEST POP PUSH2 0x135 PUSH1 0x4 DUP1 CALLDATASIZE SUB DUP2 ADD SWAP1 PUSH2 0x130 SWAP2 SWAP1 PUSH2 0x198B JUMP JUMPDEST PUSH2 0x3BB JUMP JUMPDEST STOP JUMPDEST CALLVALUE DUP1 ISZERO PUSH2 0x143 JUMPI PUSH1 0x0 DUP1 REVERT JUMPDEST POP PUSH2 0x14C PUSH2 0x40F JUMP JUMPDEST PUSH1 0x40 MLOAD PUSH2 0x159 SWAP2 SWAP1 PUSH2 0x19DA JUMP JUMPDEST PUSH1 0x40 MLOAD DUP1 SWAP2 SUB SWAP1 RETURN JUMPDEST CALLVALUE DUP1 ISZERO PUSH2 0x16E JUMPI PUSH1 0x0 DUP1 REVERT JUMPDEST POP PUSH2 0x189 PUSH1 0x4 DUP1 CALLDATASIZE SUB DUP2 ADD SWAP1 PUSH2 0x184 SWAP2 SWAP1 PUSH2 0x1A33 JUMP JUMPDEST PUSH2 0x415 JUMP JUMPDEST STOP JUMPDEST CALLVALUE DUP1 ISZERO PUSH2 0x197 JUMPI PUSH1 0x0 DUP1 REVERT JUMPDEST POP PUSH2 0x1B2 PUSH1 0x4 DUP1 CALLDATASIZE SUB DUP2 ADD SWAP1 PUSH2 0x1AD SWAP2 SWAP1 PUSH2 0x1A73 JUMP JUMPDEST PUSH2 0x469 JUMP JUMPDEST PUSH1 0x40 MLOAD PUSH2 0x1BF SWAP2 SWAP1 PUSH2 0x1ABB JUMP JUMPDEST PUSH1 0x40 MLOAD DUP1 SWAP2 SUB SWAP1 RETURN JUMPDEST CALLVALUE DUP1 ISZERO PUSH2 0x1D4 JUMPI PUSH1 0x0 DUP1 REVERT JUMPDEST POP PUSH2 0x1EF PUSH1 0x4 DUP1 CALLDATASIZE SUB DUP2 ADD SWAP1 PUSH2 0x1EA SWAP2 SWAP1 PUSH2 0x1A73 JUMP JUMPDEST PUSH2 0x489 JUMP JUMPDEST STOP JUMPDEST CALLVALUE DUP1 ISZERO PUSH2 0x1FD JUMPI PUSH1 0x0 DUP1 REVERT JUMPDEST POP PUSH2 0x218 PUSH1 0x4 DUP1 CALLDATASIZE SUB DUP2 ADD SWAP1 PUSH2 0x213 SWAP2 SWAP1 PUSH2 0x1A73 JUMP JUMPDEST PUSH2 0x57F JUMP JUMPDEST STOP JUMPDEST CALLVALUE DUP1 ISZERO PUSH2 0x226 JUMPI PUSH1 0x0 DUP1 REVERT JUMPDEST POP PUSH2 0x22F PUSH2 0x675 JUMP JUMPDEST STOP JUMPDEST CALLVALUE DUP1 ISZERO PUSH2 0x23D JUMPI PUSH1 0x0 DUP1 REVERT JUMPDEST POP PUSH2 0x246 PUSH2 0x689 JUMP JUMPDEST PUSH1 0x40 MLOAD PUSH2 0x253 SWAP2 SWAP1 PUSH2 0x19DA JUMP JUMPDEST PUSH1 0x40 MLOAD DUP1 SWAP2 SUB SWAP1 RETURN JUMPDEST CALLVALUE DUP1 ISZERO PUSH2 0x268 JUMPI PUSH1 0x0 DUP1 REVERT JUMPDEST POP PUSH2 0x271 PUSH2 0x699 JUMP JUMPDEST PUSH1 0x40 MLOAD PUSH2 0x27E SWAP2 SWAP1 PUSH2 0x1AE5 JUMP JUMPDEST PUSH1 0x40 MLOAD DUP1 SWAP2 SUB SWAP1 RETURN JUMPDEST PUSH2 0x2A1 PUSH1 0x4 DUP1 CALLDATASIZE SUB DUP2 ADD SWAP1 PUSH2 0x29C SWAP2 SWAP1 PUSH2 0x1D1C JUMP JUMPDEST PUSH2 0x6C2 JUMP JUMPDEST STOP JUMPDEST CALLVALUE DUP1 ISZERO PUSH2 0x2AF JUMPI PUSH1 0x0 DUP1 REVERT JUMPDEST POP PUSH2 0x2B8 PUSH2 0xE3B JUMP JUMPDEST PUSH1 0x40 MLOAD PUSH2 0x2C5 SWAP2 SWAP1 PUSH2 0x1E06 JUMP JUMPDEST PUSH1 0x40 MLOAD DUP1 SWAP2 SUB SWAP1 RETURN JUMPDEST CALLVALUE DUP1 ISZERO PUSH2 0x2DA JUMPI PUSH1 0x0 DUP1 REVERT JUMPDEST POP PUSH2 0x2F5 PUSH1 0x4 DUP1 CALLDATASIZE SUB DUP2 ADD SWAP1 PUSH2 0x2F0 SWAP2 SWAP1 PUSH2 0x1A33 JUMP JUMPDEST PUSH2 0xE61 JUMP JUMPDEST STOP JUMPDEST PUSH2 0x311 PUSH1 0x4 DUP1 CALLDATASIZE SUB DUP2 ADD SWAP1 PUSH2 0x30C SWAP2 SWAP1 PUSH2 0x1E21 JUMP JUMPDEST PUSH2 0xFA8 JUMP JUMPDEST STOP JUMPDEST CALLVALUE DUP1 ISZERO PUSH2 0x31F JUMPI PUSH1 0x0 DUP1 REVERT JUMPDEST POP PUSH2 0x328 PUSH2 0x1632 JUMP JUMPDEST PUSH1 0x40 MLOAD PUSH2 0x335 SWAP2 SWAP1 PUSH2 0x19DA JUMP JUMPDEST PUSH1 0x40 MLOAD DUP1 SWAP2 SUB SWAP1 RETURN JUMPDEST CALLVALUE DUP1 ISZERO PUSH2 0x34A JUMPI PUSH1 0x0 DUP1 REVERT JUMPDEST POP PUSH2 0x365 PUSH1 0x4 DUP1 CALLDATASIZE SUB DUP2 ADD SWAP1 PUSH2 0x360 SWAP2 SWAP1 PUSH2 0x1A73 JUMP JUMPDEST PUSH2 0x1638 JUMP JUMPDEST STOP JUMPDEST CALLVALUE DUP1 ISZERO PUSH2 0x373 JUMPI PUSH1 0x0 DUP1 REVERT JUMPDEST POP PUSH2 0x37C PUSH2 0x16BB JUMP JUMPDEST PUSH1 0x40 MLOAD PUSH2 0x389 SWAP2 SWAP1 PUSH2 0x1EBA JUMP JUMPDEST PUSH1 0x40 MLOAD DUP1 SWAP2 SUB SWAP1 RETURN JUMPDEST CALLVALUE DUP1 ISZERO PUSH2 0x39E JUMPI PUSH1 0x0 DUP1 REVERT JUMPDEST POP PUSH2 0x3B9 PUSH1 0x4 DUP1 CALLDATASIZE SUB DUP2 ADD SWAP1 PUSH2 0x3B4 SWAP2 SWAP1 PUSH2 0x1ED5 JUMP JUMPDEST PUSH2 0x16E1 JUMP JUMPDEST STOP JUMPDEST PUSH2 0x3C3 PUSH2 0x1776 JUMP JUMPDEST DUP2 PUSH1 0x1 DUP2 SWAP1 SSTORE POP DUP1 PUSH1 0x2 PUSH1 0x0 PUSH2 0x100 EXP DUP2 SLOAD DUP2 PUSH20 0xFFFFFFFFFFFFFFFFFFFFFFFFFFFFFFFFFFFFFFFF MUL NOT AND SWAP1 DUP4 PUSH20 0xFFFFFFFFFFFFFFFFFFFFFFFFFFFFFFFFFFFFFFFF AND MUL OR SWAP1 SSTORE POP POP POP JUMP JUMPDEST PUSH1 0x5 SLOAD DUP2 JUMP JUMPDEST PUSH2 0x41D PUSH2 0x1776 JUMP JUMPDEST DUP2 PUSH1 0x4 PUSH1 0x0 PUSH2 0x100 EXP DUP2 SLOAD DUP2 PUSH20 0xFFFFFFFFFFFFFFFFFFFFFFFFFFFFFFFFFFFFFFFF MUL NOT AND SWAP1 DUP4 PUSH20 0xFFFFFFFFFFFFFFFFFFFFFFFFFFFFFFFFFFFFFFFF AND MUL OR SWAP1 SSTORE POP DUP1 PUSH1 0x5 DUP2 SWAP1 SSTORE POP POP POP JUMP JUMPDEST PUSH1 0x3 PUSH1 0x20 MSTORE DUP1 PUSH1 0x0 MSTORE PUSH1 0x40 PUSH1 0x0 KECCAK256 PUSH1 0x0 SWAP2 POP SLOAD SWAP1 PUSH2 0x100 EXP SWAP1 DIV PUSH1 0xFF AND DUP2 JUMP JUMPDEST PUSH2 0x491 PUSH2 0x1776 JUMP JUMPDEST PUSH1 0x1 ISZERO ISZERO PUSH1 0x3 PUSH1 0x0 DUP4 PUSH20 0xFFFFFFFFFFFFFFFFFFFFFFFFFFFFFFFFFFFFFFFF AND PUSH20 0xFFFFFFFFFFFFFFFFFFFFFFFFFFFFFFFFFFFFFFFF AND DUP2 MSTORE PUSH1 0x20 ADD SWAP1 DUP2 MSTORE PUSH1 0x20 ADD PUSH1 0x0 KECCAK256 PUSH1 0x0 SWAP1 SLOAD SWAP1 PUSH2 0x100 EXP SWAP1 DIV PUSH1 0xFF AND ISZERO ISZERO EQ PUSH2 0x524 JUMPI PUSH1 0x40 MLOAD PUSH32 0x8C379A000000000000000000000000000000000000000000000000000000000 DUP2 MSTORE PUSH1 0x4 ADD PUSH2 0x51B SWAP1 PUSH2 0x1F5F JUMP JUMPDEST PUSH1 0x40 MLOAD DUP1 SWAP2 SUB SWAP1 REVERT JUMPDEST PUSH1 0x0 PUSH1 0x3 PUSH1 0x0 DUP4 PUSH20 0xFFFFFFFFFFFFFFFFFFFFFFFFFFFFFFFFFFFFFFFF AND PUSH20 0xFFFFFFFFFFFFFFFFFFFFFFFFFFFFFFFFFFFFFFFF AND DUP2 MSTORE PUSH1 0x20 ADD SWAP1 DUP2 MSTORE PUSH1 0x20 ADD PUSH1 0x0 KECCAK256 PUSH1 0x0 PUSH2 0x100 EXP DUP2 SLOAD DUP2 PUSH1 0xFF MUL NOT AND SWAP1 DUP4 ISZERO ISZERO MUL OR SWAP1 SSTORE POP POP JUMP JUMPDEST PUSH2 0x587 PUSH2 0x1776 JUMP JUMPDEST PUSH1 0x0 ISZERO ISZERO PUSH1 0x3 PUSH1 0x0 DUP4 PUSH20 0xFFFFFFFFFFFFFFFFFFFFFFFFFFFFFFFFFFFFFFFF AND PUSH20 0xFFFFFFFFFFFFFFFFFFFFFFFFFFFFFFFFFFFFFFFF AND DUP2 MSTORE PUSH1 0x20 ADD SWAP1 DUP2 MSTORE PUSH1 0x20 ADD PUSH1 0x0 KECCAK256 PUSH1 0x0 SWAP1 SLOAD SWAP1 PUSH2 0x100 EXP SWAP1 DIV PUSH1 0xFF AND ISZERO ISZERO EQ PUSH2 0x61A JUMPI PUSH1 0x40 MLOAD PUSH32 0x8C379A000000000000000000000000000000000000000000000000000000000 DUP2 MSTORE PUSH1 0x4 ADD PUSH2 0x611 SWAP1 PUSH2 0x1FCB JUMP JUMPDEST PUSH1 0x40 MLOAD DUP1 SWAP2 SUB SWAP1 REVERT JUMPDEST PUSH1 0x1 PUSH1 0x3 PUSH1 0x0 DUP4 PUSH20 0xFFFFFFFFFFFFFFFFFFFFFFFFFFFFFFFFFFFFFFFF AND PUSH20 0xFFFFFFFFFFFFFFFFFFFFFFFFFFFFFFFFFFFFFFFF AND DUP2 MSTORE PUSH1 0x20 ADD SWAP1 DUP2 MSTORE PUSH1 0x20 ADD PUSH1 0x0 KECCAK256 PUSH1 0x0 PUSH2 0x100 EXP DUP2 SLOAD DUP2 PUSH1 0xFF MUL NOT AND SWAP1 DUP4 ISZERO ISZERO MUL OR SWAP1 SSTORE POP POP JUMP JUMPDEST PUSH2 0x67D PUSH2 0x1776 JUMP JUMPDEST PUSH2 0x687 PUSH1 0x0 PUSH2 0x17F4 JUMP JUMPDEST JUMP JUMPDEST PUSH1 0x0 PUSH2 0x693 PUSH2 0x1776 JUMP JUMPDEST SELFBALANCE SWAP1 POP SWAP1 JUMP JUMPDEST PUSH1 0x0 DUP1 PUSH1 0x0 SWAP1 SLOAD SWAP1 PUSH2 0x100 EXP SWAP1 DIV PUSH20 0xFFFFFFFFFFFFFFFFFFFFFFFFFFFFFFFFFFFFFFFF AND SWAP1 POP SWAP1 JUMP JUMPDEST PUSH1 0x0 PUSH20 0xFFFFFFFFFFFFFFFFFFFFFFFFFFFFFFFFFFFFFFFF AND PUSH1 0x4 PUSH1 0x0 SWAP1 SLOAD SWAP1 PUSH2 0x100 EXP SWAP1 DIV PUSH20 0xFFFFFFFFFFFFFFFFFFFFFFFFFFFFFFFFFFFFFFFF AND PUSH20 0xFFFFFFFFFFFFFFFFFFFFFFFFFFFFFFFFFFFFFFFF AND SUB PUSH2 0x753 JUMPI PUSH1 0x40 MLOAD PUSH32 0x8C379A000000000000000000000000000000000000000000000000000000000 DUP2 MSTORE PUSH1 0x4 ADD PUSH2 0x74A SWAP1 PUSH2 0x2037 JUMP JUMPDEST PUSH1 0x40 MLOAD DUP1 SWAP2 SUB SWAP1 REVERT JUMPDEST PUSH1 0x1 ISZERO ISZERO PUSH2 0x776 DUP5 PUSH20 0xFFFFFFFFFFFFFFFFFFFFFFFFFFFFFFFFFFFFFFFF AND PUSH2 0x18B8 JUMP JUMPDEST ISZERO ISZERO EQ PUSH2 0x7B8 JUMPI PUSH1 0x40 MLOAD PUSH32 0x8C379A000000000000000000000000000000000000000000000000000000000 DUP2 MSTORE PUSH1 0x4 ADD PUSH2 0x7AF SWAP1 PUSH2 0x20A3 JUMP JUMPDEST PUSH1 0x40 MLOAD DUP1 SWAP2 SUB SWAP1 REVERT JUMPDEST DUP1 MLOAD DUP3 MLOAD EQ PUSH2 0x7FC JUMPI PUSH1 0x40 MLOAD PUSH32 0x8C379A000000000000000000000000000000000000000000000000000000000 DUP2 MSTORE PUSH1 0x4 ADD PUSH2 0x7F3 SWAP1 PUSH2 0x210F JUMP JUMPDEST PUSH1 0x40 MLOAD DUP1 SWAP2 SUB SWAP1 REVERT JUMPDEST PUSH1 0x3 PUSH1 0x0 CALLER PUSH20 0xFFFFFFFFFFFFFFFFFFFFFFFFFFFFFFFFFFFFFFFF AND PUSH20 0xFFFFFFFFFFFFFFFFFFFFFFFFFFFFFFFFFFFFFFFF AND DUP2 MSTORE PUSH1 0x20 ADD SWAP1 DUP2 MSTORE PUSH1 0x20 ADD PUSH1 0x0 KECCAK256 PUSH1 0x0 SWAP1 SLOAD SWAP1 PUSH2 0x100 EXP SWAP1 DIV PUSH1 0xFF AND ISZERO PUSH2 0x966 JUMPI PUSH1 0x0 JUMPDEST DUP2 MLOAD DUP2 LT ISZERO PUSH2 0x960 JUMPI DUP4 PUSH20 0xFFFFFFFFFFFFFFFFFFFFFFFFFFFFFFFFFFFFFFFF AND PUSH4 0x23B872DD CALLER DUP6 DUP5 DUP2 MLOAD DUP2 LT PUSH2 0x88A JUMPI PUSH2 0x889 PUSH2 0x212F JUMP JUMPDEST JUMPDEST PUSH1 0x20 MUL PUSH1 0x20 ADD ADD MLOAD DUP6 DUP6 DUP2 MLOAD DUP2 LT PUSH2 0x8A5 JUMPI PUSH2 0x8A4 PUSH2 0x212F JUMP JUMPDEST JUMPDEST PUSH1 0x20 MUL PUSH1 0x20 ADD ADD MLOAD PUSH1 0x40 MLOAD DUP5 PUSH4 0xFFFFFFFF AND PUSH1 0xE0 SHL DUP2 MSTORE PUSH1 0x4 ADD PUSH2 0x8CB SWAP4 SWAP3 SWAP2 SWAP1 PUSH2 0x215E JUMP JUMPDEST PUSH1 0x20 PUSH1 0x40 MLOAD DUP1 DUP4 SUB DUP2 PUSH1 0x0 DUP8 GAS CALL ISZERO DUP1 ISZERO PUSH2 0x8EA JUMPI RETURNDATASIZE PUSH1 0x0 DUP1 RETURNDATACOPY RETURNDATASIZE PUSH1 0x0 REVERT JUMPDEST POP POP POP POP PUSH1 0x40 MLOAD RETURNDATASIZE PUSH1 0x1F NOT PUSH1 0x1F DUP3 ADD AND DUP3 ADD DUP1 PUSH1 0x40 MSTORE POP DUP2 ADD SWAP1 PUSH2 0x90E SWAP2 SWAP1 PUSH2 0x21C1 JUMP JUMPDEST PUSH2 0x94D JUMPI PUSH1 0x40 MLOAD PUSH32 0x8C379A000000000000000000000000000000000000000000000000000000000 DUP2 MSTORE PUSH1 0x4 ADD PUSH2 0x944 SWAP1 PUSH2 0x223A JUMP JUMPDEST PUSH1 0x40 MLOAD DUP1 SWAP2 SUB SWAP1 REVERT JUMPDEST DUP1 DUP1 PUSH2 0x958 SWAP1 PUSH2 0x2289 JUMP JUMPDEST SWAP2 POP POP PUSH2 0x851 JUMP JUMPDEST POP PUSH2 0xE36 JUMP JUMPDEST PUSH1 0x3 PUSH1 0x0 CALLER PUSH20 0xFFFFFFFFFFFFFFFFFFFFFFFFFFFFFFFFFFFFFFFF AND PUSH20 0xFFFFFFFFFFFFFFFFFFFFFFFFFFFFFFFFFFFFFFFF AND DUP2 MSTORE PUSH1 0x20 ADD SWAP1 DUP2 MSTORE PUSH1 0x20 ADD PUSH1 0x0 KECCAK256 PUSH1 0x0 SWAP1 SLOAD SWAP1 PUSH2 0x100 EXP SWAP1 DIV PUSH1 0xFF AND PUSH2 0xE35 JUMPI PUSH1 0x5 SLOAD PUSH1 0x4 PUSH1 0x0 SWAP1 SLOAD SWAP1 PUSH2 0x100 EXP SWAP1 DIV PUSH20 0xFFFFFFFFFFFFFFFFFFFFFFFFFFFFFFFFFFFFFFFF AND PUSH20 0xFFFFFFFFFFFFFFFFFFFFFFFFFFFFFFFFFFFFFFFF AND PUSH4 0x70A08231 CALLER PUSH1 0x40 MLOAD DUP3 PUSH4 0xFFFFFFFF AND PUSH1 0xE0 SHL DUP2 MSTORE PUSH1 0x4 ADD PUSH2 0xA15 SWAP2 SWAP1 PUSH2 0x1AE5 JUMP JUMPDEST PUSH1 0x20 PUSH1 0x40 MLOAD DUP1 DUP4 SUB DUP2 DUP7 GAS STATICCALL ISZERO DUP1 ISZERO PUSH2 0xA32 JUMPI RETURNDATASIZE PUSH1 0x0 DUP1 RETURNDATACOPY RETURNDATASIZE PUSH1 0x0 REVERT JUMPDEST POP POP POP POP PUSH1 0x40 MLOAD RETURNDATASIZE PUSH1 0x1F NOT PUSH1 0x1F DUP3 ADD AND DUP3 ADD DUP1 PUSH1 0x40 MSTORE POP DUP2 ADD SWAP1 PUSH2 0xA56 SWAP2 SWAP1 PUSH2 0x22E6 JUMP JUMPDEST LT PUSH2 0xBCB JUMPI PUSH1 0x1 PUSH1 0x3 PUSH1 0x0 CALLER PUSH20 0xFFFFFFFFFFFFFFFFFFFFFFFFFFFFFFFFFFFFFFFF AND PUSH20 0xFFFFFFFFFFFFFFFFFFFFFFFFFFFFFFFFFFFFFFFF AND DUP2 MSTORE PUSH1 0x20 ADD SWAP1 DUP2 MSTORE PUSH1 0x20 ADD PUSH1 0x0 KECCAK256 PUSH1 0x0 PUSH2 0x100 EXP DUP2 SLOAD DUP2 PUSH1 0xFF MUL NOT AND SWAP1 DUP4 ISZERO ISZERO MUL OR SWAP1 SSTORE POP PUSH1 0x0 JUMPDEST DUP2 MLOAD DUP2 LT ISZERO PUSH2 0xBC5 JUMPI DUP4 PUSH20 0xFFFFFFFFFFFFFFFFFFFFFFFFFFFFFFFFFFFFFFFF AND PUSH4 0x23B872DD CALLER DUP6 DUP5 DUP2 MLOAD DUP2 LT PUSH2 0xAEF JUMPI PUSH2 0xAEE PUSH2 0x212F JUMP JUMPDEST JUMPDEST PUSH1 0x20 MUL PUSH1 0x20 ADD ADD MLOAD DUP6 DUP6 DUP2 MLOAD DUP2 LT PUSH2 0xB0A JUMPI PUSH2 0xB09 PUSH2 0x212F JUMP JUMPDEST JUMPDEST PUSH1 0x20 MUL PUSH1 0x20 ADD ADD MLOAD PUSH1 0x40 MLOAD DUP5 PUSH4 0xFFFFFFFF AND PUSH1 0xE0 SHL DUP2 MSTORE PUSH1 0x4 ADD PUSH2 0xB30 SWAP4 SWAP3 SWAP2 SWAP1 PUSH2 0x215E JUMP JUMPDEST PUSH1 0x20 PUSH1 0x40 MLOAD DUP1 DUP4 SUB DUP2 PUSH1 0x0 DUP8 GAS CALL ISZERO DUP1 ISZERO PUSH2 0xB4F JUMPI RETURNDATASIZE PUSH1 0x0 DUP1 RETURNDATACOPY RETURNDATASIZE PUSH1 0x0 REVERT JUMPDEST POP POP POP POP PUSH1 0x40 MLOAD RETURNDATASIZE PUSH1 0x1F NOT PUSH1 0x1F DUP3 ADD AND DUP3 ADD DUP1 PUSH1 0x40 MSTORE POP DUP2 ADD SWAP1 PUSH2 0xB73 SWAP2 SWAP1 PUSH2 0x21C1 JUMP JUMPDEST PUSH2 0xBB2 JUMPI PUSH1 0x40 MLOAD PUSH32 0x8C379A000000000000000000000000000000000000000000000000000000000 DUP2 MSTORE PUSH1 0x4 ADD PUSH2 0xBA9 SWAP1 PUSH2 0x223A JUMP JUMPDEST PUSH1 0x40 MLOAD DUP1 SWAP2 SUB SWAP1 REVERT JUMPDEST DUP1 DUP1 PUSH2 0xBBD SWAP1 PUSH2 0x2289 JUMP JUMPDEST SWAP2 POP POP PUSH2 0xAB6 JUMP JUMPDEST POP PUSH2 0xE34 JUMP JUMPDEST PUSH1 0x5 SLOAD PUSH1 0x4 PUSH1 0x0 SWAP1 SLOAD SWAP1 PUSH2 0x100 EXP SWAP1 DIV PUSH20 0xFFFFFFFFFFFFFFFFFFFFFFFFFFFFFFFFFFFFFFFF AND PUSH20 0xFFFFFFFFFFFFFFFFFFFFFFFFFFFFFFFFFFFFFFFF AND PUSH4 0x70A08231 CALLER PUSH1 0x40 MLOAD DUP3 PUSH4 0xFFFFFFFF AND PUSH1 0xE0 SHL DUP2 MSTORE PUSH1 0x4 ADD PUSH2 0xC29 SWAP2 SWAP1 PUSH2 0x1AE5 JUMP JUMPDEST PUSH1 0x20 PUSH1 0x40 MLOAD DUP1 DUP4 SUB DUP2 DUP7 GAS STATICCALL ISZERO DUP1 ISZERO PUSH2 0xC46 JUMPI RETURNDATASIZE PUSH1 0x0 DUP1 RETURNDATACOPY RETURNDATASIZE PUSH1 0x0 REVERT JUMPDEST POP POP POP POP PUSH1 0x40 MLOAD RETURNDATASIZE PUSH1 0x1F NOT PUSH1 0x1F DUP3 ADD AND DUP3 ADD DUP1 PUSH1 0x40 MSTORE POP DUP2 ADD SWAP1 PUSH2 0xC6A SWAP2 SWAP1 PUSH2 0x22E6 JUMP JUMPDEST LT ISZERO PUSH2 0xE33 JUMPI PUSH1 0x1 SLOAD CALLVALUE EQ PUSH2 0xCB4 JUMPI PUSH1 0x40 MLOAD PUSH32 0x8C379A000000000000000000000000000000000000000000000000000000000 DUP2 MSTORE PUSH1 0x4 ADD PUSH2 0xCAB SWAP1 PUSH2 0x2385 JUMP JUMPDEST PUSH1 0x40 MLOAD DUP1 SWAP2 SUB SWAP1 REVERT JUMPDEST PUSH1 0x2 PUSH1 0x0 SWAP1 SLOAD SWAP1 PUSH2 0x100 EXP SWAP1 DIV PUSH20 0xFFFFFFFFFFFFFFFFFFFFFFFFFFFFFFFFFFFFFFFF AND PUSH20 0xFFFFFFFFFFFFFFFFFFFFFFFFFFFFFFFFFFFFFFFF AND PUSH2 0x8FC PUSH1 0x1 SLOAD SWAP1 DUP2 ISZERO MUL SWAP1 PUSH1 0x40 MLOAD PUSH1 0x0 PUSH1 0x40 MLOAD DUP1 DUP4 SUB DUP2 DUP6 DUP9 DUP9 CALL SWAP4 POP POP POP POP ISZERO DUP1 ISZERO PUSH2 0xD1E JUMPI RETURNDATASIZE PUSH1 0x0 DUP1 RETURNDATACOPY RETURNDATASIZE PUSH1 0x0 REVERT JUMPDEST POP PUSH1 0x0 JUMPDEST DUP2 MLOAD DUP2 LT ISZERO PUSH2 0xE31 JUMPI DUP4 PUSH20 0xFFFFFFFFFFFFFFFFFFFFFFFFFFFFFFFFFFFFFFFF AND PUSH4 0x23B872DD CALLER DUP6 DUP5 DUP2 MLOAD DUP2 LT PUSH2 0xD5B JUMPI PUSH2 0xD5A PUSH2 0x212F JUMP JUMPDEST JUMPDEST PUSH1 0x20 MUL PUSH1 0x20 ADD ADD MLOAD DUP6 DUP6 DUP2 MLOAD DUP2 LT PUSH2 0xD76 JUMPI PUSH2 0xD75 PUSH2 0x212F JUMP JUMPDEST JUMPDEST PUSH1 0x20 MUL PUSH1 0x20 ADD ADD MLOAD PUSH1 0x40 MLOAD DUP5 PUSH4 0xFFFFFFFF AND PUSH1 0xE0 SHL DUP2 MSTORE PUSH1 0x4 ADD PUSH2 0xD9C SWAP4 SWAP3 SWAP2 SWAP1 PUSH2 0x215E JUMP JUMPDEST PUSH1 0x20 PUSH1 0x40 MLOAD DUP1 DUP4 SUB DUP2 PUSH1 0x0 DUP8 GAS CALL ISZERO DUP1 ISZERO PUSH2 0xDBB JUMPI RETURNDATASIZE PUSH1 0x0 DUP1 RETURNDATACOPY RETURNDATASIZE PUSH1 0x0 REVERT JUMPDEST POP POP POP POP PUSH1 0x40 MLOAD RETURNDATASIZE PUSH1 0x1F NOT PUSH1 0x1F DUP3 ADD AND DUP3 ADD DUP1 PUSH1 0x40 MSTORE POP DUP2 ADD SWAP1 PUSH2 0xDDF SWAP2 SWAP1 PUSH2 0x21C1 JUMP JUMPDEST PUSH2 0xE1E JUMPI PUSH1 0x40 MLOAD PUSH32 0x8C379A000000000000000000000000000000000000000000000000000000000 DUP2 MSTORE PUSH1 0x4 ADD PUSH2 0xE15 SWAP1 PUSH2 0x223A JUMP JUMPDEST PUSH1 0x40 MLOAD DUP1 SWAP2 SUB SWAP1 REVERT JUMPDEST DUP1 DUP1 PUSH2 0xE29 SWAP1 PUSH2 0x2289 JUMP JUMPDEST SWAP2 POP POP PUSH2 0xD22 JUMP JUMPDEST POP JUMPDEST JUMPDEST JUMPDEST JUMPDEST POP POP POP JUMP JUMPDEST PUSH1 0x4 PUSH1 0x0 SWAP1 SLOAD SWAP1 PUSH2 0x100 EXP SWAP1 DIV PUSH20 0xFFFFFFFFFFFFFFFFFFFFFFFFFFFFFFFFFFFFFFFF AND DUP2 JUMP JUMPDEST PUSH2 0xE69 PUSH2 0x1776 JUMP JUMPDEST DUP1 DUP3 PUSH20 0xFFFFFFFFFFFFFFFFFFFFFFFFFFFFFFFFFFFFFFFF AND PUSH4 0x70A08231 ADDRESS PUSH1 0x40 MLOAD DUP3 PUSH4 0xFFFFFFFF AND PUSH1 0xE0 SHL DUP2 MSTORE PUSH1 0x4 ADD PUSH2 0xEA3 SWAP2 SWAP1 PUSH2 0x1AE5 JUMP JUMPDEST PUSH1 0x20 PUSH1 0x40 MLOAD DUP1 DUP4 SUB DUP2 DUP7 GAS STATICCALL ISZERO DUP1 ISZERO PUSH2 0xEC0 JUMPI RETURNDATASIZE PUSH1 0x0 DUP1 RETURNDATACOPY RETURNDATASIZE PUSH1 0x0 REVERT JUMPDEST POP POP POP POP PUSH1 0x40 MLOAD RETURNDATASIZE PUSH1 0x1F NOT PUSH1 0x1F DUP3 ADD AND DUP3 ADD DUP1 PUSH1 0x40 MSTORE POP DUP2 ADD SWAP1 PUSH2 0xEE4 SWAP2 SWAP1 PUSH2 0x22E6 JUMP JUMPDEST LT ISZERO PUSH2 0xF25 JUMPI PUSH1 0x40 MLOAD PUSH32 0x8C379A000000000000000000000000000000000000000000000000000000000 DUP2 MSTORE PUSH1 0x4 ADD PUSH2 0xF1C SWAP1 PUSH2 0x2417 JUMP JUMPDEST PUSH1 0x40 MLOAD DUP1 SWAP2 SUB SWAP1 REVERT JUMPDEST DUP2 PUSH20 0xFFFFFFFFFFFFFFFFFFFFFFFFFFFFFFFFFFFFFFFF AND PUSH4 0xA9059CBB CALLER DUP4 PUSH1 0x40 MLOAD DUP4 PUSH4 0xFFFFFFFF AND PUSH1 0xE0 SHL DUP2 MSTORE PUSH1 0x4 ADD PUSH2 0xF60 SWAP3 SWAP2 SWAP1 PUSH2 0x2437 JUMP JUMPDEST PUSH1 0x20 PUSH1 0x40 MLOAD DUP1 DUP4 SUB DUP2 PUSH1 0x0 DUP8 GAS CALL ISZERO DUP1 ISZERO PUSH2 0xF7F JUMPI RETURNDATASIZE PUSH1 0x0 DUP1 RETURNDATACOPY RETURNDATASIZE PUSH1 0x0 REVERT JUMPDEST POP POP POP POP PUSH1 0x40 MLOAD RETURNDATASIZE PUSH1 0x1F NOT PUSH1 0x1F DUP3 ADD AND DUP3 ADD DUP1 PUSH1 0x40 MSTORE POP DUP2 ADD SWAP1 PUSH2 0xFA3 SWAP2 SWAP1 PUSH2 0x21C1 JUMP JUMPDEST POP POP POP JUMP JUMPDEST PUSH1 0x0 PUSH20 0xFFFFFFFFFFFFFFFFFFFFFFFFFFFFFFFFFFFFFFFF AND PUSH1 0x4 PUSH1 0x0 SWAP1 SLOAD SWAP1 PUSH2 0x100 EXP SWAP1 DIV PUSH20 0xFFFFFFFFFFFFFFFFFFFFFFFFFFFFFFFFFFFFFFFF AND PUSH20 0xFFFFFFFFFFFFFFFFFFFFFFFFFFFFFFFFFFFFFFFF AND SUB PUSH2 0x1039 JUMPI PUSH1 0x40 MLOAD PUSH32 0x8C379A000000000000000000000000000000000000000000000000000000000 DUP2 MSTORE PUSH1 0x4 ADD PUSH2 0x1030 SWAP1 PUSH2 0x2037 JUMP JUMPDEST PUSH1 0x40 MLOAD DUP1 SWAP2 SUB SWAP1 REVERT JUMPDEST DUP1 MLOAD DUP3 MLOAD EQ PUSH2 0x107D JUMPI PUSH1 0x40 MLOAD PUSH32 0x8C379A000000000000000000000000000000000000000000000000000000000 DUP2 MSTORE PUSH1 0x4 ADD PUSH2 0x1074 SWAP1 PUSH2 0x210F JUMP JUMPDEST PUSH1 0x40 MLOAD DUP1 SWAP2 SUB SWAP1 REVERT JUMPDEST PUSH1 0x0 DUP1 JUMPDEST DUP3 MLOAD DUP2 LT ISZERO PUSH2 0x10C5 JUMPI DUP3 DUP2 DUP2 MLOAD DUP2 LT PUSH2 0x109D JUMPI PUSH2 0x109C PUSH2 0x212F JUMP JUMPDEST JUMPDEST PUSH1 0x20 MUL PUSH1 0x20 ADD ADD MLOAD DUP3 PUSH2 0x10B0 SWAP2 SWAP1 PUSH2 0x2460 JUMP JUMPDEST SWAP2 POP DUP1 DUP1 PUSH2 0x10BD SWAP1 PUSH2 0x2289 JUMP JUMPDEST SWAP2 POP POP PUSH2 0x1081 JUMP JUMPDEST POP PUSH1 0x3 PUSH1 0x0 CALLER PUSH20 0xFFFFFFFFFFFFFFFFFFFFFFFFFFFFFFFFFFFFFFFF AND PUSH20 0xFFFFFFFFFFFFFFFFFFFFFFFFFFFFFFFFFFFFFFFF AND DUP2 MSTORE PUSH1 0x20 ADD SWAP1 DUP2 MSTORE PUSH1 0x20 ADD PUSH1 0x0 KECCAK256 PUSH1 0x0 SWAP1 SLOAD SWAP1 PUSH2 0x100 EXP SWAP1 DIV PUSH1 0xFF AND ISZERO PUSH2 0x11FA JUMPI DUP1 CALLVALUE EQ PUSH2 0x115A JUMPI PUSH1 0x40 MLOAD PUSH32 0x8C379A000000000000000000000000000000000000000000000000000000000 DUP2 MSTORE PUSH1 0x4 ADD PUSH2 0x1151 SWAP1 PUSH2 0x2528 JUMP JUMPDEST PUSH1 0x40 MLOAD DUP1 SWAP2 SUB SWAP1 REVERT JUMPDEST PUSH1 0x0 JUMPDEST DUP4 MLOAD DUP2 LT ISZERO PUSH2 0x11F4 JUMPI DUP4 DUP2 DUP2 MLOAD DUP2 LT PUSH2 0x1179 JUMPI PUSH2 0x1178 PUSH2 0x212F JUMP JUMPDEST JUMPDEST PUSH1 0x20 MUL PUSH1 0x20 ADD ADD MLOAD PUSH20 0xFFFFFFFFFFFFFFFFFFFFFFFFFFFFFFFFFFFFFFFF AND PUSH2 0x8FC DUP5 DUP4 DUP2 MLOAD DUP2 LT PUSH2 0x11AD JUMPI PUSH2 0x11AC PUSH2 0x212F JUMP JUMPDEST JUMPDEST PUSH1 0x20 MUL PUSH1 0x20 ADD ADD MLOAD SWAP1 DUP2 ISZERO MUL SWAP1 PUSH1 0x40 MLOAD PUSH1 0x0 PUSH1 0x40 MLOAD DUP1 DUP4 SUB DUP2 DUP6 DUP9 DUP9 CALL SWAP4 POP POP POP POP ISZERO DUP1 ISZERO PUSH2 0x11E0 JUMPI RETURNDATASIZE PUSH1 0x0 DUP1 RETURNDATACOPY RETURNDATASIZE PUSH1 0x0 REVERT JUMPDEST POP DUP1 DUP1 PUSH2 0x11EC SWAP1 PUSH2 0x2289 JUMP JUMPDEST SWAP2 POP POP PUSH2 0x115D JUMP JUMPDEST POP PUSH2 0x162D JUMP JUMPDEST PUSH1 0x3 PUSH1 0x0 CALLER PUSH20 0xFFFFFFFFFFFFFFFFFFFFFFFFFFFFFFFFFFFFFFFF AND PUSH20 0xFFFFFFFFFFFFFFFFFFFFFFFFFFFFFFFFFFFFFFFF AND DUP2 MSTORE PUSH1 0x20 ADD SWAP1 DUP2 MSTORE PUSH1 0x20 ADD PUSH1 0x0 KECCAK256 PUSH1 0x0 SWAP1 SLOAD SWAP1 PUSH2 0x100 EXP SWAP1 DIV PUSH1 0xFF AND PUSH2 0x162C JUMPI PUSH1 0x5 SLOAD PUSH1 0x4 PUSH1 0x0 SWAP1 SLOAD SWAP1 PUSH2 0x100 EXP SWAP1 DIV PUSH20 0xFFFFFFFFFFFFFFFFFFFFFFFFFFFFFFFFFFFFFFFF AND PUSH20 0xFFFFFFFFFFFFFFFFFFFFFFFFFFFFFFFFFFFFFFFF AND PUSH4 0x70A08231 CALLER PUSH1 0x40 MLOAD DUP3 PUSH4 0xFFFFFFFF AND PUSH1 0xE0 SHL DUP2 MSTORE PUSH1 0x4 ADD PUSH2 0x12A9 SWAP2 SWAP1 PUSH2 0x1AE5 JUMP JUMPDEST PUSH1 0x20 PUSH1 0x40 MLOAD DUP1 DUP4 SUB DUP2 DUP7 GAS STATICCALL ISZERO DUP1 ISZERO PUSH2 0x12C6 JUMPI RETURNDATASIZE PUSH1 0x0 DUP1 RETURNDATACOPY RETURNDATASIZE PUSH1 0x0 REVERT JUMPDEST POP POP POP POP PUSH1 0x40 MLOAD RETURNDATASIZE PUSH1 0x1F NOT PUSH1 0x1F DUP3 ADD AND DUP3 ADD DUP1 PUSH1 0x40 MSTORE POP DUP2 ADD SWAP1 PUSH2 0x12EA SWAP2 SWAP1 PUSH2 0x22E6 JUMP JUMPDEST LT PUSH2 0x1429 JUMPI PUSH1 0x1 PUSH1 0x3 PUSH1 0x0 CALLER PUSH20 0xFFFFFFFFFFFFFFFFFFFFFFFFFFFFFFFFFFFFFFFF AND PUSH20 0xFFFFFFFFFFFFFFFFFFFFFFFFFFFFFFFFFFFFFFFF AND DUP2 MSTORE PUSH1 0x20 ADD SWAP1 DUP2 MSTORE PUSH1 0x20 ADD PUSH1 0x0 KECCAK256 PUSH1 0x0 PUSH2 0x100 EXP DUP2 SLOAD DUP2 PUSH1 0xFF MUL NOT AND SWAP1 DUP4 ISZERO ISZERO MUL OR SWAP1 SSTORE POP DUP1 CALLVALUE EQ PUSH2 0x1389 JUMPI PUSH1 0x40 MLOAD PUSH32 0x8C379A000000000000000000000000000000000000000000000000000000000 DUP2 MSTORE PUSH1 0x4 ADD PUSH2 0x1380 SWAP1 PUSH2 0x25BA JUMP JUMPDEST PUSH1 0x40 MLOAD DUP1 SWAP2 SUB SWAP1 REVERT JUMPDEST PUSH1 0x0 JUMPDEST DUP4 MLOAD DUP2 LT ISZERO PUSH2 0x1423 JUMPI DUP4 DUP2 DUP2 MLOAD DUP2 LT PUSH2 0x13A8 JUMPI PUSH2 0x13A7 PUSH2 0x212F JUMP JUMPDEST JUMPDEST PUSH1 0x20 MUL PUSH1 0x20 ADD ADD MLOAD PUSH20 0xFFFFFFFFFFFFFFFFFFFFFFFFFFFFFFFFFFFFFFFF AND PUSH2 0x8FC DUP5 DUP4 DUP2 MLOAD DUP2 LT PUSH2 0x13DC JUMPI PUSH2 0x13DB PUSH2 0x212F JUMP JUMPDEST JUMPDEST PUSH1 0x20 MUL PUSH1 0x20 ADD ADD MLOAD SWAP1 DUP2 ISZERO MUL SWAP1 PUSH1 0x40 MLOAD PUSH1 0x0 PUSH1 0x40 MLOAD DUP1 DUP4 SUB DUP2 DUP6 DUP9 DUP9 CALL SWAP4 POP POP POP POP ISZERO DUP1 ISZERO PUSH2 0x140F JUMPI RETURNDATASIZE PUSH1 0x0 DUP1 RETURNDATACOPY RETURNDATASIZE PUSH1 0x0 REVERT JUMPDEST POP DUP1 DUP1 PUSH2 0x141B SWAP1 PUSH2 0x2289 JUMP JUMPDEST SWAP2 POP POP PUSH2 0x138C JUMP JUMPDEST POP PUSH2 0x162B JUMP JUMPDEST PUSH1 0x5 SLOAD PUSH1 0x4 PUSH1 0x0 SWAP1 SLOAD SWAP1 PUSH2 0x100 EXP SWAP1 DIV PUSH20 0xFFFFFFFFFFFFFFFFFFFFFFFFFFFFFFFFFFFFFFFF AND PUSH20 0xFFFFFFFFFFFFFFFFFFFFFFFFFFFFFFFFFFFFFFFF AND PUSH4 0x70A08231 CALLER PUSH1 0x40 MLOAD DUP3 PUSH4 0xFFFFFFFF AND PUSH1 0xE0 SHL DUP2 MSTORE PUSH1 0x4 ADD PUSH2 0x1487 SWAP2 SWAP1 PUSH2 0x1AE5 JUMP JUMPDEST PUSH1 0x20 PUSH1 0x40 MLOAD DUP1 DUP4 SUB DUP2 DUP7 GAS STATICCALL ISZERO DUP1 ISZERO PUSH2 0x14A4 JUMPI RETURNDATASIZE PUSH1 0x0 DUP1 RETURNDATACOPY RETURNDATASIZE PUSH1 0x0 REVERT JUMPDEST POP POP POP POP PUSH1 0x40 MLOAD RETURNDATASIZE PUSH1 0x1F NOT PUSH1 0x1F DUP3 ADD AND DUP3 ADD DUP1 PUSH1 0x40 MSTORE POP DUP2 ADD SWAP1 PUSH2 0x14C8 SWAP2 SWAP1 PUSH2 0x22E6 JUMP JUMPDEST LT ISZERO PUSH2 0x162A JUMPI PUSH1 0x0 DUP2 PUSH1 0x1 SLOAD PUSH2 0x14DE SWAP2 SWAP1 PUSH2 0x2460 JUMP JUMPDEST SWAP1 POP DUP1 CALLVALUE EQ PUSH2 0x1522 JUMPI PUSH1 0x40 MLOAD PUSH32 0x8C379A000000000000000000000000000000000000000000000000000000000 DUP2 MSTORE PUSH1 0x4 ADD PUSH2 0x1519 SWAP1 PUSH2 0x2385 JUMP JUMPDEST PUSH1 0x40 MLOAD DUP1 SWAP2 SUB SWAP1 REVERT JUMPDEST PUSH1 0x2 PUSH1 0x0 SWAP1 SLOAD SWAP1 PUSH2 0x100 EXP SWAP1 DIV PUSH20 0xFFFFFFFFFFFFFFFFFFFFFFFFFFFFFFFFFFFFFFFF AND PUSH20 0xFFFFFFFFFFFFFFFFFFFFFFFFFFFFFFFFFFFFFFFF AND PUSH2 0x8FC PUSH1 0x1 SLOAD SWAP1 DUP2 ISZERO MUL SWAP1 PUSH1 0x40 MLOAD PUSH1 0x0 PUSH1 0x40 MLOAD DUP1 DUP4 SUB DUP2 DUP6 DUP9 DUP9 CALL SWAP4 POP POP POP POP ISZERO DUP1 ISZERO PUSH2 0x158C JUMPI RETURNDATASIZE PUSH1 0x0 DUP1 RETURNDATACOPY RETURNDATASIZE PUSH1 0x0 REVERT JUMPDEST POP PUSH1 0x0 JUMPDEST DUP5 MLOAD DUP2 LT ISZERO PUSH2 0x1627 JUMPI DUP5 DUP2 DUP2 MLOAD DUP2 LT PUSH2 0x15AC JUMPI PUSH2 0x15AB PUSH2 0x212F JUMP JUMPDEST JUMPDEST PUSH1 0x20 MUL PUSH1 0x20 ADD ADD MLOAD PUSH20 0xFFFFFFFFFFFFFFFFFFFFFFFFFFFFFFFFFFFFFFFF AND PUSH2 0x8FC DUP6 DUP4 DUP2 MLOAD DUP2 LT PUSH2 0x15E0 JUMPI PUSH2 0x15DF PUSH2 0x212F JUMP JUMPDEST JUMPDEST PUSH1 0x20 MUL PUSH1 0x20 ADD ADD MLOAD SWAP1 DUP2 ISZERO MUL SWAP1 PUSH1 0x40 MLOAD PUSH1 0x0 PUSH1 0x40 MLOAD DUP1 DUP4 SUB DUP2 DUP6 DUP9 DUP9 CALL SWAP4 POP POP POP POP ISZERO DUP1 ISZERO PUSH2 0x1613 JUMPI RETURNDATASIZE PUSH1 0x0 DUP1 RETURNDATACOPY RETURNDATASIZE PUSH1 0x0 REVERT JUMPDEST POP DUP1 DUP1 PUSH2 0x161F SWAP1 PUSH2 0x2289 JUMP JUMPDEST SWAP2 POP POP PUSH2 0x1590 JUMP JUMPDEST POP POP JUMPDEST JUMPDEST JUMPDEST JUMPDEST POP POP POP JUMP JUMPDEST PUSH1 0x1 SLOAD DUP2 JUMP JUMPDEST PUSH2 0x1640 PUSH2 0x1776 JUMP JUMPDEST PUSH1 0x0 PUSH20 0xFFFFFFFFFFFFFFFFFFFFFFFFFFFFFFFFFFFFFFFF AND DUP2 PUSH20 0xFFFFFFFFFFFFFFFFFFFFFFFFFFFFFFFFFFFFFFFF AND SUB PUSH2 0x16AF JUMPI PUSH1 0x40 MLOAD PUSH32 0x8C379A000000000000000000000000000000000000000000000000000000000 DUP2 MSTORE PUSH1 0x4 ADD PUSH2 0x16A6 SWAP1 PUSH2 0x264C JUMP JUMPDEST PUSH1 0x40 MLOAD DUP1 SWAP2 SUB SWAP1 REVERT JUMPDEST PUSH2 0x16B8 DUP2 PUSH2 0x17F4 JUMP JUMPDEST POP JUMP JUMPDEST PUSH1 0x2 PUSH1 0x0 SWAP1 SLOAD SWAP1 PUSH2 0x100 EXP SWAP1 DIV PUSH20 0xFFFFFFFFFFFFFFFFFFFFFFFFFFFFFFFFFFFFFFFF AND DUP2 JUMP JUMPDEST PUSH2 0x16E9 PUSH2 0x1776 JUMP JUMPDEST DUP1 SELFBALANCE LT ISZERO PUSH2 0x172C JUMPI PUSH1 0x40 MLOAD PUSH32 0x8C379A000000000000000000000000000000000000000000000000000000000 DUP2 MSTORE PUSH1 0x4 ADD PUSH2 0x1723 SWAP1 PUSH2 0x26B8 JUMP JUMPDEST PUSH1 0x40 MLOAD DUP1 SWAP2 SUB SWAP1 REVERT JUMPDEST CALLER PUSH20 0xFFFFFFFFFFFFFFFFFFFFFFFFFFFFFFFFFFFFFFFF AND PUSH2 0x8FC DUP3 SWAP1 DUP2 ISZERO MUL SWAP1 PUSH1 0x40 MLOAD PUSH1 0x0 PUSH1 0x40 MLOAD DUP1 DUP4 SUB DUP2 DUP6 DUP9 DUP9 CALL SWAP4 POP POP POP POP ISZERO DUP1 ISZERO PUSH2 0x1772 JUMPI RETURNDATASIZE PUSH1 0x0 DUP1 RETURNDATACOPY RETURNDATASIZE PUSH1 0x0 REVERT JUMPDEST POP POP JUMP JUMPDEST PUSH2 0x177E PUSH2 0x18DB JUMP JUMPDEST PUSH20 0xFFFFFFFFFFFFFFFFFFFFFFFFFFFFFFFFFFFFFFFF AND PUSH2 0x179C PUSH2 0x699 JUMP JUMPDEST PUSH20 0xFFFFFFFFFFFFFFFFFFFFFFFFFFFFFFFFFFFFFFFF AND EQ PUSH2 0x17F2 JUMPI PUSH1 0x40 MLOAD PUSH32 0x8C379A000000000000000000000000000000000000000000000000000000000 DUP2 MSTORE PUSH1 0x4 ADD PUSH2 0x17E9 SWAP1 PUSH2 0x2724 JUMP JUMPDEST PUSH1 0x40 MLOAD DUP1 SWAP2 SUB SWAP1 REVERT JUMPDEST JUMP JUMPDEST PUSH1 0x0 DUP1 PUSH1 0x0 SWAP1 SLOAD SWAP1 PUSH2 0x100 EXP SWAP1 DIV PUSH20 0xFFFFFFFFFFFFFFFFFFFFFFFFFFFFFFFFFFFFFFFF AND SWAP1 POP DUP2 PUSH1 0x0 DUP1 PUSH2 0x100 EXP DUP2 SLOAD DUP2 PUSH20 0xFFFFFFFFFFFFFFFFFFFFFFFFFFFFFFFFFFFFFFFF MUL NOT AND SWAP1 DUP4 PUSH20 0xFFFFFFFFFFFFFFFFFFFFFFFFFFFFFFFFFFFFFFFF AND MUL OR SWAP1 SSTORE POP DUP2 PUSH20 0xFFFFFFFFFFFFFFFFFFFFFFFFFFFFFFFFFFFFFFFF AND DUP2 PUSH20 0xFFFFFFFFFFFFFFFFFFFFFFFFFFFFFFFFFFFFFFFF AND PUSH32 0x8BE0079C531659141344CD1FD0A4F28419497F9722A3DAAFE3B4186F6B6457E0 PUSH1 0x40 MLOAD PUSH1 0x40 MLOAD DUP1 SWAP2 SUB SWAP1 LOG3 POP POP JUMP JUMPDEST PUSH1 0x0 DUP1 DUP3 PUSH20 0xFFFFFFFFFFFFFFFFFFFFFFFFFFFFFFFFFFFFFFFF AND EXTCODESIZE GT SWAP1 POP SWAP2 SWAP1 POP JUMP JUMPDEST PUSH1 0x0 CALLER SWAP1 POP SWAP1 JUMP JUMPDEST PUSH1 0x0 PUSH1 0x40 MLOAD SWAP1 POP SWAP1 JUMP JUMPDEST PUSH1 0x0 DUP1 REVERT JUMPDEST PUSH1 0x0 DUP1 REVERT JUMPDEST PUSH1 0x0 DUP2 SWAP1 POP SWAP2 SWAP1 POP JUMP JUMPDEST PUSH2 0x190A DUP2 PUSH2 0x18F7 JUMP JUMPDEST DUP2 EQ PUSH2 0x1915 JUMPI PUSH1 0x0 DUP1 REVERT JUMPDEST POP JUMP JUMPDEST PUSH1 0x0 DUP2 CALLDATALOAD SWAP1 POP PUSH2 0x1927 DUP2 PUSH2 0x1901 JUMP JUMPDEST SWAP3 SWAP2 POP POP JUMP JUMPDEST PUSH1 0x0 PUSH20 0xFFFFFFFFFFFFFFFFFFFFFFFFFFFFFFFFFFFFFFFF DUP3 AND SWAP1 POP SWAP2 SWAP1 POP JUMP JUMPDEST PUSH1 0x0 PUSH2 0x1958 DUP3 PUSH2 0x192D JUMP JUMPDEST SWAP1 POP SWAP2 SWAP1 POP JUMP JUMPDEST PUSH2 0x1968 DUP2 PUSH2 0x194D JUMP JUMPDEST DUP2 EQ PUSH2 0x1973 JUMPI PUSH1 0x0 DUP1 REVERT JUMPDEST POP JUMP JUMPDEST PUSH1 0x0 DUP2 CALLDATALOAD SWAP1 POP PUSH2 0x1985 DUP2 PUSH2 0x195F JUMP JUMPDEST SWAP3 SWAP2 POP POP JUMP JUMPDEST PUSH1 0x0 DUP1 PUSH1 0x40 DUP4 DUP6 SUB SLT ISZERO PUSH2 0x19A2 JUMPI PUSH2 0x19A1 PUSH2 0x18ED JUMP JUMPDEST JUMPDEST PUSH1 0x0 PUSH2 0x19B0 DUP6 DUP3 DUP7 ADD PUSH2 0x1918 JUMP JUMPDEST SWAP3 POP POP PUSH1 0x20 PUSH2 0x19C1 DUP6 DUP3 DUP7 ADD PUSH2 0x1976 JUMP JUMPDEST SWAP2 POP POP SWAP3 POP SWAP3 SWAP1 POP JUMP JUMPDEST PUSH2 0x19D4 DUP2 PUSH2 0x18F7 JUMP JUMPDEST DUP3 MSTORE POP POP JUMP JUMPDEST PUSH1 0x0 PUSH1 0x20 DUP3 ADD SWAP1 POP PUSH2 0x19EF PUSH1 0x0 DUP4 ADD DUP5 PUSH2 0x19CB JUMP JUMPDEST SWAP3 SWAP2 POP POP JUMP JUMPDEST PUSH1 0x0 PUSH2 0x1A00 DUP3 PUSH2 0x194D JUMP JUMPDEST SWAP1 POP SWAP2 SWAP1 POP JUMP JUMPDEST PUSH2 0x1A10 DUP2 PUSH2 0x19F5 JUMP JUMPDEST DUP2 EQ PUSH2 0x1A1B JUMPI PUSH1 0x0 DUP1 REVERT JUMPDEST POP JUMP JUMPDEST PUSH1 0x0 DUP2 CALLDATALOAD SWAP1 POP PUSH2 0x1A2D DUP2 PUSH2 0x1A07 JUMP JUMPDEST SWAP3 SWAP2 POP POP JUMP JUMPDEST PUSH1 0x0 DUP1 PUSH1 0x40 DUP4 DUP6 SUB SLT ISZERO PUSH2 0x1A4A JUMPI PUSH2 0x1A49 PUSH2 0x18ED JUMP JUMPDEST JUMPDEST PUSH1 0x0 PUSH2 0x1A58 DUP6 DUP3 DUP7 ADD PUSH2 0x1A1E JUMP JUMPDEST SWAP3 POP POP PUSH1 0x20 PUSH2 0x1A69 DUP6 DUP3 DUP7 ADD PUSH2 0x1918 JUMP JUMPDEST SWAP2 POP POP SWAP3 POP SWAP3 SWAP1 POP JUMP JUMPDEST PUSH1 0x0 PUSH1 0x20 DUP3 DUP5 SUB SLT ISZERO PUSH2 0x1A89 JUMPI PUSH2 0x1A88 PUSH2 0x18ED JUMP JUMPDEST JUMPDEST PUSH1 0x0 PUSH2 0x1A97 DUP5 DUP3 DUP6 ADD PUSH2 0x1976 JUMP JUMPDEST SWAP2 POP POP SWAP3 SWAP2 POP POP JUMP JUMPDEST PUSH1 0x0 DUP2 ISZERO ISZERO SWAP1 POP SWAP2 SWAP1 POP JUMP JUMPDEST PUSH2 0x1AB5 DUP2 PUSH2 0x1AA0 JUMP JUMPDEST DUP3 MSTORE POP POP JUMP JUMPDEST PUSH1 0x0 PUSH1 0x20 DUP3 ADD SWAP1 POP PUSH2 0x1AD0 PUSH1 0x0 DUP4 ADD DUP5 PUSH2 0x1AAC JUMP JUMPDEST SWAP3 SWAP2 POP POP JUMP JUMPDEST PUSH2 0x1ADF DUP2 PUSH2 0x194D JUMP JUMPDEST DUP3 MSTORE POP POP JUMP JUMPDEST PUSH1 0x0 PUSH1 0x20 DUP3 ADD SWAP1 POP PUSH2 0x1AFA PUSH1 0x0 DUP4 ADD DUP5 PUSH2 0x1AD6 JUMP JUMPDEST SWAP3 SWAP2 POP POP JUMP JUMPDEST PUSH1 0x0 DUP1 REVERT JUMPDEST PUSH1 0x0 PUSH1 0x1F NOT PUSH1 0x1F DUP4 ADD AND SWAP1 POP SWAP2 SWAP1 POP JUMP JUMPDEST PUSH32 0x4E487B7100000000000000000000000000000000000000000000000000000000 PUSH1 0x0 MSTORE PUSH1 0x41 PUSH1 0x4 MSTORE PUSH1 0x24 PUSH1 0x0 REVERT JUMPDEST PUSH2 0x1B4E DUP3 PUSH2 0x1B05 JUMP JUMPDEST DUP2 ADD DUP2 DUP2 LT PUSH8 0xFFFFFFFFFFFFFFFF DUP3 GT OR ISZERO PUSH2 0x1B6D JUMPI PUSH2 0x1B6C PUSH2 0x1B16 JUMP JUMPDEST JUMPDEST DUP1 PUSH1 0x40 MSTORE POP POP POP JUMP JUMPDEST PUSH1 0x0 PUSH2 0x1B80 PUSH2 0x18E3 JUMP JUMPDEST SWAP1 POP PUSH2 0x1B8C DUP3 DUP3 PUSH2 0x1B45 JUMP JUMPDEST SWAP2 SWAP1 POP JUMP JUMPDEST PUSH1 0x0 PUSH8 0xFFFFFFFFFFFFFFFF DUP3 GT ISZERO PUSH2 0x1BAC JUMPI PUSH2 0x1BAB PUSH2 0x1B16 JUMP JUMPDEST JUMPDEST PUSH1 0x20 DUP3 MUL SWAP1 POP PUSH1 0x20 DUP2 ADD SWAP1 POP SWAP2 SWAP1 POP JUMP JUMPDEST PUSH1 0x0 DUP1 REVERT JUMPDEST PUSH1 0x0 PUSH2 0x1BD5 PUSH2 0x1BD0 DUP5 PUSH2 0x1B91 JUMP JUMPDEST PUSH2 0x1B76 JUMP JUMPDEST SWAP1 POP DUP1 DUP4 DUP3 MSTORE PUSH1 0x20 DUP3 ADD SWAP1 POP PUSH1 0x20 DUP5 MUL DUP4 ADD DUP6 DUP2 GT ISZERO PUSH2 0x1BF8 JUMPI PUSH2 0x1BF7 PUSH2 0x1BBD JUMP JUMPDEST JUMPDEST DUP4 JUMPDEST DUP2 DUP2 LT ISZERO PUSH2 0x1C21 JUMPI DUP1 PUSH2 0x1C0D DUP9 DUP3 PUSH2 0x1976 JUMP JUMPDEST DUP5 MSTORE PUSH1 0x20 DUP5 ADD SWAP4 POP POP PUSH1 0x20 DUP2 ADD SWAP1 POP PUSH2 0x1BFA JUMP JUMPDEST POP POP POP SWAP4 SWAP3 POP POP POP JUMP JUMPDEST PUSH1 0x0 DUP3 PUSH1 0x1F DUP4 ADD SLT PUSH2 0x1C40 JUMPI PUSH2 0x1C3F PUSH2 0x1B00 JUMP JUMPDEST JUMPDEST DUP2 CALLDATALOAD PUSH2 0x1C50 DUP5 DUP3 PUSH1 0x20 DUP7 ADD PUSH2 0x1BC2 JUMP JUMPDEST SWAP2 POP POP SWAP3 SWAP2 POP POP JUMP JUMPDEST PUSH1 0x0 PUSH8 0xFFFFFFFFFFFFFFFF DUP3 GT ISZERO PUSH2 0x1C74 JUMPI PUSH2 0x1C73 PUSH2 0x1B16 JUMP JUMPDEST JUMPDEST PUSH1 0x20 DUP3 MUL SWAP1 POP PUSH1 0x20 DUP2 ADD SWAP1 POP SWAP2 SWAP1 POP JUMP JUMPDEST PUSH1 0x0 PUSH2 0x1C98 PUSH2 0x1C93 DUP5 PUSH2 0x1C59 JUMP JUMPDEST PUSH2 0x1B76 JUMP JUMPDEST SWAP1 POP DUP1 DUP4 DUP3 MSTORE PUSH1 0x20 DUP3 ADD SWAP1 POP PUSH1 0x20 DUP5 MUL DUP4 ADD DUP6 DUP2 GT ISZERO PUSH2 0x1CBB JUMPI PUSH2 0x1CBA PUSH2 0x1BBD JUMP JUMPDEST JUMPDEST DUP4 JUMPDEST DUP2 DUP2 LT ISZERO PUSH2 0x1CE4 JUMPI DUP1 PUSH2 0x1CD0 DUP9 DUP3 PUSH2 0x1918 JUMP JUMPDEST DUP5 MSTORE PUSH1 0x20 DUP5 ADD SWAP4 POP POP PUSH1 0x20 DUP2 ADD SWAP1 POP PUSH2 0x1CBD JUMP JUMPDEST POP POP POP SWAP4 SWAP3 POP POP POP JUMP JUMPDEST PUSH1 0x0 DUP3 PUSH1 0x1F DUP4 ADD SLT PUSH2 0x1D03 JUMPI PUSH2 0x1D02 PUSH2 0x1B00 JUMP JUMPDEST JUMPDEST DUP2 CALLDATALOAD PUSH2 0x1D13 DUP5 DUP3 PUSH1 0x20 DUP7 ADD PUSH2 0x1C85 JUMP JUMPDEST SWAP2 POP POP SWAP3 SWAP2 POP POP JUMP JUMPDEST PUSH1 0x0 DUP1 PUSH1 0x0 PUSH1 0x60 DUP5 DUP7 SUB SLT ISZERO PUSH2 0x1D35 JUMPI PUSH2 0x1D34 PUSH2 0x18ED JUMP JUMPDEST JUMPDEST PUSH1 0x0 PUSH2 0x1D43 DUP7 DUP3 DUP8 ADD PUSH2 0x1A1E JUMP JUMPDEST SWAP4 POP POP PUSH1 0x20 DUP5 ADD CALLDATALOAD PUSH8 0xFFFFFFFFFFFFFFFF DUP2 GT ISZERO PUSH2 0x1D64 JUMPI PUSH2 0x1D63 PUSH2 0x18F2 JUMP JUMPDEST JUMPDEST PUSH2 0x1D70 DUP7 DUP3 DUP8 ADD PUSH2 0x1C2B JUMP JUMPDEST SWAP3 POP POP PUSH1 0x40 DUP5 ADD CALLDATALOAD PUSH8 0xFFFFFFFFFFFFFFFF DUP2 GT ISZERO PUSH2 0x1D91 JUMPI PUSH2 0x1D90 PUSH2 0x18F2 JUMP JUMPDEST JUMPDEST PUSH2 0x1D9D DUP7 DUP3 DUP8 ADD PUSH2 0x1CEE JUMP JUMPDEST SWAP2 POP POP SWAP3 POP SWAP3 POP SWAP3 JUMP JUMPDEST PUSH1 0x0 DUP2 SWAP1 POP SWAP2 SWAP1 POP JUMP JUMPDEST PUSH1 0x0 PUSH2 0x1DCC PUSH2 0x1DC7 PUSH2 0x1DC2 DUP5 PUSH2 0x192D JUMP JUMPDEST PUSH2 0x1DA7 JUMP JUMPDEST PUSH2 0x192D JUMP JUMPDEST SWAP1 POP SWAP2 SWAP1 POP JUMP JUMPDEST PUSH1 0x0 PUSH2 0x1DDE DUP3 PUSH2 0x1DB1 JUMP JUMPDEST SWAP1 POP SWAP2 SWAP1 POP JUMP JUMPDEST PUSH1 0x0 PUSH2 0x1DF0 DUP3 PUSH2 0x1DD3 JUMP JUMPDEST SWAP1 POP SWAP2 SWAP1 POP JUMP JUMPDEST PUSH2 0x1E00 DUP2 PUSH2 0x1DE5 JUMP JUMPDEST DUP3 MSTORE POP POP JUMP JUMPDEST PUSH1 0x0 PUSH1 0x20 DUP3 ADD SWAP1 POP PUSH2 0x1E1B PUSH1 0x0 DUP4 ADD DUP5 PUSH2 0x1DF7 JUMP JUMPDEST SWAP3 SWAP2 POP POP JUMP JUMPDEST PUSH1 0x0 DUP1 PUSH1 0x40 DUP4 DUP6 SUB SLT ISZERO PUSH2 0x1E38 JUMPI PUSH2 0x1E37 PUSH2 0x18ED JUMP JUMPDEST JUMPDEST PUSH1 0x0 DUP4 ADD CALLDATALOAD PUSH8 0xFFFFFFFFFFFFFFFF DUP2 GT ISZERO PUSH2 0x1E56 JUMPI PUSH2 0x1E55 PUSH2 0x18F2 JUMP JUMPDEST JUMPDEST PUSH2 0x1E62 DUP6 DUP3 DUP7 ADD PUSH2 0x1C2B JUMP JUMPDEST SWAP3 POP POP PUSH1 0x20 DUP4 ADD CALLDATALOAD PUSH8 0xFFFFFFFFFFFFFFFF DUP2 GT ISZERO PUSH2 0x1E83 JUMPI PUSH2 0x1E82 PUSH2 0x18F2 JUMP JUMPDEST JUMPDEST PUSH2 0x1E8F DUP6 DUP3 DUP7 ADD PUSH2 0x1CEE JUMP JUMPDEST SWAP2 POP POP SWAP3 POP SWAP3 SWAP1 POP JUMP JUMPDEST PUSH1 0x0 PUSH2 0x1EA4 DUP3 PUSH2 0x192D JUMP JUMPDEST SWAP1 POP SWAP2 SWAP1 POP JUMP JUMPDEST PUSH2 0x1EB4 DUP2 PUSH2 0x1E99 JUMP JUMPDEST DUP3 MSTORE POP POP JUMP JUMPDEST PUSH1 0x0 PUSH1 0x20 DUP3 ADD SWAP1 POP PUSH2 0x1ECF PUSH1 0x0 DUP4 ADD DUP5 PUSH2 0x1EAB JUMP JUMPDEST SWAP3 SWAP2 POP POP JUMP JUMPDEST PUSH1 0x0 PUSH1 0x20 DUP3 DUP5 SUB SLT ISZERO PUSH2 0x1EEB JUMPI PUSH2 0x1EEA PUSH2 0x18ED JUMP JUMPDEST JUMPDEST PUSH1 0x0 PUSH2 0x1EF9 DUP5 DUP3 DUP6 ADD PUSH2 0x1918 JUMP JUMPDEST SWAP2 POP POP SWAP3 SWAP2 POP POP JUMP JUMPDEST PUSH1 0x0 DUP3 DUP3 MSTORE PUSH1 0x20 DUP3 ADD SWAP1 POP SWAP3 SWAP2 POP POP JUMP JUMPDEST PUSH32 0x7573657220697320616C726561647920756E617574686F72697A656400000000 PUSH1 0x0 DUP3 ADD MSTORE POP JUMP JUMPDEST PUSH1 0x0 PUSH2 0x1F49 PUSH1 0x1C DUP4 PUSH2 0x1F02 JUMP JUMPDEST SWAP2 POP PUSH2 0x1F54 DUP3 PUSH2 0x1F13 JUMP JUMPDEST PUSH1 0x20 DUP3 ADD SWAP1 POP SWAP2 SWAP1 POP JUMP JUMPDEST PUSH1 0x0 PUSH1 0x20 DUP3 ADD SWAP1 POP DUP2 DUP2 SUB PUSH1 0x0 DUP4 ADD MSTORE PUSH2 0x1F78 DUP2 PUSH2 0x1F3C JUMP JUMPDEST SWAP1 POP SWAP2 SWAP1 POP JUMP JUMPDEST PUSH32 0x7573657220697320616C726561647920617574686F72697A6564000000000000 PUSH1 0x0 DUP3 ADD MSTORE POP JUMP JUMPDEST PUSH1 0x0 PUSH2 0x1FB5 PUSH1 0x1A DUP4 PUSH2 0x1F02 JUMP JUMPDEST SWAP2 POP PUSH2 0x1FC0 DUP3 PUSH2 0x1F7F JUMP JUMPDEST PUSH1 0x20 DUP3 ADD SWAP1 POP SWAP2 SWAP1 POP JUMP JUMPDEST PUSH1 0x0 PUSH1 0x20 DUP3 ADD SWAP1 POP DUP2 DUP2 SUB PUSH1 0x0 DUP4 ADD MSTORE PUSH2 0x1FE4 DUP2 PUSH2 0x1FA8 JUMP JUMPDEST SWAP1 POP SWAP2 SWAP1 POP JUMP JUMPDEST PUSH32 0x746F6B656E20686F6C64696E6720696E76616C69640000000000000000000000 PUSH1 0x0 DUP3 ADD MSTORE POP JUMP JUMPDEST PUSH1 0x0 PUSH2 0x2021 PUSH1 0x15 DUP4 PUSH2 0x1F02 JUMP JUMPDEST SWAP2 POP PUSH2 0x202C DUP3 PUSH2 0x1FEB JUMP JUMPDEST PUSH1 0x20 DUP3 ADD SWAP1 POP SWAP2 SWAP1 POP JUMP JUMPDEST PUSH1 0x0 PUSH1 0x20 DUP3 ADD SWAP1 POP DUP2 DUP2 SUB PUSH1 0x0 DUP4 ADD MSTORE PUSH2 0x2050 DUP2 PUSH2 0x2014 JUMP JUMPDEST SWAP1 POP SWAP2 SWAP1 POP JUMP JUMPDEST PUSH32 0x6E6F74206120636F6E7472616374000000000000000000000000000000000000 PUSH1 0x0 DUP3 ADD MSTORE POP JUMP JUMPDEST PUSH1 0x0 PUSH2 0x208D PUSH1 0xE DUP4 PUSH2 0x1F02 JUMP JUMPDEST SWAP2 POP PUSH2 0x2098 DUP3 PUSH2 0x2057 JUMP JUMPDEST PUSH1 0x20 DUP3 ADD SWAP1 POP SWAP2 SWAP1 POP JUMP JUMPDEST PUSH1 0x0 PUSH1 0x20 DUP3 ADD SWAP1 POP DUP2 DUP2 SUB PUSH1 0x0 DUP4 ADD MSTORE PUSH2 0x20BC DUP2 PUSH2 0x2080 JUMP JUMPDEST SWAP1 POP SWAP2 SWAP1 POP JUMP JUMPDEST PUSH32 0x696E76616C696420696E70757400000000000000000000000000000000000000 PUSH1 0x0 DUP3 ADD MSTORE POP JUMP JUMPDEST PUSH1 0x0 PUSH2 0x20F9 PUSH1 0xD DUP4 PUSH2 0x1F02 JUMP JUMPDEST SWAP2 POP PUSH2 0x2104 DUP3 PUSH2 0x20C3 JUMP JUMPDEST PUSH1 0x20 DUP3 ADD SWAP1 POP SWAP2 SWAP1 POP JUMP JUMPDEST PUSH1 0x0 PUSH1 0x20 DUP3 ADD SWAP1 POP DUP2 DUP2 SUB PUSH1 0x0 DUP4 ADD MSTORE PUSH2 0x2128 DUP2 PUSH2 0x20EC JUMP JUMPDEST SWAP1 POP SWAP2 SWAP1 POP JUMP JUMPDEST PUSH32 0x4E487B7100000000000000000000000000000000000000000000000000000000 PUSH1 0x0 MSTORE PUSH1 0x32 PUSH1 0x4 MSTORE PUSH1 0x24 PUSH1 0x0 REVERT JUMPDEST PUSH1 0x0 PUSH1 0x60 DUP3 ADD SWAP1 POP PUSH2 0x2173 PUSH1 0x0 DUP4 ADD DUP7 PUSH2 0x1AD6 JUMP JUMPDEST PUSH2 0x2180 PUSH1 0x20 DUP4 ADD DUP6 PUSH2 0x1AD6 JUMP JUMPDEST PUSH2 0x218D PUSH1 0x40 DUP4 ADD DUP5 PUSH2 0x19CB JUMP JUMPDEST SWAP5 SWAP4 POP POP POP POP JUMP JUMPDEST PUSH2 0x219E DUP2 PUSH2 0x1AA0 JUMP JUMPDEST DUP2 EQ PUSH2 0x21A9 JUMPI PUSH1 0x0 DUP1 REVERT JUMPDEST POP JUMP JUMPDEST PUSH1 0x0 DUP2 MLOAD SWAP1 POP PUSH2 0x21BB DUP2 PUSH2 0x2195 JUMP JUMPDEST SWAP3 SWAP2 POP POP JUMP JUMPDEST PUSH1 0x0 PUSH1 0x20 DUP3 DUP5 SUB SLT ISZERO PUSH2 0x21D7 JUMPI PUSH2 0x21D6 PUSH2 0x18ED JUMP JUMPDEST JUMPDEST PUSH1 0x0 PUSH2 0x21E5 DUP5 DUP3 DUP6 ADD PUSH2 0x21AC JUMP JUMPDEST SWAP2 POP POP SWAP3 SWAP2 POP POP JUMP JUMPDEST PUSH32 0x6572726F7220696E20646973747269627574696F6E0000000000000000000000 PUSH1 0x0 DUP3 ADD MSTORE POP JUMP JUMPDEST PUSH1 0x0 PUSH2 0x2224 PUSH1 0x15 DUP4 PUSH2 0x1F02 JUMP JUMPDEST SWAP2 POP PUSH2 0x222F DUP3 PUSH2 0x21EE JUMP JUMPDEST PUSH1 0x20 DUP3 ADD SWAP1 POP SWAP2 SWAP1 POP JUMP JUMPDEST PUSH1 0x0 PUSH1 0x20 DUP3 ADD SWAP1 POP DUP2 DUP2 SUB PUSH1 0x0 DUP4 ADD MSTORE PUSH2 0x2253 DUP2 PUSH2 0x2217 JUMP JUMPDEST SWAP1 POP SWAP2 SWAP1 POP JUMP JUMPDEST PUSH32 0x4E487B7100000000000000000000000000000000000000000000000000000000 PUSH1 0x0 MSTORE PUSH1 0x11 PUSH1 0x4 MSTORE PUSH1 0x24 PUSH1 0x0 REVERT JUMPDEST PUSH1 0x0 PUSH2 0x2294 DUP3 PUSH2 0x18F7 JUMP JUMPDEST SWAP2 POP PUSH32 0xFFFFFFFFFFFFFFFFFFFFFFFFFFFFFFFFFFFFFFFFFFFFFFFFFFFFFFFFFFFFFFFF DUP3 SUB PUSH2 0x22C6 JUMPI PUSH2 0x22C5 PUSH2 0x225A JUMP JUMPDEST JUMPDEST PUSH1 0x1 DUP3 ADD SWAP1 POP SWAP2 SWAP1 POP JUMP JUMPDEST PUSH1 0x0 DUP2 MLOAD SWAP1 POP PUSH2 0x22E0 DUP2 PUSH2 0x1901 JUMP JUMPDEST SWAP3 SWAP2 POP POP JUMP JUMPDEST PUSH1 0x0 PUSH1 0x20 DUP3 DUP5 SUB SLT ISZERO PUSH2 0x22FC JUMPI PUSH2 0x22FB PUSH2 0x18ED JUMP JUMPDEST JUMPDEST PUSH1 0x0 PUSH2 0x230A DUP5 DUP3 DUP6 ADD PUSH2 0x22D1 JUMP JUMPDEST SWAP2 POP POP SWAP3 SWAP2 POP POP JUMP JUMPDEST PUSH32 0x686F6C64696E67202620617574686F72697A6174696F6E2066616C7365207061 PUSH1 0x0 DUP3 ADD MSTORE PUSH32 0x7920657861637420666565000000000000000000000000000000000000000000 PUSH1 0x20 DUP3 ADD MSTORE POP JUMP JUMPDEST PUSH1 0x0 PUSH2 0x236F PUSH1 0x2B DUP4 PUSH2 0x1F02 JUMP JUMPDEST SWAP2 POP PUSH2 0x237A DUP3 PUSH2 0x2313 JUMP JUMPDEST PUSH1 0x40 DUP3 ADD SWAP1 POP SWAP2 SWAP1 POP JUMP JUMPDEST PUSH1 0x0 PUSH1 0x20 DUP3 ADD SWAP1 POP DUP2 DUP2 SUB PUSH1 0x0 DUP4 ADD MSTORE PUSH2 0x239E DUP2 PUSH2 0x2362 JUMP JUMPDEST SWAP1 POP SWAP2 SWAP1 POP JUMP JUMPDEST PUSH32 0x636F6E747261637420646F65736E2774206861766520656E6F75676820746F6B PUSH1 0x0 DUP3 ADD MSTORE PUSH32 0x656E277300000000000000000000000000000000000000000000000000000000 PUSH1 0x20 DUP3 ADD MSTORE POP JUMP JUMPDEST PUSH1 0x0 PUSH2 0x2401 PUSH1 0x24 DUP4 PUSH2 0x1F02 JUMP JUMPDEST SWAP2 POP PUSH2 0x240C DUP3 PUSH2 0x23A5 JUMP JUMPDEST PUSH1 0x40 DUP3 ADD SWAP1 POP SWAP2 SWAP1 POP JUMP JUMPDEST PUSH1 0x0 PUSH1 0x20 DUP3 ADD SWAP1 POP DUP2 DUP2 SUB PUSH1 0x0 DUP4 ADD MSTORE PUSH2 0x2430 DUP2 PUSH2 0x23F4 JUMP JUMPDEST SWAP1 POP SWAP2 SWAP1 POP JUMP JUMPDEST PUSH1 0x0 PUSH1 0x40 DUP3 ADD SWAP1 POP PUSH2 0x244C PUSH1 0x0 DUP4 ADD DUP6 PUSH2 0x1AD6 JUMP JUMPDEST PUSH2 0x2459 PUSH1 0x20 DUP4 ADD DUP5 PUSH2 0x19CB JUMP JUMPDEST SWAP4 SWAP3 POP POP POP JUMP JUMPDEST PUSH1 0x0 PUSH2 0x246B DUP3 PUSH2 0x18F7 JUMP JUMPDEST SWAP2 POP PUSH2 0x2476 DUP4 PUSH2 0x18F7 JUMP JUMPDEST SWAP3 POP DUP3 PUSH32 0xFFFFFFFFFFFFFFFFFFFFFFFFFFFFFFFFFFFFFFFFFFFFFFFFFFFFFFFFFFFFFFFF SUB DUP3 GT ISZERO PUSH2 0x24AB JUMPI PUSH2 0x24AA PUSH2 0x225A JUMP JUMPDEST JUMPDEST DUP3 DUP3 ADD SWAP1 POP SWAP3 SWAP2 POP POP JUMP JUMPDEST PUSH32 0x7061792074686520657861637420616D6F756E7420746F20636F766572206469 PUSH1 0x0 DUP3 ADD MSTORE PUSH32 0x73747269627574696F6E00000000000000000000000000000000000000000000 PUSH1 0x20 DUP3 ADD MSTORE POP JUMP JUMPDEST PUSH1 0x0 PUSH2 0x2512 PUSH1 0x2A DUP4 PUSH2 0x1F02 JUMP JUMPDEST SWAP2 POP PUSH2 0x251D DUP3 PUSH2 0x24B6 JUMP JUMPDEST PUSH1 0x40 DUP3 ADD SWAP1 POP SWAP2 SWAP1 POP JUMP JUMPDEST PUSH1 0x0 PUSH1 0x20 DUP3 ADD SWAP1 POP DUP2 DUP2 SUB PUSH1 0x0 DUP4 ADD MSTORE PUSH2 0x2541 DUP2 PUSH2 0x2505 JUMP JUMPDEST SWAP1 POP SWAP2 SWAP1 POP JUMP JUMPDEST PUSH32 0x686F6C64696E67207175616E74697479207472756520627574206D73672E7661 PUSH1 0x0 DUP3 ADD MSTORE PUSH32 0x6C756520756E6365727461696E20706179206578616374000000000000000000 PUSH1 0x20 DUP3 ADD MSTORE POP JUMP JUMPDEST PUSH1 0x0 PUSH2 0x25A4 PUSH1 0x37 DUP4 PUSH2 0x1F02 JUMP JUMPDEST SWAP2 POP PUSH2 0x25AF DUP3 PUSH2 0x2548 JUMP JUMPDEST PUSH1 0x40 DUP3 ADD SWAP1 POP SWAP2 SWAP1 POP JUMP JUMPDEST PUSH1 0x0 PUSH1 0x20 DUP3 ADD SWAP1 POP DUP2 DUP2 SUB PUSH1 0x0 DUP4 ADD MSTORE PUSH2 0x25D3 DUP2 PUSH2 0x2597 JUMP JUMPDEST SWAP1 POP SWAP2 SWAP1 POP JUMP JUMPDEST PUSH32 0x4F776E61626C653A206E6577206F776E657220697320746865207A65726F2061 PUSH1 0x0 DUP3 ADD MSTORE PUSH32 0x6464726573730000000000000000000000000000000000000000000000000000 PUSH1 0x20 DUP3 ADD MSTORE POP JUMP JUMPDEST PUSH1 0x0 PUSH2 0x2636 PUSH1 0x26 DUP4 PUSH2 0x1F02 JUMP JUMPDEST SWAP2 POP PUSH2 0x2641 DUP3 PUSH2 0x25DA JUMP JUMPDEST PUSH1 0x40 DUP3 ADD SWAP1 POP SWAP2 SWAP1 POP JUMP JUMPDEST PUSH1 0x0 PUSH1 0x20 DUP3 ADD SWAP1 POP DUP2 DUP2 SUB PUSH1 0x0 DUP4 ADD MSTORE PUSH2 0x2665 DUP2 PUSH2 0x2629 JUMP JUMPDEST SWAP1 POP SWAP2 SWAP1 POP JUMP JUMPDEST PUSH32 0x696E76616C69642062616C616E636520746F2077697468647261770000000000 PUSH1 0x0 DUP3 ADD MSTORE POP JUMP JUMPDEST PUSH1 0x0 PUSH2 0x26A2 PUSH1 0x1B DUP4 PUSH2 0x1F02 JUMP JUMPDEST SWAP2 POP PUSH2 0x26AD DUP3 PUSH2 0x266C JUMP JUMPDEST PUSH1 0x20 DUP3 ADD SWAP1 POP SWAP2 SWAP1 POP JUMP JUMPDEST PUSH1 0x0 PUSH1 0x20 DUP3 ADD SWAP1 POP DUP2 DUP2 SUB PUSH1 0x0 DUP4 ADD MSTORE PUSH2 0x26D1 DUP2 PUSH2 0x2695 JUMP JUMPDEST SWAP1 POP SWAP2 SWAP1 POP JUMP JUMPDEST PUSH32 0x4F776E61626C653A2063616C6C6572206973206E6F7420746865206F776E6572 PUSH1 0x0 DUP3 ADD MSTORE POP JUMP JUMPDEST PUSH1 0x0 PUSH2 0x270E PUSH1 0x20 DUP4 PUSH2 0x1F02 JUMP JUMPDEST SWAP2 POP PUSH2 0x2719 DUP3 PUSH2 0x26D8 JUMP JUMPDEST PUSH1 0x20 DUP3 ADD SWAP1 POP SWAP2 SWAP1 POP JUMP JUMPDEST PUSH1 0x0 PUSH1 0x20 DUP3 ADD SWAP1 POP DUP2 DUP2 SUB PUSH1 0x0 DUP4 ADD MSTORE PUSH2 0x273D DUP2 PUSH2 0x2701 JUMP JUMPDEST SWAP1 POP SWAP2 SWAP1 POP JUMP INVALID LOG2 PUSH5 0x6970667358 0x22 SLT KECCAK256 PUSH3 0x89B543 XOR SELFBALANCE 0xDF 0x25 0xDA SWAP13 CALLDATASIZE BALANCE BYTE PUSH26 0xA8454AE5A0FED3D528F603A5377B1E879DCB64736F6C63430008 0xD STOP CALLER "
				},
				"gasEstimates": {
					"creation": {
						"codeDepositCost": "2021200",
						"executionCost": "infinite",
						"totalCost": "infinite"
					},
					"external": {
						"SetTokenToholdAndQuantity(address,uint256)": "49384",
						"TOKENmultisender(address,address[],uint256[])": "infinite",
						"authorizeUser(address)": "29382",
						"authorizedusers(address)": "2935",
						"coinMultisender(address[],uint256[])": "infinite",
						"contractBalance()": "2780",
						"fee()": "2473",
						"owner()": "2545",
						"quantity()": "2475",
						"receiver()": "2602",
						"renounceOwnership()": "30465",
						"setfeeToUse(uint256,address)": "49297",
						"tokenAddress()": "infinite",
						"transferOwnership(address)": "30810",
						"unauthorizeUser(address)": "29360",
						"withdrawCoins(uint256)": "infinite",
						"withdrawToken(address,uint256)": "infinite"
					}
				},
				"methodIdentifiers": {
					"SetTokenToholdAndQuantity(address,uint256)": "2fc75eb0",
					"TOKENmultisender(address,address[],uint256[])": "9cbd3433",
					"authorizeUser(address)": "67c2a360",
					"authorizedusers(address)": "44b6209d",
					"coinMultisender(address[],uint256[])": "d908e6ce",
					"contractBalance()": "8b7afe2e",
					"fee()": "ddca3f43",
					"owner()": "8da5cb5b",
					"quantity()": "17fc45e2",
					"receiver()": "f7260d3e",
					"renounceOwnership()": "715018a6",
					"setfeeToUse(uint256,address)": "126ccd94",
					"tokenAddress()": "9d76ea58",
					"transferOwnership(address)": "f2fde38b",
					"unauthorizeUser(address)": "478aa69e",
					"withdrawCoins(uint256)": "f9f95a0f",
					"withdrawToken(address,uint256)": "9e281a98"
				}
			},
			"storageLayout": {
				"storage": [
					{
						"astId": 356,
						"contract": "SnipeFinanceMultisenders (2)/SnipeFinanceMultisenders/SnipeFinanceMultisenders_flattened.sol:SnipeFinanceMultisenders",
						"label": "_owner",
						"offset": 0,
						"slot": "0",
						"type": "t_address"
					},
					{
						"astId": 546,
						"contract": "SnipeFinanceMultisenders (2)/SnipeFinanceMultisenders/SnipeFinanceMultisenders_flattened.sol:SnipeFinanceMultisenders",
						"label": "fee",
						"offset": 0,
						"slot": "1",
						"type": "t_uint256"
					},
					{
						"astId": 548,
						"contract": "SnipeFinanceMultisenders (2)/SnipeFinanceMultisenders/SnipeFinanceMultisenders_flattened.sol:SnipeFinanceMultisenders",
						"label": "receiver",
						"offset": 0,
						"slot": "2",
						"type": "t_address_payable"
					},
					{
						"astId": 552,
						"contract": "SnipeFinanceMultisenders (2)/SnipeFinanceMultisenders/SnipeFinanceMultisenders_flattened.sol:SnipeFinanceMultisenders",
						"label": "authorizedusers",
						"offset": 0,
						"slot": "3",
						"type": "t_mapping(t_address,t_bool)"
					},
					{
						"astId": 555,
						"contract": "SnipeFinanceMultisenders (2)/SnipeFinanceMultisenders/SnipeFinanceMultisenders_flattened.sol:SnipeFinanceMultisenders",
						"label": "tokenAddress",
						"offset": 0,
						"slot": "4",
						"type": "t_contract(IERC20)538"
					},
					{
						"astId": 557,
						"contract": "SnipeFinanceMultisenders (2)/SnipeFinanceMultisenders/SnipeFinanceMultisenders_flattened.sol:SnipeFinanceMultisenders",
						"label": "quantity",
						"offset": 0,
						"slot": "5",
						"type": "t_uint256"
					}
				],
				"types": {
					"t_address": {
						"encoding": "inplace",
						"label": "address",
						"numberOfBytes": "20"
					},
					"t_address_payable": {
						"encoding": "inplace",
						"label": "address payable",
						"numberOfBytes": "20"
					},
					"t_bool": {
						"encoding": "inplace",
						"label": "bool",
						"numberOfBytes": "1"
					},
					"t_contract(IERC20)538": {
						"encoding": "inplace",
						"label": "contract IERC20",
						"numberOfBytes": "20"
					},
					"t_mapping(t_address,t_bool)": {
						"encoding": "mapping",
						"key": "t_address",
						"label": "mapping(address => bool)",
						"numberOfBytes": "32",
						"value": "t_bool"
					},
					"t_uint256": {
						"encoding": "inplace",
						"label": "uint256",
						"numberOfBytes": "32"
					}
				}
			},
			"userdoc": {
				"kind": "user",
				"methods": {},
				"version": 1
			}
		}
	}
}