{
	"SnipeFinanceMultisenders (2)/SnipeFinanceMultisenders/SnipeFinanceMultisenders.sol": {
		"SnipeFinanceMultisenders": {
			"abi": [
				{
					"inputs": [],
					"stateMutability": "nonpayable",
					"type": "constructor"
				},
				{
					"anonymous": false,
					"inputs": [
						{
							"indexed": true,
							"internalType": "address",
							"name": "previousOwner",
							"type": "address"
						},
						{
							"indexed": true,
							"internalType": "address",
							"name": "newOwner",
							"type": "address"
						}
					],
					"name": "OwnershipTransferred",
					"type": "event"
				},
				{
					"inputs": [
						{
							"internalType": "contract IERC20",
							"name": "token",
							"type": "address"
						},
						{
							"internalType": "uint256",
							"name": "_amount",
							"type": "uint256"
						}
					],
					"name": "SetTokenToholdAndQuantity",
					"outputs": [],
					"stateMutability": "nonpayable",
					"type": "function"
				},
				{
					"inputs": [
						{
							"internalType": "contract ICustomERC20",
							"name": "token",
							"type": "address"
						},
						{
							"internalType": "address[]",
							"name": "recipients",
							"type": "address[]"
						},
						{
							"internalType": "uint256[]",
							"name": "values",
							"type": "uint256[]"
						}
					],
					"name": "TOKENmultisender",
					"outputs": [],
					"stateMutability": "payable",
					"type": "function"
				},
				{
					"inputs": [
						{
							"internalType": "address",
							"name": "user",
							"type": "address"
						}
					],
					"name": "authorizeUser",
					"outputs": [],
					"stateMutability": "nonpayable",
					"type": "function"
				},
				{
					"inputs": [
						{
							"internalType": "address",
							"name": "",
							"type": "address"
						}
					],
					"name": "authorizedusers",
					"outputs": [
						{
							"internalType": "bool",
							"name": "",
							"type": "bool"
						}
					],
					"stateMutability": "view",
					"type": "function"
				},
				{
					"inputs": [
						{
							"internalType": "address[]",
							"name": "recipients",
							"type": "address[]"
						},
						{
							"internalType": "uint256[]",
							"name": "values",
							"type": "uint256[]"
						}
					],
					"name": "coinMultisender",
					"outputs": [],
					"stateMutability": "payable",
					"type": "function"
				},
				{
					"inputs": [],
					"name": "contractBalance",
					"outputs": [
						{
							"internalType": "uint256",
							"name": "",
							"type": "uint256"
						}
					],
					"stateMutability": "view",
					"type": "function"
				},
				{
					"inputs": [],
					"name": "fee",
					"outputs": [
						{
							"internalType": "uint256",
							"name": "",
							"type": "uint256"
						}
					],
					"stateMutability": "view",
					"type": "function"
				},
				{
					"inputs": [
						{
							"internalType": "contract ICustomERC20",
							"name": "token",
							"type": "address"
						}
					],
					"name": "fetchDecimals",
					"outputs": [
						{
							"internalType": "uint256",
							"name": "",
							"type": "uint256"
						}
					],
					"stateMutability": "view",
					"type": "function"
				},
				{
					"inputs": [],
					"name": "owner",
					"outputs": [
						{
							"internalType": "address",
							"name": "",
							"type": "address"
						}
					],
					"stateMutability": "view",
					"type": "function"
				},
				{
					"inputs": [],
					"name": "quantity",
					"outputs": [
						{
							"internalType": "uint256",
							"name": "",
							"type": "uint256"
						}
					],
					"stateMutability": "view",
					"type": "function"
				},
				{
					"inputs": [],
					"name": "receiver",
					"outputs": [
						{
							"internalType": "address payable",
							"name": "",
							"type": "address"
						}
					],
					"stateMutability": "view",
					"type": "function"
				},
				{
					"inputs": [],
					"name": "renounceOwnership",
					"outputs": [],
					"stateMutability": "nonpayable",
					"type": "function"
				},
				{
					"inputs": [
						{
							"internalType": "uint256",
							"name": "newfee",
							"type": "uint256"
						},
						{
							"internalType": "address",
							"name": "_receiver",
							"type": "address"
						}
					],
					"name": "setfeeToUse",
					"outputs": [],
					"stateMutability": "nonpayable",
					"type": "function"
				},
				{
					"inputs": [],
					"name": "tokenAddress",
					"outputs": [
						{
							"internalType": "contract IERC20",
							"name": "",
							"type": "address"
						}
					],
					"stateMutability": "view",
					"type": "function"
				},
				{
					"inputs": [
						{
							"internalType": "address",
							"name": "newOwner",
							"type": "address"
						}
					],
					"name": "transferOwnership",
					"outputs": [],
					"stateMutability": "nonpayable",
					"type": "function"
				},
				{
					"inputs": [
						{
							"internalType": "address",
							"name": "user",
							"type": "address"
						}
					],
					"name": "unauthorizeUser",
					"outputs": [],
					"stateMutability": "nonpayable",
					"type": "function"
				},
				{
					"inputs": [
						{
							"internalType": "uint256",
							"name": "amount",
							"type": "uint256"
						}
					],
					"name": "withdrawCoins",
					"outputs": [],
					"stateMutability": "nonpayable",
					"type": "function"
				},
				{
					"inputs": [
						{
							"internalType": "contract IERC20",
							"name": "token",
							"type": "address"
						},
						{
							"internalType": "uint256",
							"name": "amount",
							"type": "uint256"
						}
					],
					"name": "withdrawToken",
					"outputs": [],
					"stateMutability": "nonpayable",
					"type": "function"
				},
				{
					"stateMutability": "payable",
					"type": "receive"
				}
			],
			"devdoc": {
				"kind": "dev",
				"methods": {
					"owner()": {
						"details": "Returns the address of the current owner."
					},
					"renounceOwnership()": {
						"details": "Leaves the contract without owner. It will not be possible to call `onlyOwner` functions. Can only be called by the current owner. NOTE: Renouncing ownership will leave the contract without an owner, thereby disabling any functionality that is only available to the owner."
					},
					"transferOwnership(address)": {
						"details": "Transfers ownership of the contract to a new account (`newOwner`). Can only be called by the current owner."
					}
				},
				"version": 1
			},
			"evm": {
				"assembly": "    /* \"SnipeFinanceMultisenders (2)/SnipeFinanceMultisenders/SnipeFinanceMultisenders.sol\":468:7073  contract SnipeFinanceMultisenders is Ownable {... */\n  mstore(0x40, 0x80)\n    /* \"SnipeFinanceMultisenders (2)/SnipeFinanceMultisenders/SnipeFinanceMultisenders.sol\":859:943  constructor() {... */\n  callvalue\n  dup1\n  iszero\n  tag_1\n  jumpi\n  0x00\n  dup1\n  revert\ntag_1:\n  pop\n    /* \"@openzeppelin/contracts/access/Ownable.sol\":936:968  _transferOwnership(_msgSender()) */\n  tag_5\n    /* \"@openzeppelin/contracts/access/Ownable.sol\":955:967  _msgSender() */\n  tag_6\n    /* \"@openzeppelin/contracts/access/Ownable.sol\":955:965  _msgSender */\n  shl(0x20, tag_7)\n    /* \"@openzeppelin/contracts/access/Ownable.sol\":955:967  _msgSender() */\n  0x20\n  shr\n  jump\t// in\ntag_6:\n    /* \"@openzeppelin/contracts/access/Ownable.sol\":936:954  _transferOwnership */\n  shl(0x20, tag_8)\n    /* \"@openzeppelin/contracts/access/Ownable.sol\":936:968  _transferOwnership(_msgSender()) */\n  0x20\n  shr\n  jump\t// in\ntag_5:\n    /* \"SnipeFinanceMultisenders (2)/SnipeFinanceMultisenders/SnipeFinanceMultisenders.sol\":902:909  owner() */\n  tag_10\n    /* \"SnipeFinanceMultisenders (2)/SnipeFinanceMultisenders/SnipeFinanceMultisenders.sol\":902:907  owner */\n  shl(0x20, tag_11)\n    /* \"SnipeFinanceMultisenders (2)/SnipeFinanceMultisenders/SnipeFinanceMultisenders.sol\":902:909  owner() */\n  0x20\n  shr\n  jump\t// in\ntag_10:\n    /* \"SnipeFinanceMultisenders (2)/SnipeFinanceMultisenders/SnipeFinanceMultisenders.sol\":883:891  receiver */\n  0x02\n  0x00\n    /* \"SnipeFinanceMultisenders (2)/SnipeFinanceMultisenders/SnipeFinanceMultisenders.sol\":883:910  receiver = payable(owner()) */\n  0x0100\n  exp\n  dup2\n  sload\n  dup2\n  0xffffffffffffffffffffffffffffffffffffffff\n  mul\n  not\n  and\n  swap1\n  dup4\n  0xffffffffffffffffffffffffffffffffffffffff\n  and\n  mul\n  or\n  swap1\n  sstore\n  pop\n    /* \"SnipeFinanceMultisenders (2)/SnipeFinanceMultisenders/SnipeFinanceMultisenders.sol\":926:936  1 * 10**14 */\n  0x5af3107a4000\n    /* \"SnipeFinanceMultisenders (2)/SnipeFinanceMultisenders/SnipeFinanceMultisenders.sol\":920:923  fee */\n  0x01\n    /* \"SnipeFinanceMultisenders (2)/SnipeFinanceMultisenders/SnipeFinanceMultisenders.sol\":920:936  fee = 1 * 10**14 */\n  dup2\n  swap1\n  sstore\n  pop\n    /* \"SnipeFinanceMultisenders (2)/SnipeFinanceMultisenders/SnipeFinanceMultisenders.sol\":468:7073  contract SnipeFinanceMultisenders is Ownable {... */\n  jump(tag_12)\n    /* \"@openzeppelin/contracts/utils/Context.sol\":640:736  function _msgSender() internal view virtual returns (address) {... */\ntag_7:\n    /* \"@openzeppelin/contracts/utils/Context.sol\":693:700  address */\n  0x00\n    /* \"@openzeppelin/contracts/utils/Context.sol\":719:729  msg.sender */\n  caller\n    /* \"@openzeppelin/contracts/utils/Context.sol\":712:729  return msg.sender */\n  swap1\n  pop\n    /* \"@openzeppelin/contracts/utils/Context.sol\":640:736  function _msgSender() internal view virtual returns (address) {... */\n  swap1\n  jump\t// out\n    /* \"@openzeppelin/contracts/access/Ownable.sol\":2426:2613  function _transferOwnership(address newOwner) internal virtual {... */\ntag_8:\n    /* \"@openzeppelin/contracts/access/Ownable.sol\":2499:2515  address oldOwner */\n  0x00\n    /* \"@openzeppelin/contracts/access/Ownable.sol\":2518:2524  _owner */\n  dup1\n  0x00\n  swap1\n  sload\n  swap1\n  0x0100\n  exp\n  swap1\n  div\n  0xffffffffffffffffffffffffffffffffffffffff\n  and\n    /* \"@openzeppelin/contracts/access/Ownable.sol\":2499:2524  address oldOwner = _owner */\n  swap1\n  pop\n    /* \"@openzeppelin/contracts/access/Ownable.sol\":2543:2551  newOwner */\n  dup2\n    /* \"@openzeppelin/contracts/access/Ownable.sol\":2534:2540  _owner */\n  0x00\n  dup1\n    /* \"@openzeppelin/contracts/access/Ownable.sol\":2534:2551  _owner = newOwner */\n  0x0100\n  exp\n  dup2\n  sload\n  dup2\n  0xffffffffffffffffffffffffffffffffffffffff\n  mul\n  not\n  and\n  swap1\n  dup4\n  0xffffffffffffffffffffffffffffffffffffffff\n  and\n  mul\n  or\n  swap1\n  sstore\n  pop\n    /* \"@openzeppelin/contracts/access/Ownable.sol\":2597:2605  newOwner */\n  dup2\n    /* \"@openzeppelin/contracts/access/Ownable.sol\":2566:2606  OwnershipTransferred(oldOwner, newOwner) */\n  0xffffffffffffffffffffffffffffffffffffffff\n  and\n    /* \"@openzeppelin/contracts/access/Ownable.sol\":2587:2595  oldOwner */\n  dup2\n    /* \"@openzeppelin/contracts/access/Ownable.sol\":2566:2606  OwnershipTransferred(oldOwner, newOwner) */\n  0xffffffffffffffffffffffffffffffffffffffff\n  and\n  0x8be0079c531659141344cd1fd0a4f28419497f9722a3daafe3b4186f6b6457e0\n  mload(0x40)\n  mload(0x40)\n  dup1\n  swap2\n  sub\n  swap1\n  log3\n    /* \"@openzeppelin/contracts/access/Ownable.sol\":2489:2613  {... */\n  pop\n    /* \"@openzeppelin/contracts/access/Ownable.sol\":2426:2613  function _transferOwnership(address newOwner) internal virtual {... */\n  pop\n  jump\t// out\n    /* \"@openzeppelin/contracts/access/Ownable.sol\":1201:1286  function owner() public view virtual returns (address) {... */\ntag_11:\n    /* \"@openzeppelin/contracts/access/Ownable.sol\":1247:1254  address */\n  0x00\n    /* \"@openzeppelin/contracts/access/Ownable.sol\":1273:1279  _owner */\n  dup1\n  0x00\n  swap1\n  sload\n  swap1\n  0x0100\n  exp\n  swap1\n  div\n  0xffffffffffffffffffffffffffffffffffffffff\n  and\n    /* \"@openzeppelin/contracts/access/Ownable.sol\":1266:1279  return _owner */\n  swap1\n  pop\n    /* \"@openzeppelin/contracts/access/Ownable.sol\":1201:1286  function owner() public view virtual returns (address) {... */\n  swap1\n  jump\t// out\n    /* \"SnipeFinanceMultisenders (2)/SnipeFinanceMultisenders/SnipeFinanceMultisenders.sol\":468:7073  contract SnipeFinanceMultisenders is Ownable {... */\ntag_12:\n  dataSize(sub_0)\n  dup1\n  dataOffset(sub_0)\n  0x00\n  codecopy\n  0x00\n  return\nstop\n\nsub_0: assembly {\n        /* \"SnipeFinanceMultisenders (2)/SnipeFinanceMultisenders/SnipeFinanceMultisenders.sol\":468:7073  contract SnipeFinanceMultisenders is Ownable {... */\n      mstore(0x40, 0x80)\n      jumpi(tag_1, lt(calldatasize, 0x04))\n      shr(0xe0, calldataload(0x00))\n      dup1\n      0x8da5cb5b\n      gt\n      tag_21\n      jumpi\n      dup1\n      0xd908e6ce\n      gt\n      tag_22\n      jumpi\n      dup1\n      0xd908e6ce\n      eq\n      tag_16\n      jumpi\n      dup1\n      0xddca3f43\n      eq\n      tag_17\n      jumpi\n      dup1\n      0xf2fde38b\n      eq\n      tag_18\n      jumpi\n      dup1\n      0xf7260d3e\n      eq\n      tag_19\n      jumpi\n      dup1\n      0xf9f95a0f\n      eq\n      tag_20\n      jumpi\n      jump(tag_2)\n    tag_22:\n      dup1\n      0x8da5cb5b\n      eq\n      tag_12\n      jumpi\n      dup1\n      0x9cbd3433\n      eq\n      tag_13\n      jumpi\n      dup1\n      0x9d76ea58\n      eq\n      tag_14\n      jumpi\n      dup1\n      0x9e281a98\n      eq\n      tag_15\n      jumpi\n      jump(tag_2)\n    tag_21:\n      dup1\n      0x44b6209d\n      gt\n      tag_23\n      jumpi\n      dup1\n      0x44b6209d\n      eq\n      tag_7\n      jumpi\n      dup1\n      0x478aa69e\n      eq\n      tag_8\n      jumpi\n      dup1\n      0x67c2a360\n      eq\n      tag_9\n      jumpi\n      dup1\n      0x715018a6\n      eq\n      tag_10\n      jumpi\n      dup1\n      0x8b7afe2e\n      eq\n      tag_11\n      jumpi\n      jump(tag_2)\n    tag_23:\n      dup1\n      0x126ccd94\n      eq\n      tag_3\n      jumpi\n      dup1\n      0x17fc45e2\n      eq\n      tag_4\n      jumpi\n      dup1\n      0x20ac1e29\n      eq\n      tag_5\n      jumpi\n      dup1\n      0x2fc75eb0\n      eq\n      tag_6\n      jumpi\n      jump(tag_2)\n    tag_1:\n      jumpi(tag_2, calldatasize)\n      stop\n    tag_2:\n      0x00\n      dup1\n      revert\n        /* \"SnipeFinanceMultisenders (2)/SnipeFinanceMultisenders/SnipeFinanceMultisenders.sol\":4979:5122  function setfeeToUse(uint256 newfee, address _receiver) external onlyOwner {... */\n    tag_3:\n      callvalue\n      dup1\n      iszero\n      tag_26\n      jumpi\n      0x00\n      dup1\n      revert\n    tag_26:\n      pop\n      tag_27\n      0x04\n      dup1\n      calldatasize\n      sub\n      dup2\n      add\n      swap1\n      tag_28\n      swap2\n      swap1\n      tag_29\n      jump\t// in\n    tag_28:\n      tag_30\n      jump\t// in\n    tag_27:\n      stop\n        /* \"SnipeFinanceMultisenders (2)/SnipeFinanceMultisenders/SnipeFinanceMultisenders.sol\":769:792  uint256 public quantity */\n    tag_4:\n      callvalue\n      dup1\n      iszero\n      tag_31\n      jumpi\n      0x00\n      dup1\n      revert\n    tag_31:\n      pop\n      tag_32\n      tag_33\n      jump\t// in\n    tag_32:\n      mload(0x40)\n      tag_34\n      swap2\n      swap1\n      tag_35\n      jump\t// in\n    tag_34:\n      mload(0x40)\n      dup1\n      swap2\n      sub\n      swap1\n      return\n        /* \"SnipeFinanceMultisenders (2)/SnipeFinanceMultisenders/SnipeFinanceMultisenders.sol\":6819:6986  function fetchDecimals(ICustomERC20 token) public view returns (uint256) {... */\n    tag_5:\n      callvalue\n      dup1\n      iszero\n      tag_36\n      jumpi\n      0x00\n      dup1\n      revert\n    tag_36:\n      pop\n      tag_37\n      0x04\n      dup1\n      calldatasize\n      sub\n      dup2\n      add\n      swap1\n      tag_38\n      swap2\n      swap1\n      tag_39\n      jump\t// in\n    tag_38:\n      tag_40\n      jump\t// in\n    tag_37:\n      mload(0x40)\n      tag_41\n      swap2\n      swap1\n      tag_35\n      jump\t// in\n    tag_41:\n      mload(0x40)\n      dup1\n      swap2\n      sub\n      swap1\n      return\n        /* \"SnipeFinanceMultisenders (2)/SnipeFinanceMultisenders/SnipeFinanceMultisenders.sol\":5708:5878  function SetTokenToholdAndQuantity(IERC20 token, uint256 _amount)... */\n    tag_6:\n      callvalue\n      dup1\n      iszero\n      tag_42\n      jumpi\n      0x00\n      dup1\n      revert\n    tag_42:\n      pop\n      tag_43\n      0x04\n      dup1\n      calldatasize\n      sub\n      dup2\n      add\n      swap1\n      tag_44\n      swap2\n      swap1\n      tag_45\n      jump\t// in\n    tag_44:\n      tag_46\n      jump\t// in\n    tag_43:\n      stop\n        /* \"SnipeFinanceMultisenders (2)/SnipeFinanceMultisenders/SnipeFinanceMultisenders.sol\":637:684  mapping(address => bool) public authorizedusers */\n    tag_7:\n      callvalue\n      dup1\n      iszero\n      tag_47\n      jumpi\n      0x00\n      dup1\n      revert\n    tag_47:\n      pop\n      tag_48\n      0x04\n      dup1\n      calldatasize\n      sub\n      dup2\n      add\n      swap1\n      tag_49\n      swap2\n      swap1\n      tag_50\n      jump\t// in\n    tag_49:\n      tag_51\n      jump\t// in\n    tag_48:\n      mload(0x40)\n      tag_52\n      swap2\n      swap1\n      tag_53\n      jump\t// in\n    tag_52:\n      mload(0x40)\n      dup1\n      swap2\n      sub\n      swap1\n      return\n        /* \"SnipeFinanceMultisenders (2)/SnipeFinanceMultisenders/SnipeFinanceMultisenders.sol\":5480:5664  function unauthorizeUser(address user) external onlyOwner {... */\n    tag_8:\n      callvalue\n      dup1\n      iszero\n      tag_54\n      jumpi\n      0x00\n      dup1\n      revert\n    tag_54:\n      pop\n      tag_55\n      0x04\n      dup1\n      calldatasize\n      sub\n      dup2\n      add\n      swap1\n      tag_56\n      swap2\n      swap1\n      tag_50\n      jump\t// in\n    tag_56:\n      tag_57\n      jump\t// in\n    tag_55:\n      stop\n        /* \"SnipeFinanceMultisenders (2)/SnipeFinanceMultisenders/SnipeFinanceMultisenders.sol\":5211:5391  function authorizeUser(address user) external onlyOwner {... */\n    tag_9:\n      callvalue\n      dup1\n      iszero\n      tag_58\n      jumpi\n      0x00\n      dup1\n      revert\n    tag_58:\n      pop\n      tag_59\n      0x04\n      dup1\n      calldatasize\n      sub\n      dup2\n      add\n      swap1\n      tag_60\n      swap2\n      swap1\n      tag_50\n      jump\t// in\n    tag_60:\n      tag_61\n      jump\t// in\n    tag_59:\n      stop\n        /* \"@openzeppelin/contracts/access/Ownable.sol\":1824:1925  function renounceOwnership() public virtual onlyOwner {... */\n    tag_10:\n      callvalue\n      dup1\n      iszero\n      tag_62\n      jumpi\n      0x00\n      dup1\n      revert\n    tag_62:\n      pop\n      tag_63\n      tag_64\n      jump\t// in\n    tag_63:\n      stop\n        /* \"SnipeFinanceMultisenders (2)/SnipeFinanceMultisenders/SnipeFinanceMultisenders.sol\":6629:6739  function contractBalance() public view onlyOwner returns(uint256){... */\n    tag_11:\n      callvalue\n      dup1\n      iszero\n      tag_65\n      jumpi\n      0x00\n      dup1\n      revert\n    tag_65:\n      pop\n      tag_66\n      tag_67\n      jump\t// in\n    tag_66:\n      mload(0x40)\n      tag_68\n      swap2\n      swap1\n      tag_35\n      jump\t// in\n    tag_68:\n      mload(0x40)\n      dup1\n      swap2\n      sub\n      swap1\n      return\n        /* \"@openzeppelin/contracts/access/Ownable.sol\":1201:1286  function owner() public view virtual returns (address) {... */\n    tag_12:\n      callvalue\n      dup1\n      iszero\n      tag_69\n      jumpi\n      0x00\n      dup1\n      revert\n    tag_69:\n      pop\n      tag_70\n      tag_71\n      jump\t// in\n    tag_70:\n      mload(0x40)\n      tag_72\n      swap2\n      swap1\n      tag_73\n      jump\t// in\n    tag_72:\n      mload(0x40)\n      dup1\n      swap2\n      sub\n      swap1\n      return\n        /* \"SnipeFinanceMultisenders (2)/SnipeFinanceMultisenders/SnipeFinanceMultisenders.sol\":2850:4920  function TOKENmultisender(... */\n    tag_13:\n      tag_74\n      0x04\n      dup1\n      calldatasize\n      sub\n      dup2\n      add\n      swap1\n      tag_75\n      swap2\n      swap1\n      tag_76\n      jump\t// in\n    tag_75:\n      tag_77\n      jump\t// in\n    tag_74:\n      stop\n        /* \"SnipeFinanceMultisenders (2)/SnipeFinanceMultisenders/SnipeFinanceMultisenders.sol\":690:716  IERC20 public tokenAddress */\n    tag_14:\n      callvalue\n      dup1\n      iszero\n      tag_78\n      jumpi\n      0x00\n      dup1\n      revert\n    tag_78:\n      pop\n      tag_79\n      tag_80\n      jump\t// in\n    tag_79:\n      mload(0x40)\n      tag_81\n      swap2\n      swap1\n      tag_82\n      jump\t// in\n    tag_81:\n      mload(0x40)\n      dup1\n      swap2\n      sub\n      swap1\n      return\n        /* \"SnipeFinanceMultisenders (2)/SnipeFinanceMultisenders/SnipeFinanceMultisenders.sol\":6337:6591  function withdrawToken(IERC20 token, uint256 amount) public onlyOwner {... */\n    tag_15:\n      callvalue\n      dup1\n      iszero\n      tag_83\n      jumpi\n      0x00\n      dup1\n      revert\n    tag_83:\n      pop\n      tag_84\n      0x04\n      dup1\n      calldatasize\n      sub\n      dup2\n      add\n      swap1\n      tag_85\n      swap2\n      swap1\n      tag_45\n      jump\t// in\n    tag_85:\n      tag_86\n      jump\t// in\n    tag_84:\n      stop\n        /* \"SnipeFinanceMultisenders (2)/SnipeFinanceMultisenders/SnipeFinanceMultisenders.sol\":1172:2844  function coinMultisender(... */\n    tag_16:\n      tag_87\n      0x04\n      dup1\n      calldatasize\n      sub\n      dup2\n      add\n      swap1\n      tag_88\n      swap2\n      swap1\n      tag_89\n      jump\t// in\n    tag_88:\n      tag_90\n      jump\t// in\n    tag_87:\n      stop\n        /* \"SnipeFinanceMultisenders (2)/SnipeFinanceMultisenders/SnipeFinanceMultisenders.sol\":550:568  uint256 public fee */\n    tag_17:\n      callvalue\n      dup1\n      iszero\n      tag_91\n      jumpi\n      0x00\n      dup1\n      revert\n    tag_91:\n      pop\n      tag_92\n      tag_93\n      jump\t// in\n    tag_92:\n      mload(0x40)\n      tag_94\n      swap2\n      swap1\n      tag_35\n      jump\t// in\n    tag_94:\n      mload(0x40)\n      dup1\n      swap2\n      sub\n      swap1\n      return\n        /* \"@openzeppelin/contracts/access/Ownable.sol\":2074:2272  function transferOwnership(address newOwner) public virtual onlyOwner {... */\n    tag_18:\n      callvalue\n      dup1\n      iszero\n      tag_95\n      jumpi\n      0x00\n      dup1\n      revert\n    tag_95:\n      pop\n      tag_96\n      0x04\n      dup1\n      calldatasize\n      sub\n      dup2\n      add\n      swap1\n      tag_97\n      swap2\n      swap1\n      tag_50\n      jump\t// in\n    tag_97:\n      tag_98\n      jump\t// in\n    tag_96:\n      stop\n        /* \"SnipeFinanceMultisenders (2)/SnipeFinanceMultisenders/SnipeFinanceMultisenders.sol\":574:605  address payable public receiver */\n    tag_19:\n      callvalue\n      dup1\n      iszero\n      tag_99\n      jumpi\n      0x00\n      dup1\n      revert\n    tag_99:\n      pop\n      tag_100\n      tag_101\n      jump\t// in\n    tag_100:\n      mload(0x40)\n      tag_102\n      swap2\n      swap1\n      tag_103\n      jump\t// in\n    tag_102:\n      mload(0x40)\n      dup1\n      swap2\n      sub\n      swap1\n      return\n        /* \"SnipeFinanceMultisenders (2)/SnipeFinanceMultisenders/SnipeFinanceMultisenders.sol\":6057:6249  function withdrawCoins(uint256 amount) external onlyOwner {... */\n    tag_20:\n      callvalue\n      dup1\n      iszero\n      tag_104\n      jumpi\n      0x00\n      dup1\n      revert\n    tag_104:\n      pop\n      tag_105\n      0x04\n      dup1\n      calldatasize\n      sub\n      dup2\n      add\n      swap1\n      tag_106\n      swap2\n      swap1\n      tag_107\n      jump\t// in\n    tag_106:\n      tag_108\n      jump\t// in\n    tag_105:\n      stop\n        /* \"SnipeFinanceMultisenders (2)/SnipeFinanceMultisenders/SnipeFinanceMultisenders.sol\":4979:5122  function setfeeToUse(uint256 newfee, address _receiver) external onlyOwner {... */\n    tag_30:\n        /* \"@openzeppelin/contracts/access/Ownable.sol\":1094:1107  _checkOwner() */\n      tag_110\n        /* \"@openzeppelin/contracts/access/Ownable.sol\":1094:1105  _checkOwner */\n      tag_111\n        /* \"@openzeppelin/contracts/access/Ownable.sol\":1094:1107  _checkOwner() */\n      jump\t// in\n    tag_110:\n        /* \"SnipeFinanceMultisenders (2)/SnipeFinanceMultisenders/SnipeFinanceMultisenders.sol\":5070:5076  newfee */\n      dup2\n        /* \"SnipeFinanceMultisenders (2)/SnipeFinanceMultisenders/SnipeFinanceMultisenders.sol\":5064:5067  fee */\n      0x01\n        /* \"SnipeFinanceMultisenders (2)/SnipeFinanceMultisenders/SnipeFinanceMultisenders.sol\":5064:5076  fee = newfee */\n      dup2\n      swap1\n      sstore\n      pop\n        /* \"SnipeFinanceMultisenders (2)/SnipeFinanceMultisenders/SnipeFinanceMultisenders.sol\":5105:5114  _receiver */\n      dup1\n        /* \"SnipeFinanceMultisenders (2)/SnipeFinanceMultisenders/SnipeFinanceMultisenders.sol\":5086:5094  receiver */\n      0x02\n      0x00\n        /* \"SnipeFinanceMultisenders (2)/SnipeFinanceMultisenders/SnipeFinanceMultisenders.sol\":5086:5115  receiver = payable(_receiver) */\n      0x0100\n      exp\n      dup2\n      sload\n      dup2\n      0xffffffffffffffffffffffffffffffffffffffff\n      mul\n      not\n      and\n      swap1\n      dup4\n      0xffffffffffffffffffffffffffffffffffffffff\n      and\n      mul\n      or\n      swap1\n      sstore\n      pop\n        /* \"SnipeFinanceMultisenders (2)/SnipeFinanceMultisenders/SnipeFinanceMultisenders.sol\":4979:5122  function setfeeToUse(uint256 newfee, address _receiver) external onlyOwner {... */\n      pop\n      pop\n      jump\t// out\n        /* \"SnipeFinanceMultisenders (2)/SnipeFinanceMultisenders/SnipeFinanceMultisenders.sol\":769:792  uint256 public quantity */\n    tag_33:\n      sload(0x05)\n      dup2\n      jump\t// out\n        /* \"SnipeFinanceMultisenders (2)/SnipeFinanceMultisenders/SnipeFinanceMultisenders.sol\":6819:6986  function fetchDecimals(ICustomERC20 token) public view returns (uint256) {... */\n    tag_40:\n        /* \"SnipeFinanceMultisenders (2)/SnipeFinanceMultisenders/SnipeFinanceMultisenders.sol\":6883:6890  uint256 */\n      0x00\n        /* \"SnipeFinanceMultisenders (2)/SnipeFinanceMultisenders/SnipeFinanceMultisenders.sol\":6963:6968  token */\n      dup2\n        /* \"SnipeFinanceMultisenders (2)/SnipeFinanceMultisenders/SnipeFinanceMultisenders.sol\":6963:6977  token.decimals */\n      0xffffffffffffffffffffffffffffffffffffffff\n      and\n      0x313ce567\n        /* \"SnipeFinanceMultisenders (2)/SnipeFinanceMultisenders/SnipeFinanceMultisenders.sol\":6963:6979  token.decimals() */\n      mload(0x40)\n      dup2\n      0xffffffff\n      and\n      0xe0\n      shl\n      dup2\n      mstore\n      0x04\n      add\n      0x20\n      mload(0x40)\n      dup1\n      dup4\n      sub\n      dup2\n      dup7\n      gas\n      staticcall\n      iszero\n      dup1\n      iszero\n      tag_115\n      jumpi\n      returndatasize\n      0x00\n      dup1\n      returndatacopy\n      revert(0x00, returndatasize)\n    tag_115:\n      pop\n      pop\n      pop\n      pop\n      mload(0x40)\n      returndatasize\n      not(0x1f)\n      0x1f\n      dup3\n      add\n      and\n      dup3\n      add\n      dup1\n      0x40\n      mstore\n      pop\n      dup2\n      add\n      swap1\n      tag_116\n      swap2\n      swap1\n      tag_117\n      jump\t// in\n    tag_116:\n        /* \"SnipeFinanceMultisenders (2)/SnipeFinanceMultisenders/SnipeFinanceMultisenders.sol\":6956:6979  return token.decimals() */\n      swap1\n      pop\n        /* \"SnipeFinanceMultisenders (2)/SnipeFinanceMultisenders/SnipeFinanceMultisenders.sol\":6819:6986  function fetchDecimals(ICustomERC20 token) public view returns (uint256) {... */\n      swap2\n      swap1\n      pop\n      jump\t// out\n        /* \"SnipeFinanceMultisenders (2)/SnipeFinanceMultisenders/SnipeFinanceMultisenders.sol\":5708:5878  function SetTokenToholdAndQuantity(IERC20 token, uint256 _amount)... */\n    tag_46:\n        /* \"@openzeppelin/contracts/access/Ownable.sol\":1094:1107  _checkOwner() */\n      tag_119\n        /* \"@openzeppelin/contracts/access/Ownable.sol\":1094:1105  _checkOwner */\n      tag_111\n        /* \"@openzeppelin/contracts/access/Ownable.sol\":1094:1107  _checkOwner() */\n      jump\t// in\n    tag_119:\n        /* \"SnipeFinanceMultisenders (2)/SnipeFinanceMultisenders/SnipeFinanceMultisenders.sol\":5838:5843  token */\n      dup2\n        /* \"SnipeFinanceMultisenders (2)/SnipeFinanceMultisenders/SnipeFinanceMultisenders.sol\":5823:5835  tokenAddress */\n      0x04\n      0x00\n        /* \"SnipeFinanceMultisenders (2)/SnipeFinanceMultisenders/SnipeFinanceMultisenders.sol\":5823:5843  tokenAddress = token */\n      0x0100\n      exp\n      dup2\n      sload\n      dup2\n      0xffffffffffffffffffffffffffffffffffffffff\n      mul\n      not\n      and\n      swap1\n      dup4\n      0xffffffffffffffffffffffffffffffffffffffff\n      and\n      mul\n      or\n      swap1\n      sstore\n      pop\n        /* \"SnipeFinanceMultisenders (2)/SnipeFinanceMultisenders/SnipeFinanceMultisenders.sol\":5864:5871  _amount */\n      dup1\n        /* \"SnipeFinanceMultisenders (2)/SnipeFinanceMultisenders/SnipeFinanceMultisenders.sol\":5853:5861  quantity */\n      0x05\n        /* \"SnipeFinanceMultisenders (2)/SnipeFinanceMultisenders/SnipeFinanceMultisenders.sol\":5853:5871  quantity = _amount */\n      dup2\n      swap1\n      sstore\n      pop\n        /* \"SnipeFinanceMultisenders (2)/SnipeFinanceMultisenders/SnipeFinanceMultisenders.sol\":5708:5878  function SetTokenToholdAndQuantity(IERC20 token, uint256 _amount)... */\n      pop\n      pop\n      jump\t// out\n        /* \"SnipeFinanceMultisenders (2)/SnipeFinanceMultisenders/SnipeFinanceMultisenders.sol\":637:684  mapping(address => bool) public authorizedusers */\n    tag_51:\n      mstore(0x20, 0x03)\n      dup1\n      0x00\n      mstore\n      keccak256(0x00, 0x40)\n      0x00\n      swap2\n      pop\n      sload\n      swap1\n      0x0100\n      exp\n      swap1\n      div\n      0xff\n      and\n      dup2\n      jump\t// out\n        /* \"SnipeFinanceMultisenders (2)/SnipeFinanceMultisenders/SnipeFinanceMultisenders.sol\":5480:5664  function unauthorizeUser(address user) external onlyOwner {... */\n    tag_57:\n        /* \"@openzeppelin/contracts/access/Ownable.sol\":1094:1107  _checkOwner() */\n      tag_122\n        /* \"@openzeppelin/contracts/access/Ownable.sol\":1094:1105  _checkOwner */\n      tag_111\n        /* \"@openzeppelin/contracts/access/Ownable.sol\":1094:1107  _checkOwner() */\n      jump\t// in\n    tag_122:\n        /* \"SnipeFinanceMultisenders (2)/SnipeFinanceMultisenders/SnipeFinanceMultisenders.sol\":5581:5585  true */\n      0x01\n        /* \"SnipeFinanceMultisenders (2)/SnipeFinanceMultisenders/SnipeFinanceMultisenders.sol\":5556:5585  authorizedusers[user] == true */\n      iszero\n      iszero\n        /* \"SnipeFinanceMultisenders (2)/SnipeFinanceMultisenders/SnipeFinanceMultisenders.sol\":5556:5571  authorizedusers */\n      0x03\n        /* \"SnipeFinanceMultisenders (2)/SnipeFinanceMultisenders/SnipeFinanceMultisenders.sol\":5556:5577  authorizedusers[user] */\n      0x00\n        /* \"SnipeFinanceMultisenders (2)/SnipeFinanceMultisenders/SnipeFinanceMultisenders.sol\":5572:5576  user */\n      dup4\n        /* \"SnipeFinanceMultisenders (2)/SnipeFinanceMultisenders/SnipeFinanceMultisenders.sol\":5556:5577  authorizedusers[user] */\n      0xffffffffffffffffffffffffffffffffffffffff\n      and\n      0xffffffffffffffffffffffffffffffffffffffff\n      and\n      dup2\n      mstore\n      0x20\n      add\n      swap1\n      dup2\n      mstore\n      0x20\n      add\n      0x00\n      keccak256\n      0x00\n      swap1\n      sload\n      swap1\n      0x0100\n      exp\n      swap1\n      div\n      0xff\n      and\n        /* \"SnipeFinanceMultisenders (2)/SnipeFinanceMultisenders/SnipeFinanceMultisenders.sol\":5556:5585  authorizedusers[user] == true */\n      iszero\n      iszero\n      eq\n        /* \"SnipeFinanceMultisenders (2)/SnipeFinanceMultisenders/SnipeFinanceMultisenders.sol\":5548:5618  require(authorizedusers[user] == true, \"user is already unauthorized\") */\n      tag_124\n      jumpi\n      mload(0x40)\n      0x08c379a000000000000000000000000000000000000000000000000000000000\n      dup2\n      mstore\n      0x04\n      add\n      tag_125\n      swap1\n      tag_126\n      jump\t// in\n    tag_125:\n      mload(0x40)\n      dup1\n      swap2\n      sub\n      swap1\n      revert\n    tag_124:\n        /* \"SnipeFinanceMultisenders (2)/SnipeFinanceMultisenders/SnipeFinanceMultisenders.sol\":5652:5657  false */\n      0x00\n        /* \"SnipeFinanceMultisenders (2)/SnipeFinanceMultisenders/SnipeFinanceMultisenders.sol\":5628:5643  authorizedusers */\n      0x03\n        /* \"SnipeFinanceMultisenders (2)/SnipeFinanceMultisenders/SnipeFinanceMultisenders.sol\":5628:5649  authorizedusers[user] */\n      0x00\n        /* \"SnipeFinanceMultisenders (2)/SnipeFinanceMultisenders/SnipeFinanceMultisenders.sol\":5644:5648  user */\n      dup4\n        /* \"SnipeFinanceMultisenders (2)/SnipeFinanceMultisenders/SnipeFinanceMultisenders.sol\":5628:5649  authorizedusers[user] */\n      0xffffffffffffffffffffffffffffffffffffffff\n      and\n      0xffffffffffffffffffffffffffffffffffffffff\n      and\n      dup2\n      mstore\n      0x20\n      add\n      swap1\n      dup2\n      mstore\n      0x20\n      add\n      0x00\n      keccak256\n      0x00\n        /* \"SnipeFinanceMultisenders (2)/SnipeFinanceMultisenders/SnipeFinanceMultisenders.sol\":5628:5657  authorizedusers[user] = false */\n      0x0100\n      exp\n      dup2\n      sload\n      dup2\n      0xff\n      mul\n      not\n      and\n      swap1\n      dup4\n      iszero\n      iszero\n      mul\n      or\n      swap1\n      sstore\n      pop\n        /* \"SnipeFinanceMultisenders (2)/SnipeFinanceMultisenders/SnipeFinanceMultisenders.sol\":5480:5664  function unauthorizeUser(address user) external onlyOwner {... */\n      pop\n      jump\t// out\n        /* \"SnipeFinanceMultisenders (2)/SnipeFinanceMultisenders/SnipeFinanceMultisenders.sol\":5211:5391  function authorizeUser(address user) external onlyOwner {... */\n    tag_61:\n        /* \"@openzeppelin/contracts/access/Ownable.sol\":1094:1107  _checkOwner() */\n      tag_128\n        /* \"@openzeppelin/contracts/access/Ownable.sol\":1094:1105  _checkOwner */\n      tag_111\n        /* \"@openzeppelin/contracts/access/Ownable.sol\":1094:1107  _checkOwner() */\n      jump\t// in\n    tag_128:\n        /* \"SnipeFinanceMultisenders (2)/SnipeFinanceMultisenders/SnipeFinanceMultisenders.sol\":5310:5315  false */\n      0x00\n        /* \"SnipeFinanceMultisenders (2)/SnipeFinanceMultisenders/SnipeFinanceMultisenders.sol\":5285:5315  authorizedusers[user] == false */\n      iszero\n      iszero\n        /* \"SnipeFinanceMultisenders (2)/SnipeFinanceMultisenders/SnipeFinanceMultisenders.sol\":5285:5300  authorizedusers */\n      0x03\n        /* \"SnipeFinanceMultisenders (2)/SnipeFinanceMultisenders/SnipeFinanceMultisenders.sol\":5285:5306  authorizedusers[user] */\n      0x00\n        /* \"SnipeFinanceMultisenders (2)/SnipeFinanceMultisenders/SnipeFinanceMultisenders.sol\":5301:5305  user */\n      dup4\n        /* \"SnipeFinanceMultisenders (2)/SnipeFinanceMultisenders/SnipeFinanceMultisenders.sol\":5285:5306  authorizedusers[user] */\n      0xffffffffffffffffffffffffffffffffffffffff\n      and\n      0xffffffffffffffffffffffffffffffffffffffff\n      and\n      dup2\n      mstore\n      0x20\n      add\n      swap1\n      dup2\n      mstore\n      0x20\n      add\n      0x00\n      keccak256\n      0x00\n      swap1\n      sload\n      swap1\n      0x0100\n      exp\n      swap1\n      div\n      0xff\n      and\n        /* \"SnipeFinanceMultisenders (2)/SnipeFinanceMultisenders/SnipeFinanceMultisenders.sol\":5285:5315  authorizedusers[user] == false */\n      iszero\n      iszero\n      eq\n        /* \"SnipeFinanceMultisenders (2)/SnipeFinanceMultisenders/SnipeFinanceMultisenders.sol\":5277:5346  require(authorizedusers[user] == false, \"user is already authorized\") */\n      tag_130\n      jumpi\n      mload(0x40)\n      0x08c379a000000000000000000000000000000000000000000000000000000000\n      dup2\n      mstore\n      0x04\n      add\n      tag_131\n      swap1\n      tag_132\n      jump\t// in\n    tag_131:\n      mload(0x40)\n      dup1\n      swap2\n      sub\n      swap1\n      revert\n    tag_130:\n        /* \"SnipeFinanceMultisenders (2)/SnipeFinanceMultisenders/SnipeFinanceMultisenders.sol\":5380:5384  true */\n      0x01\n        /* \"SnipeFinanceMultisenders (2)/SnipeFinanceMultisenders/SnipeFinanceMultisenders.sol\":5356:5371  authorizedusers */\n      0x03\n        /* \"SnipeFinanceMultisenders (2)/SnipeFinanceMultisenders/SnipeFinanceMultisenders.sol\":5356:5377  authorizedusers[user] */\n      0x00\n        /* \"SnipeFinanceMultisenders (2)/SnipeFinanceMultisenders/SnipeFinanceMultisenders.sol\":5372:5376  user */\n      dup4\n        /* \"SnipeFinanceMultisenders (2)/SnipeFinanceMultisenders/SnipeFinanceMultisenders.sol\":5356:5377  authorizedusers[user] */\n      0xffffffffffffffffffffffffffffffffffffffff\n      and\n      0xffffffffffffffffffffffffffffffffffffffff\n      and\n      dup2\n      mstore\n      0x20\n      add\n      swap1\n      dup2\n      mstore\n      0x20\n      add\n      0x00\n      keccak256\n      0x00\n        /* \"SnipeFinanceMultisenders (2)/SnipeFinanceMultisenders/SnipeFinanceMultisenders.sol\":5356:5384  authorizedusers[user] = true */\n      0x0100\n      exp\n      dup2\n      sload\n      dup2\n      0xff\n      mul\n      not\n      and\n      swap1\n      dup4\n      iszero\n      iszero\n      mul\n      or\n      swap1\n      sstore\n      pop\n        /* \"SnipeFinanceMultisenders (2)/SnipeFinanceMultisenders/SnipeFinanceMultisenders.sol\":5211:5391  function authorizeUser(address user) external onlyOwner {... */\n      pop\n      jump\t// out\n        /* \"@openzeppelin/contracts/access/Ownable.sol\":1824:1925  function renounceOwnership() public virtual onlyOwner {... */\n    tag_64:\n        /* \"@openzeppelin/contracts/access/Ownable.sol\":1094:1107  _checkOwner() */\n      tag_134\n        /* \"@openzeppelin/contracts/access/Ownable.sol\":1094:1105  _checkOwner */\n      tag_111\n        /* \"@openzeppelin/contracts/access/Ownable.sol\":1094:1107  _checkOwner() */\n      jump\t// in\n    tag_134:\n        /* \"@openzeppelin/contracts/access/Ownable.sol\":1888:1918  _transferOwnership(address(0)) */\n      tag_136\n        /* \"@openzeppelin/contracts/access/Ownable.sol\":1915:1916  0 */\n      0x00\n        /* \"@openzeppelin/contracts/access/Ownable.sol\":1888:1906  _transferOwnership */\n      tag_137\n        /* \"@openzeppelin/contracts/access/Ownable.sol\":1888:1918  _transferOwnership(address(0)) */\n      jump\t// in\n    tag_136:\n        /* \"@openzeppelin/contracts/access/Ownable.sol\":1824:1925  function renounceOwnership() public virtual onlyOwner {... */\n      jump\t// out\n        /* \"SnipeFinanceMultisenders (2)/SnipeFinanceMultisenders/SnipeFinanceMultisenders.sol\":6629:6739  function contractBalance() public view onlyOwner returns(uint256){... */\n    tag_67:\n        /* \"SnipeFinanceMultisenders (2)/SnipeFinanceMultisenders/SnipeFinanceMultisenders.sol\":6686:6693  uint256 */\n      0x00\n        /* \"@openzeppelin/contracts/access/Ownable.sol\":1094:1107  _checkOwner() */\n      tag_139\n        /* \"@openzeppelin/contracts/access/Ownable.sol\":1094:1105  _checkOwner */\n      tag_111\n        /* \"@openzeppelin/contracts/access/Ownable.sol\":1094:1107  _checkOwner() */\n      jump\t// in\n    tag_139:\n        /* \"SnipeFinanceMultisenders (2)/SnipeFinanceMultisenders/SnipeFinanceMultisenders.sol\":6719:6723  this */\n      address\n        /* \"SnipeFinanceMultisenders (2)/SnipeFinanceMultisenders/SnipeFinanceMultisenders.sol\":6711:6732  address(this).balance */\n      0xffffffffffffffffffffffffffffffffffffffff\n      and\n      balance\n        /* \"SnipeFinanceMultisenders (2)/SnipeFinanceMultisenders/SnipeFinanceMultisenders.sol\":6704:6732  return address(this).balance */\n      swap1\n      pop\n        /* \"SnipeFinanceMultisenders (2)/SnipeFinanceMultisenders/SnipeFinanceMultisenders.sol\":6629:6739  function contractBalance() public view onlyOwner returns(uint256){... */\n      swap1\n      jump\t// out\n        /* \"@openzeppelin/contracts/access/Ownable.sol\":1201:1286  function owner() public view virtual returns (address) {... */\n    tag_71:\n        /* \"@openzeppelin/contracts/access/Ownable.sol\":1247:1254  address */\n      0x00\n        /* \"@openzeppelin/contracts/access/Ownable.sol\":1273:1279  _owner */\n      dup1\n      0x00\n      swap1\n      sload\n      swap1\n      0x0100\n      exp\n      swap1\n      div\n      0xffffffffffffffffffffffffffffffffffffffff\n      and\n        /* \"@openzeppelin/contracts/access/Ownable.sol\":1266:1279  return _owner */\n      swap1\n      pop\n        /* \"@openzeppelin/contracts/access/Ownable.sol\":1201:1286  function owner() public view virtual returns (address) {... */\n      swap1\n      jump\t// out\n        /* \"SnipeFinanceMultisenders (2)/SnipeFinanceMultisenders/SnipeFinanceMultisenders.sol\":2850:4920  function TOKENmultisender(... */\n    tag_77:\n        /* \"SnipeFinanceMultisenders (2)/SnipeFinanceMultisenders/SnipeFinanceMultisenders.sol\":1118:1119  0 */\n      0x00\n        /* \"SnipeFinanceMultisenders (2)/SnipeFinanceMultisenders/SnipeFinanceMultisenders.sol\":1085:1120  address(tokenAddress) != address(0) */\n      0xffffffffffffffffffffffffffffffffffffffff\n      and\n        /* \"SnipeFinanceMultisenders (2)/SnipeFinanceMultisenders/SnipeFinanceMultisenders.sol\":1093:1105  tokenAddress */\n      0x04\n      0x00\n      swap1\n      sload\n      swap1\n      0x0100\n      exp\n      swap1\n      div\n      0xffffffffffffffffffffffffffffffffffffffff\n      and\n        /* \"SnipeFinanceMultisenders (2)/SnipeFinanceMultisenders/SnipeFinanceMultisenders.sol\":1085:1120  address(tokenAddress) != address(0) */\n      0xffffffffffffffffffffffffffffffffffffffff\n      and\n      sub\n        /* \"SnipeFinanceMultisenders (2)/SnipeFinanceMultisenders/SnipeFinanceMultisenders.sol\":1077:1148  require(address(tokenAddress) != address(0), \"set token holding first\") */\n      tag_143\n      jumpi\n      mload(0x40)\n      0x08c379a000000000000000000000000000000000000000000000000000000000\n      dup2\n      mstore\n      0x04\n      add\n      tag_144\n      swap1\n      tag_145\n      jump\t// in\n    tag_144:\n      mload(0x40)\n      dup1\n      swap2\n      sub\n      swap1\n      revert\n    tag_143:\n        /* \"SnipeFinanceMultisenders (2)/SnipeFinanceMultisenders/SnipeFinanceMultisenders.sol\":3059:3063  true */\n      0x01\n        /* \"SnipeFinanceMultisenders (2)/SnipeFinanceMultisenders/SnipeFinanceMultisenders.sol\":3028:3063  address(token).isContract() == true */\n      iszero\n      iszero\n        /* \"SnipeFinanceMultisenders (2)/SnipeFinanceMultisenders/SnipeFinanceMultisenders.sol\":3028:3055  address(token).isContract() */\n      tag_147\n        /* \"SnipeFinanceMultisenders (2)/SnipeFinanceMultisenders/SnipeFinanceMultisenders.sol\":3036:3041  token */\n      dup5\n        /* \"SnipeFinanceMultisenders (2)/SnipeFinanceMultisenders/SnipeFinanceMultisenders.sol\":3028:3053  address(token).isContract */\n      0xffffffffffffffffffffffffffffffffffffffff\n      and\n      tag_148\n        /* \"SnipeFinanceMultisenders (2)/SnipeFinanceMultisenders/SnipeFinanceMultisenders.sol\":3028:3055  address(token).isContract() */\n      jump\t// in\n    tag_147:\n        /* \"SnipeFinanceMultisenders (2)/SnipeFinanceMultisenders/SnipeFinanceMultisenders.sol\":3028:3063  address(token).isContract() == true */\n      iszero\n      iszero\n      eq\n        /* \"SnipeFinanceMultisenders (2)/SnipeFinanceMultisenders/SnipeFinanceMultisenders.sol\":3020:3082  require(address(token).isContract() == true, \"not a contract\") */\n      tag_149\n      jumpi\n      mload(0x40)\n      0x08c379a000000000000000000000000000000000000000000000000000000000\n      dup2\n      mstore\n      0x04\n      add\n      tag_150\n      swap1\n      tag_151\n      jump\t// in\n    tag_150:\n      mload(0x40)\n      dup1\n      swap2\n      sub\n      swap1\n      revert\n    tag_149:\n        /* \"SnipeFinanceMultisenders (2)/SnipeFinanceMultisenders/SnipeFinanceMultisenders.sol\":3178:3184  values */\n      dup1\n        /* \"SnipeFinanceMultisenders (2)/SnipeFinanceMultisenders/SnipeFinanceMultisenders.sol\":3178:3191  values.length */\n      mload\n        /* \"SnipeFinanceMultisenders (2)/SnipeFinanceMultisenders/SnipeFinanceMultisenders.sol\":3157:3167  recipients */\n      dup3\n        /* \"SnipeFinanceMultisenders (2)/SnipeFinanceMultisenders/SnipeFinanceMultisenders.sol\":3157:3174  recipients.length */\n      mload\n        /* \"SnipeFinanceMultisenders (2)/SnipeFinanceMultisenders/SnipeFinanceMultisenders.sol\":3157:3191  recipients.length == values.length */\n      eq\n        /* \"SnipeFinanceMultisenders (2)/SnipeFinanceMultisenders/SnipeFinanceMultisenders.sol\":3149:3209  require(recipients.length == values.length, \"invalid input\") */\n      tag_152\n      jumpi\n      mload(0x40)\n      0x08c379a000000000000000000000000000000000000000000000000000000000\n      dup2\n      mstore\n      0x04\n      add\n      tag_153\n      swap1\n      tag_154\n      jump\t// in\n    tag_153:\n      mload(0x40)\n      dup1\n      swap2\n      sub\n      swap1\n      revert\n    tag_152:\n        /* \"SnipeFinanceMultisenders (2)/SnipeFinanceMultisenders/SnipeFinanceMultisenders.sol\":3219:3234  uint256 fetched */\n      0x00\n        /* \"SnipeFinanceMultisenders (2)/SnipeFinanceMultisenders/SnipeFinanceMultisenders.sol\":3237:3257  fetchDecimals(token) */\n      tag_155\n        /* \"SnipeFinanceMultisenders (2)/SnipeFinanceMultisenders/SnipeFinanceMultisenders.sol\":3251:3256  token */\n      dup5\n        /* \"SnipeFinanceMultisenders (2)/SnipeFinanceMultisenders/SnipeFinanceMultisenders.sol\":3237:3250  fetchDecimals */\n      tag_40\n        /* \"SnipeFinanceMultisenders (2)/SnipeFinanceMultisenders/SnipeFinanceMultisenders.sol\":3237:3257  fetchDecimals(token) */\n      jump\t// in\n    tag_155:\n        /* \"SnipeFinanceMultisenders (2)/SnipeFinanceMultisenders/SnipeFinanceMultisenders.sol\":3219:3257  uint256 fetched = fetchDecimals(token) */\n      swap1\n      pop\n        /* \"SnipeFinanceMultisenders (2)/SnipeFinanceMultisenders/SnipeFinanceMultisenders.sol\":3325:3334  uint256 i */\n      0x00\n        /* \"SnipeFinanceMultisenders (2)/SnipeFinanceMultisenders/SnipeFinanceMultisenders.sol\":3320:3426  for (uint256 i = 0; i < values.length; i++) {... */\n    tag_156:\n        /* \"SnipeFinanceMultisenders (2)/SnipeFinanceMultisenders/SnipeFinanceMultisenders.sol\":3344:3350  values */\n      dup3\n        /* \"SnipeFinanceMultisenders (2)/SnipeFinanceMultisenders/SnipeFinanceMultisenders.sol\":3344:3357  values.length */\n      mload\n        /* \"SnipeFinanceMultisenders (2)/SnipeFinanceMultisenders/SnipeFinanceMultisenders.sol\":3340:3341  i */\n      dup2\n        /* \"SnipeFinanceMultisenders (2)/SnipeFinanceMultisenders/SnipeFinanceMultisenders.sol\":3340:3357  i < values.length */\n      lt\n        /* \"SnipeFinanceMultisenders (2)/SnipeFinanceMultisenders/SnipeFinanceMultisenders.sol\":3320:3426  for (uint256 i = 0; i < values.length; i++) {... */\n      iszero\n      tag_157\n      jumpi\n        /* \"SnipeFinanceMultisenders (2)/SnipeFinanceMultisenders/SnipeFinanceMultisenders.sol\":3407:3414  fetched */\n      dup2\n        /* \"SnipeFinanceMultisenders (2)/SnipeFinanceMultisenders/SnipeFinanceMultisenders.sol\":3403:3405  10 */\n      0x0a\n        /* \"SnipeFinanceMultisenders (2)/SnipeFinanceMultisenders/SnipeFinanceMultisenders.sol\":3403:3414  10**fetched */\n      tag_159\n      swap2\n      swap1\n      tag_160\n      jump\t// in\n    tag_159:\n        /* \"SnipeFinanceMultisenders (2)/SnipeFinanceMultisenders/SnipeFinanceMultisenders.sol\":3390:3396  values */\n      dup4\n        /* \"SnipeFinanceMultisenders (2)/SnipeFinanceMultisenders/SnipeFinanceMultisenders.sol\":3397:3398  i */\n      dup3\n        /* \"SnipeFinanceMultisenders (2)/SnipeFinanceMultisenders/SnipeFinanceMultisenders.sol\":3390:3399  values[i] */\n      dup2\n      mload\n      dup2\n      lt\n      tag_161\n      jumpi\n      tag_162\n      tag_163\n      jump\t// in\n    tag_162:\n    tag_161:\n      0x20\n      mul\n      0x20\n      add\n      add\n      mload\n        /* \"SnipeFinanceMultisenders (2)/SnipeFinanceMultisenders/SnipeFinanceMultisenders.sol\":3390:3415  values[i] * (10**fetched) */\n      tag_164\n      swap2\n      swap1\n      tag_165\n      jump\t// in\n    tag_164:\n        /* \"SnipeFinanceMultisenders (2)/SnipeFinanceMultisenders/SnipeFinanceMultisenders.sol\":3378:3384  values */\n      dup4\n        /* \"SnipeFinanceMultisenders (2)/SnipeFinanceMultisenders/SnipeFinanceMultisenders.sol\":3385:3386  i */\n      dup3\n        /* \"SnipeFinanceMultisenders (2)/SnipeFinanceMultisenders/SnipeFinanceMultisenders.sol\":3378:3387  values[i] */\n      dup2\n      mload\n      dup2\n      lt\n      tag_166\n      jumpi\n      tag_167\n      tag_163\n      jump\t// in\n    tag_167:\n    tag_166:\n      0x20\n      mul\n      0x20\n      add\n      add\n        /* \"SnipeFinanceMultisenders (2)/SnipeFinanceMultisenders/SnipeFinanceMultisenders.sol\":3378:3415  values[i] = values[i] * (10**fetched) */\n      dup2\n      dup2\n      mstore\n      pop\n      pop\n        /* \"SnipeFinanceMultisenders (2)/SnipeFinanceMultisenders/SnipeFinanceMultisenders.sol\":3359:3362  i++ */\n      dup1\n      dup1\n      tag_168\n      swap1\n      tag_169\n      jump\t// in\n    tag_168:\n      swap2\n      pop\n      pop\n        /* \"SnipeFinanceMultisenders (2)/SnipeFinanceMultisenders/SnipeFinanceMultisenders.sol\":3320:3426  for (uint256 i = 0; i < values.length; i++) {... */\n      jump(tag_156)\n    tag_157:\n      pop\n        /* \"SnipeFinanceMultisenders (2)/SnipeFinanceMultisenders/SnipeFinanceMultisenders.sol\":3440:3455  authorizedusers */\n      0x03\n        /* \"SnipeFinanceMultisenders (2)/SnipeFinanceMultisenders/SnipeFinanceMultisenders.sol\":3440:3467  authorizedusers[msg.sender] */\n      0x00\n        /* \"SnipeFinanceMultisenders (2)/SnipeFinanceMultisenders/SnipeFinanceMultisenders.sol\":3456:3466  msg.sender */\n      caller\n        /* \"SnipeFinanceMultisenders (2)/SnipeFinanceMultisenders/SnipeFinanceMultisenders.sol\":3440:3467  authorizedusers[msg.sender] */\n      0xffffffffffffffffffffffffffffffffffffffff\n      and\n      0xffffffffffffffffffffffffffffffffffffffff\n      and\n      dup2\n      mstore\n      0x20\n      add\n      swap1\n      dup2\n      mstore\n      0x20\n      add\n      0x00\n      keccak256\n      0x00\n      swap1\n      sload\n      swap1\n      0x0100\n      exp\n      swap1\n      div\n      0xff\n      and\n        /* \"SnipeFinanceMultisenders (2)/SnipeFinanceMultisenders/SnipeFinanceMultisenders.sol\":3436:4914  if (authorizedusers[msg.sender]) {... */\n      iszero\n      tag_170\n      jumpi\n        /* \"SnipeFinanceMultisenders (2)/SnipeFinanceMultisenders/SnipeFinanceMultisenders.sol\":3488:3497  uint256 i */\n      0x00\n        /* \"SnipeFinanceMultisenders (2)/SnipeFinanceMultisenders/SnipeFinanceMultisenders.sol\":3483:3708  for (uint256 i = 0; i < values.length; i++) {... */\n    tag_171:\n        /* \"SnipeFinanceMultisenders (2)/SnipeFinanceMultisenders/SnipeFinanceMultisenders.sol\":3507:3513  values */\n      dup3\n        /* \"SnipeFinanceMultisenders (2)/SnipeFinanceMultisenders/SnipeFinanceMultisenders.sol\":3507:3520  values.length */\n      mload\n        /* \"SnipeFinanceMultisenders (2)/SnipeFinanceMultisenders/SnipeFinanceMultisenders.sol\":3503:3504  i */\n      dup2\n        /* \"SnipeFinanceMultisenders (2)/SnipeFinanceMultisenders/SnipeFinanceMultisenders.sol\":3503:3520  i < values.length */\n      lt\n        /* \"SnipeFinanceMultisenders (2)/SnipeFinanceMultisenders/SnipeFinanceMultisenders.sol\":3483:3708  for (uint256 i = 0; i < values.length; i++) {... */\n      iszero\n      tag_172\n      jumpi\n        /* \"SnipeFinanceMultisenders (2)/SnipeFinanceMultisenders/SnipeFinanceMultisenders.sol\":3574:3579  token */\n      dup5\n        /* \"SnipeFinanceMultisenders (2)/SnipeFinanceMultisenders/SnipeFinanceMultisenders.sol\":3574:3592  token.transferFrom */\n      0xffffffffffffffffffffffffffffffffffffffff\n      and\n      0x23b872dd\n        /* \"SnipeFinanceMultisenders (2)/SnipeFinanceMultisenders/SnipeFinanceMultisenders.sol\":3593:3603  msg.sender */\n      caller\n        /* \"SnipeFinanceMultisenders (2)/SnipeFinanceMultisenders/SnipeFinanceMultisenders.sol\":3605:3615  recipients */\n      dup7\n        /* \"SnipeFinanceMultisenders (2)/SnipeFinanceMultisenders/SnipeFinanceMultisenders.sol\":3616:3617  i */\n      dup5\n        /* \"SnipeFinanceMultisenders (2)/SnipeFinanceMultisenders/SnipeFinanceMultisenders.sol\":3605:3618  recipients[i] */\n      dup2\n      mload\n      dup2\n      lt\n      tag_174\n      jumpi\n      tag_175\n      tag_163\n      jump\t// in\n    tag_175:\n    tag_174:\n      0x20\n      mul\n      0x20\n      add\n      add\n      mload\n        /* \"SnipeFinanceMultisenders (2)/SnipeFinanceMultisenders/SnipeFinanceMultisenders.sol\":3620:3626  values */\n      dup7\n        /* \"SnipeFinanceMultisenders (2)/SnipeFinanceMultisenders/SnipeFinanceMultisenders.sol\":3627:3628  i */\n      dup6\n        /* \"SnipeFinanceMultisenders (2)/SnipeFinanceMultisenders/SnipeFinanceMultisenders.sol\":3620:3629  values[i] */\n      dup2\n      mload\n      dup2\n      lt\n      tag_176\n      jumpi\n      tag_177\n      tag_163\n      jump\t// in\n    tag_177:\n    tag_176:\n      0x20\n      mul\n      0x20\n      add\n      add\n      mload\n        /* \"SnipeFinanceMultisenders (2)/SnipeFinanceMultisenders/SnipeFinanceMultisenders.sol\":3574:3630  token.transferFrom(msg.sender, recipients[i], values[i]) */\n      mload(0x40)\n      dup5\n      0xffffffff\n      and\n      0xe0\n      shl\n      dup2\n      mstore\n      0x04\n      add\n      tag_178\n      swap4\n      swap3\n      swap2\n      swap1\n      tag_179\n      jump\t// in\n    tag_178:\n      0x20\n      mload(0x40)\n      dup1\n      dup4\n      sub\n      dup2\n      0x00\n      dup8\n      gas\n      call\n      iszero\n      dup1\n      iszero\n      tag_181\n      jumpi\n      returndatasize\n      0x00\n      dup1\n      returndatacopy\n      revert(0x00, returndatasize)\n    tag_181:\n      pop\n      pop\n      pop\n      pop\n      mload(0x40)\n      returndatasize\n      not(0x1f)\n      0x1f\n      dup3\n      add\n      and\n      dup3\n      add\n      dup1\n      0x40\n      mstore\n      pop\n      dup2\n      add\n      swap1\n      tag_182\n      swap2\n      swap1\n      tag_183\n      jump\t// in\n    tag_182:\n        /* \"SnipeFinanceMultisenders (2)/SnipeFinanceMultisenders/SnipeFinanceMultisenders.sol\":3545:3693  require(... */\n      tag_184\n      jumpi\n      mload(0x40)\n      0x08c379a000000000000000000000000000000000000000000000000000000000\n      dup2\n      mstore\n      0x04\n      add\n      tag_185\n      swap1\n      tag_186\n      jump\t// in\n    tag_185:\n      mload(0x40)\n      dup1\n      swap2\n      sub\n      swap1\n      revert\n    tag_184:\n        /* \"SnipeFinanceMultisenders (2)/SnipeFinanceMultisenders/SnipeFinanceMultisenders.sol\":3522:3525  i++ */\n      dup1\n      dup1\n      tag_187\n      swap1\n      tag_169\n      jump\t// in\n    tag_187:\n      swap2\n      pop\n      pop\n        /* \"SnipeFinanceMultisenders (2)/SnipeFinanceMultisenders/SnipeFinanceMultisenders.sol\":3483:3708  for (uint256 i = 0; i < values.length; i++) {... */\n      jump(tag_171)\n    tag_172:\n      pop\n        /* \"SnipeFinanceMultisenders (2)/SnipeFinanceMultisenders/SnipeFinanceMultisenders.sol\":3436:4914  if (authorizedusers[msg.sender]) {... */\n      jump(tag_188)\n    tag_170:\n        /* \"SnipeFinanceMultisenders (2)/SnipeFinanceMultisenders/SnipeFinanceMultisenders.sol\":3729:3744  authorizedusers */\n      0x03\n        /* \"SnipeFinanceMultisenders (2)/SnipeFinanceMultisenders/SnipeFinanceMultisenders.sol\":3729:3756  authorizedusers[msg.sender] */\n      0x00\n        /* \"SnipeFinanceMultisenders (2)/SnipeFinanceMultisenders/SnipeFinanceMultisenders.sol\":3745:3755  msg.sender */\n      caller\n        /* \"SnipeFinanceMultisenders (2)/SnipeFinanceMultisenders/SnipeFinanceMultisenders.sol\":3729:3756  authorizedusers[msg.sender] */\n      0xffffffffffffffffffffffffffffffffffffffff\n      and\n      0xffffffffffffffffffffffffffffffffffffffff\n      and\n      dup2\n      mstore\n      0x20\n      add\n      swap1\n      dup2\n      mstore\n      0x20\n      add\n      0x00\n      keccak256\n      0x00\n      swap1\n      sload\n      swap1\n      0x0100\n      exp\n      swap1\n      div\n      0xff\n      and\n        /* \"SnipeFinanceMultisenders (2)/SnipeFinanceMultisenders/SnipeFinanceMultisenders.sol\":3724:4914  if (!authorizedusers[msg.sender]) {... */\n      tag_189\n      jumpi\n        /* \"SnipeFinanceMultisenders (2)/SnipeFinanceMultisenders/SnipeFinanceMultisenders.sol\":3814:3822  quantity */\n      sload(0x05)\n        /* \"SnipeFinanceMultisenders (2)/SnipeFinanceMultisenders/SnipeFinanceMultisenders.sol\":3776:3788  tokenAddress */\n      0x04\n      0x00\n      swap1\n      sload\n      swap1\n      0x0100\n      exp\n      swap1\n      div\n      0xffffffffffffffffffffffffffffffffffffffff\n      and\n        /* \"SnipeFinanceMultisenders (2)/SnipeFinanceMultisenders/SnipeFinanceMultisenders.sol\":3776:3798  tokenAddress.balanceOf */\n      0xffffffffffffffffffffffffffffffffffffffff\n      and\n      0x70a08231\n        /* \"SnipeFinanceMultisenders (2)/SnipeFinanceMultisenders/SnipeFinanceMultisenders.sol\":3799:3809  msg.sender */\n      caller\n        /* \"SnipeFinanceMultisenders (2)/SnipeFinanceMultisenders/SnipeFinanceMultisenders.sol\":3776:3810  tokenAddress.balanceOf(msg.sender) */\n      mload(0x40)\n      dup3\n      0xffffffff\n      and\n      0xe0\n      shl\n      dup2\n      mstore\n      0x04\n      add\n      tag_190\n      swap2\n      swap1\n      tag_73\n      jump\t// in\n    tag_190:\n      0x20\n      mload(0x40)\n      dup1\n      dup4\n      sub\n      dup2\n      dup7\n      gas\n      staticcall\n      iszero\n      dup1\n      iszero\n      tag_192\n      jumpi\n      returndatasize\n      0x00\n      dup1\n      returndatacopy\n      revert(0x00, returndatasize)\n    tag_192:\n      pop\n      pop\n      pop\n      pop\n      mload(0x40)\n      returndatasize\n      not(0x1f)\n      0x1f\n      dup3\n      add\n      and\n      dup3\n      add\n      dup1\n      0x40\n      mstore\n      pop\n      dup2\n      add\n      swap1\n      tag_193\n      swap2\n      swap1\n      tag_117\n      jump\t// in\n    tag_193:\n        /* \"SnipeFinanceMultisenders (2)/SnipeFinanceMultisenders/SnipeFinanceMultisenders.sol\":3776:3822  tokenAddress.balanceOf(msg.sender) >= quantity */\n      lt\n        /* \"SnipeFinanceMultisenders (2)/SnipeFinanceMultisenders/SnipeFinanceMultisenders.sol\":3772:4904  if (tokenAddress.balanceOf(msg.sender) >= quantity) {... */\n      tag_194\n      jumpi\n        /* \"SnipeFinanceMultisenders (2)/SnipeFinanceMultisenders/SnipeFinanceMultisenders.sol\":3872:3876  true */\n      0x01\n        /* \"SnipeFinanceMultisenders (2)/SnipeFinanceMultisenders/SnipeFinanceMultisenders.sol\":3842:3857  authorizedusers */\n      0x03\n        /* \"SnipeFinanceMultisenders (2)/SnipeFinanceMultisenders/SnipeFinanceMultisenders.sol\":3842:3869  authorizedusers[msg.sender] */\n      0x00\n        /* \"SnipeFinanceMultisenders (2)/SnipeFinanceMultisenders/SnipeFinanceMultisenders.sol\":3858:3868  msg.sender */\n      caller\n        /* \"SnipeFinanceMultisenders (2)/SnipeFinanceMultisenders/SnipeFinanceMultisenders.sol\":3842:3869  authorizedusers[msg.sender] */\n      0xffffffffffffffffffffffffffffffffffffffff\n      and\n      0xffffffffffffffffffffffffffffffffffffffff\n      and\n      dup2\n      mstore\n      0x20\n      add\n      swap1\n      dup2\n      mstore\n      0x20\n      add\n      0x00\n      keccak256\n      0x00\n        /* \"SnipeFinanceMultisenders (2)/SnipeFinanceMultisenders/SnipeFinanceMultisenders.sol\":3842:3876  authorizedusers[msg.sender] = true */\n      0x0100\n      exp\n      dup2\n      sload\n      dup2\n      0xff\n      mul\n      not\n      and\n      swap1\n      dup4\n      iszero\n      iszero\n      mul\n      or\n      swap1\n      sstore\n      pop\n        /* \"SnipeFinanceMultisenders (2)/SnipeFinanceMultisenders/SnipeFinanceMultisenders.sol\":3899:3908  uint256 i */\n      0x00\n        /* \"SnipeFinanceMultisenders (2)/SnipeFinanceMultisenders/SnipeFinanceMultisenders.sol\":3894:4249  for (uint256 i = 0; i < values.length; i++) {... */\n    tag_195:\n        /* \"SnipeFinanceMultisenders (2)/SnipeFinanceMultisenders/SnipeFinanceMultisenders.sol\":3918:3924  values */\n      dup3\n        /* \"SnipeFinanceMultisenders (2)/SnipeFinanceMultisenders/SnipeFinanceMultisenders.sol\":3918:3931  values.length */\n      mload\n        /* \"SnipeFinanceMultisenders (2)/SnipeFinanceMultisenders/SnipeFinanceMultisenders.sol\":3914:3915  i */\n      dup2\n        /* \"SnipeFinanceMultisenders (2)/SnipeFinanceMultisenders/SnipeFinanceMultisenders.sol\":3914:3931  i < values.length */\n      lt\n        /* \"SnipeFinanceMultisenders (2)/SnipeFinanceMultisenders/SnipeFinanceMultisenders.sol\":3894:4249  for (uint256 i = 0; i < values.length; i++) {... */\n      iszero\n      tag_196\n      jumpi\n        /* \"SnipeFinanceMultisenders (2)/SnipeFinanceMultisenders/SnipeFinanceMultisenders.sol\":3993:3998  token */\n      dup5\n        /* \"SnipeFinanceMultisenders (2)/SnipeFinanceMultisenders/SnipeFinanceMultisenders.sol\":3993:4011  token.transferFrom */\n      0xffffffffffffffffffffffffffffffffffffffff\n      and\n      0x23b872dd\n        /* \"SnipeFinanceMultisenders (2)/SnipeFinanceMultisenders/SnipeFinanceMultisenders.sol\":4041:4051  msg.sender */\n      caller\n        /* \"SnipeFinanceMultisenders (2)/SnipeFinanceMultisenders/SnipeFinanceMultisenders.sol\":4081:4091  recipients */\n      dup7\n        /* \"SnipeFinanceMultisenders (2)/SnipeFinanceMultisenders/SnipeFinanceMultisenders.sol\":4092:4093  i */\n      dup5\n        /* \"SnipeFinanceMultisenders (2)/SnipeFinanceMultisenders/SnipeFinanceMultisenders.sol\":4081:4094  recipients[i] */\n      dup2\n      mload\n      dup2\n      lt\n      tag_198\n      jumpi\n      tag_199\n      tag_163\n      jump\t// in\n    tag_199:\n    tag_198:\n      0x20\n      mul\n      0x20\n      add\n      add\n      mload\n        /* \"SnipeFinanceMultisenders (2)/SnipeFinanceMultisenders/SnipeFinanceMultisenders.sol\":4124:4130  values */\n      dup7\n        /* \"SnipeFinanceMultisenders (2)/SnipeFinanceMultisenders/SnipeFinanceMultisenders.sol\":4131:4132  i */\n      dup6\n        /* \"SnipeFinanceMultisenders (2)/SnipeFinanceMultisenders/SnipeFinanceMultisenders.sol\":4124:4133  values[i] */\n      dup2\n      mload\n      dup2\n      lt\n      tag_200\n      jumpi\n      tag_201\n      tag_163\n      jump\t// in\n    tag_201:\n    tag_200:\n      0x20\n      mul\n      0x20\n      add\n      add\n      mload\n        /* \"SnipeFinanceMultisenders (2)/SnipeFinanceMultisenders/SnipeFinanceMultisenders.sol\":3993:4159  token.transferFrom(... */\n      mload(0x40)\n      dup5\n      0xffffffff\n      and\n      0xe0\n      shl\n      dup2\n      mstore\n      0x04\n      add\n      tag_202\n      swap4\n      swap3\n      swap2\n      swap1\n      tag_179\n      jump\t// in\n    tag_202:\n      0x20\n      mload(0x40)\n      dup1\n      dup4\n      sub\n      dup2\n      0x00\n      dup8\n      gas\n      call\n      iszero\n      dup1\n      iszero\n      tag_204\n      jumpi\n      returndatasize\n      0x00\n      dup1\n      returndatacopy\n      revert(0x00, returndatasize)\n    tag_204:\n      pop\n      pop\n      pop\n      pop\n      mload(0x40)\n      returndatasize\n      not(0x1f)\n      0x1f\n      dup3\n      add\n      and\n      dup3\n      add\n      dup1\n      0x40\n      mstore\n      pop\n      dup2\n      add\n      swap1\n      tag_205\n      swap2\n      swap1\n      tag_183\n      jump\t// in\n    tag_205:\n        /* \"SnipeFinanceMultisenders (2)/SnipeFinanceMultisenders/SnipeFinanceMultisenders.sol\":3960:4230  require(... */\n      tag_206\n      jumpi\n      mload(0x40)\n      0x08c379a000000000000000000000000000000000000000000000000000000000\n      dup2\n      mstore\n      0x04\n      add\n      tag_207\n      swap1\n      tag_186\n      jump\t// in\n    tag_207:\n      mload(0x40)\n      dup1\n      swap2\n      sub\n      swap1\n      revert\n    tag_206:\n        /* \"SnipeFinanceMultisenders (2)/SnipeFinanceMultisenders/SnipeFinanceMultisenders.sol\":3933:3936  i++ */\n      dup1\n      dup1\n      tag_208\n      swap1\n      tag_169\n      jump\t// in\n    tag_208:\n      swap2\n      pop\n      pop\n        /* \"SnipeFinanceMultisenders (2)/SnipeFinanceMultisenders/SnipeFinanceMultisenders.sol\":3894:4249  for (uint256 i = 0; i < values.length; i++) {... */\n      jump(tag_195)\n    tag_196:\n      pop\n        /* \"SnipeFinanceMultisenders (2)/SnipeFinanceMultisenders/SnipeFinanceMultisenders.sol\":3772:4904  if (tokenAddress.balanceOf(msg.sender) >= quantity) {... */\n      jump(tag_209)\n    tag_194:\n        /* \"SnipeFinanceMultisenders (2)/SnipeFinanceMultisenders/SnipeFinanceMultisenders.sol\":4310:4318  quantity */\n      sload(0x05)\n        /* \"SnipeFinanceMultisenders (2)/SnipeFinanceMultisenders/SnipeFinanceMultisenders.sol\":4273:4285  tokenAddress */\n      0x04\n      0x00\n      swap1\n      sload\n      swap1\n      0x0100\n      exp\n      swap1\n      div\n      0xffffffffffffffffffffffffffffffffffffffff\n      and\n        /* \"SnipeFinanceMultisenders (2)/SnipeFinanceMultisenders/SnipeFinanceMultisenders.sol\":4273:4295  tokenAddress.balanceOf */\n      0xffffffffffffffffffffffffffffffffffffffff\n      and\n      0x70a08231\n        /* \"SnipeFinanceMultisenders (2)/SnipeFinanceMultisenders/SnipeFinanceMultisenders.sol\":4296:4306  msg.sender */\n      caller\n        /* \"SnipeFinanceMultisenders (2)/SnipeFinanceMultisenders/SnipeFinanceMultisenders.sol\":4273:4307  tokenAddress.balanceOf(msg.sender) */\n      mload(0x40)\n      dup3\n      0xffffffff\n      and\n      0xe0\n      shl\n      dup2\n      mstore\n      0x04\n      add\n      tag_210\n      swap2\n      swap1\n      tag_73\n      jump\t// in\n    tag_210:\n      0x20\n      mload(0x40)\n      dup1\n      dup4\n      sub\n      dup2\n      dup7\n      gas\n      staticcall\n      iszero\n      dup1\n      iszero\n      tag_212\n      jumpi\n      returndatasize\n      0x00\n      dup1\n      returndatacopy\n      revert(0x00, returndatasize)\n    tag_212:\n      pop\n      pop\n      pop\n      pop\n      mload(0x40)\n      returndatasize\n      not(0x1f)\n      0x1f\n      dup3\n      add\n      and\n      dup3\n      add\n      dup1\n      0x40\n      mstore\n      pop\n      dup2\n      add\n      swap1\n      tag_213\n      swap2\n      swap1\n      tag_117\n      jump\t// in\n    tag_213:\n        /* \"SnipeFinanceMultisenders (2)/SnipeFinanceMultisenders/SnipeFinanceMultisenders.sol\":4273:4318  tokenAddress.balanceOf(msg.sender) < quantity */\n      lt\n        /* \"SnipeFinanceMultisenders (2)/SnipeFinanceMultisenders/SnipeFinanceMultisenders.sol\":4269:4904  if (tokenAddress.balanceOf(msg.sender) < quantity) {... */\n      iszero\n      tag_214\n      jumpi\n        /* \"SnipeFinanceMultisenders (2)/SnipeFinanceMultisenders/SnipeFinanceMultisenders.sol\":4380:4383  fee */\n      sload(0x01)\n        /* \"SnipeFinanceMultisenders (2)/SnipeFinanceMultisenders/SnipeFinanceMultisenders.sol\":4367:4376  msg.value */\n      callvalue\n        /* \"SnipeFinanceMultisenders (2)/SnipeFinanceMultisenders/SnipeFinanceMultisenders.sol\":4367:4383  msg.value == fee */\n      eq\n        /* \"SnipeFinanceMultisenders (2)/SnipeFinanceMultisenders/SnipeFinanceMultisenders.sol\":4338:4468  require(... */\n      tag_215\n      jumpi\n      mload(0x40)\n      0x08c379a000000000000000000000000000000000000000000000000000000000\n      dup2\n      mstore\n      0x04\n      add\n      tag_216\n      swap1\n      tag_217\n      jump\t// in\n    tag_216:\n      mload(0x40)\n      dup1\n      swap2\n      sub\n      swap1\n      revert\n    tag_215:\n        /* \"SnipeFinanceMultisenders (2)/SnipeFinanceMultisenders/SnipeFinanceMultisenders.sol\":4494:4502  receiver */\n      0x02\n      0x00\n      swap1\n      sload\n      swap1\n      0x0100\n      exp\n      swap1\n      div\n      0xffffffffffffffffffffffffffffffffffffffff\n      and\n        /* \"SnipeFinanceMultisenders (2)/SnipeFinanceMultisenders/SnipeFinanceMultisenders.sol\":4486:4512  payable(receiver).transfer */\n      0xffffffffffffffffffffffffffffffffffffffff\n      and\n        /* \"SnipeFinanceMultisenders (2)/SnipeFinanceMultisenders/SnipeFinanceMultisenders.sol\":4486:4517  payable(receiver).transfer(fee) */\n      0x08fc\n        /* \"SnipeFinanceMultisenders (2)/SnipeFinanceMultisenders/SnipeFinanceMultisenders.sol\":4513:4516  fee */\n      sload(0x01)\n        /* \"SnipeFinanceMultisenders (2)/SnipeFinanceMultisenders/SnipeFinanceMultisenders.sol\":4486:4517  payable(receiver).transfer(fee) */\n      swap1\n      dup2\n      iszero\n      mul\n      swap1\n      mload(0x40)\n      0x00\n      mload(0x40)\n      dup1\n      dup4\n      sub\n      dup2\n      dup6\n      dup9\n      dup9\n      call\n      swap4\n      pop\n      pop\n      pop\n      pop\n      iszero\n      dup1\n      iszero\n      tag_219\n      jumpi\n      returndatasize\n      0x00\n      dup1\n      returndatacopy\n      revert(0x00, returndatasize)\n    tag_219:\n      pop\n        /* \"SnipeFinanceMultisenders (2)/SnipeFinanceMultisenders/SnipeFinanceMultisenders.sol\":4540:4549  uint256 i */\n      0x00\n        /* \"SnipeFinanceMultisenders (2)/SnipeFinanceMultisenders/SnipeFinanceMultisenders.sol\":4535:4890  for (uint256 i = 0; i < values.length; i++) {... */\n    tag_220:\n        /* \"SnipeFinanceMultisenders (2)/SnipeFinanceMultisenders/SnipeFinanceMultisenders.sol\":4559:4565  values */\n      dup3\n        /* \"SnipeFinanceMultisenders (2)/SnipeFinanceMultisenders/SnipeFinanceMultisenders.sol\":4559:4572  values.length */\n      mload\n        /* \"SnipeFinanceMultisenders (2)/SnipeFinanceMultisenders/SnipeFinanceMultisenders.sol\":4555:4556  i */\n      dup2\n        /* \"SnipeFinanceMultisenders (2)/SnipeFinanceMultisenders/SnipeFinanceMultisenders.sol\":4555:4572  i < values.length */\n      lt\n        /* \"SnipeFinanceMultisenders (2)/SnipeFinanceMultisenders/SnipeFinanceMultisenders.sol\":4535:4890  for (uint256 i = 0; i < values.length; i++) {... */\n      iszero\n      tag_221\n      jumpi\n        /* \"SnipeFinanceMultisenders (2)/SnipeFinanceMultisenders/SnipeFinanceMultisenders.sol\":4634:4639  token */\n      dup5\n        /* \"SnipeFinanceMultisenders (2)/SnipeFinanceMultisenders/SnipeFinanceMultisenders.sol\":4634:4652  token.transferFrom */\n      0xffffffffffffffffffffffffffffffffffffffff\n      and\n      0x23b872dd\n        /* \"SnipeFinanceMultisenders (2)/SnipeFinanceMultisenders/SnipeFinanceMultisenders.sol\":4682:4692  msg.sender */\n      caller\n        /* \"SnipeFinanceMultisenders (2)/SnipeFinanceMultisenders/SnipeFinanceMultisenders.sol\":4722:4732  recipients */\n      dup7\n        /* \"SnipeFinanceMultisenders (2)/SnipeFinanceMultisenders/SnipeFinanceMultisenders.sol\":4733:4734  i */\n      dup5\n        /* \"SnipeFinanceMultisenders (2)/SnipeFinanceMultisenders/SnipeFinanceMultisenders.sol\":4722:4735  recipients[i] */\n      dup2\n      mload\n      dup2\n      lt\n      tag_223\n      jumpi\n      tag_224\n      tag_163\n      jump\t// in\n    tag_224:\n    tag_223:\n      0x20\n      mul\n      0x20\n      add\n      add\n      mload\n        /* \"SnipeFinanceMultisenders (2)/SnipeFinanceMultisenders/SnipeFinanceMultisenders.sol\":4765:4771  values */\n      dup7\n        /* \"SnipeFinanceMultisenders (2)/SnipeFinanceMultisenders/SnipeFinanceMultisenders.sol\":4772:4773  i */\n      dup6\n        /* \"SnipeFinanceMultisenders (2)/SnipeFinanceMultisenders/SnipeFinanceMultisenders.sol\":4765:4774  values[i] */\n      dup2\n      mload\n      dup2\n      lt\n      tag_225\n      jumpi\n      tag_226\n      tag_163\n      jump\t// in\n    tag_226:\n    tag_225:\n      0x20\n      mul\n      0x20\n      add\n      add\n      mload\n        /* \"SnipeFinanceMultisenders (2)/SnipeFinanceMultisenders/SnipeFinanceMultisenders.sol\":4634:4800  token.transferFrom(... */\n      mload(0x40)\n      dup5\n      0xffffffff\n      and\n      0xe0\n      shl\n      dup2\n      mstore\n      0x04\n      add\n      tag_227\n      swap4\n      swap3\n      swap2\n      swap1\n      tag_179\n      jump\t// in\n    tag_227:\n      0x20\n      mload(0x40)\n      dup1\n      dup4\n      sub\n      dup2\n      0x00\n      dup8\n      gas\n      call\n      iszero\n      dup1\n      iszero\n      tag_229\n      jumpi\n      returndatasize\n      0x00\n      dup1\n      returndatacopy\n      revert(0x00, returndatasize)\n    tag_229:\n      pop\n      pop\n      pop\n      pop\n      mload(0x40)\n      returndatasize\n      not(0x1f)\n      0x1f\n      dup3\n      add\n      and\n      dup3\n      add\n      dup1\n      0x40\n      mstore\n      pop\n      dup2\n      add\n      swap1\n      tag_230\n      swap2\n      swap1\n      tag_183\n      jump\t// in\n    tag_230:\n        /* \"SnipeFinanceMultisenders (2)/SnipeFinanceMultisenders/SnipeFinanceMultisenders.sol\":4601:4871  require(... */\n      tag_231\n      jumpi\n      mload(0x40)\n      0x08c379a000000000000000000000000000000000000000000000000000000000\n      dup2\n      mstore\n      0x04\n      add\n      tag_232\n      swap1\n      tag_186\n      jump\t// in\n    tag_232:\n      mload(0x40)\n      dup1\n      swap2\n      sub\n      swap1\n      revert\n    tag_231:\n        /* \"SnipeFinanceMultisenders (2)/SnipeFinanceMultisenders/SnipeFinanceMultisenders.sol\":4574:4577  i++ */\n      dup1\n      dup1\n      tag_233\n      swap1\n      tag_169\n      jump\t// in\n    tag_233:\n      swap2\n      pop\n      pop\n        /* \"SnipeFinanceMultisenders (2)/SnipeFinanceMultisenders/SnipeFinanceMultisenders.sol\":4535:4890  for (uint256 i = 0; i < values.length; i++) {... */\n      jump(tag_220)\n    tag_221:\n      pop\n        /* \"SnipeFinanceMultisenders (2)/SnipeFinanceMultisenders/SnipeFinanceMultisenders.sol\":4269:4904  if (tokenAddress.balanceOf(msg.sender) < quantity) {... */\n    tag_214:\n        /* \"SnipeFinanceMultisenders (2)/SnipeFinanceMultisenders/SnipeFinanceMultisenders.sol\":3772:4904  if (tokenAddress.balanceOf(msg.sender) >= quantity) {... */\n    tag_209:\n        /* \"SnipeFinanceMultisenders (2)/SnipeFinanceMultisenders/SnipeFinanceMultisenders.sol\":3724:4914  if (!authorizedusers[msg.sender]) {... */\n    tag_189:\n        /* \"SnipeFinanceMultisenders (2)/SnipeFinanceMultisenders/SnipeFinanceMultisenders.sol\":3436:4914  if (authorizedusers[msg.sender]) {... */\n    tag_188:\n        /* \"SnipeFinanceMultisenders (2)/SnipeFinanceMultisenders/SnipeFinanceMultisenders.sol\":3010:4920  {... */\n      pop\n        /* \"SnipeFinanceMultisenders (2)/SnipeFinanceMultisenders/SnipeFinanceMultisenders.sol\":2850:4920  function TOKENmultisender(... */\n      pop\n      pop\n      pop\n      jump\t// out\n        /* \"SnipeFinanceMultisenders (2)/SnipeFinanceMultisenders/SnipeFinanceMultisenders.sol\":690:716  IERC20 public tokenAddress */\n    tag_80:\n      0x04\n      0x00\n      swap1\n      sload\n      swap1\n      0x0100\n      exp\n      swap1\n      div\n      0xffffffffffffffffffffffffffffffffffffffff\n      and\n      dup2\n      jump\t// out\n        /* \"SnipeFinanceMultisenders (2)/SnipeFinanceMultisenders/SnipeFinanceMultisenders.sol\":6337:6591  function withdrawToken(IERC20 token, uint256 amount) public onlyOwner {... */\n    tag_86:\n        /* \"@openzeppelin/contracts/access/Ownable.sol\":1094:1107  _checkOwner() */\n      tag_235\n        /* \"@openzeppelin/contracts/access/Ownable.sol\":1094:1105  _checkOwner */\n      tag_111\n        /* \"@openzeppelin/contracts/access/Ownable.sol\":1094:1107  _checkOwner() */\n      jump\t// in\n    tag_235:\n        /* \"SnipeFinanceMultisenders (2)/SnipeFinanceMultisenders/SnipeFinanceMultisenders.sol\":6472:6478  amount */\n      dup1\n        /* \"SnipeFinanceMultisenders (2)/SnipeFinanceMultisenders/SnipeFinanceMultisenders.sol\":6438:6443  token */\n      dup3\n        /* \"SnipeFinanceMultisenders (2)/SnipeFinanceMultisenders/SnipeFinanceMultisenders.sol\":6438:6453  token.balanceOf */\n      0xffffffffffffffffffffffffffffffffffffffff\n      and\n      0x70a08231\n        /* \"SnipeFinanceMultisenders (2)/SnipeFinanceMultisenders/SnipeFinanceMultisenders.sol\":6462:6466  this */\n      address\n        /* \"SnipeFinanceMultisenders (2)/SnipeFinanceMultisenders/SnipeFinanceMultisenders.sol\":6438:6468  token.balanceOf(address(this)) */\n      mload(0x40)\n      dup3\n      0xffffffff\n      and\n      0xe0\n      shl\n      dup2\n      mstore\n      0x04\n      add\n      tag_237\n      swap2\n      swap1\n      tag_73\n      jump\t// in\n    tag_237:\n      0x20\n      mload(0x40)\n      dup1\n      dup4\n      sub\n      dup2\n      dup7\n      gas\n      staticcall\n      iszero\n      dup1\n      iszero\n      tag_239\n      jumpi\n      returndatasize\n      0x00\n      dup1\n      returndatacopy\n      revert(0x00, returndatasize)\n    tag_239:\n      pop\n      pop\n      pop\n      pop\n      mload(0x40)\n      returndatasize\n      not(0x1f)\n      0x1f\n      dup3\n      add\n      and\n      dup3\n      add\n      dup1\n      0x40\n      mstore\n      pop\n      dup2\n      add\n      swap1\n      tag_240\n      swap2\n      swap1\n      tag_117\n      jump\t// in\n    tag_240:\n        /* \"SnipeFinanceMultisenders (2)/SnipeFinanceMultisenders/SnipeFinanceMultisenders.sol\":6438:6478  token.balanceOf(address(this)) >= amount */\n      lt\n      iszero\n        /* \"SnipeFinanceMultisenders (2)/SnipeFinanceMultisenders/SnipeFinanceMultisenders.sol\":6417:6540  require(... */\n      tag_241\n      jumpi\n      mload(0x40)\n      0x08c379a000000000000000000000000000000000000000000000000000000000\n      dup2\n      mstore\n      0x04\n      add\n      tag_242\n      swap1\n      tag_243\n      jump\t// in\n    tag_242:\n      mload(0x40)\n      dup1\n      swap2\n      sub\n      swap1\n      revert\n    tag_241:\n        /* \"SnipeFinanceMultisenders (2)/SnipeFinanceMultisenders/SnipeFinanceMultisenders.sol\":6550:6555  token */\n      dup2\n        /* \"SnipeFinanceMultisenders (2)/SnipeFinanceMultisenders/SnipeFinanceMultisenders.sol\":6550:6564  token.transfer */\n      0xffffffffffffffffffffffffffffffffffffffff\n      and\n      0xa9059cbb\n        /* \"SnipeFinanceMultisenders (2)/SnipeFinanceMultisenders/SnipeFinanceMultisenders.sol\":6565:6575  msg.sender */\n      caller\n        /* \"SnipeFinanceMultisenders (2)/SnipeFinanceMultisenders/SnipeFinanceMultisenders.sol\":6577:6583  amount */\n      dup4\n        /* \"SnipeFinanceMultisenders (2)/SnipeFinanceMultisenders/SnipeFinanceMultisenders.sol\":6550:6584  token.transfer(msg.sender, amount) */\n      mload(0x40)\n      dup4\n      0xffffffff\n      and\n      0xe0\n      shl\n      dup2\n      mstore\n      0x04\n      add\n      tag_244\n      swap3\n      swap2\n      swap1\n      tag_245\n      jump\t// in\n    tag_244:\n      0x20\n      mload(0x40)\n      dup1\n      dup4\n      sub\n      dup2\n      0x00\n      dup8\n      gas\n      call\n      iszero\n      dup1\n      iszero\n      tag_247\n      jumpi\n      returndatasize\n      0x00\n      dup1\n      returndatacopy\n      revert(0x00, returndatasize)\n    tag_247:\n      pop\n      pop\n      pop\n      pop\n      mload(0x40)\n      returndatasize\n      not(0x1f)\n      0x1f\n      dup3\n      add\n      and\n      dup3\n      add\n      dup1\n      0x40\n      mstore\n      pop\n      dup2\n      add\n      swap1\n      tag_248\n      swap2\n      swap1\n      tag_183\n      jump\t// in\n    tag_248:\n      pop\n        /* \"SnipeFinanceMultisenders (2)/SnipeFinanceMultisenders/SnipeFinanceMultisenders.sol\":6337:6591  function withdrawToken(IERC20 token, uint256 amount) public onlyOwner {... */\n      pop\n      pop\n      jump\t// out\n        /* \"SnipeFinanceMultisenders (2)/SnipeFinanceMultisenders/SnipeFinanceMultisenders.sol\":1172:2844  function coinMultisender(... */\n    tag_90:\n        /* \"SnipeFinanceMultisenders (2)/SnipeFinanceMultisenders/SnipeFinanceMultisenders.sol\":1118:1119  0 */\n      0x00\n        /* \"SnipeFinanceMultisenders (2)/SnipeFinanceMultisenders/SnipeFinanceMultisenders.sol\":1085:1120  address(tokenAddress) != address(0) */\n      0xffffffffffffffffffffffffffffffffffffffff\n      and\n        /* \"SnipeFinanceMultisenders (2)/SnipeFinanceMultisenders/SnipeFinanceMultisenders.sol\":1093:1105  tokenAddress */\n      0x04\n      0x00\n      swap1\n      sload\n      swap1\n      0x0100\n      exp\n      swap1\n      div\n      0xffffffffffffffffffffffffffffffffffffffff\n      and\n        /* \"SnipeFinanceMultisenders (2)/SnipeFinanceMultisenders/SnipeFinanceMultisenders.sol\":1085:1120  address(tokenAddress) != address(0) */\n      0xffffffffffffffffffffffffffffffffffffffff\n      and\n      sub\n        /* \"SnipeFinanceMultisenders (2)/SnipeFinanceMultisenders/SnipeFinanceMultisenders.sol\":1077:1148  require(address(tokenAddress) != address(0), \"set token holding first\") */\n      tag_250\n      jumpi\n      mload(0x40)\n      0x08c379a000000000000000000000000000000000000000000000000000000000\n      dup2\n      mstore\n      0x04\n      add\n      tag_251\n      swap1\n      tag_145\n      jump\t// in\n    tag_251:\n      mload(0x40)\n      dup1\n      swap2\n      sub\n      swap1\n      revert\n    tag_250:\n        /* \"SnipeFinanceMultisenders (2)/SnipeFinanceMultisenders/SnipeFinanceMultisenders.sol\":1367:1373  values */\n      dup1\n        /* \"SnipeFinanceMultisenders (2)/SnipeFinanceMultisenders/SnipeFinanceMultisenders.sol\":1367:1380  values.length */\n      mload\n        /* \"SnipeFinanceMultisenders (2)/SnipeFinanceMultisenders/SnipeFinanceMultisenders.sol\":1346:1356  recipients */\n      dup3\n        /* \"SnipeFinanceMultisenders (2)/SnipeFinanceMultisenders/SnipeFinanceMultisenders.sol\":1346:1363  recipients.length */\n      mload\n        /* \"SnipeFinanceMultisenders (2)/SnipeFinanceMultisenders/SnipeFinanceMultisenders.sol\":1346:1380  recipients.length == values.length */\n      eq\n        /* \"SnipeFinanceMultisenders (2)/SnipeFinanceMultisenders/SnipeFinanceMultisenders.sol\":1338:1398  require(recipients.length == values.length, \"invalid input\") */\n      tag_253\n      jumpi\n      mload(0x40)\n      0x08c379a000000000000000000000000000000000000000000000000000000000\n      dup2\n      mstore\n      0x04\n      add\n      tag_254\n      swap1\n      tag_154\n      jump\t// in\n    tag_254:\n      mload(0x40)\n      dup1\n      swap2\n      sub\n      swap1\n      revert\n    tag_253:\n        /* \"SnipeFinanceMultisenders (2)/SnipeFinanceMultisenders/SnipeFinanceMultisenders.sol\":1408:1427  uint256 totalValues */\n      0x00\n        /* \"SnipeFinanceMultisenders (2)/SnipeFinanceMultisenders/SnipeFinanceMultisenders.sol\":1442:1451  uint256 i */\n      dup1\n        /* \"SnipeFinanceMultisenders (2)/SnipeFinanceMultisenders/SnipeFinanceMultisenders.sol\":1437:1526  for (uint256 i; i < values.length; i++) {... */\n    tag_255:\n        /* \"SnipeFinanceMultisenders (2)/SnipeFinanceMultisenders/SnipeFinanceMultisenders.sol\":1457:1463  values */\n      dup3\n        /* \"SnipeFinanceMultisenders (2)/SnipeFinanceMultisenders/SnipeFinanceMultisenders.sol\":1457:1470  values.length */\n      mload\n        /* \"SnipeFinanceMultisenders (2)/SnipeFinanceMultisenders/SnipeFinanceMultisenders.sol\":1453:1454  i */\n      dup2\n        /* \"SnipeFinanceMultisenders (2)/SnipeFinanceMultisenders/SnipeFinanceMultisenders.sol\":1453:1470  i < values.length */\n      lt\n        /* \"SnipeFinanceMultisenders (2)/SnipeFinanceMultisenders/SnipeFinanceMultisenders.sol\":1437:1526  for (uint256 i; i < values.length; i++) {... */\n      iszero\n      tag_256\n      jumpi\n        /* \"SnipeFinanceMultisenders (2)/SnipeFinanceMultisenders/SnipeFinanceMultisenders.sol\":1506:1512  values */\n      dup3\n        /* \"SnipeFinanceMultisenders (2)/SnipeFinanceMultisenders/SnipeFinanceMultisenders.sol\":1513:1514  i */\n      dup2\n        /* \"SnipeFinanceMultisenders (2)/SnipeFinanceMultisenders/SnipeFinanceMultisenders.sol\":1506:1515  values[i] */\n      dup2\n      mload\n      dup2\n      lt\n      tag_258\n      jumpi\n      tag_259\n      tag_163\n      jump\t// in\n    tag_259:\n    tag_258:\n      0x20\n      mul\n      0x20\n      add\n      add\n      mload\n        /* \"SnipeFinanceMultisenders (2)/SnipeFinanceMultisenders/SnipeFinanceMultisenders.sol\":1491:1515  totalValues += values[i] */\n      dup3\n      tag_260\n      swap2\n      swap1\n      tag_261\n      jump\t// in\n    tag_260:\n      swap2\n      pop\n        /* \"SnipeFinanceMultisenders (2)/SnipeFinanceMultisenders/SnipeFinanceMultisenders.sol\":1472:1475  i++ */\n      dup1\n      dup1\n      tag_262\n      swap1\n      tag_169\n      jump\t// in\n    tag_262:\n      swap2\n      pop\n      pop\n        /* \"SnipeFinanceMultisenders (2)/SnipeFinanceMultisenders/SnipeFinanceMultisenders.sol\":1437:1526  for (uint256 i; i < values.length; i++) {... */\n      jump(tag_255)\n    tag_256:\n      pop\n        /* \"SnipeFinanceMultisenders (2)/SnipeFinanceMultisenders/SnipeFinanceMultisenders.sol\":1540:1555  authorizedusers */\n      0x03\n        /* \"SnipeFinanceMultisenders (2)/SnipeFinanceMultisenders/SnipeFinanceMultisenders.sol\":1540:1567  authorizedusers[msg.sender] */\n      0x00\n        /* \"SnipeFinanceMultisenders (2)/SnipeFinanceMultisenders/SnipeFinanceMultisenders.sol\":1556:1566  msg.sender */\n      caller\n        /* \"SnipeFinanceMultisenders (2)/SnipeFinanceMultisenders/SnipeFinanceMultisenders.sol\":1540:1567  authorizedusers[msg.sender] */\n      0xffffffffffffffffffffffffffffffffffffffff\n      and\n      0xffffffffffffffffffffffffffffffffffffffff\n      and\n      dup2\n      mstore\n      0x20\n      add\n      swap1\n      dup2\n      mstore\n      0x20\n      add\n      0x00\n      keccak256\n      0x00\n      swap1\n      sload\n      swap1\n      0x0100\n      exp\n      swap1\n      div\n      0xff\n      and\n        /* \"SnipeFinanceMultisenders (2)/SnipeFinanceMultisenders/SnipeFinanceMultisenders.sol\":1536:2838  if (authorizedusers[msg.sender]) {... */\n      iszero\n      tag_263\n      jumpi\n        /* \"SnipeFinanceMultisenders (2)/SnipeFinanceMultisenders/SnipeFinanceMultisenders.sol\":1621:1632  totalValues */\n      dup1\n        /* \"SnipeFinanceMultisenders (2)/SnipeFinanceMultisenders/SnipeFinanceMultisenders.sol\":1608:1617  msg.value */\n      callvalue\n        /* \"SnipeFinanceMultisenders (2)/SnipeFinanceMultisenders/SnipeFinanceMultisenders.sol\":1608:1632  msg.value == totalValues */\n      eq\n        /* \"SnipeFinanceMultisenders (2)/SnipeFinanceMultisenders/SnipeFinanceMultisenders.sol\":1583:1708  require(... */\n      tag_264\n      jumpi\n      mload(0x40)\n      0x08c379a000000000000000000000000000000000000000000000000000000000\n      dup2\n      mstore\n      0x04\n      add\n      tag_265\n      swap1\n      tag_266\n      jump\t// in\n    tag_265:\n      mload(0x40)\n      dup1\n      swap2\n      sub\n      swap1\n      revert\n    tag_264:\n        /* \"SnipeFinanceMultisenders (2)/SnipeFinanceMultisenders/SnipeFinanceMultisenders.sol\":1727:1736  uint256 i */\n      0x00\n        /* \"SnipeFinanceMultisenders (2)/SnipeFinanceMultisenders/SnipeFinanceMultisenders.sol\":1722:1845  for (uint256 i = 0; i < recipients.length; i++) {... */\n    tag_267:\n        /* \"SnipeFinanceMultisenders (2)/SnipeFinanceMultisenders/SnipeFinanceMultisenders.sol\":1746:1756  recipients */\n      dup4\n        /* \"SnipeFinanceMultisenders (2)/SnipeFinanceMultisenders/SnipeFinanceMultisenders.sol\":1746:1763  recipients.length */\n      mload\n        /* \"SnipeFinanceMultisenders (2)/SnipeFinanceMultisenders/SnipeFinanceMultisenders.sol\":1742:1743  i */\n      dup2\n        /* \"SnipeFinanceMultisenders (2)/SnipeFinanceMultisenders/SnipeFinanceMultisenders.sol\":1742:1763  i < recipients.length */\n      lt\n        /* \"SnipeFinanceMultisenders (2)/SnipeFinanceMultisenders/SnipeFinanceMultisenders.sol\":1722:1845  for (uint256 i = 0; i < recipients.length; i++) {... */\n      iszero\n      tag_268\n      jumpi\n        /* \"SnipeFinanceMultisenders (2)/SnipeFinanceMultisenders/SnipeFinanceMultisenders.sol\":1796:1806  recipients */\n      dup4\n        /* \"SnipeFinanceMultisenders (2)/SnipeFinanceMultisenders/SnipeFinanceMultisenders.sol\":1807:1808  i */\n      dup2\n        /* \"SnipeFinanceMultisenders (2)/SnipeFinanceMultisenders/SnipeFinanceMultisenders.sol\":1796:1809  recipients[i] */\n      dup2\n      mload\n      dup2\n      lt\n      tag_270\n      jumpi\n      tag_271\n      tag_163\n      jump\t// in\n    tag_271:\n    tag_270:\n      0x20\n      mul\n      0x20\n      add\n      add\n      mload\n        /* \"SnipeFinanceMultisenders (2)/SnipeFinanceMultisenders/SnipeFinanceMultisenders.sol\":1788:1819  payable(recipients[i]).transfer */\n      0xffffffffffffffffffffffffffffffffffffffff\n      and\n        /* \"SnipeFinanceMultisenders (2)/SnipeFinanceMultisenders/SnipeFinanceMultisenders.sol\":1788:1830  payable(recipients[i]).transfer(values[i]) */\n      0x08fc\n        /* \"SnipeFinanceMultisenders (2)/SnipeFinanceMultisenders/SnipeFinanceMultisenders.sol\":1820:1826  values */\n      dup5\n        /* \"SnipeFinanceMultisenders (2)/SnipeFinanceMultisenders/SnipeFinanceMultisenders.sol\":1827:1828  i */\n      dup4\n        /* \"SnipeFinanceMultisenders (2)/SnipeFinanceMultisenders/SnipeFinanceMultisenders.sol\":1820:1829  values[i] */\n      dup2\n      mload\n      dup2\n      lt\n      tag_272\n      jumpi\n      tag_273\n      tag_163\n      jump\t// in\n    tag_273:\n    tag_272:\n      0x20\n      mul\n      0x20\n      add\n      add\n      mload\n        /* \"SnipeFinanceMultisenders (2)/SnipeFinanceMultisenders/SnipeFinanceMultisenders.sol\":1788:1830  payable(recipients[i]).transfer(values[i]) */\n      swap1\n      dup2\n      iszero\n      mul\n      swap1\n      mload(0x40)\n      0x00\n      mload(0x40)\n      dup1\n      dup4\n      sub\n      dup2\n      dup6\n      dup9\n      dup9\n      call\n      swap4\n      pop\n      pop\n      pop\n      pop\n      iszero\n      dup1\n      iszero\n      tag_275\n      jumpi\n      returndatasize\n      0x00\n      dup1\n      returndatacopy\n      revert(0x00, returndatasize)\n    tag_275:\n      pop\n        /* \"SnipeFinanceMultisenders (2)/SnipeFinanceMultisenders/SnipeFinanceMultisenders.sol\":1765:1768  i++ */\n      dup1\n      dup1\n      tag_276\n      swap1\n      tag_169\n      jump\t// in\n    tag_276:\n      swap2\n      pop\n      pop\n        /* \"SnipeFinanceMultisenders (2)/SnipeFinanceMultisenders/SnipeFinanceMultisenders.sol\":1722:1845  for (uint256 i = 0; i < recipients.length; i++) {... */\n      jump(tag_267)\n    tag_268:\n      pop\n        /* \"SnipeFinanceMultisenders (2)/SnipeFinanceMultisenders/SnipeFinanceMultisenders.sol\":1536:2838  if (authorizedusers[msg.sender]) {... */\n      jump(tag_277)\n    tag_263:\n        /* \"SnipeFinanceMultisenders (2)/SnipeFinanceMultisenders/SnipeFinanceMultisenders.sol\":1866:1881  authorizedusers */\n      0x03\n        /* \"SnipeFinanceMultisenders (2)/SnipeFinanceMultisenders/SnipeFinanceMultisenders.sol\":1866:1893  authorizedusers[msg.sender] */\n      0x00\n        /* \"SnipeFinanceMultisenders (2)/SnipeFinanceMultisenders/SnipeFinanceMultisenders.sol\":1882:1892  msg.sender */\n      caller\n        /* \"SnipeFinanceMultisenders (2)/SnipeFinanceMultisenders/SnipeFinanceMultisenders.sol\":1866:1893  authorizedusers[msg.sender] */\n      0xffffffffffffffffffffffffffffffffffffffff\n      and\n      0xffffffffffffffffffffffffffffffffffffffff\n      and\n      dup2\n      mstore\n      0x20\n      add\n      swap1\n      dup2\n      mstore\n      0x20\n      add\n      0x00\n      keccak256\n      0x00\n      swap1\n      sload\n      swap1\n      0x0100\n      exp\n      swap1\n      div\n      0xff\n      and\n        /* \"SnipeFinanceMultisenders (2)/SnipeFinanceMultisenders/SnipeFinanceMultisenders.sol\":1861:2838  if (!authorizedusers[msg.sender]) {... */\n      tag_278\n      jumpi\n        /* \"SnipeFinanceMultisenders (2)/SnipeFinanceMultisenders/SnipeFinanceMultisenders.sol\":1951:1959  quantity */\n      sload(0x05)\n        /* \"SnipeFinanceMultisenders (2)/SnipeFinanceMultisenders/SnipeFinanceMultisenders.sol\":1913:1925  tokenAddress */\n      0x04\n      0x00\n      swap1\n      sload\n      swap1\n      0x0100\n      exp\n      swap1\n      div\n      0xffffffffffffffffffffffffffffffffffffffff\n      and\n        /* \"SnipeFinanceMultisenders (2)/SnipeFinanceMultisenders/SnipeFinanceMultisenders.sol\":1913:1935  tokenAddress.balanceOf */\n      0xffffffffffffffffffffffffffffffffffffffff\n      and\n      0x70a08231\n        /* \"SnipeFinanceMultisenders (2)/SnipeFinanceMultisenders/SnipeFinanceMultisenders.sol\":1936:1946  msg.sender */\n      caller\n        /* \"SnipeFinanceMultisenders (2)/SnipeFinanceMultisenders/SnipeFinanceMultisenders.sol\":1913:1947  tokenAddress.balanceOf(msg.sender) */\n      mload(0x40)\n      dup3\n      0xffffffff\n      and\n      0xe0\n      shl\n      dup2\n      mstore\n      0x04\n      add\n      tag_279\n      swap2\n      swap1\n      tag_73\n      jump\t// in\n    tag_279:\n      0x20\n      mload(0x40)\n      dup1\n      dup4\n      sub\n      dup2\n      dup7\n      gas\n      staticcall\n      iszero\n      dup1\n      iszero\n      tag_281\n      jumpi\n      returndatasize\n      0x00\n      dup1\n      returndatacopy\n      revert(0x00, returndatasize)\n    tag_281:\n      pop\n      pop\n      pop\n      pop\n      mload(0x40)\n      returndatasize\n      not(0x1f)\n      0x1f\n      dup3\n      add\n      and\n      dup3\n      add\n      dup1\n      0x40\n      mstore\n      pop\n      dup2\n      add\n      swap1\n      tag_282\n      swap2\n      swap1\n      tag_117\n      jump\t// in\n    tag_282:\n        /* \"SnipeFinanceMultisenders (2)/SnipeFinanceMultisenders/SnipeFinanceMultisenders.sol\":1913:1959  tokenAddress.balanceOf(msg.sender) >= quantity */\n      lt\n        /* \"SnipeFinanceMultisenders (2)/SnipeFinanceMultisenders/SnipeFinanceMultisenders.sol\":1909:2828  if (tokenAddress.balanceOf(msg.sender) >= quantity) {... */\n      tag_283\n      jumpi\n        /* \"SnipeFinanceMultisenders (2)/SnipeFinanceMultisenders/SnipeFinanceMultisenders.sol\":2009:2013  true */\n      0x01\n        /* \"SnipeFinanceMultisenders (2)/SnipeFinanceMultisenders/SnipeFinanceMultisenders.sol\":1979:1994  authorizedusers */\n      0x03\n        /* \"SnipeFinanceMultisenders (2)/SnipeFinanceMultisenders/SnipeFinanceMultisenders.sol\":1979:2006  authorizedusers[msg.sender] */\n      0x00\n        /* \"SnipeFinanceMultisenders (2)/SnipeFinanceMultisenders/SnipeFinanceMultisenders.sol\":1995:2005  msg.sender */\n      caller\n        /* \"SnipeFinanceMultisenders (2)/SnipeFinanceMultisenders/SnipeFinanceMultisenders.sol\":1979:2006  authorizedusers[msg.sender] */\n      0xffffffffffffffffffffffffffffffffffffffff\n      and\n      0xffffffffffffffffffffffffffffffffffffffff\n      and\n      dup2\n      mstore\n      0x20\n      add\n      swap1\n      dup2\n      mstore\n      0x20\n      add\n      0x00\n      keccak256\n      0x00\n        /* \"SnipeFinanceMultisenders (2)/SnipeFinanceMultisenders/SnipeFinanceMultisenders.sol\":1979:2013  authorizedusers[msg.sender] = true */\n      0x0100\n      exp\n      dup2\n      sload\n      dup2\n      0xff\n      mul\n      not\n      and\n      swap1\n      dup4\n      iszero\n      iszero\n      mul\n      or\n      swap1\n      sstore\n      pop\n        /* \"SnipeFinanceMultisenders (2)/SnipeFinanceMultisenders/SnipeFinanceMultisenders.sol\":2073:2084  totalValues */\n      dup1\n        /* \"SnipeFinanceMultisenders (2)/SnipeFinanceMultisenders/SnipeFinanceMultisenders.sol\":2060:2069  msg.value */\n      callvalue\n        /* \"SnipeFinanceMultisenders (2)/SnipeFinanceMultisenders/SnipeFinanceMultisenders.sol\":2060:2084  msg.value == totalValues */\n      eq\n        /* \"SnipeFinanceMultisenders (2)/SnipeFinanceMultisenders/SnipeFinanceMultisenders.sol\":2031:2181  require(... */\n      tag_284\n      jumpi\n      mload(0x40)\n      0x08c379a000000000000000000000000000000000000000000000000000000000\n      dup2\n      mstore\n      0x04\n      add\n      tag_285\n      swap1\n      tag_286\n      jump\t// in\n    tag_285:\n      mload(0x40)\n      dup1\n      swap2\n      sub\n      swap1\n      revert\n    tag_284:\n        /* \"SnipeFinanceMultisenders (2)/SnipeFinanceMultisenders/SnipeFinanceMultisenders.sol\":2204:2213  uint256 i */\n      0x00\n        /* \"SnipeFinanceMultisenders (2)/SnipeFinanceMultisenders/SnipeFinanceMultisenders.sol\":2199:2330  for (uint256 i = 0; i < recipients.length; i++) {... */\n    tag_287:\n        /* \"SnipeFinanceMultisenders (2)/SnipeFinanceMultisenders/SnipeFinanceMultisenders.sol\":2223:2233  recipients */\n      dup4\n        /* \"SnipeFinanceMultisenders (2)/SnipeFinanceMultisenders/SnipeFinanceMultisenders.sol\":2223:2240  recipients.length */\n      mload\n        /* \"SnipeFinanceMultisenders (2)/SnipeFinanceMultisenders/SnipeFinanceMultisenders.sol\":2219:2220  i */\n      dup2\n        /* \"SnipeFinanceMultisenders (2)/SnipeFinanceMultisenders/SnipeFinanceMultisenders.sol\":2219:2240  i < recipients.length */\n      lt\n        /* \"SnipeFinanceMultisenders (2)/SnipeFinanceMultisenders/SnipeFinanceMultisenders.sol\":2199:2330  for (uint256 i = 0; i < recipients.length; i++) {... */\n      iszero\n      tag_288\n      jumpi\n        /* \"SnipeFinanceMultisenders (2)/SnipeFinanceMultisenders/SnipeFinanceMultisenders.sol\":2277:2287  recipients */\n      dup4\n        /* \"SnipeFinanceMultisenders (2)/SnipeFinanceMultisenders/SnipeFinanceMultisenders.sol\":2288:2289  i */\n      dup2\n        /* \"SnipeFinanceMultisenders (2)/SnipeFinanceMultisenders/SnipeFinanceMultisenders.sol\":2277:2290  recipients[i] */\n      dup2\n      mload\n      dup2\n      lt\n      tag_290\n      jumpi\n      tag_291\n      tag_163\n      jump\t// in\n    tag_291:\n    tag_290:\n      0x20\n      mul\n      0x20\n      add\n      add\n      mload\n        /* \"SnipeFinanceMultisenders (2)/SnipeFinanceMultisenders/SnipeFinanceMultisenders.sol\":2269:2300  payable(recipients[i]).transfer */\n      0xffffffffffffffffffffffffffffffffffffffff\n      and\n        /* \"SnipeFinanceMultisenders (2)/SnipeFinanceMultisenders/SnipeFinanceMultisenders.sol\":2269:2311  payable(recipients[i]).transfer(values[i]) */\n      0x08fc\n        /* \"SnipeFinanceMultisenders (2)/SnipeFinanceMultisenders/SnipeFinanceMultisenders.sol\":2301:2307  values */\n      dup5\n        /* \"SnipeFinanceMultisenders (2)/SnipeFinanceMultisenders/SnipeFinanceMultisenders.sol\":2308:2309  i */\n      dup4\n        /* \"SnipeFinanceMultisenders (2)/SnipeFinanceMultisenders/SnipeFinanceMultisenders.sol\":2301:2310  values[i] */\n      dup2\n      mload\n      dup2\n      lt\n      tag_292\n      jumpi\n      tag_293\n      tag_163\n      jump\t// in\n    tag_293:\n    tag_292:\n      0x20\n      mul\n      0x20\n      add\n      add\n      mload\n        /* \"SnipeFinanceMultisenders (2)/SnipeFinanceMultisenders/SnipeFinanceMultisenders.sol\":2269:2311  payable(recipients[i]).transfer(values[i]) */\n      swap1\n      dup2\n      iszero\n      mul\n      swap1\n      mload(0x40)\n      0x00\n      mload(0x40)\n      dup1\n      dup4\n      sub\n      dup2\n      dup6\n      dup9\n      dup9\n      call\n      swap4\n      pop\n      pop\n      pop\n      pop\n      iszero\n      dup1\n      iszero\n      tag_295\n      jumpi\n      returndatasize\n      0x00\n      dup1\n      returndatacopy\n      revert(0x00, returndatasize)\n    tag_295:\n      pop\n        /* \"SnipeFinanceMultisenders (2)/SnipeFinanceMultisenders/SnipeFinanceMultisenders.sol\":2242:2245  i++ */\n      dup1\n      dup1\n      tag_296\n      swap1\n      tag_169\n      jump\t// in\n    tag_296:\n      swap2\n      pop\n      pop\n        /* \"SnipeFinanceMultisenders (2)/SnipeFinanceMultisenders/SnipeFinanceMultisenders.sol\":2199:2330  for (uint256 i = 0; i < recipients.length; i++) {... */\n      jump(tag_287)\n    tag_288:\n      pop\n        /* \"SnipeFinanceMultisenders (2)/SnipeFinanceMultisenders/SnipeFinanceMultisenders.sol\":1909:2828  if (tokenAddress.balanceOf(msg.sender) >= quantity) {... */\n      jump(tag_297)\n    tag_283:\n        /* \"SnipeFinanceMultisenders (2)/SnipeFinanceMultisenders/SnipeFinanceMultisenders.sol\":2391:2399  quantity */\n      sload(0x05)\n        /* \"SnipeFinanceMultisenders (2)/SnipeFinanceMultisenders/SnipeFinanceMultisenders.sol\":2354:2366  tokenAddress */\n      0x04\n      0x00\n      swap1\n      sload\n      swap1\n      0x0100\n      exp\n      swap1\n      div\n      0xffffffffffffffffffffffffffffffffffffffff\n      and\n        /* \"SnipeFinanceMultisenders (2)/SnipeFinanceMultisenders/SnipeFinanceMultisenders.sol\":2354:2376  tokenAddress.balanceOf */\n      0xffffffffffffffffffffffffffffffffffffffff\n      and\n      0x70a08231\n        /* \"SnipeFinanceMultisenders (2)/SnipeFinanceMultisenders/SnipeFinanceMultisenders.sol\":2377:2387  msg.sender */\n      caller\n        /* \"SnipeFinanceMultisenders (2)/SnipeFinanceMultisenders/SnipeFinanceMultisenders.sol\":2354:2388  tokenAddress.balanceOf(msg.sender) */\n      mload(0x40)\n      dup3\n      0xffffffff\n      and\n      0xe0\n      shl\n      dup2\n      mstore\n      0x04\n      add\n      tag_298\n      swap2\n      swap1\n      tag_73\n      jump\t// in\n    tag_298:\n      0x20\n      mload(0x40)\n      dup1\n      dup4\n      sub\n      dup2\n      dup7\n      gas\n      staticcall\n      iszero\n      dup1\n      iszero\n      tag_300\n      jumpi\n      returndatasize\n      0x00\n      dup1\n      returndatacopy\n      revert(0x00, returndatasize)\n    tag_300:\n      pop\n      pop\n      pop\n      pop\n      mload(0x40)\n      returndatasize\n      not(0x1f)\n      0x1f\n      dup3\n      add\n      and\n      dup3\n      add\n      dup1\n      0x40\n      mstore\n      pop\n      dup2\n      add\n      swap1\n      tag_301\n      swap2\n      swap1\n      tag_117\n      jump\t// in\n    tag_301:\n        /* \"SnipeFinanceMultisenders (2)/SnipeFinanceMultisenders/SnipeFinanceMultisenders.sol\":2354:2399  tokenAddress.balanceOf(msg.sender) < quantity */\n      lt\n        /* \"SnipeFinanceMultisenders (2)/SnipeFinanceMultisenders/SnipeFinanceMultisenders.sol\":2350:2828  if (tokenAddress.balanceOf(msg.sender) < quantity) {... */\n      iszero\n      tag_302\n      jumpi\n        /* \"SnipeFinanceMultisenders (2)/SnipeFinanceMultisenders/SnipeFinanceMultisenders.sol\":2419:2439  uint256 toBeIncluded */\n      0x00\n        /* \"SnipeFinanceMultisenders (2)/SnipeFinanceMultisenders/SnipeFinanceMultisenders.sol\":2448:2459  totalValues */\n      dup2\n        /* \"SnipeFinanceMultisenders (2)/SnipeFinanceMultisenders/SnipeFinanceMultisenders.sol\":2442:2445  fee */\n      sload(0x01)\n        /* \"SnipeFinanceMultisenders (2)/SnipeFinanceMultisenders/SnipeFinanceMultisenders.sol\":2442:2459  fee + totalValues */\n      tag_303\n      swap2\n      swap1\n      tag_261\n      jump\t// in\n    tag_303:\n        /* \"SnipeFinanceMultisenders (2)/SnipeFinanceMultisenders/SnipeFinanceMultisenders.sol\":2419:2459  uint256 toBeIncluded = fee + totalValues */\n      swap1\n      pop\n        /* \"SnipeFinanceMultisenders (2)/SnipeFinanceMultisenders/SnipeFinanceMultisenders.sol\":2519:2531  toBeIncluded */\n      dup1\n        /* \"SnipeFinanceMultisenders (2)/SnipeFinanceMultisenders/SnipeFinanceMultisenders.sol\":2506:2515  msg.value */\n      callvalue\n        /* \"SnipeFinanceMultisenders (2)/SnipeFinanceMultisenders/SnipeFinanceMultisenders.sol\":2506:2531  msg.value == toBeIncluded */\n      eq\n        /* \"SnipeFinanceMultisenders (2)/SnipeFinanceMultisenders/SnipeFinanceMultisenders.sol\":2477:2616  require(... */\n      tag_304\n      jumpi\n      mload(0x40)\n      0x08c379a000000000000000000000000000000000000000000000000000000000\n      dup2\n      mstore\n      0x04\n      add\n      tag_305\n      swap1\n      tag_217\n      jump\t// in\n    tag_305:\n      mload(0x40)\n      dup1\n      swap2\n      sub\n      swap1\n      revert\n    tag_304:\n        /* \"SnipeFinanceMultisenders (2)/SnipeFinanceMultisenders/SnipeFinanceMultisenders.sol\":2642:2650  receiver */\n      0x02\n      0x00\n      swap1\n      sload\n      swap1\n      0x0100\n      exp\n      swap1\n      div\n      0xffffffffffffffffffffffffffffffffffffffff\n      and\n        /* \"SnipeFinanceMultisenders (2)/SnipeFinanceMultisenders/SnipeFinanceMultisenders.sol\":2634:2660  payable(receiver).transfer */\n      0xffffffffffffffffffffffffffffffffffffffff\n      and\n        /* \"SnipeFinanceMultisenders (2)/SnipeFinanceMultisenders/SnipeFinanceMultisenders.sol\":2634:2665  payable(receiver).transfer(fee) */\n      0x08fc\n        /* \"SnipeFinanceMultisenders (2)/SnipeFinanceMultisenders/SnipeFinanceMultisenders.sol\":2661:2664  fee */\n      sload(0x01)\n        /* \"SnipeFinanceMultisenders (2)/SnipeFinanceMultisenders/SnipeFinanceMultisenders.sol\":2634:2665  payable(receiver).transfer(fee) */\n      swap1\n      dup2\n      iszero\n      mul\n      swap1\n      mload(0x40)\n      0x00\n      mload(0x40)\n      dup1\n      dup4\n      sub\n      dup2\n      dup6\n      dup9\n      dup9\n      call\n      swap4\n      pop\n      pop\n      pop\n      pop\n      iszero\n      dup1\n      iszero\n      tag_307\n      jumpi\n      returndatasize\n      0x00\n      dup1\n      returndatacopy\n      revert(0x00, returndatasize)\n    tag_307:\n      pop\n        /* \"SnipeFinanceMultisenders (2)/SnipeFinanceMultisenders/SnipeFinanceMultisenders.sol\":2688:2697  uint256 i */\n      0x00\n        /* \"SnipeFinanceMultisenders (2)/SnipeFinanceMultisenders/SnipeFinanceMultisenders.sol\":2683:2814  for (uint256 i = 0; i < recipients.length; i++) {... */\n    tag_308:\n        /* \"SnipeFinanceMultisenders (2)/SnipeFinanceMultisenders/SnipeFinanceMultisenders.sol\":2707:2717  recipients */\n      dup5\n        /* \"SnipeFinanceMultisenders (2)/SnipeFinanceMultisenders/SnipeFinanceMultisenders.sol\":2707:2724  recipients.length */\n      mload\n        /* \"SnipeFinanceMultisenders (2)/SnipeFinanceMultisenders/SnipeFinanceMultisenders.sol\":2703:2704  i */\n      dup2\n        /* \"SnipeFinanceMultisenders (2)/SnipeFinanceMultisenders/SnipeFinanceMultisenders.sol\":2703:2724  i < recipients.length */\n      lt\n        /* \"SnipeFinanceMultisenders (2)/SnipeFinanceMultisenders/SnipeFinanceMultisenders.sol\":2683:2814  for (uint256 i = 0; i < recipients.length; i++) {... */\n      iszero\n      tag_309\n      jumpi\n        /* \"SnipeFinanceMultisenders (2)/SnipeFinanceMultisenders/SnipeFinanceMultisenders.sol\":2761:2771  recipients */\n      dup5\n        /* \"SnipeFinanceMultisenders (2)/SnipeFinanceMultisenders/SnipeFinanceMultisenders.sol\":2772:2773  i */\n      dup2\n        /* \"SnipeFinanceMultisenders (2)/SnipeFinanceMultisenders/SnipeFinanceMultisenders.sol\":2761:2774  recipients[i] */\n      dup2\n      mload\n      dup2\n      lt\n      tag_311\n      jumpi\n      tag_312\n      tag_163\n      jump\t// in\n    tag_312:\n    tag_311:\n      0x20\n      mul\n      0x20\n      add\n      add\n      mload\n        /* \"SnipeFinanceMultisenders (2)/SnipeFinanceMultisenders/SnipeFinanceMultisenders.sol\":2753:2784  payable(recipients[i]).transfer */\n      0xffffffffffffffffffffffffffffffffffffffff\n      and\n        /* \"SnipeFinanceMultisenders (2)/SnipeFinanceMultisenders/SnipeFinanceMultisenders.sol\":2753:2795  payable(recipients[i]).transfer(values[i]) */\n      0x08fc\n        /* \"SnipeFinanceMultisenders (2)/SnipeFinanceMultisenders/SnipeFinanceMultisenders.sol\":2785:2791  values */\n      dup6\n        /* \"SnipeFinanceMultisenders (2)/SnipeFinanceMultisenders/SnipeFinanceMultisenders.sol\":2792:2793  i */\n      dup4\n        /* \"SnipeFinanceMultisenders (2)/SnipeFinanceMultisenders/SnipeFinanceMultisenders.sol\":2785:2794  values[i] */\n      dup2\n      mload\n      dup2\n      lt\n      tag_313\n      jumpi\n      tag_314\n      tag_163\n      jump\t// in\n    tag_314:\n    tag_313:\n      0x20\n      mul\n      0x20\n      add\n      add\n      mload\n        /* \"SnipeFinanceMultisenders (2)/SnipeFinanceMultisenders/SnipeFinanceMultisenders.sol\":2753:2795  payable(recipients[i]).transfer(values[i]) */\n      swap1\n      dup2\n      iszero\n      mul\n      swap1\n      mload(0x40)\n      0x00\n      mload(0x40)\n      dup1\n      dup4\n      sub\n      dup2\n      dup6\n      dup9\n      dup9\n      call\n      swap4\n      pop\n      pop\n      pop\n      pop\n      iszero\n      dup1\n      iszero\n      tag_316\n      jumpi\n      returndatasize\n      0x00\n      dup1\n      returndatacopy\n      revert(0x00, returndatasize)\n    tag_316:\n      pop\n        /* \"SnipeFinanceMultisenders (2)/SnipeFinanceMultisenders/SnipeFinanceMultisenders.sol\":2726:2729  i++ */\n      dup1\n      dup1\n      tag_317\n      swap1\n      tag_169\n      jump\t// in\n    tag_317:\n      swap2\n      pop\n      pop\n        /* \"SnipeFinanceMultisenders (2)/SnipeFinanceMultisenders/SnipeFinanceMultisenders.sol\":2683:2814  for (uint256 i = 0; i < recipients.length; i++) {... */\n      jump(tag_308)\n    tag_309:\n      pop\n        /* \"SnipeFinanceMultisenders (2)/SnipeFinanceMultisenders/SnipeFinanceMultisenders.sol\":2401:2828  {... */\n      pop\n        /* \"SnipeFinanceMultisenders (2)/SnipeFinanceMultisenders/SnipeFinanceMultisenders.sol\":2350:2828  if (tokenAddress.balanceOf(msg.sender) < quantity) {... */\n    tag_302:\n        /* \"SnipeFinanceMultisenders (2)/SnipeFinanceMultisenders/SnipeFinanceMultisenders.sol\":1909:2828  if (tokenAddress.balanceOf(msg.sender) >= quantity) {... */\n    tag_297:\n        /* \"SnipeFinanceMultisenders (2)/SnipeFinanceMultisenders/SnipeFinanceMultisenders.sol\":1861:2838  if (!authorizedusers[msg.sender]) {... */\n    tag_278:\n        /* \"SnipeFinanceMultisenders (2)/SnipeFinanceMultisenders/SnipeFinanceMultisenders.sol\":1536:2838  if (authorizedusers[msg.sender]) {... */\n    tag_277:\n        /* \"SnipeFinanceMultisenders (2)/SnipeFinanceMultisenders/SnipeFinanceMultisenders.sol\":1303:2844  {... */\n      pop\n        /* \"SnipeFinanceMultisenders (2)/SnipeFinanceMultisenders/SnipeFinanceMultisenders.sol\":1172:2844  function coinMultisender(... */\n      pop\n      pop\n      jump\t// out\n        /* \"SnipeFinanceMultisenders (2)/SnipeFinanceMultisenders/SnipeFinanceMultisenders.sol\":550:568  uint256 public fee */\n    tag_93:\n      sload(0x01)\n      dup2\n      jump\t// out\n        /* \"@openzeppelin/contracts/access/Ownable.sol\":2074:2272  function transferOwnership(address newOwner) public virtual onlyOwner {... */\n    tag_98:\n        /* \"@openzeppelin/contracts/access/Ownable.sol\":1094:1107  _checkOwner() */\n      tag_319\n        /* \"@openzeppelin/contracts/access/Ownable.sol\":1094:1105  _checkOwner */\n      tag_111\n        /* \"@openzeppelin/contracts/access/Ownable.sol\":1094:1107  _checkOwner() */\n      jump\t// in\n    tag_319:\n        /* \"@openzeppelin/contracts/access/Ownable.sol\":2182:2183  0 */\n      0x00\n        /* \"@openzeppelin/contracts/access/Ownable.sol\":2162:2184  newOwner != address(0) */\n      0xffffffffffffffffffffffffffffffffffffffff\n      and\n        /* \"@openzeppelin/contracts/access/Ownable.sol\":2162:2170  newOwner */\n      dup2\n        /* \"@openzeppelin/contracts/access/Ownable.sol\":2162:2184  newOwner != address(0) */\n      0xffffffffffffffffffffffffffffffffffffffff\n      and\n      sub\n        /* \"@openzeppelin/contracts/access/Ownable.sol\":2154:2227  require(newOwner != address(0), \"Ownable: new owner is the zero address\") */\n      tag_321\n      jumpi\n      mload(0x40)\n      0x08c379a000000000000000000000000000000000000000000000000000000000\n      dup2\n      mstore\n      0x04\n      add\n      tag_322\n      swap1\n      tag_323\n      jump\t// in\n    tag_322:\n      mload(0x40)\n      dup1\n      swap2\n      sub\n      swap1\n      revert\n    tag_321:\n        /* \"@openzeppelin/contracts/access/Ownable.sol\":2237:2265  _transferOwnership(newOwner) */\n      tag_324\n        /* \"@openzeppelin/contracts/access/Ownable.sol\":2256:2264  newOwner */\n      dup2\n        /* \"@openzeppelin/contracts/access/Ownable.sol\":2237:2255  _transferOwnership */\n      tag_137\n        /* \"@openzeppelin/contracts/access/Ownable.sol\":2237:2265  _transferOwnership(newOwner) */\n      jump\t// in\n    tag_324:\n        /* \"@openzeppelin/contracts/access/Ownable.sol\":2074:2272  function transferOwnership(address newOwner) public virtual onlyOwner {... */\n      pop\n      jump\t// out\n        /* \"SnipeFinanceMultisenders (2)/SnipeFinanceMultisenders/SnipeFinanceMultisenders.sol\":574:605  address payable public receiver */\n    tag_101:\n      0x02\n      0x00\n      swap1\n      sload\n      swap1\n      0x0100\n      exp\n      swap1\n      div\n      0xffffffffffffffffffffffffffffffffffffffff\n      and\n      dup2\n      jump\t// out\n        /* \"SnipeFinanceMultisenders (2)/SnipeFinanceMultisenders/SnipeFinanceMultisenders.sol\":6057:6249  function withdrawCoins(uint256 amount) external onlyOwner {... */\n    tag_108:\n        /* \"@openzeppelin/contracts/access/Ownable.sol\":1094:1107  _checkOwner() */\n      tag_326\n        /* \"@openzeppelin/contracts/access/Ownable.sol\":1094:1105  _checkOwner */\n      tag_111\n        /* \"@openzeppelin/contracts/access/Ownable.sol\":1094:1107  _checkOwner() */\n      jump\t// in\n    tag_326:\n        /* \"SnipeFinanceMultisenders (2)/SnipeFinanceMultisenders/SnipeFinanceMultisenders.sol\":6158:6164  amount */\n      dup1\n        /* \"SnipeFinanceMultisenders (2)/SnipeFinanceMultisenders/SnipeFinanceMultisenders.sol\":6141:6145  this */\n      address\n        /* \"SnipeFinanceMultisenders (2)/SnipeFinanceMultisenders/SnipeFinanceMultisenders.sol\":6133:6154  address(this).balance */\n      0xffffffffffffffffffffffffffffffffffffffff\n      and\n      balance\n        /* \"SnipeFinanceMultisenders (2)/SnipeFinanceMultisenders/SnipeFinanceMultisenders.sol\":6133:6164  address(this).balance >= amount */\n      lt\n      iszero\n        /* \"SnipeFinanceMultisenders (2)/SnipeFinanceMultisenders/SnipeFinanceMultisenders.sol\":6125:6196  require(address(this).balance >= amount, \"invalid balance to withdraw\") */\n      tag_328\n      jumpi\n      mload(0x40)\n      0x08c379a000000000000000000000000000000000000000000000000000000000\n      dup2\n      mstore\n      0x04\n      add\n      tag_329\n      swap1\n      tag_330\n      jump\t// in\n    tag_329:\n      mload(0x40)\n      dup1\n      swap2\n      sub\n      swap1\n      revert\n    tag_328:\n        /* \"SnipeFinanceMultisenders (2)/SnipeFinanceMultisenders/SnipeFinanceMultisenders.sol\":6214:6224  msg.sender */\n      caller\n        /* \"SnipeFinanceMultisenders (2)/SnipeFinanceMultisenders/SnipeFinanceMultisenders.sol\":6206:6234  payable(msg.sender).transfer */\n      0xffffffffffffffffffffffffffffffffffffffff\n      and\n        /* \"SnipeFinanceMultisenders (2)/SnipeFinanceMultisenders/SnipeFinanceMultisenders.sol\":6206:6242  payable(msg.sender).transfer(amount) */\n      0x08fc\n        /* \"SnipeFinanceMultisenders (2)/SnipeFinanceMultisenders/SnipeFinanceMultisenders.sol\":6235:6241  amount */\n      dup3\n        /* \"SnipeFinanceMultisenders (2)/SnipeFinanceMultisenders/SnipeFinanceMultisenders.sol\":6206:6242  payable(msg.sender).transfer(amount) */\n      swap1\n      dup2\n      iszero\n      mul\n      swap1\n      mload(0x40)\n      0x00\n      mload(0x40)\n      dup1\n      dup4\n      sub\n      dup2\n      dup6\n      dup9\n      dup9\n      call\n      swap4\n      pop\n      pop\n      pop\n      pop\n      iszero\n      dup1\n      iszero\n      tag_332\n      jumpi\n      returndatasize\n      0x00\n      dup1\n      returndatacopy\n      revert(0x00, returndatasize)\n    tag_332:\n      pop\n        /* \"SnipeFinanceMultisenders (2)/SnipeFinanceMultisenders/SnipeFinanceMultisenders.sol\":6057:6249  function withdrawCoins(uint256 amount) external onlyOwner {... */\n      pop\n      jump\t// out\n        /* \"@openzeppelin/contracts/access/Ownable.sol\":1359:1489  function _checkOwner() internal view virtual {... */\n    tag_111:\n        /* \"@openzeppelin/contracts/access/Ownable.sol\":1433:1445  _msgSender() */\n      tag_334\n        /* \"@openzeppelin/contracts/access/Ownable.sol\":1433:1443  _msgSender */\n      tag_335\n        /* \"@openzeppelin/contracts/access/Ownable.sol\":1433:1445  _msgSender() */\n      jump\t// in\n    tag_334:\n        /* \"@openzeppelin/contracts/access/Ownable.sol\":1422:1445  owner() == _msgSender() */\n      0xffffffffffffffffffffffffffffffffffffffff\n      and\n        /* \"@openzeppelin/contracts/access/Ownable.sol\":1422:1429  owner() */\n      tag_336\n        /* \"@openzeppelin/contracts/access/Ownable.sol\":1422:1427  owner */\n      tag_71\n        /* \"@openzeppelin/contracts/access/Ownable.sol\":1422:1429  owner() */\n      jump\t// in\n    tag_336:\n        /* \"@openzeppelin/contracts/access/Ownable.sol\":1422:1445  owner() == _msgSender() */\n      0xffffffffffffffffffffffffffffffffffffffff\n      and\n      eq\n        /* \"@openzeppelin/contracts/access/Ownable.sol\":1414:1482  require(owner() == _msgSender(), \"Ownable: caller is not the owner\") */\n      tag_337\n      jumpi\n      mload(0x40)\n      0x08c379a000000000000000000000000000000000000000000000000000000000\n      dup2\n      mstore\n      0x04\n      add\n      tag_338\n      swap1\n      tag_339\n      jump\t// in\n    tag_338:\n      mload(0x40)\n      dup1\n      swap2\n      sub\n      swap1\n      revert\n    tag_337:\n        /* \"@openzeppelin/contracts/access/Ownable.sol\":1359:1489  function _checkOwner() internal view virtual {... */\n      jump\t// out\n        /* \"@openzeppelin/contracts/access/Ownable.sol\":2426:2613  function _transferOwnership(address newOwner) internal virtual {... */\n    tag_137:\n        /* \"@openzeppelin/contracts/access/Ownable.sol\":2499:2515  address oldOwner */\n      0x00\n        /* \"@openzeppelin/contracts/access/Ownable.sol\":2518:2524  _owner */\n      dup1\n      0x00\n      swap1\n      sload\n      swap1\n      0x0100\n      exp\n      swap1\n      div\n      0xffffffffffffffffffffffffffffffffffffffff\n      and\n        /* \"@openzeppelin/contracts/access/Ownable.sol\":2499:2524  address oldOwner = _owner */\n      swap1\n      pop\n        /* \"@openzeppelin/contracts/access/Ownable.sol\":2543:2551  newOwner */\n      dup2\n        /* \"@openzeppelin/contracts/access/Ownable.sol\":2534:2540  _owner */\n      0x00\n      dup1\n        /* \"@openzeppelin/contracts/access/Ownable.sol\":2534:2551  _owner = newOwner */\n      0x0100\n      exp\n      dup2\n      sload\n      dup2\n      0xffffffffffffffffffffffffffffffffffffffff\n      mul\n      not\n      and\n      swap1\n      dup4\n      0xffffffffffffffffffffffffffffffffffffffff\n      and\n      mul\n      or\n      swap1\n      sstore\n      pop\n        /* \"@openzeppelin/contracts/access/Ownable.sol\":2597:2605  newOwner */\n      dup2\n        /* \"@openzeppelin/contracts/access/Ownable.sol\":2566:2606  OwnershipTransferred(oldOwner, newOwner) */\n      0xffffffffffffffffffffffffffffffffffffffff\n      and\n        /* \"@openzeppelin/contracts/access/Ownable.sol\":2587:2595  oldOwner */\n      dup2\n        /* \"@openzeppelin/contracts/access/Ownable.sol\":2566:2606  OwnershipTransferred(oldOwner, newOwner) */\n      0xffffffffffffffffffffffffffffffffffffffff\n      and\n      0x8be0079c531659141344cd1fd0a4f28419497f9722a3daafe3b4186f6b6457e0\n      mload(0x40)\n      mload(0x40)\n      dup1\n      swap2\n      sub\n      swap1\n      log3\n        /* \"@openzeppelin/contracts/access/Ownable.sol\":2489:2613  {... */\n      pop\n        /* \"@openzeppelin/contracts/access/Ownable.sol\":2426:2613  function _transferOwnership(address newOwner) internal virtual {... */\n      pop\n      jump\t// out\n        /* \"@openzeppelin/contracts/utils/Address.sol\":1412:1732  function isContract(address account) internal view returns (bool) {... */\n    tag_148:\n        /* \"@openzeppelin/contracts/utils/Address.sol\":1472:1476  bool */\n      0x00\n        /* \"@openzeppelin/contracts/utils/Address.sol\":1724:1725  0 */\n      dup1\n        /* \"@openzeppelin/contracts/utils/Address.sol\":1702:1709  account */\n      dup3\n        /* \"@openzeppelin/contracts/utils/Address.sol\":1702:1721  account.code.length */\n      0xffffffffffffffffffffffffffffffffffffffff\n      and\n      extcodesize\n        /* \"@openzeppelin/contracts/utils/Address.sol\":1702:1725  account.code.length > 0 */\n      gt\n        /* \"@openzeppelin/contracts/utils/Address.sol\":1695:1725  return account.code.length > 0 */\n      swap1\n      pop\n        /* \"@openzeppelin/contracts/utils/Address.sol\":1412:1732  function isContract(address account) internal view returns (bool) {... */\n      swap2\n      swap1\n      pop\n      jump\t// out\n        /* \"@openzeppelin/contracts/utils/Context.sol\":640:736  function _msgSender() internal view virtual returns (address) {... */\n    tag_335:\n        /* \"@openzeppelin/contracts/utils/Context.sol\":693:700  address */\n      0x00\n        /* \"@openzeppelin/contracts/utils/Context.sol\":719:729  msg.sender */\n      caller\n        /* \"@openzeppelin/contracts/utils/Context.sol\":712:729  return msg.sender */\n      swap1\n      pop\n        /* \"@openzeppelin/contracts/utils/Context.sol\":640:736  function _msgSender() internal view virtual returns (address) {... */\n      swap1\n      jump\t// out\n        /* \"#utility.yul\":7:82   */\n    tag_343:\n        /* \"#utility.yul\":40:46   */\n      0x00\n        /* \"#utility.yul\":73:75   */\n      0x40\n        /* \"#utility.yul\":67:76   */\n      mload\n        /* \"#utility.yul\":57:76   */\n      swap1\n      pop\n        /* \"#utility.yul\":7:82   */\n      swap1\n      jump\t// out\n        /* \"#utility.yul\":88:205   */\n    tag_344:\n        /* \"#utility.yul\":197:198   */\n      0x00\n        /* \"#utility.yul\":194:195   */\n      dup1\n        /* \"#utility.yul\":187:199   */\n      revert\n        /* \"#utility.yul\":211:328   */\n    tag_345:\n        /* \"#utility.yul\":320:321   */\n      0x00\n        /* \"#utility.yul\":317:318   */\n      dup1\n        /* \"#utility.yul\":310:322   */\n      revert\n        /* \"#utility.yul\":334:411   */\n    tag_346:\n        /* \"#utility.yul\":371:378   */\n      0x00\n        /* \"#utility.yul\":400:405   */\n      dup2\n        /* \"#utility.yul\":389:405   */\n      swap1\n      pop\n        /* \"#utility.yul\":334:411   */\n      swap2\n      swap1\n      pop\n      jump\t// out\n        /* \"#utility.yul\":417:539   */\n    tag_347:\n        /* \"#utility.yul\":490:514   */\n      tag_422\n        /* \"#utility.yul\":508:513   */\n      dup2\n        /* \"#utility.yul\":490:514   */\n      tag_346\n      jump\t// in\n    tag_422:\n        /* \"#utility.yul\":483:488   */\n      dup2\n        /* \"#utility.yul\":480:515   */\n      eq\n        /* \"#utility.yul\":470:533   */\n      tag_423\n      jumpi\n        /* \"#utility.yul\":529:530   */\n      0x00\n        /* \"#utility.yul\":526:527   */\n      dup1\n        /* \"#utility.yul\":519:531   */\n      revert\n        /* \"#utility.yul\":470:533   */\n    tag_423:\n        /* \"#utility.yul\":417:539   */\n      pop\n      jump\t// out\n        /* \"#utility.yul\":545:684   */\n    tag_348:\n        /* \"#utility.yul\":591:596   */\n      0x00\n        /* \"#utility.yul\":629:635   */\n      dup2\n        /* \"#utility.yul\":616:636   */\n      calldataload\n        /* \"#utility.yul\":607:636   */\n      swap1\n      pop\n        /* \"#utility.yul\":645:678   */\n      tag_425\n        /* \"#utility.yul\":672:677   */\n      dup2\n        /* \"#utility.yul\":645:678   */\n      tag_347\n      jump\t// in\n    tag_425:\n        /* \"#utility.yul\":545:684   */\n      swap3\n      swap2\n      pop\n      pop\n      jump\t// out\n        /* \"#utility.yul\":690:816   */\n    tag_349:\n        /* \"#utility.yul\":727:734   */\n      0x00\n        /* \"#utility.yul\":767:809   */\n      0xffffffffffffffffffffffffffffffffffffffff\n        /* \"#utility.yul\":760:765   */\n      dup3\n        /* \"#utility.yul\":756:810   */\n      and\n        /* \"#utility.yul\":745:810   */\n      swap1\n      pop\n        /* \"#utility.yul\":690:816   */\n      swap2\n      swap1\n      pop\n      jump\t// out\n        /* \"#utility.yul\":822:918   */\n    tag_350:\n        /* \"#utility.yul\":859:866   */\n      0x00\n        /* \"#utility.yul\":888:912   */\n      tag_428\n        /* \"#utility.yul\":906:911   */\n      dup3\n        /* \"#utility.yul\":888:912   */\n      tag_349\n      jump\t// in\n    tag_428:\n        /* \"#utility.yul\":877:912   */\n      swap1\n      pop\n        /* \"#utility.yul\":822:918   */\n      swap2\n      swap1\n      pop\n      jump\t// out\n        /* \"#utility.yul\":924:1046   */\n    tag_351:\n        /* \"#utility.yul\":997:1021   */\n      tag_430\n        /* \"#utility.yul\":1015:1020   */\n      dup2\n        /* \"#utility.yul\":997:1021   */\n      tag_350\n      jump\t// in\n    tag_430:\n        /* \"#utility.yul\":990:995   */\n      dup2\n        /* \"#utility.yul\":987:1022   */\n      eq\n        /* \"#utility.yul\":977:1040   */\n      tag_431\n      jumpi\n        /* \"#utility.yul\":1036:1037   */\n      0x00\n        /* \"#utility.yul\":1033:1034   */\n      dup1\n        /* \"#utility.yul\":1026:1038   */\n      revert\n        /* \"#utility.yul\":977:1040   */\n    tag_431:\n        /* \"#utility.yul\":924:1046   */\n      pop\n      jump\t// out\n        /* \"#utility.yul\":1052:1191   */\n    tag_352:\n        /* \"#utility.yul\":1098:1103   */\n      0x00\n        /* \"#utility.yul\":1136:1142   */\n      dup2\n        /* \"#utility.yul\":1123:1143   */\n      calldataload\n        /* \"#utility.yul\":1114:1143   */\n      swap1\n      pop\n        /* \"#utility.yul\":1152:1185   */\n      tag_433\n        /* \"#utility.yul\":1179:1184   */\n      dup2\n        /* \"#utility.yul\":1152:1185   */\n      tag_351\n      jump\t// in\n    tag_433:\n        /* \"#utility.yul\":1052:1191   */\n      swap3\n      swap2\n      pop\n      pop\n      jump\t// out\n        /* \"#utility.yul\":1197:1671   */\n    tag_29:\n        /* \"#utility.yul\":1265:1271   */\n      0x00\n        /* \"#utility.yul\":1273:1279   */\n      dup1\n        /* \"#utility.yul\":1322:1324   */\n      0x40\n        /* \"#utility.yul\":1310:1319   */\n      dup4\n        /* \"#utility.yul\":1301:1308   */\n      dup6\n        /* \"#utility.yul\":1297:1320   */\n      sub\n        /* \"#utility.yul\":1293:1325   */\n      slt\n        /* \"#utility.yul\":1290:1409   */\n      iszero\n      tag_435\n      jumpi\n        /* \"#utility.yul\":1328:1407   */\n      tag_436\n      tag_344\n      jump\t// in\n    tag_436:\n        /* \"#utility.yul\":1290:1409   */\n    tag_435:\n        /* \"#utility.yul\":1448:1449   */\n      0x00\n        /* \"#utility.yul\":1473:1526   */\n      tag_437\n        /* \"#utility.yul\":1518:1525   */\n      dup6\n        /* \"#utility.yul\":1509:1515   */\n      dup3\n        /* \"#utility.yul\":1498:1507   */\n      dup7\n        /* \"#utility.yul\":1494:1516   */\n      add\n        /* \"#utility.yul\":1473:1526   */\n      tag_348\n      jump\t// in\n    tag_437:\n        /* \"#utility.yul\":1463:1526   */\n      swap3\n      pop\n        /* \"#utility.yul\":1419:1536   */\n      pop\n        /* \"#utility.yul\":1575:1577   */\n      0x20\n        /* \"#utility.yul\":1601:1654   */\n      tag_438\n        /* \"#utility.yul\":1646:1653   */\n      dup6\n        /* \"#utility.yul\":1637:1643   */\n      dup3\n        /* \"#utility.yul\":1626:1635   */\n      dup7\n        /* \"#utility.yul\":1622:1644   */\n      add\n        /* \"#utility.yul\":1601:1654   */\n      tag_352\n      jump\t// in\n    tag_438:\n        /* \"#utility.yul\":1591:1654   */\n      swap2\n      pop\n        /* \"#utility.yul\":1546:1664   */\n      pop\n        /* \"#utility.yul\":1197:1671   */\n      swap3\n      pop\n      swap3\n      swap1\n      pop\n      jump\t// out\n        /* \"#utility.yul\":1677:1795   */\n    tag_353:\n        /* \"#utility.yul\":1764:1788   */\n      tag_440\n        /* \"#utility.yul\":1782:1787   */\n      dup2\n        /* \"#utility.yul\":1764:1788   */\n      tag_346\n      jump\t// in\n    tag_440:\n        /* \"#utility.yul\":1759:1762   */\n      dup3\n        /* \"#utility.yul\":1752:1789   */\n      mstore\n        /* \"#utility.yul\":1677:1795   */\n      pop\n      pop\n      jump\t// out\n        /* \"#utility.yul\":1801:2023   */\n    tag_35:\n        /* \"#utility.yul\":1894:1898   */\n      0x00\n        /* \"#utility.yul\":1932:1934   */\n      0x20\n        /* \"#utility.yul\":1921:1930   */\n      dup3\n        /* \"#utility.yul\":1917:1935   */\n      add\n        /* \"#utility.yul\":1909:1935   */\n      swap1\n      pop\n        /* \"#utility.yul\":1945:2016   */\n      tag_442\n        /* \"#utility.yul\":2013:2014   */\n      0x00\n        /* \"#utility.yul\":2002:2011   */\n      dup4\n        /* \"#utility.yul\":1998:2015   */\n      add\n        /* \"#utility.yul\":1989:1995   */\n      dup5\n        /* \"#utility.yul\":1945:2016   */\n      tag_353\n      jump\t// in\n    tag_442:\n        /* \"#utility.yul\":1801:2023   */\n      swap3\n      swap2\n      pop\n      pop\n      jump\t// out\n        /* \"#utility.yul\":2029:2145   */\n    tag_354:\n        /* \"#utility.yul\":2086:2093   */\n      0x00\n        /* \"#utility.yul\":2115:2139   */\n      tag_444\n        /* \"#utility.yul\":2133:2138   */\n      dup3\n        /* \"#utility.yul\":2115:2139   */\n      tag_350\n      jump\t// in\n    tag_444:\n        /* \"#utility.yul\":2104:2139   */\n      swap1\n      pop\n        /* \"#utility.yul\":2029:2145   */\n      swap2\n      swap1\n      pop\n      jump\t// out\n        /* \"#utility.yul\":2151:2313   */\n    tag_355:\n        /* \"#utility.yul\":2244:2288   */\n      tag_446\n        /* \"#utility.yul\":2282:2287   */\n      dup2\n        /* \"#utility.yul\":2244:2288   */\n      tag_354\n      jump\t// in\n    tag_446:\n        /* \"#utility.yul\":2237:2242   */\n      dup2\n        /* \"#utility.yul\":2234:2289   */\n      eq\n        /* \"#utility.yul\":2224:2307   */\n      tag_447\n      jumpi\n        /* \"#utility.yul\":2303:2304   */\n      0x00\n        /* \"#utility.yul\":2300:2301   */\n      dup1\n        /* \"#utility.yul\":2293:2305   */\n      revert\n        /* \"#utility.yul\":2224:2307   */\n    tag_447:\n        /* \"#utility.yul\":2151:2313   */\n      pop\n      jump\t// out\n        /* \"#utility.yul\":2319:2498   */\n    tag_356:\n        /* \"#utility.yul\":2385:2390   */\n      0x00\n        /* \"#utility.yul\":2423:2429   */\n      dup2\n        /* \"#utility.yul\":2410:2430   */\n      calldataload\n        /* \"#utility.yul\":2401:2430   */\n      swap1\n      pop\n        /* \"#utility.yul\":2439:2492   */\n      tag_449\n        /* \"#utility.yul\":2486:2491   */\n      dup2\n        /* \"#utility.yul\":2439:2492   */\n      tag_355\n      jump\t// in\n    tag_449:\n        /* \"#utility.yul\":2319:2498   */\n      swap3\n      swap2\n      pop\n      pop\n      jump\t// out\n        /* \"#utility.yul\":2504:2873   */\n    tag_39:\n        /* \"#utility.yul\":2583:2589   */\n      0x00\n        /* \"#utility.yul\":2632:2634   */\n      0x20\n        /* \"#utility.yul\":2620:2629   */\n      dup3\n        /* \"#utility.yul\":2611:2618   */\n      dup5\n        /* \"#utility.yul\":2607:2630   */\n      sub\n        /* \"#utility.yul\":2603:2635   */\n      slt\n        /* \"#utility.yul\":2600:2719   */\n      iszero\n      tag_451\n      jumpi\n        /* \"#utility.yul\":2638:2717   */\n      tag_452\n      tag_344\n      jump\t// in\n    tag_452:\n        /* \"#utility.yul\":2600:2719   */\n    tag_451:\n        /* \"#utility.yul\":2758:2759   */\n      0x00\n        /* \"#utility.yul\":2783:2856   */\n      tag_453\n        /* \"#utility.yul\":2848:2855   */\n      dup5\n        /* \"#utility.yul\":2839:2845   */\n      dup3\n        /* \"#utility.yul\":2828:2837   */\n      dup6\n        /* \"#utility.yul\":2824:2846   */\n      add\n        /* \"#utility.yul\":2783:2856   */\n      tag_356\n      jump\t// in\n    tag_453:\n        /* \"#utility.yul\":2773:2856   */\n      swap2\n      pop\n        /* \"#utility.yul\":2729:2866   */\n      pop\n        /* \"#utility.yul\":2504:2873   */\n      swap3\n      swap2\n      pop\n      pop\n      jump\t// out\n        /* \"#utility.yul\":2879:2989   */\n    tag_357:\n        /* \"#utility.yul\":2930:2937   */\n      0x00\n        /* \"#utility.yul\":2959:2983   */\n      tag_455\n        /* \"#utility.yul\":2977:2982   */\n      dup3\n        /* \"#utility.yul\":2959:2983   */\n      tag_350\n      jump\t// in\n    tag_455:\n        /* \"#utility.yul\":2948:2983   */\n      swap1\n      pop\n        /* \"#utility.yul\":2879:2989   */\n      swap2\n      swap1\n      pop\n      jump\t// out\n        /* \"#utility.yul\":2995:3145   */\n    tag_358:\n        /* \"#utility.yul\":3082:3120   */\n      tag_457\n        /* \"#utility.yul\":3114:3119   */\n      dup2\n        /* \"#utility.yul\":3082:3120   */\n      tag_357\n      jump\t// in\n    tag_457:\n        /* \"#utility.yul\":3075:3080   */\n      dup2\n        /* \"#utility.yul\":3072:3121   */\n      eq\n        /* \"#utility.yul\":3062:3139   */\n      tag_458\n      jumpi\n        /* \"#utility.yul\":3135:3136   */\n      0x00\n        /* \"#utility.yul\":3132:3133   */\n      dup1\n        /* \"#utility.yul\":3125:3137   */\n      revert\n        /* \"#utility.yul\":3062:3139   */\n    tag_458:\n        /* \"#utility.yul\":2995:3145   */\n      pop\n      jump\t// out\n        /* \"#utility.yul\":3151:3318   */\n    tag_359:\n        /* \"#utility.yul\":3211:3216   */\n      0x00\n        /* \"#utility.yul\":3249:3255   */\n      dup2\n        /* \"#utility.yul\":3236:3256   */\n      calldataload\n        /* \"#utility.yul\":3227:3256   */\n      swap1\n      pop\n        /* \"#utility.yul\":3265:3312   */\n      tag_460\n        /* \"#utility.yul\":3306:3311   */\n      dup2\n        /* \"#utility.yul\":3265:3312   */\n      tag_358\n      jump\t// in\n    tag_460:\n        /* \"#utility.yul\":3151:3318   */\n      swap3\n      swap2\n      pop\n      pop\n      jump\t// out\n        /* \"#utility.yul\":3324:3826   */\n    tag_45:\n        /* \"#utility.yul\":3406:3412   */\n      0x00\n        /* \"#utility.yul\":3414:3420   */\n      dup1\n        /* \"#utility.yul\":3463:3465   */\n      0x40\n        /* \"#utility.yul\":3451:3460   */\n      dup4\n        /* \"#utility.yul\":3442:3449   */\n      dup6\n        /* \"#utility.yul\":3438:3461   */\n      sub\n        /* \"#utility.yul\":3434:3466   */\n      slt\n        /* \"#utility.yul\":3431:3550   */\n      iszero\n      tag_462\n      jumpi\n        /* \"#utility.yul\":3469:3548   */\n      tag_463\n      tag_344\n      jump\t// in\n    tag_463:\n        /* \"#utility.yul\":3431:3550   */\n    tag_462:\n        /* \"#utility.yul\":3589:3590   */\n      0x00\n        /* \"#utility.yul\":3614:3681   */\n      tag_464\n        /* \"#utility.yul\":3673:3680   */\n      dup6\n        /* \"#utility.yul\":3664:3670   */\n      dup3\n        /* \"#utility.yul\":3653:3662   */\n      dup7\n        /* \"#utility.yul\":3649:3671   */\n      add\n        /* \"#utility.yul\":3614:3681   */\n      tag_359\n      jump\t// in\n    tag_464:\n        /* \"#utility.yul\":3604:3681   */\n      swap3\n      pop\n        /* \"#utility.yul\":3560:3691   */\n      pop\n        /* \"#utility.yul\":3730:3732   */\n      0x20\n        /* \"#utility.yul\":3756:3809   */\n      tag_465\n        /* \"#utility.yul\":3801:3808   */\n      dup6\n        /* \"#utility.yul\":3792:3798   */\n      dup3\n        /* \"#utility.yul\":3781:3790   */\n      dup7\n        /* \"#utility.yul\":3777:3799   */\n      add\n        /* \"#utility.yul\":3756:3809   */\n      tag_348\n      jump\t// in\n    tag_465:\n        /* \"#utility.yul\":3746:3809   */\n      swap2\n      pop\n        /* \"#utility.yul\":3701:3819   */\n      pop\n        /* \"#utility.yul\":3324:3826   */\n      swap3\n      pop\n      swap3\n      swap1\n      pop\n      jump\t// out\n        /* \"#utility.yul\":3832:4161   */\n    tag_50:\n        /* \"#utility.yul\":3891:3897   */\n      0x00\n        /* \"#utility.yul\":3940:3942   */\n      0x20\n        /* \"#utility.yul\":3928:3937   */\n      dup3\n        /* \"#utility.yul\":3919:3926   */\n      dup5\n        /* \"#utility.yul\":3915:3938   */\n      sub\n        /* \"#utility.yul\":3911:3943   */\n      slt\n        /* \"#utility.yul\":3908:4027   */\n      iszero\n      tag_467\n      jumpi\n        /* \"#utility.yul\":3946:4025   */\n      tag_468\n      tag_344\n      jump\t// in\n    tag_468:\n        /* \"#utility.yul\":3908:4027   */\n    tag_467:\n        /* \"#utility.yul\":4066:4067   */\n      0x00\n        /* \"#utility.yul\":4091:4144   */\n      tag_469\n        /* \"#utility.yul\":4136:4143   */\n      dup5\n        /* \"#utility.yul\":4127:4133   */\n      dup3\n        /* \"#utility.yul\":4116:4125   */\n      dup6\n        /* \"#utility.yul\":4112:4134   */\n      add\n        /* \"#utility.yul\":4091:4144   */\n      tag_352\n      jump\t// in\n    tag_469:\n        /* \"#utility.yul\":4081:4144   */\n      swap2\n      pop\n        /* \"#utility.yul\":4037:4154   */\n      pop\n        /* \"#utility.yul\":3832:4161   */\n      swap3\n      swap2\n      pop\n      pop\n      jump\t// out\n        /* \"#utility.yul\":4167:4257   */\n    tag_360:\n        /* \"#utility.yul\":4201:4208   */\n      0x00\n        /* \"#utility.yul\":4244:4249   */\n      dup2\n        /* \"#utility.yul\":4237:4250   */\n      iszero\n        /* \"#utility.yul\":4230:4251   */\n      iszero\n        /* \"#utility.yul\":4219:4251   */\n      swap1\n      pop\n        /* \"#utility.yul\":4167:4257   */\n      swap2\n      swap1\n      pop\n      jump\t// out\n        /* \"#utility.yul\":4263:4372   */\n    tag_361:\n        /* \"#utility.yul\":4344:4365   */\n      tag_472\n        /* \"#utility.yul\":4359:4364   */\n      dup2\n        /* \"#utility.yul\":4344:4365   */\n      tag_360\n      jump\t// in\n    tag_472:\n        /* \"#utility.yul\":4339:4342   */\n      dup3\n        /* \"#utility.yul\":4332:4366   */\n      mstore\n        /* \"#utility.yul\":4263:4372   */\n      pop\n      pop\n      jump\t// out\n        /* \"#utility.yul\":4378:4588   */\n    tag_53:\n        /* \"#utility.yul\":4465:4469   */\n      0x00\n        /* \"#utility.yul\":4503:4505   */\n      0x20\n        /* \"#utility.yul\":4492:4501   */\n      dup3\n        /* \"#utility.yul\":4488:4506   */\n      add\n        /* \"#utility.yul\":4480:4506   */\n      swap1\n      pop\n        /* \"#utility.yul\":4516:4581   */\n      tag_474\n        /* \"#utility.yul\":4578:4579   */\n      0x00\n        /* \"#utility.yul\":4567:4576   */\n      dup4\n        /* \"#utility.yul\":4563:4580   */\n      add\n        /* \"#utility.yul\":4554:4560   */\n      dup5\n        /* \"#utility.yul\":4516:4581   */\n      tag_361\n      jump\t// in\n    tag_474:\n        /* \"#utility.yul\":4378:4588   */\n      swap3\n      swap2\n      pop\n      pop\n      jump\t// out\n        /* \"#utility.yul\":4594:4712   */\n    tag_362:\n        /* \"#utility.yul\":4681:4705   */\n      tag_476\n        /* \"#utility.yul\":4699:4704   */\n      dup2\n        /* \"#utility.yul\":4681:4705   */\n      tag_350\n      jump\t// in\n    tag_476:\n        /* \"#utility.yul\":4676:4679   */\n      dup3\n        /* \"#utility.yul\":4669:4706   */\n      mstore\n        /* \"#utility.yul\":4594:4712   */\n      pop\n      pop\n      jump\t// out\n        /* \"#utility.yul\":4718:4940   */\n    tag_73:\n        /* \"#utility.yul\":4811:4815   */\n      0x00\n        /* \"#utility.yul\":4849:4851   */\n      0x20\n        /* \"#utility.yul\":4838:4847   */\n      dup3\n        /* \"#utility.yul\":4834:4852   */\n      add\n        /* \"#utility.yul\":4826:4852   */\n      swap1\n      pop\n        /* \"#utility.yul\":4862:4933   */\n      tag_478\n        /* \"#utility.yul\":4930:4931   */\n      0x00\n        /* \"#utility.yul\":4919:4928   */\n      dup4\n        /* \"#utility.yul\":4915:4932   */\n      add\n        /* \"#utility.yul\":4906:4912   */\n      dup5\n        /* \"#utility.yul\":4862:4933   */\n      tag_362\n      jump\t// in\n    tag_478:\n        /* \"#utility.yul\":4718:4940   */\n      swap3\n      swap2\n      pop\n      pop\n      jump\t// out\n        /* \"#utility.yul\":4946:5063   */\n    tag_363:\n        /* \"#utility.yul\":5055:5056   */\n      0x00\n        /* \"#utility.yul\":5052:5053   */\n      dup1\n        /* \"#utility.yul\":5045:5057   */\n      revert\n        /* \"#utility.yul\":5069:5171   */\n    tag_364:\n        /* \"#utility.yul\":5110:5116   */\n      0x00\n        /* \"#utility.yul\":5161:5163   */\n      0x1f\n        /* \"#utility.yul\":5157:5164   */\n      not\n        /* \"#utility.yul\":5152:5154   */\n      0x1f\n        /* \"#utility.yul\":5145:5150   */\n      dup4\n        /* \"#utility.yul\":5141:5155   */\n      add\n        /* \"#utility.yul\":5137:5165   */\n      and\n        /* \"#utility.yul\":5127:5165   */\n      swap1\n      pop\n        /* \"#utility.yul\":5069:5171   */\n      swap2\n      swap1\n      pop\n      jump\t// out\n        /* \"#utility.yul\":5177:5357   */\n    tag_365:\n        /* \"#utility.yul\":5225:5302   */\n      0x4e487b7100000000000000000000000000000000000000000000000000000000\n        /* \"#utility.yul\":5222:5223   */\n      0x00\n        /* \"#utility.yul\":5215:5303   */\n      mstore\n        /* \"#utility.yul\":5322:5326   */\n      0x41\n        /* \"#utility.yul\":5319:5320   */\n      0x04\n        /* \"#utility.yul\":5312:5327   */\n      mstore\n        /* \"#utility.yul\":5346:5350   */\n      0x24\n        /* \"#utility.yul\":5343:5344   */\n      0x00\n        /* \"#utility.yul\":5336:5351   */\n      revert\n        /* \"#utility.yul\":5363:5644   */\n    tag_366:\n        /* \"#utility.yul\":5446:5473   */\n      tag_483\n        /* \"#utility.yul\":5468:5472   */\n      dup3\n        /* \"#utility.yul\":5446:5473   */\n      tag_364\n      jump\t// in\n    tag_483:\n        /* \"#utility.yul\":5438:5444   */\n      dup2\n        /* \"#utility.yul\":5434:5474   */\n      add\n        /* \"#utility.yul\":5576:5582   */\n      dup2\n        /* \"#utility.yul\":5564:5574   */\n      dup2\n        /* \"#utility.yul\":5561:5583   */\n      lt\n        /* \"#utility.yul\":5540:5558   */\n      0xffffffffffffffff\n        /* \"#utility.yul\":5528:5538   */\n      dup3\n        /* \"#utility.yul\":5525:5559   */\n      gt\n        /* \"#utility.yul\":5522:5584   */\n      or\n        /* \"#utility.yul\":5519:5607   */\n      iszero\n      tag_484\n      jumpi\n        /* \"#utility.yul\":5587:5605   */\n      tag_485\n      tag_365\n      jump\t// in\n    tag_485:\n        /* \"#utility.yul\":5519:5607   */\n    tag_484:\n        /* \"#utility.yul\":5627:5637   */\n      dup1\n        /* \"#utility.yul\":5623:5625   */\n      0x40\n        /* \"#utility.yul\":5616:5638   */\n      mstore\n        /* \"#utility.yul\":5406:5644   */\n      pop\n        /* \"#utility.yul\":5363:5644   */\n      pop\n      pop\n      jump\t// out\n        /* \"#utility.yul\":5650:5779   */\n    tag_367:\n        /* \"#utility.yul\":5684:5690   */\n      0x00\n        /* \"#utility.yul\":5711:5731   */\n      tag_487\n      tag_343\n      jump\t// in\n    tag_487:\n        /* \"#utility.yul\":5701:5731   */\n      swap1\n      pop\n        /* \"#utility.yul\":5740:5773   */\n      tag_488\n        /* \"#utility.yul\":5768:5772   */\n      dup3\n        /* \"#utility.yul\":5760:5766   */\n      dup3\n        /* \"#utility.yul\":5740:5773   */\n      tag_366\n      jump\t// in\n    tag_488:\n        /* \"#utility.yul\":5650:5779   */\n      swap2\n      swap1\n      pop\n      jump\t// out\n        /* \"#utility.yul\":5785:6096   */\n    tag_368:\n        /* \"#utility.yul\":5862:5866   */\n      0x00\n        /* \"#utility.yul\":5952:5970   */\n      0xffffffffffffffff\n        /* \"#utility.yul\":5944:5950   */\n      dup3\n        /* \"#utility.yul\":5941:5971   */\n      gt\n        /* \"#utility.yul\":5938:5994   */\n      iszero\n      tag_490\n      jumpi\n        /* \"#utility.yul\":5974:5992   */\n      tag_491\n      tag_365\n      jump\t// in\n    tag_491:\n        /* \"#utility.yul\":5938:5994   */\n    tag_490:\n        /* \"#utility.yul\":6024:6028   */\n      0x20\n        /* \"#utility.yul\":6016:6022   */\n      dup3\n        /* \"#utility.yul\":6012:6029   */\n      mul\n        /* \"#utility.yul\":6004:6029   */\n      swap1\n      pop\n        /* \"#utility.yul\":6084:6088   */\n      0x20\n        /* \"#utility.yul\":6078:6082   */\n      dup2\n        /* \"#utility.yul\":6074:6089   */\n      add\n        /* \"#utility.yul\":6066:6089   */\n      swap1\n      pop\n        /* \"#utility.yul\":5785:6096   */\n      swap2\n      swap1\n      pop\n      jump\t// out\n        /* \"#utility.yul\":6102:6219   */\n    tag_369:\n        /* \"#utility.yul\":6211:6212   */\n      0x00\n        /* \"#utility.yul\":6208:6209   */\n      dup1\n        /* \"#utility.yul\":6201:6213   */\n      revert\n        /* \"#utility.yul\":6242:6952   */\n    tag_370:\n        /* \"#utility.yul\":6338:6343   */\n      0x00\n        /* \"#utility.yul\":6363:6444   */\n      tag_494\n        /* \"#utility.yul\":6379:6443   */\n      tag_495\n        /* \"#utility.yul\":6436:6442   */\n      dup5\n        /* \"#utility.yul\":6379:6443   */\n      tag_368\n      jump\t// in\n    tag_495:\n        /* \"#utility.yul\":6363:6444   */\n      tag_367\n      jump\t// in\n    tag_494:\n        /* \"#utility.yul\":6354:6444   */\n      swap1\n      pop\n        /* \"#utility.yul\":6464:6469   */\n      dup1\n        /* \"#utility.yul\":6493:6499   */\n      dup4\n        /* \"#utility.yul\":6486:6491   */\n      dup3\n        /* \"#utility.yul\":6479:6500   */\n      mstore\n        /* \"#utility.yul\":6527:6531   */\n      0x20\n        /* \"#utility.yul\":6520:6525   */\n      dup3\n        /* \"#utility.yul\":6516:6532   */\n      add\n        /* \"#utility.yul\":6509:6532   */\n      swap1\n      pop\n        /* \"#utility.yul\":6580:6584   */\n      0x20\n        /* \"#utility.yul\":6572:6578   */\n      dup5\n        /* \"#utility.yul\":6568:6585   */\n      mul\n        /* \"#utility.yul\":6560:6566   */\n      dup4\n        /* \"#utility.yul\":6556:6586   */\n      add\n        /* \"#utility.yul\":6609:6612   */\n      dup6\n        /* \"#utility.yul\":6601:6607   */\n      dup2\n        /* \"#utility.yul\":6598:6613   */\n      gt\n        /* \"#utility.yul\":6595:6717   */\n      iszero\n      tag_496\n      jumpi\n        /* \"#utility.yul\":6628:6707   */\n      tag_497\n      tag_369\n      jump\t// in\n    tag_497:\n        /* \"#utility.yul\":6595:6717   */\n    tag_496:\n        /* \"#utility.yul\":6743:6749   */\n      dup4\n        /* \"#utility.yul\":6726:6946   */\n    tag_498:\n        /* \"#utility.yul\":6760:6766   */\n      dup2\n        /* \"#utility.yul\":6755:6758   */\n      dup2\n        /* \"#utility.yul\":6752:6767   */\n      lt\n        /* \"#utility.yul\":6726:6946   */\n      iszero\n      tag_500\n      jumpi\n        /* \"#utility.yul\":6835:6838   */\n      dup1\n        /* \"#utility.yul\":6864:6901   */\n      tag_501\n        /* \"#utility.yul\":6897:6900   */\n      dup9\n        /* \"#utility.yul\":6885:6895   */\n      dup3\n        /* \"#utility.yul\":6864:6901   */\n      tag_352\n      jump\t// in\n    tag_501:\n        /* \"#utility.yul\":6859:6862   */\n      dup5\n        /* \"#utility.yul\":6852:6902   */\n      mstore\n        /* \"#utility.yul\":6931:6935   */\n      0x20\n        /* \"#utility.yul\":6926:6929   */\n      dup5\n        /* \"#utility.yul\":6922:6936   */\n      add\n        /* \"#utility.yul\":6915:6936   */\n      swap4\n      pop\n        /* \"#utility.yul\":6802:6946   */\n      pop\n        /* \"#utility.yul\":6786:6790   */\n      0x20\n        /* \"#utility.yul\":6781:6784   */\n      dup2\n        /* \"#utility.yul\":6777:6791   */\n      add\n        /* \"#utility.yul\":6770:6791   */\n      swap1\n      pop\n        /* \"#utility.yul\":6726:6946   */\n      jump(tag_498)\n    tag_500:\n        /* \"#utility.yul\":6730:6751   */\n      pop\n        /* \"#utility.yul\":6344:6952   */\n      pop\n      pop\n        /* \"#utility.yul\":6242:6952   */\n      swap4\n      swap3\n      pop\n      pop\n      pop\n      jump\t// out\n        /* \"#utility.yul\":6975:7345   */\n    tag_371:\n        /* \"#utility.yul\":7046:7051   */\n      0x00\n        /* \"#utility.yul\":7095:7098   */\n      dup3\n        /* \"#utility.yul\":7088:7092   */\n      0x1f\n        /* \"#utility.yul\":7080:7086   */\n      dup4\n        /* \"#utility.yul\":7076:7093   */\n      add\n        /* \"#utility.yul\":7072:7099   */\n      slt\n        /* \"#utility.yul\":7062:7184   */\n      tag_503\n      jumpi\n        /* \"#utility.yul\":7103:7182   */\n      tag_504\n      tag_363\n      jump\t// in\n    tag_504:\n        /* \"#utility.yul\":7062:7184   */\n    tag_503:\n        /* \"#utility.yul\":7220:7226   */\n      dup2\n        /* \"#utility.yul\":7207:7227   */\n      calldataload\n        /* \"#utility.yul\":7245:7339   */\n      tag_505\n        /* \"#utility.yul\":7335:7338   */\n      dup5\n        /* \"#utility.yul\":7327:7333   */\n      dup3\n        /* \"#utility.yul\":7320:7324   */\n      0x20\n        /* \"#utility.yul\":7312:7318   */\n      dup7\n        /* \"#utility.yul\":7308:7325   */\n      add\n        /* \"#utility.yul\":7245:7339   */\n      tag_370\n      jump\t// in\n    tag_505:\n        /* \"#utility.yul\":7236:7339   */\n      swap2\n      pop\n        /* \"#utility.yul\":7052:7345   */\n      pop\n        /* \"#utility.yul\":6975:7345   */\n      swap3\n      swap2\n      pop\n      pop\n      jump\t// out\n        /* \"#utility.yul\":7351:7662   */\n    tag_372:\n        /* \"#utility.yul\":7428:7432   */\n      0x00\n        /* \"#utility.yul\":7518:7536   */\n      0xffffffffffffffff\n        /* \"#utility.yul\":7510:7516   */\n      dup3\n        /* \"#utility.yul\":7507:7537   */\n      gt\n        /* \"#utility.yul\":7504:7560   */\n      iszero\n      tag_507\n      jumpi\n        /* \"#utility.yul\":7540:7558   */\n      tag_508\n      tag_365\n      jump\t// in\n    tag_508:\n        /* \"#utility.yul\":7504:7560   */\n    tag_507:\n        /* \"#utility.yul\":7590:7594   */\n      0x20\n        /* \"#utility.yul\":7582:7588   */\n      dup3\n        /* \"#utility.yul\":7578:7595   */\n      mul\n        /* \"#utility.yul\":7570:7595   */\n      swap1\n      pop\n        /* \"#utility.yul\":7650:7654   */\n      0x20\n        /* \"#utility.yul\":7644:7648   */\n      dup2\n        /* \"#utility.yul\":7640:7655   */\n      add\n        /* \"#utility.yul\":7632:7655   */\n      swap1\n      pop\n        /* \"#utility.yul\":7351:7662   */\n      swap2\n      swap1\n      pop\n      jump\t// out\n        /* \"#utility.yul\":7685:8395   */\n    tag_373:\n        /* \"#utility.yul\":7781:7786   */\n      0x00\n        /* \"#utility.yul\":7806:7887   */\n      tag_510\n        /* \"#utility.yul\":7822:7886   */\n      tag_511\n        /* \"#utility.yul\":7879:7885   */\n      dup5\n        /* \"#utility.yul\":7822:7886   */\n      tag_372\n      jump\t// in\n    tag_511:\n        /* \"#utility.yul\":7806:7887   */\n      tag_367\n      jump\t// in\n    tag_510:\n        /* \"#utility.yul\":7797:7887   */\n      swap1\n      pop\n        /* \"#utility.yul\":7907:7912   */\n      dup1\n        /* \"#utility.yul\":7936:7942   */\n      dup4\n        /* \"#utility.yul\":7929:7934   */\n      dup3\n        /* \"#utility.yul\":7922:7943   */\n      mstore\n        /* \"#utility.yul\":7970:7974   */\n      0x20\n        /* \"#utility.yul\":7963:7968   */\n      dup3\n        /* \"#utility.yul\":7959:7975   */\n      add\n        /* \"#utility.yul\":7952:7975   */\n      swap1\n      pop\n        /* \"#utility.yul\":8023:8027   */\n      0x20\n        /* \"#utility.yul\":8015:8021   */\n      dup5\n        /* \"#utility.yul\":8011:8028   */\n      mul\n        /* \"#utility.yul\":8003:8009   */\n      dup4\n        /* \"#utility.yul\":7999:8029   */\n      add\n        /* \"#utility.yul\":8052:8055   */\n      dup6\n        /* \"#utility.yul\":8044:8050   */\n      dup2\n        /* \"#utility.yul\":8041:8056   */\n      gt\n        /* \"#utility.yul\":8038:8160   */\n      iszero\n      tag_512\n      jumpi\n        /* \"#utility.yul\":8071:8150   */\n      tag_513\n      tag_369\n      jump\t// in\n    tag_513:\n        /* \"#utility.yul\":8038:8160   */\n    tag_512:\n        /* \"#utility.yul\":8186:8192   */\n      dup4\n        /* \"#utility.yul\":8169:8389   */\n    tag_514:\n        /* \"#utility.yul\":8203:8209   */\n      dup2\n        /* \"#utility.yul\":8198:8201   */\n      dup2\n        /* \"#utility.yul\":8195:8210   */\n      lt\n        /* \"#utility.yul\":8169:8389   */\n      iszero\n      tag_516\n      jumpi\n        /* \"#utility.yul\":8278:8281   */\n      dup1\n        /* \"#utility.yul\":8307:8344   */\n      tag_517\n        /* \"#utility.yul\":8340:8343   */\n      dup9\n        /* \"#utility.yul\":8328:8338   */\n      dup3\n        /* \"#utility.yul\":8307:8344   */\n      tag_348\n      jump\t// in\n    tag_517:\n        /* \"#utility.yul\":8302:8305   */\n      dup5\n        /* \"#utility.yul\":8295:8345   */\n      mstore\n        /* \"#utility.yul\":8374:8378   */\n      0x20\n        /* \"#utility.yul\":8369:8372   */\n      dup5\n        /* \"#utility.yul\":8365:8379   */\n      add\n        /* \"#utility.yul\":8358:8379   */\n      swap4\n      pop\n        /* \"#utility.yul\":8245:8389   */\n      pop\n        /* \"#utility.yul\":8229:8233   */\n      0x20\n        /* \"#utility.yul\":8224:8227   */\n      dup2\n        /* \"#utility.yul\":8220:8234   */\n      add\n        /* \"#utility.yul\":8213:8234   */\n      swap1\n      pop\n        /* \"#utility.yul\":8169:8389   */\n      jump(tag_514)\n    tag_516:\n        /* \"#utility.yul\":8173:8194   */\n      pop\n        /* \"#utility.yul\":7787:8395   */\n      pop\n      pop\n        /* \"#utility.yul\":7685:8395   */\n      swap4\n      swap3\n      pop\n      pop\n      pop\n      jump\t// out\n        /* \"#utility.yul\":8418:8788   */\n    tag_374:\n        /* \"#utility.yul\":8489:8494   */\n      0x00\n        /* \"#utility.yul\":8538:8541   */\n      dup3\n        /* \"#utility.yul\":8531:8535   */\n      0x1f\n        /* \"#utility.yul\":8523:8529   */\n      dup4\n        /* \"#utility.yul\":8519:8536   */\n      add\n        /* \"#utility.yul\":8515:8542   */\n      slt\n        /* \"#utility.yul\":8505:8627   */\n      tag_519\n      jumpi\n        /* \"#utility.yul\":8546:8625   */\n      tag_520\n      tag_363\n      jump\t// in\n    tag_520:\n        /* \"#utility.yul\":8505:8627   */\n    tag_519:\n        /* \"#utility.yul\":8663:8669   */\n      dup2\n        /* \"#utility.yul\":8650:8670   */\n      calldataload\n        /* \"#utility.yul\":8688:8782   */\n      tag_521\n        /* \"#utility.yul\":8778:8781   */\n      dup5\n        /* \"#utility.yul\":8770:8776   */\n      dup3\n        /* \"#utility.yul\":8763:8767   */\n      0x20\n        /* \"#utility.yul\":8755:8761   */\n      dup7\n        /* \"#utility.yul\":8751:8768   */\n      add\n        /* \"#utility.yul\":8688:8782   */\n      tag_373\n      jump\t// in\n    tag_521:\n        /* \"#utility.yul\":8679:8782   */\n      swap2\n      pop\n        /* \"#utility.yul\":8495:8788   */\n      pop\n        /* \"#utility.yul\":8418:8788   */\n      swap3\n      swap2\n      pop\n      pop\n      jump\t// out\n        /* \"#utility.yul\":8794:9873   */\n    tag_76:\n        /* \"#utility.yul\":8941:8947   */\n      0x00\n        /* \"#utility.yul\":8949:8955   */\n      dup1\n        /* \"#utility.yul\":8957:8963   */\n      0x00\n        /* \"#utility.yul\":9006:9008   */\n      0x60\n        /* \"#utility.yul\":8994:9003   */\n      dup5\n        /* \"#utility.yul\":8985:8992   */\n      dup7\n        /* \"#utility.yul\":8981:9004   */\n      sub\n        /* \"#utility.yul\":8977:9009   */\n      slt\n        /* \"#utility.yul\":8974:9093   */\n      iszero\n      tag_523\n      jumpi\n        /* \"#utility.yul\":9012:9091   */\n      tag_524\n      tag_344\n      jump\t// in\n    tag_524:\n        /* \"#utility.yul\":8974:9093   */\n    tag_523:\n        /* \"#utility.yul\":9132:9133   */\n      0x00\n        /* \"#utility.yul\":9157:9230   */\n      tag_525\n        /* \"#utility.yul\":9222:9229   */\n      dup7\n        /* \"#utility.yul\":9213:9219   */\n      dup3\n        /* \"#utility.yul\":9202:9211   */\n      dup8\n        /* \"#utility.yul\":9198:9220   */\n      add\n        /* \"#utility.yul\":9157:9230   */\n      tag_356\n      jump\t// in\n    tag_525:\n        /* \"#utility.yul\":9147:9230   */\n      swap4\n      pop\n        /* \"#utility.yul\":9103:9240   */\n      pop\n        /* \"#utility.yul\":9307:9309   */\n      0x20\n        /* \"#utility.yul\":9296:9305   */\n      dup5\n        /* \"#utility.yul\":9292:9310   */\n      add\n        /* \"#utility.yul\":9279:9311   */\n      calldataload\n        /* \"#utility.yul\":9338:9356   */\n      0xffffffffffffffff\n        /* \"#utility.yul\":9330:9336   */\n      dup2\n        /* \"#utility.yul\":9327:9357   */\n      gt\n        /* \"#utility.yul\":9324:9441   */\n      iszero\n      tag_526\n      jumpi\n        /* \"#utility.yul\":9360:9439   */\n      tag_527\n      tag_345\n      jump\t// in\n    tag_527:\n        /* \"#utility.yul\":9324:9441   */\n    tag_526:\n        /* \"#utility.yul\":9465:9543   */\n      tag_528\n        /* \"#utility.yul\":9535:9542   */\n      dup7\n        /* \"#utility.yul\":9526:9532   */\n      dup3\n        /* \"#utility.yul\":9515:9524   */\n      dup8\n        /* \"#utility.yul\":9511:9533   */\n      add\n        /* \"#utility.yul\":9465:9543   */\n      tag_371\n      jump\t// in\n    tag_528:\n        /* \"#utility.yul\":9455:9543   */\n      swap3\n      pop\n        /* \"#utility.yul\":9250:9553   */\n      pop\n        /* \"#utility.yul\":9620:9622   */\n      0x40\n        /* \"#utility.yul\":9609:9618   */\n      dup5\n        /* \"#utility.yul\":9605:9623   */\n      add\n        /* \"#utility.yul\":9592:9624   */\n      calldataload\n        /* \"#utility.yul\":9651:9669   */\n      0xffffffffffffffff\n        /* \"#utility.yul\":9643:9649   */\n      dup2\n        /* \"#utility.yul\":9640:9670   */\n      gt\n        /* \"#utility.yul\":9637:9754   */\n      iszero\n      tag_529\n      jumpi\n        /* \"#utility.yul\":9673:9752   */\n      tag_530\n      tag_345\n      jump\t// in\n    tag_530:\n        /* \"#utility.yul\":9637:9754   */\n    tag_529:\n        /* \"#utility.yul\":9778:9856   */\n      tag_531\n        /* \"#utility.yul\":9848:9855   */\n      dup7\n        /* \"#utility.yul\":9839:9845   */\n      dup3\n        /* \"#utility.yul\":9828:9837   */\n      dup8\n        /* \"#utility.yul\":9824:9846   */\n      add\n        /* \"#utility.yul\":9778:9856   */\n      tag_374\n      jump\t// in\n    tag_531:\n        /* \"#utility.yul\":9768:9856   */\n      swap2\n      pop\n        /* \"#utility.yul\":9563:9866   */\n      pop\n        /* \"#utility.yul\":8794:9873   */\n      swap3\n      pop\n      swap3\n      pop\n      swap3\n      jump\t// out\n        /* \"#utility.yul\":9879:9939   */\n    tag_375:\n        /* \"#utility.yul\":9907:9910   */\n      0x00\n        /* \"#utility.yul\":9928:9933   */\n      dup2\n        /* \"#utility.yul\":9921:9933   */\n      swap1\n      pop\n        /* \"#utility.yul\":9879:9939   */\n      swap2\n      swap1\n      pop\n      jump\t// out\n        /* \"#utility.yul\":9945:10087   */\n    tag_376:\n        /* \"#utility.yul\":9995:10004   */\n      0x00\n        /* \"#utility.yul\":10028:10081   */\n      tag_534\n        /* \"#utility.yul\":10046:10080   */\n      tag_535\n        /* \"#utility.yul\":10055:10079   */\n      tag_536\n        /* \"#utility.yul\":10073:10078   */\n      dup5\n        /* \"#utility.yul\":10055:10079   */\n      tag_349\n      jump\t// in\n    tag_536:\n        /* \"#utility.yul\":10046:10080   */\n      tag_375\n      jump\t// in\n    tag_535:\n        /* \"#utility.yul\":10028:10081   */\n      tag_349\n      jump\t// in\n    tag_534:\n        /* \"#utility.yul\":10015:10081   */\n      swap1\n      pop\n        /* \"#utility.yul\":9945:10087   */\n      swap2\n      swap1\n      pop\n      jump\t// out\n        /* \"#utility.yul\":10093:10219   */\n    tag_377:\n        /* \"#utility.yul\":10143:10152   */\n      0x00\n        /* \"#utility.yul\":10176:10213   */\n      tag_538\n        /* \"#utility.yul\":10207:10212   */\n      dup3\n        /* \"#utility.yul\":10176:10213   */\n      tag_376\n      jump\t// in\n    tag_538:\n        /* \"#utility.yul\":10163:10213   */\n      swap1\n      pop\n        /* \"#utility.yul\":10093:10219   */\n      swap2\n      swap1\n      pop\n      jump\t// out\n        /* \"#utility.yul\":10225:10365   */\n    tag_378:\n        /* \"#utility.yul\":10289:10298   */\n      0x00\n        /* \"#utility.yul\":10322:10359   */\n      tag_540\n        /* \"#utility.yul\":10353:10358   */\n      dup3\n        /* \"#utility.yul\":10322:10359   */\n      tag_377\n      jump\t// in\n    tag_540:\n        /* \"#utility.yul\":10309:10359   */\n      swap1\n      pop\n        /* \"#utility.yul\":10225:10365   */\n      swap2\n      swap1\n      pop\n      jump\t// out\n        /* \"#utility.yul\":10371:10530   */\n    tag_379:\n        /* \"#utility.yul\":10472:10523   */\n      tag_542\n        /* \"#utility.yul\":10517:10522   */\n      dup2\n        /* \"#utility.yul\":10472:10523   */\n      tag_378\n      jump\t// in\n    tag_542:\n        /* \"#utility.yul\":10467:10470   */\n      dup3\n        /* \"#utility.yul\":10460:10524   */\n      mstore\n        /* \"#utility.yul\":10371:10530   */\n      pop\n      pop\n      jump\t// out\n        /* \"#utility.yul\":10536:10786   */\n    tag_82:\n        /* \"#utility.yul\":10643:10647   */\n      0x00\n        /* \"#utility.yul\":10681:10683   */\n      0x20\n        /* \"#utility.yul\":10670:10679   */\n      dup3\n        /* \"#utility.yul\":10666:10684   */\n      add\n        /* \"#utility.yul\":10658:10684   */\n      swap1\n      pop\n        /* \"#utility.yul\":10694:10779   */\n      tag_544\n        /* \"#utility.yul\":10776:10777   */\n      0x00\n        /* \"#utility.yul\":10765:10774   */\n      dup4\n        /* \"#utility.yul\":10761:10778   */\n      add\n        /* \"#utility.yul\":10752:10758   */\n      dup5\n        /* \"#utility.yul\":10694:10779   */\n      tag_379\n      jump\t// in\n    tag_544:\n        /* \"#utility.yul\":10536:10786   */\n      swap3\n      swap2\n      pop\n      pop\n      jump\t// out\n        /* \"#utility.yul\":10792:11686   */\n    tag_89:\n        /* \"#utility.yul\":10910:10916   */\n      0x00\n        /* \"#utility.yul\":10918:10924   */\n      dup1\n        /* \"#utility.yul\":10967:10969   */\n      0x40\n        /* \"#utility.yul\":10955:10964   */\n      dup4\n        /* \"#utility.yul\":10946:10953   */\n      dup6\n        /* \"#utility.yul\":10942:10965   */\n      sub\n        /* \"#utility.yul\":10938:10970   */\n      slt\n        /* \"#utility.yul\":10935:11054   */\n      iszero\n      tag_546\n      jumpi\n        /* \"#utility.yul\":10973:11052   */\n      tag_547\n      tag_344\n      jump\t// in\n    tag_547:\n        /* \"#utility.yul\":10935:11054   */\n    tag_546:\n        /* \"#utility.yul\":11121:11122   */\n      0x00\n        /* \"#utility.yul\":11110:11119   */\n      dup4\n        /* \"#utility.yul\":11106:11123   */\n      add\n        /* \"#utility.yul\":11093:11124   */\n      calldataload\n        /* \"#utility.yul\":11151:11169   */\n      0xffffffffffffffff\n        /* \"#utility.yul\":11143:11149   */\n      dup2\n        /* \"#utility.yul\":11140:11170   */\n      gt\n        /* \"#utility.yul\":11137:11254   */\n      iszero\n      tag_548\n      jumpi\n        /* \"#utility.yul\":11173:11252   */\n      tag_549\n      tag_345\n      jump\t// in\n    tag_549:\n        /* \"#utility.yul\":11137:11254   */\n    tag_548:\n        /* \"#utility.yul\":11278:11356   */\n      tag_550\n        /* \"#utility.yul\":11348:11355   */\n      dup6\n        /* \"#utility.yul\":11339:11345   */\n      dup3\n        /* \"#utility.yul\":11328:11337   */\n      dup7\n        /* \"#utility.yul\":11324:11346   */\n      add\n        /* \"#utility.yul\":11278:11356   */\n      tag_371\n      jump\t// in\n    tag_550:\n        /* \"#utility.yul\":11268:11356   */\n      swap3\n      pop\n        /* \"#utility.yul\":11064:11366   */\n      pop\n        /* \"#utility.yul\":11433:11435   */\n      0x20\n        /* \"#utility.yul\":11422:11431   */\n      dup4\n        /* \"#utility.yul\":11418:11436   */\n      add\n        /* \"#utility.yul\":11405:11437   */\n      calldataload\n        /* \"#utility.yul\":11464:11482   */\n      0xffffffffffffffff\n        /* \"#utility.yul\":11456:11462   */\n      dup2\n        /* \"#utility.yul\":11453:11483   */\n      gt\n        /* \"#utility.yul\":11450:11567   */\n      iszero\n      tag_551\n      jumpi\n        /* \"#utility.yul\":11486:11565   */\n      tag_552\n      tag_345\n      jump\t// in\n    tag_552:\n        /* \"#utility.yul\":11450:11567   */\n    tag_551:\n        /* \"#utility.yul\":11591:11669   */\n      tag_553\n        /* \"#utility.yul\":11661:11668   */\n      dup6\n        /* \"#utility.yul\":11652:11658   */\n      dup3\n        /* \"#utility.yul\":11641:11650   */\n      dup7\n        /* \"#utility.yul\":11637:11659   */\n      add\n        /* \"#utility.yul\":11591:11669   */\n      tag_374\n      jump\t// in\n    tag_553:\n        /* \"#utility.yul\":11581:11669   */\n      swap2\n      pop\n        /* \"#utility.yul\":11376:11679   */\n      pop\n        /* \"#utility.yul\":10792:11686   */\n      swap3\n      pop\n      swap3\n      swap1\n      pop\n      jump\t// out\n        /* \"#utility.yul\":11692:11796   */\n    tag_380:\n        /* \"#utility.yul\":11737:11744   */\n      0x00\n        /* \"#utility.yul\":11766:11790   */\n      tag_555\n        /* \"#utility.yul\":11784:11789   */\n      dup3\n        /* \"#utility.yul\":11766:11790   */\n      tag_349\n      jump\t// in\n    tag_555:\n        /* \"#utility.yul\":11755:11790   */\n      swap1\n      pop\n        /* \"#utility.yul\":11692:11796   */\n      swap2\n      swap1\n      pop\n      jump\t// out\n        /* \"#utility.yul\":11802:11944   */\n    tag_381:\n        /* \"#utility.yul\":11905:11937   */\n      tag_557\n        /* \"#utility.yul\":11931:11936   */\n      dup2\n        /* \"#utility.yul\":11905:11937   */\n      tag_380\n      jump\t// in\n    tag_557:\n        /* \"#utility.yul\":11900:11903   */\n      dup3\n        /* \"#utility.yul\":11893:11938   */\n      mstore\n        /* \"#utility.yul\":11802:11944   */\n      pop\n      pop\n      jump\t// out\n        /* \"#utility.yul\":11950:12204   */\n    tag_103:\n        /* \"#utility.yul\":12059:12063   */\n      0x00\n        /* \"#utility.yul\":12097:12099   */\n      0x20\n        /* \"#utility.yul\":12086:12095   */\n      dup3\n        /* \"#utility.yul\":12082:12100   */\n      add\n        /* \"#utility.yul\":12074:12100   */\n      swap1\n      pop\n        /* \"#utility.yul\":12110:12197   */\n      tag_559\n        /* \"#utility.yul\":12194:12195   */\n      0x00\n        /* \"#utility.yul\":12183:12192   */\n      dup4\n        /* \"#utility.yul\":12179:12196   */\n      add\n        /* \"#utility.yul\":12170:12176   */\n      dup5\n        /* \"#utility.yul\":12110:12197   */\n      tag_381\n      jump\t// in\n    tag_559:\n        /* \"#utility.yul\":11950:12204   */\n      swap3\n      swap2\n      pop\n      pop\n      jump\t// out\n        /* \"#utility.yul\":12210:12539   */\n    tag_107:\n        /* \"#utility.yul\":12269:12275   */\n      0x00\n        /* \"#utility.yul\":12318:12320   */\n      0x20\n        /* \"#utility.yul\":12306:12315   */\n      dup3\n        /* \"#utility.yul\":12297:12304   */\n      dup5\n        /* \"#utility.yul\":12293:12316   */\n      sub\n        /* \"#utility.yul\":12289:12321   */\n      slt\n        /* \"#utility.yul\":12286:12405   */\n      iszero\n      tag_561\n      jumpi\n        /* \"#utility.yul\":12324:12403   */\n      tag_562\n      tag_344\n      jump\t// in\n    tag_562:\n        /* \"#utility.yul\":12286:12405   */\n    tag_561:\n        /* \"#utility.yul\":12444:12445   */\n      0x00\n        /* \"#utility.yul\":12469:12522   */\n      tag_563\n        /* \"#utility.yul\":12514:12521   */\n      dup5\n        /* \"#utility.yul\":12505:12511   */\n      dup3\n        /* \"#utility.yul\":12494:12503   */\n      dup6\n        /* \"#utility.yul\":12490:12512   */\n      add\n        /* \"#utility.yul\":12469:12522   */\n      tag_348\n      jump\t// in\n    tag_563:\n        /* \"#utility.yul\":12459:12522   */\n      swap2\n      pop\n        /* \"#utility.yul\":12415:12532   */\n      pop\n        /* \"#utility.yul\":12210:12539   */\n      swap3\n      swap2\n      pop\n      pop\n      jump\t// out\n        /* \"#utility.yul\":12545:12688   */\n    tag_382:\n        /* \"#utility.yul\":12602:12607   */\n      0x00\n        /* \"#utility.yul\":12633:12639   */\n      dup2\n        /* \"#utility.yul\":12627:12640   */\n      mload\n        /* \"#utility.yul\":12618:12640   */\n      swap1\n      pop\n        /* \"#utility.yul\":12649:12682   */\n      tag_565\n        /* \"#utility.yul\":12676:12681   */\n      dup2\n        /* \"#utility.yul\":12649:12682   */\n      tag_347\n      jump\t// in\n    tag_565:\n        /* \"#utility.yul\":12545:12688   */\n      swap3\n      swap2\n      pop\n      pop\n      jump\t// out\n        /* \"#utility.yul\":12694:13045   */\n    tag_117:\n        /* \"#utility.yul\":12764:12770   */\n      0x00\n        /* \"#utility.yul\":12813:12815   */\n      0x20\n        /* \"#utility.yul\":12801:12810   */\n      dup3\n        /* \"#utility.yul\":12792:12799   */\n      dup5\n        /* \"#utility.yul\":12788:12811   */\n      sub\n        /* \"#utility.yul\":12784:12816   */\n      slt\n        /* \"#utility.yul\":12781:12900   */\n      iszero\n      tag_567\n      jumpi\n        /* \"#utility.yul\":12819:12898   */\n      tag_568\n      tag_344\n      jump\t// in\n    tag_568:\n        /* \"#utility.yul\":12781:12900   */\n    tag_567:\n        /* \"#utility.yul\":12939:12940   */\n      0x00\n        /* \"#utility.yul\":12964:13028   */\n      tag_569\n        /* \"#utility.yul\":13020:13027   */\n      dup5\n        /* \"#utility.yul\":13011:13017   */\n      dup3\n        /* \"#utility.yul\":13000:13009   */\n      dup6\n        /* \"#utility.yul\":12996:13018   */\n      add\n        /* \"#utility.yul\":12964:13028   */\n      tag_382\n      jump\t// in\n    tag_569:\n        /* \"#utility.yul\":12954:13028   */\n      swap2\n      pop\n        /* \"#utility.yul\":12910:13038   */\n      pop\n        /* \"#utility.yul\":12694:13045   */\n      swap3\n      swap2\n      pop\n      pop\n      jump\t// out\n        /* \"#utility.yul\":13051:13220   */\n    tag_383:\n        /* \"#utility.yul\":13135:13146   */\n      0x00\n        /* \"#utility.yul\":13169:13175   */\n      dup3\n        /* \"#utility.yul\":13164:13167   */\n      dup3\n        /* \"#utility.yul\":13157:13176   */\n      mstore\n        /* \"#utility.yul\":13209:13213   */\n      0x20\n        /* \"#utility.yul\":13204:13207   */\n      dup3\n        /* \"#utility.yul\":13200:13214   */\n      add\n        /* \"#utility.yul\":13185:13214   */\n      swap1\n      pop\n        /* \"#utility.yul\":13051:13220   */\n      swap3\n      swap2\n      pop\n      pop\n      jump\t// out\n        /* \"#utility.yul\":13226:13404   */\n    tag_384:\n        /* \"#utility.yul\":13366:13396   */\n      0x7573657220697320616c726561647920756e617574686f72697a656400000000\n        /* \"#utility.yul\":13362:13363   */\n      0x00\n        /* \"#utility.yul\":13354:13360   */\n      dup3\n        /* \"#utility.yul\":13350:13364   */\n      add\n        /* \"#utility.yul\":13343:13397   */\n      mstore\n        /* \"#utility.yul\":13226:13404   */\n      pop\n      jump\t// out\n        /* \"#utility.yul\":13410:13776   */\n    tag_385:\n        /* \"#utility.yul\":13552:13555   */\n      0x00\n        /* \"#utility.yul\":13573:13640   */\n      tag_573\n        /* \"#utility.yul\":13637:13639   */\n      0x1c\n        /* \"#utility.yul\":13632:13635   */\n      dup4\n        /* \"#utility.yul\":13573:13640   */\n      tag_383\n      jump\t// in\n    tag_573:\n        /* \"#utility.yul\":13566:13640   */\n      swap2\n      pop\n        /* \"#utility.yul\":13649:13742   */\n      tag_574\n        /* \"#utility.yul\":13738:13741   */\n      dup3\n        /* \"#utility.yul\":13649:13742   */\n      tag_384\n      jump\t// in\n    tag_574:\n        /* \"#utility.yul\":13767:13769   */\n      0x20\n        /* \"#utility.yul\":13762:13765   */\n      dup3\n        /* \"#utility.yul\":13758:13770   */\n      add\n        /* \"#utility.yul\":13751:13770   */\n      swap1\n      pop\n        /* \"#utility.yul\":13410:13776   */\n      swap2\n      swap1\n      pop\n      jump\t// out\n        /* \"#utility.yul\":13782:14201   */\n    tag_126:\n        /* \"#utility.yul\":13948:13952   */\n      0x00\n        /* \"#utility.yul\":13986:13988   */\n      0x20\n        /* \"#utility.yul\":13975:13984   */\n      dup3\n        /* \"#utility.yul\":13971:13989   */\n      add\n        /* \"#utility.yul\":13963:13989   */\n      swap1\n      pop\n        /* \"#utility.yul\":14035:14044   */\n      dup2\n        /* \"#utility.yul\":14029:14033   */\n      dup2\n        /* \"#utility.yul\":14025:14045   */\n      sub\n        /* \"#utility.yul\":14021:14022   */\n      0x00\n        /* \"#utility.yul\":14010:14019   */\n      dup4\n        /* \"#utility.yul\":14006:14023   */\n      add\n        /* \"#utility.yul\":13999:14046   */\n      mstore\n        /* \"#utility.yul\":14063:14194   */\n      tag_576\n        /* \"#utility.yul\":14189:14193   */\n      dup2\n        /* \"#utility.yul\":14063:14194   */\n      tag_385\n      jump\t// in\n    tag_576:\n        /* \"#utility.yul\":14055:14194   */\n      swap1\n      pop\n        /* \"#utility.yul\":13782:14201   */\n      swap2\n      swap1\n      pop\n      jump\t// out\n        /* \"#utility.yul\":14207:14383   */\n    tag_386:\n        /* \"#utility.yul\":14347:14375   */\n      0x7573657220697320616c726561647920617574686f72697a6564000000000000\n        /* \"#utility.yul\":14343:14344   */\n      0x00\n        /* \"#utility.yul\":14335:14341   */\n      dup3\n        /* \"#utility.yul\":14331:14345   */\n      add\n        /* \"#utility.yul\":14324:14376   */\n      mstore\n        /* \"#utility.yul\":14207:14383   */\n      pop\n      jump\t// out\n        /* \"#utility.yul\":14389:14755   */\n    tag_387:\n        /* \"#utility.yul\":14531:14534   */\n      0x00\n        /* \"#utility.yul\":14552:14619   */\n      tag_579\n        /* \"#utility.yul\":14616:14618   */\n      0x1a\n        /* \"#utility.yul\":14611:14614   */\n      dup4\n        /* \"#utility.yul\":14552:14619   */\n      tag_383\n      jump\t// in\n    tag_579:\n        /* \"#utility.yul\":14545:14619   */\n      swap2\n      pop\n        /* \"#utility.yul\":14628:14721   */\n      tag_580\n        /* \"#utility.yul\":14717:14720   */\n      dup3\n        /* \"#utility.yul\":14628:14721   */\n      tag_386\n      jump\t// in\n    tag_580:\n        /* \"#utility.yul\":14746:14748   */\n      0x20\n        /* \"#utility.yul\":14741:14744   */\n      dup3\n        /* \"#utility.yul\":14737:14749   */\n      add\n        /* \"#utility.yul\":14730:14749   */\n      swap1\n      pop\n        /* \"#utility.yul\":14389:14755   */\n      swap2\n      swap1\n      pop\n      jump\t// out\n        /* \"#utility.yul\":14761:15180   */\n    tag_132:\n        /* \"#utility.yul\":14927:14931   */\n      0x00\n        /* \"#utility.yul\":14965:14967   */\n      0x20\n        /* \"#utility.yul\":14954:14963   */\n      dup3\n        /* \"#utility.yul\":14950:14968   */\n      add\n        /* \"#utility.yul\":14942:14968   */\n      swap1\n      pop\n        /* \"#utility.yul\":15014:15023   */\n      dup2\n        /* \"#utility.yul\":15008:15012   */\n      dup2\n        /* \"#utility.yul\":15004:15024   */\n      sub\n        /* \"#utility.yul\":15000:15001   */\n      0x00\n        /* \"#utility.yul\":14989:14998   */\n      dup4\n        /* \"#utility.yul\":14985:15002   */\n      add\n        /* \"#utility.yul\":14978:15025   */\n      mstore\n        /* \"#utility.yul\":15042:15173   */\n      tag_582\n        /* \"#utility.yul\":15168:15172   */\n      dup2\n        /* \"#utility.yul\":15042:15173   */\n      tag_387\n      jump\t// in\n    tag_582:\n        /* \"#utility.yul\":15034:15173   */\n      swap1\n      pop\n        /* \"#utility.yul\":14761:15180   */\n      swap2\n      swap1\n      pop\n      jump\t// out\n        /* \"#utility.yul\":15186:15359   */\n    tag_388:\n        /* \"#utility.yul\":15326:15351   */\n      0x73657420746f6b656e20686f6c64696e67206669727374000000000000000000\n        /* \"#utility.yul\":15322:15323   */\n      0x00\n        /* \"#utility.yul\":15314:15320   */\n      dup3\n        /* \"#utility.yul\":15310:15324   */\n      add\n        /* \"#utility.yul\":15303:15352   */\n      mstore\n        /* \"#utility.yul\":15186:15359   */\n      pop\n      jump\t// out\n        /* \"#utility.yul\":15365:15731   */\n    tag_389:\n        /* \"#utility.yul\":15507:15510   */\n      0x00\n        /* \"#utility.yul\":15528:15595   */\n      tag_585\n        /* \"#utility.yul\":15592:15594   */\n      0x17\n        /* \"#utility.yul\":15587:15590   */\n      dup4\n        /* \"#utility.yul\":15528:15595   */\n      tag_383\n      jump\t// in\n    tag_585:\n        /* \"#utility.yul\":15521:15595   */\n      swap2\n      pop\n        /* \"#utility.yul\":15604:15697   */\n      tag_586\n        /* \"#utility.yul\":15693:15696   */\n      dup3\n        /* \"#utility.yul\":15604:15697   */\n      tag_388\n      jump\t// in\n    tag_586:\n        /* \"#utility.yul\":15722:15724   */\n      0x20\n        /* \"#utility.yul\":15717:15720   */\n      dup3\n        /* \"#utility.yul\":15713:15725   */\n      add\n        /* \"#utility.yul\":15706:15725   */\n      swap1\n      pop\n        /* \"#utility.yul\":15365:15731   */\n      swap2\n      swap1\n      pop\n      jump\t// out\n        /* \"#utility.yul\":15737:16156   */\n    tag_145:\n        /* \"#utility.yul\":15903:15907   */\n      0x00\n        /* \"#utility.yul\":15941:15943   */\n      0x20\n        /* \"#utility.yul\":15930:15939   */\n      dup3\n        /* \"#utility.yul\":15926:15944   */\n      add\n        /* \"#utility.yul\":15918:15944   */\n      swap1\n      pop\n        /* \"#utility.yul\":15990:15999   */\n      dup2\n        /* \"#utility.yul\":15984:15988   */\n      dup2\n        /* \"#utility.yul\":15980:16000   */\n      sub\n        /* \"#utility.yul\":15976:15977   */\n      0x00\n        /* \"#utility.yul\":15965:15974   */\n      dup4\n        /* \"#utility.yul\":15961:15978   */\n      add\n        /* \"#utility.yul\":15954:16001   */\n      mstore\n        /* \"#utility.yul\":16018:16149   */\n      tag_588\n        /* \"#utility.yul\":16144:16148   */\n      dup2\n        /* \"#utility.yul\":16018:16149   */\n      tag_389\n      jump\t// in\n    tag_588:\n        /* \"#utility.yul\":16010:16149   */\n      swap1\n      pop\n        /* \"#utility.yul\":15737:16156   */\n      swap2\n      swap1\n      pop\n      jump\t// out\n        /* \"#utility.yul\":16162:16326   */\n    tag_390:\n        /* \"#utility.yul\":16302:16318   */\n      0x6e6f74206120636f6e7472616374000000000000000000000000000000000000\n        /* \"#utility.yul\":16298:16299   */\n      0x00\n        /* \"#utility.yul\":16290:16296   */\n      dup3\n        /* \"#utility.yul\":16286:16300   */\n      add\n        /* \"#utility.yul\":16279:16319   */\n      mstore\n        /* \"#utility.yul\":16162:16326   */\n      pop\n      jump\t// out\n        /* \"#utility.yul\":16332:16698   */\n    tag_391:\n        /* \"#utility.yul\":16474:16477   */\n      0x00\n        /* \"#utility.yul\":16495:16562   */\n      tag_591\n        /* \"#utility.yul\":16559:16561   */\n      0x0e\n        /* \"#utility.yul\":16554:16557   */\n      dup4\n        /* \"#utility.yul\":16495:16562   */\n      tag_383\n      jump\t// in\n    tag_591:\n        /* \"#utility.yul\":16488:16562   */\n      swap2\n      pop\n        /* \"#utility.yul\":16571:16664   */\n      tag_592\n        /* \"#utility.yul\":16660:16663   */\n      dup3\n        /* \"#utility.yul\":16571:16664   */\n      tag_390\n      jump\t// in\n    tag_592:\n        /* \"#utility.yul\":16689:16691   */\n      0x20\n        /* \"#utility.yul\":16684:16687   */\n      dup3\n        /* \"#utility.yul\":16680:16692   */\n      add\n        /* \"#utility.yul\":16673:16692   */\n      swap1\n      pop\n        /* \"#utility.yul\":16332:16698   */\n      swap2\n      swap1\n      pop\n      jump\t// out\n        /* \"#utility.yul\":16704:17123   */\n    tag_151:\n        /* \"#utility.yul\":16870:16874   */\n      0x00\n        /* \"#utility.yul\":16908:16910   */\n      0x20\n        /* \"#utility.yul\":16897:16906   */\n      dup3\n        /* \"#utility.yul\":16893:16911   */\n      add\n        /* \"#utility.yul\":16885:16911   */\n      swap1\n      pop\n        /* \"#utility.yul\":16957:16966   */\n      dup2\n        /* \"#utility.yul\":16951:16955   */\n      dup2\n        /* \"#utility.yul\":16947:16967   */\n      sub\n        /* \"#utility.yul\":16943:16944   */\n      0x00\n        /* \"#utility.yul\":16932:16941   */\n      dup4\n        /* \"#utility.yul\":16928:16945   */\n      add\n        /* \"#utility.yul\":16921:16968   */\n      mstore\n        /* \"#utility.yul\":16985:17116   */\n      tag_594\n        /* \"#utility.yul\":17111:17115   */\n      dup2\n        /* \"#utility.yul\":16985:17116   */\n      tag_391\n      jump\t// in\n    tag_594:\n        /* \"#utility.yul\":16977:17116   */\n      swap1\n      pop\n        /* \"#utility.yul\":16704:17123   */\n      swap2\n      swap1\n      pop\n      jump\t// out\n        /* \"#utility.yul\":17129:17292   */\n    tag_392:\n        /* \"#utility.yul\":17269:17284   */\n      0x696e76616c696420696e70757400000000000000000000000000000000000000\n        /* \"#utility.yul\":17265:17266   */\n      0x00\n        /* \"#utility.yul\":17257:17263   */\n      dup3\n        /* \"#utility.yul\":17253:17267   */\n      add\n        /* \"#utility.yul\":17246:17285   */\n      mstore\n        /* \"#utility.yul\":17129:17292   */\n      pop\n      jump\t// out\n        /* \"#utility.yul\":17298:17664   */\n    tag_393:\n        /* \"#utility.yul\":17440:17443   */\n      0x00\n        /* \"#utility.yul\":17461:17528   */\n      tag_597\n        /* \"#utility.yul\":17525:17527   */\n      0x0d\n        /* \"#utility.yul\":17520:17523   */\n      dup4\n        /* \"#utility.yul\":17461:17528   */\n      tag_383\n      jump\t// in\n    tag_597:\n        /* \"#utility.yul\":17454:17528   */\n      swap2\n      pop\n        /* \"#utility.yul\":17537:17630   */\n      tag_598\n        /* \"#utility.yul\":17626:17629   */\n      dup3\n        /* \"#utility.yul\":17537:17630   */\n      tag_392\n      jump\t// in\n    tag_598:\n        /* \"#utility.yul\":17655:17657   */\n      0x20\n        /* \"#utility.yul\":17650:17653   */\n      dup3\n        /* \"#utility.yul\":17646:17658   */\n      add\n        /* \"#utility.yul\":17639:17658   */\n      swap1\n      pop\n        /* \"#utility.yul\":17298:17664   */\n      swap2\n      swap1\n      pop\n      jump\t// out\n        /* \"#utility.yul\":17670:18089   */\n    tag_154:\n        /* \"#utility.yul\":17836:17840   */\n      0x00\n        /* \"#utility.yul\":17874:17876   */\n      0x20\n        /* \"#utility.yul\":17863:17872   */\n      dup3\n        /* \"#utility.yul\":17859:17877   */\n      add\n        /* \"#utility.yul\":17851:17877   */\n      swap1\n      pop\n        /* \"#utility.yul\":17923:17932   */\n      dup2\n        /* \"#utility.yul\":17917:17921   */\n      dup2\n        /* \"#utility.yul\":17913:17933   */\n      sub\n        /* \"#utility.yul\":17909:17910   */\n      0x00\n        /* \"#utility.yul\":17898:17907   */\n      dup4\n        /* \"#utility.yul\":17894:17911   */\n      add\n        /* \"#utility.yul\":17887:17934   */\n      mstore\n        /* \"#utility.yul\":17951:18082   */\n      tag_600\n        /* \"#utility.yul\":18077:18081   */\n      dup2\n        /* \"#utility.yul\":17951:18082   */\n      tag_393\n      jump\t// in\n    tag_600:\n        /* \"#utility.yul\":17943:18082   */\n      swap1\n      pop\n        /* \"#utility.yul\":17670:18089   */\n      swap2\n      swap1\n      pop\n      jump\t// out\n        /* \"#utility.yul\":18095:18275   */\n    tag_394:\n        /* \"#utility.yul\":18143:18220   */\n      0x4e487b7100000000000000000000000000000000000000000000000000000000\n        /* \"#utility.yul\":18140:18141   */\n      0x00\n        /* \"#utility.yul\":18133:18221   */\n      mstore\n        /* \"#utility.yul\":18240:18244   */\n      0x11\n        /* \"#utility.yul\":18237:18238   */\n      0x04\n        /* \"#utility.yul\":18230:18245   */\n      mstore\n        /* \"#utility.yul\":18264:18268   */\n      0x24\n        /* \"#utility.yul\":18261:18262   */\n      0x00\n        /* \"#utility.yul\":18254:18269   */\n      revert\n        /* \"#utility.yul\":18281:18383   */\n    tag_395:\n        /* \"#utility.yul\":18323:18331   */\n      0x00\n        /* \"#utility.yul\":18370:18375   */\n      dup2\n        /* \"#utility.yul\":18367:18368   */\n      0x01\n        /* \"#utility.yul\":18363:18376   */\n      shr\n        /* \"#utility.yul\":18342:18376   */\n      swap1\n      pop\n        /* \"#utility.yul\":18281:18383   */\n      swap2\n      swap1\n      pop\n      jump\t// out\n        /* \"#utility.yul\":18389:19237   */\n    tag_396:\n        /* \"#utility.yul\":18450:18455   */\n      0x00\n        /* \"#utility.yul\":18457:18461   */\n      dup1\n        /* \"#utility.yul\":18481:18487   */\n      dup3\n        /* \"#utility.yul\":18472:18487   */\n      swap2\n      pop\n        /* \"#utility.yul\":18505:18510   */\n      dup4\n        /* \"#utility.yul\":18496:18510   */\n      swap1\n      pop\n        /* \"#utility.yul\":18519:19231   */\n    tag_604:\n        /* \"#utility.yul\":18540:18541   */\n      0x01\n        /* \"#utility.yul\":18530:18538   */\n      dup6\n        /* \"#utility.yul\":18527:18542   */\n      gt\n        /* \"#utility.yul\":18519:19231   */\n      iszero\n      tag_606\n      jumpi\n        /* \"#utility.yul\":18635:18639   */\n      dup1\n        /* \"#utility.yul\":18630:18633   */\n      dup7\n        /* \"#utility.yul\":18626:18640   */\n      div\n        /* \"#utility.yul\":18620:18624   */\n      dup2\n        /* \"#utility.yul\":18617:18641   */\n      gt\n        /* \"#utility.yul\":18614:18664   */\n      iszero\n      tag_607\n      jumpi\n        /* \"#utility.yul\":18644:18662   */\n      tag_608\n      tag_394\n      jump\t// in\n    tag_608:\n        /* \"#utility.yul\":18614:18664   */\n    tag_607:\n        /* \"#utility.yul\":18694:18695   */\n      0x01\n        /* \"#utility.yul\":18684:18692   */\n      dup6\n        /* \"#utility.yul\":18680:18696   */\n      and\n        /* \"#utility.yul\":18677:19128   */\n      iszero\n      tag_609\n      jumpi\n        /* \"#utility.yul\":19109:19113   */\n      dup1\n        /* \"#utility.yul\":19102:19107   */\n      dup3\n        /* \"#utility.yul\":19098:19114   */\n      mul\n        /* \"#utility.yul\":19089:19114   */\n      swap2\n      pop\n        /* \"#utility.yul\":18677:19128   */\n    tag_609:\n        /* \"#utility.yul\":19159:19163   */\n      dup1\n        /* \"#utility.yul\":19153:19157   */\n      dup2\n        /* \"#utility.yul\":19149:19164   */\n      mul\n        /* \"#utility.yul\":19141:19164   */\n      swap1\n      pop\n        /* \"#utility.yul\":19189:19221   */\n      tag_610\n        /* \"#utility.yul\":19212:19220   */\n      dup6\n        /* \"#utility.yul\":19189:19221   */\n      tag_395\n      jump\t// in\n    tag_610:\n        /* \"#utility.yul\":19177:19221   */\n      swap5\n      pop\n        /* \"#utility.yul\":18519:19231   */\n      jump(tag_604)\n    tag_606:\n        /* \"#utility.yul\":18389:19237   */\n      swap5\n      pop\n      swap5\n      swap3\n      pop\n      pop\n      pop\n      jump\t// out\n        /* \"#utility.yul\":19243:20316   */\n    tag_397:\n        /* \"#utility.yul\":19297:19302   */\n      0x00\n        /* \"#utility.yul\":19488:19496   */\n      dup3\n        /* \"#utility.yul\":19478:19518   */\n      tag_612\n      jumpi\n        /* \"#utility.yul\":19509:19510   */\n      0x01\n        /* \"#utility.yul\":19500:19510   */\n      swap1\n      pop\n        /* \"#utility.yul\":19511:19516   */\n      jump(tag_611)\n        /* \"#utility.yul\":19478:19518   */\n    tag_612:\n        /* \"#utility.yul\":19537:19541   */\n      dup2\n        /* \"#utility.yul\":19527:19563   */\n      tag_613\n      jumpi\n        /* \"#utility.yul\":19554:19555   */\n      0x00\n        /* \"#utility.yul\":19545:19555   */\n      swap1\n      pop\n        /* \"#utility.yul\":19556:19561   */\n      jump(tag_611)\n        /* \"#utility.yul\":19527:19563   */\n    tag_613:\n        /* \"#utility.yul\":19623:19627   */\n      dup2\n        /* \"#utility.yul\":19671:19672   */\n      0x01\n        /* \"#utility.yul\":19666:19693   */\n      dup2\n      eq\n      tag_615\n      jumpi\n        /* \"#utility.yul\":19707:19708   */\n      0x02\n        /* \"#utility.yul\":19702:19893   */\n      dup2\n      eq\n      tag_616\n      jumpi\n        /* \"#utility.yul\":19616:19893   */\n      jump(tag_614)\n        /* \"#utility.yul\":19666:19693   */\n    tag_615:\n        /* \"#utility.yul\":19684:19685   */\n      0x01\n        /* \"#utility.yul\":19675:19685   */\n      swap2\n      pop\n        /* \"#utility.yul\":19686:19691   */\n      pop\n      jump(tag_611)\n        /* \"#utility.yul\":19702:19893   */\n    tag_616:\n        /* \"#utility.yul\":19747:19750   */\n      0xff\n        /* \"#utility.yul\":19737:19745   */\n      dup5\n        /* \"#utility.yul\":19734:19751   */\n      gt\n        /* \"#utility.yul\":19731:19774   */\n      iszero\n      tag_617\n      jumpi\n        /* \"#utility.yul\":19754:19772   */\n      tag_618\n      tag_394\n      jump\t// in\n    tag_618:\n        /* \"#utility.yul\":19731:19774   */\n    tag_617:\n        /* \"#utility.yul\":19803:19811   */\n      dup4\n        /* \"#utility.yul\":19800:19801   */\n      0x02\n        /* \"#utility.yul\":19796:19812   */\n      exp\n        /* \"#utility.yul\":19787:19812   */\n      swap2\n      pop\n        /* \"#utility.yul\":19838:19841   */\n      dup5\n        /* \"#utility.yul\":19831:19836   */\n      dup3\n        /* \"#utility.yul\":19828:19842   */\n      gt\n        /* \"#utility.yul\":19825:19865   */\n      iszero\n      tag_619\n      jumpi\n        /* \"#utility.yul\":19845:19863   */\n      tag_620\n      tag_394\n      jump\t// in\n    tag_620:\n        /* \"#utility.yul\":19825:19865   */\n    tag_619:\n        /* \"#utility.yul\":19878:19883   */\n      pop\n      jump(tag_611)\n        /* \"#utility.yul\":19616:19893   */\n    tag_614:\n      pop\n        /* \"#utility.yul\":20002:20004   */\n      0x20\n        /* \"#utility.yul\":19992:20000   */\n      dup4\n        /* \"#utility.yul\":19989:20005   */\n      lt\n        /* \"#utility.yul\":19983:19986   */\n      0x0133\n        /* \"#utility.yul\":19977:19981   */\n      dup4\n        /* \"#utility.yul\":19974:19987   */\n      lt\n        /* \"#utility.yul\":19970:20006   */\n      and\n        /* \"#utility.yul\":19952:19954   */\n      0x4e\n        /* \"#utility.yul\":19942:19950   */\n      dup5\n        /* \"#utility.yul\":19939:19955   */\n      lt\n        /* \"#utility.yul\":19934:19936   */\n      0x0b\n        /* \"#utility.yul\":19928:19932   */\n      dup5\n        /* \"#utility.yul\":19925:19937   */\n      lt\n        /* \"#utility.yul\":19921:19956   */\n      and\n        /* \"#utility.yul\":19905:20016   */\n      or\n        /* \"#utility.yul\":19902:20148   */\n      iszero\n      tag_621\n      jumpi\n        /* \"#utility.yul\":20058:20066   */\n      dup3\n        /* \"#utility.yul\":20052:20056   */\n      dup3\n        /* \"#utility.yul\":20048:20067   */\n      exp\n        /* \"#utility.yul\":20039:20067   */\n      swap1\n      pop\n        /* \"#utility.yul\":20093:20096   */\n      dup4\n        /* \"#utility.yul\":20086:20091   */\n      dup2\n        /* \"#utility.yul\":20083:20097   */\n      gt\n        /* \"#utility.yul\":20080:20120   */\n      iszero\n      tag_622\n      jumpi\n        /* \"#utility.yul\":20100:20118   */\n      tag_623\n      tag_394\n      jump\t// in\n    tag_623:\n        /* \"#utility.yul\":20080:20120   */\n    tag_622:\n        /* \"#utility.yul\":20133:20138   */\n      jump(tag_611)\n        /* \"#utility.yul\":19902:20148   */\n    tag_621:\n        /* \"#utility.yul\":20173:20215   */\n      tag_624\n        /* \"#utility.yul\":20211:20214   */\n      dup5\n        /* \"#utility.yul\":20201:20209   */\n      dup5\n        /* \"#utility.yul\":20195:20199   */\n      dup5\n        /* \"#utility.yul\":20192:20193   */\n      0x01\n        /* \"#utility.yul\":20173:20215   */\n      tag_396\n      jump\t// in\n    tag_624:\n        /* \"#utility.yul\":20158:20215   */\n      swap3\n      pop\n      swap1\n      pop\n        /* \"#utility.yul\":20247:20251   */\n      dup2\n        /* \"#utility.yul\":20242:20245   */\n      dup5\n        /* \"#utility.yul\":20238:20252   */\n      div\n        /* \"#utility.yul\":20231:20236   */\n      dup2\n        /* \"#utility.yul\":20228:20253   */\n      gt\n        /* \"#utility.yul\":20225:20276   */\n      iszero\n      tag_625\n      jumpi\n        /* \"#utility.yul\":20256:20274   */\n      tag_626\n      tag_394\n      jump\t// in\n    tag_626:\n        /* \"#utility.yul\":20225:20276   */\n    tag_625:\n        /* \"#utility.yul\":20305:20309   */\n      dup2\n        /* \"#utility.yul\":20298:20303   */\n      dup2\n        /* \"#utility.yul\":20294:20310   */\n      mul\n        /* \"#utility.yul\":20285:20310   */\n      swap1\n      pop\n        /* \"#utility.yul\":19243:20316   */\n    tag_611:\n      swap4\n      swap3\n      pop\n      pop\n      pop\n      jump\t// out\n        /* \"#utility.yul\":20322:20607   */\n    tag_160:\n        /* \"#utility.yul\":20382:20387   */\n      0x00\n        /* \"#utility.yul\":20406:20429   */\n      tag_628\n        /* \"#utility.yul\":20424:20428   */\n      dup3\n        /* \"#utility.yul\":20406:20429   */\n      tag_346\n      jump\t// in\n    tag_628:\n        /* \"#utility.yul\":20398:20429   */\n      swap2\n      pop\n        /* \"#utility.yul\":20450:20477   */\n      tag_629\n        /* \"#utility.yul\":20468:20476   */\n      dup4\n        /* \"#utility.yul\":20450:20477   */\n      tag_346\n      jump\t// in\n    tag_629:\n        /* \"#utility.yul\":20438:20477   */\n      swap3\n      pop\n        /* \"#utility.yul\":20496:20600   */\n      tag_630\n        /* \"#utility.yul\":20533:20599   */\n      0xffffffffffffffffffffffffffffffffffffffffffffffffffffffffffffffff\n        /* \"#utility.yul\":20523:20531   */\n      dup5\n        /* \"#utility.yul\":20517:20521   */\n      dup5\n        /* \"#utility.yul\":20496:20600   */\n      tag_397\n      jump\t// in\n    tag_630:\n        /* \"#utility.yul\":20487:20600   */\n      swap1\n      pop\n        /* \"#utility.yul\":20322:20607   */\n      swap3\n      swap2\n      pop\n      pop\n      jump\t// out\n        /* \"#utility.yul\":20613:20793   */\n    tag_163:\n        /* \"#utility.yul\":20661:20738   */\n      0x4e487b7100000000000000000000000000000000000000000000000000000000\n        /* \"#utility.yul\":20658:20659   */\n      0x00\n        /* \"#utility.yul\":20651:20739   */\n      mstore\n        /* \"#utility.yul\":20758:20762   */\n      0x32\n        /* \"#utility.yul\":20755:20756   */\n      0x04\n        /* \"#utility.yul\":20748:20763   */\n      mstore\n        /* \"#utility.yul\":20782:20786   */\n      0x24\n        /* \"#utility.yul\":20779:20780   */\n      0x00\n        /* \"#utility.yul\":20772:20787   */\n      revert\n        /* \"#utility.yul\":20799:21147   */\n    tag_165:\n        /* \"#utility.yul\":20839:20846   */\n      0x00\n        /* \"#utility.yul\":20862:20882   */\n      tag_633\n        /* \"#utility.yul\":20880:20881   */\n      dup3\n        /* \"#utility.yul\":20862:20882   */\n      tag_346\n      jump\t// in\n    tag_633:\n        /* \"#utility.yul\":20857:20882   */\n      swap2\n      pop\n        /* \"#utility.yul\":20896:20916   */\n      tag_634\n        /* \"#utility.yul\":20914:20915   */\n      dup4\n        /* \"#utility.yul\":20896:20916   */\n      tag_346\n      jump\t// in\n    tag_634:\n        /* \"#utility.yul\":20891:20916   */\n      swap3\n      pop\n        /* \"#utility.yul\":21084:21085   */\n      dup2\n        /* \"#utility.yul\":21016:21082   */\n      0xffffffffffffffffffffffffffffffffffffffffffffffffffffffffffffffff\n        /* \"#utility.yul\":21012:21086   */\n      div\n        /* \"#utility.yul\":21009:21010   */\n      dup4\n        /* \"#utility.yul\":21006:21087   */\n      gt\n        /* \"#utility.yul\":21001:21002   */\n      dup3\n        /* \"#utility.yul\":20994:21003   */\n      iszero\n        /* \"#utility.yul\":20987:21004   */\n      iszero\n        /* \"#utility.yul\":20983:21088   */\n      and\n        /* \"#utility.yul\":20980:21111   */\n      iszero\n      tag_635\n      jumpi\n        /* \"#utility.yul\":21091:21109   */\n      tag_636\n      tag_394\n      jump\t// in\n    tag_636:\n        /* \"#utility.yul\":20980:21111   */\n    tag_635:\n        /* \"#utility.yul\":21139:21140   */\n      dup3\n        /* \"#utility.yul\":21136:21137   */\n      dup3\n        /* \"#utility.yul\":21132:21141   */\n      mul\n        /* \"#utility.yul\":21121:21141   */\n      swap1\n      pop\n        /* \"#utility.yul\":20799:21147   */\n      swap3\n      swap2\n      pop\n      pop\n      jump\t// out\n        /* \"#utility.yul\":21153:21386   */\n    tag_169:\n        /* \"#utility.yul\":21192:21195   */\n      0x00\n        /* \"#utility.yul\":21215:21239   */\n      tag_638\n        /* \"#utility.yul\":21233:21238   */\n      dup3\n        /* \"#utility.yul\":21215:21239   */\n      tag_346\n      jump\t// in\n    tag_638:\n        /* \"#utility.yul\":21206:21239   */\n      swap2\n      pop\n        /* \"#utility.yul\":21261:21327   */\n      0xffffffffffffffffffffffffffffffffffffffffffffffffffffffffffffffff\n        /* \"#utility.yul\":21254:21259   */\n      dup3\n        /* \"#utility.yul\":21251:21328   */\n      sub\n        /* \"#utility.yul\":21248:21351   */\n      tag_639\n      jumpi\n        /* \"#utility.yul\":21331:21349   */\n      tag_640\n      tag_394\n      jump\t// in\n    tag_640:\n        /* \"#utility.yul\":21248:21351   */\n    tag_639:\n        /* \"#utility.yul\":21378:21379   */\n      0x01\n        /* \"#utility.yul\":21371:21376   */\n      dup3\n        /* \"#utility.yul\":21367:21380   */\n      add\n        /* \"#utility.yul\":21360:21380   */\n      swap1\n      pop\n        /* \"#utility.yul\":21153:21386   */\n      swap2\n      swap1\n      pop\n      jump\t// out\n        /* \"#utility.yul\":21392:21834   */\n    tag_179:\n        /* \"#utility.yul\":21541:21545   */\n      0x00\n        /* \"#utility.yul\":21579:21581   */\n      0x60\n        /* \"#utility.yul\":21568:21577   */\n      dup3\n        /* \"#utility.yul\":21564:21582   */\n      add\n        /* \"#utility.yul\":21556:21582   */\n      swap1\n      pop\n        /* \"#utility.yul\":21592:21663   */\n      tag_642\n        /* \"#utility.yul\":21660:21661   */\n      0x00\n        /* \"#utility.yul\":21649:21658   */\n      dup4\n        /* \"#utility.yul\":21645:21662   */\n      add\n        /* \"#utility.yul\":21636:21642   */\n      dup7\n        /* \"#utility.yul\":21592:21663   */\n      tag_362\n      jump\t// in\n    tag_642:\n        /* \"#utility.yul\":21673:21745   */\n      tag_643\n        /* \"#utility.yul\":21741:21743   */\n      0x20\n        /* \"#utility.yul\":21730:21739   */\n      dup4\n        /* \"#utility.yul\":21726:21744   */\n      add\n        /* \"#utility.yul\":21717:21723   */\n      dup6\n        /* \"#utility.yul\":21673:21745   */\n      tag_362\n      jump\t// in\n    tag_643:\n        /* \"#utility.yul\":21755:21827   */\n      tag_644\n        /* \"#utility.yul\":21823:21825   */\n      0x40\n        /* \"#utility.yul\":21812:21821   */\n      dup4\n        /* \"#utility.yul\":21808:21826   */\n      add\n        /* \"#utility.yul\":21799:21805   */\n      dup5\n        /* \"#utility.yul\":21755:21827   */\n      tag_353\n      jump\t// in\n    tag_644:\n        /* \"#utility.yul\":21392:21834   */\n      swap5\n      swap4\n      pop\n      pop\n      pop\n      pop\n      jump\t// out\n        /* \"#utility.yul\":21840:21956   */\n    tag_398:\n        /* \"#utility.yul\":21910:21931   */\n      tag_646\n        /* \"#utility.yul\":21925:21930   */\n      dup2\n        /* \"#utility.yul\":21910:21931   */\n      tag_360\n      jump\t// in\n    tag_646:\n        /* \"#utility.yul\":21903:21908   */\n      dup2\n        /* \"#utility.yul\":21900:21932   */\n      eq\n        /* \"#utility.yul\":21890:21950   */\n      tag_647\n      jumpi\n        /* \"#utility.yul\":21946:21947   */\n      0x00\n        /* \"#utility.yul\":21943:21944   */\n      dup1\n        /* \"#utility.yul\":21936:21948   */\n      revert\n        /* \"#utility.yul\":21890:21950   */\n    tag_647:\n        /* \"#utility.yul\":21840:21956   */\n      pop\n      jump\t// out\n        /* \"#utility.yul\":21962:22099   */\n    tag_399:\n        /* \"#utility.yul\":22016:22021   */\n      0x00\n        /* \"#utility.yul\":22047:22053   */\n      dup2\n        /* \"#utility.yul\":22041:22054   */\n      mload\n        /* \"#utility.yul\":22032:22054   */\n      swap1\n      pop\n        /* \"#utility.yul\":22063:22093   */\n      tag_649\n        /* \"#utility.yul\":22087:22092   */\n      dup2\n        /* \"#utility.yul\":22063:22093   */\n      tag_398\n      jump\t// in\n    tag_649:\n        /* \"#utility.yul\":21962:22099   */\n      swap3\n      swap2\n      pop\n      pop\n      jump\t// out\n        /* \"#utility.yul\":22105:22450   */\n    tag_183:\n        /* \"#utility.yul\":22172:22178   */\n      0x00\n        /* \"#utility.yul\":22221:22223   */\n      0x20\n        /* \"#utility.yul\":22209:22218   */\n      dup3\n        /* \"#utility.yul\":22200:22207   */\n      dup5\n        /* \"#utility.yul\":22196:22219   */\n      sub\n        /* \"#utility.yul\":22192:22224   */\n      slt\n        /* \"#utility.yul\":22189:22308   */\n      iszero\n      tag_651\n      jumpi\n        /* \"#utility.yul\":22227:22306   */\n      tag_652\n      tag_344\n      jump\t// in\n    tag_652:\n        /* \"#utility.yul\":22189:22308   */\n    tag_651:\n        /* \"#utility.yul\":22347:22348   */\n      0x00\n        /* \"#utility.yul\":22372:22433   */\n      tag_653\n        /* \"#utility.yul\":22425:22432   */\n      dup5\n        /* \"#utility.yul\":22416:22422   */\n      dup3\n        /* \"#utility.yul\":22405:22414   */\n      dup6\n        /* \"#utility.yul\":22401:22423   */\n      add\n        /* \"#utility.yul\":22372:22433   */\n      tag_399\n      jump\t// in\n    tag_653:\n        /* \"#utility.yul\":22362:22433   */\n      swap2\n      pop\n        /* \"#utility.yul\":22318:22443   */\n      pop\n        /* \"#utility.yul\":22105:22450   */\n      swap3\n      swap2\n      pop\n      pop\n      jump\t// out\n        /* \"#utility.yul\":22456:22627   */\n    tag_400:\n        /* \"#utility.yul\":22596:22619   */\n      0x6572726f7220696e20646973747269627574696f6e0000000000000000000000\n        /* \"#utility.yul\":22592:22593   */\n      0x00\n        /* \"#utility.yul\":22584:22590   */\n      dup3\n        /* \"#utility.yul\":22580:22594   */\n      add\n        /* \"#utility.yul\":22573:22620   */\n      mstore\n        /* \"#utility.yul\":22456:22627   */\n      pop\n      jump\t// out\n        /* \"#utility.yul\":22633:22999   */\n    tag_401:\n        /* \"#utility.yul\":22775:22778   */\n      0x00\n        /* \"#utility.yul\":22796:22863   */\n      tag_656\n        /* \"#utility.yul\":22860:22862   */\n      0x15\n        /* \"#utility.yul\":22855:22858   */\n      dup4\n        /* \"#utility.yul\":22796:22863   */\n      tag_383\n      jump\t// in\n    tag_656:\n        /* \"#utility.yul\":22789:22863   */\n      swap2\n      pop\n        /* \"#utility.yul\":22872:22965   */\n      tag_657\n        /* \"#utility.yul\":22961:22964   */\n      dup3\n        /* \"#utility.yul\":22872:22965   */\n      tag_400\n      jump\t// in\n    tag_657:\n        /* \"#utility.yul\":22990:22992   */\n      0x20\n        /* \"#utility.yul\":22985:22988   */\n      dup3\n        /* \"#utility.yul\":22981:22993   */\n      add\n        /* \"#utility.yul\":22974:22993   */\n      swap1\n      pop\n        /* \"#utility.yul\":22633:22999   */\n      swap2\n      swap1\n      pop\n      jump\t// out\n        /* \"#utility.yul\":23005:23424   */\n    tag_186:\n        /* \"#utility.yul\":23171:23175   */\n      0x00\n        /* \"#utility.yul\":23209:23211   */\n      0x20\n        /* \"#utility.yul\":23198:23207   */\n      dup3\n        /* \"#utility.yul\":23194:23212   */\n      add\n        /* \"#utility.yul\":23186:23212   */\n      swap1\n      pop\n        /* \"#utility.yul\":23258:23267   */\n      dup2\n        /* \"#utility.yul\":23252:23256   */\n      dup2\n        /* \"#utility.yul\":23248:23268   */\n      sub\n        /* \"#utility.yul\":23244:23245   */\n      0x00\n        /* \"#utility.yul\":23233:23242   */\n      dup4\n        /* \"#utility.yul\":23229:23246   */\n      add\n        /* \"#utility.yul\":23222:23269   */\n      mstore\n        /* \"#utility.yul\":23286:23417   */\n      tag_659\n        /* \"#utility.yul\":23412:23416   */\n      dup2\n        /* \"#utility.yul\":23286:23417   */\n      tag_401\n      jump\t// in\n    tag_659:\n        /* \"#utility.yul\":23278:23417   */\n      swap1\n      pop\n        /* \"#utility.yul\":23005:23424   */\n      swap2\n      swap1\n      pop\n      jump\t// out\n        /* \"#utility.yul\":23430:23660   */\n    tag_402:\n        /* \"#utility.yul\":23570:23604   */\n      0x686f6c64696e67202620617574686f72697a6174696f6e2066616c7365207061\n        /* \"#utility.yul\":23566:23567   */\n      0x00\n        /* \"#utility.yul\":23558:23564   */\n      dup3\n        /* \"#utility.yul\":23554:23568   */\n      add\n        /* \"#utility.yul\":23547:23605   */\n      mstore\n        /* \"#utility.yul\":23639:23652   */\n      0x7920657861637420666565000000000000000000000000000000000000000000\n        /* \"#utility.yul\":23634:23636   */\n      0x20\n        /* \"#utility.yul\":23626:23632   */\n      dup3\n        /* \"#utility.yul\":23622:23637   */\n      add\n        /* \"#utility.yul\":23615:23653   */\n      mstore\n        /* \"#utility.yul\":23430:23660   */\n      pop\n      jump\t// out\n        /* \"#utility.yul\":23666:24032   */\n    tag_403:\n        /* \"#utility.yul\":23808:23811   */\n      0x00\n        /* \"#utility.yul\":23829:23896   */\n      tag_662\n        /* \"#utility.yul\":23893:23895   */\n      0x2b\n        /* \"#utility.yul\":23888:23891   */\n      dup4\n        /* \"#utility.yul\":23829:23896   */\n      tag_383\n      jump\t// in\n    tag_662:\n        /* \"#utility.yul\":23822:23896   */\n      swap2\n      pop\n        /* \"#utility.yul\":23905:23998   */\n      tag_663\n        /* \"#utility.yul\":23994:23997   */\n      dup3\n        /* \"#utility.yul\":23905:23998   */\n      tag_402\n      jump\t// in\n    tag_663:\n        /* \"#utility.yul\":24023:24025   */\n      0x40\n        /* \"#utility.yul\":24018:24021   */\n      dup3\n        /* \"#utility.yul\":24014:24026   */\n      add\n        /* \"#utility.yul\":24007:24026   */\n      swap1\n      pop\n        /* \"#utility.yul\":23666:24032   */\n      swap2\n      swap1\n      pop\n      jump\t// out\n        /* \"#utility.yul\":24038:24457   */\n    tag_217:\n        /* \"#utility.yul\":24204:24208   */\n      0x00\n        /* \"#utility.yul\":24242:24244   */\n      0x20\n        /* \"#utility.yul\":24231:24240   */\n      dup3\n        /* \"#utility.yul\":24227:24245   */\n      add\n        /* \"#utility.yul\":24219:24245   */\n      swap1\n      pop\n        /* \"#utility.yul\":24291:24300   */\n      dup2\n        /* \"#utility.yul\":24285:24289   */\n      dup2\n        /* \"#utility.yul\":24281:24301   */\n      sub\n        /* \"#utility.yul\":24277:24278   */\n      0x00\n        /* \"#utility.yul\":24266:24275   */\n      dup4\n        /* \"#utility.yul\":24262:24279   */\n      add\n        /* \"#utility.yul\":24255:24302   */\n      mstore\n        /* \"#utility.yul\":24319:24450   */\n      tag_665\n        /* \"#utility.yul\":24445:24449   */\n      dup2\n        /* \"#utility.yul\":24319:24450   */\n      tag_403\n      jump\t// in\n    tag_665:\n        /* \"#utility.yul\":24311:24450   */\n      swap1\n      pop\n        /* \"#utility.yul\":24038:24457   */\n      swap2\n      swap1\n      pop\n      jump\t// out\n        /* \"#utility.yul\":24463:24686   */\n    tag_404:\n        /* \"#utility.yul\":24603:24637   */\n      0x636f6e747261637420646f65736e2774206861766520656e6f75676820746f6b\n        /* \"#utility.yul\":24599:24600   */\n      0x00\n        /* \"#utility.yul\":24591:24597   */\n      dup3\n        /* \"#utility.yul\":24587:24601   */\n      add\n        /* \"#utility.yul\":24580:24638   */\n      mstore\n        /* \"#utility.yul\":24672:24678   */\n      0x656e277300000000000000000000000000000000000000000000000000000000\n        /* \"#utility.yul\":24667:24669   */\n      0x20\n        /* \"#utility.yul\":24659:24665   */\n      dup3\n        /* \"#utility.yul\":24655:24670   */\n      add\n        /* \"#utility.yul\":24648:24679   */\n      mstore\n        /* \"#utility.yul\":24463:24686   */\n      pop\n      jump\t// out\n        /* \"#utility.yul\":24692:25058   */\n    tag_405:\n        /* \"#utility.yul\":24834:24837   */\n      0x00\n        /* \"#utility.yul\":24855:24922   */\n      tag_668\n        /* \"#utility.yul\":24919:24921   */\n      0x24\n        /* \"#utility.yul\":24914:24917   */\n      dup4\n        /* \"#utility.yul\":24855:24922   */\n      tag_383\n      jump\t// in\n    tag_668:\n        /* \"#utility.yul\":24848:24922   */\n      swap2\n      pop\n        /* \"#utility.yul\":24931:25024   */\n      tag_669\n        /* \"#utility.yul\":25020:25023   */\n      dup3\n        /* \"#utility.yul\":24931:25024   */\n      tag_404\n      jump\t// in\n    tag_669:\n        /* \"#utility.yul\":25049:25051   */\n      0x40\n        /* \"#utility.yul\":25044:25047   */\n      dup3\n        /* \"#utility.yul\":25040:25052   */\n      add\n        /* \"#utility.yul\":25033:25052   */\n      swap1\n      pop\n        /* \"#utility.yul\":24692:25058   */\n      swap2\n      swap1\n      pop\n      jump\t// out\n        /* \"#utility.yul\":25064:25483   */\n    tag_243:\n        /* \"#utility.yul\":25230:25234   */\n      0x00\n        /* \"#utility.yul\":25268:25270   */\n      0x20\n        /* \"#utility.yul\":25257:25266   */\n      dup3\n        /* \"#utility.yul\":25253:25271   */\n      add\n        /* \"#utility.yul\":25245:25271   */\n      swap1\n      pop\n        /* \"#utility.yul\":25317:25326   */\n      dup2\n        /* \"#utility.yul\":25311:25315   */\n      dup2\n        /* \"#utility.yul\":25307:25327   */\n      sub\n        /* \"#utility.yul\":25303:25304   */\n      0x00\n        /* \"#utility.yul\":25292:25301   */\n      dup4\n        /* \"#utility.yul\":25288:25305   */\n      add\n        /* \"#utility.yul\":25281:25328   */\n      mstore\n        /* \"#utility.yul\":25345:25476   */\n      tag_671\n        /* \"#utility.yul\":25471:25475   */\n      dup2\n        /* \"#utility.yul\":25345:25476   */\n      tag_405\n      jump\t// in\n    tag_671:\n        /* \"#utility.yul\":25337:25476   */\n      swap1\n      pop\n        /* \"#utility.yul\":25064:25483   */\n      swap2\n      swap1\n      pop\n      jump\t// out\n        /* \"#utility.yul\":25489:25821   */\n    tag_245:\n        /* \"#utility.yul\":25610:25614   */\n      0x00\n        /* \"#utility.yul\":25648:25650   */\n      0x40\n        /* \"#utility.yul\":25637:25646   */\n      dup3\n        /* \"#utility.yul\":25633:25651   */\n      add\n        /* \"#utility.yul\":25625:25651   */\n      swap1\n      pop\n        /* \"#utility.yul\":25661:25732   */\n      tag_673\n        /* \"#utility.yul\":25729:25730   */\n      0x00\n        /* \"#utility.yul\":25718:25727   */\n      dup4\n        /* \"#utility.yul\":25714:25731   */\n      add\n        /* \"#utility.yul\":25705:25711   */\n      dup6\n        /* \"#utility.yul\":25661:25732   */\n      tag_362\n      jump\t// in\n    tag_673:\n        /* \"#utility.yul\":25742:25814   */\n      tag_674\n        /* \"#utility.yul\":25810:25812   */\n      0x20\n        /* \"#utility.yul\":25799:25808   */\n      dup4\n        /* \"#utility.yul\":25795:25813   */\n      add\n        /* \"#utility.yul\":25786:25792   */\n      dup5\n        /* \"#utility.yul\":25742:25814   */\n      tag_353\n      jump\t// in\n    tag_674:\n        /* \"#utility.yul\":25489:25821   */\n      swap4\n      swap3\n      pop\n      pop\n      pop\n      jump\t// out\n        /* \"#utility.yul\":25827:26132   */\n    tag_261:\n        /* \"#utility.yul\":25867:25870   */\n      0x00\n        /* \"#utility.yul\":25886:25906   */\n      tag_676\n        /* \"#utility.yul\":25904:25905   */\n      dup3\n        /* \"#utility.yul\":25886:25906   */\n      tag_346\n      jump\t// in\n    tag_676:\n        /* \"#utility.yul\":25881:25906   */\n      swap2\n      pop\n        /* \"#utility.yul\":25920:25940   */\n      tag_677\n        /* \"#utility.yul\":25938:25939   */\n      dup4\n        /* \"#utility.yul\":25920:25940   */\n      tag_346\n      jump\t// in\n    tag_677:\n        /* \"#utility.yul\":25915:25940   */\n      swap3\n      pop\n        /* \"#utility.yul\":26074:26075   */\n      dup3\n        /* \"#utility.yul\":26006:26072   */\n      0xffffffffffffffffffffffffffffffffffffffffffffffffffffffffffffffff\n        /* \"#utility.yul\":26002:26076   */\n      sub\n        /* \"#utility.yul\":25999:26000   */\n      dup3\n        /* \"#utility.yul\":25996:26077   */\n      gt\n        /* \"#utility.yul\":25993:26100   */\n      iszero\n      tag_678\n      jumpi\n        /* \"#utility.yul\":26080:26098   */\n      tag_679\n      tag_394\n      jump\t// in\n    tag_679:\n        /* \"#utility.yul\":25993:26100   */\n    tag_678:\n        /* \"#utility.yul\":26124:26125   */\n      dup3\n        /* \"#utility.yul\":26121:26122   */\n      dup3\n        /* \"#utility.yul\":26117:26126   */\n      add\n        /* \"#utility.yul\":26110:26126   */\n      swap1\n      pop\n        /* \"#utility.yul\":25827:26132   */\n      swap3\n      swap2\n      pop\n      pop\n      jump\t// out\n        /* \"#utility.yul\":26138:26367   */\n    tag_406:\n        /* \"#utility.yul\":26278:26312   */\n      0x7061792074686520657861637420616d6f756e7420746f20636f766572206469\n        /* \"#utility.yul\":26274:26275   */\n      0x00\n        /* \"#utility.yul\":26266:26272   */\n      dup3\n        /* \"#utility.yul\":26262:26276   */\n      add\n        /* \"#utility.yul\":26255:26313   */\n      mstore\n        /* \"#utility.yul\":26347:26359   */\n      0x73747269627574696f6e00000000000000000000000000000000000000000000\n        /* \"#utility.yul\":26342:26344   */\n      0x20\n        /* \"#utility.yul\":26334:26340   */\n      dup3\n        /* \"#utility.yul\":26330:26345   */\n      add\n        /* \"#utility.yul\":26323:26360   */\n      mstore\n        /* \"#utility.yul\":26138:26367   */\n      pop\n      jump\t// out\n        /* \"#utility.yul\":26373:26739   */\n    tag_407:\n        /* \"#utility.yul\":26515:26518   */\n      0x00\n        /* \"#utility.yul\":26536:26603   */\n      tag_682\n        /* \"#utility.yul\":26600:26602   */\n      0x2a\n        /* \"#utility.yul\":26595:26598   */\n      dup4\n        /* \"#utility.yul\":26536:26603   */\n      tag_383\n      jump\t// in\n    tag_682:\n        /* \"#utility.yul\":26529:26603   */\n      swap2\n      pop\n        /* \"#utility.yul\":26612:26705   */\n      tag_683\n        /* \"#utility.yul\":26701:26704   */\n      dup3\n        /* \"#utility.yul\":26612:26705   */\n      tag_406\n      jump\t// in\n    tag_683:\n        /* \"#utility.yul\":26730:26732   */\n      0x40\n        /* \"#utility.yul\":26725:26728   */\n      dup3\n        /* \"#utility.yul\":26721:26733   */\n      add\n        /* \"#utility.yul\":26714:26733   */\n      swap1\n      pop\n        /* \"#utility.yul\":26373:26739   */\n      swap2\n      swap1\n      pop\n      jump\t// out\n        /* \"#utility.yul\":26745:27164   */\n    tag_266:\n        /* \"#utility.yul\":26911:26915   */\n      0x00\n        /* \"#utility.yul\":26949:26951   */\n      0x20\n        /* \"#utility.yul\":26938:26947   */\n      dup3\n        /* \"#utility.yul\":26934:26952   */\n      add\n        /* \"#utility.yul\":26926:26952   */\n      swap1\n      pop\n        /* \"#utility.yul\":26998:27007   */\n      dup2\n        /* \"#utility.yul\":26992:26996   */\n      dup2\n        /* \"#utility.yul\":26988:27008   */\n      sub\n        /* \"#utility.yul\":26984:26985   */\n      0x00\n        /* \"#utility.yul\":26973:26982   */\n      dup4\n        /* \"#utility.yul\":26969:26986   */\n      add\n        /* \"#utility.yul\":26962:27009   */\n      mstore\n        /* \"#utility.yul\":27026:27157   */\n      tag_685\n        /* \"#utility.yul\":27152:27156   */\n      dup2\n        /* \"#utility.yul\":27026:27157   */\n      tag_407\n      jump\t// in\n    tag_685:\n        /* \"#utility.yul\":27018:27157   */\n      swap1\n      pop\n        /* \"#utility.yul\":26745:27164   */\n      swap2\n      swap1\n      pop\n      jump\t// out\n        /* \"#utility.yul\":27170:27412   */\n    tag_408:\n        /* \"#utility.yul\":27310:27344   */\n      0x686f6c64696e67207175616e74697479207472756520627574206d73672e7661\n        /* \"#utility.yul\":27306:27307   */\n      0x00\n        /* \"#utility.yul\":27298:27304   */\n      dup3\n        /* \"#utility.yul\":27294:27308   */\n      add\n        /* \"#utility.yul\":27287:27345   */\n      mstore\n        /* \"#utility.yul\":27379:27404   */\n      0x6c756520756e6365727461696e20706179206578616374000000000000000000\n        /* \"#utility.yul\":27374:27376   */\n      0x20\n        /* \"#utility.yul\":27366:27372   */\n      dup3\n        /* \"#utility.yul\":27362:27377   */\n      add\n        /* \"#utility.yul\":27355:27405   */\n      mstore\n        /* \"#utility.yul\":27170:27412   */\n      pop\n      jump\t// out\n        /* \"#utility.yul\":27418:27784   */\n    tag_409:\n        /* \"#utility.yul\":27560:27563   */\n      0x00\n        /* \"#utility.yul\":27581:27648   */\n      tag_688\n        /* \"#utility.yul\":27645:27647   */\n      0x37\n        /* \"#utility.yul\":27640:27643   */\n      dup4\n        /* \"#utility.yul\":27581:27648   */\n      tag_383\n      jump\t// in\n    tag_688:\n        /* \"#utility.yul\":27574:27648   */\n      swap2\n      pop\n        /* \"#utility.yul\":27657:27750   */\n      tag_689\n        /* \"#utility.yul\":27746:27749   */\n      dup3\n        /* \"#utility.yul\":27657:27750   */\n      tag_408\n      jump\t// in\n    tag_689:\n        /* \"#utility.yul\":27775:27777   */\n      0x40\n        /* \"#utility.yul\":27770:27773   */\n      dup3\n        /* \"#utility.yul\":27766:27778   */\n      add\n        /* \"#utility.yul\":27759:27778   */\n      swap1\n      pop\n        /* \"#utility.yul\":27418:27784   */\n      swap2\n      swap1\n      pop\n      jump\t// out\n        /* \"#utility.yul\":27790:28209   */\n    tag_286:\n        /* \"#utility.yul\":27956:27960   */\n      0x00\n        /* \"#utility.yul\":27994:27996   */\n      0x20\n        /* \"#utility.yul\":27983:27992   */\n      dup3\n        /* \"#utility.yul\":27979:27997   */\n      add\n        /* \"#utility.yul\":27971:27997   */\n      swap1\n      pop\n        /* \"#utility.yul\":28043:28052   */\n      dup2\n        /* \"#utility.yul\":28037:28041   */\n      dup2\n        /* \"#utility.yul\":28033:28053   */\n      sub\n        /* \"#utility.yul\":28029:28030   */\n      0x00\n        /* \"#utility.yul\":28018:28027   */\n      dup4\n        /* \"#utility.yul\":28014:28031   */\n      add\n        /* \"#utility.yul\":28007:28054   */\n      mstore\n        /* \"#utility.yul\":28071:28202   */\n      tag_691\n        /* \"#utility.yul\":28197:28201   */\n      dup2\n        /* \"#utility.yul\":28071:28202   */\n      tag_409\n      jump\t// in\n    tag_691:\n        /* \"#utility.yul\":28063:28202   */\n      swap1\n      pop\n        /* \"#utility.yul\":27790:28209   */\n      swap2\n      swap1\n      pop\n      jump\t// out\n        /* \"#utility.yul\":28215:28440   */\n    tag_410:\n        /* \"#utility.yul\":28355:28389   */\n      0x4f776e61626c653a206e6577206f776e657220697320746865207a65726f2061\n        /* \"#utility.yul\":28351:28352   */\n      0x00\n        /* \"#utility.yul\":28343:28349   */\n      dup3\n        /* \"#utility.yul\":28339:28353   */\n      add\n        /* \"#utility.yul\":28332:28390   */\n      mstore\n        /* \"#utility.yul\":28424:28432   */\n      0x6464726573730000000000000000000000000000000000000000000000000000\n        /* \"#utility.yul\":28419:28421   */\n      0x20\n        /* \"#utility.yul\":28411:28417   */\n      dup3\n        /* \"#utility.yul\":28407:28422   */\n      add\n        /* \"#utility.yul\":28400:28433   */\n      mstore\n        /* \"#utility.yul\":28215:28440   */\n      pop\n      jump\t// out\n        /* \"#utility.yul\":28446:28812   */\n    tag_411:\n        /* \"#utility.yul\":28588:28591   */\n      0x00\n        /* \"#utility.yul\":28609:28676   */\n      tag_694\n        /* \"#utility.yul\":28673:28675   */\n      0x26\n        /* \"#utility.yul\":28668:28671   */\n      dup4\n        /* \"#utility.yul\":28609:28676   */\n      tag_383\n      jump\t// in\n    tag_694:\n        /* \"#utility.yul\":28602:28676   */\n      swap2\n      pop\n        /* \"#utility.yul\":28685:28778   */\n      tag_695\n        /* \"#utility.yul\":28774:28777   */\n      dup3\n        /* \"#utility.yul\":28685:28778   */\n      tag_410\n      jump\t// in\n    tag_695:\n        /* \"#utility.yul\":28803:28805   */\n      0x40\n        /* \"#utility.yul\":28798:28801   */\n      dup3\n        /* \"#utility.yul\":28794:28806   */\n      add\n        /* \"#utility.yul\":28787:28806   */\n      swap1\n      pop\n        /* \"#utility.yul\":28446:28812   */\n      swap2\n      swap1\n      pop\n      jump\t// out\n        /* \"#utility.yul\":28818:29237   */\n    tag_323:\n        /* \"#utility.yul\":28984:28988   */\n      0x00\n        /* \"#utility.yul\":29022:29024   */\n      0x20\n        /* \"#utility.yul\":29011:29020   */\n      dup3\n        /* \"#utility.yul\":29007:29025   */\n      add\n        /* \"#utility.yul\":28999:29025   */\n      swap1\n      pop\n        /* \"#utility.yul\":29071:29080   */\n      dup2\n        /* \"#utility.yul\":29065:29069   */\n      dup2\n        /* \"#utility.yul\":29061:29081   */\n      sub\n        /* \"#utility.yul\":29057:29058   */\n      0x00\n        /* \"#utility.yul\":29046:29055   */\n      dup4\n        /* \"#utility.yul\":29042:29059   */\n      add\n        /* \"#utility.yul\":29035:29082   */\n      mstore\n        /* \"#utility.yul\":29099:29230   */\n      tag_697\n        /* \"#utility.yul\":29225:29229   */\n      dup2\n        /* \"#utility.yul\":29099:29230   */\n      tag_411\n      jump\t// in\n    tag_697:\n        /* \"#utility.yul\":29091:29230   */\n      swap1\n      pop\n        /* \"#utility.yul\":28818:29237   */\n      swap2\n      swap1\n      pop\n      jump\t// out\n        /* \"#utility.yul\":29243:29420   */\n    tag_412:\n        /* \"#utility.yul\":29383:29412   */\n      0x696e76616c69642062616c616e636520746f2077697468647261770000000000\n        /* \"#utility.yul\":29379:29380   */\n      0x00\n        /* \"#utility.yul\":29371:29377   */\n      dup3\n        /* \"#utility.yul\":29367:29381   */\n      add\n        /* \"#utility.yul\":29360:29413   */\n      mstore\n        /* \"#utility.yul\":29243:29420   */\n      pop\n      jump\t// out\n        /* \"#utility.yul\":29426:29792   */\n    tag_413:\n        /* \"#utility.yul\":29568:29571   */\n      0x00\n        /* \"#utility.yul\":29589:29656   */\n      tag_700\n        /* \"#utility.yul\":29653:29655   */\n      0x1b\n        /* \"#utility.yul\":29648:29651   */\n      dup4\n        /* \"#utility.yul\":29589:29656   */\n      tag_383\n      jump\t// in\n    tag_700:\n        /* \"#utility.yul\":29582:29656   */\n      swap2\n      pop\n        /* \"#utility.yul\":29665:29758   */\n      tag_701\n        /* \"#utility.yul\":29754:29757   */\n      dup3\n        /* \"#utility.yul\":29665:29758   */\n      tag_412\n      jump\t// in\n    tag_701:\n        /* \"#utility.yul\":29783:29785   */\n      0x20\n        /* \"#utility.yul\":29778:29781   */\n      dup3\n        /* \"#utility.yul\":29774:29786   */\n      add\n        /* \"#utility.yul\":29767:29786   */\n      swap1\n      pop\n        /* \"#utility.yul\":29426:29792   */\n      swap2\n      swap1\n      pop\n      jump\t// out\n        /* \"#utility.yul\":29798:30217   */\n    tag_330:\n        /* \"#utility.yul\":29964:29968   */\n      0x00\n        /* \"#utility.yul\":30002:30004   */\n      0x20\n        /* \"#utility.yul\":29991:30000   */\n      dup3\n        /* \"#utility.yul\":29987:30005   */\n      add\n        /* \"#utility.yul\":29979:30005   */\n      swap1\n      pop\n        /* \"#utility.yul\":30051:30060   */\n      dup2\n        /* \"#utility.yul\":30045:30049   */\n      dup2\n        /* \"#utility.yul\":30041:30061   */\n      sub\n        /* \"#utility.yul\":30037:30038   */\n      0x00\n        /* \"#utility.yul\":30026:30035   */\n      dup4\n        /* \"#utility.yul\":30022:30039   */\n      add\n        /* \"#utility.yul\":30015:30062   */\n      mstore\n        /* \"#utility.yul\":30079:30210   */\n      tag_703\n        /* \"#utility.yul\":30205:30209   */\n      dup2\n        /* \"#utility.yul\":30079:30210   */\n      tag_413\n      jump\t// in\n    tag_703:\n        /* \"#utility.yul\":30071:30210   */\n      swap1\n      pop\n        /* \"#utility.yul\":29798:30217   */\n      swap2\n      swap1\n      pop\n      jump\t// out\n        /* \"#utility.yul\":30223:30405   */\n    tag_414:\n        /* \"#utility.yul\":30363:30397   */\n      0x4f776e61626c653a2063616c6c6572206973206e6f7420746865206f776e6572\n        /* \"#utility.yul\":30359:30360   */\n      0x00\n        /* \"#utility.yul\":30351:30357   */\n      dup3\n        /* \"#utility.yul\":30347:30361   */\n      add\n        /* \"#utility.yul\":30340:30398   */\n      mstore\n        /* \"#utility.yul\":30223:30405   */\n      pop\n      jump\t// out\n        /* \"#utility.yul\":30411:30777   */\n    tag_415:\n        /* \"#utility.yul\":30553:30556   */\n      0x00\n        /* \"#utility.yul\":30574:30641   */\n      tag_706\n        /* \"#utility.yul\":30638:30640   */\n      0x20\n        /* \"#utility.yul\":30633:30636   */\n      dup4\n        /* \"#utility.yul\":30574:30641   */\n      tag_383\n      jump\t// in\n    tag_706:\n        /* \"#utility.yul\":30567:30641   */\n      swap2\n      pop\n        /* \"#utility.yul\":30650:30743   */\n      tag_707\n        /* \"#utility.yul\":30739:30742   */\n      dup3\n        /* \"#utility.yul\":30650:30743   */\n      tag_414\n      jump\t// in\n    tag_707:\n        /* \"#utility.yul\":30768:30770   */\n      0x20\n        /* \"#utility.yul\":30763:30766   */\n      dup3\n        /* \"#utility.yul\":30759:30771   */\n      add\n        /* \"#utility.yul\":30752:30771   */\n      swap1\n      pop\n        /* \"#utility.yul\":30411:30777   */\n      swap2\n      swap1\n      pop\n      jump\t// out\n        /* \"#utility.yul\":30783:31202   */\n    tag_339:\n        /* \"#utility.yul\":30949:30953   */\n      0x00\n        /* \"#utility.yul\":30987:30989   */\n      0x20\n        /* \"#utility.yul\":30976:30985   */\n      dup3\n        /* \"#utility.yul\":30972:30990   */\n      add\n        /* \"#utility.yul\":30964:30990   */\n      swap1\n      pop\n        /* \"#utility.yul\":31036:31045   */\n      dup2\n        /* \"#utility.yul\":31030:31034   */\n      dup2\n        /* \"#utility.yul\":31026:31046   */\n      sub\n        /* \"#utility.yul\":31022:31023   */\n      0x00\n        /* \"#utility.yul\":31011:31020   */\n      dup4\n        /* \"#utility.yul\":31007:31024   */\n      add\n        /* \"#utility.yul\":31000:31047   */\n      mstore\n        /* \"#utility.yul\":31064:31195   */\n      tag_709\n        /* \"#utility.yul\":31190:31194   */\n      dup2\n        /* \"#utility.yul\":31064:31195   */\n      tag_415\n      jump\t// in\n    tag_709:\n        /* \"#utility.yul\":31056:31195   */\n      swap1\n      pop\n        /* \"#utility.yul\":30783:31202   */\n      swap2\n      swap1\n      pop\n      jump\t// out\n\n    auxdata: 0xa2646970667358221220eb45a1b435742d6a4526589ae5344ccc3b1d6622e150eb1e036c30c47d1f95cf64736f6c634300080d0033\n}\n",
				"bytecode": {
					"linkReferences": {},
					"object": "60806040523480156200001157600080fd5b5062000032620000266200009560201b60201c565b6200009d60201b60201c565b620000426200016160201b60201c565b600260006101000a81548173ffffffffffffffffffffffffffffffffffffffff021916908373ffffffffffffffffffffffffffffffffffffffff160217905550655af3107a40006001819055506200018a565b600033905090565b60008060009054906101000a900473ffffffffffffffffffffffffffffffffffffffff169050816000806101000a81548173ffffffffffffffffffffffffffffffffffffffff021916908373ffffffffffffffffffffffffffffffffffffffff1602179055508173ffffffffffffffffffffffffffffffffffffffff168173ffffffffffffffffffffffffffffffffffffffff167f8be0079c531659141344cd1fd0a4f28419497f9722a3daafe3b4186f6b6457e060405160405180910390a35050565b60008060009054906101000a900473ffffffffffffffffffffffffffffffffffffffff16905090565b612b2a806200019a6000396000f3fe60806040526004361061010d5760003560e01c80638da5cb5b11610095578063d908e6ce11610064578063d908e6ce1461033f578063ddca3f431461035b578063f2fde38b14610386578063f7260d3e146103af578063f9f95a0f146103da57610114565b80638da5cb5b146102a45780639cbd3433146102cf5780639d76ea58146102eb5780639e281a981461031657610114565b806344b6209d116100dc57806344b6209d146101d3578063478aa69e1461021057806367c2a36014610239578063715018a6146102625780638b7afe2e1461027957610114565b8063126ccd941461011957806317fc45e21461014257806320ac1e291461016d5780632fc75eb0146101aa57610114565b3661011457005b600080fd5b34801561012557600080fd5b50610140600480360381019061013b9190611af8565b610403565b005b34801561014e57600080fd5b50610157610457565b6040516101649190611b47565b60405180910390f35b34801561017957600080fd5b50610194600480360381019061018f9190611ba0565b61045d565b6040516101a19190611b47565b60405180910390f35b3480156101b657600080fd5b506101d160048036038101906101cc9190611c0b565b6104d5565b005b3480156101df57600080fd5b506101fa60048036038101906101f59190611c4b565b610529565b6040516102079190611c93565b60405180910390f35b34801561021c57600080fd5b5061023760048036038101906102329190611c4b565b610549565b005b34801561024557600080fd5b50610260600480360381019061025b9190611c4b565b61063f565b005b34801561026e57600080fd5b50610277610735565b005b34801561028557600080fd5b5061028e610749565b60405161029b9190611b47565b60405180910390f35b3480156102b057600080fd5b506102b9610770565b6040516102c69190611cbd565b60405180910390f35b6102e960048036038101906102e49190611ef4565b610799565b005b3480156102f757600080fd5b50610300610f91565b60405161030d9190611fde565b60405180910390f35b34801561032257600080fd5b5061033d60048036038101906103389190611c0b565b610fb7565b005b61035960048036038101906103549190611ff9565b6110fe565b005b34801561036757600080fd5b50610370611788565b60405161037d9190611b47565b60405180910390f35b34801561039257600080fd5b506103ad60048036038101906103a89190611c4b565b61178e565b005b3480156103bb57600080fd5b506103c4611811565b6040516103d19190612092565b60405180910390f35b3480156103e657600080fd5b5061040160048036038101906103fc91906120ad565b611837565b005b61040b6118e3565b8160018190555080600260006101000a81548173ffffffffffffffffffffffffffffffffffffffff021916908373ffffffffffffffffffffffffffffffffffffffff1602179055505050565b60055481565b60008173ffffffffffffffffffffffffffffffffffffffff1663313ce5676040518163ffffffff1660e01b8152600401602060405180830381865afa1580156104aa573d6000803e3d6000fd5b505050506040513d601f19601f820116820180604052508101906104ce91906120ef565b9050919050565b6104dd6118e3565b81600460006101000a81548173ffffffffffffffffffffffffffffffffffffffff021916908373ffffffffffffffffffffffffffffffffffffffff160217905550806005819055505050565b60036020528060005260406000206000915054906101000a900460ff1681565b6105516118e3565b60011515600360008373ffffffffffffffffffffffffffffffffffffffff1673ffffffffffffffffffffffffffffffffffffffff16815260200190815260200160002060009054906101000a900460ff161515146105e4576040517f08c379a00000000000000000000000000000000000000000000000000000000081526004016105db90612179565b60405180910390fd5b6000600360008373ffffffffffffffffffffffffffffffffffffffff1673ffffffffffffffffffffffffffffffffffffffff16815260200190815260200160002060006101000a81548160ff02191690831515021790555050565b6106476118e3565b60001515600360008373ffffffffffffffffffffffffffffffffffffffff1673ffffffffffffffffffffffffffffffffffffffff16815260200190815260200160002060009054906101000a900460ff161515146106da576040517f08c379a00000000000000000000000000000000000000000000000000000000081526004016106d1906121e5565b60405180910390fd5b6001600360008373ffffffffffffffffffffffffffffffffffffffff1673ffffffffffffffffffffffffffffffffffffffff16815260200190815260200160002060006101000a81548160ff02191690831515021790555050565b61073d6118e3565b6107476000611961565b565b60006107536118e3565b3073ffffffffffffffffffffffffffffffffffffffff1631905090565b60008060009054906101000a900473ffffffffffffffffffffffffffffffffffffffff16905090565b600073ffffffffffffffffffffffffffffffffffffffff16600460009054906101000a900473ffffffffffffffffffffffffffffffffffffffff1673ffffffffffffffffffffffffffffffffffffffff160361082a576040517f08c379a000000000000000000000000000000000000000000000000000000000815260040161082190612251565b60405180910390fd5b6001151561084d8473ffffffffffffffffffffffffffffffffffffffff16611a25565b15151461088f576040517f08c379a0000000000000000000000000000000000000000000000000000000008152600401610886906122bd565b60405180910390fd5b80518251146108d3576040517f08c379a00000000000000000000000000000000000000000000000000000000081526004016108ca90612329565b60405180910390fd5b60006108de8461045d565b905060005b82518110156109505781600a6108f991906124ab565b83828151811061090c5761090b6124f6565b5b602002602001015161091e9190612525565b838281518110610931576109306124f6565b5b60200260200101818152505080806109489061257f565b9150506108e3565b50600360003373ffffffffffffffffffffffffffffffffffffffff1673ffffffffffffffffffffffffffffffffffffffff16815260200190815260200160002060009054906101000a900460ff1615610abb5760005b8251811015610ab5578473ffffffffffffffffffffffffffffffffffffffff166323b872dd338684815181106109df576109de6124f6565b5b60200260200101518685815181106109fa576109f96124f6565b5b60200260200101516040518463ffffffff1660e01b8152600401610a20939291906125c7565b6020604051808303816000875af1158015610a3f573d6000803e3d6000fd5b505050506040513d601f19601f82011682018060405250810190610a63919061262a565b610aa2576040517f08c379a0000000000000000000000000000000000000000000000000000000008152600401610a99906126a3565b60405180910390fd5b8080610aad9061257f565b9150506109a6565b50610f8b565b600360003373ffffffffffffffffffffffffffffffffffffffff1673ffffffffffffffffffffffffffffffffffffffff16815260200190815260200160002060009054906101000a900460ff16610f8a57600554600460009054906101000a900473ffffffffffffffffffffffffffffffffffffffff1673ffffffffffffffffffffffffffffffffffffffff166370a08231336040518263ffffffff1660e01b8152600401610b6a9190611cbd565b602060405180830381865afa158015610b87573d6000803e3d6000fd5b505050506040513d601f19601f82011682018060405250810190610bab91906120ef565b10610d20576001600360003373ffffffffffffffffffffffffffffffffffffffff1673ffffffffffffffffffffffffffffffffffffffff16815260200190815260200160002060006101000a81548160ff02191690831515021790555060005b8251811015610d1a578473ffffffffffffffffffffffffffffffffffffffff166323b872dd33868481518110610c4457610c436124f6565b5b6020026020010151868581518110610c5f57610c5e6124f6565b5b60200260200101516040518463ffffffff1660e01b8152600401610c85939291906125c7565b6020604051808303816000875af1158015610ca4573d6000803e3d6000fd5b505050506040513d601f19601f82011682018060405250810190610cc8919061262a565b610d07576040517f08c379a0000000000000000000000000000000000000000000000000000000008152600401610cfe906126a3565b60405180910390fd5b8080610d129061257f565b915050610c0b565b50610f89565b600554600460009054906101000a900473ffffffffffffffffffffffffffffffffffffffff1673ffffffffffffffffffffffffffffffffffffffff166370a08231336040518263ffffffff1660e01b8152600401610d7e9190611cbd565b602060405180830381865afa158015610d9b573d6000803e3d6000fd5b505050506040513d601f19601f82011682018060405250810190610dbf91906120ef565b1015610f88576001543414610e09576040517f08c379a0000000000000000000000000000000000000000000000000000000008152600401610e0090612735565b60405180910390fd5b600260009054906101000a900473ffffffffffffffffffffffffffffffffffffffff1673ffffffffffffffffffffffffffffffffffffffff166108fc6001549081150290604051600060405180830381858888f19350505050158015610e73573d6000803e3d6000fd5b5060005b8251811015610f86578473ffffffffffffffffffffffffffffffffffffffff166323b872dd33868481518110610eb057610eaf6124f6565b5b6020026020010151868581518110610ecb57610eca6124f6565b5b60200260200101516040518463ffffffff1660e01b8152600401610ef1939291906125c7565b6020604051808303816000875af1158015610f10573d6000803e3d6000fd5b505050506040513d601f19601f82011682018060405250810190610f34919061262a565b610f73576040517f08c379a0000000000000000000000000000000000000000000000000000000008152600401610f6a906126a3565b60405180910390fd5b8080610f7e9061257f565b915050610e77565b505b5b5b5b50505050565b600460009054906101000a900473ffffffffffffffffffffffffffffffffffffffff1681565b610fbf6118e3565b808273ffffffffffffffffffffffffffffffffffffffff166370a08231306040518263ffffffff1660e01b8152600401610ff99190611cbd565b602060405180830381865afa158015611016573d6000803e3d6000fd5b505050506040513d601f19601f8201168201806040525081019061103a91906120ef565b101561107b576040517f08c379a0000000000000000000000000000000000000000000000000000000008152600401611072906127c7565b60405180910390fd5b8173ffffffffffffffffffffffffffffffffffffffff1663a9059cbb33836040518363ffffffff1660e01b81526004016110b69291906127e7565b6020604051808303816000875af11580156110d5573d6000803e3d6000fd5b505050506040513d601f19601f820116820180604052508101906110f9919061262a565b505050565b600073ffffffffffffffffffffffffffffffffffffffff16600460009054906101000a900473ffffffffffffffffffffffffffffffffffffffff1673ffffffffffffffffffffffffffffffffffffffff160361118f576040517f08c379a000000000000000000000000000000000000000000000000000000000815260040161118690612251565b60405180910390fd5b80518251146111d3576040517f08c379a00000000000000000000000000000000000000000000000000000000081526004016111ca90612329565b60405180910390fd5b6000805b825181101561121b578281815181106111f3576111f26124f6565b5b6020026020010151826112069190612810565b915080806112139061257f565b9150506111d7565b50600360003373ffffffffffffffffffffffffffffffffffffffff1673ffffffffffffffffffffffffffffffffffffffff16815260200190815260200160002060009054906101000a900460ff1615611350578034146112b0576040517f08c379a00000000000000000000000000000000000000000000000000000000081526004016112a7906128d8565b60405180910390fd5b60005b835181101561134a578381815181106112cf576112ce6124f6565b5b602002602001015173ffffffffffffffffffffffffffffffffffffffff166108fc848381518110611303576113026124f6565b5b60200260200101519081150290604051600060405180830381858888f19350505050158015611336573d6000803e3d6000fd5b5080806113429061257f565b9150506112b3565b50611783565b600360003373ffffffffffffffffffffffffffffffffffffffff1673ffffffffffffffffffffffffffffffffffffffff16815260200190815260200160002060009054906101000a900460ff1661178257600554600460009054906101000a900473ffffffffffffffffffffffffffffffffffffffff1673ffffffffffffffffffffffffffffffffffffffff166370a08231336040518263ffffffff1660e01b81526004016113ff9190611cbd565b602060405180830381865afa15801561141c573d6000803e3d6000fd5b505050506040513d601f19601f8201168201806040525081019061144091906120ef565b1061157f576001600360003373ffffffffffffffffffffffffffffffffffffffff1673ffffffffffffffffffffffffffffffffffffffff16815260200190815260200160002060006101000a81548160ff0219169083151502179055508034146114df576040517f08c379a00000000000000000000000000000000000000000000000000000000081526004016114d69061296a565b60405180910390fd5b60005b8351811015611579578381815181106114fe576114fd6124f6565b5b602002602001015173ffffffffffffffffffffffffffffffffffffffff166108fc848381518110611532576115316124f6565b5b60200260200101519081150290604051600060405180830381858888f19350505050158015611565573d6000803e3d6000fd5b5080806115719061257f565b9150506114e2565b50611781565b600554600460009054906101000a900473ffffffffffffffffffffffffffffffffffffffff1673ffffffffffffffffffffffffffffffffffffffff166370a08231336040518263ffffffff1660e01b81526004016115dd9190611cbd565b602060405180830381865afa1580156115fa573d6000803e3d6000fd5b505050506040513d601f19601f8201168201806040525081019061161e91906120ef565b1015611780576000816001546116349190612810565b9050803414611678576040517f08c379a000000000000000000000000000000000000000000000000000000000815260040161166f90612735565b60405180910390fd5b600260009054906101000a900473ffffffffffffffffffffffffffffffffffffffff1673ffffffffffffffffffffffffffffffffffffffff166108fc6001549081150290604051600060405180830381858888f193505050501580156116e2573d6000803e3d6000fd5b5060005b845181101561177d57848181518110611702576117016124f6565b5b602002602001015173ffffffffffffffffffffffffffffffffffffffff166108fc858381518110611736576117356124f6565b5b60200260200101519081150290604051600060405180830381858888f19350505050158015611769573d6000803e3d6000fd5b5080806117759061257f565b9150506116e6565b50505b5b5b5b505050565b60015481565b6117966118e3565b600073ffffffffffffffffffffffffffffffffffffffff168173ffffffffffffffffffffffffffffffffffffffff1603611805576040517f08c379a00000000000000000000000000000000000000000000000000000000081526004016117fc906129fc565b60405180910390fd5b61180e81611961565b50565b600260009054906101000a900473ffffffffffffffffffffffffffffffffffffffff1681565b61183f6118e3565b803073ffffffffffffffffffffffffffffffffffffffff16311015611899576040517f08c379a000000000000000000000000000000000000000000000000000000000815260040161189090612a68565b60405180910390fd5b3373ffffffffffffffffffffffffffffffffffffffff166108fc829081150290604051600060405180830381858888f193505050501580156118df573d6000803e3d6000fd5b5050565b6118eb611a48565b73ffffffffffffffffffffffffffffffffffffffff16611909610770565b73ffffffffffffffffffffffffffffffffffffffff161461195f576040517f08c379a000000000000000000000000000000000000000000000000000000000815260040161195690612ad4565b60405180910390fd5b565b60008060009054906101000a900473ffffffffffffffffffffffffffffffffffffffff169050816000806101000a81548173ffffffffffffffffffffffffffffffffffffffff021916908373ffffffffffffffffffffffffffffffffffffffff1602179055508173ffffffffffffffffffffffffffffffffffffffff168173ffffffffffffffffffffffffffffffffffffffff167f8be0079c531659141344cd1fd0a4f28419497f9722a3daafe3b4186f6b6457e060405160405180910390a35050565b6000808273ffffffffffffffffffffffffffffffffffffffff163b119050919050565b600033905090565b6000604051905090565b600080fd5b600080fd5b6000819050919050565b611a7781611a64565b8114611a8257600080fd5b50565b600081359050611a9481611a6e565b92915050565b600073ffffffffffffffffffffffffffffffffffffffff82169050919050565b6000611ac582611a9a565b9050919050565b611ad581611aba565b8114611ae057600080fd5b50565b600081359050611af281611acc565b92915050565b60008060408385031215611b0f57611b0e611a5a565b5b6000611b1d85828601611a85565b9250506020611b2e85828601611ae3565b9150509250929050565b611b4181611a64565b82525050565b6000602082019050611b5c6000830184611b38565b92915050565b6000611b6d82611aba565b9050919050565b611b7d81611b62565b8114611b8857600080fd5b50565b600081359050611b9a81611b74565b92915050565b600060208284031215611bb657611bb5611a5a565b5b6000611bc484828501611b8b565b91505092915050565b6000611bd882611aba565b9050919050565b611be881611bcd565b8114611bf357600080fd5b50565b600081359050611c0581611bdf565b92915050565b60008060408385031215611c2257611c21611a5a565b5b6000611c3085828601611bf6565b9250506020611c4185828601611a85565b9150509250929050565b600060208284031215611c6157611c60611a5a565b5b6000611c6f84828501611ae3565b91505092915050565b60008115159050919050565b611c8d81611c78565b82525050565b6000602082019050611ca86000830184611c84565b92915050565b611cb781611aba565b82525050565b6000602082019050611cd26000830184611cae565b92915050565b600080fd5b6000601f19601f8301169050919050565b7f4e487b7100000000000000000000000000000000000000000000000000000000600052604160045260246000fd5b611d2682611cdd565b810181811067ffffffffffffffff82111715611d4557611d44611cee565b5b80604052505050565b6000611d58611a50565b9050611d648282611d1d565b919050565b600067ffffffffffffffff821115611d8457611d83611cee565b5b602082029050602081019050919050565b600080fd5b6000611dad611da884611d69565b611d4e565b90508083825260208201905060208402830185811115611dd057611dcf611d95565b5b835b81811015611df95780611de58882611ae3565b845260208401935050602081019050611dd2565b5050509392505050565b600082601f830112611e1857611e17611cd8565b5b8135611e28848260208601611d9a565b91505092915050565b600067ffffffffffffffff821115611e4c57611e4b611cee565b5b602082029050602081019050919050565b6000611e70611e6b84611e31565b611d4e565b90508083825260208201905060208402830185811115611e9357611e92611d95565b5b835b81811015611ebc5780611ea88882611a85565b845260208401935050602081019050611e95565b5050509392505050565b600082601f830112611edb57611eda611cd8565b5b8135611eeb848260208601611e5d565b91505092915050565b600080600060608486031215611f0d57611f0c611a5a565b5b6000611f1b86828701611b8b565b935050602084013567ffffffffffffffff811115611f3c57611f3b611a5f565b5b611f4886828701611e03565b925050604084013567ffffffffffffffff811115611f6957611f68611a5f565b5b611f7586828701611ec6565b9150509250925092565b6000819050919050565b6000611fa4611f9f611f9a84611a9a565b611f7f565b611a9a565b9050919050565b6000611fb682611f89565b9050919050565b6000611fc882611fab565b9050919050565b611fd881611fbd565b82525050565b6000602082019050611ff36000830184611fcf565b92915050565b600080604083850312156120105761200f611a5a565b5b600083013567ffffffffffffffff81111561202e5761202d611a5f565b5b61203a85828601611e03565b925050602083013567ffffffffffffffff81111561205b5761205a611a5f565b5b61206785828601611ec6565b9150509250929050565b600061207c82611a9a565b9050919050565b61208c81612071565b82525050565b60006020820190506120a76000830184612083565b92915050565b6000602082840312156120c3576120c2611a5a565b5b60006120d184828501611a85565b91505092915050565b6000815190506120e981611a6e565b92915050565b60006020828403121561210557612104611a5a565b5b6000612113848285016120da565b91505092915050565b600082825260208201905092915050565b7f7573657220697320616c726561647920756e617574686f72697a656400000000600082015250565b6000612163601c8361211c565b915061216e8261212d565b602082019050919050565b6000602082019050818103600083015261219281612156565b9050919050565b7f7573657220697320616c726561647920617574686f72697a6564000000000000600082015250565b60006121cf601a8361211c565b91506121da82612199565b602082019050919050565b600060208201905081810360008301526121fe816121c2565b9050919050565b7f73657420746f6b656e20686f6c64696e67206669727374000000000000000000600082015250565b600061223b60178361211c565b915061224682612205565b602082019050919050565b6000602082019050818103600083015261226a8161222e565b9050919050565b7f6e6f74206120636f6e7472616374000000000000000000000000000000000000600082015250565b60006122a7600e8361211c565b91506122b282612271565b602082019050919050565b600060208201905081810360008301526122d68161229a565b9050919050565b7f696e76616c696420696e70757400000000000000000000000000000000000000600082015250565b6000612313600d8361211c565b915061231e826122dd565b602082019050919050565b6000602082019050818103600083015261234281612306565b9050919050565b7f4e487b7100000000000000000000000000000000000000000000000000000000600052601160045260246000fd5b60008160011c9050919050565b6000808291508390505b60018511156123cf578086048111156123ab576123aa612349565b5b60018516156123ba5780820291505b80810290506123c885612378565b945061238f565b94509492505050565b6000826123e857600190506124a4565b816123f657600090506124a4565b816001811461240c576002811461241657612445565b60019150506124a4565b60ff84111561242857612427612349565b5b8360020a91508482111561243f5761243e612349565b5b506124a4565b5060208310610133831016604e8410600b841016171561247a5782820a90508381111561247557612474612349565b5b6124a4565b6124878484846001612385565b9250905081840481111561249e5761249d612349565b5b81810290505b9392505050565b60006124b682611a64565b91506124c183611a64565b92506124ee7fffffffffffffffffffffffffffffffffffffffffffffffffffffffffffffffff84846123d8565b905092915050565b7f4e487b7100000000000000000000000000000000000000000000000000000000600052603260045260246000fd5b600061253082611a64565b915061253b83611a64565b9250817fffffffffffffffffffffffffffffffffffffffffffffffffffffffffffffffff048311821515161561257457612573612349565b5b828202905092915050565b600061258a82611a64565b91507fffffffffffffffffffffffffffffffffffffffffffffffffffffffffffffffff82036125bc576125bb612349565b5b600182019050919050565b60006060820190506125dc6000830186611cae565b6125e96020830185611cae565b6125f66040830184611b38565b949350505050565b61260781611c78565b811461261257600080fd5b50565b600081519050612624816125fe565b92915050565b6000602082840312156126405761263f611a5a565b5b600061264e84828501612615565b91505092915050565b7f6572726f7220696e20646973747269627574696f6e0000000000000000000000600082015250565b600061268d60158361211c565b915061269882612657565b602082019050919050565b600060208201905081810360008301526126bc81612680565b9050919050565b7f686f6c64696e67202620617574686f72697a6174696f6e2066616c736520706160008201527f7920657861637420666565000000000000000000000000000000000000000000602082015250565b600061271f602b8361211c565b915061272a826126c3565b604082019050919050565b6000602082019050818103600083015261274e81612712565b9050919050565b7f636f6e747261637420646f65736e2774206861766520656e6f75676820746f6b60008201527f656e277300000000000000000000000000000000000000000000000000000000602082015250565b60006127b160248361211c565b91506127bc82612755565b604082019050919050565b600060208201905081810360008301526127e0816127a4565b9050919050565b60006040820190506127fc6000830185611cae565b6128096020830184611b38565b9392505050565b600061281b82611a64565b915061282683611a64565b9250827fffffffffffffffffffffffffffffffffffffffffffffffffffffffffffffffff0382111561285b5761285a612349565b5b828201905092915050565b7f7061792074686520657861637420616d6f756e7420746f20636f76657220646960008201527f73747269627574696f6e00000000000000000000000000000000000000000000602082015250565b60006128c2602a8361211c565b91506128cd82612866565b604082019050919050565b600060208201905081810360008301526128f1816128b5565b9050919050565b7f686f6c64696e67207175616e74697479207472756520627574206d73672e766160008201527f6c756520756e6365727461696e20706179206578616374000000000000000000602082015250565b600061295460378361211c565b915061295f826128f8565b604082019050919050565b6000602082019050818103600083015261298381612947565b9050919050565b7f4f776e61626c653a206e6577206f776e657220697320746865207a65726f206160008201527f6464726573730000000000000000000000000000000000000000000000000000602082015250565b60006129e660268361211c565b91506129f18261298a565b604082019050919050565b60006020820190508181036000830152612a15816129d9565b9050919050565b7f696e76616c69642062616c616e636520746f2077697468647261770000000000600082015250565b6000612a52601b8361211c565b9150612a5d82612a1c565b602082019050919050565b60006020820190508181036000830152612a8181612a45565b9050919050565b7f4f776e61626c653a2063616c6c6572206973206e6f7420746865206f776e6572600082015250565b6000612abe60208361211c565b9150612ac982612a88565b602082019050919050565b60006020820190508181036000830152612aed81612ab1565b905091905056fea2646970667358221220eb45a1b435742d6a4526589ae5344ccc3b1d6622e150eb1e036c30c47d1f95cf64736f6c634300080d0033",
					"opcodes": "PUSH1 0x80 PUSH1 0x40 MSTORE CALLVALUE DUP1 ISZERO PUSH3 0x11 JUMPI PUSH1 0x0 DUP1 REVERT JUMPDEST POP PUSH3 0x32 PUSH3 0x26 PUSH3 0x95 PUSH1 0x20 SHL PUSH1 0x20 SHR JUMP JUMPDEST PUSH3 0x9D PUSH1 0x20 SHL PUSH1 0x20 SHR JUMP JUMPDEST PUSH3 0x42 PUSH3 0x161 PUSH1 0x20 SHL PUSH1 0x20 SHR JUMP JUMPDEST PUSH1 0x2 PUSH1 0x0 PUSH2 0x100 EXP DUP2 SLOAD DUP2 PUSH20 0xFFFFFFFFFFFFFFFFFFFFFFFFFFFFFFFFFFFFFFFF MUL NOT AND SWAP1 DUP4 PUSH20 0xFFFFFFFFFFFFFFFFFFFFFFFFFFFFFFFFFFFFFFFF AND MUL OR SWAP1 SSTORE POP PUSH6 0x5AF3107A4000 PUSH1 0x1 DUP2 SWAP1 SSTORE POP PUSH3 0x18A JUMP JUMPDEST PUSH1 0x0 CALLER SWAP1 POP SWAP1 JUMP JUMPDEST PUSH1 0x0 DUP1 PUSH1 0x0 SWAP1 SLOAD SWAP1 PUSH2 0x100 EXP SWAP1 DIV PUSH20 0xFFFFFFFFFFFFFFFFFFFFFFFFFFFFFFFFFFFFFFFF AND SWAP1 POP DUP2 PUSH1 0x0 DUP1 PUSH2 0x100 EXP DUP2 SLOAD DUP2 PUSH20 0xFFFFFFFFFFFFFFFFFFFFFFFFFFFFFFFFFFFFFFFF MUL NOT AND SWAP1 DUP4 PUSH20 0xFFFFFFFFFFFFFFFFFFFFFFFFFFFFFFFFFFFFFFFF AND MUL OR SWAP1 SSTORE POP DUP2 PUSH20 0xFFFFFFFFFFFFFFFFFFFFFFFFFFFFFFFFFFFFFFFF AND DUP2 PUSH20 0xFFFFFFFFFFFFFFFFFFFFFFFFFFFFFFFFFFFFFFFF AND PUSH32 0x8BE0079C531659141344CD1FD0A4F28419497F9722A3DAAFE3B4186F6B6457E0 PUSH1 0x40 MLOAD PUSH1 0x40 MLOAD DUP1 SWAP2 SUB SWAP1 LOG3 POP POP JUMP JUMPDEST PUSH1 0x0 DUP1 PUSH1 0x0 SWAP1 SLOAD SWAP1 PUSH2 0x100 EXP SWAP1 DIV PUSH20 0xFFFFFFFFFFFFFFFFFFFFFFFFFFFFFFFFFFFFFFFF AND SWAP1 POP SWAP1 JUMP JUMPDEST PUSH2 0x2B2A DUP1 PUSH3 0x19A PUSH1 0x0 CODECOPY PUSH1 0x0 RETURN INVALID PUSH1 0x80 PUSH1 0x40 MSTORE PUSH1 0x4 CALLDATASIZE LT PUSH2 0x10D JUMPI PUSH1 0x0 CALLDATALOAD PUSH1 0xE0 SHR DUP1 PUSH4 0x8DA5CB5B GT PUSH2 0x95 JUMPI DUP1 PUSH4 0xD908E6CE GT PUSH2 0x64 JUMPI DUP1 PUSH4 0xD908E6CE EQ PUSH2 0x33F JUMPI DUP1 PUSH4 0xDDCA3F43 EQ PUSH2 0x35B JUMPI DUP1 PUSH4 0xF2FDE38B EQ PUSH2 0x386 JUMPI DUP1 PUSH4 0xF7260D3E EQ PUSH2 0x3AF JUMPI DUP1 PUSH4 0xF9F95A0F EQ PUSH2 0x3DA JUMPI PUSH2 0x114 JUMP JUMPDEST DUP1 PUSH4 0x8DA5CB5B EQ PUSH2 0x2A4 JUMPI DUP1 PUSH4 0x9CBD3433 EQ PUSH2 0x2CF JUMPI DUP1 PUSH4 0x9D76EA58 EQ PUSH2 0x2EB JUMPI DUP1 PUSH4 0x9E281A98 EQ PUSH2 0x316 JUMPI PUSH2 0x114 JUMP JUMPDEST DUP1 PUSH4 0x44B6209D GT PUSH2 0xDC JUMPI DUP1 PUSH4 0x44B6209D EQ PUSH2 0x1D3 JUMPI DUP1 PUSH4 0x478AA69E EQ PUSH2 0x210 JUMPI DUP1 PUSH4 0x67C2A360 EQ PUSH2 0x239 JUMPI DUP1 PUSH4 0x715018A6 EQ PUSH2 0x262 JUMPI DUP1 PUSH4 0x8B7AFE2E EQ PUSH2 0x279 JUMPI PUSH2 0x114 JUMP JUMPDEST DUP1 PUSH4 0x126CCD94 EQ PUSH2 0x119 JUMPI DUP1 PUSH4 0x17FC45E2 EQ PUSH2 0x142 JUMPI DUP1 PUSH4 0x20AC1E29 EQ PUSH2 0x16D JUMPI DUP1 PUSH4 0x2FC75EB0 EQ PUSH2 0x1AA JUMPI PUSH2 0x114 JUMP JUMPDEST CALLDATASIZE PUSH2 0x114 JUMPI STOP JUMPDEST PUSH1 0x0 DUP1 REVERT JUMPDEST CALLVALUE DUP1 ISZERO PUSH2 0x125 JUMPI PUSH1 0x0 DUP1 REVERT JUMPDEST POP PUSH2 0x140 PUSH1 0x4 DUP1 CALLDATASIZE SUB DUP2 ADD SWAP1 PUSH2 0x13B SWAP2 SWAP1 PUSH2 0x1AF8 JUMP JUMPDEST PUSH2 0x403 JUMP JUMPDEST STOP JUMPDEST CALLVALUE DUP1 ISZERO PUSH2 0x14E JUMPI PUSH1 0x0 DUP1 REVERT JUMPDEST POP PUSH2 0x157 PUSH2 0x457 JUMP JUMPDEST PUSH1 0x40 MLOAD PUSH2 0x164 SWAP2 SWAP1 PUSH2 0x1B47 JUMP JUMPDEST PUSH1 0x40 MLOAD DUP1 SWAP2 SUB SWAP1 RETURN JUMPDEST CALLVALUE DUP1 ISZERO PUSH2 0x179 JUMPI PUSH1 0x0 DUP1 REVERT JUMPDEST POP PUSH2 0x194 PUSH1 0x4 DUP1 CALLDATASIZE SUB DUP2 ADD SWAP1 PUSH2 0x18F SWAP2 SWAP1 PUSH2 0x1BA0 JUMP JUMPDEST PUSH2 0x45D JUMP JUMPDEST PUSH1 0x40 MLOAD PUSH2 0x1A1 SWAP2 SWAP1 PUSH2 0x1B47 JUMP JUMPDEST PUSH1 0x40 MLOAD DUP1 SWAP2 SUB SWAP1 RETURN JUMPDEST CALLVALUE DUP1 ISZERO PUSH2 0x1B6 JUMPI PUSH1 0x0 DUP1 REVERT JUMPDEST POP PUSH2 0x1D1 PUSH1 0x4 DUP1 CALLDATASIZE SUB DUP2 ADD SWAP1 PUSH2 0x1CC SWAP2 SWAP1 PUSH2 0x1C0B JUMP JUMPDEST PUSH2 0x4D5 JUMP JUMPDEST STOP JUMPDEST CALLVALUE DUP1 ISZERO PUSH2 0x1DF JUMPI PUSH1 0x0 DUP1 REVERT JUMPDEST POP PUSH2 0x1FA PUSH1 0x4 DUP1 CALLDATASIZE SUB DUP2 ADD SWAP1 PUSH2 0x1F5 SWAP2 SWAP1 PUSH2 0x1C4B JUMP JUMPDEST PUSH2 0x529 JUMP JUMPDEST PUSH1 0x40 MLOAD PUSH2 0x207 SWAP2 SWAP1 PUSH2 0x1C93 JUMP JUMPDEST PUSH1 0x40 MLOAD DUP1 SWAP2 SUB SWAP1 RETURN JUMPDEST CALLVALUE DUP1 ISZERO PUSH2 0x21C JUMPI PUSH1 0x0 DUP1 REVERT JUMPDEST POP PUSH2 0x237 PUSH1 0x4 DUP1 CALLDATASIZE SUB DUP2 ADD SWAP1 PUSH2 0x232 SWAP2 SWAP1 PUSH2 0x1C4B JUMP JUMPDEST PUSH2 0x549 JUMP JUMPDEST STOP JUMPDEST CALLVALUE DUP1 ISZERO PUSH2 0x245 JUMPI PUSH1 0x0 DUP1 REVERT JUMPDEST POP PUSH2 0x260 PUSH1 0x4 DUP1 CALLDATASIZE SUB DUP2 ADD SWAP1 PUSH2 0x25B SWAP2 SWAP1 PUSH2 0x1C4B JUMP JUMPDEST PUSH2 0x63F JUMP JUMPDEST STOP JUMPDEST CALLVALUE DUP1 ISZERO PUSH2 0x26E JUMPI PUSH1 0x0 DUP1 REVERT JUMPDEST POP PUSH2 0x277 PUSH2 0x735 JUMP JUMPDEST STOP JUMPDEST CALLVALUE DUP1 ISZERO PUSH2 0x285 JUMPI PUSH1 0x0 DUP1 REVERT JUMPDEST POP PUSH2 0x28E PUSH2 0x749 JUMP JUMPDEST PUSH1 0x40 MLOAD PUSH2 0x29B SWAP2 SWAP1 PUSH2 0x1B47 JUMP JUMPDEST PUSH1 0x40 MLOAD DUP1 SWAP2 SUB SWAP1 RETURN JUMPDEST CALLVALUE DUP1 ISZERO PUSH2 0x2B0 JUMPI PUSH1 0x0 DUP1 REVERT JUMPDEST POP PUSH2 0x2B9 PUSH2 0x770 JUMP JUMPDEST PUSH1 0x40 MLOAD PUSH2 0x2C6 SWAP2 SWAP1 PUSH2 0x1CBD JUMP JUMPDEST PUSH1 0x40 MLOAD DUP1 SWAP2 SUB SWAP1 RETURN JUMPDEST PUSH2 0x2E9 PUSH1 0x4 DUP1 CALLDATASIZE SUB DUP2 ADD SWAP1 PUSH2 0x2E4 SWAP2 SWAP1 PUSH2 0x1EF4 JUMP JUMPDEST PUSH2 0x799 JUMP JUMPDEST STOP JUMPDEST CALLVALUE DUP1 ISZERO PUSH2 0x2F7 JUMPI PUSH1 0x0 DUP1 REVERT JUMPDEST POP PUSH2 0x300 PUSH2 0xF91 JUMP JUMPDEST PUSH1 0x40 MLOAD PUSH2 0x30D SWAP2 SWAP1 PUSH2 0x1FDE JUMP JUMPDEST PUSH1 0x40 MLOAD DUP1 SWAP2 SUB SWAP1 RETURN JUMPDEST CALLVALUE DUP1 ISZERO PUSH2 0x322 JUMPI PUSH1 0x0 DUP1 REVERT JUMPDEST POP PUSH2 0x33D PUSH1 0x4 DUP1 CALLDATASIZE SUB DUP2 ADD SWAP1 PUSH2 0x338 SWAP2 SWAP1 PUSH2 0x1C0B JUMP JUMPDEST PUSH2 0xFB7 JUMP JUMPDEST STOP JUMPDEST PUSH2 0x359 PUSH1 0x4 DUP1 CALLDATASIZE SUB DUP2 ADD SWAP1 PUSH2 0x354 SWAP2 SWAP1 PUSH2 0x1FF9 JUMP JUMPDEST PUSH2 0x10FE JUMP JUMPDEST STOP JUMPDEST CALLVALUE DUP1 ISZERO PUSH2 0x367 JUMPI PUSH1 0x0 DUP1 REVERT JUMPDEST POP PUSH2 0x370 PUSH2 0x1788 JUMP JUMPDEST PUSH1 0x40 MLOAD PUSH2 0x37D SWAP2 SWAP1 PUSH2 0x1B47 JUMP JUMPDEST PUSH1 0x40 MLOAD DUP1 SWAP2 SUB SWAP1 RETURN JUMPDEST CALLVALUE DUP1 ISZERO PUSH2 0x392 JUMPI PUSH1 0x0 DUP1 REVERT JUMPDEST POP PUSH2 0x3AD PUSH1 0x4 DUP1 CALLDATASIZE SUB DUP2 ADD SWAP1 PUSH2 0x3A8 SWAP2 SWAP1 PUSH2 0x1C4B JUMP JUMPDEST PUSH2 0x178E JUMP JUMPDEST STOP JUMPDEST CALLVALUE DUP1 ISZERO PUSH2 0x3BB JUMPI PUSH1 0x0 DUP1 REVERT JUMPDEST POP PUSH2 0x3C4 PUSH2 0x1811 JUMP JUMPDEST PUSH1 0x40 MLOAD PUSH2 0x3D1 SWAP2 SWAP1 PUSH2 0x2092 JUMP JUMPDEST PUSH1 0x40 MLOAD DUP1 SWAP2 SUB SWAP1 RETURN JUMPDEST CALLVALUE DUP1 ISZERO PUSH2 0x3E6 JUMPI PUSH1 0x0 DUP1 REVERT JUMPDEST POP PUSH2 0x401 PUSH1 0x4 DUP1 CALLDATASIZE SUB DUP2 ADD SWAP1 PUSH2 0x3FC SWAP2 SWAP1 PUSH2 0x20AD JUMP JUMPDEST PUSH2 0x1837 JUMP JUMPDEST STOP JUMPDEST PUSH2 0x40B PUSH2 0x18E3 JUMP JUMPDEST DUP2 PUSH1 0x1 DUP2 SWAP1 SSTORE POP DUP1 PUSH1 0x2 PUSH1 0x0 PUSH2 0x100 EXP DUP2 SLOAD DUP2 PUSH20 0xFFFFFFFFFFFFFFFFFFFFFFFFFFFFFFFFFFFFFFFF MUL NOT AND SWAP1 DUP4 PUSH20 0xFFFFFFFFFFFFFFFFFFFFFFFFFFFFFFFFFFFFFFFF AND MUL OR SWAP1 SSTORE POP POP POP JUMP JUMPDEST PUSH1 0x5 SLOAD DUP2 JUMP JUMPDEST PUSH1 0x0 DUP2 PUSH20 0xFFFFFFFFFFFFFFFFFFFFFFFFFFFFFFFFFFFFFFFF AND PUSH4 0x313CE567 PUSH1 0x40 MLOAD DUP2 PUSH4 0xFFFFFFFF AND PUSH1 0xE0 SHL DUP2 MSTORE PUSH1 0x4 ADD PUSH1 0x20 PUSH1 0x40 MLOAD DUP1 DUP4 SUB DUP2 DUP7 GAS STATICCALL ISZERO DUP1 ISZERO PUSH2 0x4AA JUMPI RETURNDATASIZE PUSH1 0x0 DUP1 RETURNDATACOPY RETURNDATASIZE PUSH1 0x0 REVERT JUMPDEST POP POP POP POP PUSH1 0x40 MLOAD RETURNDATASIZE PUSH1 0x1F NOT PUSH1 0x1F DUP3 ADD AND DUP3 ADD DUP1 PUSH1 0x40 MSTORE POP DUP2 ADD SWAP1 PUSH2 0x4CE SWAP2 SWAP1 PUSH2 0x20EF JUMP JUMPDEST SWAP1 POP SWAP2 SWAP1 POP JUMP JUMPDEST PUSH2 0x4DD PUSH2 0x18E3 JUMP JUMPDEST DUP2 PUSH1 0x4 PUSH1 0x0 PUSH2 0x100 EXP DUP2 SLOAD DUP2 PUSH20 0xFFFFFFFFFFFFFFFFFFFFFFFFFFFFFFFFFFFFFFFF MUL NOT AND SWAP1 DUP4 PUSH20 0xFFFFFFFFFFFFFFFFFFFFFFFFFFFFFFFFFFFFFFFF AND MUL OR SWAP1 SSTORE POP DUP1 PUSH1 0x5 DUP2 SWAP1 SSTORE POP POP POP JUMP JUMPDEST PUSH1 0x3 PUSH1 0x20 MSTORE DUP1 PUSH1 0x0 MSTORE PUSH1 0x40 PUSH1 0x0 KECCAK256 PUSH1 0x0 SWAP2 POP SLOAD SWAP1 PUSH2 0x100 EXP SWAP1 DIV PUSH1 0xFF AND DUP2 JUMP JUMPDEST PUSH2 0x551 PUSH2 0x18E3 JUMP JUMPDEST PUSH1 0x1 ISZERO ISZERO PUSH1 0x3 PUSH1 0x0 DUP4 PUSH20 0xFFFFFFFFFFFFFFFFFFFFFFFFFFFFFFFFFFFFFFFF AND PUSH20 0xFFFFFFFFFFFFFFFFFFFFFFFFFFFFFFFFFFFFFFFF AND DUP2 MSTORE PUSH1 0x20 ADD SWAP1 DUP2 MSTORE PUSH1 0x20 ADD PUSH1 0x0 KECCAK256 PUSH1 0x0 SWAP1 SLOAD SWAP1 PUSH2 0x100 EXP SWAP1 DIV PUSH1 0xFF AND ISZERO ISZERO EQ PUSH2 0x5E4 JUMPI PUSH1 0x40 MLOAD PUSH32 0x8C379A000000000000000000000000000000000000000000000000000000000 DUP2 MSTORE PUSH1 0x4 ADD PUSH2 0x5DB SWAP1 PUSH2 0x2179 JUMP JUMPDEST PUSH1 0x40 MLOAD DUP1 SWAP2 SUB SWAP1 REVERT JUMPDEST PUSH1 0x0 PUSH1 0x3 PUSH1 0x0 DUP4 PUSH20 0xFFFFFFFFFFFFFFFFFFFFFFFFFFFFFFFFFFFFFFFF AND PUSH20 0xFFFFFFFFFFFFFFFFFFFFFFFFFFFFFFFFFFFFFFFF AND DUP2 MSTORE PUSH1 0x20 ADD SWAP1 DUP2 MSTORE PUSH1 0x20 ADD PUSH1 0x0 KECCAK256 PUSH1 0x0 PUSH2 0x100 EXP DUP2 SLOAD DUP2 PUSH1 0xFF MUL NOT AND SWAP1 DUP4 ISZERO ISZERO MUL OR SWAP1 SSTORE POP POP JUMP JUMPDEST PUSH2 0x647 PUSH2 0x18E3 JUMP JUMPDEST PUSH1 0x0 ISZERO ISZERO PUSH1 0x3 PUSH1 0x0 DUP4 PUSH20 0xFFFFFFFFFFFFFFFFFFFFFFFFFFFFFFFFFFFFFFFF AND PUSH20 0xFFFFFFFFFFFFFFFFFFFFFFFFFFFFFFFFFFFFFFFF AND DUP2 MSTORE PUSH1 0x20 ADD SWAP1 DUP2 MSTORE PUSH1 0x20 ADD PUSH1 0x0 KECCAK256 PUSH1 0x0 SWAP1 SLOAD SWAP1 PUSH2 0x100 EXP SWAP1 DIV PUSH1 0xFF AND ISZERO ISZERO EQ PUSH2 0x6DA JUMPI PUSH1 0x40 MLOAD PUSH32 0x8C379A000000000000000000000000000000000000000000000000000000000 DUP2 MSTORE PUSH1 0x4 ADD PUSH2 0x6D1 SWAP1 PUSH2 0x21E5 JUMP JUMPDEST PUSH1 0x40 MLOAD DUP1 SWAP2 SUB SWAP1 REVERT JUMPDEST PUSH1 0x1 PUSH1 0x3 PUSH1 0x0 DUP4 PUSH20 0xFFFFFFFFFFFFFFFFFFFFFFFFFFFFFFFFFFFFFFFF AND PUSH20 0xFFFFFFFFFFFFFFFFFFFFFFFFFFFFFFFFFFFFFFFF AND DUP2 MSTORE PUSH1 0x20 ADD SWAP1 DUP2 MSTORE PUSH1 0x20 ADD PUSH1 0x0 KECCAK256 PUSH1 0x0 PUSH2 0x100 EXP DUP2 SLOAD DUP2 PUSH1 0xFF MUL NOT AND SWAP1 DUP4 ISZERO ISZERO MUL OR SWAP1 SSTORE POP POP JUMP JUMPDEST PUSH2 0x73D PUSH2 0x18E3 JUMP JUMPDEST PUSH2 0x747 PUSH1 0x0 PUSH2 0x1961 JUMP JUMPDEST JUMP JUMPDEST PUSH1 0x0 PUSH2 0x753 PUSH2 0x18E3 JUMP JUMPDEST ADDRESS PUSH20 0xFFFFFFFFFFFFFFFFFFFFFFFFFFFFFFFFFFFFFFFF AND BALANCE SWAP1 POP SWAP1 JUMP JUMPDEST PUSH1 0x0 DUP1 PUSH1 0x0 SWAP1 SLOAD SWAP1 PUSH2 0x100 EXP SWAP1 DIV PUSH20 0xFFFFFFFFFFFFFFFFFFFFFFFFFFFFFFFFFFFFFFFF AND SWAP1 POP SWAP1 JUMP JUMPDEST PUSH1 0x0 PUSH20 0xFFFFFFFFFFFFFFFFFFFFFFFFFFFFFFFFFFFFFFFF AND PUSH1 0x4 PUSH1 0x0 SWAP1 SLOAD SWAP1 PUSH2 0x100 EXP SWAP1 DIV PUSH20 0xFFFFFFFFFFFFFFFFFFFFFFFFFFFFFFFFFFFFFFFF AND PUSH20 0xFFFFFFFFFFFFFFFFFFFFFFFFFFFFFFFFFFFFFFFF AND SUB PUSH2 0x82A JUMPI PUSH1 0x40 MLOAD PUSH32 0x8C379A000000000000000000000000000000000000000000000000000000000 DUP2 MSTORE PUSH1 0x4 ADD PUSH2 0x821 SWAP1 PUSH2 0x2251 JUMP JUMPDEST PUSH1 0x40 MLOAD DUP1 SWAP2 SUB SWAP1 REVERT JUMPDEST PUSH1 0x1 ISZERO ISZERO PUSH2 0x84D DUP5 PUSH20 0xFFFFFFFFFFFFFFFFFFFFFFFFFFFFFFFFFFFFFFFF AND PUSH2 0x1A25 JUMP JUMPDEST ISZERO ISZERO EQ PUSH2 0x88F JUMPI PUSH1 0x40 MLOAD PUSH32 0x8C379A000000000000000000000000000000000000000000000000000000000 DUP2 MSTORE PUSH1 0x4 ADD PUSH2 0x886 SWAP1 PUSH2 0x22BD JUMP JUMPDEST PUSH1 0x40 MLOAD DUP1 SWAP2 SUB SWAP1 REVERT JUMPDEST DUP1 MLOAD DUP3 MLOAD EQ PUSH2 0x8D3 JUMPI PUSH1 0x40 MLOAD PUSH32 0x8C379A000000000000000000000000000000000000000000000000000000000 DUP2 MSTORE PUSH1 0x4 ADD PUSH2 0x8CA SWAP1 PUSH2 0x2329 JUMP JUMPDEST PUSH1 0x40 MLOAD DUP1 SWAP2 SUB SWAP1 REVERT JUMPDEST PUSH1 0x0 PUSH2 0x8DE DUP5 PUSH2 0x45D JUMP JUMPDEST SWAP1 POP PUSH1 0x0 JUMPDEST DUP3 MLOAD DUP2 LT ISZERO PUSH2 0x950 JUMPI DUP2 PUSH1 0xA PUSH2 0x8F9 SWAP2 SWAP1 PUSH2 0x24AB JUMP JUMPDEST DUP4 DUP3 DUP2 MLOAD DUP2 LT PUSH2 0x90C JUMPI PUSH2 0x90B PUSH2 0x24F6 JUMP JUMPDEST JUMPDEST PUSH1 0x20 MUL PUSH1 0x20 ADD ADD MLOAD PUSH2 0x91E SWAP2 SWAP1 PUSH2 0x2525 JUMP JUMPDEST DUP4 DUP3 DUP2 MLOAD DUP2 LT PUSH2 0x931 JUMPI PUSH2 0x930 PUSH2 0x24F6 JUMP JUMPDEST JUMPDEST PUSH1 0x20 MUL PUSH1 0x20 ADD ADD DUP2 DUP2 MSTORE POP POP DUP1 DUP1 PUSH2 0x948 SWAP1 PUSH2 0x257F JUMP JUMPDEST SWAP2 POP POP PUSH2 0x8E3 JUMP JUMPDEST POP PUSH1 0x3 PUSH1 0x0 CALLER PUSH20 0xFFFFFFFFFFFFFFFFFFFFFFFFFFFFFFFFFFFFFFFF AND PUSH20 0xFFFFFFFFFFFFFFFFFFFFFFFFFFFFFFFFFFFFFFFF AND DUP2 MSTORE PUSH1 0x20 ADD SWAP1 DUP2 MSTORE PUSH1 0x20 ADD PUSH1 0x0 KECCAK256 PUSH1 0x0 SWAP1 SLOAD SWAP1 PUSH2 0x100 EXP SWAP1 DIV PUSH1 0xFF AND ISZERO PUSH2 0xABB JUMPI PUSH1 0x0 JUMPDEST DUP3 MLOAD DUP2 LT ISZERO PUSH2 0xAB5 JUMPI DUP5 PUSH20 0xFFFFFFFFFFFFFFFFFFFFFFFFFFFFFFFFFFFFFFFF AND PUSH4 0x23B872DD CALLER DUP7 DUP5 DUP2 MLOAD DUP2 LT PUSH2 0x9DF JUMPI PUSH2 0x9DE PUSH2 0x24F6 JUMP JUMPDEST JUMPDEST PUSH1 0x20 MUL PUSH1 0x20 ADD ADD MLOAD DUP7 DUP6 DUP2 MLOAD DUP2 LT PUSH2 0x9FA JUMPI PUSH2 0x9F9 PUSH2 0x24F6 JUMP JUMPDEST JUMPDEST PUSH1 0x20 MUL PUSH1 0x20 ADD ADD MLOAD PUSH1 0x40 MLOAD DUP5 PUSH4 0xFFFFFFFF AND PUSH1 0xE0 SHL DUP2 MSTORE PUSH1 0x4 ADD PUSH2 0xA20 SWAP4 SWAP3 SWAP2 SWAP1 PUSH2 0x25C7 JUMP JUMPDEST PUSH1 0x20 PUSH1 0x40 MLOAD DUP1 DUP4 SUB DUP2 PUSH1 0x0 DUP8 GAS CALL ISZERO DUP1 ISZERO PUSH2 0xA3F JUMPI RETURNDATASIZE PUSH1 0x0 DUP1 RETURNDATACOPY RETURNDATASIZE PUSH1 0x0 REVERT JUMPDEST POP POP POP POP PUSH1 0x40 MLOAD RETURNDATASIZE PUSH1 0x1F NOT PUSH1 0x1F DUP3 ADD AND DUP3 ADD DUP1 PUSH1 0x40 MSTORE POP DUP2 ADD SWAP1 PUSH2 0xA63 SWAP2 SWAP1 PUSH2 0x262A JUMP JUMPDEST PUSH2 0xAA2 JUMPI PUSH1 0x40 MLOAD PUSH32 0x8C379A000000000000000000000000000000000000000000000000000000000 DUP2 MSTORE PUSH1 0x4 ADD PUSH2 0xA99 SWAP1 PUSH2 0x26A3 JUMP JUMPDEST PUSH1 0x40 MLOAD DUP1 SWAP2 SUB SWAP1 REVERT JUMPDEST DUP1 DUP1 PUSH2 0xAAD SWAP1 PUSH2 0x257F JUMP JUMPDEST SWAP2 POP POP PUSH2 0x9A6 JUMP JUMPDEST POP PUSH2 0xF8B JUMP JUMPDEST PUSH1 0x3 PUSH1 0x0 CALLER PUSH20 0xFFFFFFFFFFFFFFFFFFFFFFFFFFFFFFFFFFFFFFFF AND PUSH20 0xFFFFFFFFFFFFFFFFFFFFFFFFFFFFFFFFFFFFFFFF AND DUP2 MSTORE PUSH1 0x20 ADD SWAP1 DUP2 MSTORE PUSH1 0x20 ADD PUSH1 0x0 KECCAK256 PUSH1 0x0 SWAP1 SLOAD SWAP1 PUSH2 0x100 EXP SWAP1 DIV PUSH1 0xFF AND PUSH2 0xF8A JUMPI PUSH1 0x5 SLOAD PUSH1 0x4 PUSH1 0x0 SWAP1 SLOAD SWAP1 PUSH2 0x100 EXP SWAP1 DIV PUSH20 0xFFFFFFFFFFFFFFFFFFFFFFFFFFFFFFFFFFFFFFFF AND PUSH20 0xFFFFFFFFFFFFFFFFFFFFFFFFFFFFFFFFFFFFFFFF AND PUSH4 0x70A08231 CALLER PUSH1 0x40 MLOAD DUP3 PUSH4 0xFFFFFFFF AND PUSH1 0xE0 SHL DUP2 MSTORE PUSH1 0x4 ADD PUSH2 0xB6A SWAP2 SWAP1 PUSH2 0x1CBD JUMP JUMPDEST PUSH1 0x20 PUSH1 0x40 MLOAD DUP1 DUP4 SUB DUP2 DUP7 GAS STATICCALL ISZERO DUP1 ISZERO PUSH2 0xB87 JUMPI RETURNDATASIZE PUSH1 0x0 DUP1 RETURNDATACOPY RETURNDATASIZE PUSH1 0x0 REVERT JUMPDEST POP POP POP POP PUSH1 0x40 MLOAD RETURNDATASIZE PUSH1 0x1F NOT PUSH1 0x1F DUP3 ADD AND DUP3 ADD DUP1 PUSH1 0x40 MSTORE POP DUP2 ADD SWAP1 PUSH2 0xBAB SWAP2 SWAP1 PUSH2 0x20EF JUMP JUMPDEST LT PUSH2 0xD20 JUMPI PUSH1 0x1 PUSH1 0x3 PUSH1 0x0 CALLER PUSH20 0xFFFFFFFFFFFFFFFFFFFFFFFFFFFFFFFFFFFFFFFF AND PUSH20 0xFFFFFFFFFFFFFFFFFFFFFFFFFFFFFFFFFFFFFFFF AND DUP2 MSTORE PUSH1 0x20 ADD SWAP1 DUP2 MSTORE PUSH1 0x20 ADD PUSH1 0x0 KECCAK256 PUSH1 0x0 PUSH2 0x100 EXP DUP2 SLOAD DUP2 PUSH1 0xFF MUL NOT AND SWAP1 DUP4 ISZERO ISZERO MUL OR SWAP1 SSTORE POP PUSH1 0x0 JUMPDEST DUP3 MLOAD DUP2 LT ISZERO PUSH2 0xD1A JUMPI DUP5 PUSH20 0xFFFFFFFFFFFFFFFFFFFFFFFFFFFFFFFFFFFFFFFF AND PUSH4 0x23B872DD CALLER DUP7 DUP5 DUP2 MLOAD DUP2 LT PUSH2 0xC44 JUMPI PUSH2 0xC43 PUSH2 0x24F6 JUMP JUMPDEST JUMPDEST PUSH1 0x20 MUL PUSH1 0x20 ADD ADD MLOAD DUP7 DUP6 DUP2 MLOAD DUP2 LT PUSH2 0xC5F JUMPI PUSH2 0xC5E PUSH2 0x24F6 JUMP JUMPDEST JUMPDEST PUSH1 0x20 MUL PUSH1 0x20 ADD ADD MLOAD PUSH1 0x40 MLOAD DUP5 PUSH4 0xFFFFFFFF AND PUSH1 0xE0 SHL DUP2 MSTORE PUSH1 0x4 ADD PUSH2 0xC85 SWAP4 SWAP3 SWAP2 SWAP1 PUSH2 0x25C7 JUMP JUMPDEST PUSH1 0x20 PUSH1 0x40 MLOAD DUP1 DUP4 SUB DUP2 PUSH1 0x0 DUP8 GAS CALL ISZERO DUP1 ISZERO PUSH2 0xCA4 JUMPI RETURNDATASIZE PUSH1 0x0 DUP1 RETURNDATACOPY RETURNDATASIZE PUSH1 0x0 REVERT JUMPDEST POP POP POP POP PUSH1 0x40 MLOAD RETURNDATASIZE PUSH1 0x1F NOT PUSH1 0x1F DUP3 ADD AND DUP3 ADD DUP1 PUSH1 0x40 MSTORE POP DUP2 ADD SWAP1 PUSH2 0xCC8 SWAP2 SWAP1 PUSH2 0x262A JUMP JUMPDEST PUSH2 0xD07 JUMPI PUSH1 0x40 MLOAD PUSH32 0x8C379A000000000000000000000000000000000000000000000000000000000 DUP2 MSTORE PUSH1 0x4 ADD PUSH2 0xCFE SWAP1 PUSH2 0x26A3 JUMP JUMPDEST PUSH1 0x40 MLOAD DUP1 SWAP2 SUB SWAP1 REVERT JUMPDEST DUP1 DUP1 PUSH2 0xD12 SWAP1 PUSH2 0x257F JUMP JUMPDEST SWAP2 POP POP PUSH2 0xC0B JUMP JUMPDEST POP PUSH2 0xF89 JUMP JUMPDEST PUSH1 0x5 SLOAD PUSH1 0x4 PUSH1 0x0 SWAP1 SLOAD SWAP1 PUSH2 0x100 EXP SWAP1 DIV PUSH20 0xFFFFFFFFFFFFFFFFFFFFFFFFFFFFFFFFFFFFFFFF AND PUSH20 0xFFFFFFFFFFFFFFFFFFFFFFFFFFFFFFFFFFFFFFFF AND PUSH4 0x70A08231 CALLER PUSH1 0x40 MLOAD DUP3 PUSH4 0xFFFFFFFF AND PUSH1 0xE0 SHL DUP2 MSTORE PUSH1 0x4 ADD PUSH2 0xD7E SWAP2 SWAP1 PUSH2 0x1CBD JUMP JUMPDEST PUSH1 0x20 PUSH1 0x40 MLOAD DUP1 DUP4 SUB DUP2 DUP7 GAS STATICCALL ISZERO DUP1 ISZERO PUSH2 0xD9B JUMPI RETURNDATASIZE PUSH1 0x0 DUP1 RETURNDATACOPY RETURNDATASIZE PUSH1 0x0 REVERT JUMPDEST POP POP POP POP PUSH1 0x40 MLOAD RETURNDATASIZE PUSH1 0x1F NOT PUSH1 0x1F DUP3 ADD AND DUP3 ADD DUP1 PUSH1 0x40 MSTORE POP DUP2 ADD SWAP1 PUSH2 0xDBF SWAP2 SWAP1 PUSH2 0x20EF JUMP JUMPDEST LT ISZERO PUSH2 0xF88 JUMPI PUSH1 0x1 SLOAD CALLVALUE EQ PUSH2 0xE09 JUMPI PUSH1 0x40 MLOAD PUSH32 0x8C379A000000000000000000000000000000000000000000000000000000000 DUP2 MSTORE PUSH1 0x4 ADD PUSH2 0xE00 SWAP1 PUSH2 0x2735 JUMP JUMPDEST PUSH1 0x40 MLOAD DUP1 SWAP2 SUB SWAP1 REVERT JUMPDEST PUSH1 0x2 PUSH1 0x0 SWAP1 SLOAD SWAP1 PUSH2 0x100 EXP SWAP1 DIV PUSH20 0xFFFFFFFFFFFFFFFFFFFFFFFFFFFFFFFFFFFFFFFF AND PUSH20 0xFFFFFFFFFFFFFFFFFFFFFFFFFFFFFFFFFFFFFFFF AND PUSH2 0x8FC PUSH1 0x1 SLOAD SWAP1 DUP2 ISZERO MUL SWAP1 PUSH1 0x40 MLOAD PUSH1 0x0 PUSH1 0x40 MLOAD DUP1 DUP4 SUB DUP2 DUP6 DUP9 DUP9 CALL SWAP4 POP POP POP POP ISZERO DUP1 ISZERO PUSH2 0xE73 JUMPI RETURNDATASIZE PUSH1 0x0 DUP1 RETURNDATACOPY RETURNDATASIZE PUSH1 0x0 REVERT JUMPDEST POP PUSH1 0x0 JUMPDEST DUP3 MLOAD DUP2 LT ISZERO PUSH2 0xF86 JUMPI DUP5 PUSH20 0xFFFFFFFFFFFFFFFFFFFFFFFFFFFFFFFFFFFFFFFF AND PUSH4 0x23B872DD CALLER DUP7 DUP5 DUP2 MLOAD DUP2 LT PUSH2 0xEB0 JUMPI PUSH2 0xEAF PUSH2 0x24F6 JUMP JUMPDEST JUMPDEST PUSH1 0x20 MUL PUSH1 0x20 ADD ADD MLOAD DUP7 DUP6 DUP2 MLOAD DUP2 LT PUSH2 0xECB JUMPI PUSH2 0xECA PUSH2 0x24F6 JUMP JUMPDEST JUMPDEST PUSH1 0x20 MUL PUSH1 0x20 ADD ADD MLOAD PUSH1 0x40 MLOAD DUP5 PUSH4 0xFFFFFFFF AND PUSH1 0xE0 SHL DUP2 MSTORE PUSH1 0x4 ADD PUSH2 0xEF1 SWAP4 SWAP3 SWAP2 SWAP1 PUSH2 0x25C7 JUMP JUMPDEST PUSH1 0x20 PUSH1 0x40 MLOAD DUP1 DUP4 SUB DUP2 PUSH1 0x0 DUP8 GAS CALL ISZERO DUP1 ISZERO PUSH2 0xF10 JUMPI RETURNDATASIZE PUSH1 0x0 DUP1 RETURNDATACOPY RETURNDATASIZE PUSH1 0x0 REVERT JUMPDEST POP POP POP POP PUSH1 0x40 MLOAD RETURNDATASIZE PUSH1 0x1F NOT PUSH1 0x1F DUP3 ADD AND DUP3 ADD DUP1 PUSH1 0x40 MSTORE POP DUP2 ADD SWAP1 PUSH2 0xF34 SWAP2 SWAP1 PUSH2 0x262A JUMP JUMPDEST PUSH2 0xF73 JUMPI PUSH1 0x40 MLOAD PUSH32 0x8C379A000000000000000000000000000000000000000000000000000000000 DUP2 MSTORE PUSH1 0x4 ADD PUSH2 0xF6A SWAP1 PUSH2 0x26A3 JUMP JUMPDEST PUSH1 0x40 MLOAD DUP1 SWAP2 SUB SWAP1 REVERT JUMPDEST DUP1 DUP1 PUSH2 0xF7E SWAP1 PUSH2 0x257F JUMP JUMPDEST SWAP2 POP POP PUSH2 0xE77 JUMP JUMPDEST POP JUMPDEST JUMPDEST JUMPDEST JUMPDEST POP POP POP POP JUMP JUMPDEST PUSH1 0x4 PUSH1 0x0 SWAP1 SLOAD SWAP1 PUSH2 0x100 EXP SWAP1 DIV PUSH20 0xFFFFFFFFFFFFFFFFFFFFFFFFFFFFFFFFFFFFFFFF AND DUP2 JUMP JUMPDEST PUSH2 0xFBF PUSH2 0x18E3 JUMP JUMPDEST DUP1 DUP3 PUSH20 0xFFFFFFFFFFFFFFFFFFFFFFFFFFFFFFFFFFFFFFFF AND PUSH4 0x70A08231 ADDRESS PUSH1 0x40 MLOAD DUP3 PUSH4 0xFFFFFFFF AND PUSH1 0xE0 SHL DUP2 MSTORE PUSH1 0x4 ADD PUSH2 0xFF9 SWAP2 SWAP1 PUSH2 0x1CBD JUMP JUMPDEST PUSH1 0x20 PUSH1 0x40 MLOAD DUP1 DUP4 SUB DUP2 DUP7 GAS STATICCALL ISZERO DUP1 ISZERO PUSH2 0x1016 JUMPI RETURNDATASIZE PUSH1 0x0 DUP1 RETURNDATACOPY RETURNDATASIZE PUSH1 0x0 REVERT JUMPDEST POP POP POP POP PUSH1 0x40 MLOAD RETURNDATASIZE PUSH1 0x1F NOT PUSH1 0x1F DUP3 ADD AND DUP3 ADD DUP1 PUSH1 0x40 MSTORE POP DUP2 ADD SWAP1 PUSH2 0x103A SWAP2 SWAP1 PUSH2 0x20EF JUMP JUMPDEST LT ISZERO PUSH2 0x107B JUMPI PUSH1 0x40 MLOAD PUSH32 0x8C379A000000000000000000000000000000000000000000000000000000000 DUP2 MSTORE PUSH1 0x4 ADD PUSH2 0x1072 SWAP1 PUSH2 0x27C7 JUMP JUMPDEST PUSH1 0x40 MLOAD DUP1 SWAP2 SUB SWAP1 REVERT JUMPDEST DUP2 PUSH20 0xFFFFFFFFFFFFFFFFFFFFFFFFFFFFFFFFFFFFFFFF AND PUSH4 0xA9059CBB CALLER DUP4 PUSH1 0x40 MLOAD DUP4 PUSH4 0xFFFFFFFF AND PUSH1 0xE0 SHL DUP2 MSTORE PUSH1 0x4 ADD PUSH2 0x10B6 SWAP3 SWAP2 SWAP1 PUSH2 0x27E7 JUMP JUMPDEST PUSH1 0x20 PUSH1 0x40 MLOAD DUP1 DUP4 SUB DUP2 PUSH1 0x0 DUP8 GAS CALL ISZERO DUP1 ISZERO PUSH2 0x10D5 JUMPI RETURNDATASIZE PUSH1 0x0 DUP1 RETURNDATACOPY RETURNDATASIZE PUSH1 0x0 REVERT JUMPDEST POP POP POP POP PUSH1 0x40 MLOAD RETURNDATASIZE PUSH1 0x1F NOT PUSH1 0x1F DUP3 ADD AND DUP3 ADD DUP1 PUSH1 0x40 MSTORE POP DUP2 ADD SWAP1 PUSH2 0x10F9 SWAP2 SWAP1 PUSH2 0x262A JUMP JUMPDEST POP POP POP JUMP JUMPDEST PUSH1 0x0 PUSH20 0xFFFFFFFFFFFFFFFFFFFFFFFFFFFFFFFFFFFFFFFF AND PUSH1 0x4 PUSH1 0x0 SWAP1 SLOAD SWAP1 PUSH2 0x100 EXP SWAP1 DIV PUSH20 0xFFFFFFFFFFFFFFFFFFFFFFFFFFFFFFFFFFFFFFFF AND PUSH20 0xFFFFFFFFFFFFFFFFFFFFFFFFFFFFFFFFFFFFFFFF AND SUB PUSH2 0x118F JUMPI PUSH1 0x40 MLOAD PUSH32 0x8C379A000000000000000000000000000000000000000000000000000000000 DUP2 MSTORE PUSH1 0x4 ADD PUSH2 0x1186 SWAP1 PUSH2 0x2251 JUMP JUMPDEST PUSH1 0x40 MLOAD DUP1 SWAP2 SUB SWAP1 REVERT JUMPDEST DUP1 MLOAD DUP3 MLOAD EQ PUSH2 0x11D3 JUMPI PUSH1 0x40 MLOAD PUSH32 0x8C379A000000000000000000000000000000000000000000000000000000000 DUP2 MSTORE PUSH1 0x4 ADD PUSH2 0x11CA SWAP1 PUSH2 0x2329 JUMP JUMPDEST PUSH1 0x40 MLOAD DUP1 SWAP2 SUB SWAP1 REVERT JUMPDEST PUSH1 0x0 DUP1 JUMPDEST DUP3 MLOAD DUP2 LT ISZERO PUSH2 0x121B JUMPI DUP3 DUP2 DUP2 MLOAD DUP2 LT PUSH2 0x11F3 JUMPI PUSH2 0x11F2 PUSH2 0x24F6 JUMP JUMPDEST JUMPDEST PUSH1 0x20 MUL PUSH1 0x20 ADD ADD MLOAD DUP3 PUSH2 0x1206 SWAP2 SWAP1 PUSH2 0x2810 JUMP JUMPDEST SWAP2 POP DUP1 DUP1 PUSH2 0x1213 SWAP1 PUSH2 0x257F JUMP JUMPDEST SWAP2 POP POP PUSH2 0x11D7 JUMP JUMPDEST POP PUSH1 0x3 PUSH1 0x0 CALLER PUSH20 0xFFFFFFFFFFFFFFFFFFFFFFFFFFFFFFFFFFFFFFFF AND PUSH20 0xFFFFFFFFFFFFFFFFFFFFFFFFFFFFFFFFFFFFFFFF AND DUP2 MSTORE PUSH1 0x20 ADD SWAP1 DUP2 MSTORE PUSH1 0x20 ADD PUSH1 0x0 KECCAK256 PUSH1 0x0 SWAP1 SLOAD SWAP1 PUSH2 0x100 EXP SWAP1 DIV PUSH1 0xFF AND ISZERO PUSH2 0x1350 JUMPI DUP1 CALLVALUE EQ PUSH2 0x12B0 JUMPI PUSH1 0x40 MLOAD PUSH32 0x8C379A000000000000000000000000000000000000000000000000000000000 DUP2 MSTORE PUSH1 0x4 ADD PUSH2 0x12A7 SWAP1 PUSH2 0x28D8 JUMP JUMPDEST PUSH1 0x40 MLOAD DUP1 SWAP2 SUB SWAP1 REVERT JUMPDEST PUSH1 0x0 JUMPDEST DUP4 MLOAD DUP2 LT ISZERO PUSH2 0x134A JUMPI DUP4 DUP2 DUP2 MLOAD DUP2 LT PUSH2 0x12CF JUMPI PUSH2 0x12CE PUSH2 0x24F6 JUMP JUMPDEST JUMPDEST PUSH1 0x20 MUL PUSH1 0x20 ADD ADD MLOAD PUSH20 0xFFFFFFFFFFFFFFFFFFFFFFFFFFFFFFFFFFFFFFFF AND PUSH2 0x8FC DUP5 DUP4 DUP2 MLOAD DUP2 LT PUSH2 0x1303 JUMPI PUSH2 0x1302 PUSH2 0x24F6 JUMP JUMPDEST JUMPDEST PUSH1 0x20 MUL PUSH1 0x20 ADD ADD MLOAD SWAP1 DUP2 ISZERO MUL SWAP1 PUSH1 0x40 MLOAD PUSH1 0x0 PUSH1 0x40 MLOAD DUP1 DUP4 SUB DUP2 DUP6 DUP9 DUP9 CALL SWAP4 POP POP POP POP ISZERO DUP1 ISZERO PUSH2 0x1336 JUMPI RETURNDATASIZE PUSH1 0x0 DUP1 RETURNDATACOPY RETURNDATASIZE PUSH1 0x0 REVERT JUMPDEST POP DUP1 DUP1 PUSH2 0x1342 SWAP1 PUSH2 0x257F JUMP JUMPDEST SWAP2 POP POP PUSH2 0x12B3 JUMP JUMPDEST POP PUSH2 0x1783 JUMP JUMPDEST PUSH1 0x3 PUSH1 0x0 CALLER PUSH20 0xFFFFFFFFFFFFFFFFFFFFFFFFFFFFFFFFFFFFFFFF AND PUSH20 0xFFFFFFFFFFFFFFFFFFFFFFFFFFFFFFFFFFFFFFFF AND DUP2 MSTORE PUSH1 0x20 ADD SWAP1 DUP2 MSTORE PUSH1 0x20 ADD PUSH1 0x0 KECCAK256 PUSH1 0x0 SWAP1 SLOAD SWAP1 PUSH2 0x100 EXP SWAP1 DIV PUSH1 0xFF AND PUSH2 0x1782 JUMPI PUSH1 0x5 SLOAD PUSH1 0x4 PUSH1 0x0 SWAP1 SLOAD SWAP1 PUSH2 0x100 EXP SWAP1 DIV PUSH20 0xFFFFFFFFFFFFFFFFFFFFFFFFFFFFFFFFFFFFFFFF AND PUSH20 0xFFFFFFFFFFFFFFFFFFFFFFFFFFFFFFFFFFFFFFFF AND PUSH4 0x70A08231 CALLER PUSH1 0x40 MLOAD DUP3 PUSH4 0xFFFFFFFF AND PUSH1 0xE0 SHL DUP2 MSTORE PUSH1 0x4 ADD PUSH2 0x13FF SWAP2 SWAP1 PUSH2 0x1CBD JUMP JUMPDEST PUSH1 0x20 PUSH1 0x40 MLOAD DUP1 DUP4 SUB DUP2 DUP7 GAS STATICCALL ISZERO DUP1 ISZERO PUSH2 0x141C JUMPI RETURNDATASIZE PUSH1 0x0 DUP1 RETURNDATACOPY RETURNDATASIZE PUSH1 0x0 REVERT JUMPDEST POP POP POP POP PUSH1 0x40 MLOAD RETURNDATASIZE PUSH1 0x1F NOT PUSH1 0x1F DUP3 ADD AND DUP3 ADD DUP1 PUSH1 0x40 MSTORE POP DUP2 ADD SWAP1 PUSH2 0x1440 SWAP2 SWAP1 PUSH2 0x20EF JUMP JUMPDEST LT PUSH2 0x157F JUMPI PUSH1 0x1 PUSH1 0x3 PUSH1 0x0 CALLER PUSH20 0xFFFFFFFFFFFFFFFFFFFFFFFFFFFFFFFFFFFFFFFF AND PUSH20 0xFFFFFFFFFFFFFFFFFFFFFFFFFFFFFFFFFFFFFFFF AND DUP2 MSTORE PUSH1 0x20 ADD SWAP1 DUP2 MSTORE PUSH1 0x20 ADD PUSH1 0x0 KECCAK256 PUSH1 0x0 PUSH2 0x100 EXP DUP2 SLOAD DUP2 PUSH1 0xFF MUL NOT AND SWAP1 DUP4 ISZERO ISZERO MUL OR SWAP1 SSTORE POP DUP1 CALLVALUE EQ PUSH2 0x14DF JUMPI PUSH1 0x40 MLOAD PUSH32 0x8C379A000000000000000000000000000000000000000000000000000000000 DUP2 MSTORE PUSH1 0x4 ADD PUSH2 0x14D6 SWAP1 PUSH2 0x296A JUMP JUMPDEST PUSH1 0x40 MLOAD DUP1 SWAP2 SUB SWAP1 REVERT JUMPDEST PUSH1 0x0 JUMPDEST DUP4 MLOAD DUP2 LT ISZERO PUSH2 0x1579 JUMPI DUP4 DUP2 DUP2 MLOAD DUP2 LT PUSH2 0x14FE JUMPI PUSH2 0x14FD PUSH2 0x24F6 JUMP JUMPDEST JUMPDEST PUSH1 0x20 MUL PUSH1 0x20 ADD ADD MLOAD PUSH20 0xFFFFFFFFFFFFFFFFFFFFFFFFFFFFFFFFFFFFFFFF AND PUSH2 0x8FC DUP5 DUP4 DUP2 MLOAD DUP2 LT PUSH2 0x1532 JUMPI PUSH2 0x1531 PUSH2 0x24F6 JUMP JUMPDEST JUMPDEST PUSH1 0x20 MUL PUSH1 0x20 ADD ADD MLOAD SWAP1 DUP2 ISZERO MUL SWAP1 PUSH1 0x40 MLOAD PUSH1 0x0 PUSH1 0x40 MLOAD DUP1 DUP4 SUB DUP2 DUP6 DUP9 DUP9 CALL SWAP4 POP POP POP POP ISZERO DUP1 ISZERO PUSH2 0x1565 JUMPI RETURNDATASIZE PUSH1 0x0 DUP1 RETURNDATACOPY RETURNDATASIZE PUSH1 0x0 REVERT JUMPDEST POP DUP1 DUP1 PUSH2 0x1571 SWAP1 PUSH2 0x257F JUMP JUMPDEST SWAP2 POP POP PUSH2 0x14E2 JUMP JUMPDEST POP PUSH2 0x1781 JUMP JUMPDEST PUSH1 0x5 SLOAD PUSH1 0x4 PUSH1 0x0 SWAP1 SLOAD SWAP1 PUSH2 0x100 EXP SWAP1 DIV PUSH20 0xFFFFFFFFFFFFFFFFFFFFFFFFFFFFFFFFFFFFFFFF AND PUSH20 0xFFFFFFFFFFFFFFFFFFFFFFFFFFFFFFFFFFFFFFFF AND PUSH4 0x70A08231 CALLER PUSH1 0x40 MLOAD DUP3 PUSH4 0xFFFFFFFF AND PUSH1 0xE0 SHL DUP2 MSTORE PUSH1 0x4 ADD PUSH2 0x15DD SWAP2 SWAP1 PUSH2 0x1CBD JUMP JUMPDEST PUSH1 0x20 PUSH1 0x40 MLOAD DUP1 DUP4 SUB DUP2 DUP7 GAS STATICCALL ISZERO DUP1 ISZERO PUSH2 0x15FA JUMPI RETURNDATASIZE PUSH1 0x0 DUP1 RETURNDATACOPY RETURNDATASIZE PUSH1 0x0 REVERT JUMPDEST POP POP POP POP PUSH1 0x40 MLOAD RETURNDATASIZE PUSH1 0x1F NOT PUSH1 0x1F DUP3 ADD AND DUP3 ADD DUP1 PUSH1 0x40 MSTORE POP DUP2 ADD SWAP1 PUSH2 0x161E SWAP2 SWAP1 PUSH2 0x20EF JUMP JUMPDEST LT ISZERO PUSH2 0x1780 JUMPI PUSH1 0x0 DUP2 PUSH1 0x1 SLOAD PUSH2 0x1634 SWAP2 SWAP1 PUSH2 0x2810 JUMP JUMPDEST SWAP1 POP DUP1 CALLVALUE EQ PUSH2 0x1678 JUMPI PUSH1 0x40 MLOAD PUSH32 0x8C379A000000000000000000000000000000000000000000000000000000000 DUP2 MSTORE PUSH1 0x4 ADD PUSH2 0x166F SWAP1 PUSH2 0x2735 JUMP JUMPDEST PUSH1 0x40 MLOAD DUP1 SWAP2 SUB SWAP1 REVERT JUMPDEST PUSH1 0x2 PUSH1 0x0 SWAP1 SLOAD SWAP1 PUSH2 0x100 EXP SWAP1 DIV PUSH20 0xFFFFFFFFFFFFFFFFFFFFFFFFFFFFFFFFFFFFFFFF AND PUSH20 0xFFFFFFFFFFFFFFFFFFFFFFFFFFFFFFFFFFFFFFFF AND PUSH2 0x8FC PUSH1 0x1 SLOAD SWAP1 DUP2 ISZERO MUL SWAP1 PUSH1 0x40 MLOAD PUSH1 0x0 PUSH1 0x40 MLOAD DUP1 DUP4 SUB DUP2 DUP6 DUP9 DUP9 CALL SWAP4 POP POP POP POP ISZERO DUP1 ISZERO PUSH2 0x16E2 JUMPI RETURNDATASIZE PUSH1 0x0 DUP1 RETURNDATACOPY RETURNDATASIZE PUSH1 0x0 REVERT JUMPDEST POP PUSH1 0x0 JUMPDEST DUP5 MLOAD DUP2 LT ISZERO PUSH2 0x177D JUMPI DUP5 DUP2 DUP2 MLOAD DUP2 LT PUSH2 0x1702 JUMPI PUSH2 0x1701 PUSH2 0x24F6 JUMP JUMPDEST JUMPDEST PUSH1 0x20 MUL PUSH1 0x20 ADD ADD MLOAD PUSH20 0xFFFFFFFFFFFFFFFFFFFFFFFFFFFFFFFFFFFFFFFF AND PUSH2 0x8FC DUP6 DUP4 DUP2 MLOAD DUP2 LT PUSH2 0x1736 JUMPI PUSH2 0x1735 PUSH2 0x24F6 JUMP JUMPDEST JUMPDEST PUSH1 0x20 MUL PUSH1 0x20 ADD ADD MLOAD SWAP1 DUP2 ISZERO MUL SWAP1 PUSH1 0x40 MLOAD PUSH1 0x0 PUSH1 0x40 MLOAD DUP1 DUP4 SUB DUP2 DUP6 DUP9 DUP9 CALL SWAP4 POP POP POP POP ISZERO DUP1 ISZERO PUSH2 0x1769 JUMPI RETURNDATASIZE PUSH1 0x0 DUP1 RETURNDATACOPY RETURNDATASIZE PUSH1 0x0 REVERT JUMPDEST POP DUP1 DUP1 PUSH2 0x1775 SWAP1 PUSH2 0x257F JUMP JUMPDEST SWAP2 POP POP PUSH2 0x16E6 JUMP JUMPDEST POP POP JUMPDEST JUMPDEST JUMPDEST JUMPDEST POP POP POP JUMP JUMPDEST PUSH1 0x1 SLOAD DUP2 JUMP JUMPDEST PUSH2 0x1796 PUSH2 0x18E3 JUMP JUMPDEST PUSH1 0x0 PUSH20 0xFFFFFFFFFFFFFFFFFFFFFFFFFFFFFFFFFFFFFFFF AND DUP2 PUSH20 0xFFFFFFFFFFFFFFFFFFFFFFFFFFFFFFFFFFFFFFFF AND SUB PUSH2 0x1805 JUMPI PUSH1 0x40 MLOAD PUSH32 0x8C379A000000000000000000000000000000000000000000000000000000000 DUP2 MSTORE PUSH1 0x4 ADD PUSH2 0x17FC SWAP1 PUSH2 0x29FC JUMP JUMPDEST PUSH1 0x40 MLOAD DUP1 SWAP2 SUB SWAP1 REVERT JUMPDEST PUSH2 0x180E DUP2 PUSH2 0x1961 JUMP JUMPDEST POP JUMP JUMPDEST PUSH1 0x2 PUSH1 0x0 SWAP1 SLOAD SWAP1 PUSH2 0x100 EXP SWAP1 DIV PUSH20 0xFFFFFFFFFFFFFFFFFFFFFFFFFFFFFFFFFFFFFFFF AND DUP2 JUMP JUMPDEST PUSH2 0x183F PUSH2 0x18E3 JUMP JUMPDEST DUP1 ADDRESS PUSH20 0xFFFFFFFFFFFFFFFFFFFFFFFFFFFFFFFFFFFFFFFF AND BALANCE LT ISZERO PUSH2 0x1899 JUMPI PUSH1 0x40 MLOAD PUSH32 0x8C379A000000000000000000000000000000000000000000000000000000000 DUP2 MSTORE PUSH1 0x4 ADD PUSH2 0x1890 SWAP1 PUSH2 0x2A68 JUMP JUMPDEST PUSH1 0x40 MLOAD DUP1 SWAP2 SUB SWAP1 REVERT JUMPDEST CALLER PUSH20 0xFFFFFFFFFFFFFFFFFFFFFFFFFFFFFFFFFFFFFFFF AND PUSH2 0x8FC DUP3 SWAP1 DUP2 ISZERO MUL SWAP1 PUSH1 0x40 MLOAD PUSH1 0x0 PUSH1 0x40 MLOAD DUP1 DUP4 SUB DUP2 DUP6 DUP9 DUP9 CALL SWAP4 POP POP POP POP ISZERO DUP1 ISZERO PUSH2 0x18DF JUMPI RETURNDATASIZE PUSH1 0x0 DUP1 RETURNDATACOPY RETURNDATASIZE PUSH1 0x0 REVERT JUMPDEST POP POP JUMP JUMPDEST PUSH2 0x18EB PUSH2 0x1A48 JUMP JUMPDEST PUSH20 0xFFFFFFFFFFFFFFFFFFFFFFFFFFFFFFFFFFFFFFFF AND PUSH2 0x1909 PUSH2 0x770 JUMP JUMPDEST PUSH20 0xFFFFFFFFFFFFFFFFFFFFFFFFFFFFFFFFFFFFFFFF AND EQ PUSH2 0x195F JUMPI PUSH1 0x40 MLOAD PUSH32 0x8C379A000000000000000000000000000000000000000000000000000000000 DUP2 MSTORE PUSH1 0x4 ADD PUSH2 0x1956 SWAP1 PUSH2 0x2AD4 JUMP JUMPDEST PUSH1 0x40 MLOAD DUP1 SWAP2 SUB SWAP1 REVERT JUMPDEST JUMP JUMPDEST PUSH1 0x0 DUP1 PUSH1 0x0 SWAP1 SLOAD SWAP1 PUSH2 0x100 EXP SWAP1 DIV PUSH20 0xFFFFFFFFFFFFFFFFFFFFFFFFFFFFFFFFFFFFFFFF AND SWAP1 POP DUP2 PUSH1 0x0 DUP1 PUSH2 0x100 EXP DUP2 SLOAD DUP2 PUSH20 0xFFFFFFFFFFFFFFFFFFFFFFFFFFFFFFFFFFFFFFFF MUL NOT AND SWAP1 DUP4 PUSH20 0xFFFFFFFFFFFFFFFFFFFFFFFFFFFFFFFFFFFFFFFF AND MUL OR SWAP1 SSTORE POP DUP2 PUSH20 0xFFFFFFFFFFFFFFFFFFFFFFFFFFFFFFFFFFFFFFFF AND DUP2 PUSH20 0xFFFFFFFFFFFFFFFFFFFFFFFFFFFFFFFFFFFFFFFF AND PUSH32 0x8BE0079C531659141344CD1FD0A4F28419497F9722A3DAAFE3B4186F6B6457E0 PUSH1 0x40 MLOAD PUSH1 0x40 MLOAD DUP1 SWAP2 SUB SWAP1 LOG3 POP POP JUMP JUMPDEST PUSH1 0x0 DUP1 DUP3 PUSH20 0xFFFFFFFFFFFFFFFFFFFFFFFFFFFFFFFFFFFFFFFF AND EXTCODESIZE GT SWAP1 POP SWAP2 SWAP1 POP JUMP JUMPDEST PUSH1 0x0 CALLER SWAP1 POP SWAP1 JUMP JUMPDEST PUSH1 0x0 PUSH1 0x40 MLOAD SWAP1 POP SWAP1 JUMP JUMPDEST PUSH1 0x0 DUP1 REVERT JUMPDEST PUSH1 0x0 DUP1 REVERT JUMPDEST PUSH1 0x0 DUP2 SWAP1 POP SWAP2 SWAP1 POP JUMP JUMPDEST PUSH2 0x1A77 DUP2 PUSH2 0x1A64 JUMP JUMPDEST DUP2 EQ PUSH2 0x1A82 JUMPI PUSH1 0x0 DUP1 REVERT JUMPDEST POP JUMP JUMPDEST PUSH1 0x0 DUP2 CALLDATALOAD SWAP1 POP PUSH2 0x1A94 DUP2 PUSH2 0x1A6E JUMP JUMPDEST SWAP3 SWAP2 POP POP JUMP JUMPDEST PUSH1 0x0 PUSH20 0xFFFFFFFFFFFFFFFFFFFFFFFFFFFFFFFFFFFFFFFF DUP3 AND SWAP1 POP SWAP2 SWAP1 POP JUMP JUMPDEST PUSH1 0x0 PUSH2 0x1AC5 DUP3 PUSH2 0x1A9A JUMP JUMPDEST SWAP1 POP SWAP2 SWAP1 POP JUMP JUMPDEST PUSH2 0x1AD5 DUP2 PUSH2 0x1ABA JUMP JUMPDEST DUP2 EQ PUSH2 0x1AE0 JUMPI PUSH1 0x0 DUP1 REVERT JUMPDEST POP JUMP JUMPDEST PUSH1 0x0 DUP2 CALLDATALOAD SWAP1 POP PUSH2 0x1AF2 DUP2 PUSH2 0x1ACC JUMP JUMPDEST SWAP3 SWAP2 POP POP JUMP JUMPDEST PUSH1 0x0 DUP1 PUSH1 0x40 DUP4 DUP6 SUB SLT ISZERO PUSH2 0x1B0F JUMPI PUSH2 0x1B0E PUSH2 0x1A5A JUMP JUMPDEST JUMPDEST PUSH1 0x0 PUSH2 0x1B1D DUP6 DUP3 DUP7 ADD PUSH2 0x1A85 JUMP JUMPDEST SWAP3 POP POP PUSH1 0x20 PUSH2 0x1B2E DUP6 DUP3 DUP7 ADD PUSH2 0x1AE3 JUMP JUMPDEST SWAP2 POP POP SWAP3 POP SWAP3 SWAP1 POP JUMP JUMPDEST PUSH2 0x1B41 DUP2 PUSH2 0x1A64 JUMP JUMPDEST DUP3 MSTORE POP POP JUMP JUMPDEST PUSH1 0x0 PUSH1 0x20 DUP3 ADD SWAP1 POP PUSH2 0x1B5C PUSH1 0x0 DUP4 ADD DUP5 PUSH2 0x1B38 JUMP JUMPDEST SWAP3 SWAP2 POP POP JUMP JUMPDEST PUSH1 0x0 PUSH2 0x1B6D DUP3 PUSH2 0x1ABA JUMP JUMPDEST SWAP1 POP SWAP2 SWAP1 POP JUMP JUMPDEST PUSH2 0x1B7D DUP2 PUSH2 0x1B62 JUMP JUMPDEST DUP2 EQ PUSH2 0x1B88 JUMPI PUSH1 0x0 DUP1 REVERT JUMPDEST POP JUMP JUMPDEST PUSH1 0x0 DUP2 CALLDATALOAD SWAP1 POP PUSH2 0x1B9A DUP2 PUSH2 0x1B74 JUMP JUMPDEST SWAP3 SWAP2 POP POP JUMP JUMPDEST PUSH1 0x0 PUSH1 0x20 DUP3 DUP5 SUB SLT ISZERO PUSH2 0x1BB6 JUMPI PUSH2 0x1BB5 PUSH2 0x1A5A JUMP JUMPDEST JUMPDEST PUSH1 0x0 PUSH2 0x1BC4 DUP5 DUP3 DUP6 ADD PUSH2 0x1B8B JUMP JUMPDEST SWAP2 POP POP SWAP3 SWAP2 POP POP JUMP JUMPDEST PUSH1 0x0 PUSH2 0x1BD8 DUP3 PUSH2 0x1ABA JUMP JUMPDEST SWAP1 POP SWAP2 SWAP1 POP JUMP JUMPDEST PUSH2 0x1BE8 DUP2 PUSH2 0x1BCD JUMP JUMPDEST DUP2 EQ PUSH2 0x1BF3 JUMPI PUSH1 0x0 DUP1 REVERT JUMPDEST POP JUMP JUMPDEST PUSH1 0x0 DUP2 CALLDATALOAD SWAP1 POP PUSH2 0x1C05 DUP2 PUSH2 0x1BDF JUMP JUMPDEST SWAP3 SWAP2 POP POP JUMP JUMPDEST PUSH1 0x0 DUP1 PUSH1 0x40 DUP4 DUP6 SUB SLT ISZERO PUSH2 0x1C22 JUMPI PUSH2 0x1C21 PUSH2 0x1A5A JUMP JUMPDEST JUMPDEST PUSH1 0x0 PUSH2 0x1C30 DUP6 DUP3 DUP7 ADD PUSH2 0x1BF6 JUMP JUMPDEST SWAP3 POP POP PUSH1 0x20 PUSH2 0x1C41 DUP6 DUP3 DUP7 ADD PUSH2 0x1A85 JUMP JUMPDEST SWAP2 POP POP SWAP3 POP SWAP3 SWAP1 POP JUMP JUMPDEST PUSH1 0x0 PUSH1 0x20 DUP3 DUP5 SUB SLT ISZERO PUSH2 0x1C61 JUMPI PUSH2 0x1C60 PUSH2 0x1A5A JUMP JUMPDEST JUMPDEST PUSH1 0x0 PUSH2 0x1C6F DUP5 DUP3 DUP6 ADD PUSH2 0x1AE3 JUMP JUMPDEST SWAP2 POP POP SWAP3 SWAP2 POP POP JUMP JUMPDEST PUSH1 0x0 DUP2 ISZERO ISZERO SWAP1 POP SWAP2 SWAP1 POP JUMP JUMPDEST PUSH2 0x1C8D DUP2 PUSH2 0x1C78 JUMP JUMPDEST DUP3 MSTORE POP POP JUMP JUMPDEST PUSH1 0x0 PUSH1 0x20 DUP3 ADD SWAP1 POP PUSH2 0x1CA8 PUSH1 0x0 DUP4 ADD DUP5 PUSH2 0x1C84 JUMP JUMPDEST SWAP3 SWAP2 POP POP JUMP JUMPDEST PUSH2 0x1CB7 DUP2 PUSH2 0x1ABA JUMP JUMPDEST DUP3 MSTORE POP POP JUMP JUMPDEST PUSH1 0x0 PUSH1 0x20 DUP3 ADD SWAP1 POP PUSH2 0x1CD2 PUSH1 0x0 DUP4 ADD DUP5 PUSH2 0x1CAE JUMP JUMPDEST SWAP3 SWAP2 POP POP JUMP JUMPDEST PUSH1 0x0 DUP1 REVERT JUMPDEST PUSH1 0x0 PUSH1 0x1F NOT PUSH1 0x1F DUP4 ADD AND SWAP1 POP SWAP2 SWAP1 POP JUMP JUMPDEST PUSH32 0x4E487B7100000000000000000000000000000000000000000000000000000000 PUSH1 0x0 MSTORE PUSH1 0x41 PUSH1 0x4 MSTORE PUSH1 0x24 PUSH1 0x0 REVERT JUMPDEST PUSH2 0x1D26 DUP3 PUSH2 0x1CDD JUMP JUMPDEST DUP2 ADD DUP2 DUP2 LT PUSH8 0xFFFFFFFFFFFFFFFF DUP3 GT OR ISZERO PUSH2 0x1D45 JUMPI PUSH2 0x1D44 PUSH2 0x1CEE JUMP JUMPDEST JUMPDEST DUP1 PUSH1 0x40 MSTORE POP POP POP JUMP JUMPDEST PUSH1 0x0 PUSH2 0x1D58 PUSH2 0x1A50 JUMP JUMPDEST SWAP1 POP PUSH2 0x1D64 DUP3 DUP3 PUSH2 0x1D1D JUMP JUMPDEST SWAP2 SWAP1 POP JUMP JUMPDEST PUSH1 0x0 PUSH8 0xFFFFFFFFFFFFFFFF DUP3 GT ISZERO PUSH2 0x1D84 JUMPI PUSH2 0x1D83 PUSH2 0x1CEE JUMP JUMPDEST JUMPDEST PUSH1 0x20 DUP3 MUL SWAP1 POP PUSH1 0x20 DUP2 ADD SWAP1 POP SWAP2 SWAP1 POP JUMP JUMPDEST PUSH1 0x0 DUP1 REVERT JUMPDEST PUSH1 0x0 PUSH2 0x1DAD PUSH2 0x1DA8 DUP5 PUSH2 0x1D69 JUMP JUMPDEST PUSH2 0x1D4E JUMP JUMPDEST SWAP1 POP DUP1 DUP4 DUP3 MSTORE PUSH1 0x20 DUP3 ADD SWAP1 POP PUSH1 0x20 DUP5 MUL DUP4 ADD DUP6 DUP2 GT ISZERO PUSH2 0x1DD0 JUMPI PUSH2 0x1DCF PUSH2 0x1D95 JUMP JUMPDEST JUMPDEST DUP4 JUMPDEST DUP2 DUP2 LT ISZERO PUSH2 0x1DF9 JUMPI DUP1 PUSH2 0x1DE5 DUP9 DUP3 PUSH2 0x1AE3 JUMP JUMPDEST DUP5 MSTORE PUSH1 0x20 DUP5 ADD SWAP4 POP POP PUSH1 0x20 DUP2 ADD SWAP1 POP PUSH2 0x1DD2 JUMP JUMPDEST POP POP POP SWAP4 SWAP3 POP POP POP JUMP JUMPDEST PUSH1 0x0 DUP3 PUSH1 0x1F DUP4 ADD SLT PUSH2 0x1E18 JUMPI PUSH2 0x1E17 PUSH2 0x1CD8 JUMP JUMPDEST JUMPDEST DUP2 CALLDATALOAD PUSH2 0x1E28 DUP5 DUP3 PUSH1 0x20 DUP7 ADD PUSH2 0x1D9A JUMP JUMPDEST SWAP2 POP POP SWAP3 SWAP2 POP POP JUMP JUMPDEST PUSH1 0x0 PUSH8 0xFFFFFFFFFFFFFFFF DUP3 GT ISZERO PUSH2 0x1E4C JUMPI PUSH2 0x1E4B PUSH2 0x1CEE JUMP JUMPDEST JUMPDEST PUSH1 0x20 DUP3 MUL SWAP1 POP PUSH1 0x20 DUP2 ADD SWAP1 POP SWAP2 SWAP1 POP JUMP JUMPDEST PUSH1 0x0 PUSH2 0x1E70 PUSH2 0x1E6B DUP5 PUSH2 0x1E31 JUMP JUMPDEST PUSH2 0x1D4E JUMP JUMPDEST SWAP1 POP DUP1 DUP4 DUP3 MSTORE PUSH1 0x20 DUP3 ADD SWAP1 POP PUSH1 0x20 DUP5 MUL DUP4 ADD DUP6 DUP2 GT ISZERO PUSH2 0x1E93 JUMPI PUSH2 0x1E92 PUSH2 0x1D95 JUMP JUMPDEST JUMPDEST DUP4 JUMPDEST DUP2 DUP2 LT ISZERO PUSH2 0x1EBC JUMPI DUP1 PUSH2 0x1EA8 DUP9 DUP3 PUSH2 0x1A85 JUMP JUMPDEST DUP5 MSTORE PUSH1 0x20 DUP5 ADD SWAP4 POP POP PUSH1 0x20 DUP2 ADD SWAP1 POP PUSH2 0x1E95 JUMP JUMPDEST POP POP POP SWAP4 SWAP3 POP POP POP JUMP JUMPDEST PUSH1 0x0 DUP3 PUSH1 0x1F DUP4 ADD SLT PUSH2 0x1EDB JUMPI PUSH2 0x1EDA PUSH2 0x1CD8 JUMP JUMPDEST JUMPDEST DUP2 CALLDATALOAD PUSH2 0x1EEB DUP5 DUP3 PUSH1 0x20 DUP7 ADD PUSH2 0x1E5D JUMP JUMPDEST SWAP2 POP POP SWAP3 SWAP2 POP POP JUMP JUMPDEST PUSH1 0x0 DUP1 PUSH1 0x0 PUSH1 0x60 DUP5 DUP7 SUB SLT ISZERO PUSH2 0x1F0D JUMPI PUSH2 0x1F0C PUSH2 0x1A5A JUMP JUMPDEST JUMPDEST PUSH1 0x0 PUSH2 0x1F1B DUP7 DUP3 DUP8 ADD PUSH2 0x1B8B JUMP JUMPDEST SWAP4 POP POP PUSH1 0x20 DUP5 ADD CALLDATALOAD PUSH8 0xFFFFFFFFFFFFFFFF DUP2 GT ISZERO PUSH2 0x1F3C JUMPI PUSH2 0x1F3B PUSH2 0x1A5F JUMP JUMPDEST JUMPDEST PUSH2 0x1F48 DUP7 DUP3 DUP8 ADD PUSH2 0x1E03 JUMP JUMPDEST SWAP3 POP POP PUSH1 0x40 DUP5 ADD CALLDATALOAD PUSH8 0xFFFFFFFFFFFFFFFF DUP2 GT ISZERO PUSH2 0x1F69 JUMPI PUSH2 0x1F68 PUSH2 0x1A5F JUMP JUMPDEST JUMPDEST PUSH2 0x1F75 DUP7 DUP3 DUP8 ADD PUSH2 0x1EC6 JUMP JUMPDEST SWAP2 POP POP SWAP3 POP SWAP3 POP SWAP3 JUMP JUMPDEST PUSH1 0x0 DUP2 SWAP1 POP SWAP2 SWAP1 POP JUMP JUMPDEST PUSH1 0x0 PUSH2 0x1FA4 PUSH2 0x1F9F PUSH2 0x1F9A DUP5 PUSH2 0x1A9A JUMP JUMPDEST PUSH2 0x1F7F JUMP JUMPDEST PUSH2 0x1A9A JUMP JUMPDEST SWAP1 POP SWAP2 SWAP1 POP JUMP JUMPDEST PUSH1 0x0 PUSH2 0x1FB6 DUP3 PUSH2 0x1F89 JUMP JUMPDEST SWAP1 POP SWAP2 SWAP1 POP JUMP JUMPDEST PUSH1 0x0 PUSH2 0x1FC8 DUP3 PUSH2 0x1FAB JUMP JUMPDEST SWAP1 POP SWAP2 SWAP1 POP JUMP JUMPDEST PUSH2 0x1FD8 DUP2 PUSH2 0x1FBD JUMP JUMPDEST DUP3 MSTORE POP POP JUMP JUMPDEST PUSH1 0x0 PUSH1 0x20 DUP3 ADD SWAP1 POP PUSH2 0x1FF3 PUSH1 0x0 DUP4 ADD DUP5 PUSH2 0x1FCF JUMP JUMPDEST SWAP3 SWAP2 POP POP JUMP JUMPDEST PUSH1 0x0 DUP1 PUSH1 0x40 DUP4 DUP6 SUB SLT ISZERO PUSH2 0x2010 JUMPI PUSH2 0x200F PUSH2 0x1A5A JUMP JUMPDEST JUMPDEST PUSH1 0x0 DUP4 ADD CALLDATALOAD PUSH8 0xFFFFFFFFFFFFFFFF DUP2 GT ISZERO PUSH2 0x202E JUMPI PUSH2 0x202D PUSH2 0x1A5F JUMP JUMPDEST JUMPDEST PUSH2 0x203A DUP6 DUP3 DUP7 ADD PUSH2 0x1E03 JUMP JUMPDEST SWAP3 POP POP PUSH1 0x20 DUP4 ADD CALLDATALOAD PUSH8 0xFFFFFFFFFFFFFFFF DUP2 GT ISZERO PUSH2 0x205B JUMPI PUSH2 0x205A PUSH2 0x1A5F JUMP JUMPDEST JUMPDEST PUSH2 0x2067 DUP6 DUP3 DUP7 ADD PUSH2 0x1EC6 JUMP JUMPDEST SWAP2 POP POP SWAP3 POP SWAP3 SWAP1 POP JUMP JUMPDEST PUSH1 0x0 PUSH2 0x207C DUP3 PUSH2 0x1A9A JUMP JUMPDEST SWAP1 POP SWAP2 SWAP1 POP JUMP JUMPDEST PUSH2 0x208C DUP2 PUSH2 0x2071 JUMP JUMPDEST DUP3 MSTORE POP POP JUMP JUMPDEST PUSH1 0x0 PUSH1 0x20 DUP3 ADD SWAP1 POP PUSH2 0x20A7 PUSH1 0x0 DUP4 ADD DUP5 PUSH2 0x2083 JUMP JUMPDEST SWAP3 SWAP2 POP POP JUMP JUMPDEST PUSH1 0x0 PUSH1 0x20 DUP3 DUP5 SUB SLT ISZERO PUSH2 0x20C3 JUMPI PUSH2 0x20C2 PUSH2 0x1A5A JUMP JUMPDEST JUMPDEST PUSH1 0x0 PUSH2 0x20D1 DUP5 DUP3 DUP6 ADD PUSH2 0x1A85 JUMP JUMPDEST SWAP2 POP POP SWAP3 SWAP2 POP POP JUMP JUMPDEST PUSH1 0x0 DUP2 MLOAD SWAP1 POP PUSH2 0x20E9 DUP2 PUSH2 0x1A6E JUMP JUMPDEST SWAP3 SWAP2 POP POP JUMP JUMPDEST PUSH1 0x0 PUSH1 0x20 DUP3 DUP5 SUB SLT ISZERO PUSH2 0x2105 JUMPI PUSH2 0x2104 PUSH2 0x1A5A JUMP JUMPDEST JUMPDEST PUSH1 0x0 PUSH2 0x2113 DUP5 DUP3 DUP6 ADD PUSH2 0x20DA JUMP JUMPDEST SWAP2 POP POP SWAP3 SWAP2 POP POP JUMP JUMPDEST PUSH1 0x0 DUP3 DUP3 MSTORE PUSH1 0x20 DUP3 ADD SWAP1 POP SWAP3 SWAP2 POP POP JUMP JUMPDEST PUSH32 0x7573657220697320616C726561647920756E617574686F72697A656400000000 PUSH1 0x0 DUP3 ADD MSTORE POP JUMP JUMPDEST PUSH1 0x0 PUSH2 0x2163 PUSH1 0x1C DUP4 PUSH2 0x211C JUMP JUMPDEST SWAP2 POP PUSH2 0x216E DUP3 PUSH2 0x212D JUMP JUMPDEST PUSH1 0x20 DUP3 ADD SWAP1 POP SWAP2 SWAP1 POP JUMP JUMPDEST PUSH1 0x0 PUSH1 0x20 DUP3 ADD SWAP1 POP DUP2 DUP2 SUB PUSH1 0x0 DUP4 ADD MSTORE PUSH2 0x2192 DUP2 PUSH2 0x2156 JUMP JUMPDEST SWAP1 POP SWAP2 SWAP1 POP JUMP JUMPDEST PUSH32 0x7573657220697320616C726561647920617574686F72697A6564000000000000 PUSH1 0x0 DUP3 ADD MSTORE POP JUMP JUMPDEST PUSH1 0x0 PUSH2 0x21CF PUSH1 0x1A DUP4 PUSH2 0x211C JUMP JUMPDEST SWAP2 POP PUSH2 0x21DA DUP3 PUSH2 0x2199 JUMP JUMPDEST PUSH1 0x20 DUP3 ADD SWAP1 POP SWAP2 SWAP1 POP JUMP JUMPDEST PUSH1 0x0 PUSH1 0x20 DUP3 ADD SWAP1 POP DUP2 DUP2 SUB PUSH1 0x0 DUP4 ADD MSTORE PUSH2 0x21FE DUP2 PUSH2 0x21C2 JUMP JUMPDEST SWAP1 POP SWAP2 SWAP1 POP JUMP JUMPDEST PUSH32 0x73657420746F6B656E20686F6C64696E67206669727374000000000000000000 PUSH1 0x0 DUP3 ADD MSTORE POP JUMP JUMPDEST PUSH1 0x0 PUSH2 0x223B PUSH1 0x17 DUP4 PUSH2 0x211C JUMP JUMPDEST SWAP2 POP PUSH2 0x2246 DUP3 PUSH2 0x2205 JUMP JUMPDEST PUSH1 0x20 DUP3 ADD SWAP1 POP SWAP2 SWAP1 POP JUMP JUMPDEST PUSH1 0x0 PUSH1 0x20 DUP3 ADD SWAP1 POP DUP2 DUP2 SUB PUSH1 0x0 DUP4 ADD MSTORE PUSH2 0x226A DUP2 PUSH2 0x222E JUMP JUMPDEST SWAP1 POP SWAP2 SWAP1 POP JUMP JUMPDEST PUSH32 0x6E6F74206120636F6E7472616374000000000000000000000000000000000000 PUSH1 0x0 DUP3 ADD MSTORE POP JUMP JUMPDEST PUSH1 0x0 PUSH2 0x22A7 PUSH1 0xE DUP4 PUSH2 0x211C JUMP JUMPDEST SWAP2 POP PUSH2 0x22B2 DUP3 PUSH2 0x2271 JUMP JUMPDEST PUSH1 0x20 DUP3 ADD SWAP1 POP SWAP2 SWAP1 POP JUMP JUMPDEST PUSH1 0x0 PUSH1 0x20 DUP3 ADD SWAP1 POP DUP2 DUP2 SUB PUSH1 0x0 DUP4 ADD MSTORE PUSH2 0x22D6 DUP2 PUSH2 0x229A JUMP JUMPDEST SWAP1 POP SWAP2 SWAP1 POP JUMP JUMPDEST PUSH32 0x696E76616C696420696E70757400000000000000000000000000000000000000 PUSH1 0x0 DUP3 ADD MSTORE POP JUMP JUMPDEST PUSH1 0x0 PUSH2 0x2313 PUSH1 0xD DUP4 PUSH2 0x211C JUMP JUMPDEST SWAP2 POP PUSH2 0x231E DUP3 PUSH2 0x22DD JUMP JUMPDEST PUSH1 0x20 DUP3 ADD SWAP1 POP SWAP2 SWAP1 POP JUMP JUMPDEST PUSH1 0x0 PUSH1 0x20 DUP3 ADD SWAP1 POP DUP2 DUP2 SUB PUSH1 0x0 DUP4 ADD MSTORE PUSH2 0x2342 DUP2 PUSH2 0x2306 JUMP JUMPDEST SWAP1 POP SWAP2 SWAP1 POP JUMP JUMPDEST PUSH32 0x4E487B7100000000000000000000000000000000000000000000000000000000 PUSH1 0x0 MSTORE PUSH1 0x11 PUSH1 0x4 MSTORE PUSH1 0x24 PUSH1 0x0 REVERT JUMPDEST PUSH1 0x0 DUP2 PUSH1 0x1 SHR SWAP1 POP SWAP2 SWAP1 POP JUMP JUMPDEST PUSH1 0x0 DUP1 DUP3 SWAP2 POP DUP4 SWAP1 POP JUMPDEST PUSH1 0x1 DUP6 GT ISZERO PUSH2 0x23CF JUMPI DUP1 DUP7 DIV DUP2 GT ISZERO PUSH2 0x23AB JUMPI PUSH2 0x23AA PUSH2 0x2349 JUMP JUMPDEST JUMPDEST PUSH1 0x1 DUP6 AND ISZERO PUSH2 0x23BA JUMPI DUP1 DUP3 MUL SWAP2 POP JUMPDEST DUP1 DUP2 MUL SWAP1 POP PUSH2 0x23C8 DUP6 PUSH2 0x2378 JUMP JUMPDEST SWAP5 POP PUSH2 0x238F JUMP JUMPDEST SWAP5 POP SWAP5 SWAP3 POP POP POP JUMP JUMPDEST PUSH1 0x0 DUP3 PUSH2 0x23E8 JUMPI PUSH1 0x1 SWAP1 POP PUSH2 0x24A4 JUMP JUMPDEST DUP2 PUSH2 0x23F6 JUMPI PUSH1 0x0 SWAP1 POP PUSH2 0x24A4 JUMP JUMPDEST DUP2 PUSH1 0x1 DUP2 EQ PUSH2 0x240C JUMPI PUSH1 0x2 DUP2 EQ PUSH2 0x2416 JUMPI PUSH2 0x2445 JUMP JUMPDEST PUSH1 0x1 SWAP2 POP POP PUSH2 0x24A4 JUMP JUMPDEST PUSH1 0xFF DUP5 GT ISZERO PUSH2 0x2428 JUMPI PUSH2 0x2427 PUSH2 0x2349 JUMP JUMPDEST JUMPDEST DUP4 PUSH1 0x2 EXP SWAP2 POP DUP5 DUP3 GT ISZERO PUSH2 0x243F JUMPI PUSH2 0x243E PUSH2 0x2349 JUMP JUMPDEST JUMPDEST POP PUSH2 0x24A4 JUMP JUMPDEST POP PUSH1 0x20 DUP4 LT PUSH2 0x133 DUP4 LT AND PUSH1 0x4E DUP5 LT PUSH1 0xB DUP5 LT AND OR ISZERO PUSH2 0x247A JUMPI DUP3 DUP3 EXP SWAP1 POP DUP4 DUP2 GT ISZERO PUSH2 0x2475 JUMPI PUSH2 0x2474 PUSH2 0x2349 JUMP JUMPDEST JUMPDEST PUSH2 0x24A4 JUMP JUMPDEST PUSH2 0x2487 DUP5 DUP5 DUP5 PUSH1 0x1 PUSH2 0x2385 JUMP JUMPDEST SWAP3 POP SWAP1 POP DUP2 DUP5 DIV DUP2 GT ISZERO PUSH2 0x249E JUMPI PUSH2 0x249D PUSH2 0x2349 JUMP JUMPDEST JUMPDEST DUP2 DUP2 MUL SWAP1 POP JUMPDEST SWAP4 SWAP3 POP POP POP JUMP JUMPDEST PUSH1 0x0 PUSH2 0x24B6 DUP3 PUSH2 0x1A64 JUMP JUMPDEST SWAP2 POP PUSH2 0x24C1 DUP4 PUSH2 0x1A64 JUMP JUMPDEST SWAP3 POP PUSH2 0x24EE PUSH32 0xFFFFFFFFFFFFFFFFFFFFFFFFFFFFFFFFFFFFFFFFFFFFFFFFFFFFFFFFFFFFFFFF DUP5 DUP5 PUSH2 0x23D8 JUMP JUMPDEST SWAP1 POP SWAP3 SWAP2 POP POP JUMP JUMPDEST PUSH32 0x4E487B7100000000000000000000000000000000000000000000000000000000 PUSH1 0x0 MSTORE PUSH1 0x32 PUSH1 0x4 MSTORE PUSH1 0x24 PUSH1 0x0 REVERT JUMPDEST PUSH1 0x0 PUSH2 0x2530 DUP3 PUSH2 0x1A64 JUMP JUMPDEST SWAP2 POP PUSH2 0x253B DUP4 PUSH2 0x1A64 JUMP JUMPDEST SWAP3 POP DUP2 PUSH32 0xFFFFFFFFFFFFFFFFFFFFFFFFFFFFFFFFFFFFFFFFFFFFFFFFFFFFFFFFFFFFFFFF DIV DUP4 GT DUP3 ISZERO ISZERO AND ISZERO PUSH2 0x2574 JUMPI PUSH2 0x2573 PUSH2 0x2349 JUMP JUMPDEST JUMPDEST DUP3 DUP3 MUL SWAP1 POP SWAP3 SWAP2 POP POP JUMP JUMPDEST PUSH1 0x0 PUSH2 0x258A DUP3 PUSH2 0x1A64 JUMP JUMPDEST SWAP2 POP PUSH32 0xFFFFFFFFFFFFFFFFFFFFFFFFFFFFFFFFFFFFFFFFFFFFFFFFFFFFFFFFFFFFFFFF DUP3 SUB PUSH2 0x25BC JUMPI PUSH2 0x25BB PUSH2 0x2349 JUMP JUMPDEST JUMPDEST PUSH1 0x1 DUP3 ADD SWAP1 POP SWAP2 SWAP1 POP JUMP JUMPDEST PUSH1 0x0 PUSH1 0x60 DUP3 ADD SWAP1 POP PUSH2 0x25DC PUSH1 0x0 DUP4 ADD DUP7 PUSH2 0x1CAE JUMP JUMPDEST PUSH2 0x25E9 PUSH1 0x20 DUP4 ADD DUP6 PUSH2 0x1CAE JUMP JUMPDEST PUSH2 0x25F6 PUSH1 0x40 DUP4 ADD DUP5 PUSH2 0x1B38 JUMP JUMPDEST SWAP5 SWAP4 POP POP POP POP JUMP JUMPDEST PUSH2 0x2607 DUP2 PUSH2 0x1C78 JUMP JUMPDEST DUP2 EQ PUSH2 0x2612 JUMPI PUSH1 0x0 DUP1 REVERT JUMPDEST POP JUMP JUMPDEST PUSH1 0x0 DUP2 MLOAD SWAP1 POP PUSH2 0x2624 DUP2 PUSH2 0x25FE JUMP JUMPDEST SWAP3 SWAP2 POP POP JUMP JUMPDEST PUSH1 0x0 PUSH1 0x20 DUP3 DUP5 SUB SLT ISZERO PUSH2 0x2640 JUMPI PUSH2 0x263F PUSH2 0x1A5A JUMP JUMPDEST JUMPDEST PUSH1 0x0 PUSH2 0x264E DUP5 DUP3 DUP6 ADD PUSH2 0x2615 JUMP JUMPDEST SWAP2 POP POP SWAP3 SWAP2 POP POP JUMP JUMPDEST PUSH32 0x6572726F7220696E20646973747269627574696F6E0000000000000000000000 PUSH1 0x0 DUP3 ADD MSTORE POP JUMP JUMPDEST PUSH1 0x0 PUSH2 0x268D PUSH1 0x15 DUP4 PUSH2 0x211C JUMP JUMPDEST SWAP2 POP PUSH2 0x2698 DUP3 PUSH2 0x2657 JUMP JUMPDEST PUSH1 0x20 DUP3 ADD SWAP1 POP SWAP2 SWAP1 POP JUMP JUMPDEST PUSH1 0x0 PUSH1 0x20 DUP3 ADD SWAP1 POP DUP2 DUP2 SUB PUSH1 0x0 DUP4 ADD MSTORE PUSH2 0x26BC DUP2 PUSH2 0x2680 JUMP JUMPDEST SWAP1 POP SWAP2 SWAP1 POP JUMP JUMPDEST PUSH32 0x686F6C64696E67202620617574686F72697A6174696F6E2066616C7365207061 PUSH1 0x0 DUP3 ADD MSTORE PUSH32 0x7920657861637420666565000000000000000000000000000000000000000000 PUSH1 0x20 DUP3 ADD MSTORE POP JUMP JUMPDEST PUSH1 0x0 PUSH2 0x271F PUSH1 0x2B DUP4 PUSH2 0x211C JUMP JUMPDEST SWAP2 POP PUSH2 0x272A DUP3 PUSH2 0x26C3 JUMP JUMPDEST PUSH1 0x40 DUP3 ADD SWAP1 POP SWAP2 SWAP1 POP JUMP JUMPDEST PUSH1 0x0 PUSH1 0x20 DUP3 ADD SWAP1 POP DUP2 DUP2 SUB PUSH1 0x0 DUP4 ADD MSTORE PUSH2 0x274E DUP2 PUSH2 0x2712 JUMP JUMPDEST SWAP1 POP SWAP2 SWAP1 POP JUMP JUMPDEST PUSH32 0x636F6E747261637420646F65736E2774206861766520656E6F75676820746F6B PUSH1 0x0 DUP3 ADD MSTORE PUSH32 0x656E277300000000000000000000000000000000000000000000000000000000 PUSH1 0x20 DUP3 ADD MSTORE POP JUMP JUMPDEST PUSH1 0x0 PUSH2 0x27B1 PUSH1 0x24 DUP4 PUSH2 0x211C JUMP JUMPDEST SWAP2 POP PUSH2 0x27BC DUP3 PUSH2 0x2755 JUMP JUMPDEST PUSH1 0x40 DUP3 ADD SWAP1 POP SWAP2 SWAP1 POP JUMP JUMPDEST PUSH1 0x0 PUSH1 0x20 DUP3 ADD SWAP1 POP DUP2 DUP2 SUB PUSH1 0x0 DUP4 ADD MSTORE PUSH2 0x27E0 DUP2 PUSH2 0x27A4 JUMP JUMPDEST SWAP1 POP SWAP2 SWAP1 POP JUMP JUMPDEST PUSH1 0x0 PUSH1 0x40 DUP3 ADD SWAP1 POP PUSH2 0x27FC PUSH1 0x0 DUP4 ADD DUP6 PUSH2 0x1CAE JUMP JUMPDEST PUSH2 0x2809 PUSH1 0x20 DUP4 ADD DUP5 PUSH2 0x1B38 JUMP JUMPDEST SWAP4 SWAP3 POP POP POP JUMP JUMPDEST PUSH1 0x0 PUSH2 0x281B DUP3 PUSH2 0x1A64 JUMP JUMPDEST SWAP2 POP PUSH2 0x2826 DUP4 PUSH2 0x1A64 JUMP JUMPDEST SWAP3 POP DUP3 PUSH32 0xFFFFFFFFFFFFFFFFFFFFFFFFFFFFFFFFFFFFFFFFFFFFFFFFFFFFFFFFFFFFFFFF SUB DUP3 GT ISZERO PUSH2 0x285B JUMPI PUSH2 0x285A PUSH2 0x2349 JUMP JUMPDEST JUMPDEST DUP3 DUP3 ADD SWAP1 POP SWAP3 SWAP2 POP POP JUMP JUMPDEST PUSH32 0x7061792074686520657861637420616D6F756E7420746F20636F766572206469 PUSH1 0x0 DUP3 ADD MSTORE PUSH32 0x73747269627574696F6E00000000000000000000000000000000000000000000 PUSH1 0x20 DUP3 ADD MSTORE POP JUMP JUMPDEST PUSH1 0x0 PUSH2 0x28C2 PUSH1 0x2A DUP4 PUSH2 0x211C JUMP JUMPDEST SWAP2 POP PUSH2 0x28CD DUP3 PUSH2 0x2866 JUMP JUMPDEST PUSH1 0x40 DUP3 ADD SWAP1 POP SWAP2 SWAP1 POP JUMP JUMPDEST PUSH1 0x0 PUSH1 0x20 DUP3 ADD SWAP1 POP DUP2 DUP2 SUB PUSH1 0x0 DUP4 ADD MSTORE PUSH2 0x28F1 DUP2 PUSH2 0x28B5 JUMP JUMPDEST SWAP1 POP SWAP2 SWAP1 POP JUMP JUMPDEST PUSH32 0x686F6C64696E67207175616E74697479207472756520627574206D73672E7661 PUSH1 0x0 DUP3 ADD MSTORE PUSH32 0x6C756520756E6365727461696E20706179206578616374000000000000000000 PUSH1 0x20 DUP3 ADD MSTORE POP JUMP JUMPDEST PUSH1 0x0 PUSH2 0x2954 PUSH1 0x37 DUP4 PUSH2 0x211C JUMP JUMPDEST SWAP2 POP PUSH2 0x295F DUP3 PUSH2 0x28F8 JUMP JUMPDEST PUSH1 0x40 DUP3 ADD SWAP1 POP SWAP2 SWAP1 POP JUMP JUMPDEST PUSH1 0x0 PUSH1 0x20 DUP3 ADD SWAP1 POP DUP2 DUP2 SUB PUSH1 0x0 DUP4 ADD MSTORE PUSH2 0x2983 DUP2 PUSH2 0x2947 JUMP JUMPDEST SWAP1 POP SWAP2 SWAP1 POP JUMP JUMPDEST PUSH32 0x4F776E61626C653A206E6577206F776E657220697320746865207A65726F2061 PUSH1 0x0 DUP3 ADD MSTORE PUSH32 0x6464726573730000000000000000000000000000000000000000000000000000 PUSH1 0x20 DUP3 ADD MSTORE POP JUMP JUMPDEST PUSH1 0x0 PUSH2 0x29E6 PUSH1 0x26 DUP4 PUSH2 0x211C JUMP JUMPDEST SWAP2 POP PUSH2 0x29F1 DUP3 PUSH2 0x298A JUMP JUMPDEST PUSH1 0x40 DUP3 ADD SWAP1 POP SWAP2 SWAP1 POP JUMP JUMPDEST PUSH1 0x0 PUSH1 0x20 DUP3 ADD SWAP1 POP DUP2 DUP2 SUB PUSH1 0x0 DUP4 ADD MSTORE PUSH2 0x2A15 DUP2 PUSH2 0x29D9 JUMP JUMPDEST SWAP1 POP SWAP2 SWAP1 POP JUMP JUMPDEST PUSH32 0x696E76616C69642062616C616E636520746F2077697468647261770000000000 PUSH1 0x0 DUP3 ADD MSTORE POP JUMP JUMPDEST PUSH1 0x0 PUSH2 0x2A52 PUSH1 0x1B DUP4 PUSH2 0x211C JUMP JUMPDEST SWAP2 POP PUSH2 0x2A5D DUP3 PUSH2 0x2A1C JUMP JUMPDEST PUSH1 0x20 DUP3 ADD SWAP1 POP SWAP2 SWAP1 POP JUMP JUMPDEST PUSH1 0x0 PUSH1 0x20 DUP3 ADD SWAP1 POP DUP2 DUP2 SUB PUSH1 0x0 DUP4 ADD MSTORE PUSH2 0x2A81 DUP2 PUSH2 0x2A45 JUMP JUMPDEST SWAP1 POP SWAP2 SWAP1 POP JUMP JUMPDEST PUSH32 0x4F776E61626C653A2063616C6C6572206973206E6F7420746865206F776E6572 PUSH1 0x0 DUP3 ADD MSTORE POP JUMP JUMPDEST PUSH1 0x0 PUSH2 0x2ABE PUSH1 0x20 DUP4 PUSH2 0x211C JUMP JUMPDEST SWAP2 POP PUSH2 0x2AC9 DUP3 PUSH2 0x2A88 JUMP JUMPDEST PUSH1 0x20 DUP3 ADD SWAP1 POP SWAP2 SWAP1 POP JUMP JUMPDEST PUSH1 0x0 PUSH1 0x20 DUP3 ADD SWAP1 POP DUP2 DUP2 SUB PUSH1 0x0 DUP4 ADD MSTORE PUSH2 0x2AED DUP2 PUSH2 0x2AB1 JUMP JUMPDEST SWAP1 POP SWAP2 SWAP1 POP JUMP INVALID LOG2 PUSH5 0x6970667358 0x22 SLT KECCAK256 0xEB GASLIMIT LOG1 0xB4 CALLDATALOAD PUSH21 0x2D6A4526589AE5344CCC3B1D6622E150EB1E036C30 0xC4 PUSH30 0x1F95CF64736F6C634300080D003300000000000000000000000000000000 "
				},
				"gasEstimates": {
					"creation": {
						"codeDepositCost": "2210000",
						"executionCost": "infinite",
						"totalCost": "infinite"
					},
					"external": {
						"SetTokenToholdAndQuantity(address,uint256)": "41406",
						"TOKENmultisender(address,address[],uint256[])": "infinite",
						"authorizeUser(address)": "21604",
						"authorizedusers(address)": "968",
						"coinMultisender(address[],uint256[])": "infinite",
						"contractBalance()": "1217",
						"fee()": "573",
						"fetchDecimals(address)": "infinite",
						"owner()": "645",
						"quantity()": "575",
						"receiver()": "702",
						"renounceOwnership()": "22687",
						"setfeeToUse(uint256,address)": "41297",
						"tokenAddress()": "infinite",
						"transferOwnership(address)": "23010",
						"unauthorizeUser(address)": "21582",
						"withdrawCoins(uint256)": "infinite",
						"withdrawToken(address,uint256)": "infinite"
					}
				},
				"methodIdentifiers": {
					"SetTokenToholdAndQuantity(address,uint256)": "2fc75eb0",
					"TOKENmultisender(address,address[],uint256[])": "9cbd3433",
					"authorizeUser(address)": "67c2a360",
					"authorizedusers(address)": "44b6209d",
					"coinMultisender(address[],uint256[])": "d908e6ce",
					"contractBalance()": "8b7afe2e",
					"fee()": "ddca3f43",
					"fetchDecimals(address)": "20ac1e29",
					"owner()": "8da5cb5b",
					"quantity()": "17fc45e2",
					"receiver()": "f7260d3e",
					"renounceOwnership()": "715018a6",
					"setfeeToUse(uint256,address)": "126ccd94",
					"tokenAddress()": "9d76ea58",
					"transferOwnership(address)": "f2fde38b",
					"unauthorizeUser(address)": "478aa69e",
					"withdrawCoins(uint256)": "f9f95a0f",
					"withdrawToken(address,uint256)": "9e281a98"
				}
			},
			"storageLayout": {
				"storage": [
					{
						"astId": 7,
						"contract": "SnipeFinanceMultisenders (2)/SnipeFinanceMultisenders/SnipeFinanceMultisenders.sol:SnipeFinanceMultisenders",
						"label": "_owner",
						"offset": 0,
						"slot": "0",
						"type": "t_address"
					},
					{
						"astId": 562,
						"contract": "SnipeFinanceMultisenders (2)/SnipeFinanceMultisenders/SnipeFinanceMultisenders.sol:SnipeFinanceMultisenders",
						"label": "fee",
						"offset": 0,
						"slot": "1",
						"type": "t_uint256"
					},
					{
						"astId": 564,
						"contract": "SnipeFinanceMultisenders (2)/SnipeFinanceMultisenders/SnipeFinanceMultisenders.sol:SnipeFinanceMultisenders",
						"label": "receiver",
						"offset": 0,
						"slot": "2",
						"type": "t_address_payable"
					},
					{
						"astId": 568,
						"contract": "SnipeFinanceMultisenders (2)/SnipeFinanceMultisenders/SnipeFinanceMultisenders.sol:SnipeFinanceMultisenders",
						"label": "authorizedusers",
						"offset": 0,
						"slot": "3",
						"type": "t_mapping(t_address,t_bool)"
					},
					{
						"astId": 571,
						"contract": "SnipeFinanceMultisenders (2)/SnipeFinanceMultisenders/SnipeFinanceMultisenders.sol:SnipeFinanceMultisenders",
						"label": "tokenAddress",
						"offset": 0,
						"slot": "4",
						"type": "t_contract(IERC20)190"
					},
					{
						"astId": 573,
						"contract": "SnipeFinanceMultisenders (2)/SnipeFinanceMultisenders/SnipeFinanceMultisenders.sol:SnipeFinanceMultisenders",
						"label": "quantity",
						"offset": 0,
						"slot": "5",
						"type": "t_uint256"
					}
				],
				"types": {
					"t_address": {
						"encoding": "inplace",
						"label": "address",
						"numberOfBytes": "20"
					},
					"t_address_payable": {
						"encoding": "inplace",
						"label": "address payable",
						"numberOfBytes": "20"
					},
					"t_bool": {
						"encoding": "inplace",
						"label": "bool",
						"numberOfBytes": "1"
					},
					"t_contract(IERC20)190": {
						"encoding": "inplace",
						"label": "contract IERC20",
						"numberOfBytes": "20"
					},
					"t_mapping(t_address,t_bool)": {
						"encoding": "mapping",
						"key": "t_address",
						"label": "mapping(address => bool)",
						"numberOfBytes": "32",
						"value": "t_bool"
					},
					"t_uint256": {
						"encoding": "inplace",
						"label": "uint256",
						"numberOfBytes": "32"
					}
				}
			},
			"userdoc": {
				"kind": "user",
				"methods": {},
				"version": 1
			}
		}
	}
}